{"abi":[{"type":"function","name":"increaseNumber","inputs":[],"outputs":[],"stateMutability":"nonpayable"},{"type":"function","name":"initialize","inputs":[],"outputs":[],"stateMutability":"nonpayable"},{"type":"function","name":"number","inputs":[],"outputs":[{"name":"","type":"uint256","internalType":"uint256"}],"stateMutability":"view"},{"type":"function","name":"owner","inputs":[],"outputs":[{"name":"","type":"address","internalType":"address"}],"stateMutability":"view"},{"type":"function","name":"paused","inputs":[],"outputs":[{"name":"","type":"bool","internalType":"bool"}],"stateMutability":"view"},{"type":"function","name":"renounceOwnership","inputs":[],"outputs":[],"stateMutability":"nonpayable"},{"type":"function","name":"transferOwnership","inputs":[{"name":"newOwner","type":"address","internalType":"address"}],"outputs":[],"stateMutability":"nonpayable"},{"type":"event","name":"Initialized","inputs":[{"name":"version","type":"uint64","indexed":false,"internalType":"uint64"}],"anonymous":false},{"type":"event","name":"OwnershipTransferred","inputs":[{"name":"previousOwner","type":"address","indexed":true,"internalType":"address"},{"name":"newOwner","type":"address","indexed":true,"internalType":"address"}],"anonymous":false},{"type":"event","name":"Paused","inputs":[{"name":"account","type":"address","indexed":false,"internalType":"address"}],"anonymous":false},{"type":"event","name":"Unpaused","inputs":[{"name":"account","type":"address","indexed":false,"internalType":"address"}],"anonymous":false},{"type":"error","name":"EnforcedPause","inputs":[]},{"type":"error","name":"ExpectedPause","inputs":[]},{"type":"error","name":"InvalidInitialization","inputs":[]},{"type":"error","name":"NotInitializing","inputs":[]},{"type":"error","name":"OwnableInvalidOwner","inputs":[{"name":"owner","type":"address","internalType":"address"}]},{"type":"error","name":"OwnableUnauthorizedAccount","inputs":[{"name":"account","type":"address","internalType":"address"}]}],"bytecode":{"object":"0x6080604052348015600f57600080fd5b506109138061001f6000396000f3fe608060405234801561001057600080fd5b506004361061007d5760003560e01c80638129fc1c1161005b5780638129fc1c146100b45780638381f58a146100be5780638da5cb5b146100dc578063f2fde38b146100fa5761007d565b80635b4ef819146100825780635c975abb1461008c578063715018a6146100aa575b600080fd5b61008a610116565b005b610094610131565b6040516100a191906106fd565b60405180910390f35b6100b2610156565b005b6100bc61016a565b005b6100c6610300565b6040516100d39190610731565b60405180910390f35b6100e4610306565b6040516100f1919061078d565b60405180910390f35b610114600480360381019061010f91906107d9565b61033e565b005b60016000808282546101289190610835565b92505081905550565b60008061013c6103c4565b90508060000160009054906101000a900460ff1691505090565b61015e6103ec565b6101686000610473565b565b600061017461054a565b905060008160000160089054906101000a900460ff1615905060008260000160009054906101000a900467ffffffffffffffff1690506000808267ffffffffffffffff161480156101c25750825b9050600060018367ffffffffffffffff161480156101f7575060003073ffffffffffffffffffffffffffffffffffffffff163b145b905081158015610205575080155b1561023c576040517ff92ee8a900000000000000000000000000000000000000000000000000000000815260040160405180910390fd5b60018560000160006101000a81548167ffffffffffffffff021916908367ffffffffffffffff160217905550831561028c5760018560000160086101000a81548160ff0219169083151502179055505b61029533610572565b61029d610586565b83156102f95760008560000160086101000a81548160ff0219169083151502179055507fc7f505b2f371ae2175ee4913f4499e1f2633a7b5936321eed1cdaeb6115181d260016040516102f091906108c2565b60405180910390a15b5050505050565b60005481565b600080610311610598565b90508060000160009054906101000a900473ffffffffffffffffffffffffffffffffffffffff1691505090565b6103466103ec565b600073ffffffffffffffffffffffffffffffffffffffff168173ffffffffffffffffffffffffffffffffffffffff16036103b85760006040517f1e4fbdf70000000000000000000000000000000000000000000000000000000081526004016103af919061078d565b60405180910390fd5b6103c181610473565b50565b60007fcd5ed15c6e187e77e9aee88184c21f4f2182ab5827cb3b7e07fbedcd63f03300905090565b6103f46105c0565b73ffffffffffffffffffffffffffffffffffffffff16610412610306565b73ffffffffffffffffffffffffffffffffffffffff1614610471576104356105c0565b6040517f118cdaa7000000000000000000000000000000000000000000000000000000008152600401610468919061078d565b60405180910390fd5b565b600061047d610598565b905060008160000160009054906101000a900473ffffffffffffffffffffffffffffffffffffffff169050828260000160006101000a81548173ffffffffffffffffffffffffffffffffffffffff021916908373ffffffffffffffffffffffffffffffffffffffff1602179055508273ffffffffffffffffffffffffffffffffffffffff168173ffffffffffffffffffffffffffffffffffffffff167f8be0079c531659141344cd1fd0a4f28419497f9722a3daafe3b4186f6b6457e060405160405180910390a3505050565b60007ff0c57e16840df040f15088dc2f81fe391c3923bec73e23a9662efc9c229c6a00905090565b61057a6105c8565b61058381610608565b50565b61058e6105c8565b61059661068e565b565b60007f9016d09d72d40fdae2fd8ceac6b6234c7706214fd39c1cd1e609a0528c199300905090565b600033905090565b6105d06106c2565b610606576040517fd7e6bcf800000000000000000000000000000000000000000000000000000000815260040160405180910390fd5b565b6106106105c8565b600073ffffffffffffffffffffffffffffffffffffffff168173ffffffffffffffffffffffffffffffffffffffff16036106825760006040517f1e4fbdf7000000000000000000000000000000000000000000000000000000008152600401610679919061078d565b60405180910390fd5b61068b81610473565b50565b6106966105c8565b60006106a06103c4565b905060008160000160006101000a81548160ff02191690831515021790555050565b60006106cc61054a565b60000160089054906101000a900460ff16905090565b60008115159050919050565b6106f7816106e2565b82525050565b600060208201905061071260008301846106ee565b92915050565b6000819050919050565b61072b81610718565b82525050565b60006020820190506107466000830184610722565b92915050565b600073ffffffffffffffffffffffffffffffffffffffff82169050919050565b60006107778261074c565b9050919050565b6107878161076c565b82525050565b60006020820190506107a2600083018461077e565b92915050565b600080fd5b6107b68161076c565b81146107c157600080fd5b50565b6000813590506107d3816107ad565b92915050565b6000602082840312156107ef576107ee6107a8565b5b60006107fd848285016107c4565b91505092915050565b7f4e487b7100000000000000000000000000000000000000000000000000000000600052601160045260246000fd5b600061084082610718565b915061084b83610718565b925082820190508082111561086357610862610806565b5b92915050565b6000819050919050565b600067ffffffffffffffff82169050919050565b6000819050919050565b60006108ac6108a76108a284610869565b610887565b610873565b9050919050565b6108bc81610891565b82525050565b60006020820190506108d760008301846108b3565b9291505056fea264697066735822122011c0cff01f90f7a327e489d4cd08e70cc094cbaf5b0c7930fd3f43101c5ff18964736f6c63430008190033","linkReferences":{}},"methodIdentifiers":{"increaseNumber()":"5b4ef819","initialize()":"8129fc1c","number()":"8381f58a","owner()":"8da5cb5b","paused()":"5c975abb","renounceOwnership()":"715018a6","transferOwnership(address)":"f2fde38b"},"id":29}