{"abi":[{"type":"function","name":"increaseNumber","inputs":[],"outputs":[],"stateMutability":"nonpayable"},{"type":"function","name":"initialize","inputs":[],"outputs":[],"stateMutability":"nonpayable"},{"type":"function","name":"number","inputs":[],"outputs":[{"name":"","type":"uint256","internalType":"uint256"}],"stateMutability":"view"},{"type":"function","name":"owner","inputs":[],"outputs":[{"name":"","type":"address","internalType":"address"}],"stateMutability":"view"},{"type":"function","name":"paused","inputs":[],"outputs":[{"name":"","type":"bool","internalType":"bool"}],"stateMutability":"view"},{"type":"function","name":"renounceOwnership","inputs":[],"outputs":[],"stateMutability":"nonpayable"},{"type":"function","name":"transferOwnership","inputs":[{"name":"newOwner","type":"address","internalType":"address"}],"outputs":[],"stateMutability":"nonpayable"},{"type":"event","name":"Initialized","inputs":[{"name":"version","type":"uint64","indexed":false,"internalType":"uint64"}],"anonymous":false},{"type":"event","name":"OwnershipTransferred","inputs":[{"name":"previousOwner","type":"address","indexed":true,"internalType":"address"},{"name":"newOwner","type":"address","indexed":true,"internalType":"address"}],"anonymous":false},{"type":"event","name":"Paused","inputs":[{"name":"account","type":"address","indexed":false,"internalType":"address"}],"anonymous":false},{"type":"event","name":"Unpaused","inputs":[{"name":"account","type":"address","indexed":false,"internalType":"address"}],"anonymous":false},{"type":"error","name":"EnforcedPause","inputs":[]},{"type":"error","name":"ExpectedPause","inputs":[]},{"type":"error","name":"InvalidInitialization","inputs":[]},{"type":"error","name":"NotInitializing","inputs":[]},{"type":"error","name":"OwnableInvalidOwner","inputs":[{"name":"owner","type":"address","internalType":"address"}]},{"type":"error","name":"OwnableUnauthorizedAccount","inputs":[{"name":"account","type":"address","internalType":"address"}]}],"bytecode":{"object":"0x6080604052348015600e575f80fd5b506104af8061001c5f395ff3fe608060405234801561000f575f80fd5b506004361061007a575f3560e01c80638129fc1c116100585780638129fc1c146100ca5780638381f58a146100d25780638da5cb5b146100e8578063f2fde38b14610122575f80fd5b80635b4ef8191461007e5780635c975abb14610088578063715018a6146100c2575b5f80fd5b610086610135565b005b7fcd5ed15c6e187e77e9aee88184c21f4f2182ab5827cb3b7e07fbedcd63f033005460ff1660405190151581526020015b60405180910390f35b61008661014d565b610086610160565b6100da5f5481565b6040519081526020016100b9565b7f9016d09d72d40fdae2fd8ceac6b6234c7706214fd39c1cd1e609a0528c199300546040516001600160a01b0390911681526020016100b9565b610086610130366004610427565b610275565b60015f808282546101469190610454565b9091555050565b6101556102b7565b61015e5f610312565b565b7ff0c57e16840df040f15088dc2f81fe391c3923bec73e23a9662efc9c229c6a008054600160401b810460ff16159067ffffffffffffffff165f811580156101a55750825b90505f8267ffffffffffffffff1660011480156101c15750303b155b9050811580156101cf575080155b156101ed5760405163f92ee8a960e01b815260040160405180910390fd5b845467ffffffffffffffff19166001178555831561021757845460ff60401b1916600160401b1785555b61022033610382565b610228610393565b831561026e57845460ff60401b19168555604051600181527fc7f505b2f371ae2175ee4913f4499e1f2633a7b5936321eed1cdaeb6115181d29060200160405180910390a15b5050505050565b61027d6102b7565b6001600160a01b0381166102ab57604051631e4fbdf760e01b81525f60048201526024015b60405180910390fd5b6102b481610312565b50565b336102e97f9016d09d72d40fdae2fd8ceac6b6234c7706214fd39c1cd1e609a0528c199300546001600160a01b031690565b6001600160a01b03161461015e5760405163118cdaa760e01b81523360048201526024016102a2565b7f9016d09d72d40fdae2fd8ceac6b6234c7706214fd39c1cd1e609a0528c19930080546001600160a01b031981166001600160a01b03848116918217845560405192169182907f8be0079c531659141344cd1fd0a4f28419497f9722a3daafe3b4186f6b6457e0905f90a3505050565b61038a6103a3565b6102b4816103ec565b61039b6103a3565b61015e6103f4565b7ff0c57e16840df040f15088dc2f81fe391c3923bec73e23a9662efc9c229c6a0054600160401b900460ff1661015e57604051631afcd79f60e31b815260040160405180910390fd5b61027d6103a3565b6103fc6103a3565b7fcd5ed15c6e187e77e9aee88184c21f4f2182ab5827cb3b7e07fbedcd63f03300805460ff19169055565b5f60208284031215610437575f80fd5b81356001600160a01b038116811461044d575f80fd5b9392505050565b8082018082111561047357634e487b7160e01b5f52601160045260245ffd5b9291505056fea264697066735822122044fd433a6565c9b4d8dd5854813963ff84cf92bc58624454f795461c70a9a17664736f6c63430008190033","linkReferences":{}},"methodIdentifiers":{"increaseNumber()":"5b4ef819","initialize()":"8129fc1c","number()":"8381f58a","owner()":"8da5cb5b","paused()":"5c975abb","renounceOwnership()":"715018a6","transferOwnership(address)":"f2fde38b"},"id":31}