{"abi":[{"type":"function","name":"initialize","inputs":[{"name":"_operator","type":"address","internalType":"address"}],"outputs":[],"stateMutability":"nonpayable"},{"type":"function","name":"isOperator","inputs":[{"name":"","type":"address","internalType":"address"}],"outputs":[{"name":"","type":"bool","internalType":"bool"}],"stateMutability":"view"},{"type":"function","name":"owner","inputs":[],"outputs":[{"name":"","type":"address","internalType":"address"}],"stateMutability":"view"},{"type":"function","name":"renounceOwnership","inputs":[],"outputs":[],"stateMutability":"nonpayable"},{"type":"function","name":"setOperator","inputs":[{"name":"_operator","type":"address","internalType":"address"},{"name":"_status","type":"bool","internalType":"bool"}],"outputs":[],"stateMutability":"nonpayable"},{"type":"function","name":"transferOwnership","inputs":[{"name":"newOwner","type":"address","internalType":"address"}],"outputs":[],"stateMutability":"nonpayable"},{"type":"function","name":"withdrawFunds","inputs":[{"name":"_token","type":"address","internalType":"address"},{"name":"_to","type":"address","internalType":"address"},{"name":"_amount","type":"uint256","internalType":"uint256"}],"outputs":[],"stateMutability":"nonpayable"},{"type":"event","name":"FundsWithdrawn","inputs":[{"name":"token","type":"address","indexed":false,"internalType":"address"},{"name":"to","type":"address","indexed":false,"internalType":"address"},{"name":"amount","type":"uint256","indexed":false,"internalType":"uint256"}],"anonymous":false},{"type":"event","name":"Initialized","inputs":[{"name":"version","type":"uint64","indexed":false,"internalType":"uint64"}],"anonymous":false},{"type":"event","name":"OwnershipTransferred","inputs":[{"name":"previousOwner","type":"address","indexed":true,"internalType":"address"},{"name":"newOwner","type":"address","indexed":true,"internalType":"address"}],"anonymous":false},{"type":"error","name":"AddressEmptyCode","inputs":[{"name":"target","type":"address","internalType":"address"}]},{"type":"error","name":"AddressInsufficientBalance","inputs":[{"name":"account","type":"address","internalType":"address"}]},{"type":"error","name":"FailedInnerCall","inputs":[]},{"type":"error","name":"InvalidInitialization","inputs":[]},{"type":"error","name":"NotInitializing","inputs":[]},{"type":"error","name":"OwnableInvalidOwner","inputs":[{"name":"owner","type":"address","internalType":"address"}]},{"type":"error","name":"OwnableUnauthorizedAccount","inputs":[{"name":"account","type":"address","internalType":"address"}]},{"type":"error","name":"SafeERC20FailedOperation","inputs":[{"name":"token","type":"address","internalType":"address"}]}],"bytecode":{"object":"0x6080604052348015600f57600080fd5b5061082a8061001f6000396000f3fe608060405234801561001057600080fd5b506004361061007d5760003560e01c8063715018a61161005b578063715018a6146100e25780638da5cb5b146100ea578063c4d66de814610124578063f2fde38b1461013757600080fd5b80631c20fadd14610082578063558a7297146100975780636d70f7ae146100aa575b600080fd5b61009561009036600461070c565b61014a565b005b6100956100a5366004610756565b61021e565b6100cd6100b836600461078d565b60006020819052908152604090205460ff1681565b60405190151581526020015b60405180910390f35b610095610251565b7f9016d09d72d40fdae2fd8ceac6b6234c7706214fd39c1cd1e609a0528c199300546040516001600160a01b0390911681526020016100d9565b61009561013236600461078d565b610265565b61009561014536600461078d565b610398565b3360009081526020819052604090205460ff166101ba5760405162461bcd60e51b815260206004820152602360248201527f4e65785661756c743a2063616c6c6572206973206e6f7420616e206f706572616044820152623a37b960e91b60648201526084015b60405180910390fd5b604080516001600160a01b038086168252841660208201529081018290527fa92ff919b850e4909ab2261d907ef955f11bc1716733a6cbece38d163a69af8a9060600160405180910390a16102196001600160a01b03841683836103d6565b505050565b610226610428565b6001600160a01b03919091166000908152602081905260409020805460ff1916911515919091179055565b610259610428565b6102636000610483565b565b7ff0c57e16840df040f15088dc2f81fe391c3923bec73e23a9662efc9c229c6a008054600160401b810460ff16159067ffffffffffffffff166000811580156102ab5750825b905060008267ffffffffffffffff1660011480156102c85750303b155b9050811580156102d6575080155b156102f45760405163f92ee8a960e01b815260040160405180910390fd5b845467ffffffffffffffff19166001178555831561031e57845460ff60401b1916600160401b1785555b610327336104f4565b6001600160a01b0386166000908152602081905260409020805460ff19166001179055831561039057845460ff60401b19168555604051600181527fc7f505b2f371ae2175ee4913f4499e1f2633a7b5936321eed1cdaeb6115181d29060200160405180910390a15b505050505050565b6103a0610428565b6001600160a01b0381166103ca57604051631e4fbdf760e01b8152600060048201526024016101b1565b6103d381610483565b50565b604080516001600160a01b038416602482015260448082018490528251808303909101815260649091019091526020810180516001600160e01b031663a9059cbb60e01b179052610219908490610505565b3361045a7f9016d09d72d40fdae2fd8ceac6b6234c7706214fd39c1cd1e609a0528c199300546001600160a01b031690565b6001600160a01b0316146102635760405163118cdaa760e01b81523360048201526024016101b1565b7f9016d09d72d40fdae2fd8ceac6b6234c7706214fd39c1cd1e609a0528c19930080546001600160a01b031981166001600160a01b03848116918217845560405192169182907f8be0079c531659141344cd1fd0a4f28419497f9722a3daafe3b4186f6b6457e090600090a3505050565b6104fc610568565b6103d3816105b1565b600061051a6001600160a01b038416836105b9565b9050805160001415801561053f57508080602001905181019061053d91906107a8565b155b1561021957604051635274afe760e01b81526001600160a01b03841660048201526024016101b1565b7ff0c57e16840df040f15088dc2f81fe391c3923bec73e23a9662efc9c229c6a0054600160401b900460ff1661026357604051631afcd79f60e31b815260040160405180910390fd5b6103a0610568565b60606105c7838360006105ce565b9392505050565b6060814710156105f35760405163cd78605960e01b81523060048201526024016101b1565b600080856001600160a01b0316848660405161060f91906107c5565b60006040518083038185875af1925050503d806000811461064c576040519150601f19603f3d011682016040523d82523d6000602084013e610651565b606091505b509150915061066186838361066b565b9695505050505050565b6060826106805761067b826106c7565b6105c7565b815115801561069757506001600160a01b0384163b155b156106c057604051639996b31560e01b81526001600160a01b03851660048201526024016101b1565b50806105c7565b8051156106d75780518082602001fd5b604051630a12f52160e11b815260040160405180910390fd5b80356001600160a01b038116811461070757600080fd5b919050565b60008060006060848603121561072157600080fd5b61072a846106f0565b9250610738602085016106f0565b9150604084013590509250925092565b80151581146103d357600080fd5b6000806040838503121561076957600080fd5b610772836106f0565b9150602083013561078281610748565b809150509250929050565b60006020828403121561079f57600080fd5b6105c7826106f0565b6000602082840312156107ba57600080fd5b81516105c781610748565b6000825160005b818110156107e657602081860181015185830152016107cc565b50600092019182525091905056fea264697066735822122030f11e8aef533644daa937512ed1a95735e864242820204e072924f0f20244e464736f6c63430008190033","linkReferences":{}},"methodIdentifiers":{"initialize(address)":"c4d66de8","isOperator(address)":"6d70f7ae","owner()":"8da5cb5b","renounceOwnership()":"715018a6","setOperator(address,bool)":"558a7297","transferOwnership(address)":"f2fde38b","withdrawFunds(address,address,uint256)":"1c20fadd"},"id":41}