{"abi":[{"type":"function","name":"initialize","inputs":[{"name":"_operator","type":"address","internalType":"address"}],"outputs":[],"stateMutability":"nonpayable"},{"type":"function","name":"isOperator","inputs":[{"name":"","type":"address","internalType":"address"}],"outputs":[{"name":"","type":"bool","internalType":"bool"}],"stateMutability":"view"},{"type":"function","name":"owner","inputs":[],"outputs":[{"name":"","type":"address","internalType":"address"}],"stateMutability":"view"},{"type":"function","name":"renounceOwnership","inputs":[],"outputs":[],"stateMutability":"nonpayable"},{"type":"function","name":"setOperator","inputs":[{"name":"_operator","type":"address","internalType":"address"},{"name":"_status","type":"bool","internalType":"bool"}],"outputs":[],"stateMutability":"nonpayable"},{"type":"function","name":"transferOwnership","inputs":[{"name":"newOwner","type":"address","internalType":"address"}],"outputs":[],"stateMutability":"nonpayable"},{"type":"function","name":"withdrawFunds","inputs":[{"name":"_token","type":"address","internalType":"address"},{"name":"_to","type":"address","internalType":"address"},{"name":"_amount","type":"uint256","internalType":"uint256"}],"outputs":[],"stateMutability":"nonpayable"},{"type":"event","name":"FundsWithdrawn","inputs":[{"name":"token","type":"address","indexed":false,"internalType":"address"},{"name":"to","type":"address","indexed":false,"internalType":"address"},{"name":"amount","type":"uint256","indexed":false,"internalType":"uint256"}],"anonymous":false},{"type":"event","name":"Initialized","inputs":[{"name":"version","type":"uint64","indexed":false,"internalType":"uint64"}],"anonymous":false},{"type":"event","name":"OwnershipTransferred","inputs":[{"name":"previousOwner","type":"address","indexed":true,"internalType":"address"},{"name":"newOwner","type":"address","indexed":true,"internalType":"address"}],"anonymous":false},{"type":"error","name":"AddressEmptyCode","inputs":[{"name":"target","type":"address","internalType":"address"}]},{"type":"error","name":"AddressInsufficientBalance","inputs":[{"name":"account","type":"address","internalType":"address"}]},{"type":"error","name":"FailedInnerCall","inputs":[]},{"type":"error","name":"InvalidInitialization","inputs":[]},{"type":"error","name":"NotInitializing","inputs":[]},{"type":"error","name":"OwnableInvalidOwner","inputs":[{"name":"owner","type":"address","internalType":"address"}]},{"type":"error","name":"OwnableUnauthorizedAccount","inputs":[{"name":"account","type":"address","internalType":"address"}]},{"type":"error","name":"SafeERC20FailedOperation","inputs":[{"name":"token","type":"address","internalType":"address"}]}],"bytecode":{"object":"0x6080604052348015600e575f80fd5b50610edf8061001c5f395ff3fe608060405234801561000f575f80fd5b506004361061007b575f3560e01c8063715018a611610059578063715018a6146100e75780638da5cb5b146100f1578063c4d66de81461010f578063f2fde38b1461012b5761007b565b80631c20fadd1461007f578063558a72971461009b5780636d70f7ae146100b7575b5f80fd5b61009960048036038101906100949190610b4d565b610147565b005b6100b560048036038101906100b09190610bd2565b61023a565b005b6100d160048036038101906100cc9190610c10565b610299565b6040516100de9190610c4a565b60405180910390f35b6100ef6102b5565b005b6100f96102c8565b6040516101069190610c72565b60405180910390f35b61012960048036038101906101249190610c10565b6102fd565b005b61014560048036038101906101409190610c10565b6104d2565b005b5f803373ffffffffffffffffffffffffffffffffffffffff1673ffffffffffffffffffffffffffffffffffffffff1681526020019081526020015f205f9054906101000a900460ff166101cf576040517f08c379a00000000000000000000000000000000000000000000000000000000081526004016101c690610d0b565b60405180910390fd5b7fa92ff919b850e4909ab2261d907ef955f11bc1716733a6cbece38d163a69af8a83838360405161020293929190610d38565b60405180910390a161023582828573ffffffffffffffffffffffffffffffffffffffff166105569092919063ffffffff16565b505050565b6102426105d5565b805f808473ffffffffffffffffffffffffffffffffffffffff1673ffffffffffffffffffffffffffffffffffffffff1681526020019081526020015f205f6101000a81548160ff0219169083151502179055505050565b5f602052805f5260405f205f915054906101000a900460ff1681565b6102bd6105d5565b6102c65f61065c565b565b5f806102d261072d565b9050805f015f9054906101000a900473ffffffffffffffffffffffffffffffffffffffff1691505090565b5f610306610754565b90505f815f0160089054906101000a900460ff161590505f825f015f9054906101000a900467ffffffffffffffff1690505f808267ffffffffffffffff1614801561034e5750825b90505f60018367ffffffffffffffff1614801561038157505f3073ffffffffffffffffffffffffffffffffffffffff163b145b90508115801561038f575080155b156103c6576040517ff92ee8a900000000000000000000000000000000000000000000000000000000815260040160405180910390fd5b6001855f015f6101000a81548167ffffffffffffffff021916908367ffffffffffffffff1602179055508315610413576001855f0160086101000a81548160ff0219169083151502179055505b61041c3361077b565b60015f808873ffffffffffffffffffffffffffffffffffffffff1673ffffffffffffffffffffffffffffffffffffffff1681526020019081526020015f205f6101000a81548160ff02191690831515021790555083156104ca575f855f0160086101000a81548160ff0219169083151502179055507fc7f505b2f371ae2175ee4913f4499e1f2633a7b5936321eed1cdaeb6115181d260016040516104c19190610dc2565b60405180910390a15b505050505050565b6104da6105d5565b5f73ffffffffffffffffffffffffffffffffffffffff168173ffffffffffffffffffffffffffffffffffffffff160361054a575f6040517f1e4fbdf70000000000000000000000000000000000000000000000000000000081526004016105419190610c72565b60405180910390fd5b6105538161065c565b50565b6105d0838473ffffffffffffffffffffffffffffffffffffffff1663a9059cbb8585604051602401610589929190610ddb565b604051602081830303815290604052915060e01b6020820180517bffffffffffffffffffffffffffffffffffffffffffffffffffffffff838183161783525050505061078f565b505050565b6105dd610824565b73ffffffffffffffffffffffffffffffffffffffff166105fb6102c8565b73ffffffffffffffffffffffffffffffffffffffff161461065a5761061e610824565b6040517f118cdaa70000000000000000000000000000000000000000000000000000000081526004016106519190610c72565b60405180910390fd5b565b5f61066561072d565b90505f815f015f9054906101000a900473ffffffffffffffffffffffffffffffffffffffff16905082825f015f6101000a81548173ffffffffffffffffffffffffffffffffffffffff021916908373ffffffffffffffffffffffffffffffffffffffff1602179055508273ffffffffffffffffffffffffffffffffffffffff168173ffffffffffffffffffffffffffffffffffffffff167f8be0079c531659141344cd1fd0a4f28419497f9722a3daafe3b4186f6b6457e060405160405180910390a3505050565b5f7f9016d09d72d40fdae2fd8ceac6b6234c7706214fd39c1cd1e609a0528c199300905090565b5f7ff0c57e16840df040f15088dc2f81fe391c3923bec73e23a9662efc9c229c6a00905090565b61078361082b565b61078c8161086b565b50565b5f6107b9828473ffffffffffffffffffffffffffffffffffffffff166108ef90919063ffffffff16565b90505f8151141580156107dd5750808060200190518101906107db9190610e16565b155b1561081f57826040517f5274afe70000000000000000000000000000000000000000000000000000000081526004016108169190610c72565b60405180910390fd5b505050565b5f33905090565b610833610904565b610869576040517fd7e6bcf800000000000000000000000000000000000000000000000000000000815260040160405180910390fd5b565b61087361082b565b5f73ffffffffffffffffffffffffffffffffffffffff168173ffffffffffffffffffffffffffffffffffffffff16036108e3575f6040517f1e4fbdf70000000000000000000000000000000000000000000000000000000081526004016108da9190610c72565b60405180910390fd5b6108ec8161065c565b50565b60606108fc83835f610922565b905092915050565b5f61090d610754565b5f0160089054906101000a900460ff16905090565b60608147101561096957306040517fcd7860590000000000000000000000000000000000000000000000000000000081526004016109609190610c72565b60405180910390fd5b5f808573ffffffffffffffffffffffffffffffffffffffff1684866040516109919190610e93565b5f6040518083038185875af1925050503d805f81146109cb576040519150601f19603f3d011682016040523d82523d5f602084013e6109d0565b606091505b50915091506109e08683836109eb565b925050509392505050565b606082610a00576109fb82610a78565b610a70565b5f8251148015610a2657505f8473ffffffffffffffffffffffffffffffffffffffff163b145b15610a6857836040517f9996b315000000000000000000000000000000000000000000000000000000008152600401610a5f9190610c72565b60405180910390fd5b819050610a71565b5b9392505050565b5f81511115610a8a5780518082602001fd5b6040517f1425ea4200000000000000000000000000000000000000000000000000000000815260040160405180910390fd5b5f80fd5b5f73ffffffffffffffffffffffffffffffffffffffff82169050919050565b5f610ae982610ac0565b9050919050565b610af981610adf565b8114610b03575f80fd5b50565b5f81359050610b1481610af0565b92915050565b5f819050919050565b610b2c81610b1a565b8114610b36575f80fd5b50565b5f81359050610b4781610b23565b92915050565b5f805f60608486031215610b6457610b63610abc565b5b5f610b7186828701610b06565b9350506020610b8286828701610b06565b9250506040610b9386828701610b39565b9150509250925092565b5f8115159050919050565b610bb181610b9d565b8114610bbb575f80fd5b50565b5f81359050610bcc81610ba8565b92915050565b5f8060408385031215610be857610be7610abc565b5b5f610bf585828601610b06565b9250506020610c0685828601610bbe565b9150509250929050565b5f60208284031215610c2557610c24610abc565b5b5f610c3284828501610b06565b91505092915050565b610c4481610b9d565b82525050565b5f602082019050610c5d5f830184610c3b565b92915050565b610c6c81610adf565b82525050565b5f602082019050610c855f830184610c63565b92915050565b5f82825260208201905092915050565b7f4e65785661756c743a2063616c6c6572206973206e6f7420616e206f706572615f8201527f746f720000000000000000000000000000000000000000000000000000000000602082015250565b5f610cf5602383610c8b565b9150610d0082610c9b565b604082019050919050565b5f6020820190508181035f830152610d2281610ce9565b9050919050565b610d3281610b1a565b82525050565b5f606082019050610d4b5f830186610c63565b610d586020830185610c63565b610d656040830184610d29565b949350505050565b5f819050919050565b5f67ffffffffffffffff82169050919050565b5f819050919050565b5f610dac610da7610da284610d6d565b610d89565b610d76565b9050919050565b610dbc81610d92565b82525050565b5f602082019050610dd55f830184610db3565b92915050565b5f604082019050610dee5f830185610c63565b610dfb6020830184610d29565b9392505050565b5f81519050610e1081610ba8565b92915050565b5f60208284031215610e2b57610e2a610abc565b5b5f610e3884828501610e02565b91505092915050565b5f81519050919050565b5f81905092915050565b8281835e5f83830152505050565b5f610e6d82610e41565b610e778185610e4b565b9350610e87818560208601610e55565b80840191505092915050565b5f610e9e8284610e63565b91508190509291505056fea2646970667358221220e7bdf895061f1eea2ad3c6a7e40c69bfbd39c379b44fc500f395b1c6430e2be964736f6c63430008190033","linkReferences":{}},"methodIdentifiers":{"initialize(address)":"c4d66de8","isOperator(address)":"6d70f7ae","owner()":"8da5cb5b","renounceOwnership()":"715018a6","setOperator(address,bool)":"558a7297","transferOwnership(address)":"f2fde38b","withdrawFunds(address,address,uint256)":"1c20fadd"},"id":39}