{"abi":[{"type":"function","name":"checkMultical","inputs":[{"name":"_reqeustId","type":"uint256","internalType":"uint256"}],"outputs":[{"name":"","type":"bool","internalType":"bool"}],"stateMutability":"view"},{"type":"function","name":"completeCancelIssuance","inputs":[{"name":"_issuanceNonce","type":"uint256","internalType":"uint256"}],"outputs":[],"stateMutability":"nonpayable"},{"type":"function","name":"completeCancelRedemption","inputs":[{"name":"_redemptionNonce","type":"uint256","internalType":"uint256"}],"outputs":[],"stateMutability":"nonpayable"},{"type":"function","name":"completeIssuance","inputs":[{"name":"_issuanceNonce","type":"uint256","internalType":"uint256"}],"outputs":[],"stateMutability":"nonpayable"},{"type":"function","name":"completeRedemption","inputs":[{"name":"_redemptionNonce","type":"uint256","internalType":"uint256"}],"outputs":[],"stateMutability":"nonpayable"},{"type":"function","name":"factoryStorage","inputs":[],"outputs":[{"name":"","type":"address","internalType":"contract IndexFactoryStorage"}],"stateMutability":"view"},{"type":"function","name":"initialize","inputs":[{"name":"_factoryStorage","type":"address","internalType":"address"}],"outputs":[],"stateMutability":"nonpayable"},{"type":"function","name":"multical","inputs":[{"name":"_requestId","type":"uint256","internalType":"uint256"}],"outputs":[],"stateMutability":"nonpayable"},{"type":"function","name":"owner","inputs":[],"outputs":[{"name":"","type":"address","internalType":"address"}],"stateMutability":"view"},{"type":"function","name":"paused","inputs":[],"outputs":[{"name":"","type":"bool","internalType":"bool"}],"stateMutability":"view"},{"type":"function","name":"renounceOwnership","inputs":[],"outputs":[],"stateMutability":"nonpayable"},{"type":"function","name":"setIndexFactoryStorage","inputs":[{"name":"_factoryStorage","type":"address","internalType":"address"}],"outputs":[{"name":"","type":"bool","internalType":"bool"}],"stateMutability":"nonpayable"},{"type":"function","name":"transferOwnership","inputs":[{"name":"newOwner","type":"address","internalType":"address"}],"outputs":[],"stateMutability":"nonpayable"},{"type":"event","name":"Initialized","inputs":[{"name":"version","type":"uint64","indexed":false,"internalType":"uint64"}],"anonymous":false},{"type":"event","name":"IssuanceCancelled","inputs":[{"name":"nonce","type":"uint256","indexed":true,"internalType":"uint256"},{"name":"user","type":"address","indexed":true,"internalType":"address"},{"name":"inputToken","type":"address","indexed":false,"internalType":"address"},{"name":"inputAmount","type":"uint256","indexed":false,"internalType":"uint256"},{"name":"outputAmount","type":"uint256","indexed":false,"internalType":"uint256"},{"name":"time","type":"uint256","indexed":false,"internalType":"uint256"}],"anonymous":false},{"type":"event","name":"Issuanced","inputs":[{"name":"nonce","type":"uint256","indexed":true,"internalType":"uint256"},{"name":"user","type":"address","indexed":true,"internalType":"address"},{"name":"inputToken","type":"address","indexed":false,"internalType":"address"},{"name":"inputAmount","type":"uint256","indexed":false,"internalType":"uint256"},{"name":"outputAmount","type":"uint256","indexed":false,"internalType":"uint256"},{"name":"time","type":"uint256","indexed":false,"internalType":"uint256"}],"anonymous":false},{"type":"event","name":"OwnershipTransferred","inputs":[{"name":"previousOwner","type":"address","indexed":true,"internalType":"address"},{"name":"newOwner","type":"address","indexed":true,"internalType":"address"}],"anonymous":false},{"type":"event","name":"Paused","inputs":[{"name":"account","type":"address","indexed":false,"internalType":"address"}],"anonymous":false},{"type":"event","name":"Redemption","inputs":[{"name":"nonce","type":"uint256","indexed":true,"internalType":"uint256"},{"name":"user","type":"address","indexed":true,"internalType":"address"},{"name":"outputToken","type":"address","indexed":false,"internalType":"address"},{"name":"inputAmount","type":"uint256","indexed":false,"internalType":"uint256"},{"name":"outputAmount","type":"uint256","indexed":false,"internalType":"uint256"},{"name":"time","type":"uint256","indexed":false,"internalType":"uint256"}],"anonymous":false},{"type":"event","name":"RedemptionCancelled","inputs":[{"name":"nonce","type":"uint256","indexed":true,"internalType":"uint256"},{"name":"user","type":"address","indexed":true,"internalType":"address"},{"name":"outputToken","type":"address","indexed":false,"internalType":"address"},{"name":"inputAmount","type":"uint256","indexed":false,"internalType":"uint256"},{"name":"outputAmount","type":"uint256","indexed":false,"internalType":"uint256"},{"name":"time","type":"uint256","indexed":false,"internalType":"uint256"}],"anonymous":false},{"type":"event","name":"Unpaused","inputs":[{"name":"account","type":"address","indexed":false,"internalType":"address"}],"anonymous":false},{"type":"error","name":"EnforcedPause","inputs":[]},{"type":"error","name":"ExpectedPause","inputs":[]},{"type":"error","name":"InvalidInitialization","inputs":[]},{"type":"error","name":"NotInitializing","inputs":[]},{"type":"error","name":"OwnableInvalidOwner","inputs":[{"name":"owner","type":"address","internalType":"address"}]},{"type":"error","name":"OwnableUnauthorizedAccount","inputs":[{"name":"account","type":"address","internalType":"address"}]},{"type":"error","name":"ReentrancyGuardReentrantCall","inputs":[]}],"bytecode":{"object":"0x6080604052348015600e575f80fd5b506135898061001c5f395ff3fe608060405234801561000f575f80fd5b50600436106100cb575f3560e01c80639026544f11610088578063c4d66de811610063578063c4d66de8146101c9578063cc8659ae146101dc578063e16e554a146101ef578063f2fde38b14610202575f80fd5b80639026544f14610191578063bed45bef146101a4578063c06e1ae2146101b7575f80fd5b80635c975abb146100cf578063715018a61461010a57806373b774ed14610114578063807ca23714610127578063840ecba01461013a5780638da5cb5b1461014d575b5f80fd5b7fcd5ed15c6e187e77e9aee88184c21f4f2182ab5827cb3b7e07fbedcd63f033005460ff165b60405190151581526020015b60405180910390f35b610112610215565b005b61011261012236600461331e565b610228565b61011261013536600461331e565b6102f1565b61011261014836600461331e565b610b68565b7f9016d09d72d40fdae2fd8ceac6b6234c7706214fd39c1cd1e609a0528c199300546001600160a01b03165b6040516001600160a01b039091168152602001610101565b61011261019f36600461331e565b6114d7565b6101126101b236600461331e565b611fcf565b5f54610179906001600160a01b031681565b6101126101d7366004613349565b612d7d565b6100f56101ea366004613349565b612f03565b6100f56101fd36600461331e565b612f86565b610112610210366004613349565b61313d565b61021d613177565b6102265f6131d2565b565b5f8054604051630a3b935760e11b8152600481018490526001600160a01b039091169063147726ae906024016040805180830381865afa15801561026e573d5f803e3d5ffd5b505050506040513d601f19601f820116820180604052508101906102929190613364565b80519091506001036102af576102ab8160200151611fcf565b5050565b80516002036102c5576102ab8160200151610b68565b80516003036102db576102ab81602001516102f1565b80516004036102ab576102ab81602001516114d7565b6102f9613242565b5f5460405163631c838560e01b8152600481018390526001600160a01b039091169063631c838590602401602060405180830381865afa15801561033f573d5f803e3d5ffd5b505050506040513d601f19601f8201168201806040525081019061036391906133bd565b6103b45760405162461bcd60e51b815260206004820181905260248201527f43616e63656c2069737375616e6365206973206e6f7420636f6d706c6574656460448201526064015b60405180910390fd5b5f54604051633dfd13f960e11b8152600481018390526001600160a01b0390911690637bfa27f290602401602060405180830381865afa1580156103fa573d5f803e3d5ffd5b505050506040513d601f19601f8201168201806040525081019061041e91906133bd565b1561043b5760405162461bcd60e51b81526004016103ab906133dc565b5f805460405163128ce81360e31b8152600481018490526001600160a01b0390911690639467409890602401602060405180830381865afa158015610482573d5f803e3d5ffd5b505050506040513d601f19601f820116820180604052508101906104a69190613421565b90505f805f8054906101000a90046001600160a01b03166001600160a01b0316631d1438486040518163ffffffff1660e01b8152600401602060405180830381865afa1580156104f8573d5f803e3d5ffd5b505050506040513d601f19601f8201168201806040525081019061051c9190613421565b90505f5b5f8054906101000a90046001600160a01b03166001600160a01b03166353fd43326040518163ffffffff1660e01b8152600401602060405180830381865afa15801561056e573d5f803e3d5ffd5b505050506040513d601f19601f82011682018060405250810190610592919061343c565b811015610885575f805460405163264cae9360e21b8152600481018490526001600160a01b0390911690639932ba4c90602401602060405180830381865afa1580156105e0573d5f803e3d5ffd5b505050506040513d601f19601f820116820180604052508101906106049190613421565b5f805460405163264fa8b960e01b8152600481018a90526001600160a01b0380851660248301529394509192169063264fa8b990604401602060405180830381865afa158015610656573d5f803e3d5ffd5b505050506040513d601f19601f8201168201806040525081019061067a919061343c565b5f80546040516302e80f7160e01b8152600481018b90526001600160a01b038681166024830152939450919216906302e80f7190604401602060405180830381865afa1580156106cc573d5f803e3d5ffd5b505050506040513d601f19601f820116820180604052508101906106f0919061343c565b90505f81156107e95760405163069352a960e41b8152600481018390525f906001600160a01b038816906369352a9090602401602060405180830381865afa15801561073e573d5f803e3d5ffd5b505050506040513d601f19601f82011682018060405250810190610762919061343c565b60405163187b2ed160e21b8152600481018590529091505f906001600160a01b038916906361ecbb4490602401602060405180830381865afa1580156107aa573d5f803e3d5ffd5b505050506040513d601f19601f820116820180604052508101906107ce919061343c565b90506107da8282613467565b6107e49084613480565b925050505b5f80546040516327b73e7d60e21b8152600481018c90526001600160a01b03878116602483015290911690639edcf9f490604401602060405180830381865afa158015610838573d5f803e3d5ffd5b505050506040513d601f19601f8201168201806040525081019061085c919061343c565b90506108688183613480565b6108729089613480565b9750506001909401935061052092505050565b505f805f9054906101000a90046001600160a01b03166001600160a01b031663f9b6117f6040518163ffffffff1660e01b8152600401602060405180830381865afa1580156108d6573d5f803e3d5ffd5b505050506040513d601f19601f820116820180604052508101906108fa9190613421565b9050806001600160a01b0316631c20fadd5f8054906101000a90046001600160a01b03166001600160a01b0316633e413bee6040518163ffffffff1660e01b8152600401602060405180830381865afa158015610959573d5f803e3d5ffd5b505050506040513d601f19601f8201168201806040525081019061097d9190613421565b86866040518463ffffffff1660e01b815260040161099d93929190613493565b5f604051808303815f87803b1580156109b4575f80fd5b505af11580156109c6573d5f803e3d5ffd5b50505f54604051633e69baf160e11b815260048101899052600160248201526001600160a01b039091169250637cd375e291506044015f604051808303815f87803b158015610a13575f80fd5b505af1158015610a25573d5f803e3d5ffd5b50505050836001600160a01b0316857f0e71a0ad356f0592d2acf7e3763195a190bcaf1f9c7bea40c5cb13ebac0439cc5f8054906101000a90046001600160a01b03166001600160a01b0316633e413bee6040518163ffffffff1660e01b8152600401602060405180830381865afa158015610aa3573d5f803e3d5ffd5b505050506040513d601f19601f82011682018060405250810190610ac79190613421565b5f5460405163cf9ee31960e01b8152600481018b90526001600160a01b039091169063cf9ee31990602401602060405180830381865afa158015610b0d573d5f803e3d5ffd5b505050506040513d601f19601f82011682018060405250810190610b31919061343c565b5f42604051610b4394939291906134b7565b60405180910390a350505050610b6560015f8051602061353483398151915255565b50565b610b70613242565b5f54604051631fd6049160e11b8152600481018390526001600160a01b0390911690633fac092290602401602060405180830381865afa158015610bb6573d5f803e3d5ffd5b505050506040513d601f19601f82011682018060405250810190610bda91906133bd565b610c325760405162461bcd60e51b815260206004820152602360248201527f526564656d7074696f6e206f726465727320617265206e6f7420636f6d706c656044820152621d195960ea1b60648201526084016103ab565b5f546040516376529fdf60e01b8152600481018390526001600160a01b03909116906376529fdf90602401602060405180830381865afa158015610c78573d5f803e3d5ffd5b505050506040513d601f19601f82011682018060405250810190610c9c91906133bd565b15610ce95760405162461bcd60e51b815260206004820152601760248201527f526564656d7074696f6e20697320636f6d706c6574656400000000000000000060448201526064016103ab565b5f8054604051630f0064cb60e31b8152600481018490526001600160a01b0390911690637803265890602401602060405180830381865afa158015610d30573d5f803e3d5ffd5b505050506040513d601f19601f82011682018060405250810190610d549190613421565b90505f805f9054906101000a90046001600160a01b03166001600160a01b0316631d1438486040518163ffffffff1660e01b8152600401602060405180830381865afa158015610da6573d5f803e3d5ffd5b505050506040513d601f19601f82011682018060405250810190610dca9190613421565b90505f805b5f8054906101000a90046001600160a01b03166001600160a01b03166353fd43326040518163ffffffff1660e01b8152600401602060405180830381865afa158015610e1d573d5f803e3d5ffd5b505050506040513d601f19601f82011682018060405250810190610e41919061343c565b811015611029575f805460405163264cae9360e21b8152600481018490526001600160a01b0390911690639932ba4c90602401602060405180830381865afa158015610e8f573d5f803e3d5ffd5b505050506040513d601f19601f82011682018060405250810190610eb39190613421565b5f8054604051631ea274e360e31b8152600481018a90526001600160a01b0380851660248301529394509192169063f513a71890604401602060405180830381865afa158015610f05573d5f803e3d5ffd5b505050506040513d601f19601f82011682018060405250810190610f29919061343c565b60405163187b2ed160e21b8152600481018290529091505f906001600160a01b038716906361ecbb4490602401602060405180830381865afa158015610f71573d5f803e3d5ffd5b505050506040513d601f19601f82011682018060405250810190610f95919061343c565b60405163069352a960e41b8152600481018490529091505f906001600160a01b038816906369352a9090602401602060405180830381865afa158015610fdd573d5f803e3d5ffd5b505050506040513d601f19601f82011682018060405250810190611001919061343c565b905061100d8183613467565b6110179087613480565b95505060019093019250610dcf915050565b505f80546040805163978bbdb960e01b81529051612710926001600160a01b03169163978bbdb99160048083019260209291908290030181865afa158015611073573d5f803e3d5ffd5b505050506040513d601f19601f8201168201806040525081019061109791906134dd565b6110a49060ff16846134fd565b6110ae9190613514565b90505f805f9054906101000a90046001600160a01b03166001600160a01b031663f9b6117f6040518163ffffffff1660e01b8152600401602060405180830381865afa158015611100573d5f803e3d5ffd5b505050506040513d601f19601f820116820180604052508101906111249190613421565b9050806001600160a01b0316631c20fadd5f8054906101000a90046001600160a01b03166001600160a01b0316633e413bee6040518163ffffffff1660e01b8152600401602060405180830381865afa158015611183573d5f803e3d5ffd5b505050506040513d601f19601f820116820180604052508101906111a79190613421565b5f8054906101000a90046001600160a01b03166001600160a01b031663b3f006746040518163ffffffff1660e01b8152600401602060405180830381865afa1580156111f5573d5f803e3d5ffd5b505050506040513d601f19601f820116820180604052508101906112199190613421565b856040518463ffffffff1660e01b815260040161123893929190613493565b5f604051808303815f87803b15801561124f575f80fd5b505af1158015611261573d5f803e3d5ffd5b50505050806001600160a01b0316631c20fadd5f8054906101000a90046001600160a01b03166001600160a01b0316633e413bee6040518163ffffffff1660e01b8152600401602060405180830381865afa1580156112c2573d5f803e3d5ffd5b505050506040513d601f19601f820116820180604052508101906112e69190613421565b876112f18688613467565b6040518463ffffffff1660e01b815260040161130f93929190613493565b5f604051808303815f87803b158015611326575f80fd5b505af1158015611338573d5f803e3d5ffd5b50505f5460405162a1d42760e41b8152600481018a9052600160248201526001600160a01b039091169250630a1d427091506044015f604051808303815f87803b158015611384575f80fd5b505af1158015611396573d5f803e3d5ffd5b50505050846001600160a01b0316867f1c5f6e901258d71ab0ecaa2fcf93176caa78dac41e03fe5dd7a0184727336d8a5f8054906101000a90046001600160a01b03166001600160a01b0316633e413bee6040518163ffffffff1660e01b8152600401602060405180830381865afa158015611414573d5f803e3d5ffd5b505050506040513d601f19601f820116820180604052508101906114389190613421565b5f54604051639cf5452160e01b8152600481018c90526001600160a01b0390911690639cf5452190602401602060405180830381865afa15801561147e573d5f803e3d5ffd5b505050506040513d601f19601f820116820180604052508101906114a2919061343c565b87426040516114b494939291906134b7565b60405180910390a35050505050610b6560015f8051602061353483398151915255565b6114df613242565b5f54604051635ac9331560e11b8152600481018390526001600160a01b039091169063b592662a90602401602060405180830381865afa158015611525573d5f803e3d5ffd5b505050506040513d601f19601f8201168201806040525081019061154991906133bd565b6115a05760405162461bcd60e51b815260206004820152602260248201527f43616e63656c20726564656d7074696f6e206973206e6f7420636f6d706c6574604482015261195960f21b60648201526084016103ab565b5f5460405163b46840f960e01b8152600481018390526001600160a01b039091169063b46840f990602401602060405180830381865afa1580156115e6573d5f803e3d5ffd5b505050506040513d601f19601f8201168201806040525081019061160a91906133bd565b156116275760405162461bcd60e51b81526004016103ab906133dc565b5f8054604051630f0064cb60e31b8152600481018490526001600160a01b0390911690637803265890602401602060405180830381865afa15801561166e573d5f803e3d5ffd5b505050506040513d601f19601f820116820180604052508101906116929190613421565b90505f805f9054906101000a90046001600160a01b03166001600160a01b0316631d1438486040518163ffffffff1660e01b8152600401602060405180830381865afa1580156116e4573d5f803e3d5ffd5b505050506040513d601f19601f820116820180604052508101906117089190613421565b90505f5b5f8054906101000a90046001600160a01b03166001600160a01b03166353fd43326040518163ffffffff1660e01b8152600401602060405180830381865afa15801561175a573d5f803e3d5ffd5b505050506040513d601f19601f8201168201806040525081019061177e919061343c565b811015611cf0575f805460405163264cae9360e21b8152600481018490526001600160a01b0390911690639932ba4c90602401602060405180830381865afa1580156117cc573d5f803e3d5ffd5b505050506040513d601f19601f820116820180604052508101906117f09190613421565b5f8054604051638c22189960e01b8152600481018990526001600160a01b03808516602483015293945091921690638c22189990604401602060405180830381865afa158015611842573d5f803e3d5ffd5b505050506040513d601f19601f82011682018060405250810190611866919061343c565b60405163069352a960e41b8152600481018290529091505f906001600160a01b038616906369352a9090602401602060405180830381865afa1580156118ae573d5f803e3d5ffd5b505050506040513d601f19601f820116820180604052508101906118d2919061343c565b60405163187b2ed160e21b8152600481018490526001600160a01b038716906361ecbb4490602401602060405180830381865afa158015611915573d5f803e3d5ffd5b505050506040513d601f19601f82011682018060405250810190611939919061343c565b6119439190613467565b5f805460405163632439fd60e01b8152600481018b90526001600160a01b0387811660248301529394509192169063632439fd90604401602060405180830381865afa158015611995573d5f803e3d5ffd5b505050506040513d601f19601f820116820180604052508101906119b9919061343c565b90505f6119c68284613480565b90508015611cdf575f805f9054906101000a90046001600160a01b03166001600160a01b031663f9b6117f6040518163ffffffff1660e01b8152600401602060405180830381865afa158015611a1e573d5f803e3d5ffd5b505050506040513d601f19601f82011682018060405250810190611a429190613421565b604051631c20fadd60e01b81529091506001600160a01b03821690631c20fadd90611a7590899030908790600401613493565b5f604051808303815f87803b158015611a8c575f80fd5b505af1158015611a9e573d5f803e3d5ffd5b50505f5460405162493aaf60e51b81526001600160a01b038a811660048301819052945063095ea7b393509091169063092755e090602401602060405180830381865afa158015611af1573d5f803e3d5ffd5b505050506040513d601f19601f82011682018060405250810190611b159190613421565b6040516001600160e01b031960e084901b1681526001600160a01b039091166004820152602481018590526044016020604051808303815f875af1158015611b5f573d5f803e3d5ffd5b505050506040513d601f19601f82011682018060405250810190611b8391906133bd565b505f5460405162493aaf60e51b81526001600160a01b0388811660048301529091169063092755e090602401602060405180830381865afa158015611bca573d5f803e3d5ffd5b505050506040513d601f19601f82011682018060405250810190611bee9190613421565b6001600160a01b0316636e553f65835f8054906101000a90046001600160a01b03166001600160a01b031663fbfa77cf6040518163ffffffff1660e01b8152600401602060405180830381865afa158015611c4b573d5f803e3d5ffd5b505050506040513d601f19601f82011682018060405250810190611c6f9190613421565b6040516001600160e01b031960e085901b16815260048101929092526001600160a01b031660248201526044016020604051808303815f875af1158015611cb8573d5f803e3d5ffd5b505050506040513d601f19601f82011682018060405250810190611cdc919061343c565b50505b50506001909301925061170c915050565b505f805f9054906101000a90046001600160a01b03166001600160a01b031663fc0c546a6040518163ffffffff1660e01b8152600401602060405180830381865afa158015611d41573d5f803e3d5ffd5b505050506040513d601f19601f82011682018060405250810190611d659190613421565b5f546040516355bc105960e11b8152600481018790529192506001600160a01b03808416926340c10f19928792169063ab7820b290602401602060405180830381865afa158015611db8573d5f803e3d5ffd5b505050506040513d601f19601f82011682018060405250810190611ddc919061343c565b6040516001600160e01b031960e085901b1681526001600160a01b03909216600483015260248201526044015f604051808303815f87803b158015611e1f575f80fd5b505af1158015611e31573d5f803e3d5ffd5b50505f54604051638e97d7e160e01b815260048101889052600160248201526001600160a01b039091169250638e97d7e191506044015f604051808303815f87803b158015611e7e575f80fd5b505af1158015611e90573d5f803e3d5ffd5b50505050826001600160a01b0316847f38d3db69b4236147316deb5e180b4ad666e454151c844c3dc34a462951db6bde5f8054906101000a90046001600160a01b03166001600160a01b0316633e413bee6040518163ffffffff1660e01b8152600401602060405180830381865afa158015611f0e573d5f803e3d5ffd5b505050506040513d601f19601f82011682018060405250810190611f329190613421565b5f54604051639cf5452160e01b8152600481018a90526001600160a01b0390911690639cf5452190602401602060405180830381865afa158015611f78573d5f803e3d5ffd5b505050506040513d601f19601f82011682018060405250810190611f9c919061343c565b5f42604051611fae94939291906134b7565b60405180910390a3505050610b6560015f8051602061353483398151915255565b611fd7613242565b5f546040516308d0eb2d60e21b8152600481018390526001600160a01b0390911690632343acb490602401602060405180830381865afa15801561201d573d5f803e3d5ffd5b505050506040513d601f19601f8201168201806040525081019061204191906133bd565b61208d5760405162461bcd60e51b815260206004820152601860248201527f4f726465727320617265206e6f7420636f6d706c65746564000000000000000060448201526064016103ab565b5f5460405163a84ebc1760e01b8152600481018390526001600160a01b039091169063a84ebc1790602401602060405180830381865afa1580156120d3573d5f803e3d5ffd5b505050506040513d601f19601f820116820180604052508101906120f791906133bd565b1561213c5760405162461bcd60e51b8152602060048201526015602482015274125cdcdd585b98d9481a5cc818dbdb5c1b195d1959605a1b60448201526064016103ab565b5f805460405163128ce81360e31b8152600481018490526001600160a01b0390911690639467409890602401602060405180830381865afa158015612183573d5f803e3d5ffd5b505050506040513d601f19601f820116820180604052508101906121a79190613421565b90505f805f9054906101000a90046001600160a01b03166001600160a01b0316631d1438486040518163ffffffff1660e01b8152600401602060405180830381865afa1580156121f9573d5f803e3d5ffd5b505050506040513d601f19601f8201168201806040525081019061221d9190613421565b90505f805f5b5f8054906101000a90046001600160a01b03166001600160a01b03166353fd43326040518163ffffffff1660e01b8152600401602060405180830381865afa158015612271573d5f803e3d5ffd5b505050506040513d601f19601f82011682018060405250810190612295919061343c565b811015612859575f805460405163264cae9360e21b8152600481018490526001600160a01b0390911690639932ba4c90602401602060405180830381865afa1580156122e3573d5f803e3d5ffd5b505050506040513d601f19601f820116820180604052508101906123079190613421565b5f805460405163264fa8b960e01b8152600481018b90526001600160a01b0380851660248301529394509192169063264fa8b990604401602060405180830381865afa158015612359573d5f803e3d5ffd5b505050506040513d601f19601f8201168201806040525081019061237d919061343c565b5f8054604051636839a09560e01b81526001600160a01b03868116600483015293945091921690636839a09590602401602060405180830381865afa1580156123c8573d5f803e3d5ffd5b505050506040513d601f19601f820116820180604052508101906123ec919061343c565b60405163187b2ed160e21b8152600481018490529091505f906001600160a01b038916906361ecbb4490602401602060405180830381865afa158015612434573d5f803e3d5ffd5b505050506040513d601f19601f82011682018060405250810190612458919061343c565b90505f670de0b6b3a764000061246e84846134fd565b6124789190613514565b5f8054604051636d32c92d60e11b8152600481018f90526001600160a01b0389811660248301529394509192169063da65925a90604401602060405180830381865afa1580156124ca573d5f803e3d5ffd5b505050506040513d601f19601f820116820180604052508101906124ee919061343c565b90505f670de0b6b3a764000061250486846134fd565b61250e9190613514565b90505f61251b8483613480565b9050612527828c613480565b9a50612533818b613480565b99505f805f9054906101000a90046001600160a01b03166001600160a01b031663f9b6117f6040518163ffffffff1660e01b8152600401602060405180830381865afa158015612585573d5f803e3d5ffd5b505050506040513d601f19601f820116820180604052508101906125a99190613421565b604051631c20fadd60e01b81529091506001600160a01b03821690631c20fadd906125dc908c9030908b90600401613493565b5f604051808303815f87803b1580156125f3575f80fd5b505af1158015612605573d5f803e3d5ffd5b50505f5460405162493aaf60e51b81526001600160a01b038d811660048301819052945063095ea7b393509091169063092755e090602401602060405180830381865afa158015612658573d5f803e3d5ffd5b505050506040513d601f19601f8201168201806040525081019061267c9190613421565b6040516001600160e01b031960e084901b1681526001600160a01b039091166004820152602481018990526044016020604051808303815f875af11580156126c6573d5f803e3d5ffd5b505050506040513d601f19601f820116820180604052508101906126ea91906133bd565b505f5460405162493aaf60e51b81526001600160a01b038b811660048301529091169063092755e090602401602060405180830381865afa158015612731573d5f803e3d5ffd5b505050506040513d601f19601f820116820180604052508101906127559190613421565b6001600160a01b0316636e553f65875f8054906101000a90046001600160a01b03166001600160a01b031663fbfa77cf6040518163ffffffff1660e01b8152600401602060405180830381865afa1580156127b2573d5f803e3d5ffd5b505050506040513d601f19601f820116820180604052508101906127d69190613421565b6040516001600160e01b031960e085901b16815260048101929092526001600160a01b031660248201526044016020604051808303815f875af115801561281f573d5f803e3d5ffd5b505050506040513d601f19601f82011682018060405250810190612843919061343c565b5050600190980197506122239650505050505050565b505f80546040516358eec0cf60e11b8152600481018890526001600160a01b039091169063b1dd819e90602401602060405180830381865afa1580156128a1573d5f803e3d5ffd5b505050506040513d601f19601f820116820180604052508101906128c5919061343c565b90508015806128d2575082155b15612ae3575f6128e38360646134fd565b90505f805f9054906101000a90046001600160a01b03166001600160a01b031663fc0c546a6040518163ffffffff1660e01b8152600401602060405180830381865afa158015612935573d5f803e3d5ffd5b505050506040513d601f19601f820116820180604052508101906129599190613421565b6040516340c10f1960e01b81526001600160a01b03898116600483015260248201859052919250908216906340c10f19906044015f604051808303815f87803b1580156129a4575f80fd5b505af11580156129b6573d5f803e3d5ffd5b50505050866001600160a01b0316887f9b1c699e1cb709130ee00509d8f84a4fb33702e634298480371d27d66f6cd8c65f8054906101000a90046001600160a01b03166001600160a01b0316633e413bee6040518163ffffffff1660e01b8152600401602060405180830381865afa158015612a34573d5f803e3d5ffd5b505050506040513d601f19601f82011682018060405250810190612a589190613421565b5f5460405163cf9ee31960e01b8152600481018e90526001600160a01b039091169063cf9ee31990602401602060405180830381865afa158015612a9e573d5f803e3d5ffd5b505050506040513d601f19601f82011682018060405250810190612ac2919061343c565b8642604051612ad494939291906134b7565b60405180910390a35050612d03565b5f83612aef84846134fd565b612af99190613514565b90505f612b068383613467565b90505f805f9054906101000a90046001600160a01b03166001600160a01b031663fc0c546a6040518163ffffffff1660e01b8152600401602060405180830381865afa158015612b58573d5f803e3d5ffd5b505050506040513d601f19601f82011682018060405250810190612b7c9190613421565b6040516340c10f1960e01b81526001600160a01b038a8116600483015260248201859052919250908216906340c10f19906044015f604051808303815f87803b158015612bc7575f80fd5b505af1158015612bd9573d5f803e3d5ffd5b50505050876001600160a01b0316897f9b1c699e1cb709130ee00509d8f84a4fb33702e634298480371d27d66f6cd8c65f8054906101000a90046001600160a01b03166001600160a01b0316633e413bee6040518163ffffffff1660e01b8152600401602060405180830381865afa158015612c57573d5f803e3d5ffd5b505050506040513d601f19601f82011682018060405250810190612c7b9190613421565b5f5460405163cf9ee31960e01b8152600481018f90526001600160a01b039091169063cf9ee31990602401602060405180830381865afa158015612cc1573d5f803e3d5ffd5b505050506040513d601f19601f82011682018060405250810190612ce5919061343c565b8642604051612cf794939291906134b7565b60405180910390a35050505b5f546040516368e0677360e11b815260048101889052600160248201526001600160a01b039091169063d1c0cee6906044015f604051808303815f87803b158015612d4c575f80fd5b505af1158015612d5e573d5f803e3d5ffd5b505050505050505050610b6560015f8051602061353483398151915255565b7ff0c57e16840df040f15088dc2f81fe391c3923bec73e23a9662efc9c229c6a008054600160401b810460ff16159067ffffffffffffffff165f81158015612dc25750825b90505f8267ffffffffffffffff166001148015612dde5750303b155b905081158015612dec575080155b15612e0a5760405163f92ee8a960e01b815260040160405180910390fd5b845467ffffffffffffffff191660011785558315612e3457845460ff60401b1916600160401b1785555b6001600160a01b038616612e8a5760405162461bcd60e51b815260206004820152601f60248201527f696e76616c696420666163746f72792073746f7261676520616464726573730060448201526064016103ab565b5f80546001600160a01b0319166001600160a01b038816179055612ead33613279565b612eb561328a565b8315612efb57845460ff60401b19168555604051600181527fc7f505b2f371ae2175ee4913f4499e1f2633a7b5936321eed1cdaeb6115181d29060200160405180910390a15b505050505050565b5f612f0c613177565b6001600160a01b038216612f625760405162461bcd60e51b815260206004820152601f60248201527f696e76616c696420666163746f72792073746f7261676520616464726573730060448201526064016103ab565b505f80546001600160a01b0383166001600160a01b03199091161790556001919050565b5f8054604051630a3b935760e11b81526004810184905282916001600160a01b03169063147726ae906024016040805180830381865afa158015612fcc573d5f803e3d5ffd5b505050506040513d601f19601f82011682018060405250810190612ff09190613364565b8051909150600103613078575f5460208201516040516308d0eb2d60e21b81526001600160a01b0390921691632343acb4916130329160040190815260200190565b602060405180830381865afa15801561304d573d5f803e3d5ffd5b505050506040513d601f19601f8201168201806040525081019061307191906133bd565b9392505050565b80516002036130b7575f546020820151604051631fd6049160e11b81526001600160a01b0390921691633fac0922916130329160040190815260200190565b80516003036130f6575f54602082015160405163631c838560e01b81526001600160a01b039092169163631c8385916130329160040190815260200190565b8051600403613135575f546020820151604051635ac9331560e11b81526001600160a01b039092169163b592662a916130329160040190815260200190565b505f92915050565b613145613177565b6001600160a01b03811661316e57604051631e4fbdf760e01b81525f60048201526024016103ab565b610b65816131d2565b336131a97f9016d09d72d40fdae2fd8ceac6b6234c7706214fd39c1cd1e609a0528c199300546001600160a01b031690565b6001600160a01b0316146102265760405163118cdaa760e01b81523360048201526024016103ab565b7f9016d09d72d40fdae2fd8ceac6b6234c7706214fd39c1cd1e609a0528c19930080546001600160a01b031981166001600160a01b03848116918217845560405192169182907f8be0079c531659141344cd1fd0a4f28419497f9722a3daafe3b4186f6b6457e0905f90a3505050565b5f8051602061353483398151915280546001190161327357604051633ee5aeb560e01b815260040160405180910390fd5b60029055565b61328161329a565b610b65816132e3565b61329261329a565b6102266132eb565b7ff0c57e16840df040f15088dc2f81fe391c3923bec73e23a9662efc9c229c6a0054600160401b900460ff1661022657604051631afcd79f60e31b815260040160405180910390fd5b61314561329a565b6132f361329a565b7fcd5ed15c6e187e77e9aee88184c21f4f2182ab5827cb3b7e07fbedcd63f03300805460ff19169055565b5f6020828403121561332e575f80fd5b5035919050565b6001600160a01b0381168114610b65575f80fd5b5f60208284031215613359575f80fd5b813561307181613335565b5f60408284031215613374575f80fd5b6040516040810181811067ffffffffffffffff821117156133a357634e487b7160e01b5f52604160045260245ffd5b604052825181526020928301519281019290925250919050565b5f602082840312156133cd575f80fd5b81518015158114613071575f80fd5b60208082526025908201527f5468652070726f6365737320686173206265656e20636f6d706c65746564206260408201526465666f726560d81b606082015260800190565b5f60208284031215613431575f80fd5b815161307181613335565b5f6020828403121561344c575f80fd5b5051919050565b634e487b7160e01b5f52601160045260245ffd5b8181038181111561347a5761347a613453565b92915050565b8082018082111561347a5761347a613453565b6001600160a01b039384168152919092166020820152604081019190915260600190565b6001600160a01b0394909416845260208401929092526040830152606082015260800190565b5f602082840312156134ed575f80fd5b815160ff81168114613071575f80fd5b808202811582820484141761347a5761347a613453565b5f8261352e57634e487b7160e01b5f52601260045260245ffd5b50049056fe9b779b17422d0df92223018b32b4d1fa46e071723d6817e2486d003becc55f00a264697066735822122069e2697eaeaeb8af20769309c56ee026ca063f91a9f015ec850b6fab0878605964736f6c63430008190033","linkReferences":{}},"methodIdentifiers":{"checkMultical(uint256)":"e16e554a","completeCancelIssuance(uint256)":"807ca237","completeCancelRedemption(uint256)":"9026544f","completeIssuance(uint256)":"bed45bef","completeRedemption(uint256)":"840ecba0","factoryStorage()":"c06e1ae2","initialize(address)":"c4d66de8","multical(uint256)":"73b774ed","owner()":"8da5cb5b","paused()":"5c975abb","renounceOwnership()":"715018a6","setIndexFactoryStorage(address)":"cc8659ae","transferOwnership(address)":"f2fde38b"},"id":25}