{"abi":[{"type":"function","name":"checkMultical","inputs":[{"name":"_reqeustId","type":"uint256","internalType":"uint256"}],"outputs":[{"name":"","type":"bool","internalType":"bool"}],"stateMutability":"view"},{"type":"function","name":"completeCancelIssuance","inputs":[{"name":"_issuanceNonce","type":"uint256","internalType":"uint256"}],"outputs":[],"stateMutability":"nonpayable"},{"type":"function","name":"completeCancelRedemption","inputs":[{"name":"_redemptionNonce","type":"uint256","internalType":"uint256"}],"outputs":[],"stateMutability":"nonpayable"},{"type":"function","name":"completeIssuance","inputs":[{"name":"_issuanceNonce","type":"uint256","internalType":"uint256"}],"outputs":[],"stateMutability":"nonpayable"},{"type":"function","name":"completeRedemption","inputs":[{"name":"_redemptionNonce","type":"uint256","internalType":"uint256"}],"outputs":[],"stateMutability":"nonpayable"},{"type":"function","name":"factoryStorage","inputs":[],"outputs":[{"name":"","type":"address","internalType":"contract IndexFactoryStorage"}],"stateMutability":"view"},{"type":"function","name":"initialize","inputs":[{"name":"_factoryStorage","type":"address","internalType":"address"}],"outputs":[],"stateMutability":"nonpayable"},{"type":"function","name":"multical","inputs":[{"name":"_requestId","type":"uint256","internalType":"uint256"}],"outputs":[],"stateMutability":"nonpayable"},{"type":"function","name":"owner","inputs":[],"outputs":[{"name":"","type":"address","internalType":"address"}],"stateMutability":"view"},{"type":"function","name":"paused","inputs":[],"outputs":[{"name":"","type":"bool","internalType":"bool"}],"stateMutability":"view"},{"type":"function","name":"renounceOwnership","inputs":[],"outputs":[],"stateMutability":"nonpayable"},{"type":"function","name":"setIndexFactoryStorage","inputs":[{"name":"_factoryStorage","type":"address","internalType":"address"}],"outputs":[{"name":"","type":"bool","internalType":"bool"}],"stateMutability":"nonpayable"},{"type":"function","name":"transferOwnership","inputs":[{"name":"newOwner","type":"address","internalType":"address"}],"outputs":[],"stateMutability":"nonpayable"},{"type":"event","name":"Initialized","inputs":[{"name":"version","type":"uint64","indexed":false,"internalType":"uint64"}],"anonymous":false},{"type":"event","name":"Issuanced","inputs":[{"name":"nonce","type":"uint256","indexed":true,"internalType":"uint256"},{"name":"user","type":"address","indexed":true,"internalType":"address"},{"name":"inputToken","type":"address","indexed":false,"internalType":"address"},{"name":"inputAmount","type":"uint256","indexed":false,"internalType":"uint256"},{"name":"outputAmount","type":"uint256","indexed":false,"internalType":"uint256"},{"name":"time","type":"uint256","indexed":false,"internalType":"uint256"}],"anonymous":false},{"type":"event","name":"OwnershipTransferred","inputs":[{"name":"previousOwner","type":"address","indexed":true,"internalType":"address"},{"name":"newOwner","type":"address","indexed":true,"internalType":"address"}],"anonymous":false},{"type":"event","name":"Paused","inputs":[{"name":"account","type":"address","indexed":false,"internalType":"address"}],"anonymous":false},{"type":"event","name":"Redemption","inputs":[{"name":"nonce","type":"uint256","indexed":true,"internalType":"uint256"},{"name":"user","type":"address","indexed":true,"internalType":"address"},{"name":"outputToken","type":"address","indexed":false,"internalType":"address"},{"name":"inputAmount","type":"uint256","indexed":false,"internalType":"uint256"},{"name":"outputAmount","type":"uint256","indexed":false,"internalType":"uint256"},{"name":"time","type":"uint256","indexed":false,"internalType":"uint256"}],"anonymous":false},{"type":"event","name":"Unpaused","inputs":[{"name":"account","type":"address","indexed":false,"internalType":"address"}],"anonymous":false},{"type":"error","name":"EnforcedPause","inputs":[]},{"type":"error","name":"ExpectedPause","inputs":[]},{"type":"error","name":"InvalidInitialization","inputs":[]},{"type":"error","name":"NotInitializing","inputs":[]},{"type":"error","name":"OwnableInvalidOwner","inputs":[{"name":"owner","type":"address","internalType":"address"}]},{"type":"error","name":"OwnableUnauthorizedAccount","inputs":[{"name":"account","type":"address","internalType":"address"}]}],"bytecode":{"object":"0x6080604052348015600f57600080fd5b506131f48061001f6000396000f3fe608060405234801561001057600080fd5b50600436106100cf5760003560e01c80639026544f1161008c578063c4d66de811610066578063c4d66de8146101ab578063cc8659ae146101be578063e16e554a146101d1578063f2fde38b146101e457600080fd5b80639026544f14610172578063bed45bef14610185578063c06e1ae21461019857600080fd5b80635c975abb146100d4578063715018a61461010f57806373b774ed14610119578063807ca2371461012c578063840ecba01461013f5780638da5cb5b14610152575b600080fd5b7fcd5ed15c6e187e77e9aee88184c21f4f2182ab5827cb3b7e07fbedcd63f033005460ff165b60405190151581526020015b60405180910390f35b6101176101f7565b005b610117610127366004612f91565b61020b565b61011761013a366004612f91565b6102d7565b61011761014d366004612f91565b61093c565b61015a611266565b6040516001600160a01b039091168152602001610106565b610117610180366004612f91565b611294565b610117610193366004612f91565b611c99565b60005461015a906001600160a01b031681565b6101176101b9366004612fbf565b612a92565b6100fa6101cc366004612fbf565b612bc5565b6100fa6101df366004612f91565b612c4a565b6101176101f2366004612fbf565b612e0b565b6101ff612e49565b6102096000612e7b565b565b60008054604051630a3b935760e11b8152600481018490526001600160a01b039091169063147726ae906024016040805180830381865afa158015610254573d6000803e3d6000fd5b505050506040513d601f19601f820116820180604052508101906102789190612fdc565b8051909150600103610295576102918160200151611c99565b5050565b80516002036102ab57610291816020015161093c565b80516003036102c15761029181602001516102d7565b8051600403610291576102918160200151611294565b60005460405163631c838560e01b8152600481018390526001600160a01b039091169063631c838590602401602060405180830381865afa158015610320573d6000803e3d6000fd5b505050506040513d601f19601f820116820180604052508101906103449190613039565b6103955760405162461bcd60e51b815260206004820181905260248201527f43616e63656c2069737375616e6365206973206e6f7420636f6d706c6574656460448201526064015b60405180910390fd5b600054604051633dfd13f960e11b8152600481018390526001600160a01b0390911690637bfa27f290602401602060405180830381865afa1580156103de573d6000803e3d6000fd5b505050506040513d601f19601f820116820180604052508101906104029190613039565b1561041f5760405162461bcd60e51b815260040161038c9061305b565b6000805460405163128ce81360e31b8152600481018490526001600160a01b0390911690639467409890602401602060405180830381865afa158015610469573d6000803e3d6000fd5b505050506040513d601f19601f8201168201806040525081019061048d91906130a0565b905060008060008054906101000a90046001600160a01b03166001600160a01b0316631d1438486040518163ffffffff1660e01b8152600401602060405180830381865afa1580156104e3573d6000803e3d6000fd5b505050506040513d601f19601f8201168201806040525081019061050791906130a0565b905060005b60008054906101000a90046001600160a01b03166001600160a01b03166353fd43326040518163ffffffff1660e01b8152600401602060405180830381865afa15801561055d573d6000803e3d6000fd5b505050506040513d601f19601f8201168201806040525081019061058191906130bd565b81101561077f576000805460405163264cae9360e21b8152600481018490526001600160a01b0390911690639932ba4c90602401602060405180830381865afa1580156105d2573d6000803e3d6000fd5b505050506040513d601f19601f820116820180604052508101906105f691906130a0565b6000805460405163264fa8b960e01b8152600481018a90526001600160a01b0380851660248301529394509192169063264fa8b990604401602060405180830381865afa15801561064b573d6000803e3d6000fd5b505050506040513d601f19601f8201168201806040525081019061066f91906130bd565b60405163187b2ed160e21b8152600481018290529091506000906001600160a01b038616906361ecbb4490602401602060405180830381865afa1580156106ba573d6000803e3d6000fd5b505050506040513d601f19601f820116820180604052508101906106de91906130bd565b600080546040516327b73e7d60e21b8152600481018c90526001600160a01b03878116602483015293945091921690639edcf9f490604401602060405180830381865afa158015610733573d6000803e3d6000fd5b505050506040513d601f19601f8201168201806040525081019061075791906130bd565b905061076381836130ec565b61076d90886130ec565b9650506001909301925061050c915050565b5060008060009054906101000a90046001600160a01b03166001600160a01b031663f9b6117f6040518163ffffffff1660e01b8152600401602060405180830381865afa1580156107d4573d6000803e3d6000fd5b505050506040513d601f19601f820116820180604052508101906107f891906130a0565b9050806001600160a01b0316631c20fadd60008054906101000a90046001600160a01b03166001600160a01b0316633e413bee6040518163ffffffff1660e01b8152600401602060405180830381865afa15801561085a573d6000803e3d6000fd5b505050506040513d601f19601f8201168201806040525081019061087e91906130a0565b86866040518463ffffffff1660e01b815260040161089e93929190613105565b600060405180830381600087803b1580156108b857600080fd5b505af11580156108cc573d6000803e3d6000fd5b5050600054604051633e69baf160e11b815260048101899052600160248201526001600160a01b039091169250637cd375e29150604401600060405180830381600087803b15801561091d57600080fd5b505af1158015610931573d6000803e3d6000fd5b505050505050505050565b600054604051631fd6049160e11b8152600481018390526001600160a01b0390911690633fac092290602401602060405180830381865afa158015610985573d6000803e3d6000fd5b505050506040513d601f19601f820116820180604052508101906109a99190613039565b610a015760405162461bcd60e51b815260206004820152602360248201527f526564656d7074696f6e206f726465727320617265206e6f7420636f6d706c656044820152621d195960ea1b606482015260840161038c565b6000546040516376529fdf60e01b8152600481018390526001600160a01b03909116906376529fdf90602401602060405180830381865afa158015610a4a573d6000803e3d6000fd5b505050506040513d601f19601f82011682018060405250810190610a6e9190613039565b15610abb5760405162461bcd60e51b815260206004820152601760248201527f526564656d7074696f6e20697320636f6d706c65746564000000000000000000604482015260640161038c565b60008054604051630f0064cb60e31b8152600481018490526001600160a01b0390911690637803265890602401602060405180830381865afa158015610b05573d6000803e3d6000fd5b505050506040513d601f19601f82011682018060405250810190610b2991906130a0565b905060008060009054906101000a90046001600160a01b03166001600160a01b0316631d1438486040518163ffffffff1660e01b8152600401602060405180830381865afa158015610b7f573d6000803e3d6000fd5b505050506040513d601f19601f82011682018060405250810190610ba391906130a0565b90506000805b60008054906101000a90046001600160a01b03166001600160a01b03166353fd43326040518163ffffffff1660e01b8152600401602060405180830381865afa158015610bfa573d6000803e3d6000fd5b505050506040513d601f19601f82011682018060405250810190610c1e91906130bd565b811015610e12576000805460405163264cae9360e21b8152600481018490526001600160a01b0390911690639932ba4c90602401602060405180830381865afa158015610c6f573d6000803e3d6000fd5b505050506040513d601f19601f82011682018060405250810190610c9391906130a0565b60008054604051631ea274e360e31b8152600481018a90526001600160a01b0380851660248301529394509192169063f513a71890604401602060405180830381865afa158015610ce8573d6000803e3d6000fd5b505050506040513d601f19601f82011682018060405250810190610d0c91906130bd565b60405163187b2ed160e21b8152600481018290529091506000906001600160a01b038716906361ecbb4490602401602060405180830381865afa158015610d57573d6000803e3d6000fd5b505050506040513d601f19601f82011682018060405250810190610d7b91906130bd565b60405163069352a960e41b8152600481018490529091506000906001600160a01b038816906369352a9090602401602060405180830381865afa158015610dc6573d6000803e3d6000fd5b505050506040513d601f19601f82011682018060405250810190610dea91906130bd565b9050610df68183613129565b610e0090876130ec565b95505060019093019250610ba9915050565b50600080546040805163978bbdb960e01b81529051612710926001600160a01b03169163978bbdb99160048083019260209291908290030181865afa158015610e5f573d6000803e3d6000fd5b505050506040513d601f19601f82011682018060405250810190610e83919061313c565b610e909060ff168461315f565b610e9a9190613176565b905060008060009054906101000a90046001600160a01b03166001600160a01b031663f9b6117f6040518163ffffffff1660e01b8152600401602060405180830381865afa158015610ef0573d6000803e3d6000fd5b505050506040513d601f19601f82011682018060405250810190610f1491906130a0565b9050806001600160a01b0316631c20fadd60008054906101000a90046001600160a01b03166001600160a01b0316633e413bee6040518163ffffffff1660e01b8152600401602060405180830381865afa158015610f76573d6000803e3d6000fd5b505050506040513d601f19601f82011682018060405250810190610f9a91906130a0565b610fa2611266565b856040518463ffffffff1660e01b8152600401610fc193929190613105565b600060405180830381600087803b158015610fdb57600080fd5b505af1158015610fef573d6000803e3d6000fd5b50505050806001600160a01b0316631c20fadd60008054906101000a90046001600160a01b03166001600160a01b0316633e413bee6040518163ffffffff1660e01b8152600401602060405180830381865afa158015611053573d6000803e3d6000fd5b505050506040513d601f19601f8201168201806040525081019061107791906130a0565b876110828688613129565b6040518463ffffffff1660e01b81526004016110a093929190613105565b600060405180830381600087803b1580156110ba57600080fd5b505af11580156110ce573d6000803e3d6000fd5b505060005460405162a1d42760e41b8152600481018a9052600160248201526001600160a01b039091169250630a1d42709150604401600060405180830381600087803b15801561111e57600080fd5b505af1158015611132573d6000803e3d6000fd5b50505050846001600160a01b0316867f1c5f6e901258d71ab0ecaa2fcf93176caa78dac41e03fe5dd7a0184727336d8a60008054906101000a90046001600160a01b03166001600160a01b0316633e413bee6040518163ffffffff1660e01b8152600401602060405180830381865afa1580156111b3573d6000803e3d6000fd5b505050506040513d601f19601f820116820180604052508101906111d791906130a0565b600054604051639cf5452160e01b8152600481018c90526001600160a01b0390911690639cf5452190602401602060405180830381865afa158015611220573d6000803e3d6000fd5b505050506040513d601f19601f8201168201806040525081019061124491906130bd565b87426040516112569493929190613198565b60405180910390a3505050505050565b7f9016d09d72d40fdae2fd8ceac6b6234c7706214fd39c1cd1e609a0528c199300546001600160a01b031690565b600054604051635ac9331560e11b8152600481018390526001600160a01b039091169063b592662a90602401602060405180830381865afa1580156112dd573d6000803e3d6000fd5b505050506040513d601f19601f820116820180604052508101906113019190613039565b6113585760405162461bcd60e51b815260206004820152602260248201527f43616e63656c20726564656d7074696f6e206973206e6f7420636f6d706c6574604482015261195960f21b606482015260840161038c565b60005460405163b46840f960e01b8152600481018390526001600160a01b039091169063b46840f990602401602060405180830381865afa1580156113a1573d6000803e3d6000fd5b505050506040513d601f19601f820116820180604052508101906113c59190613039565b156113e25760405162461bcd60e51b815260040161038c9061305b565b60008054604051630f0064cb60e31b8152600481018490526001600160a01b0390911690637803265890602401602060405180830381865afa15801561142c573d6000803e3d6000fd5b505050506040513d601f19601f8201168201806040525081019061145091906130a0565b905060008060009054906101000a90046001600160a01b03166001600160a01b0316631d1438486040518163ffffffff1660e01b8152600401602060405180830381865afa1580156114a6573d6000803e3d6000fd5b505050506040513d601f19601f820116820180604052508101906114ca91906130a0565b905060005b60008054906101000a90046001600160a01b03166001600160a01b03166353fd43326040518163ffffffff1660e01b8152600401602060405180830381865afa158015611520573d6000803e3d6000fd5b505050506040513d601f19601f8201168201806040525081019061154491906130bd565b811015611add576000805460405163264cae9360e21b8152600481018490526001600160a01b0390911690639932ba4c90602401602060405180830381865afa158015611595573d6000803e3d6000fd5b505050506040513d601f19601f820116820180604052508101906115b991906130a0565b60008054604051638c22189960e01b8152600481018990526001600160a01b03808516602483015293945091921690638c22189990604401602060405180830381865afa15801561160e573d6000803e3d6000fd5b505050506040513d601f19601f8201168201806040525081019061163291906130bd565b60405163069352a960e41b8152600481018290529091506000906001600160a01b038616906369352a9090602401602060405180830381865afa15801561167d573d6000803e3d6000fd5b505050506040513d601f19601f820116820180604052508101906116a191906130bd565b60405163187b2ed160e21b8152600481018490526001600160a01b038716906361ecbb4490602401602060405180830381865afa1580156116e6573d6000803e3d6000fd5b505050506040513d601f19601f8201168201806040525081019061170a91906130bd565b6117149190613129565b6000805460405163632439fd60e01b8152600481018b90526001600160a01b0387811660248301529394509192169063632439fd90604401602060405180830381865afa158015611769573d6000803e3d6000fd5b505050506040513d601f19601f8201168201806040525081019061178d91906130bd565b9050600061179b82846130ec565b90508015611acc5760008060009054906101000a90046001600160a01b03166001600160a01b031663f9b6117f6040518163ffffffff1660e01b8152600401602060405180830381865afa1580156117f7573d6000803e3d6000fd5b505050506040513d601f19601f8201168201806040525081019061181b91906130a0565b604051631c20fadd60e01b81529091506001600160a01b03821690631c20fadd9061184e90899030908790600401613105565b600060405180830381600087803b15801561186857600080fd5b505af115801561187c573d6000803e3d6000fd5b505060005460405162493aaf60e51b81526001600160a01b038a811660048301819052945063095ea7b393509091169063092755e090602401602060405180830381865afa1580156118d2573d6000803e3d6000fd5b505050506040513d601f19601f820116820180604052508101906118f691906130a0565b6040516001600160e01b031960e084901b1681526001600160a01b039091166004820152602481018590526044016020604051808303816000875af1158015611943573d6000803e3d6000fd5b505050506040513d601f19601f820116820180604052508101906119679190613039565b5060005460405162493aaf60e51b81526001600160a01b0388811660048301529091169063092755e090602401602060405180830381865afa1580156119b1573d6000803e3d6000fd5b505050506040513d601f19601f820116820180604052508101906119d591906130a0565b6001600160a01b0316636e553f658360008054906101000a90046001600160a01b03166001600160a01b031663fbfa77cf6040518163ffffffff1660e01b8152600401602060405180830381865afa158015611a35573d6000803e3d6000fd5b505050506040513d601f19601f82011682018060405250810190611a5991906130a0565b6040516001600160e01b031960e085901b16815260048101929092526001600160a01b031660248201526044016020604051808303816000875af1158015611aa5573d6000803e3d6000fd5b505050506040513d601f19601f82011682018060405250810190611ac991906130bd565b50505b5050600190930192506114cf915050565b5060008060009054906101000a90046001600160a01b03166001600160a01b031663fc0c546a6040518163ffffffff1660e01b8152600401602060405180830381865afa158015611b32573d6000803e3d6000fd5b505050506040513d601f19601f82011682018060405250810190611b5691906130a0565b6000546040516355bc105960e11b8152600481018790529192506001600160a01b03808416926340c10f19928792169063ab7820b290602401602060405180830381865afa158015611bac573d6000803e3d6000fd5b505050506040513d601f19601f82011682018060405250810190611bd091906130bd565b6040516001600160e01b031960e085901b1681526001600160a01b0390921660048301526024820152604401600060405180830381600087803b158015611c1657600080fd5b505af1158015611c2a573d6000803e3d6000fd5b5050600054604051638e97d7e160e01b815260048101889052600160248201526001600160a01b039091169250638e97d7e19150604401600060405180830381600087803b158015611c7b57600080fd5b505af1158015611c8f573d6000803e3d6000fd5b5050505050505050565b6000546040516308d0eb2d60e21b8152600481018390526001600160a01b0390911690632343acb490602401602060405180830381865afa158015611ce2573d6000803e3d6000fd5b505050506040513d601f19601f82011682018060405250810190611d069190613039565b611d525760405162461bcd60e51b815260206004820152601860248201527f4f726465727320617265206e6f7420636f6d706c657465640000000000000000604482015260640161038c565b60005460405163a84ebc1760e01b8152600481018390526001600160a01b039091169063a84ebc1790602401602060405180830381865afa158015611d9b573d6000803e3d6000fd5b505050506040513d601f19601f82011682018060405250810190611dbf9190613039565b15611e045760405162461bcd60e51b8152602060048201526015602482015274125cdcdd585b98d9481a5cc818dbdb5c1b195d1959605a1b604482015260640161038c565b6000805460405163128ce81360e31b8152600481018490526001600160a01b0390911690639467409890602401602060405180830381865afa158015611e4e573d6000803e3d6000fd5b505050506040513d601f19601f82011682018060405250810190611e7291906130a0565b905060008060009054906101000a90046001600160a01b03166001600160a01b0316631d1438486040518163ffffffff1660e01b8152600401602060405180830381865afa158015611ec8573d6000803e3d6000fd5b505050506040513d601f19601f82011682018060405250810190611eec91906130a0565b905060008060005b60008054906101000a90046001600160a01b03166001600160a01b03166353fd43326040518163ffffffff1660e01b8152600401602060405180830381865afa158015611f45573d6000803e3d6000fd5b505050506040513d601f19601f82011682018060405250810190611f6991906130bd565b811015612557576000805460405163264cae9360e21b8152600481018490526001600160a01b0390911690639932ba4c90602401602060405180830381865afa158015611fba573d6000803e3d6000fd5b505050506040513d601f19601f82011682018060405250810190611fde91906130a0565b6000805460405163264fa8b960e01b8152600481018b90526001600160a01b0380851660248301529394509192169063264fa8b990604401602060405180830381865afa158015612033573d6000803e3d6000fd5b505050506040513d601f19601f8201168201806040525081019061205791906130bd565b60008054604051636839a09560e01b81526001600160a01b03868116600483015293945091921690636839a09590602401602060405180830381865afa1580156120a5573d6000803e3d6000fd5b505050506040513d601f19601f820116820180604052508101906120c991906130bd565b60405163187b2ed160e21b8152600481018490529091506000906001600160a01b038916906361ecbb4490602401602060405180830381865afa158015612114573d6000803e3d6000fd5b505050506040513d601f19601f8201168201806040525081019061213891906130bd565b90506000670de0b6b3a764000061214f848461315f565b6121599190613176565b60008054604051636d32c92d60e11b8152600481018f90526001600160a01b0389811660248301529394509192169063da65925a90604401602060405180830381865afa1580156121ae573d6000803e3d6000fd5b505050506040513d601f19601f820116820180604052508101906121d291906130bd565b90506000670de0b6b3a76400006121e9868461315f565b6121f39190613176565b9050600061220184836130ec565b905061220d828c6130ec565b9a50612219818b6130ec565b995060008060009054906101000a90046001600160a01b03166001600160a01b031663f9b6117f6040518163ffffffff1660e01b8152600401602060405180830381865afa15801561226f573d6000803e3d6000fd5b505050506040513d601f19601f8201168201806040525081019061229391906130a0565b604051631c20fadd60e01b81529091506001600160a01b03821690631c20fadd906122c6908c9030908b90600401613105565b600060405180830381600087803b1580156122e057600080fd5b505af11580156122f4573d6000803e3d6000fd5b505060005460405162493aaf60e51b81526001600160a01b038d811660048301819052945063095ea7b393509091169063092755e090602401602060405180830381865afa15801561234a573d6000803e3d6000fd5b505050506040513d601f19601f8201168201806040525081019061236e91906130a0565b6040516001600160e01b031960e084901b1681526001600160a01b039091166004820152602481018990526044016020604051808303816000875af11580156123bb573d6000803e3d6000fd5b505050506040513d601f19601f820116820180604052508101906123df9190613039565b5060005460405162493aaf60e51b81526001600160a01b038b811660048301529091169063092755e090602401602060405180830381865afa158015612429573d6000803e3d6000fd5b505050506040513d601f19601f8201168201806040525081019061244d91906130a0565b6001600160a01b0316636e553f658760008054906101000a90046001600160a01b03166001600160a01b031663fbfa77cf6040518163ffffffff1660e01b8152600401602060405180830381865afa1580156124ad573d6000803e3d6000fd5b505050506040513d601f19601f820116820180604052508101906124d191906130a0565b6040516001600160e01b031960e085901b16815260048101929092526001600160a01b031660248201526044016020604051808303816000875af115801561251d573d6000803e3d6000fd5b505050506040513d601f19601f8201168201806040525081019061254191906130bd565b505060019098019750611ef49650505050505050565b50600080546040516358eec0cf60e11b8152600481018890526001600160a01b039091169063b1dd819e90602401602060405180830381865afa1580156125a2573d6000803e3d6000fd5b505050506040513d601f19601f820116820180604052508101906125c691906130bd565b90508015806125d3575082155b156127f45760006125e583606461315f565b905060008060009054906101000a90046001600160a01b03166001600160a01b031663fc0c546a6040518163ffffffff1660e01b8152600401602060405180830381865afa15801561263b573d6000803e3d6000fd5b505050506040513d601f19601f8201168201806040525081019061265f91906130a0565b6040516340c10f1960e01b81526001600160a01b03898116600483015260248201859052919250908216906340c10f1990604401600060405180830381600087803b1580156126ad57600080fd5b505af11580156126c1573d6000803e3d6000fd5b50505050866001600160a01b0316887f9b1c699e1cb709130ee00509d8f84a4fb33702e634298480371d27d66f6cd8c660008054906101000a90046001600160a01b03166001600160a01b0316633e413bee6040518163ffffffff1660e01b8152600401602060405180830381865afa158015612742573d6000803e3d6000fd5b505050506040513d601f19601f8201168201806040525081019061276691906130a0565b60005460405163cf9ee31960e01b8152600481018e90526001600160a01b039091169063cf9ee31990602401602060405180830381865afa1580156127af573d6000803e3d6000fd5b505050506040513d601f19601f820116820180604052508101906127d391906130bd565b86426040516127e59493929190613198565b60405180910390a35050612a25565b600083612801848461315f565b61280b9190613176565b905060006128198383613129565b905060008060009054906101000a90046001600160a01b03166001600160a01b031663fc0c546a6040518163ffffffff1660e01b8152600401602060405180830381865afa15801561286f573d6000803e3d6000fd5b505050506040513d601f19601f8201168201806040525081019061289391906130a0565b6040516340c10f1960e01b81526001600160a01b038a8116600483015260248201859052919250908216906340c10f1990604401600060405180830381600087803b1580156128e157600080fd5b505af11580156128f5573d6000803e3d6000fd5b50505050876001600160a01b0316897f9b1c699e1cb709130ee00509d8f84a4fb33702e634298480371d27d66f6cd8c660008054906101000a90046001600160a01b03166001600160a01b0316633e413bee6040518163ffffffff1660e01b8152600401602060405180830381865afa158015612976573d6000803e3d6000fd5b505050506040513d601f19601f8201168201806040525081019061299a91906130a0565b60005460405163cf9ee31960e01b8152600481018f90526001600160a01b039091169063cf9ee31990602401602060405180830381865afa1580156129e3573d6000803e3d6000fd5b505050506040513d601f19601f82011682018060405250810190612a0791906130bd565b8642604051612a199493929190613198565b60405180910390a35050505b6000546040516368e0677360e11b815260048101889052600160248201526001600160a01b039091169063d1c0cee690604401600060405180830381600087803b158015612a7257600080fd5b505af1158015612a86573d6000803e3d6000fd5b50505050505050505050565b7ff0c57e16840df040f15088dc2f81fe391c3923bec73e23a9662efc9c229c6a008054600160401b810460ff16159067ffffffffffffffff16600081158015612ad85750825b905060008267ffffffffffffffff166001148015612af55750303b155b905081158015612b03575080155b15612b215760405163f92ee8a960e01b815260040160405180910390fd5b845467ffffffffffffffff191660011785558315612b4b57845460ff60401b1916600160401b1785555b600080546001600160a01b0319166001600160a01b038816179055612b6f33612eec565b612b77612efd565b8315612bbd57845460ff60401b19168555604051600181527fc7f505b2f371ae2175ee4913f4499e1f2633a7b5936321eed1cdaeb6115181d29060200160405180910390a15b505050505050565b6000612bcf612e49565b6001600160a01b038216612c255760405162461bcd60e51b815260206004820152601f60248201527f696e76616c696420666163746f72792073746f72616765206164647265737300604482015260640161038c565b50600080546001600160a01b0383166001600160a01b03199091161790556001919050565b60008054604051630a3b935760e11b81526004810184905282916001600160a01b03169063147726ae906024016040805180830381865afa158015612c93573d6000803e3d6000fd5b505050506040513d601f19601f82011682018060405250810190612cb79190612fdc565b8051909150600103612d425760005460208201516040516308d0eb2d60e21b81526001600160a01b0390921691632343acb491612cfa9160040190815260200190565b602060405180830381865afa158015612d17573d6000803e3d6000fd5b505050506040513d601f19601f82011682018060405250810190612d3b9190613039565b9392505050565b8051600203612d82576000546020820151604051631fd6049160e11b81526001600160a01b0390921691633fac092291612cfa9160040190815260200190565b8051600303612dc257600054602082015160405163631c838560e01b81526001600160a01b039092169163631c838591612cfa9160040190815260200190565b8051600403612e02576000546020820151604051635ac9331560e11b81526001600160a01b039092169163b592662a91612cfa9160040190815260200190565b50600092915050565b612e13612e49565b6001600160a01b038116612e3d57604051631e4fbdf760e01b81526000600482015260240161038c565b612e4681612e7b565b50565b33612e52611266565b6001600160a01b0316146102095760405163118cdaa760e01b815233600482015260240161038c565b7f9016d09d72d40fdae2fd8ceac6b6234c7706214fd39c1cd1e609a0528c19930080546001600160a01b031981166001600160a01b03848116918217845560405192169182907f8be0079c531659141344cd1fd0a4f28419497f9722a3daafe3b4186f6b6457e090600090a3505050565b612ef4612f0d565b612e4681612f56565b612f05612f0d565b610209612f5e565b7ff0c57e16840df040f15088dc2f81fe391c3923bec73e23a9662efc9c229c6a0054600160401b900460ff1661020957604051631afcd79f60e31b815260040160405180910390fd5b612e13612f0d565b612f66612f0d565b7fcd5ed15c6e187e77e9aee88184c21f4f2182ab5827cb3b7e07fbedcd63f03300805460ff19169055565b600060208284031215612fa357600080fd5b5035919050565b6001600160a01b0381168114612e4657600080fd5b600060208284031215612fd157600080fd5b8135612d3b81612faa565b600060408284031215612fee57600080fd5b6040516040810181811067ffffffffffffffff8211171561301f57634e487b7160e01b600052604160045260246000fd5b604052825181526020928301519281019290925250919050565b60006020828403121561304b57600080fd5b81518015158114612d3b57600080fd5b60208082526025908201527f5468652070726f6365737320686173206265656e20636f6d706c65746564206260408201526465666f726560d81b606082015260800190565b6000602082840312156130b257600080fd5b8151612d3b81612faa565b6000602082840312156130cf57600080fd5b5051919050565b634e487b7160e01b600052601160045260246000fd5b808201808211156130ff576130ff6130d6565b92915050565b6001600160a01b039384168152919092166020820152604081019190915260600190565b818103818111156130ff576130ff6130d6565b60006020828403121561314e57600080fd5b815160ff81168114612d3b57600080fd5b80820281158282048414176130ff576130ff6130d6565b60008261319357634e487b7160e01b600052601260045260246000fd5b500490565b6001600160a01b039490941684526020840192909252604083015260608201526080019056fea26469706673582212209d76a52752d09a2a7fae5cb819b880c042de53a9c5290658e661804e24feb68c64736f6c63430008190033","linkReferences":{}},"methodIdentifiers":{"checkMultical(uint256)":"e16e554a","completeCancelIssuance(uint256)":"807ca237","completeCancelRedemption(uint256)":"9026544f","completeIssuance(uint256)":"bed45bef","completeRedemption(uint256)":"840ecba0","factoryStorage()":"c06e1ae2","initialize(address)":"c4d66de8","multical(uint256)":"73b774ed","owner()":"8da5cb5b","paused()":"5c975abb","renounceOwnership()":"715018a6","setIndexFactoryStorage(address)":"cc8659ae","transferOwnership(address)":"f2fde38b"},"id":18}