{"abi":[{"type":"constructor","inputs":[{"name":"_DOMAIN_SEPARATOR","type":"bytes32","internalType":"bytes32"}],"stateMutability":"nonpayable"},{"type":"function","name":"PERMIT_TYPEHASH","inputs":[],"outputs":[{"name":"","type":"bytes32","internalType":"bytes32"}],"stateMutability":"view"},{"type":"function","name":"getTypedDataHash","inputs":[{"name":"_permit","type":"tuple","internalType":"struct SigUtils.Permit","components":[{"name":"owner","type":"address","internalType":"address"},{"name":"spender","type":"address","internalType":"address"},{"name":"value","type":"uint256","internalType":"uint256"},{"name":"nonce","type":"uint256","internalType":"uint256"},{"name":"deadline","type":"uint256","internalType":"uint256"}]}],"outputs":[{"name":"","type":"bytes32","internalType":"bytes32"}],"stateMutability":"view"}],"bytecode":{"object":"0x6080604052348015600e575f80fd5b5060405161055a38038061055a8339818101604052810190602e9190606b565b805f81905550506091565b5f80fd5b5f819050919050565b604d81603d565b81146056575f80fd5b50565b5f815190506065816046565b92915050565b5f60208284031215607d57607c6039565b5b5f6088848285016059565b91505092915050565b6104bc8061009e5f395ff3fe608060405234801561000f575f80fd5b5060043610610034575f3560e01c806330adf81f14610038578063ba20b89d14610056575b5f80fd5b610040610086565b60405161004d919061016c565b60405180910390f35b610070600480360381019061006b9190610334565b6100ac565b60405161007d919061016c565b60405180910390f35b7f6e71edae12b1b97f4d1f60370fef10105fa2faae0126114a169c64845d6126c95f1b81565b5f80546100b8836100e6565b6040516020016100c99291906103d3565b604051602081830303815290604052805190602001209050919050565b5f7f6e71edae12b1b97f4d1f60370fef10105fa2faae0126114a169c64845d6126c95f1b825f0151836020015184604001518560600151866080015160405160200161013796959493929190610427565b604051602081830303815290604052805190602001209050919050565b5f819050919050565b61016681610154565b82525050565b5f60208201905061017f5f83018461015d565b92915050565b5f604051905090565b5f80fd5b5f80fd5b5f601f19601f8301169050919050565b7f4e487b71000000000000000000000000000000000000000000000000000000005f52604160045260245ffd5b6101dc82610196565b810181811067ffffffffffffffff821117156101fb576101fa6101a6565b5b80604052505050565b5f61020d610185565b905061021982826101d3565b919050565b5f73ffffffffffffffffffffffffffffffffffffffff82169050919050565b5f6102478261021e565b9050919050565b6102578161023d565b8114610261575f80fd5b50565b5f813590506102728161024e565b92915050565b5f819050919050565b61028a81610278565b8114610294575f80fd5b50565b5f813590506102a581610281565b92915050565b5f60a082840312156102c0576102bf610192565b5b6102ca60a0610204565b90505f6102d984828501610264565b5f8301525060206102ec84828501610264565b602083015250604061030084828501610297565b604083015250606061031484828501610297565b606083015250608061032884828501610297565b60808301525092915050565b5f60a082840312156103495761034861018e565b5b5f610356848285016102ab565b91505092915050565b5f81905092915050565b7f19010000000000000000000000000000000000000000000000000000000000005f82015250565b5f61039d60028361035f565b91506103a882610369565b600282019050919050565b5f819050919050565b6103cd6103c882610154565b6103b3565b82525050565b5f6103dd82610391565b91506103e982856103bc565b6020820191506103f982846103bc565b6020820191508190509392505050565b6104128161023d565b82525050565b61042181610278565b82525050565b5f60c08201905061043a5f83018961015d565b6104476020830188610409565b6104546040830187610409565b6104616060830186610418565b61046e6080830185610418565b61047b60a0830184610418565b97965050505050505056fea26469706673582212201768a9aa3e555292cfce23ddd206cd2e71e5fd1f6138b950009fd6bd32aefdba64736f6c63430008190033","linkReferences":{}},"methodIdentifiers":{"PERMIT_TYPEHASH()":"30adf81f","getTypedDataHash((address,address,uint256,uint256,uint256))":"ba20b89d"},"id":135}