{"abi":[{"type":"constructor","inputs":[{"name":"_DOMAIN_SEPARATOR","type":"bytes32","internalType":"bytes32"}],"stateMutability":"nonpayable"},{"type":"function","name":"PERMIT_TYPEHASH","inputs":[],"outputs":[{"name":"","type":"bytes32","internalType":"bytes32"}],"stateMutability":"view"},{"type":"function","name":"getTypedDataHash","inputs":[{"name":"_permit","type":"tuple","internalType":"struct SigUtils.Permit","components":[{"name":"owner","type":"address","internalType":"address"},{"name":"spender","type":"address","internalType":"address"},{"name":"value","type":"uint256","internalType":"uint256"},{"name":"nonce","type":"uint256","internalType":"uint256"},{"name":"deadline","type":"uint256","internalType":"uint256"}]}],"outputs":[{"name":"","type":"bytes32","internalType":"bytes32"}],"stateMutability":"view"}],"bytecode":{"object":"0x6080604052348015600e575f80fd5b5060405161026f38038061026f833981016040819052602b916031565b5f556047565b5f602082840312156040575f80fd5b5051919050565b61021b806100545f395ff3fe608060405234801561000f575f80fd5b5060043610610034575f3560e01c806330adf81f14610038578063ba20b89d14610071575b5f80fd5b61005f7f6e71edae12b1b97f4d1f60370fef10105fa2faae0126114a169c64845d6126c981565b60405190815260200160405180910390f35b61005f61007f36600461015f565b5f805461008b836100c7565b60405161190160f01b6020820152602281019290925260428201526062015b604051602081830303815290604052805190602001209050919050565b80516020808301516040808501516060860151608087015192515f966100aa967f6e71edae12b1b97f4d1f60370fef10105fa2faae0126114a169c64845d6126c996919591949392019586526001600160a01b0394851660208701529290931660408501526060840152608083019190915260a082015260c00190565b80356001600160a01b038116811461015a575f80fd5b919050565b5f60a0828403121561016f575f80fd5b60405160a0810181811067ffffffffffffffff8211171561019e57634e487b7160e01b5f52604160045260245ffd5b6040526101aa83610144565b81526101b860208401610144565b6020820152604083013560408201526060830135606082015260808301356080820152809150509291505056fea2646970667358221220c04fd387e4b72d8edd518936890192abd3231f05a88df5466fe05fe3ebb4662764736f6c63430008190033","linkReferences":{}},"methodIdentifiers":{"PERMIT_TYPEHASH()":"30adf81f","getTypedDataHash((address,address,uint256,uint256,uint256))":"ba20b89d"},"id":158}