{"abi":[{"type":"constructor","inputs":[{"name":"_DOMAIN_SEPARATOR","type":"bytes32","internalType":"bytes32"}],"stateMutability":"nonpayable"},{"type":"function","name":"PERMIT_TYPEHASH","inputs":[],"outputs":[{"name":"","type":"bytes32","internalType":"bytes32"}],"stateMutability":"view"},{"type":"function","name":"getTypedDataHash","inputs":[{"name":"_permit","type":"tuple","internalType":"struct SigUtils.Permit","components":[{"name":"owner","type":"address","internalType":"address"},{"name":"spender","type":"address","internalType":"address"},{"name":"value","type":"uint256","internalType":"uint256"},{"name":"nonce","type":"uint256","internalType":"uint256"},{"name":"deadline","type":"uint256","internalType":"uint256"}]}],"outputs":[{"name":"","type":"bytes32","internalType":"bytes32"}],"stateMutability":"view"}],"bytecode":{"object":"0x6080604052348015600f57600080fd5b506040516105893803806105898339818101604052810190602f91906071565b80600081905550506099565b600080fd5b6000819050919050565b6051816040565b8114605b57600080fd5b50565b600081519050606b81604a565b92915050565b6000602082840312156084576083603b565b5b6000609084828501605e565b91505092915050565b6104e1806100a86000396000f3fe608060405234801561001057600080fd5b50600436106100365760003560e01c806330adf81f1461003b578063ba20b89d14610059575b600080fd5b610043610089565b6040516100509190610175565b60405180910390f35b610073600480360381019061006e9190610350565b6100b0565b6040516100809190610175565b60405180910390f35b7f6e71edae12b1b97f4d1f60370fef10105fa2faae0126114a169c64845d6126c960001b81565b600080546100bd836100eb565b6040516020016100ce9291906103f5565b604051602081830303815290604052805190602001209050919050565b60007f6e71edae12b1b97f4d1f60370fef10105fa2faae0126114a169c64845d6126c960001b8260000151836020015184604001518560600151866080015160405160200161013f9695949392919061044a565b604051602081830303815290604052805190602001209050919050565b6000819050919050565b61016f8161015c565b82525050565b600060208201905061018a6000830184610166565b92915050565b6000604051905090565b600080fd5b600080fd5b6000601f19601f8301169050919050565b7f4e487b7100000000000000000000000000000000000000000000000000000000600052604160045260246000fd5b6101ed826101a4565b810181811067ffffffffffffffff8211171561020c5761020b6101b5565b5b80604052505050565b600061021f610190565b905061022b82826101e4565b919050565b600073ffffffffffffffffffffffffffffffffffffffff82169050919050565b600061025b82610230565b9050919050565b61026b81610250565b811461027657600080fd5b50565b60008135905061028881610262565b92915050565b6000819050919050565b6102a18161028e565b81146102ac57600080fd5b50565b6000813590506102be81610298565b92915050565b600060a082840312156102da576102d961019f565b5b6102e460a0610215565b905060006102f484828501610279565b600083015250602061030884828501610279565b602083015250604061031c848285016102af565b6040830152506060610330848285016102af565b6060830152506080610344848285016102af565b60808301525092915050565b600060a082840312156103665761036561019a565b5b6000610374848285016102c4565b91505092915050565b600081905092915050565b7f1901000000000000000000000000000000000000000000000000000000000000600082015250565b60006103be60028361037d565b91506103c982610388565b600282019050919050565b6000819050919050565b6103ef6103ea8261015c565b6103d4565b82525050565b6000610400826103b1565b915061040c82856103de565b60208201915061041c82846103de565b6020820191508190509392505050565b61043581610250565b82525050565b6104448161028e565b82525050565b600060c08201905061045f6000830189610166565b61046c602083018861042c565b610479604083018761042c565b610486606083018661043b565b610493608083018561043b565b6104a060a083018461043b565b97965050505050505056fea2646970667358221220249c08b3bb701debdef62b1ddd8195750e4236cf2c2cd191f0b8dc5dd586823364736f6c63430008190033","linkReferences":{}},"methodIdentifiers":{"PERMIT_TYPEHASH()":"30adf81f","getTypedDataHash((address,address,uint256,uint256,uint256))":"ba20b89d"},"id":135}