{"abi":[{"type":"function","name":"actionInfoById","inputs":[{"name":"","type":"uint256","internalType":"uint256"}],"outputs":[{"name":"actionType","type":"uint256","internalType":"uint256"},{"name":"nonce","type":"uint256","internalType":"uint256"}],"stateMutability":"view"},{"type":"function","name":"buyRequestPayedAmountById","inputs":[{"name":"","type":"uint256","internalType":"uint256"}],"outputs":[{"name":"","type":"uint256","internalType":"uint256"}],"stateMutability":"view"},{"type":"function","name":"checkFirstRebalanceOrdersStatus","inputs":[{"name":"_rebalanceNonce","type":"uint256","internalType":"uint256"}],"outputs":[{"name":"","type":"bool","internalType":"bool"}],"stateMutability":"view"},{"type":"function","name":"checkMultical","inputs":[{"name":"_reqeustId","type":"uint256","internalType":"uint256"}],"outputs":[{"name":"","type":"bool","internalType":"bool"}],"stateMutability":"view"},{"type":"function","name":"checkSecondRebalanceOrdersStatus","inputs":[{"name":"_rebalanceNonce","type":"uint256","internalType":"uint256"}],"outputs":[{"name":"","type":"bool","internalType":"bool"}],"stateMutability":"view"},{"type":"function","name":"completeRebalanceActions","inputs":[{"name":"_rebalanceNonce","type":"uint256","internalType":"uint256"}],"outputs":[],"stateMutability":"nonpayable"},{"type":"function","name":"estimateAmountAfterFee","inputs":[{"name":"_amount","type":"uint256","internalType":"uint256"}],"outputs":[{"name":"","type":"uint256","internalType":"uint256"}],"stateMutability":"view"},{"type":"function","name":"factoryStorage","inputs":[],"outputs":[{"name":"","type":"address","internalType":"contract IndexFactoryStorage"}],"stateMutability":"view"},{"type":"function","name":"feeRate","inputs":[],"outputs":[{"name":"","type":"uint8","internalType":"uint8"}],"stateMutability":"view"},{"type":"function","name":"firstRebalanceAction","inputs":[],"outputs":[{"name":"","type":"uint256","internalType":"uint256"}],"stateMutability":"nonpayable"},{"type":"function","name":"getOrderInstanceById","inputs":[{"name":"id","type":"uint256","internalType":"uint256"}],"outputs":[{"name":"","type":"tuple","internalType":"struct IOrderProcessor.Order","components":[{"name":"requestTimestamp","type":"uint64","internalType":"uint64"},{"name":"recipient","type":"address","internalType":"address"},{"name":"assetToken","type":"address","internalType":"address"},{"name":"paymentToken","type":"address","internalType":"address"},{"name":"sell","type":"bool","internalType":"bool"},{"name":"orderType","type":"uint8","internalType":"enum IOrderProcessor.OrderType"},{"name":"assetTokenQuantity","type":"uint256","internalType":"uint256"},{"name":"paymentTokenQuantity","type":"uint256","internalType":"uint256"},{"name":"price","type":"uint256","internalType":"uint256"},{"name":"tif","type":"uint8","internalType":"enum IOrderProcessor.TIF"}]}],"stateMutability":"view"},{"type":"function","name":"getPortfolioValue","inputs":[],"outputs":[{"name":"","type":"uint256","internalType":"uint256"}],"stateMutability":"view"},{"type":"function","name":"getVaultDshareBalance","inputs":[{"name":"_token","type":"address","internalType":"address"}],"outputs":[{"name":"","type":"uint256","internalType":"uint256"}],"stateMutability":"view"},{"type":"function","name":"getVaultDshareValue","inputs":[{"name":"_token","type":"address","internalType":"address"}],"outputs":[{"name":"","type":"uint256","internalType":"uint256"}],"stateMutability":"view"},{"type":"function","name":"initialize","inputs":[{"name":"_factoryStorage","type":"address","internalType":"address"},{"name":"_orderManager","type":"address","internalType":"address"},{"name":"_issuer","type":"address","internalType":"address"},{"name":"_token","type":"address","internalType":"address"},{"name":"_vault","type":"address","internalType":"address"},{"name":"_usdc","type":"address","internalType":"address"},{"name":"_usdcDecimals","type":"uint8","internalType":"uint8"},{"name":"_isMainnet","type":"bool","internalType":"bool"}],"outputs":[],"stateMutability":"nonpayable"},{"type":"function","name":"isMainnet","inputs":[],"outputs":[{"name":"","type":"bool","internalType":"bool"}],"stateMutability":"view"},{"type":"function","name":"issuer","inputs":[],"outputs":[{"name":"","type":"address","internalType":"contract IOrderProcessor"}],"stateMutability":"view"},{"type":"function","name":"latestFeeUpdate","inputs":[],"outputs":[{"name":"","type":"uint256","internalType":"uint256"}],"stateMutability":"view"},{"type":"function","name":"multical","inputs":[{"name":"_requestId","type":"uint256","internalType":"uint256"}],"outputs":[],"stateMutability":"nonpayable"},{"type":"function","name":"orderInstanceById","inputs":[{"name":"","type":"uint256","internalType":"uint256"}],"outputs":[{"name":"requestTimestamp","type":"uint64","internalType":"uint64"},{"name":"recipient","type":"address","internalType":"address"},{"name":"assetToken","type":"address","internalType":"address"},{"name":"paymentToken","type":"address","internalType":"address"},{"name":"sell","type":"bool","internalType":"bool"},{"name":"orderType","type":"uint8","internalType":"enum IOrderProcessor.OrderType"},{"name":"assetTokenQuantity","type":"uint256","internalType":"uint256"},{"name":"paymentTokenQuantity","type":"uint256","internalType":"uint256"},{"name":"price","type":"uint256","internalType":"uint256"},{"name":"tif","type":"uint8","internalType":"enum IOrderProcessor.TIF"}],"stateMutability":"view"},{"type":"function","name":"orderManager","inputs":[],"outputs":[{"name":"","type":"address","internalType":"contract OrderManager"}],"stateMutability":"view"},{"type":"function","name":"owner","inputs":[],"outputs":[{"name":"","type":"address","internalType":"address"}],"stateMutability":"view"},{"type":"function","name":"pause","inputs":[],"outputs":[],"stateMutability":"nonpayable"},{"type":"function","name":"paused","inputs":[],"outputs":[{"name":"","type":"bool","internalType":"bool"}],"stateMutability":"view"},{"type":"function","name":"portfolioValueByNonce","inputs":[{"name":"","type":"uint256","internalType":"uint256"}],"outputs":[{"name":"","type":"uint256","internalType":"uint256"}],"stateMutability":"view"},{"type":"function","name":"priceInWei","inputs":[{"name":"_tokenAddress","type":"address","internalType":"address"}],"outputs":[{"name":"","type":"uint256","internalType":"uint256"}],"stateMutability":"view"},{"type":"function","name":"rebalanceBuyPayedAmountById","inputs":[{"name":"","type":"uint256","internalType":"uint256"}],"outputs":[{"name":"","type":"uint256","internalType":"uint256"}],"stateMutability":"view"},{"type":"function","name":"rebalanceNonce","inputs":[],"outputs":[{"name":"","type":"uint256","internalType":"uint256"}],"stateMutability":"view"},{"type":"function","name":"rebalanceRequestId","inputs":[{"name":"","type":"uint256","internalType":"uint256"},{"name":"","type":"address","internalType":"address"}],"outputs":[{"name":"","type":"uint256","internalType":"uint256"}],"stateMutability":"view"},{"type":"function","name":"rebalanceSellAssetAmountById","inputs":[{"name":"","type":"uint256","internalType":"uint256"}],"outputs":[{"name":"","type":"uint256","internalType":"uint256"}],"stateMutability":"view"},{"type":"function","name":"renounceOwnership","inputs":[],"outputs":[],"stateMutability":"nonpayable"},{"type":"function","name":"secondRebalanceAction","inputs":[{"name":"_rebalanceNonce","type":"uint256","internalType":"uint256"}],"outputs":[],"stateMutability":"nonpayable"},{"type":"function","name":"sellRequestAssetAmountById","inputs":[{"name":"","type":"uint256","internalType":"uint256"}],"outputs":[{"name":"","type":"uint256","internalType":"uint256"}],"stateMutability":"view"},{"type":"function","name":"setIndexFactoryStorage","inputs":[{"name":"_indexFactoryStorage","type":"address","internalType":"address"}],"outputs":[{"name":"","type":"bool","internalType":"bool"}],"stateMutability":"nonpayable"},{"type":"function","name":"setIssuer","inputs":[{"name":"_issuer","type":"address","internalType":"address"}],"outputs":[{"name":"","type":"bool","internalType":"bool"}],"stateMutability":"nonpayable"},{"type":"function","name":"setOrderManager","inputs":[{"name":"_orderManager","type":"address","internalType":"address"}],"outputs":[{"name":"","type":"bool","internalType":"bool"}],"stateMutability":"nonpayable"},{"type":"function","name":"setTokenAddress","inputs":[{"name":"_token","type":"address","internalType":"address"}],"outputs":[{"name":"","type":"bool","internalType":"bool"}],"stateMutability":"nonpayable"},{"type":"function","name":"setUsdcAddress","inputs":[{"name":"_usdc","type":"address","internalType":"address"},{"name":"_usdcDecimals","type":"uint8","internalType":"uint8"}],"outputs":[{"name":"","type":"bool","internalType":"bool"}],"stateMutability":"nonpayable"},{"type":"function","name":"token","inputs":[],"outputs":[{"name":"","type":"address","internalType":"contract IndexToken"}],"stateMutability":"view"},{"type":"function","name":"tokenShortagePercentByNonce","inputs":[{"name":"","type":"uint256","internalType":"uint256"},{"name":"","type":"address","internalType":"address"}],"outputs":[{"name":"","type":"uint256","internalType":"uint256"}],"stateMutability":"view"},{"type":"function","name":"tokenValueByNonce","inputs":[{"name":"","type":"uint256","internalType":"uint256"},{"name":"","type":"address","internalType":"address"}],"outputs":[{"name":"","type":"uint256","internalType":"uint256"}],"stateMutability":"view"},{"type":"function","name":"totalShortagePercentByNonce","inputs":[{"name":"","type":"uint256","internalType":"uint256"}],"outputs":[{"name":"","type":"uint256","internalType":"uint256"}],"stateMutability":"view"},{"type":"function","name":"transferOwnership","inputs":[{"name":"newOwner","type":"address","internalType":"address"}],"outputs":[],"stateMutability":"nonpayable"},{"type":"function","name":"unpause","inputs":[],"outputs":[],"stateMutability":"nonpayable"},{"type":"function","name":"usdc","inputs":[],"outputs":[{"name":"","type":"address","internalType":"address"}],"stateMutability":"view"},{"type":"function","name":"usdcDecimals","inputs":[],"outputs":[{"name":"","type":"uint8","internalType":"uint8"}],"stateMutability":"view"},{"type":"function","name":"vault","inputs":[],"outputs":[{"name":"","type":"address","internalType":"contract NexVault"}],"stateMutability":"view"},{"type":"event","name":"Initialized","inputs":[{"name":"version","type":"uint64","indexed":false,"internalType":"uint64"}],"anonymous":false},{"type":"event","name":"OwnershipTransferred","inputs":[{"name":"previousOwner","type":"address","indexed":true,"internalType":"address"},{"name":"newOwner","type":"address","indexed":true,"internalType":"address"}],"anonymous":false},{"type":"event","name":"Paused","inputs":[{"name":"account","type":"address","indexed":false,"internalType":"address"}],"anonymous":false},{"type":"event","name":"Unpaused","inputs":[{"name":"account","type":"address","indexed":false,"internalType":"address"}],"anonymous":false},{"type":"error","name":"EnforcedPause","inputs":[]},{"type":"error","name":"ExpectedPause","inputs":[]},{"type":"error","name":"InvalidInitialization","inputs":[]},{"type":"error","name":"NotInitializing","inputs":[]},{"type":"error","name":"OwnableInvalidOwner","inputs":[{"name":"owner","type":"address","internalType":"address"}]},{"type":"error","name":"OwnableUnauthorizedAccount","inputs":[{"name":"account","type":"address","internalType":"address"}]},{"type":"error","name":"PRBMath_MulDiv_Overflow","inputs":[{"name":"x","type":"uint256","internalType":"uint256"},{"name":"y","type":"uint256","internalType":"uint256"},{"name":"denominator","type":"uint256","internalType":"uint256"}]},{"type":"error","name":"PRBMath_MulDiv_Overflow","inputs":[{"name":"x","type":"uint256","internalType":"uint256"},{"name":"y","type":"uint256","internalType":"uint256"},{"name":"denominator","type":"uint256","internalType":"uint256"}]}],"bytecode":{"object":"0x6080604052348015600f57600080fd5b5061350a8061001f6000396000f3fe608060405234801561001057600080fd5b50600436106102955760003560e01c80638861d23511610167578063c0da840d116100ce578063efdf505311610087578063efdf50531461070c578063f1f31d661461071f578063f2fde38b1461073f578063f9b6117f14610752578063fbfa77cf14610765578063fc0c546a1461077857600080fd5b8063c0da840d1461068c578063cc8659ae1461069f578063db5c1a12146106b2578063e16e554a146106dd578063eab2a711146106f0578063edca4f5e1461070357600080fd5b8063a08d7bd611610120578063a08d7bd6146105f3578063a87f98d214610606578063ab935bb214610626578063b316e7fd14610646578063bb0498de14610671578063c06e1ae21461067957600080fd5b80638861d235146105495780638d6983c7146105695780638da5cb5b1461058957806392318df4146105b9578063978bbdb9146105cc5780639e76d0cb146105e057600080fd5b806342faac051161020b5780636839a095116101c45780636839a095146104c2578063715018a6146104d557806373b774ed146104dd57806375a3cb57146104f05780637bf421651461051b5780638456cb591461054157600080fd5b806342faac051461045157806348f6e87b1461045e578063558f1aa81461047157806355cc4e57146104845780635c975abb14610497578063643ee27f146104af57600080fd5b80632badae5d1161025d5780632badae5d146103b25780632ca49334146103d257806332f53f3c146103f25780633c1f70ca146103fa5780633e413bee146104365780633f4ba83a1461044957600080fd5b8063011ced5f1461029a57806315e666a2146102b65780631d1438481461034f578063263e0d511461037a57806326a4e8d21461038f575b600080fd5b6102a360135481565b6040519081526020015b60405180910390f35b6103396102c4366004612e0d565b600d60205260009081526040902080546001820154600283015460038401546004850154600586015460069096015467ffffffffffffffff8616966001600160a01b03600160401b9097048716969586169585169460ff600160a01b8204811695600160a81b9092048116949193919291168a565b6040516102ad9a99989796959493929190612e60565b600354610362906001600160a01b031681565b6040516001600160a01b0390911681526020016102ad565b61038d610388366004612e0d565b61078b565b005b6103a261039d366004612eeb565b610b68565b60405190151581526020016102ad565b6102a36103c0366004612e0d565b600e6020526000908152604090205481565b6102a36103e0366004612e0d565b60116020526000908152604090205481565b6102a3610be4565b610421610408366004612e0d565b6012602052600090815260409020805460019091015482565b604080519283526020830191909152016102ad565b600554610362906001600160a01b031681565b61038d6110f9565b6007546103a29060ff1681565b61038d61046c366004612f25565b61110b565b6103a261047f366004612e0d565b61134f565b6103a2610492366004612eeb565b611536565b6000805160206134b58339815191525460ff166103a2565b61038d6104bd366004612e0d565b6115b4565b6102a36104d0366004612eeb565b611986565b61038d611b6e565b61038d6104eb366004612e0d565b611b80565b6102a36104fe366004612fce565b600860209081526000928352604080842090915290825290205481565b60055461052f90600160a01b900460ff1681565b60405160ff90911681526020016102ad565b61038d611bda565b6102a3610557366004612e0d565b60096020526000908152604090205481565b6102a3610577366004612e0d565b600c6020526000908152604090205481565b7f9016d09d72d40fdae2fd8ceac6b6234c7706214fd39c1cd1e609a0528c199300546001600160a01b0316610362565b6103a26105c7366004612e0d565b611bea565b60055461052f90600160a81b900460ff1681565b6102a36105ee366004612e0d565b611dc7565b6102a3610601366004612eeb565b611e5f565b6102a3610614366004612e0d565b600a6020526000908152604090205481565b6102a3610634366004612e0d565b600b6020526000908152604090205481565b6102a3610654366004612fce565b600f60209081526000928352604080842090915290825290205481565b6102a3611fb8565b600154610362906001600160a01b031681565b6103a261069a366004612eeb565b6120cd565b6103a26106ad366004612eeb565b6120fc565b6102a36106c0366004612fce565b601060209081526000928352604080842090915290825290205481565b6103a26106eb366004612e0d565b612129565b6103a26106fe366004612ffe565b61218f565b6102a360065481565b6102a361071a366004612eeb565b612219565b61073261072d366004612e0d565b612251565b6040516102ad919061302c565b61038d61074d366004612eeb565b612358565b600454610362906001600160a01b031681565b600254610362906001600160a01b031681565b600054610362906001600160a01b031681565b610793612396565b61079c8161134f565b6107c15760405162461bcd60e51b81526004016107b8906130f2565b60405180910390fd5b60005b600160009054906101000a90046001600160a01b03166001600160a01b03166353fd43326040518163ffffffff1660e01b8152600401602060405180830381865afa158015610817573d6000803e3d6000fd5b505050506040513d601f19601f8201168201806040525081019061083b9190613134565b811015610afc5760015460405163264cae9360e21b8152600481018390526000916001600160a01b031690639932ba4c90602401602060405180830381865afa15801561088c573d6000803e3d6000fd5b505050506040513d601f19601f820116820180604052508101906108b0919061314d565b6040516370a0823160e01b81523060048201529091506000906001600160a01b038316906370a0823190602401602060405180830381865afa1580156108fa573d6000803e3d6000fd5b505050506040513d601f19601f8201168201806040525081019061091e9190613134565b90508015610af25760015460405162493aaf60e51b81526001600160a01b03848116600483018190529263095ea7b39291169063092755e090602401602060405180830381865afa158015610977573d6000803e3d6000fd5b505050506040513d601f19601f8201168201806040525081019061099b919061314d565b6040516001600160e01b031960e084901b1681526001600160a01b039091166004820152602481018490526044016020604051808303816000875af11580156109e8573d6000803e3d6000fd5b505050506040513d601f19601f82011682018060405250810190610a0c919061316a565b5060015460405162493aaf60e51b81526001600160a01b0384811660048301529091169063092755e090602401602060405180830381865afa158015610a56573d6000803e3d6000fd5b505050506040513d601f19601f82011682018060405250810190610a7a919061314d565b600254604051636e553f6560e01b8152600481018490526001600160a01b039182166024820152911690636e553f65906044016020604051808303816000875af1158015610acc573d6000803e3d6000fd5b505050506040513d601f19601f82011682018060405250810190610af09190613134565b505b50506001016107c4565b50600160009054906101000a90046001600160a01b03166001600160a01b0316638baa6bf16040518163ffffffff1660e01b8152600401600060405180830381600087803b158015610b4d57600080fd5b505af1158015610b61573d6000803e3d6000fd5b5050505050565b6000610b72612396565b6001600160a01b038216610bc05760405162461bcd60e51b8152602060048201526015602482015274696e76616c696420746f6b656e206164647265737360581b60448201526064016107b8565b50600080546001600160a01b0319166001600160a01b03831617905560015b919050565b6000610bee612396565b600160066000828254610c01919061319d565b9091555060009050805b600160009054906101000a90046001600160a01b03166001600160a01b03166353fd43326040518163ffffffff1660e01b8152600401602060405180830381865afa158015610c5e573d6000803e3d6000fd5b505050506040513d601f19601f82011682018060405250810190610c829190613134565b811015610d445760015460405163264cae9360e21b8152600481018390526000916001600160a01b031690639932ba4c90602401602060405180830381865afa158015610cd3573d6000803e3d6000fd5b505050506040513d601f19601f82011682018060405250810190610cf7919061314d565b90506000610d0482612219565b6006546000908152600f602090815260408083206001600160a01b038716845290915290208190559050610d38818561319d565b93505050600101610c0b565b506006546000908152600e602052604081208290555b600160009054906101000a90046001600160a01b03166001600160a01b03166353fd43326040518163ffffffff1660e01b8152600401602060405180830381865afa158015610dad573d6000803e3d6000fd5b505050506040513d601f19601f82011682018060405250810190610dd19190613134565b8110156110ef5760015460405163264cae9360e21b8152600481018390526000916001600160a01b031690639932ba4c90602401602060405180830381865afa158015610e22573d6000803e3d6000fd5b505050506040513d601f19601f82011682018060405250810190610e46919061314d565b6006546000908152600f602090815260408083206001600160a01b0385168452909152812054919250610e7883611e5f565b9050600085610e908468056bc75e2d631000006131b0565b610e9a91906131dd565b60015460405162967c1760e71b81526001600160a01b038781166004830152929350911690634b3e0b8090602401602060405180830381865afa158015610ee5573d6000803e3d6000fd5b505050506040513d601f19601f82011682018060405250810190610f099190613134565b8111156110145760015460405162967c1760e71b81526001600160a01b0386811660048301526000928492911690634b3e0b8090602401602060405180830381865afa158015610f5d573d6000803e3d6000fd5b505050506040513d601f19601f82011682018060405250810190610f819190613134565b610f8b90856131b0565b610f9591906131dd565b610f9f90846131ff565b90506000610fae8683306123f1565b6040805180820182526005815260068054602080840191825260008681526012825285812094518555915160019094019390935590548152600882528281206001600160a01b038b1682528252828120849055928352600c9052902091909155506110df565b60015460405162967c1760e71b81526001600160a01b0386811660048301526000928492911690634b3e0b8090602401602060405180830381865afa158015611061573d6000803e3d6000fd5b505050506040513d601f19601f820116820180604052508101906110859190613134565b61108f91906131ff565b6006805460009081526010602090815260408083206001600160a01b038b16845282528083208590559254825260119052908120805492935083929091906110d890849061319d565b9091555050505b505060019092019150610d5a9050565b5060065491505090565b611101612396565b61110961279e565b565b7ff0c57e16840df040f15088dc2f81fe391c3923bec73e23a9662efc9c229c6a008054600160401b810460ff16159067ffffffffffffffff166000811580156111515750825b905060008267ffffffffffffffff16600114801561116e5750303b155b90508115801561117c575080155b1561119a5760405163f92ee8a960e01b815260040160405180910390fd5b845467ffffffffffffffff1916600117855583156111c457845460ff60401b1916600160401b1785555b8c600160006101000a8154816001600160a01b0302191690836001600160a01b031602179055508b600460006101000a8154816001600160a01b0302191690836001600160a01b031602179055508a600360006101000a8154816001600160a01b0302191690836001600160a01b03160217905550896000806101000a8154816001600160a01b0302191690836001600160a01b0316021790555088600260006101000a8154816001600160a01b0302191690836001600160a01b0316021790555087600560006101000a8154816001600160a01b0302191690836001600160a01b0316021790555086600560146101000a81548160ff021916908360ff1602179055506112d1336127fe565b6112d961280f565b6005805460ff60a81b1916600560a91b1790556007805460ff1916871515179055831561134057845460ff60401b19168555604051600181527fc7f505b2f371ae2175ee4913f4499e1f2633a7b5936321eed1cdaeb6115181d29060200160405180910390a15b50505050505050505050505050565b60008060005b600160009054906101000a90046001600160a01b03166001600160a01b03166353fd43326040518163ffffffff1660e01b8152600401602060405180830381865afa1580156113a8573d6000803e3d6000fd5b505050506040513d601f19601f820116820180604052508101906113cc9190613134565b81101561152c5760015460405163264cae9360e21b8152600481018390526000916001600160a01b031690639932ba4c90602401602060405180830381865afa15801561141d573d6000803e3d6000fd5b505050506040513d601f19601f82011682018060405250810190611441919061314d565b60008681526008602090815260408083206001600160a01b0385168452825280832054808452600b909252909120549192509081158015906114835750600081115b801561150f57506003546040516322fd455760e11b8152600481018490526002916001600160a01b0316906345fa8aae90602401602060405180830381865afa1580156114d4573d6000803e3d6000fd5b505050506040513d601f19601f820116820180604052508101906114f89190613212565b600381111561150957611509612e26565b60ff1614155b15611521575060009695505050505050565b505050600101611355565b5060019392505050565b6000611540612396565b6001600160a01b03821661158f5760405162461bcd60e51b8152602060048201526016602482015275696e76616c696420697373756572206164647265737360501b60448201526064016107b8565b50600380546001600160a01b0383166001600160a01b03199091161790556001919050565b6115bc612396565b6115c7600654611bea565b6115e35760405162461bcd60e51b81526004016107b8906130f2565b6000818152600e602090815260408083205460119092528083205460055491516370a0823160e01b81523060048201529293909290916001600160a01b0316906370a0823190602401602060405180830381865afa158015611649573d6000803e3d6000fd5b505050506040513d601f19601f8201168201806040525081019061166d9190613134565b905060005b600160009054906101000a90046001600160a01b03166001600160a01b03166353fd43326040518163ffffffff1660e01b8152600401602060405180830381865afa1580156116c5573d6000803e3d6000fd5b505050506040513d601f19601f820116820180604052508101906116e99190613134565b811015610b615760015460405163264cae9360e21b8152600481018390526000916001600160a01b031690639932ba4c90602401602060405180830381865afa15801561173a573d6000803e3d6000fd5b505050506040513d601f19601f8201168201806040525081019061175e919061314d565b60008781526010602090815260408083206001600160a01b0385168452909152902054909150801561197c5760008561179786846131b0565b6117a191906131dd565b6003546005546040516308da5c3560e21b81526000600482018190526001600160a01b0392831660248301529394508392919091169063236970d4906044016040805180830381865afa1580156117fc573d6000803e3d6000fd5b505050506040513d601f19601f820116820180604052508101906118209190613233565b91509150600082611831838661281f565b61183b91906131ff565b905060006118498383612851565b611853908561319d565b6005546004805460405163095ea7b360e01b81526001600160a01b03918216928101929092526024820189905292935091169063095ea7b3906044016020604051808303816000875af11580156118ae573d6000803e3d6000fd5b505050506040513d601f19601f820116820180604052508101906118d2919061316a565b5060006118e088843061287a565b90506040518060400160405280600681526020018e81525060126000838152602001908152602001600020600082015181600001556020820151816001015590505080600860008f815260200190815260200160002060008a6001600160a01b03166001600160a01b031681526020019081526020016000208190555082600b6000838152602001908152602001600020819055505050505050505b5050600101611672565b60075460009060ff1615611aea5760015460405163023712c360e21b81526001600160a01b03848116600483015260009216906308dc4b0c90602401602060405180830381865afa1580156119df573d6000803e3d6000fd5b505050506040513d601f19601f82011682018060405250810190611a03919061314d565b90506000816001600160a01b031663feaf968c6040518163ffffffff1660e01b815260040160a060405180830381865afa158015611a45573d6000803e3d6000fd5b505050506040513d601f19601f82011682018060405250810190611a69919061327a565b5050509150506000826001600160a01b031663313ce5676040518163ffffffff1660e01b8152600401602060405180830381865afa158015611aaf573d6000803e3d6000fd5b505050506040513d601f19601f82011682018060405250810190611ad391906132ca565b9050611ae182826012612a50565b95945050505050565b60035460055460405163a377cfbf60e01b81526001600160a01b0385811660048301529182166024820152600092919091169063a377cfbf906044016040805180830381865afa158015611b42573d6000803e3d6000fd5b505050506040513d601f19601f82011682018060405250810190611b6691906132e7565b519392505050565b611b76612396565b6111096000612a90565b6000818152601260209081526040918290208251808401909352805480845260019091015491830191909152600503611bc457611bc081602001516115b4565b5050565b8051600603611bc057611bc0816020015161078b565b611be2612396565b611109612b01565b60008060005b600160009054906101000a90046001600160a01b03166001600160a01b03166353fd43326040518163ffffffff1660e01b8152600401602060405180830381865afa158015611c43573d6000803e3d6000fd5b505050506040513d601f19601f82011682018060405250810190611c679190613134565b81101561152c5760015460405163264cae9360e21b8152600481018390526000916001600160a01b031690639932ba4c90602401602060405180830381865afa158015611cb8573d6000803e3d6000fd5b505050506040513d601f19601f82011682018060405250810190611cdc919061314d565b60008681526008602090815260408083206001600160a01b0385168452825280832054808452600c90925290912054919250908115801590611d1e5750600081115b8015611daa57506003546040516322fd455760e11b8152600481018490526002916001600160a01b0316906345fa8aae90602401602060405180830381865afa158015611d6f573d6000803e3d6000fd5b505050506040513d601f19601f82011682018060405250810190611d939190613212565b6003811115611da457611da4612e26565b60ff1614155b15611dbc575060009695505050505050565b505050600101611bf0565b6003546005546040516308da5c3560e21b81526000600482018190526001600160a01b039283166024830152928392839291169063236970d4906044016040805180830381865afa158015611e20573d6000803e3d6000fd5b505050506040513d601f19601f82011682018060405250810190611e449190613233565b91509150600082611e55838761281f565b611ae191906131ff565b60015460405162493aaf60e51b81526001600160a01b038381166004830152600092839291169063092755e090602401602060405180830381865afa158015611eac573d6000803e3d6000fd5b505050506040513d601f19601f82011682018060405250810190611ed0919061314d565b6002546040516370a0823160e01b81526001600160a01b039182166004820152919250600091908316906370a0823190602401602060405180830381865afa158015611f20573d6000803e3d6000fd5b505050506040513d601f19601f82011682018060405250810190611f449190613134565b60405163266d6a8360e11b8152600481018290529091506001600160a01b03831690634cdad50690602401602060405180830381865afa158015611f8c573d6000803e3d6000fd5b505050506040513d601f19601f82011682018060405250810190611fb09190613134565b949350505050565b60008060005b600160009054906101000a90046001600160a01b03166001600160a01b03166353fd43326040518163ffffffff1660e01b8152600401602060405180830381865afa158015612011573d6000803e3d6000fd5b505050506040513d601f19601f820116820180604052508101906120359190613134565b8110156120c75760015460405163264cae9360e21b8152600481018390526000916120b0916001600160a01b0390911690639932ba4c90602401602060405180830381865afa15801561208c573d6000803e3d6000fd5b505050506040513d601f19601f8201168201806040525081019061071a919061314d565b90506120bc818461319d565b925050600101611fbe565b50919050565b60006120d7612396565b50600480546001600160a01b0383166001600160a01b03199091161790556001919050565b6000612106612396565b50600180546001600160a01b0383166001600160a01b0319909116178155919050565b6000818152601260209081526040808320815180830190925280548083526001909101549282019290925290600503612170576121698160200151611bea565b9392505050565b805160060361218657612169816020015161134f565b50600092915050565b6000612199612396565b6001600160a01b0383166121e75760405162461bcd60e51b8152602060048201526015602482015274696e76616c696420746f6b656e206164647265737360581b60448201526064016107b8565b506005805460ff8316600160a01b026001600160a81b03199091166001600160a01b0385161717905560015b92915050565b60008061222583611986565b9050600061223284611e5f565b9050670de0b6b3a764000061224783836131b0565b611fb091906131dd565b612259612daa565b6000828152600d6020908152604091829020825161014081018452815467ffffffffffffffff811682526001600160a01b03600160401b9091048116938201939093526001808301548416948201949094526002820154928316606082015260ff600160a01b84048116151560808301529093919260a0850192600160a81b909104909116908111156122ee576122ee612e26565b60018111156122ff576122ff612e26565b815260038281015460208301526004830154604083015260058301546060830152600683015460809092019160ff169081111561233e5761233e612e26565b600381111561234f5761234f612e26565b90525092915050565b612360612396565b6001600160a01b03811661238a57604051631e4fbdf760e01b8152600060048201526024016107b8565b61239381612a90565b50565b336123c87f9016d09d72d40fdae2fd8ceac6b6234c7706214fd39c1cd1e609a0528c199300546001600160a01b031690565b6001600160a01b0316146111095760405163118cdaa760e01b81523360048201526024016107b8565b60015460405162493aaf60e51b81526001600160a01b038581166004830152600092839291169063092755e090602401602060405180830381865afa15801561243e573d6000803e3d6000fd5b505050506040513d601f19601f82011682018060405250810190612462919061314d565b600254604051631c20fadd60e01b81526001600160a01b03808416600483015230602483015260448201889052929350911690631c20fadd90606401600060405180830381600087803b1580156124b857600080fd5b505af11580156124cc573d6000803e3d6000fd5b5050604051635d043b2960e11b81526004810187905230602482018190526044820152600092506001600160a01b038416915063ba087652906064016020604051808303816000875af1158015612527573d6000803e3d6000fd5b505050506040513d601f19601f8201168201806040525081019061254b9190613134565b905060006125596001612b4a565b6001600160a01b03888116604083810182905260c08401869052888316602085015260048054915163095ea7b360e01b815291909316928101929092526024820185905291925063095ea7b3906044016020604051808303816000875af11580156125c8573d6000803e3d6000fd5b505050506040513d601f19601f820116820180604052508101906125ec919061316a565b5060048054604051635d41120560e01b81526001600160a01b038a81169382019390935260248101859052878316604482015260009290911690635d411205906064016020604051808303816000875af115801561264e573d6000803e3d6000fd5b505050506040513d601f19601f820116820180604052508101906126729190613134565b6000818152600d6020908152604091829020855181549287015167ffffffffffffffff9091166001600160e01b031990931692909217600160401b6001600160a01b039384160217815591850151600180840180546001600160a01b0319169284169290921790915560608601516002840180546080890151929094166001600160a81b031990941693909317600160a01b911515919091021780835560a08701519495508694929160ff60a81b1990911690600160a81b90849081111561273c5761273c612e26565b021790555060c0820151816003015560e0820151816004015561010082015181600501556101208201518160060160006101000a81548160ff0219169083600381111561278b5761278b612e26565b0217905550919998505050505050505050565b6127a6612c03565b6000805160206134b5833981519152805460ff191681557f5db9ee0a495bf2e6ff9c91a7834c1ba4fdd244a5e8aa4e537bd38aeae4b073aa335b6040516001600160a01b03909116815260200160405180910390a150565b612806612c33565b61239381612c7c565b612817612c33565b611109612c84565b60008262ffffff16600003612835576000612169565b61216982620f42406128478682613355565b62ffffff16612ca5565b60008262ffffff16600003612867576000612169565b6121698262ffffff8516620f4240612ca5565b6000806128876000612b4a565b6001600160a01b0384811660208301819052878216604080850182905260e08501899052600480549151631e07ecd760e11b815290810192909252602482018990526044820192909252929350600092911690633c0fd9ae906064016020604051808303816000875af1158015612902573d6000803e3d6000fd5b505050506040513d601f19601f820116820180604052508101906129269190613134565b6000818152600d6020908152604091829020855181549287015167ffffffffffffffff9091166001600160e01b031990931692909217600160401b6001600160a01b039384160217815591850151600180840180546001600160a01b0319169284169290921790915560608601516002840180546080890151929094166001600160a81b031990941693909317600160a01b911515919091021780835560a08701519495508694929160ff60a81b1990911690600160a81b9084908111156129f0576129f0612e26565b021790555060c0820151816003015560e0820151816004015561010082015181600501556101208201518160060160006101000a81548160ff02191690836003811115612a3f57612a3f612e26565b021790555091979650505050505050565b60008260ff168260ff161115612a8657612a6a8383613378565b612a7590600a613475565b612a7f9085613484565b9050612169565b612a6a8284613378565b7f9016d09d72d40fdae2fd8ceac6b6234c7706214fd39c1cd1e609a0528c19930080546001600160a01b031981166001600160a01b03848116918217845560405192169182907f8be0079c531659141344cd1fd0a4f28419497f9722a3daafe3b4186f6b6457e090600090a3505050565b612b09612d79565b6000805160206134b5833981519152805460ff191660011781557f62e78cea01bee320cd4e420270b5ea74000d11b0c9f74754ebdbfc544b05a258336127e0565b612b52612daa565b604080516101408101825267ffffffffffffffff42168152306020820152600080546001600160a01b0390811693830193909352600554909216606082015283151560808201529060a0820190815260200183612bb0576000612bbb565b68056bc75e2d631000005b68ffffffffffffffffff16815260200183612bdf5768056bc75e2d63100000612be2565b60005b68ffffffffffffffffff168152600060208201526040016001905292915050565b6000805160206134b58339815191525460ff1661110957604051638dfc202b60e01b815260040160405180910390fd5b7ff0c57e16840df040f15088dc2f81fe391c3923bec73e23a9662efc9c229c6a0054600160401b900460ff1661110957604051631afcd79f60e31b815260040160405180910390fd5b612360612c33565b612c8c612c33565b6000805160206134b5833981519152805460ff19169055565b6000808060001985870985870292508281108382030391505080600003612cdf57838281612cd557612cd56131c7565b0492505050612169565b838110612d1057604051630c740aef60e31b81526004810187905260248101869052604481018590526064016107b8565b60008486880960026001871981018816978890046003810283188082028403028082028403028082028403028082028403028082028403029081029092039091026000889003889004909101858311909403939093029303949094049190911702949350505050565b6000805160206134b58339815191525460ff16156111095760405163d93c066560e01b815260040160405180910390fd5b604080516101408101825260008082526020820181905291810182905260608101829052608081018290529060a0820190815260200160008152602001600081526020016000815260200160006003811115612e0857612e08612e26565b905290565b600060208284031215612e1f57600080fd5b5035919050565b634e487b7160e01b600052602160045260246000fd5b60028110612e4c57612e4c612e26565b9052565b60048110612e4c57612e4c612e26565b67ffffffffffffffff8b1681526001600160a01b038a8116602083015289811660408301528816606082015286151560808201526101408101612ea660a0830188612e3c565b8560c08301528460e083015283610100830152612ec7610120830184612e50565b9b9a5050505050505050505050565b6001600160a01b038116811461239357600080fd5b600060208284031215612efd57600080fd5b813561216981612ed6565b60ff8116811461239357600080fd5b801515811461239357600080fd5b600080600080600080600080610100898b031215612f4257600080fd5b8835612f4d81612ed6565b97506020890135612f5d81612ed6565b96506040890135612f6d81612ed6565b95506060890135612f7d81612ed6565b94506080890135612f8d81612ed6565b935060a0890135612f9d81612ed6565b925060c0890135612fad81612f08565b915060e0890135612fbd81612f17565b809150509295985092959890939650565b60008060408385031215612fe157600080fd5b823591506020830135612ff381612ed6565b809150509250929050565b6000806040838503121561301157600080fd5b823561301c81612ed6565b91506020830135612ff381612f08565b815167ffffffffffffffff1681526101408101602083015161305960208401826001600160a01b03169052565b50604083015161307460408401826001600160a01b03169052565b50606083015161308f60608401826001600160a01b03169052565b5060808301516130a3608084018215159052565b5060a08301516130b660a0840182612e3c565b5060c083015160c083015260e083015160e0830152610100808401518184015250610120808401516130ea82850182612e50565b505092915050565b60208082526022908201527f526562616c616e6365206f726465727320617265206e6f7420636f6d706c6574604082015261195960f21b606082015260800190565b60006020828403121561314657600080fd5b5051919050565b60006020828403121561315f57600080fd5b815161216981612ed6565b60006020828403121561317c57600080fd5b815161216981612f17565b634e487b7160e01b600052601160045260246000fd5b8082018082111561221357612213613187565b808202811582820484141761221357612213613187565b634e487b7160e01b600052601260045260246000fd5b6000826131fa57634e487b7160e01b600052601260045260246000fd5b500490565b8181038181111561221357612213613187565b60006020828403121561322457600080fd5b81516004811061216957600080fd5b6000806040838503121561324657600080fd5b82519150602083015162ffffff81168114612ff357600080fd5b805169ffffffffffffffffffff81168114610bdf57600080fd5b600080600080600060a0868803121561329257600080fd5b61329b86613260565b94506020860151935060408601519250606086015191506132be60808701613260565b90509295509295909350565b6000602082840312156132dc57600080fd5b815161216981612f08565b6000604082840312156132f957600080fd5b6040516040810167ffffffffffffffff828210818311171561332b57634e487b7160e01b600052604160045260246000fd5b816040528451835260208501519150808216821461334857600080fd5b5060208201529392505050565b62ffffff81811683821601908082111561337157613371613187565b5092915050565b60ff828116828216039081111561221357612213613187565b600181815b808511156133cc5781600019048211156133b2576133b2613187565b808516156133bf57918102915b93841c9390800290613396565b509250929050565b6000826133e357506001612213565b816133f057506000612213565b816001811461340657600281146134105761342c565b6001915050612213565b60ff84111561342157613421613187565b50506001821b612213565b5060208310610133831016604e8410600b841016171561344f575081810a612213565b6134598383613391565b806000190482111561346d5761346d613187565b029392505050565b600061216960ff8416836133d4565b80820260008212600160ff1b841416156134a0576134a0613187565b81810583148215176122135761221361318756fecd5ed15c6e187e77e9aee88184c21f4f2182ab5827cb3b7e07fbedcd63f03300a2646970667358221220a94b24648ce8fe5b5c093ed62d4ecceb5d0d2f090a2e7bce6fbbc9a4c3ad2c0d64736f6c63430008190033","linkReferences":{}},"methodIdentifiers":{"actionInfoById(uint256)":"3c1f70ca","buyRequestPayedAmountById(uint256)":"8861d235","checkFirstRebalanceOrdersStatus(uint256)":"92318df4","checkMultical(uint256)":"e16e554a","checkSecondRebalanceOrdersStatus(uint256)":"558f1aa8","completeRebalanceActions(uint256)":"263e0d51","estimateAmountAfterFee(uint256)":"9e76d0cb","factoryStorage()":"c06e1ae2","feeRate()":"978bbdb9","firstRebalanceAction()":"32f53f3c","getOrderInstanceById(uint256)":"f1f31d66","getPortfolioValue()":"bb0498de","getVaultDshareBalance(address)":"a08d7bd6","getVaultDshareValue(address)":"efdf5053","initialize(address,address,address,address,address,address,uint8,bool)":"48f6e87b","isMainnet()":"42faac05","issuer()":"1d143848","latestFeeUpdate()":"011ced5f","multical(uint256)":"73b774ed","orderInstanceById(uint256)":"15e666a2","orderManager()":"f9b6117f","owner()":"8da5cb5b","pause()":"8456cb59","paused()":"5c975abb","portfolioValueByNonce(uint256)":"2badae5d","priceInWei(address)":"6839a095","rebalanceBuyPayedAmountById(uint256)":"ab935bb2","rebalanceNonce()":"edca4f5e","rebalanceRequestId(uint256,address)":"75a3cb57","rebalanceSellAssetAmountById(uint256)":"8d6983c7","renounceOwnership()":"715018a6","secondRebalanceAction(uint256)":"643ee27f","sellRequestAssetAmountById(uint256)":"a87f98d2","setIndexFactoryStorage(address)":"cc8659ae","setIssuer(address)":"55cc4e57","setOrderManager(address)":"c0da840d","setTokenAddress(address)":"26a4e8d2","setUsdcAddress(address,uint8)":"eab2a711","token()":"fc0c546a","tokenShortagePercentByNonce(uint256,address)":"db5c1a12","tokenValueByNonce(uint256,address)":"b316e7fd","totalShortagePercentByNonce(uint256)":"2ca49334","transferOwnership(address)":"f2fde38b","unpause()":"3f4ba83a","usdc()":"3e413bee","usdcDecimals()":"7bf42165","vault()":"fbfa77cf"},"id":17}