{"abi":[{"type":"function","name":"actionInfoById","inputs":[{"name":"","type":"uint256","internalType":"uint256"}],"outputs":[{"name":"actionType","type":"uint256","internalType":"uint256"},{"name":"nonce","type":"uint256","internalType":"uint256"}],"stateMutability":"view"},{"type":"function","name":"checkFirstRebalanceOrdersStatus","inputs":[{"name":"_rebalanceNonce","type":"uint256","internalType":"uint256"}],"outputs":[{"name":"","type":"bool","internalType":"bool"}],"stateMutability":"view"},{"type":"function","name":"checkMultical","inputs":[{"name":"_reqeustId","type":"uint256","internalType":"uint256"}],"outputs":[{"name":"","type":"bool","internalType":"bool"}],"stateMutability":"view"},{"type":"function","name":"checkSecondRebalanceOrdersStatus","inputs":[{"name":"_rebalanceNonce","type":"uint256","internalType":"uint256"}],"outputs":[{"name":"","type":"bool","internalType":"bool"}],"stateMutability":"view"},{"type":"function","name":"completeRebalanceActions","inputs":[{"name":"_rebalanceNonce","type":"uint256","internalType":"uint256"}],"outputs":[],"stateMutability":"nonpayable"},{"type":"function","name":"estimateAmountAfterFee","inputs":[{"name":"_amount","type":"uint256","internalType":"uint256"}],"outputs":[{"name":"","type":"uint256","internalType":"uint256"}],"stateMutability":"view"},{"type":"function","name":"factoryStorage","inputs":[],"outputs":[{"name":"","type":"address","internalType":"contract IndexFactoryStorage"}],"stateMutability":"view"},{"type":"function","name":"firstRebalanceAction","inputs":[],"outputs":[{"name":"","type":"uint256","internalType":"uint256"}],"stateMutability":"nonpayable"},{"type":"function","name":"getOrderInstanceById","inputs":[{"name":"id","type":"uint256","internalType":"uint256"}],"outputs":[{"name":"","type":"tuple","internalType":"struct IOrderProcessor.Order","components":[{"name":"requestTimestamp","type":"uint64","internalType":"uint64"},{"name":"recipient","type":"address","internalType":"address"},{"name":"assetToken","type":"address","internalType":"address"},{"name":"paymentToken","type":"address","internalType":"address"},{"name":"sell","type":"bool","internalType":"bool"},{"name":"orderType","type":"uint8","internalType":"enum IOrderProcessor.OrderType"},{"name":"assetTokenQuantity","type":"uint256","internalType":"uint256"},{"name":"paymentTokenQuantity","type":"uint256","internalType":"uint256"},{"name":"price","type":"uint256","internalType":"uint256"},{"name":"tif","type":"uint8","internalType":"enum IOrderProcessor.TIF"}]}],"stateMutability":"view"},{"type":"function","name":"initialize","inputs":[{"name":"_factoryStorage","type":"address","internalType":"address"}],"outputs":[],"stateMutability":"nonpayable"},{"type":"function","name":"multical","inputs":[{"name":"_requestId","type":"uint256","internalType":"uint256"}],"outputs":[],"stateMutability":"nonpayable"},{"type":"function","name":"orderInstanceById","inputs":[{"name":"","type":"uint256","internalType":"uint256"}],"outputs":[{"name":"requestTimestamp","type":"uint64","internalType":"uint64"},{"name":"recipient","type":"address","internalType":"address"},{"name":"assetToken","type":"address","internalType":"address"},{"name":"paymentToken","type":"address","internalType":"address"},{"name":"sell","type":"bool","internalType":"bool"},{"name":"orderType","type":"uint8","internalType":"enum IOrderProcessor.OrderType"},{"name":"assetTokenQuantity","type":"uint256","internalType":"uint256"},{"name":"paymentTokenQuantity","type":"uint256","internalType":"uint256"},{"name":"price","type":"uint256","internalType":"uint256"},{"name":"tif","type":"uint8","internalType":"enum IOrderProcessor.TIF"}],"stateMutability":"view"},{"type":"function","name":"owner","inputs":[],"outputs":[{"name":"","type":"address","internalType":"address"}],"stateMutability":"view"},{"type":"function","name":"pause","inputs":[],"outputs":[],"stateMutability":"nonpayable"},{"type":"function","name":"paused","inputs":[],"outputs":[{"name":"","type":"bool","internalType":"bool"}],"stateMutability":"view"},{"type":"function","name":"portfolioValueByNonce","inputs":[{"name":"","type":"uint256","internalType":"uint256"}],"outputs":[{"name":"","type":"uint256","internalType":"uint256"}],"stateMutability":"view"},{"type":"function","name":"rebalanceBuyPayedAmountById","inputs":[{"name":"","type":"uint256","internalType":"uint256"}],"outputs":[{"name":"","type":"uint256","internalType":"uint256"}],"stateMutability":"view"},{"type":"function","name":"rebalanceNonce","inputs":[],"outputs":[{"name":"","type":"uint256","internalType":"uint256"}],"stateMutability":"view"},{"type":"function","name":"rebalanceRequestId","inputs":[{"name":"","type":"uint256","internalType":"uint256"},{"name":"","type":"address","internalType":"address"}],"outputs":[{"name":"","type":"uint256","internalType":"uint256"}],"stateMutability":"view"},{"type":"function","name":"rebalanceSellAssetAmountById","inputs":[{"name":"","type":"uint256","internalType":"uint256"}],"outputs":[{"name":"","type":"uint256","internalType":"uint256"}],"stateMutability":"view"},{"type":"function","name":"renounceOwnership","inputs":[],"outputs":[],"stateMutability":"nonpayable"},{"type":"function","name":"secondRebalanceAction","inputs":[{"name":"_rebalanceNonce","type":"uint256","internalType":"uint256"}],"outputs":[],"stateMutability":"nonpayable"},{"type":"function","name":"setIndexFactoryStorage","inputs":[{"name":"_indexFactoryStorage","type":"address","internalType":"address"}],"outputs":[{"name":"","type":"bool","internalType":"bool"}],"stateMutability":"nonpayable"},{"type":"function","name":"tokenShortagePercentByNonce","inputs":[{"name":"","type":"uint256","internalType":"uint256"},{"name":"","type":"address","internalType":"address"}],"outputs":[{"name":"","type":"uint256","internalType":"uint256"}],"stateMutability":"view"},{"type":"function","name":"tokenValueByNonce","inputs":[{"name":"","type":"uint256","internalType":"uint256"},{"name":"","type":"address","internalType":"address"}],"outputs":[{"name":"","type":"uint256","internalType":"uint256"}],"stateMutability":"view"},{"type":"function","name":"totalShortagePercentByNonce","inputs":[{"name":"","type":"uint256","internalType":"uint256"}],"outputs":[{"name":"","type":"uint256","internalType":"uint256"}],"stateMutability":"view"},{"type":"function","name":"transferOwnership","inputs":[{"name":"newOwner","type":"address","internalType":"address"}],"outputs":[],"stateMutability":"nonpayable"},{"type":"function","name":"unpause","inputs":[],"outputs":[],"stateMutability":"nonpayable"},{"type":"event","name":"Initialized","inputs":[{"name":"version","type":"uint64","indexed":false,"internalType":"uint64"}],"anonymous":false},{"type":"event","name":"OwnershipTransferred","inputs":[{"name":"previousOwner","type":"address","indexed":true,"internalType":"address"},{"name":"newOwner","type":"address","indexed":true,"internalType":"address"}],"anonymous":false},{"type":"event","name":"Paused","inputs":[{"name":"account","type":"address","indexed":false,"internalType":"address"}],"anonymous":false},{"type":"event","name":"Unpaused","inputs":[{"name":"account","type":"address","indexed":false,"internalType":"address"}],"anonymous":false},{"type":"error","name":"EnforcedPause","inputs":[]},{"type":"error","name":"ExpectedPause","inputs":[]},{"type":"error","name":"InvalidInitialization","inputs":[]},{"type":"error","name":"NotInitializing","inputs":[]},{"type":"error","name":"OwnableInvalidOwner","inputs":[{"name":"owner","type":"address","internalType":"address"}]},{"type":"error","name":"OwnableUnauthorizedAccount","inputs":[{"name":"account","type":"address","internalType":"address"}]},{"type":"error","name":"PRBMath_MulDiv_Overflow","inputs":[{"name":"x","type":"uint256","internalType":"uint256"},{"name":"y","type":"uint256","internalType":"uint256"},{"name":"denominator","type":"uint256","internalType":"uint256"}]},{"type":"error","name":"PRBMath_MulDiv_Overflow","inputs":[{"name":"x","type":"uint256","internalType":"uint256"},{"name":"y","type":"uint256","internalType":"uint256"},{"name":"denominator","type":"uint256","internalType":"uint256"}]},{"type":"error","name":"ReentrancyGuardReentrantCall","inputs":[]}],"bytecode":{"object":"0x6080604052348015600e575f80fd5b506138708061001c5f395ff3fe608060405234801561000f575f80fd5b50600436106101bb575f3560e01c80638d6983c7116100f3578063c4d66de811610093578063e16e554a1161006e578063e16e554a146104dd578063edca4f5e146104f0578063f1f31d66146104f8578063f2fde38b14610518575f80fd5b8063c4d66de81461048d578063cc8659ae146104a0578063db5c1a12146104b3575f80fd5b80639e76d0cb116100ce5780639e76d0cb1461041e578063ab935bb214610431578063b316e7fd14610450578063c06e1ae21461047a575f80fd5b80638d6983c7146103a85780638da5cb5b146103c757806392318df41461040b575f80fd5b8063558f1aa81161015e578063715018a611610139578063715018a61461035b57806373b774ed1461036357806375a3cb57146103765780638456cb59146103a0575f80fd5b8063558f1aa81461030e5780635c975abb14610331578063643ee27f14610348575f80fd5b80632ca49334116101995780632ca49334146102a457806332f53f3c146102c35780633c1f70ca146102cb5780633f4ba83a14610306575f80fd5b806315e666a2146101bf578063263e0d51146102625780632badae5d14610277575b5f80fd5b6102436101cd366004613210565b600260208190525f9182526040909120805460018201549282015460038301546004840154600585015460069095015467ffffffffffffffff8516966001600160a01b03600160401b9096048616969086169585169460ff600160a01b8204811695600160a81b9092048116949193919291168a565b6040516102599a9998979695949392919061325f565b60405180910390f35b610275610270366004613210565b61052b565b005b610296610285366004613210565b60066020525f908152604090205481565b604051908152602001610259565b6102966102b2366004613210565b60096020525f908152604090205481565b610296610b75565b6102f16102d9366004613210565b600a6020525f90815260409020805460019091015482565b60408051928352602083019190915201610259565b610275610d6e565b61032161031c366004613210565b610d80565b6040519015158152602001610259565b5f805160206137fb8339815191525460ff16610321565b610275610356366004613210565b610fd1565b610275611345565b610275610371366004613210565b611356565b6102966103843660046132e9565b600360209081525f928352604080842090915290825290205481565b6102756113f3565b6102966103b6366004613210565b60056020525f908152604090205481565b7f9016d09d72d40fdae2fd8ceac6b6234c7706214fd39c1cd1e609a0528c199300546001600160a01b03165b6040516001600160a01b039091168152602001610259565b610321610419366004613210565b611403565b61029661042c366004613210565b611649565b61029661043f366004613210565b60046020525f908152604090205481565b61029661045e3660046132e9565b600760209081525f928352604080842090915290825290205481565b6001546103f3906001600160a01b031681565b61027561049b366004613317565b6117d6565b6103216104ae366004613317565b611955565b6102966104c13660046132e9565b600860209081525f928352604080842090915290825290205481565b6103216104eb366004613210565b611980565b6102965f5481565b61050b610506366004613210565b6119e4565b60405161025991906133f1565b610275610526366004613317565b611ae6565b610533611b20565b61053b611b57565b61054481610d80565b6105695760405162461bcd60e51b815260040161056090613400565b60405180910390fd5b600154604080516303a2870960e31b815290515f926001600160a01b031691631d1438489160048083019260209291908290030181865afa1580156105b0573d5f803e3d5ffd5b505050506040513d601f19601f820116820180604052508101906105d49190613442565b90505f5b60015f9054906101000a90046001600160a01b03166001600160a01b03166353fd43326040518163ffffffff1660e01b8152600401602060405180830381865afa158015610628573d5f803e3d5ffd5b505050506040513d601f19601f8201168201806040525081019061064c919061345d565b811015610af85760015460405163264cae9360e21b8152600481018390525f916001600160a01b031690639932ba4c90602401602060405180830381865afa15801561069a573d5f803e3d5ffd5b505050506040513d601f19601f820116820180604052508101906106be9190613442565b5f8581526003602090815260408083206001600160a01b03851684529091529020549091508015610aee576001546040516378f98eb360e11b8152600481018390525f916001600160a01b03169063f1f31d669060240161014060405180830381865afa158015610731573d5f803e3d5ffd5b505050506040513d601f19601f820116820180604052508101906107559190613500565b90508060800151610aec5760405163187b2ed160e21b8152600481018390525f906001600160a01b038716906361ecbb4490602401602060405180830381865afa1580156107a5573d5f803e3d5ffd5b505050506040513d601f19601f820116820180604052508101906107c9919061345d565b90508015610aea5760015f9054906101000a90046001600160a01b03166001600160a01b031663f9b6117f6040518163ffffffff1660e01b8152600401602060405180830381865afa158015610821573d5f803e3d5ffd5b505050506040513d601f19601f820116820180604052508101906108459190613442565b604051631c20fadd60e01b81526001600160a01b038681166004830152306024830152604482018490529190911690631c20fadd906064015f604051808303815f87803b158015610894575f80fd5b505af11580156108a6573d5f803e3d5ffd5b505060015460405162493aaf60e51b81526001600160a01b0388811660048301819052945063095ea7b393509091169063092755e090602401602060405180830381865afa1580156108fa573d5f803e3d5ffd5b505050506040513d601f19601f8201168201806040525081019061091e9190613442565b6040516001600160e01b031960e084901b1681526001600160a01b039091166004820152602481018490526044016020604051808303815f875af1158015610968573d5f803e3d5ffd5b505050506040513d601f19601f8201168201806040525081019061098c91906135b2565b5060015460405162493aaf60e51b81526001600160a01b0386811660048301529091169063092755e090602401602060405180830381865afa1580156109d4573d5f803e3d5ffd5b505050506040513d601f19601f820116820180604052508101906109f89190613442565b6001600160a01b0316636e553f658260015f9054906101000a90046001600160a01b03166001600160a01b031663fbfa77cf6040518163ffffffff1660e01b8152600401602060405180830381865afa158015610a57573d5f803e3d5ffd5b505050506040513d601f19601f82011682018060405250810190610a7b9190613442565b6040516001600160e01b031960e085901b16815260048101929092526001600160a01b031660248201526044016020604051808303815f875af1158015610ac4573d5f803e3d5ffd5b505050506040513d601f19601f82011682018060405250810190610ae8919061345d565b505b505b505b50506001016105d8565b5060015f9054906101000a90046001600160a01b03166001600160a01b0316638baa6bf16040518163ffffffff1660e01b81526004015f604051808303815f87803b158015610b45575f80fd5b505af1158015610b57573d5f803e3d5ffd5b5050505050610b7260015f8051602061381b83398151915255565b50565b5f610b7e611b20565b610b86611b57565b60015f80828254610b9791906135df565b909155505f9050805b60015f9054906101000a90046001600160a01b03166001600160a01b03166353fd43326040518163ffffffff1660e01b8152600401602060405180830381865afa158015610bf0573d5f803e3d5ffd5b505050506040513d601f19601f82011682018060405250810190610c14919061345d565b811015610d345760015460405163264cae9360e21b8152600481018390525f916001600160a01b031690639932ba4c90602401602060405180830381865afa158015610c62573d5f803e3d5ffd5b505050506040513d601f19601f82011682018060405250810190610c869190613442565b60015460405163efdf505360e01b81526001600160a01b0380841660048301529293505f929091169063efdf505390602401602060405180830381865afa158015610cd3573d5f803e3d5ffd5b505050506040513d601f19601f82011682018060405250810190610cf7919061345d565b5f805481526007602090815260408083206001600160a01b038716845290915290208190559050610d2881856135df565b93505050600101610ba0565b505f8054815260066020526040812082905554610d519082611bb2565b50505f54610d6b60015f8051602061381b83398151915255565b90565b610d76611b57565b610d7e612002565b565b5f805f60015f9054906101000a90046001600160a01b03166001600160a01b0316631d1438486040518163ffffffff1660e01b8152600401602060405180830381865afa158015610dd3573d5f803e3d5ffd5b505050506040513d601f19601f82011682018060405250810190610df79190613442565b90505f5b60015f9054906101000a90046001600160a01b03166001600160a01b03166353fd43326040518163ffffffff1660e01b8152600401602060405180830381865afa158015610e4b573d5f803e3d5ffd5b505050506040513d601f19601f82011682018060405250810190610e6f919061345d565b811015610fc65760015460405163264cae9360e21b8152600481018390525f916001600160a01b031690639932ba4c90602401602060405180830381865afa158015610ebd573d5f803e3d5ffd5b505050506040513d601f19601f82011682018060405250810190610ee19190613442565b5f8781526003602090815260408083206001600160a01b0385168452825280832054808452600490925290912054919250908115801590610f2157505f81115b8015610fa957506040516322fd455760e11b8152600481018390526002906001600160a01b038716906345fa8aae90602401602060405180830381865afa158015610f6e573d5f803e3d5ffd5b505050506040513d601f19601f82011682018060405250810190610f9291906135f2565b6003811115610fa357610fa3613227565b60ff1614155b15610fbb57505f979650505050505050565b505050600101610dfb565b506001949350505050565b610fd9611b20565b610fe1611b57565b610feb5f54611403565b6110075760405162461bcd60e51b815260040161056090613400565b5f81815260066020908152604080832054600983528184205460015483516303a2870960e31b815293519295919491936001600160a01b0390911692631d143848926004808401939192918290030181865afa158015611069573d5f803e3d5ffd5b505050506040513d601f19601f8201168201806040525081019061108d9190613442565b90505f805b60015f9054906101000a90046001600160a01b03166001600160a01b03166353fd43326040518163ffffffff1660e01b8152600401602060405180830381865afa1580156110e2573d5f803e3d5ffd5b505050506040513d601f19601f82011682018060405250810190611106919061345d565b81101561131f5760015460405163264cae9360e21b8152600481018390525f916001600160a01b031690639932ba4c90602401602060405180830381865afa158015611154573d5f803e3d5ffd5b505050506040513d601f19601f820116820180604052508101906111789190613442565b5f8881526003602090815260408083206001600160a01b03851684529091529020549091508015611315576001546040516378f98eb360e11b8152600481018390525f916001600160a01b03169063f1f31d669060240161014060405180830381865afa1580156111eb573d5f803e3d5ffd5b505050506040513d601f19601f8201168201806040525081019061120f9190613500565b60c0810151608082015191925090156113125760405163187b2ed160e21b8152600481018490525f906001600160a01b038916906361ecbb4490602401602060405180830381865afa158015611267573d5f803e3d5ffd5b505050506040513d601f19601f8201168201806040525081019061128b919061345d565b60405163069352a960e41b8152600481018690529091505f906001600160a01b038a16906369352a9090602401602060405180830381865afa1580156112d3573d5f803e3d5ffd5b505050506040513d601f19601f820116820180604052508101906112f7919061345d565b9050611303818361360d565b61130d90896135df565b975050505b50505b5050600101611092565b5061132b858483612061565b50505050610b7260015f8051602061381b83398151915255565b61134d611b57565b610d7e5f6125a4565b5f811161139a5760405162461bcd60e51b8152602060048201526012602482015271125b9d985b1a59081c995c5d595cdd081a5960721b6044820152606401610560565b5f818152600a602090815260409182902082518084019093528054808452600190910154918301919091526005036113dd576113d98160200151610fd1565b5050565b80516006036113d9576113d9816020015161052b565b6113fb611b57565b610d7e612614565b5f805f60015f9054906101000a90046001600160a01b03166001600160a01b0316631d1438486040518163ffffffff1660e01b8152600401602060405180830381865afa158015611456573d5f803e3d5ffd5b505050506040513d601f19601f8201168201806040525081019061147a9190613442565b90505f5b60015f9054906101000a90046001600160a01b03166001600160a01b03166353fd43326040518163ffffffff1660e01b8152600401602060405180830381865afa1580156114ce573d5f803e3d5ffd5b505050506040513d601f19601f820116820180604052508101906114f2919061345d565b811015610fc65760015460405163264cae9360e21b8152600481018390525f916001600160a01b031690639932ba4c90602401602060405180830381865afa158015611540573d5f803e3d5ffd5b505050506040513d601f19601f820116820180604052508101906115649190613442565b5f8781526003602090815260408083206001600160a01b03851684528252808320548084526005909252909120549192509081158015906115a457505f81115b801561162c57506040516322fd455760e11b8152600481018390526002906001600160a01b038716906345fa8aae90602401602060405180830381865afa1580156115f1573d5f803e3d5ffd5b505050506040513d601f19601f8201168201806040525081019061161591906135f2565b600381111561162657611626613227565b60ff1614155b1561163e57505f979650505050505050565b50505060010161147e565b5f8060015f9054906101000a90046001600160a01b03166001600160a01b0316631d1438486040518163ffffffff1660e01b8152600401602060405180830381865afa15801561169b573d5f803e3d5ffd5b505050506040513d601f19601f820116820180604052508101906116bf9190613442565b90505f80826001600160a01b031663236970d45f60015f9054906101000a90046001600160a01b03166001600160a01b0316633e413bee6040518163ffffffff1660e01b8152600401602060405180830381865afa158015611723573d5f803e3d5ffd5b505050506040513d601f19601f820116820180604052508101906117479190613442565b6040516001600160e01b031960e085901b16815291151560048301526001600160a01b031660248201526044016040805180830381865afa15801561178e573d5f803e3d5ffd5b505050506040513d601f19601f820116820180604052508101906117b29190613620565b915091505f826117c2838861265c565b6117cc919061360d565b9695505050505050565b7ff0c57e16840df040f15088dc2f81fe391c3923bec73e23a9662efc9c229c6a008054600160401b810460ff16159067ffffffffffffffff165f8115801561181b5750825b90505f8267ffffffffffffffff1660011480156118375750303b155b905081158015611845575080155b156118635760405163f92ee8a960e01b815260040160405180910390fd5b845467ffffffffffffffff19166001178555831561188d57845460ff60401b1916600160401b1785555b6001600160a01b0386166118db5760405162461bcd60e51b8152602060048201526015602482015274696e76616c696420746f6b656e206164647265737360581b6044820152606401610560565b600180546001600160a01b0319166001600160a01b0388161790556118ff33612694565b6119076126a5565b831561194d57845460ff60401b19168555604051600181527fc7f505b2f371ae2175ee4913f4499e1f2633a7b5936321eed1cdaeb6115181d29060200160405180910390a15b505050505050565b5f61195e611b57565b50600180546001600160a01b0319166001600160a01b0383161781555b919050565b5f818152600a602090815260408083208151808301909252805480835260019091015492820192909252906005036119c6576119bf8160200151611403565b9392505050565b80516006036119dc576119bf8160200151610d80565b505f92915050565b6119ec6131b2565b5f82815260026020818152604092839020835161014081018552815467ffffffffffffffff811682526001600160a01b03600160401b90910481169382019390935260018083015484169582019590955292810154918216606084015260ff600160a01b83048116151560808501529293909260a0850192600160a81b90041690811115611a7c57611a7c613227565b6001811115611a8d57611a8d613227565b815260038281015460208301526004830154604083015260058301546060830152600683015460809092019160ff1690811115611acc57611acc613227565b6003811115611add57611add613227565b90525092915050565b611aee611b57565b6001600160a01b038116611b1757604051631e4fbdf760e01b81525f6004820152602401610560565b610b72816125a4565b5f8051602061381b833981519152805460011901611b5157604051633ee5aeb560e01b815260040160405180910390fd5b60029055565b33611b897f9016d09d72d40fdae2fd8ceac6b6234c7706214fd39c1cd1e609a0528c199300546001600160a01b031690565b6001600160a01b031614610d7e5760405163118cdaa760e01b8152336004820152602401610560565b5f5b60015f9054906101000a90046001600160a01b03166001600160a01b03166353fd43326040518163ffffffff1660e01b8152600401602060405180830381865afa158015611c04573d5f803e3d5ffd5b505050506040513d601f19601f82011682018060405250810190611c28919061345d565b811015611ffd5760015460405163264cae9360e21b8152600481018390525f916001600160a01b031690639932ba4c90602401602060405180830381865afa158015611c76573d5f803e3d5ffd5b505050506040513d601f19601f82011682018060405250810190611c9a9190613442565b5f8581526007602090815260408083206001600160a01b0385811680865291909352818420546001549251635046bdeb60e11b8152600481019290925294955091169063a08d7bd690602401602060405180830381865afa158015611d01573d5f803e3d5ffd5b505050506040513d601f19601f82011682018060405250810190611d25919061345d565b90505f85611d3c8468056bc75e2d6310000061364a565b611d469190613675565b60015460405162967c1760e71b81526001600160a01b038781166004830152929350911690634b3e0b8090602401602060405180830381865afa158015611d8f573d5f803e3d5ffd5b505050506040513d601f19601f82011682018060405250810190611db3919061345d565b811115611f2b5760015460405162967c1760e71b81526001600160a01b0386811660048301525f928492911690634b3e0b8090602401602060405180830381865afa158015611e04573d5f803e3d5ffd5b505050506040513d601f19601f82011682018060405250810190611e28919061345d565b611e32908561364a565b611e3c9190613675565b611e46908461360d565b90505f80611ec8878460015f9054906101000a90046001600160a01b03166001600160a01b031663f9b6117f6040518163ffffffff1660e01b8152600401602060405180830381865afa158015611e9f573d5f803e3d5ffd5b505050506040513d601f19601f82011682018060405250810190611ec39190613442565b6126b5565b50604080518082018252600580825260208083018f81525f868152600a83528581209451855590516001909401939093558e8352600381528383206001600160a01b038d168452815283832085905593825290925290209290925550611fed9050565b60015460405162967c1760e71b81526001600160a01b0386811660048301525f928492911690634b3e0b8090602401602060405180830381865afa158015611f75573d5f803e3d5ffd5b505050506040513d601f19601f82011682018060405250810190611f99919061345d565b611fa3919061360d565b5f8981526008602090815260408083206001600160a01b038a16845282528083208490558b83526009909152812080549293508392909190611fe69084906135df565b9091555050505b505060019092019150611bb49050565b505050565b61200a612e0b565b5f805160206137fb833981519152805460ff191681557f5db9ee0a495bf2e6ff9c91a7834c1ba4fdd244a5e8aa4e537bd38aeae4b073aa335b6040516001600160a01b03909116815260200160405180910390a150565b600154604080516303a2870960e31b815290515f926001600160a01b031691631d1438489160048083019260209291908290030181865afa1580156120a8573d5f803e3d5ffd5b505050506040513d601f19601f820116820180604052508101906120cc9190613442565b90505f5b60015f9054906101000a90046001600160a01b03166001600160a01b03166353fd43326040518163ffffffff1660e01b8152600401602060405180830381865afa158015612120573d5f803e3d5ffd5b505050506040513d601f19601f82011682018060405250810190612144919061345d565b81101561259d5760015460405163264cae9360e21b8152600481018390525f916001600160a01b031690639932ba4c90602401602060405180830381865afa158015612192573d5f803e3d5ffd5b505050506040513d601f19601f820116820180604052508101906121b69190613442565b5f8781526008602090815260408083206001600160a01b03851684529091529020549091508015612593575f866121ed878461364a565b6121f79190613675565b90505f80866001600160a01b031663236970d45f60015f9054906101000a90046001600160a01b03166001600160a01b0316633e413bee6040518163ffffffff1660e01b8152600401602060405180830381865afa15801561225b573d5f803e3d5ffd5b505050506040513d601f19601f8201168201806040525081019061227f9190613442565b6040516001600160e01b031960e085901b16815291151560048301526001600160a01b031660248201526044016040805180830381865afa1580156122c6573d5f803e3d5ffd5b505050506040513d601f19601f820116820180604052508101906122ea9190613620565b915091505f826122fa838661265c565b612304919061360d565b90505f6123118383612e3a565b61231b90856135df565b905060015f9054906101000a90046001600160a01b03166001600160a01b0316633e413bee6040518163ffffffff1660e01b8152600401602060405180830381865afa15801561236d573d5f803e3d5ffd5b505050506040513d601f19601f820116820180604052508101906123919190613442565b6001600160a01b031663095ea7b360015f9054906101000a90046001600160a01b03166001600160a01b031663f9b6117f6040518163ffffffff1660e01b8152600401602060405180830381865afa1580156123ef573d5f803e3d5ffd5b505050506040513d601f19601f820116820180604052508101906124139190613442565b6040516001600160e01b031960e084901b1681526001600160a01b039091166004820152602481018890526044016020604051808303815f875af115801561245d573d5f803e3d5ffd5b505050506040513d601f19601f8201168201806040525081019061248191906135b2565b505f612501888460015f9054906101000a90046001600160a01b03166001600160a01b031663f9b6117f6040518163ffffffff1660e01b8152600401602060405180830381865afa1580156124d8573d5f803e3d5ffd5b505050506040513d601f19601f820116820180604052508101906124fc9190613442565b612e60565b90506040518060400160405280600681526020018e815250600a5f8381526020019081526020015f205f820151815f0155602082015181600101559050508060035f8f81526020019081526020015f205f8a6001600160a01b03166001600160a01b031681526020019081526020015f20819055508260045f8381526020019081526020015f20819055505050505050505b50506001016120d0565b5050505050565b7f9016d09d72d40fdae2fd8ceac6b6234c7706214fd39c1cd1e609a0528c19930080546001600160a01b031981166001600160a01b03848116918217845560405192169182907f8be0079c531659141344cd1fd0a4f28419497f9722a3daafe3b4186f6b6457e0905f90a3505050565b61261c613042565b5f805160206137fb833981519152805460ff191660011781557f62e78cea01bee320cd4e420270b5ea74000d11b0c9f74754ebdbfc544b05a25833612043565b5f8262ffffff165f0361266f575f61268b565b61268b82620f42406126818682613688565b62ffffff16613072565b90505b92915050565b61269c613141565b610b728161318a565b6126ad613141565b610d7e613192565b60015460405162493aaf60e51b81526001600160a01b0385811660048301525f92839283929091169063092755e090602401602060405180830381865afa158015612702573d5f803e3d5ffd5b505050506040513d601f19601f820116820180604052508101906127269190613442565b905060015f9054906101000a90046001600160a01b03166001600160a01b031663fbfa77cf6040518163ffffffff1660e01b8152600401602060405180830381865afa158015612778573d5f803e3d5ffd5b505050506040513d601f19601f8201168201806040525081019061279c9190613442565b604051631c20fadd60e01b81526001600160a01b038381166004830152306024830152604482018890529190911690631c20fadd906064015f604051808303815f87803b1580156127eb575f80fd5b505af11580156127fd573d5f803e3d5ffd5b5050604051635d043b2960e11b815260048101889052306024820181905260448201525f92506001600160a01b038416915063ba087652906064016020604051808303815f875af1158015612854573d5f803e3d5ffd5b505050506040513d601f19601f82011682018060405250810190612878919061345d565b90505f60015f9054906101000a90046001600160a01b03166001600160a01b0316631d1438486040518163ffffffff1660e01b8152600401602060405180830381865afa1580156128cb573d5f803e3d5ffd5b505050506040513d601f19601f820116820180604052508101906128ef9190613442565b60405163fc75f9ed60e01b81526001600160a01b038a811660048301529192505f9183169063fc75f9ed90602401602060405180830381865afa158015612938573d5f803e3d5ffd5b505050506040513d601f19601f8201168201806040525081019061295c91906136ab565b90505f61296a6001836136cb565b61297590600a6137c4565b61297f90856137d2565b612989908561360d565b90505f612996828661360d565b90508015612b025760405163095ea7b360e01b81526001600160a01b038781166004830152602482018390528c169063095ea7b3906044016020604051808303815f875af11580156129ea573d5f803e3d5ffd5b505050506040513d601f19601f82011682018060405250810190612a0e91906135b2565b50856001600160a01b0316636e553f658260015f9054906101000a90046001600160a01b03166001600160a01b031663fbfa77cf6040518163ffffffff1660e01b8152600401602060405180830381865afa158015612a6f573d5f803e3d5ffd5b505050506040513d601f19601f82011682018060405250810190612a939190613442565b6040516001600160e01b031960e085901b16815260048101929092526001600160a01b031660248201526044016020604051808303815f875af1158015612adc573d5f803e3d5ffd5b505050506040513d601f19601f82011682018060405250810190612b00919061345d565b505b600180546040516358913cd560e11b815260048101929092525f916001600160a01b039091169063b12279aa9060240161014060405180830381865afa158015612b4e573d5f803e3d5ffd5b505050506040513d601f19601f82011682018060405250810190612b729190613500565b6001600160a01b03808e16604080840182905260c084018790528d8316602080860191909152600154825163f9b6117f60e01b81529251959650929463a9059cbb94939093169263f9b6117f9260048082019392918290030181865afa158015612bde573d5f803e3d5ffd5b505050506040513d601f19601f82011682018060405250810190612c029190613442565b6040516001600160e01b031960e084901b1681526001600160a01b039091166004820152602481018690526044016020604051808303815f875af1158015612c4c573d5f803e3d5ffd5b505050506040513d601f19601f82011682018060405250810190612c7091906135b2565b612cae5760405162461bcd60e51b815260206004820152600f60248201526e151c985b9cd9995c8819985a5b1959608a1b6044820152606401610560565b6001546040805163f9b6117f60e01b815290515f926001600160a01b03169163f9b6117f9160048083019260209291908290030181865afa158015612cf5573d5f803e3d5ffd5b505050506040513d601f19601f82011682018060405250810190612d199190613442565b6040516319b284d160e21b81526001600160a01b038f81166004830152602482018790528d811660448301529192505f918316906366ca1344906064016020604051808303815f875af1158015612d72573d5f803e3d5ffd5b505050506040513d601f19601f82011682018060405250810190612d96919061345d565b600154604051630d71448160e21b81529192506001600160a01b0316906335c5120490612dc990849087906004016137e5565b5f604051808303815f87803b158015612de0575f80fd5b505af1158015612df2573d5f803e3d5ffd5b50929c50959a5050505050505050505050935093915050565b5f805160206137fb8339815191525460ff16610d7e57604051638dfc202b60e01b815260040160405180910390fd5b5f8262ffffff165f03612e4d575f61268b565b61268b8262ffffff8516620f4240613072565b6001546040516358913cd560e11b81525f600482018190529182916001600160a01b039091169063b12279aa9060240161014060405180830381865afa158015612eac573d5f803e3d5ffd5b505050506040513d601f19601f82011682018060405250810190612ed09190613500565b6001600160a01b0380851660208084019190915287821660408085019190915260e08401889052600154815163f9b6117f60e01b815291519495505f9493169263f9b6117f926004808401939192918290030181865afa158015612f36573d5f803e3d5ffd5b505050506040513d601f19601f82011682018060405250810190612f5a9190613442565b6040516312544d1b60e01b81526001600160a01b0388811660048301526024820188905286811660448301529192505f918316906312544d1b906064016020604051808303815f875af1158015612fb3573d5f803e3d5ffd5b505050506040513d601f19601f82011682018060405250810190612fd7919061345d565b600154604051630d71448160e21b81529192506001600160a01b0316906335c512049061300a90849087906004016137e5565b5f604051808303815f87803b158015613021575f80fd5b505af1158015613033573d5f803e3d5ffd5b50929998505050505050505050565b5f805160206137fb8339815191525460ff1615610d7e5760405163d93c066560e01b815260040160405180910390fd5b5f80805f19858709858702925082811083820303915050805f036130a95783828161309f5761309f613661565b04925050506119bf565b8381106130da57604051630c740aef60e31b8152600481018790526024810186905260448101859052606401610560565b5f8486880960026001871981018816978890046003810283188082028403028082028403028082028403028082028403028082028403029081029092039091025f889003889004909101858311909403939093029303949094049190911702949350505050565b7ff0c57e16840df040f15088dc2f81fe391c3923bec73e23a9662efc9c229c6a0054600160401b900460ff16610d7e57604051631afcd79f60e31b815260040160405180910390fd5b611aee613141565b61319a613141565b5f805160206137fb833981519152805460ff19169055565b60408051610140810182525f8082526020820181905291810182905260608101829052608081018290529060a082019081526020015f81526020015f81526020015f81526020015f600381111561320b5761320b613227565b905290565b5f60208284031215613220575f80fd5b5035919050565b634e487b7160e01b5f52602160045260245ffd5b6002811061324b5761324b613227565b9052565b6004811061324b5761324b613227565b67ffffffffffffffff8b1681526001600160a01b038a81166020830152898116604083015288166060820152861515608082015261014081016132a560a083018861323b565b8560c08301528460e0830152836101008301526132c661012083018461324f565b9b9a5050505050505050505050565b6001600160a01b0381168114610b72575f80fd5b5f80604083850312156132fa575f80fd5b82359150602083013561330c816132d5565b809150509250929050565b5f60208284031215613327575f80fd5b81356119bf816132d5565b805167ffffffffffffffff168252602081015161335a60208401826001600160a01b03169052565b50604081015161337560408401826001600160a01b03169052565b50606081015161339060608401826001600160a01b03169052565b5060808101516133a4608084018215159052565b5060a08101516133b760a084018261323b565b5060c081015160c083015260e081015160e0830152610100808201518184015250610120808201516133eb8285018261324f565b50505050565b610140810161268e8284613332565b60208082526022908201527f526562616c616e6365206f726465727320617265206e6f7420636f6d706c6574604082015261195960f21b606082015260800190565b5f60208284031215613452575f80fd5b81516119bf816132d5565b5f6020828403121561346d575f80fd5b5051919050565b805161197b816132d5565b604051610140810167ffffffffffffffff811182821017156134af57634e487b7160e01b5f52604160045260245ffd5b60405290565b805167ffffffffffffffff8116811461197b575f80fd5b8051801515811461197b575f80fd5b80516002811061197b575f80fd5b60048110610b72575f80fd5b805161197b816134e9565b5f6101408284031215613511575f80fd5b61351961347f565b613522836134b5565b815261353060208401613474565b602082015261354160408401613474565b604082015261355260608401613474565b6060820152613563608084016134cc565b608082015261357460a084016134db565b60a082015260c083015160c082015260e083015160e08201526101008084015181830152506101206135a78185016134f5565b908201529392505050565b5f602082840312156135c2575f80fd5b61268b826134cc565b634e487b7160e01b5f52601160045260245ffd5b8082018082111561268e5761268e6135cb565b5f60208284031215613602575f80fd5b81516119bf816134e9565b8181038181111561268e5761268e6135cb565b5f8060408385031215613631575f80fd5b82519150602083015162ffffff8116811461330c575f80fd5b808202811582820484141761268e5761268e6135cb565b634e487b7160e01b5f52601260045260245ffd5b5f8261368357613683613661565b500490565b62ffffff8181168382160190808211156136a4576136a46135cb565b5092915050565b5f602082840312156136bb575f80fd5b815160ff811681146119bf575f80fd5b60ff828116828216039081111561268e5761268e6135cb565b600181815b8085111561371e57815f1904821115613704576137046135cb565b8085161561371157918102915b93841c93908002906136e9565b509250929050565b5f826137345750600161268e565b8161374057505f61268e565b816001811461375657600281146137605761377c565b600191505061268e565b60ff841115613771576137716135cb565b50506001821b61268e565b5060208310610133831016604e8410600b841016171561379f575081810a61268e565b6137a983836136e4565b805f19048211156137bc576137bc6135cb565b029392505050565b5f61268b60ff841683613726565b5f826137e0576137e0613661565b500690565b82815261016081016119bf602083018461333256fecd5ed15c6e187e77e9aee88184c21f4f2182ab5827cb3b7e07fbedcd63f033009b779b17422d0df92223018b32b4d1fa46e071723d6817e2486d003becc55f00a26469706673582212204e84b859530bb69a468c0b52904cedddbfc41631ead104d88888052c3054852d64736f6c63430008190033","linkReferences":{}},"methodIdentifiers":{"actionInfoById(uint256)":"3c1f70ca","checkFirstRebalanceOrdersStatus(uint256)":"92318df4","checkMultical(uint256)":"e16e554a","checkSecondRebalanceOrdersStatus(uint256)":"558f1aa8","completeRebalanceActions(uint256)":"263e0d51","estimateAmountAfterFee(uint256)":"9e76d0cb","factoryStorage()":"c06e1ae2","firstRebalanceAction()":"32f53f3c","getOrderInstanceById(uint256)":"f1f31d66","initialize(address)":"c4d66de8","multical(uint256)":"73b774ed","orderInstanceById(uint256)":"15e666a2","owner()":"8da5cb5b","pause()":"8456cb59","paused()":"5c975abb","portfolioValueByNonce(uint256)":"2badae5d","rebalanceBuyPayedAmountById(uint256)":"ab935bb2","rebalanceNonce()":"edca4f5e","rebalanceRequestId(uint256,address)":"75a3cb57","rebalanceSellAssetAmountById(uint256)":"8d6983c7","renounceOwnership()":"715018a6","secondRebalanceAction(uint256)":"643ee27f","setIndexFactoryStorage(address)":"cc8659ae","tokenShortagePercentByNonce(uint256,address)":"db5c1a12","tokenValueByNonce(uint256,address)":"b316e7fd","totalShortagePercentByNonce(uint256)":"2ca49334","transferOwnership(address)":"f2fde38b","unpause()":"3f4ba83a"},"id":24}