{"abi":[{"type":"function","name":"actionInfoById","inputs":[{"name":"","type":"uint256","internalType":"uint256"}],"outputs":[{"name":"actionType","type":"uint256","internalType":"uint256"},{"name":"nonce","type":"uint256","internalType":"uint256"}],"stateMutability":"view"},{"type":"function","name":"checkFirstRebalanceOrdersStatus","inputs":[{"name":"_rebalanceNonce","type":"uint256","internalType":"uint256"}],"outputs":[{"name":"","type":"bool","internalType":"bool"}],"stateMutability":"view"},{"type":"function","name":"checkMultical","inputs":[{"name":"_reqeustId","type":"uint256","internalType":"uint256"}],"outputs":[{"name":"","type":"bool","internalType":"bool"}],"stateMutability":"view"},{"type":"function","name":"checkSecondRebalanceOrdersStatus","inputs":[{"name":"_rebalanceNonce","type":"uint256","internalType":"uint256"}],"outputs":[{"name":"","type":"bool","internalType":"bool"}],"stateMutability":"view"},{"type":"function","name":"completeRebalanceActions","inputs":[{"name":"_rebalanceNonce","type":"uint256","internalType":"uint256"}],"outputs":[],"stateMutability":"nonpayable"},{"type":"function","name":"estimateAmountAfterFee","inputs":[{"name":"_amount","type":"uint256","internalType":"uint256"}],"outputs":[{"name":"","type":"uint256","internalType":"uint256"}],"stateMutability":"view"},{"type":"function","name":"factoryStorage","inputs":[],"outputs":[{"name":"","type":"address","internalType":"contract IndexFactoryStorage"}],"stateMutability":"view"},{"type":"function","name":"firstRebalanceAction","inputs":[],"outputs":[{"name":"","type":"uint256","internalType":"uint256"}],"stateMutability":"nonpayable"},{"type":"function","name":"getOrderInstanceById","inputs":[{"name":"id","type":"uint256","internalType":"uint256"}],"outputs":[{"name":"","type":"tuple","internalType":"struct IOrderProcessor.Order","components":[{"name":"requestTimestamp","type":"uint64","internalType":"uint64"},{"name":"recipient","type":"address","internalType":"address"},{"name":"assetToken","type":"address","internalType":"address"},{"name":"paymentToken","type":"address","internalType":"address"},{"name":"sell","type":"bool","internalType":"bool"},{"name":"orderType","type":"uint8","internalType":"enum IOrderProcessor.OrderType"},{"name":"assetTokenQuantity","type":"uint256","internalType":"uint256"},{"name":"paymentTokenQuantity","type":"uint256","internalType":"uint256"},{"name":"price","type":"uint256","internalType":"uint256"},{"name":"tif","type":"uint8","internalType":"enum IOrderProcessor.TIF"}]}],"stateMutability":"view"},{"type":"function","name":"initialize","inputs":[{"name":"_factoryStorage","type":"address","internalType":"address"}],"outputs":[],"stateMutability":"nonpayable"},{"type":"function","name":"multical","inputs":[{"name":"_requestId","type":"uint256","internalType":"uint256"}],"outputs":[],"stateMutability":"nonpayable"},{"type":"function","name":"orderInstanceById","inputs":[{"name":"","type":"uint256","internalType":"uint256"}],"outputs":[{"name":"requestTimestamp","type":"uint64","internalType":"uint64"},{"name":"recipient","type":"address","internalType":"address"},{"name":"assetToken","type":"address","internalType":"address"},{"name":"paymentToken","type":"address","internalType":"address"},{"name":"sell","type":"bool","internalType":"bool"},{"name":"orderType","type":"uint8","internalType":"enum IOrderProcessor.OrderType"},{"name":"assetTokenQuantity","type":"uint256","internalType":"uint256"},{"name":"paymentTokenQuantity","type":"uint256","internalType":"uint256"},{"name":"price","type":"uint256","internalType":"uint256"},{"name":"tif","type":"uint8","internalType":"enum IOrderProcessor.TIF"}],"stateMutability":"view"},{"type":"function","name":"owner","inputs":[],"outputs":[{"name":"","type":"address","internalType":"address"}],"stateMutability":"view"},{"type":"function","name":"pause","inputs":[],"outputs":[],"stateMutability":"nonpayable"},{"type":"function","name":"paused","inputs":[],"outputs":[{"name":"","type":"bool","internalType":"bool"}],"stateMutability":"view"},{"type":"function","name":"portfolioValueByNonce","inputs":[{"name":"","type":"uint256","internalType":"uint256"}],"outputs":[{"name":"","type":"uint256","internalType":"uint256"}],"stateMutability":"view"},{"type":"function","name":"rebalanceBuyPayedAmountById","inputs":[{"name":"","type":"uint256","internalType":"uint256"}],"outputs":[{"name":"","type":"uint256","internalType":"uint256"}],"stateMutability":"view"},{"type":"function","name":"rebalanceNonce","inputs":[],"outputs":[{"name":"","type":"uint256","internalType":"uint256"}],"stateMutability":"view"},{"type":"function","name":"rebalanceRequestId","inputs":[{"name":"","type":"uint256","internalType":"uint256"},{"name":"","type":"address","internalType":"address"}],"outputs":[{"name":"","type":"uint256","internalType":"uint256"}],"stateMutability":"view"},{"type":"function","name":"rebalanceSellAssetAmountById","inputs":[{"name":"","type":"uint256","internalType":"uint256"}],"outputs":[{"name":"","type":"uint256","internalType":"uint256"}],"stateMutability":"view"},{"type":"function","name":"renounceOwnership","inputs":[],"outputs":[],"stateMutability":"nonpayable"},{"type":"function","name":"secondRebalanceAction","inputs":[{"name":"_rebalanceNonce","type":"uint256","internalType":"uint256"}],"outputs":[],"stateMutability":"nonpayable"},{"type":"function","name":"setIndexFactoryStorage","inputs":[{"name":"_indexFactoryStorage","type":"address","internalType":"address"}],"outputs":[{"name":"","type":"bool","internalType":"bool"}],"stateMutability":"nonpayable"},{"type":"function","name":"tokenShortagePercentByNonce","inputs":[{"name":"","type":"uint256","internalType":"uint256"},{"name":"","type":"address","internalType":"address"}],"outputs":[{"name":"","type":"uint256","internalType":"uint256"}],"stateMutability":"view"},{"type":"function","name":"tokenValueByNonce","inputs":[{"name":"","type":"uint256","internalType":"uint256"},{"name":"","type":"address","internalType":"address"}],"outputs":[{"name":"","type":"uint256","internalType":"uint256"}],"stateMutability":"view"},{"type":"function","name":"totalShortagePercentByNonce","inputs":[{"name":"","type":"uint256","internalType":"uint256"}],"outputs":[{"name":"","type":"uint256","internalType":"uint256"}],"stateMutability":"view"},{"type":"function","name":"transferOwnership","inputs":[{"name":"newOwner","type":"address","internalType":"address"}],"outputs":[],"stateMutability":"nonpayable"},{"type":"function","name":"unpause","inputs":[],"outputs":[],"stateMutability":"nonpayable"},{"type":"event","name":"Initialized","inputs":[{"name":"version","type":"uint64","indexed":false,"internalType":"uint64"}],"anonymous":false},{"type":"event","name":"OwnershipTransferred","inputs":[{"name":"previousOwner","type":"address","indexed":true,"internalType":"address"},{"name":"newOwner","type":"address","indexed":true,"internalType":"address"}],"anonymous":false},{"type":"event","name":"Paused","inputs":[{"name":"account","type":"address","indexed":false,"internalType":"address"}],"anonymous":false},{"type":"event","name":"Unpaused","inputs":[{"name":"account","type":"address","indexed":false,"internalType":"address"}],"anonymous":false},{"type":"error","name":"EnforcedPause","inputs":[]},{"type":"error","name":"ExpectedPause","inputs":[]},{"type":"error","name":"InvalidInitialization","inputs":[]},{"type":"error","name":"NotInitializing","inputs":[]},{"type":"error","name":"OwnableInvalidOwner","inputs":[{"name":"owner","type":"address","internalType":"address"}]},{"type":"error","name":"OwnableUnauthorizedAccount","inputs":[{"name":"account","type":"address","internalType":"address"}]},{"type":"error","name":"PRBMath_MulDiv_Overflow","inputs":[{"name":"x","type":"uint256","internalType":"uint256"},{"name":"y","type":"uint256","internalType":"uint256"},{"name":"denominator","type":"uint256","internalType":"uint256"}]},{"type":"error","name":"PRBMath_MulDiv_Overflow","inputs":[{"name":"x","type":"uint256","internalType":"uint256"},{"name":"y","type":"uint256","internalType":"uint256"},{"name":"denominator","type":"uint256","internalType":"uint256"}]}],"bytecode":{"object":"0x6080604052348015600e575f80fd5b506136ee8061001c5f395ff3fe608060405234801561000f575f80fd5b50600436106101bb575f3560e01c80638d6983c7116100f3578063c4d66de811610093578063e16e554a1161006e578063e16e554a146104dd578063edca4f5e146104f0578063f1f31d66146104f8578063f2fde38b14610518575f80fd5b8063c4d66de81461048d578063cc8659ae146104a0578063db5c1a12146104b3575f80fd5b80639e76d0cb116100ce5780639e76d0cb1461041e578063ab935bb214610431578063b316e7fd14610450578063c06e1ae21461047a575f80fd5b80638d6983c7146103a85780638da5cb5b146103c757806392318df41461040b575f80fd5b8063558f1aa81161015e578063715018a611610139578063715018a61461035b57806373b774ed1461036357806375a3cb57146103765780638456cb59146103a0575f80fd5b8063558f1aa81461030e5780635c975abb14610331578063643ee27f14610348575f80fd5b80632ca49334116101995780632ca49334146102a457806332f53f3c146102c35780633c1f70ca146102cb5780633f4ba83a14610306575f80fd5b806315e666a2146101bf578063263e0d51146102625780632badae5d14610277575b5f80fd5b6102436101cd3660046130ae565b600260208190525f9182526040909120805460018201549282015460038301546004840154600585015460069095015467ffffffffffffffff8516966001600160a01b03600160401b9096048616969086169585169460ff600160a01b8204811695600160a81b9092048116949193919291168a565b6040516102599a999897969594939291906130fd565b60405180910390f35b6102756102703660046130ae565b61052b565b005b6102966102853660046130ae565b60066020525f908152604090205481565b604051908152602001610259565b6102966102b23660046130ae565b60096020525f908152604090205481565b610296610b57565b6102f16102d93660046130ae565b600a6020525f90815260409020805460019091015482565b60408051928352602083019190915201610259565b610275610d32565b61032161031c3660046130ae565b610d44565b6040519015158152602001610259565b5f805160206136998339815191525460ff16610321565b6102756103563660046130ae565b610f95565b6102756112ee565b6102756103713660046130ae565b6112ff565b610296610384366004613187565b600360209081525f928352604080842090915290825290205481565b610275611358565b6102966103b63660046130ae565b60056020525f908152604090205481565b7f9016d09d72d40fdae2fd8ceac6b6234c7706214fd39c1cd1e609a0528c199300546001600160a01b03165b6040516001600160a01b039091168152602001610259565b6103216104193660046130ae565b611368565b61029661042c3660046130ae565b6115ae565b61029661043f3660046130ae565b60046020525f908152604090205481565b61029661045e366004613187565b600760209081525f928352604080842090915290825290205481565b6001546103f3906001600160a01b031681565b61027561049b3660046131b5565b61173b565b6103216104ae3660046131b5565b61186b565b6102966104c1366004613187565b600860209081525f928352604080842090915290825290205481565b6103216104eb3660046130ae565b611896565b6102965f5481565b61050b6105063660046130ae565b6118fa565b604051610259919061328f565b6102756105263660046131b5565b6119fc565b610533611a39565b61053c81610d44565b6105615760405162461bcd60e51b81526004016105589061329e565b60405180910390fd5b600154604080516303a2870960e31b815290515f926001600160a01b031691631d1438489160048083019260209291908290030181865afa1580156105a8573d5f803e3d5ffd5b505050506040513d601f19601f820116820180604052508101906105cc91906132e0565b90505f5b60015f9054906101000a90046001600160a01b03166001600160a01b03166353fd43326040518163ffffffff1660e01b8152600401602060405180830381865afa158015610620573d5f803e3d5ffd5b505050506040513d601f19601f8201168201806040525081019061064491906132fb565b811015610af05760015460405163264cae9360e21b8152600481018390525f916001600160a01b031690639932ba4c90602401602060405180830381865afa158015610692573d5f803e3d5ffd5b505050506040513d601f19601f820116820180604052508101906106b691906132e0565b5f8581526003602090815260408083206001600160a01b03851684529091529020549091508015610ae6576001546040516378f98eb360e11b8152600481018390525f916001600160a01b03169063f1f31d669060240161014060405180830381865afa158015610729573d5f803e3d5ffd5b505050506040513d601f19601f8201168201806040525081019061074d919061339e565b90508060800151610ae45760405163187b2ed160e21b8152600481018390525f906001600160a01b038716906361ecbb4490602401602060405180830381865afa15801561079d573d5f803e3d5ffd5b505050506040513d601f19601f820116820180604052508101906107c191906132fb565b90508015610ae25760015f9054906101000a90046001600160a01b03166001600160a01b031663f9b6117f6040518163ffffffff1660e01b8152600401602060405180830381865afa158015610819573d5f803e3d5ffd5b505050506040513d601f19601f8201168201806040525081019061083d91906132e0565b604051631c20fadd60e01b81526001600160a01b038681166004830152306024830152604482018490529190911690631c20fadd906064015f604051808303815f87803b15801561088c575f80fd5b505af115801561089e573d5f803e3d5ffd5b505060015460405162493aaf60e51b81526001600160a01b0388811660048301819052945063095ea7b393509091169063092755e090602401602060405180830381865afa1580156108f2573d5f803e3d5ffd5b505050506040513d601f19601f8201168201806040525081019061091691906132e0565b6040516001600160e01b031960e084901b1681526001600160a01b039091166004820152602481018490526044016020604051808303815f875af1158015610960573d5f803e3d5ffd5b505050506040513d601f19601f820116820180604052508101906109849190613450565b5060015460405162493aaf60e51b81526001600160a01b0386811660048301529091169063092755e090602401602060405180830381865afa1580156109cc573d5f803e3d5ffd5b505050506040513d601f19601f820116820180604052508101906109f091906132e0565b6001600160a01b0316636e553f658260015f9054906101000a90046001600160a01b03166001600160a01b031663fbfa77cf6040518163ffffffff1660e01b8152600401602060405180830381865afa158015610a4f573d5f803e3d5ffd5b505050506040513d601f19601f82011682018060405250810190610a7391906132e0565b6040516001600160e01b031960e085901b16815260048101929092526001600160a01b031660248201526044016020604051808303815f875af1158015610abc573d5f803e3d5ffd5b505050506040513d601f19601f82011682018060405250810190610ae091906132fb565b505b505b505b50506001016105d0565b5060015f9054906101000a90046001600160a01b03166001600160a01b0316638baa6bf16040518163ffffffff1660e01b81526004015f604051808303815f87803b158015610b3d575f80fd5b505af1158015610b4f573d5f803e3d5ffd5b505050505050565b5f610b60611a39565b60015f80828254610b71919061347d565b909155505f9050805b60015f9054906101000a90046001600160a01b03166001600160a01b03166353fd43326040518163ffffffff1660e01b8152600401602060405180830381865afa158015610bca573d5f803e3d5ffd5b505050506040513d601f19601f82011682018060405250810190610bee91906132fb565b811015610d0e5760015460405163264cae9360e21b8152600481018390525f916001600160a01b031690639932ba4c90602401602060405180830381865afa158015610c3c573d5f803e3d5ffd5b505050506040513d601f19601f82011682018060405250810190610c6091906132e0565b60015460405163efdf505360e01b81526001600160a01b0380841660048301529293505f929091169063efdf505390602401602060405180830381865afa158015610cad573d5f803e3d5ffd5b505050506040513d601f19601f82011682018060405250810190610cd191906132fb565b5f805481526007602090815260408083206001600160a01b038716845290915290208190559050610d02818561347d565b93505050600101610b7a565b505f8054815260066020526040812082905554610d2b9082611a94565b50505f5490565b610d3a611a39565b610d42611ee4565b565b5f805f60015f9054906101000a90046001600160a01b03166001600160a01b0316631d1438486040518163ffffffff1660e01b8152600401602060405180830381865afa158015610d97573d5f803e3d5ffd5b505050506040513d601f19601f82011682018060405250810190610dbb91906132e0565b90505f5b60015f9054906101000a90046001600160a01b03166001600160a01b03166353fd43326040518163ffffffff1660e01b8152600401602060405180830381865afa158015610e0f573d5f803e3d5ffd5b505050506040513d601f19601f82011682018060405250810190610e3391906132fb565b811015610f8a5760015460405163264cae9360e21b8152600481018390525f916001600160a01b031690639932ba4c90602401602060405180830381865afa158015610e81573d5f803e3d5ffd5b505050506040513d601f19601f82011682018060405250810190610ea591906132e0565b5f8781526003602090815260408083206001600160a01b0385168452825280832054808452600490925290912054919250908115801590610ee557505f81115b8015610f6d57506040516322fd455760e11b8152600481018390526002906001600160a01b038716906345fa8aae90602401602060405180830381865afa158015610f32573d5f803e3d5ffd5b505050506040513d601f19601f82011682018060405250810190610f569190613490565b6003811115610f6757610f676130c5565b60ff1614155b15610f7f57505f979650505050505050565b505050600101610dbf565b506001949350505050565b610f9d611a39565b610fa75f54611368565b610fc35760405162461bcd60e51b81526004016105589061329e565b5f81815260066020908152604080832054600983528184205460015483516303a2870960e31b815293519295919491936001600160a01b0390911692631d143848926004808401939192918290030181865afa158015611025573d5f803e3d5ffd5b505050506040513d601f19601f8201168201806040525081019061104991906132e0565b90505f805b60015f9054906101000a90046001600160a01b03166001600160a01b03166353fd43326040518163ffffffff1660e01b8152600401602060405180830381865afa15801561109e573d5f803e3d5ffd5b505050506040513d601f19601f820116820180604052508101906110c291906132fb565b8110156112db5760015460405163264cae9360e21b8152600481018390525f916001600160a01b031690639932ba4c90602401602060405180830381865afa158015611110573d5f803e3d5ffd5b505050506040513d601f19601f8201168201806040525081019061113491906132e0565b5f8881526003602090815260408083206001600160a01b038516845290915290205490915080156112d1576001546040516378f98eb360e11b8152600481018390525f916001600160a01b03169063f1f31d669060240161014060405180830381865afa1580156111a7573d5f803e3d5ffd5b505050506040513d601f19601f820116820180604052508101906111cb919061339e565b60c0810151608082015191925090156112ce5760405163187b2ed160e21b8152600481018490525f906001600160a01b038916906361ecbb4490602401602060405180830381865afa158015611223573d5f803e3d5ffd5b505050506040513d601f19601f8201168201806040525081019061124791906132fb565b60405163069352a960e41b8152600481018690529091505f906001600160a01b038a16906369352a9090602401602060405180830381865afa15801561128f573d5f803e3d5ffd5b505050506040513d601f19601f820116820180604052508101906112b391906132fb565b90506112bf81836134ab565b6112c9908961347d565b975050505b50505b505060010161104e565b506112e7858483611f43565b5050505050565b6112f6611a39565b610d425f61247f565b5f818152600a602090815260409182902082518084019093528054808452600190910154918301919091526005036113425761133e8160200151610f95565b5050565b805160060361133e5761133e816020015161052b565b611360611a39565b610d426124ef565b5f805f60015f9054906101000a90046001600160a01b03166001600160a01b0316631d1438486040518163ffffffff1660e01b8152600401602060405180830381865afa1580156113bb573d5f803e3d5ffd5b505050506040513d601f19601f820116820180604052508101906113df91906132e0565b90505f5b60015f9054906101000a90046001600160a01b03166001600160a01b03166353fd43326040518163ffffffff1660e01b8152600401602060405180830381865afa158015611433573d5f803e3d5ffd5b505050506040513d601f19601f8201168201806040525081019061145791906132fb565b811015610f8a5760015460405163264cae9360e21b8152600481018390525f916001600160a01b031690639932ba4c90602401602060405180830381865afa1580156114a5573d5f803e3d5ffd5b505050506040513d601f19601f820116820180604052508101906114c991906132e0565b5f8781526003602090815260408083206001600160a01b038516845282528083205480845260059092529091205491925090811580159061150957505f81115b801561159157506040516322fd455760e11b8152600481018390526002906001600160a01b038716906345fa8aae90602401602060405180830381865afa158015611556573d5f803e3d5ffd5b505050506040513d601f19601f8201168201806040525081019061157a9190613490565b600381111561158b5761158b6130c5565b60ff1614155b156115a357505f979650505050505050565b5050506001016113e3565b5f8060015f9054906101000a90046001600160a01b03166001600160a01b0316631d1438486040518163ffffffff1660e01b8152600401602060405180830381865afa158015611600573d5f803e3d5ffd5b505050506040513d601f19601f8201168201806040525081019061162491906132e0565b90505f80826001600160a01b031663236970d45f60015f9054906101000a90046001600160a01b03166001600160a01b0316633e413bee6040518163ffffffff1660e01b8152600401602060405180830381865afa158015611688573d5f803e3d5ffd5b505050506040513d601f19601f820116820180604052508101906116ac91906132e0565b6040516001600160e01b031960e085901b16815291151560048301526001600160a01b031660248201526044016040805180830381865afa1580156116f3573d5f803e3d5ffd5b505050506040513d601f19601f8201168201806040525081019061171791906134be565b915091505f826117278388612537565b61173191906134ab565b9695505050505050565b7ff0c57e16840df040f15088dc2f81fe391c3923bec73e23a9662efc9c229c6a008054600160401b810460ff16159067ffffffffffffffff165f811580156117805750825b90505f8267ffffffffffffffff16600114801561179c5750303b155b9050811580156117aa575080155b156117c85760405163f92ee8a960e01b815260040160405180910390fd5b845467ffffffffffffffff1916600117855583156117f257845460ff60401b1916600160401b1785555b600180546001600160a01b0319166001600160a01b0388161790556118163361256f565b61181e612580565b8315610b4f57845460ff60401b19168555604051600181527fc7f505b2f371ae2175ee4913f4499e1f2633a7b5936321eed1cdaeb6115181d29060200160405180910390a1505050505050565b5f611874611a39565b50600180546001600160a01b0319166001600160a01b0383161781555b919050565b5f818152600a602090815260408083208151808301909252805480835260019091015492820192909252906005036118dc576118d58160200151611368565b9392505050565b80516006036118f2576118d58160200151610d44565b505f92915050565b611902613050565b5f82815260026020818152604092839020835161014081018552815467ffffffffffffffff811682526001600160a01b03600160401b90910481169382019390935260018083015484169582019590955292810154918216606084015260ff600160a01b83048116151560808501529293909260a0850192600160a81b90041690811115611992576119926130c5565b60018111156119a3576119a36130c5565b815260038281015460208301526004830154604083015260058301546060830152600683015460809092019160ff16908111156119e2576119e26130c5565b60038111156119f3576119f36130c5565b90525092915050565b611a04611a39565b6001600160a01b038116611a2d57604051631e4fbdf760e01b81525f6004820152602401610558565b611a368161247f565b50565b33611a6b7f9016d09d72d40fdae2fd8ceac6b6234c7706214fd39c1cd1e609a0528c199300546001600160a01b031690565b6001600160a01b031614610d425760405163118cdaa760e01b8152336004820152602401610558565b5f5b60015f9054906101000a90046001600160a01b03166001600160a01b03166353fd43326040518163ffffffff1660e01b8152600401602060405180830381865afa158015611ae6573d5f803e3d5ffd5b505050506040513d601f19601f82011682018060405250810190611b0a91906132fb565b811015611edf5760015460405163264cae9360e21b8152600481018390525f916001600160a01b031690639932ba4c90602401602060405180830381865afa158015611b58573d5f803e3d5ffd5b505050506040513d601f19601f82011682018060405250810190611b7c91906132e0565b5f8581526007602090815260408083206001600160a01b0385811680865291909352818420546001549251635046bdeb60e11b8152600481019290925294955091169063a08d7bd690602401602060405180830381865afa158015611be3573d5f803e3d5ffd5b505050506040513d601f19601f82011682018060405250810190611c0791906132fb565b90505f85611c1e8468056bc75e2d631000006134e8565b611c289190613513565b60015460405162967c1760e71b81526001600160a01b038781166004830152929350911690634b3e0b8090602401602060405180830381865afa158015611c71573d5f803e3d5ffd5b505050506040513d601f19601f82011682018060405250810190611c9591906132fb565b811115611e0d5760015460405162967c1760e71b81526001600160a01b0386811660048301525f928492911690634b3e0b8090602401602060405180830381865afa158015611ce6573d5f803e3d5ffd5b505050506040513d601f19601f82011682018060405250810190611d0a91906132fb565b611d1490856134e8565b611d1e9190613513565b611d2890846134ab565b90505f80611daa878460015f9054906101000a90046001600160a01b03166001600160a01b031663f9b6117f6040518163ffffffff1660e01b8152600401602060405180830381865afa158015611d81573d5f803e3d5ffd5b505050506040513d601f19601f82011682018060405250810190611da591906132e0565b612590565b50604080518082018252600580825260208083018f81525f868152600a83528581209451855590516001909401939093558e8352600381528383206001600160a01b038d168452815283832085905593825290925290209290925550611ecf9050565b60015460405162967c1760e71b81526001600160a01b0386811660048301525f928492911690634b3e0b8090602401602060405180830381865afa158015611e57573d5f803e3d5ffd5b505050506040513d601f19601f82011682018060405250810190611e7b91906132fb565b611e8591906134ab565b5f8981526008602090815260408083206001600160a01b038a16845282528083208490558b83526009909152812080549293508392909190611ec890849061347d565b9091555050505b505060019092019150611a969050565b505050565b611eec612ca9565b5f80516020613699833981519152805460ff191681557f5db9ee0a495bf2e6ff9c91a7834c1ba4fdd244a5e8aa4e537bd38aeae4b073aa335b6040516001600160a01b03909116815260200160405180910390a150565b600154604080516303a2870960e31b815290515f926001600160a01b031691631d1438489160048083019260209291908290030181865afa158015611f8a573d5f803e3d5ffd5b505050506040513d601f19601f82011682018060405250810190611fae91906132e0565b90505f5b60015f9054906101000a90046001600160a01b03166001600160a01b03166353fd43326040518163ffffffff1660e01b8152600401602060405180830381865afa158015612002573d5f803e3d5ffd5b505050506040513d601f19601f8201168201806040525081019061202691906132fb565b8110156112e75760015460405163264cae9360e21b8152600481018390525f916001600160a01b031690639932ba4c90602401602060405180830381865afa158015612074573d5f803e3d5ffd5b505050506040513d601f19601f8201168201806040525081019061209891906132e0565b5f8781526008602090815260408083206001600160a01b03851684529091529020549091508015612475575f866120cf87846134e8565b6120d99190613513565b90505f80866001600160a01b031663236970d45f60015f9054906101000a90046001600160a01b03166001600160a01b0316633e413bee6040518163ffffffff1660e01b8152600401602060405180830381865afa15801561213d573d5f803e3d5ffd5b505050506040513d601f19601f8201168201806040525081019061216191906132e0565b6040516001600160e01b031960e085901b16815291151560048301526001600160a01b031660248201526044016040805180830381865afa1580156121a8573d5f803e3d5ffd5b505050506040513d601f19601f820116820180604052508101906121cc91906134be565b915091505f826121dc8386612537565b6121e691906134ab565b90505f6121f38383612cd8565b6121fd908561347d565b905060015f9054906101000a90046001600160a01b03166001600160a01b0316633e413bee6040518163ffffffff1660e01b8152600401602060405180830381865afa15801561224f573d5f803e3d5ffd5b505050506040513d601f19601f8201168201806040525081019061227391906132e0565b6001600160a01b031663095ea7b360015f9054906101000a90046001600160a01b03166001600160a01b031663f9b6117f6040518163ffffffff1660e01b8152600401602060405180830381865afa1580156122d1573d5f803e3d5ffd5b505050506040513d601f19601f820116820180604052508101906122f591906132e0565b6040516001600160e01b031960e084901b1681526001600160a01b039091166004820152602481018890526044016020604051808303815f875af115801561233f573d5f803e3d5ffd5b505050506040513d601f19601f820116820180604052508101906123639190613450565b505f6123e3888460015f9054906101000a90046001600160a01b03166001600160a01b031663f9b6117f6040518163ffffffff1660e01b8152600401602060405180830381865afa1580156123ba573d5f803e3d5ffd5b505050506040513d601f19601f820116820180604052508101906123de91906132e0565b612cfe565b90506040518060400160405280600681526020018e815250600a5f8381526020019081526020015f205f820151815f0155602082015181600101559050508060035f8f81526020019081526020015f205f8a6001600160a01b03166001600160a01b031681526020019081526020015f20819055508260045f8381526020019081526020015f20819055505050505050505b5050600101611fb2565b7f9016d09d72d40fdae2fd8ceac6b6234c7706214fd39c1cd1e609a0528c19930080546001600160a01b031981166001600160a01b03848116918217845560405192169182907f8be0079c531659141344cd1fd0a4f28419497f9722a3daafe3b4186f6b6457e0905f90a3505050565b6124f7612ee0565b5f80516020613699833981519152805460ff191660011781557f62e78cea01bee320cd4e420270b5ea74000d11b0c9f74754ebdbfc544b05a25833611f25565b5f8262ffffff165f0361254a575f612566565b61256682620f424061255c8682613526565b62ffffff16612f10565b90505b92915050565b612577612fdf565b611a3681613028565b612588612fdf565b610d42613030565b60015460405162493aaf60e51b81526001600160a01b0385811660048301525f92839283929091169063092755e090602401602060405180830381865afa1580156125dd573d5f803e3d5ffd5b505050506040513d601f19601f8201168201806040525081019061260191906132e0565b905060015f9054906101000a90046001600160a01b03166001600160a01b031663fbfa77cf6040518163ffffffff1660e01b8152600401602060405180830381865afa158015612653573d5f803e3d5ffd5b505050506040513d601f19601f8201168201806040525081019061267791906132e0565b604051631c20fadd60e01b81526001600160a01b038381166004830152306024830152604482018890529190911690631c20fadd906064015f604051808303815f87803b1580156126c6575f80fd5b505af11580156126d8573d5f803e3d5ffd5b5050604051635d043b2960e11b815260048101889052306024820181905260448201525f92506001600160a01b038416915063ba087652906064016020604051808303815f875af115801561272f573d5f803e3d5ffd5b505050506040513d601f19601f8201168201806040525081019061275391906132fb565b90505f60015f9054906101000a90046001600160a01b03166001600160a01b0316631d1438486040518163ffffffff1660e01b8152600401602060405180830381865afa1580156127a6573d5f803e3d5ffd5b505050506040513d601f19601f820116820180604052508101906127ca91906132e0565b60405163fc75f9ed60e01b81526001600160a01b038a811660048301529192505f9183169063fc75f9ed90602401602060405180830381865afa158015612813573d5f803e3d5ffd5b505050506040513d601f19601f820116820180604052508101906128379190613549565b90505f612845600183613569565b61285090600a613662565b61285a9085613670565b61286490856134ab565b90505f61287182866134ab565b905080156129dd5760405163095ea7b360e01b81526001600160a01b038781166004830152602482018390528c169063095ea7b3906044016020604051808303815f875af11580156128c5573d5f803e3d5ffd5b505050506040513d601f19601f820116820180604052508101906128e99190613450565b50856001600160a01b0316636e553f658260015f9054906101000a90046001600160a01b03166001600160a01b031663fbfa77cf6040518163ffffffff1660e01b8152600401602060405180830381865afa15801561294a573d5f803e3d5ffd5b505050506040513d601f19601f8201168201806040525081019061296e91906132e0565b6040516001600160e01b031960e085901b16815260048101929092526001600160a01b031660248201526044016020604051808303815f875af11580156129b7573d5f803e3d5ffd5b505050506040513d601f19601f820116820180604052508101906129db91906132fb565b505b600180546040516358913cd560e11b815260048101929092525f916001600160a01b039091169063b12279aa9060240161014060405180830381865afa158015612a29573d5f803e3d5ffd5b505050506040513d601f19601f82011682018060405250810190612a4d919061339e565b6001600160a01b03808e16604080840182905260c084018790528d8316602080860191909152600154825163f9b6117f60e01b81529251959650929463a9059cbb94939093169263f9b6117f9260048082019392918290030181865afa158015612ab9573d5f803e3d5ffd5b505050506040513d601f19601f82011682018060405250810190612add91906132e0565b6040516001600160e01b031960e084901b1681526001600160a01b039091166004820152602481018690526044016020604051808303815f875af1158015612b27573d5f803e3d5ffd5b505050506040513d601f19601f82011682018060405250810190612b4b9190613450565b506001546040805163f9b6117f60e01b815290515f926001600160a01b03169163f9b6117f9160048083019260209291908290030181865afa158015612b93573d5f803e3d5ffd5b505050506040513d601f19601f82011682018060405250810190612bb791906132e0565b6040516319b284d160e21b81526001600160a01b038f81166004830152602482018790528d811660448301529192505f918316906366ca1344906064016020604051808303815f875af1158015612c10573d5f803e3d5ffd5b505050506040513d601f19601f82011682018060405250810190612c3491906132fb565b600154604051630d71448160e21b81529192506001600160a01b0316906335c5120490612c679084908790600401613683565b5f604051808303815f87803b158015612c7e575f80fd5b505af1158015612c90573d5f803e3d5ffd5b50929c50959a5050505050505050505050935093915050565b5f805160206136998339815191525460ff16610d4257604051638dfc202b60e01b815260040160405180910390fd5b5f8262ffffff165f03612ceb575f612566565b6125668262ffffff8516620f4240612f10565b6001546040516358913cd560e11b81525f600482018190529182916001600160a01b039091169063b12279aa9060240161014060405180830381865afa158015612d4a573d5f803e3d5ffd5b505050506040513d601f19601f82011682018060405250810190612d6e919061339e565b6001600160a01b0380851660208084019190915287821660408085019190915260e08401889052600154815163f9b6117f60e01b815291519495505f9493169263f9b6117f926004808401939192918290030181865afa158015612dd4573d5f803e3d5ffd5b505050506040513d601f19601f82011682018060405250810190612df891906132e0565b6040516312544d1b60e01b81526001600160a01b0388811660048301526024820188905286811660448301529192505f918316906312544d1b906064016020604051808303815f875af1158015612e51573d5f803e3d5ffd5b505050506040513d601f19601f82011682018060405250810190612e7591906132fb565b600154604051630d71448160e21b81529192506001600160a01b0316906335c5120490612ea89084908790600401613683565b5f604051808303815f87803b158015612ebf575f80fd5b505af1158015612ed1573d5f803e3d5ffd5b50929998505050505050505050565b5f805160206136998339815191525460ff1615610d425760405163d93c066560e01b815260040160405180910390fd5b5f80805f19858709858702925082811083820303915050805f03612f4757838281612f3d57612f3d6134ff565b04925050506118d5565b838110612f7857604051630c740aef60e31b8152600481018790526024810186905260448101859052606401610558565b5f8486880960026001871981018816978890046003810283188082028403028082028403028082028403028082028403028082028403029081029092039091025f889003889004909101858311909403939093029303949094049190911702949350505050565b7ff0c57e16840df040f15088dc2f81fe391c3923bec73e23a9662efc9c229c6a0054600160401b900460ff16610d4257604051631afcd79f60e31b815260040160405180910390fd5b611a04612fdf565b613038612fdf565b5f80516020613699833981519152805460ff19169055565b60408051610140810182525f8082526020820181905291810182905260608101829052608081018290529060a082019081526020015f81526020015f81526020015f81526020015f60038111156130a9576130a96130c5565b905290565b5f602082840312156130be575f80fd5b5035919050565b634e487b7160e01b5f52602160045260245ffd5b600281106130e9576130e96130c5565b9052565b600481106130e9576130e96130c5565b67ffffffffffffffff8b1681526001600160a01b038a811660208301528981166040830152881660608201528615156080820152610140810161314360a08301886130d9565b8560c08301528460e0830152836101008301526131646101208301846130ed565b9b9a5050505050505050505050565b6001600160a01b0381168114611a36575f80fd5b5f8060408385031215613198575f80fd5b8235915060208301356131aa81613173565b809150509250929050565b5f602082840312156131c5575f80fd5b81356118d581613173565b805167ffffffffffffffff16825260208101516131f860208401826001600160a01b03169052565b50604081015161321360408401826001600160a01b03169052565b50606081015161322e60608401826001600160a01b03169052565b506080810151613242608084018215159052565b5060a081015161325560a08401826130d9565b5060c081015160c083015260e081015160e083015261010080820151818401525061012080820151613289828501826130ed565b50505050565b610140810161256982846131d0565b60208082526022908201527f526562616c616e6365206f726465727320617265206e6f7420636f6d706c6574604082015261195960f21b606082015260800190565b5f602082840312156132f0575f80fd5b81516118d581613173565b5f6020828403121561330b575f80fd5b5051919050565b805161189181613173565b604051610140810167ffffffffffffffff8111828210171561334d57634e487b7160e01b5f52604160045260245ffd5b60405290565b805167ffffffffffffffff81168114611891575f80fd5b80518015158114611891575f80fd5b805160028110611891575f80fd5b60048110611a36575f80fd5b805161189181613387565b5f61014082840312156133af575f80fd5b6133b761331d565b6133c083613353565b81526133ce60208401613312565b60208201526133df60408401613312565b60408201526133f060608401613312565b60608201526134016080840161336a565b608082015261341260a08401613379565b60a082015260c083015160c082015260e083015160e0820152610100808401518183015250610120613445818501613393565b908201529392505050565b5f60208284031215613460575f80fd5b6125668261336a565b634e487b7160e01b5f52601160045260245ffd5b8082018082111561256957612569613469565b5f602082840312156134a0575f80fd5b81516118d581613387565b8181038181111561256957612569613469565b5f80604083850312156134cf575f80fd5b82519150602083015162ffffff811681146131aa575f80fd5b808202811582820484141761256957612569613469565b634e487b7160e01b5f52601260045260245ffd5b5f82613521576135216134ff565b500490565b62ffffff81811683821601908082111561354257613542613469565b5092915050565b5f60208284031215613559575f80fd5b815160ff811681146118d5575f80fd5b60ff828116828216039081111561256957612569613469565b600181815b808511156135bc57815f19048211156135a2576135a2613469565b808516156135af57918102915b93841c9390800290613587565b509250929050565b5f826135d257506001612569565b816135de57505f612569565b81600181146135f457600281146135fe5761361a565b6001915050612569565b60ff84111561360f5761360f613469565b50506001821b612569565b5060208310610133831016604e8410600b841016171561363d575081810a612569565b6136478383613582565b805f190482111561365a5761365a613469565b029392505050565b5f61256660ff8416836135c4565b5f8261367e5761367e6134ff565b500690565b82815261016081016118d560208301846131d056fecd5ed15c6e187e77e9aee88184c21f4f2182ab5827cb3b7e07fbedcd63f03300a264697066735822122027ed1203223fbc693d93525efb16213335ae4284907cf5aafb9270ad8efb819f64736f6c63430008190033","linkReferences":{}},"methodIdentifiers":{"actionInfoById(uint256)":"3c1f70ca","checkFirstRebalanceOrdersStatus(uint256)":"92318df4","checkMultical(uint256)":"e16e554a","checkSecondRebalanceOrdersStatus(uint256)":"558f1aa8","completeRebalanceActions(uint256)":"263e0d51","estimateAmountAfterFee(uint256)":"9e76d0cb","factoryStorage()":"c06e1ae2","firstRebalanceAction()":"32f53f3c","getOrderInstanceById(uint256)":"f1f31d66","initialize(address)":"c4d66de8","multical(uint256)":"73b774ed","orderInstanceById(uint256)":"15e666a2","owner()":"8da5cb5b","pause()":"8456cb59","paused()":"5c975abb","portfolioValueByNonce(uint256)":"2badae5d","rebalanceBuyPayedAmountById(uint256)":"ab935bb2","rebalanceNonce()":"edca4f5e","rebalanceRequestId(uint256,address)":"75a3cb57","rebalanceSellAssetAmountById(uint256)":"8d6983c7","renounceOwnership()":"715018a6","secondRebalanceAction(uint256)":"643ee27f","setIndexFactoryStorage(address)":"cc8659ae","tokenShortagePercentByNonce(uint256,address)":"db5c1a12","tokenValueByNonce(uint256,address)":"b316e7fd","totalShortagePercentByNonce(uint256)":"2ca49334","transferOwnership(address)":"f2fde38b","unpause()":"3f4ba83a"},"id":10}