{"abi":[{"type":"constructor","inputs":[],"stateMutability":"nonpayable"},{"type":"function","name":"actionInfoById","inputs":[{"name":"","type":"uint256","internalType":"uint256"}],"outputs":[{"name":"actionType","type":"uint256","internalType":"uint256"},{"name":"nonce","type":"uint256","internalType":"uint256"}],"stateMutability":"view"},{"type":"function","name":"checkFirstRebalanceOrdersStatus","inputs":[{"name":"_rebalanceNonce","type":"uint256","internalType":"uint256"}],"outputs":[{"name":"","type":"bool","internalType":"bool"}],"stateMutability":"view"},{"type":"function","name":"checkMultical","inputs":[{"name":"_reqeustId","type":"uint256","internalType":"uint256"}],"outputs":[{"name":"","type":"bool","internalType":"bool"}],"stateMutability":"view"},{"type":"function","name":"checkSecondRebalanceOrdersStatus","inputs":[{"name":"_rebalanceNonce","type":"uint256","internalType":"uint256"}],"outputs":[{"name":"","type":"bool","internalType":"bool"}],"stateMutability":"view"},{"type":"function","name":"completeRebalanceActions","inputs":[{"name":"_rebalanceNonce","type":"uint256","internalType":"uint256"}],"outputs":[],"stateMutability":"nonpayable"},{"type":"function","name":"estimateAmountAfterFee","inputs":[{"name":"_amount","type":"uint256","internalType":"uint256"}],"outputs":[{"name":"","type":"uint256","internalType":"uint256"}],"stateMutability":"view"},{"type":"function","name":"factoryStorage","inputs":[],"outputs":[{"name":"","type":"address","internalType":"contract IndexFactoryStorage"}],"stateMutability":"view"},{"type":"function","name":"firstRebalanceAction","inputs":[],"outputs":[{"name":"","type":"uint256","internalType":"uint256"}],"stateMutability":"nonpayable"},{"type":"function","name":"initialize","inputs":[{"name":"_factoryStorage","type":"address","internalType":"address"}],"outputs":[],"stateMutability":"nonpayable"},{"type":"function","name":"multical","inputs":[{"name":"_requestId","type":"uint256","internalType":"uint256"}],"outputs":[],"stateMutability":"nonpayable"},{"type":"function","name":"owner","inputs":[],"outputs":[{"name":"","type":"address","internalType":"address"}],"stateMutability":"view"},{"type":"function","name":"pause","inputs":[],"outputs":[],"stateMutability":"nonpayable"},{"type":"function","name":"paused","inputs":[],"outputs":[{"name":"","type":"bool","internalType":"bool"}],"stateMutability":"view"},{"type":"function","name":"portfolioValueByNonce","inputs":[{"name":"","type":"uint256","internalType":"uint256"}],"outputs":[{"name":"","type":"uint256","internalType":"uint256"}],"stateMutability":"view"},{"type":"function","name":"rebalanceBuyPayedAmountById","inputs":[{"name":"","type":"uint256","internalType":"uint256"}],"outputs":[{"name":"","type":"uint256","internalType":"uint256"}],"stateMutability":"view"},{"type":"function","name":"rebalanceNonce","inputs":[],"outputs":[{"name":"","type":"uint256","internalType":"uint256"}],"stateMutability":"view"},{"type":"function","name":"rebalanceRequestId","inputs":[{"name":"","type":"uint256","internalType":"uint256"},{"name":"","type":"address","internalType":"address"}],"outputs":[{"name":"","type":"uint256","internalType":"uint256"}],"stateMutability":"view"},{"type":"function","name":"rebalanceSellAssetAmountById","inputs":[{"name":"","type":"uint256","internalType":"uint256"}],"outputs":[{"name":"","type":"uint256","internalType":"uint256"}],"stateMutability":"view"},{"type":"function","name":"renounceOwnership","inputs":[],"outputs":[],"stateMutability":"nonpayable"},{"type":"function","name":"secondRebalanceAction","inputs":[{"name":"_rebalanceNonce","type":"uint256","internalType":"uint256"}],"outputs":[],"stateMutability":"nonpayable"},{"type":"function","name":"setIndexFactoryStorage","inputs":[{"name":"_indexFactoryStorage","type":"address","internalType":"address"}],"outputs":[{"name":"","type":"bool","internalType":"bool"}],"stateMutability":"nonpayable"},{"type":"function","name":"tokenShortagePercentByNonce","inputs":[{"name":"","type":"uint256","internalType":"uint256"},{"name":"","type":"address","internalType":"address"}],"outputs":[{"name":"","type":"uint256","internalType":"uint256"}],"stateMutability":"view"},{"type":"function","name":"tokenValueByNonce","inputs":[{"name":"","type":"uint256","internalType":"uint256"},{"name":"","type":"address","internalType":"address"}],"outputs":[{"name":"","type":"uint256","internalType":"uint256"}],"stateMutability":"view"},{"type":"function","name":"totalShortagePercentByNonce","inputs":[{"name":"","type":"uint256","internalType":"uint256"}],"outputs":[{"name":"","type":"uint256","internalType":"uint256"}],"stateMutability":"view"},{"type":"function","name":"transferOwnership","inputs":[{"name":"newOwner","type":"address","internalType":"address"}],"outputs":[],"stateMutability":"nonpayable"},{"type":"function","name":"unpause","inputs":[],"outputs":[],"stateMutability":"nonpayable"},{"type":"event","name":"Initialized","inputs":[{"name":"version","type":"uint64","indexed":false,"internalType":"uint64"}],"anonymous":false},{"type":"event","name":"OwnershipTransferred","inputs":[{"name":"previousOwner","type":"address","indexed":true,"internalType":"address"},{"name":"newOwner","type":"address","indexed":true,"internalType":"address"}],"anonymous":false},{"type":"event","name":"Paused","inputs":[{"name":"account","type":"address","indexed":false,"internalType":"address"}],"anonymous":false},{"type":"event","name":"Unpaused","inputs":[{"name":"account","type":"address","indexed":false,"internalType":"address"}],"anonymous":false},{"type":"error","name":"AddressEmptyCode","inputs":[{"name":"target","type":"address","internalType":"address"}]},{"type":"error","name":"AddressInsufficientBalance","inputs":[{"name":"account","type":"address","internalType":"address"}]},{"type":"error","name":"EnforcedPause","inputs":[]},{"type":"error","name":"ExpectedPause","inputs":[]},{"type":"error","name":"FailedInnerCall","inputs":[]},{"type":"error","name":"InvalidInitialization","inputs":[]},{"type":"error","name":"NotInitializing","inputs":[]},{"type":"error","name":"OwnableInvalidOwner","inputs":[{"name":"owner","type":"address","internalType":"address"}]},{"type":"error","name":"OwnableUnauthorizedAccount","inputs":[{"name":"account","type":"address","internalType":"address"}]},{"type":"error","name":"PRBMath_MulDiv_Overflow","inputs":[{"name":"x","type":"uint256","internalType":"uint256"},{"name":"y","type":"uint256","internalType":"uint256"},{"name":"denominator","type":"uint256","internalType":"uint256"}]},{"type":"error","name":"PRBMath_MulDiv_Overflow","inputs":[{"name":"x","type":"uint256","internalType":"uint256"},{"name":"y","type":"uint256","internalType":"uint256"},{"name":"denominator","type":"uint256","internalType":"uint256"}]},{"type":"error","name":"ReentrancyGuardReentrantCall","inputs":[]},{"type":"error","name":"SafeERC20FailedOperation","inputs":[{"name":"token","type":"address","internalType":"address"}]}],"bytecode":{"object":"0x608060405234801561000f575f80fd5b5061001e61002360201b60201c565b610183565b5f61003261012160201b60201c565b9050805f0160089054906101000a900460ff161561007c576040517ff92ee8a900000000000000000000000000000000000000000000000000000000815260040160405180910390fd5b67ffffffffffffffff8016815f015f9054906101000a900467ffffffffffffffff1667ffffffffffffffff161461011e5767ffffffffffffffff815f015f6101000a81548167ffffffffffffffff021916908367ffffffffffffffff1602179055507fc7f505b2f371ae2175ee4913f4499e1f2633a7b5936321eed1cdaeb6115181d267ffffffffffffffff604051610115919061016a565b60405180910390a15b50565b5f7ff0c57e16840df040f15088dc2f81fe391c3923bec73e23a9662efc9c229c6a00905090565b5f67ffffffffffffffff82169050919050565b61016481610148565b82525050565b5f60208201905061017d5f83018461015b565b92915050565b6154ba806101905f395ff3fe608060405234801561000f575f80fd5b506004361061018c575f3560e01c80638d6983c7116100dc578063c06e1ae211610095578063db5c1a121161006f578063db5c1a12146104a7578063e16e554a146104d7578063edca4f5e14610507578063f2fde38b146105255761018c565b8063c06e1ae21461043d578063c4d66de81461045b578063cc8659ae146104775761018c565b80638d6983c71461032f5780638da5cb5b1461035f57806392318df41461037d5780639e76d0cb146103ad578063ab935bb2146103dd578063b316e7fd1461040d5761018c565b8063558f1aa811610149578063715018a611610123578063715018a6146102cf57806373b774ed146102d957806375a3cb57146102f55780638456cb59146103255761018c565b8063558f1aa8146102655780635c975abb14610295578063643ee27f146102b35761018c565b8063263e0d51146101905780632badae5d146101ac5780632ca49334146101dc57806332f53f3c1461020c5780633c1f70ca1461022a5780633f4ba83a1461025b575b5f80fd5b6101aa60048036038101906101a59190614484565b610541565b005b6101c660048036038101906101c19190614484565b610d27565b6040516101d391906144be565b60405180910390f35b6101f660048036038101906101f19190614484565b610d3c565b60405161020391906144be565b60405180910390f35b610214610d51565b60405161022191906144be565b60405180910390f35b610244600480360381019061023f9190614484565b610fec565b6040516102529291906144d7565b60405180910390f35b61026361100c565b005b61027f600480360381019061027a9190614484565b61101e565b60405161028c9190614518565b60405180910390f35b61029d611335565b6040516102aa9190614518565b60405180910390f35b6102cd60048036038101906102c89190614484565b611357565b005b6102d76117e5565b005b6102f360048036038101906102ee9190614484565b6117f8565b005b61030f600480360381019061030a919061458b565b6118a7565b60405161031c91906144be565b60405180910390f35b61032d6118c7565b005b61034960048036038101906103449190614484565b6118d9565b60405161035691906144be565b60405180910390f35b6103676118ee565b60405161037491906145d8565b60405180910390f35b61039760048036038101906103929190614484565b611923565b6040516103a49190614518565b60405180910390f35b6103c760048036038101906103c29190614484565b611c3a565b6040516103d491906144be565b60405180910390f35b6103f760048036038101906103f29190614484565b611dfc565b60405161040491906144be565b60405180910390f35b6104276004803603810190610422919061458b565b611e11565b60405161043491906144be565b60405180910390f35b610445611e31565b604051610452919061464c565b60405180910390f35b61047560048036038101906104709190614665565b611e56565b005b610491600480360381019061048c9190614665565b612095565b60405161049e9190614518565b60405180910390f35b6104c160048036038101906104bc919061458b565b6120e7565b6040516104ce91906144be565b60405180910390f35b6104f160048036038101906104ec9190614484565b612107565b6040516104fe9190614518565b60405180910390f35b61050f612184565b60405161051c91906144be565b60405180910390f35b61053f600480360381019061053a9190614665565b612189565b005b61054961220d565b610551612261565b61055a8161101e565b610599576040517f08c379a000000000000000000000000000000000000000000000000000000000815260040161059090614710565b60405180910390fd5b5f60015f9054906101000a900473ffffffffffffffffffffffffffffffffffffffff1673ffffffffffffffffffffffffffffffffffffffff16631d1438486040518163ffffffff1660e01b8152600401602060405180830381865afa158015610604573d5f803e3d5ffd5b505050506040513d601f19601f820116820180604052508101906106289190614769565b90505f5b60015f9054906101000a900473ffffffffffffffffffffffffffffffffffffffff1673ffffffffffffffffffffffffffffffffffffffff166353fd43326040518163ffffffff1660e01b8152600401602060405180830381865afa158015610696573d5f803e3d5ffd5b505050506040513d601f19601f820116820180604052508101906106ba91906147a8565b811015610c9e575f60015f9054906101000a900473ffffffffffffffffffffffffffffffffffffffff1673ffffffffffffffffffffffffffffffffffffffff16639932ba4c836040518263ffffffff1660e01b815260040161071c91906144be565b602060405180830381865afa158015610737573d5f803e3d5ffd5b505050506040513d601f19601f8201168201806040525081019061075b91906147e7565b90505f60025f8681526020019081526020015f205f8373ffffffffffffffffffffffffffffffffffffffff1673ffffffffffffffffffffffffffffffffffffffff1681526020019081526020015f205490505f811115610c8f575f60015f9054906101000a900473ffffffffffffffffffffffffffffffffffffffff1673ffffffffffffffffffffffffffffffffffffffff1663f1f31d66836040518263ffffffff1660e01b815260040161081091906144be565b61014060405180830381865afa15801561082c573d5f803e3d5ffd5b505050506040513d601f19601f820116820180604052508101906108509190614a3e565b90508060800151610c8d575f8573ffffffffffffffffffffffffffffffffffffffff166361ecbb44846040518263ffffffff1660e01b815260040161089591906144be565b602060405180830381865afa1580156108b0573d5f803e3d5ffd5b505050506040513d601f19601f820116820180604052508101906108d491906147a8565b90505f811115610c8b5760015f9054906101000a900473ffffffffffffffffffffffffffffffffffffffff1673ffffffffffffffffffffffffffffffffffffffff1663f9b6117f6040518163ffffffff1660e01b8152600401602060405180830381865afa158015610948573d5f803e3d5ffd5b505050506040513d601f19601f8201168201806040525081019061096c9190614aa5565b73ffffffffffffffffffffffffffffffffffffffff16631c20fadd8530846040518463ffffffff1660e01b81526004016109a893929190614ad0565b5f604051808303815f87803b1580156109bf575f80fd5b505af11580156109d1573d5f803e3d5ffd5b505050508373ffffffffffffffffffffffffffffffffffffffff1663095ea7b360015f9054906101000a900473ffffffffffffffffffffffffffffffffffffffff1673ffffffffffffffffffffffffffffffffffffffff1663092755e0876040518263ffffffff1660e01b8152600401610a4b91906145d8565b602060405180830381865afa158015610a66573d5f803e3d5ffd5b505050506040513d601f19601f82011682018060405250810190610a8a91906147e7565b836040518363ffffffff1660e01b8152600401610aa8929190614b05565b6020604051808303815f875af1158015610ac4573d5f803e3d5ffd5b505050506040513d601f19601f82011682018060405250810190610ae89190614b2c565b5060015f9054906101000a900473ffffffffffffffffffffffffffffffffffffffff1673ffffffffffffffffffffffffffffffffffffffff1663092755e0856040518263ffffffff1660e01b8152600401610b4391906145d8565b602060405180830381865afa158015610b5e573d5f803e3d5ffd5b505050506040513d601f19601f82011682018060405250810190610b8291906147e7565b73ffffffffffffffffffffffffffffffffffffffff16636e553f658260015f9054906101000a900473ffffffffffffffffffffffffffffffffffffffff1673ffffffffffffffffffffffffffffffffffffffff1663fbfa77cf6040518163ffffffff1660e01b8152600401602060405180830381865afa158015610c08573d5f803e3d5ffd5b505050506040513d601f19601f82011682018060405250810190610c2c9190614b92565b6040518363ffffffff1660e01b8152600401610c49929190614bbd565b6020604051808303815f875af1158015610c65573d5f803e3d5ffd5b505050506040513d601f19601f82011682018060405250810190610c8991906147a8565b505b505b505b5050808060010191505061062c565b5060015f9054906101000a900473ffffffffffffffffffffffffffffffffffffffff1673ffffffffffffffffffffffffffffffffffffffff16638baa6bf16040518163ffffffff1660e01b81526004015f604051808303815f87803b158015610d05575f80fd5b505af1158015610d17573d5f803e3d5ffd5b5050505050610d246122e8565b50565b6005602052805f5260405f205f915090505481565b6008602052805f5260405f205f915090505481565b5f610d5a61220d565b610d62612261565b60015f80828254610d739190614c11565b925050819055505f805b60015f9054906101000a900473ffffffffffffffffffffffffffffffffffffffff1673ffffffffffffffffffffffffffffffffffffffff166353fd43326040518163ffffffff1660e01b8152600401602060405180830381865afa158015610de7573d5f803e3d5ffd5b505050506040513d601f19601f82011682018060405250810190610e0b91906147a8565b811015610fb9575f60015f9054906101000a900473ffffffffffffffffffffffffffffffffffffffff1673ffffffffffffffffffffffffffffffffffffffff16639932ba4c836040518263ffffffff1660e01b8152600401610e6d91906144be565b602060405180830381865afa158015610e88573d5f803e3d5ffd5b505050506040513d601f19601f82011682018060405250810190610eac91906147e7565b90505f60015f9054906101000a900473ffffffffffffffffffffffffffffffffffffffff1673ffffffffffffffffffffffffffffffffffffffff1663efdf5053836040518263ffffffff1660e01b8152600401610f0991906145d8565b602060405180830381865afa158015610f24573d5f803e3d5ffd5b505050506040513d601f19601f82011682018060405250810190610f4891906147a8565b90508060065f805481526020019081526020015f205f8473ffffffffffffffffffffffffffffffffffffffff1673ffffffffffffffffffffffffffffffffffffffff1681526020019081526020015f20819055508084610fa89190614c11565b935050508080600101915050610d7d565b508060055f805481526020019081526020015f2081905550610fdc5f54826122ff565b5f54915050610fe96122e8565b90565b6009602052805f5260405f205f91509050805f0154908060010154905082565b611014612261565b61101c61291e565b565b5f805f60015f9054906101000a900473ffffffffffffffffffffffffffffffffffffffff1673ffffffffffffffffffffffffffffffffffffffff16631d1438486040518163ffffffff1660e01b8152600401602060405180830381865afa15801561108b573d5f803e3d5ffd5b505050506040513d601f19601f820116820180604052508101906110af9190614769565b90505f5b60015f9054906101000a900473ffffffffffffffffffffffffffffffffffffffff1673ffffffffffffffffffffffffffffffffffffffff166353fd43326040518163ffffffff1660e01b8152600401602060405180830381865afa15801561111d573d5f803e3d5ffd5b505050506040513d601f19601f8201168201806040525081019061114191906147a8565b811015611328575f60015f9054906101000a900473ffffffffffffffffffffffffffffffffffffffff1673ffffffffffffffffffffffffffffffffffffffff16639932ba4c836040518263ffffffff1660e01b81526004016111a391906144be565b602060405180830381865afa1580156111be573d5f803e3d5ffd5b505050506040513d601f19601f820116820180604052508101906111e291906147e7565b90505f60025f8881526020019081526020015f205f8373ffffffffffffffffffffffffffffffffffffffff1673ffffffffffffffffffffffffffffffffffffffff1681526020019081526020015f205490505f60035f8381526020019081526020015f205490505f8211801561125757505f81115b801561130557506002600381111561127257611271614c44565b5b60ff168573ffffffffffffffffffffffffffffffffffffffff166345fa8aae846040518263ffffffff1660e01b81526004016112ae91906144be565b602060405180830381865afa1580156112c9573d5f803e3d5ffd5b505050506040513d601f19601f820116820180604052508101906112ed9190614c94565b60038111156112ff576112fe614c44565b5b60ff1614155b15611318575f9650505050505050611330565b50505080806001019150506110b3565b506001925050505b919050565b5f8061133f61298c565b9050805f015f9054906101000a900460ff1691505090565b61135f61220d565b611367612261565b6113715f54611923565b6113b0576040517f08c379a00000000000000000000000000000000000000000000000000000000081526004016113a790614710565b60405180910390fd5b5f60055f8381526020019081526020015f205490505f60085f8481526020019081526020015f205490505f60015f9054906101000a900473ffffffffffffffffffffffffffffffffffffffff1673ffffffffffffffffffffffffffffffffffffffff16631d1438486040518163ffffffff1660e01b8152600401602060405180830381865afa158015611445573d5f803e3d5ffd5b505050506040513d601f19601f820116820180604052508101906114699190614769565b90505f805b60015f9054906101000a900473ffffffffffffffffffffffffffffffffffffffff1673ffffffffffffffffffffffffffffffffffffffff166353fd43326040518163ffffffff1660e01b8152600401602060405180830381865afa1580156114d8573d5f803e3d5ffd5b505050506040513d601f19601f820116820180604052508101906114fc91906147a8565b8110156117ca575f60015f9054906101000a900473ffffffffffffffffffffffffffffffffffffffff1673ffffffffffffffffffffffffffffffffffffffff16639932ba4c836040518263ffffffff1660e01b815260040161155e91906144be565b602060405180830381865afa158015611579573d5f803e3d5ffd5b505050506040513d601f19601f8201168201806040525081019061159d91906147e7565b90505f60025f8981526020019081526020015f205f8373ffffffffffffffffffffffffffffffffffffffff1673ffffffffffffffffffffffffffffffffffffffff1681526020019081526020015f205490505f8111156117bb575f60015f9054906101000a900473ffffffffffffffffffffffffffffffffffffffff1673ffffffffffffffffffffffffffffffffffffffff1663f1f31d66836040518263ffffffff1660e01b815260040161165291906144be565b61014060405180830381865afa15801561166e573d5f803e3d5ffd5b505050506040513d601f19601f820116820180604052508101906116929190614a3e565b90505f8160c0015190508160800151156117b8575f8773ffffffffffffffffffffffffffffffffffffffff166361ecbb44856040518263ffffffff1660e01b81526004016116e091906144be565b602060405180830381865afa1580156116fb573d5f803e3d5ffd5b505050506040513d601f19601f8201168201806040525081019061171f91906147a8565b90505f8873ffffffffffffffffffffffffffffffffffffffff166369352a90866040518263ffffffff1660e01b815260040161175b91906144be565b602060405180830381865afa158015611776573d5f803e3d5ffd5b505050506040513d601f19601f8201168201806040525081019061179a91906147a8565b905080826117a89190614cbf565b886117b39190614c11565b975050505b50505b5050808060010191505061146e565b506117d68584836129b3565b505050506117e26122e8565b50565b6117ed612261565b6117f65f613016565b565b5f811161183a576040517f08c379a000000000000000000000000000000000000000000000000000000000815260040161183190614d3c565b60405180910390fd5b5f60095f8381526020019081526020015f206040518060400160405290815f820154815260200160018201548152505090506005815f015103611889576118848160200151611357565b6118a3565b6006815f0151036118a2576118a18160200151610541565b5b5b5050565b6002602052815f5260405f20602052805f5260405f205f91509150505481565b6118cf612261565b6118d76130e7565b565b6004602052805f5260405f205f915090505481565b5f806118f8613156565b9050805f015f9054906101000a900473ffffffffffffffffffffffffffffffffffffffff1691505090565b5f805f60015f9054906101000a900473ffffffffffffffffffffffffffffffffffffffff1673ffffffffffffffffffffffffffffffffffffffff16631d1438486040518163ffffffff1660e01b8152600401602060405180830381865afa158015611990573d5f803e3d5ffd5b505050506040513d601f19601f820116820180604052508101906119b49190614769565b90505f5b60015f9054906101000a900473ffffffffffffffffffffffffffffffffffffffff1673ffffffffffffffffffffffffffffffffffffffff166353fd43326040518163ffffffff1660e01b8152600401602060405180830381865afa158015611a22573d5f803e3d5ffd5b505050506040513d601f19601f82011682018060405250810190611a4691906147a8565b811015611c2d575f60015f9054906101000a900473ffffffffffffffffffffffffffffffffffffffff1673ffffffffffffffffffffffffffffffffffffffff16639932ba4c836040518263ffffffff1660e01b8152600401611aa891906144be565b602060405180830381865afa158015611ac3573d5f803e3d5ffd5b505050506040513d601f19601f82011682018060405250810190611ae791906147e7565b90505f60025f8881526020019081526020015f205f8373ffffffffffffffffffffffffffffffffffffffff1673ffffffffffffffffffffffffffffffffffffffff1681526020019081526020015f205490505f60045f8381526020019081526020015f205490505f82118015611b5c57505f81115b8015611c0a575060026003811115611b7757611b76614c44565b5b60ff168573ffffffffffffffffffffffffffffffffffffffff166345fa8aae846040518263ffffffff1660e01b8152600401611bb391906144be565b602060405180830381865afa158015611bce573d5f803e3d5ffd5b505050506040513d601f19601f82011682018060405250810190611bf29190614c94565b6003811115611c0457611c03614c44565b5b60ff1614155b15611c1d575f9650505050505050611c35565b50505080806001019150506119b8565b506001925050505b919050565b5f8060015f9054906101000a900473ffffffffffffffffffffffffffffffffffffffff1673ffffffffffffffffffffffffffffffffffffffff16631d1438486040518163ffffffff1660e01b8152600401602060405180830381865afa158015611ca6573d5f803e3d5ffd5b505050506040513d601f19601f82011682018060405250810190611cca9190614769565b90505f808273ffffffffffffffffffffffffffffffffffffffff1663236970d45f60015f9054906101000a900473ffffffffffffffffffffffffffffffffffffffff1673ffffffffffffffffffffffffffffffffffffffff16633e413bee6040518163ffffffff1660e01b8152600401602060405180830381865afa158015611d55573d5f803e3d5ffd5b505050506040513d601f19601f82011682018060405250810190611d7991906147e7565b6040518363ffffffff1660e01b8152600401611d96929190614d5a565b6040805180830381865afa158015611db0573d5f803e3d5ffd5b505050506040513d601f19601f82011682018060405250810190611dd49190614db9565b915091505f82611de4838861317d565b611dee9190614cbf565b905080945050505050919050565b6003602052805f5260405f205f915090505481565b6006602052815f5260405f20602052805f5260405f205f91509150505481565b60015f9054906101000a900473ffffffffffffffffffffffffffffffffffffffff1681565b5f611e5f6131ba565b90505f815f0160089054906101000a900460ff161590505f825f015f9054906101000a900467ffffffffffffffff1690505f808267ffffffffffffffff16148015611ea75750825b90505f60018367ffffffffffffffff16148015611eda57505f3073ffffffffffffffffffffffffffffffffffffffff163b145b905081158015611ee8575080155b15611f1f576040517ff92ee8a900000000000000000000000000000000000000000000000000000000815260040160405180910390fd5b6001855f015f6101000a81548167ffffffffffffffff021916908367ffffffffffffffff1602179055508315611f6c576001855f0160086101000a81548160ff0219169083151502179055505b5f73ffffffffffffffffffffffffffffffffffffffff168673ffffffffffffffffffffffffffffffffffffffff1603611fda576040517f08c379a0000000000000000000000000000000000000000000000000000000008152600401611fd190614e41565b60405180910390fd5b8560015f6101000a81548173ffffffffffffffffffffffffffffffffffffffff021916908373ffffffffffffffffffffffffffffffffffffffff160217905550612023336131e1565b61202b6131f5565b612033613207565b831561208d575f855f0160086101000a81548160ff0219169083151502179055507fc7f505b2f371ae2175ee4913f4499e1f2633a7b5936321eed1cdaeb6115181d260016040516120849190614e98565b60405180910390a15b505050505050565b5f61209e612261565b8160015f6101000a81548173ffffffffffffffffffffffffffffffffffffffff021916908373ffffffffffffffffffffffffffffffffffffffff16021790555060019050919050565b6007602052815f5260405f20602052805f5260405f205f91509150505481565b5f8060095f8481526020019081526020015f206040518060400160405290815f820154815260200160018201548152505090506005815f01510361215a576121528160200151611923565b91505061217f565b6006815f01510361217a57612172816020015161101e565b91505061217f565b5f9150505b919050565b5f5481565b612191612261565b5f73ffffffffffffffffffffffffffffffffffffffff168173ffffffffffffffffffffffffffffffffffffffff1603612201575f6040517f1e4fbdf70000000000000000000000000000000000000000000000000000000081526004016121f891906145d8565b60405180910390fd5b61220a81613016565b50565b5f612216613219565b90506002815f015403612255576040517f3ee5aeb500000000000000000000000000000000000000000000000000000000815260040160405180910390fd5b6002815f018190555050565b612269613240565b73ffffffffffffffffffffffffffffffffffffffff166122876118ee565b73ffffffffffffffffffffffffffffffffffffffff16146122e6576122aa613240565b6040517f118cdaa70000000000000000000000000000000000000000000000000000000081526004016122dd91906145d8565b60405180910390fd5b565b5f6122f1613219565b90506001815f018190555050565b5f5b60015f9054906101000a900473ffffffffffffffffffffffffffffffffffffffff1673ffffffffffffffffffffffffffffffffffffffff166353fd43326040518163ffffffff1660e01b8152600401602060405180830381865afa15801561236b573d5f803e3d5ffd5b505050506040513d601f19601f8201168201806040525081019061238f91906147a8565b811015612919575f60015f9054906101000a900473ffffffffffffffffffffffffffffffffffffffff1673ffffffffffffffffffffffffffffffffffffffff16639932ba4c836040518263ffffffff1660e01b81526004016123f191906144be565b602060405180830381865afa15801561240c573d5f803e3d5ffd5b505050506040513d601f19601f8201168201806040525081019061243091906147e7565b90505f60065f8681526020019081526020015f205f8373ffffffffffffffffffffffffffffffffffffffff1673ffffffffffffffffffffffffffffffffffffffff1681526020019081526020015f205490505f60015f9054906101000a900473ffffffffffffffffffffffffffffffffffffffff1673ffffffffffffffffffffffffffffffffffffffff1663a08d7bd6846040518263ffffffff1660e01b81526004016124dd91906145d8565b602060405180830381865afa1580156124f8573d5f803e3d5ffd5b505050506040513d601f19601f8201168201806040525081019061251c91906147a8565b90505f8568056bc75e2d63100000846125359190614eb1565b61253f9190614f1f565b905060015f9054906101000a900473ffffffffffffffffffffffffffffffffffffffff1673ffffffffffffffffffffffffffffffffffffffff16634b3e0b80856040518263ffffffff1660e01b815260040161259b91906145d8565b602060405180830381865afa1580156125b6573d5f803e3d5ffd5b505050506040513d601f19601f820116820180604052508101906125da91906147a8565b8111156127e7575f8160015f9054906101000a900473ffffffffffffffffffffffffffffffffffffffff1673ffffffffffffffffffffffffffffffffffffffff16634b3e0b80876040518263ffffffff1660e01b815260040161263d91906145d8565b602060405180830381865afa158015612658573d5f803e3d5ffd5b505050506040513d601f19601f8201168201806040525081019061267c91906147a8565b846126879190614eb1565b6126919190614f1f565b8361269c9190614cbf565b90505f80612738878460015f9054906101000a900473ffffffffffffffffffffffffffffffffffffffff1673ffffffffffffffffffffffffffffffffffffffff1663f9b6117f6040518163ffffffff1660e01b8152600401602060405180830381865afa15801561270f573d5f803e3d5ffd5b505050506040513d601f19601f820116820180604052508101906127339190614aa5565b613247565b915091506040518060400160405280600581526020018b81525060095f8481526020019081526020015f205f820151815f0155602082015181600101559050508160025f8c81526020019081526020015f205f8973ffffffffffffffffffffffffffffffffffffffff1673ffffffffffffffffffffffffffffffffffffffff1681526020019081526020015f20819055508260045f8481526020019081526020015f2081905550505050612908565b5f8160015f9054906101000a900473ffffffffffffffffffffffffffffffffffffffff1673ffffffffffffffffffffffffffffffffffffffff16634b3e0b80876040518263ffffffff1660e01b815260040161284391906145d8565b602060405180830381865afa15801561285e573d5f803e3d5ffd5b505050506040513d601f19601f8201168201806040525081019061288291906147a8565b61288c9190614cbf565b90508060075f8a81526020019081526020015f205f8773ffffffffffffffffffffffffffffffffffffffff1673ffffffffffffffffffffffffffffffffffffffff1681526020019081526020015f20819055508060085f8a81526020019081526020015f205f8282546128ff9190614c11565b92505081905550505b505050508080600101915050612301565b505050565b612926613ab8565b5f61292f61298c565b90505f815f015f6101000a81548160ff0219169083151502179055507f5db9ee0a495bf2e6ff9c91a7834c1ba4fdd244a5e8aa4e537bd38aeae4b073aa612974613240565b60405161298191906145d8565b60405180910390a150565b5f7fcd5ed15c6e187e77e9aee88184c21f4f2182ab5827cb3b7e07fbedcd63f03300905090565b5f60015f9054906101000a900473ffffffffffffffffffffffffffffffffffffffff1673ffffffffffffffffffffffffffffffffffffffff16631d1438486040518163ffffffff1660e01b8152600401602060405180830381865afa158015612a1e573d5f803e3d5ffd5b505050506040513d601f19601f82011682018060405250810190612a429190614769565b90505f5b60015f9054906101000a900473ffffffffffffffffffffffffffffffffffffffff1673ffffffffffffffffffffffffffffffffffffffff166353fd43326040518163ffffffff1660e01b8152600401602060405180830381865afa158015612ab0573d5f803e3d5ffd5b505050506040513d601f19601f82011682018060405250810190612ad491906147a8565b81101561300f575f60015f9054906101000a900473ffffffffffffffffffffffffffffffffffffffff1673ffffffffffffffffffffffffffffffffffffffff16639932ba4c836040518263ffffffff1660e01b8152600401612b3691906144be565b602060405180830381865afa158015612b51573d5f803e3d5ffd5b505050506040513d601f19601f82011682018060405250810190612b7591906147e7565b90505f60075f8881526020019081526020015f205f8373ffffffffffffffffffffffffffffffffffffffff1673ffffffffffffffffffffffffffffffffffffffff1681526020019081526020015f205490505f811115613000575f868683612bdd9190614eb1565b612be79190614f1f565b90505f808673ffffffffffffffffffffffffffffffffffffffff1663236970d45f60015f9054906101000a900473ffffffffffffffffffffffffffffffffffffffff1673ffffffffffffffffffffffffffffffffffffffff16633e413bee6040518163ffffffff1660e01b8152600401602060405180830381865afa158015612c72573d5f803e3d5ffd5b505050506040513d601f19601f82011682018060405250810190612c9691906147e7565b6040518363ffffffff1660e01b8152600401612cb3929190614d5a565b6040805180830381865afa158015612ccd573d5f803e3d5ffd5b505050506040513d601f19601f82011682018060405250810190612cf19190614db9565b915091505f82612d01838661317d565b612d0b9190614cbf565b90505f612d188383613af8565b84612d239190614c11565b905060015f9054906101000a900473ffffffffffffffffffffffffffffffffffffffff1673ffffffffffffffffffffffffffffffffffffffff16633e413bee6040518163ffffffff1660e01b8152600401602060405180830381865afa158015612d8f573d5f803e3d5ffd5b505050506040513d601f19601f82011682018060405250810190612db391906147e7565b73ffffffffffffffffffffffffffffffffffffffff1663095ea7b360015f9054906101000a900473ffffffffffffffffffffffffffffffffffffffff1673ffffffffffffffffffffffffffffffffffffffff1663f9b6117f6040518163ffffffff1660e01b8152600401602060405180830381865afa158015612e38573d5f803e3d5ffd5b505050506040513d601f19601f82011682018060405250810190612e5c9190614aa5565b876040518363ffffffff1660e01b8152600401612e7a929190614b05565b6020604051808303815f875af1158015612e96573d5f803e3d5ffd5b505050506040513d601f19601f82011682018060405250810190612eba9190614b2c565b505f612f54888460015f9054906101000a900473ffffffffffffffffffffffffffffffffffffffff1673ffffffffffffffffffffffffffffffffffffffff1663f9b6117f6040518163ffffffff1660e01b8152600401602060405180830381865afa158015612f2b573d5f803e3d5ffd5b505050506040513d601f19601f82011682018060405250810190612f4f9190614aa5565b613b2c565b90506040518060400160405280600681526020018e81525060095f8381526020019081526020015f205f820151815f0155602082015181600101559050508060025f8f81526020019081526020015f205f8a73ffffffffffffffffffffffffffffffffffffffff1673ffffffffffffffffffffffffffffffffffffffff1681526020019081526020015f20819055508260035f8381526020019081526020015f20819055505050505050505b50508080600101915050612a46565b5050505050565b5f61301f613156565b90505f815f015f9054906101000a900473ffffffffffffffffffffffffffffffffffffffff16905082825f015f6101000a81548173ffffffffffffffffffffffffffffffffffffffff021916908373ffffffffffffffffffffffffffffffffffffffff1602179055508273ffffffffffffffffffffffffffffffffffffffff168173ffffffffffffffffffffffffffffffffffffffff167f8be0079c531659141344cd1fd0a4f28419497f9722a3daafe3b4186f6b6457e060405160405180910390a3505050565b6130ef613deb565b5f6130f861298c565b90506001815f015f6101000a81548160ff0219169083151502179055507f62e78cea01bee320cd4e420270b5ea74000d11b0c9f74754ebdbfc544b05a25861313e613240565b60405161314b91906145d8565b60405180910390a150565b5f7f9016d09d72d40fdae2fd8ceac6b6234c7706214fd39c1cd1e609a0528c199300905090565b5f808362ffffff1603613190575f6131b2565b6131b182620f424085620f42406131a79190614f4f565b62ffffff16613e2c565b5b905092915050565b5f7ff0c57e16840df040f15088dc2f81fe391c3923bec73e23a9662efc9c229c6a00905090565b6131e9613f3e565b6131f281613f7e565b50565b6131fd613f3e565b613205614002565b565b61320f613f3e565b613217614032565b565b5f7f9b779b17422d0df92223018b32b4d1fa46e071723d6817e2486d003becc55f00905090565b5f33905090565b5f805f60015f9054906101000a900473ffffffffffffffffffffffffffffffffffffffff1673ffffffffffffffffffffffffffffffffffffffff1663092755e0876040518263ffffffff1660e01b81526004016132a491906145d8565b602060405180830381865afa1580156132bf573d5f803e3d5ffd5b505050506040513d601f19601f820116820180604052508101906132e391906147e7565b905060015f9054906101000a900473ffffffffffffffffffffffffffffffffffffffff1673ffffffffffffffffffffffffffffffffffffffff1663fbfa77cf6040518163ffffffff1660e01b8152600401602060405180830381865afa15801561334f573d5f803e3d5ffd5b505050506040513d601f19601f820116820180604052508101906133739190614b92565b73ffffffffffffffffffffffffffffffffffffffff16631c20fadd8230886040518463ffffffff1660e01b81526004016133af93929190614ad0565b5f604051808303815f87803b1580156133c6575f80fd5b505af11580156133d8573d5f803e3d5ffd5b505050505f8173ffffffffffffffffffffffffffffffffffffffff1663ba0876528730306040518463ffffffff1660e01b815260040161341a93929190614f85565b6020604051808303815f875af1158015613436573d5f803e3d5ffd5b505050506040513d601f19601f8201168201806040525081019061345a91906147a8565b90505f60015f9054906101000a900473ffffffffffffffffffffffffffffffffffffffff1673ffffffffffffffffffffffffffffffffffffffff16631d1438486040518163ffffffff1660e01b8152600401602060405180830381865afa1580156134c7573d5f803e3d5ffd5b505050506040513d601f19601f820116820180604052508101906134eb9190614769565b90505f8173ffffffffffffffffffffffffffffffffffffffff1663fc75f9ed8a6040518263ffffffff1660e01b815260040161352791906145d8565b602060405180830381865afa158015613542573d5f803e3d5ffd5b505050506040513d601f19601f820116820180604052508101906135669190614ff0565b90505f600182613576919061501b565b600a613582919061517e565b8461358d91906151c8565b846135989190614cbf565b90505f81856135a79190614cbf565b90505f811115613737578a73ffffffffffffffffffffffffffffffffffffffff1663095ea7b387836040518363ffffffff1660e01b81526004016135ec929190614b05565b6020604051808303815f875af1158015613608573d5f803e3d5ffd5b505050506040513d601f19601f8201168201806040525081019061362c9190614b2c565b508573ffffffffffffffffffffffffffffffffffffffff16636e553f658260015f9054906101000a900473ffffffffffffffffffffffffffffffffffffffff1673ffffffffffffffffffffffffffffffffffffffff1663fbfa77cf6040518163ffffffff1660e01b8152600401602060405180830381865afa1580156136b4573d5f803e3d5ffd5b505050506040513d601f19601f820116820180604052508101906136d89190614b92565b6040518363ffffffff1660e01b81526004016136f5929190614bbd565b6020604051808303815f875af1158015613711573d5f803e3d5ffd5b505050506040513d601f19601f8201168201806040525081019061373591906147a8565b505b5f60015f9054906101000a900473ffffffffffffffffffffffffffffffffffffffff1673ffffffffffffffffffffffffffffffffffffffff1663b12279aa60016040518263ffffffff1660e01b81526004016137939190614518565b61014060405180830381865afa1580156137af573d5f803e3d5ffd5b505050506040513d601f19601f820116820180604052508101906137d39190614a3e565b90508b816040019073ffffffffffffffffffffffffffffffffffffffff16908173ffffffffffffffffffffffffffffffffffffffff1681525050828160c001818152505089816020019073ffffffffffffffffffffffffffffffffffffffff16908173ffffffffffffffffffffffffffffffffffffffff168152505061390760015f9054906101000a900473ffffffffffffffffffffffffffffffffffffffff1673ffffffffffffffffffffffffffffffffffffffff1663f9b6117f6040518163ffffffff1660e01b8152600401602060405180830381865afa1580156138bc573d5f803e3d5ffd5b505050506040513d601f19601f820116820180604052508101906138e09190614aa5565b848e73ffffffffffffffffffffffffffffffffffffffff166140519092919063ffffffff16565b5f60015f9054906101000a900473ffffffffffffffffffffffffffffffffffffffff1673ffffffffffffffffffffffffffffffffffffffff1663f9b6117f6040518163ffffffff1660e01b8152600401602060405180830381865afa158015613972573d5f803e3d5ffd5b505050506040513d601f19601f820116820180604052508101906139969190614aa5565b90505f8173ffffffffffffffffffffffffffffffffffffffff166366ca13448f878f6040518463ffffffff1660e01b81526004016139d6939291906151f8565b6020604051808303815f875af11580156139f2573d5f803e3d5ffd5b505050506040513d601f19601f82011682018060405250810190613a1691906147a8565b905060015f9054906101000a900473ffffffffffffffffffffffffffffffffffffffff1673ffffffffffffffffffffffffffffffffffffffff166335c5120482856040518363ffffffff1660e01b8152600401613a749291906153bf565b5f604051808303815f87803b158015613a8b575f80fd5b505af1158015613a9d573d5f803e3d5ffd5b5050505080859a509a50505050505050505050935093915050565b613ac0611335565b613af6576040517f8dfc202b00000000000000000000000000000000000000000000000000000000815260040160405180910390fd5b565b5f808362ffffff1603613b0b575f613b24565b613b23828462ffffff16620f424062ffffff166140d0565b5b905092915050565b5f8060015f9054906101000a900473ffffffffffffffffffffffffffffffffffffffff1673ffffffffffffffffffffffffffffffffffffffff1663b12279aa5f6040518263ffffffff1660e01b8152600401613b889190614518565b61014060405180830381865afa158015613ba4573d5f803e3d5ffd5b505050506040513d601f19601f82011682018060405250810190613bc89190614a3e565b905082816020019073ffffffffffffffffffffffffffffffffffffffff16908173ffffffffffffffffffffffffffffffffffffffff168152505084816040019073ffffffffffffffffffffffffffffffffffffffff16908173ffffffffffffffffffffffffffffffffffffffff1681525050838160e00181815250505f60015f9054906101000a900473ffffffffffffffffffffffffffffffffffffffff1673ffffffffffffffffffffffffffffffffffffffff1663f9b6117f6040518163ffffffff1660e01b8152600401602060405180830381865afa158015613caf573d5f803e3d5ffd5b505050506040513d601f19601f82011682018060405250810190613cd39190614aa5565b90505f8173ffffffffffffffffffffffffffffffffffffffff166312544d1b8888886040518463ffffffff1660e01b8152600401613d13939291906151f8565b6020604051808303815f875af1158015613d2f573d5f803e3d5ffd5b505050506040513d601f19601f82011682018060405250810190613d5391906147a8565b905060015f9054906101000a900473ffffffffffffffffffffffffffffffffffffffff1673ffffffffffffffffffffffffffffffffffffffff166335c5120482856040518363ffffffff1660e01b8152600401613db19291906153bf565b5f604051808303815f87803b158015613dc8575f80fd5b505af1158015613dda573d5f803e3d5ffd5b505050508093505050509392505050565b613df3611335565b15613e2a576040517fd93c066500000000000000000000000000000000000000000000000000000000815260040160405180910390fd5b565b5f805f80198587098587029250828110838203039150505f8103613e6457838281613e5a57613e59614ef2565b5b0492505050613f37565b838110613eac578585856040517f63a05778000000000000000000000000000000000000000000000000000000008152600401613ea3939291906153e7565b60405180910390fd5b5f8486880990508281118203915080830392505f6001861901861690505f81870496508185049450600182835f0304019050808402851794505f60028860030218905080880260020381029050808802600203810290508088026002038102905080880260020381029050808802600203810290508088026002038102905080860296505050505050505b9392505050565b613f466141e2565b613f7c576040517fd7e6bcf800000000000000000000000000000000000000000000000000000000815260040160405180910390fd5b565b613f86613f3e565b5f73ffffffffffffffffffffffffffffffffffffffff168173ffffffffffffffffffffffffffffffffffffffff1603613ff6575f6040517f1e4fbdf7000000000000000000000000000000000000000000000000000000008152600401613fed91906145d8565b60405180910390fd5b613fff81613016565b50565b61400a613f3e565b5f61401361298c565b90505f815f015f6101000a81548160ff02191690831515021790555050565b61403a613f3e565b5f614043613219565b90506001815f018190555050565b6140cb838473ffffffffffffffffffffffffffffffffffffffff1663a9059cbb8585604051602401614084929190614b05565b604051602081830303815290604052915060e01b6020820180517bffffffffffffffffffffffffffffffffffffffffffffffffffffffff8381831617835250505050614200565b505050565b5f805f80198587098587029250828110838203039150505f8103614108578382816140fe576140fd614ef2565b5b04925050506141db565b838110614150578585856040517f63a05778000000000000000000000000000000000000000000000000000000008152600401614147939291906153e7565b60405180910390fd5b5f8486880990508281118203915080830392505f6001861901861690505f81870496508185049450600182835f0304019050808402851794505f60028860030218905080880260020381029050808802600203810290508088026002038102905080880260020381029050808802600203810290508088026002038102905080860296505050505050505b9392505050565b5f6141eb6131ba565b5f0160089054906101000a900460ff16905090565b5f61422a828473ffffffffffffffffffffffffffffffffffffffff1661429590919063ffffffff16565b90505f81511415801561424e57508080602001905181019061424c9190614b2c565b155b1561429057826040517f5274afe700000000000000000000000000000000000000000000000000000000815260040161428791906145d8565b60405180910390fd5b505050565b60606142a283835f6142aa565b905092915050565b6060814710156142f157306040517fcd7860590000000000000000000000000000000000000000000000000000000081526004016142e891906145d8565b60405180910390fd5b5f808573ffffffffffffffffffffffffffffffffffffffff168486604051614319919061546e565b5f6040518083038185875af1925050503d805f8114614353576040519150601f19603f3d011682016040523d82523d5f602084013e614358565b606091505b5091509150614368868383614373565b925050509392505050565b6060826143885761438382614400565b6143f8565b5f82511480156143ae57505f8473ffffffffffffffffffffffffffffffffffffffff163b145b156143f057836040517f9996b3150000000000000000000000000000000000000000000000000000000081526004016143e791906145d8565b60405180910390fd5b8190506143f9565b5b9392505050565b5f815111156144125780518082602001fd5b6040517f1425ea4200000000000000000000000000000000000000000000000000000000815260040160405180910390fd5b5f604051905090565b5f80fd5b5f819050919050565b61446381614451565b811461446d575f80fd5b50565b5f8135905061447e8161445a565b92915050565b5f602082840312156144995761449861444d565b5b5f6144a684828501614470565b91505092915050565b6144b881614451565b82525050565b5f6020820190506144d15f8301846144af565b92915050565b5f6040820190506144ea5f8301856144af565b6144f760208301846144af565b9392505050565b5f8115159050919050565b614512816144fe565b82525050565b5f60208201905061452b5f830184614509565b92915050565b5f73ffffffffffffffffffffffffffffffffffffffff82169050919050565b5f61455a82614531565b9050919050565b61456a81614550565b8114614574575f80fd5b50565b5f8135905061458581614561565b92915050565b5f80604083850312156145a1576145a061444d565b5b5f6145ae85828601614470565b92505060206145bf85828601614577565b9150509250929050565b6145d281614550565b82525050565b5f6020820190506145eb5f8301846145c9565b92915050565b5f819050919050565b5f61461461460f61460a84614531565b6145f1565b614531565b9050919050565b5f614625826145fa565b9050919050565b5f6146368261461b565b9050919050565b6146468161462c565b82525050565b5f60208201905061465f5f83018461463d565b92915050565b5f6020828403121561467a5761467961444d565b5b5f61468784828501614577565b91505092915050565b5f82825260208201905092915050565b7f526562616c616e6365206f726465727320617265206e6f7420636f6d706c65745f8201527f6564000000000000000000000000000000000000000000000000000000000000602082015250565b5f6146fa602283614690565b9150614705826146a0565b604082019050919050565b5f6020820190508181035f830152614727816146ee565b9050919050565b5f61473882614550565b9050919050565b6147488161472e565b8114614752575f80fd5b50565b5f815190506147638161473f565b92915050565b5f6020828403121561477e5761477d61444d565b5b5f61478b84828501614755565b91505092915050565b5f815190506147a28161445a565b92915050565b5f602082840312156147bd576147bc61444d565b5b5f6147ca84828501614794565b91505092915050565b5f815190506147e181614561565b92915050565b5f602082840312156147fc576147fb61444d565b5b5f614809848285016147d3565b91505092915050565b5f80fd5b5f601f19601f8301169050919050565b7f4e487b71000000000000000000000000000000000000000000000000000000005f52604160045260245ffd5b61485c82614816565b810181811067ffffffffffffffff8211171561487b5761487a614826565b5b80604052505050565b5f61488d614444565b90506148998282614853565b919050565b5f67ffffffffffffffff82169050919050565b6148ba8161489e565b81146148c4575f80fd5b50565b5f815190506148d5816148b1565b92915050565b6148e4816144fe565b81146148ee575f80fd5b50565b5f815190506148ff816148db565b92915050565b60028110614911575f80fd5b50565b5f8151905061492281614905565b92915050565b60048110614934575f80fd5b50565b5f8151905061494581614928565b92915050565b5f610140828403121561496157614960614812565b5b61496c610140614884565b90505f61497b848285016148c7565b5f83015250602061498e848285016147d3565b60208301525060406149a2848285016147d3565b60408301525060606149b6848285016147d3565b60608301525060806149ca848285016148f1565b60808301525060a06149de84828501614914565b60a08301525060c06149f284828501614794565b60c08301525060e0614a0684828501614794565b60e083015250610100614a1b84828501614794565b61010083015250610120614a3184828501614937565b6101208301525092915050565b5f6101408284031215614a5457614a5361444d565b5b5f614a618482850161494b565b91505092915050565b5f614a7482614550565b9050919050565b614a8481614a6a565b8114614a8e575f80fd5b50565b5f81519050614a9f81614a7b565b92915050565b5f60208284031215614aba57614ab961444d565b5b5f614ac784828501614a91565b91505092915050565b5f606082019050614ae35f8301866145c9565b614af060208301856145c9565b614afd60408301846144af565b949350505050565b5f604082019050614b185f8301856145c9565b614b2560208301846144af565b9392505050565b5f60208284031215614b4157614b4061444d565b5b5f614b4e848285016148f1565b91505092915050565b5f614b6182614550565b9050919050565b614b7181614b57565b8114614b7b575f80fd5b50565b5f81519050614b8c81614b68565b92915050565b5f60208284031215614ba757614ba661444d565b5b5f614bb484828501614b7e565b91505092915050565b5f604082019050614bd05f8301856144af565b614bdd60208301846145c9565b9392505050565b7f4e487b71000000000000000000000000000000000000000000000000000000005f52601160045260245ffd5b5f614c1b82614451565b9150614c2683614451565b9250828201905080821115614c3e57614c3d614be4565b5b92915050565b7f4e487b71000000000000000000000000000000000000000000000000000000005f52602160045260245ffd5b60048110614c7d575f80fd5b50565b5f81519050614c8e81614c71565b92915050565b5f60208284031215614ca957614ca861444d565b5b5f614cb684828501614c80565b91505092915050565b5f614cc982614451565b9150614cd483614451565b9250828203905081811115614cec57614ceb614be4565b5b92915050565b7f496e76616c6964207265717565737420696400000000000000000000000000005f82015250565b5f614d26601283614690565b9150614d3182614cf2565b602082019050919050565b5f6020820190508181035f830152614d5381614d1a565b9050919050565b5f604082019050614d6d5f830185614509565b614d7a60208301846145c9565b9392505050565b5f62ffffff82169050919050565b614d9881614d81565b8114614da2575f80fd5b50565b5f81519050614db381614d8f565b92915050565b5f8060408385031215614dcf57614dce61444d565b5b5f614ddc85828601614794565b9250506020614ded85828601614da5565b9150509250929050565b7f696e76616c696420746f6b656e206164647265737300000000000000000000005f82015250565b5f614e2b601583614690565b9150614e3682614df7565b602082019050919050565b5f6020820190508181035f830152614e5881614e1f565b9050919050565b5f819050919050565b5f614e82614e7d614e7884614e5f565b6145f1565b61489e565b9050919050565b614e9281614e68565b82525050565b5f602082019050614eab5f830184614e89565b92915050565b5f614ebb82614451565b9150614ec683614451565b9250828202614ed481614451565b91508282048414831517614eeb57614eea614be4565b5b5092915050565b7f4e487b71000000000000000000000000000000000000000000000000000000005f52601260045260245ffd5b5f614f2982614451565b9150614f3483614451565b925082614f4457614f43614ef2565b5b828204905092915050565b5f614f5982614d81565b9150614f6483614d81565b9250828201905062ffffff811115614f7f57614f7e614be4565b5b92915050565b5f606082019050614f985f8301866144af565b614fa560208301856145c9565b614fb260408301846145c9565b949350505050565b5f60ff82169050919050565b614fcf81614fba565b8114614fd9575f80fd5b50565b5f81519050614fea81614fc6565b92915050565b5f602082840312156150055761500461444d565b5b5f61501284828501614fdc565b91505092915050565b5f61502582614fba565b915061503083614fba565b9250828203905060ff81111561504957615048614be4565b5b92915050565b5f8160011c9050919050565b5f808291508390505b60018511156150a4578086048111156150805761507f614be4565b5b600185161561508f5780820291505b808102905061509d8561504f565b9450615064565b94509492505050565b5f826150bc5760019050615177565b816150c9575f9050615177565b81600181146150df57600281146150e957615118565b6001915050615177565b60ff8411156150fb576150fa614be4565b5b8360020a91508482111561511257615111614be4565b5b50615177565b5060208310610133831016604e8410600b841016171561514d5782820a90508381111561514857615147614be4565b5b615177565b61515a848484600161505b565b9250905081840481111561517157615170614be4565b5b81810290505b9392505050565b5f61518882614451565b915061519383614fba565b92506151c07fffffffffffffffffffffffffffffffffffffffffffffffffffffffffffffffff84846150ad565b905092915050565b5f6151d282614451565b91506151dd83614451565b9250826151ed576151ec614ef2565b5b828206905092915050565b5f60608201905061520b5f8301866145c9565b61521860208301856144af565b61522560408301846145c9565b949350505050565b6152368161489e565b82525050565b61524581614550565b82525050565b615254816144fe565b82525050565b6002811061526b5761526a614c44565b5b50565b5f81905061527b8261525a565b919050565b5f61528a8261526e565b9050919050565b61529a81615280565b82525050565b6152a981614451565b82525050565b600481106152c0576152bf614c44565b5b50565b5f8190506152d0826152af565b919050565b5f6152df826152c3565b9050919050565b6152ef816152d5565b82525050565b61014082015f82015161530a5f85018261522d565b50602082015161531d602085018261523c565b506040820151615330604085018261523c565b506060820151615343606085018261523c565b506080820151615356608085018261524b565b5060a082015161536960a0850182615291565b5060c082015161537c60c08501826152a0565b5060e082015161538f60e08501826152a0565b506101008201516153a46101008501826152a0565b506101208201516153b96101208501826152e6565b50505050565b5f610160820190506153d35f8301856144af565b6153e060208301846152f5565b9392505050565b5f6060820190506153fa5f8301866144af565b61540760208301856144af565b61541460408301846144af565b949350505050565b5f81519050919050565b5f81905092915050565b8281835e5f83830152505050565b5f6154488261541c565b6154528185615426565b9350615462818560208601615430565b80840191505092915050565b5f615479828461543e565b91508190509291505056fea264697066735822122055873d93824ec6a0aff6e547cd1510c71ea627f6eebb387babfe209e3443b65c64736f6c63430008190033","linkReferences":{}},"methodIdentifiers":{"actionInfoById(uint256)":"3c1f70ca","checkFirstRebalanceOrdersStatus(uint256)":"92318df4","checkMultical(uint256)":"e16e554a","checkSecondRebalanceOrdersStatus(uint256)":"558f1aa8","completeRebalanceActions(uint256)":"263e0d51","estimateAmountAfterFee(uint256)":"9e76d0cb","factoryStorage()":"c06e1ae2","firstRebalanceAction()":"32f53f3c","initialize(address)":"c4d66de8","multical(uint256)":"73b774ed","owner()":"8da5cb5b","pause()":"8456cb59","paused()":"5c975abb","portfolioValueByNonce(uint256)":"2badae5d","rebalanceBuyPayedAmountById(uint256)":"ab935bb2","rebalanceNonce()":"edca4f5e","rebalanceRequestId(uint256,address)":"75a3cb57","rebalanceSellAssetAmountById(uint256)":"8d6983c7","renounceOwnership()":"715018a6","secondRebalanceAction(uint256)":"643ee27f","setIndexFactoryStorage(address)":"cc8659ae","tokenShortagePercentByNonce(uint256,address)":"db5c1a12","tokenValueByNonce(uint256,address)":"b316e7fd","totalShortagePercentByNonce(uint256)":"2ca49334","transferOwnership(address)":"f2fde38b","unpause()":"3f4ba83a"},"id":19}