{"abi":[{"type":"function","name":"allowance","inputs":[{"name":"owner","type":"address","internalType":"address"},{"name":"spender","type":"address","internalType":"address"}],"outputs":[{"name":"","type":"uint256","internalType":"uint256"}],"stateMutability":"view"},{"type":"function","name":"approve","inputs":[{"name":"spender","type":"address","internalType":"address"},{"name":"value","type":"uint256","internalType":"uint256"}],"outputs":[{"name":"","type":"bool","internalType":"bool"}],"stateMutability":"nonpayable"},{"type":"function","name":"balanceOf","inputs":[{"name":"account","type":"address","internalType":"address"}],"outputs":[{"name":"","type":"uint256","internalType":"uint256"}],"stateMutability":"view"},{"type":"function","name":"burn","inputs":[{"name":"from","type":"address","internalType":"address"},{"name":"amount","type":"uint256","internalType":"uint256"}],"outputs":[],"stateMutability":"nonpayable"},{"type":"function","name":"decimals","inputs":[],"outputs":[{"name":"","type":"uint8","internalType":"uint8"}],"stateMutability":"view"},{"type":"function","name":"feeRatePerDayScaled","inputs":[],"outputs":[{"name":"","type":"uint256","internalType":"uint256"}],"stateMutability":"view"},{"type":"function","name":"feeReceiver","inputs":[],"outputs":[{"name":"","type":"address","internalType":"address"}],"stateMutability":"view"},{"type":"function","name":"feeTimestamp","inputs":[],"outputs":[{"name":"","type":"uint256","internalType":"uint256"}],"stateMutability":"view"},{"type":"function","name":"initialize","inputs":[{"name":"tokenName","type":"string","internalType":"string"},{"name":"tokenSymbol","type":"string","internalType":"string"},{"name":"_feeRatePerDayScaled","type":"uint256","internalType":"uint256"},{"name":"_feeReceiver","type":"address","internalType":"address"},{"name":"_supplyCeiling","type":"uint256","internalType":"uint256"}],"outputs":[],"stateMutability":"nonpayable"},{"type":"function","name":"isRestricted","inputs":[{"name":"","type":"address","internalType":"address"}],"outputs":[{"name":"","type":"bool","internalType":"bool"}],"stateMutability":"view"},{"type":"function","name":"methodologist","inputs":[],"outputs":[{"name":"","type":"address","internalType":"address"}],"stateMutability":"view"},{"type":"function","name":"methodology","inputs":[],"outputs":[{"name":"","type":"string","internalType":"string"}],"stateMutability":"view"},{"type":"function","name":"mint","inputs":[{"name":"to","type":"address","internalType":"address"},{"name":"amount","type":"uint256","internalType":"uint256"}],"outputs":[],"stateMutability":"nonpayable"},{"type":"function","name":"mintToFeeReceiver","inputs":[],"outputs":[],"stateMutability":"nonpayable"},{"type":"function","name":"minter","inputs":[],"outputs":[{"name":"","type":"address","internalType":"address"}],"stateMutability":"view"},{"type":"function","name":"name","inputs":[],"outputs":[{"name":"","type":"string","internalType":"string"}],"stateMutability":"view"},{"type":"function","name":"owner","inputs":[],"outputs":[{"name":"","type":"address","internalType":"address"}],"stateMutability":"view"},{"type":"function","name":"pause","inputs":[],"outputs":[],"stateMutability":"nonpayable"},{"type":"function","name":"paused","inputs":[],"outputs":[{"name":"","type":"bool","internalType":"bool"}],"stateMutability":"view"},{"type":"function","name":"proposeOwner","inputs":[{"name":"_proposedOwner","type":"address","internalType":"address"}],"outputs":[],"stateMutability":"nonpayable"},{"type":"function","name":"proposedOwner","inputs":[],"outputs":[{"name":"","type":"address","internalType":"address"}],"stateMutability":"view"},{"type":"function","name":"renounceOwnership","inputs":[],"outputs":[],"stateMutability":"nonpayable"},{"type":"function","name":"setFeeRate","inputs":[{"name":"_feeRatePerDayScaled","type":"uint256","internalType":"uint256"}],"outputs":[],"stateMutability":"nonpayable"},{"type":"function","name":"setFeeReceiver","inputs":[{"name":"_feeReceiver","type":"address","internalType":"address"}],"outputs":[],"stateMutability":"nonpayable"},{"type":"function","name":"setMethodologist","inputs":[{"name":"_methodologist","type":"address","internalType":"address"}],"outputs":[],"stateMutability":"nonpayable"},{"type":"function","name":"setMethodology","inputs":[{"name":"_methodology","type":"string","internalType":"string"}],"outputs":[],"stateMutability":"nonpayable"},{"type":"function","name":"setMinter","inputs":[{"name":"_minter","type":"address","internalType":"address"}],"outputs":[],"stateMutability":"nonpayable"},{"type":"function","name":"setSupplyCeiling","inputs":[{"name":"_supplyCeiling","type":"uint256","internalType":"uint256"}],"outputs":[],"stateMutability":"nonpayable"},{"type":"function","name":"supplyCeiling","inputs":[],"outputs":[{"name":"","type":"uint256","internalType":"uint256"}],"stateMutability":"view"},{"type":"function","name":"symbol","inputs":[],"outputs":[{"name":"","type":"string","internalType":"string"}],"stateMutability":"view"},{"type":"function","name":"toggleRestriction","inputs":[{"name":"who","type":"address","internalType":"address"}],"outputs":[],"stateMutability":"nonpayable"},{"type":"function","name":"totalSupply","inputs":[],"outputs":[{"name":"","type":"uint256","internalType":"uint256"}],"stateMutability":"view"},{"type":"function","name":"transfer","inputs":[{"name":"to","type":"address","internalType":"address"},{"name":"amount","type":"uint256","internalType":"uint256"}],"outputs":[{"name":"","type":"bool","internalType":"bool"}],"stateMutability":"nonpayable"},{"type":"function","name":"transferFrom","inputs":[{"name":"from","type":"address","internalType":"address"},{"name":"to","type":"address","internalType":"address"},{"name":"amount","type":"uint256","internalType":"uint256"}],"outputs":[{"name":"","type":"bool","internalType":"bool"}],"stateMutability":"nonpayable"},{"type":"function","name":"transferOwnership","inputs":[{"name":"newOwner","type":"address","internalType":"address"}],"outputs":[],"stateMutability":"nonpayable"},{"type":"function","name":"unpause","inputs":[],"outputs":[],"stateMutability":"nonpayable"},{"type":"event","name":"Approval","inputs":[{"name":"owner","type":"address","indexed":true,"internalType":"address"},{"name":"spender","type":"address","indexed":true,"internalType":"address"},{"name":"value","type":"uint256","indexed":false,"internalType":"uint256"}],"anonymous":false},{"type":"event","name":"FeeRateSet","inputs":[{"name":"feeRatePerDayScaled","type":"uint256","indexed":true,"internalType":"uint256"}],"anonymous":false},{"type":"event","name":"FeeReceiverSet","inputs":[{"name":"feeReceiver","type":"address","indexed":true,"internalType":"address"}],"anonymous":false},{"type":"event","name":"Initialized","inputs":[{"name":"version","type":"uint64","indexed":false,"internalType":"uint64"}],"anonymous":false},{"type":"event","name":"MethodologistSet","inputs":[{"name":"methodologist","type":"address","indexed":true,"internalType":"address"}],"anonymous":false},{"type":"event","name":"MethodologySet","inputs":[{"name":"methodology","type":"string","indexed":false,"internalType":"string"}],"anonymous":false},{"type":"event","name":"MintFeeToReceiver","inputs":[{"name":"feeReceiver","type":"address","indexed":false,"internalType":"address"},{"name":"timestamp","type":"uint256","indexed":false,"internalType":"uint256"},{"name":"totalSupply","type":"uint256","indexed":false,"internalType":"uint256"},{"name":"amount","type":"uint256","indexed":false,"internalType":"uint256"}],"anonymous":false},{"type":"event","name":"MinterSet","inputs":[{"name":"minter","type":"address","indexed":true,"internalType":"address"}],"anonymous":false},{"type":"event","name":"OwnershipTransferred","inputs":[{"name":"previousOwner","type":"address","indexed":true,"internalType":"address"},{"name":"newOwner","type":"address","indexed":true,"internalType":"address"}],"anonymous":false},{"type":"event","name":"Paused","inputs":[{"name":"account","type":"address","indexed":false,"internalType":"address"}],"anonymous":false},{"type":"event","name":"SupplyCeilingSet","inputs":[{"name":"supplyCeiling","type":"uint256","indexed":false,"internalType":"uint256"}],"anonymous":false},{"type":"event","name":"ToggledRestricted","inputs":[{"name":"account","type":"address","indexed":true,"internalType":"address"},{"name":"isRestricted","type":"bool","indexed":false,"internalType":"bool"}],"anonymous":false},{"type":"event","name":"Transfer","inputs":[{"name":"from","type":"address","indexed":true,"internalType":"address"},{"name":"to","type":"address","indexed":true,"internalType":"address"},{"name":"value","type":"uint256","indexed":false,"internalType":"uint256"}],"anonymous":false},{"type":"event","name":"Unpaused","inputs":[{"name":"account","type":"address","indexed":false,"internalType":"address"}],"anonymous":false},{"type":"error","name":"ERC20InsufficientAllowance","inputs":[{"name":"spender","type":"address","internalType":"address"},{"name":"allowance","type":"uint256","internalType":"uint256"},{"name":"needed","type":"uint256","internalType":"uint256"}]},{"type":"error","name":"ERC20InsufficientBalance","inputs":[{"name":"sender","type":"address","internalType":"address"},{"name":"balance","type":"uint256","internalType":"uint256"},{"name":"needed","type":"uint256","internalType":"uint256"}]},{"type":"error","name":"ERC20InvalidApprover","inputs":[{"name":"approver","type":"address","internalType":"address"}]},{"type":"error","name":"ERC20InvalidReceiver","inputs":[{"name":"receiver","type":"address","internalType":"address"}]},{"type":"error","name":"ERC20InvalidSender","inputs":[{"name":"sender","type":"address","internalType":"address"}]},{"type":"error","name":"ERC20InvalidSpender","inputs":[{"name":"spender","type":"address","internalType":"address"}]},{"type":"error","name":"EnforcedPause","inputs":[]},{"type":"error","name":"ExpectedPause","inputs":[]},{"type":"error","name":"InvalidInitialization","inputs":[]},{"type":"error","name":"NotInitializing","inputs":[]},{"type":"error","name":"OwnableInvalidOwner","inputs":[{"name":"owner","type":"address","internalType":"address"}]},{"type":"error","name":"OwnableUnauthorizedAccount","inputs":[{"name":"account","type":"address","internalType":"address"}]}],"bytecode":{"object":"0x6080604052348015600f57600080fd5b50611dfa8061001f6000396000f3fe608060405234801561001057600080fd5b506004361061021c5760003560e01c80638da5cb5b11610125578063b5ed298a116100ad578063efdcd9741161007c578063efdcd974146104ab578063f2fde38b146104be578063f734e22a146104d1578063fca3b5aa146104d9578063fede0276146104ec57600080fd5b8063b5ed298a1461044f578063c01bc98214610462578063d153b60c14610485578063dd62ed3e1461049857600080fd5b80639eeb1d50116100f45780639eeb1d50146103fb5780639f8e67bf14610403578063a9059cbb14610416578063aaa4a18414610429578063b3f006741461043c57600080fd5b80638da5cb5b1461039d57806391fe1b92146103cd57806395d89b41146103e05780639dc29fac146103e857600080fd5b80633f4ba83a116101a8578063660db48411610177578063660db484146103315780636e01a6861461034457806370a0823114610357578063715018a61461038d5780638456cb591461039557600080fd5b80633f4ba83a146102e957806340c10f19146102f357806345596e2e146103065780635c975abb1461031957600080fd5b8063184a732f116101ef578063184a732f146102ac57806323b872dd146102b55780632b52684d146102c85780632fecd589146102d1578063313ce567146102da57600080fd5b806306fdde0314610221578063075461721461023f578063095ea7b31461026a57806318160ddd1461028d575b600080fd5b6102296104ff565b604051610236919061180b565b60405180910390f35b603754610252906001600160a01b031681565b6040516001600160a01b039091168152602001610236565b61027d610278366004611876565b6105c2565b6040519015158152602001610236565b600080516020611d85833981519152545b604051908152602001610236565b61029e60345481565b61027d6102c33660046118a0565b6105dc565b61029e60395481565b61029e60335481565b60405160128152602001610236565b6102f16106d6565b005b6102f1610301366004611876565b6106e8565b6102f16103143660046118dc565b61080b565b600080516020611da58339815191525460ff1661027d565b6102f161033f3660046118f5565b61084e565b6102f16103523660046118dc565b6108b3565b61029e6103653660046118f5565b6001600160a01b03166000908152600080516020611d65833981519152602052604090205490565b6102f16108f7565b6102f1610909565b7f9016d09d72d40fdae2fd8ceac6b6234c7706214fd39c1cd1e609a0528c199300546001600160a01b0316610252565b6102f16103db3660046119ba565b610919565b6102296109c3565b6102f16103f6366004611876565b610a02565b610229610ad4565b603654610252906001600160a01b031681565b61027d610424366004611876565b610b62565b6102f16104373660046118f5565b610be9565b603554610252906001600160a01b031681565b6102f161045d3660046118f5565b610c5c565b61027d6104703660046118f5565b603a6020526000908152604090205460ff1681565b600054610252906001600160a01b031681565b61029e6104a63660046119f7565b610cac565b6102f16104b93660046118f5565b610cf6565b6102f16104cc3660046118f5565b610d5b565b6102f1610e83565b6102f16104e73660046118f5565b610e93565b6102f16104fa366004611a2a565b610ef8565b7f52c63247e1f47db19d5ce0460030c497f067ca4cebf71ba98eeadabe20bace038054606091600080516020611d658339815191529161053e90611ab0565b80601f016020809104026020016040519081016040528092919081815260200182805461056a90611ab0565b80156105b75780601f1061058c576101008083540402835291602001916105b7565b820191906000526020600020905b81548152906001019060200180831161059a57829003601f168201915b505050505091505090565b6000336105d0818585611062565b60019150505b92915050565b60006105e6611074565b336000908152603a602052604090205460ff161561061f5760405162461bcd60e51b815260040161061690611aea565b60405180910390fd5b6001600160a01b0383166000908152603a602052604090205460ff16156106585760405162461bcd60e51b815260040161061690611b21565b6001600160a01b0384166000908152603a602052604090205460ff16156106b65760405162461bcd60e51b8152602060048201526012602482015271199c9bdb481a5cc81c995cdd1c9a58dd195960721b6044820152606401610616565b6106c18433846110a5565b6106cc84848461110b565b5060019392505050565b6106de61116a565b6106e66111c5565b565b6106f0611074565b6037546001600160a01b0316331461071a5760405162461bcd60e51b815260040161061690611b4b565b60395481610734600080516020611d858339815191525490565b61073e9190611ba5565b111561078c5760405162461bcd60e51b815260206004820152601a60248201527f77696c6c2065786365656420737570706c79206365696c696e670000000000006044820152606401610616565b6001600160a01b0382166000908152603a602052604090205460ff16156107c55760405162461bcd60e51b815260040161061690611b21565b336000908152603a602052604090205460ff16156107f55760405162461bcd60e51b815260040161061690611aea565b6107fd61121f565b6108078282611367565b5050565b61081361116a565b61081b61121f565b603381905560405181907f45398c451b1a31b88dbaed4e7b89a632f43cc4b50149d437db03a5300afe40d190600090a250565b61085661116a565b6001600160a01b03811661086957600080fd5b603680546001600160a01b0319166001600160a01b0383169081179091556040517f164d8ef0d742b45087644f55c61abeb84557df70d06730591e451f0981e278ca90600090a250565b6108bb61116a565b60398190556040518181527fe35be406f69e9d11d6ac8e5b54bbc8b6c4baf2fa2359f84a56baa5ea5d07dc8f906020015b60405180910390a150565b6108ff61116a565b6106e6600061139d565b61091161116a565b6106e661140e565b6036546001600160a01b031633146109875760405162461bcd60e51b815260206004820152602b60248201527f496e646578546f6b656e3a2063616c6c6572206973206e6f7420746865206d6560448201526a1d1a1bd91bdb1bd9da5cdd60aa1b6064820152608401610616565b60386109938282611c08565b507fe6be68107100e39cb16d675c1086a4d5479fbd01108d721dabbccaa2249b995f816040516108ec919061180b565b7f52c63247e1f47db19d5ce0460030c497f067ca4cebf71ba98eeadabe20bace048054606091600080516020611d658339815191529161053e90611ab0565b610a0a611074565b6037546001600160a01b03163314610a345760405162461bcd60e51b815260040161061690611b4b565b6001600160a01b0382166000908152603a602052604090205460ff1615610a925760405162461bcd60e51b8152602060048201526012602482015271199c9bdb481a5cc81c995cdd1c9a58dd195960721b6044820152606401610616565b336000908152603a602052604090205460ff1615610ac25760405162461bcd60e51b815260040161061690611aea565b610aca61121f565b6108078282611457565b60388054610ae190611ab0565b80601f0160208091040260200160405190810160405280929190818152602001828054610b0d90611ab0565b8015610b5a5780601f10610b2f57610100808354040283529160200191610b5a565b820191906000526020600020905b815481529060010190602001808311610b3d57829003601f168201915b505050505081565b6000610b6c611074565b336000908152603a602052604090205460ff1615610b9c5760405162461bcd60e51b815260040161061690611aea565b6001600160a01b0383166000908152603a602052604090205460ff1615610bd55760405162461bcd60e51b815260040161061690611b21565b610be033848461110b565b50600192915050565b610bf161116a565b6001600160a01b0381166000818152603a602052604090819020805460ff19811660ff9182161590811790925591517f14ddf324cc5d8b14a3c3b12c84b0a7d578d72c8d60655c06d6a457e71431d5ee92610c5192161515815260200190565b60405180910390a250565b610c6461116a565b6001600160a01b038116610c8a5760405162461bcd60e51b815260040161061690611cc8565b600080546001600160a01b0319166001600160a01b0392909216919091179055565b6001600160a01b0391821660009081527f52c63247e1f47db19d5ce0460030c497f067ca4cebf71ba98eeadabe20bace016020908152604080832093909416825291909152205490565b610cfe61116a565b6001600160a01b038116610d1157600080fd5b603580546001600160a01b0319166001600160a01b0383169081179091556040517fbdf37c276f641820b141429d245add2552b4118c0866e5a78638e3de5ef18d9d90600090a250565b6001600160a01b038116610d815760405162461bcd60e51b815260040161061690611cc8565b6000546001600160a01b03828116911614610df95760405162461bcd60e51b815260206004820152603260248201527f50726f706f7361626c654f776e61626c653a206e6577206f776e6572206973206044820152713737ba10383937b837b9b2b21037bbb732b960711b6064820152608401610616565b6001600160a01b0381163314610e775760405162461bcd60e51b815260206004820152603a60248201527f50726f706f7361626c654f776e61626c653a20746869732063616c6c206d757360448201527f74206265206d61646520627920746865206e6577206f776e65720000000000006064820152608401610616565b610e808161139d565b50565b610e8b61116a565b6106e661121f565b610e9b61116a565b6001600160a01b038116610eae57600080fd5b603780546001600160a01b0319166001600160a01b0383169081179091556040517f726b590ef91a8c76ad05bbe91a57ef84605276528f49cd47d787f558a4e755b690600090a250565b7ff0c57e16840df040f15088dc2f81fe391c3923bec73e23a9662efc9c229c6a008054600160401b810460ff16159067ffffffffffffffff16600081158015610f3e5750825b905060008267ffffffffffffffff166001148015610f5b5750303b155b905081158015610f69575080155b15610f875760405163f92ee8a960e01b815260040160405180910390fd5b845467ffffffffffffffff191660011785558315610fb157845460ff60401b1916600160401b1785555b6001600160a01b038716610fc457600080fd5b610fcd3361148d565b610fd561149e565b610fdf8a8a6114ae565b610fe76114c0565b6033889055603580546001600160a01b0319166001600160a01b038916179055603986905542603455831561105657845460ff60401b19168555604051600181527fc7f505b2f371ae2175ee4913f4499e1f2633a7b5936321eed1cdaeb6115181d29060200160405180910390a15b50505050505050505050565b61106f83838360016114c8565b505050565b600080516020611da58339815191525460ff16156106e65760405163d93c066560e01b815260040160405180910390fd5b60006110b18484610cac565b9050600019811461110557818110156110f657604051637dc7a0d960e11b81526001600160a01b03841660048201526024810182905260448101839052606401610616565b611105848484840360006114c8565b50505050565b6001600160a01b03831661113557604051634b637e8f60e11b815260006004820152602401610616565b6001600160a01b03821661115f5760405163ec442f0560e01b815260006004820152602401610616565b61106f8383836115b0565b3361119c7f9016d09d72d40fdae2fd8ceac6b6234c7706214fd39c1cd1e609a0528c199300546001600160a01b031690565b6001600160a01b0316146106e65760405163118cdaa760e01b8152336004820152602401610616565b6111cd6116ee565b600080516020611da5833981519152805460ff191681557f5db9ee0a495bf2e6ff9c91a7834c1ba4fdd244a5e8aa4e537bd38aeae4b073aa335b6040516001600160a01b0390911681526020016108ec565b600062015180603454426112339190611d18565b61123d9190611d2b565b905060018110610e8057600061125f600080516020611d858339815191525490565b603354909150819060005b848110156112a45768056bc75e2d631000006112868385611d4d565b6112909190611d2b565b61129a9084611ba5565b925060010161126a565b5060006112b18484611d18565b90506112c08562015180611d4d565b603460008282546112d19190611ba5565b90915550506035546112ec906001600160a01b031682611367565b6035547f07982395c678b2ffc23fcf59aaec243ca79418c285af0d0e10b4e65bc4189f4c906001600160a01b031642611331600080516020611d858339815191525490565b604080516001600160a01b0390941684526020840192909252908201526060810183905260800160405180910390a15050505050565b6001600160a01b0382166113915760405163ec442f0560e01b815260006004820152602401610616565b610807600083836115b0565b7f9016d09d72d40fdae2fd8ceac6b6234c7706214fd39c1cd1e609a0528c19930080546001600160a01b031981166001600160a01b03848116918217845560405192169182907f8be0079c531659141344cd1fd0a4f28419497f9722a3daafe3b4186f6b6457e090600090a3505050565b611416611074565b600080516020611da5833981519152805460ff191660011781557f62e78cea01bee320cd4e420270b5ea74000d11b0c9f74754ebdbfc544b05a25833611207565b6001600160a01b03821661148157604051634b637e8f60e11b815260006004820152602401610616565b610807826000836115b0565b61149561171e565b610e8081611767565b6114a661171e565b6106e6611799565b6114b661171e565b61080782826117ba565b6106e661171e565b600080516020611d658339815191526001600160a01b0385166115015760405163e602df0560e01b815260006004820152602401610616565b6001600160a01b03841661152b57604051634a1406b160e11b815260006004820152602401610616565b6001600160a01b038086166000908152600183016020908152604080832093881683529290522083905581156115a957836001600160a01b0316856001600160a01b03167f8c5be1e5ebec7d5bd14f71427d1e84f3dd0314c0f7b2291e5b200ac8c7c3b925856040516115a091815260200190565b60405180910390a35b5050505050565b600080516020611d658339815191526001600160a01b0384166115ec57818160020160008282546115e19190611ba5565b9091555061165e9050565b6001600160a01b0384166000908152602082905260409020548281101561163f5760405163391434e360e21b81526001600160a01b03861660048201526024810182905260448101849052606401610616565b6001600160a01b03851660009081526020839052604090209083900390555b6001600160a01b03831661167c57600281018054839003905561169b565b6001600160a01b03831660009081526020829052604090208054830190555b826001600160a01b0316846001600160a01b03167fddf252ad1be2c89b69c2b068fc378daa952ba7f163c4a11628f55a4df523b3ef846040516116e091815260200190565b60405180910390a350505050565b600080516020611da58339815191525460ff166106e657604051638dfc202b60e01b815260040160405180910390fd5b7ff0c57e16840df040f15088dc2f81fe391c3923bec73e23a9662efc9c229c6a0054600160401b900460ff166106e657604051631afcd79f60e31b815260040160405180910390fd5b61176f61171e565b6001600160a01b038116610e7757604051631e4fbdf760e01b815260006004820152602401610616565b6117a161171e565b600080516020611da5833981519152805460ff19169055565b6117c261171e565b600080516020611d658339815191527f52c63247e1f47db19d5ce0460030c497f067ca4cebf71ba98eeadabe20bace036117fc8482611c08565b50600481016111058382611c08565b60006020808352835180602085015260005b818110156118395785810183015185820160400152820161181d565b506000604082860101526040601f19601f8301168501019250505092915050565b80356001600160a01b038116811461187157600080fd5b919050565b6000806040838503121561188957600080fd5b6118928361185a565b946020939093013593505050565b6000806000606084860312156118b557600080fd5b6118be8461185a565b92506118cc6020850161185a565b9150604084013590509250925092565b6000602082840312156118ee57600080fd5b5035919050565b60006020828403121561190757600080fd5b6119108261185a565b9392505050565b634e487b7160e01b600052604160045260246000fd5b600082601f83011261193e57600080fd5b813567ffffffffffffffff8082111561195957611959611917565b604051601f8301601f19908116603f0116810190828211818310171561198157611981611917565b8160405283815286602085880101111561199a57600080fd5b836020870160208301376000602085830101528094505050505092915050565b6000602082840312156119cc57600080fd5b813567ffffffffffffffff8111156119e357600080fd5b6119ef8482850161192d565b949350505050565b60008060408385031215611a0a57600080fd5b611a138361185a565b9150611a216020840161185a565b90509250929050565b600080600080600060a08688031215611a4257600080fd5b853567ffffffffffffffff80821115611a5a57600080fd5b611a6689838a0161192d565b96506020880135915080821115611a7c57600080fd5b50611a898882890161192d565b94505060408601359250611a9f6060870161185a565b949793965091946080013592915050565b600181811c90821680611ac457607f821691505b602082108103611ae457634e487b7160e01b600052602260045260246000fd5b50919050565b60208082526018908201527f6d73672e73656e64657220697320726573747269637465640000000000000000604082015260600190565b60208082526010908201526f1d1bc81a5cc81c995cdd1c9a58dd195960821b604082015260600190565b60208082526024908201527f496e646578546f6b656e3a2063616c6c6572206973206e6f7420746865206d69604082015263373a32b960e11b606082015260800190565b634e487b7160e01b600052601160045260246000fd5b808201808211156105d6576105d6611b8f565b601f82111561106f576000816000526020600020601f850160051c81016020861015611be15750805b601f850160051c820191505b81811015611c0057828155600101611bed565b505050505050565b815167ffffffffffffffff811115611c2257611c22611917565b611c3681611c308454611ab0565b84611bb8565b602080601f831160018114611c6b5760008415611c535750858301515b600019600386901b1c1916600185901b178555611c00565b600085815260208120601f198616915b82811015611c9a57888601518255948401946001909101908401611c7b565b5085821015611cb85787850151600019600388901b60f8161c191681555b5050505050600190811b01905550565b60208082526030908201527f50726f706f7361626c654f776e61626c653a206e6577206f776e65722069732060408201526f746865207a65726f206164647265737360801b606082015260800190565b818103818111156105d6576105d6611b8f565b600082611d4857634e487b7160e01b600052601260045260246000fd5b500490565b80820281158282048414176105d6576105d6611b8f56fe52c63247e1f47db19d5ce0460030c497f067ca4cebf71ba98eeadabe20bace0052c63247e1f47db19d5ce0460030c497f067ca4cebf71ba98eeadabe20bace02cd5ed15c6e187e77e9aee88184c21f4f2182ab5827cb3b7e07fbedcd63f03300a2646970667358221220adcb1dafb63e54c5a93360b2687ecae5e6ce83fb095d71543f3f6f75bafaf21264736f6c63430008190033","linkReferences":{}},"methodIdentifiers":{"allowance(address,address)":"dd62ed3e","approve(address,uint256)":"095ea7b3","balanceOf(address)":"70a08231","burn(address,uint256)":"9dc29fac","decimals()":"313ce567","feeRatePerDayScaled()":"2fecd589","feeReceiver()":"b3f00674","feeTimestamp()":"184a732f","initialize(string,string,uint256,address,uint256)":"fede0276","isRestricted(address)":"c01bc982","methodologist()":"9f8e67bf","methodology()":"9eeb1d50","mint(address,uint256)":"40c10f19","mintToFeeReceiver()":"f734e22a","minter()":"07546172","name()":"06fdde03","owner()":"8da5cb5b","pause()":"8456cb59","paused()":"5c975abb","proposeOwner(address)":"b5ed298a","proposedOwner()":"d153b60c","renounceOwnership()":"715018a6","setFeeRate(uint256)":"45596e2e","setFeeReceiver(address)":"efdcd974","setMethodologist(address)":"660db484","setMethodology(string)":"91fe1b92","setMinter(address)":"fca3b5aa","setSupplyCeiling(uint256)":"6e01a686","supplyCeiling()":"2b52684d","symbol()":"95d89b41","toggleRestriction(address)":"aaa4a184","totalSupply()":"18160ddd","transfer(address,uint256)":"a9059cbb","transferFrom(address,address,uint256)":"23b872dd","transferOwnership(address)":"f2fde38b","unpause()":"3f4ba83a"},"id":32}