{"abi":[{"type":"function","name":"allowance","inputs":[{"name":"owner","type":"address","internalType":"address"},{"name":"spender","type":"address","internalType":"address"}],"outputs":[{"name":"","type":"uint256","internalType":"uint256"}],"stateMutability":"view"},{"type":"function","name":"approve","inputs":[{"name":"spender","type":"address","internalType":"address"},{"name":"value","type":"uint256","internalType":"uint256"}],"outputs":[{"name":"","type":"bool","internalType":"bool"}],"stateMutability":"nonpayable"},{"type":"function","name":"balanceOf","inputs":[{"name":"account","type":"address","internalType":"address"}],"outputs":[{"name":"","type":"uint256","internalType":"uint256"}],"stateMutability":"view"},{"type":"function","name":"burn","inputs":[{"name":"from","type":"address","internalType":"address"},{"name":"amount","type":"uint256","internalType":"uint256"}],"outputs":[],"stateMutability":"nonpayable"},{"type":"function","name":"decimals","inputs":[],"outputs":[{"name":"","type":"uint8","internalType":"uint8"}],"stateMutability":"view"},{"type":"function","name":"feeRatePerDayScaled","inputs":[],"outputs":[{"name":"","type":"uint256","internalType":"uint256"}],"stateMutability":"view"},{"type":"function","name":"feeReceiver","inputs":[],"outputs":[{"name":"","type":"address","internalType":"address"}],"stateMutability":"view"},{"type":"function","name":"feeTimestamp","inputs":[],"outputs":[{"name":"","type":"uint256","internalType":"uint256"}],"stateMutability":"view"},{"type":"function","name":"initialize","inputs":[{"name":"tokenName","type":"string","internalType":"string"},{"name":"tokenSymbol","type":"string","internalType":"string"},{"name":"_feeRatePerDayScaled","type":"uint256","internalType":"uint256"},{"name":"_feeReceiver","type":"address","internalType":"address"},{"name":"_supplyCeiling","type":"uint256","internalType":"uint256"}],"outputs":[],"stateMutability":"nonpayable"},{"type":"function","name":"isMinter","inputs":[{"name":"","type":"address","internalType":"address"}],"outputs":[{"name":"","type":"bool","internalType":"bool"}],"stateMutability":"view"},{"type":"function","name":"isRestricted","inputs":[{"name":"","type":"address","internalType":"address"}],"outputs":[{"name":"","type":"bool","internalType":"bool"}],"stateMutability":"view"},{"type":"function","name":"methodologist","inputs":[],"outputs":[{"name":"","type":"address","internalType":"address"}],"stateMutability":"view"},{"type":"function","name":"methodology","inputs":[],"outputs":[{"name":"","type":"string","internalType":"string"}],"stateMutability":"view"},{"type":"function","name":"mint","inputs":[{"name":"to","type":"address","internalType":"address"},{"name":"amount","type":"uint256","internalType":"uint256"}],"outputs":[],"stateMutability":"nonpayable"},{"type":"function","name":"mintToFeeReceiver","inputs":[],"outputs":[],"stateMutability":"nonpayable"},{"type":"function","name":"name","inputs":[],"outputs":[{"name":"","type":"string","internalType":"string"}],"stateMutability":"view"},{"type":"function","name":"owner","inputs":[],"outputs":[{"name":"","type":"address","internalType":"address"}],"stateMutability":"view"},{"type":"function","name":"pause","inputs":[],"outputs":[],"stateMutability":"nonpayable"},{"type":"function","name":"paused","inputs":[],"outputs":[{"name":"","type":"bool","internalType":"bool"}],"stateMutability":"view"},{"type":"function","name":"proposeOwner","inputs":[{"name":"_proposedOwner","type":"address","internalType":"address"}],"outputs":[],"stateMutability":"nonpayable"},{"type":"function","name":"proposedOwner","inputs":[],"outputs":[{"name":"","type":"address","internalType":"address"}],"stateMutability":"view"},{"type":"function","name":"renounceOwnership","inputs":[],"outputs":[],"stateMutability":"nonpayable"},{"type":"function","name":"setFeeRate","inputs":[{"name":"_feeRatePerDayScaled","type":"uint256","internalType":"uint256"}],"outputs":[],"stateMutability":"nonpayable"},{"type":"function","name":"setFeeReceiver","inputs":[{"name":"_feeReceiver","type":"address","internalType":"address"}],"outputs":[],"stateMutability":"nonpayable"},{"type":"function","name":"setMethodologist","inputs":[{"name":"_methodologist","type":"address","internalType":"address"}],"outputs":[],"stateMutability":"nonpayable"},{"type":"function","name":"setMethodology","inputs":[{"name":"_methodology","type":"string","internalType":"string"}],"outputs":[],"stateMutability":"nonpayable"},{"type":"function","name":"setMinter","inputs":[{"name":"_minter","type":"address","internalType":"address"},{"name":"_enable","type":"bool","internalType":"bool"}],"outputs":[],"stateMutability":"nonpayable"},{"type":"function","name":"setSupplyCeiling","inputs":[{"name":"_supplyCeiling","type":"uint256","internalType":"uint256"}],"outputs":[],"stateMutability":"nonpayable"},{"type":"function","name":"supplyCeiling","inputs":[],"outputs":[{"name":"","type":"uint256","internalType":"uint256"}],"stateMutability":"view"},{"type":"function","name":"symbol","inputs":[],"outputs":[{"name":"","type":"string","internalType":"string"}],"stateMutability":"view"},{"type":"function","name":"toggleRestriction","inputs":[{"name":"who","type":"address","internalType":"address"}],"outputs":[],"stateMutability":"nonpayable"},{"type":"function","name":"totalSupply","inputs":[],"outputs":[{"name":"","type":"uint256","internalType":"uint256"}],"stateMutability":"view"},{"type":"function","name":"transfer","inputs":[{"name":"to","type":"address","internalType":"address"},{"name":"amount","type":"uint256","internalType":"uint256"}],"outputs":[{"name":"","type":"bool","internalType":"bool"}],"stateMutability":"nonpayable"},{"type":"function","name":"transferFrom","inputs":[{"name":"from","type":"address","internalType":"address"},{"name":"to","type":"address","internalType":"address"},{"name":"amount","type":"uint256","internalType":"uint256"}],"outputs":[{"name":"","type":"bool","internalType":"bool"}],"stateMutability":"nonpayable"},{"type":"function","name":"transferOwnership","inputs":[{"name":"newOwner","type":"address","internalType":"address"}],"outputs":[],"stateMutability":"nonpayable"},{"type":"function","name":"unpause","inputs":[],"outputs":[],"stateMutability":"nonpayable"},{"type":"event","name":"Approval","inputs":[{"name":"owner","type":"address","indexed":true,"internalType":"address"},{"name":"spender","type":"address","indexed":true,"internalType":"address"},{"name":"value","type":"uint256","indexed":false,"internalType":"uint256"}],"anonymous":false},{"type":"event","name":"FeeRateSet","inputs":[{"name":"feeRatePerDayScaled","type":"uint256","indexed":true,"internalType":"uint256"}],"anonymous":false},{"type":"event","name":"FeeReceiverSet","inputs":[{"name":"feeReceiver","type":"address","indexed":true,"internalType":"address"}],"anonymous":false},{"type":"event","name":"Initialized","inputs":[{"name":"version","type":"uint64","indexed":false,"internalType":"uint64"}],"anonymous":false},{"type":"event","name":"MethodologistSet","inputs":[{"name":"methodologist","type":"address","indexed":true,"internalType":"address"}],"anonymous":false},{"type":"event","name":"MethodologySet","inputs":[{"name":"methodology","type":"string","indexed":false,"internalType":"string"}],"anonymous":false},{"type":"event","name":"MintFeeToReceiver","inputs":[{"name":"feeReceiver","type":"address","indexed":false,"internalType":"address"},{"name":"timestamp","type":"uint256","indexed":false,"internalType":"uint256"},{"name":"totalSupply","type":"uint256","indexed":false,"internalType":"uint256"},{"name":"amount","type":"uint256","indexed":false,"internalType":"uint256"}],"anonymous":false},{"type":"event","name":"MinterSet","inputs":[{"name":"minter","type":"address","indexed":true,"internalType":"address"}],"anonymous":false},{"type":"event","name":"OwnershipTransferred","inputs":[{"name":"previousOwner","type":"address","indexed":true,"internalType":"address"},{"name":"newOwner","type":"address","indexed":true,"internalType":"address"}],"anonymous":false},{"type":"event","name":"Paused","inputs":[{"name":"account","type":"address","indexed":false,"internalType":"address"}],"anonymous":false},{"type":"event","name":"SupplyCeilingSet","inputs":[{"name":"supplyCeiling","type":"uint256","indexed":false,"internalType":"uint256"}],"anonymous":false},{"type":"event","name":"ToggledRestricted","inputs":[{"name":"account","type":"address","indexed":true,"internalType":"address"},{"name":"isRestricted","type":"bool","indexed":false,"internalType":"bool"}],"anonymous":false},{"type":"event","name":"Transfer","inputs":[{"name":"from","type":"address","indexed":true,"internalType":"address"},{"name":"to","type":"address","indexed":true,"internalType":"address"},{"name":"value","type":"uint256","indexed":false,"internalType":"uint256"}],"anonymous":false},{"type":"event","name":"Unpaused","inputs":[{"name":"account","type":"address","indexed":false,"internalType":"address"}],"anonymous":false},{"type":"error","name":"ERC20InsufficientAllowance","inputs":[{"name":"spender","type":"address","internalType":"address"},{"name":"allowance","type":"uint256","internalType":"uint256"},{"name":"needed","type":"uint256","internalType":"uint256"}]},{"type":"error","name":"ERC20InsufficientBalance","inputs":[{"name":"sender","type":"address","internalType":"address"},{"name":"balance","type":"uint256","internalType":"uint256"},{"name":"needed","type":"uint256","internalType":"uint256"}]},{"type":"error","name":"ERC20InvalidApprover","inputs":[{"name":"approver","type":"address","internalType":"address"}]},{"type":"error","name":"ERC20InvalidReceiver","inputs":[{"name":"receiver","type":"address","internalType":"address"}]},{"type":"error","name":"ERC20InvalidSender","inputs":[{"name":"sender","type":"address","internalType":"address"}]},{"type":"error","name":"ERC20InvalidSpender","inputs":[{"name":"spender","type":"address","internalType":"address"}]},{"type":"error","name":"EnforcedPause","inputs":[]},{"type":"error","name":"ExpectedPause","inputs":[]},{"type":"error","name":"InvalidInitialization","inputs":[]},{"type":"error","name":"NotInitializing","inputs":[]},{"type":"error","name":"OwnableInvalidOwner","inputs":[{"name":"owner","type":"address","internalType":"address"}]},{"type":"error","name":"OwnableUnauthorizedAccount","inputs":[{"name":"account","type":"address","internalType":"address"}]}],"bytecode":{"object":"0x6080604052348015600e575f80fd5b506122588061001c5f395ff3fe608060405234801561000f575f80fd5b5060043610610213575f3560e01c806391fe1b921161011f578063b5ed298a116100a9578063dd62ed3e11610079578063dd62ed3e14610485578063efdcd97414610498578063f2fde38b146104ab578063f734e22a146104be578063fede0276146104c6575f80fd5b8063b5ed298a1461042b578063c01bc9821461043e578063cf456ae714610460578063d153b60c14610473575f80fd5b80639f8e67bf116100ef5780639f8e67bf146103bd578063a9059cbb146103d0578063aa271e1a146103e3578063aaa4a18414610405578063b3f0067414610418575f80fd5b806391fe1b921461038757806395d89b411461039a5780639dc29fac146103a25780639eeb1d50146103b5575f80fd5b806340c10f19116101a05780636e01a686116101705780636e01a6861461030d57806370a0823114610320578063715018a6146103335780638456cb591461033b5780638da5cb5b14610343575f80fd5b806340c10f19146102bd57806345596e2e146102d05780635c975abb146102e3578063660db484146102fa575f80fd5b806323b872dd116101e657806323b872dd1461027f5780632b52684d146102925780632fecd5891461029b578063313ce567146102a45780633f4ba83a146102b3575f80fd5b806306fdde0314610217578063095ea7b31461023557806318160ddd14610258578063184a732f14610276575b5f80fd5b61021f6104d9565b60405161022c9190611c78565b60405180910390f35b610248610243366004611cc8565b610599565b604051901515815260200161022c565b5f805160206121e3833981519152545b60405190815260200161022c565b61026860345481565b61024861028d366004611cf0565b6105b2565b61026860385481565b61026860335481565b6040516012815260200161022c565b6102bb6107a8565b005b6102bb6102cb366004611cc8565b6107ba565b6102bb6102de366004611d29565b61098e565b5f805160206122038339815191525460ff16610248565b6102bb610308366004611d40565b6109d0565b6102bb61031b366004611d29565b610a33565b61026861032e366004611d40565b610a77565b6102bb610a9d565b6102bb610aae565b7f9016d09d72d40fdae2fd8ceac6b6234c7706214fd39c1cd1e609a0528c199300546001600160a01b03165b6040516001600160a01b03909116815260200161022c565b6102bb610395366004611dfd565b610abe565b61021f610bb8565b6102bb6103b0366004611cc8565b610bf6565b61021f610d20565b60365461036f906001600160a01b031681565b6102486103de366004611cc8565b610dac565b6102486103f1366004611d40565b603a6020525f908152604090205460ff1681565b6102bb610413366004611d40565b610ede565b60355461036f906001600160a01b031681565b6102bb610439366004611d40565b610f50565b61024861044c366004611d40565b60396020525f908152604090205460ff1681565b6102bb61046e366004611e37565b610f9f565b5f5461036f906001600160a01b031681565b610268610493366004611e70565b611006565b6102bb6104a6366004611d40565b61104f565b6102bb6104b9366004611d40565b6110b2565b6102bb6111d9565b6102bb6104d4366004611ea1565b6111e9565b7f52c63247e1f47db19d5ce0460030c497f067ca4cebf71ba98eeadabe20bace0380546060915f805160206121c38339815191529161051790611f21565b80601f016020809104026020016040519081016040528092919081815260200182805461054390611f21565b801561058e5780601f106105655761010080835404028352916020019161058e565b820191905f5260205f20905b81548152906001019060200180831161057157829003601f168201915b505050505091505090565b5f336105a68185856114f0565b60019150505b92915050565b5f6105bb611502565b6001600160a01b0384166106165760405162461bcd60e51b815260206004820152601e60248201527f7472616e736665722066726f6d20746865207a65726f2061646472657373000060448201526064015b60405180910390fd5b6001600160a01b03831661066c5760405162461bcd60e51b815260206004820152601c60248201527f7472616e7366657220746f20746865207a65726f206164647265737300000000604482015260640161060d565b61067584610a77565b8211156106c45760405162461bcd60e51b815260206004820152601f60248201527f7472616e7366657220616d6f756e7420657863656564732062616c616e636500604482015260640161060d565b335f9081526039602052604090205460ff16156106f35760405162461bcd60e51b815260040161060d90611f59565b6001600160a01b0383165f9081526039602052604090205460ff161561072b5760405162461bcd60e51b815260040161060d90611f90565b6001600160a01b0384165f9081526039602052604090205460ff16156107885760405162461bcd60e51b8152602060048201526012602482015271199c9bdb481a5cc81c995cdd1c9a58dd195960721b604482015260640161060d565b610793843384611532565b61079e848484611595565b5060019392505050565b6107b06115f2565b6107b861164d565b565b6107c2611502565b335f908152603a602052604090205460ff166107f05760405162461bcd60e51b815260040161060d90611fba565b6001600160a01b0382166108465760405162461bcd60e51b815260206004820152601860248201527f6d696e7420746f20746865207a65726f20616464726573730000000000000000604482015260640161060d565b5f81116108a05760405162461bcd60e51b815260206004820152602260248201527f6d696e7420616d6f756e74206d7573742062652067726561746572207468616e604482015261020360f41b606482015260840161060d565b603854816108b95f805160206121e38339815191525490565b6108c39190612012565b11156109115760405162461bcd60e51b815260206004820152601a60248201527f77696c6c2065786365656420737570706c79206365696c696e67000000000000604482015260640161060d565b6001600160a01b0382165f9081526039602052604090205460ff16156109495760405162461bcd60e51b815260040161060d90611f90565b335f9081526039602052604090205460ff16156109785760405162461bcd60e51b815260040161060d90611f59565b6109806116a6565b61098a82826117e7565b5050565b6109966115f2565b61099e6116a6565b603381905560405181907f45398c451b1a31b88dbaed4e7b89a632f43cc4b50149d437db03a5300afe40d1905f90a250565b6109d86115f2565b6001600160a01b0381166109ea575f80fd5b603680546001600160a01b0319166001600160a01b0383169081179091556040517f164d8ef0d742b45087644f55c61abeb84557df70d06730591e451f0981e278ca905f90a250565b610a3b6115f2565b60388190556040518181527fe35be406f69e9d11d6ac8e5b54bbc8b6c4baf2fa2359f84a56baa5ea5d07dc8f906020015b60405180910390a150565b6001600160a01b03165f9081525f805160206121c3833981519152602052604090205490565b610aa56115f2565b6107b85f61181b565b610ab66115f2565b6107b861188b565b6036546001600160a01b03163314610b2c5760405162461bcd60e51b815260206004820152602b60248201527f496e646578546f6b656e3a2063616c6c6572206973206e6f7420746865206d6560448201526a1d1a1bd91bdb1bd9da5cdd60aa1b606482015260840161060d565b5f815111610b7c5760405162461bcd60e51b815260206004820152601b60248201527f6d6574686f646f6c6f67792063616e6e6f7420626520656d7074790000000000604482015260640161060d565b6037610b888282612069565b507fe6be68107100e39cb16d675c1086a4d5479fbd01108d721dabbccaa2249b995f81604051610a6c9190611c78565b7f52c63247e1f47db19d5ce0460030c497f067ca4cebf71ba98eeadabe20bace0480546060915f805160206121c38339815191529161051790611f21565b610bfe611502565b335f908152603a602052604090205460ff16610c2c5760405162461bcd60e51b815260040161060d90611fba565b6001600160a01b038216610c825760405162461bcd60e51b815260206004820152601a60248201527f6275726e2066726f6d20746865207a65726f2061646472657373000000000000604482015260640161060d565b6001600160a01b0382165f9081526039602052604090205460ff1615610cdf5760405162461bcd60e51b8152602060048201526012602482015271199c9bdb481a5cc81c995cdd1c9a58dd195960721b604482015260640161060d565b335f9081526039602052604090205460ff1615610d0e5760405162461bcd60e51b815260040161060d90611f59565b610d166116a6565b61098a82826118d3565b60378054610d2d90611f21565b80601f0160208091040260200160405190810160405280929190818152602001828054610d5990611f21565b8015610da45780601f10610d7b57610100808354040283529160200191610da4565b820191905f5260205f20905b815481529060010190602001808311610d8757829003601f168201915b505050505081565b5f610db5611502565b6001600160a01b038316610e0b5760405162461bcd60e51b815260206004820152601c60248201527f7472616e7366657220746f20746865207a65726f206164647265737300000000604482015260640161060d565b610e1433610a77565b821115610e635760405162461bcd60e51b815260206004820152601f60248201527f7472616e7366657220616d6f756e7420657863656564732062616c616e636500604482015260640161060d565b335f9081526039602052604090205460ff1615610e925760405162461bcd60e51b815260040161060d90611f59565b6001600160a01b0383165f9081526039602052604090205460ff1615610eca5760405162461bcd60e51b815260040161060d90611f90565b610ed5338484611595565b50600192915050565b610ee66115f2565b6001600160a01b0381165f8181526039602052604090819020805460ff19811660ff9182161590811790925591517f14ddf324cc5d8b14a3c3b12c84b0a7d578d72c8d60655c06d6a457e71431d5ee92610f4592161515815260200190565b60405180910390a250565b610f586115f2565b6001600160a01b038116610f7e5760405162461bcd60e51b815260040161060d90612129565b5f80546001600160a01b0319166001600160a01b0392909216919091179055565b610fa76115f2565b6001600160a01b038216610fb9575f80fd5b6001600160a01b0382165f818152603a6020526040808220805460ff1916851515179055517f726b590ef91a8c76ad05bbe91a57ef84605276528f49cd47d787f558a4e755b69190a25050565b6001600160a01b039182165f9081527f52c63247e1f47db19d5ce0460030c497f067ca4cebf71ba98eeadabe20bace016020908152604080832093909416825291909152205490565b6110576115f2565b6001600160a01b038116611069575f80fd5b603580546001600160a01b0319166001600160a01b0383169081179091556040517fbdf37c276f641820b141429d245add2552b4118c0866e5a78638e3de5ef18d9d905f90a250565b6001600160a01b0381166110d85760405162461bcd60e51b815260040161060d90612129565b5f546001600160a01b0382811691161461114f5760405162461bcd60e51b815260206004820152603260248201527f50726f706f7361626c654f776e61626c653a206e6577206f776e6572206973206044820152713737ba10383937b837b9b2b21037bbb732b960711b606482015260840161060d565b6001600160a01b03811633146111cd5760405162461bcd60e51b815260206004820152603a60248201527f50726f706f7361626c654f776e61626c653a20746869732063616c6c206d757360448201527f74206265206d61646520627920746865206e6577206f776e6572000000000000606482015260840161060d565b6111d68161181b565b50565b6111e16115f2565b6107b86116a6565b7ff0c57e16840df040f15088dc2f81fe391c3923bec73e23a9662efc9c229c6a008054600160401b810460ff16159067ffffffffffffffff165f8115801561122e5750825b90505f8267ffffffffffffffff16600114801561124a5750303b155b905081158015611258575080155b156112765760405163f92ee8a960e01b815260040160405180910390fd5b845467ffffffffffffffff1916600117855583156112a057845460ff60401b1916600160401b1785555b5f8a51116112f05760405162461bcd60e51b815260206004820152601a60248201527f746f6b656e206e616d652063616e6e6f7420626520656d707479000000000000604482015260640161060d565b5f8951116113405760405162461bcd60e51b815260206004820152601c60248201527f746f6b656e2073796d626f6c2063616e6e6f7420626520656d70747900000000604482015260640161060d565b5f881161138f5760405162461bcd60e51b815260206004820152601f60248201527f6665652072617465206d7573742062652067726561746572207468616e203000604482015260640161060d565b6001600160a01b0387166113f55760405162461bcd60e51b815260206004820152602760248201527f6665652072656365697665722063616e6e6f7420626520746865207a65726f206044820152666164647265737360c81b606482015260840161060d565b5f86116114525760405162461bcd60e51b815260206004820152602560248201527f737570706c79206365696c696e67206d75737420626520677265617465722074604482015264068616e20360dc1b606482015260840161060d565b61145b33611907565b611463611918565b61146d8a8a611928565b61147561193a565b6033889055603580546001600160a01b0319166001600160a01b03891617905560388690554260345583156114e457845460ff60401b19168555604051600181527fc7f505b2f371ae2175ee4913f4499e1f2633a7b5936321eed1cdaeb6115181d29060200160405180910390a15b50505050505050505050565b6114fd8383836001611942565b505050565b5f805160206122038339815191525460ff16156107b85760405163d93c066560e01b815260040160405180910390fd5b5f61153d8484611006565b90505f19811461158f578181101561158157604051637dc7a0d960e11b81526001600160a01b0384166004820152602481018290526044810183905260640161060d565b61158f84848484035f611942565b50505050565b6001600160a01b0383166115be57604051634b637e8f60e11b81525f600482015260240161060d565b6001600160a01b0382166115e75760405163ec442f0560e01b81525f600482015260240161060d565b6114fd838383611a26565b336116247f9016d09d72d40fdae2fd8ceac6b6234c7706214fd39c1cd1e609a0528c199300546001600160a01b031690565b6001600160a01b0316146107b85760405163118cdaa760e01b815233600482015260240161060d565b611655611b5f565b5f80516020612203833981519152805460ff191681557f5db9ee0a495bf2e6ff9c91a7834c1ba4fdd244a5e8aa4e537bd38aeae4b073aa335b6040516001600160a01b039091168152602001610a6c565b5f62015180603454426116b99190612179565b6116c3919061218c565b9050600181106111d6575f6116e35f805160206121e38339815191525490565b60335490915081905f5b848110156117275768056bc75e2d6310000061170983856121ab565b611713919061218c565b61171d9084612012565b92506001016116ed565b505f6117338484612179565b905061174285620151806121ab565b60345f8282546117529190612012565b909155505060355461176d906001600160a01b0316826117e7565b6035547f07982395c678b2ffc23fcf59aaec243ca79418c285af0d0e10b4e65bc4189f4c906001600160a01b0316426117b15f805160206121e38339815191525490565b604080516001600160a01b0390941684526020840192909252908201526060810183905260800160405180910390a15050505050565b6001600160a01b0382166118105760405163ec442f0560e01b81525f600482015260240161060d565b61098a5f8383611a26565b7f9016d09d72d40fdae2fd8ceac6b6234c7706214fd39c1cd1e609a0528c19930080546001600160a01b031981166001600160a01b03848116918217845560405192169182907f8be0079c531659141344cd1fd0a4f28419497f9722a3daafe3b4186f6b6457e0905f90a3505050565b611893611502565b5f80516020612203833981519152805460ff191660011781557f62e78cea01bee320cd4e420270b5ea74000d11b0c9f74754ebdbfc544b05a2583361168e565b6001600160a01b0382166118fc57604051634b637e8f60e11b81525f600482015260240161060d565b61098a825f83611a26565b61190f611b8e565b6111d681611bd7565b611920611b8e565b6107b8611c08565b611930611b8e565b61098a8282611c28565b6107b8611b8e565b5f805160206121c38339815191526001600160a01b0385166119795760405163e602df0560e01b81525f600482015260240161060d565b6001600160a01b0384166119a257604051634a1406b160e11b81525f600482015260240161060d565b6001600160a01b038086165f90815260018301602090815260408083209388168352929052208390558115611a1f57836001600160a01b0316856001600160a01b03167f8c5be1e5ebec7d5bd14f71427d1e84f3dd0314c0f7b2291e5b200ac8c7c3b92585604051611a1691815260200190565b60405180910390a35b5050505050565b5f805160206121c38339815191526001600160a01b038416611a605781816002015f828254611a559190612012565b90915550611ad09050565b6001600160a01b0384165f9081526020829052604090205482811015611ab25760405163391434e360e21b81526001600160a01b0386166004820152602481018290526044810184905260640161060d565b6001600160a01b0385165f9081526020839052604090209083900390555b6001600160a01b038316611aee576002810180548390039055611b0c565b6001600160a01b0383165f9081526020829052604090208054830190555b826001600160a01b0316846001600160a01b03167fddf252ad1be2c89b69c2b068fc378daa952ba7f163c4a11628f55a4df523b3ef84604051611b5191815260200190565b60405180910390a350505050565b5f805160206122038339815191525460ff166107b857604051638dfc202b60e01b815260040160405180910390fd5b7ff0c57e16840df040f15088dc2f81fe391c3923bec73e23a9662efc9c229c6a0054600160401b900460ff166107b857604051631afcd79f60e31b815260040160405180910390fd5b611bdf611b8e565b6001600160a01b0381166111cd57604051631e4fbdf760e01b81525f600482015260240161060d565b611c10611b8e565b5f80516020612203833981519152805460ff19169055565b611c30611b8e565b5f805160206121c38339815191527f52c63247e1f47db19d5ce0460030c497f067ca4cebf71ba98eeadabe20bace03611c698482612069565b506004810161158f8382612069565b602081525f82518060208401528060208501604085015e5f604082850101526040601f19601f83011684010191505092915050565b80356001600160a01b0381168114611cc3575f80fd5b919050565b5f8060408385031215611cd9575f80fd5b611ce283611cad565b946020939093013593505050565b5f805f60608486031215611d02575f80fd5b611d0b84611cad565b9250611d1960208501611cad565b9150604084013590509250925092565b5f60208284031215611d39575f80fd5b5035919050565b5f60208284031215611d50575f80fd5b611d5982611cad565b9392505050565b634e487b7160e01b5f52604160045260245ffd5b5f82601f830112611d83575f80fd5b813567ffffffffffffffff80821115611d9e57611d9e611d60565b604051601f8301601f19908116603f01168101908282118183101715611dc657611dc6611d60565b81604052838152866020858801011115611dde575f80fd5b836020870160208301375f602085830101528094505050505092915050565b5f60208284031215611e0d575f80fd5b813567ffffffffffffffff811115611e23575f80fd5b611e2f84828501611d74565b949350505050565b5f8060408385031215611e48575f80fd5b611e5183611cad565b915060208301358015158114611e65575f80fd5b809150509250929050565b5f8060408385031215611e81575f80fd5b611e8a83611cad565b9150611e9860208401611cad565b90509250929050565b5f805f805f60a08688031215611eb5575f80fd5b853567ffffffffffffffff80821115611ecc575f80fd5b611ed889838a01611d74565b96506020880135915080821115611eed575f80fd5b50611efa88828901611d74565b94505060408601359250611f1060608701611cad565b949793965091946080013592915050565b600181811c90821680611f3557607f821691505b602082108103611f5357634e487b7160e01b5f52602260045260245ffd5b50919050565b60208082526018908201527f6d73672e73656e64657220697320726573747269637465640000000000000000604082015260600190565b60208082526010908201526f1d1bc81a5cc81c995cdd1c9a58dd195960821b604082015260600190565b60208082526024908201527f496e646578546f6b656e3a2063616c6c6572206973206e6f7420746865206d69604082015263373a32b960e11b606082015260800190565b634e487b7160e01b5f52601160045260245ffd5b808201808211156105ac576105ac611ffe565b601f8211156114fd57805f5260205f20601f840160051c8101602085101561204a5750805b601f840160051c820191505b81811015611a1f575f8155600101612056565b815167ffffffffffffffff81111561208357612083611d60565b612097816120918454611f21565b84612025565b602080601f8311600181146120ca575f84156120b35750858301515b5f19600386901b1c1916600185901b178555612121565b5f85815260208120601f198616915b828110156120f8578886015182559484019460019091019084016120d9565b508582101561211557878501515f19600388901b60f8161c191681555b505060018460011b0185555b505050505050565b60208082526030908201527f50726f706f7361626c654f776e61626c653a206e6577206f776e65722069732060408201526f746865207a65726f206164647265737360801b606082015260800190565b818103818111156105ac576105ac611ffe565b5f826121a657634e487b7160e01b5f52601260045260245ffd5b500490565b80820281158282048414176105ac576105ac611ffe56fe52c63247e1f47db19d5ce0460030c497f067ca4cebf71ba98eeadabe20bace0052c63247e1f47db19d5ce0460030c497f067ca4cebf71ba98eeadabe20bace02cd5ed15c6e187e77e9aee88184c21f4f2182ab5827cb3b7e07fbedcd63f03300a2646970667358221220c95c41b4609e8f3b76d10c1c6d9241629258c0edd662c3fba830e49321988ee464736f6c63430008190033","linkReferences":{}},"methodIdentifiers":{"allowance(address,address)":"dd62ed3e","approve(address,uint256)":"095ea7b3","balanceOf(address)":"70a08231","burn(address,uint256)":"9dc29fac","decimals()":"313ce567","feeRatePerDayScaled()":"2fecd589","feeReceiver()":"b3f00674","feeTimestamp()":"184a732f","initialize(string,string,uint256,address,uint256)":"fede0276","isMinter(address)":"aa271e1a","isRestricted(address)":"c01bc982","methodologist()":"9f8e67bf","methodology()":"9eeb1d50","mint(address,uint256)":"40c10f19","mintToFeeReceiver()":"f734e22a","name()":"06fdde03","owner()":"8da5cb5b","pause()":"8456cb59","paused()":"5c975abb","proposeOwner(address)":"b5ed298a","proposedOwner()":"d153b60c","renounceOwnership()":"715018a6","setFeeRate(uint256)":"45596e2e","setFeeReceiver(address)":"efdcd974","setMethodologist(address)":"660db484","setMethodology(string)":"91fe1b92","setMinter(address,bool)":"cf456ae7","setSupplyCeiling(uint256)":"6e01a686","supplyCeiling()":"2b52684d","symbol()":"95d89b41","toggleRestriction(address)":"aaa4a184","totalSupply()":"18160ddd","transfer(address,uint256)":"a9059cbb","transferFrom(address,address,uint256)":"23b872dd","transferOwnership(address)":"f2fde38b","unpause()":"3f4ba83a"},"id":39}