{"abi":[{"type":"function","name":"allowance","inputs":[{"name":"owner","type":"address","internalType":"address"},{"name":"spender","type":"address","internalType":"address"}],"outputs":[{"name":"","type":"uint256","internalType":"uint256"}],"stateMutability":"view"},{"type":"function","name":"approve","inputs":[{"name":"spender","type":"address","internalType":"address"},{"name":"value","type":"uint256","internalType":"uint256"}],"outputs":[{"name":"","type":"bool","internalType":"bool"}],"stateMutability":"nonpayable"},{"type":"function","name":"balanceOf","inputs":[{"name":"account","type":"address","internalType":"address"}],"outputs":[{"name":"","type":"uint256","internalType":"uint256"}],"stateMutability":"view"},{"type":"function","name":"burn","inputs":[{"name":"from","type":"address","internalType":"address"},{"name":"amount","type":"uint256","internalType":"uint256"}],"outputs":[],"stateMutability":"nonpayable"},{"type":"function","name":"decimals","inputs":[],"outputs":[{"name":"","type":"uint8","internalType":"uint8"}],"stateMutability":"view"},{"type":"function","name":"feeRatePerDayScaled","inputs":[],"outputs":[{"name":"","type":"uint256","internalType":"uint256"}],"stateMutability":"view"},{"type":"function","name":"feeReceiver","inputs":[],"outputs":[{"name":"","type":"address","internalType":"address"}],"stateMutability":"view"},{"type":"function","name":"feeTimestamp","inputs":[],"outputs":[{"name":"","type":"uint256","internalType":"uint256"}],"stateMutability":"view"},{"type":"function","name":"initialize","inputs":[{"name":"tokenName","type":"string","internalType":"string"},{"name":"tokenSymbol","type":"string","internalType":"string"},{"name":"_feeRatePerDayScaled","type":"uint256","internalType":"uint256"},{"name":"_feeReceiver","type":"address","internalType":"address"},{"name":"_supplyCeiling","type":"uint256","internalType":"uint256"}],"outputs":[],"stateMutability":"nonpayable"},{"type":"function","name":"isMinter","inputs":[{"name":"","type":"address","internalType":"address"}],"outputs":[{"name":"","type":"bool","internalType":"bool"}],"stateMutability":"view"},{"type":"function","name":"isRestricted","inputs":[{"name":"","type":"address","internalType":"address"}],"outputs":[{"name":"","type":"bool","internalType":"bool"}],"stateMutability":"view"},{"type":"function","name":"methodologist","inputs":[],"outputs":[{"name":"","type":"address","internalType":"address"}],"stateMutability":"view"},{"type":"function","name":"methodology","inputs":[],"outputs":[{"name":"","type":"string","internalType":"string"}],"stateMutability":"view"},{"type":"function","name":"mint","inputs":[{"name":"to","type":"address","internalType":"address"},{"name":"amount","type":"uint256","internalType":"uint256"}],"outputs":[],"stateMutability":"nonpayable"},{"type":"function","name":"mintToFeeReceiver","inputs":[],"outputs":[],"stateMutability":"nonpayable"},{"type":"function","name":"name","inputs":[],"outputs":[{"name":"","type":"string","internalType":"string"}],"stateMutability":"view"},{"type":"function","name":"owner","inputs":[],"outputs":[{"name":"","type":"address","internalType":"address"}],"stateMutability":"view"},{"type":"function","name":"pause","inputs":[],"outputs":[],"stateMutability":"nonpayable"},{"type":"function","name":"paused","inputs":[],"outputs":[{"name":"","type":"bool","internalType":"bool"}],"stateMutability":"view"},{"type":"function","name":"proposeOwner","inputs":[{"name":"_proposedOwner","type":"address","internalType":"address"}],"outputs":[],"stateMutability":"nonpayable"},{"type":"function","name":"proposedOwner","inputs":[],"outputs":[{"name":"","type":"address","internalType":"address"}],"stateMutability":"view"},{"type":"function","name":"renounceOwnership","inputs":[],"outputs":[],"stateMutability":"nonpayable"},{"type":"function","name":"setFeeRate","inputs":[{"name":"_feeRatePerDayScaled","type":"uint256","internalType":"uint256"}],"outputs":[],"stateMutability":"nonpayable"},{"type":"function","name":"setFeeReceiver","inputs":[{"name":"_feeReceiver","type":"address","internalType":"address"}],"outputs":[],"stateMutability":"nonpayable"},{"type":"function","name":"setMethodologist","inputs":[{"name":"_methodologist","type":"address","internalType":"address"}],"outputs":[],"stateMutability":"nonpayable"},{"type":"function","name":"setMethodology","inputs":[{"name":"_methodology","type":"string","internalType":"string"}],"outputs":[],"stateMutability":"nonpayable"},{"type":"function","name":"setMinter","inputs":[{"name":"_minter","type":"address","internalType":"address"},{"name":"_enable","type":"bool","internalType":"bool"}],"outputs":[],"stateMutability":"nonpayable"},{"type":"function","name":"setSupplyCeiling","inputs":[{"name":"_supplyCeiling","type":"uint256","internalType":"uint256"}],"outputs":[],"stateMutability":"nonpayable"},{"type":"function","name":"supplyCeiling","inputs":[],"outputs":[{"name":"","type":"uint256","internalType":"uint256"}],"stateMutability":"view"},{"type":"function","name":"symbol","inputs":[],"outputs":[{"name":"","type":"string","internalType":"string"}],"stateMutability":"view"},{"type":"function","name":"toggleRestriction","inputs":[{"name":"who","type":"address","internalType":"address"}],"outputs":[],"stateMutability":"nonpayable"},{"type":"function","name":"totalSupply","inputs":[],"outputs":[{"name":"","type":"uint256","internalType":"uint256"}],"stateMutability":"view"},{"type":"function","name":"transfer","inputs":[{"name":"to","type":"address","internalType":"address"},{"name":"amount","type":"uint256","internalType":"uint256"}],"outputs":[{"name":"","type":"bool","internalType":"bool"}],"stateMutability":"nonpayable"},{"type":"function","name":"transferFrom","inputs":[{"name":"from","type":"address","internalType":"address"},{"name":"to","type":"address","internalType":"address"},{"name":"amount","type":"uint256","internalType":"uint256"}],"outputs":[{"name":"","type":"bool","internalType":"bool"}],"stateMutability":"nonpayable"},{"type":"function","name":"transferOwnership","inputs":[{"name":"newOwner","type":"address","internalType":"address"}],"outputs":[],"stateMutability":"nonpayable"},{"type":"function","name":"unpause","inputs":[],"outputs":[],"stateMutability":"nonpayable"},{"type":"event","name":"Approval","inputs":[{"name":"owner","type":"address","indexed":true,"internalType":"address"},{"name":"spender","type":"address","indexed":true,"internalType":"address"},{"name":"value","type":"uint256","indexed":false,"internalType":"uint256"}],"anonymous":false},{"type":"event","name":"FeeRateSet","inputs":[{"name":"feeRatePerDayScaled","type":"uint256","indexed":true,"internalType":"uint256"}],"anonymous":false},{"type":"event","name":"FeeReceiverSet","inputs":[{"name":"feeReceiver","type":"address","indexed":true,"internalType":"address"}],"anonymous":false},{"type":"event","name":"Initialized","inputs":[{"name":"version","type":"uint64","indexed":false,"internalType":"uint64"}],"anonymous":false},{"type":"event","name":"MethodologistSet","inputs":[{"name":"methodologist","type":"address","indexed":true,"internalType":"address"}],"anonymous":false},{"type":"event","name":"MethodologySet","inputs":[{"name":"methodology","type":"string","indexed":false,"internalType":"string"}],"anonymous":false},{"type":"event","name":"MintFeeToReceiver","inputs":[{"name":"feeReceiver","type":"address","indexed":false,"internalType":"address"},{"name":"timestamp","type":"uint256","indexed":false,"internalType":"uint256"},{"name":"totalSupply","type":"uint256","indexed":false,"internalType":"uint256"},{"name":"amount","type":"uint256","indexed":false,"internalType":"uint256"}],"anonymous":false},{"type":"event","name":"MinterSet","inputs":[{"name":"minter","type":"address","indexed":true,"internalType":"address"}],"anonymous":false},{"type":"event","name":"OwnershipTransferred","inputs":[{"name":"previousOwner","type":"address","indexed":true,"internalType":"address"},{"name":"newOwner","type":"address","indexed":true,"internalType":"address"}],"anonymous":false},{"type":"event","name":"Paused","inputs":[{"name":"account","type":"address","indexed":false,"internalType":"address"}],"anonymous":false},{"type":"event","name":"SupplyCeilingSet","inputs":[{"name":"supplyCeiling","type":"uint256","indexed":false,"internalType":"uint256"}],"anonymous":false},{"type":"event","name":"ToggledRestricted","inputs":[{"name":"account","type":"address","indexed":true,"internalType":"address"},{"name":"isRestricted","type":"bool","indexed":false,"internalType":"bool"}],"anonymous":false},{"type":"event","name":"Transfer","inputs":[{"name":"from","type":"address","indexed":true,"internalType":"address"},{"name":"to","type":"address","indexed":true,"internalType":"address"},{"name":"value","type":"uint256","indexed":false,"internalType":"uint256"}],"anonymous":false},{"type":"event","name":"Unpaused","inputs":[{"name":"account","type":"address","indexed":false,"internalType":"address"}],"anonymous":false},{"type":"error","name":"ERC20InsufficientAllowance","inputs":[{"name":"spender","type":"address","internalType":"address"},{"name":"allowance","type":"uint256","internalType":"uint256"},{"name":"needed","type":"uint256","internalType":"uint256"}]},{"type":"error","name":"ERC20InsufficientBalance","inputs":[{"name":"sender","type":"address","internalType":"address"},{"name":"balance","type":"uint256","internalType":"uint256"},{"name":"needed","type":"uint256","internalType":"uint256"}]},{"type":"error","name":"ERC20InvalidApprover","inputs":[{"name":"approver","type":"address","internalType":"address"}]},{"type":"error","name":"ERC20InvalidReceiver","inputs":[{"name":"receiver","type":"address","internalType":"address"}]},{"type":"error","name":"ERC20InvalidSender","inputs":[{"name":"sender","type":"address","internalType":"address"}]},{"type":"error","name":"ERC20InvalidSpender","inputs":[{"name":"spender","type":"address","internalType":"address"}]},{"type":"error","name":"EnforcedPause","inputs":[]},{"type":"error","name":"ExpectedPause","inputs":[]},{"type":"error","name":"InvalidInitialization","inputs":[]},{"type":"error","name":"NotInitializing","inputs":[]},{"type":"error","name":"OwnableInvalidOwner","inputs":[{"name":"owner","type":"address","internalType":"address"}]},{"type":"error","name":"OwnableUnauthorizedAccount","inputs":[{"name":"account","type":"address","internalType":"address"}]}],"bytecode":{"object":"0x6080604052348015600e575f80fd5b5061408c8061001c5f395ff3fe608060405234801561000f575f80fd5b506004361061021a575f3560e01c806391fe1b9211610123578063b5ed298a116100ab578063dd62ed3e1161007a578063dd62ed3e146105de578063efdcd9741461060e578063f2fde38b1461062a578063f734e22a14610646578063fede0276146106505761021a565b8063b5ed298a14610558578063c01bc98214610574578063cf456ae7146105a4578063d153b60c146105c05761021a565b80639f8e67bf116100f25780639f8e67bf146104a0578063a9059cbb146104be578063aa271e1a146104ee578063aaa4a1841461051e578063b3f006741461053a5761021a565b806391fe1b921461042c57806395d89b41146104485780639dc29fac146104665780639eeb1d50146104825761021a565b806340c10f19116101a65780636e01a686116101755780636e01a686146103ae57806370a08231146103ca578063715018a6146103fa5780638456cb59146104045780638da5cb5b1461040e5761021a565b806340c10f191461033c57806345596e2e146103585780635c975abb14610374578063660db484146103925761021a565b806323b872dd116101ed57806323b872dd146102a85780632b52684d146102d85780632fecd589146102f6578063313ce567146103145780633f4ba83a146103325761021a565b806306fdde031461021e578063095ea7b31461023c57806318160ddd1461026c578063184a732f1461028a575b5f80fd5b61022661066c565b6040516102339190612ca6565b60405180910390f35b61025660048036038101906102519190612d64565b61070a565b6040516102639190612dbc565b60405180910390f35b61027461072c565b6040516102819190612de4565b60405180910390f35b610292610743565b60405161029f9190612de4565b60405180910390f35b6102c260048036038101906102bd9190612dfd565b610749565b6040516102cf9190612dbc565b60405180910390f35b6102e0610a38565b6040516102ed9190612de4565b60405180910390f35b6102fe610a3e565b60405161030b9190612de4565b60405180910390f35b61031c610a44565b6040516103299190612e68565b60405180910390f35b61033a610a4c565b005b61035660048036038101906103519190612d64565b610a5e565b005b610372600480360381019061036d9190612e81565b610d20565b005b61037c610d67565b6040516103899190612dbc565b60405180910390f35b6103ac60048036038101906103a79190612eac565b610d89565b005b6103c860048036038101906103c39190612e81565b610e4e565b005b6103e460048036038101906103df9190612eac565b610e97565b6040516103f19190612de4565b60405180910390f35b610402610eea565b005b61040c610efd565b005b610416610f0f565b6040516104239190612ee6565b60405180910390f35b6104466004803603810190610441919061302b565b610f44565b005b610450611060565b60405161045d9190612ca6565b60405180910390f35b610480600480360381019061047b9190612d64565b6110fe565b005b61048a611327565b6040516104979190612ca6565b60405180910390f35b6104a86113b3565b6040516104b59190612ee6565b60405180910390f35b6104d860048036038101906104d39190612d64565b6113d8565b6040516104e59190612dbc565b60405180910390f35b61050860048036038101906105039190612eac565b6115c3565b6040516105159190612dbc565b60405180910390f35b61053860048036038101906105339190612eac565b6115e0565b005b610542611720565b60405161054f9190612ee6565b60405180910390f35b610572600480360381019061056d9190612eac565b611745565b005b61058e60048036038101906105899190612eac565b6117fd565b60405161059b9190612dbc565b60405180910390f35b6105be60048036038101906105b9919061309c565b61181a565b005b6105c86118f4565b6040516105d59190612ee6565b60405180910390f35b6105f860048036038101906105f391906130da565b611917565b6040516106059190612de4565b60405180910390f35b61062860048036038101906106239190612eac565b6119a7565b005b610644600480360381019061063f9190612eac565b611a6c565b005b61064e611be1565b005b61066a60048036038101906106659190613118565b611bf3565b005b60605f610677611f5f565b9050806003018054610688906131f4565b80601f01602080910402602001604051908101604052809291908181526020018280546106b4906131f4565b80156106ff5780601f106106d6576101008083540402835291602001916106ff565b820191905f5260205f20905b8154815290600101906020018083116106e257829003601f168201915b505050505091505090565b5f80610714611f86565b9050610721818585611f8d565b600191505092915050565b5f80610736611f5f565b9050806002015491505090565b60345481565b5f610752611f9f565b5f73ffffffffffffffffffffffffffffffffffffffff168473ffffffffffffffffffffffffffffffffffffffff16036107c0576040517f08c379a00000000000000000000000000000000000000000000000000000000081526004016107b79061326e565b60405180910390fd5b5f73ffffffffffffffffffffffffffffffffffffffff168373ffffffffffffffffffffffffffffffffffffffff160361082e576040517f08c379a0000000000000000000000000000000000000000000000000000000008152600401610825906132d6565b60405180910390fd5b61083784610e97565b821115610879576040517f08c379a00000000000000000000000000000000000000000000000000000000081526004016108709061333e565b60405180910390fd5b60395f3373ffffffffffffffffffffffffffffffffffffffff1673ffffffffffffffffffffffffffffffffffffffff1681526020019081526020015f205f9054906101000a900460ff1615610903576040517f08c379a00000000000000000000000000000000000000000000000000000000081526004016108fa906133a6565b60405180910390fd5b60395f8473ffffffffffffffffffffffffffffffffffffffff1673ffffffffffffffffffffffffffffffffffffffff1681526020019081526020015f205f9054906101000a900460ff161561098d576040517f08c379a00000000000000000000000000000000000000000000000000000000081526004016109849061340e565b60405180910390fd5b60395f8573ffffffffffffffffffffffffffffffffffffffff1673ffffffffffffffffffffffffffffffffffffffff1681526020019081526020015f205f9054906101000a900460ff1615610a17576040517f08c379a0000000000000000000000000000000000000000000000000000000008152600401610a0e90613476565b60405180910390fd5b610a22843384611fe0565b610a2d848484612072565b600190509392505050565b60385481565b60335481565b5f6012905090565b610a54612162565b610a5c6121e9565b565b610a66611f9f565b603a5f3373ffffffffffffffffffffffffffffffffffffffff1673ffffffffffffffffffffffffffffffffffffffff1681526020019081526020015f205f9054906101000a900460ff16610aef576040517f08c379a0000000000000000000000000000000000000000000000000000000008152600401610ae690613504565b60405180910390fd5b5f73ffffffffffffffffffffffffffffffffffffffff168273ffffffffffffffffffffffffffffffffffffffff1603610b5d576040517f08c379a0000000000000000000000000000000000000000000000000000000008152600401610b549061356c565b60405180910390fd5b5f8111610b9f576040517f08c379a0000000000000000000000000000000000000000000000000000000008152600401610b96906135fa565b60405180910390fd5b60385481610bab61072c565b610bb59190613645565b1115610bf6576040517f08c379a0000000000000000000000000000000000000000000000000000000008152600401610bed906136c2565b60405180910390fd5b60395f8373ffffffffffffffffffffffffffffffffffffffff1673ffffffffffffffffffffffffffffffffffffffff1681526020019081526020015f205f9054906101000a900460ff1615610c80576040517f08c379a0000000000000000000000000000000000000000000000000000000008152600401610c779061340e565b60405180910390fd5b60395f3373ffffffffffffffffffffffffffffffffffffffff1673ffffffffffffffffffffffffffffffffffffffff1681526020019081526020015f205f9054906101000a900460ff1615610d0a576040517f08c379a0000000000000000000000000000000000000000000000000000000008152600401610d01906133a6565b60405180910390fd5b610d12612257565b610d1c82826123a3565b5050565b610d28612162565b610d30612257565b80603381905550807f45398c451b1a31b88dbaed4e7b89a632f43cc4b50149d437db03a5300afe40d160405160405180910390a250565b5f80610d71612422565b9050805f015f9054906101000a900460ff1691505090565b610d91612162565b5f73ffffffffffffffffffffffffffffffffffffffff168173ffffffffffffffffffffffffffffffffffffffff1603610dc8575f80fd5b8060365f6101000a81548173ffffffffffffffffffffffffffffffffffffffff021916908373ffffffffffffffffffffffffffffffffffffffff1602179055508073ffffffffffffffffffffffffffffffffffffffff167f164d8ef0d742b45087644f55c61abeb84557df70d06730591e451f0981e278ca60405160405180910390a250565b610e56612162565b806038819055507fe35be406f69e9d11d6ac8e5b54bbc8b6c4baf2fa2359f84a56baa5ea5d07dc8f81604051610e8c9190612de4565b60405180910390a150565b5f80610ea1611f5f565b9050805f015f8473ffffffffffffffffffffffffffffffffffffffff1673ffffffffffffffffffffffffffffffffffffffff1681526020019081526020015f2054915050919050565b610ef2612162565b610efb5f612449565b565b610f05612162565b610f0d61251a565b565b5f80610f19612589565b9050805f015f9054906101000a900473ffffffffffffffffffffffffffffffffffffffff1691505090565b60365f9054906101000a900473ffffffffffffffffffffffffffffffffffffffff1673ffffffffffffffffffffffffffffffffffffffff163373ffffffffffffffffffffffffffffffffffffffff1614610fd3576040517f08c379a0000000000000000000000000000000000000000000000000000000008152600401610fca90613750565b60405180910390fd5b5f815111611016576040517f08c379a000000000000000000000000000000000000000000000000000000000815260040161100d906137b8565b60405180910390fd5b80603790816110259190613973565b507fe6be68107100e39cb16d675c1086a4d5479fbd01108d721dabbccaa2249b995f816040516110559190612ca6565b60405180910390a150565b60605f61106b611f5f565b905080600401805461107c906131f4565b80601f01602080910402602001604051908101604052809291908181526020018280546110a8906131f4565b80156110f35780601f106110ca576101008083540402835291602001916110f3565b820191905f5260205f20905b8154815290600101906020018083116110d657829003601f168201915b505050505091505090565b611106611f9f565b603a5f3373ffffffffffffffffffffffffffffffffffffffff1673ffffffffffffffffffffffffffffffffffffffff1681526020019081526020015f205f9054906101000a900460ff1661118f576040517f08c379a000000000000000000000000000000000000000000000000000000000815260040161118690613504565b60405180910390fd5b5f73ffffffffffffffffffffffffffffffffffffffff168273ffffffffffffffffffffffffffffffffffffffff16036111fd576040517f08c379a00000000000000000000000000000000000000000000000000000000081526004016111f490613a8c565b60405180910390fd5b60395f8373ffffffffffffffffffffffffffffffffffffffff1673ffffffffffffffffffffffffffffffffffffffff1681526020019081526020015f205f9054906101000a900460ff1615611287576040517f08c379a000000000000000000000000000000000000000000000000000000000815260040161127e90613476565b60405180910390fd5b60395f3373ffffffffffffffffffffffffffffffffffffffff1673ffffffffffffffffffffffffffffffffffffffff1681526020019081526020015f205f9054906101000a900460ff1615611311576040517f08c379a0000000000000000000000000000000000000000000000000000000008152600401611308906133a6565b60405180910390fd5b611319612257565b61132382826125b0565b5050565b60378054611334906131f4565b80601f0160208091040260200160405190810160405280929190818152602001828054611360906131f4565b80156113ab5780601f10611382576101008083540402835291602001916113ab565b820191905f5260205f20905b81548152906001019060200180831161138e57829003601f168201915b505050505081565b60365f9054906101000a900473ffffffffffffffffffffffffffffffffffffffff1681565b5f6113e1611f9f565b5f73ffffffffffffffffffffffffffffffffffffffff168373ffffffffffffffffffffffffffffffffffffffff160361144f576040517f08c379a0000000000000000000000000000000000000000000000000000000008152600401611446906132d6565b60405180910390fd5b61145833610e97565b82111561149a576040517f08c379a00000000000000000000000000000000000000000000000000000000081526004016114919061333e565b60405180910390fd5b60395f3373ffffffffffffffffffffffffffffffffffffffff1673ffffffffffffffffffffffffffffffffffffffff1681526020019081526020015f205f9054906101000a900460ff1615611524576040517f08c379a000000000000000000000000000000000000000000000000000000000815260040161151b906133a6565b60405180910390fd5b60395f8473ffffffffffffffffffffffffffffffffffffffff1673ffffffffffffffffffffffffffffffffffffffff1681526020019081526020015f205f9054906101000a900460ff16156115ae576040517f08c379a00000000000000000000000000000000000000000000000000000000081526004016115a59061340e565b60405180910390fd5b6115b9338484612072565b6001905092915050565b603a602052805f5260405f205f915054906101000a900460ff1681565b6115e8612162565b60395f8273ffffffffffffffffffffffffffffffffffffffff1673ffffffffffffffffffffffffffffffffffffffff1681526020019081526020015f205f9054906101000a900460ff161560395f8373ffffffffffffffffffffffffffffffffffffffff1673ffffffffffffffffffffffffffffffffffffffff1681526020019081526020015f205f6101000a81548160ff0219169083151502179055508073ffffffffffffffffffffffffffffffffffffffff167f14ddf324cc5d8b14a3c3b12c84b0a7d578d72c8d60655c06d6a457e71431d5ee60395f8473ffffffffffffffffffffffffffffffffffffffff1673ffffffffffffffffffffffffffffffffffffffff1681526020019081526020015f205f9054906101000a900460ff166040516117159190612dbc565b60405180910390a250565b60355f9054906101000a900473ffffffffffffffffffffffffffffffffffffffff1681565b61174d612162565b5f73ffffffffffffffffffffffffffffffffffffffff168173ffffffffffffffffffffffffffffffffffffffff16036117bb576040517f08c379a00000000000000000000000000000000000000000000000000000000081526004016117b290613b1a565b60405180910390fd5b805f806101000a81548173ffffffffffffffffffffffffffffffffffffffff021916908373ffffffffffffffffffffffffffffffffffffffff16021790555050565b6039602052805f5260405f205f915054906101000a900460ff1681565b611822612162565b5f73ffffffffffffffffffffffffffffffffffffffff168273ffffffffffffffffffffffffffffffffffffffff1603611859575f80fd5b80603a5f8473ffffffffffffffffffffffffffffffffffffffff1673ffffffffffffffffffffffffffffffffffffffff1681526020019081526020015f205f6101000a81548160ff0219169083151502179055508173ffffffffffffffffffffffffffffffffffffffff167f726b590ef91a8c76ad05bbe91a57ef84605276528f49cd47d787f558a4e755b660405160405180910390a25050565b5f8054906101000a900473ffffffffffffffffffffffffffffffffffffffff1681565b5f80611921611f5f565b9050806001015f8573ffffffffffffffffffffffffffffffffffffffff1673ffffffffffffffffffffffffffffffffffffffff1681526020019081526020015f205f8473ffffffffffffffffffffffffffffffffffffffff1673ffffffffffffffffffffffffffffffffffffffff1681526020019081526020015f205491505092915050565b6119af612162565b5f73ffffffffffffffffffffffffffffffffffffffff168173ffffffffffffffffffffffffffffffffffffffff16036119e6575f80fd5b8060355f6101000a81548173ffffffffffffffffffffffffffffffffffffffff021916908373ffffffffffffffffffffffffffffffffffffffff1602179055508073ffffffffffffffffffffffffffffffffffffffff167fbdf37c276f641820b141429d245add2552b4118c0866e5a78638e3de5ef18d9d60405160405180910390a250565b5f73ffffffffffffffffffffffffffffffffffffffff168173ffffffffffffffffffffffffffffffffffffffff1603611ada576040517f08c379a0000000000000000000000000000000000000000000000000000000008152600401611ad190613b1a565b60405180910390fd5b5f8054906101000a900473ffffffffffffffffffffffffffffffffffffffff1673ffffffffffffffffffffffffffffffffffffffff168173ffffffffffffffffffffffffffffffffffffffff1614611b67576040517f08c379a0000000000000000000000000000000000000000000000000000000008152600401611b5e90613ba8565b60405180910390fd5b3373ffffffffffffffffffffffffffffffffffffffff168173ffffffffffffffffffffffffffffffffffffffff1614611bd5576040517f08c379a0000000000000000000000000000000000000000000000000000000008152600401611bcc90613c36565b60405180910390fd5b611bde81612449565b50565b611be9612162565b611bf1612257565b565b5f611bfc61262f565b90505f815f0160089054906101000a900460ff161590505f825f015f9054906101000a900467ffffffffffffffff1690505f808267ffffffffffffffff16148015611c445750825b90505f60018367ffffffffffffffff16148015611c7757505f3073ffffffffffffffffffffffffffffffffffffffff163b145b905081158015611c85575080155b15611cbc576040517ff92ee8a900000000000000000000000000000000000000000000000000000000815260040160405180910390fd5b6001855f015f6101000a81548167ffffffffffffffff021916908367ffffffffffffffff1602179055508315611d09576001855f0160086101000a81548160ff0219169083151502179055505b5f8a5111611d4c576040517f08c379a0000000000000000000000000000000000000000000000000000000008152600401611d4390613c9e565b60405180910390fd5b5f895111611d8f576040517f08c379a0000000000000000000000000000000000000000000000000000000008152600401611d8690613d06565b60405180910390fd5b5f8811611dd1576040517f08c379a0000000000000000000000000000000000000000000000000000000008152600401611dc890613d6e565b60405180910390fd5b5f73ffffffffffffffffffffffffffffffffffffffff168773ffffffffffffffffffffffffffffffffffffffff1603611e3f576040517f08c379a0000000000000000000000000000000000000000000000000000000008152600401611e3690613dfc565b60405180910390fd5b5f8611611e81576040517f08c379a0000000000000000000000000000000000000000000000000000000008152600401611e7890613e8a565b60405180910390fd5b611e8a33612656565b611e9261266a565b611e9c8a8a61267c565b611ea4612692565b876033819055508660355f6101000a81548173ffffffffffffffffffffffffffffffffffffffff021916908373ffffffffffffffffffffffffffffffffffffffff16021790555085603881905550426034819055508315611f53575f855f0160086101000a81548160ff0219169083151502179055507fc7f505b2f371ae2175ee4913f4499e1f2633a7b5936321eed1cdaeb6115181d26001604051611f4a9190613ef4565b60405180910390a15b50505050505050505050565b5f7f52c63247e1f47db19d5ce0460030c497f067ca4cebf71ba98eeadabe20bace00905090565b5f33905090565b611f9a838383600161269c565b505050565b611fa7610d67565b15611fde576040517fd93c066500000000000000000000000000000000000000000000000000000000815260040160405180910390fd5b565b5f611feb8484611917565b90507fffffffffffffffffffffffffffffffffffffffffffffffffffffffffffffffff811461206c578181101561205d578281836040517ffb8f41b200000000000000000000000000000000000000000000000000000000815260040161205493929190613f0d565b60405180910390fd5b61206b84848484035f61269c565b5b50505050565b5f73ffffffffffffffffffffffffffffffffffffffff168373ffffffffffffffffffffffffffffffffffffffff16036120e2575f6040517f96c6fd1e0000000000000000000000000000000000000000000000000000000081526004016120d99190612ee6565b60405180910390fd5b5f73ffffffffffffffffffffffffffffffffffffffff168273ffffffffffffffffffffffffffffffffffffffff1603612152575f6040517fec442f050000000000000000000000000000000000000000000000000000000081526004016121499190612ee6565b60405180910390fd5b61215d838383612879565b505050565b61216a611f86565b73ffffffffffffffffffffffffffffffffffffffff16612188610f0f565b73ffffffffffffffffffffffffffffffffffffffff16146121e7576121ab611f86565b6040517f118cdaa70000000000000000000000000000000000000000000000000000000081526004016121de9190612ee6565b60405180910390fd5b565b6121f1612aa8565b5f6121fa612422565b90505f815f015f6101000a81548160ff0219169083151502179055507f5db9ee0a495bf2e6ff9c91a7834c1ba4fdd244a5e8aa4e537bd38aeae4b073aa61223f611f86565b60405161224c9190612ee6565b60405180910390a150565b5f620151806034544261226a9190613f42565b6122749190613fa2565b9050600181106123a0575f61228761072c565b90505f8190505f60335490505f5b848110156122d55768056bc75e2d6310000082846122b39190613fd2565b6122bd9190613fa2565b836122c89190613645565b9250806001019050612295565b505f83836122e39190613f42565b905084620151806122f49190613fd2565b60345f8282546123049190613645565b9250508190555061233660355f9054906101000a900473ffffffffffffffffffffffffffffffffffffffff16826123a3565b7f07982395c678b2ffc23fcf59aaec243ca79418c285af0d0e10b4e65bc4189f4c60355f9054906101000a900473ffffffffffffffffffffffffffffffffffffffff164261238261072c565b846040516123939493929190614013565b60405180910390a1505050505b50565b5f73ffffffffffffffffffffffffffffffffffffffff168273ffffffffffffffffffffffffffffffffffffffff1603612413575f6040517fec442f0500000000000000000000000000000000000000000000000000000000815260040161240a9190612ee6565b60405180910390fd5b61241e5f8383612879565b5050565b5f7fcd5ed15c6e187e77e9aee88184c21f4f2182ab5827cb3b7e07fbedcd63f03300905090565b5f612452612589565b90505f815f015f9054906101000a900473ffffffffffffffffffffffffffffffffffffffff16905082825f015f6101000a81548173ffffffffffffffffffffffffffffffffffffffff021916908373ffffffffffffffffffffffffffffffffffffffff1602179055508273ffffffffffffffffffffffffffffffffffffffff168173ffffffffffffffffffffffffffffffffffffffff167f8be0079c531659141344cd1fd0a4f28419497f9722a3daafe3b4186f6b6457e060405160405180910390a3505050565b612522611f9f565b5f61252b612422565b90506001815f015f6101000a81548160ff0219169083151502179055507f62e78cea01bee320cd4e420270b5ea74000d11b0c9f74754ebdbfc544b05a258612571611f86565b60405161257e9190612ee6565b60405180910390a150565b5f7f9016d09d72d40fdae2fd8ceac6b6234c7706214fd39c1cd1e609a0528c199300905090565b5f73ffffffffffffffffffffffffffffffffffffffff168273ffffffffffffffffffffffffffffffffffffffff1603612620575f6040517f96c6fd1e0000000000000000000000000000000000000000000000000000000081526004016126179190612ee6565b60405180910390fd5b61262b825f83612879565b5050565b5f7ff0c57e16840df040f15088dc2f81fe391c3923bec73e23a9662efc9c229c6a00905090565b61265e612ae8565b61266781612b28565b50565b612672612ae8565b61267a612bac565b565b612684612ae8565b61268e8282612bdc565b5050565b61269a612ae8565b565b5f6126a5611f5f565b90505f73ffffffffffffffffffffffffffffffffffffffff168573ffffffffffffffffffffffffffffffffffffffff1603612717575f6040517fe602df0500000000000000000000000000000000000000000000000000000000815260040161270e9190612ee6565b60405180910390fd5b5f73ffffffffffffffffffffffffffffffffffffffff168473ffffffffffffffffffffffffffffffffffffffff1603612787575f6040517f94280d6200000000000000000000000000000000000000000000000000000000815260040161277e9190612ee6565b60405180910390fd5b82816001015f8773ffffffffffffffffffffffffffffffffffffffff1673ffffffffffffffffffffffffffffffffffffffff1681526020019081526020015f205f8673ffffffffffffffffffffffffffffffffffffffff1673ffffffffffffffffffffffffffffffffffffffff1681526020019081526020015f20819055508115612872578373ffffffffffffffffffffffffffffffffffffffff168573ffffffffffffffffffffffffffffffffffffffff167f8c5be1e5ebec7d5bd14f71427d1e84f3dd0314c0f7b2291e5b200ac8c7c3b925856040516128699190612de4565b60405180910390a35b5050505050565b5f612882611f5f565b90505f73ffffffffffffffffffffffffffffffffffffffff168473ffffffffffffffffffffffffffffffffffffffff16036128d65781816002015f8282546128ca9190613645565b925050819055506129a8565b5f815f015f8673ffffffffffffffffffffffffffffffffffffffff1673ffffffffffffffffffffffffffffffffffffffff1681526020019081526020015f2054905082811015612961578481846040517fe450d38c00000000000000000000000000000000000000000000000000000000815260040161295893929190613f0d565b60405180910390fd5b828103825f015f8773ffffffffffffffffffffffffffffffffffffffff1673ffffffffffffffffffffffffffffffffffffffff1681526020019081526020015f2081905550505b5f73ffffffffffffffffffffffffffffffffffffffff168373ffffffffffffffffffffffffffffffffffffffff16036129f15781816002015f8282540392505081905550612a3d565b81815f015f8573ffffffffffffffffffffffffffffffffffffffff1673ffffffffffffffffffffffffffffffffffffffff1681526020019081526020015f205f82825401925050819055505b8273ffffffffffffffffffffffffffffffffffffffff168473ffffffffffffffffffffffffffffffffffffffff167fddf252ad1be2c89b69c2b068fc378daa952ba7f163c4a11628f55a4df523b3ef84604051612a9a9190612de4565b60405180910390a350505050565b612ab0610d67565b612ae6576040517f8dfc202b00000000000000000000000000000000000000000000000000000000815260040160405180910390fd5b565b612af0612c18565b612b26576040517fd7e6bcf800000000000000000000000000000000000000000000000000000000815260040160405180910390fd5b565b612b30612ae8565b5f73ffffffffffffffffffffffffffffffffffffffff168173ffffffffffffffffffffffffffffffffffffffff1603612ba0575f6040517f1e4fbdf7000000000000000000000000000000000000000000000000000000008152600401612b979190612ee6565b60405180910390fd5b612ba981612449565b50565b612bb4612ae8565b5f612bbd612422565b90505f815f015f6101000a81548160ff02191690831515021790555050565b612be4612ae8565b5f612bed611f5f565b905082816003019081612c009190613973565b5081816004019081612c129190613973565b50505050565b5f612c2161262f565b5f0160089054906101000a900460ff16905090565b5f81519050919050565b5f82825260208201905092915050565b8281835e5f83830152505050565b5f601f19601f8301169050919050565b5f612c7882612c36565b612c828185612c40565b9350612c92818560208601612c50565b612c9b81612c5e565b840191505092915050565b5f6020820190508181035f830152612cbe8184612c6e565b905092915050565b5f604051905090565b5f80fd5b5f80fd5b5f73ffffffffffffffffffffffffffffffffffffffff82169050919050565b5f612d0082612cd7565b9050919050565b612d1081612cf6565b8114612d1a575f80fd5b50565b5f81359050612d2b81612d07565b92915050565b5f819050919050565b612d4381612d31565b8114612d4d575f80fd5b50565b5f81359050612d5e81612d3a565b92915050565b5f8060408385031215612d7a57612d79612ccf565b5b5f612d8785828601612d1d565b9250506020612d9885828601612d50565b9150509250929050565b5f8115159050919050565b612db681612da2565b82525050565b5f602082019050612dcf5f830184612dad565b92915050565b612dde81612d31565b82525050565b5f602082019050612df75f830184612dd5565b92915050565b5f805f60608486031215612e1457612e13612ccf565b5b5f612e2186828701612d1d565b9350506020612e3286828701612d1d565b9250506040612e4386828701612d50565b9150509250925092565b5f60ff82169050919050565b612e6281612e4d565b82525050565b5f602082019050612e7b5f830184612e59565b92915050565b5f60208284031215612e9657612e95612ccf565b5b5f612ea384828501612d50565b91505092915050565b5f60208284031215612ec157612ec0612ccf565b5b5f612ece84828501612d1d565b91505092915050565b612ee081612cf6565b82525050565b5f602082019050612ef95f830184612ed7565b92915050565b5f80fd5b5f80fd5b7f4e487b71000000000000000000000000000000000000000000000000000000005f52604160045260245ffd5b612f3d82612c5e565b810181811067ffffffffffffffff82111715612f5c57612f5b612f07565b5b80604052505050565b5f612f6e612cc6565b9050612f7a8282612f34565b919050565b5f67ffffffffffffffff821115612f9957612f98612f07565b5b612fa282612c5e565b9050602081019050919050565b828183375f83830152505050565b5f612fcf612fca84612f7f565b612f65565b905082815260208101848484011115612feb57612fea612f03565b5b612ff6848285612faf565b509392505050565b5f82601f83011261301257613011612eff565b5b8135613022848260208601612fbd565b91505092915050565b5f602082840312156130405761303f612ccf565b5b5f82013567ffffffffffffffff81111561305d5761305c612cd3565b5b61306984828501612ffe565b91505092915050565b61307b81612da2565b8114613085575f80fd5b50565b5f8135905061309681613072565b92915050565b5f80604083850312156130b2576130b1612ccf565b5b5f6130bf85828601612d1d565b92505060206130d085828601613088565b9150509250929050565b5f80604083850312156130f0576130ef612ccf565b5b5f6130fd85828601612d1d565b925050602061310e85828601612d1d565b9150509250929050565b5f805f805f60a0868803121561313157613130612ccf565b5b5f86013567ffffffffffffffff81111561314e5761314d612cd3565b5b61315a88828901612ffe565b955050602086013567ffffffffffffffff81111561317b5761317a612cd3565b5b61318788828901612ffe565b945050604061319888828901612d50565b93505060606131a988828901612d1d565b92505060806131ba88828901612d50565b9150509295509295909350565b7f4e487b71000000000000000000000000000000000000000000000000000000005f52602260045260245ffd5b5f600282049050600182168061320b57607f821691505b60208210810361321e5761321d6131c7565b5b50919050565b7f7472616e736665722066726f6d20746865207a65726f206164647265737300005f82015250565b5f613258601e83612c40565b915061326382613224565b602082019050919050565b5f6020820190508181035f8301526132858161324c565b9050919050565b7f7472616e7366657220746f20746865207a65726f2061646472657373000000005f82015250565b5f6132c0601c83612c40565b91506132cb8261328c565b602082019050919050565b5f6020820190508181035f8301526132ed816132b4565b9050919050565b7f7472616e7366657220616d6f756e7420657863656564732062616c616e6365005f82015250565b5f613328601f83612c40565b9150613333826132f4565b602082019050919050565b5f6020820190508181035f8301526133558161331c565b9050919050565b7f6d73672e73656e646572206973207265737472696374656400000000000000005f82015250565b5f613390601883612c40565b915061339b8261335c565b602082019050919050565b5f6020820190508181035f8301526133bd81613384565b9050919050565b7f746f2069732072657374726963746564000000000000000000000000000000005f82015250565b5f6133f8601083612c40565b9150613403826133c4565b602082019050919050565b5f6020820190508181035f830152613425816133ec565b9050919050565b7f66726f6d206973207265737472696374656400000000000000000000000000005f82015250565b5f613460601283612c40565b915061346b8261342c565b602082019050919050565b5f6020820190508181035f83015261348d81613454565b9050919050565b7f496e646578546f6b656e3a2063616c6c6572206973206e6f7420746865206d695f8201527f6e74657200000000000000000000000000000000000000000000000000000000602082015250565b5f6134ee602483612c40565b91506134f982613494565b604082019050919050565b5f6020820190508181035f83015261351b816134e2565b9050919050565b7f6d696e7420746f20746865207a65726f206164647265737300000000000000005f82015250565b5f613556601883612c40565b915061356182613522565b602082019050919050565b5f6020820190508181035f8301526135838161354a565b9050919050565b7f6d696e7420616d6f756e74206d7573742062652067726561746572207468616e5f8201527f2030000000000000000000000000000000000000000000000000000000000000602082015250565b5f6135e4602283612c40565b91506135ef8261358a565b604082019050919050565b5f6020820190508181035f830152613611816135d8565b9050919050565b7f4e487b71000000000000000000000000000000000000000000000000000000005f52601160045260245ffd5b5f61364f82612d31565b915061365a83612d31565b925082820190508082111561367257613671613618565b5b92915050565b7f77696c6c2065786365656420737570706c79206365696c696e670000000000005f82015250565b5f6136ac601a83612c40565b91506136b782613678565b602082019050919050565b5f6020820190508181035f8301526136d9816136a0565b9050919050565b7f496e646578546f6b656e3a2063616c6c6572206973206e6f7420746865206d655f8201527f74686f646f6c6f67697374000000000000000000000000000000000000000000602082015250565b5f61373a602b83612c40565b9150613745826136e0565b604082019050919050565b5f6020820190508181035f8301526137678161372e565b9050919050565b7f6d6574686f646f6c6f67792063616e6e6f7420626520656d70747900000000005f82015250565b5f6137a2601b83612c40565b91506137ad8261376e565b602082019050919050565b5f6020820190508181035f8301526137cf81613796565b9050919050565b5f819050815f5260205f209050919050565b5f6020601f8301049050919050565b5f82821b905092915050565b5f600883026138327fffffffffffffffffffffffffffffffffffffffffffffffffffffffffffffffff826137f7565b61383c86836137f7565b95508019841693508086168417925050509392505050565b5f819050919050565b5f61387761387261386d84612d31565b613854565b612d31565b9050919050565b5f819050919050565b6138908361385d565b6138a461389c8261387e565b848454613803565b825550505050565b5f90565b6138b86138ac565b6138c3818484613887565b505050565b5b818110156138e6576138db5f826138b0565b6001810190506138c9565b5050565b601f82111561392b576138fc816137d6565b613905846137e8565b81016020851015613914578190505b613928613920856137e8565b8301826138c8565b50505b505050565b5f82821c905092915050565b5f61394b5f1984600802613930565b1980831691505092915050565b5f613963838361393c565b9150826002028217905092915050565b61397c82612c36565b67ffffffffffffffff81111561399557613994612f07565b5b61399f82546131f4565b6139aa8282856138ea565b5f60209050601f8311600181146139db575f84156139c9578287015190505b6139d38582613958565b865550613a3a565b601f1984166139e9866137d6565b5f5b82811015613a10578489015182556001820191506020850194506020810190506139eb565b86831015613a2d5784890151613a29601f89168261393c565b8355505b6001600288020188555050505b505050505050565b7f6275726e2066726f6d20746865207a65726f20616464726573730000000000005f82015250565b5f613a76601a83612c40565b9150613a8182613a42565b602082019050919050565b5f6020820190508181035f830152613aa381613a6a565b9050919050565b7f50726f706f7361626c654f776e61626c653a206e6577206f776e6572206973205f8201527f746865207a65726f206164647265737300000000000000000000000000000000602082015250565b5f613b04603083612c40565b9150613b0f82613aaa565b604082019050919050565b5f6020820190508181035f830152613b3181613af8565b9050919050565b7f50726f706f7361626c654f776e61626c653a206e6577206f776e6572206973205f8201527f6e6f742070726f706f736564206f776e65720000000000000000000000000000602082015250565b5f613b92603283612c40565b9150613b9d82613b38565b604082019050919050565b5f6020820190508181035f830152613bbf81613b86565b9050919050565b7f50726f706f7361626c654f776e61626c653a20746869732063616c6c206d75735f8201527f74206265206d61646520627920746865206e6577206f776e6572000000000000602082015250565b5f613c20603a83612c40565b9150613c2b82613bc6565b604082019050919050565b5f6020820190508181035f830152613c4d81613c14565b9050919050565b7f746f6b656e206e616d652063616e6e6f7420626520656d7074790000000000005f82015250565b5f613c88601a83612c40565b9150613c9382613c54565b602082019050919050565b5f6020820190508181035f830152613cb581613c7c565b9050919050565b7f746f6b656e2073796d626f6c2063616e6e6f7420626520656d707479000000005f82015250565b5f613cf0601c83612c40565b9150613cfb82613cbc565b602082019050919050565b5f6020820190508181035f830152613d1d81613ce4565b9050919050565b7f6665652072617465206d7573742062652067726561746572207468616e2030005f82015250565b5f613d58601f83612c40565b9150613d6382613d24565b602082019050919050565b5f6020820190508181035f830152613d8581613d4c565b9050919050565b7f6665652072656365697665722063616e6e6f7420626520746865207a65726f205f8201527f6164647265737300000000000000000000000000000000000000000000000000602082015250565b5f613de6602783612c40565b9150613df182613d8c565b604082019050919050565b5f6020820190508181035f830152613e1381613dda565b9050919050565b7f737570706c79206365696c696e67206d757374206265206772656174657220745f8201527f68616e2030000000000000000000000000000000000000000000000000000000602082015250565b5f613e74602583612c40565b9150613e7f82613e1a565b604082019050919050565b5f6020820190508181035f830152613ea181613e68565b9050919050565b5f819050919050565b5f67ffffffffffffffff82169050919050565b5f613ede613ed9613ed484613ea8565b613854565b613eb1565b9050919050565b613eee81613ec4565b82525050565b5f602082019050613f075f830184613ee5565b92915050565b5f606082019050613f205f830186612ed7565b613f2d6020830185612dd5565b613f3a6040830184612dd5565b949350505050565b5f613f4c82612d31565b9150613f5783612d31565b9250828203905081811115613f6f57613f6e613618565b5b92915050565b7f4e487b71000000000000000000000000000000000000000000000000000000005f52601260045260245ffd5b5f613fac82612d31565b9150613fb783612d31565b925082613fc757613fc6613f75565b5b828204905092915050565b5f613fdc82612d31565b9150613fe783612d31565b9250828202613ff581612d31565b9150828204841483151761400c5761400b613618565b5b5092915050565b5f6080820190506140265f830187612ed7565b6140336020830186612dd5565b6140406040830185612dd5565b61404d6060830184612dd5565b9594505050505056fea26469706673582212207f54c540b06d65881766bb06ddded61c73a0ea6f9c35b1b848b106153d96aa3664736f6c63430008190033","linkReferences":{}},"methodIdentifiers":{"allowance(address,address)":"dd62ed3e","approve(address,uint256)":"095ea7b3","balanceOf(address)":"70a08231","burn(address,uint256)":"9dc29fac","decimals()":"313ce567","feeRatePerDayScaled()":"2fecd589","feeReceiver()":"b3f00674","feeTimestamp()":"184a732f","initialize(string,string,uint256,address,uint256)":"fede0276","isMinter(address)":"aa271e1a","isRestricted(address)":"c01bc982","methodologist()":"9f8e67bf","methodology()":"9eeb1d50","mint(address,uint256)":"40c10f19","mintToFeeReceiver()":"f734e22a","name()":"06fdde03","owner()":"8da5cb5b","pause()":"8456cb59","paused()":"5c975abb","proposeOwner(address)":"b5ed298a","proposedOwner()":"d153b60c","renounceOwnership()":"715018a6","setFeeRate(uint256)":"45596e2e","setFeeReceiver(address)":"efdcd974","setMethodologist(address)":"660db484","setMethodology(string)":"91fe1b92","setMinter(address,bool)":"cf456ae7","setSupplyCeiling(uint256)":"6e01a686","supplyCeiling()":"2b52684d","symbol()":"95d89b41","toggleRestriction(address)":"aaa4a184","totalSupply()":"18160ddd","transfer(address,uint256)":"a9059cbb","transferFrom(address,address,uint256)":"23b872dd","transferOwnership(address)":"f2fde38b","unpause()":"3f4ba83a"},"id":39}