{"abi":[{"type":"function","name":"actionInfoById","inputs":[{"name":"","type":"uint256","internalType":"uint256"}],"outputs":[{"name":"actionType","type":"uint256","internalType":"uint256"},{"name":"nonce","type":"uint256","internalType":"uint256"}],"stateMutability":"view"},{"type":"function","name":"burnedTokenAmountByNonce","inputs":[{"name":"","type":"uint256","internalType":"uint256"}],"outputs":[{"name":"","type":"uint256","internalType":"uint256"}],"stateMutability":"view"},{"type":"function","name":"buyRequestPayedAmountById","inputs":[{"name":"","type":"uint256","internalType":"uint256"}],"outputs":[{"name":"","type":"uint256","internalType":"uint256"}],"stateMutability":"view"},{"type":"function","name":"calculateBuyRequestFee","inputs":[{"name":"_amount","type":"uint256","internalType":"uint256"}],"outputs":[{"name":"","type":"uint256","internalType":"uint256"}],"stateMutability":"view"},{"type":"function","name":"calculateIssuanceFee","inputs":[{"name":"_inputAmount","type":"uint256","internalType":"uint256"}],"outputs":[{"name":"","type":"uint256","internalType":"uint256"}],"stateMutability":"view"},{"type":"function","name":"cancelIssuance","inputs":[{"name":"_issuanceNonce","type":"uint256","internalType":"uint256"}],"outputs":[],"stateMutability":"nonpayable"},{"type":"function","name":"cancelIssuanceComplted","inputs":[{"name":"","type":"uint256","internalType":"uint256"}],"outputs":[{"name":"","type":"bool","internalType":"bool"}],"stateMutability":"view"},{"type":"function","name":"cancelIssuanceRequestId","inputs":[{"name":"","type":"uint256","internalType":"uint256"},{"name":"","type":"address","internalType":"address"}],"outputs":[{"name":"","type":"uint256","internalType":"uint256"}],"stateMutability":"view"},{"type":"function","name":"cancelRedemption","inputs":[{"name":"_redemptionNonce","type":"uint256","internalType":"uint256"}],"outputs":[],"stateMutability":"nonpayable"},{"type":"function","name":"cancelRedemptionComplted","inputs":[{"name":"","type":"uint256","internalType":"uint256"}],"outputs":[{"name":"","type":"bool","internalType":"bool"}],"stateMutability":"view"},{"type":"function","name":"cancelRedemptionRequestId","inputs":[{"name":"","type":"uint256","internalType":"uint256"},{"name":"","type":"address","internalType":"address"}],"outputs":[{"name":"","type":"uint256","internalType":"uint256"}],"stateMutability":"view"},{"type":"function","name":"checkMultical","inputs":[{"name":"_reqeustId","type":"uint256","internalType":"uint256"}],"outputs":[{"name":"","type":"bool","internalType":"bool"}],"stateMutability":"view"},{"type":"function","name":"coaByIssuanceNonce","inputs":[{"name":"","type":"uint256","internalType":"uint256"}],"outputs":[{"name":"","type":"address","internalType":"address"}],"stateMutability":"view"},{"type":"function","name":"coaByRedemptionNonce","inputs":[{"name":"","type":"uint256","internalType":"uint256"}],"outputs":[{"name":"","type":"address","internalType":"address"}],"stateMutability":"view"},{"type":"function","name":"completeCancelIssuance","inputs":[{"name":"_issuanceNonce","type":"uint256","internalType":"uint256"}],"outputs":[],"stateMutability":"nonpayable"},{"type":"function","name":"completeCancelRedemption","inputs":[{"name":"_redemptionNonce","type":"uint256","internalType":"uint256"}],"outputs":[],"stateMutability":"nonpayable"},{"type":"function","name":"completeIssuance","inputs":[{"name":"_issuanceNonce","type":"uint256","internalType":"uint256"}],"outputs":[],"stateMutability":"nonpayable"},{"type":"function","name":"completeRedemption","inputs":[{"name":"_redemptionNonce","type":"uint256","internalType":"uint256"}],"outputs":[],"stateMutability":"nonpayable"},{"type":"function","name":"factoryStorage","inputs":[],"outputs":[{"name":"","type":"address","internalType":"contract IndexFactoryStorage"}],"stateMutability":"view"},{"type":"function","name":"feeRate","inputs":[],"outputs":[{"name":"","type":"uint8","internalType":"uint8"}],"stateMutability":"view"},{"type":"function","name":"getActionType","inputs":[{"name":"_requestId","type":"uint256","internalType":"uint256"}],"outputs":[{"name":"","type":"uint256","internalType":"uint256"}],"stateMutability":"view"},{"type":"function","name":"getIssuanceAmountOut","inputs":[{"name":"_amount","type":"uint256","internalType":"uint256"}],"outputs":[{"name":"","type":"uint256","internalType":"uint256"}],"stateMutability":"view"},{"type":"function","name":"getOrderInstanceById","inputs":[{"name":"id","type":"uint256","internalType":"uint256"}],"outputs":[{"name":"","type":"tuple","internalType":"struct IOrderProcessor.Order","components":[{"name":"requestTimestamp","type":"uint64","internalType":"uint64"},{"name":"recipient","type":"address","internalType":"address"},{"name":"assetToken","type":"address","internalType":"address"},{"name":"paymentToken","type":"address","internalType":"address"},{"name":"sell","type":"bool","internalType":"bool"},{"name":"orderType","type":"uint8","internalType":"enum IOrderProcessor.OrderType"},{"name":"assetTokenQuantity","type":"uint256","internalType":"uint256"},{"name":"paymentTokenQuantity","type":"uint256","internalType":"uint256"},{"name":"price","type":"uint256","internalType":"uint256"},{"name":"tif","type":"uint8","internalType":"enum IOrderProcessor.TIF"}]}],"stateMutability":"view"},{"type":"function","name":"getPortfolioValue","inputs":[],"outputs":[{"name":"","type":"uint256","internalType":"uint256"}],"stateMutability":"view"},{"type":"function","name":"getRedemptionAmountOut","inputs":[{"name":"_amount","type":"uint256","internalType":"uint256"}],"outputs":[{"name":"","type":"uint256","internalType":"uint256"}],"stateMutability":"view"},{"type":"function","name":"getVaultDshareBalance","inputs":[{"name":"_token","type":"address","internalType":"address"}],"outputs":[{"name":"","type":"uint256","internalType":"uint256"}],"stateMutability":"view"},{"type":"function","name":"getVaultDshareValue","inputs":[{"name":"_token","type":"address","internalType":"address"}],"outputs":[{"name":"","type":"uint256","internalType":"uint256"}],"stateMutability":"view"},{"type":"function","name":"initialize","inputs":[{"name":"_factoryStorage","type":"address","internalType":"address"},{"name":"_orderManager","type":"address","internalType":"address"},{"name":"_issuer","type":"address","internalType":"address"},{"name":"_token","type":"address","internalType":"address"},{"name":"_vault","type":"address","internalType":"address"},{"name":"_usdc","type":"address","internalType":"address"},{"name":"_usdcDecimals","type":"uint8","internalType":"uint8"},{"name":"_isMainnet","type":"bool","internalType":"bool"}],"outputs":[],"stateMutability":"nonpayable"},{"type":"function","name":"isMainnet","inputs":[],"outputs":[{"name":"","type":"bool","internalType":"bool"}],"stateMutability":"view"},{"type":"function","name":"issuanceIndexTokenPrimaryTotalSupply","inputs":[{"name":"","type":"uint256","internalType":"uint256"}],"outputs":[{"name":"","type":"uint256","internalType":"uint256"}],"stateMutability":"view"},{"type":"function","name":"issuanceIndexTokens","inputs":[{"name":"_inputAmount","type":"uint256","internalType":"uint256"}],"outputs":[{"name":"","type":"uint256","internalType":"uint256"}],"stateMutability":"nonpayable"},{"type":"function","name":"issuanceInputAmount","inputs":[{"name":"","type":"uint256","internalType":"uint256"}],"outputs":[{"name":"","type":"uint256","internalType":"uint256"}],"stateMutability":"view"},{"type":"function","name":"issuanceIsCompleted","inputs":[{"name":"","type":"uint256","internalType":"uint256"}],"outputs":[{"name":"","type":"bool","internalType":"bool"}],"stateMutability":"view"},{"type":"function","name":"issuanceNonce","inputs":[],"outputs":[{"name":"","type":"uint256","internalType":"uint256"}],"stateMutability":"view"},{"type":"function","name":"issuanceRequestId","inputs":[{"name":"","type":"uint256","internalType":"uint256"},{"name":"","type":"address","internalType":"address"}],"outputs":[{"name":"","type":"uint256","internalType":"uint256"}],"stateMutability":"view"},{"type":"function","name":"issuanceRequesterByNonce","inputs":[{"name":"","type":"uint256","internalType":"uint256"}],"outputs":[{"name":"","type":"address","internalType":"address"}],"stateMutability":"view"},{"type":"function","name":"issuanceTokenPrimaryBalance","inputs":[{"name":"","type":"uint256","internalType":"uint256"},{"name":"","type":"address","internalType":"address"}],"outputs":[{"name":"","type":"uint256","internalType":"uint256"}],"stateMutability":"view"},{"type":"function","name":"issuer","inputs":[],"outputs":[{"name":"","type":"address","internalType":"contract IOrderProcessor"}],"stateMutability":"view"},{"type":"function","name":"latestFeeUpdate","inputs":[],"outputs":[{"name":"","type":"uint256","internalType":"uint256"}],"stateMutability":"view"},{"type":"function","name":"mockCompleteIssuance","inputs":[{"name":"_issuanceNonce","type":"uint256","internalType":"uint256"},{"name":"_mintAmount","type":"uint256","internalType":"uint256"}],"outputs":[],"stateMutability":"nonpayable"},{"type":"function","name":"mockCompleteRedemption","inputs":[{"name":"_redemptionNonce","type":"uint256","internalType":"uint256"},{"name":"_amount","type":"uint256","internalType":"uint256"}],"outputs":[],"stateMutability":"nonpayable"},{"type":"function","name":"multical","inputs":[{"name":"_requestId","type":"uint256","internalType":"uint256"}],"outputs":[],"stateMutability":"nonpayable"},{"type":"function","name":"orderInstanceById","inputs":[{"name":"","type":"uint256","internalType":"uint256"}],"outputs":[{"name":"requestTimestamp","type":"uint64","internalType":"uint64"},{"name":"recipient","type":"address","internalType":"address"},{"name":"assetToken","type":"address","internalType":"address"},{"name":"paymentToken","type":"address","internalType":"address"},{"name":"sell","type":"bool","internalType":"bool"},{"name":"orderType","type":"uint8","internalType":"enum IOrderProcessor.OrderType"},{"name":"assetTokenQuantity","type":"uint256","internalType":"uint256"},{"name":"paymentTokenQuantity","type":"uint256","internalType":"uint256"},{"name":"price","type":"uint256","internalType":"uint256"},{"name":"tif","type":"uint8","internalType":"enum IOrderProcessor.TIF"}],"stateMutability":"view"},{"type":"function","name":"orderManager","inputs":[],"outputs":[{"name":"","type":"address","internalType":"contract OrderManager"}],"stateMutability":"view"},{"type":"function","name":"owner","inputs":[],"outputs":[{"name":"","type":"address","internalType":"address"}],"stateMutability":"view"},{"type":"function","name":"pause","inputs":[],"outputs":[],"stateMutability":"nonpayable"},{"type":"function","name":"paused","inputs":[],"outputs":[{"name":"","type":"bool","internalType":"bool"}],"stateMutability":"view"},{"type":"function","name":"portfolioValueByNonce","inputs":[{"name":"","type":"uint256","internalType":"uint256"}],"outputs":[{"name":"","type":"uint256","internalType":"uint256"}],"stateMutability":"view"},{"type":"function","name":"priceInWei","inputs":[{"name":"_tokenAddress","type":"address","internalType":"address"}],"outputs":[{"name":"","type":"uint256","internalType":"uint256"}],"stateMutability":"view"},{"type":"function","name":"redemption","inputs":[{"name":"_inputAmount","type":"uint256","internalType":"uint256"}],"outputs":[{"name":"","type":"uint256","internalType":"uint256"}],"stateMutability":"nonpayable"},{"type":"function","name":"redemptionIndexTokenPrimaryTotalSupply","inputs":[{"name":"","type":"uint256","internalType":"uint256"}],"outputs":[{"name":"","type":"uint256","internalType":"uint256"}],"stateMutability":"view"},{"type":"function","name":"redemptionInputAmount","inputs":[{"name":"","type":"uint256","internalType":"uint256"}],"outputs":[{"name":"","type":"uint256","internalType":"uint256"}],"stateMutability":"view"},{"type":"function","name":"redemptionIsCompleted","inputs":[{"name":"","type":"uint256","internalType":"uint256"}],"outputs":[{"name":"","type":"bool","internalType":"bool"}],"stateMutability":"view"},{"type":"function","name":"redemptionNonce","inputs":[],"outputs":[{"name":"","type":"uint256","internalType":"uint256"}],"stateMutability":"view"},{"type":"function","name":"redemptionRequestId","inputs":[{"name":"","type":"uint256","internalType":"uint256"},{"name":"","type":"address","internalType":"address"}],"outputs":[{"name":"","type":"uint256","internalType":"uint256"}],"stateMutability":"view"},{"type":"function","name":"redemptionRequesterByNonce","inputs":[{"name":"","type":"uint256","internalType":"uint256"}],"outputs":[{"name":"","type":"address","internalType":"address"}],"stateMutability":"view"},{"type":"function","name":"redemptionTokenPrimaryBalance","inputs":[{"name":"","type":"uint256","internalType":"uint256"},{"name":"","type":"address","internalType":"address"}],"outputs":[{"name":"","type":"uint256","internalType":"uint256"}],"stateMutability":"view"},{"type":"function","name":"renounceOwnership","inputs":[],"outputs":[],"stateMutability":"nonpayable"},{"type":"function","name":"sellRequestAssetAmountById","inputs":[{"name":"","type":"uint256","internalType":"uint256"}],"outputs":[{"name":"","type":"uint256","internalType":"uint256"}],"stateMutability":"view"},{"type":"function","name":"setFeeRate","inputs":[{"name":"_newFee","type":"uint8","internalType":"uint8"}],"outputs":[],"stateMutability":"nonpayable"},{"type":"function","name":"setIndexFactoryStorage","inputs":[{"name":"_factoryStorage","type":"address","internalType":"address"}],"outputs":[{"name":"","type":"bool","internalType":"bool"}],"stateMutability":"nonpayable"},{"type":"function","name":"setIssuer","inputs":[{"name":"_issuer","type":"address","internalType":"address"}],"outputs":[{"name":"","type":"bool","internalType":"bool"}],"stateMutability":"nonpayable"},{"type":"function","name":"setTokenAddress","inputs":[{"name":"_token","type":"address","internalType":"address"}],"outputs":[{"name":"","type":"bool","internalType":"bool"}],"stateMutability":"nonpayable"},{"type":"function","name":"setUsdcAddress","inputs":[{"name":"_usdc","type":"address","internalType":"address"},{"name":"_usdcDecimals","type":"uint8","internalType":"uint8"}],"outputs":[{"name":"","type":"bool","internalType":"bool"}],"stateMutability":"nonpayable"},{"type":"function","name":"token","inputs":[],"outputs":[{"name":"","type":"address","internalType":"contract IndexToken"}],"stateMutability":"view"},{"type":"function","name":"tokenShortagePercentByNonce","inputs":[{"name":"","type":"uint256","internalType":"uint256"},{"name":"","type":"address","internalType":"address"}],"outputs":[{"name":"","type":"uint256","internalType":"uint256"}],"stateMutability":"view"},{"type":"function","name":"tokenValueByNonce","inputs":[{"name":"","type":"uint256","internalType":"uint256"},{"name":"","type":"address","internalType":"address"}],"outputs":[{"name":"","type":"uint256","internalType":"uint256"}],"stateMutability":"view"},{"type":"function","name":"totalShortagePercentByNonce","inputs":[{"name":"","type":"uint256","internalType":"uint256"}],"outputs":[{"name":"","type":"uint256","internalType":"uint256"}],"stateMutability":"view"},{"type":"function","name":"transferOwnership","inputs":[{"name":"newOwner","type":"address","internalType":"address"}],"outputs":[],"stateMutability":"nonpayable"},{"type":"function","name":"unpause","inputs":[],"outputs":[],"stateMutability":"nonpayable"},{"type":"function","name":"usdc","inputs":[],"outputs":[{"name":"","type":"address","internalType":"address"}],"stateMutability":"view"},{"type":"function","name":"usdcDecimals","inputs":[],"outputs":[{"name":"","type":"uint8","internalType":"uint8"}],"stateMutability":"view"},{"type":"function","name":"vault","inputs":[],"outputs":[{"name":"","type":"address","internalType":"contract NexVault"}],"stateMutability":"view"},{"type":"event","name":"Initialized","inputs":[{"name":"version","type":"uint64","indexed":false,"internalType":"uint64"}],"anonymous":false},{"type":"event","name":"Issuanced","inputs":[{"name":"nonce","type":"uint256","indexed":true,"internalType":"uint256"},{"name":"user","type":"address","indexed":true,"internalType":"address"},{"name":"inputToken","type":"address","indexed":false,"internalType":"address"},{"name":"inputAmount","type":"uint256","indexed":false,"internalType":"uint256"},{"name":"outputAmount","type":"uint256","indexed":false,"internalType":"uint256"},{"name":"time","type":"uint256","indexed":false,"internalType":"uint256"}],"anonymous":false},{"type":"event","name":"OwnershipTransferred","inputs":[{"name":"previousOwner","type":"address","indexed":true,"internalType":"address"},{"name":"newOwner","type":"address","indexed":true,"internalType":"address"}],"anonymous":false},{"type":"event","name":"Paused","inputs":[{"name":"account","type":"address","indexed":false,"internalType":"address"}],"anonymous":false},{"type":"event","name":"Redemption","inputs":[{"name":"nonce","type":"uint256","indexed":true,"internalType":"uint256"},{"name":"user","type":"address","indexed":true,"internalType":"address"},{"name":"outputToken","type":"address","indexed":false,"internalType":"address"},{"name":"inputAmount","type":"uint256","indexed":false,"internalType":"uint256"},{"name":"outputAmount","type":"uint256","indexed":false,"internalType":"uint256"},{"name":"time","type":"uint256","indexed":false,"internalType":"uint256"}],"anonymous":false},{"type":"event","name":"RequestIssuance","inputs":[{"name":"nonce","type":"uint256","indexed":true,"internalType":"uint256"},{"name":"user","type":"address","indexed":true,"internalType":"address"},{"name":"inputToken","type":"address","indexed":false,"internalType":"address"},{"name":"inputAmount","type":"uint256","indexed":false,"internalType":"uint256"},{"name":"outputAmount","type":"uint256","indexed":false,"internalType":"uint256"},{"name":"time","type":"uint256","indexed":false,"internalType":"uint256"}],"anonymous":false},{"type":"event","name":"RequestRedemption","inputs":[{"name":"nonce","type":"uint256","indexed":true,"internalType":"uint256"},{"name":"user","type":"address","indexed":true,"internalType":"address"},{"name":"outputToken","type":"address","indexed":false,"internalType":"address"},{"name":"inputAmount","type":"uint256","indexed":false,"internalType":"uint256"},{"name":"outputAmount","type":"uint256","indexed":false,"internalType":"uint256"},{"name":"time","type":"uint256","indexed":false,"internalType":"uint256"}],"anonymous":false},{"type":"event","name":"Unpaused","inputs":[{"name":"account","type":"address","indexed":false,"internalType":"address"}],"anonymous":false},{"type":"error","name":"EnforcedPause","inputs":[]},{"type":"error","name":"ExpectedPause","inputs":[]},{"type":"error","name":"InvalidInitialization","inputs":[]},{"type":"error","name":"NotInitializing","inputs":[]},{"type":"error","name":"OwnableInvalidOwner","inputs":[{"name":"owner","type":"address","internalType":"address"}]},{"type":"error","name":"OwnableUnauthorizedAccount","inputs":[{"name":"account","type":"address","internalType":"address"}]},{"type":"error","name":"PRBMath_MulDiv_Overflow","inputs":[{"name":"x","type":"uint256","internalType":"uint256"},{"name":"y","type":"uint256","internalType":"uint256"},{"name":"denominator","type":"uint256","internalType":"uint256"}]}],"bytecode":{"object":"0x6080604052348015600f57600080fd5b50614ca98061001f6000396000f3fe608060405234801561001057600080fd5b50600436106104335760003560e01c80638da5cb5b11610236578063bed45bef1161013b578063e19eefbe116100c3578063f2fde38b11610087578063f2fde38b14610be4578063f513a71814610bf7578063f9b6117f14610c22578063fbfa77cf14610c35578063fc0c546a14610c4857600080fd5b8063e19eefbe14610b78578063e2851bd614610b8b578063eab2a71114610b9e578063efdf505314610bb1578063f1f31d6614610bc457600080fd5b8063cf9ee3191161010a578063cf9ee31914610acf578063da65925a14610aef578063daf1c17d14610b1a578063db5c1a1214610b3a578063e16e554a14610b6557600080fd5b8063bed45bef14610a83578063c06e1ae214610a96578063c8da330314610aa9578063cc8659ae14610abc57600080fd5b8063a84ebc17116101be578063b1dd819e1161018d578063b1dd819e146109e4578063b316e7fd14610a04578063b46840f914610a2f578063b75f4c2c14610a52578063bb0498de14610a7b57600080fd5b8063a84ebc171461096e578063a870201814610991578063a87f98d2146109a4578063ab7820b2146109c457600080fd5b8063978bbdb911610205578063978bbdb9146108f35780639cf54521146109075780639dbb9c9e14610927578063a08d7bd614610930578063a363b9cb1461094357600080fd5b80638da5cb5b146108745780639026544f146108a45780639219e510146108b757806394674098146108ca57600080fd5b80635177942a1161033c57806378032658116102c4578063840ecba011610293578063840ecba0146108055780638456cb591461081857806384d77bb1146108205780638861d235146108295780638c2218991461084957600080fd5b806378032658146107805780637bf42165146107a95780637bfa27f2146107cf578063807ca237146107f257600080fd5b80636839a0951161030b5780636839a0951461071c5780636e3204081461072f578063715018a61461074257806373b774ed1461074a57806376529fdf1461075d57600080fd5b80635177942a146106cb57806355cc4e57146106de5780635b24b80c146106f15780635c975abb1461070457600080fd5b806331c99010116103bf5780633f4ba83a1161038e5780633f4ba83a1461067b57806342faac051461068557806346d66a2c1461069257806348f6e87b146106a55780634a1dc092146106b857600080fd5b806331c99010146105e35780633aeff0591461060c5780633c1f70ca1461062c5780633e413bee1461066857600080fd5b80631d143848116104065780631d1438481461052b578063264fa8b91461055657806326a4e8d2146105815780632badae5d146105a45780632ca49334146105c457600080fd5b8063011ced5f1461043857806302e80f711461045457806306995e3b1461047f57806315e666a214610492575b600080fd5b61044160245481565b6040519081526020015b60405180910390f35b610441610462366004614558565b600c60209081526000928352604080842090915290825290205481565b61044161048d366004614588565b610c5b565b6105156104a0366004614588565b601c60205260009081526040902080546001820154600283015460038401546004850154600586015460069096015467ffffffffffffffff8616966001600160a01b03600160401b9097048716969586169585169460ff600160a01b8204811695600160a81b9092048116949193919291168a565b60405161044b9a999897969594939291906145db565b60075461053e906001600160a01b031681565b6040516001600160a01b03909116815260200161044b565b610441610564366004614558565b600e60209081526000928352604080842090915290825290205481565b61059461058f366004614651565b610cfb565b604051901515815260200161044b565b6104416105b2366004614588565b601d6020526000908152604090205481565b6104416105d2366004614588565b602080526000908152604090205481565b61053e6105f1366004614588565b6018602052600090815260409020546001600160a01b031681565b61044161061a366004614588565b60009081526023602052604090205490565b61065361063a366004614588565b6023602052600090815260409020805460019091015482565b6040805192835260208301919091520161044b565b60085461053e906001600160a01b031681565b610683610d7c565b005b600b546105949060ff1681565b6106836106a0366004614588565b610d8e565b6106836106b336600461468b565b61138a565b6104416106c6366004614588565b6115cf565b6106836106d9366004614734565b611683565b6105946106ec366004614651565b6117cd565b6106836106ff366004614751565b61184b565b600080516020614c548339815191525460ff16610594565b61044161072a366004614651565b6118cf565b61044161073d366004614588565b611ab3565b610683611bd0565b610683610758366004614588565b611be2565b61059461076b366004614588565b60016020526000908152604090205460ff1681565b61053e61078e366004614588565b6017602052600090815260409020546001600160a01b031681565b6008546107bd90600160a01b900460ff1681565b60405160ff909116815260200161044b565b6105946107dd366004614588565b601a6020526000908152604090205460ff1681565b610683610800366004614588565b611c66565b610683610813366004614588565b611e63565b6106836120e6565b610441600a5481565b610441610837366004614588565b60106020526000908152604090205481565b610441610857366004614558565b600d60209081526000928352604080842090915290825290205481565b7f9016d09d72d40fdae2fd8ceac6b6234c7706214fd39c1cd1e609a0528c199300546001600160a01b031661053e565b6106836108b2366004614588565b6120f6565b6106836108c5366004614588565b6124dc565b61053e6108d8366004614588565b6016602052600090815260409020546001600160a01b031681565b6008546107bd90600160a81b900460ff1681565b610441610915366004614588565b60226020526000908152604090205481565b61044160095481565b61044161093e366004614651565b612a09565b610441610951366004614558565b601360209081526000928352604080842090915290825290205481565b61059461097c366004614588565b60006020819052908152604090205460ff1681565b61068361099f366004614751565b612b64565b6104416109b2366004614588565b60116020526000908152604090205481565b6104416109d2366004614588565b60026020526000908152604090205481565b6104416109f2366004614588565b60146020526000908152604090205481565b610441610a12366004614558565b601e60209081526000928352604080842090915290825290205481565b610594610a3d366004614588565b601b6020526000908152604090205460ff1681565b61053e610a60366004614588565b6019602052600090815260409020546001600160a01b031681565b610441612be8565b610683610a91366004614588565b612cef565b60045461053e906001600160a01b031681565b610441610ab7366004614588565b6134c3565b610594610aca366004614651565b6134d6565b610441610add366004614588565b60216020526000908152604090205481565b610441610afd366004614558565b601260209081526000928352604080842090915290825290205481565b610441610b28366004614588565b60156020526000908152604090205481565b610441610b48366004614558565b601f60209081526000928352604080842090915290825290205481565b610594610b73366004614588565b61355b565b610441610b86366004614588565b6136be565b610441610b99366004614588565b6138fb565b610594610bac366004614773565b613908565b610441610bbf366004614651565b613991565b610bd7610bd2366004614588565b6139c9565b60405161044b91906147a1565b610683610bf2366004614651565b613ad0565b610441610c05366004614558565b600f60209081526000928352604080842090915290825290205481565b60065461053e906001600160a01b031681565b60055461053e906001600160a01b031681565b60035461053e906001600160a01b031681565b6007546008546040516308da5c3560e21b81526000600482018190526001600160a01b039283166024830152928392839291169063236970d4906044016040805180830381865afa158015610cb4573d6000803e3d6000fd5b505050506040513d601f19601f82011682018060405250810190610cd89190614867565b915091506000610ce88286613b0e565b610cf290846148aa565b95945050505050565b6000610d05613b37565b6001600160a01b038216610d585760405162461bcd60e51b8152602060048201526015602482015274696e76616c696420746f6b656e206164647265737360581b60448201526064015b60405180910390fd5b50600380546001600160a01b0319166001600160a01b03831617905560015b919050565b610d84613b37565b610d8c613b92565b565b60008181526020819052604090205460ff1615610de55760405162461bcd60e51b8152602060048201526015602482015274125cdcdd585b98d9481a5cc818dbdb5c1b195d1959605a1b6044820152606401610d4f565b6000818152601660209081526040808320546018909252909120546001600160a01b039182169116338214610e6b5760405162461bcd60e51b815260206004820152602660248201527f4f6e6c79207265717565737465722063616e2063616e63656c207468652069736044820152657375616e636560d01b6064820152608401610d4f565b60005b60048054604080516329fea19960e11b815290516001600160a01b03909216926353fd43329282820192602092908290030181865afa158015610eb5573d6000803e3d6000fd5b505050506040513d601f19601f82011682018060405250810190610ed991906148bd565b811015611384576004805460405163264cae9360e21b81529182018390526000916001600160a01b0390911690639932ba4c90602401602060405180830381865afa158015610f2c573d6000803e3d6000fd5b505050506040513d601f19601f82011682018060405250810190610f5091906148d6565b6000868152600e602090815260408083206001600160a01b03808616855290835281842054808552601c8452828520835161014081018552815467ffffffffffffffff81168252600160401b90048416958101959095526001808201548416948601949094526002810154928316606086015260ff600160a01b84048116151560808701529697509095909260a0850192600160a81b900490911690811115610ffb57610ffb6145a1565b600181111561100c5761100c6145a1565b815260038281015460208301526004830154604083015260058301546060830152600683015460809092019160ff169081111561104b5761104b6145a1565b600381111561105c5761105c6145a1565b9052506007546040516322fd455760e11b8152600481018590529192506001916001600160a01b03909116906345fa8aae90602401602060405180830381865afa1580156110ae573d6000803e3d6000fd5b505050506040513d601f19601f820116820180604052508101906110d291906148f3565b60038111156110e3576110e36145a1565b60ff160361114e576007546040516339a0e8b560e21b8152600481018490526001600160a01b039091169063e683a2d490602401600060405180830381600087803b15801561113157600080fd5b505af1158015611145573d6000803e3d6000fd5b50505050611379565b6007546040516322fd455760e11b8152600481018490526002916001600160a01b0316906345fa8aae90602401602060405180830381865afa158015611198573d6000803e3d6000fd5b505050506040513d601f19601f820116820180604052508101906111bc91906148f3565b60038111156111cd576111cd6145a1565b60ff16148061124757506040516370a0823160e01b81526001600160a01b038681166004830152600091908516906370a0823190602401602060405180830381865afa158015611221573d6000803e3d6000fd5b505050506040513d601f19601f8201168201806040525081019061124591906148bd565b115b15611379576040516370a0823160e01b81526001600160a01b038681166004830152600091908516906370a0823190602401602060405180830381865afa158015611296573d6000803e3d6000fd5b505050506040513d601f19601f820116820180604052508101906112ba91906148bd565b6040516317ee7de960e11b81529091506001600160a01b03871690632fdcfbd2906112ed90879030908690600401614914565b600060405180830381600087803b15801561130757600080fd5b505af115801561131b573d6000803e3d6000fd5b50505050600061132c858389613bf2565b6040805180820182526003815260208082018d81526000858152602383528481209351845590516001909301929092558c8252600c81528282206001600160a01b038a1683529052205550505b505050600101610e6e565b50505050565b7ff0c57e16840df040f15088dc2f81fe391c3923bec73e23a9662efc9c229c6a008054600160401b810460ff16159067ffffffffffffffff166000811580156113d05750825b905060008267ffffffffffffffff1660011480156113ed5750303b155b9050811580156113fb575080155b156114195760405163f92ee8a960e01b815260040160405180910390fd5b845467ffffffffffffffff19166001178555831561144357845460ff60401b1916600160401b1785555b8c600460006101000a8154816001600160a01b0302191690836001600160a01b031602179055508b600660006101000a8154816001600160a01b0302191690836001600160a01b031602179055508a600760006101000a8154816001600160a01b0302191690836001600160a01b0316021790555089600360006101000a8154816001600160a01b0302191690836001600160a01b0316021790555088600560006101000a8154816001600160a01b0302191690836001600160a01b0316021790555087600860006101000a8154816001600160a01b0302191690836001600160a01b0316021790555086600860146101000a81548160ff021916908360ff16021790555061155133613f90565b611559613fa1565b6008805460ff60a81b1916600560a91b179055600b805460ff191687151517905583156115c057845460ff60401b19168555604051600181527fc7f505b2f371ae2175ee4913f4499e1f2633a7b5936321eed1cdaeb6115181d29060200160405180910390a15b50505050505050505050505050565b60006001600a60008282546115e491906148aa565b9091555050600a80546000908152602260209081526040808320869055835483526002825280832086905583548352601790915280822080546001600160a01b031916339081179091559254600854915190927f318a1eb196638838739aab2348b851e63485b8c41dacc90eaff499a0f14ce53392611673926001600160a01b03919091169188914290614938565b60405180910390a35050600a5490565b61168b613b37565b60006024544261169b919061495e565b9050600c603c6116ab8184614987565b6116b59190614987565b116117285760405162461bcd60e51b815260206004820152603960248201527f596f752073686f756c642077616974206174206c6561737420313220686f757260448201527f7320616674657220746865206c617465737420757064617465000000000000006064820152608401610d4f565b60648260ff1611158015611740575060018260ff1610155b6117a85760405162461bcd60e51b815260206004820152603360248201527f546865206e65774665652073686f756c64206265206265747765656e203120616044820152726e64203130302028302e303125202d2031252960681b6064820152608401610d4f565b506008805460ff909216600160a81b0260ff60a81b1990921691909117905542602455565b60006117d7613b37565b6001600160a01b0382166118265760405162461bcd60e51b8152602060048201526016602482015275696e76616c696420697373756572206164647265737360501b6044820152606401610d4f565b50600780546001600160a01b0383166001600160a01b03199091161790556001919050565b600082815260166020908152604080832054838352818420805460ff191660011790556008546021909352928190205490516001600160a01b03938416938593859388937f9b1c699e1cb709130ee00509d8f84a4fb33702e634298480371d27d66f6cd8c6936118c19316919087904290614938565b60405180910390a350505050565b600b5460009060ff1615611a2f576004805460405163023712c360e21b81526001600160a01b0385811693820193909352600092909116906308dc4b0c90602401602060405180830381865afa15801561192d573d6000803e3d6000fd5b505050506040513d601f19601f8201168201806040525081019061195191906148d6565b90506000816001600160a01b031663feaf968c6040518163ffffffff1660e01b815260040160a060405180830381865afa158015611993573d6000803e3d6000fd5b505050506040513d601f19601f820116820180604052508101906119b791906149c3565b5050509150506000826001600160a01b031663313ce5676040518163ffffffff1660e01b8152600401602060405180830381865afa1580156119fd573d6000803e3d6000fd5b505050506040513d601f19601f82011682018060405250810190611a219190614a13565b9050610cf282826012613fb1565b60075460085460405163a377cfbf60e01b81526001600160a01b0385811660048301529182166024820152600092919091169063a377cfbf906044016040805180830381865afa158015611a87573d6000803e3d6000fd5b505050506040513d601f19601f82011682018060405250810190611aab9190614a30565b519392505050565b6008546040516323b872dd60e01b81526000916001600160a01b0316906323b872dd90611ae890339030908790600401614914565b6020604051808303816000875af1158015611b07573d6000803e3d6000fd5b505050506040513d601f19601f82011682018060405250810190611b2b9190614a9e565b50600160096000828254611b3f91906148aa565b909155505060098054600090815260216020908152604080832086905583548352601690915280822080546001600160a01b031916339081179091559254600854915190927fb564a60b4184bee9ffdc1c0fd0588a93c23e406438195eec9857050fece55c2092611bc0926001600160a01b03919091169188914290614938565b60405180910390a3505060095490565b611bd8613b37565b610d8c6000613ff1565b600081815260236020908152604091829020825180840190935280548084526001918201549284019290925203611c2457611c208160200151612cef565b5050565b8051600203611c3a57611c208160200151611e63565b8051600303611c5057611c208160200151611c66565b8051600403611c2057611c2081602001516120f6565b6004805460405163631c838560e01b81529182018390526001600160a01b03169063631c838590602401602060405180830381865afa158015611cad573d6000803e3d6000fd5b505050506040513d601f19601f82011682018060405250810190611cd19190614a9e565b611d1d5760405162461bcd60e51b815260206004820181905260248201527f43616e63656c2069737375616e6365206973206e6f7420636f6d706c657465646044820152606401610d4f565b6000818152601a602052604090205460ff1615611d4c5760405162461bcd60e51b8152600401610d4f90614abb565b60008181526016602090815260408083205460189092528083205460085491516370a0823160e01b81526001600160a01b0391821660048201819052938216949291909116906370a0823190602401602060405180830381865afa158015611db8573d6000803e3d6000fd5b505050506040513d601f19601f82011682018060405250810190611ddc91906148bd565b6008546040516317ee7de960e11b81529192506001600160a01b0380851692632fdcfbd292611e1392169087908690600401614914565b600060405180830381600087803b158015611e2d57600080fd5b505af1158015611e41573d6000803e3d6000fd5b50505060009485525050601a602052505060409020805460ff19166001179055565b60048054604051631fd6049160e11b81529182018390526001600160a01b031690633fac092290602401602060405180830381865afa158015611eaa573d6000803e3d6000fd5b505050506040513d601f19601f82011682018060405250810190611ece9190614a9e565b611f265760405162461bcd60e51b815260206004820152602360248201527f526564656d7074696f6e206f726465727320617265206e6f7420636f6d706c656044820152621d195960ea1b6064820152608401610d4f565b60008181526001602052604090205460ff1615611f7f5760405162461bcd60e51b8152602060048201526017602482015276149959195b5c1d1a5bdb881a5cc818dbdb5c1b195d1959604a1b6044820152606401610d4f565b60008181526017602090815260408083205460199092528083205460085491516370a0823160e01b81526001600160a01b0391821660048201819052938216949291909116906370a0823190602401602060405180830381865afa158015611feb573d6000803e3d6000fd5b505050506040513d601f19601f8201168201806040525081019061200f91906148bd565b6008546040516317ee7de960e11b81529192506001600160a01b0380851692632fdcfbd29261204692169087908690600401614914565b600060405180830381600087803b15801561206057600080fd5b505af1158015612074573d6000803e3d6000fd5b5050506000858152600160208181526040808420805460ff19169093179092556008546022909152918190205490516001600160a01b03878116945088937f1c5f6e901258d71ab0ecaa2fcf93176caa78dac41e03fe5dd7a0184727336d8a936118c193929091169187904290614938565b6120ee613b37565b610d8c614062565b60048054604051635ac9331560e11b81529182018390526001600160a01b03169063b592662a90602401602060405180830381865afa15801561213d573d6000803e3d6000fd5b505050506040513d601f19601f820116820180604052508101906121619190614a9e565b6121b85760405162461bcd60e51b815260206004820152602260248201527f43616e63656c20726564656d7074696f6e206973206e6f7420636f6d706c6574604482015261195960f21b6064820152608401610d4f565b6000818152601b602052604090205460ff16156121e75760405162461bcd60e51b8152600401610d4f90614abb565b60008181526017602090815260408083205460199092528083205460085491516370a0823160e01b81526001600160a01b0391821660048201819052938216949291909116906370a0823190602401602060405180830381865afa158015612253573d6000803e3d6000fd5b505050506040513d601f19601f8201168201806040525081019061227791906148bd565b905060005b60048054604080516329fea19960e11b815290516001600160a01b03909216926353fd43329282820192602092908290030181865afa1580156122c3573d6000803e3d6000fd5b505050506040513d601f19601f820116820180604052508101906122e791906148bd565b811015612447576004805460405163264cae9360e21b81529182018390526000916001600160a01b0390911690639932ba4c90602401602060405180830381865afa15801561233a573d6000803e3d6000fd5b505050506040513d601f19601f8201168201806040525081019061235e91906148d6565b6040516370a0823160e01b81526001600160a01b0386811660048301529192506000918316906370a0823190602401602060405180830381865afa1580156123aa573d6000803e3d6000fd5b505050506040513d601f19601f820116820180604052508101906123ce91906148bd565b9050801561243d576005546040516317ee7de960e11b81526001600160a01b0380881692632fdcfbd29261240a92879216908690600401614914565b600060405180830381600087803b15801561242457600080fd5b505af1158015612438573d6000803e3d6000fd5b505050505b505060010161227c565b50600354600085815260026020526040908190205490516340c10f1960e01b81526001600160a01b03868116600483015260248201929092529116906340c10f1990604401600060405180830381600087803b1580156124a657600080fd5b505af11580156124ba573d6000803e3d6000fd5b50505060009485525050601b602052505060409020805460ff19166001179055565b60008181526001602052604090205460ff16156125355760405162461bcd60e51b8152602060048201526017602482015276149959195b5c1d1a5bdb881a5cc818dbdb5c1b195d1959604a1b6044820152606401610d4f565b6000818152601760209081526040808320546019909252909120546001600160a01b0391821691163382146125bd5760405162461bcd60e51b815260206004820152602860248201527f4f6e6c79207265717565737465722063616e2063616e63656c207468652072656044820152673232b6b83a34b7b760c11b6064820152608401610d4f565b60005b60048054604080516329fea19960e11b815290516001600160a01b03909216926353fd43329282820192602092908290030181865afa158015612607573d6000803e3d6000fd5b505050506040513d601f19601f8201168201806040525081019061262b91906148bd565b811015611384576004805460405163264cae9360e21b81529182018390526000916001600160a01b0390911690639932ba4c90602401602060405180830381865afa15801561267e573d6000803e3d6000fd5b505050506040513d601f19601f820116820180604052508101906126a291906148d6565b6000868152600f602090815260408083206001600160a01b03808616855290835281842054808552601c8452828520835161014081018552815467ffffffffffffffff81168252600160401b90048416958101959095526001808201548416948601949094526002810154928316606086015260ff600160a01b84048116151560808701529697509095909260a0850192600160a81b90049091169081111561274d5761274d6145a1565b600181111561275e5761275e6145a1565b815260038281015460208301526004830154604083015260058301546060830152600683015460809092019160ff169081111561279d5761279d6145a1565b60038111156127ae576127ae6145a1565b90525060075460405163187b2ed160e21b8152600481018590529192506000916001600160a01b03909116906361ecbb4490602401602060405180830381865afa158015612800573d6000803e3d6000fd5b505050506040513d601f19601f8201168201806040525081019061282491906148bd565b6007546040516322fd455760e11b8152600481018690529192506002916001600160a01b03909116906345fa8aae90602401602060405180830381865afa158015612873573d6000803e3d6000fd5b505050506040513d601f19601f8201168201806040525081019061289791906148f3565b60038111156128a8576128a86145a1565b60ff1614806128b75750600081115b156129f9576008546040516317ee7de960e11b81526001600160a01b0388811692632fdcfbd2926128f2929091169030908690600401614914565b600060405180830381600087803b15801561290c57600080fd5b505af1158015612920573d6000803e3d6000fd5b505060085460065460405163095ea7b360e01b81526001600160a01b039182166004820152602481018690529116925063095ea7b391506044016020604051808303816000875af1158015612979573d6000803e3d6000fd5b505050506040513d601f19601f8201168201806040525081019061299d9190614a9e565b5060006129ab8583896140ab565b6040805180820182526004815260208082018d815260009485526023825283852092518355516001909201919091558b8352600d81528183206001600160a01b038916845290529020849055505b5050600190920191506125c09050565b6004805460405162493aaf60e51b81526001600160a01b03848116938201939093526000928392169063092755e090602401602060405180830381865afa158015612a58573d6000803e3d6000fd5b505050506040513d601f19601f82011682018060405250810190612a7c91906148d6565b6005546040516370a0823160e01b81526001600160a01b039182166004820152919250600091908316906370a0823190602401602060405180830381865afa158015612acc573d6000803e3d6000fd5b505050506040513d601f19601f82011682018060405250810190612af091906148bd565b60405163266d6a8360e11b8152600481018290529091506001600160a01b03831690634cdad50690602401602060405180830381865afa158015612b38573d6000803e3d6000fd5b505050506040513d601f19601f82011682018060405250810190612b5c91906148bd565b949350505050565b6000828152601760209081526040808320546001808452828520805460ff191690911790556008546022909352928190205490516001600160a01b0393841693849387937f1c5f6e901258d71ab0ecaa2fcf93176caa78dac41e03fe5dd7a0184727336d8a93612bdb939092169188904290614938565b60405180910390a3505050565b60008060005b60048054604080516329fea19960e11b815290516001600160a01b03909216926353fd43329282820192602092908290030181865afa158015612c35573d6000803e3d6000fd5b505050506040513d601f19601f82011682018060405250810190612c5991906148bd565b811015612ce9576004805460405163264cae9360e21b8152918201839052600091612cd2916001600160a01b031690639932ba4c90602401602060405180830381865afa158015612cae573d6000803e3d6000fd5b505050506040513d601f19601f82011682018060405250810190610bbf91906148d6565b9050612cde81846148aa565b925050600101612bee565b50919050565b600480546040516308d0eb2d60e21b81529182018390526001600160a01b031690632343acb490602401602060405180830381865afa158015612d36573d6000803e3d6000fd5b505050506040513d601f19601f82011682018060405250810190612d5a9190614a9e565b612da65760405162461bcd60e51b815260206004820152601860248201527f4f726465727320617265206e6f7420636f6d706c6574656400000000000000006044820152606401610d4f565b60008181526020819052604090205460ff1615612dfd5760405162461bcd60e51b8152602060048201526015602482015274125cdcdd585b98d9481a5cc818dbdb5c1b195d1959605a1b6044820152606401610d4f565b6000818152601660205260408120546001600160a01b03169080805b60048054604080516329fea19960e11b815290516001600160a01b03909216926353fd43329282820192602092908290030181865afa158015612e60573d6000803e3d6000fd5b505050506040513d601f19601f82011682018060405250810190612e8491906148bd565b8110156132c1576004805460405163264cae9360e21b81529182018390526000916001600160a01b0390911690639932ba4c90602401602060405180830381865afa158015612ed7573d6000803e3d6000fd5b505050506040513d601f19601f82011682018060405250810190612efb91906148d6565b6000878152600e602090815260408083206001600160a01b038581168086529190935281842054600754600854935163a377cfbf60e01b81526004810193909352928416602483015294955091169063a377cfbf906044016040805180830381865afa158015612f6f573d6000803e3d6000fd5b505050506040513d601f19601f82011682018060405250810190612f939190614a30565b6000898152601860205260408082205490516370a0823160e01b81526001600160a01b0391821660048201819052939450908616906370a0823190602401602060405180830381865afa158015612fee573d6000803e3d6000fd5b505050506040513d601f19601f8201168201806040525081019061301291906148bd565b60008b81526012602090815260408083206001600160a01b038a1684529091528120548551929350916130459083614b00565b6000878152601060205260408120549192509061306290836148aa565b905061306e828c6148aa565b9a5061307a818b6148aa565b6040516317ee7de960e11b8152909a506001600160a01b03861690632fdcfbd2906130ad908b9030908990600401614914565b600060405180830381600087803b1580156130c757600080fd5b505af11580156130db573d6000803e3d6000fd5b50506004805460405162493aaf60e51b81526001600160a01b038d811693820184905292945063095ea7b3935091169063092755e090602401602060405180830381865afa158015613131573d6000803e3d6000fd5b505050506040513d601f19601f8201168201806040525081019061315591906148d6565b6040516001600160e01b031960e084901b1681526001600160a01b039091166004820152602481018790526044016020604051808303816000875af11580156131a2573d6000803e3d6000fd5b505050506040513d601f19601f820116820180604052508101906131c69190614a9e565b506004805460405162493aaf60e51b81526001600160a01b038b81169382019390935291169063092755e090602401602060405180830381865afa158015613212573d6000803e3d6000fd5b505050506040513d601f19601f8201168201806040525081019061323691906148d6565b600554604051636e553f6560e01b8152600481018790526001600160a01b039182166024820152911690636e553f65906044016020604051808303816000875af1158015613288573d6000803e3d6000fd5b505050506040513d601f19601f820116820180604052508101906132ac91906148bd565b505060019097019650612e1995505050505050565b50600084815260146020526040812054908190036133b25760006132e6836064614b00565b6003546040516340c10f1960e01b81526001600160a01b038881166004830152602482018490529293509116906340c10f1990604401600060405180830381600087803b15801561333657600080fd5b505af115801561334a573d6000803e3d6000fd5b5050600854600089815260216020526040908190205490516001600160a01b03808b1695508b94507f9b1c699e1cb709130ee00509d8f84a4fb33702e634298480371d27d66f6cd8c6936133a49391169187904290614938565b60405180910390a3506134a0565b6000836133bf8484614b00565b6133c99190614987565b905060006133d7838361495e565b6003546040516340c10f1960e01b81526001600160a01b038981166004830152602482018490529293509116906340c10f1990604401600060405180830381600087803b15801561342757600080fd5b505af115801561343b573d6000803e3d6000fd5b505060085460008a815260216020526040908190205490516001600160a01b03808c1695508c94507f9b1c699e1cb709130ee00509d8f84a4fb33702e634298480371d27d66f6cd8c6936134959391169187904290614938565b60405180910390a350505b50506009546000908152602081905260409020805460ff19166001179055505050565b60006134d082600c614b00565b92915050565b60006134e0613b37565b6001600160a01b0382166135365760405162461bcd60e51b815260206004820152601f60248201527f696e76616c696420666163746f72792073746f726167652061646472657373006044820152606401610d4f565b50600480546001600160a01b0383166001600160a01b03199091161790556001919050565b6000818152602360209081526040808320815180830190925280548083526001918201549383019390935290919003613604576004805460208301516040516308d0eb2d60e21b8152928301526001600160a01b031690632343acb4906024015b602060405180830381865afa1580156135d9573d6000803e3d6000fd5b505050506040513d601f19601f820116820180604052508101906135fd9190614a9e565b9392505050565b805160020361363f57600480546020830151604051631fd6049160e11b8152928301526001600160a01b031690633fac0922906024016135bc565b805160030361367a5760048054602083015160405163631c838560e01b8152928301526001600160a01b03169063631c8385906024016135bc565b80516004036136b557600480546020830151604051635ac9331560e11b8152928301526001600160a01b03169063b592662a906024016135bc565b50600092915050565b60008060005b60048054604080516329fea19960e11b815290516001600160a01b03909216926353fd43329282820192602092908290030181865afa15801561370b573d6000803e3d6000fd5b505050506040513d601f19601f8201168201806040525081019061372f91906148bd565b8110156138f4576004805460405163264cae9360e21b81529182018390526000916001600160a01b0390911690639932ba4c90602401602060405180830381865afa158015613782573d6000803e3d6000fd5b505050506040513d601f19601f820116820180604052508101906137a691906148d6565b60048054604051630be5271360e01b81526001600160a01b038085169382019390935292935060009268056bc75e2d631000009290911690630be5271390602401602060405180830381865afa158015613804573d6000803e3d6000fd5b505050506040513d601f19601f8201168201806040525081019061382891906148bd565b6138329088614b00565b61383c9190614987565b6007546008546040516308da5c3560e21b81526000600482018190526001600160a01b0392831660248301529394508392919091169063236970d4906044016040805180830381865afa158015613897573d6000803e3d6000fd5b505050506040513d601f19601f820116820180604052508101906138bb9190614867565b9150915060006138cb8285613b0e565b6138d590846148aa565b90506138e181886148aa565b965050600190940193506136c492505050565b5092915050565b60006134d0600c83614987565b6000613912613b37565b6001600160a01b0383166139605760405162461bcd60e51b8152602060048201526015602482015274696e76616c696420746f6b656e206164647265737360581b6044820152606401610d4f565b506008805460ff8316600160a01b026001600160a81b03199091166001600160a01b03851617179055600192915050565b60008061399d836118cf565b905060006139aa84612a09565b9050670de0b6b3a76400006139bf8383614b00565b612b5c9190614987565b6139d16144e0565b6000828152601c6020908152604091829020825161014081018452815467ffffffffffffffff811682526001600160a01b03600160401b9091048116938201939093526001808301548416948201949094526002820154928316606082015260ff600160a01b84048116151560808301529093919260a0850192600160a81b90910490911690811115613a6657613a666145a1565b6001811115613a7757613a776145a1565b815260038281015460208301526004830154604083015260058301546060830152600683015460809092019160ff1690811115613ab657613ab66145a1565b6003811115613ac757613ac76145a1565b90525092915050565b613ad8613b37565b6001600160a01b038116613b0257604051631e4fbdf760e01b815260006004820152602401610d4f565b613b0b81613ff1565b50565b60008262ffffff16600003613b245760006135fd565b6135fd8262ffffff8516620f4240614281565b33613b697f9016d09d72d40fdae2fd8ceac6b6234c7706214fd39c1cd1e609a0528c199300546001600160a01b031690565b6001600160a01b031614610d8c5760405163118cdaa760e01b8152336004820152602401610d4f565b613b9a614355565b600080516020614c54833981519152805460ff191681557f5db9ee0a495bf2e6ff9c91a7834c1ba4fdd244a5e8aa4e537bd38aeae4b073aa335b6040516001600160a01b03909116815260200160405180910390a150565b6004805460405162493aaf60e51b81526001600160a01b03868116938201939093526000928392169063092755e090602401602060405180830381865afa158015613c41573d6000803e3d6000fd5b505050506040513d601f19601f82011682018060405250810190613c6591906148d6565b600554604051631c20fadd60e01b81529192506001600160a01b031690631c20fadd90613c9a90849030908990600401614914565b600060405180830381600087803b158015613cb457600080fd5b505af1158015613cc8573d6000803e3d6000fd5b5050604051635d043b2960e11b81526004810187905230602482018190526044820152600092506001600160a01b038416915063ba087652906064016020604051808303816000875af1158015613d23573d6000803e3d6000fd5b505050506040513d601f19601f82011682018060405250810190613d4791906148bd565b90506000613d556001614385565b6001600160a01b03888116604083810182905260c084018690528883166020850152600654905163095ea7b360e01b8152921660048301526024820185905291925063095ea7b3906044016020604051808303816000875af1158015613dbf573d6000803e3d6000fd5b505050506040513d601f19601f82011682018060405250810190613de39190614a9e565b50600654604051635d41120560e01b81526001600160a01b0389811660048301526024820185905287811660448301526000921690635d411205906064016020604051808303816000875af1158015613e40573d6000803e3d6000fd5b505050506040513d601f19601f82011682018060405250810190613e6491906148bd565b6000818152601c6020908152604091829020855181549287015167ffffffffffffffff9091166001600160e01b031990931692909217600160401b6001600160a01b039384160217815591850151600180840180546001600160a01b0319169284169290921790915560608601516002840180546080890151929094166001600160a81b031990941693909317600160a01b911515919091021780835560a08701519495508694929160ff60a81b1990911690600160a81b908490811115613f2e57613f2e6145a1565b021790555060c0820151816003015560e0820151816004015561010082015181600501556101208201518160060160006101000a81548160ff02191690836003811115613f7d57613f7d6145a1565b0217905550919998505050505050505050565b613f9861443d565b613b0b81614486565b613fa961443d565b610d8c61448e565b60008260ff168260ff161115613fe757613fcb8383614b17565b613fd690600a614c14565b613fe09085614c23565b90506135fd565b613fcb8284614b17565b7f9016d09d72d40fdae2fd8ceac6b6234c7706214fd39c1cd1e609a0528c19930080546001600160a01b031981166001600160a01b03848116918217845560405192169182907f8be0079c531659141344cd1fd0a4f28419497f9722a3daafe3b4186f6b6457e090600090a3505050565b61406a6144af565b600080516020614c54833981519152805460ff191660011781557f62e78cea01bee320cd4e420270b5ea74000d11b0c9f74754ebdbfc544b05a25833613bd4565b6000806140b86000614385565b6001600160a01b0384811660208301819052878216604080850182905260e085018990526006549051631e07ecd760e11b81526004810192909252602482018990526044820192909252929350600092911690633c0fd9ae906064016020604051808303816000875af1158015614133573d6000803e3d6000fd5b505050506040513d601f19601f8201168201806040525081019061415791906148bd565b6000818152601c6020908152604091829020855181549287015167ffffffffffffffff9091166001600160e01b031990931692909217600160401b6001600160a01b039384160217815591850151600180840180546001600160a01b0319169284169290921790915560608601516002840180546080890151929094166001600160a81b031990941693909317600160a01b911515919091021780835560a08701519495508694929160ff60a81b1990911690600160a81b908490811115614221576142216145a1565b021790555060c0820151816003015560e0820151816004015561010082015181600501556101208201518160060160006101000a81548160ff02191690836003811115614270576142706145a1565b021790555091979650505050505050565b60008080600019858709858702925082811083820303915050806000036142bb578382816142b1576142b1614971565b04925050506135fd565b8381106142ec57604051630c740aef60e31b8152600481018790526024810186905260448101859052606401610d4f565b60008486880960026001871981018816978890046003810283188082028403028082028403028082028403028082028403028082028403029081029092039091026000889003889004909101858311909403939093029303949094049190911702949350505050565b600080516020614c548339815191525460ff16610d8c57604051638dfc202b60e01b815260040160405180910390fd5b61438d6144e0565b604080516101408101825267ffffffffffffffff421681523060208201526003546001600160a01b03908116928201929092526008549091166060820152821515608082015260a0810160008152602001836143ea5760006143f5565b68056bc75e2d631000005b68ffffffffffffffffff168152602001836144195768056bc75e2d6310000061441c565b60005b68ffffffffffffffffff168152600060208201526040016001905292915050565b7ff0c57e16840df040f15088dc2f81fe391c3923bec73e23a9662efc9c229c6a0054600160401b900460ff16610d8c57604051631afcd79f60e31b815260040160405180910390fd5b613ad861443d565b61449661443d565b600080516020614c54833981519152805460ff19169055565b600080516020614c548339815191525460ff1615610d8c5760405163d93c066560e01b815260040160405180910390fd5b604080516101408101825260008082526020820181905291810182905260608101829052608081018290529060a082019081526020016000815260200160008152602001600081526020016000600381111561453e5761453e6145a1565b905290565b6001600160a01b0381168114613b0b57600080fd5b6000806040838503121561456b57600080fd5b82359150602083013561457d81614543565b809150509250929050565b60006020828403121561459a57600080fd5b5035919050565b634e487b7160e01b600052602160045260246000fd5b600281106145c7576145c76145a1565b9052565b600481106145c7576145c76145a1565b67ffffffffffffffff8b1681526001600160a01b038a811660208301528981166040830152881660608201528615156080820152610140810161462160a08301886145b7565b8560c08301528460e0830152836101008301526146426101208301846145cb565b9b9a5050505050505050505050565b60006020828403121561466357600080fd5b81356135fd81614543565b60ff81168114613b0b57600080fd5b8015158114613b0b57600080fd5b600080600080600080600080610100898b0312156146a857600080fd5b88356146b381614543565b975060208901356146c381614543565b965060408901356146d381614543565b955060608901356146e381614543565b945060808901356146f381614543565b935060a089013561470381614543565b925060c08901356147138161466e565b915060e08901356147238161467d565b809150509295985092959890939650565b60006020828403121561474657600080fd5b81356135fd8161466e565b6000806040838503121561476457600080fd5b50508035926020909101359150565b6000806040838503121561478657600080fd5b823561479181614543565b9150602083013561457d8161466e565b815167ffffffffffffffff168152610140810160208301516147ce60208401826001600160a01b03169052565b5060408301516147e960408401826001600160a01b03169052565b50606083015161480460608401826001600160a01b03169052565b506080830151614818608084018215159052565b5060a083015161482b60a08401826145b7565b5060c083015160c083015260e083015160e08301526101008084015181840152506101208084015161485f828501826145cb565b505092915050565b6000806040838503121561487a57600080fd5b82519150602083015162ffffff8116811461457d57600080fd5b634e487b7160e01b600052601160045260246000fd5b808201808211156134d0576134d0614894565b6000602082840312156148cf57600080fd5b5051919050565b6000602082840312156148e857600080fd5b81516135fd81614543565b60006020828403121561490557600080fd5b8151600481106135fd57600080fd5b6001600160a01b039384168152919092166020820152604081019190915260600190565b6001600160a01b0394909416845260208401929092526040830152606082015260800190565b818103818111156134d0576134d0614894565b634e487b7160e01b600052601260045260246000fd5b6000826149a457634e487b7160e01b600052601260045260246000fd5b500490565b805169ffffffffffffffffffff81168114610d7757600080fd5b600080600080600060a086880312156149db57600080fd5b6149e4866149a9565b9450602086015193506040860151925060608601519150614a07608087016149a9565b90509295509295909350565b600060208284031215614a2557600080fd5b81516135fd8161466e565b600060408284031215614a4257600080fd5b6040516040810167ffffffffffffffff8282108183111715614a7457634e487b7160e01b600052604160045260246000fd5b8160405284518352602085015191508082168214614a9157600080fd5b5060208201529392505050565b600060208284031215614ab057600080fd5b81516135fd8161467d565b60208082526025908201527f5468652070726f6365737320686173206265656e20636f6d706c65746564206260408201526465666f726560d81b606082015260800190565b80820281158282048414176134d0576134d0614894565b60ff82811682821603908111156134d0576134d0614894565b600181815b80851115614b6b578160001904821115614b5157614b51614894565b80851615614b5e57918102915b93841c9390800290614b35565b509250929050565b600082614b82575060016134d0565b81614b8f575060006134d0565b8160018114614ba55760028114614baf57614bcb565b60019150506134d0565b60ff841115614bc057614bc0614894565b50506001821b6134d0565b5060208310610133831016604e8410600b8410161715614bee575081810a6134d0565b614bf88383614b30565b8060001904821115614c0c57614c0c614894565b029392505050565b60006135fd60ff841683614b73565b80820260008212600160ff1b84141615614c3f57614c3f614894565b81810583148215176134d0576134d061489456fecd5ed15c6e187e77e9aee88184c21f4f2182ab5827cb3b7e07fbedcd63f03300a264697066735822122043d5e0073cfcafe614c76af4c2fa6efa6942a8e131eb1b77eedad8153d308c5b64736f6c63430008190033","linkReferences":{}},"methodIdentifiers":{"actionInfoById(uint256)":"3c1f70ca","burnedTokenAmountByNonce(uint256)":"ab7820b2","buyRequestPayedAmountById(uint256)":"8861d235","calculateBuyRequestFee(uint256)":"06995e3b","calculateIssuanceFee(uint256)":"e19eefbe","cancelIssuance(uint256)":"46d66a2c","cancelIssuanceComplted(uint256)":"7bfa27f2","cancelIssuanceRequestId(uint256,address)":"02e80f71","cancelRedemption(uint256)":"9219e510","cancelRedemptionComplted(uint256)":"b46840f9","cancelRedemptionRequestId(uint256,address)":"8c221899","checkMultical(uint256)":"e16e554a","coaByIssuanceNonce(uint256)":"31c99010","coaByRedemptionNonce(uint256)":"b75f4c2c","completeCancelIssuance(uint256)":"807ca237","completeCancelRedemption(uint256)":"9026544f","completeIssuance(uint256)":"bed45bef","completeRedemption(uint256)":"840ecba0","factoryStorage()":"c06e1ae2","feeRate()":"978bbdb9","getActionType(uint256)":"3aeff059","getIssuanceAmountOut(uint256)":"c8da3303","getOrderInstanceById(uint256)":"f1f31d66","getPortfolioValue()":"bb0498de","getRedemptionAmountOut(uint256)":"e2851bd6","getVaultDshareBalance(address)":"a08d7bd6","getVaultDshareValue(address)":"efdf5053","initialize(address,address,address,address,address,address,uint8,bool)":"48f6e87b","isMainnet()":"42faac05","issuanceIndexTokenPrimaryTotalSupply(uint256)":"b1dd819e","issuanceIndexTokens(uint256)":"6e320408","issuanceInputAmount(uint256)":"cf9ee319","issuanceIsCompleted(uint256)":"a84ebc17","issuanceNonce()":"9dbb9c9e","issuanceRequestId(uint256,address)":"264fa8b9","issuanceRequesterByNonce(uint256)":"94674098","issuanceTokenPrimaryBalance(uint256,address)":"da65925a","issuer()":"1d143848","latestFeeUpdate()":"011ced5f","mockCompleteIssuance(uint256,uint256)":"5b24b80c","mockCompleteRedemption(uint256,uint256)":"a8702018","multical(uint256)":"73b774ed","orderInstanceById(uint256)":"15e666a2","orderManager()":"f9b6117f","owner()":"8da5cb5b","pause()":"8456cb59","paused()":"5c975abb","portfolioValueByNonce(uint256)":"2badae5d","priceInWei(address)":"6839a095","redemption(uint256)":"4a1dc092","redemptionIndexTokenPrimaryTotalSupply(uint256)":"daf1c17d","redemptionInputAmount(uint256)":"9cf54521","redemptionIsCompleted(uint256)":"76529fdf","redemptionNonce()":"84d77bb1","redemptionRequestId(uint256,address)":"f513a718","redemptionRequesterByNonce(uint256)":"78032658","redemptionTokenPrimaryBalance(uint256,address)":"a363b9cb","renounceOwnership()":"715018a6","sellRequestAssetAmountById(uint256)":"a87f98d2","setFeeRate(uint8)":"5177942a","setIndexFactoryStorage(address)":"cc8659ae","setIssuer(address)":"55cc4e57","setTokenAddress(address)":"26a4e8d2","setUsdcAddress(address,uint8)":"eab2a711","token()":"fc0c546a","tokenShortagePercentByNonce(uint256,address)":"db5c1a12","tokenValueByNonce(uint256,address)":"b316e7fd","totalShortagePercentByNonce(uint256)":"2ca49334","transferOwnership(address)":"f2fde38b","unpause()":"3f4ba83a","usdc()":"3e413bee","usdcDecimals()":"7bf42165","vault()":"fbfa77cf"},"id":21}