{"abi":[{"type":"constructor","inputs":[{"name":"initialOwner","type":"address","internalType":"address"}],"stateMutability":"nonpayable"},{"type":"function","name":"DEFAULT_ADMIN_ROLE","inputs":[],"outputs":[{"name":"","type":"bytes32","internalType":"bytes32"}],"stateMutability":"view"},{"type":"function","name":"OPERATOR_ROLE","inputs":[],"outputs":[{"name":"","type":"bytes32","internalType":"bytes32"}],"stateMutability":"view"},{"type":"function","name":"acceptDefaultAdminTransfer","inputs":[],"outputs":[],"stateMutability":"nonpayable"},{"type":"function","name":"beginDefaultAdminTransfer","inputs":[{"name":"newAdmin","type":"address","internalType":"address"}],"outputs":[],"stateMutability":"nonpayable"},{"type":"function","name":"cancelBuyOrder","inputs":[{"name":"orderProcessor","type":"address","internalType":"address"},{"name":"order","type":"tuple","internalType":"struct IOrderProcessor.Order","components":[{"name":"requestTimestamp","type":"uint64","internalType":"uint64"},{"name":"recipient","type":"address","internalType":"address"},{"name":"assetToken","type":"address","internalType":"address"},{"name":"paymentToken","type":"address","internalType":"address"},{"name":"sell","type":"bool","internalType":"bool"},{"name":"orderType","type":"uint8","internalType":"enum IOrderProcessor.OrderType"},{"name":"assetTokenQuantity","type":"uint256","internalType":"uint256"},{"name":"paymentTokenQuantity","type":"uint256","internalType":"uint256"},{"name":"price","type":"uint256","internalType":"uint256"},{"name":"tif","type":"uint8","internalType":"enum IOrderProcessor.TIF"}]},{"name":"vault","type":"address","internalType":"address"},{"name":"orderId","type":"uint256","internalType":"uint256"},{"name":"reason","type":"string","internalType":"string"}],"outputs":[],"stateMutability":"nonpayable"},{"type":"function","name":"cancelDefaultAdminTransfer","inputs":[],"outputs":[],"stateMutability":"nonpayable"},{"type":"function","name":"changeDefaultAdminDelay","inputs":[{"name":"newDelay","type":"uint48","internalType":"uint48"}],"outputs":[],"stateMutability":"nonpayable"},{"type":"function","name":"defaultAdmin","inputs":[],"outputs":[{"name":"","type":"address","internalType":"address"}],"stateMutability":"view"},{"type":"function","name":"defaultAdminDelay","inputs":[],"outputs":[{"name":"","type":"uint48","internalType":"uint48"}],"stateMutability":"view"},{"type":"function","name":"defaultAdminDelayIncreaseWait","inputs":[],"outputs":[{"name":"","type":"uint48","internalType":"uint48"}],"stateMutability":"view"},{"type":"function","name":"fillOrder","inputs":[{"name":"orderProcessor","type":"address","internalType":"address"},{"name":"vault","type":"address","internalType":"address"},{"name":"order","type":"tuple","internalType":"struct IOrderProcessor.Order","components":[{"name":"requestTimestamp","type":"uint64","internalType":"uint64"},{"name":"recipient","type":"address","internalType":"address"},{"name":"assetToken","type":"address","internalType":"address"},{"name":"paymentToken","type":"address","internalType":"address"},{"name":"sell","type":"bool","internalType":"bool"},{"name":"orderType","type":"uint8","internalType":"enum IOrderProcessor.OrderType"},{"name":"assetTokenQuantity","type":"uint256","internalType":"uint256"},{"name":"paymentTokenQuantity","type":"uint256","internalType":"uint256"},{"name":"price","type":"uint256","internalType":"uint256"},{"name":"tif","type":"uint8","internalType":"enum IOrderProcessor.TIF"}]},{"name":"fillAmount","type":"uint256","internalType":"uint256"},{"name":"receivedAmount","type":"uint256","internalType":"uint256"},{"name":"fees","type":"uint256","internalType":"uint256"}],"outputs":[],"stateMutability":"nonpayable"},{"type":"function","name":"getRoleAdmin","inputs":[{"name":"role","type":"bytes32","internalType":"bytes32"}],"outputs":[{"name":"","type":"bytes32","internalType":"bytes32"}],"stateMutability":"view"},{"type":"function","name":"grantRole","inputs":[{"name":"role","type":"bytes32","internalType":"bytes32"},{"name":"account","type":"address","internalType":"address"}],"outputs":[],"stateMutability":"nonpayable"},{"type":"function","name":"hasRole","inputs":[{"name":"role","type":"bytes32","internalType":"bytes32"},{"name":"account","type":"address","internalType":"address"}],"outputs":[{"name":"","type":"bool","internalType":"bool"}],"stateMutability":"view"},{"type":"function","name":"multicall","inputs":[{"name":"data","type":"bytes[]","internalType":"bytes[]"}],"outputs":[{"name":"results","type":"bytes[]","internalType":"bytes[]"}],"stateMutability":"nonpayable"},{"type":"function","name":"owner","inputs":[],"outputs":[{"name":"","type":"address","internalType":"address"}],"stateMutability":"view"},{"type":"function","name":"pendingDefaultAdmin","inputs":[],"outputs":[{"name":"newAdmin","type":"address","internalType":"address"},{"name":"schedule","type":"uint48","internalType":"uint48"}],"stateMutability":"view"},{"type":"function","name":"pendingDefaultAdminDelay","inputs":[],"outputs":[{"name":"newDelay","type":"uint48","internalType":"uint48"},{"name":"schedule","type":"uint48","internalType":"uint48"}],"stateMutability":"view"},{"type":"function","name":"renounceRole","inputs":[{"name":"role","type":"bytes32","internalType":"bytes32"},{"name":"account","type":"address","internalType":"address"}],"outputs":[],"stateMutability":"nonpayable"},{"type":"function","name":"revokeRole","inputs":[{"name":"role","type":"bytes32","internalType":"bytes32"},{"name":"account","type":"address","internalType":"address"}],"outputs":[],"stateMutability":"nonpayable"},{"type":"function","name":"rollbackDefaultAdminDelay","inputs":[],"outputs":[],"stateMutability":"nonpayable"},{"type":"function","name":"supportsInterface","inputs":[{"name":"interfaceId","type":"bytes4","internalType":"bytes4"}],"outputs":[{"name":"","type":"bool","internalType":"bool"}],"stateMutability":"view"},{"type":"event","name":"DefaultAdminDelayChangeCanceled","inputs":[],"anonymous":false},{"type":"event","name":"DefaultAdminDelayChangeScheduled","inputs":[{"name":"newDelay","type":"uint48","indexed":false,"internalType":"uint48"},{"name":"effectSchedule","type":"uint48","indexed":false,"internalType":"uint48"}],"anonymous":false},{"type":"event","name":"DefaultAdminTransferCanceled","inputs":[],"anonymous":false},{"type":"event","name":"DefaultAdminTransferScheduled","inputs":[{"name":"newAdmin","type":"address","indexed":true,"internalType":"address"},{"name":"acceptSchedule","type":"uint48","indexed":false,"internalType":"uint48"}],"anonymous":false},{"type":"event","name":"RoleAdminChanged","inputs":[{"name":"role","type":"bytes32","indexed":true,"internalType":"bytes32"},{"name":"previousAdminRole","type":"bytes32","indexed":true,"internalType":"bytes32"},{"name":"newAdminRole","type":"bytes32","indexed":true,"internalType":"bytes32"}],"anonymous":false},{"type":"event","name":"RoleGranted","inputs":[{"name":"role","type":"bytes32","indexed":true,"internalType":"bytes32"},{"name":"account","type":"address","indexed":true,"internalType":"address"},{"name":"sender","type":"address","indexed":true,"internalType":"address"}],"anonymous":false},{"type":"event","name":"RoleRevoked","inputs":[{"name":"role","type":"bytes32","indexed":true,"internalType":"bytes32"},{"name":"account","type":"address","indexed":true,"internalType":"address"},{"name":"sender","type":"address","indexed":true,"internalType":"address"}],"anonymous":false},{"type":"error","name":"AccessControlBadConfirmation","inputs":[]},{"type":"error","name":"AccessControlEnforcedDefaultAdminDelay","inputs":[{"name":"schedule","type":"uint48","internalType":"uint48"}]},{"type":"error","name":"AccessControlEnforcedDefaultAdminRules","inputs":[]},{"type":"error","name":"AccessControlInvalidDefaultAdmin","inputs":[{"name":"defaultAdmin","type":"address","internalType":"address"}]},{"type":"error","name":"AccessControlUnauthorizedAccount","inputs":[{"name":"account","type":"address","internalType":"address"},{"name":"neededRole","type":"bytes32","internalType":"bytes32"}]},{"type":"error","name":"AddressEmptyCode","inputs":[{"name":"target","type":"address","internalType":"address"}]},{"type":"error","name":"AddressInsufficientBalance","inputs":[{"name":"account","type":"address","internalType":"address"}]},{"type":"error","name":"BuyFillsNotSupported","inputs":[]},{"type":"error","name":"FailedInnerCall","inputs":[]},{"type":"error","name":"OnlyForBuyOrders","inputs":[]},{"type":"error","name":"SafeCastOverflowedUintDowncast","inputs":[{"name":"bits","type":"uint8","internalType":"uint8"},{"name":"value","type":"uint256","internalType":"uint256"}]},{"type":"error","name":"SafeERC20FailedOperation","inputs":[{"name":"token","type":"address","internalType":"address"}]}],"bytecode":{"object":"0x608060405234801561000f575f80fd5b506040516131823803806131828339818101604052810190610031919061039d565b5f815f73ffffffffffffffffffffffffffffffffffffffff168173ffffffffffffffffffffffffffffffffffffffff16036100a3575f6040517fc22c802200000000000000000000000000000000000000000000000000000000815260040161009a91906103d7565b60405180910390fd5b816001601a6101000a81548165ffffffffffff021916908365ffffffffffff1602179055506100da5f801b826100e360201b60201c565b505050506103f0565b5f805f1b83036101a0575f73ffffffffffffffffffffffffffffffffffffffff166101126101b860201b60201c565b73ffffffffffffffffffffffffffffffffffffffff161461015f576040517f3fc3c27a00000000000000000000000000000000000000000000000000000000815260040160405180910390fd5b8160025f6101000a81548173ffffffffffffffffffffffffffffffffffffffff021916908373ffffffffffffffffffffffffffffffffffffffff1602179055505b6101b083836101e060201b60201c565b905092915050565b5f60025f9054906101000a900473ffffffffffffffffffffffffffffffffffffffff16905090565b5f6101f183836102d560201b60201c565b6102cb5760015f808581526020019081526020015f205f015f8473ffffffffffffffffffffffffffffffffffffffff1673ffffffffffffffffffffffffffffffffffffffff1681526020019081526020015f205f6101000a81548160ff02191690831515021790555061026861033860201b60201c565b73ffffffffffffffffffffffffffffffffffffffff168273ffffffffffffffffffffffffffffffffffffffff16847f2f8788117e7eff1d82e926ec794901d17c78024a50270940304540a733656f0d60405160405180910390a4600190506102cf565b5f90505b92915050565b5f805f8481526020019081526020015f205f015f8373ffffffffffffffffffffffffffffffffffffffff1673ffffffffffffffffffffffffffffffffffffffff1681526020019081526020015f205f9054906101000a900460ff16905092915050565b5f33905090565b5f80fd5b5f73ffffffffffffffffffffffffffffffffffffffff82169050919050565b5f61036c82610343565b9050919050565b61037c81610362565b8114610386575f80fd5b50565b5f8151905061039781610373565b92915050565b5f602082840312156103b2576103b161033f565b5b5f6103bf84828501610389565b91505092915050565b6103d181610362565b82525050565b5f6020820190506103ea5f8301846103c8565b92915050565b612d85806103fd5f395ff3fe608060405234801561000f575f80fd5b5060043610610140575f3560e01c80638da5cb5b116100b6578063cc8463c81161007a578063cc8463c81461034d578063cefc14291461036b578063cf6eefb714610375578063d547741f14610394578063d602b9fd146103b0578063f5b541a6146103ba57610140565b80638da5cb5b1461029257806391d14854146102b0578063a1eda53c146102e0578063a217fddf146102ff578063ac9650d81461031d57610140565b806336568abe1161010857806336568abe146101e8578063549de06014610204578063634e93da14610220578063649a5ec71461023c57806373f4c4261461025857806384ef8ffc1461027457610140565b806301ffc9a714610144578063022d63fb146101745780630aa6220b14610192578063248a9ca31461019c5780632f2ff15d146101cc575b5f80fd5b61015e60048036038101906101599190611d8e565b6103d8565b60405161016b9190611dd3565b60405180910390f35b61017c610451565b6040516101899190611e0c565b60405180910390f35b61019a61045b565b005b6101b660048036038101906101b19190611e58565b610472565b6040516101c39190611e92565b60405180910390f35b6101e660048036038101906101e19190611f05565b61048e565b005b61020260048036038101906101fd9190611f05565b6104d7565b005b61021e60048036038101906102199190611f99565b6105e9565b005b61023a60048036038101906102359190612026565b61078a565b005b6102566004803603810190610251919061207b565b6107a3565b005b610272600480360381019061026d9190612107565b6107bc565b005b61027c6109e1565b60405161028991906121b0565b60405180910390f35b61029a610a09565b6040516102a791906121b0565b60405180910390f35b6102ca60048036038101906102c59190611f05565b610a17565b6040516102d79190611dd3565b60405180910390f35b6102e8610a7a565b6040516102f69291906121c9565b60405180910390f35b610307610ad8565b6040516103149190611e92565b60405180910390f35b61033760048036038101906103329190612245565b610ade565b60405161034491906123bb565b60405180910390f35b610355610cbc565b6040516103629190611e0c565b60405180910390f35b610373610d29565b005b61037d610dbe565b60405161038b9291906123db565b60405180910390f35b6103ae60048036038101906103a99190611f05565b610dff565b005b6103b8610e48565b005b6103c2610e5f565b6040516103cf9190611e92565b60405180910390f35b5f7f31498786000000000000000000000000000000000000000000000000000000007bffffffffffffffffffffffffffffffffffffffffffffffffffffffff1916827bffffffffffffffffffffffffffffffffffffffffffffffffffffffff1916148061044a575061044982610e83565b5b9050919050565b5f62069780905090565b5f801b61046781610efc565b61046f610f10565b50565b5f805f8381526020019081526020015f20600101549050919050565b5f801b82036104c9576040517f3fc3c27a00000000000000000000000000000000000000000000000000000000815260040160405180910390fd5b6104d38282610f1c565b5050565b5f801b8214801561051a57506104eb6109e1565b73ffffffffffffffffffffffffffffffffffffffff168173ffffffffffffffffffffffffffffffffffffffff16145b156105db575f80610529610dbe565b915091505f73ffffffffffffffffffffffffffffffffffffffff168273ffffffffffffffffffffffffffffffffffffffff1614158061056e575061056c81610f3e565b155b8061057f575061057d81610f52565b155b156105c157806040517f19ca5ebb0000000000000000000000000000000000000000000000000000000081526004016105b89190611e0c565b60405180910390fd5b600160146101000a81549065ffffffffffff021916905550505b6105e58282610f65565b5050565b7f97667070c54ef182b0f5858b034beac1b6f3089aa2d3188bb1e8929f4fa9b92961061381610efc565b846080016020810190610626919061242c565b61065c576040517f1e2067c300000000000000000000000000000000000000000000000000000000815260040160405180910390fd5b8573ffffffffffffffffffffffffffffffffffffffff16631c20fadd86606001602081019061068b9190612026565b30866040518463ffffffff1660e01b81526004016106ab939291906124c1565b5f604051808303815f87803b1580156106c2575f80fd5b505af11580156106d4573d5f803e3d5ffd5b5050505061071587848760600160208101906106f09190612026565b73ffffffffffffffffffffffffffffffffffffffff16610fe09092919063ffffffff16565b8673ffffffffffffffffffffffffffffffffffffffff16634bf79b4c868686866040518563ffffffff1660e01b8152600401610754949392919061280c565b5f604051808303815f87803b15801561076b575f80fd5b505af115801561077d573d5f803e3d5ffd5b5050505050505050505050565b5f801b61079681610efc565b61079f82611079565b5050565b5f801b6107af81610efc565b6107b8826110f3565b5050565b7f97667070c54ef182b0f5858b034beac1b6f3089aa2d3188bb1e8929f4fa9b9296107e681610efc565b8560800160208101906107f9919061242c565b15610830576040517fb6941f1400000000000000000000000000000000000000000000000000000000815260040160405180910390fd5b5f8773ffffffffffffffffffffffffffffffffffffffff166381fed708866040518263ffffffff1660e01b815260040161086a9190612853565b602060405180830381865afa158015610885573d5f803e3d5ffd5b505050506040513d601f19601f820116820180604052508101906108a99190612880565b90505f8111156109d7578573ffffffffffffffffffffffffffffffffffffffff16631c20fadd8860600160208101906108e29190612026565b30846040518463ffffffff1660e01b8152600401610902939291906124c1565b5f604051808303815f87803b158015610919575f80fd5b505af115801561092b573d5f803e3d5ffd5b5050505061096c88828960600160208101906109479190612026565b73ffffffffffffffffffffffffffffffffffffffff16610fe09092919063ffffffff16565b8773ffffffffffffffffffffffffffffffffffffffff1663394a4c5c8886866040518463ffffffff1660e01b81526004016109a9939291906128f5565b5f604051808303815f87803b1580156109c0575f80fd5b505af11580156109d2573d5f803e3d5ffd5b505050505b5050505050505050565b5f60025f9054906101000a900473ffffffffffffffffffffffffffffffffffffffff16905090565b5f610a126109e1565b905090565b5f805f8481526020019081526020015f205f015f8373ffffffffffffffffffffffffffffffffffffffff1673ffffffffffffffffffffffffffffffffffffffff1681526020019081526020015f205f9054906101000a900460ff16905092915050565b5f806002601a9054906101000a900465ffffffffffff169050610a9c81610f3e565b8015610aae5750610aac81610f52565b155b610ab9575f80610ad0565b600260149054906101000a900465ffffffffffff16815b915091509091565b5f801b81565b60605f610ae9611159565b73ffffffffffffffffffffffffffffffffffffffff163373ffffffffffffffffffffffffffffffffffffffff1614610b89575f36610b25611160565b5f369050610b339190612954565b908092610b429392919061298f565b8080601f0160208091040260200160405190810160405280939291908181526020018383808284375f81840152601f19601f82011690508083019250505050505050610bd7565b5f67ffffffffffffffff811115610ba357610ba26129c9565b5b6040519080825280601f01601f191660200182016040528015610bd55781602001600182028036833780820191505090505b505b90508383905067ffffffffffffffff811115610bf657610bf56129c9565b5b604051908082528060200260200182016040528015610c2957816020015b6060815260200190600190039081610c145790505b5091505f5b84849050811015610cb457610c8930868684818110610c5057610c4f6129f6565b5b9050602002810190610c629190612a2f565b85604051602001610c7593929190612aef565b604051602081830303815290604052611164565b838281518110610c9c57610c9b6129f6565b5b60200260200101819052508080600101915050610c2e565b505092915050565b5f806002601a9054906101000a900465ffffffffffff169050610cde81610f3e565b8015610cef5750610cee81610f52565b5b610d0d576001601a9054906101000a900465ffffffffffff16610d23565b600260149054906101000a900465ffffffffffff165b91505090565b5f610d32610dbe565b5090508073ffffffffffffffffffffffffffffffffffffffff16610d54611159565b73ffffffffffffffffffffffffffffffffffffffff1614610db357610d77611159565b6040517fc22c8022000000000000000000000000000000000000000000000000000000008152600401610daa91906121b0565b60405180910390fd5b610dbb6111e4565b50565b5f8060015f9054906101000a900473ffffffffffffffffffffffffffffffffffffffff16600160149054906101000a900465ffffffffffff16915091509091565b5f801b8203610e3a576040517f3fc3c27a00000000000000000000000000000000000000000000000000000000815260040160405180910390fd5b610e4482826112af565b5050565b5f801b610e5481610efc565b610e5c6112d1565b50565b7f97667070c54ef182b0f5858b034beac1b6f3089aa2d3188bb1e8929f4fa9b92981565b5f7f7965db0b000000000000000000000000000000000000000000000000000000007bffffffffffffffffffffffffffffffffffffffffffffffffffffffff1916827bffffffffffffffffffffffffffffffffffffffffffffffffffffffff19161480610ef55750610ef4826112dd565b5b9050919050565b610f0d81610f08611159565b611346565b50565b610f1a5f80611397565b565b610f2582610472565b610f2e81610efc565b610f388383611486565b50505050565b5f808265ffffffffffff1614159050919050565b5f428265ffffffffffff16109050919050565b610f6d611159565b73ffffffffffffffffffffffffffffffffffffffff168173ffffffffffffffffffffffffffffffffffffffff1614610fd1576040517f6697b23200000000000000000000000000000000000000000000000000000000815260040160405180910390fd5b610fdb828261154f565b505050565b5f8373ffffffffffffffffffffffffffffffffffffffff1663dd62ed3e30856040518363ffffffff1660e01b815260040161101c929190612b14565b602060405180830381865afa158015611037573d5f803e3d5ffd5b505050506040513d601f19601f8201168201806040525081019061105b9190612880565b90506110738484848461106e9190612b3b565b6115cf565b50505050565b5f611082610cbc565b61108b426116dc565b6110959190612b6e565b90506110a18282611735565b8173ffffffffffffffffffffffffffffffffffffffff167f3377dc44241e779dd06afab5b788a35ca5f3b778836e2990bdb26a2a4b2e5ed6826040516110e79190611e0c565b60405180910390a25050565b5f6110fd826117e6565b611106426116dc565b6111109190612b6e565b905061111c8282611397565b7ff1038c18cf84a56e432fdbfaf746924b7ea511dfe03a6506a0ceba4888788d9b828260405161114d9291906121c9565b60405180910390a15050565b5f33905090565b5f90565b60605f808473ffffffffffffffffffffffffffffffffffffffff168460405161118d9190612ba7565b5f60405180830381855af49150503d805f81146111c5576040519150601f19603f3d011682016040523d82523d5f602084013e6111ca565b606091505b50915091506111da858383611844565b9250505092915050565b5f806111ee610dbe565b915091506111fb81610f3e565b158061120d575061120b81610f52565b155b1561124f57806040517f19ca5ebb0000000000000000000000000000000000000000000000000000000081526004016112469190611e0c565b60405180910390fd5b6112625f801b61125d6109e1565b61154f565b5061126f5f801b83611486565b5060015f6101000a81549073ffffffffffffffffffffffffffffffffffffffff0219169055600160146101000a81549065ffffffffffff02191690555050565b6112b882610472565b6112c181610efc565b6112cb838361154f565b50505050565b6112db5f80611735565b565b5f7f01ffc9a7000000000000000000000000000000000000000000000000000000007bffffffffffffffffffffffffffffffffffffffffffffffffffffffff1916827bffffffffffffffffffffffffffffffffffffffffffffffffffffffff1916149050919050565b6113508282610a17565b6113935780826040517fe2517d3f00000000000000000000000000000000000000000000000000000000815260040161138a929190612bbd565b60405180910390fd5b5050565b5f6002601a9054906101000a900465ffffffffffff1690506113b881610f3e565b15611437576113c681610f52565b1561140957600260149054906101000a900465ffffffffffff166001601a6101000a81548165ffffffffffff021916908365ffffffffffff160217905550611436565b7f2b1fa2edafe6f7b9e97c1a9e0c3660e645beb2dcaa2d45bdbf9beaf5472e1ec560405160405180910390a15b5b82600260146101000a81548165ffffffffffff021916908365ffffffffffff160217905550816002601a6101000a81548165ffffffffffff021916908365ffffffffffff160217905550505050565b5f805f1b830361153d575f73ffffffffffffffffffffffffffffffffffffffff166114af6109e1565b73ffffffffffffffffffffffffffffffffffffffff16146114fc576040517f3fc3c27a00000000000000000000000000000000000000000000000000000000815260040160405180910390fd5b8160025f6101000a81548173ffffffffffffffffffffffffffffffffffffffff021916908373ffffffffffffffffffffffffffffffffffffffff1602179055505b61154783836118d1565b905092915050565b5f805f1b8314801561159357506115646109e1565b73ffffffffffffffffffffffffffffffffffffffff168273ffffffffffffffffffffffffffffffffffffffff16145b156115bd5760025f6101000a81549073ffffffffffffffffffffffffffffffffffffffff02191690555b6115c783836119ba565b905092915050565b5f8373ffffffffffffffffffffffffffffffffffffffff1663095ea7b384846040516024016115ff929190612be4565b604051602081830303815290604052915060e01b6020820180517bffffffffffffffffffffffffffffffffffffffffffffffffffffffff8381831617835250505050905061164d8482611aa3565b6116d6576116cb848573ffffffffffffffffffffffffffffffffffffffff1663095ea7b3865f604051602401611684929190612c44565b604051602081830303815290604052915060e01b6020820180517bffffffffffffffffffffffffffffffffffffffffffffffffffffffff8381831617835250505050611b62565b6116d58482611b62565b5b50505050565b5f65ffffffffffff801682111561172d576030826040517f6dfcc650000000000000000000000000000000000000000000000000000000008152600401611724929190612cb0565b60405180910390fd5b819050919050565b5f61173e610dbe565b9150508260015f6101000a81548173ffffffffffffffffffffffffffffffffffffffff021916908373ffffffffffffffffffffffffffffffffffffffff16021790555081600160146101000a81548165ffffffffffff021916908365ffffffffffff1602179055506117af81610f3e565b156117e1577f8886ebfc4259abdbc16601dd8fb5678e54878f47b3c34836cfc51154a960510960405160405180910390a15b505050565b5f806117f0610cbc565b90508065ffffffffffff168365ffffffffffff161161181a5782816118159190612cd7565b61183c565b61183b8365ffffffffffff1661182e610451565b65ffffffffffff16611bf7565b5b915050919050565b6060826118595761185482611c0f565b6118c9565b5f825114801561187f57505f8473ffffffffffffffffffffffffffffffffffffffff163b145b156118c157836040517f9996b3150000000000000000000000000000000000000000000000000000000081526004016118b891906121b0565b60405180910390fd5b8190506118ca565b5b9392505050565b5f6118dc8383610a17565b6119b05760015f808581526020019081526020015f205f015f8473ffffffffffffffffffffffffffffffffffffffff1673ffffffffffffffffffffffffffffffffffffffff1681526020019081526020015f205f6101000a81548160ff02191690831515021790555061194d611159565b73ffffffffffffffffffffffffffffffffffffffff168273ffffffffffffffffffffffffffffffffffffffff16847f2f8788117e7eff1d82e926ec794901d17c78024a50270940304540a733656f0d60405160405180910390a4600190506119b4565b5f90505b92915050565b5f6119c58383610a17565b15611a99575f805f8581526020019081526020015f205f015f8473ffffffffffffffffffffffffffffffffffffffff1673ffffffffffffffffffffffffffffffffffffffff1681526020019081526020015f205f6101000a81548160ff021916908315150217905550611a36611159565b73ffffffffffffffffffffffffffffffffffffffff168273ffffffffffffffffffffffffffffffffffffffff16847ff6391f5c32d9c69d2a47ea670b442974b53935d1edc7fd64eb21e047a839171b60405160405180910390a460019050611a9d565b5f90505b92915050565b5f805f8473ffffffffffffffffffffffffffffffffffffffff1684604051611acb9190612ba7565b5f604051808303815f865af19150503d805f8114611b04576040519150601f19603f3d011682016040523d82523d5f602084013e611b09565b606091505b5091509150818015611b3657505f81511480611b35575080806020019051810190611b349190612d24565b5b5b8015611b5857505f8573ffffffffffffffffffffffffffffffffffffffff163b115b9250505092915050565b5f611b8c828473ffffffffffffffffffffffffffffffffffffffff16611c5390919063ffffffff16565b90505f815114158015611bb0575080806020019051810190611bae9190612d24565b155b15611bf257826040517f5274afe7000000000000000000000000000000000000000000000000000000008152600401611be991906121b0565b60405180910390fd5b505050565b5f818310611c055781611c07565b825b905092915050565b5f81511115611c215780518082602001fd5b6040517f1425ea4200000000000000000000000000000000000000000000000000000000815260040160405180910390fd5b6060611c6083835f611c68565b905092915050565b606081471015611caf57306040517fcd786059000000000000000000000000000000000000000000000000000000008152600401611ca691906121b0565b60405180910390fd5b5f808573ffffffffffffffffffffffffffffffffffffffff168486604051611cd79190612ba7565b5f6040518083038185875af1925050503d805f8114611d11576040519150601f19603f3d011682016040523d82523d5f602084013e611d16565b606091505b5091509150611d26868383611844565b925050509392505050565b5f80fd5b5f80fd5b5f7fffffffff0000000000000000000000000000000000000000000000000000000082169050919050565b611d6d81611d39565b8114611d77575f80fd5b50565b5f81359050611d8881611d64565b92915050565b5f60208284031215611da357611da2611d31565b5b5f611db084828501611d7a565b91505092915050565b5f8115159050919050565b611dcd81611db9565b82525050565b5f602082019050611de65f830184611dc4565b92915050565b5f65ffffffffffff82169050919050565b611e0681611dec565b82525050565b5f602082019050611e1f5f830184611dfd565b92915050565b5f819050919050565b611e3781611e25565b8114611e41575f80fd5b50565b5f81359050611e5281611e2e565b92915050565b5f60208284031215611e6d57611e6c611d31565b5b5f611e7a84828501611e44565b91505092915050565b611e8c81611e25565b82525050565b5f602082019050611ea55f830184611e83565b92915050565b5f73ffffffffffffffffffffffffffffffffffffffff82169050919050565b5f611ed482611eab565b9050919050565b611ee481611eca565b8114611eee575f80fd5b50565b5f81359050611eff81611edb565b92915050565b5f8060408385031215611f1b57611f1a611d31565b5b5f611f2885828601611e44565b9250506020611f3985828601611ef1565b9150509250929050565b5f80fd5b5f6101408284031215611f5d57611f5c611f43565b5b81905092915050565b5f819050919050565b611f7881611f66565b8114611f82575f80fd5b50565b5f81359050611f9381611f6f565b92915050565b5f805f805f806101e08789031215611fb457611fb3611d31565b5b5f611fc189828a01611ef1565b9650506020611fd289828a01611ef1565b9550506040611fe389828a01611f47565b945050610180611ff589828a01611f85565b9350506101a061200789828a01611f85565b9250506101c061201989828a01611f85565b9150509295509295509295565b5f6020828403121561203b5761203a611d31565b5b5f61204884828501611ef1565b91505092915050565b61205a81611dec565b8114612064575f80fd5b50565b5f8135905061207581612051565b92915050565b5f602082840312156120905761208f611d31565b5b5f61209d84828501612067565b91505092915050565b5f80fd5b5f80fd5b5f80fd5b5f8083601f8401126120c7576120c66120a6565b5b8235905067ffffffffffffffff8111156120e4576120e36120aa565b5b602083019150836001820283011115612100576120ff6120ae565b5b9250929050565b5f805f805f806101c0878903121561212257612121611d31565b5b5f61212f89828a01611ef1565b965050602061214089828a01611f47565b95505061016061215289828a01611ef1565b94505061018061216489828a01611f85565b9350506101a087013567ffffffffffffffff81111561218657612185611d35565b5b61219289828a016120b2565b92509250509295509295509295565b6121aa81611eca565b82525050565b5f6020820190506121c35f8301846121a1565b92915050565b5f6040820190506121dc5f830185611dfd565b6121e96020830184611dfd565b9392505050565b5f8083601f840112612205576122046120a6565b5b8235905067ffffffffffffffff811115612222576122216120aa565b5b60208301915083602082028301111561223e5761223d6120ae565b5b9250929050565b5f806020838503121561225b5761225a611d31565b5b5f83013567ffffffffffffffff81111561227857612277611d35565b5b612284858286016121f0565b92509250509250929050565b5f81519050919050565b5f82825260208201905092915050565b5f819050602082019050919050565b5f81519050919050565b5f82825260208201905092915050565b8281835e5f83830152505050565b5f601f19601f8301169050919050565b5f6122fb826122b9565b61230581856122c3565b93506123158185602086016122d3565b61231e816122e1565b840191505092915050565b5f61233483836122f1565b905092915050565b5f602082019050919050565b5f61235282612290565b61235c818561229a565b93508360208202850161236e856122aa565b805f5b858110156123a9578484038952815161238a8582612329565b94506123958361233c565b925060208a01995050600181019050612371565b50829750879550505050505092915050565b5f6020820190508181035f8301526123d38184612348565b905092915050565b5f6040820190506123ee5f8301856121a1565b6123fb6020830184611dfd565b9392505050565b61240b81611db9565b8114612415575f80fd5b50565b5f8135905061242681612402565b92915050565b5f6020828403121561244157612440611d31565b5b5f61244e84828501612418565b91505092915050565b5f819050919050565b5f61247a61247561247084611eab565b612457565b611eab565b9050919050565b5f61248b82612460565b9050919050565b5f61249c82612481565b9050919050565b6124ac81612492565b82525050565b6124bb81611f66565b82525050565b5f6060820190506124d45f8301866124a3565b6124e160208301856121a1565b6124ee60408301846124b2565b949350505050565b5f67ffffffffffffffff82169050919050565b612512816124f6565b811461251c575f80fd5b50565b5f8135905061252d81612509565b92915050565b5f612541602084018461251f565b905092915050565b612552816124f6565b82525050565b5f6125666020840184611ef1565b905092915050565b61257781611eca565b82525050565b5f61258b6020840184612418565b905092915050565b61259c81611db9565b82525050565b600281106125ae575f80fd5b50565b5f813590506125bf816125a2565b92915050565b5f6125d360208401846125b1565b905092915050565b7f4e487b71000000000000000000000000000000000000000000000000000000005f52602160045260245ffd5b60028110612619576126186125db565b5b50565b5f81905061262982612608565b919050565b5f6126388261261c565b9050919050565b6126488161262e565b82525050565b5f61265c6020840184611f85565b905092915050565b61266d81611f66565b82525050565b6004811061267f575f80fd5b50565b5f8135905061269081612673565b92915050565b5f6126a46020840184612682565b905092915050565b600481106126bd576126bc6125db565b5b50565b5f8190506126cd826126ac565b919050565b5f6126dc826126c0565b9050919050565b6126ec816126d2565b82525050565b61014082016127035f830183612533565b61270f5f850182612549565b5061271d6020830183612558565b61272a602085018261256e565b506127386040830183612558565b612745604085018261256e565b506127536060830183612558565b612760606085018261256e565b5061276e608083018361257d565b61277b6080850182612593565b5061278960a08301836125c5565b61279660a085018261263f565b506127a460c083018361264e565b6127b160c0850182612664565b506127bf60e083018361264e565b6127cc60e0850182612664565b506127db61010083018361264e565b6127e9610100850182612664565b506127f8610120830183612696565b6128066101208501826126e3565b50505050565b5f6101a0820190506128205f8301876126f2565b61282e6101408301866124b2565b61283c6101608301856124b2565b61284a6101808301846124b2565b95945050505050565b5f6020820190506128665f8301846124b2565b92915050565b5f8151905061287a81611f6f565b92915050565b5f6020828403121561289557612894611d31565b5b5f6128a28482850161286c565b91505092915050565b5f82825260208201905092915050565b828183375f83830152505050565b5f6128d483856128ab565b93506128e18385846128bb565b6128ea836122e1565b840190509392505050565b5f610160820190506129095f8301866126f2565b81810361014083015261291d8184866128c9565b9050949350505050565b7f4e487b71000000000000000000000000000000000000000000000000000000005f52601160045260245ffd5b5f61295e82611f66565b915061296983611f66565b925082820390508181111561298157612980612927565b5b92915050565b5f80fd5b5f80fd5b5f80858511156129a2576129a1612987565b5b838611156129b3576129b261298b565b5b6001850283019150848603905094509492505050565b7f4e487b71000000000000000000000000000000000000000000000000000000005f52604160045260245ffd5b7f4e487b71000000000000000000000000000000000000000000000000000000005f52603260045260245ffd5b5f80fd5b5f80fd5b5f80fd5b5f8083356001602003843603038112612a4b57612a4a612a23565b5b80840192508235915067ffffffffffffffff821115612a6d57612a6c612a27565b5b602083019250600182023603831315612a8957612a88612a2b565b5b509250929050565b5f81905092915050565b5f612aa68385612a91565b9350612ab38385846128bb565b82840190509392505050565b5f612ac9826122b9565b612ad38185612a91565b9350612ae38185602086016122d3565b80840191505092915050565b5f612afb828587612a9b565b9150612b078284612abf565b9150819050949350505050565b5f604082019050612b275f8301856121a1565b612b3460208301846121a1565b9392505050565b5f612b4582611f66565b9150612b5083611f66565b9250828201905080821115612b6857612b67612927565b5b92915050565b5f612b7882611dec565b9150612b8383611dec565b9250828201905065ffffffffffff811115612ba157612ba0612927565b5b92915050565b5f612bb28284612abf565b915081905092915050565b5f604082019050612bd05f8301856121a1565b612bdd6020830184611e83565b9392505050565b5f604082019050612bf75f8301856121a1565b612c0460208301846124b2565b9392505050565b5f819050919050565b5f612c2e612c29612c2484612c0b565b612457565b611f66565b9050919050565b612c3e81612c14565b82525050565b5f604082019050612c575f8301856121a1565b612c646020830184612c35565b9392505050565b5f819050919050565b5f60ff82169050919050565b5f612c9a612c95612c9084612c6b565b612457565b612c74565b9050919050565b612caa81612c80565b82525050565b5f604082019050612cc35f830185612ca1565b612cd060208301846124b2565b9392505050565b5f612ce182611dec565b9150612cec83611dec565b9250828203905065ffffffffffff811115612d0a57612d09612927565b5b92915050565b5f81519050612d1e81612402565b92915050565b5f60208284031215612d3957612d38611d31565b5b5f612d4684828501612d10565b9150509291505056fea264697066735822122019f48d9575d9609e28e6af5bc06d26b48af74f31d91642366102445fb22c34e764736f6c63430008190033","linkReferences":{}},"methodIdentifiers":{"DEFAULT_ADMIN_ROLE()":"a217fddf","OPERATOR_ROLE()":"f5b541a6","acceptDefaultAdminTransfer()":"cefc1429","beginDefaultAdminTransfer(address)":"634e93da","cancelBuyOrder(address,(uint64,address,address,address,bool,uint8,uint256,uint256,uint256,uint8),address,uint256,string)":"73f4c426","cancelDefaultAdminTransfer()":"d602b9fd","changeDefaultAdminDelay(uint48)":"649a5ec7","defaultAdmin()":"84ef8ffc","defaultAdminDelay()":"cc8463c8","defaultAdminDelayIncreaseWait()":"022d63fb","fillOrder(address,address,(uint64,address,address,address,bool,uint8,uint256,uint256,uint256,uint8),uint256,uint256,uint256)":"549de060","getRoleAdmin(bytes32)":"248a9ca3","grantRole(bytes32,address)":"2f2ff15d","hasRole(bytes32,address)":"91d14854","multicall(bytes[])":"ac9650d8","owner()":"8da5cb5b","pendingDefaultAdmin()":"cf6eefb7","pendingDefaultAdminDelay()":"a1eda53c","renounceRole(bytes32,address)":"36568abe","revokeRole(bytes32,address)":"d547741f","rollbackDefaultAdminDelay()":"0aa6220b","supportsInterface(bytes4)":"01ffc9a7"},"id":16}