{"abi":[{"type":"constructor","inputs":[{"name":"initialOwner","type":"address","internalType":"address"}],"stateMutability":"nonpayable"},{"type":"function","name":"DEFAULT_ADMIN_ROLE","inputs":[],"outputs":[{"name":"","type":"bytes32","internalType":"bytes32"}],"stateMutability":"view"},{"type":"function","name":"OPERATOR_ROLE","inputs":[],"outputs":[{"name":"","type":"bytes32","internalType":"bytes32"}],"stateMutability":"view"},{"type":"function","name":"acceptDefaultAdminTransfer","inputs":[],"outputs":[],"stateMutability":"nonpayable"},{"type":"function","name":"beginDefaultAdminTransfer","inputs":[{"name":"newAdmin","type":"address","internalType":"address"}],"outputs":[],"stateMutability":"nonpayable"},{"type":"function","name":"cancelBuyOrder","inputs":[{"name":"orderProcessor","type":"address","internalType":"address"},{"name":"order","type":"tuple","internalType":"struct IOrderProcessor.Order","components":[{"name":"requestTimestamp","type":"uint64","internalType":"uint64"},{"name":"recipient","type":"address","internalType":"address"},{"name":"assetToken","type":"address","internalType":"address"},{"name":"paymentToken","type":"address","internalType":"address"},{"name":"sell","type":"bool","internalType":"bool"},{"name":"orderType","type":"uint8","internalType":"enum IOrderProcessor.OrderType"},{"name":"assetTokenQuantity","type":"uint256","internalType":"uint256"},{"name":"paymentTokenQuantity","type":"uint256","internalType":"uint256"},{"name":"price","type":"uint256","internalType":"uint256"},{"name":"tif","type":"uint8","internalType":"enum IOrderProcessor.TIF"}]},{"name":"vault","type":"address","internalType":"address"},{"name":"orderId","type":"uint256","internalType":"uint256"},{"name":"reason","type":"string","internalType":"string"}],"outputs":[],"stateMutability":"nonpayable"},{"type":"function","name":"cancelDefaultAdminTransfer","inputs":[],"outputs":[],"stateMutability":"nonpayable"},{"type":"function","name":"changeDefaultAdminDelay","inputs":[{"name":"newDelay","type":"uint48","internalType":"uint48"}],"outputs":[],"stateMutability":"nonpayable"},{"type":"function","name":"defaultAdmin","inputs":[],"outputs":[{"name":"","type":"address","internalType":"address"}],"stateMutability":"view"},{"type":"function","name":"defaultAdminDelay","inputs":[],"outputs":[{"name":"","type":"uint48","internalType":"uint48"}],"stateMutability":"view"},{"type":"function","name":"defaultAdminDelayIncreaseWait","inputs":[],"outputs":[{"name":"","type":"uint48","internalType":"uint48"}],"stateMutability":"view"},{"type":"function","name":"fillOrder","inputs":[{"name":"orderProcessor","type":"address","internalType":"address"},{"name":"vault","type":"address","internalType":"address"},{"name":"order","type":"tuple","internalType":"struct IOrderProcessor.Order","components":[{"name":"requestTimestamp","type":"uint64","internalType":"uint64"},{"name":"recipient","type":"address","internalType":"address"},{"name":"assetToken","type":"address","internalType":"address"},{"name":"paymentToken","type":"address","internalType":"address"},{"name":"sell","type":"bool","internalType":"bool"},{"name":"orderType","type":"uint8","internalType":"enum IOrderProcessor.OrderType"},{"name":"assetTokenQuantity","type":"uint256","internalType":"uint256"},{"name":"paymentTokenQuantity","type":"uint256","internalType":"uint256"},{"name":"price","type":"uint256","internalType":"uint256"},{"name":"tif","type":"uint8","internalType":"enum IOrderProcessor.TIF"}]},{"name":"fillAmount","type":"uint256","internalType":"uint256"},{"name":"receivedAmount","type":"uint256","internalType":"uint256"},{"name":"fees","type":"uint256","internalType":"uint256"}],"outputs":[],"stateMutability":"nonpayable"},{"type":"function","name":"getRoleAdmin","inputs":[{"name":"role","type":"bytes32","internalType":"bytes32"}],"outputs":[{"name":"","type":"bytes32","internalType":"bytes32"}],"stateMutability":"view"},{"type":"function","name":"grantRole","inputs":[{"name":"role","type":"bytes32","internalType":"bytes32"},{"name":"account","type":"address","internalType":"address"}],"outputs":[],"stateMutability":"nonpayable"},{"type":"function","name":"hasRole","inputs":[{"name":"role","type":"bytes32","internalType":"bytes32"},{"name":"account","type":"address","internalType":"address"}],"outputs":[{"name":"","type":"bool","internalType":"bool"}],"stateMutability":"view"},{"type":"function","name":"multicall","inputs":[{"name":"data","type":"bytes[]","internalType":"bytes[]"}],"outputs":[{"name":"results","type":"bytes[]","internalType":"bytes[]"}],"stateMutability":"nonpayable"},{"type":"function","name":"owner","inputs":[],"outputs":[{"name":"","type":"address","internalType":"address"}],"stateMutability":"view"},{"type":"function","name":"pendingDefaultAdmin","inputs":[],"outputs":[{"name":"newAdmin","type":"address","internalType":"address"},{"name":"schedule","type":"uint48","internalType":"uint48"}],"stateMutability":"view"},{"type":"function","name":"pendingDefaultAdminDelay","inputs":[],"outputs":[{"name":"newDelay","type":"uint48","internalType":"uint48"},{"name":"schedule","type":"uint48","internalType":"uint48"}],"stateMutability":"view"},{"type":"function","name":"renounceRole","inputs":[{"name":"role","type":"bytes32","internalType":"bytes32"},{"name":"account","type":"address","internalType":"address"}],"outputs":[],"stateMutability":"nonpayable"},{"type":"function","name":"revokeRole","inputs":[{"name":"role","type":"bytes32","internalType":"bytes32"},{"name":"account","type":"address","internalType":"address"}],"outputs":[],"stateMutability":"nonpayable"},{"type":"function","name":"rollbackDefaultAdminDelay","inputs":[],"outputs":[],"stateMutability":"nonpayable"},{"type":"function","name":"supportsInterface","inputs":[{"name":"interfaceId","type":"bytes4","internalType":"bytes4"}],"outputs":[{"name":"","type":"bool","internalType":"bool"}],"stateMutability":"view"},{"type":"event","name":"DefaultAdminDelayChangeCanceled","inputs":[],"anonymous":false},{"type":"event","name":"DefaultAdminDelayChangeScheduled","inputs":[{"name":"newDelay","type":"uint48","indexed":false,"internalType":"uint48"},{"name":"effectSchedule","type":"uint48","indexed":false,"internalType":"uint48"}],"anonymous":false},{"type":"event","name":"DefaultAdminTransferCanceled","inputs":[],"anonymous":false},{"type":"event","name":"DefaultAdminTransferScheduled","inputs":[{"name":"newAdmin","type":"address","indexed":true,"internalType":"address"},{"name":"acceptSchedule","type":"uint48","indexed":false,"internalType":"uint48"}],"anonymous":false},{"type":"event","name":"RoleAdminChanged","inputs":[{"name":"role","type":"bytes32","indexed":true,"internalType":"bytes32"},{"name":"previousAdminRole","type":"bytes32","indexed":true,"internalType":"bytes32"},{"name":"newAdminRole","type":"bytes32","indexed":true,"internalType":"bytes32"}],"anonymous":false},{"type":"event","name":"RoleGranted","inputs":[{"name":"role","type":"bytes32","indexed":true,"internalType":"bytes32"},{"name":"account","type":"address","indexed":true,"internalType":"address"},{"name":"sender","type":"address","indexed":true,"internalType":"address"}],"anonymous":false},{"type":"event","name":"RoleRevoked","inputs":[{"name":"role","type":"bytes32","indexed":true,"internalType":"bytes32"},{"name":"account","type":"address","indexed":true,"internalType":"address"},{"name":"sender","type":"address","indexed":true,"internalType":"address"}],"anonymous":false},{"type":"error","name":"AccessControlBadConfirmation","inputs":[]},{"type":"error","name":"AccessControlEnforcedDefaultAdminDelay","inputs":[{"name":"schedule","type":"uint48","internalType":"uint48"}]},{"type":"error","name":"AccessControlEnforcedDefaultAdminRules","inputs":[]},{"type":"error","name":"AccessControlInvalidDefaultAdmin","inputs":[{"name":"defaultAdmin","type":"address","internalType":"address"}]},{"type":"error","name":"AccessControlUnauthorizedAccount","inputs":[{"name":"account","type":"address","internalType":"address"},{"name":"neededRole","type":"bytes32","internalType":"bytes32"}]},{"type":"error","name":"AddressEmptyCode","inputs":[{"name":"target","type":"address","internalType":"address"}]},{"type":"error","name":"AddressInsufficientBalance","inputs":[{"name":"account","type":"address","internalType":"address"}]},{"type":"error","name":"BuyFillsNotSupported","inputs":[]},{"type":"error","name":"FailedInnerCall","inputs":[]},{"type":"error","name":"OnlyForBuyOrders","inputs":[]},{"type":"error","name":"SafeCastOverflowedUintDowncast","inputs":[{"name":"bits","type":"uint8","internalType":"uint8"},{"name":"value","type":"uint256","internalType":"uint256"}]},{"type":"error","name":"SafeERC20FailedOperation","inputs":[{"name":"token","type":"address","internalType":"address"}]}],"bytecode":{"object":"0x608060405234801561000f575f80fd5b50604051611bb4380380611bb483398101604081905261002e916101a5565b5f816001600160a01b03811661005d57604051636116401160e11b81525f600482015260240160405180910390fd5b600180546001600160d01b0316600160d01b65ffffffffffff8516021790556100865f8261008f565b505050506101d2565b5f826100eb575f6100a86002546001600160a01b031690565b6001600160a01b0316146100cf57604051631fe1e13d60e11b815260040160405180910390fd5b600280546001600160a01b0319166001600160a01b0384161790555b6100f583836100fe565b90505b92915050565b5f828152602081815260408083206001600160a01b038516845290915281205460ff1661019e575f838152602081815260408083206001600160a01b03861684529091529020805460ff191660011790556101563390565b6001600160a01b0316826001600160a01b0316847f2f8788117e7eff1d82e926ec794901d17c78024a50270940304540a733656f0d60405160405180910390a45060016100f8565b505f6100f8565b5f602082840312156101b5575f80fd5b81516001600160a01b03811681146101cb575f80fd5b9392505050565b6119d5806101df5f395ff3fe608060405234801561000f575f80fd5b506004361061013d575f3560e01c80638da5cb5b116100b4578063cc8463c811610079578063cc8463c8146102bf578063cefc1429146102c7578063cf6eefb7146102cf578063d547741f146102fd578063d602b9fd14610310578063f5b541a614610318575f80fd5b80638da5cb5b1461025657806391d148541461025e578063a1eda53c14610271578063a217fddf14610298578063ac9650d81461029f575f80fd5b806336568abe1161010557806336568abe146101d2578063549de060146101e5578063634e93da146101f8578063649a5ec71461020b57806373f4c4261461021e57806384ef8ffc14610231575f80fd5b806301ffc9a714610141578063022d63fb146101695780630aa6220b14610185578063248a9ca31461018f5780632f2ff15d146101bf575b5f80fd5b61015461014f3660046113bb565b61033f565b60405190151581526020015b60405180910390f35b620697805b60405165ffffffffffff9091168152602001610160565b61018d610369565b005b6101b161019d3660046113e2565b5f9081526020819052604090206001015490565b604051908152602001610160565b61018d6101cd366004611414565b61037e565b61018d6101e0366004611414565b6103aa565b61018d6101f3366004611455565b610455565b61018d6102063660046114b5565b6105bc565b61018d6102193660046114ce565b6105cf565b61018d61022c3660046114f3565b6105e2565b6002546001600160a01b03165b6040516001600160a01b039091168152602001610160565b61023e6107ab565b61015461026c366004611414565b6107c3565b6102796107eb565b6040805165ffffffffffff938416815292909116602083015201610160565b6101b15f81565b6102b26102ad36600461159d565b61083d565b604051610160919061160c565b61016e610923565b61018d610981565b6102d76109c0565b604080516001600160a01b03909316835265ffffffffffff909116602083015201610160565b61018d61030b366004611414565b6109e1565b61018d610a09565b6101b17f97667070c54ef182b0f5858b034beac1b6f3089aa2d3188bb1e8929f4fa9b92981565b5f6001600160e01b031982166318a4c3c360e11b1480610363575061036382610a1b565b92915050565b5f61037381610a4f565b61037b610a59565b50565b8161039c57604051631fe1e13d60e11b815260040160405180910390fd5b6103a68282610a65565b5050565b811580156103c557506002546001600160a01b038281169116145b1561044b575f806103d46109c0565b90925090506001600160a01b0382161515806103f6575065ffffffffffff8116155b8061040957504265ffffffffffff821610155b15610436576040516319ca5ebb60e01b815265ffffffffffff821660048201526024015b60405180910390fd5b50506001805465ffffffffffff60a01b191690555b6103a68282610a8f565b7f97667070c54ef182b0f5858b034beac1b6f3089aa2d3188bb1e8929f4fa9b92961047f81610a4f565b61048f60a086016080870161169b565b6104ac57604051631e2067c360e01b815260040160405180910390fd5b6001600160a01b038616631c20fadd6104cb60808801606089016114b5565b6040516001600160e01b031960e084901b1681526001600160a01b039091166004820152306024820152604481018690526064015f604051808303815f87803b158015610516575f80fd5b505af1158015610528573d5f803e3d5ffd5b50505050610554878487606001602081019061054491906114b5565b6001600160a01b03169190610ac7565b6040516312fde6d360e21b81526001600160a01b03881690634bf79b4c906105869088908890889088906004016117f1565b5f604051808303815f87803b15801561059d575f80fd5b505af11580156105af573d5f803e3d5ffd5b5050505050505050505050565b5f6105c681610a4f565b6103a682610b4e565b5f6105d981610a4f565b6103a682610bc0565b7f97667070c54ef182b0f5858b034beac1b6f3089aa2d3188bb1e8929f4fa9b92961060c81610a4f565b61061c60a087016080880161169b565b1561063a57604051632da507c560e21b815260040160405180910390fd5b60405163103fdae160e31b8152600481018590525f906001600160a01b038916906381fed70890602401602060405180830381865afa15801561067f573d5f803e3d5ffd5b505050506040513d601f19601f820116820180604052508101906106a3919061181e565b905080156107a1576001600160a01b038616631c20fadd6106ca60808a0160608b016114b5565b6040516001600160e01b031960e084901b1681526001600160a01b039091166004820152306024820152604481018490526064015f604051808303815f87803b158015610715575f80fd5b505af1158015610727573d5f803e3d5ffd5b50505050610743888289606001602081019061054491906114b5565b604051630e52931760e21b81526001600160a01b0389169063394a4c5c90610773908a9088908890600401611835565b5f604051808303815f87803b15801561078a575f80fd5b505af115801561079c573d5f803e3d5ffd5b505050505b5050505050505050565b5f6107be6002546001600160a01b031690565b905090565b5f918252602082815260408084206001600160a01b0393909316845291905290205460ff1690565b6002545f90600160d01b900465ffffffffffff16801515801561081657504265ffffffffffff821610155b610821575f80610835565b600254600160a01b900465ffffffffffff16815b915091509091565b604080515f8152602081019091526060908267ffffffffffffffff8111156108675761086761188a565b60405190808252806020026020018201604052801561089a57816020015b60608152602001906001900390816108855790505b5091505f5b8381101561091b576108f6308686848181106108bd576108bd61189e565b90506020028101906108cf91906118b2565b856040516020016108e293929190611913565b604051602081830303815290604052610c2f565b8382815181106109085761090861189e565b602090810291909101015260010161089f565b505092915050565b6002545f90600160d01b900465ffffffffffff16801515801561094d57504265ffffffffffff8216105b61096857600154600160d01b900465ffffffffffff1661097b565b600254600160a01b900465ffffffffffff165b91505090565b5f61098a6109c0565b509050336001600160a01b038216146109b857604051636116401160e11b815233600482015260240161042d565b61037b610ca1565b6001546001600160a01b03811691600160a01b90910465ffffffffffff1690565b816109ff57604051631fe1e13d60e11b815260040160405180910390fd5b6103a68282610d37565b5f610a1381610a4f565b61037b610d5b565b5f6001600160e01b03198216637965db0b60e01b148061036357506301ffc9a760e01b6001600160e01b0319831614610363565b61037b8133610d65565b610a635f80610d9e565b565b5f82815260208190526040902060010154610a7f81610a4f565b610a898383610e5d565b50505050565b6001600160a01b0381163314610ab85760405163334bd91960e11b815260040160405180910390fd5b610ac28282610eca565b505050565b604051636eb1769f60e11b81523060048201526001600160a01b0383811660248301525f919085169063dd62ed3e90604401602060405180830381865afa158015610b14573d5f803e3d5ffd5b505050506040513d601f19601f82011682018060405250810190610b38919061181e565b9050610a898484610b498585611928565b610f06565b5f610b57610923565b610b6042610fb9565b610b6a919061193b565b9050610b768282610fef565b60405165ffffffffffff821681526001600160a01b038316907f3377dc44241e779dd06afab5b788a35ca5f3b778836e2990bdb26a2a4b2e5ed69060200160405180910390a25050565b5f610bca8261106c565b610bd342610fb9565b610bdd919061193b565b9050610be98282610d9e565b6040805165ffffffffffff8085168252831660208201527ff1038c18cf84a56e432fdbfaf746924b7ea511dfe03a6506a0ceba4888788d9b910160405180910390a15050565b60605f80846001600160a01b031684604051610c4b919061195a565b5f60405180830381855af49150503d805f8114610c83576040519150601f19603f3d011682016040523d82523d5f602084013e610c88565b606091505b5091509150610c988583836110b3565b95945050505050565b5f80610cab6109c0565b91509150610cc08165ffffffffffff16151590565b1580610cd457504265ffffffffffff821610155b15610cfc576040516319ca5ebb60e01b815265ffffffffffff8216600482015260240161042d565b610d175f610d126002546001600160a01b031690565b610eca565b50610d225f83610e5d565b5050600180546001600160d01b031916905550565b5f82815260208190526040902060010154610d5181610a4f565b610a898383610eca565b610a635f80610fef565b610d6f82826107c3565b6103a65760405163e2517d3f60e01b81526001600160a01b03821660048201526024810183905260440161042d565b600254600160d01b900465ffffffffffff168015610e20574265ffffffffffff82161015610df757600254600180546001600160d01b0316600160a01b90920465ffffffffffff16600160d01b02919091179055610e20565b6040517f2b1fa2edafe6f7b9e97c1a9e0c3660e645beb2dcaa2d45bdbf9beaf5472e1ec5905f90a15b50600280546001600160a01b0316600160a01b65ffffffffffff948516026001600160d01b031617600160d01b9290931691909102919091179055565b5f82610eb9575f610e766002546001600160a01b031690565b6001600160a01b031614610e9d57604051631fe1e13d60e11b815260040160405180910390fd5b600280546001600160a01b0319166001600160a01b0384161790555b610ec3838361110a565b9392505050565b5f82158015610ee657506002546001600160a01b038381169116145b15610efc57600280546001600160a01b03191690555b610ec38383611199565b604080516001600160a01b038416602482015260448082018490528251808303909101815260649091019091526020810180516001600160e01b031663095ea7b360e01b179052610f578482611202565b610a8957604080516001600160a01b03851660248201525f6044808301919091528251808303909101815260649091019091526020810180516001600160e01b031663095ea7b360e01b179052610faf90859061129f565b610a89848261129f565b5f65ffffffffffff821115610feb576040516306dfcc6560e41b8152603060048201526024810183905260440161042d565b5090565b5f610ff86109c0565b6001805465ffffffffffff8616600160a01b026001600160d01b03199091166001600160a01b03881617179055915061103a90508165ffffffffffff16151590565b15610ac2576040517f8886ebfc4259abdbc16601dd8fb5678e54878f47b3c34836cfc51154a9605109905f90a1505050565b5f80611076610923565b90508065ffffffffffff168365ffffffffffff161161109e576110998382611965565b610ec3565b610ec365ffffffffffff841662069780611300565b6060826110c35761109982611315565b81511580156110da57506001600160a01b0384163b155b1561110357604051639996b31560e01b81526001600160a01b038516600482015260240161042d565b5092915050565b5f61111583836107c3565b611192575f838152602081815260408083206001600160a01b03861684529091529020805460ff1916600117905561114a3390565b6001600160a01b0316826001600160a01b0316847f2f8788117e7eff1d82e926ec794901d17c78024a50270940304540a733656f0d60405160405180910390a4506001610363565b505f610363565b5f6111a483836107c3565b15611192575f838152602081815260408083206001600160a01b0386168085529252808320805460ff1916905551339286917ff6391f5c32d9c69d2a47ea670b442974b53935d1edc7fd64eb21e047a839171b9190a4506001610363565b5f805f846001600160a01b03168460405161121d919061195a565b5f604051808303815f865af19150503d805f8114611256576040519150601f19603f3d011682016040523d82523d5f602084013e61125b565b606091505b50915091508180156112855750805115806112855750808060200190518101906112859190611984565b8015610c985750505050506001600160a01b03163b151590565b5f6112b36001600160a01b0384168361133e565b905080515f141580156112d75750808060200190518101906112d59190611984565b155b15610ac257604051635274afe760e01b81526001600160a01b038416600482015260240161042d565b5f81831061130e5781610ec3565b5090919050565b8051156113255780518082602001fd5b604051630a12f52160e11b815260040160405180910390fd5b6060610ec383835f845f80856001600160a01b03168486604051611362919061195a565b5f6040518083038185875af1925050503d805f811461139c576040519150601f19603f3d011682016040523d82523d5f602084013e6113a1565b606091505b50915091506113b18683836110b3565b9695505050505050565b5f602082840312156113cb575f80fd5b81356001600160e01b031981168114610ec3575f80fd5b5f602082840312156113f2575f80fd5b5035919050565b80356001600160a01b038116811461140f575f80fd5b919050565b5f8060408385031215611425575f80fd5b82359150611435602084016113f9565b90509250929050565b5f610140828403121561144f575f80fd5b50919050565b5f805f805f806101e0878903121561146b575f80fd5b611474876113f9565b9550611482602088016113f9565b9450611491886040890161143e565b935061018087013592506101a087013591506101c087013590509295509295509295565b5f602082840312156114c5575f80fd5b610ec3826113f9565b5f602082840312156114de575f80fd5b813565ffffffffffff81168114610ec3575f80fd5b5f805f805f806101c08789031215611509575f80fd5b611512876113f9565b9550611521886020890161143e565b945061153061016088016113f9565b935061018087013592506101a087013567ffffffffffffffff80821115611555575f80fd5b818901915089601f830112611568575f80fd5b813581811115611576575f80fd5b8a6020828501011115611587575f80fd5b6020830194508093505050509295509295509295565b5f80602083850312156115ae575f80fd5b823567ffffffffffffffff808211156115c5575f80fd5b818501915085601f8301126115d8575f80fd5b8135818111156115e6575f80fd5b8660208260051b85010111156115fa575f80fd5b60209290920196919550909350505050565b5f602080830181845280855180835260408601915060408160051b87010192508387015f5b8281101561167657878503603f1901845281518051808752808883018989015e5f878201890152601f01601f1916909501860194509285019290850190600101611631565b5092979650505050505050565b801515811461037b575f80fd5b803561140f81611683565b5f602082840312156116ab575f80fd5b8135610ec381611683565b803567ffffffffffffffff8116811461140f575f80fd5b80356002811061140f575f80fd5b634e487b7160e01b5f52602160045260245ffd5b600281106116ff576116ff6116db565b9052565b80356004811061140f575f80fd5b600481106116ff576116ff6116db565b61173c8261172e836116b6565b67ffffffffffffffff169052565b611748602082016113f9565b6001600160a01b03166020830152611762604082016113f9565b6001600160a01b0316604083015261177c606082016113f9565b6001600160a01b0316606083015261179660808201611690565b151560808301526117a960a082016116cd565b6117b660a08401826116ef565b5060c081013560c083015260e081013560e08301526101008082013581840152506101206117e5818301611703565b610a8982850182611711565b6101a081016118008287611721565b84610140830152836101608301528261018083015295945050505050565b5f6020828403121561182e575f80fd5b5051919050565b5f6101606118438387611721565b806101408401528381840152506101808385828501375f838501820152601f909301601f19169091019091019392505050565b634e487b7160e01b5f52601160045260245ffd5b634e487b7160e01b5f52604160045260245ffd5b634e487b7160e01b5f52603260045260245ffd5b5f808335601e198436030181126118c7575f80fd5b83018035915067ffffffffffffffff8211156118e1575f80fd5b6020019150368190038213156118f5575f80fd5b9250929050565b5f81518060208401855e5f93019283525090919050565b828482375f8382015f81526113b181856118fc565b8082018082111561036357610363611876565b65ffffffffffff81811683821601908082111561110357611103611876565b5f610ec382846118fc565b65ffffffffffff82811682821603908082111561110357611103611876565b5f60208284031215611994575f80fd5b8151610ec38161168356fea26469706673582212206e56a561eeeee9eb8728b7c442a5cca41a9de533ee675491c70eaed5eb2b792564736f6c63430008190033","linkReferences":{}},"methodIdentifiers":{"DEFAULT_ADMIN_ROLE()":"a217fddf","OPERATOR_ROLE()":"f5b541a6","acceptDefaultAdminTransfer()":"cefc1429","beginDefaultAdminTransfer(address)":"634e93da","cancelBuyOrder(address,(uint64,address,address,address,bool,uint8,uint256,uint256,uint256,uint8),address,uint256,string)":"73f4c426","cancelDefaultAdminTransfer()":"d602b9fd","changeDefaultAdminDelay(uint48)":"649a5ec7","defaultAdmin()":"84ef8ffc","defaultAdminDelay()":"cc8463c8","defaultAdminDelayIncreaseWait()":"022d63fb","fillOrder(address,address,(uint64,address,address,address,bool,uint8,uint256,uint256,uint256,uint8),uint256,uint256,uint256)":"549de060","getRoleAdmin(bytes32)":"248a9ca3","grantRole(bytes32,address)":"2f2ff15d","hasRole(bytes32,address)":"91d14854","multicall(bytes[])":"ac9650d8","owner()":"8da5cb5b","pendingDefaultAdmin()":"cf6eefb7","pendingDefaultAdminDelay()":"a1eda53c","renounceRole(bytes32,address)":"36568abe","revokeRole(bytes32,address)":"d547741f","rollbackDefaultAdminDelay()":"0aa6220b","supportsInterface(bytes4)":"01ffc9a7"},"id":18}