{
  "abi": [
    {
      "inputs": [
        {
          "internalType": "address",
          "name": "_link",
          "type": "address"
        }
      ],
      "stateMutability": "nonpayable",
      "type": "constructor"
    },
    {
      "anonymous": false,
      "inputs": [
        {
          "indexed": true,
          "internalType": "bytes32",
          "name": "requestId",
          "type": "bytes32"
        }
      ],
      "name": "CancelOracleRequest",
      "type": "event"
    },
    {
      "anonymous": false,
      "inputs": [
        {
          "indexed": true,
          "internalType": "bytes32",
          "name": "specId",
          "type": "bytes32"
        },
        {
          "indexed": false,
          "internalType": "address",
          "name": "requester",
          "type": "address"
        },
        {
          "indexed": false,
          "internalType": "bytes32",
          "name": "requestId",
          "type": "bytes32"
        },
        {
          "indexed": false,
          "internalType": "uint256",
          "name": "payment",
          "type": "uint256"
        },
        {
          "indexed": false,
          "internalType": "address",
          "name": "callbackAddr",
          "type": "address"
        },
        {
          "indexed": false,
          "internalType": "bytes4",
          "name": "callbackFunctionId",
          "type": "bytes4"
        },
        {
          "indexed": false,
          "internalType": "uint256",
          "name": "cancelExpiration",
          "type": "uint256"
        },
        {
          "indexed": false,
          "internalType": "uint256",
          "name": "dataVersion",
          "type": "uint256"
        },
        {
          "indexed": false,
          "internalType": "bytes",
          "name": "data",
          "type": "bytes"
        }
      ],
      "name": "OracleRequest",
      "type": "event"
    },
    {
      "inputs": [],
      "name": "EXPIRY_TIME",
      "outputs": [
        {
          "internalType": "uint256",
          "name": "",
          "type": "uint256"
        }
      ],
      "stateMutability": "view",
      "type": "function"
    },
    {
      "inputs": [
        {
          "internalType": "bytes32",
          "name": "_requestId",
          "type": "bytes32"
        },
        {
          "internalType": "uint256",
          "name": "_payment",
          "type": "uint256"
        },
        {
          "internalType": "bytes4",
          "name": "",
          "type": "bytes4"
        },
        {
          "internalType": "uint256",
          "name": "_expiration",
          "type": "uint256"
        }
      ],
      "name": "cancelOracleRequest",
      "outputs": [],
      "stateMutability": "nonpayable",
      "type": "function"
    },
    {
      "inputs": [
        {
          "internalType": "int256[]",
          "name": "intArray",
          "type": "int256[]"
        }
      ],
      "name": "convertIntToBytes32Array",
      "outputs": [
        {
          "internalType": "bytes32[]",
          "name": "",
          "type": "bytes32[]"
        }
      ],
      "stateMutability": "pure",
      "type": "function"
    },
    {
      "inputs": [
        {
          "internalType": "string[]",
          "name": "stringArray",
          "type": "string[]"
        }
      ],
      "name": "convertStringToBytes32Array",
      "outputs": [
        {
          "internalType": "bytes32[]",
          "name": "",
          "type": "bytes32[]"
        }
      ],
      "stateMutability": "pure",
      "type": "function"
    },
    {
      "inputs": [
        {
          "internalType": "uint256",
          "name": "value",
          "type": "uint256"
        }
      ],
      "name": "convertToBytes",
      "outputs": [
        {
          "internalType": "bytes",
          "name": "",
          "type": "bytes"
        }
      ],
      "stateMutability": "pure",
      "type": "function"
    },
    {
      "inputs": [
        {
          "internalType": "uint256[]",
          "name": "uintArray",
          "type": "uint256[]"
        }
      ],
      "name": "convertUintToBytes32",
      "outputs": [
        {
          "internalType": "bytes32[]",
          "name": "",
          "type": "bytes32[]"
        }
      ],
      "stateMutability": "pure",
      "type": "function"
    },
    {
      "inputs": [
        {
          "internalType": "bytes32",
          "name": "_requestId",
          "type": "bytes32"
        },
        {
          "internalType": "address[]",
          "name": "_tokens",
          "type": "address[]"
        },
        {
          "internalType": "uint256[]",
          "name": "_marketCapShares",
          "type": "uint256[]"
        }
      ],
      "name": "fulfillOracleFundingRateRequest",
      "outputs": [
        {
          "internalType": "bool",
          "name": "",
          "type": "bool"
        }
      ],
      "stateMutability": "nonpayable",
      "type": "function"
    },
    {
      "inputs": [
        {
          "internalType": "bytes32",
          "name": "_requestId",
          "type": "bytes32"
        },
        {
          "internalType": "bytes32",
          "name": "_data",
          "type": "bytes32"
        }
      ],
      "name": "fulfillOracleOjectRequest",
      "outputs": [
        {
          "internalType": "bool",
          "name": "",
          "type": "bool"
        }
      ],
      "stateMutability": "nonpayable",
      "type": "function"
    },
    {
      "inputs": [
        {
          "internalType": "bytes32",
          "name": "_requestId",
          "type": "bytes32"
        },
        {
          "internalType": "string",
          "name": "_data",
          "type": "string"
        }
      ],
      "name": "fulfillOracleStatusRequest",
      "outputs": [
        {
          "internalType": "bool",
          "name": "",
          "type": "bool"
        }
      ],
      "stateMutability": "nonpayable",
      "type": "function"
    },
    {
      "inputs": [],
      "name": "getChainlinkToken",
      "outputs": [
        {
          "internalType": "address",
          "name": "",
          "type": "address"
        }
      ],
      "stateMutability": "view",
      "type": "function"
    },
    {
      "inputs": [
        {
          "internalType": "address",
          "name": "_sender",
          "type": "address"
        },
        {
          "internalType": "uint256",
          "name": "_amount",
          "type": "uint256"
        },
        {
          "internalType": "bytes",
          "name": "_data",
          "type": "bytes"
        }
      ],
      "name": "onTokenTransfer",
      "outputs": [],
      "stateMutability": "nonpayable",
      "type": "function"
    },
    {
      "inputs": [
        {
          "internalType": "address",
          "name": "_sender",
          "type": "address"
        },
        {
          "internalType": "uint256",
          "name": "_payment",
          "type": "uint256"
        },
        {
          "internalType": "bytes32",
          "name": "_specId",
          "type": "bytes32"
        },
        {
          "internalType": "address",
          "name": "_callbackAddress",
          "type": "address"
        },
        {
          "internalType": "bytes4",
          "name": "_callbackFunctionId",
          "type": "bytes4"
        },
        {
          "internalType": "uint256",
          "name": "_nonce",
          "type": "uint256"
        },
        {
          "internalType": "uint256",
          "name": "_dataVersion",
          "type": "uint256"
        },
        {
          "internalType": "bytes",
          "name": "_data",
          "type": "bytes"
        }
      ],
      "name": "oracleRequest",
      "outputs": [],
      "stateMutability": "nonpayable",
      "type": "function"
    },
    {
      "inputs": [
        {
          "internalType": "uint256",
          "name": "myUint",
          "type": "uint256"
        }
      ],
      "name": "uintToBytes32",
      "outputs": [
        {
          "internalType": "bytes32",
          "name": "myBytes32",
          "type": "bytes32"
        }
      ],
      "stateMutability": "pure",
      "type": "function"
    }
  ],
  "bytecode": {
    "object": "0x6080604052348015600f57600080fd5b50604051611b2d380380611b2d833981016040819052602c916050565b600080546001600160a01b0319166001600160a01b0392909216919091179055607e565b600060208284031215606157600080fd5b81516001600160a01b0381168114607757600080fd5b9392505050565b611aa08061008d6000396000f3fe608060405234801561001057600080fd5b50600436106100cf5760003560e01c80636ee4d5531161008c578063a4c0ed3611610066578063a4c0ed36146101aa578063c5e639ca146101bd578063e030ba66146101e0578063f00e8e35146101f357600080fd5b80636ee4d55314610173578063715d342f14610186578063886d3db91461019957600080fd5b8063165d35e1146100d45780633be2c1d8146100f45780634042994614610114578063466703c5146101295780634b602282146101495780635fdb23ca14610160575b600080fd5b6000546040516001600160a01b0390911681526020015b60405180910390f35b6101076101023660046111d6565b610206565b6040516100eb9190611212565b6101276101223660046112d2565b6103ae565b005b61013c610137366004611370565b6105f1565b6040516100eb91906113ad565b61015261012c81565b6040519081526020016100eb565b61010761016e366004611437565b61061f565b6101276101813660046114fc565b6106e3565b610107610194366004611539565b610851565b6101526101a7366004611370565b90565b6101276101b83660046115c9565b610969565b6101d06101cb366004611633565b610b41565b60405190151581526020016100eb565b6101d06101ee36600461167e565b610ca7565b6101d06102013660046116a0565b610e0b565b8051606090806102315760405162461bcd60e51b815260040161022890611760565b60405180910390fd5b6000602061024083601f61179e565b61024a91906117c7565b90506000816001600160401b03811115610266576102666110fe565b60405190808252806020026020018201604052801561028f578160200160208202803683370190505b50905060005b828110156103a55760006102aa8260206117db565b905060006102b982602061179e565b9050858111156102c65750845b60006102d283836117f2565b6001600160401b038111156102e9576102e96110fe565b604051908082528060200260200182016040528015610312578160200160208202803683370190505b509050825b828110156103695789818151811061033157610331611805565b602002602001015182858361034691906117f2565b8151811061035657610356611805565b6020908102919091010152600101610317565b50600061037582611010565b90508086868151811061038a5761038a611805565b60209081029190910101525050600190920191506102959050565b50949350505050565b6000546001600160a01b031633146103fe5760405162461bcd60e51b815260206004820152601360248201527226bab9ba103ab9b2902624a725903a37b5b2b760691b6044820152606401610228565b60005486906001600160a01b039081169082160361045e5760405162461bcd60e51b815260206004820152601760248201527f43616e6e6f742063616c6c6261636b20746f204c494e4b0000000000000000006044820152606401610228565b6040516bffffffffffffffffffffffff1960608c901b1660208201526034810186905260009060540160408051601f198184030181529181528151602092830120600081815260019093529120549091506001600160a01b0316156104fc5760405162461bcd60e51b8152602060048201526014602482015273135d5cdd081d5cd94818481d5b9a5c5d5948125160621b6044820152606401610228565b600061050a4261012c611096565b905060405180604001604052808a6001600160a01b03168152602001896001600160e01b0319168152506001600084815260200190815260200160002060008201518160000160006101000a8154816001600160a01b0302191690836001600160a01b0316021790555060208201518160000160146101000a81548163ffffffff021916908360e01c0217905550905050897fd8d7ecc4800d25fa53ce0372f13a416d98907a7ef3d8d3bdd79cf4fe75529c658d848e8d8d878d8d8d6040516105db99989796959493929190611844565b60405180910390a2505050505050505050505050565b606060008260405160200161060891815260200190565b60408051601f198184030181529190529392505050565b8051606090806106415760405162461bcd60e51b815260040161022890611760565b6000816001600160401b0381111561065b5761065b6110fe565b604051908082528060200260200182016040528015610684578160200160208202803683370190505b50905060005b828110156106db576106b68582815181106106a7576106a7611805565b60200260200101516020015190565b8282815181106106c8576106c8611805565b602090810291909101015260010161068a565b509392505050565b6000848152600160205260409020546001600160a01b031661073e5760405162461bcd60e51b8152602060048201526014602482015273135d5cdd081d5cd94818481d5b9a5c5d5948125160621b6044820152606401610228565b428111156107875760405162461bcd60e51b815260206004820152601660248201527514995c5d595cdd081a5cc81b9bdd08195e1c1a5c995960521b6044820152606401610228565b60008481526001602052604080822080546001600160c01b03191690555185917fa7842b9ec549398102c0d91b1b9919b2f20558aefdadf57528a95c6cd3292e9391a260005460405163a9059cbb60e01b8152336004820152602481018590526001600160a01b039091169063a9059cbb906044016020604051808303816000875af115801561081b573d6000803e3d6000fd5b505050506040513d601f19601f8201168201806040525081019061083f91906118ae565b61084b5761084b6118d0565b50505050565b606060008260405160200161086691906118e6565b60408051601f198184030181529190528351909150806108985760405162461bcd60e51b815260040161022890611760565b602082516108a6919061191c565b156108ea5760405162461bcd60e51b8152602060048201526014602482015273092dcecc2d8d2c840c2e4e4c2f240d8cadccee8d60631b6044820152606401610228565b6000816001600160401b03811115610904576109046110fe565b60405190808252806020026020018201604052801561092d578160200160208202803683370190505b50905060005b828110156103a55760208082028501015182828151811061095657610956611805565b6020908102919091010152600101610933565b6000546001600160a01b031633146109b95760405162461bcd60e51b815260206004820152601360248201527226bab9ba103ab9b2902624a725903a37b5b2b760691b6044820152606401610228565b806109c6600260206117db565b6109d190600461179e565b81511015610a1a5760405162461bcd60e51b8152602060048201526016602482015275092dcecc2d8d2c840e4cae2eacae6e840d8cadccee8d60531b6044820152606401610228565b602082015182906001600160e01b031981166320214ca360e11b14610a815760405162461bcd60e51b815260206004820152601e60248201527f4d757374207573652077686974656c69737465642066756e6374696f6e7300006044820152606401610228565b8560248501528460448501526000306001600160a01b031685604051610aa79190611930565b600060405180830381855af49150503d8060008114610ae2576040519150601f19603f3d011682016040523d82523d6000602084013e610ae7565b606091505b5050905080610b385760405162461bcd60e51b815260206004820152601860248201527f556e61626c6520746f20637265617465207265717565737400000000000000006044820152606401610228565b50505050505050565b60008381526001602052604081205484906001600160a01b0316610b775760405162461bcd60e51b81526004016102289061194c565b6000858152600160208181526040808420815180830190925280546001600160a01b03811683526001600160e01b0319600160a01b820460e01b1683850152948a9052929091526001600160c01b0319909216905562061a805a1015610bef5760405162461bcd60e51b815260040161022890611983565b600081600001516001600160a01b03168260200151888888604051602401610c19939291906119b8565b60408051601f198184030181529181526020820180516001600160e01b03166001600160e01b0319909416939093179092529051610c579190611930565b6000604051808303816000865af19150503d8060008114610c94576040519150601f19603f3d011682016040523d82523d6000602084013e610c99565b606091505b509098975050505050505050565b60008281526001602052604081205483906001600160a01b0316610cdd5760405162461bcd60e51b81526004016102289061194c565b6000848152600160208181526040808420815180830190925280546001600160a01b03811683526001600160e01b0319600160a01b820460e01b168385015294899052929091526001600160c01b0319909216905562061a805a1015610d555760405162461bcd60e51b815260040161022890611983565b8051602082015160405160248101889052604481018790526000926001600160a01b0316919060640160408051601f198184030181529181526020820180516001600160e01b03166001600160e01b0319909416939093179092529051610dbc9190611930565b6000604051808303816000865af19150503d8060008114610df9576040519150601f19603f3d011682016040523d82523d6000602084013e610dfe565b606091505b5090979650505050505050565b60008381526001602052604081205484906001600160a01b0316610e415760405162461bcd60e51b81526004016102289061194c565b6000858152600160208181526040808420815180830190925280546001600160a01b03811683526001600160e01b0319600160a01b820460e01b1683850152948a9052929091526001600160c01b0319909216905562061a805a1015610eb95760405162461bcd60e51b815260040161022890611983565b60408051600180825281830190925260009160208083019080368337019050509050600081600081518110610ef057610ef0611805565b6001600160a01b03929092166020928302919091019091015260408051600180825281830190925260009181602001602082028036833701905050905068056bc75e2d6310000081600081518110610f4a57610f4a611805565b602002602001018181525050600083600001516001600160a01b031684602001518a8a8a604051602401610f80939291906119db565b60408051601f198184030181529181526020820180516001600160e01b03166001600160e01b0319909416939093179092529051610fbe9190611930565b6000604051808303816000865af19150503d8060008114610ffb576040519150601f19603f3d011682016040523d82523d6000602084013e611000565b606091505b50909a9950505050505050505050565b6000808251602061102191906117db565b6001600160401b03811115611038576110386110fe565b6040519080825280601f01601f191660200182016040528015611062576020820181803683370190505b50905060005b835181101561108b57602081810285810182015190840190910152600101611068565b506020015192915050565b6000806110a3838561179e565b9050838110156110f55760405162461bcd60e51b815260206004820152601b60248201527f536166654d6174683a206164646974696f6e206f766572666c6f7700000000006044820152606401610228565b90505b92915050565b634e487b7160e01b600052604160045260246000fd5b604051601f8201601f191681016001600160401b038111828210171561113c5761113c6110fe565b604052919050565b60006001600160401b0382111561115d5761115d6110fe565b5060051b60200190565b600082601f83011261117857600080fd5b8135602061118d61118883611144565b611114565b8083825260208201915060208460051b8701019350868411156111af57600080fd5b602086015b848110156111cb57803583529183019183016111b4565b509695505050505050565b6000602082840312156111e857600080fd5b81356001600160401b038111156111fe57600080fd5b61120a84828501611167565b949350505050565b6020808252825182820181905260009190848201906040850190845b8181101561124a5783518352928401929184019160010161122e565b50909695505050505050565b80356001600160a01b038116811461126d57600080fd5b919050565b80356001600160e01b03198116811461126d57600080fd5b60008083601f84011261129c57600080fd5b5081356001600160401b038111156112b357600080fd5b6020830191508360208285010111156112cb57600080fd5b9250929050565b60008060008060008060008060006101008a8c0312156112f157600080fd5b6112fa8a611256565b985060208a0135975060408a0135965061131660608b01611256565b955061132460808b01611272565b945060a08a0135935060c08a0135925060e08a01356001600160401b0381111561134d57600080fd5b6113598c828d0161128a565b915080935050809150509295985092959850929598565b60006020828403121561138257600080fd5b5035919050565b60005b838110156113a457818101518382015260200161138c565b50506000910152565b60208152600082518060208401526113cc816040850160208701611389565b601f01601f19169190910160400192915050565b60006001600160401b038311156113f9576113f96110fe565b61140c601f8401601f1916602001611114565b905082815283838301111561142057600080fd5b828260208301376000602084830101529392505050565b6000602080838503121561144a57600080fd5b82356001600160401b038082111561146157600080fd5b818501915085601f83011261147557600080fd5b813561148361118882611144565b81815260059190911b830184019084810190888311156114a257600080fd5b8585015b838110156114ef578035858111156114be5760008081fd5b8601603f81018b136114d05760008081fd5b6114e18b89830135604084016113e0565b8452509186019186016114a6565b5098975050505050505050565b6000806000806080858703121561151257600080fd5b843593506020850135925061152960408601611272565b9396929550929360600135925050565b6000602080838503121561154c57600080fd5b82356001600160401b0381111561156257600080fd5b8301601f8101851361157357600080fd5b803561158161118882611144565b81815260059190911b820183019083810190878311156115a057600080fd5b928401925b828410156115be578335825292840192908401906115a5565b979650505050505050565b6000806000606084860312156115de57600080fd5b6115e784611256565b92506020840135915060408401356001600160401b0381111561160957600080fd5b8401601f8101861361161a57600080fd5b611629868235602084016113e0565b9150509250925092565b60008060006040848603121561164857600080fd5b8335925060208401356001600160401b0381111561166557600080fd5b6116718682870161128a565b9497909650939450505050565b6000806040838503121561169157600080fd5b50508035926020909101359150565b6000806000606084860312156116b557600080fd5b833592506020808501356001600160401b03808211156116d457600080fd5b818701915087601f8301126116e857600080fd5b81356116f661118882611144565b81815260059190911b8301840190848101908a83111561171557600080fd5b938501935b8285101561173a5761172b85611256565b8252938501939085019061171a565b96505050604087013592508083111561175257600080fd5b505061162986828701611167565b6020808252600e908201526d417272617920697320656d70747960901b604082015260600190565b634e487b7160e01b600052601160045260246000fd5b808201808211156110f8576110f8611788565b634e487b7160e01b600052601260045260246000fd5b6000826117d6576117d66117b1565b500490565b80820281158282048414176110f8576110f8611788565b818103818111156110f8576110f8611788565b634e487b7160e01b600052603260045260246000fd5b81835281816020850137506000828201602090810191909152601f909101601f19169091010190565b6001600160a01b038a81168252602082018a905260408201899052871660608201526001600160e01b03198616608082015260a0810185905260c0810184905261010060e0820181905260009061189e838201858761181b565b9c9b505050505050505050505050565b6000602082840312156118c057600080fd5b815180151581146110f557600080fd5b634e487b7160e01b600052600160045260246000fd5b815160009082906020808601845b83811015611910578151855293820193908201906001016118f4565b50929695505050505050565b60008261192b5761192b6117b1565b500690565b60008251611942818460208701611389565b9190910192915050565b6020808252601b908201527f4d757374206861766520612076616c6964207265717565737449640000000000604082015260600190565b6020808252818101527f4d7573742070726f7669646520636f6e73756d657220656e6f75676820676173604082015260600190565b8381526040602082015260006119d260408301848661181b565b95945050505050565b6000606082018583526020606081850152818651808452608086019150828801935060005b81811015611a255784516001600160a01b031683529383019391830191600101611a00565b50508481036040860152855180825290820192508186019060005b81811015611a5c57825185529383019391830191600101611a40565b50929897505050505050505056fea2646970667358221220c59be5f43215121881e29aee793620d93b4cec5632b39ecfb9e6992f0dbbcd7f64736f6c63430008190033",
    "linkReferences": {}
  },
  "methodIdentifiers": {
    "EXPIRY_TIME()": "4b602282",
    "cancelOracleRequest(bytes32,uint256,bytes4,uint256)": "6ee4d553",
    "convertIntToBytes32Array(int256[])": "715d342f",
    "convertStringToBytes32Array(string[])": "5fdb23ca",
    "convertToBytes(uint256)": "466703c5",
    "convertUintToBytes32(uint256[])": "3be2c1d8",
    "fulfillOracleFundingRateRequest(bytes32,address[],uint256[])": "f00e8e35",
    "fulfillOracleOjectRequest(bytes32,bytes32)": "e030ba66",
    "fulfillOracleStatusRequest(bytes32,string)": "c5e639ca",
    "getChainlinkToken()": "165d35e1",
    "onTokenTransfer(address,uint256,bytes)": "a4c0ed36",
    "oracleRequest(address,uint256,bytes32,address,bytes4,uint256,uint256,bytes)": "40429946",
    "uintToBytes32(uint256)": "886d3db9"
  },
  "id": 25
}