{"abi":[{"type":"function","name":"fulfillRequest","inputs":[{"name":"_requester","type":"address","internalType":"address"},{"name":"_requestId","type":"bytes32","internalType":"bytes32"},{"name":"_data","type":"bytes","internalType":"bytes"}],"outputs":[{"name":"","type":"bool","internalType":"bool"}],"stateMutability":"nonpayable"},{"type":"function","name":"getRandomBytes32","inputs":[],"outputs":[{"name":"","type":"bytes32","internalType":"bytes32"}],"stateMutability":"view"},{"type":"function","name":"handleOracleFulfillment","inputs":[{"name":"requestId","type":"bytes32","internalType":"bytes32"},{"name":"response","type":"bytes","internalType":"bytes"},{"name":"err","type":"bytes","internalType":"bytes"}],"outputs":[],"stateMutability":"nonpayable"},{"type":"function","name":"sendRequest","inputs":[{"name":"subscriptionId","type":"uint64","internalType":"uint64"},{"name":"data","type":"bytes","internalType":"bytes"},{"name":"dataVersion","type":"uint16","internalType":"uint16"},{"name":"callbackGasLimit","type":"uint32","internalType":"uint32"},{"name":"donId","type":"bytes32","internalType":"bytes32"}],"outputs":[{"name":"","type":"bytes32","internalType":"bytes32"}],"stateMutability":"nonpayable"}],"bytecode":{"object":"0x6080604052348015600e575f80fd5b506104af8061001c5f395ff3fe608060405234801561000f575f80fd5b506004361061004a575f3560e01c80630ca761751461004e578063461d276214610063578063d51c4a9d14610089578063f5b0fe54146100ac575b5f80fd5b61006161005c36600461026d565b505050565b005b6100766100713660046102fe565b6100b4565b6040519081526020015b60405180910390f35b61009c6100973660046103ab565b6100c8565b6040519015158152602001610080565b61007661017c565b5f6100bd61017c565b979650505050505050565b5f60605f856001600160a01b0316630ca7617560e01b8686856040516024016100f39392919061042f565b60408051601f198184030181529181526020820180516001600160e01b03166001600160e01b03199094169390931790925290516101319190610463565b5f604051808303815f865af19150503d805f811461016a576040519150601f19603f3d011682016040523d82523d5f602084013e61016f565b606091505b5090979650505050505050565b5f4244336040516020016101b593929190928352602083019190915260601b6bffffffffffffffffffffffff1916604082015260540190565b60405160208183030381529060405280519060200120905090565b634e487b7160e01b5f52604160045260245ffd5b5f82601f8301126101f3575f80fd5b813567ffffffffffffffff8082111561020e5761020e6101d0565b604051601f8301601f19908116603f01168101908282118183101715610236576102366101d0565b8160405283815286602085880101111561024e575f80fd5b836020870160208301375f602085830101528094505050505092915050565b5f805f6060848603121561027f575f80fd5b83359250602084013567ffffffffffffffff8082111561029d575f80fd5b6102a9878388016101e4565b935060408601359150808211156102be575f80fd5b506102cb868287016101e4565b9150509250925092565b803561ffff811681146102e6575f80fd5b919050565b803563ffffffff811681146102e6575f80fd5b5f805f805f8060a08789031215610313575f80fd5b863567ffffffffffffffff808216821461032b575f80fd5b90965060208801359080821115610340575f80fd5b818901915089601f830112610353575f80fd5b813581811115610361575f80fd5b8a6020828501011115610372575f80fd5b60208301975080965050505061038a604088016102d5565b9250610398606088016102eb565b9150608087013590509295509295509295565b5f805f606084860312156103bd575f80fd5b83356001600160a01b03811681146103d3575f80fd5b925060208401359150604084013567ffffffffffffffff8111156103f5575f80fd5b6102cb868287016101e4565b5f81518084528060208401602086015e5f602082860101526020601f19601f83011685010191505092915050565b838152606060208201525f6104476060830185610401565b82810360408401526104598185610401565b9695505050505050565b5f82518060208501845e5f92019182525091905056fea264697066735822122067ae21e8cacd1a7330f9528cc1e76c07031ed40ff80c4763dd34f878dc83fb6764736f6c63430008190033","linkReferences":{}},"methodIdentifiers":{"fulfillRequest(address,bytes32,bytes)":"d51c4a9d","getRandomBytes32()":"f5b0fe54","handleOracleFulfillment(bytes32,bytes,bytes)":"0ca76175","sendRequest(uint64,bytes,uint16,uint32,bytes32)":"461d2762"},"id":33}