{"abi":[{"type":"constructor","inputs":[{"name":"_link","type":"address","internalType":"address"}],"stateMutability":"nonpayable"},{"type":"function","name":"EXPIRY_TIME","inputs":[],"outputs":[{"name":"","type":"uint256","internalType":"uint256"}],"stateMutability":"view"},{"type":"function","name":"cancelOracleRequest","inputs":[{"name":"_requestId","type":"bytes32","internalType":"bytes32"},{"name":"_payment","type":"uint256","internalType":"uint256"},{"name":"","type":"bytes4","internalType":"bytes4"},{"name":"_expiration","type":"uint256","internalType":"uint256"}],"outputs":[],"stateMutability":"nonpayable"},{"type":"function","name":"convertIntToBytes32Array","inputs":[{"name":"intArray","type":"int256[]","internalType":"int256[]"}],"outputs":[{"name":"","type":"bytes32[]","internalType":"bytes32[]"}],"stateMutability":"pure"},{"type":"function","name":"convertStringToBytes32Array","inputs":[{"name":"stringArray","type":"string[]","internalType":"string[]"}],"outputs":[{"name":"","type":"bytes32[]","internalType":"bytes32[]"}],"stateMutability":"pure"},{"type":"function","name":"convertToBytes","inputs":[{"name":"value","type":"uint256","internalType":"uint256"}],"outputs":[{"name":"","type":"bytes","internalType":"bytes"}],"stateMutability":"pure"},{"type":"function","name":"convertUintToBytes32","inputs":[{"name":"uintArray","type":"uint256[]","internalType":"uint256[]"}],"outputs":[{"name":"","type":"bytes32[]","internalType":"bytes32[]"}],"stateMutability":"pure"},{"type":"function","name":"fulfillOracleFundingRateRequest","inputs":[{"name":"_requestId","type":"bytes32","internalType":"bytes32"},{"name":"_tokens","type":"address[]","internalType":"address[]"},{"name":"_marketCapShares","type":"uint256[]","internalType":"uint256[]"}],"outputs":[{"name":"","type":"bool","internalType":"bool"}],"stateMutability":"nonpayable"},{"type":"function","name":"fulfillOracleOjectRequest","inputs":[{"name":"_requestId","type":"bytes32","internalType":"bytes32"},{"name":"_data","type":"bytes32","internalType":"bytes32"}],"outputs":[{"name":"","type":"bool","internalType":"bool"}],"stateMutability":"nonpayable"},{"type":"function","name":"fulfillOracleStatusRequest","inputs":[{"name":"_requestId","type":"bytes32","internalType":"bytes32"},{"name":"_data","type":"string","internalType":"string"}],"outputs":[{"name":"","type":"bool","internalType":"bool"}],"stateMutability":"nonpayable"},{"type":"function","name":"getChainlinkToken","inputs":[],"outputs":[{"name":"","type":"address","internalType":"address"}],"stateMutability":"view"},{"type":"function","name":"onTokenTransfer","inputs":[{"name":"_sender","type":"address","internalType":"address"},{"name":"_amount","type":"uint256","internalType":"uint256"},{"name":"_data","type":"bytes","internalType":"bytes"}],"outputs":[],"stateMutability":"nonpayable"},{"type":"function","name":"oracleRequest","inputs":[{"name":"_sender","type":"address","internalType":"address"},{"name":"_payment","type":"uint256","internalType":"uint256"},{"name":"_specId","type":"bytes32","internalType":"bytes32"},{"name":"_callbackAddress","type":"address","internalType":"address"},{"name":"_callbackFunctionId","type":"bytes4","internalType":"bytes4"},{"name":"_nonce","type":"uint256","internalType":"uint256"},{"name":"_dataVersion","type":"uint256","internalType":"uint256"},{"name":"_data","type":"bytes","internalType":"bytes"}],"outputs":[],"stateMutability":"nonpayable"},{"type":"function","name":"uintToBytes32","inputs":[{"name":"myUint","type":"uint256","internalType":"uint256"}],"outputs":[{"name":"myBytes32","type":"bytes32","internalType":"bytes32"}],"stateMutability":"pure"},{"type":"event","name":"CancelOracleRequest","inputs":[{"name":"requestId","type":"bytes32","indexed":true,"internalType":"bytes32"}],"anonymous":false},{"type":"event","name":"OracleRequest","inputs":[{"name":"specId","type":"bytes32","indexed":true,"internalType":"bytes32"},{"name":"requester","type":"address","indexed":false,"internalType":"address"},{"name":"requestId","type":"bytes32","indexed":false,"internalType":"bytes32"},{"name":"payment","type":"uint256","indexed":false,"internalType":"uint256"},{"name":"callbackAddr","type":"address","indexed":false,"internalType":"address"},{"name":"callbackFunctionId","type":"bytes4","indexed":false,"internalType":"bytes4"},{"name":"cancelExpiration","type":"uint256","indexed":false,"internalType":"uint256"},{"name":"dataVersion","type":"uint256","indexed":false,"internalType":"uint256"},{"name":"data","type":"bytes","indexed":false,"internalType":"bytes"}],"anonymous":false}],"bytecode":{"object":"0x608060405234801561001057600080fd5b50604051613509380380613509833981810160405281019061003291906100db565b806000806101000a81548173ffffffffffffffffffffffffffffffffffffffff021916908373ffffffffffffffffffffffffffffffffffffffff16021790555050610108565b600080fd5b600073ffffffffffffffffffffffffffffffffffffffff82169050919050565b60006100a88261007d565b9050919050565b6100b88161009d565b81146100c357600080fd5b50565b6000815190506100d5816100af565b92915050565b6000602082840312156100f1576100f0610078565b5b60006100ff848285016100c6565b91505092915050565b6133f2806101176000396000f3fe608060405234801561001057600080fd5b50600436106100cf5760003560e01c80636ee4d5531161008c578063a4c0ed3611610066578063a4c0ed3614610238578063c5e639ca14610254578063e030ba6614610284578063f00e8e35146102b4576100cf565b80636ee4d553146101bc578063715d342f146101d8578063886d3db914610208576100cf565b8063165d35e1146100d45780633be2c1d8146100f25780634042994614610122578063466703c51461013e5780634b6022821461016e5780635fdb23ca1461018c575b600080fd5b6100dc6102e4565b6040516100e99190611a6d565b60405180910390f35b61010c60048036038101906101079190611c2b565b61030d565b6040516101199190611d3c565b60405180910390f35b61013c60048036038101906101379190611e69565b6104fe565b005b61015860048036038101906101539190611f3f565b61080e565b6040516101659190611feb565b60405180910390f35b61017661083d565b604051610183919061201c565b60405180910390f35b6101a660048036038101906101a191906121cd565b610843565b6040516101b39190611d3c565b60405180910390f35b6101d660048036038101906101d19190612216565b610940565b005b6101f260048036038101906101ed9190612376565b610b5a565b6040516101ff9190611d3c565b60405180910390f35b610222600480360381019061021d9190611f3f565b610cb3565b60405161022f91906123ce565b60405180910390f35b610252600480360381019061024d919061248a565b610cc0565b005b61026e6004803603810190610269919061254f565b610ee4565b60405161027b91906125ca565b60405180910390f35b61029e600480360381019061029991906125e5565b6111e7565b6040516102ab91906125ca565b60405180910390f35b6102ce60048036038101906102c991906126e8565b6114e7565b6040516102db91906125ca565b60405180910390f35b60008060009054906101000a900473ffffffffffffffffffffffffffffffffffffffff16905090565b606060008251905060008111610358576040517f08c379a000000000000000000000000000000000000000000000000000000000815260040161034f906127d0565b60405180910390fd5b60006020601f83610369919061281f565b6103739190612882565b905060008167ffffffffffffffff81111561039157610390611ab2565b5b6040519080825280602002602001820160405280156103bf5781602001602082028036833780820191505090505b50905060005b828110156104f25760006020826103dc91906128b3565b905060006020826103ed919061281f565b9050858111156103fb578590505b6000828261040991906128f5565b67ffffffffffffffff81111561042257610421611ab2565b5b6040519080825280602002602001820160405280156104505781602001602082028036833780820191505090505b50905060008390505b828110156104b35789818151811061047457610473612929565b5b602002602001015182858361048991906128f5565b8151811061049a57610499612929565b5b6020026020010181815250508080600101915050610459565b5060006104bf82611902565b9050808686815181106104d5576104d4612929565b5b6020026020010181815250505050505080806001019150506103c5565b50809350505050919050565b6105066102e4565b73ffffffffffffffffffffffffffffffffffffffff163373ffffffffffffffffffffffffffffffffffffffff1614610573576040517f08c379a000000000000000000000000000000000000000000000000000000000815260040161056a906129a4565b60405180910390fd5b8560008054906101000a900473ffffffffffffffffffffffffffffffffffffffff1673ffffffffffffffffffffffffffffffffffffffff168173ffffffffffffffffffffffffffffffffffffffff1603610602576040517f08c379a00000000000000000000000000000000000000000000000000000000081526004016105f990612a10565b60405180910390fd5b60008a86604051602001610617929190612a99565b604051602081830303815290604052805190602001209050600073ffffffffffffffffffffffffffffffffffffffff166001600083815260200190815260200160002060000160009054906101000a900473ffffffffffffffffffffffffffffffffffffffff1673ffffffffffffffffffffffffffffffffffffffff16146106d4576040517f08c379a00000000000000000000000000000000000000000000000000000000081526004016106cb90612b11565b60405180910390fd5b60006106eb61012c426119a290919063ffffffff16565b905060405180604001604052808a73ffffffffffffffffffffffffffffffffffffffff168152602001897bffffffffffffffffffffffffffffffffffffffffffffffffffffffff19168152506001600084815260200190815260200160002060008201518160000160006101000a81548173ffffffffffffffffffffffffffffffffffffffff021916908373ffffffffffffffffffffffffffffffffffffffff16021790555060208201518160000160146101000a81548163ffffffff021916908360e01c0217905550905050897fd8d7ecc4800d25fa53ce0372f13a416d98907a7ef3d8d3bdd79cf4fe75529c658d848e8d8d878d8d8d6040516107f899989796959493929190612b6d565b60405180910390a2505050505050505050505050565b60606000826040516020016108239190612bf4565b604051602081830303815290604052905080915050919050565b61012c81565b60606000825190506000811161088e576040517f08c379a0000000000000000000000000000000000000000000000000000000008152600401610885906127d0565b60405180910390fd5b60008167ffffffffffffffff8111156108aa576108a9611ab2565b5b6040519080825280602002602001820160405280156108d85781602001602082028036833780820191505090505b50905060005b82811015610935576109098582815181106108fc576108fb612929565b5b6020026020010151611a00565b82828151811061091c5761091b612929565b5b60200260200101818152505080806001019150506108de565b508092505050919050565b600073ffffffffffffffffffffffffffffffffffffffff166001600086815260200190815260200160002060000160009054906101000a900473ffffffffffffffffffffffffffffffffffffffff1673ffffffffffffffffffffffffffffffffffffffff16036109e5576040517f08c379a00000000000000000000000000000000000000000000000000000000081526004016109dc90612b11565b60405180910390fd5b42811115610a28576040517f08c379a0000000000000000000000000000000000000000000000000000000008152600401610a1f90612c5b565b60405180910390fd5b60016000858152602001908152602001600020600080820160006101000a81549073ffffffffffffffffffffffffffffffffffffffff02191690556000820160146101000a81549063ffffffff02191690555050837fa7842b9ec549398102c0d91b1b9919b2f20558aefdadf57528a95c6cd3292e9360405160405180910390a260008054906101000a900473ffffffffffffffffffffffffffffffffffffffff1673ffffffffffffffffffffffffffffffffffffffff1663a9059cbb33856040518363ffffffff1660e01b8152600401610b04929190612c7b565b6020604051808303816000875af1158015610b23573d6000803e3d6000fd5b505050506040513d601f19601f82011682018060405250810190610b479190612cd0565b610b5457610b53612cfd565b5b50505050565b6060600082604051602001610b6f9190612de4565b604051602081830303815290604052905060008351905060008111610bc9576040517f08c379a0000000000000000000000000000000000000000000000000000000008152600401610bc0906127d0565b60405180910390fd5b600060208351610bd99190612dfb565b14610c19576040517f08c379a0000000000000000000000000000000000000000000000000000000008152600401610c1090612e78565b60405180910390fd5b60008167ffffffffffffffff811115610c3557610c34611ab2565b5b604051908082528060200260200182016040528015610c635781602001602082028036833780820191505090505b50905060005b82811015610ca757610c7b8482611a13565b828281518110610c8e57610c8d612929565b5b6020026020010181815250508080600101915050610c69565b50809350505050919050565b60008160001b9050919050565b610cc86102e4565b73ffffffffffffffffffffffffffffffffffffffff163373ffffffffffffffffffffffffffffffffffffffff1614610d35576040517f08c379a0000000000000000000000000000000000000000000000000000000008152600401610d2c906129a4565b60405180910390fd5b8060026020610d4491906128b3565b6004610d50919061281f565b81511015610d93576040517f08c379a0000000000000000000000000000000000000000000000000000000008152600401610d8a90612ee4565b60405180910390fd5b81600060208201519050634042994660e01b7bffffffffffffffffffffffffffffffffffffffffffffffffffffffff1916817bffffffffffffffffffffffffffffffffffffffffffffffffffffffff191614610e24576040517f08c379a0000000000000000000000000000000000000000000000000000000008152600401610e1b90612f50565b60405180910390fd5b85602485015284604485015260003073ffffffffffffffffffffffffffffffffffffffff1685604051610e579190612fac565b600060405180830381855af49150503d8060008114610e92576040519150601f19603f3d011682016040523d82523d6000602084013e610e97565b606091505b5050905080610edb576040517f08c379a0000000000000000000000000000000000000000000000000000000008152600401610ed29061300f565b60405180910390fd5b50505050505050565b600083600073ffffffffffffffffffffffffffffffffffffffff166001600083815260200190815260200160002060000160009054906101000a900473ffffffffffffffffffffffffffffffffffffffff1673ffffffffffffffffffffffffffffffffffffffff1603610f8c576040517f08c379a0000000000000000000000000000000000000000000000000000000008152600401610f839061307b565b60405180910390fd5b6000600160008781526020019081526020016000206040518060400160405290816000820160009054906101000a900473ffffffffffffffffffffffffffffffffffffffff1673ffffffffffffffffffffffffffffffffffffffff1673ffffffffffffffffffffffffffffffffffffffff1681526020016000820160149054906101000a900460e01b7bffffffffffffffffffffffffffffffffffffffffffffffffffffffff19167bffffffffffffffffffffffffffffffffffffffffffffffffffffffff191681525050905060016000878152602001908152602001600020600080820160006101000a81549073ffffffffffffffffffffffffffffffffffffffff02191690556000820160146101000a81549063ffffffff0219169055505062061a805a10156110f3576040517f08c379a00000000000000000000000000000000000000000000000000000000081526004016110ea906130e7565b60405180910390fd5b6000816000015173ffffffffffffffffffffffffffffffffffffffff16826020015188888860405160240161112a93929190613134565b604051602081830303815290604052907bffffffffffffffffffffffffffffffffffffffffffffffffffffffff19166020820180517bffffffffffffffffffffffffffffffffffffffffffffffffffffffff83818316178352505050506040516111949190612fac565b6000604051808303816000865af19150503d80600081146111d1576040519150601f19603f3d011682016040523d82523d6000602084013e6111d6565b606091505b505090508093505050509392505050565b600082600073ffffffffffffffffffffffffffffffffffffffff166001600083815260200190815260200160002060000160009054906101000a900473ffffffffffffffffffffffffffffffffffffffff1673ffffffffffffffffffffffffffffffffffffffff160361128f576040517f08c379a00000000000000000000000000000000000000000000000000000000081526004016112869061307b565b60405180910390fd5b6000600160008681526020019081526020016000206040518060400160405290816000820160009054906101000a900473ffffffffffffffffffffffffffffffffffffffff1673ffffffffffffffffffffffffffffffffffffffff1673ffffffffffffffffffffffffffffffffffffffff1681526020016000820160149054906101000a900460e01b7bffffffffffffffffffffffffffffffffffffffffffffffffffffffff19167bffffffffffffffffffffffffffffffffffffffffffffffffffffffff191681525050905060016000868152602001908152602001600020600080820160006101000a81549073ffffffffffffffffffffffffffffffffffffffff02191690556000820160146101000a81549063ffffffff0219169055505062061a805a10156113f6576040517f08c379a00000000000000000000000000000000000000000000000000000000081526004016113ed906130e7565b60405180910390fd5b6000816000015173ffffffffffffffffffffffffffffffffffffffff168260200151878760405160240161142b929190613166565b604051602081830303815290604052907bffffffffffffffffffffffffffffffffffffffffffffffffffffffff19166020820180517bffffffffffffffffffffffffffffffffffffffffffffffffffffffff83818316178352505050506040516114959190612fac565b6000604051808303816000865af19150503d80600081146114d2576040519150601f19603f3d011682016040523d82523d6000602084013e6114d7565b606091505b5050905080935050505092915050565b600083600073ffffffffffffffffffffffffffffffffffffffff166001600083815260200190815260200160002060000160009054906101000a900473ffffffffffffffffffffffffffffffffffffffff1673ffffffffffffffffffffffffffffffffffffffff160361158f576040517f08c379a00000000000000000000000000000000000000000000000000000000081526004016115869061307b565b60405180910390fd5b6000600160008781526020019081526020016000206040518060400160405290816000820160009054906101000a900473ffffffffffffffffffffffffffffffffffffffff1673ffffffffffffffffffffffffffffffffffffffff1673ffffffffffffffffffffffffffffffffffffffff1681526020016000820160149054906101000a900460e01b7bffffffffffffffffffffffffffffffffffffffffffffffffffffffff19167bffffffffffffffffffffffffffffffffffffffffffffffffffffffff191681525050905060016000878152602001908152602001600020600080820160006101000a81549073ffffffffffffffffffffffffffffffffffffffff02191690556000820160146101000a81549063ffffffff0219169055505062061a805a10156116f6576040517f08c379a00000000000000000000000000000000000000000000000000000000081526004016116ed906130e7565b60405180910390fd5b6000600167ffffffffffffffff81111561171357611712611ab2565b5b6040519080825280602002602001820160405280156117415781602001602082028036833780820191505090505b50905060008160008151811061175a57611759612929565b5b602002602001019073ffffffffffffffffffffffffffffffffffffffff16908173ffffffffffffffffffffffffffffffffffffffff16815250506000600167ffffffffffffffff8111156117b1576117b0611ab2565b5b6040519080825280602002602001820160405280156117df5781602001602082028036833780820191505090505b50905068056bc75e2d6310000081600081518110611800576117ff612929565b5b6020026020010181815250506000836000015173ffffffffffffffffffffffffffffffffffffffff1684602001518a8a8a6040516024016118439392919061330b565b604051602081830303815290604052907bffffffffffffffffffffffffffffffffffffffffffffffffffffffff19166020820180517bffffffffffffffffffffffffffffffffffffffffffffffffffffffff83818316178352505050506040516118ad9190612fac565b6000604051808303816000865af19150503d80600081146118ea576040519150601f19603f3d011682016040523d82523d6000602084013e6118ef565b606091505b5050905080955050505050509392505050565b6000806020835161191391906128b3565b67ffffffffffffffff81111561192c5761192b611ab2565b5b6040519080825280601f01601f19166020018201604052801561195e5781602001600182028036833780820191505090505b50905060005b835181101561198e5760208102602001840151602082026020018301528080600101915050611964565b506000602082015190508092505050919050565b60008082846119b1919061281f565b9050838110156119f6576040517f08c379a00000000000000000000000000000000000000000000000000000000081526004016119ed9061339c565b60405180910390fd5b8091505092915050565b6000806020830151905080915050919050565b6000806020830260200184015190508091505092915050565b600073ffffffffffffffffffffffffffffffffffffffff82169050919050565b6000611a5782611a2c565b9050919050565b611a6781611a4c565b82525050565b6000602082019050611a826000830184611a5e565b92915050565b6000604051905090565b600080fd5b600080fd5b600080fd5b6000601f19601f8301169050919050565b7f4e487b7100000000000000000000000000000000000000000000000000000000600052604160045260246000fd5b611aea82611aa1565b810181811067ffffffffffffffff82111715611b0957611b08611ab2565b5b80604052505050565b6000611b1c611a88565b9050611b288282611ae1565b919050565b600067ffffffffffffffff821115611b4857611b47611ab2565b5b602082029050602081019050919050565b600080fd5b6000819050919050565b611b7181611b5e565b8114611b7c57600080fd5b50565b600081359050611b8e81611b68565b92915050565b6000611ba7611ba284611b2d565b611b12565b90508083825260208201905060208402830185811115611bca57611bc9611b59565b5b835b81811015611bf35780611bdf8882611b7f565b845260208401935050602081019050611bcc565b5050509392505050565b600082601f830112611c1257611c11611a9c565b5b8135611c22848260208601611b94565b91505092915050565b600060208284031215611c4157611c40611a92565b5b600082013567ffffffffffffffff811115611c5f57611c5e611a97565b5b611c6b84828501611bfd565b91505092915050565b600081519050919050565b600082825260208201905092915050565b6000819050602082019050919050565b6000819050919050565b611cb381611ca0565b82525050565b6000611cc58383611caa565b60208301905092915050565b6000602082019050919050565b6000611ce982611c74565b611cf38185611c7f565b9350611cfe83611c90565b8060005b83811015611d2f578151611d168882611cb9565b9750611d2183611cd1565b925050600181019050611d02565b5085935050505092915050565b60006020820190508181036000830152611d568184611cde565b905092915050565b611d6781611a4c565b8114611d7257600080fd5b50565b600081359050611d8481611d5e565b92915050565b611d9381611ca0565b8114611d9e57600080fd5b50565b600081359050611db081611d8a565b92915050565b60007fffffffff0000000000000000000000000000000000000000000000000000000082169050919050565b611deb81611db6565b8114611df657600080fd5b50565b600081359050611e0881611de2565b92915050565b600080fd5b60008083601f840112611e2957611e28611a9c565b5b8235905067ffffffffffffffff811115611e4657611e45611e0e565b5b602083019150836001820283011115611e6257611e61611b59565b5b9250929050565b60008060008060008060008060006101008a8c031215611e8c57611e8b611a92565b5b6000611e9a8c828d01611d75565b9950506020611eab8c828d01611b7f565b9850506040611ebc8c828d01611da1565b9750506060611ecd8c828d01611d75565b9650506080611ede8c828d01611df9565b95505060a0611eef8c828d01611b7f565b94505060c0611f008c828d01611b7f565b93505060e08a013567ffffffffffffffff811115611f2157611f20611a97565b5b611f2d8c828d01611e13565b92509250509295985092959850929598565b600060208284031215611f5557611f54611a92565b5b6000611f6384828501611b7f565b91505092915050565b600081519050919050565b600082825260208201905092915050565b60005b83811015611fa6578082015181840152602081019050611f8b565b60008484015250505050565b6000611fbd82611f6c565b611fc78185611f77565b9350611fd7818560208601611f88565b611fe081611aa1565b840191505092915050565b600060208201905081810360008301526120058184611fb2565b905092915050565b61201681611b5e565b82525050565b6000602082019050612031600083018461200d565b92915050565b600067ffffffffffffffff82111561205257612051611ab2565b5b602082029050602081019050919050565b600080fd5b600067ffffffffffffffff82111561208357612082611ab2565b5b61208c82611aa1565b9050602081019050919050565b82818337600083830152505050565b60006120bb6120b684612068565b611b12565b9050828152602081018484840111156120d7576120d6612063565b5b6120e2848285612099565b509392505050565b600082601f8301126120ff576120fe611a9c565b5b813561210f8482602086016120a8565b91505092915050565b600061212b61212684612037565b611b12565b9050808382526020820190506020840283018581111561214e5761214d611b59565b5b835b8181101561219557803567ffffffffffffffff81111561217357612172611a9c565b5b80860161218089826120ea565b85526020850194505050602081019050612150565b5050509392505050565b600082601f8301126121b4576121b3611a9c565b5b81356121c4848260208601612118565b91505092915050565b6000602082840312156121e3576121e2611a92565b5b600082013567ffffffffffffffff81111561220157612200611a97565b5b61220d8482850161219f565b91505092915050565b600080600080608085870312156122305761222f611a92565b5b600061223e87828801611da1565b945050602061224f87828801611b7f565b935050604061226087828801611df9565b925050606061227187828801611b7f565b91505092959194509250565b600067ffffffffffffffff82111561229857612297611ab2565b5b602082029050602081019050919050565b6000819050919050565b6122bc816122a9565b81146122c757600080fd5b50565b6000813590506122d9816122b3565b92915050565b60006122f26122ed8461227d565b611b12565b9050808382526020820190506020840283018581111561231557612314611b59565b5b835b8181101561233e578061232a88826122ca565b845260208401935050602081019050612317565b5050509392505050565b600082601f83011261235d5761235c611a9c565b5b813561236d8482602086016122df565b91505092915050565b60006020828403121561238c5761238b611a92565b5b600082013567ffffffffffffffff8111156123aa576123a9611a97565b5b6123b684828501612348565b91505092915050565b6123c881611ca0565b82525050565b60006020820190506123e360008301846123bf565b92915050565b600067ffffffffffffffff82111561240457612403611ab2565b5b61240d82611aa1565b9050602081019050919050565b600061242d612428846123e9565b611b12565b90508281526020810184848401111561244957612448612063565b5b612454848285612099565b509392505050565b600082601f83011261247157612470611a9c565b5b813561248184826020860161241a565b91505092915050565b6000806000606084860312156124a3576124a2611a92565b5b60006124b186828701611d75565b93505060206124c286828701611b7f565b925050604084013567ffffffffffffffff8111156124e3576124e2611a97565b5b6124ef8682870161245c565b9150509250925092565b60008083601f84011261250f5761250e611a9c565b5b8235905067ffffffffffffffff81111561252c5761252b611e0e565b5b60208301915083600182028301111561254857612547611b59565b5b9250929050565b60008060006040848603121561256857612567611a92565b5b600061257686828701611da1565b935050602084013567ffffffffffffffff81111561259757612596611a97565b5b6125a3868287016124f9565b92509250509250925092565b60008115159050919050565b6125c4816125af565b82525050565b60006020820190506125df60008301846125bb565b92915050565b600080604083850312156125fc576125fb611a92565b5b600061260a85828601611da1565b925050602061261b85828601611da1565b9150509250929050565b600067ffffffffffffffff8211156126405761263f611ab2565b5b602082029050602081019050919050565b600061266461265f84612625565b611b12565b9050808382526020820190506020840283018581111561268757612686611b59565b5b835b818110156126b0578061269c8882611d75565b845260208401935050602081019050612689565b5050509392505050565b600082601f8301126126cf576126ce611a9c565b5b81356126df848260208601612651565b91505092915050565b60008060006060848603121561270157612700611a92565b5b600061270f86828701611da1565b935050602084013567ffffffffffffffff8111156127305761272f611a97565b5b61273c868287016126ba565b925050604084013567ffffffffffffffff81111561275d5761275c611a97565b5b61276986828701611bfd565b9150509250925092565b600082825260208201905092915050565b7f417272617920697320656d707479000000000000000000000000000000000000600082015250565b60006127ba600e83612773565b91506127c582612784565b602082019050919050565b600060208201905081810360008301526127e9816127ad565b9050919050565b7f4e487b7100000000000000000000000000000000000000000000000000000000600052601160045260246000fd5b600061282a82611b5e565b915061283583611b5e565b925082820190508082111561284d5761284c6127f0565b5b92915050565b7f4e487b7100000000000000000000000000000000000000000000000000000000600052601260045260246000fd5b600061288d82611b5e565b915061289883611b5e565b9250826128a8576128a7612853565b5b828204905092915050565b60006128be82611b5e565b91506128c983611b5e565b92508282026128d781611b5e565b915082820484148315176128ee576128ed6127f0565b5b5092915050565b600061290082611b5e565b915061290b83611b5e565b9250828203905081811115612923576129226127f0565b5b92915050565b7f4e487b7100000000000000000000000000000000000000000000000000000000600052603260045260246000fd5b7f4d75737420757365204c494e4b20746f6b656e00000000000000000000000000600082015250565b600061298e601383612773565b915061299982612958565b602082019050919050565b600060208201905081810360008301526129bd81612981565b9050919050565b7f43616e6e6f742063616c6c6261636b20746f204c494e4b000000000000000000600082015250565b60006129fa601783612773565b9150612a05826129c4565b602082019050919050565b60006020820190508181036000830152612a29816129ed565b9050919050565b60008160601b9050919050565b6000612a4882612a30565b9050919050565b6000612a5a82612a3d565b9050919050565b612a72612a6d82611a4c565b612a4f565b82525050565b6000819050919050565b612a93612a8e82611b5e565b612a78565b82525050565b6000612aa58285612a61565b601482019150612ab58284612a82565b6020820191508190509392505050565b7f4d75737420757365206120756e69717565204944000000000000000000000000600082015250565b6000612afb601483612773565b9150612b0682612ac5565b602082019050919050565b60006020820190508181036000830152612b2a81612aee565b9050919050565b612b3a81611db6565b82525050565b6000612b4c8385611f77565b9350612b59838584612099565b612b6283611aa1565b840190509392505050565b600061010082019050612b83600083018c611a5e565b612b90602083018b6123bf565b612b9d604083018a61200d565b612baa6060830189611a5e565b612bb76080830188612b31565b612bc460a083018761200d565b612bd160c083018661200d565b81810360e0830152612be4818486612b40565b90509a9950505050505050505050565b6000612c008284612a82565b60208201915081905092915050565b7f52657175657374206973206e6f74206578706972656400000000000000000000600082015250565b6000612c45601683612773565b9150612c5082612c0f565b602082019050919050565b60006020820190508181036000830152612c7481612c38565b9050919050565b6000604082019050612c906000830185611a5e565b612c9d602083018461200d565b9392505050565b612cad816125af565b8114612cb857600080fd5b50565b600081519050612cca81612ca4565b92915050565b600060208284031215612ce657612ce5611a92565b5b6000612cf484828501612cbb565b91505092915050565b7f4e487b7100000000000000000000000000000000000000000000000000000000600052600160045260246000fd5b600081519050919050565b600081905092915050565b6000819050602082019050919050565b612d5b816122a9565b82525050565b6000612d6d8383612d52565b60208301905092915050565b6000602082019050919050565b6000612d9182612d2c565b612d9b8185612d37565b9350612da683612d42565b8060005b83811015612dd7578151612dbe8882612d61565b9750612dc983612d79565b925050600181019050612daa565b5085935050505092915050565b6000612df08284612d86565b915081905092915050565b6000612e0682611b5e565b9150612e1183611b5e565b925082612e2157612e20612853565b5b828206905092915050565b7f496e76616c6964206172726179206c656e677468000000000000000000000000600082015250565b6000612e62601483612773565b9150612e6d82612e2c565b602082019050919050565b60006020820190508181036000830152612e9181612e55565b9050919050565b7f496e76616c69642072657175657374206c656e67746800000000000000000000600082015250565b6000612ece601683612773565b9150612ed982612e98565b602082019050919050565b60006020820190508181036000830152612efd81612ec1565b9050919050565b7f4d757374207573652077686974656c69737465642066756e6374696f6e730000600082015250565b6000612f3a601e83612773565b9150612f4582612f04565b602082019050919050565b60006020820190508181036000830152612f6981612f2d565b9050919050565b600081905092915050565b6000612f8682611f6c565b612f908185612f70565b9350612fa0818560208601611f88565b80840191505092915050565b6000612fb88284612f7b565b915081905092915050565b7f556e61626c6520746f2063726561746520726571756573740000000000000000600082015250565b6000612ff9601883612773565b915061300482612fc3565b602082019050919050565b6000602082019050818103600083015261302881612fec565b9050919050565b7f4d757374206861766520612076616c6964207265717565737449640000000000600082015250565b6000613065601b83612773565b91506130708261302f565b602082019050919050565b6000602082019050818103600083015261309481613058565b9050919050565b7f4d7573742070726f7669646520636f6e73756d657220656e6f75676820676173600082015250565b60006130d1602083612773565b91506130dc8261309b565b602082019050919050565b60006020820190508181036000830152613100816130c4565b9050919050565b60006131138385612773565b9350613120838584612099565b61312983611aa1565b840190509392505050565b600060408201905061314960008301866123bf565b818103602083015261315c818486613107565b9050949350505050565b600060408201905061317b60008301856123bf565b61318860208301846123bf565b9392505050565b600081519050919050565b600082825260208201905092915050565b6000819050602082019050919050565b6131c481611a4c565b82525050565b60006131d683836131bb565b60208301905092915050565b6000602082019050919050565b60006131fa8261318f565b613204818561319a565b935061320f836131ab565b8060005b8381101561324057815161322788826131ca565b9750613232836131e2565b925050600181019050613213565b5085935050505092915050565b600081519050919050565b600082825260208201905092915050565b6000819050602082019050919050565b61328281611b5e565b82525050565b60006132948383613279565b60208301905092915050565b6000602082019050919050565b60006132b88261324d565b6132c28185613258565b93506132cd83613269565b8060005b838110156132fe5781516132e58882613288565b97506132f0836132a0565b9250506001810190506132d1565b5085935050505092915050565b600060608201905061332060008301866123bf565b818103602083015261333281856131ef565b9050818103604083015261334681846132ad565b9050949350505050565b7f536166654d6174683a206164646974696f6e206f766572666c6f770000000000600082015250565b6000613386601b83612773565b915061339182613350565b602082019050919050565b600060208201905081810360008301526133b581613379565b905091905056fea26469706673582212209365bb54d7f9e9d63295d5a3c8f85fbf518482d2186accb34588bdb86d1b764a64736f6c63430008190033","linkReferences":{}},"methodIdentifiers":{"EXPIRY_TIME()":"4b602282","cancelOracleRequest(bytes32,uint256,bytes4,uint256)":"6ee4d553","convertIntToBytes32Array(int256[])":"715d342f","convertStringToBytes32Array(string[])":"5fdb23ca","convertToBytes(uint256)":"466703c5","convertUintToBytes32(uint256[])":"3be2c1d8","fulfillOracleFundingRateRequest(bytes32,address[],uint256[])":"f00e8e35","fulfillOracleOjectRequest(bytes32,bytes32)":"e030ba66","fulfillOracleStatusRequest(bytes32,string)":"c5e639ca","getChainlinkToken()":"165d35e1","onTokenTransfer(address,uint256,bytes)":"a4c0ed36","oracleRequest(address,uint256,bytes32,address,bytes4,uint256,uint256,bytes)":"40429946","uintToBytes32(uint256)":"886d3db9"},"id":31}