{"abi":[{"type":"function","name":"cancelIssuance","inputs":[{"name":"_issuanceNonce","type":"uint256","internalType":"uint256"}],"outputs":[],"stateMutability":"nonpayable"},{"type":"function","name":"cancelRedemption","inputs":[{"name":"_redemptionNonce","type":"uint256","internalType":"uint256"}],"outputs":[],"stateMutability":"nonpayable"},{"type":"function","name":"factoryStorage","inputs":[],"outputs":[{"name":"","type":"address","internalType":"contract IndexFactoryStorage"}],"stateMutability":"view"},{"type":"function","name":"initialize","inputs":[{"name":"_factoryStorage","type":"address","internalType":"address"}],"outputs":[],"stateMutability":"nonpayable"},{"type":"function","name":"issuanceIndexTokens","inputs":[{"name":"_inputAmount","type":"uint256","internalType":"uint256"}],"outputs":[{"name":"","type":"uint256","internalType":"uint256"}],"stateMutability":"nonpayable"},{"type":"function","name":"owner","inputs":[],"outputs":[{"name":"","type":"address","internalType":"address"}],"stateMutability":"view"},{"type":"function","name":"pause","inputs":[],"outputs":[],"stateMutability":"nonpayable"},{"type":"function","name":"paused","inputs":[],"outputs":[{"name":"","type":"bool","internalType":"bool"}],"stateMutability":"view"},{"type":"function","name":"redemption","inputs":[{"name":"_inputAmount","type":"uint256","internalType":"uint256"}],"outputs":[{"name":"","type":"uint256","internalType":"uint256"}],"stateMutability":"nonpayable"},{"type":"function","name":"renounceOwnership","inputs":[],"outputs":[],"stateMutability":"nonpayable"},{"type":"function","name":"setIndexFactoryStorage","inputs":[{"name":"_factoryStorage","type":"address","internalType":"address"}],"outputs":[{"name":"","type":"bool","internalType":"bool"}],"stateMutability":"nonpayable"},{"type":"function","name":"tRedemption","inputs":[],"outputs":[],"stateMutability":"nonpayable"},{"type":"function","name":"transferOwnership","inputs":[{"name":"newOwner","type":"address","internalType":"address"}],"outputs":[],"stateMutability":"nonpayable"},{"type":"function","name":"unpause","inputs":[],"outputs":[],"stateMutability":"nonpayable"},{"type":"event","name":"Initialized","inputs":[{"name":"version","type":"uint64","indexed":false,"internalType":"uint64"}],"anonymous":false},{"type":"event","name":"Issuanced","inputs":[{"name":"nonce","type":"uint256","indexed":true,"internalType":"uint256"},{"name":"user","type":"address","indexed":true,"internalType":"address"},{"name":"inputToken","type":"address","indexed":false,"internalType":"address"},{"name":"inputAmount","type":"uint256","indexed":false,"internalType":"uint256"},{"name":"outputAmount","type":"uint256","indexed":false,"internalType":"uint256"},{"name":"time","type":"uint256","indexed":false,"internalType":"uint256"}],"anonymous":false},{"type":"event","name":"OwnershipTransferred","inputs":[{"name":"previousOwner","type":"address","indexed":true,"internalType":"address"},{"name":"newOwner","type":"address","indexed":true,"internalType":"address"}],"anonymous":false},{"type":"event","name":"Paused","inputs":[{"name":"account","type":"address","indexed":false,"internalType":"address"}],"anonymous":false},{"type":"event","name":"Redemption","inputs":[{"name":"nonce","type":"uint256","indexed":true,"internalType":"uint256"},{"name":"user","type":"address","indexed":true,"internalType":"address"},{"name":"outputToken","type":"address","indexed":false,"internalType":"address"},{"name":"inputAmount","type":"uint256","indexed":false,"internalType":"uint256"},{"name":"outputAmount","type":"uint256","indexed":false,"internalType":"uint256"},{"name":"time","type":"uint256","indexed":false,"internalType":"uint256"}],"anonymous":false},{"type":"event","name":"RequestIssuance","inputs":[{"name":"nonce","type":"uint256","indexed":true,"internalType":"uint256"},{"name":"user","type":"address","indexed":true,"internalType":"address"},{"name":"inputToken","type":"address","indexed":false,"internalType":"address"},{"name":"inputAmount","type":"uint256","indexed":false,"internalType":"uint256"},{"name":"outputAmount","type":"uint256","indexed":false,"internalType":"uint256"},{"name":"time","type":"uint256","indexed":false,"internalType":"uint256"}],"anonymous":false},{"type":"event","name":"RequestRedemption","inputs":[{"name":"nonce","type":"uint256","indexed":true,"internalType":"uint256"},{"name":"user","type":"address","indexed":true,"internalType":"address"},{"name":"outputToken","type":"address","indexed":false,"internalType":"address"},{"name":"inputAmount","type":"uint256","indexed":false,"internalType":"uint256"},{"name":"outputAmount","type":"uint256","indexed":false,"internalType":"uint256"},{"name":"time","type":"uint256","indexed":false,"internalType":"uint256"}],"anonymous":false},{"type":"event","name":"Unpaused","inputs":[{"name":"account","type":"address","indexed":false,"internalType":"address"}],"anonymous":false},{"type":"error","name":"EnforcedPause","inputs":[]},{"type":"error","name":"ExpectedPause","inputs":[]},{"type":"error","name":"InvalidInitialization","inputs":[]},{"type":"error","name":"NotInitializing","inputs":[]},{"type":"error","name":"OwnableInvalidOwner","inputs":[{"name":"owner","type":"address","internalType":"address"}]},{"type":"error","name":"OwnableUnauthorizedAccount","inputs":[{"name":"account","type":"address","internalType":"address"}]}],"bytecode":{"object":"0x6080604052348015600f57600080fd5b506145ef8061001f6000396000f3fe608060405234801561001057600080fd5b50600436106100ea5760003560e01c80638da5cb5b1161008c578063c06e1ae211610066578063c06e1ae2146101b4578063c4d66de8146101c7578063cc8659ae146101da578063f2fde38b146101ed57600080fd5b80638da5cb5b146101795780639219e51014610199578063bbb7c77b146101ac57600080fd5b80635c975abb116100c85780635c975abb146101325780636e32040814610156578063715018a6146101695780638456cb591461017157600080fd5b80633f4ba83a146100ef57806346d66a2c146100f95780634a1dc0921461010c575b600080fd5b6100f7610200565b005b6100f76101073660046140ba565b610212565b61011f61011a3660046140ba565b610db2565b6040519081526020015b60405180910390f35b60008051602061459a8339815191525460ff165b6040519015158152602001610129565b61011f6101643660046140ba565b61161a565b6100f7612347565b6100f7612359565b610181612369565b6040516001600160a01b039091168152602001610129565b6100f76101a73660046140ba565b612397565b6100f7612e56565b600054610181906001600160a01b031681565b6100f76101d53660046140e8565b61334f565b6101466101e83660046140e8565b613482565b6100f76101fb3660046140e8565b613506565b610208613541565b610210613573565b565b60005460405163a84ebc1760e01b8152600481018390526001600160a01b039091169063a84ebc1790602401602060405180830381865afa15801561025b573d6000803e3d6000fd5b505050506040513d601f19601f8201168201806040525081019061027f919061411c565b156102c95760405162461bcd60e51b8152602060048201526015602482015274125cdcdd585b98d9481a5cc818dbdb5c1b195d1959605a1b60448201526064015b60405180910390fd5b6000805460405163128ce81360e31b8152600481018490526001600160a01b0390911690639467409890602401602060405180830381865afa158015610313573d6000803e3d6000fd5b505050506040513d601f19601f820116820180604052508101906103379190614142565b9050336001600160a01b038216146103a05760405162461bcd60e51b815260206004820152602660248201527f4f6e6c79207265717565737465722063616e2063616e63656c207468652069736044820152657375616e636560d01b60648201526084016102c0565b60008060009054906101000a90046001600160a01b03166001600160a01b0316631d1438486040518163ffffffff1660e01b8152600401602060405180830381865afa1580156103f4573d6000803e3d6000fd5b505050506040513d601f19601f820116820180604052508101906104189190614142565b905060005b60008054906101000a90046001600160a01b03166001600160a01b03166353fd43326040518163ffffffff1660e01b8152600401602060405180830381865afa15801561046e573d6000803e3d6000fd5b505050506040513d601f19601f82011682018060405250810190610492919061415f565b811015610dac576000805460405163264cae9360e21b8152600481018490526001600160a01b0390911690639932ba4c90602401602060405180830381865afa1580156104e3573d6000803e3d6000fd5b505050506040513d601f19601f820116820180604052508101906105079190614142565b6000805460405163264fa8b960e01b8152600481018990526001600160a01b0380851660248301529394509192169063264fa8b990604401602060405180830381865afa15801561055c573d6000803e3d6000fd5b505050506040513d601f19601f82011682018060405250810190610580919061415f565b600080546040516378f98eb360e11b81526004810184905292935090916001600160a01b039091169063f1f31d669060240161014060405180830381865afa1580156105d0573d6000803e3d6000fd5b505050506040513d601f19601f820116820180604052508101906105f491906141ef565b6040516322fd455760e11b8152600481018490529091506001906001600160a01b038716906345fa8aae90602401602060405180830381865afa15801561063f573d6000803e3d6000fd5b505050506040513d601f19601f8201168201806040525081019061066391906142b9565b6003811115610674576106746142a3565b60ff161480156106ea575060405163187b2ed160e21b8152600481018390526001600160a01b038616906361ecbb4490602401602060405180830381865afa1580156106c4573d6000803e3d6000fd5b505050506040513d601f19601f820116820180604052508101906106e8919061415f565b155b156108945760008060009054906101000a90046001600160a01b03166001600160a01b031663f9b6117f6040518163ffffffff1660e01b8152600401602060405180830381865afa158015610743573d6000803e3d6000fd5b505050506040513d601f19601f820116820180604052508101906107679190614142565b60005460405163103fdae160e31b8152600481018690529192506001600160a01b03908116916312b6d2e6918b9188918b16906381fed70890602401602060405180830381865afa1580156107c0573d6000803e3d6000fd5b505050506040513d601f19601f820116820180604052508101906107e4919061415f565b6040518463ffffffff1660e01b8152600401610802939291906142d6565b600060405180830381600087803b15801561081c57600080fd5b505af1158015610830573d6000803e3d6000fd5b505060405163514fcac760e01b8152600481018690526001600160a01b038416925063514fcac79150602401600060405180830381600087803b15801561087657600080fd5b505af115801561088a573d6000803e3d6000fd5b5050505050610da1565b6040516322fd455760e11b8152600481018390526002906001600160a01b038716906345fa8aae90602401602060405180830381865afa1580156108dc573d6000803e3d6000fd5b505050506040513d601f19601f8201168201806040525081019061090091906142b9565b6003811115610911576109116142a3565b60ff161480610989575060405163187b2ed160e21b8152600481018390526000906001600160a01b038716906361ecbb4490602401602060405180830381865afa158015610963573d6000803e3d6000fd5b505050506040513d601f19601f82011682018060405250810190610987919061415f565b115b15610da15760405163187b2ed160e21b8152600481018390526000906001600160a01b038716906361ecbb4490602401602060405180830381865afa1580156109d6573d6000803e3d6000fd5b505050506040513d601f19601f820116820180604052508101906109fa919061415f565b9050600080610a7e868460008054906101000a90046001600160a01b03166001600160a01b031663f9b6117f6040518163ffffffff1660e01b8152600401602060405180830381865afa158015610a55573d6000803e3d6000fd5b505050506040513d601f19601f82011682018060405250810190610a799190614142565b6135d3565b60005460408051808201825260038152602081018f815291516340c1249560e11b81526004810186905290516024820152905160448201529294509092506001600160a01b031690638182492a90606401600060405180830381600087803b158015610ae957600080fd5b505af1158015610afd573d6000803e3d6000fd5b5050600054604051637a6c4b7b60e01b81526001600160a01b039091169250637a6c4b7b9150610b35908d908a9087906004016142d6565b600060405180830381600087803b158015610b4f57600080fd5b505af1158015610b63573d6000803e3d6000fd5b5060019250610b70915050565b60ff16886001600160a01b03166345fa8aae876040518263ffffffff1660e01b8152600401610ba191815260200190565b602060405180830381865afa158015610bbe573d6000803e3d6000fd5b505050506040513d601f19601f82011682018060405250810190610be291906142b9565b6003811115610bf357610bf36142a3565b60ff1603610d9d5760005460405163103fdae160e31b8152600481018790526001600160a01b03918216916312b6d2e6918d918a91908d16906381fed70890602401602060405180830381865afa158015610c52573d6000803e3d6000fd5b505050506040513d601f19601f82011682018060405250810190610c76919061415f565b6040518463ffffffff1660e01b8152600401610c94939291906142d6565b600060405180830381600087803b158015610cae57600080fd5b505af1158015610cc2573d6000803e3d6000fd5b5050505060008060009054906101000a90046001600160a01b03166001600160a01b031663f9b6117f6040518163ffffffff1660e01b8152600401602060405180830381865afa158015610d1a573d6000803e3d6000fd5b505050506040513d601f19601f82011682018060405250810190610d3e9190614142565b60405163514fcac760e01b8152600481018890529091506001600160a01b0382169063514fcac790602401600060405180830381600087803b158015610d8357600080fd5b505af1158015610d97573d6000803e3d6000fd5b50505050505b5050505b50505060010161041d565b50505050565b60008060009054906101000a90046001600160a01b03166001600160a01b0316637851b9056040518163ffffffff1660e01b8152600401600060405180830381600087803b158015610e0357600080fd5b505af1158015610e17573d6000803e3d6000fd5b5050505060008060009054906101000a90046001600160a01b03166001600160a01b03166384d77bb16040518163ffffffff1660e01b8152600401602060405180830381865afa158015610e6f573d6000803e3d6000fd5b505050506040513d601f19601f82011682018060405250810190610e93919061415f565b60005460405163c7003d1b60e01b815260048101839052602481018690529192506001600160a01b03169063c7003d1b90604401600060405180830381600087803b158015610ee157600080fd5b505af1158015610ef5573d6000803e3d6000fd5b5050505060008060009054906101000a90046001600160a01b03166001600160a01b031663fc0c546a6040518163ffffffff1660e01b8152600401602060405180830381865afa158015610f4d573d6000803e3d6000fd5b505050506040513d601f19601f82011682018060405250810190610f719190614142565b90506000816001600160a01b03166318160ddd6040518163ffffffff1660e01b8152600401602060405180830381865afa158015610fb3573d6000803e3d6000fd5b505050506040513d601f19601f82011682018060405250810190610fd7919061415f565b610fe986670de0b6b3a764000061430b565b610ff3919061433e565b604051632770a7eb60e21b8152336004820152602481018790529091506001600160a01b03831690639dc29fac90604401600060405180830381600087803b15801561103e57600080fd5b505af1158015611052573d6000803e3d6000fd5b5050600054604051636188199f60e01b815260048101879052602481018990526001600160a01b039091169250636188199f9150604401600060405180830381600087803b1580156110a357600080fd5b505af11580156110b7573d6000803e3d6000fd5b5050505060005b60008054906101000a90046001600160a01b03166001600160a01b03166353fd43326040518163ffffffff1660e01b8152600401602060405180830381865afa15801561110f573d6000803e3d6000fd5b505050506040513d601f19601f82011682018060405250810190611133919061415f565b811015611540576000805460405163264cae9360e21b8152600481018490526001600160a01b0390911690639932ba4c90602401602060405180830381865afa158015611184573d6000803e3d6000fd5b505050506040513d601f19601f820116820180604052508101906111a89190614142565b6000805460405162493aaf60e51b81526001600160a01b0380851660048301529394509192670de0b6b3a76400009291169063092755e090602401602060405180830381865afa158015611200573d6000803e3d6000fd5b505050506040513d601f19601f820116820180604052508101906112249190614142565b6001600160a01b03166370a0823160008054906101000a90046001600160a01b03166001600160a01b031663fbfa77cf6040518163ffffffff1660e01b8152600401602060405180830381865afa158015611283573d6000803e3d6000fd5b505050506040513d601f19601f820116820180604052508101906112a79190614142565b6040516001600160e01b031960e084901b1681526001600160a01b039091166004820152602401602060405180830381865afa1580156112eb573d6000803e3d6000fd5b505050506040513d601f19601f8201168201806040525081019061130f919061415f565b611319908661430b565b611323919061433e565b905060008061137e848460008054906101000a90046001600160a01b03166001600160a01b031663f9b6117f6040518163ffffffff1660e01b8152600401602060405180830381865afa158015610a55573d6000803e3d6000fd5b60005460408051808201825260028152602081018d815291516340c1249560e11b81526004810186905290516024820152905160448201529294509092506001600160a01b031690638182492a90606401600060405180830381600087803b1580156113e957600080fd5b505af11580156113fd573d6000803e3d6000fd5b5050600054604051630f156c3760e11b815260048101869052602481018590526001600160a01b039091169250631e2ad86e9150604401600060405180830381600087803b15801561144e57600080fd5b505af1158015611462573d6000803e3d6000fd5b5050600054604051631c7a295960e01b81526001600160a01b039091169250631c7a2959915061149a908b90889087906004016142d6565b600060405180830381600087803b1580156114b457600080fd5b505af11580156114c8573d6000803e3d6000fd5b505060005460405163d34ed2ab60e01b8152600481018c90523360248201526001600160a01b03909116925063d34ed2ab9150604401600060405180830381600087803b15801561151857600080fd5b505af115801561152c573d6000803e3d6000fd5b5050600190960195506110be945050505050565b50336001600160a01b0316837f318a1eb196638838739aab2348b851e63485b8c41dacc90eaff499a0f14ce53360008054906101000a90046001600160a01b03166001600160a01b0316633e413bee6040518163ffffffff1660e01b8152600401602060405180830381865afa1580156115be573d6000803e3d6000fd5b505050506040513d601f19601f820116820180604052508101906115e29190614142565b604080516001600160a01b039092168252602082018a905260009082015242606082015260800160405180910390a350909392505050565b60008061271060008054906101000a90046001600160a01b03166001600160a01b031663978bbdb96040518163ffffffff1660e01b8152600401602060405180830381865afa158015611671573d6000803e3d6000fd5b505050506040513d601f19601f820116820180604052508101906116959190614352565b6116a29060ff168561430b565b6116ac919061433e565b600080546040516370cf77df60e11b81526004810187905292935090916001600160a01b039091169063e19eefbe90602401602060405180830381865afa1580156116fb573d6000803e3d6000fd5b505050506040513d601f19601f8201168201806040525081019061171f919061415f565b9050600061172d8583614375565b905060008054906101000a90046001600160a01b03166001600160a01b0316633e413bee6040518163ffffffff1660e01b8152600401602060405180830381865afa158015611780573d6000803e3d6000fd5b505050506040513d601f19601f820116820180604052508101906117a49190614142565b6001600160a01b03166323b872dd3360008054906101000a90046001600160a01b03166001600160a01b031663f9b6117f6040518163ffffffff1660e01b8152600401602060405180830381865afa158015611804573d6000803e3d6000fd5b505050506040513d601f19601f820116820180604052508101906118289190614142565b6040516001600160e01b031960e085901b1681526001600160a01b03928316600482015291166024820152604481018490526064016020604051808303816000875af115801561187c573d6000803e3d6000fd5b505050506040513d601f19601f820116820180604052508101906118a0919061411c565b5060008054906101000a90046001600160a01b03166001600160a01b0316633e413bee6040518163ffffffff1660e01b8152600401602060405180830381865afa1580156118f2573d6000803e3d6000fd5b505050506040513d601f19601f820116820180604052508101906119169190614142565b6001600160a01b03166323b872dd3361192d612369565b6040516001600160e01b031960e085901b1681526001600160a01b03928316600482015291166024820152604481018690526064016020604051808303816000875af1158015611981573d6000803e3d6000fd5b505050506040513d601f19601f820116820180604052508101906119a5919061411c565b506000805460408051635501c6cf60e01b815290516001600160a01b0390921692635501c6cf9260048084019382900301818387803b1580156119e757600080fd5b505af11580156119fb573d6000803e3d6000fd5b5050505060008060009054906101000a90046001600160a01b03166001600160a01b0316639dbb9c9e6040518163ffffffff1660e01b8152600401602060405180830381865afa158015611a53573d6000803e3d6000fd5b505050506040513d601f19601f82011682018060405250810190611a77919061415f565b600054604051631d4a285960e31b815260048101839052602481018990529192506001600160a01b03169063ea5142c890604401600060405180830381600087803b158015611ac557600080fd5b505af1158015611ad9573d6000803e3d6000fd5b5050505060005b60008054906101000a90046001600160a01b03166001600160a01b03166353fd43326040518163ffffffff1660e01b8152600401602060405180830381865afa158015611b31573d6000803e3d6000fd5b505050506040513d601f19601f82011682018060405250810190611b55919061415f565b81101561226d576000805460405163264cae9360e21b8152600481018490526001600160a01b0390911690639932ba4c90602401602060405180830381865afa158015611ba6573d6000803e3d6000fd5b505050506040513d601f19601f82011682018060405250810190611bca9190614142565b60008054604051630be5271360e01b81526001600160a01b038085166004830152939450919268056bc75e2d6310000092911690630be5271390602401602060405180830381865afa158015611c24573d6000803e3d6000fd5b505050506040513d601f19601f82011682018060405250810190611c48919061415f565b611c52908b61430b565b611c5c919061433e565b90506000611cdf838360008054906101000a90046001600160a01b03166001600160a01b031663f9b6117f6040518163ffffffff1660e01b8152600401602060405180830381865afa158015611cb6573d6000803e3d6000fd5b505050506040513d601f19601f82011682018060405250810190611cda9190614142565b613d1f565b600054604080518082018252600181526020810189815291516340c1249560e11b81526004810185905290516024820152905160448201529192506001600160a01b031690638182492a90606401600060405180830381600087803b158015611d4757600080fd5b505af1158015611d5b573d6000803e3d6000fd5b5050600054604051631a3c946160e31b815260048101859052602481018690526001600160a01b03909116925063d1e4a3089150604401600060405180830381600087803b158015611dac57600080fd5b505af1158015611dc0573d6000803e3d6000fd5b5050600054604051631258c12960e21b81526001600160a01b03909116925063496304a49150611df8908890879086906004016142d6565b600060405180830381600087803b158015611e1257600080fd5b505af1158015611e26573d6000803e3d6000fd5b5050600054604051636f8eaf5160e11b8152600481018990523360248201526001600160a01b03909116925063df1d5ea29150604401600060405180830381600087803b158015611e7657600080fd5b505af1158015611e8a573d6000803e3d6000fd5b50506000805460405162493aaf60e51b81526001600160a01b0388811660048301529294509116915063092755e090602401602060405180830381865afa158015611ed9573d6000803e3d6000fd5b505050506040513d601f19601f82011682018060405250810190611efd9190614142565b6001600160a01b03166370a0823160008054906101000a90046001600160a01b03166001600160a01b031663fbfa77cf6040518163ffffffff1660e01b8152600401602060405180830381865afa158015611f5c573d6000803e3d6000fd5b505050506040513d601f19601f82011682018060405250810190611f809190614142565b6040516001600160e01b031960e084901b1681526001600160a01b039091166004820152602401602060405180830381865afa158015611fc4573d6000803e3d6000fd5b505050506040513d601f19601f82011682018060405250810190611fe8919061415f565b6000805460405162493aaf60e51b81526001600160a01b0388811660048301529394509192169063092755e090602401602060405180830381865afa158015612035573d6000803e3d6000fd5b505050506040513d601f19601f820116820180604052508101906120599190614142565b6001600160a01b0316634cdad506836040518263ffffffff1660e01b815260040161208691815260200190565b602060405180830381865afa1580156120a3573d6000803e3d6000fd5b505050506040513d601f19601f820116820180604052508101906120c7919061415f565b600054604051639b2d6e3b60e01b81529192506001600160a01b031690639b2d6e3b906120fc908a90899086906004016142d6565b600060405180830381600087803b15801561211657600080fd5b505af115801561212a573d6000803e3d6000fd5b505060005460408051637e062a3560e11b815290516001600160a01b0390921693506399f68da892508a91849163fc0c546a9160048083019260209291908290030181865afa158015612181573d6000803e3d6000fd5b505050506040513d601f19601f820116820180604052508101906121a59190614142565b6001600160a01b03166318160ddd6040518163ffffffff1660e01b8152600401602060405180830381865afa1580156121e2573d6000803e3d6000fd5b505050506040513d601f19601f82011682018060405250810190612206919061415f565b6040516001600160e01b031960e085901b16815260048101929092526024820152604401600060405180830381600087803b15801561224457600080fd5b505af1158015612258573d6000803e3d6000fd5b505060019097019650611ae095505050505050565b50336001600160a01b0316817fb564a60b4184bee9ffdc1c0fd0588a93c23e406438195eec9857050fece55c2060008054906101000a90046001600160a01b03166001600160a01b0316633e413bee6040518163ffffffff1660e01b8152600401602060405180830381865afa1580156122eb573d6000803e3d6000fd5b505050506040513d601f19601f8201168201806040525081019061230f9190614142565b604080516001600160a01b039092168252602082018b905260009082015242606082015260800160405180910390a395945050505050565b61234f613541565b6102106000613f0c565b612361613541565b610210613f7d565b7f9016d09d72d40fdae2fd8ceac6b6234c7706214fd39c1cd1e609a0528c199300546001600160a01b031690565b6000546040516376529fdf60e01b8152600481018390526001600160a01b03909116906376529fdf90602401602060405180830381865afa1580156123e0573d6000803e3d6000fd5b505050506040513d601f19601f82011682018060405250810190612404919061411c565b156124515760405162461bcd60e51b815260206004820152601760248201527f526564656d7074696f6e20697320636f6d706c6574656400000000000000000060448201526064016102c0565b60008054604051630f0064cb60e31b8152600481018490526001600160a01b0390911690637803265890602401602060405180830381865afa15801561249b573d6000803e3d6000fd5b505050506040513d601f19601f820116820180604052508101906124bf9190614142565b9050336001600160a01b0382161461252a5760405162461bcd60e51b815260206004820152602860248201527f4f6e6c79207265717565737465722063616e2063616e63656c207468652072656044820152673232b6b83a34b7b760c11b60648201526084016102c0565b60008060009054906101000a90046001600160a01b03166001600160a01b0316631d1438486040518163ffffffff1660e01b8152600401602060405180830381865afa15801561257e573d6000803e3d6000fd5b505050506040513d601f19601f820116820180604052508101906125a29190614142565b905060005b60008054906101000a90046001600160a01b03166001600160a01b03166353fd43326040518163ffffffff1660e01b8152600401602060405180830381865afa1580156125f8573d6000803e3d6000fd5b505050506040513d601f19601f8201168201806040525081019061261c919061415f565b811015610dac576000805460405163264cae9360e21b8152600481018490526001600160a01b0390911690639932ba4c90602401602060405180830381865afa15801561266d573d6000803e3d6000fd5b505050506040513d601f19601f820116820180604052508101906126919190614142565b60008054604051631ea274e360e31b8152600481018990526001600160a01b0380851660248301529394509192169063f513a71890604401602060405180830381865afa1580156126e6573d6000803e3d6000fd5b505050506040513d601f19601f8201168201806040525081019061270a919061415f565b600080546040516378f98eb360e11b81526004810184905292935090916001600160a01b039091169063f1f31d669060240161014060405180830381865afa15801561275a573d6000803e3d6000fd5b505050506040513d601f19601f8201168201806040525081019061277e91906141ef565b60405163069352a960e41b8152600481018490529091506000906001600160a01b038716906369352a9090602401602060405180830381865afa1580156127c9573d6000803e3d6000fd5b505050506040513d601f19601f820116820180604052508101906127ed919061415f565b60405163187b2ed160e21b8152600481018590526001600160a01b038816906361ecbb4490602401602060405180830381865afa158015612832573d6000803e3d6000fd5b505050506040513d601f19601f82011682018060405250810190612856919061415f565b6128609190614388565b60405163103fdae160e31b8152600481018590529091506000906001600160a01b038816906381fed70890602401602060405180830381865afa1580156128ab573d6000803e3d6000fd5b505050506040513d601f19601f820116820180604052508101906128cf919061415f565b6040516322fd455760e11b8152600481018690529091506001906001600160a01b038916906345fa8aae90602401602060405180830381865afa15801561291a573d6000803e3d6000fd5b505050506040513d601f19601f8201168201806040525081019061293e91906142b9565b600381111561294f5761294f6142a3565b60ff1614801561295d575081155b15612aa35760008060009054906101000a90046001600160a01b03166001600160a01b031663f9b6117f6040518163ffffffff1660e01b8152600401602060405180830381865afa1580156129b6573d6000803e3d6000fd5b505050506040513d601f19601f820116820180604052508101906129da9190614142565b60405163514fcac760e01b8152600481018790529091506001600160a01b0382169063514fcac790602401600060405180830381600087803b158015612a1f57600080fd5b505af1158015612a33573d6000803e3d6000fd5b505060005460405163375432ab60e11b81526001600160a01b039091169250636ea865569150612a6b908d908a9087906004016142d6565b600060405180830381600087803b158015612a8557600080fd5b505af1158015612a99573d6000803e3d6000fd5b5050505050612e45565b6040516322fd455760e11b8152600481018590526002906001600160a01b038916906345fa8aae90602401602060405180830381865afa158015612aeb573d6000803e3d6000fd5b505050506040513d601f19601f82011682018060405250810190612b0f91906142b9565b6003811115612b2057612b206142a3565b60ff161480612b2f5750600082115b15612e45576000612b8c868460008054906101000a90046001600160a01b03166001600160a01b031663f9b6117f6040518163ffffffff1660e01b8152600401602060405180830381865afa158015611cb6573d6000803e3d6000fd5b6000546040805180820182526004808252602082018f815292516340c1249560e11b815290810185905290516024820152905160448201529192506001600160a01b031690638182492a90606401600060405180830381600087803b158015612bf457600080fd5b505af1158015612c08573d6000803e3d6000fd5b505060005460405163457e0e0f60e01b81526001600160a01b03909116925063457e0e0f9150612c40908d908a908a906004016142d6565b600060405180830381600087803b158015612c5a57600080fd5b505af1158015612c6e573d6000803e3d6000fd5b5060019250612c7b915050565b60ff16886001600160a01b03166345fa8aae876040518263ffffffff1660e01b8152600401612cac91815260200190565b602060405180830381865afa158015612cc9573d6000803e3d6000fd5b505050506040513d601f19601f82011682018060405250810190612ced91906142b9565b6003811115612cfe57612cfe6142a3565b60ff1603612e435760005460405163375432ab60e11b81526001600160a01b0390911690636ea8655690612d3a908d908a9087906004016142d6565b600060405180830381600087803b158015612d5457600080fd5b505af1158015612d68573d6000803e3d6000fd5b5050505060008060009054906101000a90046001600160a01b03166001600160a01b031663f9b6117f6040518163ffffffff1660e01b8152600401602060405180830381865afa158015612dc0573d6000803e3d6000fd5b505050506040513d601f19601f82011682018060405250810190612de49190614142565b60405163514fcac760e01b8152600481018890529091506001600160a01b0382169063514fcac790602401600060405180830381600087803b158015612e2957600080fd5b505af1158015612e3d573d6000803e3d6000fd5b50505050505b505b5050600190930192506125a7915050565b60005b60008054906101000a90046001600160a01b03166001600160a01b03166353fd43326040518163ffffffff1660e01b8152600401602060405180830381865afa158015612eaa573d6000803e3d6000fd5b505050506040513d601f19601f82011682018060405250810190612ece919061415f565b81101561334c576000805460405163264cae9360e21b8152600481018490526001600160a01b0390911690639932ba4c90602401602060405180830381865afa158015612f1f573d6000803e3d6000fd5b505050506040513d601f19601f82011682018060405250810190612f439190614142565b6040516370a0823160e01b81523060048201529091506000906001600160a01b038316906370a0823190602401602060405180830381865afa158015612f8d573d6000803e3d6000fd5b505050506040513d601f19601f82011682018060405250810190612fb1919061415f565b905060008060009054906101000a90046001600160a01b03166001600160a01b0316631d1438486040518163ffffffff1660e01b8152600401602060405180830381865afa158015613007573d6000803e3d6000fd5b505050506040513d601f19601f8201168201806040525081019061302b9190614142565b60405163fc75f9ed60e01b81526001600160a01b03858116600483015291925060009183169063fc75f9ed90602401602060405180830381865afa158015613077573d6000803e3d6000fd5b505050506040513d601f19601f8201168201806040525081019061309b9190614352565b905060006130aa60018361439b565b6130b590600a614498565b6130bf90856144a7565b6130c99085614388565b905060008060009054906101000a90046001600160a01b03166001600160a01b031663f9b6117f6040518163ffffffff1660e01b8152600401602060405180830381865afa15801561311f573d6000803e3d6000fd5b505050506040513d601f19601f820116820180604052508101906131439190614142565b600080546040516358913cd560e11b81526001600482015292935090916001600160a01b039091169063b12279aa9060240161014060405180830381865afa158015613193573d6000803e3d6000fd5b505050506040513d601f19601f820116820180604052508101906131b791906141ef565b6001600160a01b03808916604080840182905260c08401879052858316602080860191909152600054825163f9b6117f60e01b81529251959650929463a9059cbb94939093169263f9b6117f9260048082019392918290030181865afa158015613225573d6000803e3d6000fd5b505050506040513d601f19601f820116820180604052508101906132499190614142565b6040516001600160e01b031960e084901b1681526001600160a01b039091166004820152602481018690526044016020604051808303816000875af1158015613296573d6000803e3d6000fd5b505050506040513d601f19601f820116820180604052508101906132ba919061411c565b506040516319b284d160e21b81526001600160a01b038881166004830152602482018590528316604482018190526000916366ca1344906064016020604051808303816000875af1158015613313573d6000803e3d6000fd5b505050506040513d601f19601f82011682018060405250810190613337919061415f565b505060019097019650612e5995505050505050565b50565b7ff0c57e16840df040f15088dc2f81fe391c3923bec73e23a9662efc9c229c6a008054600160401b810460ff16159067ffffffffffffffff166000811580156133955750825b905060008267ffffffffffffffff1660011480156133b25750303b155b9050811580156133c0575080155b156133de5760405163f92ee8a960e01b815260040160405180910390fd5b845467ffffffffffffffff19166001178555831561340857845460ff60401b1916600160401b1785555b600080546001600160a01b0319166001600160a01b03881617905561342c33613fc6565b613434613fd7565b831561347a57845460ff60401b19168555604051600181527fc7f505b2f371ae2175ee4913f4499e1f2633a7b5936321eed1cdaeb6115181d29060200160405180910390a15b505050505050565b600061348c613541565b6001600160a01b0382166134e25760405162461bcd60e51b815260206004820152601f60248201527f696e76616c696420666163746f72792073746f7261676520616464726573730060448201526064016102c0565b50600080546001600160a01b0319166001600160a01b03831617905560015b919050565b61350e613541565b6001600160a01b03811661353857604051631e4fbdf760e01b8152600060048201526024016102c0565b61334c81613f0c565b3361354a612369565b6001600160a01b0316146102105760405163118cdaa760e01b81523360048201526024016102c0565b61357b613fe7565b60008051602061459a833981519152805460ff191681557f5db9ee0a495bf2e6ff9c91a7834c1ba4fdd244a5e8aa4e537bd38aeae4b073aa335b6040516001600160a01b03909116815260200160405180910390a150565b6000805460405162493aaf60e51b81526001600160a01b0386811660048301528392839291169063092755e090602401602060405180830381865afa158015613620573d6000803e3d6000fd5b505050506040513d601f19601f820116820180604052508101906136449190614142565b905060008054906101000a90046001600160a01b03166001600160a01b031663fbfa77cf6040518163ffffffff1660e01b8152600401602060405180830381865afa158015613697573d6000803e3d6000fd5b505050506040513d601f19601f820116820180604052508101906136bb9190614142565b604051631c20fadd60e01b81526001600160a01b038381166004830152306024830152604482018890529190911690631c20fadd90606401600060405180830381600087803b15801561370d57600080fd5b505af1158015613721573d6000803e3d6000fd5b5050604051635d043b2960e11b81526004810188905230602482018190526044820152600092506001600160a01b038416915063ba087652906064016020604051808303816000875af115801561377c573d6000803e3d6000fd5b505050506040513d601f19601f820116820180604052508101906137a0919061415f565b905060008060009054906101000a90046001600160a01b03166001600160a01b0316631d1438486040518163ffffffff1660e01b8152600401602060405180830381865afa1580156137f6573d6000803e3d6000fd5b505050506040513d601f19601f8201168201806040525081019061381a9190614142565b60405163fc75f9ed60e01b81526001600160a01b038a8116600483015291925060009183169063fc75f9ed90602401602060405180830381865afa158015613866573d6000803e3d6000fd5b505050506040513d601f19601f8201168201806040525081019061388a9190614352565b9050600061389960018361439b565b6138a490600a614498565b6138ae90856144a7565b6138b89085614388565b905060006138c68286614388565b90508015613a395760405163095ea7b360e01b81526001600160a01b038781166004830152602482018390528c169063095ea7b3906044016020604051808303816000875af115801561391d573d6000803e3d6000fd5b505050506040513d601f19601f82011682018060405250810190613941919061411c565b50856001600160a01b0316636e553f658260008054906101000a90046001600160a01b03166001600160a01b031663fbfa77cf6040518163ffffffff1660e01b8152600401602060405180830381865afa1580156139a3573d6000803e3d6000fd5b505050506040513d601f19601f820116820180604052508101906139c79190614142565b6040516001600160e01b031960e085901b16815260048101929092526001600160a01b031660248201526044016020604051808303816000875af1158015613a13573d6000803e3d6000fd5b505050506040513d601f19601f82011682018060405250810190613a37919061415f565b505b600080546040516358913cd560e11b8152600160048201526001600160a01b039091169063b12279aa9060240161014060405180830381865afa158015613a84573d6000803e3d6000fd5b505050506040513d601f19601f82011682018060405250810190613aa891906141ef565b6001600160a01b03808e16604080840182905260c084018790528d8316602080860191909152600054825163f9b6117f60e01b81529251959650929463a9059cbb94939093169263f9b6117f9260048082019392918290030181865afa158015613b16573d6000803e3d6000fd5b505050506040513d601f19601f82011682018060405250810190613b3a9190614142565b6040516001600160e01b031960e084901b1681526001600160a01b039091166004820152602481018690526044016020604051808303816000875af1158015613b87573d6000803e3d6000fd5b505050506040513d601f19601f82011682018060405250810190613bab919061411c565b5060008060009054906101000a90046001600160a01b03166001600160a01b031663f9b6117f6040518163ffffffff1660e01b8152600401602060405180830381865afa158015613c00573d6000803e3d6000fd5b505050506040513d601f19601f82011682018060405250810190613c249190614142565b6040516319b284d160e21b81526001600160a01b038f81166004830152602482018790528d811660448301529192506000918316906366ca1344906064016020604051808303816000875af1158015613c81573d6000803e3d6000fd5b505050506040513d601f19601f82011682018060405250810190613ca5919061415f565b600054604051630d71448160e21b81529192506001600160a01b0316906335c5120490613cd890849087906004016144df565b600060405180830381600087803b158015613cf257600080fd5b505af1158015613d06573d6000803e3d6000fd5b50929c50959a5050505050505050505050935093915050565b600080546040516358913cd560e11b81526004810183905282916001600160a01b03169063b12279aa9060240161014060405180830381865afa158015613d6a573d6000803e3d6000fd5b505050506040513d601f19601f82011682018060405250810190613d8e91906141ef565b6001600160a01b0380851660208084019190915287821660408085019190915260e0840188905260008054825163f9b6117f60e01b81529251959650909493169263f9b6117f926004808401939192918290030181865afa158015613df7573d6000803e3d6000fd5b505050506040513d601f19601f82011682018060405250810190613e1b9190614142565b6040516312544d1b60e01b81526001600160a01b0388811660048301526024820188905286811660448301529192506000918316906312544d1b906064016020604051808303816000875af1158015613e78573d6000803e3d6000fd5b505050506040513d601f19601f82011682018060405250810190613e9c919061415f565b600054604051630d71448160e21b81529192506001600160a01b0316906335c5120490613ecf90849087906004016144df565b600060405180830381600087803b158015613ee957600080fd5b505af1158015613efd573d6000803e3d6000fd5b50929998505050505050505050565b7f9016d09d72d40fdae2fd8ceac6b6234c7706214fd39c1cd1e609a0528c19930080546001600160a01b031981166001600160a01b03848116918217845560405192169182907f8be0079c531659141344cd1fd0a4f28419497f9722a3daafe3b4186f6b6457e090600090a3505050565b613f85614017565b60008051602061459a833981519152805460ff191660011781557f62e78cea01bee320cd4e420270b5ea74000d11b0c9f74754ebdbfc544b05a258336135b5565b613fce614048565b61334c81614091565b613fdf614048565b610210614099565b60008051602061459a8339815191525460ff1661021057604051638dfc202b60e01b815260040160405180910390fd5b60008051602061459a8339815191525460ff16156102105760405163d93c066560e01b815260040160405180910390fd5b7ff0c57e16840df040f15088dc2f81fe391c3923bec73e23a9662efc9c229c6a0054600160401b900460ff1661021057604051631afcd79f60e31b815260040160405180910390fd5b61350e614048565b6140a1614048565b60008051602061459a833981519152805460ff19169055565b6000602082840312156140cc57600080fd5b5035919050565b6001600160a01b038116811461334c57600080fd5b6000602082840312156140fa57600080fd5b8135614105816140d3565b9392505050565b8051801515811461350157600080fd5b60006020828403121561412e57600080fd5b6141058261410c565b8051613501816140d3565b60006020828403121561415457600080fd5b8151614105816140d3565b60006020828403121561417157600080fd5b5051919050565b604051610140810167ffffffffffffffff811182821017156141aa57634e487b7160e01b600052604160045260246000fd5b60405290565b805167ffffffffffffffff8116811461350157600080fd5b80516002811061350157600080fd5b6004811061334c57600080fd5b8051613501816141d7565b6000610140828403121561420257600080fd5b61420a614178565b614213836141b0565b815261422160208401614137565b602082015261423260408401614137565b604082015261424360608401614137565b60608201526142546080840161410c565b608082015261426560a084016141c8565b60a082015260c083015160c082015260e083015160e08201526101008084015181830152506101206142988185016141e4565b908201529392505050565b634e487b7160e01b600052602160045260246000fd5b6000602082840312156142cb57600080fd5b8151614105816141d7565b9283526001600160a01b03919091166020830152604082015260600190565b634e487b7160e01b600052601160045260246000fd5b8082028115828204841417614322576143226142f5565b92915050565b634e487b7160e01b600052601260045260246000fd5b60008261434d5761434d614328565b500490565b60006020828403121561436457600080fd5b815160ff8116811461410557600080fd5b80820180821115614322576143226142f5565b81810381811115614322576143226142f5565b60ff8281168282160390811115614322576143226142f5565b600181815b808511156143ef5781600019048211156143d5576143d56142f5565b808516156143e257918102915b93841c93908002906143b9565b509250929050565b60008261440657506001614322565b8161441357506000614322565b816001811461442957600281146144335761444f565b6001915050614322565b60ff841115614444576144446142f5565b50506001821b614322565b5060208310610133831016604e8410600b8410161715614472575081810a614322565b61447c83836143b4565b8060001904821115614490576144906142f5565b029392505050565b600061410560ff8416836143f7565b6000826144b6576144b6614328565b500690565b600281106144cb576144cb6142a3565b9052565b600481106144cb576144cb6142a3565b828152815167ffffffffffffffff166020820152610160810160208301516001600160a01b03811660408401525060408301516001600160a01b03811660608401525060608301516001600160a01b038116608084015250608083015180151560a08401525060a083015161455760c08401826144bb565b5060c083015160e08381019190915283015161010080840191909152830151610120808401919091528301516145916101408401826144cf565b50939250505056fecd5ed15c6e187e77e9aee88184c21f4f2182ab5827cb3b7e07fbedcd63f03300a2646970667358221220ebe9cfc5d35e8a8f2bc8143026a3ac72ad894157f7ef678a571bb74777f24e2c64736f6c63430008190033","linkReferences":{}},"methodIdentifiers":{"cancelIssuance(uint256)":"46d66a2c","cancelRedemption(uint256)":"9219e510","factoryStorage()":"c06e1ae2","initialize(address)":"c4d66de8","issuanceIndexTokens(uint256)":"6e320408","owner()":"8da5cb5b","pause()":"8456cb59","paused()":"5c975abb","redemption(uint256)":"4a1dc092","renounceOwnership()":"715018a6","setIndexFactoryStorage(address)":"cc8659ae","tRedemption()":"bbb7c77b","transferOwnership(address)":"f2fde38b","unpause()":"3f4ba83a"},"id":16}