{"abi":[{"type":"function","name":"burnRequestNonce","inputs":[{"name":"","type":"bytes32","internalType":"bytes32"}],"outputs":[{"name":"","type":"uint256","internalType":"uint256"}],"stateMutability":"view"},{"type":"function","name":"concatenation","inputs":[{"name":"a","type":"string","internalType":"string"},{"name":"b","type":"string","internalType":"string"}],"outputs":[{"name":"","type":"string","internalType":"string"}],"stateMutability":"pure"},{"type":"function","name":"currentList","inputs":[{"name":"","type":"uint256","internalType":"uint256"}],"outputs":[{"name":"","type":"address","internalType":"address"}],"stateMutability":"view"},{"type":"function","name":"custodianWallet","inputs":[],"outputs":[{"name":"","type":"address","internalType":"address"}],"stateMutability":"view"},{"type":"function","name":"externalJobId","inputs":[],"outputs":[{"name":"","type":"bytes32","internalType":"bytes32"}],"stateMutability":"view"},{"type":"function","name":"feeRate","inputs":[],"outputs":[{"name":"","type":"uint8","internalType":"uint8"}],"stateMutability":"view"},{"type":"function","name":"fulfillAssetsData","inputs":[{"name":"requestId","type":"bytes32","internalType":"bytes32"},{"name":"_tokens","type":"address[]","internalType":"address[]"},{"name":"_marketShares","type":"uint256[]","internalType":"uint256[]"}],"outputs":[],"stateMutability":"nonpayable"},{"type":"function","name":"initialize","inputs":[{"name":"_issuer","type":"address","internalType":"address"},{"name":"_token","type":"address","internalType":"address"},{"name":"_usdc","type":"address","internalType":"address"},{"name":"_usdcDecimals","type":"uint8","internalType":"uint8"},{"name":"_chainlinkToken","type":"address","internalType":"address"},{"name":"_oracleAddress","type":"address","internalType":"address"},{"name":"_externalJobId","type":"bytes32","internalType":"bytes32"}],"outputs":[],"stateMutability":"nonpayable"},{"type":"function","name":"issuer","inputs":[],"outputs":[{"name":"","type":"address","internalType":"contract IOrderProcessor"}],"stateMutability":"view"},{"type":"function","name":"lastUpdateTime","inputs":[],"outputs":[{"name":"","type":"uint256","internalType":"uint256"}],"stateMutability":"view"},{"type":"function","name":"latestFeeUpdate","inputs":[],"outputs":[{"name":"","type":"uint256","internalType":"uint256"}],"stateMutability":"view"},{"type":"function","name":"mintRequestNonce","inputs":[{"name":"","type":"bytes32","internalType":"bytes32"}],"outputs":[{"name":"","type":"uint256","internalType":"uint256"}],"stateMutability":"view"},{"type":"function","name":"mockFillAssetsList","inputs":[{"name":"_tokens","type":"address[]","internalType":"address[]"},{"name":"_marketShares","type":"uint256[]","internalType":"uint256[]"}],"outputs":[],"stateMutability":"nonpayable"},{"type":"function","name":"oracleList","inputs":[{"name":"","type":"uint256","internalType":"uint256"}],"outputs":[{"name":"","type":"address","internalType":"address"}],"stateMutability":"view"},{"type":"function","name":"oraclePayment","inputs":[],"outputs":[{"name":"","type":"uint256","internalType":"uint256"}],"stateMutability":"view"},{"type":"function","name":"owner","inputs":[],"outputs":[{"name":"","type":"address","internalType":"address"}],"stateMutability":"view"},{"type":"function","name":"pause","inputs":[],"outputs":[],"stateMutability":"nonpayable"},{"type":"function","name":"paused","inputs":[],"outputs":[{"name":"","type":"bool","internalType":"bool"}],"stateMutability":"view"},{"type":"function","name":"renounceOwnership","inputs":[],"outputs":[],"stateMutability":"nonpayable"},{"type":"function","name":"requestAssetsData","inputs":[],"outputs":[{"name":"","type":"bytes32","internalType":"bytes32"}],"stateMutability":"nonpayable"},{"type":"function","name":"setCustodianWallet","inputs":[{"name":"_custodianWallet","type":"address","internalType":"address"}],"outputs":[{"name":"","type":"bool","internalType":"bool"}],"stateMutability":"nonpayable"},{"type":"function","name":"setFeeRate","inputs":[{"name":"_newFee","type":"uint8","internalType":"uint8"}],"outputs":[],"stateMutability":"nonpayable"},{"type":"function","name":"setIssuer","inputs":[{"name":"_issuer","type":"address","internalType":"address"}],"outputs":[{"name":"","type":"bool","internalType":"bool"}],"stateMutability":"nonpayable"},{"type":"function","name":"setOracleInfo","inputs":[{"name":"_oracleAddress","type":"address","internalType":"address"},{"name":"_externalJobId","type":"bytes32","internalType":"bytes32"}],"outputs":[],"stateMutability":"nonpayable"},{"type":"function","name":"setTokenAddress","inputs":[{"name":"_token","type":"address","internalType":"address"}],"outputs":[{"name":"","type":"bool","internalType":"bool"}],"stateMutability":"nonpayable"},{"type":"function","name":"setUrl","inputs":[{"name":"_beforeAddress","type":"string","internalType":"string"},{"name":"_afterAddress","type":"string","internalType":"string"}],"outputs":[],"stateMutability":"nonpayable"},{"type":"function","name":"setUsdcAddress","inputs":[{"name":"_usdc","type":"address","internalType":"address"},{"name":"_usdcDecimals","type":"uint8","internalType":"uint8"}],"outputs":[{"name":"","type":"bool","internalType":"bool"}],"stateMutability":"nonpayable"},{"type":"function","name":"token","inputs":[],"outputs":[{"name":"","type":"address","internalType":"contract IndexToken"}],"stateMutability":"view"},{"type":"function","name":"tokenCurrentListIndex","inputs":[{"name":"","type":"address","internalType":"address"}],"outputs":[{"name":"","type":"uint256","internalType":"uint256"}],"stateMutability":"view"},{"type":"function","name":"tokenCurrentMarketShare","inputs":[{"name":"","type":"address","internalType":"address"}],"outputs":[{"name":"","type":"uint256","internalType":"uint256"}],"stateMutability":"view"},{"type":"function","name":"tokenOracleListIndex","inputs":[{"name":"","type":"address","internalType":"address"}],"outputs":[{"name":"","type":"uint256","internalType":"uint256"}],"stateMutability":"view"},{"type":"function","name":"tokenOracleMarketShare","inputs":[{"name":"","type":"address","internalType":"address"}],"outputs":[{"name":"","type":"uint256","internalType":"uint256"}],"stateMutability":"view"},{"type":"function","name":"totalCurrentList","inputs":[],"outputs":[{"name":"","type":"uint256","internalType":"uint256"}],"stateMutability":"view"},{"type":"function","name":"totalOracleList","inputs":[],"outputs":[{"name":"","type":"uint256","internalType":"uint256"}],"stateMutability":"view"},{"type":"function","name":"transferOwnership","inputs":[{"name":"newOwner","type":"address","internalType":"address"}],"outputs":[],"stateMutability":"nonpayable"},{"type":"function","name":"unpause","inputs":[],"outputs":[],"stateMutability":"nonpayable"},{"type":"function","name":"usdc","inputs":[],"outputs":[{"name":"","type":"address","internalType":"address"}],"stateMutability":"view"},{"type":"function","name":"usdcDecimals","inputs":[],"outputs":[{"name":"","type":"uint8","internalType":"uint8"}],"stateMutability":"view"},{"type":"event","name":"ChainlinkCancelled","inputs":[{"name":"id","type":"bytes32","indexed":true,"internalType":"bytes32"}],"anonymous":false},{"type":"event","name":"ChainlinkFulfilled","inputs":[{"name":"id","type":"bytes32","indexed":true,"internalType":"bytes32"}],"anonymous":false},{"type":"event","name":"ChainlinkRequested","inputs":[{"name":"id","type":"bytes32","indexed":true,"internalType":"bytes32"}],"anonymous":false},{"type":"event","name":"Initialized","inputs":[{"name":"version","type":"uint64","indexed":false,"internalType":"uint64"}],"anonymous":false},{"type":"event","name":"OwnershipTransferred","inputs":[{"name":"previousOwner","type":"address","indexed":true,"internalType":"address"},{"name":"newOwner","type":"address","indexed":true,"internalType":"address"}],"anonymous":false},{"type":"event","name":"Paused","inputs":[{"name":"account","type":"address","indexed":false,"internalType":"address"}],"anonymous":false},{"type":"event","name":"Unpaused","inputs":[{"name":"account","type":"address","indexed":false,"internalType":"address"}],"anonymous":false},{"type":"error","name":"EnforcedPause","inputs":[]},{"type":"error","name":"ExpectedPause","inputs":[]},{"type":"error","name":"InvalidInitialization","inputs":[]},{"type":"error","name":"NotInitializing","inputs":[]},{"type":"error","name":"OwnableInvalidOwner","inputs":[{"name":"owner","type":"address","internalType":"address"}]},{"type":"error","name":"OwnableUnauthorizedAccount","inputs":[{"name":"account","type":"address","internalType":"address"}]}],"bytecode":{"object":"0x6080604052348015600f57600080fd5b5061234e8061001f6000396000f3fe608060405234801561001057600080fd5b50600436106102325760003560e01c80637ca58c5511610130578063a73e1cbf116100b8578063c8f33c911161007c578063c8f33c9114610546578063eab2a7111461054f578063f14bea2014610562578063f2fde38b14610575578063fc0c546a1461058857600080fd5b8063a73e1cbf146104ee578063a8b54bd414610501578063addc70d11461050a578063c72551be1461051d578063c8599ded1461053d57600080fd5b8063914f0cc6116100ff578063914f0cc61461045e578063978bbdb91461047e5780639932ba4c146104925780639ad4b86b146104bb5780639cc0fb5b146104db57600080fd5b80637ca58c55146103fe5780638456cb59146104065780638c88c10c1461040e5780638da5cb5b1461042e57600080fd5b80633f4ba83a116101be57806353fd43321161018257806353fd43321461039c57806355cc4e57146103a55780635c975abb146103b8578063715018a6146103d05780637bf42165146103d857600080fd5b80633f4ba83a1461033957806343482fc81461034357806345e0ed4f146103565780634b3e0b80146103695780635177942a1461038957600080fd5b80631d143848116102055780631d1438481461029c5780631e106e99146102c7578063239aad0d146102da57806326a4e8d2146103035780633e413bee1461032657600080fd5b8063011ced5f146102375780630be52713146102535780630c02e130146102735780630e3293571461027c575b600080fd5b61024060195481565b6040519081526020015b60405180910390f35b610240610261366004611a72565b60116020526000908152604090205481565b61024060095481565b61028f61028a366004611b42565b61059b565b60405161024a9190611bf5565b6015546102af906001600160a01b031681565b6040516001600160a01b03909116815260200161024a565b6014546102af906001600160a01b031681565b6102af6102e8366004611c08565b600d602052600090815260409020546001600160a01b031681565b610316610311366004611a72565b6105c8565b604051901515815260200161024a565b6016546102af906001600160a01b031681565b610341610649565b005b610341610351366004611c21565b61065b565b610341610364366004611c5c565b610672565b610240610377366004611a72565b60126020526000908152604090205481565b610341610397366004611cdb565b61088c565b610240600c5481565b6103166103b3366004611a72565b6109d6565b6000805160206122f98339815191525460ff16610316565b610341610a54565b6016546103ec90600160a01b900460ff1681565b60405160ff909116815260200161024a565b610240610a66565b610341610ca6565b61024061041c366004611a72565b600f6020526000908152604090205481565b7f9016d09d72d40fdae2fd8ceac6b6234c7706214fd39c1cd1e609a0528c199300546001600160a01b03166102af565b61024061046c366004611a72565b60106020526000908152604090205481565b6016546103ec90600160a81b900460ff1681565b6102af6104a0366004611c08565b600e602052600090815260409020546001600160a01b031681565b6102406104c9366004611c08565b60176020526000908152604090205481565b6103166104e9366004611a72565b610cb6565b6103416104fc366004611b42565b610d3b565b61024060085481565b610341610518366004611dee565b610d61565b61024061052b366004611c08565b60186020526000908152604090205481565b610240600b5481565b610240600a5481565b61031661055d366004611e47565b610d77565b610341610570366004611e7a565b610e00565b610341610583366004611a72565b610ecc565b6013546102af906001600160a01b031681565b606082826040516020016105b0929190611ee6565b60405160208183030381529060405290505b92915050565b60006105d2610f0a565b6001600160a01b0382166106255760405162461bcd60e51b8152602060048201526015602482015274696e76616c696420746f6b656e206164647265737360581b60448201526064015b60405180910390fd5b50601380546001600160a01b0319166001600160a01b03831617905560015b919050565b610651610f0a565b610659610f65565b565b610663610f0a565b61066c82610fc5565b60085550565b7ff0c57e16840df040f15088dc2f81fe391c3923bec73e23a9662efc9c229c6a008054600160401b810460ff1615906001600160401b03166000811580156106b75750825b90506000826001600160401b031660011480156106d35750303b155b9050811580156106e1575080155b156106ff5760405163f92ee8a960e01b815260040160405180910390fd5b845467ffffffffffffffff19166001178555831561072957845460ff60401b1916600160401b1785555b601580546001600160a01b03199081166001600160a01b038f811691909117909255601380549091168d831617905560168054918c166001600160a81b031990921691909117600160a01b60ff8c160217905561078533610fe7565b61078d610ff8565b6016805460ff60a81b1916600560a91b179055600280546001600160a01b0319166001600160a01b038a161790556107c487610fc5565b6008869055600a6107de670de0b6b3a76400006001611f2b565b6107e89190611f58565b6009556040805160608101909152602a8082526122a160208301396006906108109082611ff0565b506040518060600160405280602e81526020016122cb602e91396007906108379082611ff0565b50831561087e57845460ff60401b19168555604051600181527fc7f505b2f371ae2175ee4913f4499e1f2633a7b5936321eed1cdaeb6115181d29060200160405180910390a15b505050505050505050505050565b610894610f0a565b6000601954426108a491906120af565b9050600c603c6108b48184611f58565b6108be9190611f58565b116109315760405162461bcd60e51b815260206004820152603960248201527f596f752073686f756c642077616974206174206c6561737420313220686f757260448201527f7320616674657220746865206c61746573742075706461746500000000000000606482015260840161061c565b60648260ff1611158015610949575060018260ff1610155b6109b15760405162461bcd60e51b815260206004820152603360248201527f546865206e65774665652073686f756c64206265206265747765656e203120616044820152726e64203130302028302e303125202d2031252960681b606482015260840161061c565b506016805460ff909216600160a81b0260ff60a81b1990921691909117905542601955565b60006109e0610f0a565b6001600160a01b038216610a2f5760405162461bcd60e51b8152602060048201526016602482015275696e76616c696420697373756572206164647265737360501b604482015260640161061c565b50601580546001600160a01b0383166001600160a01b03199091161790556001919050565b610a5c610f0a565b6106596000611008565b600080610b8760068054610a7990611f6c565b80601f0160208091040260200160405190810160405280929190818152602001828054610aa590611f6c565b8015610af25780601f10610ac757610100808354040283529160200191610af2565b820191906000526020600020905b815481529060010190602001808311610ad557829003601f168201915b505050505060078054610b0490611f6c565b80601f0160208091040260200160405190810160405280929190818152602001828054610b3090611f6c565b8015610b7d5780601f10610b5257610100808354040283529160200191610b7d565b820191906000526020600020905b815481529060010190602001808311610b6057829003601f168201915b505050505061059b565b90506000610b9f6008543063f14bea2060e01b611079565b60408051808201909152600381526219d95d60ea1b6020820152909150610bc89082908461109e565b610c2360405180604001604052806005815260200164706174683160d81b81525060405180604001604052806011815260200170726573756c74732c61646472657373657360781b8152508361109e9092919063ffffffff16565b610c81604051806040016040528060058152602001643830ba341960d91b81525060405180604001604052806014815260200173726573756c74732c6d61726b657453686172657360601b8152508361109e9092919063ffffffff16565b610c9f610c966003546001600160a01b031690565b826009546110bc565b9250505090565b610cae610f0a565b61065961114f565b6000610cc0610f0a565b6001600160a01b038216610d165760405162461bcd60e51b815260206004820181905260248201527f696e76616c696420637573746f6469616e2077616c6c65742061646472657373604482015260640161061c565b50601480546001600160a01b0383166001600160a01b03199091161790556001919050565b610d43610f0a565b6006610d4f8382611ff0565b506007610d5c8282611ff0565b505050565b610d69610f0a565b610d738282611198565b5050565b6000610d81610f0a565b6001600160a01b038316610dcf5760405162461bcd60e51b8152602060048201526015602482015274696e76616c696420746f6b656e206164647265737360581b604482015260640161061c565b506016805460ff8316600160a01b026001600160a81b03199091166001600160a01b03851617179055600192915050565b60008381526005602052604090205483906001600160a01b03163314610e795760405162461bcd60e51b815260206004820152602860248201527f536f75726365206d75737420626520746865206f7261636c65206f6620746865604482015267081c995c5d595cdd60c21b606482015260840161061c565b60008181526005602052604080822080546001600160a01b03191690555182917f7cc135e0cebb02c3480ae5d74d377283180a2601f8f644edf7987b009316c63a91a2610ec68383611198565b50505050565b610ed4610f0a565b6001600160a01b038116610efe57604051631e4fbdf760e01b81526000600482015260240161061c565b610f0781611008565b50565b33610f3c7f9016d09d72d40fdae2fd8ceac6b6234c7706214fd39c1cd1e609a0528c199300546001600160a01b031690565b6001600160a01b0316146106595760405163118cdaa760e01b815233600482015260240161061c565b610f6d6113b9565b6000805160206122f9833981519152805460ff191681557f5db9ee0a495bf2e6ff9c91a7834c1ba4fdd244a5e8aa4e537bd38aeae4b073aa335b6040516001600160a01b03909116815260200160405180910390a150565b600380546001600160a01b0319166001600160a01b0392909216919091179055565b610fef6113e9565b610f0781611432565b6110006113e9565b61065961143a565b7f9016d09d72d40fdae2fd8ceac6b6234c7706214fd39c1cd1e609a0528c19930080546001600160a01b031981166001600160a01b03848116918217845560405192169182907f8be0079c531659141344cd1fd0a4f28419497f9722a3daafe3b4186f6b6457e090600090a3505050565b611081611a20565b611089611a20565b6110958186868661145b565b95945050505050565b60808301516110ad90836114a1565b6080830151610d5c90826114a1565b6004546000906110cd8160016120c2565b600455835160408086015160808701515191516000936320214ca360e11b936111059386938493923092918a916001916024016120d5565b60408051601f198184030181529190526020810180516001600160e01b03166001600160e01b0319909316929092179091529050611145868386846114b8565b9695505050505050565b611157611616565b6000805160206122f9833981519152805460ff191660011781557f62e78cea01bee320cd4e420270b5ea74000d11b0c9f74754ebdbfc544b05a25833610fa7565b818160005b8251811015611399578281815181106111b8576111b861213d565b6020026020010151600d600083815260200190815260200160002060006101000a8154816001600160a01b0302191690836001600160a01b0316021790555080600f600085848151811061120e5761120e61213d565b60200260200101516001600160a01b03166001600160a01b031681526020019081526020016000208190555081818151811061124c5761124c61213d565b60200260200101516012600085848151811061126a5761126a61213d565b60200260200101516001600160a01b03166001600160a01b0316815260200190815260200160002081905550600c54600003611391578281815181106112b2576112b261213d565b6020026020010151600e600083815260200190815260200160002060006101000a8154816001600160a01b0302191690836001600160a01b031602179055508181815181106113035761130361213d565b6020026020010151601160008584815181106113215761132161213d565b60200260200101516001600160a01b03166001600160a01b031681526020019081526020016000208190555080601060008584815181106113645761136461213d565b60200260200101516001600160a01b03166001600160a01b03168152602001908152602001600020819055505b60010161119d565b508151600b55600c546000036113af578151600c555b505042600a555050565b6000805160206122f98339815191525460ff1661065957604051638dfc202b60e01b815260040160405180910390fd5b7ff0c57e16840df040f15088dc2f81fe391c3923bec73e23a9662efc9c229c6a0054600160401b900460ff1661065957604051631afcd79f60e31b815260040160405180910390fd5b610ed46113e9565b6114426113e9565b6000805160206122f9833981519152805460ff19169055565b611463611a20565b6114738560800151610100611647565b50508284526001600160a01b03821660208501526001600160e01b031981166040850152835b949350505050565b6114ae82600383516116ac565b610d5c82826117b3565b6040516bffffffffffffffffffffffff193060601b1660208201526034810184905260009060540160408051808303601f1901815282825280516020918201206000818152600590925291812080546001600160a01b0319166001600160a01b038a1617905590925082917fb5e6e01e79f91267dc17b4e6314d5d4d03593d2ceee0fbb452b750bd70ea5af99190a2600254604051630200057560e51b81526001600160a01b0390911690634000aea09061157b90889087908790600401612153565b6020604051808303816000875af115801561159a573d6000803e3d6000fd5b505050506040513d601f19601f820116820180604052508101906115be919061217a565b6114995760405162461bcd60e51b815260206004820152602360248201527f756e61626c6520746f207472616e73666572416e6443616c6c20746f206f7261604482015262636c6560e81b606482015260840161061c565b6000805160206122f98339815191525460ff16156106595760405163d93c066560e01b815260040160405180910390fd5b60408051808201909152606081526000602082015261166760208361219c565b1561168f5761167760208361219c565b6116829060206120af565b61168c90836120c2565b91505b506020828101829052604080518085526000815290920101905290565b6017816001600160401b0316116116d057610ec68360e0600585901b1683176117e1565b60ff816001600160401b03161161170c576116f6836018611fe0600586901b16176117e1565b50610ec6836001600160401b0383166001611806565b61ffff816001600160401b03161161174957611733836019611fe0600586901b16176117e1565b50610ec6836001600160401b0383166002611806565b63ffffffff816001600160401b0316116117885761177283601a611fe0600586901b16176117e1565b50610ec6836001600160401b0383166004611806565b61179d83601b611fe0600586901b16176117e1565b50610ec6836001600160401b0383166008611806565b6040805180820190915260608152600060208201526117da8384600001515184855161182c565b9392505050565b6040805180820190915260608152600060208201526117da8384600001515184611916565b604080518082019091526060815260006020820152611499848560000151518585611971565b604080518082019091526060815260006020820152825182111561184f57600080fd5b602085015161185e83866120c2565b111561189157611891856118818760200151878661187c91906120c2565b6119f2565b61188c906002611f2b565b611a09565b6000808651805187602083010193508088870111156118b05787860182525b505050602084015b602084106118f057805182526118cf6020836120c2565b91506118dc6020826120c2565b90506118e96020856120af565b93506118b8565b51815160001960208690036101000a019081169019919091161790525083949350505050565b6040805180820190915260608152600060208201528360200151831061194b5761194b848560200151600261188c9190611f2b565b8351805160208583010184815350808503611967576001810182525b5093949350505050565b604080518082019091526060815260006020820152602085015161199585846120c2565b11156119a9576119a98561188186856120c2565b600060016119b984610100612294565b6119c391906120af565b90508551838682010185831982511617815250805184870111156119e75783860181525b509495945050505050565b600081831115611a035750816105c2565b50919050565b8151611a158383611647565b50610ec683826117b3565b6040805160a0810182526000808252602080830182905282840182905260608084018390528451808601909552845283015290608082015290565b80356001600160a01b038116811461064457600080fd5b600060208284031215611a8457600080fd5b6117da82611a5b565b634e487b7160e01b600052604160045260246000fd5b604051601f8201601f191681016001600160401b0381118282101715611acb57611acb611a8d565b604052919050565b600082601f830112611ae457600080fd5b81356001600160401b03811115611afd57611afd611a8d565b611b10601f8201601f1916602001611aa3565b818152846020838601011115611b2557600080fd5b816020850160208301376000918101602001919091529392505050565b60008060408385031215611b5557600080fd5b82356001600160401b0380821115611b6c57600080fd5b611b7886838701611ad3565b93506020850135915080821115611b8e57600080fd5b50611b9b85828601611ad3565b9150509250929050565b60005b83811015611bc0578181015183820152602001611ba8565b50506000910152565b60008151808452611be1816020860160208601611ba5565b601f01601f19169290920160200192915050565b6020815260006117da6020830184611bc9565b600060208284031215611c1a57600080fd5b5035919050565b60008060408385031215611c3457600080fd5b611c3d83611a5b565b946020939093013593505050565b803560ff8116811461064457600080fd5b600080600080600080600060e0888a031215611c7757600080fd5b611c8088611a5b565b9650611c8e60208901611a5b565b9550611c9c60408901611a5b565b9450611caa60608901611c4b565b9350611cb860808901611a5b565b9250611cc660a08901611a5b565b915060c0880135905092959891949750929550565b600060208284031215611ced57600080fd5b6117da82611c4b565b60006001600160401b03821115611d0f57611d0f611a8d565b5060051b60200190565b600082601f830112611d2a57600080fd5b81356020611d3f611d3a83611cf6565b611aa3565b8083825260208201915060208460051b870101935086841115611d6157600080fd5b602086015b84811015611d8457611d7781611a5b565b8352918301918301611d66565b509695505050505050565b600082601f830112611da057600080fd5b81356020611db0611d3a83611cf6565b8083825260208201915060208460051b870101935086841115611dd257600080fd5b602086015b84811015611d845780358352918301918301611dd7565b60008060408385031215611e0157600080fd5b82356001600160401b0380821115611e1857600080fd5b611e2486838701611d19565b93506020850135915080821115611e3a57600080fd5b50611b9b85828601611d8f565b60008060408385031215611e5a57600080fd5b611e6383611a5b565b9150611e7160208401611c4b565b90509250929050565b600080600060608486031215611e8f57600080fd5b8335925060208401356001600160401b0380821115611ead57600080fd5b611eb987838801611d19565b93506040860135915080821115611ecf57600080fd5b50611edc86828701611d8f565b9150509250925092565b60008351611ef8818460208801611ba5565b835190830190611f0c818360208801611ba5565b01949350505050565b634e487b7160e01b600052601160045260246000fd5b80820281158282048414176105c2576105c2611f15565b634e487b7160e01b600052601260045260246000fd5b600082611f6757611f67611f42565b500490565b600181811c90821680611f8057607f821691505b602082108103611a0357634e487b7160e01b600052602260045260246000fd5b601f821115610d5c576000816000526020600020601f850160051c81016020861015611fc95750805b601f850160051c820191505b81811015611fe857828155600101611fd5565b505050505050565b81516001600160401b0381111561200957612009611a8d565b61201d816120178454611f6c565b84611fa0565b602080601f831160018114612052576000841561203a5750858301515b600019600386901b1c1916600185901b178555611fe8565b600085815260208120601f198616915b8281101561208157888601518255948401946001909101908401612062565b508582101561209f5787850151600019600388901b60f8161c191681555b5050505050600190811b01905550565b818103818111156105c2576105c2611f15565b808201808211156105c2576105c2611f15565b6001600160a01b0389811682526020820189905260408201889052861660608201526001600160e01b03198516608082015260a0810184905260c0810183905261010060e0820181905260009061212e83820185611bc9565b9b9a5050505050505050505050565b634e487b7160e01b600052603260045260246000fd5b60018060a01b03841681528260208201526060604082015260006110956060830184611bc9565b60006020828403121561218c57600080fd5b815180151581146117da57600080fd5b6000826121ab576121ab611f42565b500690565b600181815b808511156121eb5781600019048211156121d1576121d1611f15565b808516156121de57918102915b93841c93908002906121b5565b509250929050565b600082612202575060016105c2565b8161220f575060006105c2565b8160018114612225576002811461222f5761224b565b60019150506105c2565b60ff84111561224057612240611f15565b50506001821b6105c2565b5060208310610133831016604e8410600b841016171561226e575081810a6105c2565b61227883836121b0565b806000190482111561228c5761228c611f15565b029392505050565b60006117da83836121f356fe68747470733a2f2f6170702e6e65786c6162732e696f2f6170692f616c6c46756e64696e6752617465733f6d756c7469706c7946756e633d31382674696d65734e656746756e643d74727565266172726179733d74727565cd5ed15c6e187e77e9aee88184c21f4f2182ab5827cb3b7e07fbedcd63f03300a2646970667358221220480656babb42b867074d3ed70ead3f4dc898907711994ab50dc6eaab620acaf764736f6c63430008190033","linkReferences":{}},"methodIdentifiers":{"burnRequestNonce(bytes32)":"c72551be","concatenation(string,string)":"0e329357","currentList(uint256)":"9932ba4c","custodianWallet()":"1e106e99","externalJobId()":"a8b54bd4","feeRate()":"978bbdb9","fulfillAssetsData(bytes32,address[],uint256[])":"f14bea20","initialize(address,address,address,uint8,address,address,bytes32)":"45e0ed4f","issuer()":"1d143848","lastUpdateTime()":"c8f33c91","latestFeeUpdate()":"011ced5f","mintRequestNonce(bytes32)":"9ad4b86b","mockFillAssetsList(address[],uint256[])":"addc70d1","oracleList(uint256)":"239aad0d","oraclePayment()":"0c02e130","owner()":"8da5cb5b","pause()":"8456cb59","paused()":"5c975abb","renounceOwnership()":"715018a6","requestAssetsData()":"7ca58c55","setCustodianWallet(address)":"9cc0fb5b","setFeeRate(uint8)":"5177942a","setIssuer(address)":"55cc4e57","setOracleInfo(address,bytes32)":"43482fc8","setTokenAddress(address)":"26a4e8d2","setUrl(string,string)":"a73e1cbf","setUsdcAddress(address,uint8)":"eab2a711","token()":"fc0c546a","tokenCurrentListIndex(address)":"914f0cc6","tokenCurrentMarketShare(address)":"0be52713","tokenOracleListIndex(address)":"8c88c10c","tokenOracleMarketShare(address)":"4b3e0b80","totalCurrentList()":"53fd4332","totalOracleList()":"c8599ded","transferOwnership(address)":"f2fde38b","unpause()":"3f4ba83a","usdc()":"3e413bee","usdcDecimals()":"7bf42165"},"id":15}