{"abi":[{"type":"function","name":"buyRequestPayedAmountById","inputs":[{"name":"","type":"uint256","internalType":"uint256"}],"outputs":[{"name":"","type":"uint256","internalType":"uint256"}],"stateMutability":"view"},{"type":"function","name":"calculateIssuanceFee","inputs":[{"name":"_inputAmount","type":"uint256","internalType":"uint256"}],"outputs":[{"name":"","type":"uint256","internalType":"uint256"}],"stateMutability":"view"},{"type":"function","name":"checkIssuance","inputs":[{"name":"_issuanceNonce","type":"uint256","internalType":"uint256"}],"outputs":[{"name":"","type":"bool","internalType":"bool"}],"stateMutability":"view"},{"type":"function","name":"checkRedemption","inputs":[{"name":"_redemptionNonce","type":"uint256","internalType":"uint256"}],"outputs":[{"name":"","type":"bool","internalType":"bool"}],"stateMutability":"view"},{"type":"function","name":"coaByIssuanceNonce","inputs":[{"name":"","type":"uint256","internalType":"uint256"}],"outputs":[{"name":"","type":"address","internalType":"address"}],"stateMutability":"view"},{"type":"function","name":"coaByRedemptionNonce","inputs":[{"name":"","type":"uint256","internalType":"uint256"}],"outputs":[{"name":"","type":"address","internalType":"address"}],"stateMutability":"view"},{"type":"function","name":"completeIssuance","inputs":[{"name":"_issuanceNonce","type":"uint256","internalType":"uint256"}],"outputs":[],"stateMutability":"nonpayable"},{"type":"function","name":"completeRedemption","inputs":[{"name":"_redemptionNonce","type":"uint256","internalType":"uint256"}],"outputs":[],"stateMutability":"nonpayable"},{"type":"function","name":"concatenation","inputs":[{"name":"a","type":"string","internalType":"string"},{"name":"b","type":"string","internalType":"string"}],"outputs":[{"name":"","type":"string","internalType":"string"}],"stateMutability":"pure"},{"type":"function","name":"currentList","inputs":[{"name":"","type":"uint256","internalType":"uint256"}],"outputs":[{"name":"","type":"address","internalType":"address"}],"stateMutability":"view"},{"type":"function","name":"custodianWallet","inputs":[],"outputs":[{"name":"","type":"address","internalType":"address"}],"stateMutability":"view"},{"type":"function","name":"externalJobId","inputs":[],"outputs":[{"name":"","type":"bytes32","internalType":"bytes32"}],"stateMutability":"view"},{"type":"function","name":"feeRate","inputs":[],"outputs":[{"name":"","type":"uint8","internalType":"uint8"}],"stateMutability":"view"},{"type":"function","name":"fulfillAssetsData","inputs":[{"name":"requestId","type":"bytes32","internalType":"bytes32"},{"name":"_tokens","type":"address[]","internalType":"address[]"},{"name":"_marketShares","type":"uint256[]","internalType":"uint256[]"}],"outputs":[],"stateMutability":"nonpayable"},{"type":"function","name":"initialize","inputs":[{"name":"_issuer","type":"address","internalType":"address"},{"name":"_token","type":"address","internalType":"address"},{"name":"_vault","type":"address","internalType":"address"},{"name":"_usdc","type":"address","internalType":"address"},{"name":"_usdcDecimals","type":"uint8","internalType":"uint8"},{"name":"_chainlinkToken","type":"address","internalType":"address"},{"name":"_oracleAddress","type":"address","internalType":"address"},{"name":"_externalJobId","type":"bytes32","internalType":"bytes32"}],"outputs":[],"stateMutability":"nonpayable"},{"type":"function","name":"issuance","inputs":[{"name":"_inputAmount","type":"uint256","internalType":"uint256"}],"outputs":[{"name":"","type":"uint256","internalType":"uint256"}],"stateMutability":"nonpayable"},{"type":"function","name":"issuanceIndexTokenPrimaryTotalSupply","inputs":[{"name":"","type":"uint256","internalType":"uint256"}],"outputs":[{"name":"","type":"uint256","internalType":"uint256"}],"stateMutability":"view"},{"type":"function","name":"issuanceNonce","inputs":[],"outputs":[{"name":"","type":"uint256","internalType":"uint256"}],"stateMutability":"view"},{"type":"function","name":"issuanceRequestId","inputs":[{"name":"","type":"uint256","internalType":"uint256"},{"name":"","type":"address","internalType":"address"}],"outputs":[{"name":"","type":"uint256","internalType":"uint256"}],"stateMutability":"view"},{"type":"function","name":"issuanceRequesterByNonce","inputs":[{"name":"","type":"uint256","internalType":"uint256"}],"outputs":[{"name":"","type":"address","internalType":"address"}],"stateMutability":"view"},{"type":"function","name":"issuanceTokenPrimaryBalance","inputs":[{"name":"","type":"uint256","internalType":"uint256"},{"name":"","type":"address","internalType":"address"}],"outputs":[{"name":"","type":"uint256","internalType":"uint256"}],"stateMutability":"view"},{"type":"function","name":"issuer","inputs":[],"outputs":[{"name":"","type":"address","internalType":"contract IOrderProcessor"}],"stateMutability":"view"},{"type":"function","name":"lastUpdateTime","inputs":[],"outputs":[{"name":"","type":"uint256","internalType":"uint256"}],"stateMutability":"view"},{"type":"function","name":"latestFeeUpdate","inputs":[],"outputs":[{"name":"","type":"uint256","internalType":"uint256"}],"stateMutability":"view"},{"type":"function","name":"mockFillAssetsList","inputs":[{"name":"_tokens","type":"address[]","internalType":"address[]"},{"name":"_marketShares","type":"uint256[]","internalType":"uint256[]"}],"outputs":[],"stateMutability":"nonpayable"},{"type":"function","name":"oracleList","inputs":[{"name":"","type":"uint256","internalType":"uint256"}],"outputs":[{"name":"","type":"address","internalType":"address"}],"stateMutability":"view"},{"type":"function","name":"oraclePayment","inputs":[],"outputs":[{"name":"","type":"uint256","internalType":"uint256"}],"stateMutability":"view"},{"type":"function","name":"owner","inputs":[],"outputs":[{"name":"","type":"address","internalType":"address"}],"stateMutability":"view"},{"type":"function","name":"pause","inputs":[],"outputs":[],"stateMutability":"nonpayable"},{"type":"function","name":"paused","inputs":[],"outputs":[{"name":"","type":"bool","internalType":"bool"}],"stateMutability":"view"},{"type":"function","name":"redemption","inputs":[{"name":"_inputAmount","type":"uint256","internalType":"uint256"}],"outputs":[],"stateMutability":"nonpayable"},{"type":"function","name":"redemptionIndexTokenPrimaryTotalSupply","inputs":[{"name":"","type":"uint256","internalType":"uint256"}],"outputs":[{"name":"","type":"uint256","internalType":"uint256"}],"stateMutability":"view"},{"type":"function","name":"redemptionNonce","inputs":[],"outputs":[{"name":"","type":"uint256","internalType":"uint256"}],"stateMutability":"view"},{"type":"function","name":"redemptionRequestId","inputs":[{"name":"","type":"uint256","internalType":"uint256"},{"name":"","type":"address","internalType":"address"}],"outputs":[{"name":"","type":"uint256","internalType":"uint256"}],"stateMutability":"view"},{"type":"function","name":"redemptionRequesterByNonce","inputs":[{"name":"","type":"uint256","internalType":"uint256"}],"outputs":[{"name":"","type":"address","internalType":"address"}],"stateMutability":"view"},{"type":"function","name":"redemptionTokenPrimaryBalance","inputs":[{"name":"","type":"uint256","internalType":"uint256"},{"name":"","type":"address","internalType":"address"}],"outputs":[{"name":"","type":"uint256","internalType":"uint256"}],"stateMutability":"view"},{"type":"function","name":"renounceOwnership","inputs":[],"outputs":[],"stateMutability":"nonpayable"},{"type":"function","name":"requestAssetsData","inputs":[],"outputs":[{"name":"","type":"bytes32","internalType":"bytes32"}],"stateMutability":"nonpayable"},{"type":"function","name":"sellRequestAssetAmountById","inputs":[{"name":"","type":"uint256","internalType":"uint256"}],"outputs":[{"name":"","type":"uint256","internalType":"uint256"}],"stateMutability":"view"},{"type":"function","name":"setCustodianWallet","inputs":[{"name":"_custodianWallet","type":"address","internalType":"address"}],"outputs":[{"name":"","type":"bool","internalType":"bool"}],"stateMutability":"nonpayable"},{"type":"function","name":"setFeeRate","inputs":[{"name":"_newFee","type":"uint8","internalType":"uint8"}],"outputs":[],"stateMutability":"nonpayable"},{"type":"function","name":"setIssuer","inputs":[{"name":"_issuer","type":"address","internalType":"address"}],"outputs":[{"name":"","type":"bool","internalType":"bool"}],"stateMutability":"nonpayable"},{"type":"function","name":"setOracleInfo","inputs":[{"name":"_oracleAddress","type":"address","internalType":"address"},{"name":"_externalJobId","type":"bytes32","internalType":"bytes32"}],"outputs":[],"stateMutability":"nonpayable"},{"type":"function","name":"setTokenAddress","inputs":[{"name":"_token","type":"address","internalType":"address"}],"outputs":[{"name":"","type":"bool","internalType":"bool"}],"stateMutability":"nonpayable"},{"type":"function","name":"setUrl","inputs":[{"name":"_beforeAddress","type":"string","internalType":"string"},{"name":"_afterAddress","type":"string","internalType":"string"}],"outputs":[],"stateMutability":"nonpayable"},{"type":"function","name":"setUsdcAddress","inputs":[{"name":"_usdc","type":"address","internalType":"address"},{"name":"_usdcDecimals","type":"uint8","internalType":"uint8"}],"outputs":[{"name":"","type":"bool","internalType":"bool"}],"stateMutability":"nonpayable"},{"type":"function","name":"token","inputs":[],"outputs":[{"name":"","type":"address","internalType":"contract IndexToken"}],"stateMutability":"view"},{"type":"function","name":"tokenCurrentListIndex","inputs":[{"name":"","type":"address","internalType":"address"}],"outputs":[{"name":"","type":"uint256","internalType":"uint256"}],"stateMutability":"view"},{"type":"function","name":"tokenCurrentMarketShare","inputs":[{"name":"","type":"address","internalType":"address"}],"outputs":[{"name":"","type":"uint256","internalType":"uint256"}],"stateMutability":"view"},{"type":"function","name":"tokenOracleListIndex","inputs":[{"name":"","type":"address","internalType":"address"}],"outputs":[{"name":"","type":"uint256","internalType":"uint256"}],"stateMutability":"view"},{"type":"function","name":"tokenOracleMarketShare","inputs":[{"name":"","type":"address","internalType":"address"}],"outputs":[{"name":"","type":"uint256","internalType":"uint256"}],"stateMutability":"view"},{"type":"function","name":"totalCurrentList","inputs":[],"outputs":[{"name":"","type":"uint256","internalType":"uint256"}],"stateMutability":"view"},{"type":"function","name":"totalOracleList","inputs":[],"outputs":[{"name":"","type":"uint256","internalType":"uint256"}],"stateMutability":"view"},{"type":"function","name":"transferOwnership","inputs":[{"name":"newOwner","type":"address","internalType":"address"}],"outputs":[],"stateMutability":"nonpayable"},{"type":"function","name":"unpause","inputs":[],"outputs":[],"stateMutability":"nonpayable"},{"type":"function","name":"usdc","inputs":[],"outputs":[{"name":"","type":"address","internalType":"address"}],"stateMutability":"view"},{"type":"function","name":"usdcDecimals","inputs":[],"outputs":[{"name":"","type":"uint8","internalType":"uint8"}],"stateMutability":"view"},{"type":"function","name":"vault","inputs":[],"outputs":[{"name":"","type":"address","internalType":"contract NexVault"}],"stateMutability":"view"},{"type":"event","name":"ChainlinkCancelled","inputs":[{"name":"id","type":"bytes32","indexed":true,"internalType":"bytes32"}],"anonymous":false},{"type":"event","name":"ChainlinkFulfilled","inputs":[{"name":"id","type":"bytes32","indexed":true,"internalType":"bytes32"}],"anonymous":false},{"type":"event","name":"ChainlinkRequested","inputs":[{"name":"id","type":"bytes32","indexed":true,"internalType":"bytes32"}],"anonymous":false},{"type":"event","name":"Initialized","inputs":[{"name":"version","type":"uint64","indexed":false,"internalType":"uint64"}],"anonymous":false},{"type":"event","name":"OwnershipTransferred","inputs":[{"name":"previousOwner","type":"address","indexed":true,"internalType":"address"},{"name":"newOwner","type":"address","indexed":true,"internalType":"address"}],"anonymous":false},{"type":"event","name":"Paused","inputs":[{"name":"account","type":"address","indexed":false,"internalType":"address"}],"anonymous":false},{"type":"event","name":"Unpaused","inputs":[{"name":"account","type":"address","indexed":false,"internalType":"address"}],"anonymous":false},{"type":"error","name":"EnforcedPause","inputs":[]},{"type":"error","name":"ExpectedPause","inputs":[]},{"type":"error","name":"InvalidInitialization","inputs":[]},{"type":"error","name":"NotInitializing","inputs":[]},{"type":"error","name":"OwnableInvalidOwner","inputs":[{"name":"owner","type":"address","internalType":"address"}]},{"type":"error","name":"OwnableUnauthorizedAccount","inputs":[{"name":"account","type":"address","internalType":"address"}]},{"type":"error","name":"PRBMath_MulDiv_Overflow","inputs":[{"name":"x","type":"uint256","internalType":"uint256"},{"name":"y","type":"uint256","internalType":"uint256"},{"name":"denominator","type":"uint256","internalType":"uint256"}]}],"bytecode":{"object":"0x6080604052348015600f57600080fd5b50613fea8061001f6000396000f3fe608060405234801561001057600080fd5b506004361061038e5760003560e01c80638861d235116101de578063b1dd819e1161010f578063e19eefbe116100ad578063f2fde38b1161007c578063f2fde38b146108cc578063f513a718146108df578063fbfa77cf1461090a578063fc0c546a1461091d57600080fd5b8063e19eefbe14610880578063eab2a71114610893578063efa906c7146108a6578063f14bea20146108b957600080fd5b8063c8599ded116100e9578063c8599ded14610823578063c8f33c911461082c578063da65925a14610835578063daf1c17d1461086057600080fd5b8063b1dd819e146107c8578063b75f4c2c146107e7578063bed45bef1461081057600080fd5b80639cc0fb5b1161017c578063a73e1cbf11610156578063a73e1cbf14610779578063a87f98d21461078c578063a8b54bd4146107ac578063addc70d1146107b557600080fd5b80639cc0fb5b146107325780639dbb9c9e14610745578063a363b9cb1461074e57600080fd5b8063914f0cc6116101b8578063914f0cc6146106ac57806394674098146106cc578063978bbdb9146106f55780639932ba4c1461070957600080fd5b80638861d2351461063c5780638c88c10c1461065c5780638da5cb5b1461067c57600080fd5b806343482fc8116102c3578063715018a611610261578063840ecba011610230578063840ecba014610605578063845524f0146106185780638456cb591461062b57806384d77bb11461063357600080fd5b8063715018a6146105a657806378032658146105ae5780637bf42165146105d75780637ca58c55146105fd57600080fd5b80635177942a1161029d5780635177942a1461055f57806353fd43321461057257806355cc4e571461057b5780635c975abb1461058e57600080fd5b806343482fc8146105195780634a1dc0921461052c5780634b3e0b801461053f57600080fd5b8063239aad0d1161033057806326a4e8d21161030a57806326a4e8d2146104c057806331c99010146104d35780633e413bee146104fc5780633f4ba83a1461050f57600080fd5b8063239aad0d14610459578063248b761e14610482578063264fa8b91461049557600080fd5b80630e3293571161036c5780630e329357146103d85780631d143848146103f85780631e106e99146104235780632371a4de1461043657600080fd5b8063011ced5f146103935780630be52713146103af5780630c02e130146103cf575b600080fd5b61039c60265481565b6040519081526020015b60405180910390f35b61039c6103bd3660046131b4565b60116020526000908152604090205481565b61039c60095481565b6103eb6103e6366004613284565b610930565b6040516103a69190613337565b60165461040b906001600160a01b031681565b6040516001600160a01b0390911681526020016103a6565b60155461040b906001600160a01b031681565b61044961044436600461334a565b61095d565b60405190151581526020016103a6565b61040b61046736600461334a565b600d602052600090815260409020546001600160a01b031681565b61039c61049036600461334a565b610a5c565b61039c6104a3366004613363565b601a60209081526000928352604080842090915290825290205481565b6104496104ce3660046131b4565b610db9565b61040b6104e136600461334a565b6024602052600090815260409020546001600160a01b031681565b60175461040b906001600160a01b031681565b610517610e3a565b005b61051761052736600461338f565b610e4c565b61051761053a36600461334a565b610e63565b61039c61054d3660046131b4565b60126020526000908152604090205481565b61051761056d3660046133ca565b6112dd565b61039c600c5481565b6104496105893660046131b4565b611427565b600080516020613f958339815191525460ff16610449565b6105176114a5565b61040b6105bc36600461334a565b6023602052600090815260409020546001600160a01b031681565b6017546105eb90600160a01b900460ff1681565b60405160ff90911681526020016103a6565b61039c6114b7565b61051761061336600461334a565b6116f7565b61044961062636600461334a565b61184b565b610517611928565b61039c60195481565b61039c61064a36600461334a565b601c6020526000908152604090205481565b61039c61066a3660046131b4565b600f6020526000908152604090205481565b7f9016d09d72d40fdae2fd8ceac6b6234c7706214fd39c1cd1e609a0528c199300546001600160a01b031661040b565b61039c6106ba3660046131b4565b60106020526000908152604090205481565b61040b6106da36600461334a565b6022602052600090815260409020546001600160a01b031681565b6017546105eb90600160a81b900460ff1681565b61040b61071736600461334a565b600e602052600090815260409020546001600160a01b031681565b6104496107403660046131b4565b611938565b61039c60185481565b61039c61075c366004613363565b601f60209081526000928352604080842090915290825290205481565b610517610787366004613284565b6119bd565b61039c61079a36600461334a565b601d6020526000908152604090205481565b61039c60085481565b6105176107c33660046134dd565b6119e3565b61039c6107d636600461334a565b602080526000908152604090205481565b61040b6107f536600461334a565b6025602052600090815260409020546001600160a01b031681565b61051761081e36600461334a565b6119f9565b61039c600b5481565b61039c600a5481565b61039c610843366004613363565b601e60209081526000928352604080842090915290825290205481565b61039c61086e36600461334a565b60216020526000908152604090205481565b61039c61088e36600461334a565b611d19565b6104496108a1366004613536565b611e30565b6105176108b4366004613560565b611eb9565b6105176108c73660046135f0565b612138565b6105176108da3660046131b4565b6121fe565b61039c6108ed366004613363565b601b60209081526000928352604080842090915290825290205481565b60145461040b906001600160a01b031681565b60135461040b906001600160a01b031681565b6060828260405160200161094592919061365c565b60405160208183030381529060405290505b92915050565b60008060005b600c54811015610a3a576000818152600e6020908152604080832054878452601a83528184206001600160a01b039182168086529352928190205460165491516322fd455760e11b81526004810182905292939092600292909116906345fa8aae90602401602060405180830381865afa1580156109e5573d6000803e3d6000fd5b505050506040513d601f19601f82011682018060405250810190610a0991906136a1565b6003811115610a1a57610a1a61368b565b60ff1603610a3057610a2d6001856136d8565b93505b5050600101610963565b50600c548103610a4d5750600192915050565b50600092915050565b50919050565b600080610a6883611d19565b90506000610a7684836136d8565b6017546040516323b872dd60e01b81529192506001600160a01b0316906323b872dd90610aab903390309086906004016136eb565b6020604051808303816000875af1158015610aca573d6000803e3d6000fd5b505050506040513d601f19601f82011682018060405250810190610aee919061370f565b5060175460165460405163095ea7b360e01b81526001600160a01b0391821660048201526024810184905291169063095ea7b3906044016020604051808303816000875af1158015610b44573d6000803e3d6000fd5b505050506040513d601f19601f82011682018060405250810190610b68919061370f565b50600160186000828254610b7c91906136d8565b92505081905550600030604051610b92906130f2565b6001600160a01b039091168152602001604051809103906000f080158015610bbe573d6000803e3d6000fd5b50601854600090815260246020526040812080546001600160a01b0319166001600160a01b0384161790559091505b600c54811015610dac576000818152600e60209081526040808320546001600160a01b0316808452601190925282205490919068056bc75e2d6310000090610c35908a613731565b610c3f919061375e565b90506000610c4e83838761223c565b6000818152601c60209081526040808320869055601880548452601a83528184206001600160a01b038981168087529185528386208790559154855260229093529281902080546001600160a01b0319163317905560145490516370a0823160e01b8152921660048301529192506370a0823190602401602060405180830381865afa158015610ce2573d6000803e3d6000fd5b505050506040513d601f19601f82011682018060405250810190610d069190613772565b6018546000908152601e602090815260408083206001600160a01b038089168552908352928190209390935560135483516318160ddd60e01b815293519216926318160ddd92600480830193928290030181865afa158015610d6c573d6000803e3d6000fd5b505050506040513d601f19601f82011682018060405250810190610d909190613772565b6018546000908152602080526040902055505050600101610bed565b5050601854949350505050565b6000610dc3612396565b6001600160a01b038216610e165760405162461bcd60e51b8152602060048201526015602482015274696e76616c696420746f6b656e206164647265737360581b60448201526064015b60405180910390fd5b50601380546001600160a01b0319166001600160a01b03831617905560015b919050565b610e42612396565b610e4a6123f1565b565b610e54612396565b610e5d82612451565b60085550565b6013546040516323b872dd60e01b81526001600160a01b03909116906323b872dd90610e97903390309086906004016136eb565b6020604051808303816000875af1158015610eb6573d6000803e3d6000fd5b505050506040513d601f19601f82011682018060405250810190610eda919061370f565b5060135460165460405163095ea7b360e01b81526001600160a01b0391821660048201526024810184905291169063095ea7b3906044016020604051808303816000875af1158015610f30573d6000803e3d6000fd5b505050506040513d601f19601f82011682018060405250810190610f54919061370f565b50600160196000828254610f6891906136d8565b92505081905550600030604051610f7e906130f2565b6001600160a01b039091168152602001604051809103906000f080158015610faa573d6000803e3d6000fd5b50601854600090815260256020908152604080832080546001600160a01b0319166001600160a01b038681169190911790915560135482516318160ddd60e01b8152925195965093949316926318160ddd926004808401939192918290030181865afa15801561101e573d6000803e3d6000fd5b505050506040513d601f19601f820116820180604052508101906110429190613772565b61105484670de0b6b3a7640000613731565b61105e919061375e565b601354604051632770a7eb60e21b8152336004820152602481018690529192506001600160a01b031690639dc29fac90604401600060405180830381600087803b1580156110ab57600080fd5b505af11580156110bf573d6000803e3d6000fd5b5050505060005b600c548110156112d7576000818152600e60205260408082205490516370a0823160e01b81523060048201526001600160a01b039091169190670de0b6b3a76400009083906370a0823190602401602060405180830381865afa158015611131573d6000803e3d6000fd5b505050506040513d601f19601f820116820180604052508101906111559190613772565b61115f9086613731565b611169919061375e565b90506000611178838388612473565b6000818152601d60209081526040808320869055601980548452601b83528184206001600160a01b038981168087529185528386208790559154855260239093529281902080546001600160a01b0319163317905560145490516370a0823160e01b8152921660048301529192506370a0823190602401602060405180830381865afa15801561120c573d6000803e3d6000fd5b505050506040513d601f19601f820116820180604052508101906112309190613772565b6019546000908152601f602090815260408083206001600160a01b038089168552908352928190209390935560135483516318160ddd60e01b815293519216926318160ddd92600480830193928290030181865afa158015611296573d6000803e3d6000fd5b505050506040513d601f19601f820116820180604052508101906112ba9190613772565b6019546000908152602160205260409020555050506001016110c6565b50505050565b6112e5612396565b6000602654426112f5919061378b565b9050600c603c611305818461375e565b61130f919061375e565b116113825760405162461bcd60e51b815260206004820152603960248201527f596f752073686f756c642077616974206174206c6561737420313220686f757260448201527f7320616674657220746865206c617465737420757064617465000000000000006064820152608401610e0d565b60648260ff161115801561139a575060018260ff1610155b6114025760405162461bcd60e51b815260206004820152603360248201527f546865206e65774665652073686f756c64206265206265747765656e203120616044820152726e64203130302028302e303125202d2031252960681b6064820152608401610e0d565b506017805460ff909216600160a81b0260ff60a81b1990921691909117905542602655565b6000611431612396565b6001600160a01b0382166114805760405162461bcd60e51b8152602060048201526016602482015275696e76616c696420697373756572206164647265737360501b6044820152606401610e0d565b50601680546001600160a01b0383166001600160a01b03199091161790556001919050565b6114ad612396565b610e4a600061251c565b6000806115d8600680546114ca9061379e565b80601f01602080910402602001604051908101604052809291908181526020018280546114f69061379e565b80156115435780601f1061151857610100808354040283529160200191611543565b820191906000526020600020905b81548152906001019060200180831161152657829003601f168201915b5050505050600780546115559061379e565b80601f01602080910402602001604051908101604052809291908181526020018280546115819061379e565b80156115ce5780601f106115a3576101008083540402835291602001916115ce565b820191906000526020600020905b8154815290600101906020018083116115b157829003601f168201915b5050505050610930565b905060006115f06008543063f14bea2060e01b61258d565b60408051808201909152600381526219d95d60ea1b6020820152909150611619908290846125b2565b61167460405180604001604052806005815260200164706174683160d81b81525060405180604001604052806011815260200170726573756c74732c61646472657373657360781b815250836125b29092919063ffffffff16565b6116d2604051806040016040528060058152602001643830ba341960d91b81525060405180604001604052806014815260200173726573756c74732c6d61726b657453686172657360601b815250836125b29092919063ffffffff16565b6116f06116e76003546001600160a01b031690565b826009546125d0565b9250505090565b6117008161184b565b61174c5760405162461bcd60e51b815260206004820152601860248201527f526564656d7074696f6e206e6f7420636f6d706c6574656400000000000000006044820152606401610e0d565b60008181526023602090815260408083205460259092528083205460175491516370a0823160e01b81526001600160a01b0391821660048201819052938216949291909116906370a0823190602401602060405180830381865afa1580156117b8573d6000803e3d6000fd5b505050506040513d601f19601f820116820180604052508101906117dc9190613772565b6017546040516317ee7de960e11b81529192506001600160a01b0380851692632fdcfbd292611813921690879086906004016136eb565b600060405180830381600087803b15801561182d57600080fd5b505af1158015611841573d6000803e3d6000fd5b5050505050505050565b60008060005b600c54811015610a3a576000818152600e6020908152604080832054878452601b83528184206001600160a01b039182168086529352928190205460165491516322fd455760e11b81526004810182905292939092600292909116906345fa8aae90602401602060405180830381865afa1580156118d3573d6000803e3d6000fd5b505050506040513d601f19601f820116820180604052508101906118f791906136a1565b60038111156119085761190861368b565b60ff160361191e5761191b6001856136d8565b93505b5050600101611851565b611930612396565b610e4a612659565b6000611942612396565b6001600160a01b0382166119985760405162461bcd60e51b815260206004820181905260248201527f696e76616c696420637573746f6469616e2077616c6c657420616464726573736044820152606401610e0d565b50601580546001600160a01b0383166001600160a01b03199091161790556001919050565b6119c5612396565b60066119d18382613822565b5060076119de8282613822565b505050565b6119eb612396565b6119f582826126a2565b5050565b611a028161095d565b611a475760405162461bcd60e51b8152602060048201526016602482015275125cdcdd585b98d9481b9bdd0818dbdb5c1b195d195960521b6044820152606401610e0d565b6000818152602260205260408120546001600160a01b03169080805b600c54811015611c75576000818152600e6020908152604080832054888452601a83528184206001600160a01b03918216808652935281842054601654601754935163a377cfbf60e01b815260048101869052938316602485015293949093909291169063a377cfbf906044016040805180830381865afa158015611aec573d6000803e3d6000fd5b505050506040513d601f19601f82011682018060405250810190611b1091906138e1565b60008981526024602081905260408083205490516370a0823160e01b81526001600160a01b0391821660048201819052949550908716916370a082319101602060405180830381865afa158015611b6b573d6000803e3d6000fd5b505050506040513d601f19601f82011682018060405250810190611b8f9190613772565b60008b8152601e602090815260408083206001600160a01b038a168452909152812054855192935091611bc29083613731565b6000878152601c602052604081205491925090611bdf90836136d8565b9050611beb828c6136d8565b9a50611bf7818b6136d8565b6014546040516317ee7de960e11b8152919b506001600160a01b0380881692632fdcfbd292611c2f928d9291169089906004016136eb565b600060405180830381600087803b158015611c4957600080fd5b505af1158015611c5d573d6000803e3d6000fd5b50506001909a019950611a6398505050505050505050565b5060008481526020805260408120549083611c908484613731565b611c9a919061375e565b90506000611ca8838361378b565b6013546040516340c10f1960e01b81526001600160a01b038981166004830152602482018490529293509116906340c10f1990604401600060405180830381600087803b158015611cf857600080fd5b505af1158015611d0c573d6000803e3d6000fd5b5050505050505050505050565b60008060005b600c54811015611e29576000818152600e60209081526040808320546001600160a01b0316808452601190925282205490919068056bc75e2d6310000090611d679088613731565b611d71919061375e565b6016546017546040516308da5c3560e21b81526000600482018190526001600160a01b0392831660248301529394508392919091169063236970d4906044016040805180830381865afa158015611dcc573d6000803e3d6000fd5b505050506040513d601f19601f82011682018060405250810190611df09190613940565b915091506000611e0082856128c3565b611e0a90846136d8565b9050611e1681886136d8565b96505060019094019350611d1f92505050565b5092915050565b6000611e3a612396565b6001600160a01b038316611e885760405162461bcd60e51b8152602060048201526015602482015274696e76616c696420746f6b656e206164647265737360581b6044820152606401610e0d565b506017805460ff8316600160a01b026001600160a81b03199091166001600160a01b03851617179055600192915050565b7ff0c57e16840df040f15088dc2f81fe391c3923bec73e23a9662efc9c229c6a008054600160401b810460ff1615906001600160401b0316600081158015611efe5750825b90506000826001600160401b03166001148015611f1a5750303b155b905081158015611f28575080155b15611f465760405163f92ee8a960e01b815260040160405180910390fd5b845467ffffffffffffffff191660011785558315611f7057845460ff60401b1916600160401b1785555b8c601660006101000a8154816001600160a01b0302191690836001600160a01b031602179055508b601360006101000a8154816001600160a01b0302191690836001600160a01b031602179055508a601460006101000a8154816001600160a01b0302191690836001600160a01b0316021790555089601760006101000a8154816001600160a01b0302191690836001600160a01b0316021790555088601760146101000a81548160ff021916908360ff160217905550612030336128ec565b6120386128fd565b6017805460ff60a81b1916600560a91b179055600280546001600160a01b0319166001600160a01b038a1617905561206f87612451565b6008869055600a612089670de0b6b3a76400006001613731565b612093919061375e565b6009556040805160608101909152602a808252613f3d60208301396006906120bb9082613822565b506040518060600160405280602e8152602001613f67602e91396007906120e29082613822565b50831561212957845460ff60401b19168555604051600181527fc7f505b2f371ae2175ee4913f4499e1f2633a7b5936321eed1cdaeb6115181d29060200160405180910390a15b50505050505050505050505050565b60008381526005602052604090205483906001600160a01b031633146121b15760405162461bcd60e51b815260206004820152602860248201527f536f75726365206d75737420626520746865206f7261636c65206f6620746865604482015267081c995c5d595cdd60c21b6064820152608401610e0d565b60008181526005602052604080822080546001600160a01b03191690555182917f7cc135e0cebb02c3480ae5d74d377283180a2601f8f644edf7987b009316c63a91a26112d783836126a2565b612206612396565b6001600160a01b03811661223057604051631e4fbdf760e01b815260006004820152602401610e0d565b6122398161251c565b50565b6016546017546040516308da5c3560e21b81526000600482018190526001600160a01b039283166024830152928392839291169063236970d4906044016040805180830381865afa158015612295573d6000803e3d6000fd5b505050506040513d601f19601f820116820180604052508101906122b99190613940565b9150915060006122c982876128c3565b6122d390846136d8565b905060006122e1600061290d565b6001600160a01b0380881660208301528916604082015260e081018890529050600061230d83896136d8565b60165460405163aa2165f160e01b81529192506000916001600160a01b039091169063aa2165f19061234390869060040161399c565b6020604051808303816000875af1158015612362573d6000803e3d6000fd5b505050506040513d601f19601f820116820180604052508101906123869190613772565b96505050505050505b9392505050565b336123c87f9016d09d72d40fdae2fd8ceac6b6234c7706214fd39c1cd1e609a0528c199300546001600160a01b031690565b6001600160a01b031614610e4a5760405163118cdaa760e01b8152336004820152602401610e0d565b6123f96129c4565b600080516020613f95833981519152805460ff191681557f5db9ee0a495bf2e6ff9c91a7834c1ba4fdd244a5e8aa4e537bd38aeae4b073aa335b6040516001600160a01b03909116815260200160405180910390a150565b600380546001600160a01b0319166001600160a01b0392909216919091179055565b600080612480600161290d565b6001600160a01b0380871660408084019190915260c083018790528582166020840152601654905163aa2165f160e01b815292935060009291169063aa2165f1906124cf90859060040161399c565b6020604051808303816000875af11580156124ee573d6000803e3d6000fd5b505050506040513d601f19601f820116820180604052508101906125129190613772565b9695505050505050565b7f9016d09d72d40fdae2fd8ceac6b6234c7706214fd39c1cd1e609a0528c19930080546001600160a01b031981166001600160a01b03848116918217845560405192169182907f8be0079c531659141344cd1fd0a4f28419497f9722a3daafe3b4186f6b6457e090600090a3505050565b6125956130ff565b61259d6130ff565b6125a9818686866129f4565b95945050505050565b60808301516125c19083612a3a565b60808301516119de9082612a3a565b6004546000906125e18160016136d8565b600455835160408086015160808701515191516000936320214ca360e11b936126199386938493923092918a91600191602401613a61565b60408051601f198184030181529190526020810180516001600160e01b03166001600160e01b031990931692909217909152905061251286838684612a51565b612661612baf565b600080516020613f95833981519152805460ff191660011781557f62e78cea01bee320cd4e420270b5ea74000d11b0c9f74754ebdbfc544b05a25833612433565b818160005b82518110156128a3578281815181106126c2576126c2613ac9565b6020026020010151600d600083815260200190815260200160002060006101000a8154816001600160a01b0302191690836001600160a01b0316021790555080600f600085848151811061271857612718613ac9565b60200260200101516001600160a01b03166001600160a01b031681526020019081526020016000208190555081818151811061275657612756613ac9565b60200260200101516012600085848151811061277457612774613ac9565b60200260200101516001600160a01b03166001600160a01b0316815260200190815260200160002081905550600c5460000361289b578281815181106127bc576127bc613ac9565b6020026020010151600e600083815260200190815260200160002060006101000a8154816001600160a01b0302191690836001600160a01b0316021790555081818151811061280d5761280d613ac9565b60200260200101516011600085848151811061282b5761282b613ac9565b60200260200101516001600160a01b03166001600160a01b0316815260200190815260200160002081905550806010600085848151811061286e5761286e613ac9565b60200260200101516001600160a01b03166001600160a01b03168152602001908152602001600020819055505b6001016126a7565b508151600b55600c546000036128b9578151600c555b505042600a555050565b60008262ffffff166000036128d957600061238f565b61238f8262ffffff8516620f4240612be0565b6128f4612cb4565b61223981612cfd565b612905612cb4565b610e4a612d05565b61291561313f565b60408051610140810182526001600160401b03421681523060208201526013546001600160a01b03908116928201929092526017549091166060820152821515608082015260a08101600081526020018361297157600061297c565b68056bc75e2d631000005b68ffffffffffffffffff168152602001836129a05768056bc75e2d631000006129a3565b60005b68ffffffffffffffffff168152600060208201526040016001905292915050565b600080516020613f958339815191525460ff16610e4a57604051638dfc202b60e01b815260040160405180910390fd5b6129fc6130ff565b612a0c8560800151610100612d26565b50508284526001600160a01b03821660208501526001600160e01b031981166040850152835b949350505050565b612a478260038351612d8b565b6119de8282612e92565b6040516bffffffffffffffffffffffff193060601b1660208201526034810184905260009060540160408051808303601f1901815282825280516020918201206000818152600590925291812080546001600160a01b0319166001600160a01b038a1617905590925082917fb5e6e01e79f91267dc17b4e6314d5d4d03593d2ceee0fbb452b750bd70ea5af99190a2600254604051630200057560e51b81526001600160a01b0390911690634000aea090612b1490889087908790600401613adf565b6020604051808303816000875af1158015612b33573d6000803e3d6000fd5b505050506040513d601f19601f82011682018060405250810190612b57919061370f565b612a325760405162461bcd60e51b815260206004820152602360248201527f756e61626c6520746f207472616e73666572416e6443616c6c20746f206f7261604482015262636c6560e81b6064820152608401610e0d565b600080516020613f958339815191525460ff1615610e4a5760405163d93c066560e01b815260040160405180910390fd5b6000808060001985870985870292508281108382030391505080600003612c1a57838281612c1057612c10613748565b049250505061238f565b838110612c4b57604051630c740aef60e31b8152600481018790526024810186905260448101859052606401610e0d565b60008486880960026001871981018816978890046003810283188082028403028082028403028082028403028082028403028082028403029081029092039091026000889003889004909101858311909403939093029303949094049190911702949350505050565b7ff0c57e16840df040f15088dc2f81fe391c3923bec73e23a9662efc9c229c6a0054600160401b900460ff16610e4a57604051631afcd79f60e31b815260040160405180910390fd5b612206612cb4565b612d0d612cb4565b600080516020613f95833981519152805460ff19169055565b604080518082019091526060815260006020820152612d46602083613b06565b15612d6e57612d56602083613b06565b612d6190602061378b565b612d6b90836136d8565b91505b506020828101829052604080518085526000815290920101905290565b6017816001600160401b031611612daf576112d78360e0600585901b168317612eb9565b60ff816001600160401b031611612deb57612dd5836018611fe0600586901b1617612eb9565b506112d7836001600160401b0383166001612ede565b61ffff816001600160401b031611612e2857612e12836019611fe0600586901b1617612eb9565b506112d7836001600160401b0383166002612ede565b63ffffffff816001600160401b031611612e6757612e5183601a611fe0600586901b1617612eb9565b506112d7836001600160401b0383166004612ede565b612e7c83601b611fe0600586901b1617612eb9565b506112d7836001600160401b0383166008612ede565b60408051808201909152606081526000602082015261238f83846000015151848551612f04565b60408051808201909152606081526000602082015261238f8384600001515184612fee565b604080518082019091526060815260006020820152612a32848560000151518585613049565b6040805180820190915260608152600060208201528251821115612f2757600080fd5b6020850151612f3683866136d8565b1115612f6957612f6985612f5987602001518786612f5491906136d8565b6130ca565b612f64906002613731565b6130db565b600080865180518760208301019350808887011115612f885787860182525b505050602084015b60208410612fc85780518252612fa76020836136d8565b9150612fb46020826136d8565b9050612fc160208561378b565b9350612f90565b51815160001960208690036101000a019081169019919091161790525083949350505050565b60408051808201909152606081526000602082015283602001518310613023576130238485602001516002612f649190613731565b835180516020858301018481535080850361303f576001810182525b5093949350505050565b604080518082019091526060815260006020820152602085015161306d85846136d8565b11156130815761308185612f5986856136d8565b6000600161309184610100613bfe565b61309b919061378b565b90508551838682010185831982511617815250805184870111156130bf5783860181525b509495945050505050565b600081831115610a56575081610957565b81516130e78383612d26565b506112d78382612e92565b61033280613c0b83390190565b6040805160a0810182526000808252602080830182905282840182905260608084018390528451808601909552845283015290608082015290565b905290565b604080516101408101825260008082526020820181905291810182905260608101829052608081018290529060a082019081526020016000815260200160008152602001600081526020016000600381111561313a5761313a61368b565b80356001600160a01b0381168114610e3557600080fd5b6000602082840312156131c657600080fd5b61238f8261319d565b634e487b7160e01b600052604160045260246000fd5b604051601f8201601f191681016001600160401b038111828210171561320d5761320d6131cf565b604052919050565b600082601f83011261322657600080fd5b81356001600160401b0381111561323f5761323f6131cf565b613252601f8201601f19166020016131e5565b81815284602083860101111561326757600080fd5b816020850160208301376000918101602001919091529392505050565b6000806040838503121561329757600080fd5b82356001600160401b03808211156132ae57600080fd5b6132ba86838701613215565b935060208501359150808211156132d057600080fd5b506132dd85828601613215565b9150509250929050565b60005b838110156133025781810151838201526020016132ea565b50506000910152565b600081518084526133238160208601602086016132e7565b601f01601f19169290920160200192915050565b60208152600061238f602083018461330b565b60006020828403121561335c57600080fd5b5035919050565b6000806040838503121561337657600080fd5b823591506133866020840161319d565b90509250929050565b600080604083850312156133a257600080fd5b6133ab8361319d565b946020939093013593505050565b803560ff81168114610e3557600080fd5b6000602082840312156133dc57600080fd5b61238f826133b9565b60006001600160401b038211156133fe576133fe6131cf565b5060051b60200190565b600082601f83011261341957600080fd5b8135602061342e613429836133e5565b6131e5565b8083825260208201915060208460051b87010193508684111561345057600080fd5b602086015b84811015613473576134668161319d565b8352918301918301613455565b509695505050505050565b600082601f83011261348f57600080fd5b8135602061349f613429836133e5565b8083825260208201915060208460051b8701019350868411156134c157600080fd5b602086015b8481101561347357803583529183019183016134c6565b600080604083850312156134f057600080fd5b82356001600160401b038082111561350757600080fd5b61351386838701613408565b9350602085013591508082111561352957600080fd5b506132dd8582860161347e565b6000806040838503121561354957600080fd5b6135528361319d565b9150613386602084016133b9565b600080600080600080600080610100898b03121561357d57600080fd5b6135868961319d565b975061359460208a0161319d565b96506135a260408a0161319d565b95506135b060608a0161319d565b94506135be60808a016133b9565b93506135cc60a08a0161319d565b92506135da60c08a0161319d565b915060e089013590509295985092959890939650565b60008060006060848603121561360557600080fd5b8335925060208401356001600160401b038082111561362357600080fd5b61362f87838801613408565b9350604086013591508082111561364557600080fd5b506136528682870161347e565b9150509250925092565b6000835161366e8184602088016132e7565b8351908301906136828183602088016132e7565b01949350505050565b634e487b7160e01b600052602160045260246000fd5b6000602082840312156136b357600080fd5b81516004811061238f57600080fd5b634e487b7160e01b600052601160045260246000fd5b80820180821115610957576109576136c2565b6001600160a01b039384168152919092166020820152604081019190915260600190565b60006020828403121561372157600080fd5b8151801515811461238f57600080fd5b8082028115828204841417610957576109576136c2565b634e487b7160e01b600052601260045260246000fd5b60008261376d5761376d613748565b500490565b60006020828403121561378457600080fd5b5051919050565b81810381811115610957576109576136c2565b600181811c908216806137b257607f821691505b602082108103610a5657634e487b7160e01b600052602260045260246000fd5b601f8211156119de576000816000526020600020601f850160051c810160208610156137fb5750805b601f850160051c820191505b8181101561381a57828155600101613807565b505050505050565b81516001600160401b0381111561383b5761383b6131cf565b61384f81613849845461379e565b846137d2565b602080601f831160018114613884576000841561386c5750858301515b600019600386901b1c1916600185901b17855561381a565b600085815260208120601f198616915b828110156138b357888601518255948401946001909101908401613894565b50858210156138d15787850151600019600388901b60f8161c191681555b5050505050600190811b01905550565b6000604082840312156138f357600080fd5b604051604081016001600160401b038282108183111715613916576139166131cf565b816040528451835260208501519150808216821461393357600080fd5b5060208201529392505050565b6000806040838503121561395357600080fd5b82519150602083015162ffffff8116811461396d57600080fd5b809150509250929050565b600281106139885761398861368b565b9052565b600481106139885761398861368b565b81516001600160401b03168152610140810160208301516139c860208401826001600160a01b03169052565b5060408301516139e360408401826001600160a01b03169052565b5060608301516139fe60608401826001600160a01b03169052565b506080830151613a12608084018215159052565b5060a0830151613a2560a0840182613978565b5060c083015160c083015260e083015160e083015261010080840151818401525061012080840151613a598285018261398c565b505092915050565b6001600160a01b0389811682526020820189905260408201889052861660608201526001600160e01b03198516608082015260a0810184905260c0810183905261010060e08201819052600090613aba8382018561330b565b9b9a5050505050505050505050565b634e487b7160e01b600052603260045260246000fd5b60018060a01b03841681528260208201526060604082015260006125a9606083018461330b565b600082613b1557613b15613748565b500690565b600181815b80851115613b55578160001904821115613b3b57613b3b6136c2565b80851615613b4857918102915b93841c9390800290613b1f565b509250929050565b600082613b6c57506001610957565b81613b7957506000610957565b8160018114613b8f5760028114613b9957613bb5565b6001915050610957565b60ff841115613baa57613baa6136c2565b50506001821b610957565b5060208310610133831016604e8410600b8410161715613bd8575081810a610957565b613be28383613b1a565b8060001904821115613bf657613bf66136c2565b029392505050565b600061238f8383613b5d56fe6080604052348015600f57600080fd5b50604051610332380380610332833981016040819052602c916050565b600080546001600160a01b0319166001600160a01b0392909216919091179055607e565b600060208284031215606157600080fd5b81516001600160a01b0381168114607757600080fd5b9392505050565b6102a58061008d6000396000f3fe608060405234801561001057600080fd5b50600436106100415760003560e01c806313af4035146100465780632fdcfbd21461005b5780638da5cb5b1461006e575b600080fd5b6100596100543660046101ef565b61009d565b005b610059610069366004610211565b61010f565b600054610081906001600160a01b031681565b6040516001600160a01b03909116815260200160405180910390f35b6000546001600160a01b031633146100ed5760405162461bcd60e51b815260206004820152600e60248201526d139bdd08185d5d1a1bdc9a5e995960921b60448201526064015b60405180910390fd5b600080546001600160a01b0319166001600160a01b0392909216919091179055565b6000546001600160a01b0316331461015a5760405162461bcd60e51b815260206004820152600e60248201526d139bdd08185d5d1a1bdc9a5e995960921b60448201526064016100e4565b60405163a9059cbb60e01b81526001600160a01b0383811660048301526024820183905284169063a9059cbb906044016020604051808303816000875af11580156101a9573d6000803e3d6000fd5b505050506040513d601f19601f820116820180604052508101906101cd919061024d565b50505050565b80356001600160a01b03811681146101ea57600080fd5b919050565b60006020828403121561020157600080fd5b61020a826101d3565b9392505050565b60008060006060848603121561022657600080fd5b61022f846101d3565b925061023d602085016101d3565b9150604084013590509250925092565b60006020828403121561025f57600080fd5b8151801515811461020a57600080fdfea2646970667358221220502fe3cef5472467ba27d3f0af8cc13ea970369ac0d01284025186802306355064736f6c6343000819003368747470733a2f2f6170702e6e65786c6162732e696f2f6170692f616c6c46756e64696e6752617465733f6d756c7469706c7946756e633d31382674696d65734e656746756e643d74727565266172726179733d74727565cd5ed15c6e187e77e9aee88184c21f4f2182ab5827cb3b7e07fbedcd63f03300a2646970667358221220efe27a1c9c6c1f8f4fa6510495a9caf61bbf14dcb8bff64e6ffac4c64e1541dd64736f6c63430008190033","linkReferences":{}},"methodIdentifiers":{"buyRequestPayedAmountById(uint256)":"8861d235","calculateIssuanceFee(uint256)":"e19eefbe","checkIssuance(uint256)":"2371a4de","checkRedemption(uint256)":"845524f0","coaByIssuanceNonce(uint256)":"31c99010","coaByRedemptionNonce(uint256)":"b75f4c2c","completeIssuance(uint256)":"bed45bef","completeRedemption(uint256)":"840ecba0","concatenation(string,string)":"0e329357","currentList(uint256)":"9932ba4c","custodianWallet()":"1e106e99","externalJobId()":"a8b54bd4","feeRate()":"978bbdb9","fulfillAssetsData(bytes32,address[],uint256[])":"f14bea20","initialize(address,address,address,address,uint8,address,address,bytes32)":"efa906c7","issuance(uint256)":"248b761e","issuanceIndexTokenPrimaryTotalSupply(uint256)":"b1dd819e","issuanceNonce()":"9dbb9c9e","issuanceRequestId(uint256,address)":"264fa8b9","issuanceRequesterByNonce(uint256)":"94674098","issuanceTokenPrimaryBalance(uint256,address)":"da65925a","issuer()":"1d143848","lastUpdateTime()":"c8f33c91","latestFeeUpdate()":"011ced5f","mockFillAssetsList(address[],uint256[])":"addc70d1","oracleList(uint256)":"239aad0d","oraclePayment()":"0c02e130","owner()":"8da5cb5b","pause()":"8456cb59","paused()":"5c975abb","redemption(uint256)":"4a1dc092","redemptionIndexTokenPrimaryTotalSupply(uint256)":"daf1c17d","redemptionNonce()":"84d77bb1","redemptionRequestId(uint256,address)":"f513a718","redemptionRequesterByNonce(uint256)":"78032658","redemptionTokenPrimaryBalance(uint256,address)":"a363b9cb","renounceOwnership()":"715018a6","requestAssetsData()":"7ca58c55","sellRequestAssetAmountById(uint256)":"a87f98d2","setCustodianWallet(address)":"9cc0fb5b","setFeeRate(uint8)":"5177942a","setIssuer(address)":"55cc4e57","setOracleInfo(address,bytes32)":"43482fc8","setTokenAddress(address)":"26a4e8d2","setUrl(string,string)":"a73e1cbf","setUsdcAddress(address,uint8)":"eab2a711","token()":"fc0c546a","tokenCurrentListIndex(address)":"914f0cc6","tokenCurrentMarketShare(address)":"0be52713","tokenOracleListIndex(address)":"8c88c10c","tokenOracleMarketShare(address)":"4b3e0b80","totalCurrentList()":"53fd4332","totalOracleList()":"c8599ded","transferOwnership(address)":"f2fde38b","unpause()":"3f4ba83a","usdc()":"3e413bee","usdcDecimals()":"7bf42165","vault()":"fbfa77cf"},"id":16}