{"abi":[{"type":"function","name":"burnedTokenAmountByNonce","inputs":[{"name":"","type":"uint256","internalType":"uint256"}],"outputs":[{"name":"","type":"uint256","internalType":"uint256"}],"stateMutability":"view"},{"type":"function","name":"buyRequestPayedAmountById","inputs":[{"name":"","type":"uint256","internalType":"uint256"}],"outputs":[{"name":"","type":"uint256","internalType":"uint256"}],"stateMutability":"view"},{"type":"function","name":"calculateIssuanceFee","inputs":[{"name":"_inputAmount","type":"uint256","internalType":"uint256"}],"outputs":[{"name":"","type":"uint256","internalType":"uint256"}],"stateMutability":"view"},{"type":"function","name":"cancelIssuance","inputs":[{"name":"_issuanceNonce","type":"uint256","internalType":"uint256"}],"outputs":[],"stateMutability":"nonpayable"},{"type":"function","name":"cancelIssuanceComplted","inputs":[{"name":"","type":"uint256","internalType":"uint256"}],"outputs":[{"name":"","type":"bool","internalType":"bool"}],"stateMutability":"view"},{"type":"function","name":"cancelIssuanceRequestId","inputs":[{"name":"","type":"uint256","internalType":"uint256"},{"name":"","type":"address","internalType":"address"}],"outputs":[{"name":"","type":"uint256","internalType":"uint256"}],"stateMutability":"view"},{"type":"function","name":"cancelRedemption","inputs":[{"name":"_redemptionNonce","type":"uint256","internalType":"uint256"}],"outputs":[],"stateMutability":"nonpayable"},{"type":"function","name":"cancelRedemptionComplted","inputs":[{"name":"","type":"uint256","internalType":"uint256"}],"outputs":[{"name":"","type":"bool","internalType":"bool"}],"stateMutability":"view"},{"type":"function","name":"cancelRedemptionRequestId","inputs":[{"name":"","type":"uint256","internalType":"uint256"},{"name":"","type":"address","internalType":"address"}],"outputs":[{"name":"","type":"uint256","internalType":"uint256"}],"stateMutability":"view"},{"type":"function","name":"checkCancelIssuanceStatus","inputs":[{"name":"_issuanceNonce","type":"uint256","internalType":"uint256"}],"outputs":[{"name":"","type":"bool","internalType":"bool"}],"stateMutability":"view"},{"type":"function","name":"checkCancelRedemptionStatus","inputs":[{"name":"_redemptionNonce","type":"uint256","internalType":"uint256"}],"outputs":[{"name":"","type":"bool","internalType":"bool"}],"stateMutability":"view"},{"type":"function","name":"checkIssuanceOrdersStatus","inputs":[{"name":"_issuanceNonce","type":"uint256","internalType":"uint256"}],"outputs":[{"name":"","type":"bool","internalType":"bool"}],"stateMutability":"view"},{"type":"function","name":"checkRedemptionOrdersStatus","inputs":[{"name":"_redemptionNonce","type":"uint256","internalType":"uint256"}],"outputs":[{"name":"","type":"bool","internalType":"bool"}],"stateMutability":"view"},{"type":"function","name":"coaByIssuanceNonce","inputs":[{"name":"","type":"uint256","internalType":"uint256"}],"outputs":[{"name":"","type":"address","internalType":"address"}],"stateMutability":"view"},{"type":"function","name":"coaByRedemptionNonce","inputs":[{"name":"","type":"uint256","internalType":"uint256"}],"outputs":[{"name":"","type":"address","internalType":"address"}],"stateMutability":"view"},{"type":"function","name":"completeCancelIssuance","inputs":[{"name":"_issuanceNonce","type":"uint256","internalType":"uint256"}],"outputs":[],"stateMutability":"nonpayable"},{"type":"function","name":"completeCancelRedemption","inputs":[{"name":"_redemptionNonce","type":"uint256","internalType":"uint256"}],"outputs":[],"stateMutability":"nonpayable"},{"type":"function","name":"completeIssuance","inputs":[{"name":"_issuanceNonce","type":"uint256","internalType":"uint256"}],"outputs":[],"stateMutability":"nonpayable"},{"type":"function","name":"completeRedemption","inputs":[{"name":"_redemptionNonce","type":"uint256","internalType":"uint256"}],"outputs":[],"stateMutability":"nonpayable"},{"type":"function","name":"concatenation","inputs":[{"name":"a","type":"string","internalType":"string"},{"name":"b","type":"string","internalType":"string"}],"outputs":[{"name":"","type":"string","internalType":"string"}],"stateMutability":"pure"},{"type":"function","name":"currentList","inputs":[{"name":"","type":"uint256","internalType":"uint256"}],"outputs":[{"name":"","type":"address","internalType":"address"}],"stateMutability":"view"},{"type":"function","name":"custodianWallet","inputs":[],"outputs":[{"name":"","type":"address","internalType":"address"}],"stateMutability":"view"},{"type":"function","name":"externalJobId","inputs":[],"outputs":[{"name":"","type":"bytes32","internalType":"bytes32"}],"stateMutability":"view"},{"type":"function","name":"feeRate","inputs":[],"outputs":[{"name":"","type":"uint8","internalType":"uint8"}],"stateMutability":"view"},{"type":"function","name":"firstRebalanceAction","inputs":[],"outputs":[],"stateMutability":"nonpayable"},{"type":"function","name":"fulfillAssetsData","inputs":[{"name":"requestId","type":"bytes32","internalType":"bytes32"},{"name":"_tokens","type":"address[]","internalType":"address[]"},{"name":"_marketShares","type":"uint256[]","internalType":"uint256[]"}],"outputs":[],"stateMutability":"nonpayable"},{"type":"function","name":"getOrderInstanceById","inputs":[{"name":"id","type":"uint256","internalType":"uint256"}],"outputs":[{"name":"","type":"tuple","internalType":"struct IOrderProcessor.Order","components":[{"name":"requestTimestamp","type":"uint64","internalType":"uint64"},{"name":"recipient","type":"address","internalType":"address"},{"name":"assetToken","type":"address","internalType":"address"},{"name":"paymentToken","type":"address","internalType":"address"},{"name":"sell","type":"bool","internalType":"bool"},{"name":"orderType","type":"uint8","internalType":"enum IOrderProcessor.OrderType"},{"name":"assetTokenQuantity","type":"uint256","internalType":"uint256"},{"name":"paymentTokenQuantity","type":"uint256","internalType":"uint256"},{"name":"price","type":"uint256","internalType":"uint256"},{"name":"tif","type":"uint8","internalType":"enum IOrderProcessor.TIF"}]}],"stateMutability":"view"},{"type":"function","name":"initialize","inputs":[{"name":"_issuer","type":"address","internalType":"address"},{"name":"_token","type":"address","internalType":"address"},{"name":"_vault","type":"address","internalType":"address"},{"name":"_usdc","type":"address","internalType":"address"},{"name":"_usdcDecimals","type":"uint8","internalType":"uint8"},{"name":"_chainlinkToken","type":"address","internalType":"address"},{"name":"_oracleAddress","type":"address","internalType":"address"},{"name":"_externalJobId","type":"bytes32","internalType":"bytes32"}],"outputs":[],"stateMutability":"nonpayable"},{"type":"function","name":"isIssuanceOrderActive","inputs":[{"name":"_issuanceNonce","type":"uint256","internalType":"uint256"}],"outputs":[{"name":"","type":"bool","internalType":"bool"}],"stateMutability":"view"},{"type":"function","name":"isRedemptionOrderActive","inputs":[{"name":"_redemptionNonce","type":"uint256","internalType":"uint256"}],"outputs":[{"name":"","type":"bool","internalType":"bool"}],"stateMutability":"view"},{"type":"function","name":"issuance","inputs":[{"name":"_inputAmount","type":"uint256","internalType":"uint256"}],"outputs":[{"name":"","type":"uint256","internalType":"uint256"}],"stateMutability":"nonpayable"},{"type":"function","name":"issuanceIndexTokenPrimaryTotalSupply","inputs":[{"name":"","type":"uint256","internalType":"uint256"}],"outputs":[{"name":"","type":"uint256","internalType":"uint256"}],"stateMutability":"view"},{"type":"function","name":"issuanceIsCompleted","inputs":[{"name":"","type":"uint256","internalType":"uint256"}],"outputs":[{"name":"","type":"bool","internalType":"bool"}],"stateMutability":"view"},{"type":"function","name":"issuanceNonce","inputs":[],"outputs":[{"name":"","type":"uint256","internalType":"uint256"}],"stateMutability":"view"},{"type":"function","name":"issuanceRequestId","inputs":[{"name":"","type":"uint256","internalType":"uint256"},{"name":"","type":"address","internalType":"address"}],"outputs":[{"name":"","type":"uint256","internalType":"uint256"}],"stateMutability":"view"},{"type":"function","name":"issuanceRequesterByNonce","inputs":[{"name":"","type":"uint256","internalType":"uint256"}],"outputs":[{"name":"","type":"address","internalType":"address"}],"stateMutability":"view"},{"type":"function","name":"issuanceTokenPrimaryBalance","inputs":[{"name":"","type":"uint256","internalType":"uint256"},{"name":"","type":"address","internalType":"address"}],"outputs":[{"name":"","type":"uint256","internalType":"uint256"}],"stateMutability":"view"},{"type":"function","name":"issuer","inputs":[],"outputs":[{"name":"","type":"address","internalType":"contract IOrderProcessor"}],"stateMutability":"view"},{"type":"function","name":"lastUpdateTime","inputs":[],"outputs":[{"name":"","type":"uint256","internalType":"uint256"}],"stateMutability":"view"},{"type":"function","name":"latestFeeUpdate","inputs":[],"outputs":[{"name":"","type":"uint256","internalType":"uint256"}],"stateMutability":"view"},{"type":"function","name":"mockFillAssetsList","inputs":[{"name":"_tokens","type":"address[]","internalType":"address[]"},{"name":"_marketShares","type":"uint256[]","internalType":"uint256[]"}],"outputs":[],"stateMutability":"nonpayable"},{"type":"function","name":"oracleList","inputs":[{"name":"","type":"uint256","internalType":"uint256"}],"outputs":[{"name":"","type":"address","internalType":"address"}],"stateMutability":"view"},{"type":"function","name":"oraclePayment","inputs":[],"outputs":[{"name":"","type":"uint256","internalType":"uint256"}],"stateMutability":"view"},{"type":"function","name":"orderInstanceById","inputs":[{"name":"","type":"uint256","internalType":"uint256"}],"outputs":[{"name":"requestTimestamp","type":"uint64","internalType":"uint64"},{"name":"recipient","type":"address","internalType":"address"},{"name":"assetToken","type":"address","internalType":"address"},{"name":"paymentToken","type":"address","internalType":"address"},{"name":"sell","type":"bool","internalType":"bool"},{"name":"orderType","type":"uint8","internalType":"enum IOrderProcessor.OrderType"},{"name":"assetTokenQuantity","type":"uint256","internalType":"uint256"},{"name":"paymentTokenQuantity","type":"uint256","internalType":"uint256"},{"name":"price","type":"uint256","internalType":"uint256"},{"name":"tif","type":"uint8","internalType":"enum IOrderProcessor.TIF"}],"stateMutability":"view"},{"type":"function","name":"owner","inputs":[],"outputs":[{"name":"","type":"address","internalType":"address"}],"stateMutability":"view"},{"type":"function","name":"pause","inputs":[],"outputs":[],"stateMutability":"nonpayable"},{"type":"function","name":"paused","inputs":[],"outputs":[{"name":"","type":"bool","internalType":"bool"}],"stateMutability":"view"},{"type":"function","name":"portfolioValueByNonce","inputs":[{"name":"","type":"uint256","internalType":"uint256"}],"outputs":[{"name":"","type":"uint256","internalType":"uint256"}],"stateMutability":"view"},{"type":"function","name":"priceFeedByTokenAddress","inputs":[{"name":"","type":"address","internalType":"address"}],"outputs":[{"name":"","type":"address","internalType":"address"}],"stateMutability":"view"},{"type":"function","name":"priceInWei","inputs":[{"name":"_feedAddress","type":"address","internalType":"address"}],"outputs":[{"name":"","type":"uint256","internalType":"uint256"}],"stateMutability":"view"},{"type":"function","name":"rebalanceNonce","inputs":[],"outputs":[{"name":"","type":"uint256","internalType":"uint256"}],"stateMutability":"view"},{"type":"function","name":"redemption","inputs":[{"name":"_inputAmount","type":"uint256","internalType":"uint256"}],"outputs":[{"name":"","type":"uint256","internalType":"uint256"}],"stateMutability":"nonpayable"},{"type":"function","name":"redemptionIndexTokenPrimaryTotalSupply","inputs":[{"name":"","type":"uint256","internalType":"uint256"}],"outputs":[{"name":"","type":"uint256","internalType":"uint256"}],"stateMutability":"view"},{"type":"function","name":"redemptionIsCompleted","inputs":[{"name":"","type":"uint256","internalType":"uint256"}],"outputs":[{"name":"","type":"bool","internalType":"bool"}],"stateMutability":"view"},{"type":"function","name":"redemptionNonce","inputs":[],"outputs":[{"name":"","type":"uint256","internalType":"uint256"}],"stateMutability":"view"},{"type":"function","name":"redemptionRequestId","inputs":[{"name":"","type":"uint256","internalType":"uint256"},{"name":"","type":"address","internalType":"address"}],"outputs":[{"name":"","type":"uint256","internalType":"uint256"}],"stateMutability":"view"},{"type":"function","name":"redemptionRequesterByNonce","inputs":[{"name":"","type":"uint256","internalType":"uint256"}],"outputs":[{"name":"","type":"address","internalType":"address"}],"stateMutability":"view"},{"type":"function","name":"redemptionTokenPrimaryBalance","inputs":[{"name":"","type":"uint256","internalType":"uint256"},{"name":"","type":"address","internalType":"address"}],"outputs":[{"name":"","type":"uint256","internalType":"uint256"}],"stateMutability":"view"},{"type":"function","name":"renounceOwnership","inputs":[],"outputs":[],"stateMutability":"nonpayable"},{"type":"function","name":"requestAssetsData","inputs":[],"outputs":[{"name":"","type":"bytes32","internalType":"bytes32"}],"stateMutability":"nonpayable"},{"type":"function","name":"sellRequestAssetAmountById","inputs":[{"name":"","type":"uint256","internalType":"uint256"}],"outputs":[{"name":"","type":"uint256","internalType":"uint256"}],"stateMutability":"view"},{"type":"function","name":"setCustodianWallet","inputs":[{"name":"_custodianWallet","type":"address","internalType":"address"}],"outputs":[{"name":"","type":"bool","internalType":"bool"}],"stateMutability":"nonpayable"},{"type":"function","name":"setFeeRate","inputs":[{"name":"_newFee","type":"uint8","internalType":"uint8"}],"outputs":[],"stateMutability":"nonpayable"},{"type":"function","name":"setIssuer","inputs":[{"name":"_issuer","type":"address","internalType":"address"}],"outputs":[{"name":"","type":"bool","internalType":"bool"}],"stateMutability":"nonpayable"},{"type":"function","name":"setOracleInfo","inputs":[{"name":"_oracleAddress","type":"address","internalType":"address"},{"name":"_externalJobId","type":"bytes32","internalType":"bytes32"}],"outputs":[],"stateMutability":"nonpayable"},{"type":"function","name":"setPriceFeedAddresses","inputs":[{"name":"_dShares","type":"address[]","internalType":"address[]"},{"name":"_priceFeedAddresses","type":"address[]","internalType":"address[]"}],"outputs":[],"stateMutability":"nonpayable"},{"type":"function","name":"setTokenAddress","inputs":[{"name":"_token","type":"address","internalType":"address"}],"outputs":[{"name":"","type":"bool","internalType":"bool"}],"stateMutability":"nonpayable"},{"type":"function","name":"setUrl","inputs":[{"name":"_beforeAddress","type":"string","internalType":"string"},{"name":"_afterAddress","type":"string","internalType":"string"}],"outputs":[],"stateMutability":"nonpayable"},{"type":"function","name":"setUsdcAddress","inputs":[{"name":"_usdc","type":"address","internalType":"address"},{"name":"_usdcDecimals","type":"uint8","internalType":"uint8"}],"outputs":[{"name":"","type":"bool","internalType":"bool"}],"stateMutability":"nonpayable"},{"type":"function","name":"setWrappedDShareAddresses","inputs":[{"name":"_dShares","type":"address[]","internalType":"address[]"},{"name":"_wrappedDShares","type":"address[]","internalType":"address[]"}],"outputs":[],"stateMutability":"nonpayable"},{"type":"function","name":"token","inputs":[],"outputs":[{"name":"","type":"address","internalType":"contract IndexToken"}],"stateMutability":"view"},{"type":"function","name":"tokenCurrentListIndex","inputs":[{"name":"","type":"address","internalType":"address"}],"outputs":[{"name":"","type":"uint256","internalType":"uint256"}],"stateMutability":"view"},{"type":"function","name":"tokenCurrentMarketShare","inputs":[{"name":"","type":"address","internalType":"address"}],"outputs":[{"name":"","type":"uint256","internalType":"uint256"}],"stateMutability":"view"},{"type":"function","name":"tokenOracleListIndex","inputs":[{"name":"","type":"address","internalType":"address"}],"outputs":[{"name":"","type":"uint256","internalType":"uint256"}],"stateMutability":"view"},{"type":"function","name":"tokenOracleMarketShare","inputs":[{"name":"","type":"address","internalType":"address"}],"outputs":[{"name":"","type":"uint256","internalType":"uint256"}],"stateMutability":"view"},{"type":"function","name":"tokenValueByNonce","inputs":[{"name":"","type":"uint256","internalType":"uint256"}],"outputs":[{"name":"","type":"uint256","internalType":"uint256"}],"stateMutability":"view"},{"type":"function","name":"totalCurrentList","inputs":[],"outputs":[{"name":"","type":"uint256","internalType":"uint256"}],"stateMutability":"view"},{"type":"function","name":"totalOracleList","inputs":[],"outputs":[{"name":"","type":"uint256","internalType":"uint256"}],"stateMutability":"view"},{"type":"function","name":"transferOwnership","inputs":[{"name":"newOwner","type":"address","internalType":"address"}],"outputs":[],"stateMutability":"nonpayable"},{"type":"function","name":"unpause","inputs":[],"outputs":[],"stateMutability":"nonpayable"},{"type":"function","name":"usdc","inputs":[],"outputs":[{"name":"","type":"address","internalType":"address"}],"stateMutability":"view"},{"type":"function","name":"usdcDecimals","inputs":[],"outputs":[{"name":"","type":"uint8","internalType":"uint8"}],"stateMutability":"view"},{"type":"function","name":"vault","inputs":[],"outputs":[{"name":"","type":"address","internalType":"contract NexVault"}],"stateMutability":"view"},{"type":"function","name":"wrappedDshareAddress","inputs":[{"name":"","type":"address","internalType":"address"}],"outputs":[{"name":"","type":"address","internalType":"address"}],"stateMutability":"view"},{"type":"event","name":"ChainlinkCancelled","inputs":[{"name":"id","type":"bytes32","indexed":true,"internalType":"bytes32"}],"anonymous":false},{"type":"event","name":"ChainlinkFulfilled","inputs":[{"name":"id","type":"bytes32","indexed":true,"internalType":"bytes32"}],"anonymous":false},{"type":"event","name":"ChainlinkRequested","inputs":[{"name":"id","type":"bytes32","indexed":true,"internalType":"bytes32"}],"anonymous":false},{"type":"event","name":"Initialized","inputs":[{"name":"version","type":"uint64","indexed":false,"internalType":"uint64"}],"anonymous":false},{"type":"event","name":"OwnershipTransferred","inputs":[{"name":"previousOwner","type":"address","indexed":true,"internalType":"address"},{"name":"newOwner","type":"address","indexed":true,"internalType":"address"}],"anonymous":false},{"type":"event","name":"Paused","inputs":[{"name":"account","type":"address","indexed":false,"internalType":"address"}],"anonymous":false},{"type":"event","name":"Unpaused","inputs":[{"name":"account","type":"address","indexed":false,"internalType":"address"}],"anonymous":false},{"type":"error","name":"EnforcedPause","inputs":[]},{"type":"error","name":"ExpectedPause","inputs":[]},{"type":"error","name":"InvalidInitialization","inputs":[]},{"type":"error","name":"NotInitializing","inputs":[]},{"type":"error","name":"OwnableInvalidOwner","inputs":[{"name":"owner","type":"address","internalType":"address"}]},{"type":"error","name":"OwnableUnauthorizedAccount","inputs":[{"name":"account","type":"address","internalType":"address"}]},{"type":"error","name":"PRBMath_MulDiv_Overflow","inputs":[{"name":"x","type":"uint256","internalType":"uint256"},{"name":"y","type":"uint256","internalType":"uint256"},{"name":"denominator","type":"uint256","internalType":"uint256"}]}],"bytecode":{"object":"0x6080604052348015600f57600080fd5b506166da8061001f6000396000f3fe608060405234801561001057600080fd5b50600436106104ac5760003560e01c80638456cb591161026d578063b0e1213411610151578063daf1c17d116100ce578063f14bea2011610092578063f14bea2014610ce4578063f1f31d6614610cf7578063f2fde38b14610d17578063f513a71814610d2a578063fbfa77cf14610d55578063fc0c546a14610d6857600080fd5b8063daf1c17d14610c82578063e19eefbe14610ca2578063eab2a71114610cb5578063edca4f5e14610cc8578063efa906c714610cd157600080fd5b8063b75f4c2c11610115578063b75f4c2c14610c09578063bed45bef14610c32578063c8599ded14610c45578063c8f33c9114610c4e578063da65925a14610c5757600080fd5b8063b0e1213414610b8d578063b1dd819e14610ba0578063b411dc4114610bc0578063b46840f914610bd3578063b592662a14610bf657600080fd5b8063978bbdb9116101ea578063a73e1cbf116101ae578063a73e1cbf14610afb578063a84ebc1714610b0e578063a87f98d214610b31578063a8b54bd414610b51578063ab7820b214610b5a578063addc70d114610b7a57600080fd5b8063978bbdb914610a775780639932ba4c14610a8b5780639cc0fb5b14610ab45780639dbb9c9e14610ac7578063a363b9cb14610ad057600080fd5b80638da5cb5b116102315780638da5cb5b146109d85780639026544f14610a08578063914f0cc614610a1b5780639219e51014610a3b5780639467409814610a4e57600080fd5b80638456cb591461095e57806384d77bb1146109665780638861d2351461096f5780638c2218991461098f5780638c88c10c146109b857600080fd5b80633fac0922116103945780635c975abb1161031157806378032658116102d557806378032658146108be5780637bf42165146108e75780637bfa27f21461090d5780637ca58c5514610930578063807ca23714610938578063840ecba01461094b57600080fd5b80635c975abb14610855578063631c83851461086d5780636839a09514610880578063715018a61461089357806376529fdf1461089b57600080fd5b80635177942a116103585780635177942a146107f357806353fd43321461080657806355cc4e571461080f57806357b61bc3146108225780635a6811661461083557600080fd5b80633fac09221461078757806343482fc81461079a57806346d66a2c146107ad5780634a1dc092146107c05780634b3e0b80146107d357600080fd5b80631e106e991161042d57806326a4e8d2116103f157806326a4e8d2146107065780632badae5d1461071957806331c990101461073957806332f53f3c146107625780633e413bee1461076c5780633f4ba83a1461077f57600080fd5b80631e106e99146106795780632343acb41461068c578063239aad0d1461069f578063248b761e146106c8578063264fa8b9146106db57600080fd5b80630be52713116104745780630be52713146105855780630c02e130146105a55780630e329357146105ae57806315e666a2146105ce5780631d1438481461066657600080fd5b8063011ced5f146104b157806302e80f71146104cd57806308dc4b0c146104f8578063092755e0146105395780630b1a491814610562575b600080fd5b6104ba60335481565b6040519081526020015b60405180910390f35b6104ba6104db3660046156bd565b601f60209081526000928352604080842090915290825290205481565b6105216105063660046156e9565b6030602052600090815260409020546001600160a01b031681565b6040516001600160a01b0390911681526020016104c4565b6105216105473660046156e9565b600f602052600090815260409020546001600160a01b031681565b610575610570366004615704565b610d7b565b60405190151581526020016104c4565b6104ba6105933660046156e9565b60126020526000908152604090205481565b6104ba60095481565b6105c16105bc3660046157d2565b610e5c565b6040516104c49190615885565b6106506105dc366004615704565b602f6020526000908152604090208054600182015460028301546003840154600485015460058601546006909601546001600160401b038616966001600160a01b03600160401b9097048716969586169585169460ff600160a01b8204811695600160a81b9092048116949193919291168a565b6040516104c49a999897969594939291906158d2565b601a54610521906001600160a01b031681565b601954610521906001600160a01b031681565b61057561069a366004615704565b610e89565b6105216106ad366004615704565b600d602052600090815260409020546001600160a01b031681565b6104ba6106d6366004615704565b610f7f565b6104ba6106e93660046156bd565b602160209081526000928352604080842090915290825290205481565b6105756107143660046156e9565b611375565b6104ba610727366004615704565b60316020526000908152604090205481565b610521610747366004615704565b602b602052600090815260409020546001600160a01b031681565b61076a6113f6565b005b601b54610521906001600160a01b031681565b61076a611618565b610575610795366004615704565b61162a565b61076a6107a8366004615947565b611707565b61076a6107bb366004615704565b61171e565b6104ba6107ce366004615704565b611c28565b6104ba6107e13660046156e9565b60136020526000908152604090205481565b61076a610801366004615980565b612076565b6104ba600c5481565b61057561081d3660046156e9565b6121c0565b61076a610830366004615a36565b61223e565b6104ba610843366004615704565b60326020526000908152604090205481565b6000805160206166858339815191525460ff16610575565b61057561087b366004615704565b612314565b6104ba61088e3660046156e9565b6125c8565b61076a6126ad565b6105756108a9366004615704565b60156020526000908152604090205460ff1681565b6105216108cc366004615704565b602a602052600090815260409020546001600160a01b031681565b601b546108fb90600160a01b900460ff1681565b60405160ff90911681526020016104c4565b61057561091b366004615704565b602d6020526000908152604090205460ff1681565b6104ba6126bf565b61076a610946366004615704565b6128ff565b61076a610959366004615704565b612a9a565b61076a612c6b565b6104ba601d5481565b6104ba61097d366004615704565b60236020526000908152604090205481565b6104ba61099d3660046156bd565b60208080526000928352604080842090915290825290205481565b6104ba6109c63660046156e9565b60106020526000908152604090205481565b7f9016d09d72d40fdae2fd8ceac6b6234c7706214fd39c1cd1e609a0528c199300546001600160a01b0316610521565b61076a610a16366004615704565b612c7b565b6104ba610a293660046156e9565b60116020526000908152604090205481565b61076a610a49366004615704565b612f34565b610521610a5c366004615704565b6029602052600090815260409020546001600160a01b031681565b601b546108fb90600160a81b900460ff1681565b610521610a99366004615704565b600e602052600090815260409020546001600160a01b031681565b610575610ac23660046156e9565b6132f4565b6104ba601c5481565b6104ba610ade3660046156bd565b602660209081526000928352604080842090915290825290205481565b61076a610b093660046157d2565b613379565b610575610b1c366004615704565b60146020526000908152604090205460ff1681565b6104ba610b3f366004615704565b60246020526000908152604090205481565b6104ba60085481565b6104ba610b68366004615704565b60166020526000908152604090205481565b61076a610b88366004615aee565b61339a565b610575610b9b366004615704565b6133ac565b6104ba610bae366004615704565b60276020526000908152604090205481565b61076a610bce366004615a36565b613484565b610575610be1366004615704565b602e6020526000908152604090205460ff1681565b610575610c04366004615704565b613555565b610521610c17366004615704565b602c602052600090815260409020546001600160a01b031681565b61076a610c40366004615704565b613807565b6104ba600b5481565b6104ba600a5481565b6104ba610c653660046156bd565b602560209081526000928352604080842090915290825290205481565b6104ba610c90366004615704565b60286020526000908152604090205481565b6104ba610cb0366004615704565b613d31565b610575610cc3366004615b47565b613e48565b6104ba601e5481565b61076a610cdf366004615b7e565b613ed1565b61076a610cf2366004615c10565b614150565b610d0a610d05366004615704565b614216565b6040516104c49190615c7c565b61076a610d253660046156e9565b61431c565b6104ba610d383660046156bd565b602260209081526000928352604080842090915290825290205481565b601854610521906001600160a01b031681565b601754610521906001600160a01b031681565b6000805b600c54811015610e53576000818152600e6020908152604080832054868452602283528184206001600160a01b0391821680865293529281902054601a5491516322fd455760e11b81526004810182905292939092600192909116906345fa8aae90602401602060405180830381865afa158015610e01573d6000803e3d6000fd5b505050506040513d601f19601f82011682018060405250810190610e259190615d41565b6003811115610e3657610e36615898565b60ff1603610e4957506001949350505050565b5050600101610d7f565b50600092915050565b60608282604051602001610e71929190615d62565b60405160208183030381529060405290505b92915050565b60008060005b600c54811015610f66576000818152600e6020908152604080832054878452602183528184206001600160a01b0391821680865293529281902054601a5491516322fd455760e11b81526004810182905292939092600292909116906345fa8aae90602401602060405180830381865afa158015610f11573d6000803e3d6000fd5b505050506040513d601f19601f82011682018060405250810190610f359190615d41565b6003811115610f4657610f46615898565b60ff1603610f5c57610f59600185615da7565b93505b5050600101610e8f565b50600c548103610e535750600192915050565b50919050565b600080610f8b83613d31565b90506000610f998483615da7565b601b546040516323b872dd60e01b81529192506001600160a01b0316906323b872dd90610fce90339030908690600401615dba565b6020604051808303816000875af1158015610fed573d6000803e3d6000fd5b505050506040513d601f19601f820116820180604052508101906110119190615dde565b50601b54601a5460405163095ea7b360e01b81526001600160a01b0391821660048201526024810184905291169063095ea7b3906044016020604051808303816000875af1158015611067573d6000803e3d6000fd5b505050506040513d601f19601f8201168201806040525081019061108b9190615dde565b506001601c600082825461109f9190615da7565b925050819055506000306040516110b5906155fb565b6001600160a01b039091168152602001604051809103906000f0801580156110e1573d6000803e3d6000fd5b50601c546000908152602b6020526040812080546001600160a01b0319166001600160a01b0384161790559091505b600c54811015611368576000818152600e60209081526040808320546001600160a01b0316808452601290925282205490919068056bc75e2d6310000090611158908a615e00565b6111629190615e2d565b9050600061117183838761435a565b6000818152602360209081526040808320869055601c80548452602183528184206001600160a01b03898116808752918552838620879055915485526029845282852080546001600160a01b031916331790558452600f9092528083205460185491516370a0823160e01b81529183166004830152939450919216906370a0823190602401602060405180830381865afa158015611213573d6000803e3d6000fd5b505050506040513d601f19601f820116820180604052508101906112379190615e41565b6001600160a01b038581166000908152600f602052604080822054905163266d6a8360e11b8152600481018590529394509092911690634cdad50690602401602060405180830381865afa158015611293573d6000803e3d6000fd5b505050506040513d601f19601f820116820180604052508101906112b79190615e41565b601c5460009081526025602090815260408083206001600160a01b03808b1685529083529281902084905560175481516318160ddd60e01b81529151949550909216926318160ddd9260048082019392918290030181865afa158015611321573d6000803e3d6000fd5b505050506040513d601f19601f820116820180604052508101906113459190615e41565b601c54600090815260276020526040902055505060019093019250611110915050565b5050601c54949350505050565b600061137f6145d3565b6001600160a01b0382166113d25760405162461bcd60e51b8152602060048201526015602482015274696e76616c696420746f6b656e206164647265737360581b60448201526064015b60405180910390fd5b50601780546001600160a01b0319166001600160a01b03831617905560015b919050565b6113fe6145d3565b6001601e60008282546114119190615da7565b9091555060009050805b600c54811015611526576000818152600e60209081526040808320546001600160a01b0390811680855260309093529083205491929161145b91166125c8565b6018546040516370a0823160e01b81526001600160a01b039182166004820152919250600091908416906370a0823190602401602060405180830381865afa1580156114ab573d6000803e3d6000fd5b505050506040513d601f19601f820116820180604052508101906114cf9190615e41565b905060006114dd8383615e00565b90508060326000601e54815260200190815260200160002060008282546115049190615da7565b9091555061151490508187615da7565b9550506001909301925061141b915050565b50601e5460009081526031602052604081208290555b600c54811015611614576000818152600e6020908152604080832054601e54845260329092528220546001600160a01b0390911691846115858368056bc75e2d63100000615e00565b61158f9190615e2d565b6001600160a01b038416600090815260136020526040902054909150811115611609576001600160a01b0383166000908152601360205260408120546115d6908390615e5a565b9050600068056bc75e2d631000006115ee8884615e00565b6115f89190615e2d565b905061160585823061462e565b5050505b50505060010161153c565b5050565b6116206145d3565b611628614962565b565b60008060005b600c54811015610f66576000818152600e6020908152604080832054878452602283528184206001600160a01b0391821680865293529281902054601a5491516322fd455760e11b81526004810182905292939092600292909116906345fa8aae90602401602060405180830381865afa1580156116b2573d6000803e3d6000fd5b505050506040513d601f19601f820116820180604052508101906116d69190615d41565b60038111156116e7576116e7615898565b60ff16036116fd576116fa600185615da7565b93505b5050600101611630565b61170f6145d3565b611718826149c2565b60085550565b60008181526014602052604090205460ff16156117755760405162461bcd60e51b8152602060048201526015602482015274125cdcdd585b98d9481a5cc818dbdb5c1b195d1959605a1b60448201526064016113c9565b600081815260296020908152604080832054602b909252909120546001600160a01b0391821691163382146117fb5760405162461bcd60e51b815260206004820152602660248201527f4f6e6c79207265717565737465722063616e2063616e63656c207468652069736044820152657375616e636560d01b60648201526084016113c9565b60005b600c54811015611c22576000818152600e6020908152604080832054878452602183528184206001600160a01b0391821680865290845282852054808652602f855283862084516101408101865281546001600160401b0381168252600160401b90048516968101969096526001818101548516958701959095526002810154938416606087015260ff600160a01b85048116151560808801529296919591949193909260a0850192600160a81b90920416908111156118c0576118c0615898565b60018111156118d1576118d1615898565b815260038281015460208301526004830154604083015260058301546060830152600683015460809092019160ff169081111561191057611910615898565b600381111561192157611921615898565b905250601a546040516322fd455760e11b8152600481018590529192506001916001600160a01b03909116906345fa8aae90602401602060405180830381865afa158015611973573d6000803e3d6000fd5b505050506040513d601f19601f820116820180604052508101906119979190615d41565b60038111156119a8576119a8615898565b60ff1603611a1357601a546040516339a0e8b560e21b8152600481018490526001600160a01b039091169063e683a2d490602401600060405180830381600087803b1580156119f657600080fd5b505af1158015611a0a573d6000803e3d6000fd5b50505050611c17565b601a546040516322fd455760e11b8152600481018490526002916001600160a01b0316906345fa8aae90602401602060405180830381865afa158015611a5d573d6000803e3d6000fd5b505050506040513d601f19601f82011682018060405250810190611a819190615d41565b6003811115611a9257611a92615898565b60ff161480611b0c57506040516370a0823160e01b81526001600160a01b038681166004830152600091908516906370a0823190602401602060405180830381865afa158015611ae6573d6000803e3d6000fd5b505050506040513d601f19601f82011682018060405250810190611b0a9190615e41565b115b15611c17576040516370a0823160e01b81526001600160a01b038681166004830152600091908516906370a0823190602401602060405180830381865afa158015611b5b573d6000803e3d6000fd5b505050506040513d601f19601f82011682018060405250810190611b7f9190615e41565b6040516317ee7de960e11b81529091506001600160a01b03871690632fdcfbd290611bb290879030908690600401615dba565b600060405180830381600087803b158015611bcc57600080fd5b505af1158015611be0573d6000803e3d6000fd5b505050506000611bf185838961462e565b60008a8152601f602090815260408083206001600160a01b038a16845290915290205550505b5050506001016117fe565b50505050565b60006001601d6000828254611c3d9190615da7565b92505081905550600030604051611c53906155fb565b6001600160a01b039091168152602001604051809103906000f080158015611c7f573d6000803e3d6000fd5b50601d546000908152602c6020908152604080832080546001600160a01b0319166001600160a01b038681169190911790915560175482516318160ddd60e01b8152925195965093949316926318160ddd926004808401939192918290030181865afa158015611cf3573d6000803e3d6000fd5b505050506040513d601f19601f82011682018060405250810190611d179190615e41565b611d2985670de0b6b3a7640000615e00565b611d339190615e2d565b601754604051632770a7eb60e21b8152336004820152602481018790529192506001600160a01b031690639dc29fac90604401600060405180830381600087803b158015611d8057600080fd5b505af1158015611d94573d6000803e3d6000fd5b5050601d5460009081526016602052604081208790559150505b600c5481101561206a576000818152600e60209081526040808320546001600160a01b03908116808552600f9093528184205460185492516370a0823160e01b81529282166004840152929392670de0b6b3a7640000929116906370a0823190602401602060405180830381865afa158015611e2e573d6000803e3d6000fd5b505050506040513d601f19601f82011682018060405250810190611e529190615e41565b611e5c9086615e00565b611e669190615e2d565b90506000611e7583838861462e565b6000818152602460208181526040808420879055601d80548552602283528185206001600160a01b038a811680885291855283872088905591548652602a845282862080546001600160a01b031916331790558552600f9092528084205460185491516370a0823160e01b81529183166004830152949550929316916370a082319101602060405180830381865afa158015611f15573d6000803e3d6000fd5b505050506040513d601f19601f82011682018060405250810190611f399190615e41565b6001600160a01b038581166000908152600f602052604080822054905163266d6a8360e11b8152600481018590529394509092911690634cdad50690602401602060405180830381865afa158015611f95573d6000803e3d6000fd5b505050506040513d601f19601f82011682018060405250810190611fb99190615e41565b601d5460009081526026602090815260408083206001600160a01b03808b1685529083529281902084905560175481516318160ddd60e01b81529151949550909216926318160ddd9260048082019392918290030181865afa158015612023573d6000803e3d6000fd5b505050506040513d601f19601f820116820180604052508101906120479190615e41565b601d54600090815260286020526040902055505060019093019250611dae915050565b5050601d549392505050565b61207e6145d3565b60006033544261208e9190615e5a565b9050600c603c61209e8184615e2d565b6120a89190615e2d565b1161211b5760405162461bcd60e51b815260206004820152603960248201527f596f752073686f756c642077616974206174206c6561737420313220686f757260448201527f7320616674657220746865206c6174657374207570646174650000000000000060648201526084016113c9565b60648260ff1611158015612133575060018260ff1610155b61219b5760405162461bcd60e51b815260206004820152603360248201527f546865206e65774665652073686f756c64206265206265747765656e203120616044820152726e64203130302028302e303125202d2031252960681b60648201526084016113c9565b50601b805460ff909216600160a81b0260ff60a81b1990921691909117905542603355565b60006121ca6145d3565b6001600160a01b0382166122195760405162461bcd60e51b8152602060048201526016602482015275696e76616c696420697373756572206164647265737360501b60448201526064016113c9565b50601a80546001600160a01b0383166001600160a01b03199091161790556001919050565b6122466145d3565b805182511461228f5760405162461bcd60e51b8152602060048201526015602482015274082e4e4c2f240d8cadccee8d040dad2e6dac2e8c6d605b1b60448201526064016113c9565b60005b825181101561230f578181815181106122ad576122ad615e6d565b6020026020010151603060008584815181106122cb576122cb615e6d565b6020908102919091018101516001600160a01b0390811683529082019290925260400160002080546001600160a01b03191692909116919091179055600101612292565b505050565b60008060005b600c54811015610f66576000818152600e6020908152604080832054878452602183528184206001600160a01b0391821680865290845282852054898652602b9094528285205492516370a0823160e01b815292909116600483018190529093909184906370a0823190602401602060405180830381865afa1580156123a4573d6000803e3d6000fd5b505050506040513d601f19601f820116820180604052508101906123c89190615e41565b601a546040516322fd455760e11b8152600481018690529192506003916001600160a01b03909116906345fa8aae90602401602060405180830381865afa158015612417573d6000803e3d6000fd5b505050506040513d601f19601f8201168201806040525081019061243b9190615d41565b600381111561244c5761244c615898565b60ff1614801561245a575080155b156124715761246a600187615da7565b95506125b8565b601a546040516322fd455760e11b8152600481018590526002916001600160a01b0316906345fa8aae90602401602060405180830381865afa1580156124bb573d6000803e3d6000fd5b505050506040513d601f19601f820116820180604052508101906124df9190615d41565b60038111156124f0576124f0615898565b60ff161480156124fe575080155b156125b8576000888152601f602090815260408083206001600160a01b03888116855292529182902054601a5492516322fd455760e11b815260048101829052909260029216906345fa8aae90602401602060405180830381865afa15801561256b573d6000803e3d6000fd5b505050506040513d601f19601f8201168201806040525081019061258f9190615d41565b60038111156125a0576125a0615898565b60ff16036125b6576125b3600188615da7565b96505b505b50506001909201915061231a9050565b600080826001600160a01b031663feaf968c6040518163ffffffff1660e01b815260040160a060405180830381865afa158015612609573d6000803e3d6000fd5b505050506040513d601f19601f8201168201806040525081019061262d9190615e9d565b5050509150506000836001600160a01b031663313ce5676040518163ffffffff1660e01b8152600401602060405180830381865afa158015612673573d6000803e3d6000fd5b505050506040513d601f19601f820116820180604052508101906126979190615eed565b90506126a5828260126149e4565b949350505050565b6126b56145d3565b6116286000614a24565b6000806127e0600680546126d290615f0a565b80601f01602080910402602001604051908101604052809291908181526020018280546126fe90615f0a565b801561274b5780601f106127205761010080835404028352916020019161274b565b820191906000526020600020905b81548152906001019060200180831161272e57829003601f168201915b50505050506007805461275d90615f0a565b80601f016020809104026020016040519081016040528092919081815260200182805461278990615f0a565b80156127d65780601f106127ab576101008083540402835291602001916127d6565b820191906000526020600020905b8154815290600101906020018083116127b957829003601f168201915b5050505050610e5c565b905060006127f86008543063f14bea2060e01b614a95565b60408051808201909152600381526219d95d60ea1b602082015290915061282190829084614aba565b61287c60405180604001604052806005815260200164706174683160d81b81525060405180604001604052806011815260200170726573756c74732c61646472657373657360781b81525083614aba9092919063ffffffff16565b6128da604051806040016040528060058152602001643830ba341960d91b81525060405180604001604052806014815260200173726573756c74732c6d61726b657453686172657360601b81525083614aba9092919063ffffffff16565b6128f86128ef6003546001600160a01b031690565b82600954614ad8565b9250505090565b61290881612314565b6129545760405162461bcd60e51b815260206004820181905260248201527f43616e63656c2069737375616e6365206973206e6f7420636f6d706c6574656460448201526064016113c9565b6000818152602d602052604090205460ff16156129835760405162461bcd60e51b81526004016113c990615f3e565b600081815260296020908152604080832054602b90925280832054601b5491516370a0823160e01b81526001600160a01b0391821660048201819052938216949291909116906370a0823190602401602060405180830381865afa1580156129ef573d6000803e3d6000fd5b505050506040513d601f19601f82011682018060405250810190612a139190615e41565b601b546040516317ee7de960e11b81529192506001600160a01b0380851692632fdcfbd292612a4a92169087908690600401615dba565b600060405180830381600087803b158015612a6457600080fd5b505af1158015612a78573d6000803e3d6000fd5b50505060009485525050602d602052505060409020805460ff19166001179055565b612aa38161162a565b612afb5760405162461bcd60e51b815260206004820152602360248201527f526564656d7074696f6e206f726465727320617265206e6f7420636f6d706c656044820152621d195960ea1b60648201526084016113c9565b60008181526015602052604090205460ff1615612b545760405162461bcd60e51b8152602060048201526017602482015276149959195b5c1d1a5bdb881a5cc818dbdb5c1b195d1959604a1b60448201526064016113c9565b6000818152602a6020908152604080832054602c90925280832054601b5491516370a0823160e01b81526001600160a01b0391821660048201819052938216949291909116906370a0823190602401602060405180830381865afa158015612bc0573d6000803e3d6000fd5b505050506040513d601f19601f82011682018060405250810190612be49190615e41565b601b546040516317ee7de960e11b81529192506001600160a01b0380851692632fdcfbd292612c1b92169087908690600401615dba565b600060405180830381600087803b158015612c3557600080fd5b505af1158015612c49573d6000803e3d6000fd5b505050600094855250506015602052505060409020805460ff19166001179055565b612c736145d3565b611628614b6b565b612c8481613555565b612cdb5760405162461bcd60e51b815260206004820152602260248201527f43616e63656c20726564656d7074696f6e206973206e6f7420636f6d706c6574604482015261195960f21b60648201526084016113c9565b6000818152602e602052604090205460ff1615612d0a5760405162461bcd60e51b81526004016113c990615f3e565b6000818152602a6020908152604080832054602c90925280832054601b5491516370a0823160e01b81526001600160a01b0391821660048201819052938216949291909116906370a0823190602401602060405180830381865afa158015612d76573d6000803e3d6000fd5b505050506040513d601f19601f82011682018060405250810190612d9a9190615e41565b905060005b600c54811015612e9f576000818152600e60205260408082205490516370a0823160e01b81526001600160a01b038681166004830152909116919082906370a0823190602401602060405180830381865afa158015612e02573d6000803e3d6000fd5b505050506040513d601f19601f82011682018060405250810190612e269190615e41565b90508015612e95576018546040516317ee7de960e11b81526001600160a01b0380881692632fdcfbd292612e6292879216908690600401615dba565b600060405180830381600087803b158015612e7c57600080fd5b505af1158015612e90573d6000803e3d6000fd5b505050505b5050600101612d9f565b50601754600085815260166020526040908190205490516340c10f1960e01b81526001600160a01b03868116600483015260248201929092529116906340c10f1990604401600060405180830381600087803b158015612efe57600080fd5b505af1158015612f12573d6000803e3d6000fd5b50505060009485525050602e602052505060409020805460ff19166001179055565b60008181526015602052604090205460ff1615612f8d5760405162461bcd60e51b8152602060048201526017602482015276149959195b5c1d1a5bdb881a5cc818dbdb5c1b195d1959604a1b60448201526064016113c9565b6000818152602a6020908152604080832054602c909252909120546001600160a01b0391821691163382146130155760405162461bcd60e51b815260206004820152602860248201527f4f6e6c79207265717565737465722063616e2063616e63656c207468652072656044820152673232b6b83a34b7b760c11b60648201526084016113c9565b60005b600c54811015611c22576000818152600e6020908152604080832054878452602283528184206001600160a01b0391821680865290845282852054808652602f855283862084516101408101865281546001600160401b0381168252600160401b90048516968101969096526001818101548516958701959095526002810154938416606087015260ff600160a01b85048116151560808801529296919591949193909260a0850192600160a81b90920416908111156130da576130da615898565b60018111156130eb576130eb615898565b815260038281015460208301526004830154604083015260058301546060830152600683015460809092019160ff169081111561312a5761312a615898565b600381111561313b5761313b615898565b905250601a5460405163187b2ed160e21b8152600481018590529192506000916001600160a01b03909116906361ecbb4490602401602060405180830381865afa15801561318d573d6000803e3d6000fd5b505050506040513d601f19601f820116820180604052508101906131b19190615e41565b601a546040516322fd455760e11b8152600481018690529192506002916001600160a01b03909116906345fa8aae90602401602060405180830381865afa158015613200573d6000803e3d6000fd5b505050506040513d601f19601f820116820180604052508101906132249190615d41565b600381111561323557613235615898565b60ff1614806132445750600081115b156132e457601b546040516317ee7de960e11b81526001600160a01b0388811692632fdcfbd29261327f929091169030908690600401615dba565b600060405180830381600087803b15801561329957600080fd5b505af11580156132ad573d6000803e3d6000fd5b5050505060006132be85838961435a565b50506000888152602080805260408083206001600160a01b038816845290915290208390555b5050600190920191506130189050565b60006132fe6145d3565b6001600160a01b0382166133545760405162461bcd60e51b815260206004820181905260248201527f696e76616c696420637573746f6469616e2077616c6c6574206164647265737360448201526064016113c9565b50601980546001600160a01b0383166001600160a01b03199091161790556001919050565b6133816145d3565b600661338d8382615fd3565b50600761230f8282615fd3565b6133a26145d3565b6116148282614bb4565b6000805b600c54811015610e53576000818152600e6020908152604080832054868452602183528184206001600160a01b0391821680865293529281902054601a5491516322fd455760e11b81526004810182905292939092600192909116906345fa8aae90602401602060405180830381865afa158015613432573d6000803e3d6000fd5b505050506040513d601f19601f820116820180604052508101906134569190615d41565b600381111561346757613467615898565b60ff160361347a57506001949350505050565b50506001016133b0565b61348c6145d3565b80518251146134d55760405162461bcd60e51b8152602060048201526015602482015274082e4e4c2f240d8cadccee8d040dad2e6dac2e8c6d605b1b60448201526064016113c9565b60005b825181101561230f578181815181106134f3576134f3615e6d565b6020026020010151600f600085848151811061351157613511615e6d565b6020908102919091018101516001600160a01b0390811683529082019290925260400160002080546001600160a01b031916929091169190911790556001016134d8565b60008060005b600c54811015610f66576000818152600e6020908152604080832054878452602283528184206001600160a01b0391821680865290845282852054898652602c9094528285205492516370a0823160e01b815292909116600483018190529093909184906370a0823190602401602060405180830381865afa1580156135e5573d6000803e3d6000fd5b505050506040513d601f19601f820116820180604052508101906136099190615e41565b601a546040516322fd455760e11b8152600481018690529192506003916001600160a01b03909116906345fa8aae90602401602060405180830381865afa158015613658573d6000803e3d6000fd5b505050506040513d601f19601f8201168201806040525081019061367c9190615d41565b600381111561368d5761368d615898565b60ff1614801561369b575080155b156136b2576136ab600187615da7565b95506137f7565b601a546040516322fd455760e11b8152600481018590526002916001600160a01b0316906345fa8aae90602401602060405180830381865afa1580156136fc573d6000803e3d6000fd5b505050506040513d601f19601f820116820180604052508101906137209190615d41565b600381111561373157613731615898565b60ff1614801561373f575080155b156137f7576000888152602080805260408083206001600160a01b03888116855292529182902054601a5492516322fd455760e11b815260048101829052909260029216906345fa8aae90602401602060405180830381865afa1580156137aa573d6000803e3d6000fd5b505050506040513d601f19601f820116820180604052508101906137ce9190615d41565b60038111156137df576137df615898565b60ff16036137f5576137f2600188615da7565b96505b505b50506001909201915061355b9050565b61381081610e89565b61385c5760405162461bcd60e51b815260206004820152601860248201527f4f726465727320617265206e6f7420636f6d706c65746564000000000000000060448201526064016113c9565b60008181526014602052604090205460ff16156138b35760405162461bcd60e51b8152602060048201526015602482015274125cdcdd585b98d9481a5cc818dbdb5c1b195d1959605a1b60448201526064016113c9565b6000818152602960205260408120546001600160a01b03169080805b600c54811015613beb576000818152600e6020908152604080832054888452602183528184206001600160a01b03918216808652935281842054601a54601b54935163a377cfbf60e01b815260048101869052938316602485015293949093909291169063a377cfbf906044016040805180830381865afa158015613958573d6000803e3d6000fd5b505050506040513d601f19601f8201168201806040525081019061397c9190616092565b6000898152602b60205260408082205490516370a0823160e01b81526001600160a01b0391821660048201819052939450908616906370a0823190602401602060405180830381865afa1580156139d7573d6000803e3d6000fd5b505050506040513d601f19601f820116820180604052508101906139fb9190615e41565b60008b81526025602090815260408083206001600160a01b038a168452909152812054855192935091613a2e9083615e00565b60008781526023602052604081205491925090613a4b9083615da7565b9050613a57828c615da7565b9a50613a63818b615da7565b6040516317ee7de960e11b8152909a506001600160a01b03861690632fdcfbd290613a96908b9030908990600401615dba565b600060405180830381600087803b158015613ab057600080fd5b505af1158015613ac4573d6000803e3d6000fd5b505050506001600160a01b038881166000818152600f60205260409081902054905163095ea7b360e01b815292166004830152602482018690529063095ea7b3906044016020604051808303816000875af1158015613b27573d6000803e3d6000fd5b505050506040513d601f19601f82011682018060405250810190613b4b9190615dde565b506001600160a01b038881166000908152600f602052604090819020546018549151636e553f6560e01b815260048101889052918316602483015290911690636e553f65906044016020604051808303816000875af1158015613bb2573d6000803e3d6000fd5b505050506040513d601f19601f82011682018060405250810190613bd69190615e41565b5050600190970196506138cf95505050505050565b5060008481526027602052604081205490819003613c7e576000613c10836064615e00565b6017546040516340c10f1960e01b81526001600160a01b038881166004830152602482018490529293509116906340c10f1990604401600060405180830381600087803b158015613c6057600080fd5b505af1158015613c74573d6000803e3d6000fd5b5050505050613d0e565b600083613c8b8484615e00565b613c959190615e2d565b90506000613ca38383615e5a565b6017546040516340c10f1960e01b81526001600160a01b038981166004830152602482018490529293509116906340c10f1990604401600060405180830381600087803b158015613cf357600080fd5b505af1158015613d07573d6000803e3d6000fd5b5050505050505b5050601c546000908152601460205260409020805460ff19166001179055505050565b60008060005b600c54811015613e41576000818152600e60209081526040808320546001600160a01b0316808452601290925282205490919068056bc75e2d6310000090613d7f9088615e00565b613d899190615e2d565b601a54601b546040516308da5c3560e21b81526000600482018190526001600160a01b0392831660248301529394508392919091169063236970d4906044016040805180830381865afa158015613de4573d6000803e3d6000fd5b505050506040513d601f19601f82011682018060405250810190613e0891906160f1565b915091506000613e188285614dd5565b613e229084615da7565b9050613e2e8188615da7565b96505060019094019350613d3792505050565b5092915050565b6000613e526145d3565b6001600160a01b038316613ea05760405162461bcd60e51b8152602060048201526015602482015274696e76616c696420746f6b656e206164647265737360581b60448201526064016113c9565b50601b805460ff8316600160a01b026001600160a81b03199091166001600160a01b03851617179055600192915050565b7ff0c57e16840df040f15088dc2f81fe391c3923bec73e23a9662efc9c229c6a008054600160401b810460ff1615906001600160401b0316600081158015613f165750825b90506000826001600160401b03166001148015613f325750303b155b905081158015613f40575080155b15613f5e5760405163f92ee8a960e01b815260040160405180910390fd5b845467ffffffffffffffff191660011785558315613f8857845460ff60401b1916600160401b1785555b8c601a60006101000a8154816001600160a01b0302191690836001600160a01b031602179055508b601760006101000a8154816001600160a01b0302191690836001600160a01b031602179055508a601860006101000a8154816001600160a01b0302191690836001600160a01b0316021790555089601b60006101000a8154816001600160a01b0302191690836001600160a01b0316021790555088601b60146101000a81548160ff021916908360ff16021790555061404833614dfe565b614050614e0f565b601b805460ff60a81b1916600560a91b179055600280546001600160a01b0319166001600160a01b038a16179055614087876149c2565b6008869055600a6140a1670de0b6b3a76400006001615e00565b6140ab9190615e2d565b6009556040805160608101909152602a80825261662d60208301396006906140d39082615fd3565b506040518060600160405280602e8152602001616657602e91396007906140fa9082615fd3565b50831561414157845460ff60401b19168555604051600181527fc7f505b2f371ae2175ee4913f4499e1f2633a7b5936321eed1cdaeb6115181d29060200160405180910390a15b50505050505050505050505050565b60008381526005602052604090205483906001600160a01b031633146141c95760405162461bcd60e51b815260206004820152602860248201527f536f75726365206d75737420626520746865206f7261636c65206f6620746865604482015267081c995c5d595cdd60c21b60648201526084016113c9565b60008181526005602052604080822080546001600160a01b03191690555182917f7cc135e0cebb02c3480ae5d74d377283180a2601f8f644edf7987b009316c63a91a2611c228383614bb4565b61421e615608565b6000828152602f602090815260409182902082516101408101845281546001600160401b03811682526001600160a01b03600160401b9091048116938201939093526001808301548416948201949094526002820154928316606082015260ff600160a01b84048116151560808301529093919260a0850192600160a81b909104909116908111156142b2576142b2615898565b60018111156142c3576142c3615898565b815260038281015460208301526004830154604083015260058301546060830152600683015460809092019160ff169081111561430257614302615898565b600381111561431357614313615898565b90525092915050565b6143246145d3565b6001600160a01b03811661434e57604051631e4fbdf760e01b8152600060048201526024016113c9565b61435781614a24565b50565b601a54601b546040516308da5c3560e21b81526000600482018190526001600160a01b039283166024830152928392839291169063236970d4906044016040805180830381865afa1580156143b3573d6000803e3d6000fd5b505050506040513d601f19601f820116820180604052508101906143d791906160f1565b9150915060006143e78287614dd5565b6143f19084615da7565b905060006143ff6000614e1f565b6001600160a01b0380881660208301528916604082015260e081018890529050600061442b8389615da7565b601a5460405163aa2165f160e01b81529192506000916001600160a01b039091169063aa2165f190614461908690600401615c7c565b6020604051808303816000875af1158015614480573d6000803e3d6000fd5b505050506040513d601f19601f820116820180604052508101906144a49190615e41565b6000818152602f602090815260409182902086518154928801516001600160401b039091166001600160e01b031990931692909217600160401b6001600160a01b039384160217815591860151600180840180546001600160a01b03191692841692909217909155606087015160028401805460808a0151929094166001600160a81b031990941693909317600160a01b911515919091021780835560a08801519495508794929160ff60a81b1990911690600160a81b90849081111561456d5761456d615898565b021790555060c0820151816003015560e0820151816004015561010082015181600501556101208201518160060160006101000a81548160ff021916908360038111156145bc576145bc615898565b0217905550919750505050505050505b9392505050565b336146057f9016d09d72d40fdae2fd8ceac6b6234c7706214fd39c1cd1e609a0528c199300546001600160a01b031690565b6001600160a01b0316146116285760405163118cdaa760e01b81523360048201526024016113c9565b6001600160a01b038084166000908152600f6020526040808220546018549151631c20fadd60e01b8152929390811692911690631c20fadd9061467990849030908990600401615dba565b600060405180830381600087803b15801561469357600080fd5b505af11580156146a7573d6000803e3d6000fd5b5050604051635d043b2960e11b81526004810187905230602482018190526044820152600092506001600160a01b038416915063ba087652906064016020604051808303816000875af1158015614702573d6000803e3d6000fd5b505050506040513d601f19601f820116820180604052508101906147269190615e41565b905060006147346001614e1f565b6001600160a01b03888116604083810182905260c084018690528883166020850152601a54905163095ea7b360e01b8152921660048301526024820185905291925063095ea7b3906044016020604051808303816000875af115801561479e573d6000803e3d6000fd5b505050506040513d601f19601f820116820180604052508101906147c29190615dde565b50601a5460405163aa2165f160e01b81526000916001600160a01b03169063aa2165f1906147f4908590600401615c7c565b6020604051808303816000875af1158015614813573d6000803e3d6000fd5b505050506040513d601f19601f820116820180604052508101906148379190615e41565b6000818152602f602090815260409182902085518154928701516001600160401b039091166001600160e01b031990931692909217600160401b6001600160a01b039384160217815591850151600180840180546001600160a01b0319169284169290921790915560608601516002840180546080890151929094166001600160a81b031990941693909317600160a01b911515919091021780835560a08701519495508694929160ff60a81b1990911690600160a81b90849081111561490057614900615898565b021790555060c0820151816003015560e0820151816004015561010082015181600501556101208201518160060160006101000a81548160ff0219169083600381111561494f5761494f615898565b0217905550919998505050505050505050565b61496a614ed6565b600080516020616685833981519152805460ff191681557f5db9ee0a495bf2e6ff9c91a7834c1ba4fdd244a5e8aa4e537bd38aeae4b073aa335b6040516001600160a01b03909116815260200160405180910390a150565b600380546001600160a01b0319166001600160a01b0392909216919091179055565b60008260ff168260ff161115614a1a576149fe838361611e565b614a0990600a61621b565b614a13908561622a565b90506145cc565b6149fe828461611e565b7f9016d09d72d40fdae2fd8ceac6b6234c7706214fd39c1cd1e609a0528c19930080546001600160a01b031981166001600160a01b03848116918217845560405192169182907f8be0079c531659141344cd1fd0a4f28419497f9722a3daafe3b4186f6b6457e090600090a3505050565b614a9d61566b565b614aa561566b565b614ab181868686614f06565b95945050505050565b6080830151614ac99083614f43565b608083015161230f9082614f43565b600454600090614ae9816001615da7565b600455835160408086015160808701515191516000936320214ca360e11b93614b219386938493923092918a9160019160240161625a565b60408051601f198184030181529190526020810180516001600160e01b03166001600160e01b0319909316929092179091529050614b6186838684614f5a565b9695505050505050565b614b736150b8565b600080516020616685833981519152805460ff191660011781557f62e78cea01bee320cd4e420270b5ea74000d11b0c9f74754ebdbfc544b05a258336149a4565b818160005b8251811015614db557828181518110614bd457614bd4615e6d565b6020026020010151600d600083815260200190815260200160002060006101000a8154816001600160a01b0302191690836001600160a01b031602179055508060106000858481518110614c2a57614c2a615e6d565b60200260200101516001600160a01b03166001600160a01b0316815260200190815260200160002081905550818181518110614c6857614c68615e6d565b602002602001015160136000858481518110614c8657614c86615e6d565b60200260200101516001600160a01b03166001600160a01b0316815260200190815260200160002081905550600c54600003614dad57828181518110614cce57614cce615e6d565b6020026020010151600e600083815260200190815260200160002060006101000a8154816001600160a01b0302191690836001600160a01b03160217905550818181518110614d1f57614d1f615e6d565b602002602001015160126000858481518110614d3d57614d3d615e6d565b60200260200101516001600160a01b03166001600160a01b03168152602001908152602001600020819055508060116000858481518110614d8057614d80615e6d565b60200260200101516001600160a01b03166001600160a01b03168152602001908152602001600020819055505b600101614bb9565b508151600b55600c54600003614dcb578151600c555b505042600a555050565b60008262ffffff16600003614deb5760006145cc565b6145cc8262ffffff8516620f42406150e9565b614e066151bd565b61435781615206565b614e176151bd565b61162861520e565b614e27615608565b60408051610140810182526001600160401b03421681523060208201526017546001600160a01b0390811692820192909252601b549091166060820152821515608082015260a081016000815260200183614e83576000614e8e565b68056bc75e2d631000005b68ffffffffffffffffff16815260200183614eb25768056bc75e2d63100000614eb5565b60005b68ffffffffffffffffff168152600060208201526040016001905292915050565b6000805160206166858339815191525460ff1661162857604051638dfc202b60e01b815260040160405180910390fd5b614f0e61566b565b614f1e856080015161010061522f565b50509183526001600160a01b031660208301526001600160e01b031916604082015290565b614f508260038351615294565b61230f828261539b565b6040516bffffffffffffffffffffffff193060601b1660208201526034810184905260009060540160408051808303601f1901815282825280516020918201206000818152600590925291812080546001600160a01b0319166001600160a01b038a1617905590925082917fb5e6e01e79f91267dc17b4e6314d5d4d03593d2ceee0fbb452b750bd70ea5af99190a2600254604051630200057560e51b81526001600160a01b0390911690634000aea09061501d908890879087906004016162b3565b6020604051808303816000875af115801561503c573d6000803e3d6000fd5b505050506040513d601f19601f820116820180604052508101906150609190615dde565b6126a55760405162461bcd60e51b815260206004820152602360248201527f756e61626c6520746f207472616e73666572416e6443616c6c20746f206f7261604482015262636c6560e81b60648201526084016113c9565b6000805160206166858339815191525460ff16156116285760405163d93c066560e01b815260040160405180910390fd5b60008080600019858709858702925082811083820303915050806000036151235783828161511957615119615e17565b04925050506145cc565b83811061515457604051630c740aef60e31b81526004810187905260248101869052604481018590526064016113c9565b60008486880960026001871981018816978890046003810283188082028403028082028403028082028403028082028403028082028403029081029092039091026000889003889004909101858311909403939093029303949094049190911702949350505050565b7ff0c57e16840df040f15088dc2f81fe391c3923bec73e23a9662efc9c229c6a0054600160401b900460ff1661162857604051631afcd79f60e31b815260040160405180910390fd5b6143246151bd565b6152166151bd565b600080516020616685833981519152805460ff19169055565b60408051808201909152606081526000602082015261524f6020836162da565b156152775761525f6020836162da565b61526a906020615e5a565b6152749083615da7565b91505b506020828101829052604080518085526000815290920101905290565b6017816001600160401b0316116152b857611c228360e0600585901b1683176153c2565b60ff816001600160401b0316116152f4576152de836018611fe0600586901b16176153c2565b50611c22836001600160401b03831660016153e7565b61ffff816001600160401b0316116153315761531b836019611fe0600586901b16176153c2565b50611c22836001600160401b03831660026153e7565b63ffffffff816001600160401b0316116153705761535a83601a611fe0600586901b16176153c2565b50611c22836001600160401b03831660046153e7565b61538583601b611fe0600586901b16176153c2565b50611c22836001600160401b03831660086153e7565b6040805180820190915260608152600060208201526145cc8384600001515184855161540d565b6040805180820190915260608152600060208201526145cc83846000015151846154f7565b6040805180820190915260608152600060208201526126a5848560000151518585615552565b604080518082019091526060815260006020820152825182111561543057600080fd5b602085015161543f8386615da7565b111561547257615472856154628760200151878661545d9190615da7565b6155d3565b61546d906002615e00565b6155e4565b6000808651805187602083010193508088870111156154915787860182525b505050602084015b602084106154d157805182526154b0602083615da7565b91506154bd602082615da7565b90506154ca602085615e5a565b9350615499565b51815160001960208690036101000a019081169019919091161790525083949350505050565b6040805180820190915260608152600060208201528360200151831061552c5761552c848560200151600261546d9190615e00565b8351805160208583010184815350808503615548576001810182525b5093949350505050565b60408051808201909152606081526000602082015260208501516155768584615da7565b111561558a5761558a856154628685615da7565b6000600161559a846101006162ee565b6155a49190615e5a565b90508551838682010185831982511617815250805184870111156155c85783860181525b509495945050505050565b600081831115610f79575081610e83565b81516155f0838361522f565b50611c22838261539b565b610332806162fb83390190565b604080516101408101825260008082526020820181905291810182905260608101829052608081018290529060a082019081526020016000815260200160008152602001600081526020016000600381111561566657615666615898565b905290565b6040805160a0810182526000808252602080830182905282840182905260608084018390528451808601909552845283015290608082015290565b80356001600160a01b03811681146113f157600080fd5b600080604083850312156156d057600080fd5b823591506156e0602084016156a6565b90509250929050565b6000602082840312156156fb57600080fd5b6145cc826156a6565b60006020828403121561571657600080fd5b5035919050565b634e487b7160e01b600052604160045260246000fd5b604051601f8201601f191681016001600160401b038111828210171561575b5761575b61571d565b604052919050565b600082601f83011261577457600080fd5b81356001600160401b0381111561578d5761578d61571d565b6157a0601f8201601f1916602001615733565b8181528460208386010111156157b557600080fd5b816020850160208301376000918101602001919091529392505050565b600080604083850312156157e557600080fd5b82356001600160401b03808211156157fc57600080fd5b61580886838701615763565b9350602085013591508082111561581e57600080fd5b5061582b85828601615763565b9150509250929050565b60005b83811015615850578181015183820152602001615838565b50506000910152565b60008151808452615871816020860160208601615835565b601f01601f19169290920160200192915050565b6020815260006145cc6020830184615859565b634e487b7160e01b600052602160045260246000fd5b600281106158be576158be615898565b9052565b600481106158be576158be615898565b6001600160401b038b1681526001600160a01b038a811660208301528981166040830152881660608201528615156080820152610140810161591760a08301886158ae565b8560c08301528460e0830152836101008301526159386101208301846158c2565b9b9a5050505050505050505050565b6000806040838503121561595a57600080fd5b615963836156a6565b946020939093013593505050565b60ff8116811461435757600080fd5b60006020828403121561599257600080fd5b81356145cc81615971565b60006001600160401b038211156159b6576159b661571d565b5060051b60200190565b600082601f8301126159d157600080fd5b813560206159e66159e18361599d565b615733565b8083825260208201915060208460051b870101935086841115615a0857600080fd5b602086015b84811015615a2b57615a1e816156a6565b8352918301918301615a0d565b509695505050505050565b60008060408385031215615a4957600080fd5b82356001600160401b0380821115615a6057600080fd5b615a6c868387016159c0565b93506020850135915080821115615a8257600080fd5b5061582b858286016159c0565b600082601f830112615aa057600080fd5b81356020615ab06159e18361599d565b8083825260208201915060208460051b870101935086841115615ad257600080fd5b602086015b84811015615a2b5780358352918301918301615ad7565b60008060408385031215615b0157600080fd5b82356001600160401b0380821115615b1857600080fd5b615b24868387016159c0565b93506020850135915080821115615b3a57600080fd5b5061582b85828601615a8f565b60008060408385031215615b5a57600080fd5b615b63836156a6565b91506020830135615b7381615971565b809150509250929050565b600080600080600080600080610100898b031215615b9b57600080fd5b615ba4896156a6565b9750615bb260208a016156a6565b9650615bc060408a016156a6565b9550615bce60608a016156a6565b94506080890135615bde81615971565b9350615bec60a08a016156a6565b9250615bfa60c08a016156a6565b915060e089013590509295985092959890939650565b600080600060608486031215615c2557600080fd5b8335925060208401356001600160401b0380821115615c4357600080fd5b615c4f878388016159c0565b93506040860135915080821115615c6557600080fd5b50615c7286828701615a8f565b9150509250925092565b81516001600160401b0316815261014081016020830151615ca860208401826001600160a01b03169052565b506040830151615cc360408401826001600160a01b03169052565b506060830151615cde60608401826001600160a01b03169052565b506080830151615cf2608084018215159052565b5060a0830151615d0560a08401826158ae565b5060c083015160c083015260e083015160e083015261010080840151818401525061012080840151615d39828501826158c2565b505092915050565b600060208284031215615d5357600080fd5b8151600481106145cc57600080fd5b60008351615d74818460208801615835565b835190830190615d88818360208801615835565b01949350505050565b634e487b7160e01b600052601160045260246000fd5b80820180821115610e8357610e83615d91565b6001600160a01b039384168152919092166020820152604081019190915260600190565b600060208284031215615df057600080fd5b815180151581146145cc57600080fd5b8082028115828204841417610e8357610e83615d91565b634e487b7160e01b600052601260045260246000fd5b600082615e3c57615e3c615e17565b500490565b600060208284031215615e5357600080fd5b5051919050565b81810381811115610e8357610e83615d91565b634e487b7160e01b600052603260045260246000fd5b805169ffffffffffffffffffff811681146113f157600080fd5b600080600080600060a08688031215615eb557600080fd5b615ebe86615e83565b9450602086015193506040860151925060608601519150615ee160808701615e83565b90509295509295909350565b600060208284031215615eff57600080fd5b81516145cc81615971565b600181811c90821680615f1e57607f821691505b602082108103610f7957634e487b7160e01b600052602260045260246000fd5b60208082526025908201527f5468652070726f6365737320686173206265656e20636f6d706c65746564206260408201526465666f726560d81b606082015260800190565b601f82111561230f576000816000526020600020601f850160051c81016020861015615fac5750805b601f850160051c820191505b81811015615fcb57828155600101615fb8565b505050505050565b81516001600160401b03811115615fec57615fec61571d565b61600081615ffa8454615f0a565b84615f83565b602080601f831160018114616035576000841561601d5750858301515b600019600386901b1c1916600185901b178555615fcb565b600085815260208120601f198616915b8281101561606457888601518255948401946001909101908401616045565b50858210156160825787850151600019600388901b60f8161c191681555b5050505050600190811b01905550565b6000604082840312156160a457600080fd5b604051604081016001600160401b0382821081831117156160c7576160c761571d565b81604052845183526020850151915080821682146160e457600080fd5b5060208201529392505050565b6000806040838503121561610457600080fd5b82519150602083015162ffffff81168114615b7357600080fd5b60ff8281168282160390811115610e8357610e83615d91565b600181815b8085111561617257816000190482111561615857616158615d91565b8085161561616557918102915b93841c939080029061613c565b509250929050565b60008261618957506001610e83565b8161619657506000610e83565b81600181146161ac57600281146161b6576161d2565b6001915050610e83565b60ff8411156161c7576161c7615d91565b50506001821b610e83565b5060208310610133831016604e8410600b84101617156161f5575081810a610e83565b6161ff8383616137565b806000190482111561621357616213615d91565b029392505050565b60006145cc60ff84168361617a565b80820260008212600160ff1b8414161561624657616246615d91565b8181058314821517610e8357610e83615d91565b6001600160a01b0389811682526020820189905260408201889052861660608201526001600160e01b03198516608082015260a0810184905260c0810183905261010060e0820181905260009061593883820185615859565b60018060a01b0384168152826020820152606060408201526000614ab16060830184615859565b6000826162e9576162e9615e17565b500690565b60006145cc838361617a56fe6080604052348015600f57600080fd5b50604051610332380380610332833981016040819052602c916050565b600080546001600160a01b0319166001600160a01b0392909216919091179055607e565b600060208284031215606157600080fd5b81516001600160a01b0381168114607757600080fd5b9392505050565b6102a58061008d6000396000f3fe608060405234801561001057600080fd5b50600436106100415760003560e01c806313af4035146100465780632fdcfbd21461005b5780638da5cb5b1461006e575b600080fd5b6100596100543660046101ef565b61009d565b005b610059610069366004610211565b61010f565b600054610081906001600160a01b031681565b6040516001600160a01b03909116815260200160405180910390f35b6000546001600160a01b031633146100ed5760405162461bcd60e51b815260206004820152600e60248201526d139bdd08185d5d1a1bdc9a5e995960921b60448201526064015b60405180910390fd5b600080546001600160a01b0319166001600160a01b0392909216919091179055565b6000546001600160a01b0316331461015a5760405162461bcd60e51b815260206004820152600e60248201526d139bdd08185d5d1a1bdc9a5e995960921b60448201526064016100e4565b60405163a9059cbb60e01b81526001600160a01b0383811660048301526024820183905284169063a9059cbb906044016020604051808303816000875af11580156101a9573d6000803e3d6000fd5b505050506040513d601f19601f820116820180604052508101906101cd919061024d565b50505050565b80356001600160a01b03811681146101ea57600080fd5b919050565b60006020828403121561020157600080fd5b61020a826101d3565b9392505050565b60008060006060848603121561022657600080fd5b61022f846101d3565b925061023d602085016101d3565b9150604084013590509250925092565b60006020828403121561025f57600080fd5b8151801515811461020a57600080fdfea2646970667358221220502fe3cef5472467ba27d3f0af8cc13ea970369ac0d01284025186802306355064736f6c6343000819003368747470733a2f2f6170702e6e65786c6162732e696f2f6170692f616c6c46756e64696e6752617465733f6d756c7469706c7946756e633d31382674696d65734e656746756e643d74727565266172726179733d74727565cd5ed15c6e187e77e9aee88184c21f4f2182ab5827cb3b7e07fbedcd63f03300a2646970667358221220466e2b8aa7f4564f910c317560f61e810a5bc49baedd296401f350d3c7798d6464736f6c63430008190033","linkReferences":{}},"methodIdentifiers":{"burnedTokenAmountByNonce(uint256)":"ab7820b2","buyRequestPayedAmountById(uint256)":"8861d235","calculateIssuanceFee(uint256)":"e19eefbe","cancelIssuance(uint256)":"46d66a2c","cancelIssuanceComplted(uint256)":"7bfa27f2","cancelIssuanceRequestId(uint256,address)":"02e80f71","cancelRedemption(uint256)":"9219e510","cancelRedemptionComplted(uint256)":"b46840f9","cancelRedemptionRequestId(uint256,address)":"8c221899","checkCancelIssuanceStatus(uint256)":"631c8385","checkCancelRedemptionStatus(uint256)":"b592662a","checkIssuanceOrdersStatus(uint256)":"2343acb4","checkRedemptionOrdersStatus(uint256)":"3fac0922","coaByIssuanceNonce(uint256)":"31c99010","coaByRedemptionNonce(uint256)":"b75f4c2c","completeCancelIssuance(uint256)":"807ca237","completeCancelRedemption(uint256)":"9026544f","completeIssuance(uint256)":"bed45bef","completeRedemption(uint256)":"840ecba0","concatenation(string,string)":"0e329357","currentList(uint256)":"9932ba4c","custodianWallet()":"1e106e99","externalJobId()":"a8b54bd4","feeRate()":"978bbdb9","firstRebalanceAction()":"32f53f3c","fulfillAssetsData(bytes32,address[],uint256[])":"f14bea20","getOrderInstanceById(uint256)":"f1f31d66","initialize(address,address,address,address,uint8,address,address,bytes32)":"efa906c7","isIssuanceOrderActive(uint256)":"b0e12134","isRedemptionOrderActive(uint256)":"0b1a4918","issuance(uint256)":"248b761e","issuanceIndexTokenPrimaryTotalSupply(uint256)":"b1dd819e","issuanceIsCompleted(uint256)":"a84ebc17","issuanceNonce()":"9dbb9c9e","issuanceRequestId(uint256,address)":"264fa8b9","issuanceRequesterByNonce(uint256)":"94674098","issuanceTokenPrimaryBalance(uint256,address)":"da65925a","issuer()":"1d143848","lastUpdateTime()":"c8f33c91","latestFeeUpdate()":"011ced5f","mockFillAssetsList(address[],uint256[])":"addc70d1","oracleList(uint256)":"239aad0d","oraclePayment()":"0c02e130","orderInstanceById(uint256)":"15e666a2","owner()":"8da5cb5b","pause()":"8456cb59","paused()":"5c975abb","portfolioValueByNonce(uint256)":"2badae5d","priceFeedByTokenAddress(address)":"08dc4b0c","priceInWei(address)":"6839a095","rebalanceNonce()":"edca4f5e","redemption(uint256)":"4a1dc092","redemptionIndexTokenPrimaryTotalSupply(uint256)":"daf1c17d","redemptionIsCompleted(uint256)":"76529fdf","redemptionNonce()":"84d77bb1","redemptionRequestId(uint256,address)":"f513a718","redemptionRequesterByNonce(uint256)":"78032658","redemptionTokenPrimaryBalance(uint256,address)":"a363b9cb","renounceOwnership()":"715018a6","requestAssetsData()":"7ca58c55","sellRequestAssetAmountById(uint256)":"a87f98d2","setCustodianWallet(address)":"9cc0fb5b","setFeeRate(uint8)":"5177942a","setIssuer(address)":"55cc4e57","setOracleInfo(address,bytes32)":"43482fc8","setPriceFeedAddresses(address[],address[])":"57b61bc3","setTokenAddress(address)":"26a4e8d2","setUrl(string,string)":"a73e1cbf","setUsdcAddress(address,uint8)":"eab2a711","setWrappedDShareAddresses(address[],address[])":"b411dc41","token()":"fc0c546a","tokenCurrentListIndex(address)":"914f0cc6","tokenCurrentMarketShare(address)":"0be52713","tokenOracleListIndex(address)":"8c88c10c","tokenOracleMarketShare(address)":"4b3e0b80","tokenValueByNonce(uint256)":"5a681166","totalCurrentList()":"53fd4332","totalOracleList()":"c8599ded","transferOwnership(address)":"f2fde38b","unpause()":"3f4ba83a","usdc()":"3e413bee","usdcDecimals()":"7bf42165","vault()":"fbfa77cf","wrappedDshareAddress(address)":"092755e0"},"id":16}