{"abi":[{"type":"function","name":"actionInfoById","inputs":[{"name":"","type":"uint256","internalType":"uint256"}],"outputs":[{"name":"actionType","type":"uint256","internalType":"uint256"},{"name":"nonce","type":"uint256","internalType":"uint256"}],"stateMutability":"view"},{"type":"function","name":"burnedTokenAmountByNonce","inputs":[{"name":"","type":"uint256","internalType":"uint256"}],"outputs":[{"name":"","type":"uint256","internalType":"uint256"}],"stateMutability":"view"},{"type":"function","name":"buyRequestPayedAmountById","inputs":[{"name":"","type":"uint256","internalType":"uint256"}],"outputs":[{"name":"","type":"uint256","internalType":"uint256"}],"stateMutability":"view"},{"type":"function","name":"calculateBuyRequestFee","inputs":[{"name":"_amount","type":"uint256","internalType":"uint256"}],"outputs":[{"name":"","type":"uint256","internalType":"uint256"}],"stateMutability":"view"},{"type":"function","name":"calculateIssuanceFee","inputs":[{"name":"_inputAmount","type":"uint256","internalType":"uint256"}],"outputs":[{"name":"","type":"uint256","internalType":"uint256"}],"stateMutability":"view"},{"type":"function","name":"cancelIssuance","inputs":[{"name":"_issuanceNonce","type":"uint256","internalType":"uint256"}],"outputs":[],"stateMutability":"nonpayable"},{"type":"function","name":"cancelIssuanceComplted","inputs":[{"name":"","type":"uint256","internalType":"uint256"}],"outputs":[{"name":"","type":"bool","internalType":"bool"}],"stateMutability":"view"},{"type":"function","name":"cancelIssuanceRequestId","inputs":[{"name":"","type":"uint256","internalType":"uint256"},{"name":"","type":"address","internalType":"address"}],"outputs":[{"name":"","type":"uint256","internalType":"uint256"}],"stateMutability":"view"},{"type":"function","name":"cancelIssuanceUnfilledAmount","inputs":[{"name":"","type":"uint256","internalType":"uint256"},{"name":"","type":"address","internalType":"address"}],"outputs":[{"name":"","type":"uint256","internalType":"uint256"}],"stateMutability":"view"},{"type":"function","name":"cancelRedemption","inputs":[{"name":"_redemptionNonce","type":"uint256","internalType":"uint256"}],"outputs":[],"stateMutability":"nonpayable"},{"type":"function","name":"cancelRedemptionComplted","inputs":[{"name":"","type":"uint256","internalType":"uint256"}],"outputs":[{"name":"","type":"bool","internalType":"bool"}],"stateMutability":"view"},{"type":"function","name":"cancelRedemptionRequestId","inputs":[{"name":"","type":"uint256","internalType":"uint256"},{"name":"","type":"address","internalType":"address"}],"outputs":[{"name":"","type":"uint256","internalType":"uint256"}],"stateMutability":"view"},{"type":"function","name":"cancelRedemptionUnfilledAmount","inputs":[{"name":"","type":"uint256","internalType":"uint256"},{"name":"","type":"address","internalType":"address"}],"outputs":[{"name":"","type":"uint256","internalType":"uint256"}],"stateMutability":"view"},{"type":"function","name":"checkMultical","inputs":[{"name":"_reqeustId","type":"uint256","internalType":"uint256"}],"outputs":[{"name":"","type":"bool","internalType":"bool"}],"stateMutability":"view"},{"type":"function","name":"coaByIssuanceNonce","inputs":[{"name":"","type":"uint256","internalType":"uint256"}],"outputs":[{"name":"","type":"address","internalType":"address"}],"stateMutability":"view"},{"type":"function","name":"coaByRedemptionNonce","inputs":[{"name":"","type":"uint256","internalType":"uint256"}],"outputs":[{"name":"","type":"address","internalType":"address"}],"stateMutability":"view"},{"type":"function","name":"completeCancelIssuance","inputs":[{"name":"_issuanceNonce","type":"uint256","internalType":"uint256"}],"outputs":[],"stateMutability":"nonpayable"},{"type":"function","name":"completeCancelRedemption","inputs":[{"name":"_redemptionNonce","type":"uint256","internalType":"uint256"}],"outputs":[],"stateMutability":"nonpayable"},{"type":"function","name":"completeIssuance","inputs":[{"name":"_issuanceNonce","type":"uint256","internalType":"uint256"}],"outputs":[],"stateMutability":"nonpayable"},{"type":"function","name":"completeRedemption","inputs":[{"name":"_redemptionNonce","type":"uint256","internalType":"uint256"}],"outputs":[],"stateMutability":"nonpayable"},{"type":"function","name":"factoryStorage","inputs":[],"outputs":[{"name":"","type":"address","internalType":"contract IndexFactoryStorage"}],"stateMutability":"view"},{"type":"function","name":"feeRate","inputs":[],"outputs":[{"name":"","type":"uint8","internalType":"uint8"}],"stateMutability":"view"},{"type":"function","name":"getActionType","inputs":[{"name":"_requestId","type":"uint256","internalType":"uint256"}],"outputs":[{"name":"","type":"uint256","internalType":"uint256"}],"stateMutability":"view"},{"type":"function","name":"getIssuanceAmountOut","inputs":[{"name":"_amount","type":"uint256","internalType":"uint256"}],"outputs":[{"name":"","type":"uint256","internalType":"uint256"}],"stateMutability":"view"},{"type":"function","name":"getOrderInstanceById","inputs":[{"name":"id","type":"uint256","internalType":"uint256"}],"outputs":[{"name":"","type":"tuple","internalType":"struct IOrderProcessor.Order","components":[{"name":"requestTimestamp","type":"uint64","internalType":"uint64"},{"name":"recipient","type":"address","internalType":"address"},{"name":"assetToken","type":"address","internalType":"address"},{"name":"paymentToken","type":"address","internalType":"address"},{"name":"sell","type":"bool","internalType":"bool"},{"name":"orderType","type":"uint8","internalType":"enum IOrderProcessor.OrderType"},{"name":"assetTokenQuantity","type":"uint256","internalType":"uint256"},{"name":"paymentTokenQuantity","type":"uint256","internalType":"uint256"},{"name":"price","type":"uint256","internalType":"uint256"},{"name":"tif","type":"uint8","internalType":"enum IOrderProcessor.TIF"}]}],"stateMutability":"view"},{"type":"function","name":"getPortfolioValue","inputs":[],"outputs":[{"name":"","type":"uint256","internalType":"uint256"}],"stateMutability":"view"},{"type":"function","name":"getRedemptionAmountOut","inputs":[{"name":"_amount","type":"uint256","internalType":"uint256"}],"outputs":[{"name":"","type":"uint256","internalType":"uint256"}],"stateMutability":"view"},{"type":"function","name":"getVaultDshareBalance","inputs":[{"name":"_token","type":"address","internalType":"address"}],"outputs":[{"name":"","type":"uint256","internalType":"uint256"}],"stateMutability":"view"},{"type":"function","name":"getVaultDshareValue","inputs":[{"name":"_token","type":"address","internalType":"address"}],"outputs":[{"name":"","type":"uint256","internalType":"uint256"}],"stateMutability":"view"},{"type":"function","name":"initialize","inputs":[{"name":"_factoryStorage","type":"address","internalType":"address"},{"name":"_orderManager","type":"address","internalType":"address"},{"name":"_issuer","type":"address","internalType":"address"},{"name":"_token","type":"address","internalType":"address"},{"name":"_vault","type":"address","internalType":"address"},{"name":"_usdc","type":"address","internalType":"address"},{"name":"_usdcDecimals","type":"uint8","internalType":"uint8"},{"name":"_isMainnet","type":"bool","internalType":"bool"}],"outputs":[],"stateMutability":"nonpayable"},{"type":"function","name":"isMainnet","inputs":[],"outputs":[{"name":"","type":"bool","internalType":"bool"}],"stateMutability":"view"},{"type":"function","name":"issuanceIndexTokenPrimaryTotalSupply","inputs":[{"name":"","type":"uint256","internalType":"uint256"}],"outputs":[{"name":"","type":"uint256","internalType":"uint256"}],"stateMutability":"view"},{"type":"function","name":"issuanceIndexTokens","inputs":[{"name":"_inputAmount","type":"uint256","internalType":"uint256"}],"outputs":[{"name":"","type":"uint256","internalType":"uint256"}],"stateMutability":"nonpayable"},{"type":"function","name":"issuanceInputAmount","inputs":[{"name":"","type":"uint256","internalType":"uint256"}],"outputs":[{"name":"","type":"uint256","internalType":"uint256"}],"stateMutability":"view"},{"type":"function","name":"issuanceIsCompleted","inputs":[{"name":"","type":"uint256","internalType":"uint256"}],"outputs":[{"name":"","type":"bool","internalType":"bool"}],"stateMutability":"view"},{"type":"function","name":"issuanceNonce","inputs":[],"outputs":[{"name":"","type":"uint256","internalType":"uint256"}],"stateMutability":"view"},{"type":"function","name":"issuanceRequestId","inputs":[{"name":"","type":"uint256","internalType":"uint256"},{"name":"","type":"address","internalType":"address"}],"outputs":[{"name":"","type":"uint256","internalType":"uint256"}],"stateMutability":"view"},{"type":"function","name":"issuanceRequesterByNonce","inputs":[{"name":"","type":"uint256","internalType":"uint256"}],"outputs":[{"name":"","type":"address","internalType":"address"}],"stateMutability":"view"},{"type":"function","name":"issuanceTokenPrimaryBalance","inputs":[{"name":"","type":"uint256","internalType":"uint256"},{"name":"","type":"address","internalType":"address"}],"outputs":[{"name":"","type":"uint256","internalType":"uint256"}],"stateMutability":"view"},{"type":"function","name":"issuer","inputs":[],"outputs":[{"name":"","type":"address","internalType":"contract IOrderProcessor"}],"stateMutability":"view"},{"type":"function","name":"latestFeeUpdate","inputs":[],"outputs":[{"name":"","type":"uint256","internalType":"uint256"}],"stateMutability":"view"},{"type":"function","name":"multical","inputs":[{"name":"_requestId","type":"uint256","internalType":"uint256"}],"outputs":[],"stateMutability":"nonpayable"},{"type":"function","name":"orderInstanceById","inputs":[{"name":"","type":"uint256","internalType":"uint256"}],"outputs":[{"name":"requestTimestamp","type":"uint64","internalType":"uint64"},{"name":"recipient","type":"address","internalType":"address"},{"name":"assetToken","type":"address","internalType":"address"},{"name":"paymentToken","type":"address","internalType":"address"},{"name":"sell","type":"bool","internalType":"bool"},{"name":"orderType","type":"uint8","internalType":"enum IOrderProcessor.OrderType"},{"name":"assetTokenQuantity","type":"uint256","internalType":"uint256"},{"name":"paymentTokenQuantity","type":"uint256","internalType":"uint256"},{"name":"price","type":"uint256","internalType":"uint256"},{"name":"tif","type":"uint8","internalType":"enum IOrderProcessor.TIF"}],"stateMutability":"view"},{"type":"function","name":"orderManager","inputs":[],"outputs":[{"name":"","type":"address","internalType":"contract OrderManager"}],"stateMutability":"view"},{"type":"function","name":"owner","inputs":[],"outputs":[{"name":"","type":"address","internalType":"address"}],"stateMutability":"view"},{"type":"function","name":"pause","inputs":[],"outputs":[],"stateMutability":"nonpayable"},{"type":"function","name":"paused","inputs":[],"outputs":[{"name":"","type":"bool","internalType":"bool"}],"stateMutability":"view"},{"type":"function","name":"portfolioValueByNonce","inputs":[{"name":"","type":"uint256","internalType":"uint256"}],"outputs":[{"name":"","type":"uint256","internalType":"uint256"}],"stateMutability":"view"},{"type":"function","name":"priceInWei","inputs":[{"name":"_tokenAddress","type":"address","internalType":"address"}],"outputs":[{"name":"","type":"uint256","internalType":"uint256"}],"stateMutability":"view"},{"type":"function","name":"redemption","inputs":[{"name":"_inputAmount","type":"uint256","internalType":"uint256"}],"outputs":[{"name":"","type":"uint256","internalType":"uint256"}],"stateMutability":"nonpayable"},{"type":"function","name":"redemptionIndexTokenPrimaryTotalSupply","inputs":[{"name":"","type":"uint256","internalType":"uint256"}],"outputs":[{"name":"","type":"uint256","internalType":"uint256"}],"stateMutability":"view"},{"type":"function","name":"redemptionInputAmount","inputs":[{"name":"","type":"uint256","internalType":"uint256"}],"outputs":[{"name":"","type":"uint256","internalType":"uint256"}],"stateMutability":"view"},{"type":"function","name":"redemptionIsCompleted","inputs":[{"name":"","type":"uint256","internalType":"uint256"}],"outputs":[{"name":"","type":"bool","internalType":"bool"}],"stateMutability":"view"},{"type":"function","name":"redemptionNonce","inputs":[],"outputs":[{"name":"","type":"uint256","internalType":"uint256"}],"stateMutability":"view"},{"type":"function","name":"redemptionRequestId","inputs":[{"name":"","type":"uint256","internalType":"uint256"},{"name":"","type":"address","internalType":"address"}],"outputs":[{"name":"","type":"uint256","internalType":"uint256"}],"stateMutability":"view"},{"type":"function","name":"redemptionRequesterByNonce","inputs":[{"name":"","type":"uint256","internalType":"uint256"}],"outputs":[{"name":"","type":"address","internalType":"address"}],"stateMutability":"view"},{"type":"function","name":"redemptionTokenPrimaryBalance","inputs":[{"name":"","type":"uint256","internalType":"uint256"},{"name":"","type":"address","internalType":"address"}],"outputs":[{"name":"","type":"uint256","internalType":"uint256"}],"stateMutability":"view"},{"type":"function","name":"renounceOwnership","inputs":[],"outputs":[],"stateMutability":"nonpayable"},{"type":"function","name":"sellRequestAssetAmountById","inputs":[{"name":"","type":"uint256","internalType":"uint256"}],"outputs":[{"name":"","type":"uint256","internalType":"uint256"}],"stateMutability":"view"},{"type":"function","name":"setFeeRate","inputs":[{"name":"_newFee","type":"uint8","internalType":"uint8"}],"outputs":[],"stateMutability":"nonpayable"},{"type":"function","name":"setIndexFactoryStorage","inputs":[{"name":"_factoryStorage","type":"address","internalType":"address"}],"outputs":[{"name":"","type":"bool","internalType":"bool"}],"stateMutability":"nonpayable"},{"type":"function","name":"setIssuer","inputs":[{"name":"_issuer","type":"address","internalType":"address"}],"outputs":[{"name":"","type":"bool","internalType":"bool"}],"stateMutability":"nonpayable"},{"type":"function","name":"setTokenAddress","inputs":[{"name":"_token","type":"address","internalType":"address"}],"outputs":[{"name":"","type":"bool","internalType":"bool"}],"stateMutability":"nonpayable"},{"type":"function","name":"setUsdcAddress","inputs":[{"name":"_usdc","type":"address","internalType":"address"},{"name":"_usdcDecimals","type":"uint8","internalType":"uint8"}],"outputs":[{"name":"","type":"bool","internalType":"bool"}],"stateMutability":"nonpayable"},{"type":"function","name":"token","inputs":[],"outputs":[{"name":"","type":"address","internalType":"contract IndexToken"}],"stateMutability":"view"},{"type":"function","name":"tokenShortagePercentByNonce","inputs":[{"name":"","type":"uint256","internalType":"uint256"},{"name":"","type":"address","internalType":"address"}],"outputs":[{"name":"","type":"uint256","internalType":"uint256"}],"stateMutability":"view"},{"type":"function","name":"tokenValueByNonce","inputs":[{"name":"","type":"uint256","internalType":"uint256"},{"name":"","type":"address","internalType":"address"}],"outputs":[{"name":"","type":"uint256","internalType":"uint256"}],"stateMutability":"view"},{"type":"function","name":"totalShortagePercentByNonce","inputs":[{"name":"","type":"uint256","internalType":"uint256"}],"outputs":[{"name":"","type":"uint256","internalType":"uint256"}],"stateMutability":"view"},{"type":"function","name":"transferOwnership","inputs":[{"name":"newOwner","type":"address","internalType":"address"}],"outputs":[],"stateMutability":"nonpayable"},{"type":"function","name":"unpause","inputs":[],"outputs":[],"stateMutability":"nonpayable"},{"type":"function","name":"usdc","inputs":[],"outputs":[{"name":"","type":"address","internalType":"address"}],"stateMutability":"view"},{"type":"function","name":"usdcDecimals","inputs":[],"outputs":[{"name":"","type":"uint8","internalType":"uint8"}],"stateMutability":"view"},{"type":"function","name":"vault","inputs":[],"outputs":[{"name":"","type":"address","internalType":"contract NexVault"}],"stateMutability":"view"},{"type":"event","name":"Initialized","inputs":[{"name":"version","type":"uint64","indexed":false,"internalType":"uint64"}],"anonymous":false},{"type":"event","name":"Issuanced","inputs":[{"name":"nonce","type":"uint256","indexed":true,"internalType":"uint256"},{"name":"user","type":"address","indexed":true,"internalType":"address"},{"name":"inputToken","type":"address","indexed":false,"internalType":"address"},{"name":"inputAmount","type":"uint256","indexed":false,"internalType":"uint256"},{"name":"outputAmount","type":"uint256","indexed":false,"internalType":"uint256"},{"name":"time","type":"uint256","indexed":false,"internalType":"uint256"}],"anonymous":false},{"type":"event","name":"OwnershipTransferred","inputs":[{"name":"previousOwner","type":"address","indexed":true,"internalType":"address"},{"name":"newOwner","type":"address","indexed":true,"internalType":"address"}],"anonymous":false},{"type":"event","name":"Paused","inputs":[{"name":"account","type":"address","indexed":false,"internalType":"address"}],"anonymous":false},{"type":"event","name":"Redemption","inputs":[{"name":"nonce","type":"uint256","indexed":true,"internalType":"uint256"},{"name":"user","type":"address","indexed":true,"internalType":"address"},{"name":"outputToken","type":"address","indexed":false,"internalType":"address"},{"name":"inputAmount","type":"uint256","indexed":false,"internalType":"uint256"},{"name":"outputAmount","type":"uint256","indexed":false,"internalType":"uint256"},{"name":"time","type":"uint256","indexed":false,"internalType":"uint256"}],"anonymous":false},{"type":"event","name":"RequestIssuance","inputs":[{"name":"nonce","type":"uint256","indexed":true,"internalType":"uint256"},{"name":"user","type":"address","indexed":true,"internalType":"address"},{"name":"inputToken","type":"address","indexed":false,"internalType":"address"},{"name":"inputAmount","type":"uint256","indexed":false,"internalType":"uint256"},{"name":"outputAmount","type":"uint256","indexed":false,"internalType":"uint256"},{"name":"time","type":"uint256","indexed":false,"internalType":"uint256"}],"anonymous":false},{"type":"event","name":"RequestRedemption","inputs":[{"name":"nonce","type":"uint256","indexed":true,"internalType":"uint256"},{"name":"user","type":"address","indexed":true,"internalType":"address"},{"name":"outputToken","type":"address","indexed":false,"internalType":"address"},{"name":"inputAmount","type":"uint256","indexed":false,"internalType":"uint256"},{"name":"outputAmount","type":"uint256","indexed":false,"internalType":"uint256"},{"name":"time","type":"uint256","indexed":false,"internalType":"uint256"}],"anonymous":false},{"type":"event","name":"Unpaused","inputs":[{"name":"account","type":"address","indexed":false,"internalType":"address"}],"anonymous":false},{"type":"error","name":"EnforcedPause","inputs":[]},{"type":"error","name":"ExpectedPause","inputs":[]},{"type":"error","name":"InvalidInitialization","inputs":[]},{"type":"error","name":"NotInitializing","inputs":[]},{"type":"error","name":"OwnableInvalidOwner","inputs":[{"name":"owner","type":"address","internalType":"address"}]},{"type":"error","name":"OwnableUnauthorizedAccount","inputs":[{"name":"account","type":"address","internalType":"address"}]},{"type":"error","name":"PRBMath_MulDiv_Overflow","inputs":[{"name":"x","type":"uint256","internalType":"uint256"},{"name":"y","type":"uint256","internalType":"uint256"},{"name":"denominator","type":"uint256","internalType":"uint256"}]}],"bytecode":{"object":"0x6080604052348015600f57600080fd5b506160348061001f6000396000f3fe608060405234801561001057600080fd5b50600436106104335760003560e01c80638da5cb5b11610236578063bed45bef1161013b578063e19eefbe116100c3578063f2fde38b11610087578063f2fde38b14610c13578063f513a71814610c26578063f9b6117f14610c51578063fbfa77cf14610c64578063fc0c546a14610c7757600080fd5b8063e19eefbe14610ba7578063e2851bd614610bba578063eab2a71114610bcd578063efdf505314610be0578063f1f31d6614610bf357600080fd5b8063cf9ee3191161010a578063cf9ee31914610afe578063da65925a14610b1e578063daf1c17d14610b49578063db5c1a1214610b69578063e16e554a14610b9457600080fd5b8063bed45bef14610ab2578063c06e1ae214610ac5578063c8da330314610ad8578063cc8659ae14610aeb57600080fd5b8063a363b9cb116101be578063b1dd819e1161018d578063b1dd819e14610a15578063b316e7fd14610a35578063b46840f914610a5e578063b75f4c2c14610a81578063bb0498de14610aaa57600080fd5b8063a363b9cb14610987578063a84ebc17146109b2578063a87f98d2146109d5578063ab7820b2146109f557600080fd5b8063978bbdb911610205578063978bbdb91461090c5780639cf54521146109205780639dbb9c9e146109405780639edcf9f414610949578063a08d7bd61461097457600080fd5b80638da5cb5b1461088d5780639026544f146108bd5780639219e510146108d057806394674098146108e357600080fd5b80635177942a1161033c57806378032658116102c4578063840ecba011610293578063840ecba01461081e5780638456cb591461083157806384d77bb1146108395780638861d235146108425780638c2218991461086257600080fd5b806378032658146107995780637bf42165146107c25780637bfa27f2146107e8578063807ca2371461080b57600080fd5b80636839a0951161030b5780636839a095146107355780636e32040814610748578063715018a61461075b57806373b774ed1461076357806376529fdf1461077657600080fd5b80635177942a146106cc57806355cc4e57146106df5780635c975abb146106f2578063632439fd1461070a57600080fd5b806331c99010116103bf5780633f4ba83a1161038e5780633f4ba83a1461067c57806342faac051461068657806346d66a2c1461069357806348f6e87b146106a65780634a1dc092146106b957600080fd5b806331c99010146105e45780633aeff0591461060d5780633c1f70ca1461062d5780633e413bee1461066957600080fd5b80631d143848116104065780631d1438481461052b578063264fa8b91461055657806326a4e8d2146105815780632badae5d146105a45780632ca49334146105c457600080fd5b8063011ced5f1461043857806302e80f711461045457806306995e3b1461047f57806315e666a214610492575b600080fd5b61044160265481565b6040519081526020015b60405180910390f35b610441610462366004615905565b600c60209081526000928352604080842090915290825290205481565b61044161048d366004615935565b610c8a565b6105156104a0366004615935565b601e60205260009081526040902080546001820154600283015460038401546004850154600586015460069096015467ffffffffffffffff8616966001600160a01b03600160401b9097048716969586169585169460ff600160a01b8204811695600160a81b9092048116949193919291168a565b60405161044b9a99989796959493929190615988565b60075461053e906001600160a01b031681565b6040516001600160a01b03909116815260200161044b565b610441610564366004615905565b601060209081526000928352604080842090915290825290205481565b61059461058f3660046159fe565b610d2a565b604051901515815260200161044b565b6104416105b2366004615935565b601f6020526000908152604090205481565b6104416105d2366004615935565b60226020526000908152604090205481565b61053e6105f2366004615935565b601a602052600090815260409020546001600160a01b031681565b61044161061b366004615935565b60009081526025602052604090205490565b61065461063b366004615935565b6025602052600090815260409020805460019091015482565b6040805192835260208301919091520161044b565b60085461053e906001600160a01b031681565b610684610dab565b005b600b546105949060ff1681565b6106846106a1366004615935565b610dbd565b6106846106b4366004615a38565b611539565b6104416106c7366004615935565b61177e565b6106846106da366004615ae1565b611def565b6105946106ed3660046159fe565b611f39565b600080516020615fdf8339815191525460ff16610594565b610441610718366004615905565b600f60209081526000928352604080842090915290825290205481565b6104416107433660046159fe565b611fb7565b610441610756366004615935565b61219b565b610684612749565b610684610771366004615935565b61275b565b610594610784366004615935565b60016020526000908152604090205460ff1681565b61053e6107a7366004615935565b6019602052600090815260409020546001600160a01b031681565b6008546107d690600160a01b900460ff1681565b60405160ff909116815260200161044b565b6105946107f6366004615935565b601c6020526000908152604090205460ff1681565b610684610819366004615935565b6127df565b61068461082c366004615935565b612b21565b610684612f46565b610441600a5481565b610441610850366004615935565b60126020526000908152604090205481565b610441610870366004615905565b600d60209081526000928352604080842090915290825290205481565b7f9016d09d72d40fdae2fd8ceac6b6234c7706214fd39c1cd1e609a0528c199300546001600160a01b031661053e565b6106846108cb366004615935565b612f56565b6106846108de366004615935565b6135d3565b61053e6108f1366004615935565b6018602052600090815260409020546001600160a01b031681565b6008546107d690600160a81b900460ff1681565b61044161092e366004615935565b60246020526000908152604090205481565b61044160095481565b610441610957366004615905565b600e60209081526000928352604080842090915290825290205481565b6104416109823660046159fe565b613d28565b610441610995366004615905565b601560209081526000928352604080842090915290825290205481565b6105946109c0366004615935565b60006020819052908152604090205460ff1681565b6104416109e3366004615935565b60136020526000908152604090205481565b610441610a03366004615935565b60026020526000908152604090205481565b610441610a23366004615935565b60166020526000908152604090205481565b610441610a43366004615905565b60208080526000928352604080842090915290825290205481565b610594610a6c366004615935565b601d6020526000908152604090205460ff1681565b61053e610a8f366004615935565b601b602052600090815260409020546001600160a01b031681565b610441613e83565b610684610ac0366004615935565b613f8a565b60045461053e906001600160a01b031681565b610441610ae6366004615935565b61475b565b610594610af93660046159fe565b6147fa565b610441610b0c366004615935565b60236020526000908152604090205481565b610441610b2c366004615905565b601460209081526000928352604080842090915290825290205481565b610441610b57366004615935565b60176020526000908152604090205481565b610441610b77366004615905565b602160209081526000928352604080842090915290825290205481565b610594610ba2366004615935565b61487f565b610441610bb5366004615935565b6149e2565b610441610bc8366004615935565b614c1f565b610594610bdb366004615afe565b614cb4565b610441610bee3660046159fe565b614d3e565b610c06610c01366004615935565b614d76565b60405161044b9190615b2c565b610684610c213660046159fe565b614e7d565b610441610c34366004615905565b601160209081526000928352604080842090915290825290205481565b60065461053e906001600160a01b031681565b60055461053e906001600160a01b031681565b60035461053e906001600160a01b031681565b6007546008546040516308da5c3560e21b81526000600482018190526001600160a01b039283166024830152928392839291169063236970d4906044016040805180830381865afa158015610ce3573d6000803e3d6000fd5b505050506040513d601f19601f82011682018060405250810190610d079190615bf2565b915091506000610d178286614ebb565b610d219084615c35565b95945050505050565b6000610d34614ee4565b6001600160a01b038216610d875760405162461bcd60e51b8152602060048201526015602482015274696e76616c696420746f6b656e206164647265737360581b60448201526064015b60405180910390fd5b50600380546001600160a01b0319166001600160a01b03831617905560015b919050565b610db3614ee4565b610dbb614f3f565b565b60008181526020819052604090205460ff1615610e145760405162461bcd60e51b8152602060048201526015602482015274125cdcdd585b98d9481a5cc818dbdb5c1b195d1959605a1b6044820152606401610d7e565b6000818152601860205260409020546001600160a01b0316338114610e8a5760405162461bcd60e51b815260206004820152602660248201527f4f6e6c79207265717565737465722063616e2063616e63656c207468652069736044820152657375616e636560d01b6064820152608401610d7e565b60005b60048054604080516329fea19960e11b815290516001600160a01b03909216926353fd43329282820192602092908290030181865afa158015610ed4573d6000803e3d6000fd5b505050506040513d601f19601f82011682018060405250810190610ef89190615c48565b811015611534576004805460405163264cae9360e21b81529182018390526000916001600160a01b0390911690639932ba4c90602401602060405180830381865afa158015610f4b573d6000803e3d6000fd5b505050506040513d601f19601f82011682018060405250810190610f6f9190615c61565b60008581526010602090815260408083206001600160a01b03808616855290835281842054808552601e8452828520835161014081018552815467ffffffffffffffff81168252600160401b90048416958101959095526001808201548416948601949094526002810154928316606086015260ff600160a01b84048116151560808701529697509095909260a0850192600160a81b90049091169081111561101a5761101a61594e565b600181111561102b5761102b61594e565b815260038281015460208301526004830154604083015260058301546060830152600683015460809092019160ff169081111561106a5761106a61594e565b600381111561107b5761107b61594e565b9052506007546040516322fd455760e11b8152600481018590529192506001916001600160a01b03909116906345fa8aae90602401602060405180830381865afa1580156110cd573d6000803e3d6000fd5b505050506040513d601f19601f820116820180604052508101906110f19190615c7e565b60038111156111025761110261594e565b60ff1614801561117c575060075460405163187b2ed160e21b8152600481018490526001600160a01b03909116906361ecbb4490602401602060405180830381865afa158015611156573d6000803e3d6000fd5b505050506040513d601f19601f8201168201806040525081019061117a9190615c48565b155b156111e45760065460405163514fcac760e01b8152600481018490526001600160a01b039091169063514fcac790602401600060405180830381600087803b1580156111c757600080fd5b505af11580156111db573d6000803e3d6000fd5b50505050611529565b6007546040516322fd455760e11b8152600481018490526002916001600160a01b0316906345fa8aae90602401602060405180830381865afa15801561122e573d6000803e3d6000fd5b505050506040513d601f19601f820116820180604052508101906112529190615c7e565b60038111156112635761126361594e565b60ff1614806112dd575060075460405163187b2ed160e21b8152600481018490526000916001600160a01b0316906361ecbb4490602401602060405180830381865afa1580156112b7573d6000803e3d6000fd5b505050506040513d601f19601f820116820180604052508101906112db9190615c48565b115b156115295760075460405163187b2ed160e21b8152600481018490526000916001600160a01b0316906361ecbb4490602401602060405180830381865afa15801561132c573d6000803e3d6000fd5b505050506040513d601f19601f820116820180604052508101906113509190615c48565b60065490915060009061136f90869084906001600160a01b0316614f9f565b6040805180820182526003815260208082018c81526000858152602583528481209351845590516001938401558c8152600c82528381206001600160a01b038b81168352925283902084905560075492516322fd455760e11b81526004810189905293945090929116906345fa8aae90602401602060405180830381865afa1580156113ff573d6000803e3d6000fd5b505050506040513d601f19601f820116820180604052508101906114239190615c7e565b60038111156114345761143461594e565b60ff16036115265760075460405163103fdae160e31b8152600481018690526001600160a01b03909116906381fed70890602401602060405180830381865afa158015611485573d6000803e3d6000fd5b505050506040513d601f19601f820116820180604052508101906114a99190615c48565b6000898152600e602090815260408083206001600160a01b038a8116855292529182902092909255600654905163514fcac760e01b81526004810187905291169063514fcac790602401600060405180830381600087803b15801561150d57600080fd5b505af1158015611521573d6000803e3d6000fd5b505050505b50505b505050600101610e8d565b505050565b7ff0c57e16840df040f15088dc2f81fe391c3923bec73e23a9662efc9c229c6a008054600160401b810460ff16159067ffffffffffffffff1660008115801561157f5750825b905060008267ffffffffffffffff16600114801561159c5750303b155b9050811580156115aa575080155b156115c85760405163f92ee8a960e01b815260040160405180910390fd5b845467ffffffffffffffff1916600117855583156115f257845460ff60401b1916600160401b1785555b8c600460006101000a8154816001600160a01b0302191690836001600160a01b031602179055508b600660006101000a8154816001600160a01b0302191690836001600160a01b031602179055508a600760006101000a8154816001600160a01b0302191690836001600160a01b0316021790555089600360006101000a8154816001600160a01b0302191690836001600160a01b0316021790555088600560006101000a8154816001600160a01b0302191690836001600160a01b0316021790555087600860006101000a8154816001600160a01b0302191690836001600160a01b0316021790555086600860146101000a81548160ff021916908360ff1602179055506117003361533d565b61170861534e565b6008805460ff60a81b1916600560a91b179055600b805460ff1916871515179055831561176f57845460ff60401b19168555604051600181527fc7f505b2f371ae2175ee4913f4499e1f2633a7b5936321eed1cdaeb6115181d29060200160405180910390a15b50505050505050505050505050565b60006001600a60008282546117939190615c35565b9091555050600a54600090815260246020908152604080832085905560035481516318160ddd60e01b815291516001600160a01b03909116926318160ddd92600480820193918290030181865afa1580156117f2573d6000803e3d6000fd5b505050506040513d601f19601f820116820180604052508101906118169190615c48565b61182884670de0b6b3a7640000615c9f565b6118329190615ccc565b600354604051632770a7eb60e21b8152336004820152602481018690529192506001600160a01b031690639dc29fac90604401600060405180830381600087803b15801561187f57600080fd5b505af1158015611893573d6000803e3d6000fd5b5050600a5460009081526002602052604081208690559150505b60048054604080516329fea19960e11b815290516001600160a01b03909216926353fd43329282820192602092908290030181865afa1580156118f4573d6000803e3d6000fd5b505050506040513d601f19601f820116820180604052508101906119189190615c48565b811015611d94576004805460405163264cae9360e21b81529182018390526000916001600160a01b0390911690639932ba4c90602401602060405180830381865afa15801561196b573d6000803e3d6000fd5b505050506040513d601f19601f8201168201806040525081019061198f9190615c61565b6004805460405162493aaf60e51b81526001600160a01b0380851693820193909352929350600092670de0b6b3a7640000929091169063092755e090602401602060405180830381865afa1580156119eb573d6000803e3d6000fd5b505050506040513d601f19601f82011682018060405250810190611a0f9190615c61565b6005546040516370a0823160e01b81526001600160a01b0391821660048201529116906370a0823190602401602060405180830381865afa158015611a58573d6000803e3d6000fd5b505050506040513d601f19601f82011682018060405250810190611a7c9190615c48565b611a869086615c9f565b611a909190615ccc565b600654909150600090611aaf90849084906001600160a01b0316614f9f565b60408051808201825260028152600a805460208084019182526000868152602582528581209451855591516001909401939093556013835283812087905581548152601183528381206001600160a01b0389811680845291855285832087905592548252601990935283812080546001600160a01b0319163317905560048054945162493aaf60e51b815290810193909352939450919091169063092755e090602401602060405180830381865afa158015611b6f573d6000803e3d6000fd5b505050506040513d601f19601f82011682018060405250810190611b939190615c61565b6005546040516370a0823160e01b81526001600160a01b0391821660048201529116906370a0823190602401602060405180830381865afa158015611bdc573d6000803e3d6000fd5b505050506040513d601f19601f82011682018060405250810190611c009190615c48565b6004805460405162493aaf60e51b81526001600160a01b038881169382019390935292935060009291169063092755e090602401602060405180830381865afa158015611c51573d6000803e3d6000fd5b505050506040513d601f19601f82011682018060405250810190611c759190615c61565b6001600160a01b0316634cdad506836040518263ffffffff1660e01b8152600401611ca291815260200190565b602060405180830381865afa158015611cbf573d6000803e3d6000fd5b505050506040513d601f19601f82011682018060405250810190611ce39190615c48565b600a5460009081526015602090815260408083206001600160a01b03808b1685529083529281902084905560035481516318160ddd60e01b81529151949550909216926318160ddd9260048082019392918290030181865afa158015611d4d573d6000803e3d6000fd5b505050506040513d601f19601f82011682018060405250810190611d719190615c48565b600a546000908152601760205260409020555050600190930192506118ad915050565b50600a546008546040513392917f318a1eb196638838739aab2348b851e63485b8c41dacc90eaff499a0f14ce53391611ddd916001600160a01b03169088906000904290615cee565b60405180910390a35050600a54919050565b611df7614ee4565b600060265442611e079190615d14565b9050600c603c611e178184615ccc565b611e219190615ccc565b11611e945760405162461bcd60e51b815260206004820152603960248201527f596f752073686f756c642077616974206174206c6561737420313220686f757260448201527f7320616674657220746865206c617465737420757064617465000000000000006064820152608401610d7e565b60648260ff1611158015611eac575060018260ff1610155b611f145760405162461bcd60e51b815260206004820152603360248201527f546865206e65774665652073686f756c64206265206265747765656e203120616044820152726e64203130302028302e303125202d2031252960681b6064820152608401610d7e565b506008805460ff909216600160a81b0260ff60a81b1990921691909117905542602655565b6000611f43614ee4565b6001600160a01b038216611f925760405162461bcd60e51b8152602060048201526016602482015275696e76616c696420697373756572206164647265737360501b6044820152606401610d7e565b50600780546001600160a01b0383166001600160a01b03199091161790556001919050565b600b5460009060ff1615612117576004805460405163023712c360e21b81526001600160a01b0385811693820193909352600092909116906308dc4b0c90602401602060405180830381865afa158015612015573d6000803e3d6000fd5b505050506040513d601f19601f820116820180604052508101906120399190615c61565b90506000816001600160a01b031663feaf968c6040518163ffffffff1660e01b815260040160a060405180830381865afa15801561207b573d6000803e3d6000fd5b505050506040513d601f19601f8201168201806040525081019061209f9190615d41565b5050509150506000826001600160a01b031663313ce5676040518163ffffffff1660e01b8152600401602060405180830381865afa1580156120e5573d6000803e3d6000fd5b505050506040513d601f19601f820116820180604052508101906121099190615d91565b9050610d218282601261535e565b60075460085460405163a377cfbf60e01b81526001600160a01b0385811660048301529182166024820152600092919091169063a377cfbf906044016040805180830381865afa15801561216f573d6000803e3d6000fd5b505050506040513d601f19601f820116820180604052508101906121939190615dae565b519392505050565b6000806121a7836149e2565b905060006121b58483615c35565b6008546006546040516323b872dd60e01b81529293506001600160a01b03918216926323b872dd926121f09233929116908690600401615e1c565b6020604051808303816000875af115801561220f573d6000803e3d6000fd5b505050506040513d601f19601f820116820180604052508101906122339190615e40565b506001600960008282546122479190615c35565b909155505060095460009081526023602052604081208590555b60048054604080516329fea19960e11b815290516001600160a01b03909216926353fd43329282820192602092908290030181865afa1580156122a8573d6000803e3d6000fd5b505050506040513d601f19601f820116820180604052508101906122cc9190615c48565b8110156126ed576004805460405163264cae9360e21b81529182018390526000916001600160a01b0390911690639932ba4c90602401602060405180830381865afa15801561231f573d6000803e3d6000fd5b505050506040513d601f19601f820116820180604052508101906123439190615c61565b60048054604051630be5271360e01b81526001600160a01b038085169382019390935292935060009268056bc75e2d631000009290911690630be5271390602401602060405180830381865afa1580156123a1573d6000803e3d6000fd5b505050506040513d601f19601f820116820180604052508101906123c59190615c48565b6123cf9089615c9f565b6123d99190615ccc565b6006549091506000906123f890849084906001600160a01b031661539e565b604080518082018252600180825260098054602080850191825260008781526025825286812095518655915194909301939093556012825283832087905580548352601082528383206001600160a01b03808a16855290835284842086905590548352601890915282822080546001600160a01b0319163317905560048054935162493aaf60e51b8152949550919392169163092755e0916124ab918891016001600160a01b0391909116815260200190565b602060405180830381865afa1580156124c8573d6000803e3d6000fd5b505050506040513d601f19601f820116820180604052508101906124ec9190615c61565b6005546040516370a0823160e01b81526001600160a01b0391821660048201529116906370a0823190602401602060405180830381865afa158015612535573d6000803e3d6000fd5b505050506040513d601f19601f820116820180604052508101906125599190615c48565b6004805460405162493aaf60e51b81526001600160a01b038881169382019390935292935060009291169063092755e090602401602060405180830381865afa1580156125aa573d6000803e3d6000fd5b505050506040513d601f19601f820116820180604052508101906125ce9190615c61565b6001600160a01b0316634cdad506836040518263ffffffff1660e01b81526004016125fb91815260200190565b602060405180830381865afa158015612618573d6000803e3d6000fd5b505050506040513d601f19601f8201168201806040525081019061263c9190615c48565b60095460009081526014602090815260408083206001600160a01b03808b1685529083529281902084905560035481516318160ddd60e01b81529151949550909216926318160ddd9260048082019392918290030181865afa1580156126a6573d6000803e3d6000fd5b505050506040513d601f19601f820116820180604052508101906126ca9190615c48565b600954600090815260166020526040902055505060019093019250612261915050565b506009546008546040513392917fb564a60b4184bee9ffdc1c0fd0588a93c23e406438195eec9857050fece55c2091612736916001600160a01b03169089906000904290615cee565b60405180910390a3505060095492915050565b612751614ee4565b610dbb6000615574565b60008181526025602090815260409182902082518084019093528054808452600191820154928401929092520361279d576127998160200151613f8a565b5050565b80516002036127b3576127998160200151612b21565b80516003036127c95761279981602001516127df565b8051600403612799576127998160200151612f56565b6004805460405163631c838560e01b81529182018390526001600160a01b03169063631c838590602401602060405180830381865afa158015612826573d6000803e3d6000fd5b505050506040513d601f19601f8201168201806040525081019061284a9190615e40565b6128965760405162461bcd60e51b815260206004820181905260248201527f43616e63656c2069737375616e6365206973206e6f7420636f6d706c657465646044820152606401610d7e565b6000818152601c602052604090205460ff16156128c55760405162461bcd60e51b8152600401610d7e90615e5d565b6000818152601860205260408120546001600160a01b031690805b60048054604080516329fea19960e11b815290516001600160a01b03909216926353fd43329282820192602092908290030181865afa158015612927573d6000803e3d6000fd5b505050506040513d601f19601f8201168201806040525081019061294b9190615c48565b811015612a99576004805460405163264cae9360e21b81529182018390526000916001600160a01b0390911690639932ba4c90602401602060405180830381865afa15801561299e573d6000803e3d6000fd5b505050506040513d601f19601f820116820180604052508101906129c29190615c61565b60008681526010602090815260408083206001600160a01b038581168552925280832054600754915163187b2ed160e21b815260048101829052949550939116906361ecbb4490602401602060405180830381865afa158015612a29573d6000803e3d6000fd5b505050506040513d601f19601f82011682018060405250810190612a4d9190615c48565b6000888152600e602090815260408083206001600160a01b0388168452909152902054909150612a7d8183615c35565b612a879087615c35565b955050600190930192506128e0915050565b50600654600854604051631c20fadd60e01b81526001600160a01b0392831692631c20fadd92612ad29291169086908690600401615e1c565b600060405180830381600087803b158015612aec57600080fd5b505af1158015612b00573d6000803e3d6000fd5b50505060009384525050601c6020525060409020805460ff19166001179055565b60048054604051631fd6049160e11b81529182018390526001600160a01b031690633fac092290602401602060405180830381865afa158015612b68573d6000803e3d6000fd5b505050506040513d601f19601f82011682018060405250810190612b8c9190615e40565b612be45760405162461bcd60e51b815260206004820152602360248201527f526564656d7074696f6e206f726465727320617265206e6f7420636f6d706c656044820152621d195960ea1b6064820152608401610d7e565b60008181526001602052604090205460ff1615612c3d5760405162461bcd60e51b8152602060048201526017602482015276149959195b5c1d1a5bdb881a5cc818dbdb5c1b195d1959604a1b6044820152606401610d7e565b6000818152601960205260408120546001600160a01b031690805b60048054604080516329fea19960e11b815290516001600160a01b03909216926353fd43329282820192602092908290030181865afa158015612c9f573d6000803e3d6000fd5b505050506040513d601f19601f82011682018060405250810190612cc39190615c48565b811015612e60576004805460405163264cae9360e21b81529182018390526000916001600160a01b0390911690639932ba4c90602401602060405180830381865afa158015612d16573d6000803e3d6000fd5b505050506040513d601f19601f82011682018060405250810190612d3a9190615c61565b60008681526011602090815260408083206001600160a01b038581168552925280832054600754915163187b2ed160e21b815260048101829052949550939116906361ecbb4490602401602060405180830381865afa158015612da1573d6000803e3d6000fd5b505050506040513d601f19601f82011682018060405250810190612dc59190615c48565b60075460405163069352a960e41b8152600481018590529192506000916001600160a01b03909116906369352a9090602401602060405180830381865afa158015612e14573d6000803e3d6000fd5b505050506040513d601f19601f82011682018060405250810190612e389190615c48565b9050612e448183615d14565b612e4e9087615c35565b95505060019093019250612c58915050565b50600654600854604051631c20fadd60e01b81526001600160a01b0392831692631c20fadd92612e999291169086908690600401615e1c565b600060405180830381600087803b158015612eb357600080fd5b505af1158015612ec7573d6000803e3d6000fd5b5050506000848152600160208181526040808420805460ff19169093179092556008546024909152918190205490516001600160a01b03868116945087937f1c5f6e901258d71ab0ecaa2fcf93176caa78dac41e03fe5dd7a0184727336d8a93612f3993929091169187904290615cee565b60405180910390a3505050565b612f4e614ee4565b610dbb6155e5565b60048054604051635ac9331560e11b81529182018390526001600160a01b03169063b592662a90602401602060405180830381865afa158015612f9d573d6000803e3d6000fd5b505050506040513d601f19601f82011682018060405250810190612fc19190615e40565b6130185760405162461bcd60e51b815260206004820152602260248201527f43616e63656c20726564656d7074696f6e206973206e6f7420636f6d706c6574604482015261195960f21b6064820152608401610d7e565b6000818152601d602052604090205460ff16156130475760405162461bcd60e51b8152600401610d7e90615e5d565b600081815260196020908152604080832054601b9092528083205460085491516370a0823160e01b81526001600160a01b0391821660048201819052938216949291909116906370a0823190602401602060405180830381865afa1580156130b3573d6000803e3d6000fd5b505050506040513d601f19601f820116820180604052508101906130d79190615c48565b905060005b60048054604080516329fea19960e11b815290516001600160a01b03909216926353fd43329282820192602092908290030181865afa158015613123573d6000803e3d6000fd5b505050506040513d601f19601f820116820180604052508101906131479190615c48565b81101561353e576004805460405163264cae9360e21b81529182018390526000916001600160a01b0390911690639932ba4c90602401602060405180830381865afa15801561319a573d6000803e3d6000fd5b505050506040513d601f19601f820116820180604052508101906131be9190615c61565b6000878152600d602090815260408083206001600160a01b038581168552925280832054600754915163069352a960e41b815260048101829052949550939116906369352a9090602401602060405180830381865afa158015613225573d6000803e3d6000fd5b505050506040513d601f19601f820116820180604052508101906132499190615c48565b60075460405163187b2ed160e21b8152600481018590526001600160a01b03909116906361ecbb4490602401602060405180830381865afa158015613292573d6000803e3d6000fd5b505050506040513d601f19601f820116820180604052508101906132b69190615c48565b6132c09190615d14565b6000898152600f602090815260408083206001600160a01b03881684529091528120549192506132f08284615c35565b9050801561352d57600654604051631c20fadd60e01b81526001600160a01b0390911690631c20fadd9061332c90889030908690600401615e1c565b600060405180830381600087803b15801561334657600080fd5b505af115801561335a573d6000803e3d6000fd5b50506004805460405162493aaf60e51b81526001600160a01b038a811693820184905292945063095ea7b3935091169063092755e090602401602060405180830381865afa1580156133b0573d6000803e3d6000fd5b505050506040513d601f19601f820116820180604052508101906133d49190615c61565b6040516001600160e01b031960e084901b1681526001600160a01b039091166004820152602481018490526044016020604051808303816000875af1158015613421573d6000803e3d6000fd5b505050506040513d601f19601f820116820180604052508101906134459190615e40565b506004805460405162493aaf60e51b81526001600160a01b038881169382019390935291169063092755e090602401602060405180830381865afa158015613491573d6000803e3d6000fd5b505050506040513d601f19601f820116820180604052508101906134b59190615c61565b600554604051636e553f6560e01b8152600481018490526001600160a01b039182166024820152911690636e553f65906044016020604051808303816000875af1158015613507573d6000803e3d6000fd5b505050506040513d601f19601f8201168201806040525081019061352b9190615c48565b505b5050600190930192506130dc915050565b50600354600085815260026020526040908190205490516340c10f1960e01b81526001600160a01b03868116600483015260248201929092529116906340c10f1990604401600060405180830381600087803b15801561359d57600080fd5b505af11580156135b1573d6000803e3d6000fd5b50505060009485525050601d602052505060409020805460ff19166001179055565b60008181526001602052604090205460ff161561362c5760405162461bcd60e51b8152602060048201526017602482015276149959195b5c1d1a5bdb881a5cc818dbdb5c1b195d1959604a1b6044820152606401610d7e565b600081815260196020908152604080832054601b909252909120546001600160a01b0391821691163382146136b45760405162461bcd60e51b815260206004820152602860248201527f4f6e6c79207265717565737465722063616e2063616e63656c207468652072656044820152673232b6b83a34b7b760c11b6064820152608401610d7e565b60005b60048054604080516329fea19960e11b815290516001600160a01b03909216926353fd43329282820192602092908290030181865afa1580156136fe573d6000803e3d6000fd5b505050506040513d601f19601f820116820180604052508101906137229190615c48565b811015613d22576004805460405163264cae9360e21b81529182018390526000916001600160a01b0390911690639932ba4c90602401602060405180830381865afa158015613775573d6000803e3d6000fd5b505050506040513d601f19601f820116820180604052508101906137999190615c61565b60008681526011602090815260408083206001600160a01b03808616855290835281842054808552601e8452828520835161014081018552815467ffffffffffffffff81168252600160401b90048416958101959095526001808201548416948601949094526002810154928316606086015260ff600160a01b84048116151560808701529697509095909260a0850192600160a81b9004909116908111156138445761384461594e565b60018111156138555761385561594e565b815260038281015460208301526004830154604083015260058301546060830152600683015460809092019160ff16908111156138945761389461594e565b60038111156138a5576138a561594e565b90525060075460405163069352a960e41b8152600481018590529192506000916001600160a01b03909116906369352a9090602401602060405180830381865afa1580156138f7573d6000803e3d6000fd5b505050506040513d601f19601f8201168201806040525081019061391b9190615c48565b60075460405163187b2ed160e21b8152600481018690526001600160a01b03909116906361ecbb4490602401602060405180830381865afa158015613964573d6000803e3d6000fd5b505050506040513d601f19601f820116820180604052508101906139889190615c48565b6139929190615d14565b60075460405163103fdae160e31b8152600481018690529192506000916001600160a01b03909116906381fed70890602401602060405180830381865afa1580156139e1573d6000803e3d6000fd5b505050506040513d601f19601f82011682018060405250810190613a059190615c48565b6007546040516322fd455760e11b8152600481018790529192506001916001600160a01b03909116906345fa8aae90602401602060405180830381865afa158015613a54573d6000803e3d6000fd5b505050506040513d601f19601f82011682018060405250810190613a789190615c7e565b6003811115613a8957613a8961594e565b60ff16148015613a97575081155b15613b245760065460405163514fcac760e01b8152600481018690526001600160a01b039091169063514fcac790602401600060405180830381600087803b158015613ae257600080fd5b505af1158015613af6573d6000803e3d6000fd5b50505060008a8152600f602090815260408083206001600160a01b038a168452909152902082905550613d11565b6007546040516322fd455760e11b8152600481018690526002916001600160a01b0316906345fa8aae90602401602060405180830381865afa158015613b6e573d6000803e3d6000fd5b505050506040513d601f19601f82011682018060405250810190613b929190615c7e565b6003811115613ba357613ba361594e565b60ff161480613bb25750600082115b15613d11576000613bc486848a61539e565b604080518082018252600480825260208083018f81526000868152602583528581209451855590516001948501558f8152600d82528481206001600160a01b038d8116835292528490208a905560075493516322fd455760e11b81529182018a9052939450909291909116906345fa8aae90602401602060405180830381865afa158015613c56573d6000803e3d6000fd5b505050506040513d601f19601f82011682018060405250810190613c7a9190615c7e565b6003811115613c8b57613c8b61594e565b60ff1603613d0f5760008a8152600f602090815260408083206001600160a01b038a81168552925291829020849055600654915163514fcac760e01b81526004810188905291169063514fcac790602401600060405180830381600087803b158015613cf657600080fd5b505af1158015613d0a573d6000803e3d6000fd5b505050505b505b5050600190930192506136b7915050565b50505050565b6004805460405162493aaf60e51b81526001600160a01b03848116938201939093526000928392169063092755e090602401602060405180830381865afa158015613d77573d6000803e3d6000fd5b505050506040513d601f19601f82011682018060405250810190613d9b9190615c61565b6005546040516370a0823160e01b81526001600160a01b039182166004820152919250600091908316906370a0823190602401602060405180830381865afa158015613deb573d6000803e3d6000fd5b505050506040513d601f19601f82011682018060405250810190613e0f9190615c48565b60405163266d6a8360e11b8152600481018290529091506001600160a01b03831690634cdad50690602401602060405180830381865afa158015613e57573d6000803e3d6000fd5b505050506040513d601f19601f82011682018060405250810190613e7b9190615c48565b949350505050565b60008060005b60048054604080516329fea19960e11b815290516001600160a01b03909216926353fd43329282820192602092908290030181865afa158015613ed0573d6000803e3d6000fd5b505050506040513d601f19601f82011682018060405250810190613ef49190615c48565b811015613f84576004805460405163264cae9360e21b8152918201839052600091613f6d916001600160a01b031690639932ba4c90602401602060405180830381865afa158015613f49573d6000803e3d6000fd5b505050506040513d601f19601f82011682018060405250810190610bee9190615c61565b9050613f798184615c35565b925050600101613e89565b50919050565b600480546040516308d0eb2d60e21b81529182018390526001600160a01b031690632343acb490602401602060405180830381865afa158015613fd1573d6000803e3d6000fd5b505050506040513d601f19601f82011682018060405250810190613ff59190615e40565b6140415760405162461bcd60e51b815260206004820152601860248201527f4f726465727320617265206e6f7420636f6d706c6574656400000000000000006044820152606401610d7e565b60008181526020819052604090205460ff16156140985760405162461bcd60e51b8152602060048201526015602482015274125cdcdd585b98d9481a5cc818dbdb5c1b195d1959605a1b6044820152606401610d7e565b6000818152601860205260408120546001600160a01b03169080805b60048054604080516329fea19960e11b815290516001600160a01b03909216926353fd43329282820192602092908290030181865afa1580156140fb573d6000803e3d6000fd5b505050506040513d601f19601f8201168201806040525081019061411f9190615c48565b811015614551576004805460405163264cae9360e21b81529182018390526000916001600160a01b0390911690639932ba4c90602401602060405180830381865afa158015614172573d6000803e3d6000fd5b505050506040513d601f19601f820116820180604052508101906141969190615c61565b60008781526010602090815260408083206001600160a01b038581168086529190935281842054600754600854935163a377cfbf60e01b81526004810193909352928416602483015294955091169063a377cfbf906044016040805180830381865afa15801561420a573d6000803e3d6000fd5b505050506040513d601f19601f8201168201806040525081019061422e9190615dae565b60075460405163187b2ed160e21b8152600481018590529192506000916001600160a01b03909116906361ecbb4490602401602060405180830381865afa15801561427d573d6000803e3d6000fd5b505050506040513d601f19601f820116820180604052508101906142a19190615c48565b60008a81526014602090815260408083206001600160a01b03891684529091528120548451929350916142d49083615c9f565b600086815260126020526040812054919250906142f19083615c35565b90506142fd828b615c35565b9950614309818a615c35565b600654604051631c20fadd60e01b8152919a506001600160a01b031690631c20fadd9061433e908a9030908990600401615e1c565b600060405180830381600087803b15801561435857600080fd5b505af115801561436c573d6000803e3d6000fd5b50506004805460405162493aaf60e51b81526001600160a01b038c811693820184905292945063095ea7b3935091169063092755e090602401602060405180830381865afa1580156143c2573d6000803e3d6000fd5b505050506040513d601f19601f820116820180604052508101906143e69190615c61565b6040516001600160e01b031960e084901b1681526001600160a01b039091166004820152602481018790526044016020604051808303816000875af1158015614433573d6000803e3d6000fd5b505050506040513d601f19601f820116820180604052508101906144579190615e40565b506004805460405162493aaf60e51b81526001600160a01b038a81169382019390935291169063092755e090602401602060405180830381865afa1580156144a3573d6000803e3d6000fd5b505050506040513d601f19601f820116820180604052508101906144c79190615c61565b600554604051636e553f6560e01b8152600481018790526001600160a01b039182166024820152911690636e553f65906044016020604051808303816000875af1158015614519573d6000803e3d6000fd5b505050506040513d601f19601f8201168201806040525081019061453d9190615c48565b5050600190960195506140b4945050505050565b5060008481526016602052604090205480158061456c575082155b1561464a57600061457e836064615c9f565b6003546040516340c10f1960e01b81526001600160a01b038881166004830152602482018490529293509116906340c10f1990604401600060405180830381600087803b1580156145ce57600080fd5b505af11580156145e2573d6000803e3d6000fd5b5050600854600089815260236020526040908190205490516001600160a01b03808b1695508b94507f9b1c699e1cb709130ee00509d8f84a4fb33702e634298480371d27d66f6cd8c69361463c9391169187904290615cee565b60405180910390a350614738565b6000836146578484615c9f565b6146619190615ccc565b9050600061466f8383615d14565b6003546040516340c10f1960e01b81526001600160a01b038981166004830152602482018490529293509116906340c10f1990604401600060405180830381600087803b1580156146bf57600080fd5b505af11580156146d3573d6000803e3d6000fd5b505060085460008a815260236020526040908190205490516001600160a01b03808c1695508c94507f9b1c699e1cb709130ee00509d8f84a4fb33702e634298480371d27d66f6cd8c69361472d9391169187904290615cee565b60405180910390a350505b50506009546000908152602081905260409020805460ff19166001179055505050565b600080614766613e83565b90506000600360009054906101000a90046001600160a01b03166001600160a01b03166318160ddd6040518163ffffffff1660e01b8152600401602060405180830381865afa1580156147bd573d6000803e3d6000fd5b505050506040513d601f19601f820116820180604052508101906147e19190615c48565b90506000826147f08387615c9f565b610d219190615ccc565b6000614804614ee4565b6001600160a01b03821661485a5760405162461bcd60e51b815260206004820152601f60248201527f696e76616c696420666163746f72792073746f726167652061646472657373006044820152606401610d7e565b50600480546001600160a01b0383166001600160a01b03199091161790556001919050565b6000818152602560209081526040808320815180830190925280548083526001918201549383019390935290919003614928576004805460208301516040516308d0eb2d60e21b8152928301526001600160a01b031690632343acb4906024015b602060405180830381865afa1580156148fd573d6000803e3d6000fd5b505050506040513d601f19601f820116820180604052508101906149219190615e40565b9392505050565b805160020361496357600480546020830151604051631fd6049160e11b8152928301526001600160a01b031690633fac0922906024016148e0565b805160030361499e5760048054602083015160405163631c838560e01b8152928301526001600160a01b03169063631c8385906024016148e0565b80516004036149d957600480546020830151604051635ac9331560e11b8152928301526001600160a01b03169063b592662a906024016148e0565b50600092915050565b60008060005b60048054604080516329fea19960e11b815290516001600160a01b03909216926353fd43329282820192602092908290030181865afa158015614a2f573d6000803e3d6000fd5b505050506040513d601f19601f82011682018060405250810190614a539190615c48565b811015614c18576004805460405163264cae9360e21b81529182018390526000916001600160a01b0390911690639932ba4c90602401602060405180830381865afa158015614aa6573d6000803e3d6000fd5b505050506040513d601f19601f82011682018060405250810190614aca9190615c61565b60048054604051630be5271360e01b81526001600160a01b038085169382019390935292935060009268056bc75e2d631000009290911690630be5271390602401602060405180830381865afa158015614b28573d6000803e3d6000fd5b505050506040513d601f19601f82011682018060405250810190614b4c9190615c48565b614b569088615c9f565b614b609190615ccc565b6007546008546040516308da5c3560e21b81526000600482018190526001600160a01b0392831660248301529394508392919091169063236970d4906044016040805180830381865afa158015614bbb573d6000803e3d6000fd5b505050506040513d601f19601f82011682018060405250810190614bdf9190615bf2565b915091506000614bef8285614ebb565b614bf99084615c35565b9050614c058188615c35565b965050600190940193506149e892505050565b5092915050565b600080614c2a613e83565b90506000600360009054906101000a90046001600160a01b03166001600160a01b03166318160ddd6040518163ffffffff1660e01b8152600401602060405180830381865afa158015614c81573d6000803e3d6000fd5b505050506040513d601f19601f82011682018060405250810190614ca59190615c48565b90506000816147f08487615c9f565b6000614cbe614ee4565b6001600160a01b038316614d0c5760405162461bcd60e51b8152602060048201526015602482015274696e76616c696420746f6b656e206164647265737360581b6044820152606401610d7e565b506008805460ff8316600160a01b026001600160a81b03199091166001600160a01b0385161717905560015b92915050565b600080614d4a83611fb7565b90506000614d5784613d28565b9050670de0b6b3a7640000614d6c8383615c9f565b613e7b9190615ccc565b614d7e61588d565b6000828152601e6020908152604091829020825161014081018452815467ffffffffffffffff811682526001600160a01b03600160401b9091048116938201939093526001808301548416948201949094526002820154928316606082015260ff600160a01b84048116151560808301529093919260a0850192600160a81b90910490911690811115614e1357614e1361594e565b6001811115614e2457614e2461594e565b815260038281015460208301526004830154604083015260058301546060830152600683015460809092019160ff1690811115614e6357614e6361594e565b6003811115614e7457614e7461594e565b90525092915050565b614e85614ee4565b6001600160a01b038116614eaf57604051631e4fbdf760e01b815260006004820152602401610d7e565b614eb881615574565b50565b60008262ffffff16600003614ed1576000614921565b6149218262ffffff8516620f424061562e565b33614f167f9016d09d72d40fdae2fd8ceac6b6234c7706214fd39c1cd1e609a0528c199300546001600160a01b031690565b6001600160a01b031614610dbb5760405163118cdaa760e01b8152336004820152602401610d7e565b614f47615702565b600080516020615fdf833981519152805460ff191681557f5db9ee0a495bf2e6ff9c91a7834c1ba4fdd244a5e8aa4e537bd38aeae4b073aa335b6040516001600160a01b03909116815260200160405180910390a150565b6004805460405162493aaf60e51b81526001600160a01b03868116938201939093526000928392169063092755e090602401602060405180830381865afa158015614fee573d6000803e3d6000fd5b505050506040513d601f19601f820116820180604052508101906150129190615c61565b600554604051631c20fadd60e01b81529192506001600160a01b031690631c20fadd9061504790849030908990600401615e1c565b600060405180830381600087803b15801561506157600080fd5b505af1158015615075573d6000803e3d6000fd5b5050604051635d043b2960e11b81526004810187905230602482018190526044820152600092506001600160a01b038416915063ba087652906064016020604051808303816000875af11580156150d0573d6000803e3d6000fd5b505050506040513d601f19601f820116820180604052508101906150f49190615c48565b905060006151026001615732565b6001600160a01b03888116604083810182905260c084018690528883166020850152600654905163a9059cbb60e01b8152921660048301526024820185905291925063a9059cbb906044016020604051808303816000875af115801561516c573d6000803e3d6000fd5b505050506040513d601f19601f820116820180604052508101906151909190615e40565b506006546040516319b284d160e21b81526001600160a01b03898116600483015260248201859052878116604483015260009216906366ca1344906064016020604051808303816000875af11580156151ed573d6000803e3d6000fd5b505050506040513d601f19601f820116820180604052508101906152119190615c48565b6000818152601e6020908152604091829020855181549287015167ffffffffffffffff9091166001600160e01b031990931692909217600160401b6001600160a01b039384160217815591850151600180840180546001600160a01b0319169284169290921790915560608601516002840180546080890151929094166001600160a81b031990941693909317600160a01b911515919091021780835560a08701519495508694929160ff60a81b1990911690600160a81b9084908111156152db576152db61594e565b021790555060c0820151816003015560e0820151816004015561010082015181600501556101208201518160060160006101000a81548160ff0219169083600381111561532a5761532a61594e565b0217905550919998505050505050505050565b6153456157ea565b614eb881615833565b6153566157ea565b610dbb61583b565b60008260ff168260ff161115615394576153788383615ea2565b61538390600a615f9f565b61538d9085615fae565b9050614921565b6153788284615ea2565b6000806153ab6000615732565b6001600160a01b0384811660208301819052878216604080850182905260e0850189905260065490516312544d1b60e01b815260048101929092526024820189905260448201929092529293506000929116906312544d1b906064016020604051808303816000875af1158015615426573d6000803e3d6000fd5b505050506040513d601f19601f8201168201806040525081019061544a9190615c48565b6000818152601e6020908152604091829020855181549287015167ffffffffffffffff9091166001600160e01b031990931692909217600160401b6001600160a01b039384160217815591850151600180840180546001600160a01b0319169284169290921790915560608601516002840180546080890151929094166001600160a81b031990941693909317600160a01b911515919091021780835560a08701519495508694929160ff60a81b1990911690600160a81b9084908111156155145761551461594e565b021790555060c0820151816003015560e0820151816004015561010082015181600501556101208201518160060160006101000a81548160ff021916908360038111156155635761556361594e565b021790555091979650505050505050565b7f9016d09d72d40fdae2fd8ceac6b6234c7706214fd39c1cd1e609a0528c19930080546001600160a01b031981166001600160a01b03848116918217845560405192169182907f8be0079c531659141344cd1fd0a4f28419497f9722a3daafe3b4186f6b6457e090600090a3505050565b6155ed61585c565b600080516020615fdf833981519152805460ff191660011781557f62e78cea01bee320cd4e420270b5ea74000d11b0c9f74754ebdbfc544b05a25833614f81565b60008080600019858709858702925082811083820303915050806000036156685783828161565e5761565e615cb6565b0492505050614921565b83811061569957604051630c740aef60e31b8152600481018790526024810186905260448101859052606401610d7e565b60008486880960026001871981018816978890046003810283188082028403028082028403028082028403028082028403028082028403029081029092039091026000889003889004909101858311909403939093029303949094049190911702949350505050565b600080516020615fdf8339815191525460ff16610dbb57604051638dfc202b60e01b815260040160405180910390fd5b61573a61588d565b604080516101408101825267ffffffffffffffff421681523060208201526003546001600160a01b03908116928201929092526008549091166060820152821515608082015260a0810160008152602001836157975760006157a2565b68056bc75e2d631000005b68ffffffffffffffffff168152602001836157c65768056bc75e2d631000006157c9565b60005b68ffffffffffffffffff168152600060208201526040016001905292915050565b7ff0c57e16840df040f15088dc2f81fe391c3923bec73e23a9662efc9c229c6a0054600160401b900460ff16610dbb57604051631afcd79f60e31b815260040160405180910390fd5b614e856157ea565b6158436157ea565b600080516020615fdf833981519152805460ff19169055565b600080516020615fdf8339815191525460ff1615610dbb5760405163d93c066560e01b815260040160405180910390fd5b604080516101408101825260008082526020820181905291810182905260608101829052608081018290529060a08201908152602001600081526020016000815260200160008152602001600060038111156158eb576158eb61594e565b905290565b6001600160a01b0381168114614eb857600080fd5b6000806040838503121561591857600080fd5b82359150602083013561592a816158f0565b809150509250929050565b60006020828403121561594757600080fd5b5035919050565b634e487b7160e01b600052602160045260246000fd5b600281106159745761597461594e565b9052565b600481106159745761597461594e565b67ffffffffffffffff8b1681526001600160a01b038a81166020830152898116604083015288166060820152861515608082015261014081016159ce60a0830188615964565b8560c08301528460e0830152836101008301526159ef610120830184615978565b9b9a5050505050505050505050565b600060208284031215615a1057600080fd5b8135614921816158f0565b60ff81168114614eb857600080fd5b8015158114614eb857600080fd5b600080600080600080600080610100898b031215615a5557600080fd5b8835615a60816158f0565b97506020890135615a70816158f0565b96506040890135615a80816158f0565b95506060890135615a90816158f0565b94506080890135615aa0816158f0565b935060a0890135615ab0816158f0565b925060c0890135615ac081615a1b565b915060e0890135615ad081615a2a565b809150509295985092959890939650565b600060208284031215615af357600080fd5b813561492181615a1b565b60008060408385031215615b1157600080fd5b8235615b1c816158f0565b9150602083013561592a81615a1b565b815167ffffffffffffffff16815261014081016020830151615b5960208401826001600160a01b03169052565b506040830151615b7460408401826001600160a01b03169052565b506060830151615b8f60608401826001600160a01b03169052565b506080830151615ba3608084018215159052565b5060a0830151615bb660a0840182615964565b5060c083015160c083015260e083015160e083015261010080840151818401525061012080840151615bea82850182615978565b505092915050565b60008060408385031215615c0557600080fd5b82519150602083015162ffffff8116811461592a57600080fd5b634e487b7160e01b600052601160045260246000fd5b80820180821115614d3857614d38615c1f565b600060208284031215615c5a57600080fd5b5051919050565b600060208284031215615c7357600080fd5b8151614921816158f0565b600060208284031215615c9057600080fd5b81516004811061492157600080fd5b8082028115828204841417614d3857614d38615c1f565b634e487b7160e01b600052601260045260246000fd5b600082615ce957634e487b7160e01b600052601260045260246000fd5b500490565b6001600160a01b0394909416845260208401929092526040830152606082015260800190565b81810381811115614d3857614d38615c1f565b805169ffffffffffffffffffff81168114610da657600080fd5b600080600080600060a08688031215615d5957600080fd5b615d6286615d27565b9450602086015193506040860151925060608601519150615d8560808701615d27565b90509295509295909350565b600060208284031215615da357600080fd5b815161492181615a1b565b600060408284031215615dc057600080fd5b6040516040810167ffffffffffffffff8282108183111715615df257634e487b7160e01b600052604160045260246000fd5b8160405284518352602085015191508082168214615e0f57600080fd5b5060208201529392505050565b6001600160a01b039384168152919092166020820152604081019190915260600190565b600060208284031215615e5257600080fd5b815161492181615a2a565b60208082526025908201527f5468652070726f6365737320686173206265656e20636f6d706c65746564206260408201526465666f726560d81b606082015260800190565b60ff8281168282160390811115614d3857614d38615c1f565b600181815b80851115615ef6578160001904821115615edc57615edc615c1f565b80851615615ee957918102915b93841c9390800290615ec0565b509250929050565b600082615f0d57506001614d38565b81615f1a57506000614d38565b8160018114615f305760028114615f3a57615f56565b6001915050614d38565b60ff841115615f4b57615f4b615c1f565b50506001821b614d38565b5060208310610133831016604e8410600b8410161715615f79575081810a614d38565b615f838383615ebb565b8060001904821115615f9757615f97615c1f565b029392505050565b600061492160ff841683615efe565b80820260008212600160ff1b84141615615fca57615fca615c1f565b8181058314821517614d3857614d38615c1f56fecd5ed15c6e187e77e9aee88184c21f4f2182ab5827cb3b7e07fbedcd63f03300a2646970667358221220888c11b4d57660ca12b134c419b2a2236dbbb4b0b66f6274f43ea174ac71725664736f6c63430008190033","linkReferences":{}},"methodIdentifiers":{"actionInfoById(uint256)":"3c1f70ca","burnedTokenAmountByNonce(uint256)":"ab7820b2","buyRequestPayedAmountById(uint256)":"8861d235","calculateBuyRequestFee(uint256)":"06995e3b","calculateIssuanceFee(uint256)":"e19eefbe","cancelIssuance(uint256)":"46d66a2c","cancelIssuanceComplted(uint256)":"7bfa27f2","cancelIssuanceRequestId(uint256,address)":"02e80f71","cancelIssuanceUnfilledAmount(uint256,address)":"9edcf9f4","cancelRedemption(uint256)":"9219e510","cancelRedemptionComplted(uint256)":"b46840f9","cancelRedemptionRequestId(uint256,address)":"8c221899","cancelRedemptionUnfilledAmount(uint256,address)":"632439fd","checkMultical(uint256)":"e16e554a","coaByIssuanceNonce(uint256)":"31c99010","coaByRedemptionNonce(uint256)":"b75f4c2c","completeCancelIssuance(uint256)":"807ca237","completeCancelRedemption(uint256)":"9026544f","completeIssuance(uint256)":"bed45bef","completeRedemption(uint256)":"840ecba0","factoryStorage()":"c06e1ae2","feeRate()":"978bbdb9","getActionType(uint256)":"3aeff059","getIssuanceAmountOut(uint256)":"c8da3303","getOrderInstanceById(uint256)":"f1f31d66","getPortfolioValue()":"bb0498de","getRedemptionAmountOut(uint256)":"e2851bd6","getVaultDshareBalance(address)":"a08d7bd6","getVaultDshareValue(address)":"efdf5053","initialize(address,address,address,address,address,address,uint8,bool)":"48f6e87b","isMainnet()":"42faac05","issuanceIndexTokenPrimaryTotalSupply(uint256)":"b1dd819e","issuanceIndexTokens(uint256)":"6e320408","issuanceInputAmount(uint256)":"cf9ee319","issuanceIsCompleted(uint256)":"a84ebc17","issuanceNonce()":"9dbb9c9e","issuanceRequestId(uint256,address)":"264fa8b9","issuanceRequesterByNonce(uint256)":"94674098","issuanceTokenPrimaryBalance(uint256,address)":"da65925a","issuer()":"1d143848","latestFeeUpdate()":"011ced5f","multical(uint256)":"73b774ed","orderInstanceById(uint256)":"15e666a2","orderManager()":"f9b6117f","owner()":"8da5cb5b","pause()":"8456cb59","paused()":"5c975abb","portfolioValueByNonce(uint256)":"2badae5d","priceInWei(address)":"6839a095","redemption(uint256)":"4a1dc092","redemptionIndexTokenPrimaryTotalSupply(uint256)":"daf1c17d","redemptionInputAmount(uint256)":"9cf54521","redemptionIsCompleted(uint256)":"76529fdf","redemptionNonce()":"84d77bb1","redemptionRequestId(uint256,address)":"f513a718","redemptionRequesterByNonce(uint256)":"78032658","redemptionTokenPrimaryBalance(uint256,address)":"a363b9cb","renounceOwnership()":"715018a6","sellRequestAssetAmountById(uint256)":"a87f98d2","setFeeRate(uint8)":"5177942a","setIndexFactoryStorage(address)":"cc8659ae","setIssuer(address)":"55cc4e57","setTokenAddress(address)":"26a4e8d2","setUsdcAddress(address,uint8)":"eab2a711","token()":"fc0c546a","tokenShortagePercentByNonce(uint256,address)":"db5c1a12","tokenValueByNonce(uint256,address)":"b316e7fd","totalShortagePercentByNonce(uint256)":"2ca49334","transferOwnership(address)":"f2fde38b","unpause()":"3f4ba83a","usdc()":"3e413bee","usdcDecimals()":"7bf42165","vault()":"fbfa77cf"},"id":16}