{"abi":[{"type":"function","name":"cancelIssuance","inputs":[{"name":"_issuanceNonce","type":"uint256","internalType":"uint256"}],"outputs":[],"stateMutability":"nonpayable"},{"type":"function","name":"cancelRedemption","inputs":[{"name":"_redemptionNonce","type":"uint256","internalType":"uint256"}],"outputs":[],"stateMutability":"nonpayable"},{"type":"function","name":"factoryStorage","inputs":[],"outputs":[{"name":"","type":"address","internalType":"contract IndexFactoryStorage"}],"stateMutability":"view"},{"type":"function","name":"initialize","inputs":[{"name":"_factoryStorage","type":"address","internalType":"address"}],"outputs":[],"stateMutability":"nonpayable"},{"type":"function","name":"issuanceIndexTokens","inputs":[{"name":"_inputAmount","type":"uint256","internalType":"uint256"}],"outputs":[{"name":"","type":"uint256","internalType":"uint256"}],"stateMutability":"nonpayable"},{"type":"function","name":"owner","inputs":[],"outputs":[{"name":"","type":"address","internalType":"address"}],"stateMutability":"view"},{"type":"function","name":"pause","inputs":[],"outputs":[],"stateMutability":"nonpayable"},{"type":"function","name":"paused","inputs":[],"outputs":[{"name":"","type":"bool","internalType":"bool"}],"stateMutability":"view"},{"type":"function","name":"redemption","inputs":[{"name":"_inputAmount","type":"uint256","internalType":"uint256"}],"outputs":[{"name":"","type":"uint256","internalType":"uint256"}],"stateMutability":"nonpayable"},{"type":"function","name":"renounceOwnership","inputs":[],"outputs":[],"stateMutability":"nonpayable"},{"type":"function","name":"setIndexFactoryStorage","inputs":[{"name":"_factoryStorage","type":"address","internalType":"address"}],"outputs":[{"name":"","type":"bool","internalType":"bool"}],"stateMutability":"nonpayable"},{"type":"function","name":"tRedemption","inputs":[],"outputs":[],"stateMutability":"nonpayable"},{"type":"function","name":"transferOwnership","inputs":[{"name":"newOwner","type":"address","internalType":"address"}],"outputs":[],"stateMutability":"nonpayable"},{"type":"function","name":"unpause","inputs":[],"outputs":[],"stateMutability":"nonpayable"},{"type":"event","name":"Initialized","inputs":[{"name":"version","type":"uint64","indexed":false,"internalType":"uint64"}],"anonymous":false},{"type":"event","name":"Issuanced","inputs":[{"name":"nonce","type":"uint256","indexed":true,"internalType":"uint256"},{"name":"user","type":"address","indexed":true,"internalType":"address"},{"name":"inputToken","type":"address","indexed":false,"internalType":"address"},{"name":"inputAmount","type":"uint256","indexed":false,"internalType":"uint256"},{"name":"outputAmount","type":"uint256","indexed":false,"internalType":"uint256"},{"name":"time","type":"uint256","indexed":false,"internalType":"uint256"}],"anonymous":false},{"type":"event","name":"OwnershipTransferred","inputs":[{"name":"previousOwner","type":"address","indexed":true,"internalType":"address"},{"name":"newOwner","type":"address","indexed":true,"internalType":"address"}],"anonymous":false},{"type":"event","name":"Paused","inputs":[{"name":"account","type":"address","indexed":false,"internalType":"address"}],"anonymous":false},{"type":"event","name":"Redemption","inputs":[{"name":"nonce","type":"uint256","indexed":true,"internalType":"uint256"},{"name":"user","type":"address","indexed":true,"internalType":"address"},{"name":"outputToken","type":"address","indexed":false,"internalType":"address"},{"name":"inputAmount","type":"uint256","indexed":false,"internalType":"uint256"},{"name":"outputAmount","type":"uint256","indexed":false,"internalType":"uint256"},{"name":"time","type":"uint256","indexed":false,"internalType":"uint256"}],"anonymous":false},{"type":"event","name":"RequestIssuance","inputs":[{"name":"nonce","type":"uint256","indexed":true,"internalType":"uint256"},{"name":"user","type":"address","indexed":true,"internalType":"address"},{"name":"inputToken","type":"address","indexed":false,"internalType":"address"},{"name":"inputAmount","type":"uint256","indexed":false,"internalType":"uint256"},{"name":"outputAmount","type":"uint256","indexed":false,"internalType":"uint256"},{"name":"time","type":"uint256","indexed":false,"internalType":"uint256"}],"anonymous":false},{"type":"event","name":"RequestRedemption","inputs":[{"name":"nonce","type":"uint256","indexed":true,"internalType":"uint256"},{"name":"user","type":"address","indexed":true,"internalType":"address"},{"name":"outputToken","type":"address","indexed":false,"internalType":"address"},{"name":"inputAmount","type":"uint256","indexed":false,"internalType":"uint256"},{"name":"outputAmount","type":"uint256","indexed":false,"internalType":"uint256"},{"name":"time","type":"uint256","indexed":false,"internalType":"uint256"}],"anonymous":false},{"type":"event","name":"Unpaused","inputs":[{"name":"account","type":"address","indexed":false,"internalType":"address"}],"anonymous":false},{"type":"error","name":"EnforcedPause","inputs":[]},{"type":"error","name":"ExpectedPause","inputs":[]},{"type":"error","name":"InvalidInitialization","inputs":[]},{"type":"error","name":"NotInitializing","inputs":[]},{"type":"error","name":"OwnableInvalidOwner","inputs":[{"name":"owner","type":"address","internalType":"address"}]},{"type":"error","name":"OwnableUnauthorizedAccount","inputs":[{"name":"account","type":"address","internalType":"address"}]}],"bytecode":{"object":"0x6080604052348015600f57600080fd5b506145258061001f6000396000f3fe608060405234801561001057600080fd5b50600436106100ea5760003560e01c80638da5cb5b1161008c578063c06e1ae211610066578063c06e1ae2146101b4578063c4d66de8146101c7578063cc8659ae146101da578063f2fde38b146101ed57600080fd5b80638da5cb5b146101795780639219e51014610199578063bbb7c77b146101ac57600080fd5b80635c975abb116100c85780635c975abb146101325780636e32040814610156578063715018a6146101695780638456cb591461017157600080fd5b80633f4ba83a146100ef57806346d66a2c146100f95780634a1dc0921461010c575b600080fd5b6100f7610200565b005b6100f7610107366004613ff0565b610212565b61011f61011a366004613ff0565b610ce8565b6040519081526020015b60405180910390f35b6000805160206144d08339815191525460ff165b6040519015158152602001610129565b61011f610164366004613ff0565b611550565b6100f761227d565b6100f761228f565b61018161229f565b6040516001600160a01b039091168152602001610129565b6100f76101a7366004613ff0565b6122cd565b6100f7612d8c565b600054610181906001600160a01b031681565b6100f76101d536600461401e565b613285565b6101466101e836600461401e565b6133b8565b6100f76101fb36600461401e565b61343c565b610208613477565b6102106134a9565b565b60005460405163a84ebc1760e01b8152600481018390526001600160a01b039091169063a84ebc1790602401602060405180830381865afa15801561025b573d6000803e3d6000fd5b505050506040513d601f19601f8201168201806040525081019061027f9190614052565b156102c95760405162461bcd60e51b8152602060048201526015602482015274125cdcdd585b98d9481a5cc818dbdb5c1b195d1959605a1b60448201526064015b60405180910390fd5b6000805460405163128ce81360e31b8152600481018490526001600160a01b0390911690639467409890602401602060405180830381865afa158015610313573d6000803e3d6000fd5b505050506040513d601f19601f820116820180604052508101906103379190614078565b9050336001600160a01b038216146103a05760405162461bcd60e51b815260206004820152602660248201527f4f6e6c79207265717565737465722063616e2063616e63656c207468652069736044820152657375616e636560d01b60648201526084016102c0565b60008060009054906101000a90046001600160a01b03166001600160a01b0316631d1438486040518163ffffffff1660e01b8152600401602060405180830381865afa1580156103f4573d6000803e3d6000fd5b505050506040513d601f19601f820116820180604052508101906104189190614078565b905060005b60008054906101000a90046001600160a01b03166001600160a01b03166353fd43326040518163ffffffff1660e01b8152600401602060405180830381865afa15801561046e573d6000803e3d6000fd5b505050506040513d601f19601f820116820180604052508101906104929190614095565b811015610ce2576000805460405163264cae9360e21b8152600481018490526001600160a01b0390911690639932ba4c90602401602060405180830381865afa1580156104e3573d6000803e3d6000fd5b505050506040513d601f19601f820116820180604052508101906105079190614078565b6000805460405163264fa8b960e01b8152600481018990526001600160a01b0380851660248301529394509192169063264fa8b990604401602060405180830381865afa15801561055c573d6000803e3d6000fd5b505050506040513d601f19601f820116820180604052508101906105809190614095565b600080546040516378f98eb360e11b81526004810184905292935090916001600160a01b039091169063f1f31d669060240161014060405180830381865afa1580156105d0573d6000803e3d6000fd5b505050506040513d601f19601f820116820180604052508101906105f49190614125565b6040516322fd455760e11b8152600481018490529091506001906001600160a01b038716906345fa8aae90602401602060405180830381865afa15801561063f573d6000803e3d6000fd5b505050506040513d601f19601f8201168201806040525081019061066391906141ef565b6003811115610674576106746141d9565b60ff161480156106ea575060405163187b2ed160e21b8152600481018390526001600160a01b038616906361ecbb4490602401602060405180830381865afa1580156106c4573d6000803e3d6000fd5b505050506040513d601f19601f820116820180604052508101906106e89190614095565b155b156107ca5760008060009054906101000a90046001600160a01b03166001600160a01b031663f9b6117f6040518163ffffffff1660e01b8152600401602060405180830381865afa158015610743573d6000803e3d6000fd5b505050506040513d601f19601f820116820180604052508101906107679190614078565b60405163514fcac760e01b8152600481018590529091506001600160a01b0382169063514fcac790602401600060405180830381600087803b1580156107ac57600080fd5b505af11580156107c0573d6000803e3d6000fd5b5050505050610cd7565b6040516322fd455760e11b8152600481018390526002906001600160a01b038716906345fa8aae90602401602060405180830381865afa158015610812573d6000803e3d6000fd5b505050506040513d601f19601f8201168201806040525081019061083691906141ef565b6003811115610847576108476141d9565b60ff1614806108bf575060405163187b2ed160e21b8152600481018390526000906001600160a01b038716906361ecbb4490602401602060405180830381865afa158015610899573d6000803e3d6000fd5b505050506040513d601f19601f820116820180604052508101906108bd9190614095565b115b15610cd75760405163187b2ed160e21b8152600481018390526000906001600160a01b038716906361ecbb4490602401602060405180830381865afa15801561090c573d6000803e3d6000fd5b505050506040513d601f19601f820116820180604052508101906109309190614095565b90506000806109b4868460008054906101000a90046001600160a01b03166001600160a01b031663f9b6117f6040518163ffffffff1660e01b8152600401602060405180830381865afa15801561098b573d6000803e3d6000fd5b505050506040513d601f19601f820116820180604052508101906109af9190614078565b613509565b60005460408051808201825260038152602081018f815291516340c1249560e11b81526004810186905290516024820152905160448201529294509092506001600160a01b031690638182492a90606401600060405180830381600087803b158015610a1f57600080fd5b505af1158015610a33573d6000803e3d6000fd5b5050600054604051637a6c4b7b60e01b81526001600160a01b039091169250637a6c4b7b9150610a6b908d908a90879060040161420c565b600060405180830381600087803b158015610a8557600080fd5b505af1158015610a99573d6000803e3d6000fd5b5060019250610aa6915050565b60ff16886001600160a01b03166345fa8aae876040518263ffffffff1660e01b8152600401610ad791815260200190565b602060405180830381865afa158015610af4573d6000803e3d6000fd5b505050506040513d601f19601f82011682018060405250810190610b1891906141ef565b6003811115610b2957610b296141d9565b60ff1603610cd35760005460405163103fdae160e31b8152600481018790526001600160a01b03918216916312b6d2e6918d918a91908d16906381fed70890602401602060405180830381865afa158015610b88573d6000803e3d6000fd5b505050506040513d601f19601f82011682018060405250810190610bac9190614095565b6040518463ffffffff1660e01b8152600401610bca9392919061420c565b600060405180830381600087803b158015610be457600080fd5b505af1158015610bf8573d6000803e3d6000fd5b5050505060008060009054906101000a90046001600160a01b03166001600160a01b031663f9b6117f6040518163ffffffff1660e01b8152600401602060405180830381865afa158015610c50573d6000803e3d6000fd5b505050506040513d601f19601f82011682018060405250810190610c749190614078565b60405163514fcac760e01b8152600481018890529091506001600160a01b0382169063514fcac790602401600060405180830381600087803b158015610cb957600080fd5b505af1158015610ccd573d6000803e3d6000fd5b50505050505b5050505b50505060010161041d565b50505050565b60008060009054906101000a90046001600160a01b03166001600160a01b0316637851b9056040518163ffffffff1660e01b8152600401600060405180830381600087803b158015610d3957600080fd5b505af1158015610d4d573d6000803e3d6000fd5b5050505060008060009054906101000a90046001600160a01b03166001600160a01b03166384d77bb16040518163ffffffff1660e01b8152600401602060405180830381865afa158015610da5573d6000803e3d6000fd5b505050506040513d601f19601f82011682018060405250810190610dc99190614095565b60005460405163c7003d1b60e01b815260048101839052602481018690529192506001600160a01b03169063c7003d1b90604401600060405180830381600087803b158015610e1757600080fd5b505af1158015610e2b573d6000803e3d6000fd5b5050505060008060009054906101000a90046001600160a01b03166001600160a01b031663fc0c546a6040518163ffffffff1660e01b8152600401602060405180830381865afa158015610e83573d6000803e3d6000fd5b505050506040513d601f19601f82011682018060405250810190610ea79190614078565b90506000816001600160a01b03166318160ddd6040518163ffffffff1660e01b8152600401602060405180830381865afa158015610ee9573d6000803e3d6000fd5b505050506040513d601f19601f82011682018060405250810190610f0d9190614095565b610f1f86670de0b6b3a7640000614241565b610f299190614274565b604051632770a7eb60e21b8152336004820152602481018790529091506001600160a01b03831690639dc29fac90604401600060405180830381600087803b158015610f7457600080fd5b505af1158015610f88573d6000803e3d6000fd5b5050600054604051636188199f60e01b815260048101879052602481018990526001600160a01b039091169250636188199f9150604401600060405180830381600087803b158015610fd957600080fd5b505af1158015610fed573d6000803e3d6000fd5b5050505060005b60008054906101000a90046001600160a01b03166001600160a01b03166353fd43326040518163ffffffff1660e01b8152600401602060405180830381865afa158015611045573d6000803e3d6000fd5b505050506040513d601f19601f820116820180604052508101906110699190614095565b811015611476576000805460405163264cae9360e21b8152600481018490526001600160a01b0390911690639932ba4c90602401602060405180830381865afa1580156110ba573d6000803e3d6000fd5b505050506040513d601f19601f820116820180604052508101906110de9190614078565b6000805460405162493aaf60e51b81526001600160a01b0380851660048301529394509192670de0b6b3a76400009291169063092755e090602401602060405180830381865afa158015611136573d6000803e3d6000fd5b505050506040513d601f19601f8201168201806040525081019061115a9190614078565b6001600160a01b03166370a0823160008054906101000a90046001600160a01b03166001600160a01b031663fbfa77cf6040518163ffffffff1660e01b8152600401602060405180830381865afa1580156111b9573d6000803e3d6000fd5b505050506040513d601f19601f820116820180604052508101906111dd9190614078565b6040516001600160e01b031960e084901b1681526001600160a01b039091166004820152602401602060405180830381865afa158015611221573d6000803e3d6000fd5b505050506040513d601f19601f820116820180604052508101906112459190614095565b61124f9086614241565b6112599190614274565b90506000806112b4848460008054906101000a90046001600160a01b03166001600160a01b031663f9b6117f6040518163ffffffff1660e01b8152600401602060405180830381865afa15801561098b573d6000803e3d6000fd5b60005460408051808201825260028152602081018d815291516340c1249560e11b81526004810186905290516024820152905160448201529294509092506001600160a01b031690638182492a90606401600060405180830381600087803b15801561131f57600080fd5b505af1158015611333573d6000803e3d6000fd5b5050600054604051630f156c3760e11b815260048101869052602481018590526001600160a01b039091169250631e2ad86e9150604401600060405180830381600087803b15801561138457600080fd5b505af1158015611398573d6000803e3d6000fd5b5050600054604051631c7a295960e01b81526001600160a01b039091169250631c7a295991506113d0908b908890879060040161420c565b600060405180830381600087803b1580156113ea57600080fd5b505af11580156113fe573d6000803e3d6000fd5b505060005460405163d34ed2ab60e01b8152600481018c90523360248201526001600160a01b03909116925063d34ed2ab9150604401600060405180830381600087803b15801561144e57600080fd5b505af1158015611462573d6000803e3d6000fd5b505060019096019550610ff4945050505050565b50336001600160a01b0316837f318a1eb196638838739aab2348b851e63485b8c41dacc90eaff499a0f14ce53360008054906101000a90046001600160a01b03166001600160a01b0316633e413bee6040518163ffffffff1660e01b8152600401602060405180830381865afa1580156114f4573d6000803e3d6000fd5b505050506040513d601f19601f820116820180604052508101906115189190614078565b604080516001600160a01b039092168252602082018a905260009082015242606082015260800160405180910390a350909392505050565b60008061271060008054906101000a90046001600160a01b03166001600160a01b031663978bbdb96040518163ffffffff1660e01b8152600401602060405180830381865afa1580156115a7573d6000803e3d6000fd5b505050506040513d601f19601f820116820180604052508101906115cb9190614288565b6115d89060ff1685614241565b6115e29190614274565b600080546040516370cf77df60e11b81526004810187905292935090916001600160a01b039091169063e19eefbe90602401602060405180830381865afa158015611631573d6000803e3d6000fd5b505050506040513d601f19601f820116820180604052508101906116559190614095565b9050600061166385836142ab565b905060008054906101000a90046001600160a01b03166001600160a01b0316633e413bee6040518163ffffffff1660e01b8152600401602060405180830381865afa1580156116b6573d6000803e3d6000fd5b505050506040513d601f19601f820116820180604052508101906116da9190614078565b6001600160a01b03166323b872dd3360008054906101000a90046001600160a01b03166001600160a01b031663f9b6117f6040518163ffffffff1660e01b8152600401602060405180830381865afa15801561173a573d6000803e3d6000fd5b505050506040513d601f19601f8201168201806040525081019061175e9190614078565b6040516001600160e01b031960e085901b1681526001600160a01b03928316600482015291166024820152604481018490526064016020604051808303816000875af11580156117b2573d6000803e3d6000fd5b505050506040513d601f19601f820116820180604052508101906117d69190614052565b5060008054906101000a90046001600160a01b03166001600160a01b0316633e413bee6040518163ffffffff1660e01b8152600401602060405180830381865afa158015611828573d6000803e3d6000fd5b505050506040513d601f19601f8201168201806040525081019061184c9190614078565b6001600160a01b03166323b872dd3361186361229f565b6040516001600160e01b031960e085901b1681526001600160a01b03928316600482015291166024820152604481018690526064016020604051808303816000875af11580156118b7573d6000803e3d6000fd5b505050506040513d601f19601f820116820180604052508101906118db9190614052565b506000805460408051635501c6cf60e01b815290516001600160a01b0390921692635501c6cf9260048084019382900301818387803b15801561191d57600080fd5b505af1158015611931573d6000803e3d6000fd5b5050505060008060009054906101000a90046001600160a01b03166001600160a01b0316639dbb9c9e6040518163ffffffff1660e01b8152600401602060405180830381865afa158015611989573d6000803e3d6000fd5b505050506040513d601f19601f820116820180604052508101906119ad9190614095565b600054604051631d4a285960e31b815260048101839052602481018990529192506001600160a01b03169063ea5142c890604401600060405180830381600087803b1580156119fb57600080fd5b505af1158015611a0f573d6000803e3d6000fd5b5050505060005b60008054906101000a90046001600160a01b03166001600160a01b03166353fd43326040518163ffffffff1660e01b8152600401602060405180830381865afa158015611a67573d6000803e3d6000fd5b505050506040513d601f19601f82011682018060405250810190611a8b9190614095565b8110156121a3576000805460405163264cae9360e21b8152600481018490526001600160a01b0390911690639932ba4c90602401602060405180830381865afa158015611adc573d6000803e3d6000fd5b505050506040513d601f19601f82011682018060405250810190611b009190614078565b60008054604051630be5271360e01b81526001600160a01b038085166004830152939450919268056bc75e2d6310000092911690630be5271390602401602060405180830381865afa158015611b5a573d6000803e3d6000fd5b505050506040513d601f19601f82011682018060405250810190611b7e9190614095565b611b88908b614241565b611b929190614274565b90506000611c15838360008054906101000a90046001600160a01b03166001600160a01b031663f9b6117f6040518163ffffffff1660e01b8152600401602060405180830381865afa158015611bec573d6000803e3d6000fd5b505050506040513d601f19601f82011682018060405250810190611c109190614078565b613c55565b600054604080518082018252600181526020810189815291516340c1249560e11b81526004810185905290516024820152905160448201529192506001600160a01b031690638182492a90606401600060405180830381600087803b158015611c7d57600080fd5b505af1158015611c91573d6000803e3d6000fd5b5050600054604051631a3c946160e31b815260048101859052602481018690526001600160a01b03909116925063d1e4a3089150604401600060405180830381600087803b158015611ce257600080fd5b505af1158015611cf6573d6000803e3d6000fd5b5050600054604051631258c12960e21b81526001600160a01b03909116925063496304a49150611d2e9088908790869060040161420c565b600060405180830381600087803b158015611d4857600080fd5b505af1158015611d5c573d6000803e3d6000fd5b5050600054604051636f8eaf5160e11b8152600481018990523360248201526001600160a01b03909116925063df1d5ea29150604401600060405180830381600087803b158015611dac57600080fd5b505af1158015611dc0573d6000803e3d6000fd5b50506000805460405162493aaf60e51b81526001600160a01b0388811660048301529294509116915063092755e090602401602060405180830381865afa158015611e0f573d6000803e3d6000fd5b505050506040513d601f19601f82011682018060405250810190611e339190614078565b6001600160a01b03166370a0823160008054906101000a90046001600160a01b03166001600160a01b031663fbfa77cf6040518163ffffffff1660e01b8152600401602060405180830381865afa158015611e92573d6000803e3d6000fd5b505050506040513d601f19601f82011682018060405250810190611eb69190614078565b6040516001600160e01b031960e084901b1681526001600160a01b039091166004820152602401602060405180830381865afa158015611efa573d6000803e3d6000fd5b505050506040513d601f19601f82011682018060405250810190611f1e9190614095565b6000805460405162493aaf60e51b81526001600160a01b0388811660048301529394509192169063092755e090602401602060405180830381865afa158015611f6b573d6000803e3d6000fd5b505050506040513d601f19601f82011682018060405250810190611f8f9190614078565b6001600160a01b0316634cdad506836040518263ffffffff1660e01b8152600401611fbc91815260200190565b602060405180830381865afa158015611fd9573d6000803e3d6000fd5b505050506040513d601f19601f82011682018060405250810190611ffd9190614095565b600054604051639b2d6e3b60e01b81529192506001600160a01b031690639b2d6e3b90612032908a908990869060040161420c565b600060405180830381600087803b15801561204c57600080fd5b505af1158015612060573d6000803e3d6000fd5b505060005460408051637e062a3560e11b815290516001600160a01b0390921693506399f68da892508a91849163fc0c546a9160048083019260209291908290030181865afa1580156120b7573d6000803e3d6000fd5b505050506040513d601f19601f820116820180604052508101906120db9190614078565b6001600160a01b03166318160ddd6040518163ffffffff1660e01b8152600401602060405180830381865afa158015612118573d6000803e3d6000fd5b505050506040513d601f19601f8201168201806040525081019061213c9190614095565b6040516001600160e01b031960e085901b16815260048101929092526024820152604401600060405180830381600087803b15801561217a57600080fd5b505af115801561218e573d6000803e3d6000fd5b505060019097019650611a1695505050505050565b50336001600160a01b0316817fb564a60b4184bee9ffdc1c0fd0588a93c23e406438195eec9857050fece55c2060008054906101000a90046001600160a01b03166001600160a01b0316633e413bee6040518163ffffffff1660e01b8152600401602060405180830381865afa158015612221573d6000803e3d6000fd5b505050506040513d601f19601f820116820180604052508101906122459190614078565b604080516001600160a01b039092168252602082018b905260009082015242606082015260800160405180910390a395945050505050565b612285613477565b6102106000613e42565b612297613477565b610210613eb3565b7f9016d09d72d40fdae2fd8ceac6b6234c7706214fd39c1cd1e609a0528c199300546001600160a01b031690565b6000546040516376529fdf60e01b8152600481018390526001600160a01b03909116906376529fdf90602401602060405180830381865afa158015612316573d6000803e3d6000fd5b505050506040513d601f19601f8201168201806040525081019061233a9190614052565b156123875760405162461bcd60e51b815260206004820152601760248201527f526564656d7074696f6e20697320636f6d706c6574656400000000000000000060448201526064016102c0565b60008054604051630f0064cb60e31b8152600481018490526001600160a01b0390911690637803265890602401602060405180830381865afa1580156123d1573d6000803e3d6000fd5b505050506040513d601f19601f820116820180604052508101906123f59190614078565b9050336001600160a01b038216146124605760405162461bcd60e51b815260206004820152602860248201527f4f6e6c79207265717565737465722063616e2063616e63656c207468652072656044820152673232b6b83a34b7b760c11b60648201526084016102c0565b60008060009054906101000a90046001600160a01b03166001600160a01b0316631d1438486040518163ffffffff1660e01b8152600401602060405180830381865afa1580156124b4573d6000803e3d6000fd5b505050506040513d601f19601f820116820180604052508101906124d89190614078565b905060005b60008054906101000a90046001600160a01b03166001600160a01b03166353fd43326040518163ffffffff1660e01b8152600401602060405180830381865afa15801561252e573d6000803e3d6000fd5b505050506040513d601f19601f820116820180604052508101906125529190614095565b811015610ce2576000805460405163264cae9360e21b8152600481018490526001600160a01b0390911690639932ba4c90602401602060405180830381865afa1580156125a3573d6000803e3d6000fd5b505050506040513d601f19601f820116820180604052508101906125c79190614078565b60008054604051631ea274e360e31b8152600481018990526001600160a01b0380851660248301529394509192169063f513a71890604401602060405180830381865afa15801561261c573d6000803e3d6000fd5b505050506040513d601f19601f820116820180604052508101906126409190614095565b600080546040516378f98eb360e11b81526004810184905292935090916001600160a01b039091169063f1f31d669060240161014060405180830381865afa158015612690573d6000803e3d6000fd5b505050506040513d601f19601f820116820180604052508101906126b49190614125565b60405163069352a960e41b8152600481018490529091506000906001600160a01b038716906369352a9090602401602060405180830381865afa1580156126ff573d6000803e3d6000fd5b505050506040513d601f19601f820116820180604052508101906127239190614095565b60405163187b2ed160e21b8152600481018590526001600160a01b038816906361ecbb4490602401602060405180830381865afa158015612768573d6000803e3d6000fd5b505050506040513d601f19601f8201168201806040525081019061278c9190614095565b61279691906142be565b60405163103fdae160e31b8152600481018590529091506000906001600160a01b038816906381fed70890602401602060405180830381865afa1580156127e1573d6000803e3d6000fd5b505050506040513d601f19601f820116820180604052508101906128059190614095565b6040516322fd455760e11b8152600481018690529091506001906001600160a01b038916906345fa8aae90602401602060405180830381865afa158015612850573d6000803e3d6000fd5b505050506040513d601f19601f8201168201806040525081019061287491906141ef565b6003811115612885576128856141d9565b60ff16148015612893575081155b156129d95760008060009054906101000a90046001600160a01b03166001600160a01b031663f9b6117f6040518163ffffffff1660e01b8152600401602060405180830381865afa1580156128ec573d6000803e3d6000fd5b505050506040513d601f19601f820116820180604052508101906129109190614078565b60405163514fcac760e01b8152600481018790529091506001600160a01b0382169063514fcac790602401600060405180830381600087803b15801561295557600080fd5b505af1158015612969573d6000803e3d6000fd5b505060005460405163375432ab60e11b81526001600160a01b039091169250636ea8655691506129a1908d908a90879060040161420c565b600060405180830381600087803b1580156129bb57600080fd5b505af11580156129cf573d6000803e3d6000fd5b5050505050612d7b565b6040516322fd455760e11b8152600481018590526002906001600160a01b038916906345fa8aae90602401602060405180830381865afa158015612a21573d6000803e3d6000fd5b505050506040513d601f19601f82011682018060405250810190612a4591906141ef565b6003811115612a5657612a566141d9565b60ff161480612a655750600082115b15612d7b576000612ac2868460008054906101000a90046001600160a01b03166001600160a01b031663f9b6117f6040518163ffffffff1660e01b8152600401602060405180830381865afa158015611bec573d6000803e3d6000fd5b6000546040805180820182526004808252602082018f815292516340c1249560e11b815290810185905290516024820152905160448201529192506001600160a01b031690638182492a90606401600060405180830381600087803b158015612b2a57600080fd5b505af1158015612b3e573d6000803e3d6000fd5b505060005460405163457e0e0f60e01b81526001600160a01b03909116925063457e0e0f9150612b76908d908a908a9060040161420c565b600060405180830381600087803b158015612b9057600080fd5b505af1158015612ba4573d6000803e3d6000fd5b5060019250612bb1915050565b60ff16886001600160a01b03166345fa8aae876040518263ffffffff1660e01b8152600401612be291815260200190565b602060405180830381865afa158015612bff573d6000803e3d6000fd5b505050506040513d601f19601f82011682018060405250810190612c2391906141ef565b6003811115612c3457612c346141d9565b60ff1603612d795760005460405163375432ab60e11b81526001600160a01b0390911690636ea8655690612c70908d908a90879060040161420c565b600060405180830381600087803b158015612c8a57600080fd5b505af1158015612c9e573d6000803e3d6000fd5b5050505060008060009054906101000a90046001600160a01b03166001600160a01b031663f9b6117f6040518163ffffffff1660e01b8152600401602060405180830381865afa158015612cf6573d6000803e3d6000fd5b505050506040513d601f19601f82011682018060405250810190612d1a9190614078565b60405163514fcac760e01b8152600481018890529091506001600160a01b0382169063514fcac790602401600060405180830381600087803b158015612d5f57600080fd5b505af1158015612d73573d6000803e3d6000fd5b50505050505b505b5050600190930192506124dd915050565b60005b60008054906101000a90046001600160a01b03166001600160a01b03166353fd43326040518163ffffffff1660e01b8152600401602060405180830381865afa158015612de0573d6000803e3d6000fd5b505050506040513d601f19601f82011682018060405250810190612e049190614095565b811015613282576000805460405163264cae9360e21b8152600481018490526001600160a01b0390911690639932ba4c90602401602060405180830381865afa158015612e55573d6000803e3d6000fd5b505050506040513d601f19601f82011682018060405250810190612e799190614078565b6040516370a0823160e01b81523060048201529091506000906001600160a01b038316906370a0823190602401602060405180830381865afa158015612ec3573d6000803e3d6000fd5b505050506040513d601f19601f82011682018060405250810190612ee79190614095565b905060008060009054906101000a90046001600160a01b03166001600160a01b0316631d1438486040518163ffffffff1660e01b8152600401602060405180830381865afa158015612f3d573d6000803e3d6000fd5b505050506040513d601f19601f82011682018060405250810190612f619190614078565b60405163fc75f9ed60e01b81526001600160a01b03858116600483015291925060009183169063fc75f9ed90602401602060405180830381865afa158015612fad573d6000803e3d6000fd5b505050506040513d601f19601f82011682018060405250810190612fd19190614288565b90506000612fe06001836142d1565b612feb90600a6143ce565b612ff590856143dd565b612fff90856142be565b905060008060009054906101000a90046001600160a01b03166001600160a01b031663f9b6117f6040518163ffffffff1660e01b8152600401602060405180830381865afa158015613055573d6000803e3d6000fd5b505050506040513d601f19601f820116820180604052508101906130799190614078565b600080546040516358913cd560e11b81526001600482015292935090916001600160a01b039091169063b12279aa9060240161014060405180830381865afa1580156130c9573d6000803e3d6000fd5b505050506040513d601f19601f820116820180604052508101906130ed9190614125565b6001600160a01b03808916604080840182905260c08401879052858316602080860191909152600054825163f9b6117f60e01b81529251959650929463a9059cbb94939093169263f9b6117f9260048082019392918290030181865afa15801561315b573d6000803e3d6000fd5b505050506040513d601f19601f8201168201806040525081019061317f9190614078565b6040516001600160e01b031960e084901b1681526001600160a01b039091166004820152602481018690526044016020604051808303816000875af11580156131cc573d6000803e3d6000fd5b505050506040513d601f19601f820116820180604052508101906131f09190614052565b506040516319b284d160e21b81526001600160a01b038881166004830152602482018590528316604482018190526000916366ca1344906064016020604051808303816000875af1158015613249573d6000803e3d6000fd5b505050506040513d601f19601f8201168201806040525081019061326d9190614095565b505060019097019650612d8f95505050505050565b50565b7ff0c57e16840df040f15088dc2f81fe391c3923bec73e23a9662efc9c229c6a008054600160401b810460ff16159067ffffffffffffffff166000811580156132cb5750825b905060008267ffffffffffffffff1660011480156132e85750303b155b9050811580156132f6575080155b156133145760405163f92ee8a960e01b815260040160405180910390fd5b845467ffffffffffffffff19166001178555831561333e57845460ff60401b1916600160401b1785555b600080546001600160a01b0319166001600160a01b03881617905561336233613efc565b61336a613f0d565b83156133b057845460ff60401b19168555604051600181527fc7f505b2f371ae2175ee4913f4499e1f2633a7b5936321eed1cdaeb6115181d29060200160405180910390a15b505050505050565b60006133c2613477565b6001600160a01b0382166134185760405162461bcd60e51b815260206004820152601f60248201527f696e76616c696420666163746f72792073746f7261676520616464726573730060448201526064016102c0565b50600080546001600160a01b0319166001600160a01b03831617905560015b919050565b613444613477565b6001600160a01b03811661346e57604051631e4fbdf760e01b8152600060048201526024016102c0565b61328281613e42565b3361348061229f565b6001600160a01b0316146102105760405163118cdaa760e01b81523360048201526024016102c0565b6134b1613f1d565b6000805160206144d0833981519152805460ff191681557f5db9ee0a495bf2e6ff9c91a7834c1ba4fdd244a5e8aa4e537bd38aeae4b073aa335b6040516001600160a01b03909116815260200160405180910390a150565b6000805460405162493aaf60e51b81526001600160a01b0386811660048301528392839291169063092755e090602401602060405180830381865afa158015613556573d6000803e3d6000fd5b505050506040513d601f19601f8201168201806040525081019061357a9190614078565b905060008054906101000a90046001600160a01b03166001600160a01b031663fbfa77cf6040518163ffffffff1660e01b8152600401602060405180830381865afa1580156135cd573d6000803e3d6000fd5b505050506040513d601f19601f820116820180604052508101906135f19190614078565b604051631c20fadd60e01b81526001600160a01b038381166004830152306024830152604482018890529190911690631c20fadd90606401600060405180830381600087803b15801561364357600080fd5b505af1158015613657573d6000803e3d6000fd5b5050604051635d043b2960e11b81526004810188905230602482018190526044820152600092506001600160a01b038416915063ba087652906064016020604051808303816000875af11580156136b2573d6000803e3d6000fd5b505050506040513d601f19601f820116820180604052508101906136d69190614095565b905060008060009054906101000a90046001600160a01b03166001600160a01b0316631d1438486040518163ffffffff1660e01b8152600401602060405180830381865afa15801561372c573d6000803e3d6000fd5b505050506040513d601f19601f820116820180604052508101906137509190614078565b60405163fc75f9ed60e01b81526001600160a01b038a8116600483015291925060009183169063fc75f9ed90602401602060405180830381865afa15801561379c573d6000803e3d6000fd5b505050506040513d601f19601f820116820180604052508101906137c09190614288565b905060006137cf6001836142d1565b6137da90600a6143ce565b6137e490856143dd565b6137ee90856142be565b905060006137fc82866142be565b9050801561396f5760405163095ea7b360e01b81526001600160a01b038781166004830152602482018390528c169063095ea7b3906044016020604051808303816000875af1158015613853573d6000803e3d6000fd5b505050506040513d601f19601f820116820180604052508101906138779190614052565b50856001600160a01b0316636e553f658260008054906101000a90046001600160a01b03166001600160a01b031663fbfa77cf6040518163ffffffff1660e01b8152600401602060405180830381865afa1580156138d9573d6000803e3d6000fd5b505050506040513d601f19601f820116820180604052508101906138fd9190614078565b6040516001600160e01b031960e085901b16815260048101929092526001600160a01b031660248201526044016020604051808303816000875af1158015613949573d6000803e3d6000fd5b505050506040513d601f19601f8201168201806040525081019061396d9190614095565b505b600080546040516358913cd560e11b8152600160048201526001600160a01b039091169063b12279aa9060240161014060405180830381865afa1580156139ba573d6000803e3d6000fd5b505050506040513d601f19601f820116820180604052508101906139de9190614125565b6001600160a01b03808e16604080840182905260c084018790528d8316602080860191909152600054825163f9b6117f60e01b81529251959650929463a9059cbb94939093169263f9b6117f9260048082019392918290030181865afa158015613a4c573d6000803e3d6000fd5b505050506040513d601f19601f82011682018060405250810190613a709190614078565b6040516001600160e01b031960e084901b1681526001600160a01b039091166004820152602481018690526044016020604051808303816000875af1158015613abd573d6000803e3d6000fd5b505050506040513d601f19601f82011682018060405250810190613ae19190614052565b5060008060009054906101000a90046001600160a01b03166001600160a01b031663f9b6117f6040518163ffffffff1660e01b8152600401602060405180830381865afa158015613b36573d6000803e3d6000fd5b505050506040513d601f19601f82011682018060405250810190613b5a9190614078565b6040516319b284d160e21b81526001600160a01b038f81166004830152602482018790528d811660448301529192506000918316906366ca1344906064016020604051808303816000875af1158015613bb7573d6000803e3d6000fd5b505050506040513d601f19601f82011682018060405250810190613bdb9190614095565b600054604051630d71448160e21b81529192506001600160a01b0316906335c5120490613c0e9084908790600401614415565b600060405180830381600087803b158015613c2857600080fd5b505af1158015613c3c573d6000803e3d6000fd5b50929c50959a5050505050505050505050935093915050565b600080546040516358913cd560e11b81526004810183905282916001600160a01b03169063b12279aa9060240161014060405180830381865afa158015613ca0573d6000803e3d6000fd5b505050506040513d601f19601f82011682018060405250810190613cc49190614125565b6001600160a01b0380851660208084019190915287821660408085019190915260e0840188905260008054825163f9b6117f60e01b81529251959650909493169263f9b6117f926004808401939192918290030181865afa158015613d2d573d6000803e3d6000fd5b505050506040513d601f19601f82011682018060405250810190613d519190614078565b6040516312544d1b60e01b81526001600160a01b0388811660048301526024820188905286811660448301529192506000918316906312544d1b906064016020604051808303816000875af1158015613dae573d6000803e3d6000fd5b505050506040513d601f19601f82011682018060405250810190613dd29190614095565b600054604051630d71448160e21b81529192506001600160a01b0316906335c5120490613e059084908790600401614415565b600060405180830381600087803b158015613e1f57600080fd5b505af1158015613e33573d6000803e3d6000fd5b50929998505050505050505050565b7f9016d09d72d40fdae2fd8ceac6b6234c7706214fd39c1cd1e609a0528c19930080546001600160a01b031981166001600160a01b03848116918217845560405192169182907f8be0079c531659141344cd1fd0a4f28419497f9722a3daafe3b4186f6b6457e090600090a3505050565b613ebb613f4d565b6000805160206144d0833981519152805460ff191660011781557f62e78cea01bee320cd4e420270b5ea74000d11b0c9f74754ebdbfc544b05a258336134eb565b613f04613f7e565b61328281613fc7565b613f15613f7e565b610210613fcf565b6000805160206144d08339815191525460ff1661021057604051638dfc202b60e01b815260040160405180910390fd5b6000805160206144d08339815191525460ff16156102105760405163d93c066560e01b815260040160405180910390fd5b7ff0c57e16840df040f15088dc2f81fe391c3923bec73e23a9662efc9c229c6a0054600160401b900460ff1661021057604051631afcd79f60e31b815260040160405180910390fd5b613444613f7e565b613fd7613f7e565b6000805160206144d0833981519152805460ff19169055565b60006020828403121561400257600080fd5b5035919050565b6001600160a01b038116811461328257600080fd5b60006020828403121561403057600080fd5b813561403b81614009565b9392505050565b8051801515811461343757600080fd5b60006020828403121561406457600080fd5b61403b82614042565b805161343781614009565b60006020828403121561408a57600080fd5b815161403b81614009565b6000602082840312156140a757600080fd5b5051919050565b604051610140810167ffffffffffffffff811182821017156140e057634e487b7160e01b600052604160045260246000fd5b60405290565b805167ffffffffffffffff8116811461343757600080fd5b80516002811061343757600080fd5b6004811061328257600080fd5b80516134378161410d565b6000610140828403121561413857600080fd5b6141406140ae565b614149836140e6565b81526141576020840161406d565b60208201526141686040840161406d565b60408201526141796060840161406d565b606082015261418a60808401614042565b608082015261419b60a084016140fe565b60a082015260c083015160c082015260e083015160e08201526101008084015181830152506101206141ce81850161411a565b908201529392505050565b634e487b7160e01b600052602160045260246000fd5b60006020828403121561420157600080fd5b815161403b8161410d565b9283526001600160a01b03919091166020830152604082015260600190565b634e487b7160e01b600052601160045260246000fd5b80820281158282048414176142585761425861422b565b92915050565b634e487b7160e01b600052601260045260246000fd5b6000826142835761428361425e565b500490565b60006020828403121561429a57600080fd5b815160ff8116811461403b57600080fd5b808201808211156142585761425861422b565b818103818111156142585761425861422b565b60ff82811682821603908111156142585761425861422b565b600181815b8085111561432557816000190482111561430b5761430b61422b565b8085161561431857918102915b93841c93908002906142ef565b509250929050565b60008261433c57506001614258565b8161434957506000614258565b816001811461435f576002811461436957614385565b6001915050614258565b60ff84111561437a5761437a61422b565b50506001821b614258565b5060208310610133831016604e8410600b84101617156143a8575081810a614258565b6143b283836142ea565b80600019048211156143c6576143c661422b565b029392505050565b600061403b60ff84168361432d565b6000826143ec576143ec61425e565b500690565b60028110614401576144016141d9565b9052565b60048110614401576144016141d9565b828152815167ffffffffffffffff166020820152610160810160208301516001600160a01b03811660408401525060408301516001600160a01b03811660608401525060608301516001600160a01b038116608084015250608083015180151560a08401525060a083015161448d60c08401826143f1565b5060c083015160e08381019190915283015161010080840191909152830151610120808401919091528301516144c7610140840182614405565b50939250505056fecd5ed15c6e187e77e9aee88184c21f4f2182ab5827cb3b7e07fbedcd63f03300a26469706673582212205042b06da6e3eddffa96d2f9ab31ebcb3131224572161f8674ab662ae728822664736f6c63430008190033","linkReferences":{}},"methodIdentifiers":{"cancelIssuance(uint256)":"46d66a2c","cancelRedemption(uint256)":"9219e510","factoryStorage()":"c06e1ae2","initialize(address)":"c4d66de8","issuanceIndexTokens(uint256)":"6e320408","owner()":"8da5cb5b","pause()":"8456cb59","paused()":"5c975abb","redemption(uint256)":"4a1dc092","renounceOwnership()":"715018a6","setIndexFactoryStorage(address)":"cc8659ae","tRedemption()":"bbb7c77b","transferOwnership(address)":"f2fde38b","unpause()":"3f4ba83a"},"id":21}