{"abi":[{"type":"function","name":"actionInfoById","inputs":[{"name":"","type":"uint256","internalType":"uint256"}],"outputs":[{"name":"actionType","type":"uint256","internalType":"uint256"},{"name":"nonce","type":"uint256","internalType":"uint256"}],"stateMutability":"view"},{"type":"function","name":"burnedTokenAmountByNonce","inputs":[{"name":"","type":"uint256","internalType":"uint256"}],"outputs":[{"name":"","type":"uint256","internalType":"uint256"}],"stateMutability":"view"},{"type":"function","name":"buyRequestPayedAmountById","inputs":[{"name":"","type":"uint256","internalType":"uint256"}],"outputs":[{"name":"","type":"uint256","internalType":"uint256"}],"stateMutability":"view"},{"type":"function","name":"calculateBuyRequestFee","inputs":[{"name":"_amount","type":"uint256","internalType":"uint256"}],"outputs":[{"name":"","type":"uint256","internalType":"uint256"}],"stateMutability":"view"},{"type":"function","name":"calculateIssuanceFee","inputs":[{"name":"_inputAmount","type":"uint256","internalType":"uint256"}],"outputs":[{"name":"","type":"uint256","internalType":"uint256"}],"stateMutability":"view"},{"type":"function","name":"cancelIssuance","inputs":[{"name":"_issuanceNonce","type":"uint256","internalType":"uint256"}],"outputs":[],"stateMutability":"nonpayable"},{"type":"function","name":"cancelIssuanceComplted","inputs":[{"name":"","type":"uint256","internalType":"uint256"}],"outputs":[{"name":"","type":"bool","internalType":"bool"}],"stateMutability":"view"},{"type":"function","name":"cancelIssuanceRequestId","inputs":[{"name":"","type":"uint256","internalType":"uint256"},{"name":"","type":"address","internalType":"address"}],"outputs":[{"name":"","type":"uint256","internalType":"uint256"}],"stateMutability":"view"},{"type":"function","name":"cancelRedemption","inputs":[{"name":"_redemptionNonce","type":"uint256","internalType":"uint256"}],"outputs":[],"stateMutability":"nonpayable"},{"type":"function","name":"cancelRedemptionComplted","inputs":[{"name":"","type":"uint256","internalType":"uint256"}],"outputs":[{"name":"","type":"bool","internalType":"bool"}],"stateMutability":"view"},{"type":"function","name":"cancelRedemptionRequestId","inputs":[{"name":"","type":"uint256","internalType":"uint256"},{"name":"","type":"address","internalType":"address"}],"outputs":[{"name":"","type":"uint256","internalType":"uint256"}],"stateMutability":"view"},{"type":"function","name":"checkCancelIssuanceStatus","inputs":[{"name":"_issuanceNonce","type":"uint256","internalType":"uint256"}],"outputs":[{"name":"","type":"bool","internalType":"bool"}],"stateMutability":"view"},{"type":"function","name":"checkCancelRedemptionStatus","inputs":[{"name":"_redemptionNonce","type":"uint256","internalType":"uint256"}],"outputs":[{"name":"","type":"bool","internalType":"bool"}],"stateMutability":"view"},{"type":"function","name":"checkFirstRebalanceOrdersStatus","inputs":[{"name":"_rebalanceNonce","type":"uint256","internalType":"uint256"}],"outputs":[{"name":"","type":"bool","internalType":"bool"}],"stateMutability":"view"},{"type":"function","name":"checkIssuanceOrdersStatus","inputs":[{"name":"_issuanceNonce","type":"uint256","internalType":"uint256"}],"outputs":[{"name":"","type":"bool","internalType":"bool"}],"stateMutability":"view"},{"type":"function","name":"checkMultical","inputs":[{"name":"_reqeustId","type":"uint256","internalType":"uint256"}],"outputs":[{"name":"","type":"bool","internalType":"bool"}],"stateMutability":"view"},{"type":"function","name":"checkRedemptionOrdersStatus","inputs":[{"name":"_redemptionNonce","type":"uint256","internalType":"uint256"}],"outputs":[{"name":"","type":"bool","internalType":"bool"}],"stateMutability":"view"},{"type":"function","name":"checkSecondRebalanceOrdersStatus","inputs":[{"name":"_rebalanceNonce","type":"uint256","internalType":"uint256"}],"outputs":[{"name":"","type":"bool","internalType":"bool"}],"stateMutability":"view"},{"type":"function","name":"coaByIssuanceNonce","inputs":[{"name":"","type":"uint256","internalType":"uint256"}],"outputs":[{"name":"","type":"address","internalType":"address"}],"stateMutability":"view"},{"type":"function","name":"coaByRedemptionNonce","inputs":[{"name":"","type":"uint256","internalType":"uint256"}],"outputs":[{"name":"","type":"address","internalType":"address"}],"stateMutability":"view"},{"type":"function","name":"completeCancelIssuance","inputs":[{"name":"_issuanceNonce","type":"uint256","internalType":"uint256"}],"outputs":[],"stateMutability":"nonpayable"},{"type":"function","name":"completeCancelRedemption","inputs":[{"name":"_redemptionNonce","type":"uint256","internalType":"uint256"}],"outputs":[],"stateMutability":"nonpayable"},{"type":"function","name":"completeIssuance","inputs":[{"name":"_issuanceNonce","type":"uint256","internalType":"uint256"}],"outputs":[],"stateMutability":"nonpayable"},{"type":"function","name":"completeRebalanceActions","inputs":[{"name":"_rebalanceNonce","type":"uint256","internalType":"uint256"}],"outputs":[],"stateMutability":"nonpayable"},{"type":"function","name":"completeRedemption","inputs":[{"name":"_redemptionNonce","type":"uint256","internalType":"uint256"}],"outputs":[],"stateMutability":"nonpayable"},{"type":"function","name":"concatenation","inputs":[{"name":"a","type":"string","internalType":"string"},{"name":"b","type":"string","internalType":"string"}],"outputs":[{"name":"","type":"string","internalType":"string"}],"stateMutability":"pure"},{"type":"function","name":"currentList","inputs":[{"name":"","type":"uint256","internalType":"uint256"}],"outputs":[{"name":"","type":"address","internalType":"address"}],"stateMutability":"view"},{"type":"function","name":"custodianWallet","inputs":[],"outputs":[{"name":"","type":"address","internalType":"address"}],"stateMutability":"view"},{"type":"function","name":"estimateAmountAfterFee","inputs":[{"name":"_amount","type":"uint256","internalType":"uint256"}],"outputs":[{"name":"","type":"uint256","internalType":"uint256"}],"stateMutability":"view"},{"type":"function","name":"externalJobId","inputs":[],"outputs":[{"name":"","type":"bytes32","internalType":"bytes32"}],"stateMutability":"view"},{"type":"function","name":"feeRate","inputs":[],"outputs":[{"name":"","type":"uint8","internalType":"uint8"}],"stateMutability":"view"},{"type":"function","name":"firstRebalanceAction","inputs":[],"outputs":[{"name":"","type":"uint256","internalType":"uint256"}],"stateMutability":"nonpayable"},{"type":"function","name":"fulfillAssetsData","inputs":[{"name":"requestId","type":"bytes32","internalType":"bytes32"},{"name":"_tokens","type":"address[]","internalType":"address[]"},{"name":"_marketShares","type":"uint256[]","internalType":"uint256[]"}],"outputs":[],"stateMutability":"nonpayable"},{"type":"function","name":"getIssuanceAmountOut","inputs":[{"name":"_amount","type":"uint256","internalType":"uint256"}],"outputs":[{"name":"","type":"uint256","internalType":"uint256"}],"stateMutability":"view"},{"type":"function","name":"getOrderInstanceById","inputs":[{"name":"id","type":"uint256","internalType":"uint256"}],"outputs":[{"name":"","type":"tuple","internalType":"struct IOrderProcessor.Order","components":[{"name":"requestTimestamp","type":"uint64","internalType":"uint64"},{"name":"recipient","type":"address","internalType":"address"},{"name":"assetToken","type":"address","internalType":"address"},{"name":"paymentToken","type":"address","internalType":"address"},{"name":"sell","type":"bool","internalType":"bool"},{"name":"orderType","type":"uint8","internalType":"enum IOrderProcessor.OrderType"},{"name":"assetTokenQuantity","type":"uint256","internalType":"uint256"},{"name":"paymentTokenQuantity","type":"uint256","internalType":"uint256"},{"name":"price","type":"uint256","internalType":"uint256"},{"name":"tif","type":"uint8","internalType":"enum IOrderProcessor.TIF"}]}],"stateMutability":"view"},{"type":"function","name":"getPortfolioValue","inputs":[],"outputs":[{"name":"","type":"uint256","internalType":"uint256"}],"stateMutability":"view"},{"type":"function","name":"getRedemptionAmountOut","inputs":[{"name":"_amount","type":"uint256","internalType":"uint256"}],"outputs":[{"name":"","type":"uint256","internalType":"uint256"}],"stateMutability":"view"},{"type":"function","name":"getVaultDshareBalance","inputs":[{"name":"_token","type":"address","internalType":"address"}],"outputs":[{"name":"","type":"uint256","internalType":"uint256"}],"stateMutability":"view"},{"type":"function","name":"getVaultDshareValue","inputs":[{"name":"_token","type":"address","internalType":"address"}],"outputs":[{"name":"","type":"uint256","internalType":"uint256"}],"stateMutability":"view"},{"type":"function","name":"initialize","inputs":[{"name":"_issuer","type":"address","internalType":"address"},{"name":"_token","type":"address","internalType":"address"},{"name":"_vault","type":"address","internalType":"address"},{"name":"_usdc","type":"address","internalType":"address"},{"name":"_usdcDecimals","type":"uint8","internalType":"uint8"},{"name":"_chainlinkToken","type":"address","internalType":"address"},{"name":"_oracleAddress","type":"address","internalType":"address"},{"name":"_externalJobId","type":"bytes32","internalType":"bytes32"},{"name":"_isMainnet","type":"bool","internalType":"bool"}],"outputs":[],"stateMutability":"nonpayable"},{"type":"function","name":"isIssuanceOrderActive","inputs":[{"name":"_issuanceNonce","type":"uint256","internalType":"uint256"}],"outputs":[{"name":"","type":"bool","internalType":"bool"}],"stateMutability":"view"},{"type":"function","name":"isMainnet","inputs":[],"outputs":[{"name":"","type":"bool","internalType":"bool"}],"stateMutability":"view"},{"type":"function","name":"isRedemptionOrderActive","inputs":[{"name":"_redemptionNonce","type":"uint256","internalType":"uint256"}],"outputs":[{"name":"","type":"bool","internalType":"bool"}],"stateMutability":"view"},{"type":"function","name":"issuance","inputs":[{"name":"_inputAmount","type":"uint256","internalType":"uint256"}],"outputs":[{"name":"","type":"uint256","internalType":"uint256"}],"stateMutability":"nonpayable"},{"type":"function","name":"issuanceIndexTokenPrimaryTotalSupply","inputs":[{"name":"","type":"uint256","internalType":"uint256"}],"outputs":[{"name":"","type":"uint256","internalType":"uint256"}],"stateMutability":"view"},{"type":"function","name":"issuanceInputAmount","inputs":[{"name":"","type":"uint256","internalType":"uint256"}],"outputs":[{"name":"","type":"uint256","internalType":"uint256"}],"stateMutability":"view"},{"type":"function","name":"issuanceIsCompleted","inputs":[{"name":"","type":"uint256","internalType":"uint256"}],"outputs":[{"name":"","type":"bool","internalType":"bool"}],"stateMutability":"view"},{"type":"function","name":"issuanceNonce","inputs":[],"outputs":[{"name":"","type":"uint256","internalType":"uint256"}],"stateMutability":"view"},{"type":"function","name":"issuanceRequestId","inputs":[{"name":"","type":"uint256","internalType":"uint256"},{"name":"","type":"address","internalType":"address"}],"outputs":[{"name":"","type":"uint256","internalType":"uint256"}],"stateMutability":"view"},{"type":"function","name":"issuanceRequesterByNonce","inputs":[{"name":"","type":"uint256","internalType":"uint256"}],"outputs":[{"name":"","type":"address","internalType":"address"}],"stateMutability":"view"},{"type":"function","name":"issuanceTokenPrimaryBalance","inputs":[{"name":"","type":"uint256","internalType":"uint256"},{"name":"","type":"address","internalType":"address"}],"outputs":[{"name":"","type":"uint256","internalType":"uint256"}],"stateMutability":"view"},{"type":"function","name":"issuer","inputs":[],"outputs":[{"name":"","type":"address","internalType":"contract IOrderProcessor"}],"stateMutability":"view"},{"type":"function","name":"lastUpdateTime","inputs":[],"outputs":[{"name":"","type":"uint256","internalType":"uint256"}],"stateMutability":"view"},{"type":"function","name":"latestFeeUpdate","inputs":[],"outputs":[{"name":"","type":"uint256","internalType":"uint256"}],"stateMutability":"view"},{"type":"function","name":"mockFillAssetsList","inputs":[{"name":"_tokens","type":"address[]","internalType":"address[]"},{"name":"_marketShares","type":"uint256[]","internalType":"uint256[]"}],"outputs":[],"stateMutability":"nonpayable"},{"type":"function","name":"multical","inputs":[{"name":"_requestId","type":"uint256","internalType":"uint256"}],"outputs":[],"stateMutability":"nonpayable"},{"type":"function","name":"oracleList","inputs":[{"name":"","type":"uint256","internalType":"uint256"}],"outputs":[{"name":"","type":"address","internalType":"address"}],"stateMutability":"view"},{"type":"function","name":"oraclePayment","inputs":[],"outputs":[{"name":"","type":"uint256","internalType":"uint256"}],"stateMutability":"view"},{"type":"function","name":"orderInstanceById","inputs":[{"name":"","type":"uint256","internalType":"uint256"}],"outputs":[{"name":"requestTimestamp","type":"uint64","internalType":"uint64"},{"name":"recipient","type":"address","internalType":"address"},{"name":"assetToken","type":"address","internalType":"address"},{"name":"paymentToken","type":"address","internalType":"address"},{"name":"sell","type":"bool","internalType":"bool"},{"name":"orderType","type":"uint8","internalType":"enum IOrderProcessor.OrderType"},{"name":"assetTokenQuantity","type":"uint256","internalType":"uint256"},{"name":"paymentTokenQuantity","type":"uint256","internalType":"uint256"},{"name":"price","type":"uint256","internalType":"uint256"},{"name":"tif","type":"uint8","internalType":"enum IOrderProcessor.TIF"}],"stateMutability":"view"},{"type":"function","name":"owner","inputs":[],"outputs":[{"name":"","type":"address","internalType":"address"}],"stateMutability":"view"},{"type":"function","name":"pause","inputs":[],"outputs":[],"stateMutability":"nonpayable"},{"type":"function","name":"paused","inputs":[],"outputs":[{"name":"","type":"bool","internalType":"bool"}],"stateMutability":"view"},{"type":"function","name":"portfolioValueByNonce","inputs":[{"name":"","type":"uint256","internalType":"uint256"}],"outputs":[{"name":"","type":"uint256","internalType":"uint256"}],"stateMutability":"view"},{"type":"function","name":"priceFeedByTokenAddress","inputs":[{"name":"","type":"address","internalType":"address"}],"outputs":[{"name":"","type":"address","internalType":"address"}],"stateMutability":"view"},{"type":"function","name":"priceInWei","inputs":[{"name":"_tokenAddress","type":"address","internalType":"address"}],"outputs":[{"name":"","type":"uint256","internalType":"uint256"}],"stateMutability":"view"},{"type":"function","name":"rebalanceBuyPayedAmountById","inputs":[{"name":"","type":"uint256","internalType":"uint256"}],"outputs":[{"name":"","type":"uint256","internalType":"uint256"}],"stateMutability":"view"},{"type":"function","name":"rebalanceNonce","inputs":[],"outputs":[{"name":"","type":"uint256","internalType":"uint256"}],"stateMutability":"view"},{"type":"function","name":"rebalanceRequestId","inputs":[{"name":"","type":"uint256","internalType":"uint256"},{"name":"","type":"address","internalType":"address"}],"outputs":[{"name":"","type":"uint256","internalType":"uint256"}],"stateMutability":"view"},{"type":"function","name":"rebalanceSellAssetAmountById","inputs":[{"name":"","type":"uint256","internalType":"uint256"}],"outputs":[{"name":"","type":"uint256","internalType":"uint256"}],"stateMutability":"view"},{"type":"function","name":"redemption","inputs":[{"name":"_inputAmount","type":"uint256","internalType":"uint256"}],"outputs":[{"name":"","type":"uint256","internalType":"uint256"}],"stateMutability":"nonpayable"},{"type":"function","name":"redemptionIndexTokenPrimaryTotalSupply","inputs":[{"name":"","type":"uint256","internalType":"uint256"}],"outputs":[{"name":"","type":"uint256","internalType":"uint256"}],"stateMutability":"view"},{"type":"function","name":"redemptionInputAmount","inputs":[{"name":"","type":"uint256","internalType":"uint256"}],"outputs":[{"name":"","type":"uint256","internalType":"uint256"}],"stateMutability":"view"},{"type":"function","name":"redemptionIsCompleted","inputs":[{"name":"","type":"uint256","internalType":"uint256"}],"outputs":[{"name":"","type":"bool","internalType":"bool"}],"stateMutability":"view"},{"type":"function","name":"redemptionNonce","inputs":[],"outputs":[{"name":"","type":"uint256","internalType":"uint256"}],"stateMutability":"view"},{"type":"function","name":"redemptionRequestId","inputs":[{"name":"","type":"uint256","internalType":"uint256"},{"name":"","type":"address","internalType":"address"}],"outputs":[{"name":"","type":"uint256","internalType":"uint256"}],"stateMutability":"view"},{"type":"function","name":"redemptionRequesterByNonce","inputs":[{"name":"","type":"uint256","internalType":"uint256"}],"outputs":[{"name":"","type":"address","internalType":"address"}],"stateMutability":"view"},{"type":"function","name":"redemptionTokenPrimaryBalance","inputs":[{"name":"","type":"uint256","internalType":"uint256"},{"name":"","type":"address","internalType":"address"}],"outputs":[{"name":"","type":"uint256","internalType":"uint256"}],"stateMutability":"view"},{"type":"function","name":"renounceOwnership","inputs":[],"outputs":[],"stateMutability":"nonpayable"},{"type":"function","name":"requestAssetsData","inputs":[],"outputs":[{"name":"","type":"bytes32","internalType":"bytes32"}],"stateMutability":"nonpayable"},{"type":"function","name":"secondRebalanceAction","inputs":[{"name":"_rebalanceNonce","type":"uint256","internalType":"uint256"}],"outputs":[],"stateMutability":"nonpayable"},{"type":"function","name":"sellRequestAssetAmountById","inputs":[{"name":"","type":"uint256","internalType":"uint256"}],"outputs":[{"name":"","type":"uint256","internalType":"uint256"}],"stateMutability":"view"},{"type":"function","name":"setCustodianWallet","inputs":[{"name":"_custodianWallet","type":"address","internalType":"address"}],"outputs":[{"name":"","type":"bool","internalType":"bool"}],"stateMutability":"nonpayable"},{"type":"function","name":"setFeeRate","inputs":[{"name":"_newFee","type":"uint8","internalType":"uint8"}],"outputs":[],"stateMutability":"nonpayable"},{"type":"function","name":"setIssuer","inputs":[{"name":"_issuer","type":"address","internalType":"address"}],"outputs":[{"name":"","type":"bool","internalType":"bool"}],"stateMutability":"nonpayable"},{"type":"function","name":"setOracleInfo","inputs":[{"name":"_oracleAddress","type":"address","internalType":"address"},{"name":"_externalJobId","type":"bytes32","internalType":"bytes32"}],"outputs":[],"stateMutability":"nonpayable"},{"type":"function","name":"setPriceFeedAddresses","inputs":[{"name":"_dShares","type":"address[]","internalType":"address[]"},{"name":"_priceFeedAddresses","type":"address[]","internalType":"address[]"}],"outputs":[],"stateMutability":"nonpayable"},{"type":"function","name":"setTokenAddress","inputs":[{"name":"_token","type":"address","internalType":"address"}],"outputs":[{"name":"","type":"bool","internalType":"bool"}],"stateMutability":"nonpayable"},{"type":"function","name":"setUrl","inputs":[{"name":"_beforeAddress","type":"string","internalType":"string"},{"name":"_afterAddress","type":"string","internalType":"string"}],"outputs":[],"stateMutability":"nonpayable"},{"type":"function","name":"setUsdcAddress","inputs":[{"name":"_usdc","type":"address","internalType":"address"},{"name":"_usdcDecimals","type":"uint8","internalType":"uint8"}],"outputs":[{"name":"","type":"bool","internalType":"bool"}],"stateMutability":"nonpayable"},{"type":"function","name":"setWrappedDShareAddresses","inputs":[{"name":"_dShares","type":"address[]","internalType":"address[]"},{"name":"_wrappedDShares","type":"address[]","internalType":"address[]"}],"outputs":[],"stateMutability":"nonpayable"},{"type":"function","name":"token","inputs":[],"outputs":[{"name":"","type":"address","internalType":"contract IndexToken"}],"stateMutability":"view"},{"type":"function","name":"tokenCurrentListIndex","inputs":[{"name":"","type":"address","internalType":"address"}],"outputs":[{"name":"","type":"uint256","internalType":"uint256"}],"stateMutability":"view"},{"type":"function","name":"tokenCurrentMarketShare","inputs":[{"name":"","type":"address","internalType":"address"}],"outputs":[{"name":"","type":"uint256","internalType":"uint256"}],"stateMutability":"view"},{"type":"function","name":"tokenOracleListIndex","inputs":[{"name":"","type":"address","internalType":"address"}],"outputs":[{"name":"","type":"uint256","internalType":"uint256"}],"stateMutability":"view"},{"type":"function","name":"tokenOracleMarketShare","inputs":[{"name":"","type":"address","internalType":"address"}],"outputs":[{"name":"","type":"uint256","internalType":"uint256"}],"stateMutability":"view"},{"type":"function","name":"tokenShortagePercentByNonce","inputs":[{"name":"","type":"uint256","internalType":"uint256"},{"name":"","type":"address","internalType":"address"}],"outputs":[{"name":"","type":"uint256","internalType":"uint256"}],"stateMutability":"view"},{"type":"function","name":"tokenValueByNonce","inputs":[{"name":"","type":"uint256","internalType":"uint256"},{"name":"","type":"address","internalType":"address"}],"outputs":[{"name":"","type":"uint256","internalType":"uint256"}],"stateMutability":"view"},{"type":"function","name":"totalCurrentList","inputs":[],"outputs":[{"name":"","type":"uint256","internalType":"uint256"}],"stateMutability":"view"},{"type":"function","name":"totalOracleList","inputs":[],"outputs":[{"name":"","type":"uint256","internalType":"uint256"}],"stateMutability":"view"},{"type":"function","name":"totalShortagePercentByNonce","inputs":[{"name":"","type":"uint256","internalType":"uint256"}],"outputs":[{"name":"","type":"uint256","internalType":"uint256"}],"stateMutability":"view"},{"type":"function","name":"transferOwnership","inputs":[{"name":"newOwner","type":"address","internalType":"address"}],"outputs":[],"stateMutability":"nonpayable"},{"type":"function","name":"unpause","inputs":[],"outputs":[],"stateMutability":"nonpayable"},{"type":"function","name":"usdc","inputs":[],"outputs":[{"name":"","type":"address","internalType":"address"}],"stateMutability":"view"},{"type":"function","name":"usdcDecimals","inputs":[],"outputs":[{"name":"","type":"uint8","internalType":"uint8"}],"stateMutability":"view"},{"type":"function","name":"vault","inputs":[],"outputs":[{"name":"","type":"address","internalType":"contract NexVault"}],"stateMutability":"view"},{"type":"function","name":"wrappedDshareAddress","inputs":[{"name":"","type":"address","internalType":"address"}],"outputs":[{"name":"","type":"address","internalType":"address"}],"stateMutability":"view"},{"type":"event","name":"ChainlinkCancelled","inputs":[{"name":"id","type":"bytes32","indexed":true,"internalType":"bytes32"}],"anonymous":false},{"type":"event","name":"ChainlinkFulfilled","inputs":[{"name":"id","type":"bytes32","indexed":true,"internalType":"bytes32"}],"anonymous":false},{"type":"event","name":"ChainlinkRequested","inputs":[{"name":"id","type":"bytes32","indexed":true,"internalType":"bytes32"}],"anonymous":false},{"type":"event","name":"Initialized","inputs":[{"name":"version","type":"uint64","indexed":false,"internalType":"uint64"}],"anonymous":false},{"type":"event","name":"Issuanced","inputs":[{"name":"nonce","type":"uint256","indexed":true,"internalType":"uint256"},{"name":"user","type":"address","indexed":true,"internalType":"address"},{"name":"inputToken","type":"address","indexed":false,"internalType":"address"},{"name":"inputAmount","type":"uint256","indexed":false,"internalType":"uint256"},{"name":"outputAmount","type":"uint256","indexed":false,"internalType":"uint256"},{"name":"time","type":"uint256","indexed":false,"internalType":"uint256"}],"anonymous":false},{"type":"event","name":"OwnershipTransferred","inputs":[{"name":"previousOwner","type":"address","indexed":true,"internalType":"address"},{"name":"newOwner","type":"address","indexed":true,"internalType":"address"}],"anonymous":false},{"type":"event","name":"Paused","inputs":[{"name":"account","type":"address","indexed":false,"internalType":"address"}],"anonymous":false},{"type":"event","name":"Redemption","inputs":[{"name":"nonce","type":"uint256","indexed":true,"internalType":"uint256"},{"name":"user","type":"address","indexed":true,"internalType":"address"},{"name":"outputToken","type":"address","indexed":false,"internalType":"address"},{"name":"inputAmount","type":"uint256","indexed":false,"internalType":"uint256"},{"name":"outputAmount","type":"uint256","indexed":false,"internalType":"uint256"},{"name":"time","type":"uint256","indexed":false,"internalType":"uint256"}],"anonymous":false},{"type":"event","name":"RequestIssuance","inputs":[{"name":"nonce","type":"uint256","indexed":true,"internalType":"uint256"},{"name":"user","type":"address","indexed":true,"internalType":"address"},{"name":"inputToken","type":"address","indexed":false,"internalType":"address"},{"name":"inputAmount","type":"uint256","indexed":false,"internalType":"uint256"},{"name":"outputAmount","type":"uint256","indexed":false,"internalType":"uint256"},{"name":"time","type":"uint256","indexed":false,"internalType":"uint256"}],"anonymous":false},{"type":"event","name":"RequestRedemption","inputs":[{"name":"nonce","type":"uint256","indexed":true,"internalType":"uint256"},{"name":"user","type":"address","indexed":true,"internalType":"address"},{"name":"outputToken","type":"address","indexed":false,"internalType":"address"},{"name":"inputAmount","type":"uint256","indexed":false,"internalType":"uint256"},{"name":"outputAmount","type":"uint256","indexed":false,"internalType":"uint256"},{"name":"time","type":"uint256","indexed":false,"internalType":"uint256"}],"anonymous":false},{"type":"event","name":"Unpaused","inputs":[{"name":"account","type":"address","indexed":false,"internalType":"address"}],"anonymous":false},{"type":"error","name":"EnforcedPause","inputs":[]},{"type":"error","name":"ExpectedPause","inputs":[]},{"type":"error","name":"InvalidInitialization","inputs":[]},{"type":"error","name":"NotInitializing","inputs":[]},{"type":"error","name":"OwnableInvalidOwner","inputs":[{"name":"owner","type":"address","internalType":"address"}]},{"type":"error","name":"OwnableUnauthorizedAccount","inputs":[{"name":"account","type":"address","internalType":"address"}]},{"type":"error","name":"PRBMath_MulDiv_Overflow","inputs":[{"name":"x","type":"uint256","internalType":"uint256"},{"name":"y","type":"uint256","internalType":"uint256"},{"name":"denominator","type":"uint256","internalType":"uint256"}]},{"type":"error","name":"PRBMath_MulDiv_Overflow","inputs":[{"name":"x","type":"uint256","internalType":"uint256"},{"name":"y","type":"uint256","internalType":"uint256"},{"name":"denominator","type":"uint256","internalType":"uint256"}]}],"bytecode":{"object":"0x6080604052348015600f57600080fd5b50617add8061001f6000396000f3fe608060405234801561001057600080fd5b506004361061063e5760003560e01c80638c22189911610336578063b316e7fd116101c3578063daf1c17d1161010f578063efdf5053116100ad578063f2fde38b11610087578063f2fde38b146110df578063f513a718146110f2578063fbfa77cf1461111d578063fc0c546a1461113057600080fd5b8063efdf505314611099578063f14bea20146110ac578063f1f31d66146110bf57600080fd5b8063e19eefbe116100e9578063e19eefbe14611057578063e2851bd61461106a578063eab2a7111461107d578063edca4f5e1461109057600080fd5b8063daf1c17d14610ff9578063db5c1a1214611019578063e16e554a1461104457600080fd5b8063bed45bef1161017c578063c8f33c9111610156578063c8f33c9114610f92578063cf9ee31914610f9b578063d57e049314610fbb578063da65925a14610fce57600080fd5b8063bed45bef14610f63578063c8599ded14610f76578063c8da330314610f7f57600080fd5b8063b316e7fd14610ebe578063b411dc4114610ee9578063b46840f914610efc578063b592662a14610f1f578063b75f4c2c14610f32578063bb0498de14610f5b57600080fd5b80639dbb9c9e11610282578063a87f98d21161023b578063ab935bb211610215578063ab935bb214610e58578063addc70d114610e78578063b0e1213414610e8b578063b1dd819e14610e9e57600080fd5b8063a87f98d214610e0f578063a8b54bd414610e2f578063ab7820b214610e3857600080fd5b80639dbb9c9e14610d7f5780639e76d0cb14610d88578063a08d7bd614610d9b578063a363b9cb14610dae578063a73e1cbf14610dd9578063a84ebc1714610dec57600080fd5b80639219e510116102ef578063978bbdb9116102c9578063978bbdb914610d0f5780639932ba4c14610d235780639cc0fb5b14610d4c5780639cf5452114610d5f57600080fd5b80639219e51014610cc057806392318df414610cd35780639467409814610ce657600080fd5b80638c22189914610bf25780638c88c10c14610c1d5780638d6983c714610c3d5780638da5cb5b14610c5d5780639026544f14610c8d578063914f0cc614610ca057600080fd5b806342faac05116104cf5780636839a0951161041b5780637bfa27f2116103b9578063840ecba011610393578063840ecba014610bae5780638456cb5914610bc157806384d77bb114610bc95780638861d23514610bd257600080fd5b80637bfa27f214610b705780637ca58c5514610b93578063807ca23714610b9b57600080fd5b806375a3cb57116103f557806375a3cb5714610ad357806376529fdf14610afe5780637803265814610b215780637bf4216514610b4a57600080fd5b80636839a09514610aa5578063715018a614610ab857806373b774ed14610ac057600080fd5b806353fd43321161048857806357b61bc31161046257806357b61bc314610a545780635c975abb14610a67578063631c838514610a7f578063643ee27f14610a9257600080fd5b806353fd433214610a25578063558f1aa814610a2e57806355cc4e5714610a4157600080fd5b806342faac05146109ac57806343482fc8146109b957806346d66a2c146109cc5780634a1dc092146109df5780634b3e0b80146109f25780635177942a14610a1257600080fd5b8063239aad0d1161058e5780632ca49334116105475780633c1f70ca116105215780633c1f70ca146109425780633e413bee1461097e5780633f4ba83a146109915780633fac09221461099957600080fd5b80632ca49334146108f157806331c990101461091157806332f53f3c1461093a57600080fd5b8063239aad0d14610842578063248b761e1461086b578063263e0d511461087e578063264fa8b91461089357806326a4e8d2146108be5780632badae5d146108d157600080fd5b80630be52713116105fb57806315e666a2116105d557806315e666a2146107715780631d143848146108095780631e106e991461081c5780632343acb41461082f57600080fd5b80630be52713146107285780630c02e130146107485780630e3293571461075157600080fd5b8063011ced5f1461064357806302e80f711461065f57806306995e3b1461068857806308dc4b0c1461069b578063092755e0146106dc5780630b1a491814610705575b600080fd5b61064c603c5481565b6040519081526020015b60405180910390f35b61064c61066d366004616a1e565b60208080526000928352604080842090915290825290205481565b61064c610696366004616a4a565b611143565b6106c46106a9366004616a63565b6034602052600090815260409020546001600160a01b031681565b6040516001600160a01b039091168152602001610656565b6106c46106ea366004616a63565b600f602052600090815260409020546001600160a01b031681565b610718610713366004616a4a565b6111e3565b6040519015158152602001610656565b61064c610736366004616a63565b60126020526000908152604090205481565b61064c60095481565b61076461075f366004616b33565b6112c4565b6040516106569190616be6565b6107f361077f366004616a4a565b60336020526000908152604090208054600182015460028301546003840154600485015460058601546006909601546001600160401b038616966001600160a01b03600160401b9097048716969586169585169460ff600160a01b8204811695600160a81b9092048116949193919291168a565b6040516106569a99989796959493929190616c33565b601a546106c4906001600160a01b031681565b6019546106c4906001600160a01b031681565b61071861083d366004616a4a565b6112f1565b6106c4610850366004616a4a565b600d602052600090815260409020546001600160a01b031681565b61064c610879366004616a4a565b6113e7565b61089161088c366004616a4a565b611867565b005b61064c6108a1366004616a1e565b602260209081526000928352604080842090915290825290205481565b6107186108cc366004616a63565b611a53565b61064c6108df366004616a4a565b60356020526000908152604090205481565b61064c6108ff366004616a4a565b60386020526000908152604090205481565b6106c461091f366004616a4a565b602f602052600090815260409020546001600160a01b031681565b61064c611acf565b610969610950366004616a4a565b603b602052600090815260409020805460019091015482565b60408051928352602083019190915201610656565b601b546106c4906001600160a01b031681565b610891611d3f565b6107186109a7366004616a4a565b611d51565b601f546107189060ff1681565b6108916109c7366004616ca8565b611e2e565b6108916109da366004616a4a565b611e45565b61064c6109ed366004616a4a565b612375565b61064c610a00366004616a63565b60136020526000908152604090205481565b610891610a20366004616ce1565b61284c565b61064c600c5481565b610718610a3c366004616a4a565b612996565b610718610a4f366004616a63565b612aa4565b610891610a62366004616d97565b612b22565b600080516020617a888339815191525460ff16610718565b610718610a8d366004616a4a565b612bf8565b610891610aa0366004616a4a565b612eaa565b61064c610ab3366004616a63565b6131a7565b61089161332d565b610891610ace366004616a4a565b61333f565b61064c610ae1366004616a1e565b602460209081526000928352604080842090915290825290205481565b610718610b0c366004616a4a565b60156020526000908152604090205460ff1681565b6106c4610b2f366004616a4a565b602e602052600090815260409020546001600160a01b031681565b601b54610b5e90600160a01b900460ff1681565b60405160ff9091168152602001610656565b610718610b7e366004616a4a565b60316020526000908152604090205460ff1681565b61064c6133ef565b610891610ba9366004616a4a565b61362f565b610891610bbc366004616a4a565b6137ca565b6108916139f6565b61064c601d5481565b61064c610be0366004616a4a565b60256020526000908152604090205481565b61064c610c00366004616a1e565b602160209081526000928352604080842090915290825290205481565b61064c610c2b366004616a63565b60106020526000908152604090205481565b61064c610c4b366004616a4a565b60286020526000908152604090205481565b7f9016d09d72d40fdae2fd8ceac6b6234c7706214fd39c1cd1e609a0528c199300546001600160a01b03166106c4565b610891610c9b366004616a4a565b613a06565b61064c610cae366004616a63565b60116020526000908152604090205481565b610891610cce366004616a4a565b613cbf565b610718610ce1366004616a4a565b6140a7565b6106c4610cf4366004616a4a565b602d602052600090815260409020546001600160a01b031681565b601b54610b5e90600160a81b900460ff1681565b6106c4610d31366004616a4a565b600e602052600090815260409020546001600160a01b031681565b610718610d5a366004616a63565b6141ab565b61064c610d6d366004616a4a565b603a6020526000908152604090205481565b61064c601c5481565b61064c610d96366004616a4a565b614230565b61064c610da9366004616a63565b6142c8565b61064c610dbc366004616a1e565b602a60209081526000928352604080842090915290825290205481565b610891610de7366004616b33565b6143c3565b610718610dfa366004616a4a565b60146020526000908152604090205460ff1681565b61064c610e1d366004616a4a565b60266020526000908152604090205481565b61064c60085481565b61064c610e46366004616a4a565b60166020526000908152604090205481565b61064c610e66366004616a4a565b60276020526000908152604090205481565b610891610e86366004616e4f565b6143e4565b610718610e99366004616a4a565b6143f6565b61064c610eac366004616a4a565b602b6020526000908152604090205481565b61064c610ecc366004616a1e565b603660209081526000928352604080842090915290825290205481565b610891610ef7366004616d97565b6144ce565b610718610f0a366004616a4a565b60326020526000908152604090205460ff1681565b610718610f2d366004616a4a565b61459f565b6106c4610f40366004616a4a565b6030602052600090815260409020546001600160a01b031681565b61064c614853565b610891610f71366004616a4a565b61489b565b61064c600b5481565b61064c610f8d366004616a4a565b614e81565b61064c600a5481565b61064c610fa9366004616a4a565b60396020526000908152604090205481565b610891610fc9366004616eb6565b614f20565b61064c610fdc366004616a1e565b602960209081526000928352604080842090915290825290205481565b61064c611007366004616a4a565b602c6020526000908152604090205481565b61064c611027366004616a1e565b603760209081526000928352604080842090915290825290205481565b610718611052366004616a4a565b6151ae565b61064c611065366004616a4a565b615263565b61064c611078366004616a4a565b61537a565b61071861108b366004616f5d565b61540f565b61064c601e5481565b61064c6110a7366004616a63565b615498565b6108916110ba366004616f94565b6154d0565b6110d26110cd366004616a4a565b615596565b6040516106569190617000565b6108916110ed366004616a63565b61569c565b61064c611100366004616a1e565b602360209081526000928352604080842090915290825290205481565b6018546106c4906001600160a01b031681565b6017546106c4906001600160a01b031681565b601a54601b546040516308da5c3560e21b81526000600482018190526001600160a01b039283166024830152928392839291169063236970d4906044016040805180830381865afa15801561119c573d6000803e3d6000fd5b505050506040513d601f19601f820116820180604052508101906111c091906170c5565b9150915060006111d082866156d7565b6111da9084617108565b95945050505050565b6000805b600c548110156112bb576000818152600e6020908152604080832054868452602383528184206001600160a01b0391821680865293529281902054601a5491516322fd455760e11b81526004810182905292939092600192909116906345fa8aae90602401602060405180830381865afa158015611269573d6000803e3d6000fd5b505050506040513d601f19601f8201168201806040525081019061128d919061711b565b600381111561129e5761129e616bf9565b60ff16036112b157506001949350505050565b50506001016111e7565b50600092915050565b606082826040516020016112d992919061713c565b60405160208183030381529060405290505b92915050565b60008060005b600c548110156113ce576000818152600e6020908152604080832054878452602283528184206001600160a01b0391821680865293529281902054601a5491516322fd455760e11b81526004810182905292939092600292909116906345fa8aae90602401602060405180830381865afa158015611379573d6000803e3d6000fd5b505050506040513d601f19601f8201168201806040525081019061139d919061711b565b60038111156113ae576113ae616bf9565b60ff16036113c4576113c1600185617108565b93505b50506001016112f7565b50600c5481036112bb5750600192915050565b50919050565b6000806113f383615263565b905060006114018483617108565b601b546040516323b872dd60e01b81529192506001600160a01b0316906323b872dd906114369033903090869060040161716b565b6020604051808303816000875af1158015611455573d6000803e3d6000fd5b505050506040513d601f19601f82011682018060405250810190611479919061718f565b50601b54601a5460405163095ea7b360e01b81526001600160a01b0391821660048201526024810184905291169063095ea7b3906044016020604051808303816000875af11580156114cf573d6000803e3d6000fd5b505050506040513d601f19601f820116820180604052508101906114f3919061718f565b506001601c60008282546115079190617108565b9250508190555060003060405161151d9061695c565b6001600160a01b039091168152602001604051809103906000f080158015611549573d6000803e3d6000fd5b50601c80546000908152602f6020908152604080832080546001600160a01b0319166001600160a01b03871617905592548252603990529081208790559091505b600c5481101561180a576000818152600e60209081526040808320546001600160a01b0316808452601290925282205490919068056bc75e2d63100000906115d2908a6171ac565b6115dc91906171d9565b905060006115eb838387615700565b6040805180820182526001808252601c805460208085019182526000878152603b825286812095518655915194909301939093556025825283832087905580548352602282528383206001600160a01b0389811680865291845285852087905591548452602d835284842080546001600160a01b031916331790558352600f9091528282205460185493516370a0823160e01b81529382166004850152939450909216906370a0823190602401602060405180830381865afa1580156116b5573d6000803e3d6000fd5b505050506040513d601f19601f820116820180604052508101906116d991906171ed565b6001600160a01b038581166000908152600f602052604080822054905163266d6a8360e11b8152600481018590529394509092911690634cdad50690602401602060405180830381865afa158015611735573d6000803e3d6000fd5b505050506040513d601f19601f8201168201806040525081019061175991906171ed565b601c5460009081526029602090815260408083206001600160a01b03808b1685529083529281902084905560175481516318160ddd60e01b81529151949550909216926318160ddd9260048082019392918290030181865afa1580156117c3573d6000803e3d6000fd5b505050506040513d601f19601f820116820180604052508101906117e791906171ed565b601c546000908152602b602052604090205550506001909301925061158a915050565b50601c54601b546040513392917fb564a60b4184bee9ffdc1c0fd0588a93c23e406438195eec9857050fece55c2091611853916001600160a01b0316908a906000904290617206565b60405180910390a35050601c549392505050565b61186f6158c8565b61187881612996565b61189d5760405162461bcd60e51b81526004016118949061722c565b60405180910390fd5b60005b600c54811015611a47576000818152600e60205260408082205490516370a0823160e01b81523060048201526001600160a01b03909116919082906370a0823190602401602060405180830381865afa158015611901573d6000803e3d6000fd5b505050506040513d601f19601f8201168201806040525081019061192591906171ed565b90508015611a3d576001600160a01b038281166000818152600f60205260409081902054905163095ea7b360e01b815292166004830152602482018390529063095ea7b3906044016020604051808303816000875af115801561198c573d6000803e3d6000fd5b505050506040513d601f19601f820116820180604052508101906119b0919061718f565b506001600160a01b038281166000908152600f602052604090819020546018549151636e553f6560e01b815260048101859052918316602483015290911690636e553f65906044016020604051808303816000875af1158015611a17573d6000803e3d6000fd5b505050506040513d601f19601f82011682018060405250810190611a3b91906171ed565b505b50506001016118a0565b50611a50615923565b50565b6000611a5d6158c8565b6001600160a01b038216611aab5760405162461bcd60e51b8152602060048201526015602482015274696e76616c696420746f6b656e206164647265737360581b6044820152606401611894565b50601780546001600160a01b0319166001600160a01b03831617905560015b919050565b6000611ad96158c8565b6001601e6000828254611aec9190617108565b9091555060009050805b600c54811015611b62576000818152600e60205260408120546001600160a01b031690611b2282615498565b601e5460009081526036602090815260408083206001600160a01b038716845290915290208190559050611b568185617108565b93505050600101611af6565b50601e5460009081526035602052604081208290555b600c54811015611d35576000818152600e6020908152604080832054601e548452603683528184206001600160a01b0390911680855292528220549091611bbe836142c8565b9050600085611bd68468056bc75e2d631000006171ac565b611be091906171d9565b6001600160a01b038516600090815260136020526040902054909150811115611cb1576001600160a01b0384166000908152601360205260408120548290611c2890856171ac565b611c3291906171d9565b611c3c908461726e565b90506000611c4b86833061598f565b60408051808201825260058152601e805460208084019182526000868152603b825285812094518555915160019094019390935590548152602482528281206001600160a01b038b16825282528281208490559283526028905290209190915550611d25565b6001600160a01b038416600090815260136020526040812054611cd590839061726e565b601e805460009081526037602090815260408083206001600160a01b038b1684528252808320859055925482526038905290812080549293508392909190611d1e908490617108565b9091555050505b505060019092019150611b789050565b50601e5491505090565b611d476158c8565b611d4f615cc3565b565b60008060005b600c548110156113ce576000818152600e6020908152604080832054878452602383528184206001600160a01b0391821680865293529281902054601a5491516322fd455760e11b81526004810182905292939092600292909116906345fa8aae90602401602060405180830381865afa158015611dd9573d6000803e3d6000fd5b505050506040513d601f19601f82011682018060405250810190611dfd919061711b565b6003811115611e0e57611e0e616bf9565b60ff1603611e2457611e21600185617108565b93505b5050600101611d57565b611e366158c8565b611e3f82615d23565b60085550565b60008181526014602052604090205460ff1615611e9c5760405162461bcd60e51b8152602060048201526015602482015274125cdcdd585b98d9481a5cc818dbdb5c1b195d1959605a1b6044820152606401611894565b6000818152602d6020908152604080832054602f909252909120546001600160a01b039182169116338214611f225760405162461bcd60e51b815260206004820152602660248201527f4f6e6c79207265717565737465722063616e2063616e63656c207468652069736044820152657375616e636560d01b6064820152608401611894565b60005b600c5481101561236f576000818152600e6020908152604080832054878452602283528184206001600160a01b03918216808652908452828520548086526033855283862084516101408101865281546001600160401b0381168252600160401b90048516968101969096526001818101548516958701959095526002810154938416606087015260ff600160a01b85048116151560808801529296919591949193909260a0850192600160a81b9092041690811115611fe757611fe7616bf9565b6001811115611ff857611ff8616bf9565b815260038281015460208301526004830154604083015260058301546060830152600683015460809092019160ff169081111561203757612037616bf9565b600381111561204857612048616bf9565b905250601a546040516322fd455760e11b8152600481018590529192506001916001600160a01b03909116906345fa8aae90602401602060405180830381865afa15801561209a573d6000803e3d6000fd5b505050506040513d601f19601f820116820180604052508101906120be919061711b565b60038111156120cf576120cf616bf9565b60ff160361213a57601a546040516339a0e8b560e21b8152600481018490526001600160a01b039091169063e683a2d490602401600060405180830381600087803b15801561211d57600080fd5b505af1158015612131573d6000803e3d6000fd5b50505050612364565b601a546040516322fd455760e11b8152600481018490526002916001600160a01b0316906345fa8aae90602401602060405180830381865afa158015612184573d6000803e3d6000fd5b505050506040513d601f19601f820116820180604052508101906121a8919061711b565b60038111156121b9576121b9616bf9565b60ff16148061223357506040516370a0823160e01b81526001600160a01b038681166004830152600091908516906370a0823190602401602060405180830381865afa15801561220d573d6000803e3d6000fd5b505050506040513d601f19601f8201168201806040525081019061223191906171ed565b115b15612364576040516370a0823160e01b81526001600160a01b038681166004830152600091908516906370a0823190602401602060405180830381865afa158015612282573d6000803e3d6000fd5b505050506040513d601f19601f820116820180604052508101906122a691906171ed565b6040516317ee7de960e11b81529091506001600160a01b03871690632fdcfbd2906122d99087903090869060040161716b565b600060405180830381600087803b1580156122f357600080fd5b505af1158015612307573d6000803e3d6000fd5b50505050600061231885838961598f565b6040805180820182526003815260208082018d81526000858152603b83528481209351845590516001909301929092558c82528080528282206001600160a01b038a1683529052205550505b505050600101611f25565b50505050565b60006001601d600082825461238a9190617108565b925050819055506000306040516123a09061695c565b6001600160a01b039091168152602001604051809103906000f0801580156123cc573d6000803e3d6000fd5b50601d8054600090815260306020908152604080832080546001600160a01b0319166001600160a01b038781169190911790915593548352603a825280832088905560175481516318160ddd60e01b81529151959650929492909316926318160ddd92600480830193928290030181865afa15801561244f573d6000803e3d6000fd5b505050506040513d601f19601f8201168201806040525081019061247391906171ed565b61248585670de0b6b3a76400006171ac565b61248f91906171d9565b601754604051632770a7eb60e21b8152336004820152602481018790529192506001600160a01b031690639dc29fac90604401600060405180830381600087803b1580156124dc57600080fd5b505af11580156124f0573d6000803e3d6000fd5b5050601d5460009081526016602052604081208790559150505b600c548110156127f0576000818152600e60209081526040808320546001600160a01b03908116808552600f9093528184205460185492516370a0823160e01b81529282166004840152929392670de0b6b3a7640000929116906370a0823190602401602060405180830381865afa15801561258a573d6000803e3d6000fd5b505050506040513d601f19601f820116820180604052508101906125ae91906171ed565b6125b890866171ac565b6125c291906171d9565b905060006125d183838861598f565b60408051808201825260028152601d805460208084019182526000868152603b82528581209451855591516001909401939093556026835283812087905581548152602383528381206001600160a01b0389811680845291855285832087905592548252602e845284822080546001600160a01b031916331790558152600f9092528282205460185493516370a0823160e01b81529382166004850152939450909216906370a0823190602401602060405180830381865afa15801561269b573d6000803e3d6000fd5b505050506040513d601f19601f820116820180604052508101906126bf91906171ed565b6001600160a01b038581166000908152600f602052604080822054905163266d6a8360e11b8152600481018590529394509092911690634cdad50690602401602060405180830381865afa15801561271b573d6000803e3d6000fd5b505050506040513d601f19601f8201168201806040525081019061273f91906171ed565b601d546000908152602a602090815260408083206001600160a01b03808b1685529083529281902084905560175481516318160ddd60e01b81529151949550909216926318160ddd9260048082019392918290030181865afa1580156127a9573d6000803e3d6000fd5b505050506040513d601f19601f820116820180604052508101906127cd91906171ed565b601d546000908152602c602052604090205550506001909301925061250a915050565b50601d54601b546040513392917f318a1eb196638838739aab2348b851e63485b8c41dacc90eaff499a0f14ce53391612839916001600160a01b03169089906000904290617206565b60405180910390a35050601d5492915050565b6128546158c8565b6000603c5442612864919061726e565b9050600c603c61287481846171d9565b61287e91906171d9565b116128f15760405162461bcd60e51b815260206004820152603960248201527f596f752073686f756c642077616974206174206c6561737420313220686f757260448201527f7320616674657220746865206c617465737420757064617465000000000000006064820152608401611894565b60648260ff1611158015612909575060018260ff1610155b6129715760405162461bcd60e51b815260206004820152603360248201527f546865206e65774665652073686f756c64206265206265747765656e203120616044820152726e64203130302028302e303125202d2031252960681b6064820152608401611894565b50601b805460ff909216600160a81b0260ff60a81b1990921691909117905542603c55565b60008060005b600c54811015612a9a576000818152600e6020908152604080832054878452602483528184206001600160a01b0390911680855290835281842054808552602790935292205481158015906129f15750600081115b8015612a7d5750601a546040516322fd455760e11b8152600481018490526002916001600160a01b0316906345fa8aae90602401602060405180830381865afa158015612a42573d6000803e3d6000fd5b505050506040513d601f19601f82011682018060405250810190612a66919061711b565b6003811115612a7757612a77616bf9565b60ff1614155b15612a8f575060009695505050505050565b50505060010161299c565b5060019392505050565b6000612aae6158c8565b6001600160a01b038216612afd5760405162461bcd60e51b8152602060048201526016602482015275696e76616c696420697373756572206164647265737360501b6044820152606401611894565b50601a80546001600160a01b0383166001600160a01b03199091161790556001919050565b612b2a6158c8565b8051825114612b735760405162461bcd60e51b8152602060048201526015602482015274082e4e4c2f240d8cadccee8d040dad2e6dac2e8c6d605b1b6044820152606401611894565b60005b8251811015612bf357818181518110612b9157612b91617281565b602002602001015160346000858481518110612baf57612baf617281565b6020908102919091018101516001600160a01b0390811683529082019290925260400160002080546001600160a01b03191692909116919091179055600101612b76565b505050565b60008060005b600c548110156113ce576000818152600e6020908152604080832054878452602283528184206001600160a01b0391821680865290845282852054898652602f9094528285205492516370a0823160e01b815292909116600483018190529093909184906370a0823190602401602060405180830381865afa158015612c88573d6000803e3d6000fd5b505050506040513d601f19601f82011682018060405250810190612cac91906171ed565b601a546040516322fd455760e11b8152600481018690529192506003916001600160a01b03909116906345fa8aae90602401602060405180830381865afa158015612cfb573d6000803e3d6000fd5b505050506040513d601f19601f82011682018060405250810190612d1f919061711b565b6003811115612d3057612d30616bf9565b60ff16148015612d3e575080155b15612d5557612d4e600187617108565b9550612e9a565b601a546040516322fd455760e11b8152600481018590526002916001600160a01b0316906345fa8aae90602401602060405180830381865afa158015612d9f573d6000803e3d6000fd5b505050506040513d601f19601f82011682018060405250810190612dc3919061711b565b6003811115612dd457612dd4616bf9565b60ff16148015612de2575080155b15612e9a576000888152602080805260408083206001600160a01b03888116855292529182902054601a5492516322fd455760e11b815260048101829052909260029216906345fa8aae90602401602060405180830381865afa158015612e4d573d6000803e3d6000fd5b505050506040513d601f19601f82011682018060405250810190612e71919061711b565b6003811115612e8257612e82616bf9565b60ff1603612e9857612e95600188617108565b96505b505b505060019092019150612bfe9050565b612eb26158c8565b612ebd601e546140a7565b612ed95760405162461bcd60e51b81526004016118949061722c565b600081815260356020908152604080832054603890925280832054601b5491516370a0823160e01b81523060048201529293909290916001600160a01b0316906370a0823190602401602060405180830381865afa158015612f3f573d6000803e3d6000fd5b505050506040513d601f19601f82011682018060405250810190612f6391906171ed565b905060005b600c548110156131a0576000818152600e6020908152604080832054888452603783528184206001600160a01b03909116808552925290912054801561319657600085612fb586846171ac565b612fbf91906171d9565b601a54601b546040516308da5c3560e21b81526000600482018190526001600160a01b0392831660248301529394508392919091169063236970d4906044016040805180830381865afa15801561301a573d6000803e3d6000fd5b505050506040513d601f19601f8201168201806040525081019061303e91906170c5565b9150915060008261304f8386615d45565b613059919061726e565b9050600061306783836156d7565b6130719085617108565b601b54601a5460405163095ea7b360e01b81526001600160a01b03918216600482015260248101899052929350169063095ea7b3906044016020604051808303816000875af11580156130c8573d6000803e3d6000fd5b505050506040513d601f19601f820116820180604052508101906130ec919061718f565b5060006130fa888430615700565b90506040518060400160405280600681526020018e815250603b6000838152602001908152602001600020600082015181600001556020820151816001015590505080602460008f815260200190815260200160002060008a6001600160a01b03166001600160a01b03168152602001908152602001600020819055508260276000838152602001908152602001600020819055505050505050505b5050600101612f68565b5050505050565b601f5460009060ff16156132a9576001600160a01b03808316600090815260346020526040808220548151633fabe5a360e21b81529151931692839163feaf968c9160048083019260a09291908290030181865afa15801561320d573d6000803e3d6000fd5b505050506040513d601f19601f8201168201806040525081019061323191906172b1565b5050509150506000826001600160a01b031663313ce5676040518163ffffffff1660e01b8152600401602060405180830381865afa158015613277573d6000803e3d6000fd5b505050506040513d601f19601f8201168201806040525081019061329b9190617301565b90506111da82826012615d77565b601a54601b5460405163a377cfbf60e01b81526001600160a01b0385811660048301529182166024820152600092919091169063a377cfbf906044016040805180830381865afa158015613301573d6000803e3d6000fd5b505050506040513d601f19601f82011682018060405250810190613325919061731e565b519392505050565b6133356158c8565b611d4f6000615db7565b6000818152603b60209081526040918290208251808401909352805480845260019182015492840192909252036133815761337d816020015161489b565b5050565b80516002036133975761337d81602001516137ca565b80516003036133ad5761337d816020015161362f565b80516004036133c35761337d8160200151613a06565b80516005036133d95761337d8160200151612eaa565b805160060361337d5761337d8160200151611867565b600080613510600680546134029061737d565b80601f016020809104026020016040519081016040528092919081815260200182805461342e9061737d565b801561347b5780601f106134505761010080835404028352916020019161347b565b820191906000526020600020905b81548152906001019060200180831161345e57829003601f168201915b50505050506007805461348d9061737d565b80601f01602080910402602001604051908101604052809291908181526020018280546134b99061737d565b80156135065780601f106134db57610100808354040283529160200191613506565b820191906000526020600020905b8154815290600101906020018083116134e957829003601f168201915b50505050506112c4565b905060006135286008543063f14bea2060e01b615e28565b60408051808201909152600381526219d95d60ea1b602082015290915061355190829084615e44565b6135ac60405180604001604052806005815260200164706174683160d81b81525060405180604001604052806011815260200170726573756c74732c61646472657373657360781b81525083615e449092919063ffffffff16565b61360a604051806040016040528060058152602001643830ba341960d91b81525060405180604001604052806014815260200173726573756c74732c6d61726b657453686172657360601b81525083615e449092919063ffffffff16565b61362861361f6003546001600160a01b031690565b82600954615e62565b9250505090565b61363881612bf8565b6136845760405162461bcd60e51b815260206004820181905260248201527f43616e63656c2069737375616e6365206973206e6f7420636f6d706c657465646044820152606401611894565b60008181526031602052604090205460ff16156136b35760405162461bcd60e51b8152600401611894906173b1565b6000818152602d6020908152604080832054602f90925280832054601b5491516370a0823160e01b81526001600160a01b0391821660048201819052938216949291909116906370a0823190602401602060405180830381865afa15801561371f573d6000803e3d6000fd5b505050506040513d601f19601f8201168201806040525081019061374391906171ed565b601b546040516317ee7de960e11b81529192506001600160a01b0380851692632fdcfbd29261377a9216908790869060040161716b565b600060405180830381600087803b15801561379457600080fd5b505af11580156137a8573d6000803e3d6000fd5b505050600094855250506031602052505060409020805460ff19166001179055565b6137d381611d51565b61382b5760405162461bcd60e51b815260206004820152602360248201527f526564656d7074696f6e206f726465727320617265206e6f7420636f6d706c656044820152621d195960ea1b6064820152608401611894565b60008181526015602052604090205460ff16156138845760405162461bcd60e51b8152602060048201526017602482015276149959195b5c1d1a5bdb881a5cc818dbdb5c1b195d1959604a1b6044820152606401611894565b6000818152602e6020908152604080832054603090925280832054601b5491516370a0823160e01b81526001600160a01b0391821660048201819052938216949291909116906370a0823190602401602060405180830381865afa1580156138f0573d6000803e3d6000fd5b505050506040513d601f19601f8201168201806040525081019061391491906171ed565b601b546040516317ee7de960e11b81529192506001600160a01b0380851692632fdcfbd29261394b9216908790869060040161716b565b600060405180830381600087803b15801561396557600080fd5b505af1158015613979573d6000803e3d6000fd5b5050506000858152601560209081526040808320805460ff19166001179055601b54603a909252918290205491516001600160a01b03808816945088937f1c5f6e901258d71ab0ecaa2fcf93176caa78dac41e03fe5dd7a0184727336d8a936139e89392169187904290617206565b60405180910390a350505050565b6139fe6158c8565b611d4f615ef5565b613a0f8161459f565b613a665760405162461bcd60e51b815260206004820152602260248201527f43616e63656c20726564656d7074696f6e206973206e6f7420636f6d706c6574604482015261195960f21b6064820152608401611894565b60008181526032602052604090205460ff1615613a955760405162461bcd60e51b8152600401611894906173b1565b6000818152602e6020908152604080832054603090925280832054601b5491516370a0823160e01b81526001600160a01b0391821660048201819052938216949291909116906370a0823190602401602060405180830381865afa158015613b01573d6000803e3d6000fd5b505050506040513d601f19601f82011682018060405250810190613b2591906171ed565b905060005b600c54811015613c2a576000818152600e60205260408082205490516370a0823160e01b81526001600160a01b038681166004830152909116919082906370a0823190602401602060405180830381865afa158015613b8d573d6000803e3d6000fd5b505050506040513d601f19601f82011682018060405250810190613bb191906171ed565b90508015613c20576018546040516317ee7de960e11b81526001600160a01b0380881692632fdcfbd292613bed9287921690869060040161716b565b600060405180830381600087803b158015613c0757600080fd5b505af1158015613c1b573d6000803e3d6000fd5b505050505b5050600101613b2a565b50601754600085815260166020526040908190205490516340c10f1960e01b81526001600160a01b03868116600483015260248201929092529116906340c10f1990604401600060405180830381600087803b158015613c8957600080fd5b505af1158015613c9d573d6000803e3d6000fd5b505050600094855250506032602052505060409020805460ff19166001179055565b60008181526015602052604090205460ff1615613d185760405162461bcd60e51b8152602060048201526017602482015276149959195b5c1d1a5bdb881a5cc818dbdb5c1b195d1959604a1b6044820152606401611894565b6000818152602e60209081526040808320546030909252909120546001600160a01b039182169116338214613da05760405162461bcd60e51b815260206004820152602860248201527f4f6e6c79207265717565737465722063616e2063616e63656c207468652072656044820152673232b6b83a34b7b760c11b6064820152608401611894565b60005b600c5481101561236f576000818152600e6020908152604080832054878452602383528184206001600160a01b03918216808652908452828520548086526033855283862084516101408101865281546001600160401b0381168252600160401b90048516968101969096526001818101548516958701959095526002810154938416606087015260ff600160a01b85048116151560808801529296919591949193909260a0850192600160a81b9092041690811115613e6557613e65616bf9565b6001811115613e7657613e76616bf9565b815260038281015460208301526004830154604083015260058301546060830152600683015460809092019160ff1690811115613eb557613eb5616bf9565b6003811115613ec657613ec6616bf9565b905250601a5460405163187b2ed160e21b8152600481018590529192506000916001600160a01b03909116906361ecbb4490602401602060405180830381865afa158015613f18573d6000803e3d6000fd5b505050506040513d601f19601f82011682018060405250810190613f3c91906171ed565b601a546040516322fd455760e11b8152600481018690529192506002916001600160a01b03909116906345fa8aae90602401602060405180830381865afa158015613f8b573d6000803e3d6000fd5b505050506040513d601f19601f82011682018060405250810190613faf919061711b565b6003811115613fc057613fc0616bf9565b60ff161480613fcf5750600081115b1561409757601b546040516317ee7de960e11b81526001600160a01b0388811692632fdcfbd29261400a92909116903090869060040161716b565b600060405180830381600087803b15801561402457600080fd5b505af1158015614038573d6000803e3d6000fd5b505050506000614049858389615700565b6040805180820182526004815260208082018d81526000948552603b825283852092518355516001909201919091558b8352602181528183206001600160a01b038916845290529020849055505b505060019092019150613da39050565b60008060005b600c54811015612a9a576000818152600e6020908152604080832054878452602483528184206001600160a01b0390911680855290835281842054808552602890935292205481158015906141025750600081115b801561418e5750601a546040516322fd455760e11b8152600481018490526002916001600160a01b0316906345fa8aae90602401602060405180830381865afa158015614153573d6000803e3d6000fd5b505050506040513d601f19601f82011682018060405250810190614177919061711b565b600381111561418857614188616bf9565b60ff1614155b156141a0575060009695505050505050565b5050506001016140ad565b60006141b56158c8565b6001600160a01b03821661420b5760405162461bcd60e51b815260206004820181905260248201527f696e76616c696420637573746f6469616e2077616c6c657420616464726573736044820152606401611894565b50601980546001600160a01b0383166001600160a01b03199091161790556001919050565b601a54601b546040516308da5c3560e21b81526000600482018190526001600160a01b039283166024830152928392839291169063236970d4906044016040805180830381865afa158015614289573d6000803e3d6000fd5b505050506040513d601f19601f820116820180604052508101906142ad91906170c5565b915091506000826142be8387615d45565b6111da919061726e565b6001600160a01b038181166000908152600f60205260408082205460185491516370a0823160e01b8152918416600483015291929190911690829082906370a0823190602401602060405180830381865afa15801561432b573d6000803e3d6000fd5b505050506040513d601f19601f8201168201806040525081019061434f91906171ed565b60405163266d6a8360e11b8152600481018290529091506001600160a01b03831690634cdad50690602401602060405180830381865afa158015614397573d6000803e3d6000fd5b505050506040513d601f19601f820116820180604052508101906143bb91906171ed565b949350505050565b6143cb6158c8565b60066143d78382617446565b506007612bf38282617446565b6143ec6158c8565b61337d8282615f3e565b6000805b600c548110156112bb576000818152600e6020908152604080832054868452602283528184206001600160a01b0391821680865293529281902054601a5491516322fd455760e11b81526004810182905292939092600192909116906345fa8aae90602401602060405180830381865afa15801561447c573d6000803e3d6000fd5b505050506040513d601f19601f820116820180604052508101906144a0919061711b565b60038111156144b1576144b1616bf9565b60ff16036144c457506001949350505050565b50506001016143fa565b6144d66158c8565b805182511461451f5760405162461bcd60e51b8152602060048201526015602482015274082e4e4c2f240d8cadccee8d040dad2e6dac2e8c6d605b1b6044820152606401611894565b60005b8251811015612bf35781818151811061453d5761453d617281565b6020026020010151600f600085848151811061455b5761455b617281565b6020908102919091018101516001600160a01b0390811683529082019290925260400160002080546001600160a01b03191692909116919091179055600101614522565b60008060005b600c548110156113ce576000818152600e6020908152604080832054878452602383528184206001600160a01b039182168086529084528285205489865260309094528285205492516370a0823160e01b815292909116600483018190529093909184906370a0823190602401602060405180830381865afa15801561462f573d6000803e3d6000fd5b505050506040513d601f19601f8201168201806040525081019061465391906171ed565b601a546040516322fd455760e11b8152600481018690529192506003916001600160a01b03909116906345fa8aae90602401602060405180830381865afa1580156146a2573d6000803e3d6000fd5b505050506040513d601f19601f820116820180604052508101906146c6919061711b565b60038111156146d7576146d7616bf9565b60ff161480156146e5575080155b156146fc576146f5600187617108565b9550614843565b601a546040516322fd455760e11b8152600481018590526002916001600160a01b0316906345fa8aae90602401602060405180830381865afa158015614746573d6000803e3d6000fd5b505050506040513d601f19601f8201168201806040525081019061476a919061711b565b600381111561477b5761477b616bf9565b60ff16148015614789575080155b156148435760008881526021602090815260408083206001600160a01b03888116855292529182902054601a5492516322fd455760e11b815260048101829052909260029216906345fa8aae90602401602060405180830381865afa1580156147f6573d6000803e3d6000fd5b505050506040513d601f19601f8201168201806040525081019061481a919061711b565b600381111561482b5761482b616bf9565b60ff16036148415761483e600188617108565b96505b505b5050600190920191506145a59050565b60008060005b600c548110156113e1576000818152600e6020526040812054614884906001600160a01b0316615498565b90506148908184617108565b925050600101614859565b6148a4816112f1565b6148f05760405162461bcd60e51b815260206004820152601860248201527f4f726465727320617265206e6f7420636f6d706c6574656400000000000000006044820152606401611894565b60008181526014602052604090205460ff16156149475760405162461bcd60e51b8152602060048201526015602482015274125cdcdd585b98d9481a5cc818dbdb5c1b195d1959605a1b6044820152606401611894565b6000818152602d60205260408120546001600160a01b03169080805b600c54811015614c7f576000818152600e6020908152604080832054888452602283528184206001600160a01b03918216808652935281842054601a54601b54935163a377cfbf60e01b815260048101869052938316602485015293949093909291169063a377cfbf906044016040805180830381865afa1580156149ec573d6000803e3d6000fd5b505050506040513d601f19601f82011682018060405250810190614a10919061731e565b6000898152602f60205260408082205490516370a0823160e01b81526001600160a01b0391821660048201819052939450908616906370a0823190602401602060405180830381865afa158015614a6b573d6000803e3d6000fd5b505050506040513d601f19601f82011682018060405250810190614a8f91906171ed565b60008b81526029602090815260408083206001600160a01b038a168452909152812054855192935091614ac290836171ac565b60008781526025602052604081205491925090614adf9083617108565b9050614aeb828c617108565b9a50614af7818b617108565b6040516317ee7de960e11b8152909a506001600160a01b03861690632fdcfbd290614b2a908b903090899060040161716b565b600060405180830381600087803b158015614b4457600080fd5b505af1158015614b58573d6000803e3d6000fd5b505050506001600160a01b038881166000818152600f60205260409081902054905163095ea7b360e01b815292166004830152602482018690529063095ea7b3906044016020604051808303816000875af1158015614bbb573d6000803e3d6000fd5b505050506040513d601f19601f82011682018060405250810190614bdf919061718f565b506001600160a01b038881166000908152600f602052604090819020546018549151636e553f6560e01b815260048101889052918316602483015290911690636e553f65906044016020604051808303816000875af1158015614c46573d6000803e3d6000fd5b505050506040513d601f19601f82011682018060405250810190614c6a91906171ed565b50506001909701965061496395505050505050565b506000848152602b602052604081205490819003614d70576000614ca48360646171ac565b6017546040516340c10f1960e01b81526001600160a01b038881166004830152602482018490529293509116906340c10f1990604401600060405180830381600087803b158015614cf457600080fd5b505af1158015614d08573d6000803e3d6000fd5b5050601b54600089815260396020526040908190205490516001600160a01b03808b1695508b94507f9b1c699e1cb709130ee00509d8f84a4fb33702e634298480371d27d66f6cd8c693614d629391169187904290617206565b60405180910390a350614e5e565b600083614d7d84846171ac565b614d8791906171d9565b90506000614d95838361726e565b6017546040516340c10f1960e01b81526001600160a01b038981166004830152602482018490529293509116906340c10f1990604401600060405180830381600087803b158015614de557600080fd5b505af1158015614df9573d6000803e3d6000fd5b5050601b5460008a815260396020526040908190205490516001600160a01b03808c1695508c94507f9b1c699e1cb709130ee00509d8f84a4fb33702e634298480371d27d66f6cd8c693614e539391169187904290617206565b60405180910390a350505b5050601c546000908152601460205260409020805460ff19166001179055505050565b600080614e8c614853565b90506000601760009054906101000a90046001600160a01b03166001600160a01b03166318160ddd6040518163ffffffff1660e01b8152600401602060405180830381865afa158015614ee3573d6000803e3d6000fd5b505050506040513d601f19601f82011682018060405250810190614f0791906171ed565b9050600082614f1683876171ac565b6111da91906171d9565b7ff0c57e16840df040f15088dc2f81fe391c3923bec73e23a9662efc9c229c6a008054600160401b810460ff1615906001600160401b0316600081158015614f655750825b90506000826001600160401b03166001148015614f815750303b155b905081158015614f8f575080155b15614fad5760405163f92ee8a960e01b815260040160405180910390fd5b845467ffffffffffffffff191660011785558315614fd757845460ff60401b1916600160401b1785555b8d601a60006101000a8154816001600160a01b0302191690836001600160a01b031602179055508c601760006101000a8154816001600160a01b0302191690836001600160a01b031602179055508b601860006101000a8154816001600160a01b0302191690836001600160a01b031602179055508a601b60006101000a8154816001600160a01b0302191690836001600160a01b0316021790555089601b60146101000a81548160ff021916908360ff1602179055506150973361615f565b61509f616170565b601b805460ff60a81b1916600560a91b179055600280546001600160a01b0319166001600160a01b038b161790556150d688615d23565b6008879055600a6150f0670de0b6b3a764000060016171ac565b6150fa91906171d9565b6009556040805160608101909152602a808252617a3060208301396006906151229082617446565b506040518060600160405280602e8152602001617a5a602e91396007906151499082617446565b50601f805460ff1916871515179055831561519e57845460ff60401b19168555604051600181527fc7f505b2f371ae2175ee4913f4499e1f2633a7b5936321eed1cdaeb6115181d29060200160405180910390a15b5050505050505050505050505050565b6000818152603b602090815260408083208151808301909252805480835260019182015493830193909352909190036151f5576151ee81602001516112f1565b9392505050565b805160020361520b576151ee8160200151611d51565b8051600303615221576151ee8160200151612bf8565b8051600403615237576151ee816020015161459f565b805160050361524d576151ee81602001516140a7565b80516006036112bb576151ee8160200151612996565b60008060005b600c54811015615373576000818152600e60209081526040808320546001600160a01b0316808452601290925282205490919068056bc75e2d63100000906152b190886171ac565b6152bb91906171d9565b601a54601b546040516308da5c3560e21b81526000600482018190526001600160a01b0392831660248301529394508392919091169063236970d4906044016040805180830381865afa158015615316573d6000803e3d6000fd5b505050506040513d601f19601f8201168201806040525081019061533a91906170c5565b91509150600061534a82856156d7565b6153549084617108565b90506153608188617108565b9650506001909401935061526992505050565b5092915050565b600080615385614853565b90506000601760009054906101000a90046001600160a01b03166001600160a01b03166318160ddd6040518163ffffffff1660e01b8152600401602060405180830381865afa1580156153dc573d6000803e3d6000fd5b505050506040513d601f19601f8201168201806040525081019061540091906171ed565b9050600081614f1684876171ac565b60006154196158c8565b6001600160a01b0383166154675760405162461bcd60e51b8152602060048201526015602482015274696e76616c696420746f6b656e206164647265737360581b6044820152606401611894565b50601b805460ff8316600160a01b026001600160a81b03199091166001600160a01b03851617179055600192915050565b6000806154a4836131a7565b905060006154b1846142c8565b9050670de0b6b3a76400006154c683836171ac565b6143bb91906171d9565b60008381526005602052604090205483906001600160a01b031633146155495760405162461bcd60e51b815260206004820152602860248201527f536f75726365206d75737420626520746865206f7261636c65206f6620746865604482015267081c995c5d595cdd60c21b6064820152608401611894565b60008181526005602052604080822080546001600160a01b03191690555182917f7cc135e0cebb02c3480ae5d74d377283180a2601f8f644edf7987b009316c63a91a261236f8383615f3e565b61559e616969565b60008281526033602090815260409182902082516101408101845281546001600160401b03811682526001600160a01b03600160401b9091048116938201939093526001808301548416948201949094526002820154928316606082015260ff600160a01b84048116151560808301529093919260a0850192600160a81b9091049091169081111561563257615632616bf9565b600181111561564357615643616bf9565b815260038281015460208301526004830154604083015260058301546060830152600683015460809092019160ff169081111561568257615682616bf9565b600381111561569357615693616bf9565b90525092915050565b6156a46158c8565b6001600160a01b0381166156ce57604051631e4fbdf760e01b815260006004820152602401611894565b611a5081615db7565b60008262ffffff166000036156ed5760006151ee565b6151ee8262ffffff8516620f4240616180565b60008061570d6000616254565b6001600160a01b03808516602083015286811660408084019190915260e08301879052601a54905163aa2165f160e01b815292935060009291169063aa2165f19061575c908590600401617000565b6020604051808303816000875af115801561577b573d6000803e3d6000fd5b505050506040513d601f19601f8201168201806040525081019061579f91906171ed565b60008181526033602090815260409182902085518154928701516001600160401b039091166001600160e01b031990931692909217600160401b6001600160a01b039384160217815591850151600180840180546001600160a01b0319169284169290921790915560608601516002840180546080890151929094166001600160a81b031990941693909317600160a01b911515919091021780835560a08701519495508694929160ff60a81b1990911690600160a81b90849081111561586857615868616bf9565b021790555060c0820151816003015560e0820151816004015561010082015181600501556101208201518160060160006101000a81548160ff021916908360038111156158b7576158b7616bf9565b021790555091979650505050505050565b336158fa7f9016d09d72d40fdae2fd8ceac6b6234c7706214fd39c1cd1e609a0528c199300546001600160a01b031690565b6001600160a01b031614611d4f5760405163118cdaa760e01b8152336004820152602401611894565b600b54600c5560005b600b54811015611a50576000818152600d6020908152604080832054600e835281842080546001600160a01b0319166001600160a01b0390921691821790558352601382528083205460128352818420556011909152902081905560010161592c565b6001600160a01b038084166000908152600f6020526040808220546018549151631c20fadd60e01b8152929390811692911690631c20fadd906159da9084903090899060040161716b565b600060405180830381600087803b1580156159f457600080fd5b505af1158015615a08573d6000803e3d6000fd5b5050604051635d043b2960e11b81526004810187905230602482018190526044820152600092506001600160a01b038416915063ba087652906064016020604051808303816000875af1158015615a63573d6000803e3d6000fd5b505050506040513d601f19601f82011682018060405250810190615a8791906171ed565b90506000615a956001616254565b6001600160a01b03888116604083810182905260c084018690528883166020850152601a54905163095ea7b360e01b8152921660048301526024820185905291925063095ea7b3906044016020604051808303816000875af1158015615aff573d6000803e3d6000fd5b505050506040513d601f19601f82011682018060405250810190615b23919061718f565b50601a5460405163aa2165f160e01b81526000916001600160a01b03169063aa2165f190615b55908590600401617000565b6020604051808303816000875af1158015615b74573d6000803e3d6000fd5b505050506040513d601f19601f82011682018060405250810190615b9891906171ed565b60008181526033602090815260409182902085518154928701516001600160401b039091166001600160e01b031990931692909217600160401b6001600160a01b039384160217815591850151600180840180546001600160a01b0319169284169290921790915560608601516002840180546080890151929094166001600160a81b031990941693909317600160a01b911515919091021780835560a08701519495508694929160ff60a81b1990911690600160a81b908490811115615c6157615c61616bf9565b021790555060c0820151816003015560e0820151816004015561010082015181600501556101208201518160060160006101000a81548160ff02191690836003811115615cb057615cb0616bf9565b0217905550919998505050505050505050565b615ccb61630b565b600080516020617a88833981519152805460ff191681557f5db9ee0a495bf2e6ff9c91a7834c1ba4fdd244a5e8aa4e537bd38aeae4b073aa335b6040516001600160a01b03909116815260200160405180910390a150565b600380546001600160a01b0319166001600160a01b0392909216919091179055565b60008262ffffff16600003615d5b5760006151ee565b6151ee82620f4240615d6d8682617505565b62ffffff16616180565b60008260ff168260ff161115615dad57615d918383617521565b615d9c90600a61761e565b615da6908561762d565b90506151ee565b615d918284617521565b7f9016d09d72d40fdae2fd8ceac6b6234c7706214fd39c1cd1e609a0528c19930080546001600160a01b031981166001600160a01b03848116918217845560405192169182907f8be0079c531659141344cd1fd0a4f28419497f9722a3daafe3b4186f6b6457e090600090a3505050565b615e306169cc565b615e386169cc565b6111da8186868661633b565b6080830151615e539083616378565b6080830151612bf39082616378565b600454600090615e73816001617108565b600455835160408086015160808701515191516000936320214ca360e11b93615eab9386938493923092918a9160019160240161765d565b60408051601f198184030181529190526020810180516001600160e01b03166001600160e01b0319909316929092179091529050615eeb8683868461638f565b9695505050505050565b615efd6164ed565b600080516020617a88833981519152805460ff191660011781557f62e78cea01bee320cd4e420270b5ea74000d11b0c9f74754ebdbfc544b05a25833615d05565b818160005b825181101561613f57828181518110615f5e57615f5e617281565b6020026020010151600d600083815260200190815260200160002060006101000a8154816001600160a01b0302191690836001600160a01b031602179055508060106000858481518110615fb457615fb4617281565b60200260200101516001600160a01b03166001600160a01b0316815260200190815260200160002081905550818181518110615ff257615ff2617281565b60200260200101516013600085848151811061601057616010617281565b60200260200101516001600160a01b03166001600160a01b0316815260200190815260200160002081905550600c546000036161375782818151811061605857616058617281565b6020026020010151600e600083815260200190815260200160002060006101000a8154816001600160a01b0302191690836001600160a01b031602179055508181815181106160a9576160a9617281565b6020026020010151601260008584815181106160c7576160c7617281565b60200260200101516001600160a01b03166001600160a01b0316815260200190815260200160002081905550806011600085848151811061610a5761610a617281565b60200260200101516001600160a01b03166001600160a01b03168152602001908152602001600020819055505b600101615f43565b508151600b55600c54600003616155578151600c555b505042600a555050565b61616761651e565b611a5081616567565b61617861651e565b611d4f61656f565b60008080600019858709858702925082811083820303915050806000036161ba578382816161b0576161b06171c3565b04925050506151ee565b8381106161eb57604051630c740aef60e31b8152600481018790526024810186905260448101859052606401611894565b60008486880960026001871981018816978890046003810283188082028403028082028403028082028403028082028403028082028403029081029092039091026000889003889004909101858311909403939093029303949094049190911702949350505050565b61625c616969565b60408051610140810182526001600160401b03421681523060208201526017546001600160a01b0390811692820192909252601b549091166060820152821515608082015260a0810160008152602001836162b85760006162c3565b68056bc75e2d631000005b68ffffffffffffffffff168152602001836162e75768056bc75e2d631000006162ea565b60005b68ffffffffffffffffff168152600060208201526040016001905292915050565b600080516020617a888339815191525460ff16611d4f57604051638dfc202b60e01b815260040160405180910390fd5b6163436169cc565b6163538560800151610100616590565b50509183526001600160a01b031660208301526001600160e01b031916604082015290565b61638582600383516165f5565b612bf382826166fc565b6040516bffffffffffffffffffffffff193060601b1660208201526034810184905260009060540160408051808303601f1901815282825280516020918201206000818152600590925291812080546001600160a01b0319166001600160a01b038a1617905590925082917fb5e6e01e79f91267dc17b4e6314d5d4d03593d2ceee0fbb452b750bd70ea5af99190a2600254604051630200057560e51b81526001600160a01b0390911690634000aea090616452908890879087906004016176b6565b6020604051808303816000875af1158015616471573d6000803e3d6000fd5b505050506040513d601f19601f82011682018060405250810190616495919061718f565b6143bb5760405162461bcd60e51b815260206004820152602360248201527f756e61626c6520746f207472616e73666572416e6443616c6c20746f206f7261604482015262636c6560e81b6064820152608401611894565b600080516020617a888339815191525460ff1615611d4f5760405163d93c066560e01b815260040160405180910390fd5b7ff0c57e16840df040f15088dc2f81fe391c3923bec73e23a9662efc9c229c6a0054600160401b900460ff16611d4f57604051631afcd79f60e31b815260040160405180910390fd5b6156a461651e565b61657761651e565b600080516020617a88833981519152805460ff19169055565b6040805180820190915260608152600060208201526165b06020836176dd565b156165d8576165c06020836176dd565b6165cb90602061726e565b6165d59083617108565b91505b506020828101829052604080518085526000815290920101905290565b6017816001600160401b0316116166195761236f8360e0600585901b168317616723565b60ff816001600160401b0316116166555761663f836018611fe0600586901b1617616723565b5061236f836001600160401b0383166001616748565b61ffff816001600160401b0316116166925761667c836019611fe0600586901b1617616723565b5061236f836001600160401b0383166002616748565b63ffffffff816001600160401b0316116166d1576166bb83601a611fe0600586901b1617616723565b5061236f836001600160401b0383166004616748565b6166e683601b611fe0600586901b1617616723565b5061236f836001600160401b0383166008616748565b6040805180820190915260608152600060208201526151ee8384600001515184855161676e565b6040805180820190915260608152600060208201526151ee8384600001515184616858565b6040805180820190915260608152600060208201526143bb8485600001515185856168b3565b604080518082019091526060815260006020820152825182111561679157600080fd5b60208501516167a08386617108565b11156167d3576167d3856167c3876020015187866167be9190617108565b616934565b6167ce9060026171ac565b616945565b6000808651805187602083010193508088870111156167f25787860182525b505050602084015b602084106168325780518252616811602083617108565b915061681e602082617108565b905061682b60208561726e565b93506167fa565b51815160001960208690036101000a019081169019919091161790525083949350505050565b6040805180820190915260608152600060208201528360200151831061688d5761688d84856020015160026167ce91906171ac565b83518051602085830101848153508085036168a9576001810182525b5093949350505050565b60408051808201909152606081526000602082015260208501516168d78584617108565b11156168eb576168eb856167c38685617108565b600060016168fb846101006176f1565b616905919061726e565b90508551838682010185831982511617815250805184870111156169295783860181525b509495945050505050565b6000818311156113e15750816112eb565b81516169518383616590565b5061236f83826166fc565b610332806176fe83390190565b604080516101408101825260008082526020820181905291810182905260608101829052608081018290529060a08201908152602001600081526020016000815260200160008152602001600060038111156169c7576169c7616bf9565b905290565b6040805160a0810182526000808252602080830182905282840182905260608084018390528451808601909552845283015290608082015290565b80356001600160a01b0381168114611aca57600080fd5b60008060408385031215616a3157600080fd5b82359150616a4160208401616a07565b90509250929050565b600060208284031215616a5c57600080fd5b5035919050565b600060208284031215616a7557600080fd5b6151ee82616a07565b634e487b7160e01b600052604160045260246000fd5b604051601f8201601f191681016001600160401b0381118282101715616abc57616abc616a7e565b604052919050565b600082601f830112616ad557600080fd5b81356001600160401b03811115616aee57616aee616a7e565b616b01601f8201601f1916602001616a94565b818152846020838601011115616b1657600080fd5b816020850160208301376000918101602001919091529392505050565b60008060408385031215616b4657600080fd5b82356001600160401b0380821115616b5d57600080fd5b616b6986838701616ac4565b93506020850135915080821115616b7f57600080fd5b50616b8c85828601616ac4565b9150509250929050565b60005b83811015616bb1578181015183820152602001616b99565b50506000910152565b60008151808452616bd2816020860160208601616b96565b601f01601f19169290920160200192915050565b6020815260006151ee6020830184616bba565b634e487b7160e01b600052602160045260246000fd5b60028110616c1f57616c1f616bf9565b9052565b60048110616c1f57616c1f616bf9565b6001600160401b038b1681526001600160a01b038a8116602083015289811660408301528816606082015286151560808201526101408101616c7860a0830188616c0f565b8560c08301528460e083015283610100830152616c99610120830184616c23565b9b9a5050505050505050505050565b60008060408385031215616cbb57600080fd5b616cc483616a07565b946020939093013593505050565b60ff81168114611a5057600080fd5b600060208284031215616cf357600080fd5b81356151ee81616cd2565b60006001600160401b03821115616d1757616d17616a7e565b5060051b60200190565b600082601f830112616d3257600080fd5b81356020616d47616d4283616cfe565b616a94565b8083825260208201915060208460051b870101935086841115616d6957600080fd5b602086015b84811015616d8c57616d7f81616a07565b8352918301918301616d6e565b509695505050505050565b60008060408385031215616daa57600080fd5b82356001600160401b0380821115616dc157600080fd5b616dcd86838701616d21565b93506020850135915080821115616de357600080fd5b50616b8c85828601616d21565b600082601f830112616e0157600080fd5b81356020616e11616d4283616cfe565b8083825260208201915060208460051b870101935086841115616e3357600080fd5b602086015b84811015616d8c5780358352918301918301616e38565b60008060408385031215616e6257600080fd5b82356001600160401b0380821115616e7957600080fd5b616e8586838701616d21565b93506020850135915080821115616e9b57600080fd5b50616b8c85828601616df0565b8015158114611a5057600080fd5b60008060008060008060008060006101208a8c031215616ed557600080fd5b616ede8a616a07565b9850616eec60208b01616a07565b9750616efa60408b01616a07565b9650616f0860608b01616a07565b955060808a0135616f1881616cd2565b9450616f2660a08b01616a07565b9350616f3460c08b01616a07565b925060e08a013591506101008a0135616f4c81616ea8565b809150509295985092959850929598565b60008060408385031215616f7057600080fd5b616f7983616a07565b91506020830135616f8981616cd2565b809150509250929050565b600080600060608486031215616fa957600080fd5b8335925060208401356001600160401b0380821115616fc757600080fd5b616fd387838801616d21565b93506040860135915080821115616fe957600080fd5b50616ff686828701616df0565b9150509250925092565b81516001600160401b031681526101408101602083015161702c60208401826001600160a01b03169052565b50604083015161704760408401826001600160a01b03169052565b50606083015161706260608401826001600160a01b03169052565b506080830151617076608084018215159052565b5060a083015161708960a0840182616c0f565b5060c083015160c083015260e083015160e0830152610100808401518184015250610120808401516170bd82850182616c23565b505092915050565b600080604083850312156170d857600080fd5b82519150602083015162ffffff81168114616f8957600080fd5b634e487b7160e01b600052601160045260246000fd5b808201808211156112eb576112eb6170f2565b60006020828403121561712d57600080fd5b8151600481106151ee57600080fd5b6000835161714e818460208801616b96565b835190830190617162818360208801616b96565b01949350505050565b6001600160a01b039384168152919092166020820152604081019190915260600190565b6000602082840312156171a157600080fd5b81516151ee81616ea8565b80820281158282048414176112eb576112eb6170f2565b634e487b7160e01b600052601260045260246000fd5b6000826171e8576171e86171c3565b500490565b6000602082840312156171ff57600080fd5b5051919050565b6001600160a01b0394909416845260208401929092526040830152606082015260800190565b60208082526022908201527f526562616c616e6365206f726465727320617265206e6f7420636f6d706c6574604082015261195960f21b606082015260800190565b818103818111156112eb576112eb6170f2565b634e487b7160e01b600052603260045260246000fd5b805169ffffffffffffffffffff81168114611aca57600080fd5b600080600080600060a086880312156172c957600080fd5b6172d286617297565b94506020860151935060408601519250606086015191506172f560808701617297565b90509295509295909350565b60006020828403121561731357600080fd5b81516151ee81616cd2565b60006040828403121561733057600080fd5b604051604081016001600160401b03828210818311171561735357617353616a7e565b816040528451835260208501519150808216821461737057600080fd5b5060208201529392505050565b600181811c9082168061739157607f821691505b6020821081036113e157634e487b7160e01b600052602260045260246000fd5b60208082526025908201527f5468652070726f6365737320686173206265656e20636f6d706c65746564206260408201526465666f726560d81b606082015260800190565b601f821115612bf3576000816000526020600020601f850160051c8101602086101561741f5750805b601f850160051c820191505b8181101561743e5782815560010161742b565b505050505050565b81516001600160401b0381111561745f5761745f616a7e565b6174738161746d845461737d565b846173f6565b602080601f8311600181146174a857600084156174905750858301515b600019600386901b1c1916600185901b17855561743e565b600085815260208120601f198616915b828110156174d7578886015182559484019460019091019084016174b8565b50858210156174f55787850151600019600388901b60f8161c191681555b5050505050600190811b01905550565b62ffffff818116838216019080821115615373576153736170f2565b60ff82811682821603908111156112eb576112eb6170f2565b600181815b8085111561757557816000190482111561755b5761755b6170f2565b8085161561756857918102915b93841c939080029061753f565b509250929050565b60008261758c575060016112eb565b81617599575060006112eb565b81600181146175af57600281146175b9576175d5565b60019150506112eb565b60ff8411156175ca576175ca6170f2565b50506001821b6112eb565b5060208310610133831016604e8410600b84101617156175f8575081810a6112eb565b617602838361753a565b8060001904821115617616576176166170f2565b029392505050565b60006151ee60ff84168361757d565b80820260008212600160ff1b84141615617649576176496170f2565b81810583148215176112eb576112eb6170f2565b6001600160a01b0389811682526020820189905260408201889052861660608201526001600160e01b03198516608082015260a0810184905260c0810183905261010060e08201819052600090616c9983820185616bba565b60018060a01b03841681528260208201526060604082015260006111da6060830184616bba565b6000826176ec576176ec6171c3565b500690565b60006151ee838361757d56fe6080604052348015600f57600080fd5b50604051610332380380610332833981016040819052602c916050565b600080546001600160a01b0319166001600160a01b0392909216919091179055607e565b600060208284031215606157600080fd5b81516001600160a01b0381168114607757600080fd5b9392505050565b6102a58061008d6000396000f3fe608060405234801561001057600080fd5b50600436106100415760003560e01c806313af4035146100465780632fdcfbd21461005b5780638da5cb5b1461006e575b600080fd5b6100596100543660046101ef565b61009d565b005b610059610069366004610211565b61010f565b600054610081906001600160a01b031681565b6040516001600160a01b03909116815260200160405180910390f35b6000546001600160a01b031633146100ed5760405162461bcd60e51b815260206004820152600e60248201526d139bdd08185d5d1a1bdc9a5e995960921b60448201526064015b60405180910390fd5b600080546001600160a01b0319166001600160a01b0392909216919091179055565b6000546001600160a01b0316331461015a5760405162461bcd60e51b815260206004820152600e60248201526d139bdd08185d5d1a1bdc9a5e995960921b60448201526064016100e4565b60405163a9059cbb60e01b81526001600160a01b0383811660048301526024820183905284169063a9059cbb906044016020604051808303816000875af11580156101a9573d6000803e3d6000fd5b505050506040513d601f19601f820116820180604052508101906101cd919061024d565b50505050565b80356001600160a01b03811681146101ea57600080fd5b919050565b60006020828403121561020157600080fd5b61020a826101d3565b9392505050565b60008060006060848603121561022657600080fd5b61022f846101d3565b925061023d602085016101d3565b9150604084013590509250925092565b60006020828403121561025f57600080fd5b8151801515811461020a57600080fdfea2646970667358221220502fe3cef5472467ba27d3f0af8cc13ea970369ac0d01284025186802306355064736f6c6343000819003368747470733a2f2f6170702e6e65786c6162732e696f2f6170692f616c6c46756e64696e6752617465733f6d756c7469706c7946756e633d31382674696d65734e656746756e643d74727565266172726179733d74727565cd5ed15c6e187e77e9aee88184c21f4f2182ab5827cb3b7e07fbedcd63f03300a26469706673582212208b64131a1e3c4e0999839c828cddd0715eed9e29b5959c7d5030868da7911dc364736f6c63430008190033","linkReferences":{}},"methodIdentifiers":{"actionInfoById(uint256)":"3c1f70ca","burnedTokenAmountByNonce(uint256)":"ab7820b2","buyRequestPayedAmountById(uint256)":"8861d235","calculateBuyRequestFee(uint256)":"06995e3b","calculateIssuanceFee(uint256)":"e19eefbe","cancelIssuance(uint256)":"46d66a2c","cancelIssuanceComplted(uint256)":"7bfa27f2","cancelIssuanceRequestId(uint256,address)":"02e80f71","cancelRedemption(uint256)":"9219e510","cancelRedemptionComplted(uint256)":"b46840f9","cancelRedemptionRequestId(uint256,address)":"8c221899","checkCancelIssuanceStatus(uint256)":"631c8385","checkCancelRedemptionStatus(uint256)":"b592662a","checkFirstRebalanceOrdersStatus(uint256)":"92318df4","checkIssuanceOrdersStatus(uint256)":"2343acb4","checkMultical(uint256)":"e16e554a","checkRedemptionOrdersStatus(uint256)":"3fac0922","checkSecondRebalanceOrdersStatus(uint256)":"558f1aa8","coaByIssuanceNonce(uint256)":"31c99010","coaByRedemptionNonce(uint256)":"b75f4c2c","completeCancelIssuance(uint256)":"807ca237","completeCancelRedemption(uint256)":"9026544f","completeIssuance(uint256)":"bed45bef","completeRebalanceActions(uint256)":"263e0d51","completeRedemption(uint256)":"840ecba0","concatenation(string,string)":"0e329357","currentList(uint256)":"9932ba4c","custodianWallet()":"1e106e99","estimateAmountAfterFee(uint256)":"9e76d0cb","externalJobId()":"a8b54bd4","feeRate()":"978bbdb9","firstRebalanceAction()":"32f53f3c","fulfillAssetsData(bytes32,address[],uint256[])":"f14bea20","getIssuanceAmountOut(uint256)":"c8da3303","getOrderInstanceById(uint256)":"f1f31d66","getPortfolioValue()":"bb0498de","getRedemptionAmountOut(uint256)":"e2851bd6","getVaultDshareBalance(address)":"a08d7bd6","getVaultDshareValue(address)":"efdf5053","initialize(address,address,address,address,uint8,address,address,bytes32,bool)":"d57e0493","isIssuanceOrderActive(uint256)":"b0e12134","isMainnet()":"42faac05","isRedemptionOrderActive(uint256)":"0b1a4918","issuance(uint256)":"248b761e","issuanceIndexTokenPrimaryTotalSupply(uint256)":"b1dd819e","issuanceInputAmount(uint256)":"cf9ee319","issuanceIsCompleted(uint256)":"a84ebc17","issuanceNonce()":"9dbb9c9e","issuanceRequestId(uint256,address)":"264fa8b9","issuanceRequesterByNonce(uint256)":"94674098","issuanceTokenPrimaryBalance(uint256,address)":"da65925a","issuer()":"1d143848","lastUpdateTime()":"c8f33c91","latestFeeUpdate()":"011ced5f","mockFillAssetsList(address[],uint256[])":"addc70d1","multical(uint256)":"73b774ed","oracleList(uint256)":"239aad0d","oraclePayment()":"0c02e130","orderInstanceById(uint256)":"15e666a2","owner()":"8da5cb5b","pause()":"8456cb59","paused()":"5c975abb","portfolioValueByNonce(uint256)":"2badae5d","priceFeedByTokenAddress(address)":"08dc4b0c","priceInWei(address)":"6839a095","rebalanceBuyPayedAmountById(uint256)":"ab935bb2","rebalanceNonce()":"edca4f5e","rebalanceRequestId(uint256,address)":"75a3cb57","rebalanceSellAssetAmountById(uint256)":"8d6983c7","redemption(uint256)":"4a1dc092","redemptionIndexTokenPrimaryTotalSupply(uint256)":"daf1c17d","redemptionInputAmount(uint256)":"9cf54521","redemptionIsCompleted(uint256)":"76529fdf","redemptionNonce()":"84d77bb1","redemptionRequestId(uint256,address)":"f513a718","redemptionRequesterByNonce(uint256)":"78032658","redemptionTokenPrimaryBalance(uint256,address)":"a363b9cb","renounceOwnership()":"715018a6","requestAssetsData()":"7ca58c55","secondRebalanceAction(uint256)":"643ee27f","sellRequestAssetAmountById(uint256)":"a87f98d2","setCustodianWallet(address)":"9cc0fb5b","setFeeRate(uint8)":"5177942a","setIssuer(address)":"55cc4e57","setOracleInfo(address,bytes32)":"43482fc8","setPriceFeedAddresses(address[],address[])":"57b61bc3","setTokenAddress(address)":"26a4e8d2","setUrl(string,string)":"a73e1cbf","setUsdcAddress(address,uint8)":"eab2a711","setWrappedDShareAddresses(address[],address[])":"b411dc41","token()":"fc0c546a","tokenCurrentListIndex(address)":"914f0cc6","tokenCurrentMarketShare(address)":"0be52713","tokenOracleListIndex(address)":"8c88c10c","tokenOracleMarketShare(address)":"4b3e0b80","tokenShortagePercentByNonce(uint256,address)":"db5c1a12","tokenValueByNonce(uint256,address)":"b316e7fd","totalCurrentList()":"53fd4332","totalOracleList()":"c8599ded","totalShortagePercentByNonce(uint256)":"2ca49334","transferOwnership(address)":"f2fde38b","unpause()":"3f4ba83a","usdc()":"3e413bee","usdcDecimals()":"7bf42165","vault()":"fbfa77cf","wrappedDshareAddress(address)":"092755e0"},"id":16}