{"abi":[{"type":"function","name":"burnedTokenAmountByNonce","inputs":[{"name":"","type":"uint256","internalType":"uint256"}],"outputs":[{"name":"","type":"uint256","internalType":"uint256"}],"stateMutability":"view"},{"type":"function","name":"buyRequestPayedAmountById","inputs":[{"name":"","type":"uint256","internalType":"uint256"}],"outputs":[{"name":"","type":"uint256","internalType":"uint256"}],"stateMutability":"view"},{"type":"function","name":"calculateIssuanceFee","inputs":[{"name":"_inputAmount","type":"uint256","internalType":"uint256"}],"outputs":[{"name":"","type":"uint256","internalType":"uint256"}],"stateMutability":"view"},{"type":"function","name":"cancelIssuance","inputs":[{"name":"_issuanceNonce","type":"uint256","internalType":"uint256"}],"outputs":[],"stateMutability":"nonpayable"},{"type":"function","name":"cancelIssuanceComplted","inputs":[{"name":"","type":"uint256","internalType":"uint256"}],"outputs":[{"name":"","type":"bool","internalType":"bool"}],"stateMutability":"view"},{"type":"function","name":"cancelIssuanceRequestId","inputs":[{"name":"","type":"uint256","internalType":"uint256"},{"name":"","type":"address","internalType":"address"}],"outputs":[{"name":"","type":"uint256","internalType":"uint256"}],"stateMutability":"view"},{"type":"function","name":"cancelRedemption","inputs":[{"name":"_redemptionNonce","type":"uint256","internalType":"uint256"}],"outputs":[],"stateMutability":"nonpayable"},{"type":"function","name":"cancelRedemptionComplted","inputs":[{"name":"","type":"uint256","internalType":"uint256"}],"outputs":[{"name":"","type":"bool","internalType":"bool"}],"stateMutability":"view"},{"type":"function","name":"cancelRedemptionRequestId","inputs":[{"name":"","type":"uint256","internalType":"uint256"},{"name":"","type":"address","internalType":"address"}],"outputs":[{"name":"","type":"uint256","internalType":"uint256"}],"stateMutability":"view"},{"type":"function","name":"checkCancelIssuanceStatus","inputs":[{"name":"_issuanceNonce","type":"uint256","internalType":"uint256"}],"outputs":[{"name":"","type":"bool","internalType":"bool"}],"stateMutability":"view"},{"type":"function","name":"checkCancelRedemptionStatus","inputs":[{"name":"_redemptionNonce","type":"uint256","internalType":"uint256"}],"outputs":[{"name":"","type":"bool","internalType":"bool"}],"stateMutability":"view"},{"type":"function","name":"checkFirstRebalanceOrdersStatus","inputs":[{"name":"_rebalanceNonce","type":"uint256","internalType":"uint256"}],"outputs":[{"name":"","type":"bool","internalType":"bool"}],"stateMutability":"view"},{"type":"function","name":"checkIssuanceOrdersStatus","inputs":[{"name":"_issuanceNonce","type":"uint256","internalType":"uint256"}],"outputs":[{"name":"","type":"bool","internalType":"bool"}],"stateMutability":"view"},{"type":"function","name":"checkRedemptionOrdersStatus","inputs":[{"name":"_redemptionNonce","type":"uint256","internalType":"uint256"}],"outputs":[{"name":"","type":"bool","internalType":"bool"}],"stateMutability":"view"},{"type":"function","name":"coaByIssuanceNonce","inputs":[{"name":"","type":"uint256","internalType":"uint256"}],"outputs":[{"name":"","type":"address","internalType":"address"}],"stateMutability":"view"},{"type":"function","name":"coaByRedemptionNonce","inputs":[{"name":"","type":"uint256","internalType":"uint256"}],"outputs":[{"name":"","type":"address","internalType":"address"}],"stateMutability":"view"},{"type":"function","name":"completeCancelIssuance","inputs":[{"name":"_issuanceNonce","type":"uint256","internalType":"uint256"}],"outputs":[],"stateMutability":"nonpayable"},{"type":"function","name":"completeCancelRedemption","inputs":[{"name":"_redemptionNonce","type":"uint256","internalType":"uint256"}],"outputs":[],"stateMutability":"nonpayable"},{"type":"function","name":"completeIssuance","inputs":[{"name":"_issuanceNonce","type":"uint256","internalType":"uint256"}],"outputs":[],"stateMutability":"nonpayable"},{"type":"function","name":"completeRedemption","inputs":[{"name":"_redemptionNonce","type":"uint256","internalType":"uint256"}],"outputs":[],"stateMutability":"nonpayable"},{"type":"function","name":"concatenation","inputs":[{"name":"a","type":"string","internalType":"string"},{"name":"b","type":"string","internalType":"string"}],"outputs":[{"name":"","type":"string","internalType":"string"}],"stateMutability":"pure"},{"type":"function","name":"currentList","inputs":[{"name":"","type":"uint256","internalType":"uint256"}],"outputs":[{"name":"","type":"address","internalType":"address"}],"stateMutability":"view"},{"type":"function","name":"custodianWallet","inputs":[],"outputs":[{"name":"","type":"address","internalType":"address"}],"stateMutability":"view"},{"type":"function","name":"externalJobId","inputs":[],"outputs":[{"name":"","type":"bytes32","internalType":"bytes32"}],"stateMutability":"view"},{"type":"function","name":"feeRate","inputs":[],"outputs":[{"name":"","type":"uint8","internalType":"uint8"}],"stateMutability":"view"},{"type":"function","name":"firstRebalanceAction","inputs":[],"outputs":[],"stateMutability":"nonpayable"},{"type":"function","name":"fulfillAssetsData","inputs":[{"name":"requestId","type":"bytes32","internalType":"bytes32"},{"name":"_tokens","type":"address[]","internalType":"address[]"},{"name":"_marketShares","type":"uint256[]","internalType":"uint256[]"}],"outputs":[],"stateMutability":"nonpayable"},{"type":"function","name":"getOrderInstanceById","inputs":[{"name":"id","type":"uint256","internalType":"uint256"}],"outputs":[{"name":"","type":"tuple","internalType":"struct IOrderProcessor.Order","components":[{"name":"requestTimestamp","type":"uint64","internalType":"uint64"},{"name":"recipient","type":"address","internalType":"address"},{"name":"assetToken","type":"address","internalType":"address"},{"name":"paymentToken","type":"address","internalType":"address"},{"name":"sell","type":"bool","internalType":"bool"},{"name":"orderType","type":"uint8","internalType":"enum IOrderProcessor.OrderType"},{"name":"assetTokenQuantity","type":"uint256","internalType":"uint256"},{"name":"paymentTokenQuantity","type":"uint256","internalType":"uint256"},{"name":"price","type":"uint256","internalType":"uint256"},{"name":"tif","type":"uint8","internalType":"enum IOrderProcessor.TIF"}]}],"stateMutability":"view"},{"type":"function","name":"getPortfolioValue","inputs":[],"outputs":[{"name":"","type":"uint256","internalType":"uint256"}],"stateMutability":"view"},{"type":"function","name":"getVaultDshareBalance","inputs":[{"name":"_token","type":"address","internalType":"address"}],"outputs":[{"name":"","type":"uint256","internalType":"uint256"}],"stateMutability":"view"},{"type":"function","name":"getVaultDshareValue","inputs":[{"name":"_token","type":"address","internalType":"address"}],"outputs":[{"name":"","type":"uint256","internalType":"uint256"}],"stateMutability":"view"},{"type":"function","name":"initialize","inputs":[{"name":"_issuer","type":"address","internalType":"address"},{"name":"_token","type":"address","internalType":"address"},{"name":"_vault","type":"address","internalType":"address"},{"name":"_usdc","type":"address","internalType":"address"},{"name":"_usdcDecimals","type":"uint8","internalType":"uint8"},{"name":"_chainlinkToken","type":"address","internalType":"address"},{"name":"_oracleAddress","type":"address","internalType":"address"},{"name":"_externalJobId","type":"bytes32","internalType":"bytes32"},{"name":"_isMainnet","type":"bool","internalType":"bool"}],"outputs":[],"stateMutability":"nonpayable"},{"type":"function","name":"isIssuanceOrderActive","inputs":[{"name":"_issuanceNonce","type":"uint256","internalType":"uint256"}],"outputs":[{"name":"","type":"bool","internalType":"bool"}],"stateMutability":"view"},{"type":"function","name":"isMainnet","inputs":[],"outputs":[{"name":"","type":"bool","internalType":"bool"}],"stateMutability":"view"},{"type":"function","name":"isRedemptionOrderActive","inputs":[{"name":"_redemptionNonce","type":"uint256","internalType":"uint256"}],"outputs":[{"name":"","type":"bool","internalType":"bool"}],"stateMutability":"view"},{"type":"function","name":"issuance","inputs":[{"name":"_inputAmount","type":"uint256","internalType":"uint256"}],"outputs":[{"name":"","type":"uint256","internalType":"uint256"}],"stateMutability":"nonpayable"},{"type":"function","name":"issuanceIndexTokenPrimaryTotalSupply","inputs":[{"name":"","type":"uint256","internalType":"uint256"}],"outputs":[{"name":"","type":"uint256","internalType":"uint256"}],"stateMutability":"view"},{"type":"function","name":"issuanceIsCompleted","inputs":[{"name":"","type":"uint256","internalType":"uint256"}],"outputs":[{"name":"","type":"bool","internalType":"bool"}],"stateMutability":"view"},{"type":"function","name":"issuanceNonce","inputs":[],"outputs":[{"name":"","type":"uint256","internalType":"uint256"}],"stateMutability":"view"},{"type":"function","name":"issuanceRequestId","inputs":[{"name":"","type":"uint256","internalType":"uint256"},{"name":"","type":"address","internalType":"address"}],"outputs":[{"name":"","type":"uint256","internalType":"uint256"}],"stateMutability":"view"},{"type":"function","name":"issuanceRequesterByNonce","inputs":[{"name":"","type":"uint256","internalType":"uint256"}],"outputs":[{"name":"","type":"address","internalType":"address"}],"stateMutability":"view"},{"type":"function","name":"issuanceTokenPrimaryBalance","inputs":[{"name":"","type":"uint256","internalType":"uint256"},{"name":"","type":"address","internalType":"address"}],"outputs":[{"name":"","type":"uint256","internalType":"uint256"}],"stateMutability":"view"},{"type":"function","name":"issuer","inputs":[],"outputs":[{"name":"","type":"address","internalType":"contract IOrderProcessor"}],"stateMutability":"view"},{"type":"function","name":"lastUpdateTime","inputs":[],"outputs":[{"name":"","type":"uint256","internalType":"uint256"}],"stateMutability":"view"},{"type":"function","name":"latestFeeUpdate","inputs":[],"outputs":[{"name":"","type":"uint256","internalType":"uint256"}],"stateMutability":"view"},{"type":"function","name":"mockFillAssetsList","inputs":[{"name":"_tokens","type":"address[]","internalType":"address[]"},{"name":"_marketShares","type":"uint256[]","internalType":"uint256[]"}],"outputs":[],"stateMutability":"nonpayable"},{"type":"function","name":"oracleList","inputs":[{"name":"","type":"uint256","internalType":"uint256"}],"outputs":[{"name":"","type":"address","internalType":"address"}],"stateMutability":"view"},{"type":"function","name":"oraclePayment","inputs":[],"outputs":[{"name":"","type":"uint256","internalType":"uint256"}],"stateMutability":"view"},{"type":"function","name":"orderInstanceById","inputs":[{"name":"","type":"uint256","internalType":"uint256"}],"outputs":[{"name":"requestTimestamp","type":"uint64","internalType":"uint64"},{"name":"recipient","type":"address","internalType":"address"},{"name":"assetToken","type":"address","internalType":"address"},{"name":"paymentToken","type":"address","internalType":"address"},{"name":"sell","type":"bool","internalType":"bool"},{"name":"orderType","type":"uint8","internalType":"enum IOrderProcessor.OrderType"},{"name":"assetTokenQuantity","type":"uint256","internalType":"uint256"},{"name":"paymentTokenQuantity","type":"uint256","internalType":"uint256"},{"name":"price","type":"uint256","internalType":"uint256"},{"name":"tif","type":"uint8","internalType":"enum IOrderProcessor.TIF"}],"stateMutability":"view"},{"type":"function","name":"owner","inputs":[],"outputs":[{"name":"","type":"address","internalType":"address"}],"stateMutability":"view"},{"type":"function","name":"pause","inputs":[],"outputs":[],"stateMutability":"nonpayable"},{"type":"function","name":"paused","inputs":[],"outputs":[{"name":"","type":"bool","internalType":"bool"}],"stateMutability":"view"},{"type":"function","name":"portfolioValueByNonce","inputs":[{"name":"","type":"uint256","internalType":"uint256"}],"outputs":[{"name":"","type":"uint256","internalType":"uint256"}],"stateMutability":"view"},{"type":"function","name":"priceFeedByTokenAddress","inputs":[{"name":"","type":"address","internalType":"address"}],"outputs":[{"name":"","type":"address","internalType":"address"}],"stateMutability":"view"},{"type":"function","name":"priceInWei","inputs":[{"name":"_tokenAddress","type":"address","internalType":"address"}],"outputs":[{"name":"","type":"uint256","internalType":"uint256"}],"stateMutability":"view"},{"type":"function","name":"rebalanceNonce","inputs":[],"outputs":[{"name":"","type":"uint256","internalType":"uint256"}],"stateMutability":"view"},{"type":"function","name":"rebalanceRequestId","inputs":[{"name":"","type":"uint256","internalType":"uint256"},{"name":"","type":"address","internalType":"address"}],"outputs":[{"name":"","type":"uint256","internalType":"uint256"}],"stateMutability":"view"},{"type":"function","name":"redemption","inputs":[{"name":"_inputAmount","type":"uint256","internalType":"uint256"}],"outputs":[{"name":"","type":"uint256","internalType":"uint256"}],"stateMutability":"nonpayable"},{"type":"function","name":"redemptionIndexTokenPrimaryTotalSupply","inputs":[{"name":"","type":"uint256","internalType":"uint256"}],"outputs":[{"name":"","type":"uint256","internalType":"uint256"}],"stateMutability":"view"},{"type":"function","name":"redemptionIsCompleted","inputs":[{"name":"","type":"uint256","internalType":"uint256"}],"outputs":[{"name":"","type":"bool","internalType":"bool"}],"stateMutability":"view"},{"type":"function","name":"redemptionNonce","inputs":[],"outputs":[{"name":"","type":"uint256","internalType":"uint256"}],"stateMutability":"view"},{"type":"function","name":"redemptionRequestId","inputs":[{"name":"","type":"uint256","internalType":"uint256"},{"name":"","type":"address","internalType":"address"}],"outputs":[{"name":"","type":"uint256","internalType":"uint256"}],"stateMutability":"view"},{"type":"function","name":"redemptionRequesterByNonce","inputs":[{"name":"","type":"uint256","internalType":"uint256"}],"outputs":[{"name":"","type":"address","internalType":"address"}],"stateMutability":"view"},{"type":"function","name":"redemptionTokenPrimaryBalance","inputs":[{"name":"","type":"uint256","internalType":"uint256"},{"name":"","type":"address","internalType":"address"}],"outputs":[{"name":"","type":"uint256","internalType":"uint256"}],"stateMutability":"view"},{"type":"function","name":"renounceOwnership","inputs":[],"outputs":[],"stateMutability":"nonpayable"},{"type":"function","name":"requestAssetsData","inputs":[],"outputs":[{"name":"","type":"bytes32","internalType":"bytes32"}],"stateMutability":"nonpayable"},{"type":"function","name":"secondRebalanceAction","inputs":[],"outputs":[],"stateMutability":"nonpayable"},{"type":"function","name":"sellRequestAssetAmountById","inputs":[{"name":"","type":"uint256","internalType":"uint256"}],"outputs":[{"name":"","type":"uint256","internalType":"uint256"}],"stateMutability":"view"},{"type":"function","name":"setCustodianWallet","inputs":[{"name":"_custodianWallet","type":"address","internalType":"address"}],"outputs":[{"name":"","type":"bool","internalType":"bool"}],"stateMutability":"nonpayable"},{"type":"function","name":"setFeeRate","inputs":[{"name":"_newFee","type":"uint8","internalType":"uint8"}],"outputs":[],"stateMutability":"nonpayable"},{"type":"function","name":"setIssuer","inputs":[{"name":"_issuer","type":"address","internalType":"address"}],"outputs":[{"name":"","type":"bool","internalType":"bool"}],"stateMutability":"nonpayable"},{"type":"function","name":"setOracleInfo","inputs":[{"name":"_oracleAddress","type":"address","internalType":"address"},{"name":"_externalJobId","type":"bytes32","internalType":"bytes32"}],"outputs":[],"stateMutability":"nonpayable"},{"type":"function","name":"setPriceFeedAddresses","inputs":[{"name":"_dShares","type":"address[]","internalType":"address[]"},{"name":"_priceFeedAddresses","type":"address[]","internalType":"address[]"}],"outputs":[],"stateMutability":"nonpayable"},{"type":"function","name":"setTokenAddress","inputs":[{"name":"_token","type":"address","internalType":"address"}],"outputs":[{"name":"","type":"bool","internalType":"bool"}],"stateMutability":"nonpayable"},{"type":"function","name":"setUrl","inputs":[{"name":"_beforeAddress","type":"string","internalType":"string"},{"name":"_afterAddress","type":"string","internalType":"string"}],"outputs":[],"stateMutability":"nonpayable"},{"type":"function","name":"setUsdcAddress","inputs":[{"name":"_usdc","type":"address","internalType":"address"},{"name":"_usdcDecimals","type":"uint8","internalType":"uint8"}],"outputs":[{"name":"","type":"bool","internalType":"bool"}],"stateMutability":"nonpayable"},{"type":"function","name":"setWrappedDShareAddresses","inputs":[{"name":"_dShares","type":"address[]","internalType":"address[]"},{"name":"_wrappedDShares","type":"address[]","internalType":"address[]"}],"outputs":[],"stateMutability":"nonpayable"},{"type":"function","name":"token","inputs":[],"outputs":[{"name":"","type":"address","internalType":"contract IndexToken"}],"stateMutability":"view"},{"type":"function","name":"tokenCurrentListIndex","inputs":[{"name":"","type":"address","internalType":"address"}],"outputs":[{"name":"","type":"uint256","internalType":"uint256"}],"stateMutability":"view"},{"type":"function","name":"tokenCurrentMarketShare","inputs":[{"name":"","type":"address","internalType":"address"}],"outputs":[{"name":"","type":"uint256","internalType":"uint256"}],"stateMutability":"view"},{"type":"function","name":"tokenOracleListIndex","inputs":[{"name":"","type":"address","internalType":"address"}],"outputs":[{"name":"","type":"uint256","internalType":"uint256"}],"stateMutability":"view"},{"type":"function","name":"tokenOracleMarketShare","inputs":[{"name":"","type":"address","internalType":"address"}],"outputs":[{"name":"","type":"uint256","internalType":"uint256"}],"stateMutability":"view"},{"type":"function","name":"tokenValueByNonce","inputs":[{"name":"","type":"uint256","internalType":"uint256"}],"outputs":[{"name":"","type":"uint256","internalType":"uint256"}],"stateMutability":"view"},{"type":"function","name":"totalCurrentList","inputs":[],"outputs":[{"name":"","type":"uint256","internalType":"uint256"}],"stateMutability":"view"},{"type":"function","name":"totalOracleList","inputs":[],"outputs":[{"name":"","type":"uint256","internalType":"uint256"}],"stateMutability":"view"},{"type":"function","name":"transferOwnership","inputs":[{"name":"newOwner","type":"address","internalType":"address"}],"outputs":[],"stateMutability":"nonpayable"},{"type":"function","name":"unpause","inputs":[],"outputs":[],"stateMutability":"nonpayable"},{"type":"function","name":"usdc","inputs":[],"outputs":[{"name":"","type":"address","internalType":"address"}],"stateMutability":"view"},{"type":"function","name":"usdcDecimals","inputs":[],"outputs":[{"name":"","type":"uint8","internalType":"uint8"}],"stateMutability":"view"},{"type":"function","name":"vault","inputs":[],"outputs":[{"name":"","type":"address","internalType":"contract NexVault"}],"stateMutability":"view"},{"type":"function","name":"wrappedDshareAddress","inputs":[{"name":"","type":"address","internalType":"address"}],"outputs":[{"name":"","type":"address","internalType":"address"}],"stateMutability":"view"},{"type":"event","name":"ChainlinkCancelled","inputs":[{"name":"id","type":"bytes32","indexed":true,"internalType":"bytes32"}],"anonymous":false},{"type":"event","name":"ChainlinkFulfilled","inputs":[{"name":"id","type":"bytes32","indexed":true,"internalType":"bytes32"}],"anonymous":false},{"type":"event","name":"ChainlinkRequested","inputs":[{"name":"id","type":"bytes32","indexed":true,"internalType":"bytes32"}],"anonymous":false},{"type":"event","name":"Initialized","inputs":[{"name":"version","type":"uint64","indexed":false,"internalType":"uint64"}],"anonymous":false},{"type":"event","name":"OwnershipTransferred","inputs":[{"name":"previousOwner","type":"address","indexed":true,"internalType":"address"},{"name":"newOwner","type":"address","indexed":true,"internalType":"address"}],"anonymous":false},{"type":"event","name":"Paused","inputs":[{"name":"account","type":"address","indexed":false,"internalType":"address"}],"anonymous":false},{"type":"event","name":"Unpaused","inputs":[{"name":"account","type":"address","indexed":false,"internalType":"address"}],"anonymous":false},{"type":"error","name":"EnforcedPause","inputs":[]},{"type":"error","name":"ExpectedPause","inputs":[]},{"type":"error","name":"InvalidInitialization","inputs":[]},{"type":"error","name":"NotInitializing","inputs":[]},{"type":"error","name":"OwnableInvalidOwner","inputs":[{"name":"owner","type":"address","internalType":"address"}]},{"type":"error","name":"OwnableUnauthorizedAccount","inputs":[{"name":"account","type":"address","internalType":"address"}]},{"type":"error","name":"PRBMath_MulDiv_Overflow","inputs":[{"name":"x","type":"uint256","internalType":"uint256"},{"name":"y","type":"uint256","internalType":"uint256"},{"name":"denominator","type":"uint256","internalType":"uint256"}]}],"bytecode":{"object":"0x6080604052348015600f57600080fd5b50616c038061001f6000396000f3fe608060405234801561001057600080fd5b50600436106104f95760003560e01c806384d77bb111610299578063b1dd819e11610167578063da65925a116100d9578063f14bea2011610092578063f14bea2014610db2578063f1f31d6614610dc5578063f2fde38b14610de5578063f513a71814610df8578063fbfa77cf14610e23578063fc0c546a14610e3657600080fd5b8063da65925a14610d25578063daf1c17d14610d50578063e19eefbe14610d70578063eab2a71114610d83578063edca4f5e14610d96578063efdf505314610d9f57600080fd5b8063b75f4c2c1161012b578063b75f4c2c14610cbc578063bb0498de14610ce5578063bed45bef14610ced578063c8599ded14610d00578063c8f33c9114610d09578063d57e049314610d1257600080fd5b8063b1dd819e14610c4b578063b411dc4114610c6b578063b46840f914610c7e578063b592662a14610ca1578063b59c360814610cb457600080fd5b80639932ba4c1161020b578063a84ebc17116101c4578063a84ebc1714610bb9578063a87f98d214610bdc578063a8b54bd414610bfc578063ab7820b214610c05578063addc70d114610c25578063b0e1213414610c3857600080fd5b80639932ba4c14610b235780639cc0fb5b14610b4c5780639dbb9c9e14610b5f578063a08d7bd614610b68578063a363b9cb14610b7b578063a73e1cbf14610ba657600080fd5b80639026544f1161025d5780639026544f14610a8d578063914f0cc614610aa05780639219e51014610ac057806392318df414610ad35780639467409814610ae6578063978bbdb914610b0f57600080fd5b806384d77bb1146109e95780638861d235146109f25780638c22189914610a125780638c88c10c14610a3d5780638da5cb5b14610a5d57600080fd5b806342faac05116103d6578063631c8385116103485780637bf42165116103015780637bf421651461096a5780637bfa27f2146109905780637ca58c55146109b3578063807ca237146109bb578063840ecba0146109ce5780638456cb59146109e157600080fd5b8063631c8385146108c55780636839a095146108d8578063715018a6146108eb57806375a3cb57146108f357806376529fdf1461091e578063780326581461094157600080fd5b80635177942a1161039a5780635177942a1461084b57806353fd43321461085e57806355cc4e571461086757806357b61bc31461087a5780635a6811661461088d5780635c975abb146108ad57600080fd5b806342faac05146107e557806343482fc8146107f257806346d66a2c146108055780634a1dc092146108185780634b3e0b801461082b57600080fd5b80632343acb41161046f5780632badae5d116104335780632badae5d1461076457806331c990101461078457806332f53f3c146107ad5780633e413bee146107b75780633f4ba83a146107ca5780633fac0922146107d257600080fd5b80632343acb4146106d7578063239aad0d146106ea578063248b761e14610713578063264fa8b91461072657806326a4e8d21461075157600080fd5b80630be52713116104c15780630be52713146105d05780630c02e130146105f05780630e329357146105f957806315e666a2146106195780631d143848146106b15780631e106e99146106c457600080fd5b8063011ced5f146104fe57806302e80f711461051a57806308dc4b0c14610543578063092755e0146105845780630b1a4918146105ad575b600080fd5b61050760355481565b6040519081526020015b60405180910390f35b610507610528366004615bc8565b60208080526000928352604080842090915290825290205481565b61056c610551366004615bf4565b6032602052600090815260409020546001600160a01b031681565b6040516001600160a01b039091168152602001610511565b61056c610592366004615bf4565b600f602052600090815260409020546001600160a01b031681565b6105c06105bb366004615c0f565b610e49565b6040519015158152602001610511565b6105076105de366004615bf4565b60126020526000908152604090205481565b61050760095481565b61060c610607366004615cdd565b610f2a565b6040516105119190615d90565b61069b610627366004615c0f565b60316020526000908152604090208054600182015460028301546003840154600485015460058601546006909601546001600160401b038616966001600160a01b03600160401b9097048716969586169585169460ff600160a01b8204811695600160a81b9092048116949193919291168a565b6040516105119a99989796959493929190615ddd565b601a5461056c906001600160a01b031681565b60195461056c906001600160a01b031681565b6105c06106e5366004615c0f565b610f57565b61056c6106f8366004615c0f565b600d602052600090815260409020546001600160a01b031681565b610507610721366004615c0f565b61104d565b610507610734366004615bc8565b602260209081526000928352604080842090915290825290205481565b6105c061075f366004615bf4565b611443565b610507610772366004615c0f565b60336020526000908152604090205481565b61056c610792366004615c0f565b602d602052600090815260409020546001600160a01b031681565b6107b56114c4565b005b601b5461056c906001600160a01b031681565b6107b56116e6565b6105c06107e0366004615c0f565b6116f8565b601f546105c09060ff1681565b6107b5610800366004615e52565b6117d5565b6107b5610813366004615c0f565b6117ec565b610507610826366004615c0f565b611cf4565b610507610839366004615bf4565b60136020526000908152604090205481565b6107b5610859366004615e8b565b612144565b610507600c5481565b6105c0610875366004615bf4565b61228e565b6107b5610888366004615f41565b61230c565b61050761089b366004615c0f565b60346020526000908152604090205481565b600080516020616bae8339815191525460ff166105c0565b6105c06108d3366004615c0f565b6123e2565b6105076108e6366004615bf4565b612694565b6107b5612823565b610507610901366004615bc8565b602460209081526000928352604080842090915290825290205481565b6105c061092c366004615c0f565b60156020526000908152604090205460ff1681565b61056c61094f366004615c0f565b602c602052600090815260409020546001600160a01b031681565b601b5461097e90600160a01b900460ff1681565b60405160ff9091168152602001610511565b6105c061099e366004615c0f565b602f6020526000908152604090205460ff1681565b610507612835565b6107b56109c9366004615c0f565b612a75565b6107b56109dc366004615c0f565b612c10565b6107b5612de1565b610507601d5481565b610507610a00366004615c0f565b60256020526000908152604090205481565b610507610a20366004615bc8565b602160209081526000928352604080842090915290825290205481565b610507610a4b366004615bf4565b60106020526000908152604090205481565b7f9016d09d72d40fdae2fd8ceac6b6234c7706214fd39c1cd1e609a0528c199300546001600160a01b031661056c565b6107b5610a9b366004615c0f565b612df1565b610507610aae366004615bf4565b60116020526000908152604090205481565b6107b5610ace366004615c0f565b6130aa565b6105c0610ae1366004615c0f565b61346c565b61056c610af4366004615c0f565b602b602052600090815260409020546001600160a01b031681565b601b5461097e90600160a81b900460ff1681565b61056c610b31366004615c0f565b600e602052600090815260409020546001600160a01b031681565b6105c0610b5a366004615bf4565b613560565b610507601c5481565b610507610b76366004615bf4565b6135e5565b610507610b89366004615bc8565b602860209081526000928352604080842090915290825290205481565b6107b5610bb4366004615cdd565b6136e0565b6105c0610bc7366004615c0f565b60146020526000908152604090205460ff1681565b610507610bea366004615c0f565b60266020526000908152604090205481565b61050760085481565b610507610c13366004615c0f565b60166020526000908152604090205481565b6107b5610c33366004615ff9565b613701565b6105c0610c46366004615c0f565b613713565b610507610c59366004615c0f565b60296020526000908152604090205481565b6107b5610c79366004615f41565b6137eb565b6105c0610c8c366004615c0f565b60306020526000908152604090205460ff1681565b6105c0610caf366004615c0f565b6138bc565b6107b5613b70565b61056c610cca366004615c0f565b602e602052600090815260409020546001600160a01b031681565b610507613c8c565b6107b5610cfb366004615c0f565b613cd4565b610507600b5481565b610507600a5481565b6107b5610d20366004616060565b6141fe565b610507610d33366004615bc8565b602760209081526000928352604080842090915290825290205481565b610507610d5e366004615c0f565b602a6020526000908152604090205481565b610507610d7e366004615c0f565b61448c565b6105c0610d91366004616107565b6145a3565b610507601e5481565b610507610dad366004615bf4565b61462c565b6107b5610dc036600461613e565b614664565b610dd8610dd3366004615c0f565b61472a565b60405161051191906161aa565b6107b5610df3366004615bf4565b614830565b610507610e06366004615bc8565b602360209081526000928352604080842090915290825290205481565b60185461056c906001600160a01b031681565b60175461056c906001600160a01b031681565b6000805b600c54811015610f21576000818152600e6020908152604080832054868452602383528184206001600160a01b0391821680865293529281902054601a5491516322fd455760e11b81526004810182905292939092600192909116906345fa8aae90602401602060405180830381865afa158015610ecf573d6000803e3d6000fd5b505050506040513d601f19601f82011682018060405250810190610ef3919061626f565b6003811115610f0457610f04615da3565b60ff1603610f1757506001949350505050565b5050600101610e4d565b50600092915050565b60608282604051602001610f3f929190616290565b60405160208183030381529060405290505b92915050565b60008060005b600c54811015611034576000818152600e6020908152604080832054878452602283528184206001600160a01b0391821680865293529281902054601a5491516322fd455760e11b81526004810182905292939092600292909116906345fa8aae90602401602060405180830381865afa158015610fdf573d6000803e3d6000fd5b505050506040513d601f19601f82011682018060405250810190611003919061626f565b600381111561101457611014615da3565b60ff160361102a576110276001856162d5565b93505b5050600101610f5d565b50600c548103610f215750600192915050565b50919050565b6000806110598361448c565b9050600061106784836162d5565b601b546040516323b872dd60e01b81529192506001600160a01b0316906323b872dd9061109c903390309086906004016162e8565b6020604051808303816000875af11580156110bb573d6000803e3d6000fd5b505050506040513d601f19601f820116820180604052508101906110df919061630c565b50601b54601a5460405163095ea7b360e01b81526001600160a01b0391821660048201526024810184905291169063095ea7b3906044016020604051808303816000875af1158015611135573d6000803e3d6000fd5b505050506040513d601f19601f82011682018060405250810190611159919061630c565b506001601c600082825461116d91906162d5565b9250508190555060003060405161118390615b06565b6001600160a01b039091168152602001604051809103906000f0801580156111af573d6000803e3d6000fd5b50601c546000908152602d6020526040812080546001600160a01b0319166001600160a01b0384161790559091505b600c54811015611436576000818152600e60209081526040808320546001600160a01b0316808452601290925282205490919068056bc75e2d6310000090611226908a616329565b6112309190616356565b9050600061123f83838761486e565b6000818152602560209081526040808320869055601c80548452602283528184206001600160a01b0389811680875291855283862087905591548552602b845282852080546001600160a01b031916331790558452600f9092528083205460185491516370a0823160e01b81529183166004830152939450919216906370a0823190602401602060405180830381865afa1580156112e1573d6000803e3d6000fd5b505050506040513d601f19601f82011682018060405250810190611305919061636a565b6001600160a01b038581166000908152600f602052604080822054905163266d6a8360e11b8152600481018590529394509092911690634cdad50690602401602060405180830381865afa158015611361573d6000803e3d6000fd5b505050506040513d601f19601f82011682018060405250810190611385919061636a565b601c5460009081526027602090815260408083206001600160a01b03808b1685529083529281902084905560175481516318160ddd60e01b81529151949550909216926318160ddd9260048082019392918290030181865afa1580156113ef573d6000803e3d6000fd5b505050506040513d601f19601f82011682018060405250810190611413919061636a565b601c546000908152602960205260409020555050600190930192506111de915050565b5050601c54949350505050565b600061144d614ae7565b6001600160a01b0382166114a05760405162461bcd60e51b8152602060048201526015602482015274696e76616c696420746f6b656e206164647265737360581b60448201526064015b60405180910390fd5b50601780546001600160a01b0319166001600160a01b03831617905560015b919050565b6114cc614ae7565b6001601e60008282546114df91906162d5565b9091555060009050805b600c548110156115f4576000818152600e60209081526040808320546001600160a01b039081168085526032909352908320549192916115299116612694565b6018546040516370a0823160e01b81526001600160a01b039182166004820152919250600091908416906370a0823190602401602060405180830381865afa158015611579573d6000803e3d6000fd5b505050506040513d601f19601f8201168201806040525081019061159d919061636a565b905060006115ab8383616329565b90508060346000601e54815260200190815260200160002060008282546115d291906162d5565b909155506115e2905081876162d5565b955050600190930192506114e9915050565b50601e5460009081526033602052604081208290555b600c548110156116e2576000818152600e6020908152604080832054601e54845260349092528220546001600160a01b0390911691846116538368056bc75e2d63100000616329565b61165d9190616356565b6001600160a01b0384166000908152601360205260409020549091508111156116d7576001600160a01b0383166000908152601360205260408120546116a4908390616383565b9050600068056bc75e2d631000006116bc8884616329565b6116c69190616356565b90506116d3858230614b42565b5050505b50505060010161160a565b5050565b6116ee614ae7565b6116f6614e76565b565b60008060005b600c54811015611034576000818152600e6020908152604080832054878452602383528184206001600160a01b0391821680865293529281902054601a5491516322fd455760e11b81526004810182905292939092600292909116906345fa8aae90602401602060405180830381865afa158015611780573d6000803e3d6000fd5b505050506040513d601f19601f820116820180604052508101906117a4919061626f565b60038111156117b5576117b5615da3565b60ff16036117cb576117c86001856162d5565b93505b50506001016116fe565b6117dd614ae7565b6117e682614ed6565b60085550565b60008181526014602052604090205460ff16156118435760405162461bcd60e51b8152602060048201526015602482015274125cdcdd585b98d9481a5cc818dbdb5c1b195d1959605a1b6044820152606401611497565b6000818152602b6020908152604080832054602d909252909120546001600160a01b0391821691163382146118c95760405162461bcd60e51b815260206004820152602660248201527f4f6e6c79207265717565737465722063616e2063616e63656c207468652069736044820152657375616e636560d01b6064820152608401611497565b60005b600c54811015611cee576000818152600e6020908152604080832054878452602283528184206001600160a01b03918216808652908452828520548086526031855283862084516101408101865281546001600160401b0381168252600160401b90048516968101969096526001818101548516958701959095526002810154938416606087015260ff600160a01b85048116151560808801529296919591949193909260a0850192600160a81b909204169081111561198e5761198e615da3565b600181111561199f5761199f615da3565b815260038281015460208301526004830154604083015260058301546060830152600683015460809092019160ff16908111156119de576119de615da3565b60038111156119ef576119ef615da3565b905250601a546040516322fd455760e11b8152600481018590529192506001916001600160a01b03909116906345fa8aae90602401602060405180830381865afa158015611a41573d6000803e3d6000fd5b505050506040513d601f19601f82011682018060405250810190611a65919061626f565b6003811115611a7657611a76615da3565b60ff1603611ae157601a546040516339a0e8b560e21b8152600481018490526001600160a01b039091169063e683a2d490602401600060405180830381600087803b158015611ac457600080fd5b505af1158015611ad8573d6000803e3d6000fd5b50505050611ce3565b601a546040516322fd455760e11b8152600481018490526002916001600160a01b0316906345fa8aae90602401602060405180830381865afa158015611b2b573d6000803e3d6000fd5b505050506040513d601f19601f82011682018060405250810190611b4f919061626f565b6003811115611b6057611b60615da3565b60ff161480611bda57506040516370a0823160e01b81526001600160a01b038681166004830152600091908516906370a0823190602401602060405180830381865afa158015611bb4573d6000803e3d6000fd5b505050506040513d601f19601f82011682018060405250810190611bd8919061636a565b115b15611ce3576040516370a0823160e01b81526001600160a01b038681166004830152600091908516906370a0823190602401602060405180830381865afa158015611c29573d6000803e3d6000fd5b505050506040513d601f19601f82011682018060405250810190611c4d919061636a565b6040516317ee7de960e11b81529091506001600160a01b03871690632fdcfbd290611c80908790309086906004016162e8565b600060405180830381600087803b158015611c9a57600080fd5b505af1158015611cae573d6000803e3d6000fd5b505050506000611cbf858389614b42565b60008a8152602080805260408083206001600160a01b038a16845290915290205550505b5050506001016118cc565b50505050565b60006001601d6000828254611d0991906162d5565b92505081905550600030604051611d1f90615b06565b6001600160a01b039091168152602001604051809103906000f080158015611d4b573d6000803e3d6000fd5b50601d546000908152602e6020908152604080832080546001600160a01b0319166001600160a01b038681169190911790915560175482516318160ddd60e01b8152925195965093949316926318160ddd926004808401939192918290030181865afa158015611dbf573d6000803e3d6000fd5b505050506040513d601f19601f82011682018060405250810190611de3919061636a565b611df585670de0b6b3a7640000616329565b611dff9190616356565b601754604051632770a7eb60e21b8152336004820152602481018790529192506001600160a01b031690639dc29fac90604401600060405180830381600087803b158015611e4c57600080fd5b505af1158015611e60573d6000803e3d6000fd5b5050601d5460009081526016602052604081208790559150505b600c54811015612138576000818152600e60209081526040808320546001600160a01b03908116808552600f9093528184205460185492516370a0823160e01b81529282166004840152929392670de0b6b3a7640000929116906370a0823190602401602060405180830381865afa158015611efa573d6000803e3d6000fd5b505050506040513d601f19601f82011682018060405250810190611f1e919061636a565b611f289086616329565b611f329190616356565b90506000611f41838388614b42565b6000818152602660209081526040808320869055601d80548452602383528184206001600160a01b0389811680875291855283862087905591548552602c845282852080546001600160a01b031916331790558452600f9092528083205460185491516370a0823160e01b81529183166004830152939450919216906370a0823190602401602060405180830381865afa158015611fe3573d6000803e3d6000fd5b505050506040513d601f19601f82011682018060405250810190612007919061636a565b6001600160a01b038581166000908152600f602052604080822054905163266d6a8360e11b8152600481018590529394509092911690634cdad50690602401602060405180830381865afa158015612063573d6000803e3d6000fd5b505050506040513d601f19601f82011682018060405250810190612087919061636a565b601d5460009081526028602090815260408083206001600160a01b03808b1685529083529281902084905560175481516318160ddd60e01b81529151949550909216926318160ddd9260048082019392918290030181865afa1580156120f1573d6000803e3d6000fd5b505050506040513d601f19601f82011682018060405250810190612115919061636a565b601d546000908152602a6020526040902055505060019093019250611e7a915050565b5050601d549392505050565b61214c614ae7565b60006035544261215c9190616383565b9050600c603c61216c8184616356565b6121769190616356565b116121e95760405162461bcd60e51b815260206004820152603960248201527f596f752073686f756c642077616974206174206c6561737420313220686f757260448201527f7320616674657220746865206c617465737420757064617465000000000000006064820152608401611497565b60648260ff1611158015612201575060018260ff1610155b6122695760405162461bcd60e51b815260206004820152603360248201527f546865206e65774665652073686f756c64206265206265747765656e203120616044820152726e64203130302028302e303125202d2031252960681b6064820152608401611497565b50601b805460ff909216600160a81b0260ff60a81b1990921691909117905542603555565b6000612298614ae7565b6001600160a01b0382166122e75760405162461bcd60e51b8152602060048201526016602482015275696e76616c696420697373756572206164647265737360501b6044820152606401611497565b50601a80546001600160a01b0383166001600160a01b03199091161790556001919050565b612314614ae7565b805182511461235d5760405162461bcd60e51b8152602060048201526015602482015274082e4e4c2f240d8cadccee8d040dad2e6dac2e8c6d605b1b6044820152606401611497565b60005b82518110156123dd5781818151811061237b5761237b616396565b60200260200101516032600085848151811061239957612399616396565b6020908102919091018101516001600160a01b0390811683529082019290925260400160002080546001600160a01b03191692909116919091179055600101612360565b505050565b60008060005b600c54811015611034576000818152600e6020908152604080832054878452602283528184206001600160a01b0391821680865290845282852054898652602d9094528285205492516370a0823160e01b815292909116600483018190529093909184906370a0823190602401602060405180830381865afa158015612472573d6000803e3d6000fd5b505050506040513d601f19601f82011682018060405250810190612496919061636a565b601a546040516322fd455760e11b8152600481018690529192506003916001600160a01b03909116906345fa8aae90602401602060405180830381865afa1580156124e5573d6000803e3d6000fd5b505050506040513d601f19601f82011682018060405250810190612509919061626f565b600381111561251a5761251a615da3565b60ff16148015612528575080155b1561253f576125386001876162d5565b9550612684565b601a546040516322fd455760e11b8152600481018590526002916001600160a01b0316906345fa8aae90602401602060405180830381865afa158015612589573d6000803e3d6000fd5b505050506040513d601f19601f820116820180604052508101906125ad919061626f565b60038111156125be576125be615da3565b60ff161480156125cc575080155b15612684576000888152602080805260408083206001600160a01b03888116855292529182902054601a5492516322fd455760e11b815260048101829052909260029216906345fa8aae90602401602060405180830381865afa158015612637573d6000803e3d6000fd5b505050506040513d601f19601f8201168201806040525081019061265b919061626f565b600381111561266c5761266c615da3565b60ff16036126825761267f6001886162d5565b96505b505b5050600190920191506123e89050565b601f5460009060ff161561279f576001600160a01b03808316600090815260326020526040808220548151633fabe5a360e21b81529151931692839163feaf968c9160048083019260a09291908290030181865afa1580156126fa573d6000803e3d6000fd5b505050506040513d601f19601f8201168201806040525081019061271e91906163c6565b5050509150506000826001600160a01b031663313ce5676040518163ffffffff1660e01b8152600401602060405180830381865afa158015612764573d6000803e3d6000fd5b505050506040513d601f19601f820116820180604052508101906127889190616416565b905061279682826012614ef8565b95945050505050565b601a54601b5460405163a377cfbf60e01b81526001600160a01b0385811660048301529182166024820152600092919091169063a377cfbf906044016040805180830381865afa1580156127f7573d6000803e3d6000fd5b505050506040513d601f19601f8201168201806040525081019061281b9190616433565b519392505050565b61282b614ae7565b6116f66000614f38565b6000806129566006805461284890616492565b80601f016020809104026020016040519081016040528092919081815260200182805461287490616492565b80156128c15780601f10612896576101008083540402835291602001916128c1565b820191906000526020600020905b8154815290600101906020018083116128a457829003601f168201915b5050505050600780546128d390616492565b80601f01602080910402602001604051908101604052809291908181526020018280546128ff90616492565b801561294c5780601f106129215761010080835404028352916020019161294c565b820191906000526020600020905b81548152906001019060200180831161292f57829003601f168201915b5050505050610f2a565b9050600061296e6008543063f14bea2060e01b614fa9565b60408051808201909152600381526219d95d60ea1b602082015290915061299790829084614fc5565b6129f260405180604001604052806005815260200164706174683160d81b81525060405180604001604052806011815260200170726573756c74732c61646472657373657360781b81525083614fc59092919063ffffffff16565b612a50604051806040016040528060058152602001643830ba341960d91b81525060405180604001604052806014815260200173726573756c74732c6d61726b657453686172657360601b81525083614fc59092919063ffffffff16565b612a6e612a656003546001600160a01b031690565b82600954614fe3565b9250505090565b612a7e816123e2565b612aca5760405162461bcd60e51b815260206004820181905260248201527f43616e63656c2069737375616e6365206973206e6f7420636f6d706c657465646044820152606401611497565b6000818152602f602052604090205460ff1615612af95760405162461bcd60e51b8152600401611497906164c6565b6000818152602b6020908152604080832054602d90925280832054601b5491516370a0823160e01b81526001600160a01b0391821660048201819052938216949291909116906370a0823190602401602060405180830381865afa158015612b65573d6000803e3d6000fd5b505050506040513d601f19601f82011682018060405250810190612b89919061636a565b601b546040516317ee7de960e11b81529192506001600160a01b0380851692632fdcfbd292612bc0921690879086906004016162e8565b600060405180830381600087803b158015612bda57600080fd5b505af1158015612bee573d6000803e3d6000fd5b50505060009485525050602f602052505060409020805460ff19166001179055565b612c19816116f8565b612c715760405162461bcd60e51b815260206004820152602360248201527f526564656d7074696f6e206f726465727320617265206e6f7420636f6d706c656044820152621d195960ea1b6064820152608401611497565b60008181526015602052604090205460ff1615612cca5760405162461bcd60e51b8152602060048201526017602482015276149959195b5c1d1a5bdb881a5cc818dbdb5c1b195d1959604a1b6044820152606401611497565b6000818152602c6020908152604080832054602e90925280832054601b5491516370a0823160e01b81526001600160a01b0391821660048201819052938216949291909116906370a0823190602401602060405180830381865afa158015612d36573d6000803e3d6000fd5b505050506040513d601f19601f82011682018060405250810190612d5a919061636a565b601b546040516317ee7de960e11b81529192506001600160a01b0380851692632fdcfbd292612d91921690879086906004016162e8565b600060405180830381600087803b158015612dab57600080fd5b505af1158015612dbf573d6000803e3d6000fd5b505050600094855250506015602052505060409020805460ff19166001179055565b612de9614ae7565b6116f6615076565b612dfa816138bc565b612e515760405162461bcd60e51b815260206004820152602260248201527f43616e63656c20726564656d7074696f6e206973206e6f7420636f6d706c6574604482015261195960f21b6064820152608401611497565b60008181526030602052604090205460ff1615612e805760405162461bcd60e51b8152600401611497906164c6565b6000818152602c6020908152604080832054602e90925280832054601b5491516370a0823160e01b81526001600160a01b0391821660048201819052938216949291909116906370a0823190602401602060405180830381865afa158015612eec573d6000803e3d6000fd5b505050506040513d601f19601f82011682018060405250810190612f10919061636a565b905060005b600c54811015613015576000818152600e60205260408082205490516370a0823160e01b81526001600160a01b038681166004830152909116919082906370a0823190602401602060405180830381865afa158015612f78573d6000803e3d6000fd5b505050506040513d601f19601f82011682018060405250810190612f9c919061636a565b9050801561300b576018546040516317ee7de960e11b81526001600160a01b0380881692632fdcfbd292612fd8928792169086906004016162e8565b600060405180830381600087803b158015612ff257600080fd5b505af1158015613006573d6000803e3d6000fd5b505050505b5050600101612f15565b50601754600085815260166020526040908190205490516340c10f1960e01b81526001600160a01b03868116600483015260248201929092529116906340c10f1990604401600060405180830381600087803b15801561307457600080fd5b505af1158015613088573d6000803e3d6000fd5b505050600094855250506030602052505060409020805460ff19166001179055565b60008181526015602052604090205460ff16156131035760405162461bcd60e51b8152602060048201526017602482015276149959195b5c1d1a5bdb881a5cc818dbdb5c1b195d1959604a1b6044820152606401611497565b6000818152602c6020908152604080832054602e909252909120546001600160a01b03918216911633821461318b5760405162461bcd60e51b815260206004820152602860248201527f4f6e6c79207265717565737465722063616e2063616e63656c207468652072656044820152673232b6b83a34b7b760c11b6064820152608401611497565b60005b600c54811015611cee576000818152600e6020908152604080832054878452602383528184206001600160a01b03918216808652908452828520548086526031855283862084516101408101865281546001600160401b0381168252600160401b90048516968101969096526001818101548516958701959095526002810154938416606087015260ff600160a01b85048116151560808801529296919591949193909260a0850192600160a81b909204169081111561325057613250615da3565b600181111561326157613261615da3565b815260038281015460208301526004830154604083015260058301546060830152600683015460809092019160ff16908111156132a0576132a0615da3565b60038111156132b1576132b1615da3565b905250601a5460405163187b2ed160e21b8152600481018590529192506000916001600160a01b03909116906361ecbb4490602401602060405180830381865afa158015613303573d6000803e3d6000fd5b505050506040513d601f19601f82011682018060405250810190613327919061636a565b601a546040516322fd455760e11b8152600481018690529192506002916001600160a01b03909116906345fa8aae90602401602060405180830381865afa158015613376573d6000803e3d6000fd5b505050506040513d601f19601f8201168201806040525081019061339a919061626f565b60038111156133ab576133ab615da3565b60ff1614806133ba5750600081115b1561345c57601b546040516317ee7de960e11b81526001600160a01b0388811692632fdcfbd2926133f59290911690309086906004016162e8565b600060405180830381600087803b15801561340f57600080fd5b505af1158015613423573d6000803e3d6000fd5b50505050600061343485838961486e565b505060008881526021602090815260408083206001600160a01b038816845290915290208390555b50506001909201915061318e9050565b60008060005b600c54811015613556576000818152600e6020908152604080832054878452602383528184206001600160a01b03909116808552925290912054801580159061353b5750601a546040516322fd455760e11b8152600481018390526002916001600160a01b0316906345fa8aae90602401602060405180830381865afa158015613500573d6000803e3d6000fd5b505050506040513d601f19601f82011682018060405250810190613524919061626f565b600381111561353557613535615da3565b60ff1614155b1561354c5750600095945050505050565b5050600101613472565b5060019392505050565b600061356a614ae7565b6001600160a01b0382166135c05760405162461bcd60e51b815260206004820181905260248201527f696e76616c696420637573746f6469616e2077616c6c657420616464726573736044820152606401611497565b50601980546001600160a01b0383166001600160a01b03199091161790556001919050565b6001600160a01b038181166000908152600f60205260408082205460185491516370a0823160e01b8152918416600483015291929190911690829082906370a0823190602401602060405180830381865afa158015613648573d6000803e3d6000fd5b505050506040513d601f19601f8201168201806040525081019061366c919061636a565b60405163266d6a8360e11b8152600481018290529091506001600160a01b03831690634cdad50690602401602060405180830381865afa1580156136b4573d6000803e3d6000fd5b505050506040513d601f19601f820116820180604052508101906136d8919061636a565b949350505050565b6136e8614ae7565b60066136f4838261655b565b5060076123dd828261655b565b613709614ae7565b6116e282826150bf565b6000805b600c54811015610f21576000818152600e6020908152604080832054868452602283528184206001600160a01b0391821680865293529281902054601a5491516322fd455760e11b81526004810182905292939092600192909116906345fa8aae90602401602060405180830381865afa158015613799573d6000803e3d6000fd5b505050506040513d601f19601f820116820180604052508101906137bd919061626f565b60038111156137ce576137ce615da3565b60ff16036137e157506001949350505050565b5050600101613717565b6137f3614ae7565b805182511461383c5760405162461bcd60e51b8152602060048201526015602482015274082e4e4c2f240d8cadccee8d040dad2e6dac2e8c6d605b1b6044820152606401611497565b60005b82518110156123dd5781818151811061385a5761385a616396565b6020026020010151600f600085848151811061387857613878616396565b6020908102919091018101516001600160a01b0390811683529082019290925260400160002080546001600160a01b0319169290911691909117905560010161383f565b60008060005b600c54811015611034576000818152600e6020908152604080832054878452602383528184206001600160a01b0391821680865290845282852054898652602e9094528285205492516370a0823160e01b815292909116600483018190529093909184906370a0823190602401602060405180830381865afa15801561394c573d6000803e3d6000fd5b505050506040513d601f19601f82011682018060405250810190613970919061636a565b601a546040516322fd455760e11b8152600481018690529192506003916001600160a01b03909116906345fa8aae90602401602060405180830381865afa1580156139bf573d6000803e3d6000fd5b505050506040513d601f19601f820116820180604052508101906139e3919061626f565b60038111156139f4576139f4615da3565b60ff16148015613a02575080155b15613a1957613a126001876162d5565b9550613b60565b601a546040516322fd455760e11b8152600481018590526002916001600160a01b0316906345fa8aae90602401602060405180830381865afa158015613a63573d6000803e3d6000fd5b505050506040513d601f19601f82011682018060405250810190613a87919061626f565b6003811115613a9857613a98615da3565b60ff16148015613aa6575080155b15613b605760008881526021602090815260408083206001600160a01b03888116855292529182902054601a5492516322fd455760e11b815260048101829052909260029216906345fa8aae90602401602060405180830381865afa158015613b13573d6000803e3d6000fd5b505050506040513d601f19601f82011682018060405250810190613b37919061626f565b6003811115613b4857613b48615da3565b60ff1603613b5e57613b5b6001886162d5565b96505b505b5050600190920191506138c29050565b613b78614ae7565b601e54600090815260336020526040812054905b600c548110156116e2576000818152600e6020908152604080832054601e54845260349092528220546001600160a01b039091169184613bd58368056bc75e2d63100000616329565b613bdf9190616356565b6001600160a01b038416600090815260136020526040902054909150811015613c81576001600160a01b038316600090815260136020526040812054613c26908390616383565b9050600068056bc75e2d63100000613c3e8884616329565b613c489190616356565b90506000613c5786833061486e565b601e5460009081526024602090815260408083206001600160a01b038b1684529091529020555050505b505050600101613b8c565b60008060005b600c54811015611047576000818152600e6020526040812054613cbd906001600160a01b031661462c565b9050613cc981846162d5565b925050600101613c92565b613cdd81610f57565b613d295760405162461bcd60e51b815260206004820152601860248201527f4f726465727320617265206e6f7420636f6d706c6574656400000000000000006044820152606401611497565b60008181526014602052604090205460ff1615613d805760405162461bcd60e51b8152602060048201526015602482015274125cdcdd585b98d9481a5cc818dbdb5c1b195d1959605a1b6044820152606401611497565b6000818152602b60205260408120546001600160a01b03169080805b600c548110156140b8576000818152600e6020908152604080832054888452602283528184206001600160a01b03918216808652935281842054601a54601b54935163a377cfbf60e01b815260048101869052938316602485015293949093909291169063a377cfbf906044016040805180830381865afa158015613e25573d6000803e3d6000fd5b505050506040513d601f19601f82011682018060405250810190613e499190616433565b6000898152602d60205260408082205490516370a0823160e01b81526001600160a01b0391821660048201819052939450908616906370a0823190602401602060405180830381865afa158015613ea4573d6000803e3d6000fd5b505050506040513d601f19601f82011682018060405250810190613ec8919061636a565b60008b81526027602090815260408083206001600160a01b038a168452909152812054855192935091613efb9083616329565b60008781526025602052604081205491925090613f1890836162d5565b9050613f24828c6162d5565b9a50613f30818b6162d5565b6040516317ee7de960e11b8152909a506001600160a01b03861690632fdcfbd290613f63908b90309089906004016162e8565b600060405180830381600087803b158015613f7d57600080fd5b505af1158015613f91573d6000803e3d6000fd5b505050506001600160a01b038881166000818152600f60205260409081902054905163095ea7b360e01b815292166004830152602482018690529063095ea7b3906044016020604051808303816000875af1158015613ff4573d6000803e3d6000fd5b505050506040513d601f19601f82011682018060405250810190614018919061630c565b506001600160a01b038881166000908152600f602052604090819020546018549151636e553f6560e01b815260048101889052918316602483015290911690636e553f65906044016020604051808303816000875af115801561407f573d6000803e3d6000fd5b505050506040513d601f19601f820116820180604052508101906140a3919061636a565b505060019097019650613d9c95505050505050565b506000848152602960205260408120549081900361414b5760006140dd836064616329565b6017546040516340c10f1960e01b81526001600160a01b038881166004830152602482018490529293509116906340c10f1990604401600060405180830381600087803b15801561412d57600080fd5b505af1158015614141573d6000803e3d6000fd5b50505050506141db565b6000836141588484616329565b6141629190616356565b905060006141708383616383565b6017546040516340c10f1960e01b81526001600160a01b038981166004830152602482018490529293509116906340c10f1990604401600060405180830381600087803b1580156141c057600080fd5b505af11580156141d4573d6000803e3d6000fd5b5050505050505b5050601c546000908152601460205260409020805460ff19166001179055505050565b7ff0c57e16840df040f15088dc2f81fe391c3923bec73e23a9662efc9c229c6a008054600160401b810460ff1615906001600160401b03166000811580156142435750825b90506000826001600160401b0316600114801561425f5750303b155b90508115801561426d575080155b1561428b5760405163f92ee8a960e01b815260040160405180910390fd5b845467ffffffffffffffff1916600117855583156142b557845460ff60401b1916600160401b1785555b8d601a60006101000a8154816001600160a01b0302191690836001600160a01b031602179055508c601760006101000a8154816001600160a01b0302191690836001600160a01b031602179055508b601860006101000a8154816001600160a01b0302191690836001600160a01b031602179055508a601b60006101000a8154816001600160a01b0302191690836001600160a01b0316021790555089601b60146101000a81548160ff021916908360ff160217905550614375336152e0565b61437d6152f1565b601b805460ff60a81b1916600560a91b179055600280546001600160a01b0319166001600160a01b038b161790556143b488614ed6565b6008879055600a6143ce670de0b6b3a76400006001616329565b6143d89190616356565b6009556040805160608101909152602a808252616b566020830139600690614400908261655b565b506040518060600160405280602e8152602001616b80602e9139600790614427908261655b565b50601f805460ff1916871515179055831561447c57845460ff60401b19168555604051600181527fc7f505b2f371ae2175ee4913f4499e1f2633a7b5936321eed1cdaeb6115181d29060200160405180910390a15b5050505050505050505050505050565b60008060005b600c5481101561459c576000818152600e60209081526040808320546001600160a01b0316808452601290925282205490919068056bc75e2d63100000906144da9088616329565b6144e49190616356565b601a54601b546040516308da5c3560e21b81526000600482018190526001600160a01b0392831660248301529394508392919091169063236970d4906044016040805180830381865afa15801561453f573d6000803e3d6000fd5b505050506040513d601f19601f82011682018060405250810190614563919061661a565b9150915060006145738285615301565b61457d90846162d5565b905061458981886162d5565b9650506001909401935061449292505050565b5092915050565b60006145ad614ae7565b6001600160a01b0383166145fb5760405162461bcd60e51b8152602060048201526015602482015274696e76616c696420746f6b656e206164647265737360581b6044820152606401611497565b50601b805460ff8316600160a01b026001600160a81b03199091166001600160a01b03851617179055600192915050565b60008061463883612694565b90506000614645846135e5565b9050670de0b6b3a764000061465a8383616329565b6136d89190616356565b60008381526005602052604090205483906001600160a01b031633146146dd5760405162461bcd60e51b815260206004820152602860248201527f536f75726365206d75737420626520746865206f7261636c65206f6620746865604482015267081c995c5d595cdd60c21b6064820152608401611497565b60008181526005602052604080822080546001600160a01b03191690555182917f7cc135e0cebb02c3480ae5d74d377283180a2601f8f644edf7987b009316c63a91a2611cee83836150bf565b614732615b13565b60008281526031602090815260409182902082516101408101845281546001600160401b03811682526001600160a01b03600160401b9091048116938201939093526001808301548416948201949094526002820154928316606082015260ff600160a01b84048116151560808301529093919260a0850192600160a81b909104909116908111156147c6576147c6615da3565b60018111156147d7576147d7615da3565b815260038281015460208301526004830154604083015260058301546060830152600683015460809092019160ff169081111561481657614816615da3565b600381111561482757614827615da3565b90525092915050565b614838614ae7565b6001600160a01b03811661486257604051631e4fbdf760e01b815260006004820152602401611497565b61486b81614f38565b50565b601a54601b546040516308da5c3560e21b81526000600482018190526001600160a01b039283166024830152928392839291169063236970d4906044016040805180830381865afa1580156148c7573d6000803e3d6000fd5b505050506040513d601f19601f820116820180604052508101906148eb919061661a565b9150915060006148fb8287615301565b61490590846162d5565b90506000614913600061532a565b6001600160a01b0380881660208301528916604082015260e081018890529050600061493f83896162d5565b601a5460405163aa2165f160e01b81529192506000916001600160a01b039091169063aa2165f1906149759086906004016161aa565b6020604051808303816000875af1158015614994573d6000803e3d6000fd5b505050506040513d601f19601f820116820180604052508101906149b8919061636a565b60008181526031602090815260409182902086518154928801516001600160401b039091166001600160e01b031990931692909217600160401b6001600160a01b039384160217815591860151600180840180546001600160a01b03191692841692909217909155606087015160028401805460808a0151929094166001600160a81b031990941693909317600160a01b911515919091021780835560a08801519495508794929160ff60a81b1990911690600160a81b908490811115614a8157614a81615da3565b021790555060c0820151816003015560e0820151816004015561010082015181600501556101208201518160060160006101000a81548160ff02191690836003811115614ad057614ad0615da3565b0217905550919750505050505050505b9392505050565b33614b197f9016d09d72d40fdae2fd8ceac6b6234c7706214fd39c1cd1e609a0528c199300546001600160a01b031690565b6001600160a01b0316146116f65760405163118cdaa760e01b8152336004820152602401611497565b6001600160a01b038084166000908152600f6020526040808220546018549151631c20fadd60e01b8152929390811692911690631c20fadd90614b8d908490309089906004016162e8565b600060405180830381600087803b158015614ba757600080fd5b505af1158015614bbb573d6000803e3d6000fd5b5050604051635d043b2960e11b81526004810187905230602482018190526044820152600092506001600160a01b038416915063ba087652906064016020604051808303816000875af1158015614c16573d6000803e3d6000fd5b505050506040513d601f19601f82011682018060405250810190614c3a919061636a565b90506000614c48600161532a565b6001600160a01b03888116604083810182905260c084018690528883166020850152601a54905163095ea7b360e01b8152921660048301526024820185905291925063095ea7b3906044016020604051808303816000875af1158015614cb2573d6000803e3d6000fd5b505050506040513d601f19601f82011682018060405250810190614cd6919061630c565b50601a5460405163aa2165f160e01b81526000916001600160a01b03169063aa2165f190614d089085906004016161aa565b6020604051808303816000875af1158015614d27573d6000803e3d6000fd5b505050506040513d601f19601f82011682018060405250810190614d4b919061636a565b60008181526031602090815260409182902085518154928701516001600160401b039091166001600160e01b031990931692909217600160401b6001600160a01b039384160217815591850151600180840180546001600160a01b0319169284169290921790915560608601516002840180546080890151929094166001600160a81b031990941693909317600160a01b911515919091021780835560a08701519495508694929160ff60a81b1990911690600160a81b908490811115614e1457614e14615da3565b021790555060c0820151816003015560e0820151816004015561010082015181600501556101208201518160060160006101000a81548160ff02191690836003811115614e6357614e63615da3565b0217905550919998505050505050505050565b614e7e6153e1565b600080516020616bae833981519152805460ff191681557f5db9ee0a495bf2e6ff9c91a7834c1ba4fdd244a5e8aa4e537bd38aeae4b073aa335b6040516001600160a01b03909116815260200160405180910390a150565b600380546001600160a01b0319166001600160a01b0392909216919091179055565b60008260ff168260ff161115614f2e57614f128383616647565b614f1d90600a616744565b614f279085616753565b9050614ae0565b614f128284616647565b7f9016d09d72d40fdae2fd8ceac6b6234c7706214fd39c1cd1e609a0528c19930080546001600160a01b031981166001600160a01b03848116918217845560405192169182907f8be0079c531659141344cd1fd0a4f28419497f9722a3daafe3b4186f6b6457e090600090a3505050565b614fb1615b76565b614fb9615b76565b61279681868686615411565b6080830151614fd4908361544e565b60808301516123dd908261544e565b600454600090614ff48160016162d5565b600455835160408086015160808701515191516000936320214ca360e11b9361502c9386938493923092918a91600191602401616783565b60408051601f198184030181529190526020810180516001600160e01b03166001600160e01b031990931692909217909152905061506c86838684615465565b9695505050505050565b61507e6155c3565b600080516020616bae833981519152805460ff191660011781557f62e78cea01bee320cd4e420270b5ea74000d11b0c9f74754ebdbfc544b05a25833614eb8565b818160005b82518110156152c0578281815181106150df576150df616396565b6020026020010151600d600083815260200190815260200160002060006101000a8154816001600160a01b0302191690836001600160a01b03160217905550806010600085848151811061513557615135616396565b60200260200101516001600160a01b03166001600160a01b031681526020019081526020016000208190555081818151811061517357615173616396565b60200260200101516013600085848151811061519157615191616396565b60200260200101516001600160a01b03166001600160a01b0316815260200190815260200160002081905550600c546000036152b8578281815181106151d9576151d9616396565b6020026020010151600e600083815260200190815260200160002060006101000a8154816001600160a01b0302191690836001600160a01b0316021790555081818151811061522a5761522a616396565b60200260200101516012600085848151811061524857615248616396565b60200260200101516001600160a01b03166001600160a01b0316815260200190815260200160002081905550806011600085848151811061528b5761528b616396565b60200260200101516001600160a01b03166001600160a01b03168152602001908152602001600020819055505b6001016150c4565b508151600b55600c546000036152d6578151600c555b505042600a555050565b6152e86155f4565b61486b8161563d565b6152f96155f4565b6116f6615645565b60008262ffffff16600003615317576000614ae0565b614ae08262ffffff8516620f4240615666565b615332615b13565b60408051610140810182526001600160401b03421681523060208201526017546001600160a01b0390811692820192909252601b549091166060820152821515608082015260a08101600081526020018361538e576000615399565b68056bc75e2d631000005b68ffffffffffffffffff168152602001836153bd5768056bc75e2d631000006153c0565b60005b68ffffffffffffffffff168152600060208201526040016001905292915050565b600080516020616bae8339815191525460ff166116f657604051638dfc202b60e01b815260040160405180910390fd5b615419615b76565b615429856080015161010061573a565b50509183526001600160a01b031660208301526001600160e01b031916604082015290565b61545b826003835161579f565b6123dd82826158a6565b6040516bffffffffffffffffffffffff193060601b1660208201526034810184905260009060540160408051808303601f1901815282825280516020918201206000818152600590925291812080546001600160a01b0319166001600160a01b038a1617905590925082917fb5e6e01e79f91267dc17b4e6314d5d4d03593d2ceee0fbb452b750bd70ea5af99190a2600254604051630200057560e51b81526001600160a01b0390911690634000aea090615528908890879087906004016167dc565b6020604051808303816000875af1158015615547573d6000803e3d6000fd5b505050506040513d601f19601f8201168201806040525081019061556b919061630c565b6136d85760405162461bcd60e51b815260206004820152602360248201527f756e61626c6520746f207472616e73666572416e6443616c6c20746f206f7261604482015262636c6560e81b6064820152608401611497565b600080516020616bae8339815191525460ff16156116f65760405163d93c066560e01b815260040160405180910390fd5b7ff0c57e16840df040f15088dc2f81fe391c3923bec73e23a9662efc9c229c6a0054600160401b900460ff166116f657604051631afcd79f60e31b815260040160405180910390fd5b6148386155f4565b61564d6155f4565b600080516020616bae833981519152805460ff19169055565b60008080600019858709858702925082811083820303915050806000036156a05783828161569657615696616340565b0492505050614ae0565b8381106156d157604051630c740aef60e31b8152600481018790526024810186905260448101859052606401611497565b60008486880960026001871981018816978890046003810283188082028403028082028403028082028403028082028403028082028403029081029092039091026000889003889004909101858311909403939093029303949094049190911702949350505050565b60408051808201909152606081526000602082015261575a602083616803565b156157825761576a602083616803565b615775906020616383565b61577f90836162d5565b91505b506020828101829052604080518085526000815290920101905290565b6017816001600160401b0316116157c357611cee8360e0600585901b1683176158cd565b60ff816001600160401b0316116157ff576157e9836018611fe0600586901b16176158cd565b50611cee836001600160401b03831660016158f2565b61ffff816001600160401b03161161583c57615826836019611fe0600586901b16176158cd565b50611cee836001600160401b03831660026158f2565b63ffffffff816001600160401b03161161587b5761586583601a611fe0600586901b16176158cd565b50611cee836001600160401b03831660046158f2565b61589083601b611fe0600586901b16176158cd565b50611cee836001600160401b03831660086158f2565b604080518082019091526060815260006020820152614ae083846000015151848551615918565b604080518082019091526060815260006020820152614ae08384600001515184615a02565b6040805180820190915260608152600060208201526136d8848560000151518585615a5d565b604080518082019091526060815260006020820152825182111561593b57600080fd5b602085015161594a83866162d5565b111561597d5761597d8561596d8760200151878661596891906162d5565b615ade565b615978906002616329565b615aef565b60008086518051876020830101935080888701111561599c5787860182525b505050602084015b602084106159dc57805182526159bb6020836162d5565b91506159c86020826162d5565b90506159d5602085616383565b93506159a4565b51815160001960208690036101000a019081169019919091161790525083949350505050565b60408051808201909152606081526000602082015283602001518310615a3757615a3784856020015160026159789190616329565b8351805160208583010184815350808503615a53576001810182525b5093949350505050565b6040805180820190915260608152600060208201526020850151615a8185846162d5565b1115615a9557615a958561596d86856162d5565b60006001615aa584610100616817565b615aaf9190616383565b9050855183868201018583198251161781525080518487011115615ad35783860181525b509495945050505050565b600081831115611047575081610f51565b8151615afb838361573a565b50611cee83826158a6565b6103328061682483390190565b604080516101408101825260008082526020820181905291810182905260608101829052608081018290529060a0820190815260200160008152602001600081526020016000815260200160006003811115615b7157615b71615da3565b905290565b6040805160a0810182526000808252602080830182905282840182905260608084018390528451808601909552845283015290608082015290565b80356001600160a01b03811681146114bf57600080fd5b60008060408385031215615bdb57600080fd5b82359150615beb60208401615bb1565b90509250929050565b600060208284031215615c0657600080fd5b614ae082615bb1565b600060208284031215615c2157600080fd5b5035919050565b634e487b7160e01b600052604160045260246000fd5b604051601f8201601f191681016001600160401b0381118282101715615c6657615c66615c28565b604052919050565b600082601f830112615c7f57600080fd5b81356001600160401b03811115615c9857615c98615c28565b615cab601f8201601f1916602001615c3e565b818152846020838601011115615cc057600080fd5b816020850160208301376000918101602001919091529392505050565b60008060408385031215615cf057600080fd5b82356001600160401b0380821115615d0757600080fd5b615d1386838701615c6e565b93506020850135915080821115615d2957600080fd5b50615d3685828601615c6e565b9150509250929050565b60005b83811015615d5b578181015183820152602001615d43565b50506000910152565b60008151808452615d7c816020860160208601615d40565b601f01601f19169290920160200192915050565b602081526000614ae06020830184615d64565b634e487b7160e01b600052602160045260246000fd5b60028110615dc957615dc9615da3565b9052565b60048110615dc957615dc9615da3565b6001600160401b038b1681526001600160a01b038a8116602083015289811660408301528816606082015286151560808201526101408101615e2260a0830188615db9565b8560c08301528460e083015283610100830152615e43610120830184615dcd565b9b9a5050505050505050505050565b60008060408385031215615e6557600080fd5b615e6e83615bb1565b946020939093013593505050565b60ff8116811461486b57600080fd5b600060208284031215615e9d57600080fd5b8135614ae081615e7c565b60006001600160401b03821115615ec157615ec1615c28565b5060051b60200190565b600082601f830112615edc57600080fd5b81356020615ef1615eec83615ea8565b615c3e565b8083825260208201915060208460051b870101935086841115615f1357600080fd5b602086015b84811015615f3657615f2981615bb1565b8352918301918301615f18565b509695505050505050565b60008060408385031215615f5457600080fd5b82356001600160401b0380821115615f6b57600080fd5b615f7786838701615ecb565b93506020850135915080821115615f8d57600080fd5b50615d3685828601615ecb565b600082601f830112615fab57600080fd5b81356020615fbb615eec83615ea8565b8083825260208201915060208460051b870101935086841115615fdd57600080fd5b602086015b84811015615f365780358352918301918301615fe2565b6000806040838503121561600c57600080fd5b82356001600160401b038082111561602357600080fd5b61602f86838701615ecb565b9350602085013591508082111561604557600080fd5b50615d3685828601615f9a565b801515811461486b57600080fd5b60008060008060008060008060006101208a8c03121561607f57600080fd5b6160888a615bb1565b985061609660208b01615bb1565b97506160a460408b01615bb1565b96506160b260608b01615bb1565b955060808a01356160c281615e7c565b94506160d060a08b01615bb1565b93506160de60c08b01615bb1565b925060e08a013591506101008a01356160f681616052565b809150509295985092959850929598565b6000806040838503121561611a57600080fd5b61612383615bb1565b9150602083013561613381615e7c565b809150509250929050565b60008060006060848603121561615357600080fd5b8335925060208401356001600160401b038082111561617157600080fd5b61617d87838801615ecb565b9350604086013591508082111561619357600080fd5b506161a086828701615f9a565b9150509250925092565b81516001600160401b03168152610140810160208301516161d660208401826001600160a01b03169052565b5060408301516161f160408401826001600160a01b03169052565b50606083015161620c60608401826001600160a01b03169052565b506080830151616220608084018215159052565b5060a083015161623360a0840182615db9565b5060c083015160c083015260e083015160e08301526101008084015181840152506101208084015161626782850182615dcd565b505092915050565b60006020828403121561628157600080fd5b815160048110614ae057600080fd5b600083516162a2818460208801615d40565b8351908301906162b6818360208801615d40565b01949350505050565b634e487b7160e01b600052601160045260246000fd5b80820180821115610f5157610f516162bf565b6001600160a01b039384168152919092166020820152604081019190915260600190565b60006020828403121561631e57600080fd5b8151614ae081616052565b8082028115828204841417610f5157610f516162bf565b634e487b7160e01b600052601260045260246000fd5b60008261636557616365616340565b500490565b60006020828403121561637c57600080fd5b5051919050565b81810381811115610f5157610f516162bf565b634e487b7160e01b600052603260045260246000fd5b805169ffffffffffffffffffff811681146114bf57600080fd5b600080600080600060a086880312156163de57600080fd5b6163e7866163ac565b945060208601519350604086015192506060860151915061640a608087016163ac565b90509295509295909350565b60006020828403121561642857600080fd5b8151614ae081615e7c565b60006040828403121561644557600080fd5b604051604081016001600160401b03828210818311171561646857616468615c28565b816040528451835260208501519150808216821461648557600080fd5b5060208201529392505050565b600181811c908216806164a657607f821691505b60208210810361104757634e487b7160e01b600052602260045260246000fd5b60208082526025908201527f5468652070726f6365737320686173206265656e20636f6d706c65746564206260408201526465666f726560d81b606082015260800190565b601f8211156123dd576000816000526020600020601f850160051c810160208610156165345750805b601f850160051c820191505b8181101561655357828155600101616540565b505050505050565b81516001600160401b0381111561657457616574615c28565b616588816165828454616492565b8461650b565b602080601f8311600181146165bd57600084156165a55750858301515b600019600386901b1c1916600185901b178555616553565b600085815260208120601f198616915b828110156165ec578886015182559484019460019091019084016165cd565b508582101561660a5787850151600019600388901b60f8161c191681555b5050505050600190811b01905550565b6000806040838503121561662d57600080fd5b82519150602083015162ffffff8116811461613357600080fd5b60ff8281168282160390811115610f5157610f516162bf565b600181815b8085111561669b578160001904821115616681576166816162bf565b8085161561668e57918102915b93841c9390800290616665565b509250929050565b6000826166b257506001610f51565b816166bf57506000610f51565b81600181146166d557600281146166df576166fb565b6001915050610f51565b60ff8411156166f0576166f06162bf565b50506001821b610f51565b5060208310610133831016604e8410600b841016171561671e575081810a610f51565b6167288383616660565b806000190482111561673c5761673c6162bf565b029392505050565b6000614ae060ff8416836166a3565b80820260008212600160ff1b8414161561676f5761676f6162bf565b8181058314821517610f5157610f516162bf565b6001600160a01b0389811682526020820189905260408201889052861660608201526001600160e01b03198516608082015260a0810184905260c0810183905261010060e08201819052600090615e4383820185615d64565b60018060a01b03841681528260208201526060604082015260006127966060830184615d64565b60008261681257616812616340565b500690565b6000614ae083836166a356fe6080604052348015600f57600080fd5b50604051610332380380610332833981016040819052602c916050565b600080546001600160a01b0319166001600160a01b0392909216919091179055607e565b600060208284031215606157600080fd5b81516001600160a01b0381168114607757600080fd5b9392505050565b6102a58061008d6000396000f3fe608060405234801561001057600080fd5b50600436106100415760003560e01c806313af4035146100465780632fdcfbd21461005b5780638da5cb5b1461006e575b600080fd5b6100596100543660046101ef565b61009d565b005b610059610069366004610211565b61010f565b600054610081906001600160a01b031681565b6040516001600160a01b03909116815260200160405180910390f35b6000546001600160a01b031633146100ed5760405162461bcd60e51b815260206004820152600e60248201526d139bdd08185d5d1a1bdc9a5e995960921b60448201526064015b60405180910390fd5b600080546001600160a01b0319166001600160a01b0392909216919091179055565b6000546001600160a01b0316331461015a5760405162461bcd60e51b815260206004820152600e60248201526d139bdd08185d5d1a1bdc9a5e995960921b60448201526064016100e4565b60405163a9059cbb60e01b81526001600160a01b0383811660048301526024820183905284169063a9059cbb906044016020604051808303816000875af11580156101a9573d6000803e3d6000fd5b505050506040513d601f19601f820116820180604052508101906101cd919061024d565b50505050565b80356001600160a01b03811681146101ea57600080fd5b919050565b60006020828403121561020157600080fd5b61020a826101d3565b9392505050565b60008060006060848603121561022657600080fd5b61022f846101d3565b925061023d602085016101d3565b9150604084013590509250925092565b60006020828403121561025f57600080fd5b8151801515811461020a57600080fdfea2646970667358221220502fe3cef5472467ba27d3f0af8cc13ea970369ac0d01284025186802306355064736f6c6343000819003368747470733a2f2f6170702e6e65786c6162732e696f2f6170692f616c6c46756e64696e6752617465733f6d756c7469706c7946756e633d31382674696d65734e656746756e643d74727565266172726179733d74727565cd5ed15c6e187e77e9aee88184c21f4f2182ab5827cb3b7e07fbedcd63f03300a2646970667358221220008a1f9193f16d6dac1a0998b833792bd2d6a18b6219a0f05c1b3af7d4afcbe464736f6c63430008190033","linkReferences":{}},"methodIdentifiers":{"burnedTokenAmountByNonce(uint256)":"ab7820b2","buyRequestPayedAmountById(uint256)":"8861d235","calculateIssuanceFee(uint256)":"e19eefbe","cancelIssuance(uint256)":"46d66a2c","cancelIssuanceComplted(uint256)":"7bfa27f2","cancelIssuanceRequestId(uint256,address)":"02e80f71","cancelRedemption(uint256)":"9219e510","cancelRedemptionComplted(uint256)":"b46840f9","cancelRedemptionRequestId(uint256,address)":"8c221899","checkCancelIssuanceStatus(uint256)":"631c8385","checkCancelRedemptionStatus(uint256)":"b592662a","checkFirstRebalanceOrdersStatus(uint256)":"92318df4","checkIssuanceOrdersStatus(uint256)":"2343acb4","checkRedemptionOrdersStatus(uint256)":"3fac0922","coaByIssuanceNonce(uint256)":"31c99010","coaByRedemptionNonce(uint256)":"b75f4c2c","completeCancelIssuance(uint256)":"807ca237","completeCancelRedemption(uint256)":"9026544f","completeIssuance(uint256)":"bed45bef","completeRedemption(uint256)":"840ecba0","concatenation(string,string)":"0e329357","currentList(uint256)":"9932ba4c","custodianWallet()":"1e106e99","externalJobId()":"a8b54bd4","feeRate()":"978bbdb9","firstRebalanceAction()":"32f53f3c","fulfillAssetsData(bytes32,address[],uint256[])":"f14bea20","getOrderInstanceById(uint256)":"f1f31d66","getPortfolioValue()":"bb0498de","getVaultDshareBalance(address)":"a08d7bd6","getVaultDshareValue(address)":"efdf5053","initialize(address,address,address,address,uint8,address,address,bytes32,bool)":"d57e0493","isIssuanceOrderActive(uint256)":"b0e12134","isMainnet()":"42faac05","isRedemptionOrderActive(uint256)":"0b1a4918","issuance(uint256)":"248b761e","issuanceIndexTokenPrimaryTotalSupply(uint256)":"b1dd819e","issuanceIsCompleted(uint256)":"a84ebc17","issuanceNonce()":"9dbb9c9e","issuanceRequestId(uint256,address)":"264fa8b9","issuanceRequesterByNonce(uint256)":"94674098","issuanceTokenPrimaryBalance(uint256,address)":"da65925a","issuer()":"1d143848","lastUpdateTime()":"c8f33c91","latestFeeUpdate()":"011ced5f","mockFillAssetsList(address[],uint256[])":"addc70d1","oracleList(uint256)":"239aad0d","oraclePayment()":"0c02e130","orderInstanceById(uint256)":"15e666a2","owner()":"8da5cb5b","pause()":"8456cb59","paused()":"5c975abb","portfolioValueByNonce(uint256)":"2badae5d","priceFeedByTokenAddress(address)":"08dc4b0c","priceInWei(address)":"6839a095","rebalanceNonce()":"edca4f5e","rebalanceRequestId(uint256,address)":"75a3cb57","redemption(uint256)":"4a1dc092","redemptionIndexTokenPrimaryTotalSupply(uint256)":"daf1c17d","redemptionIsCompleted(uint256)":"76529fdf","redemptionNonce()":"84d77bb1","redemptionRequestId(uint256,address)":"f513a718","redemptionRequesterByNonce(uint256)":"78032658","redemptionTokenPrimaryBalance(uint256,address)":"a363b9cb","renounceOwnership()":"715018a6","requestAssetsData()":"7ca58c55","secondRebalanceAction()":"b59c3608","sellRequestAssetAmountById(uint256)":"a87f98d2","setCustodianWallet(address)":"9cc0fb5b","setFeeRate(uint8)":"5177942a","setIssuer(address)":"55cc4e57","setOracleInfo(address,bytes32)":"43482fc8","setPriceFeedAddresses(address[],address[])":"57b61bc3","setTokenAddress(address)":"26a4e8d2","setUrl(string,string)":"a73e1cbf","setUsdcAddress(address,uint8)":"eab2a711","setWrappedDShareAddresses(address[],address[])":"b411dc41","token()":"fc0c546a","tokenCurrentListIndex(address)":"914f0cc6","tokenCurrentMarketShare(address)":"0be52713","tokenOracleListIndex(address)":"8c88c10c","tokenOracleMarketShare(address)":"4b3e0b80","tokenValueByNonce(uint256)":"5a681166","totalCurrentList()":"53fd4332","totalOracleList()":"c8599ded","transferOwnership(address)":"f2fde38b","unpause()":"3f4ba83a","usdc()":"3e413bee","usdcDecimals()":"7bf42165","vault()":"fbfa77cf","wrappedDshareAddress(address)":"092755e0"},"id":16}