{"abi":[{"type":"function","name":"actionInfoById","inputs":[{"name":"","type":"uint256","internalType":"uint256"}],"outputs":[{"name":"actionType","type":"uint256","internalType":"uint256"},{"name":"nonce","type":"uint256","internalType":"uint256"}],"stateMutability":"view"},{"type":"function","name":"burnedTokenAmountByNonce","inputs":[{"name":"","type":"uint256","internalType":"uint256"}],"outputs":[{"name":"","type":"uint256","internalType":"uint256"}],"stateMutability":"view"},{"type":"function","name":"buyRequestPayedAmountById","inputs":[{"name":"","type":"uint256","internalType":"uint256"}],"outputs":[{"name":"","type":"uint256","internalType":"uint256"}],"stateMutability":"view"},{"type":"function","name":"calculateBuyRequestFee","inputs":[{"name":"_amount","type":"uint256","internalType":"uint256"}],"outputs":[{"name":"","type":"uint256","internalType":"uint256"}],"stateMutability":"view"},{"type":"function","name":"calculateIssuanceFee","inputs":[{"name":"_inputAmount","type":"uint256","internalType":"uint256"}],"outputs":[{"name":"","type":"uint256","internalType":"uint256"}],"stateMutability":"view"},{"type":"function","name":"cancelIssuance","inputs":[{"name":"_issuanceNonce","type":"uint256","internalType":"uint256"}],"outputs":[],"stateMutability":"nonpayable"},{"type":"function","name":"cancelIssuanceComplted","inputs":[{"name":"","type":"uint256","internalType":"uint256"}],"outputs":[{"name":"","type":"bool","internalType":"bool"}],"stateMutability":"view"},{"type":"function","name":"cancelIssuanceRequestId","inputs":[{"name":"","type":"uint256","internalType":"uint256"},{"name":"","type":"address","internalType":"address"}],"outputs":[{"name":"","type":"uint256","internalType":"uint256"}],"stateMutability":"view"},{"type":"function","name":"cancelIssuanceUnfilledAmount","inputs":[{"name":"","type":"uint256","internalType":"uint256"},{"name":"","type":"address","internalType":"address"}],"outputs":[{"name":"","type":"uint256","internalType":"uint256"}],"stateMutability":"view"},{"type":"function","name":"cancelRedemption","inputs":[{"name":"_redemptionNonce","type":"uint256","internalType":"uint256"}],"outputs":[],"stateMutability":"nonpayable"},{"type":"function","name":"cancelRedemptionComplted","inputs":[{"name":"","type":"uint256","internalType":"uint256"}],"outputs":[{"name":"","type":"bool","internalType":"bool"}],"stateMutability":"view"},{"type":"function","name":"cancelRedemptionRequestId","inputs":[{"name":"","type":"uint256","internalType":"uint256"},{"name":"","type":"address","internalType":"address"}],"outputs":[{"name":"","type":"uint256","internalType":"uint256"}],"stateMutability":"view"},{"type":"function","name":"cancelRedemptionUnfilledAmount","inputs":[{"name":"","type":"uint256","internalType":"uint256"},{"name":"","type":"address","internalType":"address"}],"outputs":[{"name":"","type":"uint256","internalType":"uint256"}],"stateMutability":"view"},{"type":"function","name":"checkMultical","inputs":[{"name":"_reqeustId","type":"uint256","internalType":"uint256"}],"outputs":[{"name":"","type":"bool","internalType":"bool"}],"stateMutability":"view"},{"type":"function","name":"coaByIssuanceNonce","inputs":[{"name":"","type":"uint256","internalType":"uint256"}],"outputs":[{"name":"","type":"address","internalType":"address"}],"stateMutability":"view"},{"type":"function","name":"coaByRedemptionNonce","inputs":[{"name":"","type":"uint256","internalType":"uint256"}],"outputs":[{"name":"","type":"address","internalType":"address"}],"stateMutability":"view"},{"type":"function","name":"completeCancelIssuance","inputs":[{"name":"_issuanceNonce","type":"uint256","internalType":"uint256"}],"outputs":[],"stateMutability":"nonpayable"},{"type":"function","name":"completeCancelRedemption","inputs":[{"name":"_redemptionNonce","type":"uint256","internalType":"uint256"}],"outputs":[],"stateMutability":"nonpayable"},{"type":"function","name":"completeIssuance","inputs":[{"name":"_issuanceNonce","type":"uint256","internalType":"uint256"}],"outputs":[],"stateMutability":"nonpayable"},{"type":"function","name":"completeRedemption","inputs":[{"name":"_redemptionNonce","type":"uint256","internalType":"uint256"}],"outputs":[],"stateMutability":"nonpayable"},{"type":"function","name":"factoryStorage","inputs":[],"outputs":[{"name":"","type":"address","internalType":"contract IndexFactoryStorage"}],"stateMutability":"view"},{"type":"function","name":"feeRate","inputs":[],"outputs":[{"name":"","type":"uint8","internalType":"uint8"}],"stateMutability":"view"},{"type":"function","name":"getIssuanceAmountOut","inputs":[{"name":"_amount","type":"uint256","internalType":"uint256"}],"outputs":[{"name":"","type":"uint256","internalType":"uint256"}],"stateMutability":"view"},{"type":"function","name":"getOrderInstanceById","inputs":[{"name":"id","type":"uint256","internalType":"uint256"}],"outputs":[{"name":"","type":"tuple","internalType":"struct IOrderProcessor.Order","components":[{"name":"requestTimestamp","type":"uint64","internalType":"uint64"},{"name":"recipient","type":"address","internalType":"address"},{"name":"assetToken","type":"address","internalType":"address"},{"name":"paymentToken","type":"address","internalType":"address"},{"name":"sell","type":"bool","internalType":"bool"},{"name":"orderType","type":"uint8","internalType":"enum IOrderProcessor.OrderType"},{"name":"assetTokenQuantity","type":"uint256","internalType":"uint256"},{"name":"paymentTokenQuantity","type":"uint256","internalType":"uint256"},{"name":"price","type":"uint256","internalType":"uint256"},{"name":"tif","type":"uint8","internalType":"enum IOrderProcessor.TIF"}]}],"stateMutability":"view"},{"type":"function","name":"getPortfolioValue","inputs":[],"outputs":[{"name":"","type":"uint256","internalType":"uint256"}],"stateMutability":"view"},{"type":"function","name":"getRedemptionAmountOut","inputs":[{"name":"_amount","type":"uint256","internalType":"uint256"}],"outputs":[{"name":"","type":"uint256","internalType":"uint256"}],"stateMutability":"view"},{"type":"function","name":"getVaultDshareBalance","inputs":[{"name":"_token","type":"address","internalType":"address"}],"outputs":[{"name":"","type":"uint256","internalType":"uint256"}],"stateMutability":"view"},{"type":"function","name":"getVaultDshareValue","inputs":[{"name":"_token","type":"address","internalType":"address"}],"outputs":[{"name":"","type":"uint256","internalType":"uint256"}],"stateMutability":"view"},{"type":"function","name":"initialize","inputs":[{"name":"_factoryStorage","type":"address","internalType":"address"},{"name":"_orderManager","type":"address","internalType":"address"},{"name":"_issuer","type":"address","internalType":"address"},{"name":"_token","type":"address","internalType":"address"},{"name":"_vault","type":"address","internalType":"address"},{"name":"_usdc","type":"address","internalType":"address"},{"name":"_usdcDecimals","type":"uint8","internalType":"uint8"},{"name":"_isMainnet","type":"bool","internalType":"bool"}],"outputs":[],"stateMutability":"nonpayable"},{"type":"function","name":"isMainnet","inputs":[],"outputs":[{"name":"","type":"bool","internalType":"bool"}],"stateMutability":"view"},{"type":"function","name":"issuanceIndexTokenPrimaryTotalSupply","inputs":[{"name":"","type":"uint256","internalType":"uint256"}],"outputs":[{"name":"","type":"uint256","internalType":"uint256"}],"stateMutability":"view"},{"type":"function","name":"issuanceIndexTokens","inputs":[{"name":"_inputAmount","type":"uint256","internalType":"uint256"}],"outputs":[{"name":"","type":"uint256","internalType":"uint256"}],"stateMutability":"nonpayable"},{"type":"function","name":"issuanceInputAmount","inputs":[{"name":"","type":"uint256","internalType":"uint256"}],"outputs":[{"name":"","type":"uint256","internalType":"uint256"}],"stateMutability":"view"},{"type":"function","name":"issuanceIsCompleted","inputs":[{"name":"","type":"uint256","internalType":"uint256"}],"outputs":[{"name":"","type":"bool","internalType":"bool"}],"stateMutability":"view"},{"type":"function","name":"issuanceNonce","inputs":[],"outputs":[{"name":"","type":"uint256","internalType":"uint256"}],"stateMutability":"view"},{"type":"function","name":"issuanceRequestId","inputs":[{"name":"","type":"uint256","internalType":"uint256"},{"name":"","type":"address","internalType":"address"}],"outputs":[{"name":"","type":"uint256","internalType":"uint256"}],"stateMutability":"view"},{"type":"function","name":"issuanceRequesterByNonce","inputs":[{"name":"","type":"uint256","internalType":"uint256"}],"outputs":[{"name":"","type":"address","internalType":"address"}],"stateMutability":"view"},{"type":"function","name":"issuanceTokenPrimaryBalance","inputs":[{"name":"","type":"uint256","internalType":"uint256"},{"name":"","type":"address","internalType":"address"}],"outputs":[{"name":"","type":"uint256","internalType":"uint256"}],"stateMutability":"view"},{"type":"function","name":"issuer","inputs":[],"outputs":[{"name":"","type":"address","internalType":"contract IOrderProcessor"}],"stateMutability":"view"},{"type":"function","name":"latestFeeUpdate","inputs":[],"outputs":[{"name":"","type":"uint256","internalType":"uint256"}],"stateMutability":"view"},{"type":"function","name":"multical","inputs":[{"name":"_requestId","type":"uint256","internalType":"uint256"}],"outputs":[],"stateMutability":"nonpayable"},{"type":"function","name":"orderInstanceById","inputs":[{"name":"","type":"uint256","internalType":"uint256"}],"outputs":[{"name":"requestTimestamp","type":"uint64","internalType":"uint64"},{"name":"recipient","type":"address","internalType":"address"},{"name":"assetToken","type":"address","internalType":"address"},{"name":"paymentToken","type":"address","internalType":"address"},{"name":"sell","type":"bool","internalType":"bool"},{"name":"orderType","type":"uint8","internalType":"enum IOrderProcessor.OrderType"},{"name":"assetTokenQuantity","type":"uint256","internalType":"uint256"},{"name":"paymentTokenQuantity","type":"uint256","internalType":"uint256"},{"name":"price","type":"uint256","internalType":"uint256"},{"name":"tif","type":"uint8","internalType":"enum IOrderProcessor.TIF"}],"stateMutability":"view"},{"type":"function","name":"orderManager","inputs":[],"outputs":[{"name":"","type":"address","internalType":"contract OrderManager"}],"stateMutability":"view"},{"type":"function","name":"owner","inputs":[],"outputs":[{"name":"","type":"address","internalType":"address"}],"stateMutability":"view"},{"type":"function","name":"pause","inputs":[],"outputs":[],"stateMutability":"nonpayable"},{"type":"function","name":"paused","inputs":[],"outputs":[{"name":"","type":"bool","internalType":"bool"}],"stateMutability":"view"},{"type":"function","name":"portfolioValueByNonce","inputs":[{"name":"","type":"uint256","internalType":"uint256"}],"outputs":[{"name":"","type":"uint256","internalType":"uint256"}],"stateMutability":"view"},{"type":"function","name":"priceInWei","inputs":[{"name":"_tokenAddress","type":"address","internalType":"address"}],"outputs":[{"name":"","type":"uint256","internalType":"uint256"}],"stateMutability":"view"},{"type":"function","name":"redemption","inputs":[{"name":"_inputAmount","type":"uint256","internalType":"uint256"}],"outputs":[{"name":"","type":"uint256","internalType":"uint256"}],"stateMutability":"nonpayable"},{"type":"function","name":"redemptionIndexTokenPrimaryTotalSupply","inputs":[{"name":"","type":"uint256","internalType":"uint256"}],"outputs":[{"name":"","type":"uint256","internalType":"uint256"}],"stateMutability":"view"},{"type":"function","name":"redemptionInputAmount","inputs":[{"name":"","type":"uint256","internalType":"uint256"}],"outputs":[{"name":"","type":"uint256","internalType":"uint256"}],"stateMutability":"view"},{"type":"function","name":"redemptionIsCompleted","inputs":[{"name":"","type":"uint256","internalType":"uint256"}],"outputs":[{"name":"","type":"bool","internalType":"bool"}],"stateMutability":"view"},{"type":"function","name":"redemptionNonce","inputs":[],"outputs":[{"name":"","type":"uint256","internalType":"uint256"}],"stateMutability":"view"},{"type":"function","name":"redemptionRequestId","inputs":[{"name":"","type":"uint256","internalType":"uint256"},{"name":"","type":"address","internalType":"address"}],"outputs":[{"name":"","type":"uint256","internalType":"uint256"}],"stateMutability":"view"},{"type":"function","name":"redemptionRequesterByNonce","inputs":[{"name":"","type":"uint256","internalType":"uint256"}],"outputs":[{"name":"","type":"address","internalType":"address"}],"stateMutability":"view"},{"type":"function","name":"redemptionTokenPrimaryBalance","inputs":[{"name":"","type":"uint256","internalType":"uint256"},{"name":"","type":"address","internalType":"address"}],"outputs":[{"name":"","type":"uint256","internalType":"uint256"}],"stateMutability":"view"},{"type":"function","name":"renounceOwnership","inputs":[],"outputs":[],"stateMutability":"nonpayable"},{"type":"function","name":"sellRequestAssetAmountById","inputs":[{"name":"","type":"uint256","internalType":"uint256"}],"outputs":[{"name":"","type":"uint256","internalType":"uint256"}],"stateMutability":"view"},{"type":"function","name":"setFeeRate","inputs":[{"name":"_newFee","type":"uint8","internalType":"uint8"}],"outputs":[],"stateMutability":"nonpayable"},{"type":"function","name":"setIndexFactoryStorage","inputs":[{"name":"_factoryStorage","type":"address","internalType":"address"}],"outputs":[{"name":"","type":"bool","internalType":"bool"}],"stateMutability":"nonpayable"},{"type":"function","name":"setIssuer","inputs":[{"name":"_issuer","type":"address","internalType":"address"}],"outputs":[{"name":"","type":"bool","internalType":"bool"}],"stateMutability":"nonpayable"},{"type":"function","name":"setTokenAddress","inputs":[{"name":"_token","type":"address","internalType":"address"}],"outputs":[{"name":"","type":"bool","internalType":"bool"}],"stateMutability":"nonpayable"},{"type":"function","name":"setUsdcAddress","inputs":[{"name":"_usdc","type":"address","internalType":"address"},{"name":"_usdcDecimals","type":"uint8","internalType":"uint8"}],"outputs":[{"name":"","type":"bool","internalType":"bool"}],"stateMutability":"nonpayable"},{"type":"function","name":"token","inputs":[],"outputs":[{"name":"","type":"address","internalType":"contract IndexToken"}],"stateMutability":"view"},{"type":"function","name":"tokenShortagePercentByNonce","inputs":[{"name":"","type":"uint256","internalType":"uint256"},{"name":"","type":"address","internalType":"address"}],"outputs":[{"name":"","type":"uint256","internalType":"uint256"}],"stateMutability":"view"},{"type":"function","name":"tokenValueByNonce","inputs":[{"name":"","type":"uint256","internalType":"uint256"},{"name":"","type":"address","internalType":"address"}],"outputs":[{"name":"","type":"uint256","internalType":"uint256"}],"stateMutability":"view"},{"type":"function","name":"totalShortagePercentByNonce","inputs":[{"name":"","type":"uint256","internalType":"uint256"}],"outputs":[{"name":"","type":"uint256","internalType":"uint256"}],"stateMutability":"view"},{"type":"function","name":"transferOwnership","inputs":[{"name":"newOwner","type":"address","internalType":"address"}],"outputs":[],"stateMutability":"nonpayable"},{"type":"function","name":"unpause","inputs":[],"outputs":[],"stateMutability":"nonpayable"},{"type":"function","name":"usdc","inputs":[],"outputs":[{"name":"","type":"address","internalType":"address"}],"stateMutability":"view"},{"type":"function","name":"usdcDecimals","inputs":[],"outputs":[{"name":"","type":"uint8","internalType":"uint8"}],"stateMutability":"view"},{"type":"function","name":"vault","inputs":[],"outputs":[{"name":"","type":"address","internalType":"contract NexVault"}],"stateMutability":"view"},{"type":"event","name":"Initialized","inputs":[{"name":"version","type":"uint64","indexed":false,"internalType":"uint64"}],"anonymous":false},{"type":"event","name":"Issuanced","inputs":[{"name":"nonce","type":"uint256","indexed":true,"internalType":"uint256"},{"name":"user","type":"address","indexed":true,"internalType":"address"},{"name":"inputToken","type":"address","indexed":false,"internalType":"address"},{"name":"inputAmount","type":"uint256","indexed":false,"internalType":"uint256"},{"name":"outputAmount","type":"uint256","indexed":false,"internalType":"uint256"},{"name":"time","type":"uint256","indexed":false,"internalType":"uint256"}],"anonymous":false},{"type":"event","name":"OwnershipTransferred","inputs":[{"name":"previousOwner","type":"address","indexed":true,"internalType":"address"},{"name":"newOwner","type":"address","indexed":true,"internalType":"address"}],"anonymous":false},{"type":"event","name":"Paused","inputs":[{"name":"account","type":"address","indexed":false,"internalType":"address"}],"anonymous":false},{"type":"event","name":"Redemption","inputs":[{"name":"nonce","type":"uint256","indexed":true,"internalType":"uint256"},{"name":"user","type":"address","indexed":true,"internalType":"address"},{"name":"outputToken","type":"address","indexed":false,"internalType":"address"},{"name":"inputAmount","type":"uint256","indexed":false,"internalType":"uint256"},{"name":"outputAmount","type":"uint256","indexed":false,"internalType":"uint256"},{"name":"time","type":"uint256","indexed":false,"internalType":"uint256"}],"anonymous":false},{"type":"event","name":"RequestIssuance","inputs":[{"name":"nonce","type":"uint256","indexed":true,"internalType":"uint256"},{"name":"user","type":"address","indexed":true,"internalType":"address"},{"name":"inputToken","type":"address","indexed":false,"internalType":"address"},{"name":"inputAmount","type":"uint256","indexed":false,"internalType":"uint256"},{"name":"outputAmount","type":"uint256","indexed":false,"internalType":"uint256"},{"name":"time","type":"uint256","indexed":false,"internalType":"uint256"}],"anonymous":false},{"type":"event","name":"RequestRedemption","inputs":[{"name":"nonce","type":"uint256","indexed":true,"internalType":"uint256"},{"name":"user","type":"address","indexed":true,"internalType":"address"},{"name":"outputToken","type":"address","indexed":false,"internalType":"address"},{"name":"inputAmount","type":"uint256","indexed":false,"internalType":"uint256"},{"name":"outputAmount","type":"uint256","indexed":false,"internalType":"uint256"},{"name":"time","type":"uint256","indexed":false,"internalType":"uint256"}],"anonymous":false},{"type":"event","name":"Unpaused","inputs":[{"name":"account","type":"address","indexed":false,"internalType":"address"}],"anonymous":false},{"type":"error","name":"EnforcedPause","inputs":[]},{"type":"error","name":"ExpectedPause","inputs":[]},{"type":"error","name":"InvalidInitialization","inputs":[]},{"type":"error","name":"NotInitializing","inputs":[]},{"type":"error","name":"OwnableInvalidOwner","inputs":[{"name":"owner","type":"address","internalType":"address"}]},{"type":"error","name":"OwnableUnauthorizedAccount","inputs":[{"name":"account","type":"address","internalType":"address"}]},{"type":"error","name":"PRBMath_MulDiv_Overflow","inputs":[{"name":"x","type":"uint256","internalType":"uint256"},{"name":"y","type":"uint256","internalType":"uint256"},{"name":"denominator","type":"uint256","internalType":"uint256"}]}],"bytecode":{"object":"0x6080604052348015600f57600080fd5b506161398061001f6000396000f3fe608060405234801561001057600080fd5b50600436106104285760003560e01c80639026544f1161022b578063c06e1ae211610130578063e2851bd6116100b8578063f2fde38b11610087578063f2fde38b14610bc1578063f513a71814610bd4578063f9b6117f14610bff578063fbfa77cf14610c12578063fc0c546a14610c2557600080fd5b8063e2851bd614610b68578063eab2a71114610b7b578063efdf505314610b8e578063f1f31d6614610ba157600080fd5b8063da65925a116100ff578063da65925a14610acc578063daf1c17d14610af7578063db5c1a1214610b17578063e16e554a14610b42578063e19eefbe14610b5557600080fd5b8063c06e1ae214610a73578063c8da330314610a86578063cc8659ae14610a99578063cf9ee31914610aac57600080fd5b8063a84ebc17116101b3578063b316e7fd11610182578063b316e7fd146109e1578063b46840f914610a0c578063b75f4c2c14610a2f578063bb0498de14610a58578063bed45bef14610a6057600080fd5b8063a84ebc171461095e578063a87f98d214610981578063ab7820b2146109a1578063b1dd819e146109c157600080fd5b80639cf54521116101fa5780639cf54521146108cc5780639dbb9c9e146108ec5780639edcf9f4146108f5578063a08d7bd614610920578063a363b9cb1461093357600080fd5b80639026544f146108695780639219e5101461087c578063946740981461088f578063978bbdb9146108b857600080fd5b806355cc4e57116103315780637bf42165116102b95780638456cb59116102885780638456cb591461080557806384d77bb11461080d5780638861d235146108165780638c221899146108365780638da5cb5b1461086157600080fd5b80637bf42165146107965780637bfa27f2146107bc578063807ca237146107df578063840ecba0146107f257600080fd5b80636e320408116103005780636e3204081461071c578063715018a61461072f57806373b774ed1461073757806376529fdf1461074a578063780326581461076d57600080fd5b806355cc4e57146106b35780635c975abb146106c6578063632439fd146106de5780636839a0951461070957600080fd5b806331c99010116103b457806342faac051161038357806342faac051461065a57806346d66a2c1461066757806348f6e87b1461067a5780634a1dc0921461068d5780635177942a146106a057600080fd5b806331c99010146105d85780633c1f70ca146106015780633e413bee1461063d5780633f4ba83a1461065057600080fd5b80631d143848116103fb5780631d14384814610520578063264fa8b91461054b57806326a4e8d2146105765780632badae5d146105995780632ca49334146105b957600080fd5b8063011ced5f1461042d57806302e80f711461044957806306995e3b1461047457806315e666a214610487575b600080fd5b61043660245481565b6040519081526020015b60405180910390f35b610436610457366004615a0a565b600c60209081526000928352604080842090915290825290205481565b610436610482366004615a3a565b610c38565b61050a610495366004615a3a565b601c60205260009081526040902080546001820154600283015460038401546004850154600586015460069096015467ffffffffffffffff8616966001600160a01b03600160401b9097048716969586169585169460ff600160a01b8204811695600160a81b9092048116949193919291168a565b6040516104409a99989796959493929190615a8d565b600754610533906001600160a01b031681565b6040516001600160a01b039091168152602001610440565b610436610559366004615a0a565b600e60209081526000928352604080842090915290825290205481565b610589610584366004615b03565b610cd8565b6040519015158152602001610440565b6104366105a7366004615a3a565b601d6020526000908152604090205481565b6104366105c7366004615a3a565b602080526000908152604090205481565b6105336105e6366004615a3a565b6018602052600090815260409020546001600160a01b031681565b61062861060f366004615a3a565b6023602052600090815260409020805460019091015482565b60408051928352602083019190915201610440565b600854610533906001600160a01b031681565b610658610d59565b005b600b546105899060ff1681565b610658610675366004615a3a565b610d6b565b610658610688366004615b3d565b6114e7565b61043661069b366004615a3a565b61172c565b6106586106ae366004615be6565b611d9d565b6105896106c1366004615b03565b611ee8565b6000805160206160e48339815191525460ff16610589565b6104366106ec366004615a0a565b602660209081526000928352604080842090915290825290205481565b610436610717366004615b03565b611f66565b61043661072a366004615a3a565b61214a565b6106586127a1565b610658610745366004615a3a565b6127b3565b610589610758366004615a3a565b60016020526000908152604090205460ff1681565b61053361077b366004615a3a565b6017602052600090815260409020546001600160a01b031681565b6008546107aa90600160a01b900460ff1681565b60405160ff9091168152602001610440565b6105896107ca366004615a3a565b601a6020526000908152604090205460ff1681565b6106586107ed366004615a3a565b612837565b610658610800366004615a3a565b612b79565b610658613046565b610436600a5481565b610436610824366004615a3a565b60106020526000908152604090205481565b610436610844366004615a0a565b600d60209081526000928352604080842090915290825290205481565b610533613056565b610658610877366004615a3a565b613084565b61065861088a366004615a3a565b613701565b61053361089d366004615a3a565b6016602052600090815260409020546001600160a01b031681565b6008546107aa90600160a81b900460ff1681565b6104366108da366004615a3a565b60226020526000908152604090205481565b61043660095481565b610436610903366004615a0a565b602560209081526000928352604080842090915290825290205481565b61043661092e366004615b03565b613e56565b610436610941366004615a0a565b601360209081526000928352604080842090915290825290205481565b61058961096c366004615a3a565b60006020819052908152604090205460ff1681565b61043661098f366004615a3a565b60116020526000908152604090205481565b6104366109af366004615a3a565b60026020526000908152604090205481565b6104366109cf366004615a3a565b60146020526000908152604090205481565b6104366109ef366004615a0a565b601e60209081526000928352604080842090915290825290205481565b610589610a1a366004615a3a565b601b6020526000908152604090205460ff1681565b610533610a3d366004615a3a565b6019602052600090815260409020546001600160a01b031681565b610436613fb1565b610658610a6e366004615a3a565b6140b8565b600454610533906001600160a01b031681565b610436610a94366004615a3a565b614889565b610589610aa7366004615b03565b614928565b610436610aba366004615a3a565b60216020526000908152604090205481565b610436610ada366004615a0a565b601260209081526000928352604080842090915290825290205481565b610436610b05366004615a3a565b60156020526000908152604090205481565b610436610b25366004615a0a565b601f60209081526000928352604080842090915290825290205481565b610589610b50366004615a3a565b6149ad565b610436610b63366004615a3a565b614b10565b610436610b76366004615a3a565b614d4d565b610589610b89366004615c03565b614de2565b610436610b9c366004615b03565b614e6c565b610bb4610baf366004615a3a565b614ea4565b6040516104409190615c31565b610658610bcf366004615b03565b614fab565b610436610be2366004615a0a565b600f60209081526000928352604080842090915290825290205481565b600654610533906001600160a01b031681565b600554610533906001600160a01b031681565b600354610533906001600160a01b031681565b6007546008546040516308da5c3560e21b81526000600482018190526001600160a01b039283166024830152928392839291169063236970d4906044016040805180830381865afa158015610c91573d6000803e3d6000fd5b505050506040513d601f19601f82011682018060405250810190610cb59190615cf7565b915091506000610cc58286614fe9565b610ccf9084615d3a565b95945050505050565b6000610ce2615012565b6001600160a01b038216610d355760405162461bcd60e51b8152602060048201526015602482015274696e76616c696420746f6b656e206164647265737360581b60448201526064015b60405180910390fd5b50600380546001600160a01b0319166001600160a01b03831617905560015b919050565b610d61615012565b610d69615044565b565b60008181526020819052604090205460ff1615610dc25760405162461bcd60e51b8152602060048201526015602482015274125cdcdd585b98d9481a5cc818dbdb5c1b195d1959605a1b6044820152606401610d2c565b6000818152601660205260409020546001600160a01b0316338114610e385760405162461bcd60e51b815260206004820152602660248201527f4f6e6c79207265717565737465722063616e2063616e63656c207468652069736044820152657375616e636560d01b6064820152608401610d2c565b60005b60048054604080516329fea19960e11b815290516001600160a01b03909216926353fd43329282820192602092908290030181865afa158015610e82573d6000803e3d6000fd5b505050506040513d601f19601f82011682018060405250810190610ea69190615d4d565b8110156114e2576004805460405163264cae9360e21b81529182018390526000916001600160a01b0390911690639932ba4c90602401602060405180830381865afa158015610ef9573d6000803e3d6000fd5b505050506040513d601f19601f82011682018060405250810190610f1d9190615d66565b6000858152600e602090815260408083206001600160a01b03808616855290835281842054808552601c8452828520835161014081018552815467ffffffffffffffff81168252600160401b90048416958101959095526001808201548416948601949094526002810154928316606086015260ff600160a01b84048116151560808701529697509095909260a0850192600160a81b900490911690811115610fc857610fc8615a53565b6001811115610fd957610fd9615a53565b815260038281015460208301526004830154604083015260058301546060830152600683015460809092019160ff169081111561101857611018615a53565b600381111561102957611029615a53565b9052506007546040516322fd455760e11b8152600481018590529192506001916001600160a01b03909116906345fa8aae90602401602060405180830381865afa15801561107b573d6000803e3d6000fd5b505050506040513d601f19601f8201168201806040525081019061109f9190615d83565b60038111156110b0576110b0615a53565b60ff1614801561112a575060075460405163187b2ed160e21b8152600481018490526001600160a01b03909116906361ecbb4490602401602060405180830381865afa158015611104573d6000803e3d6000fd5b505050506040513d601f19601f820116820180604052508101906111289190615d4d565b155b156111925760065460405163514fcac760e01b8152600481018490526001600160a01b039091169063514fcac790602401600060405180830381600087803b15801561117557600080fd5b505af1158015611189573d6000803e3d6000fd5b505050506114d7565b6007546040516322fd455760e11b8152600481018490526002916001600160a01b0316906345fa8aae90602401602060405180830381865afa1580156111dc573d6000803e3d6000fd5b505050506040513d601f19601f820116820180604052508101906112009190615d83565b600381111561121157611211615a53565b60ff16148061128b575060075460405163187b2ed160e21b8152600481018490526000916001600160a01b0316906361ecbb4490602401602060405180830381865afa158015611265573d6000803e3d6000fd5b505050506040513d601f19601f820116820180604052508101906112899190615d4d565b115b156114d75760075460405163187b2ed160e21b8152600481018490526000916001600160a01b0316906361ecbb4490602401602060405180830381865afa1580156112da573d6000803e3d6000fd5b505050506040513d601f19601f820116820180604052508101906112fe9190615d4d565b60065490915060009061131d90869084906001600160a01b03166150a4565b6040805180820182526003815260208082018c81526000858152602383528481209351845590516001938401558c8152600c82528381206001600160a01b038b81168352925283902084905560075492516322fd455760e11b81526004810189905293945090929116906345fa8aae90602401602060405180830381865afa1580156113ad573d6000803e3d6000fd5b505050506040513d601f19601f820116820180604052508101906113d19190615d83565b60038111156113e2576113e2615a53565b60ff16036114d45760075460405163103fdae160e31b8152600481018690526001600160a01b03909116906381fed70890602401602060405180830381865afa158015611433573d6000803e3d6000fd5b505050506040513d601f19601f820116820180604052508101906114579190615d4d565b60008981526025602090815260408083206001600160a01b038a8116855292529182902092909255600654905163514fcac760e01b81526004810187905291169063514fcac790602401600060405180830381600087803b1580156114bb57600080fd5b505af11580156114cf573d6000803e3d6000fd5b505050505b50505b505050600101610e3b565b505050565b7ff0c57e16840df040f15088dc2f81fe391c3923bec73e23a9662efc9c229c6a008054600160401b810460ff16159067ffffffffffffffff1660008115801561152d5750825b905060008267ffffffffffffffff16600114801561154a5750303b155b905081158015611558575080155b156115765760405163f92ee8a960e01b815260040160405180910390fd5b845467ffffffffffffffff1916600117855583156115a057845460ff60401b1916600160401b1785555b8c600460006101000a8154816001600160a01b0302191690836001600160a01b031602179055508b600660006101000a8154816001600160a01b0302191690836001600160a01b031602179055508a600760006101000a8154816001600160a01b0302191690836001600160a01b0316021790555089600360006101000a8154816001600160a01b0302191690836001600160a01b0316021790555088600560006101000a8154816001600160a01b0302191690836001600160a01b0316021790555087600860006101000a8154816001600160a01b0302191690836001600160a01b0316021790555086600860146101000a81548160ff021916908360ff1602179055506116ae33615442565b6116b6615453565b6008805460ff60a81b1916600560a91b179055600b805460ff1916871515179055831561171d57845460ff60401b19168555604051600181527fc7f505b2f371ae2175ee4913f4499e1f2633a7b5936321eed1cdaeb6115181d29060200160405180910390a15b50505050505050505050505050565b60006001600a60008282546117419190615d3a565b9091555050600a54600090815260226020908152604080832085905560035481516318160ddd60e01b815291516001600160a01b03909116926318160ddd92600480820193918290030181865afa1580156117a0573d6000803e3d6000fd5b505050506040513d601f19601f820116820180604052508101906117c49190615d4d565b6117d684670de0b6b3a7640000615da4565b6117e09190615dd1565b600354604051632770a7eb60e21b8152336004820152602481018690529192506001600160a01b031690639dc29fac90604401600060405180830381600087803b15801561182d57600080fd5b505af1158015611841573d6000803e3d6000fd5b5050600a5460009081526002602052604081208690559150505b60048054604080516329fea19960e11b815290516001600160a01b03909216926353fd43329282820192602092908290030181865afa1580156118a2573d6000803e3d6000fd5b505050506040513d601f19601f820116820180604052508101906118c69190615d4d565b811015611d42576004805460405163264cae9360e21b81529182018390526000916001600160a01b0390911690639932ba4c90602401602060405180830381865afa158015611919573d6000803e3d6000fd5b505050506040513d601f19601f8201168201806040525081019061193d9190615d66565b6004805460405162493aaf60e51b81526001600160a01b0380851693820193909352929350600092670de0b6b3a7640000929091169063092755e090602401602060405180830381865afa158015611999573d6000803e3d6000fd5b505050506040513d601f19601f820116820180604052508101906119bd9190615d66565b6005546040516370a0823160e01b81526001600160a01b0391821660048201529116906370a0823190602401602060405180830381865afa158015611a06573d6000803e3d6000fd5b505050506040513d601f19601f82011682018060405250810190611a2a9190615d4d565b611a349086615da4565b611a3e9190615dd1565b600654909150600090611a5d90849084906001600160a01b03166150a4565b60408051808201825260028152600a805460208084019182526000868152602382528581209451855591516001909401939093556011835283812087905581548152600f83528381206001600160a01b0389811680845291855285832087905592548252601790935283812080546001600160a01b0319163317905560048054945162493aaf60e51b815290810193909352939450919091169063092755e090602401602060405180830381865afa158015611b1d573d6000803e3d6000fd5b505050506040513d601f19601f82011682018060405250810190611b419190615d66565b6005546040516370a0823160e01b81526001600160a01b0391821660048201529116906370a0823190602401602060405180830381865afa158015611b8a573d6000803e3d6000fd5b505050506040513d601f19601f82011682018060405250810190611bae9190615d4d565b6004805460405162493aaf60e51b81526001600160a01b038881169382019390935292935060009291169063092755e090602401602060405180830381865afa158015611bff573d6000803e3d6000fd5b505050506040513d601f19601f82011682018060405250810190611c239190615d66565b6001600160a01b0316634cdad506836040518263ffffffff1660e01b8152600401611c5091815260200190565b602060405180830381865afa158015611c6d573d6000803e3d6000fd5b505050506040513d601f19601f82011682018060405250810190611c919190615d4d565b600a5460009081526013602090815260408083206001600160a01b03808b1685529083529281902084905560035481516318160ddd60e01b81529151949550909216926318160ddd9260048082019392918290030181865afa158015611cfb573d6000803e3d6000fd5b505050506040513d601f19601f82011682018060405250810190611d1f9190615d4d565b600a5460009081526015602052604090205550506001909301925061185b915050565b50600a546008546040513392917f318a1eb196638838739aab2348b851e63485b8c41dacc90eaff499a0f14ce53391611d8b916001600160a01b03169088906000904290615df3565b60405180910390a35050600a54919050565b611da5615012565b600060245442611db59190615e19565b9050600c603c611dc58184615dd1565b611dcf9190615dd1565b11611e425760405162461bcd60e51b815260206004820152603960248201527f596f752073686f756c642077616974206174206c6561737420313220686f757260448201527f7320616674657220746865206c617465737420757064617465000000000000006064820152608401610d2c565b6127108260ff1611158015611e5b575060018260ff1610155b611ec35760405162461bcd60e51b815260206004820152603360248201527f546865206e65774665652073686f756c64206265206265747765656e203120616044820152726e64203130302028302e303125202d2031252960681b6064820152608401610d2c565b506008805460ff909216600160a81b0260ff60a81b1990921691909117905542602455565b6000611ef2615012565b6001600160a01b038216611f415760405162461bcd60e51b8152602060048201526016602482015275696e76616c696420697373756572206164647265737360501b6044820152606401610d2c565b50600780546001600160a01b0383166001600160a01b03199091161790556001919050565b600b5460009060ff16156120c6576004805460405163023712c360e21b81526001600160a01b0385811693820193909352600092909116906308dc4b0c90602401602060405180830381865afa158015611fc4573d6000803e3d6000fd5b505050506040513d601f19601f82011682018060405250810190611fe89190615d66565b90506000816001600160a01b031663feaf968c6040518163ffffffff1660e01b815260040160a060405180830381865afa15801561202a573d6000803e3d6000fd5b505050506040513d601f19601f8201168201806040525081019061204e9190615e46565b5050509150506000826001600160a01b031663313ce5676040518163ffffffff1660e01b8152600401602060405180830381865afa158015612094573d6000803e3d6000fd5b505050506040513d601f19601f820116820180604052508101906120b89190615e96565b9050610ccf82826012615463565b60075460085460405163a377cfbf60e01b81526001600160a01b0385811660048301529182166024820152600092919091169063a377cfbf906044016040805180830381865afa15801561211e573d6000803e3d6000fd5b505050506040513d601f19601f820116820180604052508101906121429190615eb3565b519392505050565b60085460009081906127109061216a90600160a81b900460ff1685615da4565b6121749190615dd1565b9050600061218184614b10565b9050600061218f8583615d3a565b6008546006546040516323b872dd60e01b81529293506001600160a01b03918216926323b872dd926121ca9233929116908690600401615f21565b6020604051808303816000875af11580156121e9573d6000803e3d6000fd5b505050506040513d601f19601f8201168201806040525081019061220d9190615f45565b506008546001600160a01b03166323b872dd33612228613056565b866040518463ffffffff1660e01b815260040161224793929190615f21565b6020604051808303816000875af1158015612266573d6000803e3d6000fd5b505050506040513d601f19601f8201168201806040525081019061228a9190615f45565b5060016009600082825461229e9190615d3a565b909155505060095460009081526021602052604081208690555b60048054604080516329fea19960e11b815290516001600160a01b03909216926353fd43329282820192602092908290030181865afa1580156122ff573d6000803e3d6000fd5b505050506040513d601f19601f820116820180604052508101906123239190615d4d565b811015612744576004805460405163264cae9360e21b81529182018390526000916001600160a01b0390911690639932ba4c90602401602060405180830381865afa158015612376573d6000803e3d6000fd5b505050506040513d601f19601f8201168201806040525081019061239a9190615d66565b60048054604051630be5271360e01b81526001600160a01b038085169382019390935292935060009268056bc75e2d631000009290911690630be5271390602401602060405180830381865afa1580156123f8573d6000803e3d6000fd5b505050506040513d601f19601f8201168201806040525081019061241c9190615d4d565b612426908a615da4565b6124309190615dd1565b60065490915060009061244f90849084906001600160a01b03166154a3565b604080518082018252600180825260098054602080850191825260008781526023825286812095518655915194909301939093556010825283832087905580548352600e82528383206001600160a01b03808a16855290835284842086905590548352601690915282822080546001600160a01b0319163317905560048054935162493aaf60e51b8152949550919392169163092755e091612502918891016001600160a01b0391909116815260200190565b602060405180830381865afa15801561251f573d6000803e3d6000fd5b505050506040513d601f19601f820116820180604052508101906125439190615d66565b6005546040516370a0823160e01b81526001600160a01b0391821660048201529116906370a0823190602401602060405180830381865afa15801561258c573d6000803e3d6000fd5b505050506040513d601f19601f820116820180604052508101906125b09190615d4d565b6004805460405162493aaf60e51b81526001600160a01b038881169382019390935292935060009291169063092755e090602401602060405180830381865afa158015612601573d6000803e3d6000fd5b505050506040513d601f19601f820116820180604052508101906126259190615d66565b6001600160a01b0316634cdad506836040518263ffffffff1660e01b815260040161265291815260200190565b602060405180830381865afa15801561266f573d6000803e3d6000fd5b505050506040513d601f19601f820116820180604052508101906126939190615d4d565b60095460009081526012602090815260408083206001600160a01b03808b1685529083529281902084905560035481516318160ddd60e01b81529151949550909216926318160ddd9260048082019392918290030181865afa1580156126fd573d6000803e3d6000fd5b505050506040513d601f19601f820116820180604052508101906127219190615d4d565b6009546000908152601460205260409020555050600190930192506122b8915050565b506009546008546040513392917fb564a60b4184bee9ffdc1c0fd0588a93c23e406438195eec9857050fece55c209161278d916001600160a01b0316908a906000904290615df3565b60405180910390a350506009549392505050565b6127a9615012565b610d696000615679565b6000818152602360209081526040918290208251808401909352805480845260019182015492840192909252036127f5576127f181602001516140b8565b5050565b805160020361280b576127f18160200151612b79565b8051600303612821576127f18160200151612837565b80516004036127f1576127f18160200151613084565b6004805460405163631c838560e01b81529182018390526001600160a01b03169063631c838590602401602060405180830381865afa15801561287e573d6000803e3d6000fd5b505050506040513d601f19601f820116820180604052508101906128a29190615f45565b6128ee5760405162461bcd60e51b815260206004820181905260248201527f43616e63656c2069737375616e6365206973206e6f7420636f6d706c657465646044820152606401610d2c565b6000818152601a602052604090205460ff161561291d5760405162461bcd60e51b8152600401610d2c90615f62565b6000818152601660205260408120546001600160a01b031690805b60048054604080516329fea19960e11b815290516001600160a01b03909216926353fd43329282820192602092908290030181865afa15801561297f573d6000803e3d6000fd5b505050506040513d601f19601f820116820180604052508101906129a39190615d4d565b811015612af1576004805460405163264cae9360e21b81529182018390526000916001600160a01b0390911690639932ba4c90602401602060405180830381865afa1580156129f6573d6000803e3d6000fd5b505050506040513d601f19601f82011682018060405250810190612a1a9190615d66565b6000868152600e602090815260408083206001600160a01b038581168552925280832054600754915163187b2ed160e21b815260048101829052949550939116906361ecbb4490602401602060405180830381865afa158015612a81573d6000803e3d6000fd5b505050506040513d601f19601f82011682018060405250810190612aa59190615d4d565b60008881526025602090815260408083206001600160a01b0388168452909152902054909150612ad58183615d3a565b612adf9087615d3a565b95505060019093019250612938915050565b50600654600854604051631c20fadd60e01b81526001600160a01b0392831692631c20fadd92612b2a9291169086908690600401615f21565b600060405180830381600087803b158015612b4457600080fd5b505af1158015612b58573d6000803e3d6000fd5b50505060009384525050601a6020525060409020805460ff19166001179055565b60048054604051631fd6049160e11b81529182018390526001600160a01b031690633fac092290602401602060405180830381865afa158015612bc0573d6000803e3d6000fd5b505050506040513d601f19601f82011682018060405250810190612be49190615f45565b612c3c5760405162461bcd60e51b815260206004820152602360248201527f526564656d7074696f6e206f726465727320617265206e6f7420636f6d706c656044820152621d195960ea1b6064820152608401610d2c565b60008181526001602052604090205460ff1615612c955760405162461bcd60e51b8152602060048201526017602482015276149959195b5c1d1a5bdb881a5cc818dbdb5c1b195d1959604a1b6044820152606401610d2c565b6000818152601760205260408120546001600160a01b031690805b60048054604080516329fea19960e11b815290516001600160a01b03909216926353fd43329282820192602092908290030181865afa158015612cf7573d6000803e3d6000fd5b505050506040513d601f19601f82011682018060405250810190612d1b9190615d4d565b811015612eb8576004805460405163264cae9360e21b81529182018390526000916001600160a01b0390911690639932ba4c90602401602060405180830381865afa158015612d6e573d6000803e3d6000fd5b505050506040513d601f19601f82011682018060405250810190612d929190615d66565b6000868152600f602090815260408083206001600160a01b038581168552925280832054600754915163187b2ed160e21b815260048101829052949550939116906361ecbb4490602401602060405180830381865afa158015612df9573d6000803e3d6000fd5b505050506040513d601f19601f82011682018060405250810190612e1d9190615d4d565b60075460405163069352a960e41b8152600481018590529192506000916001600160a01b03909116906369352a9090602401602060405180830381865afa158015612e6c573d6000803e3d6000fd5b505050506040513d601f19601f82011682018060405250810190612e909190615d4d565b9050612e9c8183615e19565b612ea69087615d3a565b95505060019093019250612cb0915050565b5060085460009061271090612ed790600160a81b900460ff1684615da4565b612ee19190615dd1565b6006546008549192506001600160a01b0390811691631c20fadd9116612f05613056565b846040518463ffffffff1660e01b8152600401612f2493929190615f21565b600060405180830381600087803b158015612f3e57600080fd5b505af1158015612f52573d6000803e3d6000fd5b50506006546008546001600160a01b039182169350631c20fadd92501685612f7a8587615e19565b6040518463ffffffff1660e01b8152600401612f9893929190615f21565b600060405180830381600087803b158015612fb257600080fd5b505af1158015612fc6573d6000803e3d6000fd5b5050506000858152600160208181526040808420805460ff19169093179092556008546022909152918190205490516001600160a01b03878116945088937f1c5f6e901258d71ab0ecaa2fcf93176caa78dac41e03fe5dd7a0184727336d8a9361303893929091169188904290615df3565b60405180910390a350505050565b61304e615012565b610d696156ea565b7f9016d09d72d40fdae2fd8ceac6b6234c7706214fd39c1cd1e609a0528c199300546001600160a01b031690565b60048054604051635ac9331560e11b81529182018390526001600160a01b03169063b592662a90602401602060405180830381865afa1580156130cb573d6000803e3d6000fd5b505050506040513d601f19601f820116820180604052508101906130ef9190615f45565b6131465760405162461bcd60e51b815260206004820152602260248201527f43616e63656c20726564656d7074696f6e206973206e6f7420636f6d706c6574604482015261195960f21b6064820152608401610d2c565b6000818152601b602052604090205460ff16156131755760405162461bcd60e51b8152600401610d2c90615f62565b60008181526017602090815260408083205460199092528083205460085491516370a0823160e01b81526001600160a01b0391821660048201819052938216949291909116906370a0823190602401602060405180830381865afa1580156131e1573d6000803e3d6000fd5b505050506040513d601f19601f820116820180604052508101906132059190615d4d565b905060005b60048054604080516329fea19960e11b815290516001600160a01b03909216926353fd43329282820192602092908290030181865afa158015613251573d6000803e3d6000fd5b505050506040513d601f19601f820116820180604052508101906132759190615d4d565b81101561366c576004805460405163264cae9360e21b81529182018390526000916001600160a01b0390911690639932ba4c90602401602060405180830381865afa1580156132c8573d6000803e3d6000fd5b505050506040513d601f19601f820116820180604052508101906132ec9190615d66565b6000878152600d602090815260408083206001600160a01b038581168552925280832054600754915163069352a960e41b815260048101829052949550939116906369352a9090602401602060405180830381865afa158015613353573d6000803e3d6000fd5b505050506040513d601f19601f820116820180604052508101906133779190615d4d565b60075460405163187b2ed160e21b8152600481018590526001600160a01b03909116906361ecbb4490602401602060405180830381865afa1580156133c0573d6000803e3d6000fd5b505050506040513d601f19601f820116820180604052508101906133e49190615d4d565b6133ee9190615e19565b60008981526026602090815260408083206001600160a01b038816845290915281205491925061341e8284615d3a565b9050801561365b57600654604051631c20fadd60e01b81526001600160a01b0390911690631c20fadd9061345a90889030908690600401615f21565b600060405180830381600087803b15801561347457600080fd5b505af1158015613488573d6000803e3d6000fd5b50506004805460405162493aaf60e51b81526001600160a01b038a811693820184905292945063095ea7b3935091169063092755e090602401602060405180830381865afa1580156134de573d6000803e3d6000fd5b505050506040513d601f19601f820116820180604052508101906135029190615d66565b6040516001600160e01b031960e084901b1681526001600160a01b039091166004820152602481018490526044016020604051808303816000875af115801561354f573d6000803e3d6000fd5b505050506040513d601f19601f820116820180604052508101906135739190615f45565b506004805460405162493aaf60e51b81526001600160a01b038881169382019390935291169063092755e090602401602060405180830381865afa1580156135bf573d6000803e3d6000fd5b505050506040513d601f19601f820116820180604052508101906135e39190615d66565b600554604051636e553f6560e01b8152600481018490526001600160a01b039182166024820152911690636e553f65906044016020604051808303816000875af1158015613635573d6000803e3d6000fd5b505050506040513d601f19601f820116820180604052508101906136599190615d4d565b505b50506001909301925061320a915050565b50600354600085815260026020526040908190205490516340c10f1960e01b81526001600160a01b03868116600483015260248201929092529116906340c10f1990604401600060405180830381600087803b1580156136cb57600080fd5b505af11580156136df573d6000803e3d6000fd5b50505060009485525050601b602052505060409020805460ff19166001179055565b60008181526001602052604090205460ff161561375a5760405162461bcd60e51b8152602060048201526017602482015276149959195b5c1d1a5bdb881a5cc818dbdb5c1b195d1959604a1b6044820152606401610d2c565b6000818152601760209081526040808320546019909252909120546001600160a01b0391821691163382146137e25760405162461bcd60e51b815260206004820152602860248201527f4f6e6c79207265717565737465722063616e2063616e63656c207468652072656044820152673232b6b83a34b7b760c11b6064820152608401610d2c565b60005b60048054604080516329fea19960e11b815290516001600160a01b03909216926353fd43329282820192602092908290030181865afa15801561382c573d6000803e3d6000fd5b505050506040513d601f19601f820116820180604052508101906138509190615d4d565b811015613e50576004805460405163264cae9360e21b81529182018390526000916001600160a01b0390911690639932ba4c90602401602060405180830381865afa1580156138a3573d6000803e3d6000fd5b505050506040513d601f19601f820116820180604052508101906138c79190615d66565b6000868152600f602090815260408083206001600160a01b03808616855290835281842054808552601c8452828520835161014081018552815467ffffffffffffffff81168252600160401b90048416958101959095526001808201548416948601949094526002810154928316606086015260ff600160a01b84048116151560808701529697509095909260a0850192600160a81b90049091169081111561397257613972615a53565b600181111561398357613983615a53565b815260038281015460208301526004830154604083015260058301546060830152600683015460809092019160ff16908111156139c2576139c2615a53565b60038111156139d3576139d3615a53565b90525060075460405163069352a960e41b8152600481018590529192506000916001600160a01b03909116906369352a9090602401602060405180830381865afa158015613a25573d6000803e3d6000fd5b505050506040513d601f19601f82011682018060405250810190613a499190615d4d565b60075460405163187b2ed160e21b8152600481018690526001600160a01b03909116906361ecbb4490602401602060405180830381865afa158015613a92573d6000803e3d6000fd5b505050506040513d601f19601f82011682018060405250810190613ab69190615d4d565b613ac09190615e19565b60075460405163103fdae160e31b8152600481018690529192506000916001600160a01b03909116906381fed70890602401602060405180830381865afa158015613b0f573d6000803e3d6000fd5b505050506040513d601f19601f82011682018060405250810190613b339190615d4d565b6007546040516322fd455760e11b8152600481018790529192506001916001600160a01b03909116906345fa8aae90602401602060405180830381865afa158015613b82573d6000803e3d6000fd5b505050506040513d601f19601f82011682018060405250810190613ba69190615d83565b6003811115613bb757613bb7615a53565b60ff16148015613bc5575081155b15613c525760065460405163514fcac760e01b8152600481018690526001600160a01b039091169063514fcac790602401600060405180830381600087803b158015613c1057600080fd5b505af1158015613c24573d6000803e3d6000fd5b50505060008a81526026602090815260408083206001600160a01b038a168452909152902082905550613e3f565b6007546040516322fd455760e11b8152600481018690526002916001600160a01b0316906345fa8aae90602401602060405180830381865afa158015613c9c573d6000803e3d6000fd5b505050506040513d601f19601f82011682018060405250810190613cc09190615d83565b6003811115613cd157613cd1615a53565b60ff161480613ce05750600082115b15613e3f576000613cf286848a6154a3565b604080518082018252600480825260208083018f81526000868152602383528581209451855590516001948501558f8152600d82528481206001600160a01b038d8116835292528490208a905560075493516322fd455760e11b81529182018a9052939450909291909116906345fa8aae90602401602060405180830381865afa158015613d84573d6000803e3d6000fd5b505050506040513d601f19601f82011682018060405250810190613da89190615d83565b6003811115613db957613db9615a53565b60ff1603613e3d5760008a81526026602090815260408083206001600160a01b038a81168552925291829020849055600654915163514fcac760e01b81526004810188905291169063514fcac790602401600060405180830381600087803b158015613e2457600080fd5b505af1158015613e38573d6000803e3d6000fd5b505050505b505b5050600190930192506137e5915050565b50505050565b6004805460405162493aaf60e51b81526001600160a01b03848116938201939093526000928392169063092755e090602401602060405180830381865afa158015613ea5573d6000803e3d6000fd5b505050506040513d601f19601f82011682018060405250810190613ec99190615d66565b6005546040516370a0823160e01b81526001600160a01b039182166004820152919250600091908316906370a0823190602401602060405180830381865afa158015613f19573d6000803e3d6000fd5b505050506040513d601f19601f82011682018060405250810190613f3d9190615d4d565b60405163266d6a8360e11b8152600481018290529091506001600160a01b03831690634cdad50690602401602060405180830381865afa158015613f85573d6000803e3d6000fd5b505050506040513d601f19601f82011682018060405250810190613fa99190615d4d565b949350505050565b60008060005b60048054604080516329fea19960e11b815290516001600160a01b03909216926353fd43329282820192602092908290030181865afa158015613ffe573d6000803e3d6000fd5b505050506040513d601f19601f820116820180604052508101906140229190615d4d565b8110156140b2576004805460405163264cae9360e21b815291820183905260009161409b916001600160a01b031690639932ba4c90602401602060405180830381865afa158015614077573d6000803e3d6000fd5b505050506040513d601f19601f82011682018060405250810190610b9c9190615d66565b90506140a78184615d3a565b925050600101613fb7565b50919050565b600480546040516308d0eb2d60e21b81529182018390526001600160a01b031690632343acb490602401602060405180830381865afa1580156140ff573d6000803e3d6000fd5b505050506040513d601f19601f820116820180604052508101906141239190615f45565b61416f5760405162461bcd60e51b815260206004820152601860248201527f4f726465727320617265206e6f7420636f6d706c6574656400000000000000006044820152606401610d2c565b60008181526020819052604090205460ff16156141c65760405162461bcd60e51b8152602060048201526015602482015274125cdcdd585b98d9481a5cc818dbdb5c1b195d1959605a1b6044820152606401610d2c565b6000818152601660205260408120546001600160a01b03169080805b60048054604080516329fea19960e11b815290516001600160a01b03909216926353fd43329282820192602092908290030181865afa158015614229573d6000803e3d6000fd5b505050506040513d601f19601f8201168201806040525081019061424d9190615d4d565b81101561467f576004805460405163264cae9360e21b81529182018390526000916001600160a01b0390911690639932ba4c90602401602060405180830381865afa1580156142a0573d6000803e3d6000fd5b505050506040513d601f19601f820116820180604052508101906142c49190615d66565b6000878152600e602090815260408083206001600160a01b038581168086529190935281842054600754600854935163a377cfbf60e01b81526004810193909352928416602483015294955091169063a377cfbf906044016040805180830381865afa158015614338573d6000803e3d6000fd5b505050506040513d601f19601f8201168201806040525081019061435c9190615eb3565b60075460405163187b2ed160e21b8152600481018590529192506000916001600160a01b03909116906361ecbb4490602401602060405180830381865afa1580156143ab573d6000803e3d6000fd5b505050506040513d601f19601f820116820180604052508101906143cf9190615d4d565b60008a81526012602090815260408083206001600160a01b03891684529091528120548451929350916144029083615da4565b6000868152601060205260408120549192509061441f9083615d3a565b905061442b828b615d3a565b9950614437818a615d3a565b600654604051631c20fadd60e01b8152919a506001600160a01b031690631c20fadd9061446c908a9030908990600401615f21565b600060405180830381600087803b15801561448657600080fd5b505af115801561449a573d6000803e3d6000fd5b50506004805460405162493aaf60e51b81526001600160a01b038c811693820184905292945063095ea7b3935091169063092755e090602401602060405180830381865afa1580156144f0573d6000803e3d6000fd5b505050506040513d601f19601f820116820180604052508101906145149190615d66565b6040516001600160e01b031960e084901b1681526001600160a01b039091166004820152602481018790526044016020604051808303816000875af1158015614561573d6000803e3d6000fd5b505050506040513d601f19601f820116820180604052508101906145859190615f45565b506004805460405162493aaf60e51b81526001600160a01b038a81169382019390935291169063092755e090602401602060405180830381865afa1580156145d1573d6000803e3d6000fd5b505050506040513d601f19601f820116820180604052508101906145f59190615d66565b600554604051636e553f6560e01b8152600481018790526001600160a01b039182166024820152911690636e553f65906044016020604051808303816000875af1158015614647573d6000803e3d6000fd5b505050506040513d601f19601f8201168201806040525081019061466b9190615d4d565b5050600190960195506141e2945050505050565b5060008481526014602052604090205480158061469a575082155b156147785760006146ac836064615da4565b6003546040516340c10f1960e01b81526001600160a01b038881166004830152602482018490529293509116906340c10f1990604401600060405180830381600087803b1580156146fc57600080fd5b505af1158015614710573d6000803e3d6000fd5b5050600854600089815260216020526040908190205490516001600160a01b03808b1695508b94507f9b1c699e1cb709130ee00509d8f84a4fb33702e634298480371d27d66f6cd8c69361476a9391169187904290615df3565b60405180910390a350614866565b6000836147858484615da4565b61478f9190615dd1565b9050600061479d8383615e19565b6003546040516340c10f1960e01b81526001600160a01b038981166004830152602482018490529293509116906340c10f1990604401600060405180830381600087803b1580156147ed57600080fd5b505af1158015614801573d6000803e3d6000fd5b505060085460008a815260216020526040908190205490516001600160a01b03808c1695508c94507f9b1c699e1cb709130ee00509d8f84a4fb33702e634298480371d27d66f6cd8c69361485b9391169187904290615df3565b60405180910390a350505b50506009546000908152602081905260409020805460ff19166001179055505050565b600080614894613fb1565b90506000600360009054906101000a90046001600160a01b03166001600160a01b03166318160ddd6040518163ffffffff1660e01b8152600401602060405180830381865afa1580156148eb573d6000803e3d6000fd5b505050506040513d601f19601f8201168201806040525081019061490f9190615d4d565b905060008261491e8387615da4565b610ccf9190615dd1565b6000614932615012565b6001600160a01b0382166149885760405162461bcd60e51b815260206004820152601f60248201527f696e76616c696420666163746f72792073746f726167652061646472657373006044820152606401610d2c565b50600480546001600160a01b0383166001600160a01b03199091161790556001919050565b6000818152602360209081526040808320815180830190925280548083526001918201549383019390935290919003614a56576004805460208301516040516308d0eb2d60e21b8152928301526001600160a01b031690632343acb4906024015b602060405180830381865afa158015614a2b573d6000803e3d6000fd5b505050506040513d601f19601f82011682018060405250810190614a4f9190615f45565b9392505050565b8051600203614a9157600480546020830151604051631fd6049160e11b8152928301526001600160a01b031690633fac092290602401614a0e565b8051600303614acc5760048054602083015160405163631c838560e01b8152928301526001600160a01b03169063631c838590602401614a0e565b8051600403614b0757600480546020830151604051635ac9331560e11b8152928301526001600160a01b03169063b592662a90602401614a0e565b50600092915050565b60008060005b60048054604080516329fea19960e11b815290516001600160a01b03909216926353fd43329282820192602092908290030181865afa158015614b5d573d6000803e3d6000fd5b505050506040513d601f19601f82011682018060405250810190614b819190615d4d565b811015614d46576004805460405163264cae9360e21b81529182018390526000916001600160a01b0390911690639932ba4c90602401602060405180830381865afa158015614bd4573d6000803e3d6000fd5b505050506040513d601f19601f82011682018060405250810190614bf89190615d66565b60048054604051630be5271360e01b81526001600160a01b038085169382019390935292935060009268056bc75e2d631000009290911690630be5271390602401602060405180830381865afa158015614c56573d6000803e3d6000fd5b505050506040513d601f19601f82011682018060405250810190614c7a9190615d4d565b614c849088615da4565b614c8e9190615dd1565b6007546008546040516308da5c3560e21b81526000600482018190526001600160a01b0392831660248301529394508392919091169063236970d4906044016040805180830381865afa158015614ce9573d6000803e3d6000fd5b505050506040513d601f19601f82011682018060405250810190614d0d9190615cf7565b915091506000614d1d8285614fe9565b614d279084615d3a565b9050614d338188615d3a565b96505060019094019350614b1692505050565b5092915050565b600080614d58613fb1565b90506000600360009054906101000a90046001600160a01b03166001600160a01b03166318160ddd6040518163ffffffff1660e01b8152600401602060405180830381865afa158015614daf573d6000803e3d6000fd5b505050506040513d601f19601f82011682018060405250810190614dd39190615d4d565b905060008161491e8487615da4565b6000614dec615012565b6001600160a01b038316614e3a5760405162461bcd60e51b8152602060048201526015602482015274696e76616c696420746f6b656e206164647265737360581b6044820152606401610d2c565b506008805460ff8316600160a01b026001600160a81b03199091166001600160a01b0385161717905560015b92915050565b600080614e7883611f66565b90506000614e8584613e56565b9050670de0b6b3a7640000614e9a8383615da4565b613fa99190615dd1565b614eac615992565b6000828152601c6020908152604091829020825161014081018452815467ffffffffffffffff811682526001600160a01b03600160401b9091048116938201939093526001808301548416948201949094526002820154928316606082015260ff600160a01b84048116151560808301529093919260a0850192600160a81b90910490911690811115614f4157614f41615a53565b6001811115614f5257614f52615a53565b815260038281015460208301526004830154604083015260058301546060830152600683015460809092019160ff1690811115614f9157614f91615a53565b6003811115614fa257614fa2615a53565b90525092915050565b614fb3615012565b6001600160a01b038116614fdd57604051631e4fbdf760e01b815260006004820152602401610d2c565b614fe681615679565b50565b60008262ffffff16600003614fff576000614a4f565b614a4f8262ffffff8516620f4240615733565b3361501b613056565b6001600160a01b031614610d695760405163118cdaa760e01b8152336004820152602401610d2c565b61504c615807565b6000805160206160e4833981519152805460ff191681557f5db9ee0a495bf2e6ff9c91a7834c1ba4fdd244a5e8aa4e537bd38aeae4b073aa335b6040516001600160a01b03909116815260200160405180910390a150565b6004805460405162493aaf60e51b81526001600160a01b03868116938201939093526000928392169063092755e090602401602060405180830381865afa1580156150f3573d6000803e3d6000fd5b505050506040513d601f19601f820116820180604052508101906151179190615d66565b600554604051631c20fadd60e01b81529192506001600160a01b031690631c20fadd9061514c90849030908990600401615f21565b600060405180830381600087803b15801561516657600080fd5b505af115801561517a573d6000803e3d6000fd5b5050604051635d043b2960e11b81526004810187905230602482018190526044820152600092506001600160a01b038416915063ba087652906064016020604051808303816000875af11580156151d5573d6000803e3d6000fd5b505050506040513d601f19601f820116820180604052508101906151f99190615d4d565b905060006152076001615837565b6001600160a01b03888116604083810182905260c084018690528883166020850152600654905163a9059cbb60e01b8152921660048301526024820185905291925063a9059cbb906044016020604051808303816000875af1158015615271573d6000803e3d6000fd5b505050506040513d601f19601f820116820180604052508101906152959190615f45565b506006546040516319b284d160e21b81526001600160a01b03898116600483015260248201859052878116604483015260009216906366ca1344906064016020604051808303816000875af11580156152f2573d6000803e3d6000fd5b505050506040513d601f19601f820116820180604052508101906153169190615d4d565b6000818152601c6020908152604091829020855181549287015167ffffffffffffffff9091166001600160e01b031990931692909217600160401b6001600160a01b039384160217815591850151600180840180546001600160a01b0319169284169290921790915560608601516002840180546080890151929094166001600160a81b031990941693909317600160a01b911515919091021780835560a08701519495508694929160ff60a81b1990911690600160a81b9084908111156153e0576153e0615a53565b021790555060c0820151816003015560e0820151816004015561010082015181600501556101208201518160060160006101000a81548160ff0219169083600381111561542f5761542f615a53565b0217905550919998505050505050505050565b61544a6158ef565b614fe681615938565b61545b6158ef565b610d69615940565b60008260ff168260ff1611156154995761547d8383615fa7565b61548890600a6160a4565b61549290856160b3565b9050614a4f565b61547d8284615fa7565b6000806154b06000615837565b6001600160a01b0384811660208301819052878216604080850182905260e0850189905260065490516312544d1b60e01b815260048101929092526024820189905260448201929092529293506000929116906312544d1b906064016020604051808303816000875af115801561552b573d6000803e3d6000fd5b505050506040513d601f19601f8201168201806040525081019061554f9190615d4d565b6000818152601c6020908152604091829020855181549287015167ffffffffffffffff9091166001600160e01b031990931692909217600160401b6001600160a01b039384160217815591850151600180840180546001600160a01b0319169284169290921790915560608601516002840180546080890151929094166001600160a81b031990941693909317600160a01b911515919091021780835560a08701519495508694929160ff60a81b1990911690600160a81b90849081111561561957615619615a53565b021790555060c0820151816003015560e0820151816004015561010082015181600501556101208201518160060160006101000a81548160ff0219169083600381111561566857615668615a53565b021790555091979650505050505050565b7f9016d09d72d40fdae2fd8ceac6b6234c7706214fd39c1cd1e609a0528c19930080546001600160a01b031981166001600160a01b03848116918217845560405192169182907f8be0079c531659141344cd1fd0a4f28419497f9722a3daafe3b4186f6b6457e090600090a3505050565b6156f2615961565b6000805160206160e4833981519152805460ff191660011781557f62e78cea01bee320cd4e420270b5ea74000d11b0c9f74754ebdbfc544b05a25833615086565b600080806000198587098587029250828110838203039150508060000361576d5783828161576357615763615dbb565b0492505050614a4f565b83811061579e57604051630c740aef60e31b8152600481018790526024810186905260448101859052606401610d2c565b60008486880960026001871981018816978890046003810283188082028403028082028403028082028403028082028403028082028403029081029092039091026000889003889004909101858311909403939093029303949094049190911702949350505050565b6000805160206160e48339815191525460ff16610d6957604051638dfc202b60e01b815260040160405180910390fd5b61583f615992565b604080516101408101825267ffffffffffffffff421681523060208201526003546001600160a01b03908116928201929092526008549091166060820152821515608082015260a08101600081526020018361589c5760006158a7565b68056bc75e2d631000005b68ffffffffffffffffff168152602001836158cb5768056bc75e2d631000006158ce565b60005b68ffffffffffffffffff168152600060208201526040016001905292915050565b7ff0c57e16840df040f15088dc2f81fe391c3923bec73e23a9662efc9c229c6a0054600160401b900460ff16610d6957604051631afcd79f60e31b815260040160405180910390fd5b614fb36158ef565b6159486158ef565b6000805160206160e4833981519152805460ff19169055565b6000805160206160e48339815191525460ff1615610d695760405163d93c066560e01b815260040160405180910390fd5b604080516101408101825260008082526020820181905291810182905260608101829052608081018290529060a08201908152602001600081526020016000815260200160008152602001600060038111156159f0576159f0615a53565b905290565b6001600160a01b0381168114614fe657600080fd5b60008060408385031215615a1d57600080fd5b823591506020830135615a2f816159f5565b809150509250929050565b600060208284031215615a4c57600080fd5b5035919050565b634e487b7160e01b600052602160045260246000fd5b60028110615a7957615a79615a53565b9052565b60048110615a7957615a79615a53565b67ffffffffffffffff8b1681526001600160a01b038a8116602083015289811660408301528816606082015286151560808201526101408101615ad360a0830188615a69565b8560c08301528460e083015283610100830152615af4610120830184615a7d565b9b9a5050505050505050505050565b600060208284031215615b1557600080fd5b8135614a4f816159f5565b60ff81168114614fe657600080fd5b8015158114614fe657600080fd5b600080600080600080600080610100898b031215615b5a57600080fd5b8835615b65816159f5565b97506020890135615b75816159f5565b96506040890135615b85816159f5565b95506060890135615b95816159f5565b94506080890135615ba5816159f5565b935060a0890135615bb5816159f5565b925060c0890135615bc581615b20565b915060e0890135615bd581615b2f565b809150509295985092959890939650565b600060208284031215615bf857600080fd5b8135614a4f81615b20565b60008060408385031215615c1657600080fd5b8235615c21816159f5565b91506020830135615a2f81615b20565b815167ffffffffffffffff16815261014081016020830151615c5e60208401826001600160a01b03169052565b506040830151615c7960408401826001600160a01b03169052565b506060830151615c9460608401826001600160a01b03169052565b506080830151615ca8608084018215159052565b5060a0830151615cbb60a0840182615a69565b5060c083015160c083015260e083015160e083015261010080840151818401525061012080840151615cef82850182615a7d565b505092915050565b60008060408385031215615d0a57600080fd5b82519150602083015162ffffff81168114615a2f57600080fd5b634e487b7160e01b600052601160045260246000fd5b80820180821115614e6657614e66615d24565b600060208284031215615d5f57600080fd5b5051919050565b600060208284031215615d7857600080fd5b8151614a4f816159f5565b600060208284031215615d9557600080fd5b815160048110614a4f57600080fd5b8082028115828204841417614e6657614e66615d24565b634e487b7160e01b600052601260045260246000fd5b600082615dee57634e487b7160e01b600052601260045260246000fd5b500490565b6001600160a01b0394909416845260208401929092526040830152606082015260800190565b81810381811115614e6657614e66615d24565b805169ffffffffffffffffffff81168114610d5457600080fd5b600080600080600060a08688031215615e5e57600080fd5b615e6786615e2c565b9450602086015193506040860151925060608601519150615e8a60808701615e2c565b90509295509295909350565b600060208284031215615ea857600080fd5b8151614a4f81615b20565b600060408284031215615ec557600080fd5b6040516040810167ffffffffffffffff8282108183111715615ef757634e487b7160e01b600052604160045260246000fd5b8160405284518352602085015191508082168214615f1457600080fd5b5060208201529392505050565b6001600160a01b039384168152919092166020820152604081019190915260600190565b600060208284031215615f5757600080fd5b8151614a4f81615b2f565b60208082526025908201527f5468652070726f6365737320686173206265656e20636f6d706c65746564206260408201526465666f726560d81b606082015260800190565b60ff8281168282160390811115614e6657614e66615d24565b600181815b80851115615ffb578160001904821115615fe157615fe1615d24565b80851615615fee57918102915b93841c9390800290615fc5565b509250929050565b60008261601257506001614e66565b8161601f57506000614e66565b8160018114616035576002811461603f5761605b565b6001915050614e66565b60ff84111561605057616050615d24565b50506001821b614e66565b5060208310610133831016604e8410600b841016171561607e575081810a614e66565b6160888383615fc0565b806000190482111561609c5761609c615d24565b029392505050565b6000614a4f60ff841683616003565b80820260008212600160ff1b841416156160cf576160cf615d24565b8181058314821517614e6657614e66615d2456fecd5ed15c6e187e77e9aee88184c21f4f2182ab5827cb3b7e07fbedcd63f03300a26469706673582212205f4983657a5b2e0d89a5009a2b79ebbe43fa8d4d149bf1cac38ac2a31534917d64736f6c63430008190033","linkReferences":{}},"methodIdentifiers":{"actionInfoById(uint256)":"3c1f70ca","burnedTokenAmountByNonce(uint256)":"ab7820b2","buyRequestPayedAmountById(uint256)":"8861d235","calculateBuyRequestFee(uint256)":"06995e3b","calculateIssuanceFee(uint256)":"e19eefbe","cancelIssuance(uint256)":"46d66a2c","cancelIssuanceComplted(uint256)":"7bfa27f2","cancelIssuanceRequestId(uint256,address)":"02e80f71","cancelIssuanceUnfilledAmount(uint256,address)":"9edcf9f4","cancelRedemption(uint256)":"9219e510","cancelRedemptionComplted(uint256)":"b46840f9","cancelRedemptionRequestId(uint256,address)":"8c221899","cancelRedemptionUnfilledAmount(uint256,address)":"632439fd","checkMultical(uint256)":"e16e554a","coaByIssuanceNonce(uint256)":"31c99010","coaByRedemptionNonce(uint256)":"b75f4c2c","completeCancelIssuance(uint256)":"807ca237","completeCancelRedemption(uint256)":"9026544f","completeIssuance(uint256)":"bed45bef","completeRedemption(uint256)":"840ecba0","factoryStorage()":"c06e1ae2","feeRate()":"978bbdb9","getIssuanceAmountOut(uint256)":"c8da3303","getOrderInstanceById(uint256)":"f1f31d66","getPortfolioValue()":"bb0498de","getRedemptionAmountOut(uint256)":"e2851bd6","getVaultDshareBalance(address)":"a08d7bd6","getVaultDshareValue(address)":"efdf5053","initialize(address,address,address,address,address,address,uint8,bool)":"48f6e87b","isMainnet()":"42faac05","issuanceIndexTokenPrimaryTotalSupply(uint256)":"b1dd819e","issuanceIndexTokens(uint256)":"6e320408","issuanceInputAmount(uint256)":"cf9ee319","issuanceIsCompleted(uint256)":"a84ebc17","issuanceNonce()":"9dbb9c9e","issuanceRequestId(uint256,address)":"264fa8b9","issuanceRequesterByNonce(uint256)":"94674098","issuanceTokenPrimaryBalance(uint256,address)":"da65925a","issuer()":"1d143848","latestFeeUpdate()":"011ced5f","multical(uint256)":"73b774ed","orderInstanceById(uint256)":"15e666a2","orderManager()":"f9b6117f","owner()":"8da5cb5b","pause()":"8456cb59","paused()":"5c975abb","portfolioValueByNonce(uint256)":"2badae5d","priceInWei(address)":"6839a095","redemption(uint256)":"4a1dc092","redemptionIndexTokenPrimaryTotalSupply(uint256)":"daf1c17d","redemptionInputAmount(uint256)":"9cf54521","redemptionIsCompleted(uint256)":"76529fdf","redemptionNonce()":"84d77bb1","redemptionRequestId(uint256,address)":"f513a718","redemptionRequesterByNonce(uint256)":"78032658","redemptionTokenPrimaryBalance(uint256,address)":"a363b9cb","renounceOwnership()":"715018a6","sellRequestAssetAmountById(uint256)":"a87f98d2","setFeeRate(uint8)":"5177942a","setIndexFactoryStorage(address)":"cc8659ae","setIssuer(address)":"55cc4e57","setTokenAddress(address)":"26a4e8d2","setUsdcAddress(address,uint8)":"eab2a711","token()":"fc0c546a","tokenShortagePercentByNonce(uint256,address)":"db5c1a12","tokenValueByNonce(uint256,address)":"b316e7fd","totalShortagePercentByNonce(uint256)":"2ca49334","transferOwnership(address)":"f2fde38b","unpause()":"3f4ba83a","usdc()":"3e413bee","usdcDecimals()":"7bf42165","vault()":"fbfa77cf"},"id":16}