{"abi":[{"type":"function","name":"burnedTokenAmountByNonce","inputs":[{"name":"","type":"uint256","internalType":"uint256"}],"outputs":[{"name":"","type":"uint256","internalType":"uint256"}],"stateMutability":"view"},{"type":"function","name":"buyRequestPayedAmountById","inputs":[{"name":"","type":"uint256","internalType":"uint256"}],"outputs":[{"name":"","type":"uint256","internalType":"uint256"}],"stateMutability":"view"},{"type":"function","name":"calculateIssuanceFee","inputs":[{"name":"_inputAmount","type":"uint256","internalType":"uint256"}],"outputs":[{"name":"","type":"uint256","internalType":"uint256"}],"stateMutability":"view"},{"type":"function","name":"cancelIssuance","inputs":[{"name":"_issuanceNonce","type":"uint256","internalType":"uint256"}],"outputs":[],"stateMutability":"nonpayable"},{"type":"function","name":"cancelIssuanceComplted","inputs":[{"name":"","type":"uint256","internalType":"uint256"}],"outputs":[{"name":"","type":"bool","internalType":"bool"}],"stateMutability":"view"},{"type":"function","name":"cancelIssuanceRequestId","inputs":[{"name":"","type":"uint256","internalType":"uint256"},{"name":"","type":"address","internalType":"address"}],"outputs":[{"name":"","type":"uint256","internalType":"uint256"}],"stateMutability":"view"},{"type":"function","name":"cancelRedemption","inputs":[{"name":"_redemptionNonce","type":"uint256","internalType":"uint256"}],"outputs":[],"stateMutability":"nonpayable"},{"type":"function","name":"cancelRedemptionComplted","inputs":[{"name":"","type":"uint256","internalType":"uint256"}],"outputs":[{"name":"","type":"bool","internalType":"bool"}],"stateMutability":"view"},{"type":"function","name":"cancelRedemptionRequestId","inputs":[{"name":"","type":"uint256","internalType":"uint256"},{"name":"","type":"address","internalType":"address"}],"outputs":[{"name":"","type":"uint256","internalType":"uint256"}],"stateMutability":"view"},{"type":"function","name":"checkCancelIssuanceStatus","inputs":[{"name":"_issuanceNonce","type":"uint256","internalType":"uint256"}],"outputs":[{"name":"","type":"bool","internalType":"bool"}],"stateMutability":"view"},{"type":"function","name":"checkCancelRedemptionStatus","inputs":[{"name":"_redemptionNonce","type":"uint256","internalType":"uint256"}],"outputs":[{"name":"","type":"bool","internalType":"bool"}],"stateMutability":"view"},{"type":"function","name":"checkIssuanceOrdersStatus","inputs":[{"name":"_issuanceNonce","type":"uint256","internalType":"uint256"}],"outputs":[{"name":"","type":"bool","internalType":"bool"}],"stateMutability":"view"},{"type":"function","name":"checkRedemptionOrdersStatus","inputs":[{"name":"_redemptionNonce","type":"uint256","internalType":"uint256"}],"outputs":[{"name":"","type":"bool","internalType":"bool"}],"stateMutability":"view"},{"type":"function","name":"coaByIssuanceNonce","inputs":[{"name":"","type":"uint256","internalType":"uint256"}],"outputs":[{"name":"","type":"address","internalType":"address"}],"stateMutability":"view"},{"type":"function","name":"coaByRedemptionNonce","inputs":[{"name":"","type":"uint256","internalType":"uint256"}],"outputs":[{"name":"","type":"address","internalType":"address"}],"stateMutability":"view"},{"type":"function","name":"completeCancelIssuance","inputs":[{"name":"_issuanceNonce","type":"uint256","internalType":"uint256"}],"outputs":[],"stateMutability":"nonpayable"},{"type":"function","name":"completeCancelRedemption","inputs":[{"name":"_redemptionNonce","type":"uint256","internalType":"uint256"}],"outputs":[],"stateMutability":"nonpayable"},{"type":"function","name":"completeIssuance","inputs":[{"name":"_issuanceNonce","type":"uint256","internalType":"uint256"}],"outputs":[],"stateMutability":"nonpayable"},{"type":"function","name":"completeRedemption","inputs":[{"name":"_redemptionNonce","type":"uint256","internalType":"uint256"}],"outputs":[],"stateMutability":"nonpayable"},{"type":"function","name":"concatenation","inputs":[{"name":"a","type":"string","internalType":"string"},{"name":"b","type":"string","internalType":"string"}],"outputs":[{"name":"","type":"string","internalType":"string"}],"stateMutability":"pure"},{"type":"function","name":"currentList","inputs":[{"name":"","type":"uint256","internalType":"uint256"}],"outputs":[{"name":"","type":"address","internalType":"address"}],"stateMutability":"view"},{"type":"function","name":"custodianWallet","inputs":[],"outputs":[{"name":"","type":"address","internalType":"address"}],"stateMutability":"view"},{"type":"function","name":"externalJobId","inputs":[],"outputs":[{"name":"","type":"bytes32","internalType":"bytes32"}],"stateMutability":"view"},{"type":"function","name":"feeRate","inputs":[],"outputs":[{"name":"","type":"uint8","internalType":"uint8"}],"stateMutability":"view"},{"type":"function","name":"fulfillAssetsData","inputs":[{"name":"requestId","type":"bytes32","internalType":"bytes32"},{"name":"_tokens","type":"address[]","internalType":"address[]"},{"name":"_marketShares","type":"uint256[]","internalType":"uint256[]"}],"outputs":[],"stateMutability":"nonpayable"},{"type":"function","name":"getOrderInctanceById","inputs":[{"name":"id","type":"uint256","internalType":"uint256"}],"outputs":[{"name":"","type":"tuple","internalType":"struct IOrderProcessor.Order","components":[{"name":"requestTimestamp","type":"uint64","internalType":"uint64"},{"name":"recipient","type":"address","internalType":"address"},{"name":"assetToken","type":"address","internalType":"address"},{"name":"paymentToken","type":"address","internalType":"address"},{"name":"sell","type":"bool","internalType":"bool"},{"name":"orderType","type":"uint8","internalType":"enum IOrderProcessor.OrderType"},{"name":"assetTokenQuantity","type":"uint256","internalType":"uint256"},{"name":"paymentTokenQuantity","type":"uint256","internalType":"uint256"},{"name":"price","type":"uint256","internalType":"uint256"},{"name":"tif","type":"uint8","internalType":"enum IOrderProcessor.TIF"}]}],"stateMutability":"view"},{"type":"function","name":"initialize","inputs":[{"name":"_issuer","type":"address","internalType":"address"},{"name":"_token","type":"address","internalType":"address"},{"name":"_vault","type":"address","internalType":"address"},{"name":"_usdc","type":"address","internalType":"address"},{"name":"_usdcDecimals","type":"uint8","internalType":"uint8"},{"name":"_chainlinkToken","type":"address","internalType":"address"},{"name":"_oracleAddress","type":"address","internalType":"address"},{"name":"_externalJobId","type":"bytes32","internalType":"bytes32"}],"outputs":[],"stateMutability":"nonpayable"},{"type":"function","name":"issuance","inputs":[{"name":"_inputAmount","type":"uint256","internalType":"uint256"}],"outputs":[{"name":"","type":"uint256","internalType":"uint256"}],"stateMutability":"nonpayable"},{"type":"function","name":"issuanceIndexTokenPrimaryTotalSupply","inputs":[{"name":"","type":"uint256","internalType":"uint256"}],"outputs":[{"name":"","type":"uint256","internalType":"uint256"}],"stateMutability":"view"},{"type":"function","name":"issuanceIsCompleted","inputs":[{"name":"","type":"uint256","internalType":"uint256"}],"outputs":[{"name":"","type":"bool","internalType":"bool"}],"stateMutability":"view"},{"type":"function","name":"issuanceNonce","inputs":[],"outputs":[{"name":"","type":"uint256","internalType":"uint256"}],"stateMutability":"view"},{"type":"function","name":"issuanceRequestId","inputs":[{"name":"","type":"uint256","internalType":"uint256"},{"name":"","type":"address","internalType":"address"}],"outputs":[{"name":"","type":"uint256","internalType":"uint256"}],"stateMutability":"view"},{"type":"function","name":"issuanceRequesterByNonce","inputs":[{"name":"","type":"uint256","internalType":"uint256"}],"outputs":[{"name":"","type":"address","internalType":"address"}],"stateMutability":"view"},{"type":"function","name":"issuanceTokenPrimaryBalance","inputs":[{"name":"","type":"uint256","internalType":"uint256"},{"name":"","type":"address","internalType":"address"}],"outputs":[{"name":"","type":"uint256","internalType":"uint256"}],"stateMutability":"view"},{"type":"function","name":"issuer","inputs":[],"outputs":[{"name":"","type":"address","internalType":"contract IOrderProcessor"}],"stateMutability":"view"},{"type":"function","name":"lastUpdateTime","inputs":[],"outputs":[{"name":"","type":"uint256","internalType":"uint256"}],"stateMutability":"view"},{"type":"function","name":"latestFeeUpdate","inputs":[],"outputs":[{"name":"","type":"uint256","internalType":"uint256"}],"stateMutability":"view"},{"type":"function","name":"mockFillAssetsList","inputs":[{"name":"_tokens","type":"address[]","internalType":"address[]"},{"name":"_marketShares","type":"uint256[]","internalType":"uint256[]"}],"outputs":[],"stateMutability":"nonpayable"},{"type":"function","name":"oracleList","inputs":[{"name":"","type":"uint256","internalType":"uint256"}],"outputs":[{"name":"","type":"address","internalType":"address"}],"stateMutability":"view"},{"type":"function","name":"oraclePayment","inputs":[],"outputs":[{"name":"","type":"uint256","internalType":"uint256"}],"stateMutability":"view"},{"type":"function","name":"orderInstanceById","inputs":[{"name":"","type":"uint256","internalType":"uint256"}],"outputs":[{"name":"requestTimestamp","type":"uint64","internalType":"uint64"},{"name":"recipient","type":"address","internalType":"address"},{"name":"assetToken","type":"address","internalType":"address"},{"name":"paymentToken","type":"address","internalType":"address"},{"name":"sell","type":"bool","internalType":"bool"},{"name":"orderType","type":"uint8","internalType":"enum IOrderProcessor.OrderType"},{"name":"assetTokenQuantity","type":"uint256","internalType":"uint256"},{"name":"paymentTokenQuantity","type":"uint256","internalType":"uint256"},{"name":"price","type":"uint256","internalType":"uint256"},{"name":"tif","type":"uint8","internalType":"enum IOrderProcessor.TIF"}],"stateMutability":"view"},{"type":"function","name":"owner","inputs":[],"outputs":[{"name":"","type":"address","internalType":"address"}],"stateMutability":"view"},{"type":"function","name":"pause","inputs":[],"outputs":[],"stateMutability":"nonpayable"},{"type":"function","name":"paused","inputs":[],"outputs":[{"name":"","type":"bool","internalType":"bool"}],"stateMutability":"view"},{"type":"function","name":"redemption","inputs":[{"name":"_inputAmount","type":"uint256","internalType":"uint256"}],"outputs":[{"name":"","type":"uint256","internalType":"uint256"}],"stateMutability":"nonpayable"},{"type":"function","name":"redemptionIndexTokenPrimaryTotalSupply","inputs":[{"name":"","type":"uint256","internalType":"uint256"}],"outputs":[{"name":"","type":"uint256","internalType":"uint256"}],"stateMutability":"view"},{"type":"function","name":"redemptionIsCompleted","inputs":[{"name":"","type":"uint256","internalType":"uint256"}],"outputs":[{"name":"","type":"bool","internalType":"bool"}],"stateMutability":"view"},{"type":"function","name":"redemptionNonce","inputs":[],"outputs":[{"name":"","type":"uint256","internalType":"uint256"}],"stateMutability":"view"},{"type":"function","name":"redemptionRequestId","inputs":[{"name":"","type":"uint256","internalType":"uint256"},{"name":"","type":"address","internalType":"address"}],"outputs":[{"name":"","type":"uint256","internalType":"uint256"}],"stateMutability":"view"},{"type":"function","name":"redemptionRequesterByNonce","inputs":[{"name":"","type":"uint256","internalType":"uint256"}],"outputs":[{"name":"","type":"address","internalType":"address"}],"stateMutability":"view"},{"type":"function","name":"redemptionTokenPrimaryBalance","inputs":[{"name":"","type":"uint256","internalType":"uint256"},{"name":"","type":"address","internalType":"address"}],"outputs":[{"name":"","type":"uint256","internalType":"uint256"}],"stateMutability":"view"},{"type":"function","name":"renounceOwnership","inputs":[],"outputs":[],"stateMutability":"nonpayable"},{"type":"function","name":"requestAssetsData","inputs":[],"outputs":[{"name":"","type":"bytes32","internalType":"bytes32"}],"stateMutability":"nonpayable"},{"type":"function","name":"sellRequestAssetAmountById","inputs":[{"name":"","type":"uint256","internalType":"uint256"}],"outputs":[{"name":"","type":"uint256","internalType":"uint256"}],"stateMutability":"view"},{"type":"function","name":"setCustodianWallet","inputs":[{"name":"_custodianWallet","type":"address","internalType":"address"}],"outputs":[{"name":"","type":"bool","internalType":"bool"}],"stateMutability":"nonpayable"},{"type":"function","name":"setDShareAddresses","inputs":[{"name":"_dShares","type":"address[]","internalType":"address[]"},{"name":"_wrappedDShares","type":"address[]","internalType":"address[]"}],"outputs":[],"stateMutability":"nonpayable"},{"type":"function","name":"setFeeRate","inputs":[{"name":"_newFee","type":"uint8","internalType":"uint8"}],"outputs":[],"stateMutability":"nonpayable"},{"type":"function","name":"setIssuer","inputs":[{"name":"_issuer","type":"address","internalType":"address"}],"outputs":[{"name":"","type":"bool","internalType":"bool"}],"stateMutability":"nonpayable"},{"type":"function","name":"setOracleInfo","inputs":[{"name":"_oracleAddress","type":"address","internalType":"address"},{"name":"_externalJobId","type":"bytes32","internalType":"bytes32"}],"outputs":[],"stateMutability":"nonpayable"},{"type":"function","name":"setTokenAddress","inputs":[{"name":"_token","type":"address","internalType":"address"}],"outputs":[{"name":"","type":"bool","internalType":"bool"}],"stateMutability":"nonpayable"},{"type":"function","name":"setUrl","inputs":[{"name":"_beforeAddress","type":"string","internalType":"string"},{"name":"_afterAddress","type":"string","internalType":"string"}],"outputs":[],"stateMutability":"nonpayable"},{"type":"function","name":"setUsdcAddress","inputs":[{"name":"_usdc","type":"address","internalType":"address"},{"name":"_usdcDecimals","type":"uint8","internalType":"uint8"}],"outputs":[{"name":"","type":"bool","internalType":"bool"}],"stateMutability":"nonpayable"},{"type":"function","name":"token","inputs":[],"outputs":[{"name":"","type":"address","internalType":"contract IndexToken"}],"stateMutability":"view"},{"type":"function","name":"tokenCurrentListIndex","inputs":[{"name":"","type":"address","internalType":"address"}],"outputs":[{"name":"","type":"uint256","internalType":"uint256"}],"stateMutability":"view"},{"type":"function","name":"tokenCurrentMarketShare","inputs":[{"name":"","type":"address","internalType":"address"}],"outputs":[{"name":"","type":"uint256","internalType":"uint256"}],"stateMutability":"view"},{"type":"function","name":"tokenOracleListIndex","inputs":[{"name":"","type":"address","internalType":"address"}],"outputs":[{"name":"","type":"uint256","internalType":"uint256"}],"stateMutability":"view"},{"type":"function","name":"tokenOracleMarketShare","inputs":[{"name":"","type":"address","internalType":"address"}],"outputs":[{"name":"","type":"uint256","internalType":"uint256"}],"stateMutability":"view"},{"type":"function","name":"totalCurrentList","inputs":[],"outputs":[{"name":"","type":"uint256","internalType":"uint256"}],"stateMutability":"view"},{"type":"function","name":"totalOracleList","inputs":[],"outputs":[{"name":"","type":"uint256","internalType":"uint256"}],"stateMutability":"view"},{"type":"function","name":"transferOwnership","inputs":[{"name":"newOwner","type":"address","internalType":"address"}],"outputs":[],"stateMutability":"nonpayable"},{"type":"function","name":"unpause","inputs":[],"outputs":[],"stateMutability":"nonpayable"},{"type":"function","name":"usdc","inputs":[],"outputs":[{"name":"","type":"address","internalType":"address"}],"stateMutability":"view"},{"type":"function","name":"usdcDecimals","inputs":[],"outputs":[{"name":"","type":"uint8","internalType":"uint8"}],"stateMutability":"view"},{"type":"function","name":"vault","inputs":[],"outputs":[{"name":"","type":"address","internalType":"contract NexVault"}],"stateMutability":"view"},{"type":"function","name":"wrappedDshareAddress","inputs":[{"name":"","type":"address","internalType":"address"}],"outputs":[{"name":"","type":"address","internalType":"address"}],"stateMutability":"view"},{"type":"event","name":"ChainlinkCancelled","inputs":[{"name":"id","type":"bytes32","indexed":true,"internalType":"bytes32"}],"anonymous":false},{"type":"event","name":"ChainlinkFulfilled","inputs":[{"name":"id","type":"bytes32","indexed":true,"internalType":"bytes32"}],"anonymous":false},{"type":"event","name":"ChainlinkRequested","inputs":[{"name":"id","type":"bytes32","indexed":true,"internalType":"bytes32"}],"anonymous":false},{"type":"event","name":"Initialized","inputs":[{"name":"version","type":"uint64","indexed":false,"internalType":"uint64"}],"anonymous":false},{"type":"event","name":"OwnershipTransferred","inputs":[{"name":"previousOwner","type":"address","indexed":true,"internalType":"address"},{"name":"newOwner","type":"address","indexed":true,"internalType":"address"}],"anonymous":false},{"type":"event","name":"Paused","inputs":[{"name":"account","type":"address","indexed":false,"internalType":"address"}],"anonymous":false},{"type":"event","name":"Unpaused","inputs":[{"name":"account","type":"address","indexed":false,"internalType":"address"}],"anonymous":false},{"type":"error","name":"EnforcedPause","inputs":[]},{"type":"error","name":"ExpectedPause","inputs":[]},{"type":"error","name":"InvalidInitialization","inputs":[]},{"type":"error","name":"NotInitializing","inputs":[]},{"type":"error","name":"OwnableInvalidOwner","inputs":[{"name":"owner","type":"address","internalType":"address"}]},{"type":"error","name":"OwnableUnauthorizedAccount","inputs":[{"name":"account","type":"address","internalType":"address"}]},{"type":"error","name":"PRBMath_MulDiv_Overflow","inputs":[{"name":"x","type":"uint256","internalType":"uint256"},{"name":"y","type":"uint256","internalType":"uint256"},{"name":"denominator","type":"uint256","internalType":"uint256"}]}],"bytecode":{"object":"0x6080604052348015600f57600080fd5b50615e788061001f6000396000f3fe608060405234801561001057600080fd5b50600436106104495760003560e01c806384d77bb111610241578063ab7820b21161013b578063da65925a116100c3578063f14bea2011610087578063f14bea2014610bdb578063f2fde38b14610bee578063f513a71814610c01578063fbfa77cf14610c2c578063fc0c546a14610c3f57600080fd5b8063da65925a14610b57578063daf1c17d14610b82578063e19eefbe14610ba2578063eab2a71114610bb5578063efa906c714610bc857600080fd5b8063b592662a1161010a578063b592662a14610af6578063b75f4c2c14610b09578063bed45bef14610b32578063c8599ded14610b45578063c8f33c9114610b4e57600080fd5b8063ab7820b214610a80578063addc70d114610aa0578063b1dd819e14610ab3578063b46840f914610ad357600080fd5b8063978bbdb9116101c9578063a58e03af1161018d578063a58e03af14610a01578063a73e1cbf14610a21578063a84ebc1714610a34578063a87f98d214610a57578063a8b54bd414610a7757600080fd5b8063978bbdb91461097d5780639932ba4c146109915780639cc0fb5b146109ba5780639dbb9c9e146109cd578063a363b9cb146109d657600080fd5b80638da5cb5b116102105780638da5cb5b146108de5780639026544f1461090e578063914f0cc6146109215780639219e51014610941578063946740981461095457600080fd5b806384d77bb11461086a5780638861d235146108735780638c221899146108935780638c88c10c146108be57600080fd5b80633fac092211610352578063631c8385116102da5780637bfa27f21161029e5780637bfa27f2146108115780637ca58c5514610834578063807ca2371461083c578063840ecba01461084f5780638456cb591461086257600080fd5b8063631c838514610784578063715018a61461079757806376529fdf1461079f57806378032658146107c25780637bf42165146107eb57600080fd5b80634b3e0b80116103215780634b3e0b801461071d5780635177942a1461073d57806353fd43321461075057806355cc4e57146107595780635c975abb1461076c57600080fd5b80633fac0922146106d157806343482fc8146106e457806346d66a2c146106f75780634a1dc0921461070a57600080fd5b80632343acb4116103d557806326a4e8d2116103a457806326a4e8d21461066557806331c99010146106785780633492be94146106a15780633e413bee146106b65780633f4ba83a146106c957600080fd5b80632343acb4146105dd578063239aad0d14610600578063248b761e14610629578063264fa8b91461063c57600080fd5b80630c02e1301161041c5780630c02e130146104f65780630e329357146104ff57806315e666a21461051f5780631d143848146105b75780631e106e99146105ca57600080fd5b8063011ced5f1461044e57806302e80f711461046a578063092755e0146104955780630be52713146104d6575b600080fd5b610457602f5481565b6040519081526020015b60405180910390f35b610457610478366004614f15565b601e60209081526000928352604080842090915290825290205481565b6104be6104a3366004614f41565b600f602052600090815260409020546001600160a01b031681565b6040516001600160a01b039091168152602001610461565b6104576104e4366004614f41565b60126020526000908152604090205481565b61045760095481565b61051261050d366004615011565b610c52565b60405161046191906150c4565b6105a161052d3660046150d7565b602e6020526000908152604090208054600182015460028301546003840154600485015460058601546006909601546001600160401b038616966001600160a01b03600160401b9097048716969586169585169460ff600160a01b8204811695600160a81b9092048116949193919291168a565b6040516104619a9998979695949392919061512a565b601a546104be906001600160a01b031681565b6019546104be906001600160a01b031681565b6105f06105eb3660046150d7565b610c7f565b6040519015158152602001610461565b6104be61060e3660046150d7565b600d602052600090815260409020546001600160a01b031681565b6104576106373660046150d7565b610d7d565b61045761064a366004614f15565b60208080526000928352604080842090915290825290205481565b6105f0610673366004614f41565b6110da565b6104be6106863660046150d7565b602a602052600090815260409020546001600160a01b031681565b6106b46106af366004615238565b61115b565b005b601b546104be906001600160a01b031681565b6106b4611231565b6105f06106df3660046150d7565b611243565b6106b46106f2366004615291565b611320565b6106b46107053660046150d7565b611337565b6104576107183660046150d7565b611844565b61045761072b366004614f41565b60136020526000908152604090205481565b6106b461074b3660046152cc565b611bfc565b610457600c5481565b6105f0610767366004614f41565b611d46565b600080516020615e238339815191525460ff166105f0565b6105f06107923660046150d7565b611dc4565b6106b4612077565b6105f06107ad3660046150d7565b60156020526000908152604090205460ff1681565b6104be6107d03660046150d7565b6029602052600090815260409020546001600160a01b031681565b601b546107ff90600160a01b900460ff1681565b60405160ff9091168152602001610461565b6105f061081f3660046150d7565b602c6020526000908152604090205460ff1681565b610457612089565b6106b461084a3660046150d7565b6122c9565b6106b461085d3660046150d7565b612464565b6106b4612635565b610457601d5481565b6104576108813660046150d7565b60226020526000908152604090205481565b6104576108a1366004614f15565b601f60209081526000928352604080842090915290825290205481565b6104576108cc366004614f41565b60106020526000908152604090205481565b7f9016d09d72d40fdae2fd8ceac6b6234c7706214fd39c1cd1e609a0528c199300546001600160a01b03166104be565b6106b461091c3660046150d7565b612645565b61045761092f366004614f41565b60116020526000908152604090205481565b6106b461094f3660046150d7565b6128fe565b6104be6109623660046150d7565b6028602052600090815260409020546001600160a01b031681565b601b546107ff90600160a81b900460ff1681565b6104be61099f3660046150d7565b600e602052600090815260409020546001600160a01b031681565b6105f06109c8366004614f41565b612dab565b610457601c5481565b6104576109e4366004614f15565b602560209081526000928352604080842090915290825290205481565b610a14610a0f3660046150d7565b612e30565b604051610461919061539f565b6106b4610a2f366004615011565b612f36565b6105f0610a423660046150d7565b60146020526000908152604090205460ff1681565b610457610a653660046150d7565b60236020526000908152604090205481565b61045760085481565b610457610a8e3660046150d7565b60166020526000908152604090205481565b6106b4610aae36600461540d565b612f57565b610457610ac13660046150d7565b60266020526000908152604090205481565b6105f0610ae13660046150d7565b602d6020526000908152604090205460ff1681565b6105f0610b043660046150d7565b612f6d565b6104be610b173660046150d7565b602b602052600090815260409020546001600160a01b031681565b6106b4610b403660046150d7565b613221565b610457600b5481565b610457600a5481565b610457610b65366004614f15565b602460209081526000928352604080842090915290825290205481565b610457610b903660046150d7565b60276020526000908152604090205481565b610457610bb03660046150d7565b6136c6565b6105f0610bc3366004615466565b6137dd565b6106b4610bd6366004615490565b613866565b6106b4610be9366004615520565b613ae5565b6106b4610bfc366004614f41565b613bab565b610457610c0f366004614f15565b602160209081526000928352604080842090915290825290205481565b6018546104be906001600160a01b031681565b6017546104be906001600160a01b031681565b60608282604051602001610c6792919061558c565b60405160208183030381529060405290505b92915050565b60008060005b600c54811015610d5b576000818152600e60209081526040808320548784528280528184206001600160a01b0391821680865293529281902054601a5491516322fd455760e11b81526004810182905292939092600292909116906345fa8aae90602401602060405180830381865afa158015610d06573d6000803e3d6000fd5b505050506040513d601f19601f82011682018060405250810190610d2a91906155bb565b6003811115610d3b57610d3b6150f0565b60ff1603610d5157610d4e6001856155f2565b93505b5050600101610c85565b50600c548103610d6e5750600192915050565b50600092915050565b50919050565b600080610d89836136c6565b90506000610d9784836155f2565b601b546040516323b872dd60e01b81529192506001600160a01b0316906323b872dd90610dcc90339030908690600401615605565b6020604051808303816000875af1158015610deb573d6000803e3d6000fd5b505050506040513d601f19601f82011682018060405250810190610e0f9190615629565b50601b54601a5460405163095ea7b360e01b81526001600160a01b0391821660048201526024810184905291169063095ea7b3906044016020604051808303816000875af1158015610e65573d6000803e3d6000fd5b505050506040513d601f19601f82011682018060405250810190610e899190615629565b506001601c6000828254610e9d91906155f2565b92505081905550600030604051610eb390614e53565b6001600160a01b039091168152602001604051809103906000f080158015610edf573d6000803e3d6000fd5b50601c546000908152602a6020526040812080546001600160a01b0319166001600160a01b0384161790559091505b600c548110156110cd576000818152600e60209081526040808320546001600160a01b0316808452601290925282205490919068056bc75e2d6310000090610f56908a61564b565b610f609190615678565b90506000610f6f838387613be9565b6000818152602260209081526040808320869055601c805484528280528184206001600160a01b038981168087529185528386208790559154855260289093529281902080546001600160a01b0319163317905560185490516370a0823160e01b8152921660048301529192506370a0823190602401602060405180830381865afa158015611002573d6000803e3d6000fd5b505050506040513d601f19601f82011682018060405250810190611026919061568c565b601c5460009081526024602090815260408083206001600160a01b038089168552908352928190209390935560175483516318160ddd60e01b815293519216926318160ddd92600480830193928290030181865afa15801561108c573d6000803e3d6000fd5b505050506040513d601f19601f820116820180604052508101906110b0919061568c565b601c54600090815260266020526040902055505050600101610f0e565b5050601c54949350505050565b60006110e4613e62565b6001600160a01b0382166111375760405162461bcd60e51b8152602060048201526015602482015274696e76616c696420746f6b656e206164647265737360581b60448201526064015b60405180910390fd5b50601780546001600160a01b0319166001600160a01b03831617905560015b919050565b611163613e62565b80518251146111ac5760405162461bcd60e51b8152602060048201526015602482015274082e4e4c2f240d8cadccee8d040dad2e6dac2e8c6d605b1b604482015260640161112e565b60005b825181101561122c578181815181106111ca576111ca6156a5565b6020026020010151600f60008584815181106111e8576111e86156a5565b6020908102919091018101516001600160a01b0390811683529082019290925260400160002080546001600160a01b031916929091169190911790556001016111af565b505050565b611239613e62565b611241613ebd565b565b60008060005b600c54811015610d5b576000818152600e6020908152604080832054878452602183528184206001600160a01b0391821680865293529281902054601a5491516322fd455760e11b81526004810182905292939092600292909116906345fa8aae90602401602060405180830381865afa1580156112cb573d6000803e3d6000fd5b505050506040513d601f19601f820116820180604052508101906112ef91906155bb565b6003811115611300576113006150f0565b60ff1603611316576113136001856155f2565b93505b5050600101611249565b611328613e62565b61133182613f1d565b60085550565b60008181526014602052604090205460ff161561138e5760405162461bcd60e51b8152602060048201526015602482015274125cdcdd585b98d9481a5cc818dbdb5c1b195d1959605a1b604482015260640161112e565b600081815260286020908152604080832054602a909252909120546001600160a01b0391821691163382146114145760405162461bcd60e51b815260206004820152602660248201527f4f6e6c79207265717565737465722063616e2063616e63656c207468652069736044820152657375616e636560d01b606482015260840161112e565b60005b600c5481101561183e576000818152600e60209081526040808320548784528280528184206001600160a01b0391821680865290845282852054808652602e855283862084516101408101865281546001600160401b0381168252600160401b90048516968101969096526001818101548516958701959095526002810154938416606087015260ff600160a01b85048116151560808801529296919591949193909260a0850192600160a81b90920416908111156114d8576114d86150f0565b60018111156114e9576114e96150f0565b815260038281015460208301526004830154604083015260058301546060830152600683015460809092019160ff1690811115611528576115286150f0565b6003811115611539576115396150f0565b905250601a546040516322fd455760e11b8152600481018590529192506001916001600160a01b03909116906345fa8aae90602401602060405180830381865afa15801561158b573d6000803e3d6000fd5b505050506040513d601f19601f820116820180604052508101906115af91906155bb565b60038111156115c0576115c06150f0565b60ff160361162f57601a54604051630e52931760e21b81526001600160a01b039091169063394a4c5c906115f89084906004016156bb565b600060405180830381600087803b15801561161257600080fd5b505af1158015611626573d6000803e3d6000fd5b50505050611833565b601a546040516322fd455760e11b8152600481018490526002916001600160a01b0316906345fa8aae90602401602060405180830381865afa158015611679573d6000803e3d6000fd5b505050506040513d601f19601f8201168201806040525081019061169d91906155bb565b60038111156116ae576116ae6150f0565b60ff16148061172857506040516370a0823160e01b81526001600160a01b038681166004830152600091908516906370a0823190602401602060405180830381865afa158015611702573d6000803e3d6000fd5b505050506040513d601f19601f82011682018060405250810190611726919061568c565b115b15611833576040516370a0823160e01b81526001600160a01b038681166004830152600091908516906370a0823190602401602060405180830381865afa158015611777573d6000803e3d6000fd5b505050506040513d601f19601f8201168201806040525081019061179b919061568c565b6040516317ee7de960e11b81529091506001600160a01b03871690632fdcfbd2906117ce90879030908690600401615605565b600060405180830381600087803b1580156117e857600080fd5b505af11580156117fc573d6000803e3d6000fd5b50505050600061180d858389613f3f565b60008a8152601e602090815260408083206001600160a01b038a16845290915290205550505b505050600101611417565b50505050565b60006001601d600082825461185991906155f2565b9250508190555060003060405161186f90614e53565b6001600160a01b039091168152602001604051809103906000f08015801561189b573d6000803e3d6000fd5b50601d546000908152602b6020908152604080832080546001600160a01b0319166001600160a01b038681169190911790915560175482516318160ddd60e01b8152925195965093949316926318160ddd926004808401939192918290030181865afa15801561190f573d6000803e3d6000fd5b505050506040513d601f19601f82011682018060405250810190611933919061568c565b61194585670de0b6b3a764000061564b565b61194f9190615678565b601754604051632770a7eb60e21b8152336004820152602481018790529192506001600160a01b031690639dc29fac90604401600060405180830381600087803b15801561199c57600080fd5b505af11580156119b0573d6000803e3d6000fd5b5050601d5460009081526016602052604081208790559150505b600c54811015611bf0576000818152600e60209081526040808320546001600160a01b03908116808552600f9093528184205460185492516370a0823160e01b81529282166004840152929392670de0b6b3a7640000929116906370a0823190602401602060405180830381865afa158015611a4a573d6000803e3d6000fd5b505050506040513d601f19601f82011682018060405250810190611a6e919061568c565b611a78908661564b565b611a829190615678565b90506000611a91838388613f3f565b6000818152602360209081526040808320869055601d80548452602183528184206001600160a01b038981168087529185528386208790559154855260299093529281902080546001600160a01b0319163317905560185490516370a0823160e01b8152921660048301529192506370a0823190602401602060405180830381865afa158015611b25573d6000803e3d6000fd5b505050506040513d601f19601f82011682018060405250810190611b49919061568c565b601d5460009081526025602090815260408083206001600160a01b038089168552908352928190209390935560175483516318160ddd60e01b815293519216926318160ddd92600480830193928290030181865afa158015611baf573d6000803e3d6000fd5b505050506040513d601f19601f82011682018060405250810190611bd3919061568c565b601d546000908152602760205260409020555050506001016119ca565b5050601d549392505050565b611c04613e62565b6000602f5442611c1491906156e2565b9050600c603c611c248184615678565b611c2e9190615678565b11611ca15760405162461bcd60e51b815260206004820152603960248201527f596f752073686f756c642077616974206174206c6561737420313220686f757260448201527f7320616674657220746865206c61746573742075706461746500000000000000606482015260840161112e565b60648260ff1611158015611cb9575060018260ff1610155b611d215760405162461bcd60e51b815260206004820152603360248201527f546865206e65774665652073686f756c64206265206265747765656e203120616044820152726e64203130302028302e303125202d2031252960681b606482015260840161112e565b50601b805460ff909216600160a81b0260ff60a81b1990921691909117905542602f55565b6000611d50613e62565b6001600160a01b038216611d9f5760405162461bcd60e51b8152602060048201526016602482015275696e76616c696420697373756572206164647265737360501b604482015260640161112e565b50601a80546001600160a01b0383166001600160a01b03199091161790556001919050565b60008060005b600c54811015610d5b576000818152600e60209081526040808320548784528280528184206001600160a01b0391821680865290845282852054898652602a9094528285205492516370a0823160e01b815292909116600483018190529093909184906370a0823190602401602060405180830381865afa158015611e53573d6000803e3d6000fd5b505050506040513d601f19601f82011682018060405250810190611e77919061568c565b601a546040516322fd455760e11b8152600481018690529192506003916001600160a01b03909116906345fa8aae90602401602060405180830381865afa158015611ec6573d6000803e3d6000fd5b505050506040513d601f19601f82011682018060405250810190611eea91906155bb565b6003811115611efb57611efb6150f0565b60ff16148015611f09575080155b15611f2057611f196001876155f2565b9550612067565b601a546040516322fd455760e11b8152600481018590526002916001600160a01b0316906345fa8aae90602401602060405180830381865afa158015611f6a573d6000803e3d6000fd5b505050506040513d601f19601f82011682018060405250810190611f8e91906155bb565b6003811115611f9f57611f9f6150f0565b60ff16148015611fad575080155b15612067576000888152601e602090815260408083206001600160a01b03888116855292529182902054601a5492516322fd455760e11b815260048101829052909260029216906345fa8aae90602401602060405180830381865afa15801561201a573d6000803e3d6000fd5b505050506040513d601f19601f8201168201806040525081019061203e91906155bb565b600381111561204f5761204f6150f0565b60ff1603612065576120626001886155f2565b96505b505b505060019092019150611dca9050565b61207f613e62565b6112416000614273565b6000806121aa6006805461209c906156f5565b80601f01602080910402602001604051908101604052809291908181526020018280546120c8906156f5565b80156121155780601f106120ea57610100808354040283529160200191612115565b820191906000526020600020905b8154815290600101906020018083116120f857829003601f168201915b505050505060078054612127906156f5565b80601f0160208091040260200160405190810160405280929190818152602001828054612153906156f5565b80156121a05780601f10612175576101008083540402835291602001916121a0565b820191906000526020600020905b81548152906001019060200180831161218357829003601f168201915b5050505050610c52565b905060006121c26008543063f14bea2060e01b6142e4565b60408051808201909152600381526219d95d60ea1b60208201529091506121eb90829084614309565b61224660405180604001604052806005815260200164706174683160d81b81525060405180604001604052806011815260200170726573756c74732c61646472657373657360781b815250836143099092919063ffffffff16565b6122a4604051806040016040528060058152602001643830ba341960d91b81525060405180604001604052806014815260200173726573756c74732c6d61726b657453686172657360601b815250836143099092919063ffffffff16565b6122c26122b96003546001600160a01b031690565b82600954614327565b9250505090565b6122d281611dc4565b61231e5760405162461bcd60e51b815260206004820181905260248201527f43616e63656c2069737375616e6365206973206e6f7420636f6d706c65746564604482015260640161112e565b6000818152602c602052604090205460ff161561234d5760405162461bcd60e51b815260040161112e90615729565b600081815260286020908152604080832054602a90925280832054601b5491516370a0823160e01b81526001600160a01b0391821660048201819052938216949291909116906370a0823190602401602060405180830381865afa1580156123b9573d6000803e3d6000fd5b505050506040513d601f19601f820116820180604052508101906123dd919061568c565b601b546040516317ee7de960e11b81529192506001600160a01b0380851692632fdcfbd29261241492169087908690600401615605565b600060405180830381600087803b15801561242e57600080fd5b505af1158015612442573d6000803e3d6000fd5b50505060009485525050602c602052505060409020805460ff19166001179055565b61246d81611243565b6124c55760405162461bcd60e51b815260206004820152602360248201527f526564656d7074696f6e206f726465727320617265206e6f7420636f6d706c656044820152621d195960ea1b606482015260840161112e565b60008181526015602052604090205460ff161561251e5760405162461bcd60e51b8152602060048201526017602482015276149959195b5c1d1a5bdb881a5cc818dbdb5c1b195d1959604a1b604482015260640161112e565b600081815260296020908152604080832054602b90925280832054601b5491516370a0823160e01b81526001600160a01b0391821660048201819052938216949291909116906370a0823190602401602060405180830381865afa15801561258a573d6000803e3d6000fd5b505050506040513d601f19601f820116820180604052508101906125ae919061568c565b601b546040516317ee7de960e11b81529192506001600160a01b0380851692632fdcfbd2926125e592169087908690600401615605565b600060405180830381600087803b1580156125ff57600080fd5b505af1158015612613573d6000803e3d6000fd5b505050600094855250506015602052505060409020805460ff19166001179055565b61263d613e62565b6112416143ba565b61264e81612f6d565b6126a55760405162461bcd60e51b815260206004820152602260248201527f43616e63656c20726564656d7074696f6e206973206e6f7420636f6d706c6574604482015261195960f21b606482015260840161112e565b6000818152602d602052604090205460ff16156126d45760405162461bcd60e51b815260040161112e90615729565b600081815260296020908152604080832054602b90925280832054601b5491516370a0823160e01b81526001600160a01b0391821660048201819052938216949291909116906370a0823190602401602060405180830381865afa158015612740573d6000803e3d6000fd5b505050506040513d601f19601f82011682018060405250810190612764919061568c565b905060005b600c54811015612869576000818152600e60205260408082205490516370a0823160e01b81526001600160a01b038681166004830152909116919082906370a0823190602401602060405180830381865afa1580156127cc573d6000803e3d6000fd5b505050506040513d601f19601f820116820180604052508101906127f0919061568c565b9050801561285f576018546040516317ee7de960e11b81526001600160a01b0380881692632fdcfbd29261282c92879216908690600401615605565b600060405180830381600087803b15801561284657600080fd5b505af115801561285a573d6000803e3d6000fd5b505050505b5050600101612769565b50601754600085815260166020526040908190205490516340c10f1960e01b81526001600160a01b03868116600483015260248201929092529116906340c10f1990604401600060405180830381600087803b1580156128c857600080fd5b505af11580156128dc573d6000803e3d6000fd5b50505060009485525050602d602052505060409020805460ff19166001179055565b60008181526015602052604090205460ff16156129575760405162461bcd60e51b8152602060048201526017602482015276149959195b5c1d1a5bdb881a5cc818dbdb5c1b195d1959604a1b604482015260640161112e565b600081815260296020908152604080832054602b909252909120546001600160a01b0391821691163382146129df5760405162461bcd60e51b815260206004820152602860248201527f4f6e6c79207265717565737465722063616e2063616e63656c207468652072656044820152673232b6b83a34b7b760c11b606482015260840161112e565b60005b600c5481101561183e576000818152600e6020908152604080832054878452602183528184206001600160a01b0391821680865290845282852054808652602e855283862084516101408101865281546001600160401b0381168252600160401b90048516968101969096526001818101548516958701959095526002810154938416606087015260ff600160a01b85048116151560808801529296919591949193909260a0850192600160a81b9092041690811115612aa457612aa46150f0565b6001811115612ab557612ab56150f0565b815260038281015460208301526004830154604083015260058301546060830152600683015460809092019160ff1690811115612af457612af46150f0565b6003811115612b0557612b056150f0565b905250601a5460405163187b2ed160e21b8152600481018590529192506000916001600160a01b03909116906361ecbb4490602401602060405180830381865afa158015612b57573d6000803e3d6000fd5b505050506040513d601f19601f82011682018060405250810190612b7b919061568c565b601a546040516322fd455760e11b8152600481018690529192506001916001600160a01b03909116906345fa8aae90602401602060405180830381865afa158015612bca573d6000803e3d6000fd5b505050506040513d601f19601f82011682018060405250810190612bee91906155bb565b6003811115612bff57612bff6150f0565b60ff1603612c6e57601a54604051630e52931760e21b81526001600160a01b039091169063394a4c5c90612c379085906004016156bb565b600060405180830381600087803b158015612c5157600080fd5b505af1158015612c65573d6000803e3d6000fd5b50505050612d9b565b601a546040516322fd455760e11b8152600481018590526002916001600160a01b0316906345fa8aae90602401602060405180830381865afa158015612cb8573d6000803e3d6000fd5b505050506040513d601f19601f82011682018060405250810190612cdc91906155bb565b6003811115612ced57612ced6150f0565b60ff161480612cfc5750600081115b15612d9b57601b546040516317ee7de960e11b81526001600160a01b0388811692632fdcfbd292612d37929091169030908690600401615605565b600060405180830381600087803b158015612d5157600080fd5b505af1158015612d65573d6000803e3d6000fd5b505050506000612d76858389613be9565b60008a8152601f602090815260408083206001600160a01b038a168452909152902055505b5050600190920191506129e29050565b6000612db5613e62565b6001600160a01b038216612e0b5760405162461bcd60e51b815260206004820181905260248201527f696e76616c696420637573746f6469616e2077616c6c65742061646472657373604482015260640161112e565b50601980546001600160a01b0383166001600160a01b03199091161790556001919050565b612e38614e60565b6000828152602e602090815260409182902082516101408101845281546001600160401b03811682526001600160a01b03600160401b9091048116938201939093526001808301548416948201949094526002820154928316606082015260ff600160a01b84048116151560808301529093919260a0850192600160a81b90910490911690811115612ecc57612ecc6150f0565b6001811115612edd57612edd6150f0565b815260038281015460208301526004830154604083015260058301546060830152600683015460809092019160ff1690811115612f1c57612f1c6150f0565b6003811115612f2d57612f2d6150f0565b90525092915050565b612f3e613e62565b6006612f4a83826157be565b50600761122c82826157be565b612f5f613e62565b612f698282614403565b5050565b60008060005b600c54811015610d5b576000818152600e6020908152604080832054878452602183528184206001600160a01b0391821680865290845282852054898652602b9094528285205492516370a0823160e01b815292909116600483018190529093909184906370a0823190602401602060405180830381865afa158015612ffd573d6000803e3d6000fd5b505050506040513d601f19601f82011682018060405250810190613021919061568c565b601a546040516322fd455760e11b8152600481018690529192506003916001600160a01b03909116906345fa8aae90602401602060405180830381865afa158015613070573d6000803e3d6000fd5b505050506040513d601f19601f8201168201806040525081019061309491906155bb565b60038111156130a5576130a56150f0565b60ff161480156130b3575080155b156130ca576130c36001876155f2565b9550613211565b601a546040516322fd455760e11b8152600481018590526002916001600160a01b0316906345fa8aae90602401602060405180830381865afa158015613114573d6000803e3d6000fd5b505050506040513d601f19601f8201168201806040525081019061313891906155bb565b6003811115613149576131496150f0565b60ff16148015613157575080155b15613211576000888152601f602090815260408083206001600160a01b03888116855292529182902054601a5492516322fd455760e11b815260048101829052909260029216906345fa8aae90602401602060405180830381865afa1580156131c4573d6000803e3d6000fd5b505050506040513d601f19601f820116820180604052508101906131e891906155bb565b60038111156131f9576131f96150f0565b60ff160361320f5761320c6001886155f2565b96505b505b505060019092019150612f739050565b61322a81610c7f565b6132765760405162461bcd60e51b815260206004820152601860248201527f4f726465727320617265206e6f7420636f6d706c657465640000000000000000604482015260640161112e565b60008181526014602052604090205460ff16156132cd5760405162461bcd60e51b8152602060048201526015602482015274125cdcdd585b98d9481a5cc818dbdb5c1b195d1959605a1b604482015260640161112e565b6000818152602860205260408120546001600160a01b03169080805b600c54811015613580576000818152600e60209081526040808320548884528280528184206001600160a01b03918216808652935281842054601a54601b54935163a377cfbf60e01b815260048101869052938316602485015293949093909291169063a377cfbf906044016040805180830381865afa158015613371573d6000803e3d6000fd5b505050506040513d601f19601f82011682018060405250810190613395919061587d565b6000898152602a60205260408082205490516370a0823160e01b81526001600160a01b0391821660048201819052939450908616906370a0823190602401602060405180830381865afa1580156133f0573d6000803e3d6000fd5b505050506040513d601f19601f82011682018060405250810190613414919061568c565b60008b81526024602090815260408083206001600160a01b038a168452909152812054855192935091613447908361564b565b6000878152602260205260408120549192509061346490836155f2565b9050613470828c6155f2565b9a5061347c818b6155f2565b6040516317ee7de960e11b8152909a506001600160a01b03861690632fdcfbd2906134af908b9030908990600401615605565b600060405180830381600087803b1580156134c957600080fd5b505af11580156134dd573d6000803e3d6000fd5b505050506001600160a01b038881166000908152600f602052604090819020546018549151636e553f6560e01b815260048101889052918316602483015290911690636e553f65906044016020604051808303816000875af1158015613547573d6000803e3d6000fd5b505050506040513d601f19601f8201168201806040525081019061356b919061568c565b5050600190970196506132e995505050505050565b50600084815260266020526040812054908190036136135760006135a583606461564b565b6017546040516340c10f1960e01b81526001600160a01b038881166004830152602482018490529293509116906340c10f1990604401600060405180830381600087803b1580156135f557600080fd5b505af1158015613609573d6000803e3d6000fd5b50505050506136a3565b600083613620848461564b565b61362a9190615678565b9050600061363883836156e2565b6017546040516340c10f1960e01b81526001600160a01b038981166004830152602482018490529293509116906340c10f1990604401600060405180830381600087803b15801561368857600080fd5b505af115801561369c573d6000803e3d6000fd5b5050505050505b5050601c546000908152601460205260409020805460ff19166001179055505050565b60008060005b600c548110156137d6576000818152600e60209081526040808320546001600160a01b0316808452601290925282205490919068056bc75e2d6310000090613714908861564b565b61371e9190615678565b601a54601b546040516308da5c3560e21b81526000600482018190526001600160a01b0392831660248301529394508392919091169063236970d4906044016040805180830381865afa158015613779573d6000803e3d6000fd5b505050506040513d601f19601f8201168201806040525081019061379d91906158dc565b9150915060006137ad8285614624565b6137b790846155f2565b90506137c381886155f2565b965050600190940193506136cc92505050565b5092915050565b60006137e7613e62565b6001600160a01b0383166138355760405162461bcd60e51b8152602060048201526015602482015274696e76616c696420746f6b656e206164647265737360581b604482015260640161112e565b50601b805460ff8316600160a01b026001600160a81b03199091166001600160a01b03851617179055600192915050565b7ff0c57e16840df040f15088dc2f81fe391c3923bec73e23a9662efc9c229c6a008054600160401b810460ff1615906001600160401b03166000811580156138ab5750825b90506000826001600160401b031660011480156138c75750303b155b9050811580156138d5575080155b156138f35760405163f92ee8a960e01b815260040160405180910390fd5b845467ffffffffffffffff19166001178555831561391d57845460ff60401b1916600160401b1785555b8c601a60006101000a8154816001600160a01b0302191690836001600160a01b031602179055508b601760006101000a8154816001600160a01b0302191690836001600160a01b031602179055508a601860006101000a8154816001600160a01b0302191690836001600160a01b0316021790555089601b60006101000a8154816001600160a01b0302191690836001600160a01b0316021790555088601b60146101000a81548160ff021916908360ff1602179055506139dd3361464d565b6139e561465e565b601b805460ff60a81b1916600560a91b179055600280546001600160a01b0319166001600160a01b038a16179055613a1c87613f1d565b6008869055600a613a36670de0b6b3a7640000600161564b565b613a409190615678565b6009556040805160608101909152602a808252615dcb6020830139600690613a6890826157be565b506040518060600160405280602e8152602001615df5602e9139600790613a8f90826157be565b508315613ad657845460ff60401b19168555604051600181527fc7f505b2f371ae2175ee4913f4499e1f2633a7b5936321eed1cdaeb6115181d29060200160405180910390a15b50505050505050505050505050565b60008381526005602052604090205483906001600160a01b03163314613b5e5760405162461bcd60e51b815260206004820152602860248201527f536f75726365206d75737420626520746865206f7261636c65206f6620746865604482015267081c995c5d595cdd60c21b606482015260840161112e565b60008181526005602052604080822080546001600160a01b03191690555182917f7cc135e0cebb02c3480ae5d74d377283180a2601f8f644edf7987b009316c63a91a261183e8383614403565b613bb3613e62565b6001600160a01b038116613bdd57604051631e4fbdf760e01b81526000600482015260240161112e565b613be681614273565b50565b601a54601b546040516308da5c3560e21b81526000600482018190526001600160a01b039283166024830152928392839291169063236970d4906044016040805180830381865afa158015613c42573d6000803e3d6000fd5b505050506040513d601f19601f82011682018060405250810190613c6691906158dc565b915091506000613c768287614624565b613c8090846155f2565b90506000613c8e600061466e565b6001600160a01b0380881660208301528916604082015260e0810188905290506000613cba83896155f2565b601a5460405163aa2165f160e01b81529192506000916001600160a01b039091169063aa2165f190613cf090869060040161539f565b6020604051808303816000875af1158015613d0f573d6000803e3d6000fd5b505050506040513d601f19601f82011682018060405250810190613d33919061568c565b6000818152602e602090815260409182902086518154928801516001600160401b039091166001600160e01b031990931692909217600160401b6001600160a01b039384160217815591860151600180840180546001600160a01b03191692841692909217909155606087015160028401805460808a0151929094166001600160a81b031990941693909317600160a01b911515919091021780835560a08801519495508794929160ff60a81b1990911690600160a81b908490811115613dfc57613dfc6150f0565b021790555060c0820151816003015560e0820151816004015561010082015181600501556101208201518160060160006101000a81548160ff02191690836003811115613e4b57613e4b6150f0565b0217905550919750505050505050505b9392505050565b33613e947f9016d09d72d40fdae2fd8ceac6b6234c7706214fd39c1cd1e609a0528c199300546001600160a01b031690565b6001600160a01b0316146112415760405163118cdaa760e01b815233600482015260240161112e565b613ec5614725565b600080516020615e23833981519152805460ff191681557f5db9ee0a495bf2e6ff9c91a7834c1ba4fdd244a5e8aa4e537bd38aeae4b073aa335b6040516001600160a01b03909116815260200160405180910390a150565b600380546001600160a01b0319166001600160a01b0392909216919091179055565b6001600160a01b038084166000908152600f6020526040808220546018549151631c20fadd60e01b8152929390811692911690631c20fadd90613f8a90849030908990600401615605565b600060405180830381600087803b158015613fa457600080fd5b505af1158015613fb8573d6000803e3d6000fd5b5050604051635d043b2960e11b81526004810187905230602482018190526044820152600092506001600160a01b038416915063ba087652906064016020604051808303816000875af1158015614013573d6000803e3d6000fd5b505050506040513d601f19601f82011682018060405250810190614037919061568c565b90506000614045600161466e565b6001600160a01b03888116604083810182905260c084018690528883166020850152601a54905163095ea7b360e01b8152921660048301526024820185905291925063095ea7b3906044016020604051808303816000875af11580156140af573d6000803e3d6000fd5b505050506040513d601f19601f820116820180604052508101906140d39190615629565b50601a5460405163aa2165f160e01b81526000916001600160a01b03169063aa2165f19061410590859060040161539f565b6020604051808303816000875af1158015614124573d6000803e3d6000fd5b505050506040513d601f19601f82011682018060405250810190614148919061568c565b6000818152602e602090815260409182902085518154928701516001600160401b039091166001600160e01b031990931692909217600160401b6001600160a01b039384160217815591850151600180840180546001600160a01b0319169284169290921790915560608601516002840180546080890151929094166001600160a81b031990941693909317600160a01b911515919091021780835560a08701519495508694929160ff60a81b1990911690600160a81b908490811115614211576142116150f0565b021790555060c0820151816003015560e0820151816004015561010082015181600501556101208201518160060160006101000a81548160ff02191690836003811115614260576142606150f0565b0217905550919998505050505050505050565b7f9016d09d72d40fdae2fd8ceac6b6234c7706214fd39c1cd1e609a0528c19930080546001600160a01b031981166001600160a01b03848116918217845560405192169182907f8be0079c531659141344cd1fd0a4f28419497f9722a3daafe3b4186f6b6457e090600090a3505050565b6142ec614ec3565b6142f4614ec3565b61430081868686614755565b95945050505050565b6080830151614318908361479b565b608083015161122c908261479b565b6004546000906143388160016155f2565b600455835160408086015160808701515191516000936320214ca360e11b936143709386938493923092918a91600191602401615914565b60408051601f198184030181529190526020810180516001600160e01b03166001600160e01b03199093169290921790915290506143b0868386846147b2565b9695505050505050565b6143c2614910565b600080516020615e23833981519152805460ff191660011781557f62e78cea01bee320cd4e420270b5ea74000d11b0c9f74754ebdbfc544b05a25833613eff565b818160005b825181101561460457828181518110614423576144236156a5565b6020026020010151600d600083815260200190815260200160002060006101000a8154816001600160a01b0302191690836001600160a01b031602179055508060106000858481518110614479576144796156a5565b60200260200101516001600160a01b03166001600160a01b03168152602001908152602001600020819055508181815181106144b7576144b76156a5565b6020026020010151601360008584815181106144d5576144d56156a5565b60200260200101516001600160a01b03166001600160a01b0316815260200190815260200160002081905550600c546000036145fc5782818151811061451d5761451d6156a5565b6020026020010151600e600083815260200190815260200160002060006101000a8154816001600160a01b0302191690836001600160a01b0316021790555081818151811061456e5761456e6156a5565b60200260200101516012600085848151811061458c5761458c6156a5565b60200260200101516001600160a01b03166001600160a01b031681526020019081526020016000208190555080601160008584815181106145cf576145cf6156a5565b60200260200101516001600160a01b03166001600160a01b03168152602001908152602001600020819055505b600101614408565b508151600b55600c5460000361461a578151600c555b505042600a555050565b60008262ffffff1660000361463a576000613e5b565b613e5b8262ffffff8516620f4240614941565b614655614a15565b613be681614a5e565b614666614a15565b611241614a66565b614676614e60565b60408051610140810182526001600160401b03421681523060208201526017546001600160a01b0390811692820192909252601b549091166060820152821515608082015260a0810160008152602001836146d25760006146dd565b68056bc75e2d631000005b68ffffffffffffffffff168152602001836147015768056bc75e2d63100000614704565b60005b68ffffffffffffffffff168152600060208201526040016001905292915050565b600080516020615e238339815191525460ff1661124157604051638dfc202b60e01b815260040160405180910390fd5b61475d614ec3565b61476d8560800151610100614a87565b50508284526001600160a01b03821660208501526001600160e01b031981166040850152835b949350505050565b6147a88260038351614aec565b61122c8282614bf3565b6040516bffffffffffffffffffffffff193060601b1660208201526034810184905260009060540160408051808303601f1901815282825280516020918201206000818152600590925291812080546001600160a01b0319166001600160a01b038a1617905590925082917fb5e6e01e79f91267dc17b4e6314d5d4d03593d2ceee0fbb452b750bd70ea5af99190a2600254604051630200057560e51b81526001600160a01b0390911690634000aea0906148759088908790879060040161596d565b6020604051808303816000875af1158015614894573d6000803e3d6000fd5b505050506040513d601f19601f820116820180604052508101906148b89190615629565b6147935760405162461bcd60e51b815260206004820152602360248201527f756e61626c6520746f207472616e73666572416e6443616c6c20746f206f7261604482015262636c6560e81b606482015260840161112e565b600080516020615e238339815191525460ff16156112415760405163d93c066560e01b815260040160405180910390fd5b600080806000198587098587029250828110838203039150508060000361497b5783828161497157614971615662565b0492505050613e5b565b8381106149ac57604051630c740aef60e31b815260048101879052602481018690526044810185905260640161112e565b60008486880960026001871981018816978890046003810283188082028403028082028403028082028403028082028403028082028403029081029092039091026000889003889004909101858311909403939093029303949094049190911702949350505050565b7ff0c57e16840df040f15088dc2f81fe391c3923bec73e23a9662efc9c229c6a0054600160401b900460ff1661124157604051631afcd79f60e31b815260040160405180910390fd5b613bb3614a15565b614a6e614a15565b600080516020615e23833981519152805460ff19169055565b604080518082019091526060815260006020820152614aa7602083615994565b15614acf57614ab7602083615994565b614ac29060206156e2565b614acc90836155f2565b91505b506020828101829052604080518085526000815290920101905290565b6017816001600160401b031611614b105761183e8360e0600585901b168317614c1a565b60ff816001600160401b031611614b4c57614b36836018611fe0600586901b1617614c1a565b5061183e836001600160401b0383166001614c3f565b61ffff816001600160401b031611614b8957614b73836019611fe0600586901b1617614c1a565b5061183e836001600160401b0383166002614c3f565b63ffffffff816001600160401b031611614bc857614bb283601a611fe0600586901b1617614c1a565b5061183e836001600160401b0383166004614c3f565b614bdd83601b611fe0600586901b1617614c1a565b5061183e836001600160401b0383166008614c3f565b604080518082019091526060815260006020820152613e5b83846000015151848551614c65565b604080518082019091526060815260006020820152613e5b8384600001515184614d4f565b604080518082019091526060815260006020820152614793848560000151518585614daa565b6040805180820190915260608152600060208201528251821115614c8857600080fd5b6020850151614c9783866155f2565b1115614cca57614cca85614cba87602001518786614cb591906155f2565b614e2b565b614cc590600261564b565b614e3c565b600080865180518760208301019350808887011115614ce95787860182525b505050602084015b60208410614d295780518252614d086020836155f2565b9150614d156020826155f2565b9050614d226020856156e2565b9350614cf1565b51815160001960208690036101000a019081169019919091161790525083949350505050565b60408051808201909152606081526000602082015283602001518310614d8457614d848485602001516002614cc5919061564b565b8351805160208583010184815350808503614da0576001810182525b5093949350505050565b6040805180820190915260608152600060208201526020850151614dce85846155f2565b1115614de257614de285614cba86856155f2565b60006001614df284610100615a8c565b614dfc91906156e2565b9050855183868201018583198251161781525080518487011115614e205783860181525b509495945050505050565b600081831115610d77575081610c79565b8151614e488383614a87565b5061183e8382614bf3565b61033280615a9983390190565b604080516101408101825260008082526020820181905291810182905260608101829052608081018290529060a0820190815260200160008152602001600081526020016000815260200160006003811115614ebe57614ebe6150f0565b905290565b6040805160a0810182526000808252602080830182905282840182905260608084018390528451808601909552845283015290608082015290565b80356001600160a01b038116811461115657600080fd5b60008060408385031215614f2857600080fd5b82359150614f3860208401614efe565b90509250929050565b600060208284031215614f5357600080fd5b613e5b82614efe565b634e487b7160e01b600052604160045260246000fd5b604051601f8201601f191681016001600160401b0381118282101715614f9a57614f9a614f5c565b604052919050565b600082601f830112614fb357600080fd5b81356001600160401b03811115614fcc57614fcc614f5c565b614fdf601f8201601f1916602001614f72565b818152846020838601011115614ff457600080fd5b816020850160208301376000918101602001919091529392505050565b6000806040838503121561502457600080fd5b82356001600160401b038082111561503b57600080fd5b61504786838701614fa2565b9350602085013591508082111561505d57600080fd5b5061506a85828601614fa2565b9150509250929050565b60005b8381101561508f578181015183820152602001615077565b50506000910152565b600081518084526150b0816020860160208601615074565b601f01601f19169290920160200192915050565b602081526000613e5b6020830184615098565b6000602082840312156150e957600080fd5b5035919050565b634e487b7160e01b600052602160045260246000fd5b60028110615116576151166150f0565b9052565b60048110615116576151166150f0565b6001600160401b038b1681526001600160a01b038a811660208301528981166040830152881660608201528615156080820152610140810161516f60a0830188615106565b8560c08301528460e08301528361010083015261519061012083018461511a565b9b9a5050505050505050505050565b60006001600160401b038211156151b8576151b8614f5c565b5060051b60200190565b600082601f8301126151d357600080fd5b813560206151e86151e38361519f565b614f72565b8083825260208201915060208460051b87010193508684111561520a57600080fd5b602086015b8481101561522d5761522081614efe565b835291830191830161520f565b509695505050505050565b6000806040838503121561524b57600080fd5b82356001600160401b038082111561526257600080fd5b61526e868387016151c2565b9350602085013591508082111561528457600080fd5b5061506a858286016151c2565b600080604083850312156152a457600080fd5b6152ad83614efe565b946020939093013593505050565b803560ff8116811461115657600080fd5b6000602082840312156152de57600080fd5b613e5b826152bb565b80516001600160401b03168252602081015161530e60208401826001600160a01b03169052565b50604081015161532960408401826001600160a01b03169052565b50606081015161534460608401826001600160a01b03169052565b506080810151615358608084018215159052565b5060a081015161536b60a0840182615106565b5060c081015160c083015260e081015160e08301526101008082015181840152506101208082015161183e8285018261511a565b6101408101610c7982846152e7565b600082601f8301126153bf57600080fd5b813560206153cf6151e38361519f565b8083825260208201915060208460051b8701019350868411156153f157600080fd5b602086015b8481101561522d57803583529183019183016153f6565b6000806040838503121561542057600080fd5b82356001600160401b038082111561543757600080fd5b615443868387016151c2565b9350602085013591508082111561545957600080fd5b5061506a858286016153ae565b6000806040838503121561547957600080fd5b61548283614efe565b9150614f38602084016152bb565b600080600080600080600080610100898b0312156154ad57600080fd5b6154b689614efe565b97506154c460208a01614efe565b96506154d260408a01614efe565b95506154e060608a01614efe565b94506154ee60808a016152bb565b93506154fc60a08a01614efe565b925061550a60c08a01614efe565b915060e089013590509295985092959890939650565b60008060006060848603121561553557600080fd5b8335925060208401356001600160401b038082111561555357600080fd5b61555f878388016151c2565b9350604086013591508082111561557557600080fd5b50615582868287016153ae565b9150509250925092565b6000835161559e818460208801615074565b8351908301906155b2818360208801615074565b01949350505050565b6000602082840312156155cd57600080fd5b815160048110613e5b57600080fd5b634e487b7160e01b600052601160045260246000fd5b80820180821115610c7957610c796155dc565b6001600160a01b039384168152919092166020820152604081019190915260600190565b60006020828403121561563b57600080fd5b81518015158114613e5b57600080fd5b8082028115828204841417610c7957610c796155dc565b634e487b7160e01b600052601260045260246000fd5b60008261568757615687615662565b500490565b60006020828403121561569e57600080fd5b5051919050565b634e487b7160e01b600052603260045260246000fd5b60006101606156ca83856152e7565b61014083018190526000908301525061018001919050565b81810381811115610c7957610c796155dc565b600181811c9082168061570957607f821691505b602082108103610d7757634e487b7160e01b600052602260045260246000fd5b60208082526025908201527f5468652070726f6365737320686173206265656e20636f6d706c65746564206260408201526465666f726560d81b606082015260800190565b601f82111561122c576000816000526020600020601f850160051c810160208610156157975750805b601f850160051c820191505b818110156157b6578281556001016157a3565b505050505050565b81516001600160401b038111156157d7576157d7614f5c565b6157eb816157e584546156f5565b8461576e565b602080601f83116001811461582057600084156158085750858301515b600019600386901b1c1916600185901b1785556157b6565b600085815260208120601f198616915b8281101561584f57888601518255948401946001909101908401615830565b508582101561586d5787850151600019600388901b60f8161c191681555b5050505050600190811b01905550565b60006040828403121561588f57600080fd5b604051604081016001600160401b0382821081831117156158b2576158b2614f5c565b81604052845183526020850151915080821682146158cf57600080fd5b5060208201529392505050565b600080604083850312156158ef57600080fd5b82519150602083015162ffffff8116811461590957600080fd5b809150509250929050565b6001600160a01b0389811682526020820189905260408201889052861660608201526001600160e01b03198516608082015260a0810184905260c0810183905261010060e0820181905260009061519083820185615098565b60018060a01b03841681528260208201526060604082015260006143006060830184615098565b6000826159a3576159a3615662565b500690565b600181815b808511156159e35781600019048211156159c9576159c96155dc565b808516156159d657918102915b93841c93908002906159ad565b509250929050565b6000826159fa57506001610c79565b81615a0757506000610c79565b8160018114615a1d5760028114615a2757615a43565b6001915050610c79565b60ff841115615a3857615a386155dc565b50506001821b610c79565b5060208310610133831016604e8410600b8410161715615a66575081810a610c79565b615a7083836159a8565b8060001904821115615a8457615a846155dc565b029392505050565b6000613e5b83836159eb56fe6080604052348015600f57600080fd5b50604051610332380380610332833981016040819052602c916050565b600080546001600160a01b0319166001600160a01b0392909216919091179055607e565b600060208284031215606157600080fd5b81516001600160a01b0381168114607757600080fd5b9392505050565b6102a58061008d6000396000f3fe608060405234801561001057600080fd5b50600436106100415760003560e01c806313af4035146100465780632fdcfbd21461005b5780638da5cb5b1461006e575b600080fd5b6100596100543660046101ef565b61009d565b005b610059610069366004610211565b61010f565b600054610081906001600160a01b031681565b6040516001600160a01b03909116815260200160405180910390f35b6000546001600160a01b031633146100ed5760405162461bcd60e51b815260206004820152600e60248201526d139bdd08185d5d1a1bdc9a5e995960921b60448201526064015b60405180910390fd5b600080546001600160a01b0319166001600160a01b0392909216919091179055565b6000546001600160a01b0316331461015a5760405162461bcd60e51b815260206004820152600e60248201526d139bdd08185d5d1a1bdc9a5e995960921b60448201526064016100e4565b60405163a9059cbb60e01b81526001600160a01b0383811660048301526024820183905284169063a9059cbb906044016020604051808303816000875af11580156101a9573d6000803e3d6000fd5b505050506040513d601f19601f820116820180604052508101906101cd919061024d565b50505050565b80356001600160a01b03811681146101ea57600080fd5b919050565b60006020828403121561020157600080fd5b61020a826101d3565b9392505050565b60008060006060848603121561022657600080fd5b61022f846101d3565b925061023d602085016101d3565b9150604084013590509250925092565b60006020828403121561025f57600080fd5b8151801515811461020a57600080fdfea2646970667358221220502fe3cef5472467ba27d3f0af8cc13ea970369ac0d01284025186802306355064736f6c6343000819003368747470733a2f2f6170702e6e65786c6162732e696f2f6170692f616c6c46756e64696e6752617465733f6d756c7469706c7946756e633d31382674696d65734e656746756e643d74727565266172726179733d74727565cd5ed15c6e187e77e9aee88184c21f4f2182ab5827cb3b7e07fbedcd63f03300a2646970667358221220d9a6b77418625c2d31463c316ce1449bb6796e2dbe8d7d8ee81d30c8a316e9f564736f6c63430008190033","linkReferences":{}},"methodIdentifiers":{"burnedTokenAmountByNonce(uint256)":"ab7820b2","buyRequestPayedAmountById(uint256)":"8861d235","calculateIssuanceFee(uint256)":"e19eefbe","cancelIssuance(uint256)":"46d66a2c","cancelIssuanceComplted(uint256)":"7bfa27f2","cancelIssuanceRequestId(uint256,address)":"02e80f71","cancelRedemption(uint256)":"9219e510","cancelRedemptionComplted(uint256)":"b46840f9","cancelRedemptionRequestId(uint256,address)":"8c221899","checkCancelIssuanceStatus(uint256)":"631c8385","checkCancelRedemptionStatus(uint256)":"b592662a","checkIssuanceOrdersStatus(uint256)":"2343acb4","checkRedemptionOrdersStatus(uint256)":"3fac0922","coaByIssuanceNonce(uint256)":"31c99010","coaByRedemptionNonce(uint256)":"b75f4c2c","completeCancelIssuance(uint256)":"807ca237","completeCancelRedemption(uint256)":"9026544f","completeIssuance(uint256)":"bed45bef","completeRedemption(uint256)":"840ecba0","concatenation(string,string)":"0e329357","currentList(uint256)":"9932ba4c","custodianWallet()":"1e106e99","externalJobId()":"a8b54bd4","feeRate()":"978bbdb9","fulfillAssetsData(bytes32,address[],uint256[])":"f14bea20","getOrderInctanceById(uint256)":"a58e03af","initialize(address,address,address,address,uint8,address,address,bytes32)":"efa906c7","issuance(uint256)":"248b761e","issuanceIndexTokenPrimaryTotalSupply(uint256)":"b1dd819e","issuanceIsCompleted(uint256)":"a84ebc17","issuanceNonce()":"9dbb9c9e","issuanceRequestId(uint256,address)":"264fa8b9","issuanceRequesterByNonce(uint256)":"94674098","issuanceTokenPrimaryBalance(uint256,address)":"da65925a","issuer()":"1d143848","lastUpdateTime()":"c8f33c91","latestFeeUpdate()":"011ced5f","mockFillAssetsList(address[],uint256[])":"addc70d1","oracleList(uint256)":"239aad0d","oraclePayment()":"0c02e130","orderInstanceById(uint256)":"15e666a2","owner()":"8da5cb5b","pause()":"8456cb59","paused()":"5c975abb","redemption(uint256)":"4a1dc092","redemptionIndexTokenPrimaryTotalSupply(uint256)":"daf1c17d","redemptionIsCompleted(uint256)":"76529fdf","redemptionNonce()":"84d77bb1","redemptionRequestId(uint256,address)":"f513a718","redemptionRequesterByNonce(uint256)":"78032658","redemptionTokenPrimaryBalance(uint256,address)":"a363b9cb","renounceOwnership()":"715018a6","requestAssetsData()":"7ca58c55","sellRequestAssetAmountById(uint256)":"a87f98d2","setCustodianWallet(address)":"9cc0fb5b","setDShareAddresses(address[],address[])":"3492be94","setFeeRate(uint8)":"5177942a","setIssuer(address)":"55cc4e57","setOracleInfo(address,bytes32)":"43482fc8","setTokenAddress(address)":"26a4e8d2","setUrl(string,string)":"a73e1cbf","setUsdcAddress(address,uint8)":"eab2a711","token()":"fc0c546a","tokenCurrentListIndex(address)":"914f0cc6","tokenCurrentMarketShare(address)":"0be52713","tokenOracleListIndex(address)":"8c88c10c","tokenOracleMarketShare(address)":"4b3e0b80","totalCurrentList()":"53fd4332","totalOracleList()":"c8599ded","transferOwnership(address)":"f2fde38b","unpause()":"3f4ba83a","usdc()":"3e413bee","usdcDecimals()":"7bf42165","vault()":"fbfa77cf","wrappedDshareAddress(address)":"092755e0"},"id":16}