{"abi":[{"type":"function","name":"burnedTokenAmountByNonce","inputs":[{"name":"","type":"uint256","internalType":"uint256"}],"outputs":[{"name":"","type":"uint256","internalType":"uint256"}],"stateMutability":"view"},{"type":"function","name":"buyRequestPayedAmountById","inputs":[{"name":"","type":"uint256","internalType":"uint256"}],"outputs":[{"name":"","type":"uint256","internalType":"uint256"}],"stateMutability":"view"},{"type":"function","name":"calculateBuyRequestFee","inputs":[{"name":"_amount","type":"uint256","internalType":"uint256"}],"outputs":[{"name":"","type":"uint256","internalType":"uint256"}],"stateMutability":"view"},{"type":"function","name":"calculateIssuanceFee","inputs":[{"name":"_inputAmount","type":"uint256","internalType":"uint256"}],"outputs":[{"name":"","type":"uint256","internalType":"uint256"}],"stateMutability":"view"},{"type":"function","name":"cancelIssuance","inputs":[{"name":"_issuanceNonce","type":"uint256","internalType":"uint256"}],"outputs":[],"stateMutability":"nonpayable"},{"type":"function","name":"cancelIssuanceComplted","inputs":[{"name":"","type":"uint256","internalType":"uint256"}],"outputs":[{"name":"","type":"bool","internalType":"bool"}],"stateMutability":"view"},{"type":"function","name":"cancelIssuanceRequestId","inputs":[{"name":"","type":"uint256","internalType":"uint256"},{"name":"","type":"address","internalType":"address"}],"outputs":[{"name":"","type":"uint256","internalType":"uint256"}],"stateMutability":"view"},{"type":"function","name":"cancelRedemption","inputs":[{"name":"_redemptionNonce","type":"uint256","internalType":"uint256"}],"outputs":[],"stateMutability":"nonpayable"},{"type":"function","name":"cancelRedemptionComplted","inputs":[{"name":"","type":"uint256","internalType":"uint256"}],"outputs":[{"name":"","type":"bool","internalType":"bool"}],"stateMutability":"view"},{"type":"function","name":"cancelRedemptionRequestId","inputs":[{"name":"","type":"uint256","internalType":"uint256"},{"name":"","type":"address","internalType":"address"}],"outputs":[{"name":"","type":"uint256","internalType":"uint256"}],"stateMutability":"view"},{"type":"function","name":"checkCancelIssuanceStatus","inputs":[{"name":"_issuanceNonce","type":"uint256","internalType":"uint256"}],"outputs":[{"name":"","type":"bool","internalType":"bool"}],"stateMutability":"view"},{"type":"function","name":"checkCancelRedemptionStatus","inputs":[{"name":"_redemptionNonce","type":"uint256","internalType":"uint256"}],"outputs":[{"name":"","type":"bool","internalType":"bool"}],"stateMutability":"view"},{"type":"function","name":"checkFirstRebalanceOrdersStatus","inputs":[{"name":"_rebalanceNonce","type":"uint256","internalType":"uint256"}],"outputs":[{"name":"","type":"bool","internalType":"bool"}],"stateMutability":"view"},{"type":"function","name":"checkIssuanceOrdersStatus","inputs":[{"name":"_issuanceNonce","type":"uint256","internalType":"uint256"}],"outputs":[{"name":"","type":"bool","internalType":"bool"}],"stateMutability":"view"},{"type":"function","name":"checkRedemptionOrdersStatus","inputs":[{"name":"_redemptionNonce","type":"uint256","internalType":"uint256"}],"outputs":[{"name":"","type":"bool","internalType":"bool"}],"stateMutability":"view"},{"type":"function","name":"coaByIssuanceNonce","inputs":[{"name":"","type":"uint256","internalType":"uint256"}],"outputs":[{"name":"","type":"address","internalType":"address"}],"stateMutability":"view"},{"type":"function","name":"coaByRedemptionNonce","inputs":[{"name":"","type":"uint256","internalType":"uint256"}],"outputs":[{"name":"","type":"address","internalType":"address"}],"stateMutability":"view"},{"type":"function","name":"completeCancelIssuance","inputs":[{"name":"_issuanceNonce","type":"uint256","internalType":"uint256"}],"outputs":[],"stateMutability":"nonpayable"},{"type":"function","name":"completeCancelRedemption","inputs":[{"name":"_redemptionNonce","type":"uint256","internalType":"uint256"}],"outputs":[],"stateMutability":"nonpayable"},{"type":"function","name":"completeIssuance","inputs":[{"name":"_issuanceNonce","type":"uint256","internalType":"uint256"}],"outputs":[],"stateMutability":"nonpayable"},{"type":"function","name":"completeRebalanceActions","inputs":[{"name":"_rebalanceNonce","type":"uint256","internalType":"uint256"}],"outputs":[],"stateMutability":"nonpayable"},{"type":"function","name":"completeRedemption","inputs":[{"name":"_redemptionNonce","type":"uint256","internalType":"uint256"}],"outputs":[],"stateMutability":"nonpayable"},{"type":"function","name":"concatenation","inputs":[{"name":"a","type":"string","internalType":"string"},{"name":"b","type":"string","internalType":"string"}],"outputs":[{"name":"","type":"string","internalType":"string"}],"stateMutability":"pure"},{"type":"function","name":"currentList","inputs":[{"name":"","type":"uint256","internalType":"uint256"}],"outputs":[{"name":"","type":"address","internalType":"address"}],"stateMutability":"view"},{"type":"function","name":"custodianWallet","inputs":[],"outputs":[{"name":"","type":"address","internalType":"address"}],"stateMutability":"view"},{"type":"function","name":"estimateAmountAfterFee","inputs":[{"name":"_amount","type":"uint256","internalType":"uint256"}],"outputs":[{"name":"","type":"uint256","internalType":"uint256"}],"stateMutability":"view"},{"type":"function","name":"externalJobId","inputs":[],"outputs":[{"name":"","type":"bytes32","internalType":"bytes32"}],"stateMutability":"view"},{"type":"function","name":"feeRate","inputs":[],"outputs":[{"name":"","type":"uint8","internalType":"uint8"}],"stateMutability":"view"},{"type":"function","name":"firstRebalanceAction","inputs":[],"outputs":[{"name":"","type":"uint256","internalType":"uint256"}],"stateMutability":"nonpayable"},{"type":"function","name":"fulfillAssetsData","inputs":[{"name":"requestId","type":"bytes32","internalType":"bytes32"},{"name":"_tokens","type":"address[]","internalType":"address[]"},{"name":"_marketShares","type":"uint256[]","internalType":"uint256[]"}],"outputs":[],"stateMutability":"nonpayable"},{"type":"function","name":"getOrderInstanceById","inputs":[{"name":"id","type":"uint256","internalType":"uint256"}],"outputs":[{"name":"","type":"tuple","internalType":"struct IOrderProcessor.Order","components":[{"name":"requestTimestamp","type":"uint64","internalType":"uint64"},{"name":"recipient","type":"address","internalType":"address"},{"name":"assetToken","type":"address","internalType":"address"},{"name":"paymentToken","type":"address","internalType":"address"},{"name":"sell","type":"bool","internalType":"bool"},{"name":"orderType","type":"uint8","internalType":"enum IOrderProcessor.OrderType"},{"name":"assetTokenQuantity","type":"uint256","internalType":"uint256"},{"name":"paymentTokenQuantity","type":"uint256","internalType":"uint256"},{"name":"price","type":"uint256","internalType":"uint256"},{"name":"tif","type":"uint8","internalType":"enum IOrderProcessor.TIF"}]}],"stateMutability":"view"},{"type":"function","name":"getPortfolioValue","inputs":[],"outputs":[{"name":"","type":"uint256","internalType":"uint256"}],"stateMutability":"view"},{"type":"function","name":"getVaultDshareBalance","inputs":[{"name":"_token","type":"address","internalType":"address"}],"outputs":[{"name":"","type":"uint256","internalType":"uint256"}],"stateMutability":"view"},{"type":"function","name":"getVaultDshareValue","inputs":[{"name":"_token","type":"address","internalType":"address"}],"outputs":[{"name":"","type":"uint256","internalType":"uint256"}],"stateMutability":"view"},{"type":"function","name":"initialize","inputs":[{"name":"_issuer","type":"address","internalType":"address"},{"name":"_token","type":"address","internalType":"address"},{"name":"_vault","type":"address","internalType":"address"},{"name":"_usdc","type":"address","internalType":"address"},{"name":"_usdcDecimals","type":"uint8","internalType":"uint8"},{"name":"_chainlinkToken","type":"address","internalType":"address"},{"name":"_oracleAddress","type":"address","internalType":"address"},{"name":"_externalJobId","type":"bytes32","internalType":"bytes32"},{"name":"_isMainnet","type":"bool","internalType":"bool"}],"outputs":[],"stateMutability":"nonpayable"},{"type":"function","name":"isIssuanceOrderActive","inputs":[{"name":"_issuanceNonce","type":"uint256","internalType":"uint256"}],"outputs":[{"name":"","type":"bool","internalType":"bool"}],"stateMutability":"view"},{"type":"function","name":"isMainnet","inputs":[],"outputs":[{"name":"","type":"bool","internalType":"bool"}],"stateMutability":"view"},{"type":"function","name":"isRedemptionOrderActive","inputs":[{"name":"_redemptionNonce","type":"uint256","internalType":"uint256"}],"outputs":[{"name":"","type":"bool","internalType":"bool"}],"stateMutability":"view"},{"type":"function","name":"issuance","inputs":[{"name":"_inputAmount","type":"uint256","internalType":"uint256"}],"outputs":[{"name":"","type":"uint256","internalType":"uint256"}],"stateMutability":"nonpayable"},{"type":"function","name":"issuanceIndexTokenPrimaryTotalSupply","inputs":[{"name":"","type":"uint256","internalType":"uint256"}],"outputs":[{"name":"","type":"uint256","internalType":"uint256"}],"stateMutability":"view"},{"type":"function","name":"issuanceIsCompleted","inputs":[{"name":"","type":"uint256","internalType":"uint256"}],"outputs":[{"name":"","type":"bool","internalType":"bool"}],"stateMutability":"view"},{"type":"function","name":"issuanceNonce","inputs":[],"outputs":[{"name":"","type":"uint256","internalType":"uint256"}],"stateMutability":"view"},{"type":"function","name":"issuanceRequestId","inputs":[{"name":"","type":"uint256","internalType":"uint256"},{"name":"","type":"address","internalType":"address"}],"outputs":[{"name":"","type":"uint256","internalType":"uint256"}],"stateMutability":"view"},{"type":"function","name":"issuanceRequesterByNonce","inputs":[{"name":"","type":"uint256","internalType":"uint256"}],"outputs":[{"name":"","type":"address","internalType":"address"}],"stateMutability":"view"},{"type":"function","name":"issuanceTokenPrimaryBalance","inputs":[{"name":"","type":"uint256","internalType":"uint256"},{"name":"","type":"address","internalType":"address"}],"outputs":[{"name":"","type":"uint256","internalType":"uint256"}],"stateMutability":"view"},{"type":"function","name":"issuer","inputs":[],"outputs":[{"name":"","type":"address","internalType":"contract IOrderProcessor"}],"stateMutability":"view"},{"type":"function","name":"lastUpdateTime","inputs":[],"outputs":[{"name":"","type":"uint256","internalType":"uint256"}],"stateMutability":"view"},{"type":"function","name":"latestFeeUpdate","inputs":[],"outputs":[{"name":"","type":"uint256","internalType":"uint256"}],"stateMutability":"view"},{"type":"function","name":"mockFillAssetsList","inputs":[{"name":"_tokens","type":"address[]","internalType":"address[]"},{"name":"_marketShares","type":"uint256[]","internalType":"uint256[]"}],"outputs":[],"stateMutability":"nonpayable"},{"type":"function","name":"oracleList","inputs":[{"name":"","type":"uint256","internalType":"uint256"}],"outputs":[{"name":"","type":"address","internalType":"address"}],"stateMutability":"view"},{"type":"function","name":"oraclePayment","inputs":[],"outputs":[{"name":"","type":"uint256","internalType":"uint256"}],"stateMutability":"view"},{"type":"function","name":"orderInstanceById","inputs":[{"name":"","type":"uint256","internalType":"uint256"}],"outputs":[{"name":"requestTimestamp","type":"uint64","internalType":"uint64"},{"name":"recipient","type":"address","internalType":"address"},{"name":"assetToken","type":"address","internalType":"address"},{"name":"paymentToken","type":"address","internalType":"address"},{"name":"sell","type":"bool","internalType":"bool"},{"name":"orderType","type":"uint8","internalType":"enum IOrderProcessor.OrderType"},{"name":"assetTokenQuantity","type":"uint256","internalType":"uint256"},{"name":"paymentTokenQuantity","type":"uint256","internalType":"uint256"},{"name":"price","type":"uint256","internalType":"uint256"},{"name":"tif","type":"uint8","internalType":"enum IOrderProcessor.TIF"}],"stateMutability":"view"},{"type":"function","name":"owner","inputs":[],"outputs":[{"name":"","type":"address","internalType":"address"}],"stateMutability":"view"},{"type":"function","name":"pause","inputs":[],"outputs":[],"stateMutability":"nonpayable"},{"type":"function","name":"paused","inputs":[],"outputs":[{"name":"","type":"bool","internalType":"bool"}],"stateMutability":"view"},{"type":"function","name":"portfolioValueByNonce","inputs":[{"name":"","type":"uint256","internalType":"uint256"}],"outputs":[{"name":"","type":"uint256","internalType":"uint256"}],"stateMutability":"view"},{"type":"function","name":"priceFeedByTokenAddress","inputs":[{"name":"","type":"address","internalType":"address"}],"outputs":[{"name":"","type":"address","internalType":"address"}],"stateMutability":"view"},{"type":"function","name":"priceInWei","inputs":[{"name":"_tokenAddress","type":"address","internalType":"address"}],"outputs":[{"name":"","type":"uint256","internalType":"uint256"}],"stateMutability":"view"},{"type":"function","name":"rebalanceBuyPayedAmountById","inputs":[{"name":"","type":"uint256","internalType":"uint256"}],"outputs":[{"name":"","type":"uint256","internalType":"uint256"}],"stateMutability":"view"},{"type":"function","name":"rebalanceNonce","inputs":[],"outputs":[{"name":"","type":"uint256","internalType":"uint256"}],"stateMutability":"view"},{"type":"function","name":"rebalanceRequestId","inputs":[{"name":"","type":"uint256","internalType":"uint256"},{"name":"","type":"address","internalType":"address"}],"outputs":[{"name":"","type":"uint256","internalType":"uint256"}],"stateMutability":"view"},{"type":"function","name":"rebalanceSellAssetAmountById","inputs":[{"name":"","type":"uint256","internalType":"uint256"}],"outputs":[{"name":"","type":"uint256","internalType":"uint256"}],"stateMutability":"view"},{"type":"function","name":"redemption","inputs":[{"name":"_inputAmount","type":"uint256","internalType":"uint256"}],"outputs":[{"name":"","type":"uint256","internalType":"uint256"}],"stateMutability":"nonpayable"},{"type":"function","name":"redemptionIndexTokenPrimaryTotalSupply","inputs":[{"name":"","type":"uint256","internalType":"uint256"}],"outputs":[{"name":"","type":"uint256","internalType":"uint256"}],"stateMutability":"view"},{"type":"function","name":"redemptionIsCompleted","inputs":[{"name":"","type":"uint256","internalType":"uint256"}],"outputs":[{"name":"","type":"bool","internalType":"bool"}],"stateMutability":"view"},{"type":"function","name":"redemptionNonce","inputs":[],"outputs":[{"name":"","type":"uint256","internalType":"uint256"}],"stateMutability":"view"},{"type":"function","name":"redemptionRequestId","inputs":[{"name":"","type":"uint256","internalType":"uint256"},{"name":"","type":"address","internalType":"address"}],"outputs":[{"name":"","type":"uint256","internalType":"uint256"}],"stateMutability":"view"},{"type":"function","name":"redemptionRequesterByNonce","inputs":[{"name":"","type":"uint256","internalType":"uint256"}],"outputs":[{"name":"","type":"address","internalType":"address"}],"stateMutability":"view"},{"type":"function","name":"redemptionTokenPrimaryBalance","inputs":[{"name":"","type":"uint256","internalType":"uint256"},{"name":"","type":"address","internalType":"address"}],"outputs":[{"name":"","type":"uint256","internalType":"uint256"}],"stateMutability":"view"},{"type":"function","name":"renounceOwnership","inputs":[],"outputs":[],"stateMutability":"nonpayable"},{"type":"function","name":"requestAssetsData","inputs":[],"outputs":[{"name":"","type":"bytes32","internalType":"bytes32"}],"stateMutability":"nonpayable"},{"type":"function","name":"secondRebalanceAction","inputs":[{"name":"_rebalanceNonce","type":"uint256","internalType":"uint256"}],"outputs":[],"stateMutability":"nonpayable"},{"type":"function","name":"sellRequestAssetAmountById","inputs":[{"name":"","type":"uint256","internalType":"uint256"}],"outputs":[{"name":"","type":"uint256","internalType":"uint256"}],"stateMutability":"view"},{"type":"function","name":"setCustodianWallet","inputs":[{"name":"_custodianWallet","type":"address","internalType":"address"}],"outputs":[{"name":"","type":"bool","internalType":"bool"}],"stateMutability":"nonpayable"},{"type":"function","name":"setFeeRate","inputs":[{"name":"_newFee","type":"uint8","internalType":"uint8"}],"outputs":[],"stateMutability":"nonpayable"},{"type":"function","name":"setIssuer","inputs":[{"name":"_issuer","type":"address","internalType":"address"}],"outputs":[{"name":"","type":"bool","internalType":"bool"}],"stateMutability":"nonpayable"},{"type":"function","name":"setOracleInfo","inputs":[{"name":"_oracleAddress","type":"address","internalType":"address"},{"name":"_externalJobId","type":"bytes32","internalType":"bytes32"}],"outputs":[],"stateMutability":"nonpayable"},{"type":"function","name":"setPriceFeedAddresses","inputs":[{"name":"_dShares","type":"address[]","internalType":"address[]"},{"name":"_priceFeedAddresses","type":"address[]","internalType":"address[]"}],"outputs":[],"stateMutability":"nonpayable"},{"type":"function","name":"setTokenAddress","inputs":[{"name":"_token","type":"address","internalType":"address"}],"outputs":[{"name":"","type":"bool","internalType":"bool"}],"stateMutability":"nonpayable"},{"type":"function","name":"setUrl","inputs":[{"name":"_beforeAddress","type":"string","internalType":"string"},{"name":"_afterAddress","type":"string","internalType":"string"}],"outputs":[],"stateMutability":"nonpayable"},{"type":"function","name":"setUsdcAddress","inputs":[{"name":"_usdc","type":"address","internalType":"address"},{"name":"_usdcDecimals","type":"uint8","internalType":"uint8"}],"outputs":[{"name":"","type":"bool","internalType":"bool"}],"stateMutability":"nonpayable"},{"type":"function","name":"setWrappedDShareAddresses","inputs":[{"name":"_dShares","type":"address[]","internalType":"address[]"},{"name":"_wrappedDShares","type":"address[]","internalType":"address[]"}],"outputs":[],"stateMutability":"nonpayable"},{"type":"function","name":"token","inputs":[],"outputs":[{"name":"","type":"address","internalType":"contract IndexToken"}],"stateMutability":"view"},{"type":"function","name":"tokenCurrentListIndex","inputs":[{"name":"","type":"address","internalType":"address"}],"outputs":[{"name":"","type":"uint256","internalType":"uint256"}],"stateMutability":"view"},{"type":"function","name":"tokenCurrentMarketShare","inputs":[{"name":"","type":"address","internalType":"address"}],"outputs":[{"name":"","type":"uint256","internalType":"uint256"}],"stateMutability":"view"},{"type":"function","name":"tokenOracleListIndex","inputs":[{"name":"","type":"address","internalType":"address"}],"outputs":[{"name":"","type":"uint256","internalType":"uint256"}],"stateMutability":"view"},{"type":"function","name":"tokenOracleMarketShare","inputs":[{"name":"","type":"address","internalType":"address"}],"outputs":[{"name":"","type":"uint256","internalType":"uint256"}],"stateMutability":"view"},{"type":"function","name":"tokenShortagePercentByNonce","inputs":[{"name":"","type":"uint256","internalType":"uint256"},{"name":"","type":"address","internalType":"address"}],"outputs":[{"name":"","type":"uint256","internalType":"uint256"}],"stateMutability":"view"},{"type":"function","name":"tokenValueByNonce","inputs":[{"name":"","type":"uint256","internalType":"uint256"},{"name":"","type":"address","internalType":"address"}],"outputs":[{"name":"","type":"uint256","internalType":"uint256"}],"stateMutability":"view"},{"type":"function","name":"totalCurrentList","inputs":[],"outputs":[{"name":"","type":"uint256","internalType":"uint256"}],"stateMutability":"view"},{"type":"function","name":"totalOracleList","inputs":[],"outputs":[{"name":"","type":"uint256","internalType":"uint256"}],"stateMutability":"view"},{"type":"function","name":"totalShortagePercentByNonce","inputs":[{"name":"","type":"uint256","internalType":"uint256"}],"outputs":[{"name":"","type":"uint256","internalType":"uint256"}],"stateMutability":"view"},{"type":"function","name":"transferOwnership","inputs":[{"name":"newOwner","type":"address","internalType":"address"}],"outputs":[],"stateMutability":"nonpayable"},{"type":"function","name":"unpause","inputs":[],"outputs":[],"stateMutability":"nonpayable"},{"type":"function","name":"usdc","inputs":[],"outputs":[{"name":"","type":"address","internalType":"address"}],"stateMutability":"view"},{"type":"function","name":"usdcDecimals","inputs":[],"outputs":[{"name":"","type":"uint8","internalType":"uint8"}],"stateMutability":"view"},{"type":"function","name":"vall","inputs":[],"outputs":[{"name":"","type":"uint256","internalType":"uint256"}],"stateMutability":"view"},{"type":"function","name":"vault","inputs":[],"outputs":[{"name":"","type":"address","internalType":"contract NexVault"}],"stateMutability":"view"},{"type":"function","name":"wrappedDshareAddress","inputs":[{"name":"","type":"address","internalType":"address"}],"outputs":[{"name":"","type":"address","internalType":"address"}],"stateMutability":"view"},{"type":"event","name":"ChainlinkCancelled","inputs":[{"name":"id","type":"bytes32","indexed":true,"internalType":"bytes32"}],"anonymous":false},{"type":"event","name":"ChainlinkFulfilled","inputs":[{"name":"id","type":"bytes32","indexed":true,"internalType":"bytes32"}],"anonymous":false},{"type":"event","name":"ChainlinkRequested","inputs":[{"name":"id","type":"bytes32","indexed":true,"internalType":"bytes32"}],"anonymous":false},{"type":"event","name":"Initialized","inputs":[{"name":"version","type":"uint64","indexed":false,"internalType":"uint64"}],"anonymous":false},{"type":"event","name":"OwnershipTransferred","inputs":[{"name":"previousOwner","type":"address","indexed":true,"internalType":"address"},{"name":"newOwner","type":"address","indexed":true,"internalType":"address"}],"anonymous":false},{"type":"event","name":"Paused","inputs":[{"name":"account","type":"address","indexed":false,"internalType":"address"}],"anonymous":false},{"type":"event","name":"Unpaused","inputs":[{"name":"account","type":"address","indexed":false,"internalType":"address"}],"anonymous":false},{"type":"error","name":"EnforcedPause","inputs":[]},{"type":"error","name":"ExpectedPause","inputs":[]},{"type":"error","name":"InvalidInitialization","inputs":[]},{"type":"error","name":"NotInitializing","inputs":[]},{"type":"error","name":"OwnableInvalidOwner","inputs":[{"name":"owner","type":"address","internalType":"address"}]},{"type":"error","name":"OwnableUnauthorizedAccount","inputs":[{"name":"account","type":"address","internalType":"address"}]},{"type":"error","name":"PRBMath_MulDiv_Overflow","inputs":[{"name":"x","type":"uint256","internalType":"uint256"},{"name":"y","type":"uint256","internalType":"uint256"},{"name":"denominator","type":"uint256","internalType":"uint256"}]},{"type":"error","name":"PRBMath_MulDiv_Overflow","inputs":[{"name":"x","type":"uint256","internalType":"uint256"},{"name":"y","type":"uint256","internalType":"uint256"},{"name":"denominator","type":"uint256","internalType":"uint256"}]}],"bytecode":{"object":"0x6080604052348015600f57600080fd5b506171d08061001f6000396000f3fe608060405234801561001057600080fd5b50600436106105815760003560e01c80638861d235116102e5578063b0e121341161018d578063da65925a116100f4578063efdf5053116100ad578063f2fde38b11610087578063f2fde38b14610f50578063f513a71814610f63578063fbfa77cf14610f8e578063fc0c546a14610fa157600080fd5b8063efdf505314610f0a578063f14bea2014610f1d578063f1f31d6614610f3057600080fd5b8063da65925a14610e65578063daf1c17d14610e90578063db5c1a1214610eb0578063e19eefbe14610edb578063eab2a71114610eee578063edca4f5e14610f0157600080fd5b8063b75f4c2c11610146578063b75f4c2c14610dfc578063bb0498de14610e25578063bed45bef14610e2d578063c8599ded14610e40578063c8f33c9114610e49578063d57e049314610e5257600080fd5b8063b0e1213414610d55578063b1dd819e14610d68578063b316e7fd14610d88578063b411dc4114610db3578063b46840f914610dc6578063b592662a14610de957600080fd5b80639cc0fb5b1161024c578063a84ebc1711610205578063ab7820b2116101df578063ab7820b214610cf9578063ab935bb214610d19578063acac92ab14610d39578063addc70d114610d4257600080fd5b8063a84ebc1714610cad578063a87f98d214610cd0578063a8b54bd414610cf057600080fd5b80639cc0fb5b14610c2d5780639dbb9c9e14610c405780639e76d0cb14610c49578063a08d7bd614610c5c578063a363b9cb14610c6f578063a73e1cbf14610c9a57600080fd5b8063914f0cc61161029e578063914f0cc614610b815780639219e51014610ba157806392318df414610bb45780639467409814610bc7578063978bbdb914610bf05780639932ba4c14610c0457600080fd5b80638861d23514610ab35780638c22189914610ad35780638c88c10c14610afe5780638d6983c714610b1e5780638da5cb5b14610b3e5780639026544f14610b6e57600080fd5b80633fac092211610448578063643ee27f116103af5780637bf4216511610368578063807ca23711610342578063807ca23714610a7c578063840ecba014610a8f5780638456cb5914610aa257806384d77bb114610aaa57600080fd5b80637bf4216514610a2b5780637bfa27f214610a515780637ca58c5514610a7457600080fd5b8063643ee27f146109865780636839a09514610999578063715018a6146109ac57806375a3cb57146109b457806376529fdf146109df5780637803265814610a0257600080fd5b80635177942a116104015780635177942a1461091957806353fd43321461092c57806355cc4e571461093557806357b61bc3146109485780635c975abb1461095b578063631c83851461097357600080fd5b80633fac0922146108a057806342faac05146108b357806343482fc8146108c057806346d66a2c146108d35780634a1dc092146108e65780634b3e0b80146108f957600080fd5b80632343acb4116104ec5780632badae5d116104a55780632badae5d146108145780632ca493341461083457806331c990101461085457806332f53f3c1461087d5780633e413bee146108855780633f4ba83a1461089857600080fd5b80632343acb414610772578063239aad0d14610785578063248b761e146107ae578063263e0d51146107c1578063264fa8b9146107d657806326a4e8d21461080157600080fd5b80630be527131161053e5780630be527131461066b5780630c02e1301461068b5780630e3293571461069457806315e666a2146106b45780631d1438481461074c5780631e106e991461075f57600080fd5b8063011ced5f1461058657806302e80f71146105a257806306995e3b146105cb57806308dc4b0c146105de578063092755e01461061f5780630b1a491814610648575b600080fd5b61058f60395481565b6040519081526020015b60405180910390f35b61058f6105b0366004616179565b60208080526000928352604080842090915290825290205481565b61058f6105d93660046161a5565b610fb4565b6106076105ec3660046161be565b6034602052600090815260409020546001600160a01b031681565b6040516001600160a01b039091168152602001610599565b61060761062d3660046161be565b600f602052600090815260409020546001600160a01b031681565b61065b6106563660046161a5565b611054565b6040519015158152602001610599565b61058f6106793660046161be565b60126020526000908152604090205481565b61058f60095481565b6106a76106a236600461628e565b611135565b6040516105999190616341565b6107366106c23660046161a5565b60336020526000908152604090208054600182015460028301546003840154600485015460058601546006909601546001600160401b038616966001600160a01b03600160401b9097048716969586169585169460ff600160a01b8204811695600160a81b9092048116949193919291168a565b6040516105999a9998979695949392919061638e565b601a54610607906001600160a01b031681565b601954610607906001600160a01b031681565b61065b6107803660046161a5565b611162565b6106076107933660046161a5565b600d602052600090815260409020546001600160a01b031681565b61058f6107bc3660046161a5565b611258565b6107d46107cf3660046161a5565b61164e565b005b61058f6107e4366004616179565b602260209081526000928352604080842090915290825290205481565b61065b61080f3660046161be565b611869565b61058f6108223660046161a5565b60356020526000908152604090205481565b61058f6108423660046161a5565b60386020526000908152604090205481565b6106076108623660046161a5565b602f602052600090815260409020546001600160a01b031681565b61058f6118e5565b601b54610607906001600160a01b031681565b6107d4611b29565b61065b6108ae3660046161a5565b611b3b565b601f5461065b9060ff1681565b6107d46108ce366004616403565b611c18565b6107d46108e13660046161a5565b611c2f565b61058f6108f43660046161a5565b612137565b61058f6109073660046161be565b60136020526000908152604090205481565b6107d461092736600461643c565b612587565b61058f600c5481565b61065b6109433660046161be565b6126d1565b6107d46109563660046164f2565b61274f565b60008051602061717b8339815191525460ff1661065b565b61065b6109813660046161a5565b612825565b6107d46109943660046161a5565b612ad7565b61058f6109a73660046161be565b612d4a565b6107d4612ed0565b61058f6109c2366004616179565b602460209081526000928352604080842090915290825290205481565b61065b6109ed3660046161a5565b60156020526000908152604090205460ff1681565b610607610a103660046161a5565b602e602052600090815260409020546001600160a01b031681565b601b54610a3f90600160a01b900460ff1681565b60405160ff9091168152602001610599565b61065b610a5f3660046161a5565b60316020526000908152604090205460ff1681565b61058f612ee2565b6107d4610a8a3660046161a5565b613122565b6107d4610a9d3660046161a5565b6132bd565b6107d461348e565b61058f601d5481565b61058f610ac13660046161a5565b60256020526000908152604090205481565b61058f610ae1366004616179565b602160209081526000928352604080842090915290825290205481565b61058f610b0c3660046161be565b60106020526000908152604090205481565b61058f610b2c3660046161a5565b60286020526000908152604090205481565b7f9016d09d72d40fdae2fd8ceac6b6234c7706214fd39c1cd1e609a0528c199300546001600160a01b0316610607565b6107d4610b7c3660046161a5565b61349e565b61058f610b8f3660046161be565b60116020526000908152604090205481565b6107d4610baf3660046161a5565b613757565b61065b610bc23660046161a5565b613b19565b610607610bd53660046161a5565b602d602052600090815260409020546001600160a01b031681565b601b54610a3f90600160a81b900460ff1681565b610607610c123660046161a5565b600e602052600090815260409020546001600160a01b031681565b61065b610c3b3660046161be565b613c0d565b61058f601c5481565b61058f610c573660046161a5565b613c92565b61058f610c6a3660046161be565b613d2a565b61058f610c7d366004616179565b602a60209081526000928352604080842090915290825290205481565b6107d4610ca836600461628e565b613e25565b61065b610cbb3660046161a5565b60146020526000908152604090205460ff1681565b61058f610cde3660046161a5565b60266020526000908152604090205481565b61058f60085481565b61058f610d073660046161a5565b60166020526000908152604090205481565b61058f610d273660046161a5565b60276020526000908152604090205481565b61058f603a5481565b6107d4610d503660046165aa565b613e46565b61065b610d633660046161a5565b613e58565b61058f610d763660046161a5565b602b6020526000908152604090205481565b61058f610d96366004616179565b603660209081526000928352604080842090915290825290205481565b6107d4610dc13660046164f2565b613f30565b61065b610dd43660046161a5565b60326020526000908152604090205460ff1681565b61065b610df73660046161a5565b614001565b610607610e0a3660046161a5565b6030602052600090815260409020546001600160a01b031681565b61058f6142b5565b6107d4610e3b3660046161a5565b6142fd565b61058f600b5481565b61058f600a5481565b6107d4610e60366004616611565b614827565b61058f610e73366004616179565b602960209081526000928352604080842090915290825290205481565b61058f610e9e3660046161a5565b602c6020526000908152604090205481565b61058f610ebe366004616179565b603760209081526000928352604080842090915290825290205481565b61058f610ee93660046161a5565b614ab5565b61065b610efc3660046166b8565b614bcc565b61058f601e5481565b61058f610f183660046161be565b614c55565b6107d4610f2b3660046166ef565b614c8d565b610f43610f3e3660046161a5565b614d53565b604051610599919061675b565b6107d4610f5e3660046161be565b614e59565b61058f610f71366004616179565b602360209081526000928352604080842090915290825290205481565b601854610607906001600160a01b031681565b601754610607906001600160a01b031681565b601a54601b546040516308da5c3560e21b81526000600482018190526001600160a01b039283166024830152928392839291169063236970d4906044016040805180830381865afa15801561100d573d6000803e3d6000fd5b505050506040513d601f19601f820116820180604052508101906110319190616820565b9150915060006110418286614e97565b61104b9084616863565b95945050505050565b6000805b600c5481101561112c576000818152600e6020908152604080832054868452602383528184206001600160a01b0391821680865293529281902054601a5491516322fd455760e11b81526004810182905292939092600192909116906345fa8aae90602401602060405180830381865afa1580156110da573d6000803e3d6000fd5b505050506040513d601f19601f820116820180604052508101906110fe9190616876565b600381111561110f5761110f616354565b60ff160361112257506001949350505050565b5050600101611058565b50600092915050565b6060828260405160200161114a929190616897565b60405160208183030381529060405290505b92915050565b60008060005b600c5481101561123f576000818152600e6020908152604080832054878452602283528184206001600160a01b0391821680865293529281902054601a5491516322fd455760e11b81526004810182905292939092600292909116906345fa8aae90602401602060405180830381865afa1580156111ea573d6000803e3d6000fd5b505050506040513d601f19601f8201168201806040525081019061120e9190616876565b600381111561121f5761121f616354565b60ff160361123557611232600185616863565b93505b5050600101611168565b50600c54810361112c5750600192915050565b50919050565b60008061126483614ab5565b905060006112728483616863565b601b546040516323b872dd60e01b81529192506001600160a01b0316906323b872dd906112a7903390309086906004016168c6565b6020604051808303816000875af11580156112c6573d6000803e3d6000fd5b505050506040513d601f19601f820116820180604052508101906112ea91906168ea565b50601b54601a5460405163095ea7b360e01b81526001600160a01b0391821660048201526024810184905291169063095ea7b3906044016020604051808303816000875af1158015611340573d6000803e3d6000fd5b505050506040513d601f19601f8201168201806040525081019061136491906168ea565b506001601c60008282546113789190616863565b9250508190555060003060405161138e906160b7565b6001600160a01b039091168152602001604051809103906000f0801580156113ba573d6000803e3d6000fd5b50601c546000908152602f6020526040812080546001600160a01b0319166001600160a01b0384161790559091505b600c54811015611641576000818152600e60209081526040808320546001600160a01b0316808452601290925282205490919068056bc75e2d6310000090611431908a616907565b61143b9190616934565b9050600061144a838387614ec7565b6000818152602560209081526040808320869055601c80548452602283528184206001600160a01b0389811680875291855283862087905591548552602d845282852080546001600160a01b031916331790558452600f9092528083205460185491516370a0823160e01b81529183166004830152939450919216906370a0823190602401602060405180830381865afa1580156114ec573d6000803e3d6000fd5b505050506040513d601f19601f820116820180604052508101906115109190616948565b6001600160a01b038581166000908152600f602052604080822054905163266d6a8360e11b8152600481018590529394509092911690634cdad50690602401602060405180830381865afa15801561156c573d6000803e3d6000fd5b505050506040513d601f19601f820116820180604052508101906115909190616948565b601c5460009081526029602090815260408083206001600160a01b03808b1685529083529281902084905560175481516318160ddd60e01b81529151949550909216926318160ddd9260048082019392918290030181865afa1580156115fa573d6000803e3d6000fd5b505050506040513d601f19601f8201168201806040525081019061161e9190616948565b601c546000908152602b60205260409020555050600190930192506113e9915050565b5050601c54949350505050565b61165661508f565b61165f81613b19565b6116bb5760405162461bcd60e51b815260206004820152602260248201527f526562616c616e6365206f726465727320617265206e6f7420636f6d706c6574604482015261195960f21b60648201526084015b60405180910390fd5b60005b600c54811015611865576000818152600e60205260408082205490516370a0823160e01b81523060048201526001600160a01b03909116919082906370a0823190602401602060405180830381865afa15801561171f573d6000803e3d6000fd5b505050506040513d601f19601f820116820180604052508101906117439190616948565b9050801561185b576001600160a01b038281166000818152600f60205260409081902054905163095ea7b360e01b815292166004830152602482018390529063095ea7b3906044016020604051808303816000875af11580156117aa573d6000803e3d6000fd5b505050506040513d601f19601f820116820180604052508101906117ce91906168ea565b506001600160a01b038281166000908152600f602052604090819020546018549151636e553f6560e01b815260048101859052918316602483015290911690636e553f65906044016020604051808303816000875af1158015611835573d6000803e3d6000fd5b505050506040513d601f19601f820116820180604052508101906118599190616948565b505b50506001016116be565b5050565b600061187361508f565b6001600160a01b0382166118c15760405162461bcd60e51b8152602060048201526015602482015274696e76616c696420746f6b656e206164647265737360581b60448201526064016116b2565b50601780546001600160a01b0319166001600160a01b03831617905560015b919050565b60006118ef61508f565b6001601e60008282546119029190616863565b9091555060009050805b600c54811015611978576000818152600e60205260408120546001600160a01b03169061193882614c55565b601e5460009081526036602090815260408083206001600160a01b03871684529091529020819055905061196c8185616863565b9350505060010161190c565b50601e5460009081526035602052604081208290555b600c54811015611b1f576000818152600e6020908152604080832054601e548452603683528184206001600160a01b03909116808552925282205490916119d483613d2a565b90506000856119ec8468056bc75e2d63100000616907565b6119f69190616934565b6001600160a01b038516600090815260136020526040902054909150811115611a9b576001600160a01b0384166000908152601360205260408120548290611a3e9085616907565b611a489190616934565b611a529084616961565b90506000611a618683306150ea565b601e5460009081526024602090815260408083206001600160a01b038b168452825280832084905592825260289052209190915550611b0f565b6001600160a01b038416600090815260136020526040812054611abf908390616961565b601e805460009081526037602090815260408083206001600160a01b038b1684528252808320859055925482526038905290812080549293508392909190611b08908490616863565b9091555050505b50506001909201915061198e9050565b50601e5491505090565b611b3161508f565b611b3961541e565b565b60008060005b600c5481101561123f576000818152600e6020908152604080832054878452602383528184206001600160a01b0391821680865293529281902054601a5491516322fd455760e11b81526004810182905292939092600292909116906345fa8aae90602401602060405180830381865afa158015611bc3573d6000803e3d6000fd5b505050506040513d601f19601f82011682018060405250810190611be79190616876565b6003811115611bf857611bf8616354565b60ff1603611c0e57611c0b600185616863565b93505b5050600101611b41565b611c2061508f565b611c298261547e565b60085550565b60008181526014602052604090205460ff1615611c865760405162461bcd60e51b8152602060048201526015602482015274125cdcdd585b98d9481a5cc818dbdb5c1b195d1959605a1b60448201526064016116b2565b6000818152602d6020908152604080832054602f909252909120546001600160a01b039182169116338214611d0c5760405162461bcd60e51b815260206004820152602660248201527f4f6e6c79207265717565737465722063616e2063616e63656c207468652069736044820152657375616e636560d01b60648201526084016116b2565b60005b600c54811015612131576000818152600e6020908152604080832054878452602283528184206001600160a01b03918216808652908452828520548086526033855283862084516101408101865281546001600160401b0381168252600160401b90048516968101969096526001818101548516958701959095526002810154938416606087015260ff600160a01b85048116151560808801529296919591949193909260a0850192600160a81b9092041690811115611dd157611dd1616354565b6001811115611de257611de2616354565b815260038281015460208301526004830154604083015260058301546060830152600683015460809092019160ff1690811115611e2157611e21616354565b6003811115611e3257611e32616354565b905250601a546040516322fd455760e11b8152600481018590529192506001916001600160a01b03909116906345fa8aae90602401602060405180830381865afa158015611e84573d6000803e3d6000fd5b505050506040513d601f19601f82011682018060405250810190611ea89190616876565b6003811115611eb957611eb9616354565b60ff1603611f2457601a546040516339a0e8b560e21b8152600481018490526001600160a01b039091169063e683a2d490602401600060405180830381600087803b158015611f0757600080fd5b505af1158015611f1b573d6000803e3d6000fd5b50505050612126565b601a546040516322fd455760e11b8152600481018490526002916001600160a01b0316906345fa8aae90602401602060405180830381865afa158015611f6e573d6000803e3d6000fd5b505050506040513d601f19601f82011682018060405250810190611f929190616876565b6003811115611fa357611fa3616354565b60ff16148061201d57506040516370a0823160e01b81526001600160a01b038681166004830152600091908516906370a0823190602401602060405180830381865afa158015611ff7573d6000803e3d6000fd5b505050506040513d601f19601f8201168201806040525081019061201b9190616948565b115b15612126576040516370a0823160e01b81526001600160a01b038681166004830152600091908516906370a0823190602401602060405180830381865afa15801561206c573d6000803e3d6000fd5b505050506040513d601f19601f820116820180604052508101906120909190616948565b6040516317ee7de960e11b81529091506001600160a01b03871690632fdcfbd2906120c3908790309086906004016168c6565b600060405180830381600087803b1580156120dd57600080fd5b505af11580156120f1573d6000803e3d6000fd5b5050505060006121028583896150ea565b60008a8152602080805260408083206001600160a01b038a16845290915290205550505b505050600101611d0f565b50505050565b60006001601d600082825461214c9190616863565b92505081905550600030604051612162906160b7565b6001600160a01b039091168152602001604051809103906000f08015801561218e573d6000803e3d6000fd5b50601d54600090815260306020908152604080832080546001600160a01b0319166001600160a01b038681169190911790915560175482516318160ddd60e01b8152925195965093949316926318160ddd926004808401939192918290030181865afa158015612202573d6000803e3d6000fd5b505050506040513d601f19601f820116820180604052508101906122269190616948565b61223885670de0b6b3a7640000616907565b6122429190616934565b601754604051632770a7eb60e21b8152336004820152602481018790529192506001600160a01b031690639dc29fac90604401600060405180830381600087803b15801561228f57600080fd5b505af11580156122a3573d6000803e3d6000fd5b5050601d5460009081526016602052604081208790559150505b600c5481101561257b576000818152600e60209081526040808320546001600160a01b03908116808552600f9093528184205460185492516370a0823160e01b81529282166004840152929392670de0b6b3a7640000929116906370a0823190602401602060405180830381865afa15801561233d573d6000803e3d6000fd5b505050506040513d601f19601f820116820180604052508101906123619190616948565b61236b9086616907565b6123759190616934565b905060006123848383886150ea565b6000818152602660209081526040808320869055601d80548452602383528184206001600160a01b0389811680875291855283862087905591548552602e845282852080546001600160a01b031916331790558452600f9092528083205460185491516370a0823160e01b81529183166004830152939450919216906370a0823190602401602060405180830381865afa158015612426573d6000803e3d6000fd5b505050506040513d601f19601f8201168201806040525081019061244a9190616948565b6001600160a01b038581166000908152600f602052604080822054905163266d6a8360e11b8152600481018590529394509092911690634cdad50690602401602060405180830381865afa1580156124a6573d6000803e3d6000fd5b505050506040513d601f19601f820116820180604052508101906124ca9190616948565b601d546000908152602a602090815260408083206001600160a01b03808b1685529083529281902084905560175481516318160ddd60e01b81529151949550909216926318160ddd9260048082019392918290030181865afa158015612534573d6000803e3d6000fd5b505050506040513d601f19601f820116820180604052508101906125589190616948565b601d546000908152602c60205260409020555050600190930192506122bd915050565b5050601d549392505050565b61258f61508f565b60006039544261259f9190616961565b9050600c603c6125af8184616934565b6125b99190616934565b1161262c5760405162461bcd60e51b815260206004820152603960248201527f596f752073686f756c642077616974206174206c6561737420313220686f757260448201527f7320616674657220746865206c6174657374207570646174650000000000000060648201526084016116b2565b60648260ff1611158015612644575060018260ff1610155b6126ac5760405162461bcd60e51b815260206004820152603360248201527f546865206e65774665652073686f756c64206265206265747765656e203120616044820152726e64203130302028302e303125202d2031252960681b60648201526084016116b2565b50601b805460ff909216600160a81b0260ff60a81b1990921691909117905542603955565b60006126db61508f565b6001600160a01b03821661272a5760405162461bcd60e51b8152602060048201526016602482015275696e76616c696420697373756572206164647265737360501b60448201526064016116b2565b50601a80546001600160a01b0383166001600160a01b03199091161790556001919050565b61275761508f565b80518251146127a05760405162461bcd60e51b8152602060048201526015602482015274082e4e4c2f240d8cadccee8d040dad2e6dac2e8c6d605b1b60448201526064016116b2565b60005b8251811015612820578181815181106127be576127be616974565b6020026020010151603460008584815181106127dc576127dc616974565b6020908102919091018101516001600160a01b0390811683529082019290925260400160002080546001600160a01b031916929091169190911790556001016127a3565b505050565b60008060005b600c5481101561123f576000818152600e6020908152604080832054878452602283528184206001600160a01b0391821680865290845282852054898652602f9094528285205492516370a0823160e01b815292909116600483018190529093909184906370a0823190602401602060405180830381865afa1580156128b5573d6000803e3d6000fd5b505050506040513d601f19601f820116820180604052508101906128d99190616948565b601a546040516322fd455760e11b8152600481018690529192506003916001600160a01b03909116906345fa8aae90602401602060405180830381865afa158015612928573d6000803e3d6000fd5b505050506040513d601f19601f8201168201806040525081019061294c9190616876565b600381111561295d5761295d616354565b60ff1614801561296b575080155b156129825761297b600187616863565b9550612ac7565b601a546040516322fd455760e11b8152600481018590526002916001600160a01b0316906345fa8aae90602401602060405180830381865afa1580156129cc573d6000803e3d6000fd5b505050506040513d601f19601f820116820180604052508101906129f09190616876565b6003811115612a0157612a01616354565b60ff16148015612a0f575080155b15612ac7576000888152602080805260408083206001600160a01b03888116855292529182902054601a5492516322fd455760e11b815260048101829052909260029216906345fa8aae90602401602060405180830381865afa158015612a7a573d6000803e3d6000fd5b505050506040513d601f19601f82011682018060405250810190612a9e9190616876565b6003811115612aaf57612aaf616354565b60ff1603612ac557612ac2600188616863565b96505b505b50506001909201915061282b9050565b612adf61508f565b600081815260356020908152604080832054603890925280832054601b5491516370a0823160e01b81523060048201529293909290916001600160a01b0316906370a0823190602401602060405180830381865afa158015612b45573d6000803e3d6000fd5b505050506040513d601f19601f82011682018060405250810190612b699190616948565b905060005b600c54811015612d43576000818152600e6020908152604080832054888452603783528184206001600160a01b039091168085529252909120548015612d3957600085612bbb8684616907565b612bc59190616934565b601a54601b546040516308da5c3560e21b81526000600482018190526001600160a01b0392831660248301529394508392919091169063236970d4906044016040805180830381865afa158015612c20573d6000803e3d6000fd5b505050506040513d601f19601f82011682018060405250810190612c449190616820565b91509150600082612c5583866154a0565b612c5f9190616961565b90506000612c6d8383614e97565b612c779085616863565b601b54601a5460405163095ea7b360e01b81526001600160a01b03918216600482015260248101899052929350169063095ea7b3906044016020604051808303816000875af1158015612cce573d6000803e3d6000fd5b505050506040513d601f19601f82011682018060405250810190612cf291906168ea565b506000612d00888430614ec7565b603a929092555060008c81526024602090815260408083206001600160a01b038b16845282528083208490559282526027905220555050505b5050600101612b6e565b5050505050565b601f5460009060ff1615612e4c576001600160a01b03808316600090815260346020526040808220548151633fabe5a360e21b81529151931692839163feaf968c9160048083019260a09291908290030181865afa158015612db0573d6000803e3d6000fd5b505050506040513d601f19601f82011682018060405250810190612dd491906169a4565b5050509150506000826001600160a01b031663313ce5676040518163ffffffff1660e01b8152600401602060405180830381865afa158015612e1a573d6000803e3d6000fd5b505050506040513d601f19601f82011682018060405250810190612e3e91906169f4565b905061104b828260126154d2565b601a54601b5460405163a377cfbf60e01b81526001600160a01b0385811660048301529182166024820152600092919091169063a377cfbf906044016040805180830381865afa158015612ea4573d6000803e3d6000fd5b505050506040513d601f19601f82011682018060405250810190612ec89190616a11565b519392505050565b612ed861508f565b611b396000615512565b60008061300360068054612ef590616a70565b80601f0160208091040260200160405190810160405280929190818152602001828054612f2190616a70565b8015612f6e5780601f10612f4357610100808354040283529160200191612f6e565b820191906000526020600020905b815481529060010190602001808311612f5157829003601f168201915b505050505060078054612f8090616a70565b80601f0160208091040260200160405190810160405280929190818152602001828054612fac90616a70565b8015612ff95780601f10612fce57610100808354040283529160200191612ff9565b820191906000526020600020905b815481529060010190602001808311612fdc57829003601f168201915b5050505050611135565b9050600061301b6008543063f14bea2060e01b615583565b60408051808201909152600381526219d95d60ea1b60208201529091506130449082908461559f565b61309f60405180604001604052806005815260200164706174683160d81b81525060405180604001604052806011815260200170726573756c74732c61646472657373657360781b8152508361559f9092919063ffffffff16565b6130fd604051806040016040528060058152602001643830ba341960d91b81525060405180604001604052806014815260200173726573756c74732c6d61726b657453686172657360601b8152508361559f9092919063ffffffff16565b61311b6131126003546001600160a01b031690565b826009546155bd565b9250505090565b61312b81612825565b6131775760405162461bcd60e51b815260206004820181905260248201527f43616e63656c2069737375616e6365206973206e6f7420636f6d706c6574656460448201526064016116b2565b60008181526031602052604090205460ff16156131a65760405162461bcd60e51b81526004016116b290616aa4565b6000818152602d6020908152604080832054602f90925280832054601b5491516370a0823160e01b81526001600160a01b0391821660048201819052938216949291909116906370a0823190602401602060405180830381865afa158015613212573d6000803e3d6000fd5b505050506040513d601f19601f820116820180604052508101906132369190616948565b601b546040516317ee7de960e11b81529192506001600160a01b0380851692632fdcfbd29261326d921690879086906004016168c6565b600060405180830381600087803b15801561328757600080fd5b505af115801561329b573d6000803e3d6000fd5b505050600094855250506031602052505060409020805460ff19166001179055565b6132c681611b3b565b61331e5760405162461bcd60e51b815260206004820152602360248201527f526564656d7074696f6e206f726465727320617265206e6f7420636f6d706c656044820152621d195960ea1b60648201526084016116b2565b60008181526015602052604090205460ff16156133775760405162461bcd60e51b8152602060048201526017602482015276149959195b5c1d1a5bdb881a5cc818dbdb5c1b195d1959604a1b60448201526064016116b2565b6000818152602e6020908152604080832054603090925280832054601b5491516370a0823160e01b81526001600160a01b0391821660048201819052938216949291909116906370a0823190602401602060405180830381865afa1580156133e3573d6000803e3d6000fd5b505050506040513d601f19601f820116820180604052508101906134079190616948565b601b546040516317ee7de960e11b81529192506001600160a01b0380851692632fdcfbd29261343e921690879086906004016168c6565b600060405180830381600087803b15801561345857600080fd5b505af115801561346c573d6000803e3d6000fd5b505050600094855250506015602052505060409020805460ff19166001179055565b61349661508f565b611b39615650565b6134a781614001565b6134fe5760405162461bcd60e51b815260206004820152602260248201527f43616e63656c20726564656d7074696f6e206973206e6f7420636f6d706c6574604482015261195960f21b60648201526084016116b2565b60008181526032602052604090205460ff161561352d5760405162461bcd60e51b81526004016116b290616aa4565b6000818152602e6020908152604080832054603090925280832054601b5491516370a0823160e01b81526001600160a01b0391821660048201819052938216949291909116906370a0823190602401602060405180830381865afa158015613599573d6000803e3d6000fd5b505050506040513d601f19601f820116820180604052508101906135bd9190616948565b905060005b600c548110156136c2576000818152600e60205260408082205490516370a0823160e01b81526001600160a01b038681166004830152909116919082906370a0823190602401602060405180830381865afa158015613625573d6000803e3d6000fd5b505050506040513d601f19601f820116820180604052508101906136499190616948565b905080156136b8576018546040516317ee7de960e11b81526001600160a01b0380881692632fdcfbd292613685928792169086906004016168c6565b600060405180830381600087803b15801561369f57600080fd5b505af11580156136b3573d6000803e3d6000fd5b505050505b50506001016135c2565b50601754600085815260166020526040908190205490516340c10f1960e01b81526001600160a01b03868116600483015260248201929092529116906340c10f1990604401600060405180830381600087803b15801561372157600080fd5b505af1158015613735573d6000803e3d6000fd5b505050600094855250506032602052505060409020805460ff19166001179055565b60008181526015602052604090205460ff16156137b05760405162461bcd60e51b8152602060048201526017602482015276149959195b5c1d1a5bdb881a5cc818dbdb5c1b195d1959604a1b60448201526064016116b2565b6000818152602e60209081526040808320546030909252909120546001600160a01b0391821691163382146138385760405162461bcd60e51b815260206004820152602860248201527f4f6e6c79207265717565737465722063616e2063616e63656c207468652072656044820152673232b6b83a34b7b760c11b60648201526084016116b2565b60005b600c54811015612131576000818152600e6020908152604080832054878452602383528184206001600160a01b03918216808652908452828520548086526033855283862084516101408101865281546001600160401b0381168252600160401b90048516968101969096526001818101548516958701959095526002810154938416606087015260ff600160a01b85048116151560808801529296919591949193909260a0850192600160a81b90920416908111156138fd576138fd616354565b600181111561390e5761390e616354565b815260038281015460208301526004830154604083015260058301546060830152600683015460809092019160ff169081111561394d5761394d616354565b600381111561395e5761395e616354565b905250601a5460405163187b2ed160e21b8152600481018590529192506000916001600160a01b03909116906361ecbb4490602401602060405180830381865afa1580156139b0573d6000803e3d6000fd5b505050506040513d601f19601f820116820180604052508101906139d49190616948565b601a546040516322fd455760e11b8152600481018690529192506002916001600160a01b03909116906345fa8aae90602401602060405180830381865afa158015613a23573d6000803e3d6000fd5b505050506040513d601f19601f82011682018060405250810190613a479190616876565b6003811115613a5857613a58616354565b60ff161480613a675750600081115b15613b0957601b546040516317ee7de960e11b81526001600160a01b0388811692632fdcfbd292613aa29290911690309086906004016168c6565b600060405180830381600087803b158015613abc57600080fd5b505af1158015613ad0573d6000803e3d6000fd5b505050506000613ae1858389614ec7565b505060008881526021602090815260408083206001600160a01b038816845290915290208390555b50506001909201915061383b9050565b60008060005b600c54811015613c03576000818152600e6020908152604080832054878452602383528184206001600160a01b039091168085529252909120548015801590613be85750601a546040516322fd455760e11b8152600481018390526002916001600160a01b0316906345fa8aae90602401602060405180830381865afa158015613bad573d6000803e3d6000fd5b505050506040513d601f19601f82011682018060405250810190613bd19190616876565b6003811115613be257613be2616354565b60ff1614155b15613bf95750600095945050505050565b5050600101613b1f565b5060019392505050565b6000613c1761508f565b6001600160a01b038216613c6d5760405162461bcd60e51b815260206004820181905260248201527f696e76616c696420637573746f6469616e2077616c6c6574206164647265737360448201526064016116b2565b50601980546001600160a01b0383166001600160a01b03199091161790556001919050565b601a54601b546040516308da5c3560e21b81526000600482018190526001600160a01b039283166024830152928392839291169063236970d4906044016040805180830381865afa158015613ceb573d6000803e3d6000fd5b505050506040513d601f19601f82011682018060405250810190613d0f9190616820565b91509150600082613d2083876154a0565b61104b9190616961565b6001600160a01b038181166000908152600f60205260408082205460185491516370a0823160e01b8152918416600483015291929190911690829082906370a0823190602401602060405180830381865afa158015613d8d573d6000803e3d6000fd5b505050506040513d601f19601f82011682018060405250810190613db19190616948565b60405163266d6a8360e11b8152600481018290529091506001600160a01b03831690634cdad50690602401602060405180830381865afa158015613df9573d6000803e3d6000fd5b505050506040513d601f19601f82011682018060405250810190613e1d9190616948565b949350505050565b613e2d61508f565b6006613e398382616b39565b5060076128208282616b39565b613e4e61508f565b6118658282615699565b6000805b600c5481101561112c576000818152600e6020908152604080832054868452602283528184206001600160a01b0391821680865293529281902054601a5491516322fd455760e11b81526004810182905292939092600192909116906345fa8aae90602401602060405180830381865afa158015613ede573d6000803e3d6000fd5b505050506040513d601f19601f82011682018060405250810190613f029190616876565b6003811115613f1357613f13616354565b60ff1603613f2657506001949350505050565b5050600101613e5c565b613f3861508f565b8051825114613f815760405162461bcd60e51b8152602060048201526015602482015274082e4e4c2f240d8cadccee8d040dad2e6dac2e8c6d605b1b60448201526064016116b2565b60005b825181101561282057818181518110613f9f57613f9f616974565b6020026020010151600f6000858481518110613fbd57613fbd616974565b6020908102919091018101516001600160a01b0390811683529082019290925260400160002080546001600160a01b03191692909116919091179055600101613f84565b60008060005b600c5481101561123f576000818152600e6020908152604080832054878452602383528184206001600160a01b039182168086529084528285205489865260309094528285205492516370a0823160e01b815292909116600483018190529093909184906370a0823190602401602060405180830381865afa158015614091573d6000803e3d6000fd5b505050506040513d601f19601f820116820180604052508101906140b59190616948565b601a546040516322fd455760e11b8152600481018690529192506003916001600160a01b03909116906345fa8aae90602401602060405180830381865afa158015614104573d6000803e3d6000fd5b505050506040513d601f19601f820116820180604052508101906141289190616876565b600381111561413957614139616354565b60ff16148015614147575080155b1561415e57614157600187616863565b95506142a5565b601a546040516322fd455760e11b8152600481018590526002916001600160a01b0316906345fa8aae90602401602060405180830381865afa1580156141a8573d6000803e3d6000fd5b505050506040513d601f19601f820116820180604052508101906141cc9190616876565b60038111156141dd576141dd616354565b60ff161480156141eb575080155b156142a55760008881526021602090815260408083206001600160a01b03888116855292529182902054601a5492516322fd455760e11b815260048101829052909260029216906345fa8aae90602401602060405180830381865afa158015614258573d6000803e3d6000fd5b505050506040513d601f19601f8201168201806040525081019061427c9190616876565b600381111561428d5761428d616354565b60ff16036142a3576142a0600188616863565b96505b505b5050600190920191506140079050565b60008060005b600c54811015611252576000818152600e60205260408120546142e6906001600160a01b0316614c55565b90506142f28184616863565b9250506001016142bb565b61430681611162565b6143525760405162461bcd60e51b815260206004820152601860248201527f4f726465727320617265206e6f7420636f6d706c65746564000000000000000060448201526064016116b2565b60008181526014602052604090205460ff16156143a95760405162461bcd60e51b8152602060048201526015602482015274125cdcdd585b98d9481a5cc818dbdb5c1b195d1959605a1b60448201526064016116b2565b6000818152602d60205260408120546001600160a01b03169080805b600c548110156146e1576000818152600e6020908152604080832054888452602283528184206001600160a01b03918216808652935281842054601a54601b54935163a377cfbf60e01b815260048101869052938316602485015293949093909291169063a377cfbf906044016040805180830381865afa15801561444e573d6000803e3d6000fd5b505050506040513d601f19601f820116820180604052508101906144729190616a11565b6000898152602f60205260408082205490516370a0823160e01b81526001600160a01b0391821660048201819052939450908616906370a0823190602401602060405180830381865afa1580156144cd573d6000803e3d6000fd5b505050506040513d601f19601f820116820180604052508101906144f19190616948565b60008b81526029602090815260408083206001600160a01b038a1684529091528120548551929350916145249083616907565b600087815260256020526040812054919250906145419083616863565b905061454d828c616863565b9a50614559818b616863565b6040516317ee7de960e11b8152909a506001600160a01b03861690632fdcfbd29061458c908b90309089906004016168c6565b600060405180830381600087803b1580156145a657600080fd5b505af11580156145ba573d6000803e3d6000fd5b505050506001600160a01b038881166000818152600f60205260409081902054905163095ea7b360e01b815292166004830152602482018690529063095ea7b3906044016020604051808303816000875af115801561461d573d6000803e3d6000fd5b505050506040513d601f19601f8201168201806040525081019061464191906168ea565b506001600160a01b038881166000908152600f602052604090819020546018549151636e553f6560e01b815260048101889052918316602483015290911690636e553f65906044016020604051808303816000875af11580156146a8573d6000803e3d6000fd5b505050506040513d601f19601f820116820180604052508101906146cc9190616948565b5050600190970196506143c595505050505050565b506000848152602b602052604081205490819003614774576000614706836064616907565b6017546040516340c10f1960e01b81526001600160a01b038881166004830152602482018490529293509116906340c10f1990604401600060405180830381600087803b15801561475657600080fd5b505af115801561476a573d6000803e3d6000fd5b5050505050614804565b6000836147818484616907565b61478b9190616934565b905060006147998383616961565b6017546040516340c10f1960e01b81526001600160a01b038981166004830152602482018490529293509116906340c10f1990604401600060405180830381600087803b1580156147e957600080fd5b505af11580156147fd573d6000803e3d6000fd5b5050505050505b5050601c546000908152601460205260409020805460ff19166001179055505050565b7ff0c57e16840df040f15088dc2f81fe391c3923bec73e23a9662efc9c229c6a008054600160401b810460ff1615906001600160401b031660008115801561486c5750825b90506000826001600160401b031660011480156148885750303b155b905081158015614896575080155b156148b45760405163f92ee8a960e01b815260040160405180910390fd5b845467ffffffffffffffff1916600117855583156148de57845460ff60401b1916600160401b1785555b8d601a60006101000a8154816001600160a01b0302191690836001600160a01b031602179055508c601760006101000a8154816001600160a01b0302191690836001600160a01b031602179055508b601860006101000a8154816001600160a01b0302191690836001600160a01b031602179055508a601b60006101000a8154816001600160a01b0302191690836001600160a01b0316021790555089601b60146101000a81548160ff021916908360ff16021790555061499e336158ba565b6149a66158cb565b601b805460ff60a81b1916600560a91b179055600280546001600160a01b0319166001600160a01b038b161790556149dd8861547e565b6008879055600a6149f7670de0b6b3a76400006001616907565b614a019190616934565b6009556040805160608101909152602a8082526171236020830139600690614a299082616b39565b506040518060600160405280602e815260200161714d602e9139600790614a509082616b39565b50601f805460ff19168715151790558315614aa557845460ff60401b19168555604051600181527fc7f505b2f371ae2175ee4913f4499e1f2633a7b5936321eed1cdaeb6115181d29060200160405180910390a15b5050505050505050505050505050565b60008060005b600c54811015614bc5576000818152600e60209081526040808320546001600160a01b0316808452601290925282205490919068056bc75e2d6310000090614b039088616907565b614b0d9190616934565b601a54601b546040516308da5c3560e21b81526000600482018190526001600160a01b0392831660248301529394508392919091169063236970d4906044016040805180830381865afa158015614b68573d6000803e3d6000fd5b505050506040513d601f19601f82011682018060405250810190614b8c9190616820565b915091506000614b9c8285614e97565b614ba69084616863565b9050614bb28188616863565b96505060019094019350614abb92505050565b5092915050565b6000614bd661508f565b6001600160a01b038316614c245760405162461bcd60e51b8152602060048201526015602482015274696e76616c696420746f6b656e206164647265737360581b60448201526064016116b2565b50601b805460ff8316600160a01b026001600160a81b03199091166001600160a01b03851617179055600192915050565b600080614c6183612d4a565b90506000614c6e84613d2a565b9050670de0b6b3a7640000614c838383616907565b613e1d9190616934565b60008381526005602052604090205483906001600160a01b03163314614d065760405162461bcd60e51b815260206004820152602860248201527f536f75726365206d75737420626520746865206f7261636c65206f6620746865604482015267081c995c5d595cdd60c21b60648201526084016116b2565b60008181526005602052604080822080546001600160a01b03191690555182917f7cc135e0cebb02c3480ae5d74d377283180a2601f8f644edf7987b009316c63a91a26121318383615699565b614d5b6160c4565b60008281526033602090815260409182902082516101408101845281546001600160401b03811682526001600160a01b03600160401b9091048116938201939093526001808301548416948201949094526002820154928316606082015260ff600160a01b84048116151560808301529093919260a0850192600160a81b90910490911690811115614def57614def616354565b6001811115614e0057614e00616354565b815260038281015460208301526004830154604083015260058301546060830152600683015460809092019160ff1690811115614e3f57614e3f616354565b6003811115614e5057614e50616354565b90525092915050565b614e6161508f565b6001600160a01b038116614e8b57604051631e4fbdf760e01b8152600060048201526024016116b2565b614e9481615512565b50565b60008262ffffff16600003614ead576000614ec0565b614ec08262ffffff8516620f42406158db565b9392505050565b600080614ed460006159af565b6001600160a01b03808516602083015286811660408084019190915260e08301879052601a54905163aa2165f160e01b815292935060009291169063aa2165f190614f2390859060040161675b565b6020604051808303816000875af1158015614f42573d6000803e3d6000fd5b505050506040513d601f19601f82011682018060405250810190614f669190616948565b60008181526033602090815260409182902085518154928701516001600160401b039091166001600160e01b031990931692909217600160401b6001600160a01b039384160217815591850151600180840180546001600160a01b0319169284169290921790915560608601516002840180546080890151929094166001600160a81b031990941693909317600160a01b911515919091021780835560a08701519495508694929160ff60a81b1990911690600160a81b90849081111561502f5761502f616354565b021790555060c0820151816003015560e0820151816004015561010082015181600501556101208201518160060160006101000a81548160ff0219169083600381111561507e5761507e616354565b021790555091979650505050505050565b336150c17f9016d09d72d40fdae2fd8ceac6b6234c7706214fd39c1cd1e609a0528c199300546001600160a01b031690565b6001600160a01b031614611b395760405163118cdaa760e01b81523360048201526024016116b2565b6001600160a01b038084166000908152600f6020526040808220546018549151631c20fadd60e01b8152929390811692911690631c20fadd90615135908490309089906004016168c6565b600060405180830381600087803b15801561514f57600080fd5b505af1158015615163573d6000803e3d6000fd5b5050604051635d043b2960e11b81526004810187905230602482018190526044820152600092506001600160a01b038416915063ba087652906064016020604051808303816000875af11580156151be573d6000803e3d6000fd5b505050506040513d601f19601f820116820180604052508101906151e29190616948565b905060006151f060016159af565b6001600160a01b03888116604083810182905260c084018690528883166020850152601a54905163095ea7b360e01b8152921660048301526024820185905291925063095ea7b3906044016020604051808303816000875af115801561525a573d6000803e3d6000fd5b505050506040513d601f19601f8201168201806040525081019061527e91906168ea565b50601a5460405163aa2165f160e01b81526000916001600160a01b03169063aa2165f1906152b090859060040161675b565b6020604051808303816000875af11580156152cf573d6000803e3d6000fd5b505050506040513d601f19601f820116820180604052508101906152f39190616948565b60008181526033602090815260409182902085518154928701516001600160401b039091166001600160e01b031990931692909217600160401b6001600160a01b039384160217815591850151600180840180546001600160a01b0319169284169290921790915560608601516002840180546080890151929094166001600160a81b031990941693909317600160a01b911515919091021780835560a08701519495508694929160ff60a81b1990911690600160a81b9084908111156153bc576153bc616354565b021790555060c0820151816003015560e0820151816004015561010082015181600501556101208201518160060160006101000a81548160ff0219169083600381111561540b5761540b616354565b0217905550919998505050505050505050565b615426615a66565b60008051602061717b833981519152805460ff191681557f5db9ee0a495bf2e6ff9c91a7834c1ba4fdd244a5e8aa4e537bd38aeae4b073aa335b6040516001600160a01b03909116815260200160405180910390a150565b600380546001600160a01b0319166001600160a01b0392909216919091179055565b60008262ffffff166000036154b6576000614ec0565b614ec082620f42406154c88682616bf8565b62ffffff166158db565b60008260ff168260ff161115615508576154ec8383616c14565b6154f790600a616d11565b6155019085616d20565b9050614ec0565b6154ec8284616c14565b7f9016d09d72d40fdae2fd8ceac6b6234c7706214fd39c1cd1e609a0528c19930080546001600160a01b031981166001600160a01b03848116918217845560405192169182907f8be0079c531659141344cd1fd0a4f28419497f9722a3daafe3b4186f6b6457e090600090a3505050565b61558b616127565b615593616127565b61104b81868686615a96565b60808301516155ae9083615ad3565b60808301516128209082615ad3565b6004546000906155ce816001616863565b600455835160408086015160808701515191516000936320214ca360e11b936156069386938493923092918a91600191602401616d50565b60408051601f198184030181529190526020810180516001600160e01b03166001600160e01b031990931692909217909152905061564686838684615aea565b9695505050505050565b615658615c48565b60008051602061717b833981519152805460ff191660011781557f62e78cea01bee320cd4e420270b5ea74000d11b0c9f74754ebdbfc544b05a25833615460565b818160005b825181101561589a578281815181106156b9576156b9616974565b6020026020010151600d600083815260200190815260200160002060006101000a8154816001600160a01b0302191690836001600160a01b03160217905550806010600085848151811061570f5761570f616974565b60200260200101516001600160a01b03166001600160a01b031681526020019081526020016000208190555081818151811061574d5761574d616974565b60200260200101516013600085848151811061576b5761576b616974565b60200260200101516001600160a01b03166001600160a01b0316815260200190815260200160002081905550600c54600003615892578281815181106157b3576157b3616974565b6020026020010151600e600083815260200190815260200160002060006101000a8154816001600160a01b0302191690836001600160a01b0316021790555081818151811061580457615804616974565b60200260200101516012600085848151811061582257615822616974565b60200260200101516001600160a01b03166001600160a01b0316815260200190815260200160002081905550806011600085848151811061586557615865616974565b60200260200101516001600160a01b03166001600160a01b03168152602001908152602001600020819055505b60010161569e565b508151600b55600c546000036158b0578151600c555b505042600a555050565b6158c2615c79565b614e9481615cc2565b6158d3615c79565b611b39615cca565b60008080600019858709858702925082811083820303915050806000036159155783828161590b5761590b61691e565b0492505050614ec0565b83811061594657604051630c740aef60e31b81526004810187905260248101869052604481018590526064016116b2565b60008486880960026001871981018816978890046003810283188082028403028082028403028082028403028082028403028082028403029081029092039091026000889003889004909101858311909403939093029303949094049190911702949350505050565b6159b76160c4565b60408051610140810182526001600160401b03421681523060208201526017546001600160a01b0390811692820192909252601b549091166060820152821515608082015260a081016000815260200183615a13576000615a1e565b68056bc75e2d631000005b68ffffffffffffffffff16815260200183615a425768056bc75e2d63100000615a45565b60005b68ffffffffffffffffff168152600060208201526040016001905292915050565b60008051602061717b8339815191525460ff16611b3957604051638dfc202b60e01b815260040160405180910390fd5b615a9e616127565b615aae8560800151610100615ceb565b50509183526001600160a01b031660208301526001600160e01b031916604082015290565b615ae08260038351615d50565b6128208282615e57565b6040516bffffffffffffffffffffffff193060601b1660208201526034810184905260009060540160408051808303601f1901815282825280516020918201206000818152600590925291812080546001600160a01b0319166001600160a01b038a1617905590925082917fb5e6e01e79f91267dc17b4e6314d5d4d03593d2ceee0fbb452b750bd70ea5af99190a2600254604051630200057560e51b81526001600160a01b0390911690634000aea090615bad90889087908790600401616da9565b6020604051808303816000875af1158015615bcc573d6000803e3d6000fd5b505050506040513d601f19601f82011682018060405250810190615bf091906168ea565b613e1d5760405162461bcd60e51b815260206004820152602360248201527f756e61626c6520746f207472616e73666572416e6443616c6c20746f206f7261604482015262636c6560e81b60648201526084016116b2565b60008051602061717b8339815191525460ff1615611b395760405163d93c066560e01b815260040160405180910390fd5b7ff0c57e16840df040f15088dc2f81fe391c3923bec73e23a9662efc9c229c6a0054600160401b900460ff16611b3957604051631afcd79f60e31b815260040160405180910390fd5b614e61615c79565b615cd2615c79565b60008051602061717b833981519152805460ff19169055565b604080518082019091526060815260006020820152615d0b602083616dd0565b15615d3357615d1b602083616dd0565b615d26906020616961565b615d309083616863565b91505b506020828101829052604080518085526000815290920101905290565b6017816001600160401b031611615d74576121318360e0600585901b168317615e7e565b60ff816001600160401b031611615db057615d9a836018611fe0600586901b1617615e7e565b50612131836001600160401b0383166001615ea3565b61ffff816001600160401b031611615ded57615dd7836019611fe0600586901b1617615e7e565b50612131836001600160401b0383166002615ea3565b63ffffffff816001600160401b031611615e2c57615e1683601a611fe0600586901b1617615e7e565b50612131836001600160401b0383166004615ea3565b615e4183601b611fe0600586901b1617615e7e565b50612131836001600160401b0383166008615ea3565b604080518082019091526060815260006020820152614ec083846000015151848551615ec9565b604080518082019091526060815260006020820152614ec08384600001515184615fb3565b604080518082019091526060815260006020820152613e1d84856000015151858561600e565b6040805180820190915260608152600060208201528251821115615eec57600080fd5b6020850151615efb8386616863565b1115615f2e57615f2e85615f1e87602001518786615f199190616863565b61608f565b615f29906002616907565b6160a0565b600080865180518760208301019350808887011115615f4d5787860182525b505050602084015b60208410615f8d5780518252615f6c602083616863565b9150615f79602082616863565b9050615f86602085616961565b9350615f55565b51815160001960208690036101000a019081169019919091161790525083949350505050565b60408051808201909152606081526000602082015283602001518310615fe857615fe88485602001516002615f299190616907565b8351805160208583010184815350808503616004576001810182525b5093949350505050565b60408051808201909152606081526000602082015260208501516160328584616863565b11156160465761604685615f1e8685616863565b6000600161605684610100616de4565b6160609190616961565b90508551838682010185831982511617815250805184870111156160845783860181525b509495945050505050565b60008183111561125257508161115c565b81516160ac8383615ceb565b506121318382615e57565b61033280616df183390190565b604080516101408101825260008082526020820181905291810182905260608101829052608081018290529060a082019081526020016000815260200160008152602001600081526020016000600381111561612257616122616354565b905290565b6040805160a0810182526000808252602080830182905282840182905260608084018390528451808601909552845283015290608082015290565b80356001600160a01b03811681146118e057600080fd5b6000806040838503121561618c57600080fd5b8235915061619c60208401616162565b90509250929050565b6000602082840312156161b757600080fd5b5035919050565b6000602082840312156161d057600080fd5b614ec082616162565b634e487b7160e01b600052604160045260246000fd5b604051601f8201601f191681016001600160401b0381118282101715616217576162176161d9565b604052919050565b600082601f83011261623057600080fd5b81356001600160401b03811115616249576162496161d9565b61625c601f8201601f19166020016161ef565b81815284602083860101111561627157600080fd5b816020850160208301376000918101602001919091529392505050565b600080604083850312156162a157600080fd5b82356001600160401b03808211156162b857600080fd5b6162c48683870161621f565b935060208501359150808211156162da57600080fd5b506162e78582860161621f565b9150509250929050565b60005b8381101561630c5781810151838201526020016162f4565b50506000910152565b6000815180845261632d8160208601602086016162f1565b601f01601f19169290920160200192915050565b602081526000614ec06020830184616315565b634e487b7160e01b600052602160045260246000fd5b6002811061637a5761637a616354565b9052565b6004811061637a5761637a616354565b6001600160401b038b1681526001600160a01b038a81166020830152898116604083015288166060820152861515608082015261014081016163d360a083018861636a565b8560c08301528460e0830152836101008301526163f461012083018461637e565b9b9a5050505050505050505050565b6000806040838503121561641657600080fd5b61641f83616162565b946020939093013593505050565b60ff81168114614e9457600080fd5b60006020828403121561644e57600080fd5b8135614ec08161642d565b60006001600160401b03821115616472576164726161d9565b5060051b60200190565b600082601f83011261648d57600080fd5b813560206164a261649d83616459565b6161ef565b8083825260208201915060208460051b8701019350868411156164c457600080fd5b602086015b848110156164e7576164da81616162565b83529183019183016164c9565b509695505050505050565b6000806040838503121561650557600080fd5b82356001600160401b038082111561651c57600080fd5b6165288683870161647c565b9350602085013591508082111561653e57600080fd5b506162e78582860161647c565b600082601f83011261655c57600080fd5b8135602061656c61649d83616459565b8083825260208201915060208460051b87010193508684111561658e57600080fd5b602086015b848110156164e75780358352918301918301616593565b600080604083850312156165bd57600080fd5b82356001600160401b03808211156165d457600080fd5b6165e08683870161647c565b935060208501359150808211156165f657600080fd5b506162e78582860161654b565b8015158114614e9457600080fd5b60008060008060008060008060006101208a8c03121561663057600080fd5b6166398a616162565b985061664760208b01616162565b975061665560408b01616162565b965061666360608b01616162565b955060808a01356166738161642d565b945061668160a08b01616162565b935061668f60c08b01616162565b925060e08a013591506101008a01356166a781616603565b809150509295985092959850929598565b600080604083850312156166cb57600080fd5b6166d483616162565b915060208301356166e48161642d565b809150509250929050565b60008060006060848603121561670457600080fd5b8335925060208401356001600160401b038082111561672257600080fd5b61672e8783880161647c565b9350604086013591508082111561674457600080fd5b506167518682870161654b565b9150509250925092565b81516001600160401b031681526101408101602083015161678760208401826001600160a01b03169052565b5060408301516167a260408401826001600160a01b03169052565b5060608301516167bd60608401826001600160a01b03169052565b5060808301516167d1608084018215159052565b5060a08301516167e460a084018261636a565b5060c083015160c083015260e083015160e0830152610100808401518184015250610120808401516168188285018261637e565b505092915050565b6000806040838503121561683357600080fd5b82519150602083015162ffffff811681146166e457600080fd5b634e487b7160e01b600052601160045260246000fd5b8082018082111561115c5761115c61684d565b60006020828403121561688857600080fd5b815160048110614ec057600080fd5b600083516168a98184602088016162f1565b8351908301906168bd8183602088016162f1565b01949350505050565b6001600160a01b039384168152919092166020820152604081019190915260600190565b6000602082840312156168fc57600080fd5b8151614ec081616603565b808202811582820484141761115c5761115c61684d565b634e487b7160e01b600052601260045260246000fd5b6000826169435761694361691e565b500490565b60006020828403121561695a57600080fd5b5051919050565b8181038181111561115c5761115c61684d565b634e487b7160e01b600052603260045260246000fd5b805169ffffffffffffffffffff811681146118e057600080fd5b600080600080600060a086880312156169bc57600080fd5b6169c58661698a565b94506020860151935060408601519250606086015191506169e86080870161698a565b90509295509295909350565b600060208284031215616a0657600080fd5b8151614ec08161642d565b600060408284031215616a2357600080fd5b604051604081016001600160401b038282108183111715616a4657616a466161d9565b8160405284518352602085015191508082168214616a6357600080fd5b5060208201529392505050565b600181811c90821680616a8457607f821691505b60208210810361125257634e487b7160e01b600052602260045260246000fd5b60208082526025908201527f5468652070726f6365737320686173206265656e20636f6d706c65746564206260408201526465666f726560d81b606082015260800190565b601f821115612820576000816000526020600020601f850160051c81016020861015616b125750805b601f850160051c820191505b81811015616b3157828155600101616b1e565b505050505050565b81516001600160401b03811115616b5257616b526161d9565b616b6681616b608454616a70565b84616ae9565b602080601f831160018114616b9b5760008415616b835750858301515b600019600386901b1c1916600185901b178555616b31565b600085815260208120601f198616915b82811015616bca57888601518255948401946001909101908401616bab565b5085821015616be85787850151600019600388901b60f8161c191681555b5050505050600190811b01905550565b62ffffff818116838216019080821115614bc557614bc561684d565b60ff828116828216039081111561115c5761115c61684d565b600181815b80851115616c68578160001904821115616c4e57616c4e61684d565b80851615616c5b57918102915b93841c9390800290616c32565b509250929050565b600082616c7f5750600161115c565b81616c8c5750600061115c565b8160018114616ca25760028114616cac57616cc8565b600191505061115c565b60ff841115616cbd57616cbd61684d565b50506001821b61115c565b5060208310610133831016604e8410600b8410161715616ceb575081810a61115c565b616cf58383616c2d565b8060001904821115616d0957616d0961684d565b029392505050565b6000614ec060ff841683616c70565b80820260008212600160ff1b84141615616d3c57616d3c61684d565b818105831482151761115c5761115c61684d565b6001600160a01b0389811682526020820189905260408201889052861660608201526001600160e01b03198516608082015260a0810184905260c0810183905261010060e082018190526000906163f483820185616315565b60018060a01b038416815282602082015260606040820152600061104b6060830184616315565b600082616ddf57616ddf61691e565b500690565b6000614ec08383616c7056fe6080604052348015600f57600080fd5b50604051610332380380610332833981016040819052602c916050565b600080546001600160a01b0319166001600160a01b0392909216919091179055607e565b600060208284031215606157600080fd5b81516001600160a01b0381168114607757600080fd5b9392505050565b6102a58061008d6000396000f3fe608060405234801561001057600080fd5b50600436106100415760003560e01c806313af4035146100465780632fdcfbd21461005b5780638da5cb5b1461006e575b600080fd5b6100596100543660046101ef565b61009d565b005b610059610069366004610211565b61010f565b600054610081906001600160a01b031681565b6040516001600160a01b03909116815260200160405180910390f35b6000546001600160a01b031633146100ed5760405162461bcd60e51b815260206004820152600e60248201526d139bdd08185d5d1a1bdc9a5e995960921b60448201526064015b60405180910390fd5b600080546001600160a01b0319166001600160a01b0392909216919091179055565b6000546001600160a01b0316331461015a5760405162461bcd60e51b815260206004820152600e60248201526d139bdd08185d5d1a1bdc9a5e995960921b60448201526064016100e4565b60405163a9059cbb60e01b81526001600160a01b0383811660048301526024820183905284169063a9059cbb906044016020604051808303816000875af11580156101a9573d6000803e3d6000fd5b505050506040513d601f19601f820116820180604052508101906101cd919061024d565b50505050565b80356001600160a01b03811681146101ea57600080fd5b919050565b60006020828403121561020157600080fd5b61020a826101d3565b9392505050565b60008060006060848603121561022657600080fd5b61022f846101d3565b925061023d602085016101d3565b9150604084013590509250925092565b60006020828403121561025f57600080fd5b8151801515811461020a57600080fdfea2646970667358221220502fe3cef5472467ba27d3f0af8cc13ea970369ac0d01284025186802306355064736f6c6343000819003368747470733a2f2f6170702e6e65786c6162732e696f2f6170692f616c6c46756e64696e6752617465733f6d756c7469706c7946756e633d31382674696d65734e656746756e643d74727565266172726179733d74727565cd5ed15c6e187e77e9aee88184c21f4f2182ab5827cb3b7e07fbedcd63f03300a2646970667358221220a74be8ca8546a9e5ab0e2f40a449576d4f28c9b311a3519c36bff764094bc5d364736f6c63430008190033","linkReferences":{}},"methodIdentifiers":{"burnedTokenAmountByNonce(uint256)":"ab7820b2","buyRequestPayedAmountById(uint256)":"8861d235","calculateBuyRequestFee(uint256)":"06995e3b","calculateIssuanceFee(uint256)":"e19eefbe","cancelIssuance(uint256)":"46d66a2c","cancelIssuanceComplted(uint256)":"7bfa27f2","cancelIssuanceRequestId(uint256,address)":"02e80f71","cancelRedemption(uint256)":"9219e510","cancelRedemptionComplted(uint256)":"b46840f9","cancelRedemptionRequestId(uint256,address)":"8c221899","checkCancelIssuanceStatus(uint256)":"631c8385","checkCancelRedemptionStatus(uint256)":"b592662a","checkFirstRebalanceOrdersStatus(uint256)":"92318df4","checkIssuanceOrdersStatus(uint256)":"2343acb4","checkRedemptionOrdersStatus(uint256)":"3fac0922","coaByIssuanceNonce(uint256)":"31c99010","coaByRedemptionNonce(uint256)":"b75f4c2c","completeCancelIssuance(uint256)":"807ca237","completeCancelRedemption(uint256)":"9026544f","completeIssuance(uint256)":"bed45bef","completeRebalanceActions(uint256)":"263e0d51","completeRedemption(uint256)":"840ecba0","concatenation(string,string)":"0e329357","currentList(uint256)":"9932ba4c","custodianWallet()":"1e106e99","estimateAmountAfterFee(uint256)":"9e76d0cb","externalJobId()":"a8b54bd4","feeRate()":"978bbdb9","firstRebalanceAction()":"32f53f3c","fulfillAssetsData(bytes32,address[],uint256[])":"f14bea20","getOrderInstanceById(uint256)":"f1f31d66","getPortfolioValue()":"bb0498de","getVaultDshareBalance(address)":"a08d7bd6","getVaultDshareValue(address)":"efdf5053","initialize(address,address,address,address,uint8,address,address,bytes32,bool)":"d57e0493","isIssuanceOrderActive(uint256)":"b0e12134","isMainnet()":"42faac05","isRedemptionOrderActive(uint256)":"0b1a4918","issuance(uint256)":"248b761e","issuanceIndexTokenPrimaryTotalSupply(uint256)":"b1dd819e","issuanceIsCompleted(uint256)":"a84ebc17","issuanceNonce()":"9dbb9c9e","issuanceRequestId(uint256,address)":"264fa8b9","issuanceRequesterByNonce(uint256)":"94674098","issuanceTokenPrimaryBalance(uint256,address)":"da65925a","issuer()":"1d143848","lastUpdateTime()":"c8f33c91","latestFeeUpdate()":"011ced5f","mockFillAssetsList(address[],uint256[])":"addc70d1","oracleList(uint256)":"239aad0d","oraclePayment()":"0c02e130","orderInstanceById(uint256)":"15e666a2","owner()":"8da5cb5b","pause()":"8456cb59","paused()":"5c975abb","portfolioValueByNonce(uint256)":"2badae5d","priceFeedByTokenAddress(address)":"08dc4b0c","priceInWei(address)":"6839a095","rebalanceBuyPayedAmountById(uint256)":"ab935bb2","rebalanceNonce()":"edca4f5e","rebalanceRequestId(uint256,address)":"75a3cb57","rebalanceSellAssetAmountById(uint256)":"8d6983c7","redemption(uint256)":"4a1dc092","redemptionIndexTokenPrimaryTotalSupply(uint256)":"daf1c17d","redemptionIsCompleted(uint256)":"76529fdf","redemptionNonce()":"84d77bb1","redemptionRequestId(uint256,address)":"f513a718","redemptionRequesterByNonce(uint256)":"78032658","redemptionTokenPrimaryBalance(uint256,address)":"a363b9cb","renounceOwnership()":"715018a6","requestAssetsData()":"7ca58c55","secondRebalanceAction(uint256)":"643ee27f","sellRequestAssetAmountById(uint256)":"a87f98d2","setCustodianWallet(address)":"9cc0fb5b","setFeeRate(uint8)":"5177942a","setIssuer(address)":"55cc4e57","setOracleInfo(address,bytes32)":"43482fc8","setPriceFeedAddresses(address[],address[])":"57b61bc3","setTokenAddress(address)":"26a4e8d2","setUrl(string,string)":"a73e1cbf","setUsdcAddress(address,uint8)":"eab2a711","setWrappedDShareAddresses(address[],address[])":"b411dc41","token()":"fc0c546a","tokenCurrentListIndex(address)":"914f0cc6","tokenCurrentMarketShare(address)":"0be52713","tokenOracleListIndex(address)":"8c88c10c","tokenOracleMarketShare(address)":"4b3e0b80","tokenShortagePercentByNonce(uint256,address)":"db5c1a12","tokenValueByNonce(uint256,address)":"b316e7fd","totalCurrentList()":"53fd4332","totalOracleList()":"c8599ded","totalShortagePercentByNonce(uint256)":"2ca49334","transferOwnership(address)":"f2fde38b","unpause()":"3f4ba83a","usdc()":"3e413bee","usdcDecimals()":"7bf42165","vall()":"acac92ab","vault()":"fbfa77cf","wrappedDshareAddress(address)":"092755e0"},"id":16}