{"abi":[{"type":"function","name":"actionInfoById","inputs":[{"name":"","type":"uint256","internalType":"uint256"}],"outputs":[{"name":"actionType","type":"uint256","internalType":"uint256"},{"name":"nonce","type":"uint256","internalType":"uint256"}],"stateMutability":"view"},{"type":"function","name":"burnedTokenAmountByNonce","inputs":[{"name":"","type":"uint256","internalType":"uint256"}],"outputs":[{"name":"","type":"uint256","internalType":"uint256"}],"stateMutability":"view"},{"type":"function","name":"buyRequestPayedAmountById","inputs":[{"name":"","type":"uint256","internalType":"uint256"}],"outputs":[{"name":"","type":"uint256","internalType":"uint256"}],"stateMutability":"view"},{"type":"function","name":"calculateBuyRequestFee","inputs":[{"name":"_amount","type":"uint256","internalType":"uint256"}],"outputs":[{"name":"","type":"uint256","internalType":"uint256"}],"stateMutability":"view"},{"type":"function","name":"calculateIssuanceFee","inputs":[{"name":"_inputAmount","type":"uint256","internalType":"uint256"}],"outputs":[{"name":"","type":"uint256","internalType":"uint256"}],"stateMutability":"view"},{"type":"function","name":"cancelIssuance","inputs":[{"name":"_issuanceNonce","type":"uint256","internalType":"uint256"}],"outputs":[],"stateMutability":"nonpayable"},{"type":"function","name":"cancelIssuanceComplted","inputs":[{"name":"","type":"uint256","internalType":"uint256"}],"outputs":[{"name":"","type":"bool","internalType":"bool"}],"stateMutability":"view"},{"type":"function","name":"cancelIssuanceRequestId","inputs":[{"name":"","type":"uint256","internalType":"uint256"},{"name":"","type":"address","internalType":"address"}],"outputs":[{"name":"","type":"uint256","internalType":"uint256"}],"stateMutability":"view"},{"type":"function","name":"cancelRedemption","inputs":[{"name":"_redemptionNonce","type":"uint256","internalType":"uint256"}],"outputs":[],"stateMutability":"nonpayable"},{"type":"function","name":"cancelRedemptionComplted","inputs":[{"name":"","type":"uint256","internalType":"uint256"}],"outputs":[{"name":"","type":"bool","internalType":"bool"}],"stateMutability":"view"},{"type":"function","name":"cancelRedemptionRequestId","inputs":[{"name":"","type":"uint256","internalType":"uint256"},{"name":"","type":"address","internalType":"address"}],"outputs":[{"name":"","type":"uint256","internalType":"uint256"}],"stateMutability":"view"},{"type":"function","name":"checkMultical","inputs":[{"name":"_reqeustId","type":"uint256","internalType":"uint256"}],"outputs":[{"name":"","type":"bool","internalType":"bool"}],"stateMutability":"view"},{"type":"function","name":"coaByIssuanceNonce","inputs":[{"name":"","type":"uint256","internalType":"uint256"}],"outputs":[{"name":"","type":"address","internalType":"address"}],"stateMutability":"view"},{"type":"function","name":"coaByRedemptionNonce","inputs":[{"name":"","type":"uint256","internalType":"uint256"}],"outputs":[{"name":"","type":"address","internalType":"address"}],"stateMutability":"view"},{"type":"function","name":"completeCancelIssuance","inputs":[{"name":"_issuanceNonce","type":"uint256","internalType":"uint256"}],"outputs":[],"stateMutability":"nonpayable"},{"type":"function","name":"completeCancelRedemption","inputs":[{"name":"_redemptionNonce","type":"uint256","internalType":"uint256"}],"outputs":[],"stateMutability":"nonpayable"},{"type":"function","name":"completeIssuance","inputs":[{"name":"_issuanceNonce","type":"uint256","internalType":"uint256"}],"outputs":[],"stateMutability":"nonpayable"},{"type":"function","name":"completeRedemption","inputs":[{"name":"_redemptionNonce","type":"uint256","internalType":"uint256"}],"outputs":[],"stateMutability":"nonpayable"},{"type":"function","name":"factoryStorage","inputs":[],"outputs":[{"name":"","type":"address","internalType":"contract IndexFactoryStorage"}],"stateMutability":"view"},{"type":"function","name":"feeRate","inputs":[],"outputs":[{"name":"","type":"uint8","internalType":"uint8"}],"stateMutability":"view"},{"type":"function","name":"getActionType","inputs":[{"name":"_requestId","type":"uint256","internalType":"uint256"}],"outputs":[{"name":"","type":"uint256","internalType":"uint256"}],"stateMutability":"view"},{"type":"function","name":"getIssuanceAmountOut","inputs":[{"name":"_amount","type":"uint256","internalType":"uint256"}],"outputs":[{"name":"","type":"uint256","internalType":"uint256"}],"stateMutability":"view"},{"type":"function","name":"getOrderInstanceById","inputs":[{"name":"id","type":"uint256","internalType":"uint256"}],"outputs":[{"name":"","type":"tuple","internalType":"struct IOrderProcessor.Order","components":[{"name":"requestTimestamp","type":"uint64","internalType":"uint64"},{"name":"recipient","type":"address","internalType":"address"},{"name":"assetToken","type":"address","internalType":"address"},{"name":"paymentToken","type":"address","internalType":"address"},{"name":"sell","type":"bool","internalType":"bool"},{"name":"orderType","type":"uint8","internalType":"enum IOrderProcessor.OrderType"},{"name":"assetTokenQuantity","type":"uint256","internalType":"uint256"},{"name":"paymentTokenQuantity","type":"uint256","internalType":"uint256"},{"name":"price","type":"uint256","internalType":"uint256"},{"name":"tif","type":"uint8","internalType":"enum IOrderProcessor.TIF"}]}],"stateMutability":"view"},{"type":"function","name":"getPortfolioValue","inputs":[],"outputs":[{"name":"","type":"uint256","internalType":"uint256"}],"stateMutability":"view"},{"type":"function","name":"getRedemptionAmountOut","inputs":[{"name":"_amount","type":"uint256","internalType":"uint256"}],"outputs":[{"name":"","type":"uint256","internalType":"uint256"}],"stateMutability":"view"},{"type":"function","name":"getVaultDshareBalance","inputs":[{"name":"_token","type":"address","internalType":"address"}],"outputs":[{"name":"","type":"uint256","internalType":"uint256"}],"stateMutability":"view"},{"type":"function","name":"getVaultDshareValue","inputs":[{"name":"_token","type":"address","internalType":"address"}],"outputs":[{"name":"","type":"uint256","internalType":"uint256"}],"stateMutability":"view"},{"type":"function","name":"initialize","inputs":[{"name":"_factoryStorage","type":"address","internalType":"address"},{"name":"_orderManager","type":"address","internalType":"address"},{"name":"_issuer","type":"address","internalType":"address"},{"name":"_token","type":"address","internalType":"address"},{"name":"_vault","type":"address","internalType":"address"},{"name":"_usdc","type":"address","internalType":"address"},{"name":"_usdcDecimals","type":"uint8","internalType":"uint8"},{"name":"_isMainnet","type":"bool","internalType":"bool"}],"outputs":[],"stateMutability":"nonpayable"},{"type":"function","name":"isMainnet","inputs":[],"outputs":[{"name":"","type":"bool","internalType":"bool"}],"stateMutability":"view"},{"type":"function","name":"issuanceIndexTokenPrimaryTotalSupply","inputs":[{"name":"","type":"uint256","internalType":"uint256"}],"outputs":[{"name":"","type":"uint256","internalType":"uint256"}],"stateMutability":"view"},{"type":"function","name":"issuanceIndexTokens","inputs":[{"name":"_inputAmount","type":"uint256","internalType":"uint256"}],"outputs":[{"name":"","type":"uint256","internalType":"uint256"}],"stateMutability":"nonpayable"},{"type":"function","name":"issuanceInputAmount","inputs":[{"name":"","type":"uint256","internalType":"uint256"}],"outputs":[{"name":"","type":"uint256","internalType":"uint256"}],"stateMutability":"view"},{"type":"function","name":"issuanceIsCompleted","inputs":[{"name":"","type":"uint256","internalType":"uint256"}],"outputs":[{"name":"","type":"bool","internalType":"bool"}],"stateMutability":"view"},{"type":"function","name":"issuanceNonce","inputs":[],"outputs":[{"name":"","type":"uint256","internalType":"uint256"}],"stateMutability":"view"},{"type":"function","name":"issuanceRequestId","inputs":[{"name":"","type":"uint256","internalType":"uint256"},{"name":"","type":"address","internalType":"address"}],"outputs":[{"name":"","type":"uint256","internalType":"uint256"}],"stateMutability":"view"},{"type":"function","name":"issuanceRequesterByNonce","inputs":[{"name":"","type":"uint256","internalType":"uint256"}],"outputs":[{"name":"","type":"address","internalType":"address"}],"stateMutability":"view"},{"type":"function","name":"issuanceTokenPrimaryBalance","inputs":[{"name":"","type":"uint256","internalType":"uint256"},{"name":"","type":"address","internalType":"address"}],"outputs":[{"name":"","type":"uint256","internalType":"uint256"}],"stateMutability":"view"},{"type":"function","name":"issuer","inputs":[],"outputs":[{"name":"","type":"address","internalType":"contract IOrderProcessor"}],"stateMutability":"view"},{"type":"function","name":"latestFeeUpdate","inputs":[],"outputs":[{"name":"","type":"uint256","internalType":"uint256"}],"stateMutability":"view"},{"type":"function","name":"multical","inputs":[{"name":"_requestId","type":"uint256","internalType":"uint256"}],"outputs":[],"stateMutability":"nonpayable"},{"type":"function","name":"orderInstanceById","inputs":[{"name":"","type":"uint256","internalType":"uint256"}],"outputs":[{"name":"requestTimestamp","type":"uint64","internalType":"uint64"},{"name":"recipient","type":"address","internalType":"address"},{"name":"assetToken","type":"address","internalType":"address"},{"name":"paymentToken","type":"address","internalType":"address"},{"name":"sell","type":"bool","internalType":"bool"},{"name":"orderType","type":"uint8","internalType":"enum IOrderProcessor.OrderType"},{"name":"assetTokenQuantity","type":"uint256","internalType":"uint256"},{"name":"paymentTokenQuantity","type":"uint256","internalType":"uint256"},{"name":"price","type":"uint256","internalType":"uint256"},{"name":"tif","type":"uint8","internalType":"enum IOrderProcessor.TIF"}],"stateMutability":"view"},{"type":"function","name":"orderManager","inputs":[],"outputs":[{"name":"","type":"address","internalType":"contract OrderManager"}],"stateMutability":"view"},{"type":"function","name":"owner","inputs":[],"outputs":[{"name":"","type":"address","internalType":"address"}],"stateMutability":"view"},{"type":"function","name":"pause","inputs":[],"outputs":[],"stateMutability":"nonpayable"},{"type":"function","name":"paused","inputs":[],"outputs":[{"name":"","type":"bool","internalType":"bool"}],"stateMutability":"view"},{"type":"function","name":"portfolioValueByNonce","inputs":[{"name":"","type":"uint256","internalType":"uint256"}],"outputs":[{"name":"","type":"uint256","internalType":"uint256"}],"stateMutability":"view"},{"type":"function","name":"priceInWei","inputs":[{"name":"_tokenAddress","type":"address","internalType":"address"}],"outputs":[{"name":"","type":"uint256","internalType":"uint256"}],"stateMutability":"view"},{"type":"function","name":"redemption","inputs":[{"name":"_inputAmount","type":"uint256","internalType":"uint256"}],"outputs":[{"name":"","type":"uint256","internalType":"uint256"}],"stateMutability":"nonpayable"},{"type":"function","name":"redemptionIndexTokenPrimaryTotalSupply","inputs":[{"name":"","type":"uint256","internalType":"uint256"}],"outputs":[{"name":"","type":"uint256","internalType":"uint256"}],"stateMutability":"view"},{"type":"function","name":"redemptionInputAmount","inputs":[{"name":"","type":"uint256","internalType":"uint256"}],"outputs":[{"name":"","type":"uint256","internalType":"uint256"}],"stateMutability":"view"},{"type":"function","name":"redemptionIsCompleted","inputs":[{"name":"","type":"uint256","internalType":"uint256"}],"outputs":[{"name":"","type":"bool","internalType":"bool"}],"stateMutability":"view"},{"type":"function","name":"redemptionNonce","inputs":[],"outputs":[{"name":"","type":"uint256","internalType":"uint256"}],"stateMutability":"view"},{"type":"function","name":"redemptionRequestId","inputs":[{"name":"","type":"uint256","internalType":"uint256"},{"name":"","type":"address","internalType":"address"}],"outputs":[{"name":"","type":"uint256","internalType":"uint256"}],"stateMutability":"view"},{"type":"function","name":"redemptionRequesterByNonce","inputs":[{"name":"","type":"uint256","internalType":"uint256"}],"outputs":[{"name":"","type":"address","internalType":"address"}],"stateMutability":"view"},{"type":"function","name":"redemptionTokenPrimaryBalance","inputs":[{"name":"","type":"uint256","internalType":"uint256"},{"name":"","type":"address","internalType":"address"}],"outputs":[{"name":"","type":"uint256","internalType":"uint256"}],"stateMutability":"view"},{"type":"function","name":"renounceOwnership","inputs":[],"outputs":[],"stateMutability":"nonpayable"},{"type":"function","name":"sellRequestAssetAmountById","inputs":[{"name":"","type":"uint256","internalType":"uint256"}],"outputs":[{"name":"","type":"uint256","internalType":"uint256"}],"stateMutability":"view"},{"type":"function","name":"setFeeRate","inputs":[{"name":"_newFee","type":"uint8","internalType":"uint8"}],"outputs":[],"stateMutability":"nonpayable"},{"type":"function","name":"setIndexFactoryStorage","inputs":[{"name":"_factoryStorage","type":"address","internalType":"address"}],"outputs":[{"name":"","type":"bool","internalType":"bool"}],"stateMutability":"nonpayable"},{"type":"function","name":"setIssuer","inputs":[{"name":"_issuer","type":"address","internalType":"address"}],"outputs":[{"name":"","type":"bool","internalType":"bool"}],"stateMutability":"nonpayable"},{"type":"function","name":"setTokenAddress","inputs":[{"name":"_token","type":"address","internalType":"address"}],"outputs":[{"name":"","type":"bool","internalType":"bool"}],"stateMutability":"nonpayable"},{"type":"function","name":"setUsdcAddress","inputs":[{"name":"_usdc","type":"address","internalType":"address"},{"name":"_usdcDecimals","type":"uint8","internalType":"uint8"}],"outputs":[{"name":"","type":"bool","internalType":"bool"}],"stateMutability":"nonpayable"},{"type":"function","name":"token","inputs":[],"outputs":[{"name":"","type":"address","internalType":"contract IndexToken"}],"stateMutability":"view"},{"type":"function","name":"tokenShortagePercentByNonce","inputs":[{"name":"","type":"uint256","internalType":"uint256"},{"name":"","type":"address","internalType":"address"}],"outputs":[{"name":"","type":"uint256","internalType":"uint256"}],"stateMutability":"view"},{"type":"function","name":"tokenValueByNonce","inputs":[{"name":"","type":"uint256","internalType":"uint256"},{"name":"","type":"address","internalType":"address"}],"outputs":[{"name":"","type":"uint256","internalType":"uint256"}],"stateMutability":"view"},{"type":"function","name":"totalShortagePercentByNonce","inputs":[{"name":"","type":"uint256","internalType":"uint256"}],"outputs":[{"name":"","type":"uint256","internalType":"uint256"}],"stateMutability":"view"},{"type":"function","name":"transferOwnership","inputs":[{"name":"newOwner","type":"address","internalType":"address"}],"outputs":[],"stateMutability":"nonpayable"},{"type":"function","name":"unpause","inputs":[],"outputs":[],"stateMutability":"nonpayable"},{"type":"function","name":"usdc","inputs":[],"outputs":[{"name":"","type":"address","internalType":"address"}],"stateMutability":"view"},{"type":"function","name":"usdcDecimals","inputs":[],"outputs":[{"name":"","type":"uint8","internalType":"uint8"}],"stateMutability":"view"},{"type":"function","name":"vault","inputs":[],"outputs":[{"name":"","type":"address","internalType":"contract NexVault"}],"stateMutability":"view"},{"type":"event","name":"Initialized","inputs":[{"name":"version","type":"uint64","indexed":false,"internalType":"uint64"}],"anonymous":false},{"type":"event","name":"Issuanced","inputs":[{"name":"nonce","type":"uint256","indexed":true,"internalType":"uint256"},{"name":"user","type":"address","indexed":true,"internalType":"address"},{"name":"inputToken","type":"address","indexed":false,"internalType":"address"},{"name":"inputAmount","type":"uint256","indexed":false,"internalType":"uint256"},{"name":"outputAmount","type":"uint256","indexed":false,"internalType":"uint256"},{"name":"time","type":"uint256","indexed":false,"internalType":"uint256"}],"anonymous":false},{"type":"event","name":"OwnershipTransferred","inputs":[{"name":"previousOwner","type":"address","indexed":true,"internalType":"address"},{"name":"newOwner","type":"address","indexed":true,"internalType":"address"}],"anonymous":false},{"type":"event","name":"Paused","inputs":[{"name":"account","type":"address","indexed":false,"internalType":"address"}],"anonymous":false},{"type":"event","name":"Redemption","inputs":[{"name":"nonce","type":"uint256","indexed":true,"internalType":"uint256"},{"name":"user","type":"address","indexed":true,"internalType":"address"},{"name":"outputToken","type":"address","indexed":false,"internalType":"address"},{"name":"inputAmount","type":"uint256","indexed":false,"internalType":"uint256"},{"name":"outputAmount","type":"uint256","indexed":false,"internalType":"uint256"},{"name":"time","type":"uint256","indexed":false,"internalType":"uint256"}],"anonymous":false},{"type":"event","name":"RequestIssuance","inputs":[{"name":"nonce","type":"uint256","indexed":true,"internalType":"uint256"},{"name":"user","type":"address","indexed":true,"internalType":"address"},{"name":"inputToken","type":"address","indexed":false,"internalType":"address"},{"name":"inputAmount","type":"uint256","indexed":false,"internalType":"uint256"},{"name":"outputAmount","type":"uint256","indexed":false,"internalType":"uint256"},{"name":"time","type":"uint256","indexed":false,"internalType":"uint256"}],"anonymous":false},{"type":"event","name":"RequestRedemption","inputs":[{"name":"nonce","type":"uint256","indexed":true,"internalType":"uint256"},{"name":"user","type":"address","indexed":true,"internalType":"address"},{"name":"outputToken","type":"address","indexed":false,"internalType":"address"},{"name":"inputAmount","type":"uint256","indexed":false,"internalType":"uint256"},{"name":"outputAmount","type":"uint256","indexed":false,"internalType":"uint256"},{"name":"time","type":"uint256","indexed":false,"internalType":"uint256"}],"anonymous":false},{"type":"event","name":"Unpaused","inputs":[{"name":"account","type":"address","indexed":false,"internalType":"address"}],"anonymous":false},{"type":"error","name":"EnforcedPause","inputs":[]},{"type":"error","name":"ExpectedPause","inputs":[]},{"type":"error","name":"InvalidInitialization","inputs":[]},{"type":"error","name":"NotInitializing","inputs":[]},{"type":"error","name":"OwnableInvalidOwner","inputs":[{"name":"owner","type":"address","internalType":"address"}]},{"type":"error","name":"OwnableUnauthorizedAccount","inputs":[{"name":"account","type":"address","internalType":"address"}]},{"type":"error","name":"PRBMath_MulDiv_Overflow","inputs":[{"name":"x","type":"uint256","internalType":"uint256"},{"name":"y","type":"uint256","internalType":"uint256"},{"name":"denominator","type":"uint256","internalType":"uint256"}]}],"bytecode":{"object":"0x6080604052348015600f57600080fd5b50615b208061001f6000396000f3fe608060405234801561001057600080fd5b506004361061041d5760003560e01c80638da5cb5b1161022b578063c06e1ae211610130578063e2851bd6116100b8578063f2fde38b11610087578063f2fde38b14610ba8578063f513a71814610bbb578063f9b6117f14610be6578063fbfa77cf14610bf9578063fc0c546a14610c0c57600080fd5b8063e2851bd614610b4f578063eab2a71114610b62578063efdf505314610b75578063f1f31d6614610b8857600080fd5b8063da65925a116100ff578063da65925a14610ab3578063daf1c17d14610ade578063db5c1a1214610afe578063e16e554a14610b29578063e19eefbe14610b3c57600080fd5b8063c06e1ae214610a5a578063c8da330314610a6d578063cc8659ae14610a80578063cf9ee31914610a9357600080fd5b8063a84ebc17116101b3578063b316e7fd11610182578063b316e7fd146109c8578063b46840f9146109f3578063b75f4c2c14610a16578063bb0498de14610a3f578063bed45bef14610a4757600080fd5b8063a84ebc1714610945578063a87f98d214610968578063ab7820b214610988578063b1dd819e146109a857600080fd5b8063978bbdb9116101fa578063978bbdb9146108ca5780639cf54521146108de5780639dbb9c9e146108fe578063a08d7bd614610907578063a363b9cb1461091a57600080fd5b80638da5cb5b1461084b5780639026544f1461087b5780639219e5101461088e57806394674098146108a157600080fd5b80634a1dc0921161033157806378032658116102b9578063840ecba011610288578063840ecba0146107dc5780638456cb59146107ef57806384d77bb1146107f75780638861d235146108005780638c2218991461082057600080fd5b806378032658146107575780637bf42165146107805780637bfa27f2146107a6578063807ca237146107c957600080fd5b80636839a095116103005780636839a095146106f35780636e32040814610706578063715018a61461071957806373b774ed1461072157806376529fdf1461073457600080fd5b80634a1dc092146106a25780635177942a146106b557806355cc4e57146106c85780635c975abb146106db57600080fd5b80632ca49334116103b45780633e413bee116103835780633e413bee146106525780633f4ba83a1461066557806342faac051461066f57806346d66a2c1461067c57806348f6e87b1461068f57600080fd5b80632ca49334146105ae57806331c99010146105cd5780633aeff059146105f65780633c1f70ca1461061657600080fd5b80631d143848116103f05780631d14384814610515578063264fa8b91461054057806326a4e8d21461056b5780632badae5d1461058e57600080fd5b8063011ced5f1461042257806302e80f711461043e57806306995e3b1461046957806315e666a21461047c575b600080fd5b61042b60245481565b6040519081526020015b60405180910390f35b61042b61044c3660046150bf565b600c60209081526000928352604080842090915290825290205481565b61042b6104773660046150ef565b610c1f565b6104ff61048a3660046150ef565b601c60205260009081526040902080546001820154600283015460038401546004850154600586015460069096015467ffffffffffffffff8616966001600160a01b03600160401b9097048716969586169585169460ff600160a01b8204811695600160a81b9092048116949193919291168a565b6040516104359a99989796959493929190615142565b600754610528906001600160a01b031681565b6040516001600160a01b039091168152602001610435565b61042b61054e3660046150bf565b600e60209081526000928352604080842090915290825290205481565b61057e6105793660046151b8565b610cbf565b6040519015158152602001610435565b61042b61059c3660046150ef565b601d6020526000908152604090205481565b61042b6105bc3660046150ef565b602080526000908152604090205481565b6105286105db3660046150ef565b6018602052600090815260409020546001600160a01b031681565b61042b6106043660046150ef565b60009081526023602052604090205490565b61063d6106243660046150ef565b6023602052600090815260409020805460019091015482565b60408051928352602083019190915201610435565b600854610528906001600160a01b031681565b61066d610d40565b005b600b5461057e9060ff1681565b61066d61068a3660046150ef565b610d52565b61066d61069d3660046151f2565b61134e565b61042b6106b03660046150ef565b611593565b61066d6106c336600461529b565b611c5b565b61057e6106d63660046151b8565b611da5565b600080516020615acb8339815191525460ff1661057e565b61042b6107013660046151b8565b611e23565b61042b6107143660046150ef565b612007565b61066d612683565b61066d61072f3660046150ef565b612695565b61057e6107423660046150ef565b60016020526000908152604090205460ff1681565b6105286107653660046150ef565b6017602052600090815260409020546001600160a01b031681565b60085461079490600160a01b900460ff1681565b60405160ff9091168152602001610435565b61057e6107b43660046150ef565b601a6020526000908152604090205460ff1681565b61066d6107d73660046150ef565b612719565b61066d6107ea3660046150ef565b612916565b61066d612ba7565b61042b600a5481565b61042b61080e3660046150ef565b60106020526000908152604090205481565b61042b61082e3660046150bf565b600d60209081526000928352604080842090915290825290205481565b7f9016d09d72d40fdae2fd8ceac6b6234c7706214fd39c1cd1e609a0528c199300546001600160a01b0316610528565b61066d6108893660046150ef565b612bb7565b61066d61089c3660046150ef565b612f9d565b6105286108af3660046150ef565b6016602052600090815260409020546001600160a01b031681565b60085461079490600160a81b900460ff1681565b61042b6108ec3660046150ef565b60226020526000908152604090205481565b61042b60095481565b61042b6109153660046151b8565b6134ca565b61042b6109283660046150bf565b601360209081526000928352604080842090915290825290205481565b61057e6109533660046150ef565b60006020819052908152604090205460ff1681565b61042b6109763660046150ef565b60116020526000908152604090205481565b61042b6109963660046150ef565b60026020526000908152604090205481565b61042b6109b63660046150ef565b60146020526000908152604090205481565b61042b6109d63660046150bf565b601e60209081526000928352604080842090915290825290205481565b61057e610a013660046150ef565b601b6020526000908152604090205460ff1681565b610528610a243660046150ef565b6019602052600090815260409020546001600160a01b031681565b61042b613625565b61066d610a553660046150ef565b61372c565b600454610528906001600160a01b031681565b61042b610a7b3660046150ef565b613f08565b61057e610a8e3660046151b8565b613fa7565b61042b610aa13660046150ef565b60216020526000908152604090205481565b61042b610ac13660046150bf565b601260209081526000928352604080842090915290825290205481565b61042b610aec3660046150ef565b60156020526000908152604090205481565b61042b610b0c3660046150bf565b601f60209081526000928352604080842090915290825290205481565b61057e610b373660046150ef565b61402c565b61042b610b4a3660046150ef565b61418f565b61042b610b5d3660046150ef565b6143cc565b61057e610b703660046152b8565b614461565b61042b610b833660046151b8565b6144eb565b610b9b610b963660046150ef565b614523565b60405161043591906152e6565b61066d610bb63660046151b8565b61462a565b61042b610bc93660046150bf565b600f60209081526000928352604080842090915290825290205481565b600654610528906001600160a01b031681565b600554610528906001600160a01b031681565b600354610528906001600160a01b031681565b6007546008546040516308da5c3560e21b81526000600482018190526001600160a01b039283166024830152928392839291169063236970d4906044016040805180830381865afa158015610c78573d6000803e3d6000fd5b505050506040513d601f19601f82011682018060405250810190610c9c91906153ac565b915091506000610cac8286614668565b610cb690846153ef565b95945050505050565b6000610cc9614691565b6001600160a01b038216610d1c5760405162461bcd60e51b8152602060048201526015602482015274696e76616c696420746f6b656e206164647265737360581b60448201526064015b60405180910390fd5b50600380546001600160a01b0319166001600160a01b03831617905560015b919050565b610d48614691565b610d506146ec565b565b60008181526020819052604090205460ff1615610da95760405162461bcd60e51b8152602060048201526015602482015274125cdcdd585b98d9481a5cc818dbdb5c1b195d1959605a1b6044820152606401610d13565b6000818152601660209081526040808320546018909252909120546001600160a01b039182169116338214610e2f5760405162461bcd60e51b815260206004820152602660248201527f4f6e6c79207265717565737465722063616e2063616e63656c207468652069736044820152657375616e636560d01b6064820152608401610d13565b60005b60048054604080516329fea19960e11b815290516001600160a01b03909216926353fd43329282820192602092908290030181865afa158015610e79573d6000803e3d6000fd5b505050506040513d601f19601f82011682018060405250810190610e9d9190615402565b811015611348576004805460405163264cae9360e21b81529182018390526000916001600160a01b0390911690639932ba4c90602401602060405180830381865afa158015610ef0573d6000803e3d6000fd5b505050506040513d601f19601f82011682018060405250810190610f14919061541b565b6000868152600e602090815260408083206001600160a01b03808616855290835281842054808552601c8452828520835161014081018552815467ffffffffffffffff81168252600160401b90048416958101959095526001808201548416948601949094526002810154928316606086015260ff600160a01b84048116151560808701529697509095909260a0850192600160a81b900490911690811115610fbf57610fbf615108565b6001811115610fd057610fd0615108565b815260038281015460208301526004830154604083015260058301546060830152600683015460809092019160ff169081111561100f5761100f615108565b600381111561102057611020615108565b9052506007546040516322fd455760e11b8152600481018590529192506001916001600160a01b03909116906345fa8aae90602401602060405180830381865afa158015611072573d6000803e3d6000fd5b505050506040513d601f19601f820116820180604052508101906110969190615438565b60038111156110a7576110a7615108565b60ff1603611112576007546040516339a0e8b560e21b8152600481018490526001600160a01b039091169063e683a2d490602401600060405180830381600087803b1580156110f557600080fd5b505af1158015611109573d6000803e3d6000fd5b5050505061133d565b6007546040516322fd455760e11b8152600481018490526002916001600160a01b0316906345fa8aae90602401602060405180830381865afa15801561115c573d6000803e3d6000fd5b505050506040513d601f19601f820116820180604052508101906111809190615438565b600381111561119157611191615108565b60ff16148061120b57506040516370a0823160e01b81526001600160a01b038681166004830152600091908516906370a0823190602401602060405180830381865afa1580156111e5573d6000803e3d6000fd5b505050506040513d601f19601f820116820180604052508101906112099190615402565b115b1561133d576040516370a0823160e01b81526001600160a01b038681166004830152600091908516906370a0823190602401602060405180830381865afa15801561125a573d6000803e3d6000fd5b505050506040513d601f19601f8201168201806040525081019061127e9190615402565b6040516317ee7de960e11b81529091506001600160a01b03871690632fdcfbd2906112b190879030908690600401615459565b600060405180830381600087803b1580156112cb57600080fd5b505af11580156112df573d6000803e3d6000fd5b5050505060006112f085838961474c565b6040805180820182526003815260208082018d81526000858152602383528481209351845590516001909301929092558c8252600c81528282206001600160a01b038a1683529052205550505b505050600101610e32565b50505050565b7ff0c57e16840df040f15088dc2f81fe391c3923bec73e23a9662efc9c229c6a008054600160401b810460ff16159067ffffffffffffffff166000811580156113945750825b905060008267ffffffffffffffff1660011480156113b15750303b155b9050811580156113bf575080155b156113dd5760405163f92ee8a960e01b815260040160405180910390fd5b845467ffffffffffffffff19166001178555831561140757845460ff60401b1916600160401b1785555b8c600460006101000a8154816001600160a01b0302191690836001600160a01b031602179055508b600660006101000a8154816001600160a01b0302191690836001600160a01b031602179055508a600760006101000a8154816001600160a01b0302191690836001600160a01b0316021790555089600360006101000a8154816001600160a01b0302191690836001600160a01b0316021790555088600560006101000a8154816001600160a01b0302191690836001600160a01b0316021790555087600860006101000a8154816001600160a01b0302191690836001600160a01b0316021790555086600860146101000a81548160ff021916908360ff16021790555061151533614aea565b61151d614afb565b6008805460ff60a81b1916600560a91b179055600b805460ff1916871515179055831561158457845460ff60401b19168555604051600181527fc7f505b2f371ae2175ee4913f4499e1f2633a7b5936321eed1cdaeb6115181d29060200160405180910390a15b50505050505050505050505050565b60006001600a60008282546115a891906153ef565b925050819055506000306040516115be9061503a565b6001600160a01b039091168152602001604051809103906000f0801580156115ea573d6000803e3d6000fd5b50600a8054600090815260196020908152604080832080546001600160a01b0319166001600160a01b0387811691909117909155935483526022825280832088905560035481516318160ddd60e01b81529151959650929492909316926318160ddd92600480830193928290030181865afa15801561166d573d6000803e3d6000fd5b505050506040513d601f19601f820116820180604052508101906116919190615402565b6116a385670de0b6b3a764000061547d565b6116ad91906154aa565b600354604051632770a7eb60e21b8152336004820152602481018790529192506001600160a01b031690639dc29fac90604401600060405180830381600087803b1580156116fa57600080fd5b505af115801561170e573d6000803e3d6000fd5b5050600a5460009081526002602052604081208790559150505b60048054604080516329fea19960e11b815290516001600160a01b03909216926353fd43329282820192602092908290030181865afa15801561176f573d6000803e3d6000fd5b505050506040513d601f19601f820116820180604052508101906117939190615402565b811015611bff576004805460405163264cae9360e21b81529182018390526000916001600160a01b0390911690639932ba4c90602401602060405180830381865afa1580156117e6573d6000803e3d6000fd5b505050506040513d601f19601f8201168201806040525081019061180a919061541b565b6004805460405162493aaf60e51b81526001600160a01b0380851693820193909352929350600092670de0b6b3a7640000929091169063092755e090602401602060405180830381865afa158015611866573d6000803e3d6000fd5b505050506040513d601f19601f8201168201806040525081019061188a919061541b565b6005546040516370a0823160e01b81526001600160a01b0391821660048201529116906370a0823190602401602060405180830381865afa1580156118d3573d6000803e3d6000fd5b505050506040513d601f19601f820116820180604052508101906118f79190615402565b611901908661547d565b61190b91906154aa565b9050600061191a83838861474c565b60408051808201825260028152600a805460208084019182526000868152602382528581209451855591516001909401939093556011835283812087905581548152600f83528381206001600160a01b0389811680845291855285832087905592548252601790935283812080546001600160a01b0319163317905560048054945162493aaf60e51b815290810193909352939450919091169063092755e090602401602060405180830381865afa1580156119da573d6000803e3d6000fd5b505050506040513d601f19601f820116820180604052508101906119fe919061541b565b6005546040516370a0823160e01b81526001600160a01b0391821660048201529116906370a0823190602401602060405180830381865afa158015611a47573d6000803e3d6000fd5b505050506040513d601f19601f82011682018060405250810190611a6b9190615402565b6004805460405162493aaf60e51b81526001600160a01b038881169382019390935292935060009291169063092755e090602401602060405180830381865afa158015611abc573d6000803e3d6000fd5b505050506040513d601f19601f82011682018060405250810190611ae0919061541b565b6001600160a01b0316634cdad506836040518263ffffffff1660e01b8152600401611b0d91815260200190565b602060405180830381865afa158015611b2a573d6000803e3d6000fd5b505050506040513d601f19601f82011682018060405250810190611b4e9190615402565b600a5460009081526013602090815260408083206001600160a01b03808b1685529083529281902084905560035481516318160ddd60e01b81529151949550909216926318160ddd9260048082019392918290030181865afa158015611bb8573d6000803e3d6000fd5b505050506040513d601f19601f82011682018060405250810190611bdc9190615402565b600a54600090815260156020526040902055505060019093019250611728915050565b50600a546008546040513392917f318a1eb196638838739aab2348b851e63485b8c41dacc90eaff499a0f14ce53391611c48916001600160a01b031690899060009042906154cc565b60405180910390a35050600a5492915050565b611c63614691565b600060245442611c7391906154f2565b9050600c603c611c8381846154aa565b611c8d91906154aa565b11611d005760405162461bcd60e51b815260206004820152603960248201527f596f752073686f756c642077616974206174206c6561737420313220686f757260448201527f7320616674657220746865206c617465737420757064617465000000000000006064820152608401610d13565b60648260ff1611158015611d18575060018260ff1610155b611d805760405162461bcd60e51b815260206004820152603360248201527f546865206e65774665652073686f756c64206265206265747765656e203120616044820152726e64203130302028302e303125202d2031252960681b6064820152608401610d13565b506008805460ff909216600160a81b0260ff60a81b1990921691909117905542602455565b6000611daf614691565b6001600160a01b038216611dfe5760405162461bcd60e51b8152602060048201526016602482015275696e76616c696420697373756572206164647265737360501b6044820152606401610d13565b50600780546001600160a01b0383166001600160a01b03199091161790556001919050565b600b5460009060ff1615611f83576004805460405163023712c360e21b81526001600160a01b0385811693820193909352600092909116906308dc4b0c90602401602060405180830381865afa158015611e81573d6000803e3d6000fd5b505050506040513d601f19601f82011682018060405250810190611ea5919061541b565b90506000816001600160a01b031663feaf968c6040518163ffffffff1660e01b815260040160a060405180830381865afa158015611ee7573d6000803e3d6000fd5b505050506040513d601f19601f82011682018060405250810190611f0b919061551f565b5050509150506000826001600160a01b031663313ce5676040518163ffffffff1660e01b8152600401602060405180830381865afa158015611f51573d6000803e3d6000fd5b505050506040513d601f19601f82011682018060405250810190611f75919061556f565b9050610cb682826012614b0b565b60075460085460405163a377cfbf60e01b81526001600160a01b0385811660048301529182166024820152600092919091169063a377cfbf906044016040805180830381865afa158015611fdb573d6000803e3d6000fd5b505050506040513d601f19601f82011682018060405250810190611fff919061558c565b519392505050565b6000806120138361418f565b9050600061202184836153ef565b6008546040516323b872dd60e01b81529192506001600160a01b0316906323b872dd9061205690339030908690600401615459565b6020604051808303816000875af1158015612075573d6000803e3d6000fd5b505050506040513d601f19601f8201168201806040525081019061209991906155fa565b5060085460065460405163095ea7b360e01b81526001600160a01b0391821660048201526024810184905291169063095ea7b3906044016020604051808303816000875af11580156120ef573d6000803e3d6000fd5b505050506040513d601f19601f8201168201806040525081019061211391906155fa565b5060016009600082825461212791906153ef565b9250508190555060003060405161213d9061503a565b6001600160a01b039091168152602001604051809103906000f080158015612169573d6000803e3d6000fd5b5060098054600090815260186020908152604080832080546001600160a01b0319166001600160a01b03871617905592548252602190529081208790559091505b60048054604080516329fea19960e11b815290516001600160a01b03909216926353fd43329282820192602092908290030181865afa1580156121f1573d6000803e3d6000fd5b505050506040513d601f19601f820116820180604052508101906122159190615402565b811015612626576004805460405163264cae9360e21b81529182018390526000916001600160a01b0390911690639932ba4c90602401602060405180830381865afa158015612268573d6000803e3d6000fd5b505050506040513d601f19601f8201168201806040525081019061228c919061541b565b60048054604051630be5271360e01b81526001600160a01b038085169382019390935292935060009268056bc75e2d631000009290911690630be5271390602401602060405180830381865afa1580156122ea573d6000803e3d6000fd5b505050506040513d601f19601f8201168201806040525081019061230e9190615402565b612318908a61547d565b61232291906154aa565b90506000612331838387614b4b565b604080518082018252600180825260098054602080850191825260008781526023825286812095518655915194909301939093556010825283832087905580548352600e82528383206001600160a01b03808a16855290835284842086905590548352601690915282822080546001600160a01b0319163317905560048054935162493aaf60e51b8152949550919392169163092755e0916123e4918891016001600160a01b0391909116815260200190565b602060405180830381865afa158015612401573d6000803e3d6000fd5b505050506040513d601f19601f82011682018060405250810190612425919061541b565b6005546040516370a0823160e01b81526001600160a01b0391821660048201529116906370a0823190602401602060405180830381865afa15801561246e573d6000803e3d6000fd5b505050506040513d601f19601f820116820180604052508101906124929190615402565b6004805460405162493aaf60e51b81526001600160a01b038881169382019390935292935060009291169063092755e090602401602060405180830381865afa1580156124e3573d6000803e3d6000fd5b505050506040513d601f19601f82011682018060405250810190612507919061541b565b6001600160a01b0316634cdad506836040518263ffffffff1660e01b815260040161253491815260200190565b602060405180830381865afa158015612551573d6000803e3d6000fd5b505050506040513d601f19601f820116820180604052508101906125759190615402565b60095460009081526012602090815260408083206001600160a01b03808b1685529083529281902084905560035481516318160ddd60e01b81529151949550909216926318160ddd9260048082019392918290030181865afa1580156125df573d6000803e3d6000fd5b505050506040513d601f19601f820116820180604052508101906126039190615402565b6009546000908152601460205260409020555050600190930192506121aa915050565b506009546008546040513392917fb564a60b4184bee9ffdc1c0fd0588a93c23e406438195eec9857050fece55c209161266f916001600160a01b0316908a9060009042906154cc565b60405180910390a350506009549392505050565b61268b614691565b610d506000614d21565b6000818152602360209081526040918290208251808401909352805480845260019182015492840192909252036126d7576126d3816020015161372c565b5050565b80516002036126ed576126d38160200151612916565b8051600303612703576126d38160200151612719565b80516004036126d3576126d38160200151612bb7565b6004805460405163631c838560e01b81529182018390526001600160a01b03169063631c838590602401602060405180830381865afa158015612760573d6000803e3d6000fd5b505050506040513d601f19601f8201168201806040525081019061278491906155fa565b6127d05760405162461bcd60e51b815260206004820181905260248201527f43616e63656c2069737375616e6365206973206e6f7420636f6d706c657465646044820152606401610d13565b6000818152601a602052604090205460ff16156127ff5760405162461bcd60e51b8152600401610d1390615617565b60008181526016602090815260408083205460189092528083205460085491516370a0823160e01b81526001600160a01b0391821660048201819052938216949291909116906370a0823190602401602060405180830381865afa15801561286b573d6000803e3d6000fd5b505050506040513d601f19601f8201168201806040525081019061288f9190615402565b6008546040516317ee7de960e11b81529192506001600160a01b0380851692632fdcfbd2926128c692169087908690600401615459565b600060405180830381600087803b1580156128e057600080fd5b505af11580156128f4573d6000803e3d6000fd5b50505060009485525050601a602052505060409020805460ff19166001179055565b60048054604051631fd6049160e11b81529182018390526001600160a01b031690633fac092290602401602060405180830381865afa15801561295d573d6000803e3d6000fd5b505050506040513d601f19601f8201168201806040525081019061298191906155fa565b6129d95760405162461bcd60e51b815260206004820152602360248201527f526564656d7074696f6e206f726465727320617265206e6f7420636f6d706c656044820152621d195960ea1b6064820152608401610d13565b60008181526001602052604090205460ff1615612a325760405162461bcd60e51b8152602060048201526017602482015276149959195b5c1d1a5bdb881a5cc818dbdb5c1b195d1959604a1b6044820152606401610d13565b60008181526017602090815260408083205460199092528083205460085491516370a0823160e01b81526001600160a01b0391821660048201819052938216949291909116906370a0823190602401602060405180830381865afa158015612a9e573d6000803e3d6000fd5b505050506040513d601f19601f82011682018060405250810190612ac29190615402565b6008546040516317ee7de960e11b81529192506001600160a01b0380851692632fdcfbd292612af992169087908690600401615459565b600060405180830381600087803b158015612b1357600080fd5b505af1158015612b27573d6000803e3d6000fd5b5050506000858152600160208181526040808420805460ff19169093179092556008546022909152918190205490516001600160a01b03878116945088937f1c5f6e901258d71ab0ecaa2fcf93176caa78dac41e03fe5dd7a0184727336d8a93612b99939290911691879042906154cc565b60405180910390a350505050565b612baf614691565b610d50614d92565b60048054604051635ac9331560e11b81529182018390526001600160a01b03169063b592662a90602401602060405180830381865afa158015612bfe573d6000803e3d6000fd5b505050506040513d601f19601f82011682018060405250810190612c2291906155fa565b612c795760405162461bcd60e51b815260206004820152602260248201527f43616e63656c20726564656d7074696f6e206973206e6f7420636f6d706c6574604482015261195960f21b6064820152608401610d13565b6000818152601b602052604090205460ff1615612ca85760405162461bcd60e51b8152600401610d1390615617565b60008181526017602090815260408083205460199092528083205460085491516370a0823160e01b81526001600160a01b0391821660048201819052938216949291909116906370a0823190602401602060405180830381865afa158015612d14573d6000803e3d6000fd5b505050506040513d601f19601f82011682018060405250810190612d389190615402565b905060005b60048054604080516329fea19960e11b815290516001600160a01b03909216926353fd43329282820192602092908290030181865afa158015612d84573d6000803e3d6000fd5b505050506040513d601f19601f82011682018060405250810190612da89190615402565b811015612f08576004805460405163264cae9360e21b81529182018390526000916001600160a01b0390911690639932ba4c90602401602060405180830381865afa158015612dfb573d6000803e3d6000fd5b505050506040513d601f19601f82011682018060405250810190612e1f919061541b565b6040516370a0823160e01b81526001600160a01b0386811660048301529192506000918316906370a0823190602401602060405180830381865afa158015612e6b573d6000803e3d6000fd5b505050506040513d601f19601f82011682018060405250810190612e8f9190615402565b90508015612efe576005546040516317ee7de960e11b81526001600160a01b0380881692632fdcfbd292612ecb92879216908690600401615459565b600060405180830381600087803b158015612ee557600080fd5b505af1158015612ef9573d6000803e3d6000fd5b505050505b5050600101612d3d565b50600354600085815260026020526040908190205490516340c10f1960e01b81526001600160a01b03868116600483015260248201929092529116906340c10f1990604401600060405180830381600087803b158015612f6757600080fd5b505af1158015612f7b573d6000803e3d6000fd5b50505060009485525050601b602052505060409020805460ff19166001179055565b60008181526001602052604090205460ff1615612ff65760405162461bcd60e51b8152602060048201526017602482015276149959195b5c1d1a5bdb881a5cc818dbdb5c1b195d1959604a1b6044820152606401610d13565b6000818152601760209081526040808320546019909252909120546001600160a01b03918216911633821461307e5760405162461bcd60e51b815260206004820152602860248201527f4f6e6c79207265717565737465722063616e2063616e63656c207468652072656044820152673232b6b83a34b7b760c11b6064820152608401610d13565b60005b60048054604080516329fea19960e11b815290516001600160a01b03909216926353fd43329282820192602092908290030181865afa1580156130c8573d6000803e3d6000fd5b505050506040513d601f19601f820116820180604052508101906130ec9190615402565b811015611348576004805460405163264cae9360e21b81529182018390526000916001600160a01b0390911690639932ba4c90602401602060405180830381865afa15801561313f573d6000803e3d6000fd5b505050506040513d601f19601f82011682018060405250810190613163919061541b565b6000868152600f602090815260408083206001600160a01b03808616855290835281842054808552601c8452828520835161014081018552815467ffffffffffffffff81168252600160401b90048416958101959095526001808201548416948601949094526002810154928316606086015260ff600160a01b84048116151560808701529697509095909260a0850192600160a81b90049091169081111561320e5761320e615108565b600181111561321f5761321f615108565b815260038281015460208301526004830154604083015260058301546060830152600683015460809092019160ff169081111561325e5761325e615108565b600381111561326f5761326f615108565b90525060075460405163187b2ed160e21b8152600481018590529192506000916001600160a01b03909116906361ecbb4490602401602060405180830381865afa1580156132c1573d6000803e3d6000fd5b505050506040513d601f19601f820116820180604052508101906132e59190615402565b6007546040516322fd455760e11b8152600481018690529192506002916001600160a01b03909116906345fa8aae90602401602060405180830381865afa158015613334573d6000803e3d6000fd5b505050506040513d601f19601f820116820180604052508101906133589190615438565b600381111561336957613369615108565b60ff1614806133785750600081115b156134ba576008546040516317ee7de960e11b81526001600160a01b0388811692632fdcfbd2926133b3929091169030908690600401615459565b600060405180830381600087803b1580156133cd57600080fd5b505af11580156133e1573d6000803e3d6000fd5b505060085460065460405163095ea7b360e01b81526001600160a01b039182166004820152602481018690529116925063095ea7b391506044016020604051808303816000875af115801561343a573d6000803e3d6000fd5b505050506040513d601f19601f8201168201806040525081019061345e91906155fa565b50600061346c858389614b4b565b6040805180820182526004815260208082018d815260009485526023825283852092518355516001909201919091558b8352600d81528183206001600160a01b038916845290529020849055505b5050600190920191506130819050565b6004805460405162493aaf60e51b81526001600160a01b03848116938201939093526000928392169063092755e090602401602060405180830381865afa158015613519573d6000803e3d6000fd5b505050506040513d601f19601f8201168201806040525081019061353d919061541b565b6005546040516370a0823160e01b81526001600160a01b039182166004820152919250600091908316906370a0823190602401602060405180830381865afa15801561358d573d6000803e3d6000fd5b505050506040513d601f19601f820116820180604052508101906135b19190615402565b60405163266d6a8360e11b8152600481018290529091506001600160a01b03831690634cdad50690602401602060405180830381865afa1580156135f9573d6000803e3d6000fd5b505050506040513d601f19601f8201168201806040525081019061361d9190615402565b949350505050565b60008060005b60048054604080516329fea19960e11b815290516001600160a01b03909216926353fd43329282820192602092908290030181865afa158015613672573d6000803e3d6000fd5b505050506040513d601f19601f820116820180604052508101906136969190615402565b811015613726576004805460405163264cae9360e21b815291820183905260009161370f916001600160a01b031690639932ba4c90602401602060405180830381865afa1580156136eb573d6000803e3d6000fd5b505050506040513d601f19601f82011682018060405250810190610b83919061541b565b905061371b81846153ef565b92505060010161362b565b50919050565b600480546040516308d0eb2d60e21b81529182018390526001600160a01b031690632343acb490602401602060405180830381865afa158015613773573d6000803e3d6000fd5b505050506040513d601f19601f8201168201806040525081019061379791906155fa565b6137e35760405162461bcd60e51b815260206004820152601860248201527f4f726465727320617265206e6f7420636f6d706c6574656400000000000000006044820152606401610d13565b60008181526020819052604090205460ff161561383a5760405162461bcd60e51b8152602060048201526015602482015274125cdcdd585b98d9481a5cc818dbdb5c1b195d1959605a1b6044820152606401610d13565b6000818152601660205260408120546001600160a01b03169080805b60048054604080516329fea19960e11b815290516001600160a01b03909216926353fd43329282820192602092908290030181865afa15801561389d573d6000803e3d6000fd5b505050506040513d601f19601f820116820180604052508101906138c19190615402565b811015613cfe576004805460405163264cae9360e21b81529182018390526000916001600160a01b0390911690639932ba4c90602401602060405180830381865afa158015613914573d6000803e3d6000fd5b505050506040513d601f19601f82011682018060405250810190613938919061541b565b6000878152600e602090815260408083206001600160a01b038581168086529190935281842054600754600854935163a377cfbf60e01b81526004810193909352928416602483015294955091169063a377cfbf906044016040805180830381865afa1580156139ac573d6000803e3d6000fd5b505050506040513d601f19601f820116820180604052508101906139d0919061558c565b6000898152601860205260408082205490516370a0823160e01b81526001600160a01b0391821660048201819052939450908616906370a0823190602401602060405180830381865afa158015613a2b573d6000803e3d6000fd5b505050506040513d601f19601f82011682018060405250810190613a4f9190615402565b60008b81526012602090815260408083206001600160a01b038a168452909152812054855192935091613a82908361547d565b60008781526010602052604081205491925090613a9f90836153ef565b9050613aab828c6153ef565b9a50613ab7818b6153ef565b6040516317ee7de960e11b8152909a506001600160a01b03861690632fdcfbd290613aea908b9030908990600401615459565b600060405180830381600087803b158015613b0457600080fd5b505af1158015613b18573d6000803e3d6000fd5b50506004805460405162493aaf60e51b81526001600160a01b038d811693820184905292945063095ea7b3935091169063092755e090602401602060405180830381865afa158015613b6e573d6000803e3d6000fd5b505050506040513d601f19601f82011682018060405250810190613b92919061541b565b6040516001600160e01b031960e084901b1681526001600160a01b039091166004820152602481018790526044016020604051808303816000875af1158015613bdf573d6000803e3d6000fd5b505050506040513d601f19601f82011682018060405250810190613c0391906155fa565b506004805460405162493aaf60e51b81526001600160a01b038b81169382019390935291169063092755e090602401602060405180830381865afa158015613c4f573d6000803e3d6000fd5b505050506040513d601f19601f82011682018060405250810190613c73919061541b565b600554604051636e553f6560e01b8152600481018790526001600160a01b039182166024820152911690636e553f65906044016020604051808303816000875af1158015613cc5573d6000803e3d6000fd5b505050506040513d601f19601f82011682018060405250810190613ce99190615402565b50506001909701965061385695505050505050565b50600084815260146020526040902054801580613d19575082155b15613df7576000613d2b83606461547d565b6003546040516340c10f1960e01b81526001600160a01b038881166004830152602482018490529293509116906340c10f1990604401600060405180830381600087803b158015613d7b57600080fd5b505af1158015613d8f573d6000803e3d6000fd5b5050600854600089815260216020526040908190205490516001600160a01b03808b1695508b94507f9b1c699e1cb709130ee00509d8f84a4fb33702e634298480371d27d66f6cd8c693613de993911691879042906154cc565b60405180910390a350613ee5565b600083613e04848461547d565b613e0e91906154aa565b90506000613e1c83836154f2565b6003546040516340c10f1960e01b81526001600160a01b038981166004830152602482018490529293509116906340c10f1990604401600060405180830381600087803b158015613e6c57600080fd5b505af1158015613e80573d6000803e3d6000fd5b505060085460008a815260216020526040908190205490516001600160a01b03808c1695508c94507f9b1c699e1cb709130ee00509d8f84a4fb33702e634298480371d27d66f6cd8c693613eda93911691879042906154cc565b60405180910390a350505b50506009546000908152602081905260409020805460ff19166001179055505050565b600080613f13613625565b90506000600360009054906101000a90046001600160a01b03166001600160a01b03166318160ddd6040518163ffffffff1660e01b8152600401602060405180830381865afa158015613f6a573d6000803e3d6000fd5b505050506040513d601f19601f82011682018060405250810190613f8e9190615402565b9050600082613f9d838761547d565b610cb691906154aa565b6000613fb1614691565b6001600160a01b0382166140075760405162461bcd60e51b815260206004820152601f60248201527f696e76616c696420666163746f72792073746f726167652061646472657373006044820152606401610d13565b50600480546001600160a01b0383166001600160a01b03199091161790556001919050565b60008181526023602090815260408083208151808301909252805480835260019182015493830193909352909190036140d5576004805460208301516040516308d0eb2d60e21b8152928301526001600160a01b031690632343acb4906024015b602060405180830381865afa1580156140aa573d6000803e3d6000fd5b505050506040513d601f19601f820116820180604052508101906140ce91906155fa565b9392505050565b805160020361411057600480546020830151604051631fd6049160e11b8152928301526001600160a01b031690633fac09229060240161408d565b805160030361414b5760048054602083015160405163631c838560e01b8152928301526001600160a01b03169063631c83859060240161408d565b805160040361418657600480546020830151604051635ac9331560e11b8152928301526001600160a01b03169063b592662a9060240161408d565b50600092915050565b60008060005b60048054604080516329fea19960e11b815290516001600160a01b03909216926353fd43329282820192602092908290030181865afa1580156141dc573d6000803e3d6000fd5b505050506040513d601f19601f820116820180604052508101906142009190615402565b8110156143c5576004805460405163264cae9360e21b81529182018390526000916001600160a01b0390911690639932ba4c90602401602060405180830381865afa158015614253573d6000803e3d6000fd5b505050506040513d601f19601f82011682018060405250810190614277919061541b565b60048054604051630be5271360e01b81526001600160a01b038085169382019390935292935060009268056bc75e2d631000009290911690630be5271390602401602060405180830381865afa1580156142d5573d6000803e3d6000fd5b505050506040513d601f19601f820116820180604052508101906142f99190615402565b614303908861547d565b61430d91906154aa565b6007546008546040516308da5c3560e21b81526000600482018190526001600160a01b0392831660248301529394508392919091169063236970d4906044016040805180830381865afa158015614368573d6000803e3d6000fd5b505050506040513d601f19601f8201168201806040525081019061438c91906153ac565b91509150600061439c8285614668565b6143a690846153ef565b90506143b281886153ef565b9650506001909401935061419592505050565b5092915050565b6000806143d7613625565b90506000600360009054906101000a90046001600160a01b03166001600160a01b03166318160ddd6040518163ffffffff1660e01b8152600401602060405180830381865afa15801561442e573d6000803e3d6000fd5b505050506040513d601f19601f820116820180604052508101906144529190615402565b9050600081613f9d848761547d565b600061446b614691565b6001600160a01b0383166144b95760405162461bcd60e51b8152602060048201526015602482015274696e76616c696420746f6b656e206164647265737360581b6044820152606401610d13565b506008805460ff8316600160a01b026001600160a81b03199091166001600160a01b0385161717905560015b92915050565b6000806144f783611e23565b90506000614504846134ca565b9050670de0b6b3a7640000614519838361547d565b61361d91906154aa565b61452b615047565b6000828152601c6020908152604091829020825161014081018452815467ffffffffffffffff811682526001600160a01b03600160401b9091048116938201939093526001808301548416948201949094526002820154928316606082015260ff600160a01b84048116151560808301529093919260a0850192600160a81b909104909116908111156145c0576145c0615108565b60018111156145d1576145d1615108565b815260038281015460208301526004830154604083015260058301546060830152600683015460809092019160ff169081111561461057614610615108565b600381111561462157614621615108565b90525092915050565b614632614691565b6001600160a01b03811661465c57604051631e4fbdf760e01b815260006004820152602401610d13565b61466581614d21565b50565b60008262ffffff1660000361467e5760006140ce565b6140ce8262ffffff8516620f4240614ddb565b336146c37f9016d09d72d40fdae2fd8ceac6b6234c7706214fd39c1cd1e609a0528c199300546001600160a01b031690565b6001600160a01b031614610d505760405163118cdaa760e01b8152336004820152602401610d13565b6146f4614eaf565b600080516020615acb833981519152805460ff191681557f5db9ee0a495bf2e6ff9c91a7834c1ba4fdd244a5e8aa4e537bd38aeae4b073aa335b6040516001600160a01b03909116815260200160405180910390a150565b6004805460405162493aaf60e51b81526001600160a01b03868116938201939093526000928392169063092755e090602401602060405180830381865afa15801561479b573d6000803e3d6000fd5b505050506040513d601f19601f820116820180604052508101906147bf919061541b565b600554604051631c20fadd60e01b81529192506001600160a01b031690631c20fadd906147f490849030908990600401615459565b600060405180830381600087803b15801561480e57600080fd5b505af1158015614822573d6000803e3d6000fd5b5050604051635d043b2960e11b81526004810187905230602482018190526044820152600092506001600160a01b038416915063ba087652906064016020604051808303816000875af115801561487d573d6000803e3d6000fd5b505050506040513d601f19601f820116820180604052508101906148a19190615402565b905060006148af6001614edf565b6001600160a01b03888116604083810182905260c084018690528883166020850152600654905163095ea7b360e01b8152921660048301526024820185905291925063095ea7b3906044016020604051808303816000875af1158015614919573d6000803e3d6000fd5b505050506040513d601f19601f8201168201806040525081019061493d91906155fa565b50600654604051635d41120560e01b81526001600160a01b0389811660048301526024820185905287811660448301526000921690635d411205906064016020604051808303816000875af115801561499a573d6000803e3d6000fd5b505050506040513d601f19601f820116820180604052508101906149be9190615402565b6000818152601c6020908152604091829020855181549287015167ffffffffffffffff9091166001600160e01b031990931692909217600160401b6001600160a01b039384160217815591850151600180840180546001600160a01b0319169284169290921790915560608601516002840180546080890151929094166001600160a81b031990941693909317600160a01b911515919091021780835560a08701519495508694929160ff60a81b1990911690600160a81b908490811115614a8857614a88615108565b021790555060c0820151816003015560e0820151816004015561010082015181600501556101208201518160060160006101000a81548160ff02191690836003811115614ad757614ad7615108565b0217905550919998505050505050505050565b614af2614f97565b61466581614fe0565b614b03614f97565b610d50614fe8565b60008260ff168260ff161115614b4157614b25838361565c565b614b3090600a615759565b614b3a9085615768565b90506140ce565b614b25828461565c565b600080614b586000614edf565b6001600160a01b0384811660208301819052878216604080850182905260e085018990526006549051631e07ecd760e11b81526004810192909252602482018990526044820192909252929350600092911690633c0fd9ae906064016020604051808303816000875af1158015614bd3573d6000803e3d6000fd5b505050506040513d601f19601f82011682018060405250810190614bf79190615402565b6000818152601c6020908152604091829020855181549287015167ffffffffffffffff9091166001600160e01b031990931692909217600160401b6001600160a01b039384160217815591850151600180840180546001600160a01b0319169284169290921790915560608601516002840180546080890151929094166001600160a81b031990941693909317600160a01b911515919091021780835560a08701519495508694929160ff60a81b1990911690600160a81b908490811115614cc157614cc1615108565b021790555060c0820151816003015560e0820151816004015561010082015181600501556101208201518160060160006101000a81548160ff02191690836003811115614d1057614d10615108565b021790555091979650505050505050565b7f9016d09d72d40fdae2fd8ceac6b6234c7706214fd39c1cd1e609a0528c19930080546001600160a01b031981166001600160a01b03848116918217845560405192169182907f8be0079c531659141344cd1fd0a4f28419497f9722a3daafe3b4186f6b6457e090600090a3505050565b614d9a615009565b600080516020615acb833981519152805460ff191660011781557f62e78cea01bee320cd4e420270b5ea74000d11b0c9f74754ebdbfc544b05a2583361472e565b6000808060001985870985870292508281108382030391505080600003614e1557838281614e0b57614e0b615494565b04925050506140ce565b838110614e4657604051630c740aef60e31b8152600481018790526024810186905260448101859052606401610d13565b60008486880960026001871981018816978890046003810283188082028403028082028403028082028403028082028403028082028403029081029092039091026000889003889004909101858311909403939093029303949094049190911702949350505050565b600080516020615acb8339815191525460ff16610d5057604051638dfc202b60e01b815260040160405180910390fd5b614ee7615047565b604080516101408101825267ffffffffffffffff421681523060208201526003546001600160a01b03908116928201929092526008549091166060820152821515608082015260a081016000815260200183614f44576000614f4f565b68056bc75e2d631000005b68ffffffffffffffffff16815260200183614f735768056bc75e2d63100000614f76565b60005b68ffffffffffffffffff168152600060208201526040016001905292915050565b7ff0c57e16840df040f15088dc2f81fe391c3923bec73e23a9662efc9c229c6a0054600160401b900460ff16610d5057604051631afcd79f60e31b815260040160405180910390fd5b614632614f97565b614ff0614f97565b600080516020615acb833981519152805460ff19169055565b600080516020615acb8339815191525460ff1615610d505760405163d93c066560e01b815260040160405180910390fd5b6103328061579983390190565b604080516101408101825260008082526020820181905291810182905260608101829052608081018290529060a08201908152602001600081526020016000815260200160008152602001600060038111156150a5576150a5615108565b905290565b6001600160a01b038116811461466557600080fd5b600080604083850312156150d257600080fd5b8235915060208301356150e4816150aa565b809150509250929050565b60006020828403121561510157600080fd5b5035919050565b634e487b7160e01b600052602160045260246000fd5b6002811061512e5761512e615108565b9052565b6004811061512e5761512e615108565b67ffffffffffffffff8b1681526001600160a01b038a811660208301528981166040830152881660608201528615156080820152610140810161518860a083018861511e565b8560c08301528460e0830152836101008301526151a9610120830184615132565b9b9a5050505050505050505050565b6000602082840312156151ca57600080fd5b81356140ce816150aa565b60ff8116811461466557600080fd5b801515811461466557600080fd5b600080600080600080600080610100898b03121561520f57600080fd5b883561521a816150aa565b9750602089013561522a816150aa565b9650604089013561523a816150aa565b9550606089013561524a816150aa565b9450608089013561525a816150aa565b935060a089013561526a816150aa565b925060c089013561527a816151d5565b915060e089013561528a816151e4565b809150509295985092959890939650565b6000602082840312156152ad57600080fd5b81356140ce816151d5565b600080604083850312156152cb57600080fd5b82356152d6816150aa565b915060208301356150e4816151d5565b815167ffffffffffffffff1681526101408101602083015161531360208401826001600160a01b03169052565b50604083015161532e60408401826001600160a01b03169052565b50606083015161534960608401826001600160a01b03169052565b50608083015161535d608084018215159052565b5060a083015161537060a084018261511e565b5060c083015160c083015260e083015160e0830152610100808401518184015250610120808401516153a482850182615132565b505092915050565b600080604083850312156153bf57600080fd5b82519150602083015162ffffff811681146150e457600080fd5b634e487b7160e01b600052601160045260246000fd5b808201808211156144e5576144e56153d9565b60006020828403121561541457600080fd5b5051919050565b60006020828403121561542d57600080fd5b81516140ce816150aa565b60006020828403121561544a57600080fd5b8151600481106140ce57600080fd5b6001600160a01b039384168152919092166020820152604081019190915260600190565b80820281158282048414176144e5576144e56153d9565b634e487b7160e01b600052601260045260246000fd5b6000826154c757634e487b7160e01b600052601260045260246000fd5b500490565b6001600160a01b0394909416845260208401929092526040830152606082015260800190565b818103818111156144e5576144e56153d9565b805169ffffffffffffffffffff81168114610d3b57600080fd5b600080600080600060a0868803121561553757600080fd5b61554086615505565b945060208601519350604086015192506060860151915061556360808701615505565b90509295509295909350565b60006020828403121561558157600080fd5b81516140ce816151d5565b60006040828403121561559e57600080fd5b6040516040810167ffffffffffffffff82821081831117156155d057634e487b7160e01b600052604160045260246000fd5b81604052845183526020850151915080821682146155ed57600080fd5b5060208201529392505050565b60006020828403121561560c57600080fd5b81516140ce816151e4565b60208082526025908201527f5468652070726f6365737320686173206265656e20636f6d706c65746564206260408201526465666f726560d81b606082015260800190565b60ff82811682821603908111156144e5576144e56153d9565b600181815b808511156156b0578160001904821115615696576156966153d9565b808516156156a357918102915b93841c939080029061567a565b509250929050565b6000826156c7575060016144e5565b816156d4575060006144e5565b81600181146156ea57600281146156f457615710565b60019150506144e5565b60ff841115615705576157056153d9565b50506001821b6144e5565b5060208310610133831016604e8410600b8410161715615733575081810a6144e5565b61573d8383615675565b8060001904821115615751576157516153d9565b029392505050565b60006140ce60ff8416836156b8565b80820260008212600160ff1b84141615615784576157846153d9565b81810583148215176144e5576144e56153d956fe6080604052348015600f57600080fd5b50604051610332380380610332833981016040819052602c916050565b600080546001600160a01b0319166001600160a01b0392909216919091179055607e565b600060208284031215606157600080fd5b81516001600160a01b0381168114607757600080fd5b9392505050565b6102a58061008d6000396000f3fe608060405234801561001057600080fd5b50600436106100415760003560e01c806313af4035146100465780632fdcfbd21461005b5780638da5cb5b1461006e575b600080fd5b6100596100543660046101ef565b61009d565b005b610059610069366004610211565b61010f565b600054610081906001600160a01b031681565b6040516001600160a01b03909116815260200160405180910390f35b6000546001600160a01b031633146100ed5760405162461bcd60e51b815260206004820152600e60248201526d139bdd08185d5d1a1bdc9a5e995960921b60448201526064015b60405180910390fd5b600080546001600160a01b0319166001600160a01b0392909216919091179055565b6000546001600160a01b0316331461015a5760405162461bcd60e51b815260206004820152600e60248201526d139bdd08185d5d1a1bdc9a5e995960921b60448201526064016100e4565b60405163a9059cbb60e01b81526001600160a01b0383811660048301526024820183905284169063a9059cbb906044016020604051808303816000875af11580156101a9573d6000803e3d6000fd5b505050506040513d601f19601f820116820180604052508101906101cd919061024d565b50505050565b80356001600160a01b03811681146101ea57600080fd5b919050565b60006020828403121561020157600080fd5b61020a826101d3565b9392505050565b60008060006060848603121561022657600080fd5b61022f846101d3565b925061023d602085016101d3565b9150604084013590509250925092565b60006020828403121561025f57600080fd5b8151801515811461020a57600080fdfea2646970667358221220502fe3cef5472467ba27d3f0af8cc13ea970369ac0d01284025186802306355064736f6c63430008190033cd5ed15c6e187e77e9aee88184c21f4f2182ab5827cb3b7e07fbedcd63f03300a264697066735822122070dce7aa4d22b94afd7333534c5cdad90803076090c1d8e23cea31e22518b29664736f6c63430008190033","linkReferences":{}},"methodIdentifiers":{"actionInfoById(uint256)":"3c1f70ca","burnedTokenAmountByNonce(uint256)":"ab7820b2","buyRequestPayedAmountById(uint256)":"8861d235","calculateBuyRequestFee(uint256)":"06995e3b","calculateIssuanceFee(uint256)":"e19eefbe","cancelIssuance(uint256)":"46d66a2c","cancelIssuanceComplted(uint256)":"7bfa27f2","cancelIssuanceRequestId(uint256,address)":"02e80f71","cancelRedemption(uint256)":"9219e510","cancelRedemptionComplted(uint256)":"b46840f9","cancelRedemptionRequestId(uint256,address)":"8c221899","checkMultical(uint256)":"e16e554a","coaByIssuanceNonce(uint256)":"31c99010","coaByRedemptionNonce(uint256)":"b75f4c2c","completeCancelIssuance(uint256)":"807ca237","completeCancelRedemption(uint256)":"9026544f","completeIssuance(uint256)":"bed45bef","completeRedemption(uint256)":"840ecba0","factoryStorage()":"c06e1ae2","feeRate()":"978bbdb9","getActionType(uint256)":"3aeff059","getIssuanceAmountOut(uint256)":"c8da3303","getOrderInstanceById(uint256)":"f1f31d66","getPortfolioValue()":"bb0498de","getRedemptionAmountOut(uint256)":"e2851bd6","getVaultDshareBalance(address)":"a08d7bd6","getVaultDshareValue(address)":"efdf5053","initialize(address,address,address,address,address,address,uint8,bool)":"48f6e87b","isMainnet()":"42faac05","issuanceIndexTokenPrimaryTotalSupply(uint256)":"b1dd819e","issuanceIndexTokens(uint256)":"6e320408","issuanceInputAmount(uint256)":"cf9ee319","issuanceIsCompleted(uint256)":"a84ebc17","issuanceNonce()":"9dbb9c9e","issuanceRequestId(uint256,address)":"264fa8b9","issuanceRequesterByNonce(uint256)":"94674098","issuanceTokenPrimaryBalance(uint256,address)":"da65925a","issuer()":"1d143848","latestFeeUpdate()":"011ced5f","multical(uint256)":"73b774ed","orderInstanceById(uint256)":"15e666a2","orderManager()":"f9b6117f","owner()":"8da5cb5b","pause()":"8456cb59","paused()":"5c975abb","portfolioValueByNonce(uint256)":"2badae5d","priceInWei(address)":"6839a095","redemption(uint256)":"4a1dc092","redemptionIndexTokenPrimaryTotalSupply(uint256)":"daf1c17d","redemptionInputAmount(uint256)":"9cf54521","redemptionIsCompleted(uint256)":"76529fdf","redemptionNonce()":"84d77bb1","redemptionRequestId(uint256,address)":"f513a718","redemptionRequesterByNonce(uint256)":"78032658","redemptionTokenPrimaryBalance(uint256,address)":"a363b9cb","renounceOwnership()":"715018a6","sellRequestAssetAmountById(uint256)":"a87f98d2","setFeeRate(uint8)":"5177942a","setIndexFactoryStorage(address)":"cc8659ae","setIssuer(address)":"55cc4e57","setTokenAddress(address)":"26a4e8d2","setUsdcAddress(address,uint8)":"eab2a711","token()":"fc0c546a","tokenShortagePercentByNonce(uint256,address)":"db5c1a12","tokenValueByNonce(uint256,address)":"b316e7fd","totalShortagePercentByNonce(uint256)":"2ca49334","transferOwnership(address)":"f2fde38b","unpause()":"3f4ba83a","usdc()":"3e413bee","usdcDecimals()":"7bf42165","vault()":"fbfa77cf"},"id":16}