{
  "abi": [
    {
      "inputs": [],
      "name": "EnforcedPause",
      "type": "error"
    },
    {
      "inputs": [],
      "name": "ExpectedPause",
      "type": "error"
    },
    {
      "inputs": [],
      "name": "InvalidInitialization",
      "type": "error"
    },
    {
      "inputs": [],
      "name": "NotInitializing",
      "type": "error"
    },
    {
      "inputs": [
        {
          "internalType": "address",
          "name": "owner",
          "type": "address"
        }
      ],
      "name": "OwnableInvalidOwner",
      "type": "error"
    },
    {
      "inputs": [
        {
          "internalType": "address",
          "name": "account",
          "type": "address"
        }
      ],
      "name": "OwnableUnauthorizedAccount",
      "type": "error"
    },
    {
      "inputs": [
        {
          "internalType": "uint256",
          "name": "x",
          "type": "uint256"
        },
        {
          "internalType": "uint256",
          "name": "y",
          "type": "uint256"
        },
        {
          "internalType": "uint256",
          "name": "denominator",
          "type": "uint256"
        }
      ],
      "name": "PRBMath_MulDiv_Overflow",
      "type": "error"
    },
    {
      "anonymous": false,
      "inputs": [
        {
          "indexed": true,
          "internalType": "bytes32",
          "name": "id",
          "type": "bytes32"
        }
      ],
      "name": "ChainlinkCancelled",
      "type": "event"
    },
    {
      "anonymous": false,
      "inputs": [
        {
          "indexed": true,
          "internalType": "bytes32",
          "name": "id",
          "type": "bytes32"
        }
      ],
      "name": "ChainlinkFulfilled",
      "type": "event"
    },
    {
      "anonymous": false,
      "inputs": [
        {
          "indexed": true,
          "internalType": "bytes32",
          "name": "id",
          "type": "bytes32"
        }
      ],
      "name": "ChainlinkRequested",
      "type": "event"
    },
    {
      "anonymous": false,
      "inputs": [
        {
          "indexed": false,
          "internalType": "uint64",
          "name": "version",
          "type": "uint64"
        }
      ],
      "name": "Initialized",
      "type": "event"
    },
    {
      "anonymous": false,
      "inputs": [
        {
          "indexed": true,
          "internalType": "address",
          "name": "previousOwner",
          "type": "address"
        },
        {
          "indexed": true,
          "internalType": "address",
          "name": "newOwner",
          "type": "address"
        }
      ],
      "name": "OwnershipTransferred",
      "type": "event"
    },
    {
      "anonymous": false,
      "inputs": [
        {
          "indexed": false,
          "internalType": "address",
          "name": "account",
          "type": "address"
        }
      ],
      "name": "Paused",
      "type": "event"
    },
    {
      "anonymous": false,
      "inputs": [
        {
          "indexed": false,
          "internalType": "address",
          "name": "account",
          "type": "address"
        }
      ],
      "name": "Unpaused",
      "type": "event"
    },
    {
      "inputs": [
        {
          "internalType": "uint256",
          "name": "",
          "type": "uint256"
        }
      ],
      "name": "buyRequestPayedAmountById",
      "outputs": [
        {
          "internalType": "uint256",
          "name": "",
          "type": "uint256"
        }
      ],
      "stateMutability": "view",
      "type": "function"
    },
    {
      "inputs": [
        {
          "internalType": "uint256",
          "name": "_issuanceNonce",
          "type": "uint256"
        }
      ],
      "name": "checkIssuance",
      "outputs": [
        {
          "internalType": "bool",
          "name": "",
          "type": "bool"
        }
      ],
      "stateMutability": "view",
      "type": "function"
    },
    {
      "inputs": [
        {
          "internalType": "uint256",
          "name": "issuanceNonce",
          "type": "uint256"
        }
      ],
      "name": "completeIssuance",
      "outputs": [],
      "stateMutability": "nonpayable",
      "type": "function"
    },
    {
      "inputs": [
        {
          "internalType": "string",
          "name": "a",
          "type": "string"
        },
        {
          "internalType": "string",
          "name": "b",
          "type": "string"
        }
      ],
      "name": "concatenation",
      "outputs": [
        {
          "internalType": "string",
          "name": "",
          "type": "string"
        }
      ],
      "stateMutability": "pure",
      "type": "function"
    },
    {
      "inputs": [
        {
          "internalType": "uint256",
          "name": "",
          "type": "uint256"
        }
      ],
      "name": "currentList",
      "outputs": [
        {
          "internalType": "address",
          "name": "",
          "type": "address"
        }
      ],
      "stateMutability": "view",
      "type": "function"
    },
    {
      "inputs": [],
      "name": "custodianWallet",
      "outputs": [
        {
          "internalType": "address",
          "name": "",
          "type": "address"
        }
      ],
      "stateMutability": "view",
      "type": "function"
    },
    {
      "inputs": [],
      "name": "externalJobId",
      "outputs": [
        {
          "internalType": "bytes32",
          "name": "",
          "type": "bytes32"
        }
      ],
      "stateMutability": "view",
      "type": "function"
    },
    {
      "inputs": [],
      "name": "feeRate",
      "outputs": [
        {
          "internalType": "uint8",
          "name": "",
          "type": "uint8"
        }
      ],
      "stateMutability": "view",
      "type": "function"
    },
    {
      "inputs": [
        {
          "internalType": "bytes32",
          "name": "requestId",
          "type": "bytes32"
        },
        {
          "internalType": "address[]",
          "name": "_tokens",
          "type": "address[]"
        },
        {
          "internalType": "uint256[]",
          "name": "_marketShares",
          "type": "uint256[]"
        }
      ],
      "name": "fulfillAssetsData",
      "outputs": [],
      "stateMutability": "nonpayable",
      "type": "function"
    },
    {
      "inputs": [
        {
          "internalType": "address",
          "name": "_issuer",
          "type": "address"
        },
        {
          "internalType": "address",
          "name": "_token",
          "type": "address"
        },
        {
          "internalType": "address",
          "name": "_usdc",
          "type": "address"
        },
        {
          "internalType": "uint8",
          "name": "_usdcDecimals",
          "type": "uint8"
        },
        {
          "internalType": "address",
          "name": "_chainlinkToken",
          "type": "address"
        },
        {
          "internalType": "address",
          "name": "_oracleAddress",
          "type": "address"
        },
        {
          "internalType": "bytes32",
          "name": "_externalJobId",
          "type": "bytes32"
        }
      ],
      "name": "initialize",
      "outputs": [],
      "stateMutability": "nonpayable",
      "type": "function"
    },
    {
      "inputs": [
        {
          "internalType": "uint256",
          "name": "_inputAmount",
          "type": "uint256"
        }
      ],
      "name": "issuance",
      "outputs": [],
      "stateMutability": "nonpayable",
      "type": "function"
    },
    {
      "inputs": [
        {
          "internalType": "uint256",
          "name": "",
          "type": "uint256"
        }
      ],
      "name": "issuanceIndexTokenPrimaryTotalSupply",
      "outputs": [
        {
          "internalType": "uint256",
          "name": "",
          "type": "uint256"
        }
      ],
      "stateMutability": "view",
      "type": "function"
    },
    {
      "inputs": [],
      "name": "issuanceNonce",
      "outputs": [
        {
          "internalType": "uint256",
          "name": "",
          "type": "uint256"
        }
      ],
      "stateMutability": "view",
      "type": "function"
    },
    {
      "inputs": [
        {
          "internalType": "uint256",
          "name": "",
          "type": "uint256"
        },
        {
          "internalType": "address",
          "name": "",
          "type": "address"
        }
      ],
      "name": "issuanceRequestId",
      "outputs": [
        {
          "internalType": "uint256",
          "name": "",
          "type": "uint256"
        }
      ],
      "stateMutability": "view",
      "type": "function"
    },
    {
      "inputs": [
        {
          "internalType": "uint256",
          "name": "",
          "type": "uint256"
        }
      ],
      "name": "issuanceRequesterByNonce",
      "outputs": [
        {
          "internalType": "address",
          "name": "",
          "type": "address"
        }
      ],
      "stateMutability": "view",
      "type": "function"
    },
    {
      "inputs": [
        {
          "internalType": "uint256",
          "name": "",
          "type": "uint256"
        },
        {
          "internalType": "address",
          "name": "",
          "type": "address"
        }
      ],
      "name": "issuanceTokenPrimaryBalance",
      "outputs": [
        {
          "internalType": "uint256",
          "name": "",
          "type": "uint256"
        }
      ],
      "stateMutability": "view",
      "type": "function"
    },
    {
      "inputs": [],
      "name": "issuer",
      "outputs": [
        {
          "internalType": "contract IOrderProcessor",
          "name": "",
          "type": "address"
        }
      ],
      "stateMutability": "view",
      "type": "function"
    },
    {
      "inputs": [],
      "name": "lastUpdateTime",
      "outputs": [
        {
          "internalType": "uint256",
          "name": "",
          "type": "uint256"
        }
      ],
      "stateMutability": "view",
      "type": "function"
    },
    {
      "inputs": [],
      "name": "latestFeeUpdate",
      "outputs": [
        {
          "internalType": "uint256",
          "name": "",
          "type": "uint256"
        }
      ],
      "stateMutability": "view",
      "type": "function"
    },
    {
      "inputs": [
        {
          "internalType": "address[]",
          "name": "_tokens",
          "type": "address[]"
        },
        {
          "internalType": "uint256[]",
          "name": "_marketShares",
          "type": "uint256[]"
        }
      ],
      "name": "mockFillAssetsList",
      "outputs": [],
      "stateMutability": "nonpayable",
      "type": "function"
    },
    {
      "inputs": [
        {
          "internalType": "uint256",
          "name": "",
          "type": "uint256"
        }
      ],
      "name": "oracleList",
      "outputs": [
        {
          "internalType": "address",
          "name": "",
          "type": "address"
        }
      ],
      "stateMutability": "view",
      "type": "function"
    },
    {
      "inputs": [],
      "name": "oraclePayment",
      "outputs": [
        {
          "internalType": "uint256",
          "name": "",
          "type": "uint256"
        }
      ],
      "stateMutability": "view",
      "type": "function"
    },
    {
      "inputs": [],
      "name": "owner",
      "outputs": [
        {
          "internalType": "address",
          "name": "",
          "type": "address"
        }
      ],
      "stateMutability": "view",
      "type": "function"
    },
    {
      "inputs": [],
      "name": "pause",
      "outputs": [],
      "stateMutability": "nonpayable",
      "type": "function"
    },
    {
      "inputs": [],
      "name": "paused",
      "outputs": [
        {
          "internalType": "bool",
          "name": "",
          "type": "bool"
        }
      ],
      "stateMutability": "view",
      "type": "function"
    },
    {
      "inputs": [],
      "name": "redemptionNonce",
      "outputs": [
        {
          "internalType": "uint256",
          "name": "",
          "type": "uint256"
        }
      ],
      "stateMutability": "view",
      "type": "function"
    },
    {
      "inputs": [
        {
          "internalType": "uint256",
          "name": "",
          "type": "uint256"
        },
        {
          "internalType": "address",
          "name": "",
          "type": "address"
        }
      ],
      "name": "redemptionRequestId",
      "outputs": [
        {
          "internalType": "uint256",
          "name": "",
          "type": "uint256"
        }
      ],
      "stateMutability": "view",
      "type": "function"
    },
    {
      "inputs": [
        {
          "internalType": "uint256",
          "name": "",
          "type": "uint256"
        }
      ],
      "name": "redemptionRequesterByNonce",
      "outputs": [
        {
          "internalType": "address",
          "name": "",
          "type": "address"
        }
      ],
      "stateMutability": "view",
      "type": "function"
    },
    {
      "inputs": [
        {
          "internalType": "uint256",
          "name": "",
          "type": "uint256"
        },
        {
          "internalType": "address",
          "name": "",
          "type": "address"
        }
      ],
      "name": "redemptionTokenPrimaryBalance",
      "outputs": [
        {
          "internalType": "uint256",
          "name": "",
          "type": "uint256"
        }
      ],
      "stateMutability": "view",
      "type": "function"
    },
    {
      "inputs": [],
      "name": "renounceOwnership",
      "outputs": [],
      "stateMutability": "nonpayable",
      "type": "function"
    },
    {
      "inputs": [],
      "name": "requestAssetsData",
      "outputs": [
        {
          "internalType": "bytes32",
          "name": "",
          "type": "bytes32"
        }
      ],
      "stateMutability": "nonpayable",
      "type": "function"
    },
    {
      "inputs": [
        {
          "internalType": "uint256",
          "name": "",
          "type": "uint256"
        }
      ],
      "name": "sellRequestAssetAmountById",
      "outputs": [
        {
          "internalType": "uint256",
          "name": "",
          "type": "uint256"
        }
      ],
      "stateMutability": "view",
      "type": "function"
    },
    {
      "inputs": [
        {
          "internalType": "address",
          "name": "_custodianWallet",
          "type": "address"
        }
      ],
      "name": "setCustodianWallet",
      "outputs": [
        {
          "internalType": "bool",
          "name": "",
          "type": "bool"
        }
      ],
      "stateMutability": "nonpayable",
      "type": "function"
    },
    {
      "inputs": [
        {
          "internalType": "uint8",
          "name": "_newFee",
          "type": "uint8"
        }
      ],
      "name": "setFeeRate",
      "outputs": [],
      "stateMutability": "nonpayable",
      "type": "function"
    },
    {
      "inputs": [
        {
          "internalType": "address",
          "name": "_issuer",
          "type": "address"
        }
      ],
      "name": "setIssuer",
      "outputs": [
        {
          "internalType": "bool",
          "name": "",
          "type": "bool"
        }
      ],
      "stateMutability": "nonpayable",
      "type": "function"
    },
    {
      "inputs": [
        {
          "internalType": "address",
          "name": "_oracleAddress",
          "type": "address"
        },
        {
          "internalType": "bytes32",
          "name": "_externalJobId",
          "type": "bytes32"
        }
      ],
      "name": "setOracleInfo",
      "outputs": [],
      "stateMutability": "nonpayable",
      "type": "function"
    },
    {
      "inputs": [
        {
          "internalType": "address",
          "name": "_token",
          "type": "address"
        }
      ],
      "name": "setTokenAddress",
      "outputs": [
        {
          "internalType": "bool",
          "name": "",
          "type": "bool"
        }
      ],
      "stateMutability": "nonpayable",
      "type": "function"
    },
    {
      "inputs": [
        {
          "internalType": "string",
          "name": "_beforeAddress",
          "type": "string"
        },
        {
          "internalType": "string",
          "name": "_afterAddress",
          "type": "string"
        }
      ],
      "name": "setUrl",
      "outputs": [],
      "stateMutability": "nonpayable",
      "type": "function"
    },
    {
      "inputs": [
        {
          "internalType": "address",
          "name": "_usdc",
          "type": "address"
        },
        {
          "internalType": "uint8",
          "name": "_usdcDecimals",
          "type": "uint8"
        }
      ],
      "name": "setUsdcAddress",
      "outputs": [
        {
          "internalType": "bool",
          "name": "",
          "type": "bool"
        }
      ],
      "stateMutability": "nonpayable",
      "type": "function"
    },
    {
      "inputs": [],
      "name": "token",
      "outputs": [
        {
          "internalType": "contract IndexToken",
          "name": "",
          "type": "address"
        }
      ],
      "stateMutability": "view",
      "type": "function"
    },
    {
      "inputs": [
        {
          "internalType": "address",
          "name": "",
          "type": "address"
        }
      ],
      "name": "tokenCurrentListIndex",
      "outputs": [
        {
          "internalType": "uint256",
          "name": "",
          "type": "uint256"
        }
      ],
      "stateMutability": "view",
      "type": "function"
    },
    {
      "inputs": [
        {
          "internalType": "address",
          "name": "",
          "type": "address"
        }
      ],
      "name": "tokenCurrentMarketShare",
      "outputs": [
        {
          "internalType": "uint256",
          "name": "",
          "type": "uint256"
        }
      ],
      "stateMutability": "view",
      "type": "function"
    },
    {
      "inputs": [
        {
          "internalType": "address",
          "name": "",
          "type": "address"
        }
      ],
      "name": "tokenOracleListIndex",
      "outputs": [
        {
          "internalType": "uint256",
          "name": "",
          "type": "uint256"
        }
      ],
      "stateMutability": "view",
      "type": "function"
    },
    {
      "inputs": [
        {
          "internalType": "address",
          "name": "",
          "type": "address"
        }
      ],
      "name": "tokenOracleMarketShare",
      "outputs": [
        {
          "internalType": "uint256",
          "name": "",
          "type": "uint256"
        }
      ],
      "stateMutability": "view",
      "type": "function"
    },
    {
      "inputs": [],
      "name": "totalCurrentList",
      "outputs": [
        {
          "internalType": "uint256",
          "name": "",
          "type": "uint256"
        }
      ],
      "stateMutability": "view",
      "type": "function"
    },
    {
      "inputs": [],
      "name": "totalOracleList",
      "outputs": [
        {
          "internalType": "uint256",
          "name": "",
          "type": "uint256"
        }
      ],
      "stateMutability": "view",
      "type": "function"
    },
    {
      "inputs": [
        {
          "internalType": "address",
          "name": "newOwner",
          "type": "address"
        }
      ],
      "name": "transferOwnership",
      "outputs": [],
      "stateMutability": "nonpayable",
      "type": "function"
    },
    {
      "inputs": [],
      "name": "unpause",
      "outputs": [],
      "stateMutability": "nonpayable",
      "type": "function"
    },
    {
      "inputs": [],
      "name": "usdc",
      "outputs": [
        {
          "internalType": "address",
          "name": "",
          "type": "address"
        }
      ],
      "stateMutability": "view",
      "type": "function"
    },
    {
      "inputs": [],
      "name": "usdcDecimals",
      "outputs": [
        {
          "internalType": "uint8",
          "name": "",
          "type": "uint8"
        }
      ],
      "stateMutability": "view",
      "type": "function"
    }
  ],
  "bytecode": {
    "object": "0x6080604052348015600f57600080fd5b5061311b8061001f6000396000f3fe608060405234801561001057600080fd5b50600436106102d65760003560e01c806384d77bb111610182578063a87f98d2116100e9578063c8f33c91116100a2578063f14bea201161007c578063f14bea2014610743578063f2fde38b14610756578063f513a71814610769578063fc0c546a1461079457600080fd5b8063c8f33c91146106fc578063da65925a14610705578063eab2a7111461073057600080fd5b8063a87f98d214610684578063a8b54bd4146106a4578063addc70d1146106ad578063b1dd819e146106c0578063bed45bef146106e0578063c8599ded146106f357600080fd5b8063978bbdb91161013b578063978bbdb9146105ed5780639932ba4c146106015780639cc0fb5b1461062a5780639dbb9c9e1461063d578063a363b9cb14610646578063a73e1cbf1461067157600080fd5b806384d77bb11461052c5780638861d235146105355780638c88c10c146105555780638da5cb5b14610575578063914f0cc6146105a557806394674098146105c557600080fd5b80633f4ba83a1161024157806355cc4e57116101fa57806378032658116101d457806378032658146104cd5780637bf42165146104f65780637ca58c551461051c5780638456cb591461052457600080fd5b806355cc4e571461049a5780635c975abb146104ad578063715018a6146104c557600080fd5b80633f4ba83a1461043057806343482fc81461043857806345e0ed4f1461044b5780634b3e0b801461045e5780635177942a1461047e57806353fd43321461049157600080fd5b80632371a4de116102935780632371a4de1461037e578063239aad0d146103a1578063248b761e146103ca578063264fa8b9146103df57806326a4e8d21461040a5780633e413bee1461041d57600080fd5b8063011ced5f146102db5780630be52713146102f75780630c02e130146103175780630e329357146103205780631d143848146103405780631e106e991461036b575b600080fd5b6102e460225481565b6040519081526020015b60405180910390f35b6102e4610305366004612643565b60116020526000908152604090205481565b6102e460095481565b61033361032e366004612713565b6107a7565b6040516102ee91906127c6565b601554610353906001600160a01b031681565b6040516001600160a01b0390911681526020016102ee565b601454610353906001600160a01b031681565b61039161038c3660046127d9565b6107d4565b60405190151581526020016102ee565b6103536103af3660046127d9565b600d602052600090815260409020546001600160a01b031681565b6103dd6103d83660046127d9565b6108d3565b005b6102e46103ed3660046127f2565b601960209081526000928352604080842090915290825290205481565b610391610418366004612643565b610aa4565b601654610353906001600160a01b031681565b6103dd610b25565b6103dd61044636600461281e565b610b37565b6103dd610459366004612859565b610b4e565b6102e461046c366004612643565b60126020526000908152604090205481565b6103dd61048c3660046128d8565b610d68565b6102e4600c5481565b6103916104a8366004612643565b610eb2565b6000805160206130c68339815191525460ff16610391565b6103dd610f30565b6103536104db3660046127d9565b6021602052600090815260409020546001600160a01b031681565b60165461050a90600160a01b900460ff1681565b60405160ff90911681526020016102ee565b6102e4610f42565b6103dd611182565b6102e460185481565b6102e46105433660046127d9565b601b6020526000908152604090205481565b6102e4610563366004612643565b600f6020526000908152604090205481565b7f9016d09d72d40fdae2fd8ceac6b6234c7706214fd39c1cd1e609a0528c199300546001600160a01b0316610353565b6102e46105b3366004612643565b60106020526000908152604090205481565b6103536105d33660046127d9565b60208052600090815260409020546001600160a01b031681565b60165461050a90600160a81b900460ff1681565b61035361060f3660046127d9565b600e602052600090815260409020546001600160a01b031681565b610391610638366004612643565b611192565b6102e460175481565b6102e46106543660046127f2565b601e60209081526000928352604080842090915290825290205481565b6103dd61067f366004612713565b611217565b6102e46106923660046127d9565b601c6020526000908152604090205481565b6102e460085481565b6103dd6106bb3660046129eb565b61123d565b6102e46106ce3660046127d9565b601f6020526000908152604090205481565b6103dd6106ee3660046127d9565b61124f565b6102e4600b5481565b6102e4600a5481565b6102e46107133660046127f2565b601d60209081526000928352604080842090915290825290205481565b61039161073e366004612a44565b6114f5565b6103dd610751366004612a6e565b61157e565b6103dd610764366004612643565b61164a565b6102e46107773660046127f2565b601a60209081526000928352604080842090915290825290205481565b601354610353906001600160a01b031681565b606082826040516020016107bc929190612ada565b60405160208183030381529060405290505b92915050565b60008060005b600c548110156108b1576000818152600e6020908152604080832054878452601983528184206001600160a01b039182168086529352928190205460155491516322fd455760e11b81526004810182905292939092600392909116906345fa8aae90602401602060405180830381865afa15801561085c573d6000803e3d6000fd5b505050506040513d601f19601f820116820180604052508101906108809190612b1f565b600381111561089157610891612b09565b60ff16036108a7576108a4600185612b56565b93505b50506001016107da565b50600c5481036108c45750600192915050565b50600092915050565b50919050565b6001601760008282546108e69190612b56565b90915550600090505b600c54811015610aa0576000818152600e60209081526040808320546001600160a01b0316808452601190925282205490919060649061092f9086612b69565b6109399190612b96565b905060006109478383611688565b6000818152601b60209081526040808320869055601780548452601983528184206001600160a01b038916808652908452828520869055905484529180529182902080546001600160a01b0319163317905590516370a0823160e01b8152306004820152919250906370a0823190602401602060405180830381865afa1580156109d5573d6000803e3d6000fd5b505050506040513d601f19601f820116820180604052508101906109f99190612baa565b6017546000908152601d602090815260408083206001600160a01b038089168552908352928190209390935560135483516318160ddd60e01b815293519216926318160ddd92600480830193928290030181865afa158015610a5f573d6000803e3d6000fd5b505050506040513d601f19601f82011682018060405250810190610a839190612baa565b6017546000908152601f60205260409020555050506001016108ef565b5050565b6000610aae6118cf565b6001600160a01b038216610b015760405162461bcd60e51b8152602060048201526015602482015274696e76616c696420746f6b656e206164647265737360581b60448201526064015b60405180910390fd5b50601380546001600160a01b0319166001600160a01b03831617905560015b919050565b610b2d6118cf565b610b3561192a565b565b610b3f6118cf565b610b488261198a565b60085550565b7ff0c57e16840df040f15088dc2f81fe391c3923bec73e23a9662efc9c229c6a008054600160401b810460ff1615906001600160401b0316600081158015610b935750825b90506000826001600160401b03166001148015610baf5750303b155b905081158015610bbd575080155b15610bdb5760405163f92ee8a960e01b815260040160405180910390fd5b845467ffffffffffffffff191660011785558315610c0557845460ff60401b1916600160401b1785555b601580546001600160a01b03199081166001600160a01b038f811691909117909255601380549091168d831617905560168054918c166001600160a81b031990921691909117600160a01b60ff8c1602179055610c61336119ac565b610c696119bd565b6016805460ff60a81b1916600560a91b179055600280546001600160a01b0319166001600160a01b038a16179055610ca08761198a565b6008869055600a610cba670de0b6b3a76400006001612b69565b610cc49190612b96565b6009556040805160608101909152602a80825261306e6020830139600690610cec9082612c47565b506040518060600160405280602e8152602001613098602e9139600790610d139082612c47565b508315610d5a57845460ff60401b19168555604051600181527fc7f505b2f371ae2175ee4913f4499e1f2633a7b5936321eed1cdaeb6115181d29060200160405180910390a15b505050505050505050505050565b610d706118cf565b600060225442610d809190612d06565b9050600c603c610d908184612b96565b610d9a9190612b96565b11610e0d5760405162461bcd60e51b815260206004820152603960248201527f596f752073686f756c642077616974206174206c6561737420313220686f757260448201527f7320616674657220746865206c617465737420757064617465000000000000006064820152608401610af8565b60648260ff1611158015610e25575060018260ff1610155b610e8d5760405162461bcd60e51b815260206004820152603360248201527f546865206e65774665652073686f756c64206265206265747765656e203120616044820152726e64203130302028302e303125202d2031252960681b6064820152608401610af8565b506016805460ff909216600160a81b0260ff60a81b1990921691909117905542602255565b6000610ebc6118cf565b6001600160a01b038216610f0b5760405162461bcd60e51b8152602060048201526016602482015275696e76616c696420697373756572206164647265737360501b6044820152606401610af8565b50601580546001600160a01b0383166001600160a01b03199091161790556001919050565b610f386118cf565b610b3560006119cd565b60008061106360068054610f5590612bc3565b80601f0160208091040260200160405190810160405280929190818152602001828054610f8190612bc3565b8015610fce5780601f10610fa357610100808354040283529160200191610fce565b820191906000526020600020905b815481529060010190602001808311610fb157829003601f168201915b505050505060078054610fe090612bc3565b80601f016020809104026020016040519081016040528092919081815260200182805461100c90612bc3565b80156110595780601f1061102e57610100808354040283529160200191611059565b820191906000526020600020905b81548152906001019060200180831161103c57829003601f168201915b50505050506107a7565b9050600061107b6008543063f14bea2060e01b611a3e565b60408051808201909152600381526219d95d60ea1b60208201529091506110a490829084611a65565b6110ff60405180604001604052806005815260200164706174683160d81b81525060405180604001604052806011815260200170726573756c74732c61646472657373657360781b81525083611a659092919063ffffffff16565b61115d604051806040016040528060058152602001643830ba341960d91b81525060405180604001604052806014815260200173726573756c74732c6d61726b657453686172657360601b81525083611a659092919063ffffffff16565b61117b6111726003546001600160a01b031690565b82600954611a83565b9250505090565b61118a6118cf565b610b35611b16565b600061119c6118cf565b6001600160a01b0382166111f25760405162461bcd60e51b815260206004820181905260248201527f696e76616c696420637573746f6469616e2077616c6c657420616464726573736044820152606401610af8565b50601480546001600160a01b0383166001600160a01b03199091161790556001919050565b61121f6118cf565b600661122b8382612c47565b5060076112388282612c47565b505050565b6112456118cf565b610aa08282611b5f565b611258816107d4565b61129d5760405162461bcd60e51b8152602060048201526016602482015275125cdcdd585b98d9481b9bdd0818dbdb5c1b195d195960521b6044820152606401610af8565b60008181526020805260408120546001600160a01b03169080805b600c54811015611450576000818152600e6020908152604080832054888452601983528184206001600160a01b03918216808652935281842054601554601654935163a377cfbf60e01b815260048101869052938316602485015293949093909291169063a377cfbf906044016040805180830381865afa158015611341573d6000803e3d6000fd5b505050506040513d601f19601f820116820180604052508101906113659190612d19565b6040516370a0823160e01b81523060048201529091506000906001600160a01b038516906370a0823190602401602060405180830381865afa1580156113af573d6000803e3d6000fd5b505050506040513d601f19601f820116820180604052508101906113d39190612baa565b60008a8152601d602090815260408083206001600160a01b03891684529091528120548451929350916114069083612b69565b6000868152601b6020526040812054919250906114239083612b56565b905061142f828b612b56565b995061143b818a612b56565b985050600190960195506112b8945050505050565b506000848152601f6020526040812054908361146c8484612b69565b6114769190612b96565b905060006114848383612d06565b6013546040516340c10f1960e01b81526001600160a01b038981166004830152602482018490529293509116906340c10f1990604401600060405180830381600087803b1580156114d457600080fd5b505af11580156114e8573d6000803e3d6000fd5b5050505050505050505050565b60006114ff6118cf565b6001600160a01b03831661154d5760405162461bcd60e51b8152602060048201526015602482015274696e76616c696420746f6b656e206164647265737360581b6044820152606401610af8565b506016805460ff8316600160a01b026001600160a81b03199091166001600160a01b03851617179055600192915050565b60008381526005602052604090205483906001600160a01b031633146115f75760405162461bcd60e51b815260206004820152602860248201527f536f75726365206d75737420626520746865206f7261636c65206f6620746865604482015267081c995c5d595cdd60c21b6064820152608401610af8565b60008181526005602052604080822080546001600160a01b03191690555182917f7cc135e0cebb02c3480ae5d74d377283180a2601f8f644edf7987b009316c63a91a26116448383611b5f565b50505050565b6116526118cf565b6001600160a01b03811661167c57604051631e4fbdf760e01b815260006004820152602401610af8565b611685816119cd565b50565b6015546016546040516308da5c3560e21b81526000600482018190526001600160a01b039283166024830152928392839291169063236970d4906044016040805180830381865afa1580156116e1573d6000803e3d6000fd5b505050506040513d601f19601f820116820180604052508101906117059190612d78565b9150915060006117158286611d80565b61171f9084612b56565b9050600061172d6000611da9565b3060208201526001600160a01b038816604082015260e08101879052905060006117578388612b56565b6016546040516323b872dd60e01b8152336004820152306024820152604481018390529192506001600160a01b0316906323b872dd906064016020604051808303816000875af11580156117af573d6000803e3d6000fd5b505050506040513d601f19601f820116820180604052508101906117d39190612db0565b5060165460155460405163095ea7b360e01b81526001600160a01b0391821660048201526024810184905291169063095ea7b3906044016020604051808303816000875af1158015611829573d6000803e3d6000fd5b505050506040513d601f19601f8201168201806040525081019061184d9190612db0565b5060155460405163aa2165f160e01b81526000916001600160a01b03169063aa2165f19061187f908690600401612df6565b6020604051808303816000875af115801561189e573d6000803e3d6000fd5b505050506040513d601f19601f820116820180604052508101906118c29190612baa565b9998505050505050505050565b336119017f9016d09d72d40fdae2fd8ceac6b6234c7706214fd39c1cd1e609a0528c199300546001600160a01b031690565b6001600160a01b031614610b355760405163118cdaa760e01b8152336004820152602401610af8565b611932611e60565b6000805160206130c6833981519152805460ff191681557f5db9ee0a495bf2e6ff9c91a7834c1ba4fdd244a5e8aa4e537bd38aeae4b073aa335b6040516001600160a01b03909116815260200160405180910390a150565b600380546001600160a01b0319166001600160a01b0392909216919091179055565b6119b4611e90565b61168581611ed9565b6119c5611e90565b610b35611ee1565b7f9016d09d72d40fdae2fd8ceac6b6234c7706214fd39c1cd1e609a0528c19930080546001600160a01b031981166001600160a01b03848116918217845560405192169182907f8be0079c531659141344cd1fd0a4f28419497f9722a3daafe3b4186f6b6457e090600090a3505050565b611a4661258e565b611a4e61258e565b611a5a81868686611f02565b9150505b9392505050565b6080830151611a749083611f48565b60808301516112389082611f48565b600454600090611a94816001612b56565b600455835160408086015160808701515191516000936320214ca360e11b93611acc9386938493923092918a91600191602401612ebb565b60408051601f198184030181529190526020810180516001600160e01b03166001600160e01b0319909316929092179091529050611b0c86838684611f5f565b9695505050505050565b611b1e6120bd565b6000805160206130c6833981519152805460ff191660011781557f62e78cea01bee320cd4e420270b5ea74000d11b0c9f74754ebdbfc544b05a2583361196c565b818160005b8251811015611d6057828181518110611b7f57611b7f612f23565b6020026020010151600d600083815260200190815260200160002060006101000a8154816001600160a01b0302191690836001600160a01b0316021790555080600f6000858481518110611bd557611bd5612f23565b60200260200101516001600160a01b03166001600160a01b0316815260200190815260200160002081905550818181518110611c1357611c13612f23565b602002602001015160126000858481518110611c3157611c31612f23565b60200260200101516001600160a01b03166001600160a01b0316815260200190815260200160002081905550600c54600003611d5857828181518110611c7957611c79612f23565b6020026020010151600e600083815260200190815260200160002060006101000a8154816001600160a01b0302191690836001600160a01b03160217905550818181518110611cca57611cca612f23565b602002602001015160116000858481518110611ce857611ce8612f23565b60200260200101516001600160a01b03166001600160a01b03168152602001908152602001600020819055508060106000858481518110611d2b57611d2b612f23565b60200260200101516001600160a01b03166001600160a01b03168152602001908152602001600020819055505b600101611b64565b508151600b55600c54600003611d76578151600c555b505042600a555050565b60008262ffffff16600003611d96576000611a5e565b611a5e8262ffffff8516620f42406120ee565b611db16125ce565b60408051610140810182526001600160401b03421681523060208201526013546001600160a01b03908116928201929092526016549091166060820152821515608082015260a081016000815260200183611e0d576000611e18565b68056bc75e2d631000005b68ffffffffffffffffff16815260200183611e3c5768056bc75e2d63100000611e3f565b60005b68ffffffffffffffffff168152600060208201526040016001905292915050565b6000805160206130c68339815191525460ff16610b3557604051638dfc202b60e01b815260040160405180910390fd5b7ff0c57e16840df040f15088dc2f81fe391c3923bec73e23a9662efc9c229c6a0054600160401b900460ff16610b3557604051631afcd79f60e31b815260040160405180910390fd5b611652611e90565b611ee9611e90565b6000805160206130c6833981519152805460ff19169055565b611f0a61258e565b611f1a85608001516101006121c2565b50508284526001600160a01b03821660208501526001600160e01b031981166040850152835b949350505050565b611f558260038351612227565b611238828261232e565b6040516bffffffffffffffffffffffff193060601b1660208201526034810184905260009060540160408051808303601f1901815282825280516020918201206000818152600590925291812080546001600160a01b0319166001600160a01b038a1617905590925082917fb5e6e01e79f91267dc17b4e6314d5d4d03593d2ceee0fbb452b750bd70ea5af99190a2600254604051630200057560e51b81526001600160a01b0390911690634000aea09061202290889087908790600401612f39565b6020604051808303816000875af1158015612041573d6000803e3d6000fd5b505050506040513d601f19601f820116820180604052508101906120659190612db0565b611f405760405162461bcd60e51b815260206004820152602360248201527f756e61626c6520746f207472616e73666572416e6443616c6c20746f206f7261604482015262636c6560e81b6064820152608401610af8565b6000805160206130c68339815191525460ff1615610b355760405163d93c066560e01b815260040160405180910390fd5b60008080600019858709858702925082811083820303915050806000036121285783828161211e5761211e612b80565b0492505050611a5e565b83811061215957604051630c740aef60e31b8152600481018790526024810186905260448101859052606401610af8565b60008486880960026001871981018816978890046003810283188082028403028082028403028082028403028082028403028082028403029081029092039091026000889003889004909101858311909403939093029303949094049190911702949350505050565b6040805180820190915260608152600060208201526121e2602083612f69565b1561220a576121f2602083612f69565b6121fd906020612d06565b6122079083612b56565b91505b506020828101829052604080518085526000815290920101905290565b6017816001600160401b03161161224b576116448360e0600585901b168317612355565b60ff816001600160401b03161161228757612271836018611fe0600586901b1617612355565b50611644836001600160401b038316600161237a565b61ffff816001600160401b0316116122c4576122ae836019611fe0600586901b1617612355565b50611644836001600160401b038316600261237a565b63ffffffff816001600160401b031611612303576122ed83601a611fe0600586901b1617612355565b50611644836001600160401b038316600461237a565b61231883601b611fe0600586901b1617612355565b50611644836001600160401b038316600861237a565b604080518082019091526060815260006020820152611a5e838460000151518485516123a0565b604080518082019091526060815260006020820152611a5e838460000151518461248a565b604080518082019091526060815260006020820152611f408485600001515185856124e5565b60408051808201909152606081526000602082015282518211156123c357600080fd5b60208501516123d28386612b56565b111561240557612405856123f5876020015187866123f09190612b56565b612566565b612400906002612b69565b612577565b6000808651805187602083010193508088870111156124245787860182525b505050602084015b602084106124645780518252612443602083612b56565b9150612450602082612b56565b905061245d602085612d06565b935061242c565b51815160001960208690036101000a019081169019919091161790525083949350505050565b604080518082019091526060815260006020820152836020015183106124bf576124bf84856020015160026124009190612b69565b83518051602085830101848153508085036124db576001810182525b5093949350505050565b60408051808201909152606081526000602082015260208501516125098584612b56565b111561251d5761251d856123f58685612b56565b6000600161252d84610100613061565b6125379190612d06565b905085518386820101858319825116178152508051848701111561255b5783860181525b509495945050505050565b6000818311156108cd5750816107ce565b815161258383836121c2565b50611644838261232e565b6040805160a0810182526000808252602080830182905282840182905260608084018390528451808601909552845283015290608082015290565b905290565b604080516101408101825260008082526020820181905291810182905260608101829052608081018290529060a08201908152602001600081526020016000815260200160008152602001600060038111156125c9576125c9612b09565b80356001600160a01b0381168114610b2057600080fd5b60006020828403121561265557600080fd5b611a5e8261262c565b634e487b7160e01b600052604160045260246000fd5b604051601f8201601f191681016001600160401b038111828210171561269c5761269c61265e565b604052919050565b600082601f8301126126b557600080fd5b81356001600160401b038111156126ce576126ce61265e565b6126e1601f8201601f1916602001612674565b8181528460208386010111156126f657600080fd5b816020850160208301376000918101602001919091529392505050565b6000806040838503121561272657600080fd5b82356001600160401b038082111561273d57600080fd5b612749868387016126a4565b9350602085013591508082111561275f57600080fd5b5061276c858286016126a4565b9150509250929050565b60005b83811015612791578181015183820152602001612779565b50506000910152565b600081518084526127b2816020860160208601612776565b601f01601f19169290920160200192915050565b602081526000611a5e602083018461279a565b6000602082840312156127eb57600080fd5b5035919050565b6000806040838503121561280557600080fd5b823591506128156020840161262c565b90509250929050565b6000806040838503121561283157600080fd5b61283a8361262c565b946020939093013593505050565b803560ff81168114610b2057600080fd5b600080600080600080600060e0888a03121561287457600080fd5b61287d8861262c565b965061288b6020890161262c565b95506128996040890161262c565b94506128a760608901612848565b93506128b56080890161262c565b92506128c360a0890161262c565b915060c0880135905092959891949750929550565b6000602082840312156128ea57600080fd5b611a5e82612848565b60006001600160401b0382111561290c5761290c61265e565b5060051b60200190565b600082601f83011261292757600080fd5b8135602061293c612937836128f3565b612674565b8083825260208201915060208460051b87010193508684111561295e57600080fd5b602086015b84811015612981576129748161262c565b8352918301918301612963565b509695505050505050565b600082601f83011261299d57600080fd5b813560206129ad612937836128f3565b8083825260208201915060208460051b8701019350868411156129cf57600080fd5b602086015b8481101561298157803583529183019183016129d4565b600080604083850312156129fe57600080fd5b82356001600160401b0380821115612a1557600080fd5b612a2186838701612916565b93506020850135915080821115612a3757600080fd5b5061276c8582860161298c565b60008060408385031215612a5757600080fd5b612a608361262c565b915061281560208401612848565b600080600060608486031215612a8357600080fd5b8335925060208401356001600160401b0380821115612aa157600080fd5b612aad87838801612916565b93506040860135915080821115612ac357600080fd5b50612ad08682870161298c565b9150509250925092565b60008351612aec818460208801612776565b835190830190612b00818360208801612776565b01949350505050565b634e487b7160e01b600052602160045260246000fd5b600060208284031215612b3157600080fd5b815160048110611a5e57600080fd5b634e487b7160e01b600052601160045260246000fd5b808201808211156107ce576107ce612b40565b80820281158282048414176107ce576107ce612b40565b634e487b7160e01b600052601260045260246000fd5b600082612ba557612ba5612b80565b500490565b600060208284031215612bbc57600080fd5b5051919050565b600181811c90821680612bd757607f821691505b6020821081036108cd57634e487b7160e01b600052602260045260246000fd5b601f821115611238576000816000526020600020601f850160051c81016020861015612c205750805b601f850160051c820191505b81811015612c3f57828155600101612c2c565b505050505050565b81516001600160401b03811115612c6057612c6061265e565b612c7481612c6e8454612bc3565b84612bf7565b602080601f831160018114612ca95760008415612c915750858301515b600019600386901b1c1916600185901b178555612c3f565b600085815260208120601f198616915b82811015612cd857888601518255948401946001909101908401612cb9565b5085821015612cf65787850151600019600388901b60f8161c191681555b5050505050600190811b01905550565b818103818111156107ce576107ce612b40565b600060408284031215612d2b57600080fd5b604051604081016001600160401b038282108183111715612d4e57612d4e61265e565b8160405284518352602085015191508082168214612d6b57600080fd5b5060208201529392505050565b60008060408385031215612d8b57600080fd5b82519150602083015162ffffff81168114612da557600080fd5b809150509250929050565b600060208284031215612dc257600080fd5b81518015158114611a5e57600080fd5b60028110612de257612de2612b09565b9052565b60048110612de257612de2612b09565b81516001600160401b0316815261014081016020830151612e2260208401826001600160a01b03169052565b506040830151612e3d60408401826001600160a01b03169052565b506060830151612e5860608401826001600160a01b03169052565b506080830151612e6c608084018215159052565b5060a0830151612e7f60a0840182612dd2565b5060c083015160c083015260e083015160e083015261010080840151818401525061012080840151612eb382850182612de6565b505092915050565b6001600160a01b0389811682526020820189905260408201889052861660608201526001600160e01b03198516608082015260a0810184905260c0810183905261010060e08201819052600090612f148382018561279a565b9b9a5050505050505050505050565b634e487b7160e01b600052603260045260246000fd5b60018060a01b0384168152826020820152606060408201526000612f60606083018461279a565b95945050505050565b600082612f7857612f78612b80565b500690565b600181815b80851115612fb8578160001904821115612f9e57612f9e612b40565b80851615612fab57918102915b93841c9390800290612f82565b509250929050565b600082612fcf575060016107ce565b81612fdc575060006107ce565b8160018114612ff25760028114612ffc57613018565b60019150506107ce565b60ff84111561300d5761300d612b40565b50506001821b6107ce565b5060208310610133831016604e8410600b841016171561303b575081810a6107ce565b6130458383612f7d565b806000190482111561305957613059612b40565b029392505050565b6000611a5e8383612fc056fe68747470733a2f2f6170702e6e65786c6162732e696f2f6170692f616c6c46756e64696e6752617465733f6d756c7469706c7946756e633d31382674696d65734e656746756e643d74727565266172726179733d74727565cd5ed15c6e187e77e9aee88184c21f4f2182ab5827cb3b7e07fbedcd63f03300a264697066735822122013e5128f36257aa48bb1fe4704d88d800a33bb8f038133b2b768b283c5ae6a1f64736f6c63430008190033",
    "linkReferences": {}
  },
  "methodIdentifiers": {
    "buyRequestPayedAmountById(uint256)": "8861d235",
    "checkIssuance(uint256)": "2371a4de",
    "completeIssuance(uint256)": "bed45bef",
    "concatenation(string,string)": "0e329357",
    "currentList(uint256)": "9932ba4c",
    "custodianWallet()": "1e106e99",
    "externalJobId()": "a8b54bd4",
    "feeRate()": "978bbdb9",
    "fulfillAssetsData(bytes32,address[],uint256[])": "f14bea20",
    "initialize(address,address,address,uint8,address,address,bytes32)": "45e0ed4f",
    "issuance(uint256)": "248b761e",
    "issuanceIndexTokenPrimaryTotalSupply(uint256)": "b1dd819e",
    "issuanceNonce()": "9dbb9c9e",
    "issuanceRequestId(uint256,address)": "264fa8b9",
    "issuanceRequesterByNonce(uint256)": "94674098",
    "issuanceTokenPrimaryBalance(uint256,address)": "da65925a",
    "issuer()": "1d143848",
    "lastUpdateTime()": "c8f33c91",
    "latestFeeUpdate()": "011ced5f",
    "mockFillAssetsList(address[],uint256[])": "addc70d1",
    "oracleList(uint256)": "239aad0d",
    "oraclePayment()": "0c02e130",
    "owner()": "8da5cb5b",
    "pause()": "8456cb59",
    "paused()": "5c975abb",
    "redemptionNonce()": "84d77bb1",
    "redemptionRequestId(uint256,address)": "f513a718",
    "redemptionRequesterByNonce(uint256)": "78032658",
    "redemptionTokenPrimaryBalance(uint256,address)": "a363b9cb",
    "renounceOwnership()": "715018a6",
    "requestAssetsData()": "7ca58c55",
    "sellRequestAssetAmountById(uint256)": "a87f98d2",
    "setCustodianWallet(address)": "9cc0fb5b",
    "setFeeRate(uint8)": "5177942a",
    "setIssuer(address)": "55cc4e57",
    "setOracleInfo(address,bytes32)": "43482fc8",
    "setTokenAddress(address)": "26a4e8d2",
    "setUrl(string,string)": "a73e1cbf",
    "setUsdcAddress(address,uint8)": "eab2a711",
    "token()": "fc0c546a",
    "tokenCurrentListIndex(address)": "914f0cc6",
    "tokenCurrentMarketShare(address)": "0be52713",
    "tokenOracleListIndex(address)": "8c88c10c",
    "tokenOracleMarketShare(address)": "4b3e0b80",
    "totalCurrentList()": "53fd4332",
    "totalOracleList()": "c8599ded",
    "transferOwnership(address)": "f2fde38b",
    "unpause()": "3f4ba83a",
    "usdc()": "3e413bee",
    "usdcDecimals()": "7bf42165"
  },
  "id": 20
}