{"abi":[{"type":"function","name":"buyRequestPayedAmountById","inputs":[{"name":"","type":"uint256","internalType":"uint256"}],"outputs":[{"name":"","type":"uint256","internalType":"uint256"}],"stateMutability":"view"},{"type":"function","name":"calculateIssuanceFee","inputs":[{"name":"_orderAmount","type":"uint256","internalType":"uint256"}],"outputs":[{"name":"","type":"uint256","internalType":"uint256"}],"stateMutability":"view"},{"type":"function","name":"checkIssuance","inputs":[{"name":"_issuanceNonce","type":"uint256","internalType":"uint256"}],"outputs":[{"name":"","type":"bool","internalType":"bool"}],"stateMutability":"view"},{"type":"function","name":"checkRedemption","inputs":[{"name":"_redemptionNonce","type":"uint256","internalType":"uint256"}],"outputs":[{"name":"","type":"bool","internalType":"bool"}],"stateMutability":"view"},{"type":"function","name":"coaByIssuanceNonce","inputs":[{"name":"","type":"uint256","internalType":"uint256"}],"outputs":[{"name":"","type":"address","internalType":"address"}],"stateMutability":"view"},{"type":"function","name":"coaByRedemptionNonce","inputs":[{"name":"","type":"uint256","internalType":"uint256"}],"outputs":[{"name":"","type":"address","internalType":"address"}],"stateMutability":"view"},{"type":"function","name":"completeIssuance","inputs":[{"name":"_issuanceNonce","type":"uint256","internalType":"uint256"}],"outputs":[],"stateMutability":"nonpayable"},{"type":"function","name":"completeRedemption","inputs":[{"name":"_redemptionNonce","type":"uint256","internalType":"uint256"}],"outputs":[],"stateMutability":"nonpayable"},{"type":"function","name":"concatenation","inputs":[{"name":"a","type":"string","internalType":"string"},{"name":"b","type":"string","internalType":"string"}],"outputs":[{"name":"","type":"string","internalType":"string"}],"stateMutability":"pure"},{"type":"function","name":"currentList","inputs":[{"name":"","type":"uint256","internalType":"uint256"}],"outputs":[{"name":"","type":"address","internalType":"address"}],"stateMutability":"view"},{"type":"function","name":"custodianWallet","inputs":[],"outputs":[{"name":"","type":"address","internalType":"address"}],"stateMutability":"view"},{"type":"function","name":"externalJobId","inputs":[],"outputs":[{"name":"","type":"bytes32","internalType":"bytes32"}],"stateMutability":"view"},{"type":"function","name":"feeRate","inputs":[],"outputs":[{"name":"","type":"uint8","internalType":"uint8"}],"stateMutability":"view"},{"type":"function","name":"fulfillAssetsData","inputs":[{"name":"requestId","type":"bytes32","internalType":"bytes32"},{"name":"_tokens","type":"address[]","internalType":"address[]"},{"name":"_marketShares","type":"uint256[]","internalType":"uint256[]"}],"outputs":[],"stateMutability":"nonpayable"},{"type":"function","name":"initialize","inputs":[{"name":"_issuer","type":"address","internalType":"address"},{"name":"_token","type":"address","internalType":"address"},{"name":"_vault","type":"address","internalType":"address"},{"name":"_usdc","type":"address","internalType":"address"},{"name":"_usdcDecimals","type":"uint8","internalType":"uint8"},{"name":"_chainlinkToken","type":"address","internalType":"address"},{"name":"_oracleAddress","type":"address","internalType":"address"},{"name":"_externalJobId","type":"bytes32","internalType":"bytes32"}],"outputs":[],"stateMutability":"nonpayable"},{"type":"function","name":"issuance","inputs":[{"name":"_inputAmount","type":"uint256","internalType":"uint256"}],"outputs":[],"stateMutability":"nonpayable"},{"type":"function","name":"issuanceIndexTokenPrimaryTotalSupply","inputs":[{"name":"","type":"uint256","internalType":"uint256"}],"outputs":[{"name":"","type":"uint256","internalType":"uint256"}],"stateMutability":"view"},{"type":"function","name":"issuanceNonce","inputs":[],"outputs":[{"name":"","type":"uint256","internalType":"uint256"}],"stateMutability":"view"},{"type":"function","name":"issuanceRequestId","inputs":[{"name":"","type":"uint256","internalType":"uint256"},{"name":"","type":"address","internalType":"address"}],"outputs":[{"name":"","type":"uint256","internalType":"uint256"}],"stateMutability":"view"},{"type":"function","name":"issuanceRequesterByNonce","inputs":[{"name":"","type":"uint256","internalType":"uint256"}],"outputs":[{"name":"","type":"address","internalType":"address"}],"stateMutability":"view"},{"type":"function","name":"issuanceTokenPrimaryBalance","inputs":[{"name":"","type":"uint256","internalType":"uint256"},{"name":"","type":"address","internalType":"address"}],"outputs":[{"name":"","type":"uint256","internalType":"uint256"}],"stateMutability":"view"},{"type":"function","name":"issuer","inputs":[],"outputs":[{"name":"","type":"address","internalType":"contract IOrderProcessor"}],"stateMutability":"view"},{"type":"function","name":"lastUpdateTime","inputs":[],"outputs":[{"name":"","type":"uint256","internalType":"uint256"}],"stateMutability":"view"},{"type":"function","name":"latestFeeUpdate","inputs":[],"outputs":[{"name":"","type":"uint256","internalType":"uint256"}],"stateMutability":"view"},{"type":"function","name":"mockFillAssetsList","inputs":[{"name":"_tokens","type":"address[]","internalType":"address[]"},{"name":"_marketShares","type":"uint256[]","internalType":"uint256[]"}],"outputs":[],"stateMutability":"nonpayable"},{"type":"function","name":"oracleList","inputs":[{"name":"","type":"uint256","internalType":"uint256"}],"outputs":[{"name":"","type":"address","internalType":"address"}],"stateMutability":"view"},{"type":"function","name":"oraclePayment","inputs":[],"outputs":[{"name":"","type":"uint256","internalType":"uint256"}],"stateMutability":"view"},{"type":"function","name":"owner","inputs":[],"outputs":[{"name":"","type":"address","internalType":"address"}],"stateMutability":"view"},{"type":"function","name":"pause","inputs":[],"outputs":[],"stateMutability":"nonpayable"},{"type":"function","name":"paused","inputs":[],"outputs":[{"name":"","type":"bool","internalType":"bool"}],"stateMutability":"view"},{"type":"function","name":"redemption","inputs":[{"name":"_inputAmount","type":"uint256","internalType":"uint256"}],"outputs":[],"stateMutability":"nonpayable"},{"type":"function","name":"redemptionIndexTokenPrimaryTotalSupply","inputs":[{"name":"","type":"uint256","internalType":"uint256"}],"outputs":[{"name":"","type":"uint256","internalType":"uint256"}],"stateMutability":"view"},{"type":"function","name":"redemptionNonce","inputs":[],"outputs":[{"name":"","type":"uint256","internalType":"uint256"}],"stateMutability":"view"},{"type":"function","name":"redemptionRequestId","inputs":[{"name":"","type":"uint256","internalType":"uint256"},{"name":"","type":"address","internalType":"address"}],"outputs":[{"name":"","type":"uint256","internalType":"uint256"}],"stateMutability":"view"},{"type":"function","name":"redemptionRequesterByNonce","inputs":[{"name":"","type":"uint256","internalType":"uint256"}],"outputs":[{"name":"","type":"address","internalType":"address"}],"stateMutability":"view"},{"type":"function","name":"redemptionTokenPrimaryBalance","inputs":[{"name":"","type":"uint256","internalType":"uint256"},{"name":"","type":"address","internalType":"address"}],"outputs":[{"name":"","type":"uint256","internalType":"uint256"}],"stateMutability":"view"},{"type":"function","name":"renounceOwnership","inputs":[],"outputs":[],"stateMutability":"nonpayable"},{"type":"function","name":"requestAssetsData","inputs":[],"outputs":[{"name":"","type":"bytes32","internalType":"bytes32"}],"stateMutability":"nonpayable"},{"type":"function","name":"sellRequestAssetAmountById","inputs":[{"name":"","type":"uint256","internalType":"uint256"}],"outputs":[{"name":"","type":"uint256","internalType":"uint256"}],"stateMutability":"view"},{"type":"function","name":"setCustodianWallet","inputs":[{"name":"_custodianWallet","type":"address","internalType":"address"}],"outputs":[{"name":"","type":"bool","internalType":"bool"}],"stateMutability":"nonpayable"},{"type":"function","name":"setFeeRate","inputs":[{"name":"_newFee","type":"uint8","internalType":"uint8"}],"outputs":[],"stateMutability":"nonpayable"},{"type":"function","name":"setIssuer","inputs":[{"name":"_issuer","type":"address","internalType":"address"}],"outputs":[{"name":"","type":"bool","internalType":"bool"}],"stateMutability":"nonpayable"},{"type":"function","name":"setOracleInfo","inputs":[{"name":"_oracleAddress","type":"address","internalType":"address"},{"name":"_externalJobId","type":"bytes32","internalType":"bytes32"}],"outputs":[],"stateMutability":"nonpayable"},{"type":"function","name":"setTokenAddress","inputs":[{"name":"_token","type":"address","internalType":"address"}],"outputs":[{"name":"","type":"bool","internalType":"bool"}],"stateMutability":"nonpayable"},{"type":"function","name":"setUrl","inputs":[{"name":"_beforeAddress","type":"string","internalType":"string"},{"name":"_afterAddress","type":"string","internalType":"string"}],"outputs":[],"stateMutability":"nonpayable"},{"type":"function","name":"setUsdcAddress","inputs":[{"name":"_usdc","type":"address","internalType":"address"},{"name":"_usdcDecimals","type":"uint8","internalType":"uint8"}],"outputs":[{"name":"","type":"bool","internalType":"bool"}],"stateMutability":"nonpayable"},{"type":"function","name":"token","inputs":[],"outputs":[{"name":"","type":"address","internalType":"contract IndexToken"}],"stateMutability":"view"},{"type":"function","name":"tokenCurrentListIndex","inputs":[{"name":"","type":"address","internalType":"address"}],"outputs":[{"name":"","type":"uint256","internalType":"uint256"}],"stateMutability":"view"},{"type":"function","name":"tokenCurrentMarketShare","inputs":[{"name":"","type":"address","internalType":"address"}],"outputs":[{"name":"","type":"uint256","internalType":"uint256"}],"stateMutability":"view"},{"type":"function","name":"tokenOracleListIndex","inputs":[{"name":"","type":"address","internalType":"address"}],"outputs":[{"name":"","type":"uint256","internalType":"uint256"}],"stateMutability":"view"},{"type":"function","name":"tokenOracleMarketShare","inputs":[{"name":"","type":"address","internalType":"address"}],"outputs":[{"name":"","type":"uint256","internalType":"uint256"}],"stateMutability":"view"},{"type":"function","name":"totalCurrentList","inputs":[],"outputs":[{"name":"","type":"uint256","internalType":"uint256"}],"stateMutability":"view"},{"type":"function","name":"totalOracleList","inputs":[],"outputs":[{"name":"","type":"uint256","internalType":"uint256"}],"stateMutability":"view"},{"type":"function","name":"transferOwnership","inputs":[{"name":"newOwner","type":"address","internalType":"address"}],"outputs":[],"stateMutability":"nonpayable"},{"type":"function","name":"unpause","inputs":[],"outputs":[],"stateMutability":"nonpayable"},{"type":"function","name":"usdc","inputs":[],"outputs":[{"name":"","type":"address","internalType":"address"}],"stateMutability":"view"},{"type":"function","name":"usdcDecimals","inputs":[],"outputs":[{"name":"","type":"uint8","internalType":"uint8"}],"stateMutability":"view"},{"type":"function","name":"vault","inputs":[],"outputs":[{"name":"","type":"address","internalType":"contract NexVault"}],"stateMutability":"view"},{"type":"event","name":"ChainlinkCancelled","inputs":[{"name":"id","type":"bytes32","indexed":true,"internalType":"bytes32"}],"anonymous":false},{"type":"event","name":"ChainlinkFulfilled","inputs":[{"name":"id","type":"bytes32","indexed":true,"internalType":"bytes32"}],"anonymous":false},{"type":"event","name":"ChainlinkRequested","inputs":[{"name":"id","type":"bytes32","indexed":true,"internalType":"bytes32"}],"anonymous":false},{"type":"event","name":"Initialized","inputs":[{"name":"version","type":"uint64","indexed":false,"internalType":"uint64"}],"anonymous":false},{"type":"event","name":"OwnershipTransferred","inputs":[{"name":"previousOwner","type":"address","indexed":true,"internalType":"address"},{"name":"newOwner","type":"address","indexed":true,"internalType":"address"}],"anonymous":false},{"type":"event","name":"Paused","inputs":[{"name":"account","type":"address","indexed":false,"internalType":"address"}],"anonymous":false},{"type":"event","name":"Unpaused","inputs":[{"name":"account","type":"address","indexed":false,"internalType":"address"}],"anonymous":false},{"type":"error","name":"EnforcedPause","inputs":[]},{"type":"error","name":"ExpectedPause","inputs":[]},{"type":"error","name":"InvalidInitialization","inputs":[]},{"type":"error","name":"NotInitializing","inputs":[]},{"type":"error","name":"OwnableInvalidOwner","inputs":[{"name":"owner","type":"address","internalType":"address"}]},{"type":"error","name":"OwnableUnauthorizedAccount","inputs":[{"name":"account","type":"address","internalType":"address"}]},{"type":"error","name":"PRBMath_MulDiv_Overflow","inputs":[{"name":"x","type":"uint256","internalType":"uint256"},{"name":"y","type":"uint256","internalType":"uint256"},{"name":"denominator","type":"uint256","internalType":"uint256"}]}],"bytecode":{"object":"0x6080604052348015600f57600080fd5b50613f638061001f6000396000f3fe608060405234801561001057600080fd5b506004361061038e5760003560e01c80638861d235116101de578063b1dd819e1161010f578063e19eefbe116100ad578063f2fde38b1161007c578063f2fde38b146108cc578063f513a718146108df578063fbfa77cf1461090a578063fc0c546a1461091d57600080fd5b8063e19eefbe14610880578063eab2a71114610893578063efa906c7146108a6578063f14bea20146108b957600080fd5b8063c8599ded116100e9578063c8599ded14610823578063c8f33c911461082c578063da65925a14610835578063daf1c17d1461086057600080fd5b8063b1dd819e146107c8578063b75f4c2c146107e7578063bed45bef1461081057600080fd5b80639cc0fb5b1161017c578063a73e1cbf11610156578063a73e1cbf14610779578063a87f98d21461078c578063a8b54bd4146107ac578063addc70d1146107b557600080fd5b80639cc0fb5b146107325780639dbb9c9e14610745578063a363b9cb1461074e57600080fd5b8063914f0cc6116101b8578063914f0cc6146106ac57806394674098146106cc578063978bbdb9146106f55780639932ba4c1461070957600080fd5b80638861d2351461063c5780638c88c10c1461065c5780638da5cb5b1461067c57600080fd5b806343482fc8116102c3578063715018a611610261578063840ecba011610230578063840ecba014610605578063845524f0146106185780638456cb591461062b57806384d77bb11461063357600080fd5b8063715018a6146105a657806378032658146105ae5780637bf42165146105d75780637ca58c55146105fd57600080fd5b80635177942a1161029d5780635177942a1461055f57806353fd43321461057257806355cc4e571461057b5780635c975abb1461058e57600080fd5b806343482fc8146105195780634a1dc0921461052c5780634b3e0b801461053f57600080fd5b8063239aad0d1161033057806326a4e8d21161030a57806326a4e8d2146104c257806331c99010146104d55780633e413bee146104fe5780633f4ba83a1461051157600080fd5b8063239aad0d14610459578063248b761e14610482578063264fa8b91461049757600080fd5b80630e3293571161036c5780630e329357146103d85780631d143848146103f85780631e106e99146104235780632371a4de1461043657600080fd5b8063011ced5f146103935780630be52713146103af5780630c02e130146103cf575b600080fd5b61039c60265481565b6040519081526020015b60405180910390f35b61039c6103bd36600461312d565b60116020526000908152604090205481565b61039c60095481565b6103eb6103e63660046131fd565b610930565b6040516103a691906132b0565b60165461040b906001600160a01b031681565b6040516001600160a01b0390911681526020016103a6565b60155461040b906001600160a01b031681565b6104496104443660046132c3565b61095d565b60405190151581526020016103a6565b61040b6104673660046132c3565b600d602052600090815260409020546001600160a01b031681565b6104956104903660046132c3565b610a5c565b005b61039c6104a53660046132dc565b601a60209081526000928352604080842090915290825290205481565b6104496104d036600461312d565b610db2565b61040b6104e33660046132c3565b6024602052600090815260409020546001600160a01b031681565b60175461040b906001600160a01b031681565b610495610e33565b610495610527366004613308565b610e45565b61049561053a3660046132c3565b610e5c565b61039c61054d36600461312d565b60126020526000908152604090205481565b61049561056d366004613343565b6112d6565b61039c600c5481565b61044961058936600461312d565b611420565b600080516020613f0e8339815191525460ff16610449565b61049561149e565b61040b6105bc3660046132c3565b6023602052600090815260409020546001600160a01b031681565b6017546105eb90600160a01b900460ff1681565b60405160ff90911681526020016103a6565b61039c6114b0565b6104956106133660046132c3565b6116f0565b6104496106263660046132c3565b611844565b610495611921565b61039c60195481565b61039c61064a3660046132c3565b601c6020526000908152604090205481565b61039c61066a36600461312d565b600f6020526000908152604090205481565b7f9016d09d72d40fdae2fd8ceac6b6234c7706214fd39c1cd1e609a0528c199300546001600160a01b031661040b565b61039c6106ba36600461312d565b60106020526000908152604090205481565b61040b6106da3660046132c3565b6022602052600090815260409020546001600160a01b031681565b6017546105eb90600160a81b900460ff1681565b61040b6107173660046132c3565b600e602052600090815260409020546001600160a01b031681565b61044961074036600461312d565b611931565b61039c60185481565b61039c61075c3660046132dc565b601f60209081526000928352604080842090915290825290205481565b6104956107873660046131fd565b6119b6565b61039c61079a3660046132c3565b601d6020526000908152604090205481565b61039c60085481565b6104956107c3366004613456565b6119dc565b61039c6107d63660046132c3565b602080526000908152604090205481565b61040b6107f53660046132c3565b6025602052600090815260409020546001600160a01b031681565b61049561081e3660046132c3565b6119f2565b61039c600b5481565b61039c600a5481565b61039c6108433660046132dc565b601e60209081526000928352604080842090915290825290205481565b61039c61086e3660046132c3565b60216020526000908152604090205481565b61039c61088e3660046132c3565b611d12565b6104496108a13660046134af565b611db2565b6104956108b43660046134d9565b611e3b565b6104956108c7366004613569565b6120ba565b6104956108da36600461312d565b612180565b61039c6108ed3660046132dc565b601b60209081526000928352604080842090915290825290205481565b60145461040b906001600160a01b031681565b60135461040b906001600160a01b031681565b606082826040516020016109459291906135d5565b60405160208183030381529060405290505b92915050565b60008060005b600c54811015610a3a576000818152600e6020908152604080832054878452601a83528184206001600160a01b039182168086529352928190205460165491516322fd455760e11b81526004810182905292939092600292909116906345fa8aae90602401602060405180830381865afa1580156109e5573d6000803e3d6000fd5b505050506040513d601f19601f82011682018060405250810190610a09919061361a565b6003811115610a1a57610a1a613604565b60ff1603610a3057610a2d600185613651565b93505b5050600101610963565b50600c548103610a4d5750600192915050565b50600092915050565b50919050565b6000610a6782611d12565b90506000610a758383613651565b6017546040516323b872dd60e01b81529192506001600160a01b0316906323b872dd90610aaa90339030908690600401613664565b6020604051808303816000875af1158015610ac9573d6000803e3d6000fd5b505050506040513d601f19601f82011682018060405250810190610aed9190613688565b5060175460165460405163095ea7b360e01b81526001600160a01b0391821660048201526024810184905291169063095ea7b3906044016020604051808303816000875af1158015610b43573d6000803e3d6000fd5b505050506040513d601f19601f82011682018060405250810190610b679190613688565b50600160186000828254610b7b9190613651565b92505081905550600030604051610b919061306b565b6001600160a01b039091168152602001604051809103906000f080158015610bbd573d6000803e3d6000fd5b50601854600090815260246020526040812080546001600160a01b0319166001600160a01b0384161790559091505b600c54811015610dab576000818152600e60209081526040808320546001600160a01b0316808452601190925282205490919068056bc75e2d6310000090610c3490896136aa565b610c3e91906136d7565b90506000610c4d8383876121be565b6000818152601c60209081526040808320869055601880548452601a83528184206001600160a01b038981168087529185528386208790559154855260229093529281902080546001600160a01b0319163317905560145490516370a0823160e01b8152921660048301529192506370a0823190602401602060405180830381865afa158015610ce1573d6000803e3d6000fd5b505050506040513d601f19601f82011682018060405250810190610d0591906136eb565b6018546000908152601e602090815260408083206001600160a01b038089168552908352928190209390935560135483516318160ddd60e01b815293519216926318160ddd92600480830193928290030181865afa158015610d6b573d6000803e3d6000fd5b505050506040513d601f19601f82011682018060405250810190610d8f91906136eb565b6018546000908152602080526040902055505050600101610bec565b5050505050565b6000610dbc612318565b6001600160a01b038216610e0f5760405162461bcd60e51b8152602060048201526015602482015274696e76616c696420746f6b656e206164647265737360581b60448201526064015b60405180910390fd5b50601380546001600160a01b0319166001600160a01b03831617905560015b919050565b610e3b612318565b610e43612373565b565b610e4d612318565b610e56826123d3565b60085550565b6013546040516323b872dd60e01b81526001600160a01b03909116906323b872dd90610e9090339030908690600401613664565b6020604051808303816000875af1158015610eaf573d6000803e3d6000fd5b505050506040513d601f19601f82011682018060405250810190610ed39190613688565b5060135460165460405163095ea7b360e01b81526001600160a01b0391821660048201526024810184905291169063095ea7b3906044016020604051808303816000875af1158015610f29573d6000803e3d6000fd5b505050506040513d601f19601f82011682018060405250810190610f4d9190613688565b50600160196000828254610f619190613651565b92505081905550600030604051610f779061306b565b6001600160a01b039091168152602001604051809103906000f080158015610fa3573d6000803e3d6000fd5b50601854600090815260256020908152604080832080546001600160a01b0319166001600160a01b038681169190911790915560135482516318160ddd60e01b8152925195965093949316926318160ddd926004808401939192918290030181865afa158015611017573d6000803e3d6000fd5b505050506040513d601f19601f8201168201806040525081019061103b91906136eb565b61104d84670de0b6b3a76400006136aa565b61105791906136d7565b601354604051632770a7eb60e21b8152336004820152602481018690529192506001600160a01b031690639dc29fac90604401600060405180830381600087803b1580156110a457600080fd5b505af11580156110b8573d6000803e3d6000fd5b5050505060005b600c548110156112d0576000818152600e60205260408082205490516370a0823160e01b81523060048201526001600160a01b039091169190670de0b6b3a76400009083906370a0823190602401602060405180830381865afa15801561112a573d6000803e3d6000fd5b505050506040513d601f19601f8201168201806040525081019061114e91906136eb565b61115890866136aa565b61116291906136d7565b905060006111718383886123f5565b6000818152601d60209081526040808320869055601980548452601b83528184206001600160a01b038981168087529185528386208790559154855260239093529281902080546001600160a01b0319163317905560145490516370a0823160e01b8152921660048301529192506370a0823190602401602060405180830381865afa158015611205573d6000803e3d6000fd5b505050506040513d601f19601f8201168201806040525081019061122991906136eb565b6019546000908152601f602090815260408083206001600160a01b038089168552908352928190209390935560135483516318160ddd60e01b815293519216926318160ddd92600480830193928290030181865afa15801561128f573d6000803e3d6000fd5b505050506040513d601f19601f820116820180604052508101906112b391906136eb565b6019546000908152602160205260409020555050506001016110bf565b50505050565b6112de612318565b6000602654426112ee9190613704565b9050600c603c6112fe81846136d7565b61130891906136d7565b1161137b5760405162461bcd60e51b815260206004820152603960248201527f596f752073686f756c642077616974206174206c6561737420313220686f757260448201527f7320616674657220746865206c617465737420757064617465000000000000006064820152608401610e06565b60648260ff1611158015611393575060018260ff1610155b6113fb5760405162461bcd60e51b815260206004820152603360248201527f546865206e65774665652073686f756c64206265206265747765656e203120616044820152726e64203130302028302e303125202d2031252960681b6064820152608401610e06565b506017805460ff909216600160a81b0260ff60a81b1990921691909117905542602655565b600061142a612318565b6001600160a01b0382166114795760405162461bcd60e51b8152602060048201526016602482015275696e76616c696420697373756572206164647265737360501b6044820152606401610e06565b50601680546001600160a01b0383166001600160a01b03199091161790556001919050565b6114a6612318565b610e43600061249e565b6000806115d1600680546114c390613717565b80601f01602080910402602001604051908101604052809291908181526020018280546114ef90613717565b801561153c5780601f106115115761010080835404028352916020019161153c565b820191906000526020600020905b81548152906001019060200180831161151f57829003601f168201915b50505050506007805461154e90613717565b80601f016020809104026020016040519081016040528092919081815260200182805461157a90613717565b80156115c75780601f1061159c576101008083540402835291602001916115c7565b820191906000526020600020905b8154815290600101906020018083116115aa57829003601f168201915b5050505050610930565b905060006115e96008543063f14bea2060e01b61250f565b60408051808201909152600381526219d95d60ea1b60208201529091506116129082908461252b565b61166d60405180604001604052806005815260200164706174683160d81b81525060405180604001604052806011815260200170726573756c74732c61646472657373657360781b8152508361252b9092919063ffffffff16565b6116cb604051806040016040528060058152602001643830ba341960d91b81525060405180604001604052806014815260200173726573756c74732c6d61726b657453686172657360601b8152508361252b9092919063ffffffff16565b6116e96116e06003546001600160a01b031690565b82600954612549565b9250505090565b6116f981611844565b6117455760405162461bcd60e51b815260206004820152601860248201527f526564656d7074696f6e206e6f7420636f6d706c6574656400000000000000006044820152606401610e06565b60008181526023602090815260408083205460259092528083205460175491516370a0823160e01b81526001600160a01b0391821660048201819052938216949291909116906370a0823190602401602060405180830381865afa1580156117b1573d6000803e3d6000fd5b505050506040513d601f19601f820116820180604052508101906117d591906136eb565b6017546040516317ee7de960e11b81529192506001600160a01b0380851692632fdcfbd29261180c92169087908690600401613664565b600060405180830381600087803b15801561182657600080fd5b505af115801561183a573d6000803e3d6000fd5b5050505050505050565b60008060005b600c54811015610a3a576000818152600e6020908152604080832054878452601b83528184206001600160a01b039182168086529352928190205460165491516322fd455760e11b81526004810182905292939092600292909116906345fa8aae90602401602060405180830381865afa1580156118cc573d6000803e3d6000fd5b505050506040513d601f19601f820116820180604052508101906118f0919061361a565b600381111561190157611901613604565b60ff160361191757611914600185613651565b93505b505060010161184a565b611929612318565b610e436125d2565b600061193b612318565b6001600160a01b0382166119915760405162461bcd60e51b815260206004820181905260248201527f696e76616c696420637573746f6469616e2077616c6c657420616464726573736044820152606401610e06565b50601580546001600160a01b0383166001600160a01b03199091161790556001919050565b6119be612318565b60066119ca838261379b565b5060076119d7828261379b565b505050565b6119e4612318565b6119ee828261261b565b5050565b6119fb8161095d565b611a405760405162461bcd60e51b8152602060048201526016602482015275125cdcdd585b98d9481b9bdd0818dbdb5c1b195d195960521b6044820152606401610e06565b6000818152602260205260408120546001600160a01b03169080805b600c54811015611c6e576000818152600e6020908152604080832054888452601a83528184206001600160a01b03918216808652935281842054601654601754935163a377cfbf60e01b815260048101869052938316602485015293949093909291169063a377cfbf906044016040805180830381865afa158015611ae5573d6000803e3d6000fd5b505050506040513d601f19601f82011682018060405250810190611b09919061385a565b60008981526024602081905260408083205490516370a0823160e01b81526001600160a01b0391821660048201819052949550908716916370a082319101602060405180830381865afa158015611b64573d6000803e3d6000fd5b505050506040513d601f19601f82011682018060405250810190611b8891906136eb565b60008b8152601e602090815260408083206001600160a01b038a168452909152812054855192935091611bbb90836136aa565b6000878152601c602052604081205491925090611bd89083613651565b9050611be4828c613651565b9a50611bf0818b613651565b6014546040516317ee7de960e11b8152919b506001600160a01b0380881692632fdcfbd292611c28928d929116908990600401613664565b600060405180830381600087803b158015611c4257600080fd5b505af1158015611c56573d6000803e3d6000fd5b50506001909a019950611a5c98505050505050505050565b5060008481526020805260408120549083611c8984846136aa565b611c9391906136d7565b90506000611ca18383613704565b6013546040516340c10f1960e01b81526001600160a01b038981166004830152602482018490529293509116906340c10f1990604401600060405180830381600087803b158015611cf157600080fd5b505af1158015611d05573d6000803e3d6000fd5b5050505050505050505050565b6016546017546040516308da5c3560e21b81526000600482018190526001600160a01b039283166024830152928392839291169063236970d4906044016040805180830381865afa158015611d6b573d6000803e3d6000fd5b505050506040513d601f19601f82011682018060405250810190611d8f91906138b9565b915091506000611d9f828661283c565b611da99084613651565b95945050505050565b6000611dbc612318565b6001600160a01b038316611e0a5760405162461bcd60e51b8152602060048201526015602482015274696e76616c696420746f6b656e206164647265737360581b6044820152606401610e06565b506017805460ff8316600160a01b026001600160a81b03199091166001600160a01b03851617179055600192915050565b7ff0c57e16840df040f15088dc2f81fe391c3923bec73e23a9662efc9c229c6a008054600160401b810460ff1615906001600160401b0316600081158015611e805750825b90506000826001600160401b03166001148015611e9c5750303b155b905081158015611eaa575080155b15611ec85760405163f92ee8a960e01b815260040160405180910390fd5b845467ffffffffffffffff191660011785558315611ef257845460ff60401b1916600160401b1785555b8c601660006101000a8154816001600160a01b0302191690836001600160a01b031602179055508b601360006101000a8154816001600160a01b0302191690836001600160a01b031602179055508a601460006101000a8154816001600160a01b0302191690836001600160a01b0316021790555089601760006101000a8154816001600160a01b0302191690836001600160a01b0316021790555088601760146101000a81548160ff021916908360ff160217905550611fb233612865565b611fba612876565b6017805460ff60a81b1916600560a91b179055600280546001600160a01b0319166001600160a01b038a16179055611ff1876123d3565b6008869055600a61200b670de0b6b3a764000060016136aa565b61201591906136d7565b6009556040805160608101909152602a808252613eb6602083013960069061203d908261379b565b506040518060600160405280602e8152602001613ee0602e9139600790612064908261379b565b5083156120ab57845460ff60401b19168555604051600181527fc7f505b2f371ae2175ee4913f4499e1f2633a7b5936321eed1cdaeb6115181d29060200160405180910390a15b50505050505050505050505050565b60008381526005602052604090205483906001600160a01b031633146121335760405162461bcd60e51b815260206004820152602860248201527f536f75726365206d75737420626520746865206f7261636c65206f6620746865604482015267081c995c5d595cdd60c21b6064820152608401610e06565b60008181526005602052604080822080546001600160a01b03191690555182917f7cc135e0cebb02c3480ae5d74d377283180a2601f8f644edf7987b009316c63a91a26112d0838361261b565b612188612318565b6001600160a01b0381166121b257604051631e4fbdf760e01b815260006004820152602401610e06565b6121bb8161249e565b50565b6016546017546040516308da5c3560e21b81526000600482018190526001600160a01b039283166024830152928392839291169063236970d4906044016040805180830381865afa158015612217573d6000803e3d6000fd5b505050506040513d601f19601f8201168201806040525081019061223b91906138b9565b91509150600061224b828761283c565b6122559084613651565b905060006122636000612886565b6001600160a01b0380881660208301528916604082015260e081018890529050600061228f8389613651565b60165460405163aa2165f160e01b81529192506000916001600160a01b039091169063aa2165f1906122c5908690600401613915565b6020604051808303816000875af11580156122e4573d6000803e3d6000fd5b505050506040513d601f19601f8201168201806040525081019061230891906136eb565b96505050505050505b9392505050565b3361234a7f9016d09d72d40fdae2fd8ceac6b6234c7706214fd39c1cd1e609a0528c199300546001600160a01b031690565b6001600160a01b031614610e435760405163118cdaa760e01b8152336004820152602401610e06565b61237b61293d565b600080516020613f0e833981519152805460ff191681557f5db9ee0a495bf2e6ff9c91a7834c1ba4fdd244a5e8aa4e537bd38aeae4b073aa335b6040516001600160a01b03909116815260200160405180910390a150565b600380546001600160a01b0319166001600160a01b0392909216919091179055565b6000806124026001612886565b6001600160a01b0380871660408084019190915260c083018790528582166020840152601654905163aa2165f160e01b815292935060009291169063aa2165f190612451908590600401613915565b6020604051808303816000875af1158015612470573d6000803e3d6000fd5b505050506040513d601f19601f8201168201806040525081019061249491906136eb565b9695505050505050565b7f9016d09d72d40fdae2fd8ceac6b6234c7706214fd39c1cd1e609a0528c19930080546001600160a01b031981166001600160a01b03848116918217845560405192169182907f8be0079c531659141344cd1fd0a4f28419497f9722a3daafe3b4186f6b6457e090600090a3505050565b612517613078565b61251f613078565b611da98186868661296d565b608083015161253a90836129b3565b60808301516119d790826129b3565b60045460009061255a816001613651565b600455835160408086015160808701515191516000936320214ca360e11b936125929386938493923092918a916001916024016139da565b60408051601f198184030181529190526020810180516001600160e01b03166001600160e01b0319909316929092179091529050612494868386846129ca565b6125da612b28565b600080516020613f0e833981519152805460ff191660011781557f62e78cea01bee320cd4e420270b5ea74000d11b0c9f74754ebdbfc544b05a258336123b5565b818160005b825181101561281c5782818151811061263b5761263b613a42565b6020026020010151600d600083815260200190815260200160002060006101000a8154816001600160a01b0302191690836001600160a01b0316021790555080600f600085848151811061269157612691613a42565b60200260200101516001600160a01b03166001600160a01b03168152602001908152602001600020819055508181815181106126cf576126cf613a42565b6020026020010151601260008584815181106126ed576126ed613a42565b60200260200101516001600160a01b03166001600160a01b0316815260200190815260200160002081905550600c546000036128145782818151811061273557612735613a42565b6020026020010151600e600083815260200190815260200160002060006101000a8154816001600160a01b0302191690836001600160a01b0316021790555081818151811061278657612786613a42565b6020026020010151601160008584815181106127a4576127a4613a42565b60200260200101516001600160a01b03166001600160a01b031681526020019081526020016000208190555080601060008584815181106127e7576127e7613a42565b60200260200101516001600160a01b03166001600160a01b03168152602001908152602001600020819055505b600101612620565b508151600b55600c54600003612832578151600c555b505042600a555050565b60008262ffffff16600003612852576000612311565b6123118262ffffff8516620f4240612b59565b61286d612c2d565b6121bb81612c76565b61287e612c2d565b610e43612c7e565b61288e6130b8565b60408051610140810182526001600160401b03421681523060208201526013546001600160a01b03908116928201929092526017549091166060820152821515608082015260a0810160008152602001836128ea5760006128f5565b68056bc75e2d631000005b68ffffffffffffffffff168152602001836129195768056bc75e2d6310000061291c565b60005b68ffffffffffffffffff168152600060208201526040016001905292915050565b600080516020613f0e8339815191525460ff16610e4357604051638dfc202b60e01b815260040160405180910390fd5b612975613078565b6129858560800151610100612c9f565b50508284526001600160a01b03821660208501526001600160e01b031981166040850152835b949350505050565b6129c08260038351612d04565b6119d78282612e0b565b6040516bffffffffffffffffffffffff193060601b1660208201526034810184905260009060540160408051808303601f1901815282825280516020918201206000818152600590925291812080546001600160a01b0319166001600160a01b038a1617905590925082917fb5e6e01e79f91267dc17b4e6314d5d4d03593d2ceee0fbb452b750bd70ea5af99190a2600254604051630200057560e51b81526001600160a01b0390911690634000aea090612a8d90889087908790600401613a58565b6020604051808303816000875af1158015612aac573d6000803e3d6000fd5b505050506040513d601f19601f82011682018060405250810190612ad09190613688565b6129ab5760405162461bcd60e51b815260206004820152602360248201527f756e61626c6520746f207472616e73666572416e6443616c6c20746f206f7261604482015262636c6560e81b6064820152608401610e06565b600080516020613f0e8339815191525460ff1615610e435760405163d93c066560e01b815260040160405180910390fd5b6000808060001985870985870292508281108382030391505080600003612b9357838281612b8957612b896136c1565b0492505050612311565b838110612bc457604051630c740aef60e31b8152600481018790526024810186905260448101859052606401610e06565b60008486880960026001871981018816978890046003810283188082028403028082028403028082028403028082028403028082028403029081029092039091026000889003889004909101858311909403939093029303949094049190911702949350505050565b7ff0c57e16840df040f15088dc2f81fe391c3923bec73e23a9662efc9c229c6a0054600160401b900460ff16610e4357604051631afcd79f60e31b815260040160405180910390fd5b612188612c2d565b612c86612c2d565b600080516020613f0e833981519152805460ff19169055565b604080518082019091526060815260006020820152612cbf602083613a7f565b15612ce757612ccf602083613a7f565b612cda906020613704565b612ce49083613651565b91505b506020828101829052604080518085526000815290920101905290565b6017816001600160401b031611612d28576112d08360e0600585901b168317612e32565b60ff816001600160401b031611612d6457612d4e836018611fe0600586901b1617612e32565b506112d0836001600160401b0383166001612e57565b61ffff816001600160401b031611612da157612d8b836019611fe0600586901b1617612e32565b506112d0836001600160401b0383166002612e57565b63ffffffff816001600160401b031611612de057612dca83601a611fe0600586901b1617612e32565b506112d0836001600160401b0383166004612e57565b612df583601b611fe0600586901b1617612e32565b506112d0836001600160401b0383166008612e57565b60408051808201909152606081526000602082015261231183846000015151848551612e7d565b6040805180820190915260608152600060208201526123118384600001515184612f67565b6040805180820190915260608152600060208201526129ab848560000151518585612fc2565b6040805180820190915260608152600060208201528251821115612ea057600080fd5b6020850151612eaf8386613651565b1115612ee257612ee285612ed287602001518786612ecd9190613651565b613043565b612edd9060026136aa565b613054565b600080865180518760208301019350808887011115612f015787860182525b505050602084015b60208410612f415780518252612f20602083613651565b9150612f2d602082613651565b9050612f3a602085613704565b9350612f09565b51815160001960208690036101000a019081169019919091161790525083949350505050565b60408051808201909152606081526000602082015283602001518310612f9c57612f9c8485602001516002612edd91906136aa565b8351805160208583010184815350808503612fb8576001810182525b5093949350505050565b6040805180820190915260608152600060208201526020850151612fe68584613651565b1115612ffa57612ffa85612ed28685613651565b6000600161300a84610100613b77565b6130149190613704565b90508551838682010185831982511617815250805184870111156130385783860181525b509495945050505050565b600081831115610a56575081610957565b81516130608383612c9f565b506112d08382612e0b565b61033280613b8483390190565b6040805160a0810182526000808252602080830182905282840182905260608084018390528451808601909552845283015290608082015290565b905290565b604080516101408101825260008082526020820181905291810182905260608101829052608081018290529060a08201908152602001600081526020016000815260200160008152602001600060038111156130b3576130b3613604565b80356001600160a01b0381168114610e2e57600080fd5b60006020828403121561313f57600080fd5b61231182613116565b634e487b7160e01b600052604160045260246000fd5b604051601f8201601f191681016001600160401b038111828210171561318657613186613148565b604052919050565b600082601f83011261319f57600080fd5b81356001600160401b038111156131b8576131b8613148565b6131cb601f8201601f191660200161315e565b8181528460208386010111156131e057600080fd5b816020850160208301376000918101602001919091529392505050565b6000806040838503121561321057600080fd5b82356001600160401b038082111561322757600080fd5b6132338683870161318e565b9350602085013591508082111561324957600080fd5b506132568582860161318e565b9150509250929050565b60005b8381101561327b578181015183820152602001613263565b50506000910152565b6000815180845261329c816020860160208601613260565b601f01601f19169290920160200192915050565b6020815260006123116020830184613284565b6000602082840312156132d557600080fd5b5035919050565b600080604083850312156132ef57600080fd5b823591506132ff60208401613116565b90509250929050565b6000806040838503121561331b57600080fd5b61332483613116565b946020939093013593505050565b803560ff81168114610e2e57600080fd5b60006020828403121561335557600080fd5b61231182613332565b60006001600160401b0382111561337757613377613148565b5060051b60200190565b600082601f83011261339257600080fd5b813560206133a76133a28361335e565b61315e565b8083825260208201915060208460051b8701019350868411156133c957600080fd5b602086015b848110156133ec576133df81613116565b83529183019183016133ce565b509695505050505050565b600082601f83011261340857600080fd5b813560206134186133a28361335e565b8083825260208201915060208460051b87010193508684111561343a57600080fd5b602086015b848110156133ec578035835291830191830161343f565b6000806040838503121561346957600080fd5b82356001600160401b038082111561348057600080fd5b61348c86838701613381565b935060208501359150808211156134a257600080fd5b50613256858286016133f7565b600080604083850312156134c257600080fd5b6134cb83613116565b91506132ff60208401613332565b600080600080600080600080610100898b0312156134f657600080fd5b6134ff89613116565b975061350d60208a01613116565b965061351b60408a01613116565b955061352960608a01613116565b945061353760808a01613332565b935061354560a08a01613116565b925061355360c08a01613116565b915060e089013590509295985092959890939650565b60008060006060848603121561357e57600080fd5b8335925060208401356001600160401b038082111561359c57600080fd5b6135a887838801613381565b935060408601359150808211156135be57600080fd5b506135cb868287016133f7565b9150509250925092565b600083516135e7818460208801613260565b8351908301906135fb818360208801613260565b01949350505050565b634e487b7160e01b600052602160045260246000fd5b60006020828403121561362c57600080fd5b81516004811061231157600080fd5b634e487b7160e01b600052601160045260246000fd5b808201808211156109575761095761363b565b6001600160a01b039384168152919092166020820152604081019190915260600190565b60006020828403121561369a57600080fd5b8151801515811461231157600080fd5b80820281158282048414176109575761095761363b565b634e487b7160e01b600052601260045260246000fd5b6000826136e6576136e66136c1565b500490565b6000602082840312156136fd57600080fd5b5051919050565b818103818111156109575761095761363b565b600181811c9082168061372b57607f821691505b602082108103610a5657634e487b7160e01b600052602260045260246000fd5b601f8211156119d7576000816000526020600020601f850160051c810160208610156137745750805b601f850160051c820191505b8181101561379357828155600101613780565b505050505050565b81516001600160401b038111156137b4576137b4613148565b6137c8816137c28454613717565b8461374b565b602080601f8311600181146137fd57600084156137e55750858301515b600019600386901b1c1916600185901b178555613793565b600085815260208120601f198616915b8281101561382c5788860151825594840194600190910190840161380d565b508582101561384a5787850151600019600388901b60f8161c191681555b5050505050600190811b01905550565b60006040828403121561386c57600080fd5b604051604081016001600160401b03828210818311171561388f5761388f613148565b81604052845183526020850151915080821682146138ac57600080fd5b5060208201529392505050565b600080604083850312156138cc57600080fd5b82519150602083015162ffffff811681146138e657600080fd5b809150509250929050565b6002811061390157613901613604565b9052565b6004811061390157613901613604565b81516001600160401b031681526101408101602083015161394160208401826001600160a01b03169052565b50604083015161395c60408401826001600160a01b03169052565b50606083015161397760608401826001600160a01b03169052565b50608083015161398b608084018215159052565b5060a083015161399e60a08401826138f1565b5060c083015160c083015260e083015160e0830152610100808401518184015250610120808401516139d282850182613905565b505092915050565b6001600160a01b0389811682526020820189905260408201889052861660608201526001600160e01b03198516608082015260a0810184905260c0810183905261010060e08201819052600090613a3383820185613284565b9b9a5050505050505050505050565b634e487b7160e01b600052603260045260246000fd5b60018060a01b0384168152826020820152606060408201526000611da96060830184613284565b600082613a8e57613a8e6136c1565b500690565b600181815b80851115613ace578160001904821115613ab457613ab461363b565b80851615613ac157918102915b93841c9390800290613a98565b509250929050565b600082613ae557506001610957565b81613af257506000610957565b8160018114613b085760028114613b1257613b2e565b6001915050610957565b60ff841115613b2357613b2361363b565b50506001821b610957565b5060208310610133831016604e8410600b8410161715613b51575081810a610957565b613b5b8383613a93565b8060001904821115613b6f57613b6f61363b565b029392505050565b60006123118383613ad656fe6080604052348015600f57600080fd5b50604051610332380380610332833981016040819052602c916050565b600080546001600160a01b0319166001600160a01b0392909216919091179055607e565b600060208284031215606157600080fd5b81516001600160a01b0381168114607757600080fd5b9392505050565b6102a58061008d6000396000f3fe608060405234801561001057600080fd5b50600436106100415760003560e01c806313af4035146100465780632fdcfbd21461005b5780638da5cb5b1461006e575b600080fd5b6100596100543660046101ef565b61009d565b005b610059610069366004610211565b61010f565b600054610081906001600160a01b031681565b6040516001600160a01b03909116815260200160405180910390f35b6000546001600160a01b031633146100ed5760405162461bcd60e51b815260206004820152600e60248201526d139bdd08185d5d1a1bdc9a5e995960921b60448201526064015b60405180910390fd5b600080546001600160a01b0319166001600160a01b0392909216919091179055565b6000546001600160a01b0316331461015a5760405162461bcd60e51b815260206004820152600e60248201526d139bdd08185d5d1a1bdc9a5e995960921b60448201526064016100e4565b60405163a9059cbb60e01b81526001600160a01b0383811660048301526024820183905284169063a9059cbb906044016020604051808303816000875af11580156101a9573d6000803e3d6000fd5b505050506040513d601f19601f820116820180604052508101906101cd919061024d565b50505050565b80356001600160a01b03811681146101ea57600080fd5b919050565b60006020828403121561020157600080fd5b61020a826101d3565b9392505050565b60008060006060848603121561022657600080fd5b61022f846101d3565b925061023d602085016101d3565b9150604084013590509250925092565b60006020828403121561025f57600080fd5b8151801515811461020a57600080fdfea2646970667358221220502fe3cef5472467ba27d3f0af8cc13ea970369ac0d01284025186802306355064736f6c6343000819003368747470733a2f2f6170702e6e65786c6162732e696f2f6170692f616c6c46756e64696e6752617465733f6d756c7469706c7946756e633d31382674696d65734e656746756e643d74727565266172726179733d74727565cd5ed15c6e187e77e9aee88184c21f4f2182ab5827cb3b7e07fbedcd63f03300a2646970667358221220248c9115854335d51fdd7c9547f803aeebc97ef495855039ff2d18838d2dfb6064736f6c63430008190033","linkReferences":{}},"methodIdentifiers":{"buyRequestPayedAmountById(uint256)":"8861d235","calculateIssuanceFee(uint256)":"e19eefbe","checkIssuance(uint256)":"2371a4de","checkRedemption(uint256)":"845524f0","coaByIssuanceNonce(uint256)":"31c99010","coaByRedemptionNonce(uint256)":"b75f4c2c","completeIssuance(uint256)":"bed45bef","completeRedemption(uint256)":"840ecba0","concatenation(string,string)":"0e329357","currentList(uint256)":"9932ba4c","custodianWallet()":"1e106e99","externalJobId()":"a8b54bd4","feeRate()":"978bbdb9","fulfillAssetsData(bytes32,address[],uint256[])":"f14bea20","initialize(address,address,address,address,uint8,address,address,bytes32)":"efa906c7","issuance(uint256)":"248b761e","issuanceIndexTokenPrimaryTotalSupply(uint256)":"b1dd819e","issuanceNonce()":"9dbb9c9e","issuanceRequestId(uint256,address)":"264fa8b9","issuanceRequesterByNonce(uint256)":"94674098","issuanceTokenPrimaryBalance(uint256,address)":"da65925a","issuer()":"1d143848","lastUpdateTime()":"c8f33c91","latestFeeUpdate()":"011ced5f","mockFillAssetsList(address[],uint256[])":"addc70d1","oracleList(uint256)":"239aad0d","oraclePayment()":"0c02e130","owner()":"8da5cb5b","pause()":"8456cb59","paused()":"5c975abb","redemption(uint256)":"4a1dc092","redemptionIndexTokenPrimaryTotalSupply(uint256)":"daf1c17d","redemptionNonce()":"84d77bb1","redemptionRequestId(uint256,address)":"f513a718","redemptionRequesterByNonce(uint256)":"78032658","redemptionTokenPrimaryBalance(uint256,address)":"a363b9cb","renounceOwnership()":"715018a6","requestAssetsData()":"7ca58c55","sellRequestAssetAmountById(uint256)":"a87f98d2","setCustodianWallet(address)":"9cc0fb5b","setFeeRate(uint8)":"5177942a","setIssuer(address)":"55cc4e57","setOracleInfo(address,bytes32)":"43482fc8","setTokenAddress(address)":"26a4e8d2","setUrl(string,string)":"a73e1cbf","setUsdcAddress(address,uint8)":"eab2a711","token()":"fc0c546a","tokenCurrentListIndex(address)":"914f0cc6","tokenCurrentMarketShare(address)":"0be52713","tokenOracleListIndex(address)":"8c88c10c","tokenOracleMarketShare(address)":"4b3e0b80","totalCurrentList()":"53fd4332","totalOracleList()":"c8599ded","transferOwnership(address)":"f2fde38b","unpause()":"3f4ba83a","usdc()":"3e413bee","usdcDecimals()":"7bf42165","vault()":"fbfa77cf"},"id":16}