{"abi":[{"type":"function","name":"burnRequestNonce","inputs":[{"name":"","type":"bytes32","internalType":"bytes32"}],"outputs":[{"name":"","type":"uint256","internalType":"uint256"}],"stateMutability":"view"},{"type":"function","name":"concatenation","inputs":[{"name":"a","type":"string","internalType":"string"},{"name":"b","type":"string","internalType":"string"}],"outputs":[{"name":"","type":"string","internalType":"string"}],"stateMutability":"pure"},{"type":"function","name":"currentList","inputs":[{"name":"","type":"uint256","internalType":"uint256"}],"outputs":[{"name":"","type":"address","internalType":"address"}],"stateMutability":"view"},{"type":"function","name":"custodianWallet","inputs":[],"outputs":[{"name":"","type":"address","internalType":"address"}],"stateMutability":"view"},{"type":"function","name":"externalJobId","inputs":[],"outputs":[{"name":"","type":"bytes32","internalType":"bytes32"}],"stateMutability":"view"},{"type":"function","name":"feeRate","inputs":[],"outputs":[{"name":"","type":"uint8","internalType":"uint8"}],"stateMutability":"view"},{"type":"function","name":"fulfillAssetsData","inputs":[{"name":"requestId","type":"bytes32","internalType":"bytes32"},{"name":"_tokens","type":"address[]","internalType":"address[]"},{"name":"_marketShares","type":"uint256[]","internalType":"uint256[]"}],"outputs":[],"stateMutability":"nonpayable"},{"type":"function","name":"initialize","inputs":[{"name":"_issuer","type":"address","internalType":"address"},{"name":"_token","type":"address","internalType":"address"},{"name":"_usdc","type":"address","internalType":"address"},{"name":"_usdcDecimals","type":"uint8","internalType":"uint8"},{"name":"_chainlinkToken","type":"address","internalType":"address"},{"name":"_oracleAddress","type":"address","internalType":"address"},{"name":"_externalJobId","type":"bytes32","internalType":"bytes32"}],"outputs":[],"stateMutability":"nonpayable"},{"type":"function","name":"issuer","inputs":[],"outputs":[{"name":"","type":"address","internalType":"address"}],"stateMutability":"view"},{"type":"function","name":"lastUpdateTime","inputs":[],"outputs":[{"name":"","type":"uint256","internalType":"uint256"}],"stateMutability":"view"},{"type":"function","name":"latestFeeUpdate","inputs":[],"outputs":[{"name":"","type":"uint256","internalType":"uint256"}],"stateMutability":"view"},{"type":"function","name":"mintRequestNonce","inputs":[{"name":"","type":"bytes32","internalType":"bytes32"}],"outputs":[{"name":"","type":"uint256","internalType":"uint256"}],"stateMutability":"view"},{"type":"function","name":"mockFillAssetsList","inputs":[{"name":"_tokens","type":"address[]","internalType":"address[]"},{"name":"_marketShares","type":"uint256[]","internalType":"uint256[]"}],"outputs":[],"stateMutability":"nonpayable"},{"type":"function","name":"oracleList","inputs":[{"name":"","type":"uint256","internalType":"uint256"}],"outputs":[{"name":"","type":"address","internalType":"address"}],"stateMutability":"view"},{"type":"function","name":"oraclePayment","inputs":[],"outputs":[{"name":"","type":"uint256","internalType":"uint256"}],"stateMutability":"view"},{"type":"function","name":"orderManager","inputs":[],"outputs":[{"name":"","type":"address","internalType":"contract OrderManager"}],"stateMutability":"view"},{"type":"function","name":"owner","inputs":[],"outputs":[{"name":"","type":"address","internalType":"address"}],"stateMutability":"view"},{"type":"function","name":"pause","inputs":[],"outputs":[],"stateMutability":"nonpayable"},{"type":"function","name":"paused","inputs":[],"outputs":[{"name":"","type":"bool","internalType":"bool"}],"stateMutability":"view"},{"type":"function","name":"renounceOwnership","inputs":[],"outputs":[],"stateMutability":"nonpayable"},{"type":"function","name":"requestAssetsData","inputs":[],"outputs":[{"name":"","type":"bytes32","internalType":"bytes32"}],"stateMutability":"nonpayable"},{"type":"function","name":"setCustodianWallet","inputs":[{"name":"_custodianWallet","type":"address","internalType":"address"}],"outputs":[{"name":"","type":"bool","internalType":"bool"}],"stateMutability":"nonpayable"},{"type":"function","name":"setFeeRate","inputs":[{"name":"_newFee","type":"uint8","internalType":"uint8"}],"outputs":[],"stateMutability":"nonpayable"},{"type":"function","name":"setIssuer","inputs":[{"name":"_issuer","type":"address","internalType":"address"}],"outputs":[{"name":"","type":"bool","internalType":"bool"}],"stateMutability":"nonpayable"},{"type":"function","name":"setOracleInfo","inputs":[{"name":"_oracleAddress","type":"address","internalType":"address"},{"name":"_externalJobId","type":"bytes32","internalType":"bytes32"}],"outputs":[],"stateMutability":"nonpayable"},{"type":"function","name":"setTokenAddress","inputs":[{"name":"_token","type":"address","internalType":"address"}],"outputs":[{"name":"","type":"bool","internalType":"bool"}],"stateMutability":"nonpayable"},{"type":"function","name":"setUrl","inputs":[{"name":"_beforeAddress","type":"string","internalType":"string"},{"name":"_afterAddress","type":"string","internalType":"string"}],"outputs":[],"stateMutability":"nonpayable"},{"type":"function","name":"setUsdcAddress","inputs":[{"name":"_usdc","type":"address","internalType":"address"},{"name":"_usdcDecimals","type":"uint8","internalType":"uint8"}],"outputs":[{"name":"","type":"bool","internalType":"bool"}],"stateMutability":"nonpayable"},{"type":"function","name":"token","inputs":[],"outputs":[{"name":"","type":"address","internalType":"contract IndexToken"}],"stateMutability":"view"},{"type":"function","name":"tokenCurrentListIndex","inputs":[{"name":"","type":"address","internalType":"address"}],"outputs":[{"name":"","type":"uint256","internalType":"uint256"}],"stateMutability":"view"},{"type":"function","name":"tokenCurrentMarketShare","inputs":[{"name":"","type":"address","internalType":"address"}],"outputs":[{"name":"","type":"uint256","internalType":"uint256"}],"stateMutability":"view"},{"type":"function","name":"tokenOracleListIndex","inputs":[{"name":"","type":"address","internalType":"address"}],"outputs":[{"name":"","type":"uint256","internalType":"uint256"}],"stateMutability":"view"},{"type":"function","name":"tokenOracleMarketShare","inputs":[{"name":"","type":"address","internalType":"address"}],"outputs":[{"name":"","type":"uint256","internalType":"uint256"}],"stateMutability":"view"},{"type":"function","name":"totalCurrentList","inputs":[],"outputs":[{"name":"","type":"uint256","internalType":"uint256"}],"stateMutability":"view"},{"type":"function","name":"totalOracleList","inputs":[],"outputs":[{"name":"","type":"uint256","internalType":"uint256"}],"stateMutability":"view"},{"type":"function","name":"transferOwnership","inputs":[{"name":"newOwner","type":"address","internalType":"address"}],"outputs":[],"stateMutability":"nonpayable"},{"type":"function","name":"unpause","inputs":[],"outputs":[],"stateMutability":"nonpayable"},{"type":"function","name":"usdc","inputs":[],"outputs":[{"name":"","type":"address","internalType":"address"}],"stateMutability":"view"},{"type":"function","name":"usdcDecimals","inputs":[],"outputs":[{"name":"","type":"uint8","internalType":"uint8"}],"stateMutability":"view"},{"type":"event","name":"ChainlinkCancelled","inputs":[{"name":"id","type":"bytes32","indexed":true,"internalType":"bytes32"}],"anonymous":false},{"type":"event","name":"ChainlinkFulfilled","inputs":[{"name":"id","type":"bytes32","indexed":true,"internalType":"bytes32"}],"anonymous":false},{"type":"event","name":"ChainlinkRequested","inputs":[{"name":"id","type":"bytes32","indexed":true,"internalType":"bytes32"}],"anonymous":false},{"type":"event","name":"Initialized","inputs":[{"name":"version","type":"uint64","indexed":false,"internalType":"uint64"}],"anonymous":false},{"type":"event","name":"OwnershipTransferred","inputs":[{"name":"previousOwner","type":"address","indexed":true,"internalType":"address"},{"name":"newOwner","type":"address","indexed":true,"internalType":"address"}],"anonymous":false},{"type":"event","name":"Paused","inputs":[{"name":"account","type":"address","indexed":false,"internalType":"address"}],"anonymous":false},{"type":"event","name":"Unpaused","inputs":[{"name":"account","type":"address","indexed":false,"internalType":"address"}],"anonymous":false},{"type":"error","name":"EnforcedPause","inputs":[]},{"type":"error","name":"ExpectedPause","inputs":[]},{"type":"error","name":"InvalidInitialization","inputs":[]},{"type":"error","name":"NotInitializing","inputs":[]},{"type":"error","name":"OwnableInvalidOwner","inputs":[{"name":"owner","type":"address","internalType":"address"}]},{"type":"error","name":"OwnableUnauthorizedAccount","inputs":[{"name":"account","type":"address","internalType":"address"}]}],"bytecode":{"object":"0x6080604052348015600f57600080fd5b5061236c8061001f6000396000f3fe608060405234801561001057600080fd5b506004361061023d5760003560e01c80637ca58c551161013b578063a8b54bd4116100b8578063eab2a7111161007c578063eab2a7111461055a578063f14bea201461056d578063f2fde38b14610580578063f9b6117f14610593578063fc0c546a146105a657600080fd5b8063a8b54bd41461050c578063addc70d114610515578063c72551be14610528578063c8599ded14610548578063c8f33c911461055157600080fd5b8063978bbdb9116100ff578063978bbdb9146104895780639932ba4c1461049d5780639ad4b86b146104c65780639cc0fb5b146104e6578063a73e1cbf146104f957600080fd5b80637ca58c55146104095780638456cb59146104115780638c88c10c146104195780638da5cb5b14610439578063914f0cc61461046957600080fd5b80633f4ba83a116101c957806353fd43321161018d57806353fd4332146103a757806355cc4e57146103b05780635c975abb146103c3578063715018a6146103db5780637bf42165146103e357600080fd5b80633f4ba83a1461034457806343482fc81461034e57806345e0ed4f146103615780634b3e0b80146103745780635177942a1461039457600080fd5b80631d143848116102105780631d143848146102a75780631e106e99146102d2578063239aad0d146102e557806326a4e8d21461030e5780633e413bee1461033157600080fd5b8063011ced5f146102425780630be527131461025e5780630c02e1301461027e5780630e32935714610287575b600080fd5b61024b601a5481565b6040519081526020015b60405180910390f35b61024b61026c366004611a90565b60116020526000908152604090205481565b61024b60095481565b61029a610295366004611b60565b6105b9565b6040516102559190611c13565b6015546102ba906001600160a01b031681565b6040516001600160a01b039091168152602001610255565b6014546102ba906001600160a01b031681565b6102ba6102f3366004611c26565b600d602052600090815260409020546001600160a01b031681565b61032161031c366004611a90565b6105e6565b6040519015158152602001610255565b6016546102ba906001600160a01b031681565b61034c610667565b005b61034c61035c366004611c3f565b610679565b61034c61036f366004611c7a565b610690565b61024b610382366004611a90565b60126020526000908152604090205481565b61034c6103a2366004611cf9565b6108aa565b61024b600c5481565b6103216103be366004611a90565b6109f4565b6000805160206123178339815191525460ff16610321565b61034c610a72565b6016546103f790600160a01b900460ff1681565b60405160ff9091168152602001610255565b61024b610a84565b61034c610cc4565b61024b610427366004611a90565b600f6020526000908152604090205481565b7f9016d09d72d40fdae2fd8ceac6b6234c7706214fd39c1cd1e609a0528c199300546001600160a01b03166102ba565b61024b610477366004611a90565b60106020526000908152604090205481565b6016546103f790600160a81b900460ff1681565b6102ba6104ab366004611c26565b600e602052600090815260409020546001600160a01b031681565b61024b6104d4366004611c26565b60186020526000908152604090205481565b6103216104f4366004611a90565b610cd4565b61034c610507366004611b60565b610d59565b61024b60085481565b61034c610523366004611e0c565b610d7f565b61024b610536366004611c26565b60196020526000908152604090205481565b61024b600b5481565b61024b600a5481565b610321610568366004611e65565b610d95565b61034c61057b366004611e98565b610e1e565b61034c61058e366004611a90565b610eea565b6017546102ba906001600160a01b031681565b6013546102ba906001600160a01b031681565b606082826040516020016105ce929190611f04565b60405160208183030381529060405290505b92915050565b60006105f0610f28565b6001600160a01b0382166106435760405162461bcd60e51b8152602060048201526015602482015274696e76616c696420746f6b656e206164647265737360581b60448201526064015b60405180910390fd5b50601380546001600160a01b0319166001600160a01b03831617905560015b919050565b61066f610f28565b610677610f83565b565b610681610f28565b61068a82610fe3565b60085550565b7ff0c57e16840df040f15088dc2f81fe391c3923bec73e23a9662efc9c229c6a008054600160401b810460ff1615906001600160401b03166000811580156106d55750825b90506000826001600160401b031660011480156106f15750303b155b9050811580156106ff575080155b1561071d5760405163f92ee8a960e01b815260040160405180910390fd5b845467ffffffffffffffff19166001178555831561074757845460ff60401b1916600160401b1785555b601580546001600160a01b03199081166001600160a01b038f811691909117909255601380549091168d831617905560168054918c166001600160a81b031990921691909117600160a01b60ff8c16021790556107a333611005565b6107ab611016565b6016805460ff60a81b1916600560a91b179055600280546001600160a01b0319166001600160a01b038a161790556107e287610fe3565b6008869055600a6107fc670de0b6b3a76400006001611f49565b6108069190611f76565b6009556040805160608101909152602a8082526122bf602083013960069061082e908261200e565b506040518060600160405280602e81526020016122e9602e9139600790610855908261200e565b50831561089c57845460ff60401b19168555604051600181527fc7f505b2f371ae2175ee4913f4499e1f2633a7b5936321eed1cdaeb6115181d29060200160405180910390a15b505050505050505050505050565b6108b2610f28565b6000601a54426108c291906120cd565b9050600c603c6108d28184611f76565b6108dc9190611f76565b1161094f5760405162461bcd60e51b815260206004820152603960248201527f596f752073686f756c642077616974206174206c6561737420313220686f757260448201527f7320616674657220746865206c61746573742075706461746500000000000000606482015260840161063a565b60648260ff1611158015610967575060018260ff1610155b6109cf5760405162461bcd60e51b815260206004820152603360248201527f546865206e65774665652073686f756c64206265206265747765656e203120616044820152726e64203130302028302e303125202d2031252960681b606482015260840161063a565b506016805460ff909216600160a81b0260ff60a81b1990921691909117905542601a55565b60006109fe610f28565b6001600160a01b038216610a4d5760405162461bcd60e51b8152602060048201526016602482015275696e76616c696420697373756572206164647265737360501b604482015260640161063a565b50601580546001600160a01b0383166001600160a01b03199091161790556001919050565b610a7a610f28565b6106776000611026565b600080610ba560068054610a9790611f8a565b80601f0160208091040260200160405190810160405280929190818152602001828054610ac390611f8a565b8015610b105780601f10610ae557610100808354040283529160200191610b10565b820191906000526020600020905b815481529060010190602001808311610af357829003601f168201915b505050505060078054610b2290611f8a565b80601f0160208091040260200160405190810160405280929190818152602001828054610b4e90611f8a565b8015610b9b5780601f10610b7057610100808354040283529160200191610b9b565b820191906000526020600020905b815481529060010190602001808311610b7e57829003601f168201915b50505050506105b9565b90506000610bbd6008543063f14bea2060e01b611097565b60408051808201909152600381526219d95d60ea1b6020820152909150610be6908290846110bc565b610c4160405180604001604052806005815260200164706174683160d81b81525060405180604001604052806011815260200170726573756c74732c61646472657373657360781b815250836110bc9092919063ffffffff16565b610c9f604051806040016040528060058152602001643830ba341960d91b81525060405180604001604052806014815260200173726573756c74732c6d61726b657453686172657360601b815250836110bc9092919063ffffffff16565b610cbd610cb46003546001600160a01b031690565b826009546110da565b9250505090565b610ccc610f28565b61067761116d565b6000610cde610f28565b6001600160a01b038216610d345760405162461bcd60e51b815260206004820181905260248201527f696e76616c696420637573746f6469616e2077616c6c65742061646472657373604482015260640161063a565b50601480546001600160a01b0383166001600160a01b03199091161790556001919050565b610d61610f28565b6006610d6d838261200e565b506007610d7a828261200e565b505050565b610d87610f28565b610d9182826111b6565b5050565b6000610d9f610f28565b6001600160a01b038316610ded5760405162461bcd60e51b8152602060048201526015602482015274696e76616c696420746f6b656e206164647265737360581b604482015260640161063a565b506016805460ff8316600160a01b026001600160a81b03199091166001600160a01b03851617179055600192915050565b60008381526005602052604090205483906001600160a01b03163314610e975760405162461bcd60e51b815260206004820152602860248201527f536f75726365206d75737420626520746865206f7261636c65206f6620746865604482015267081c995c5d595cdd60c21b606482015260840161063a565b60008181526005602052604080822080546001600160a01b03191690555182917f7cc135e0cebb02c3480ae5d74d377283180a2601f8f644edf7987b009316c63a91a2610ee483836111b6565b50505050565b610ef2610f28565b6001600160a01b038116610f1c57604051631e4fbdf760e01b81526000600482015260240161063a565b610f2581611026565b50565b33610f5a7f9016d09d72d40fdae2fd8ceac6b6234c7706214fd39c1cd1e609a0528c199300546001600160a01b031690565b6001600160a01b0316146106775760405163118cdaa760e01b815233600482015260240161063a565b610f8b6113d7565b600080516020612317833981519152805460ff191681557f5db9ee0a495bf2e6ff9c91a7834c1ba4fdd244a5e8aa4e537bd38aeae4b073aa335b6040516001600160a01b03909116815260200160405180910390a150565b600380546001600160a01b0319166001600160a01b0392909216919091179055565b61100d611407565b610f2581611450565b61101e611407565b610677611458565b7f9016d09d72d40fdae2fd8ceac6b6234c7706214fd39c1cd1e609a0528c19930080546001600160a01b031981166001600160a01b03848116918217845560405192169182907f8be0079c531659141344cd1fd0a4f28419497f9722a3daafe3b4186f6b6457e090600090a3505050565b61109f611a3e565b6110a7611a3e565b6110b381868686611479565b95945050505050565b60808301516110cb90836114bf565b6080830151610d7a90826114bf565b6004546000906110eb8160016120e0565b600455835160408086015160808701515191516000936320214ca360e11b936111239386938493923092918a916001916024016120f3565b60408051601f198184030181529190526020810180516001600160e01b03166001600160e01b0319909316929092179091529050611163868386846114d6565b9695505050505050565b611175611634565b600080516020612317833981519152805460ff191660011781557f62e78cea01bee320cd4e420270b5ea74000d11b0c9f74754ebdbfc544b05a25833610fc5565b818160005b82518110156113b7578281815181106111d6576111d661215b565b6020026020010151600d600083815260200190815260200160002060006101000a8154816001600160a01b0302191690836001600160a01b0316021790555080600f600085848151811061122c5761122c61215b565b60200260200101516001600160a01b03166001600160a01b031681526020019081526020016000208190555081818151811061126a5761126a61215b565b6020026020010151601260008584815181106112885761128861215b565b60200260200101516001600160a01b03166001600160a01b0316815260200190815260200160002081905550600c546000036113af578281815181106112d0576112d061215b565b6020026020010151600e600083815260200190815260200160002060006101000a8154816001600160a01b0302191690836001600160a01b031602179055508181815181106113215761132161215b565b60200260200101516011600085848151811061133f5761133f61215b565b60200260200101516001600160a01b03166001600160a01b031681526020019081526020016000208190555080601060008584815181106113825761138261215b565b60200260200101516001600160a01b03166001600160a01b03168152602001908152602001600020819055505b6001016111bb565b508151600b55600c546000036113cd578151600c555b505042600a555050565b6000805160206123178339815191525460ff1661067757604051638dfc202b60e01b815260040160405180910390fd5b7ff0c57e16840df040f15088dc2f81fe391c3923bec73e23a9662efc9c229c6a0054600160401b900460ff1661067757604051631afcd79f60e31b815260040160405180910390fd5b610ef2611407565b611460611407565b600080516020612317833981519152805460ff19169055565b611481611a3e565b6114918560800151610100611665565b50508284526001600160a01b03821660208501526001600160e01b031981166040850152835b949350505050565b6114cc82600383516116ca565b610d7a82826117d1565b6040516bffffffffffffffffffffffff193060601b1660208201526034810184905260009060540160408051808303601f1901815282825280516020918201206000818152600590925291812080546001600160a01b0319166001600160a01b038a1617905590925082917fb5e6e01e79f91267dc17b4e6314d5d4d03593d2ceee0fbb452b750bd70ea5af99190a2600254604051630200057560e51b81526001600160a01b0390911690634000aea09061159990889087908790600401612171565b6020604051808303816000875af11580156115b8573d6000803e3d6000fd5b505050506040513d601f19601f820116820180604052508101906115dc9190612198565b6114b75760405162461bcd60e51b815260206004820152602360248201527f756e61626c6520746f207472616e73666572416e6443616c6c20746f206f7261604482015262636c6560e81b606482015260840161063a565b6000805160206123178339815191525460ff16156106775760405163d93c066560e01b815260040160405180910390fd5b6040805180820190915260608152600060208201526116856020836121ba565b156116ad576116956020836121ba565b6116a09060206120cd565b6116aa90836120e0565b91505b506020828101829052604080518085526000815290920101905290565b6017816001600160401b0316116116ee57610ee48360e0600585901b1683176117ff565b60ff816001600160401b03161161172a57611714836018611fe0600586901b16176117ff565b50610ee4836001600160401b0383166001611824565b61ffff816001600160401b03161161176757611751836019611fe0600586901b16176117ff565b50610ee4836001600160401b0383166002611824565b63ffffffff816001600160401b0316116117a65761179083601a611fe0600586901b16176117ff565b50610ee4836001600160401b0383166004611824565b6117bb83601b611fe0600586901b16176117ff565b50610ee4836001600160401b0383166008611824565b6040805180820190915260608152600060208201526117f88384600001515184855161184a565b9392505050565b6040805180820190915260608152600060208201526117f88384600001515184611934565b6040805180820190915260608152600060208201526114b784856000015151858561198f565b604080518082019091526060815260006020820152825182111561186d57600080fd5b602085015161187c83866120e0565b11156118af576118af8561189f8760200151878661189a91906120e0565b611a10565b6118aa906002611f49565b611a27565b6000808651805187602083010193508088870111156118ce5787860182525b505050602084015b6020841061190e57805182526118ed6020836120e0565b91506118fa6020826120e0565b90506119076020856120cd565b93506118d6565b51815160001960208690036101000a019081169019919091161790525083949350505050565b604080518082019091526060815260006020820152836020015183106119695761196984856020015160026118aa9190611f49565b8351805160208583010184815350808503611985576001810182525b5093949350505050565b60408051808201909152606081526000602082015260208501516119b385846120e0565b11156119c7576119c78561189f86856120e0565b600060016119d7846101006122b2565b6119e191906120cd565b9050855183868201018583198251161781525080518487011115611a055783860181525b509495945050505050565b600081831115611a215750816105e0565b50919050565b8151611a338383611665565b50610ee483826117d1565b6040805160a0810182526000808252602080830182905282840182905260608084018390528451808601909552845283015290608082015290565b80356001600160a01b038116811461066257600080fd5b600060208284031215611aa257600080fd5b6117f882611a79565b634e487b7160e01b600052604160045260246000fd5b604051601f8201601f191681016001600160401b0381118282101715611ae957611ae9611aab565b604052919050565b600082601f830112611b0257600080fd5b81356001600160401b03811115611b1b57611b1b611aab565b611b2e601f8201601f1916602001611ac1565b818152846020838601011115611b4357600080fd5b816020850160208301376000918101602001919091529392505050565b60008060408385031215611b7357600080fd5b82356001600160401b0380821115611b8a57600080fd5b611b9686838701611af1565b93506020850135915080821115611bac57600080fd5b50611bb985828601611af1565b9150509250929050565b60005b83811015611bde578181015183820152602001611bc6565b50506000910152565b60008151808452611bff816020860160208601611bc3565b601f01601f19169290920160200192915050565b6020815260006117f86020830184611be7565b600060208284031215611c3857600080fd5b5035919050565b60008060408385031215611c5257600080fd5b611c5b83611a79565b946020939093013593505050565b803560ff8116811461066257600080fd5b600080600080600080600060e0888a031215611c9557600080fd5b611c9e88611a79565b9650611cac60208901611a79565b9550611cba60408901611a79565b9450611cc860608901611c69565b9350611cd660808901611a79565b9250611ce460a08901611a79565b915060c0880135905092959891949750929550565b600060208284031215611d0b57600080fd5b6117f882611c69565b60006001600160401b03821115611d2d57611d2d611aab565b5060051b60200190565b600082601f830112611d4857600080fd5b81356020611d5d611d5883611d14565b611ac1565b8083825260208201915060208460051b870101935086841115611d7f57600080fd5b602086015b84811015611da257611d9581611a79565b8352918301918301611d84565b509695505050505050565b600082601f830112611dbe57600080fd5b81356020611dce611d5883611d14565b8083825260208201915060208460051b870101935086841115611df057600080fd5b602086015b84811015611da25780358352918301918301611df5565b60008060408385031215611e1f57600080fd5b82356001600160401b0380821115611e3657600080fd5b611e4286838701611d37565b93506020850135915080821115611e5857600080fd5b50611bb985828601611dad565b60008060408385031215611e7857600080fd5b611e8183611a79565b9150611e8f60208401611c69565b90509250929050565b600080600060608486031215611ead57600080fd5b8335925060208401356001600160401b0380821115611ecb57600080fd5b611ed787838801611d37565b93506040860135915080821115611eed57600080fd5b50611efa86828701611dad565b9150509250925092565b60008351611f16818460208801611bc3565b835190830190611f2a818360208801611bc3565b01949350505050565b634e487b7160e01b600052601160045260246000fd5b80820281158282048414176105e0576105e0611f33565b634e487b7160e01b600052601260045260246000fd5b600082611f8557611f85611f60565b500490565b600181811c90821680611f9e57607f821691505b602082108103611a2157634e487b7160e01b600052602260045260246000fd5b601f821115610d7a576000816000526020600020601f850160051c81016020861015611fe75750805b601f850160051c820191505b8181101561200657828155600101611ff3565b505050505050565b81516001600160401b0381111561202757612027611aab565b61203b816120358454611f8a565b84611fbe565b602080601f83116001811461207057600084156120585750858301515b600019600386901b1c1916600185901b178555612006565b600085815260208120601f198616915b8281101561209f57888601518255948401946001909101908401612080565b50858210156120bd5787850151600019600388901b60f8161c191681555b5050505050600190811b01905550565b818103818111156105e0576105e0611f33565b808201808211156105e0576105e0611f33565b6001600160a01b0389811682526020820189905260408201889052861660608201526001600160e01b03198516608082015260a0810184905260c0810183905261010060e0820181905260009061214c83820185611be7565b9b9a5050505050505050505050565b634e487b7160e01b600052603260045260246000fd5b60018060a01b03841681528260208201526060604082015260006110b36060830184611be7565b6000602082840312156121aa57600080fd5b815180151581146117f857600080fd5b6000826121c9576121c9611f60565b500690565b600181815b808511156122095781600019048211156121ef576121ef611f33565b808516156121fc57918102915b93841c93908002906121d3565b509250929050565b600082612220575060016105e0565b8161222d575060006105e0565b8160018114612243576002811461224d57612269565b60019150506105e0565b60ff84111561225e5761225e611f33565b50506001821b6105e0565b5060208310610133831016604e8410600b841016171561228c575081810a6105e0565b61229683836121ce565b80600019048211156122aa576122aa611f33565b029392505050565b60006117f8838361221156fe68747470733a2f2f6170702e6e65786c6162732e696f2f6170692f616c6c46756e64696e6752617465733f6d756c7469706c7946756e633d31382674696d65734e656746756e643d74727565266172726179733d74727565cd5ed15c6e187e77e9aee88184c21f4f2182ab5827cb3b7e07fbedcd63f03300a26469706673582212200e42839729bc6e49e10ecb813147d9160f590c2146112f3e02551489834d6e7964736f6c63430008190033","linkReferences":{}},"methodIdentifiers":{"burnRequestNonce(bytes32)":"c72551be","concatenation(string,string)":"0e329357","currentList(uint256)":"9932ba4c","custodianWallet()":"1e106e99","externalJobId()":"a8b54bd4","feeRate()":"978bbdb9","fulfillAssetsData(bytes32,address[],uint256[])":"f14bea20","initialize(address,address,address,uint8,address,address,bytes32)":"45e0ed4f","issuer()":"1d143848","lastUpdateTime()":"c8f33c91","latestFeeUpdate()":"011ced5f","mintRequestNonce(bytes32)":"9ad4b86b","mockFillAssetsList(address[],uint256[])":"addc70d1","oracleList(uint256)":"239aad0d","oraclePayment()":"0c02e130","orderManager()":"f9b6117f","owner()":"8da5cb5b","pause()":"8456cb59","paused()":"5c975abb","renounceOwnership()":"715018a6","requestAssetsData()":"7ca58c55","setCustodianWallet(address)":"9cc0fb5b","setFeeRate(uint8)":"5177942a","setIssuer(address)":"55cc4e57","setOracleInfo(address,bytes32)":"43482fc8","setTokenAddress(address)":"26a4e8d2","setUrl(string,string)":"a73e1cbf","setUsdcAddress(address,uint8)":"eab2a711","token()":"fc0c546a","tokenCurrentListIndex(address)":"914f0cc6","tokenCurrentMarketShare(address)":"0be52713","tokenOracleListIndex(address)":"8c88c10c","tokenOracleMarketShare(address)":"4b3e0b80","totalCurrentList()":"53fd4332","totalOracleList()":"c8599ded","transferOwnership(address)":"f2fde38b","unpause()":"3f4ba83a","usdc()":"3e413bee","usdcDecimals()":"7bf42165"},"id":15}