{"abi":[{"type":"function","name":"addMintRequest","inputs":[{"name":"amount","type":"uint256","internalType":"uint256"},{"name":"user","type":"address","internalType":"address"}],"outputs":[{"name":"","type":"uint256","internalType":"uint256"},{"name":"","type":"bytes32","internalType":"bytes32"}],"stateMutability":"nonpayable"},{"type":"function","name":"burn","inputs":[{"name":"amount","type":"uint256","internalType":"uint256"},{"name":"user","type":"address","internalType":"address"}],"outputs":[{"name":"","type":"uint256","internalType":"uint256"},{"name":"","type":"bytes32","internalType":"bytes32"}],"stateMutability":"nonpayable"},{"type":"function","name":"burnRequestNonce","inputs":[{"name":"","type":"bytes32","internalType":"bytes32"}],"outputs":[{"name":"","type":"uint256","internalType":"uint256"}],"stateMutability":"view"},{"type":"function","name":"burnRequests","inputs":[{"name":"","type":"uint256","internalType":"uint256"}],"outputs":[{"name":"requester","type":"address","internalType":"address"},{"name":"amount","type":"uint256","internalType":"uint256"},{"name":"nonce","type":"uint256","internalType":"uint256"},{"name":"timestamp","type":"uint256","internalType":"uint256"},{"name":"status","type":"uint8","internalType":"enum IndexFactoryInterface.RequestStatus"}],"stateMutability":"view"},{"type":"function","name":"concatenation","inputs":[{"name":"a","type":"string","internalType":"string"},{"name":"b","type":"string","internalType":"string"}],"outputs":[{"name":"","type":"string","internalType":"string"}],"stateMutability":"pure"},{"type":"function","name":"confirmBurnRequest","inputs":[{"name":"requestHash","type":"bytes32","internalType":"bytes32"}],"outputs":[{"name":"","type":"bool","internalType":"bool"}],"stateMutability":"nonpayable"},{"type":"function","name":"confirmMintRequest","inputs":[{"name":"requestHash","type":"bytes32","internalType":"bytes32"},{"name":"_tokenAmount","type":"uint256","internalType":"uint256"}],"outputs":[{"name":"","type":"bool","internalType":"bool"}],"stateMutability":"nonpayable"},{"type":"function","name":"custodianWallet","inputs":[],"outputs":[{"name":"","type":"address","internalType":"address"}],"stateMutability":"view"},{"type":"function","name":"externalJobId","inputs":[],"outputs":[{"name":"","type":"bytes32","internalType":"bytes32"}],"stateMutability":"view"},{"type":"function","name":"feeRate","inputs":[],"outputs":[{"name":"","type":"uint8","internalType":"uint8"}],"stateMutability":"view"},{"type":"function","name":"fulfillAssetsData","inputs":[{"name":"requestId","type":"bytes32","internalType":"bytes32"},{"name":"_addresses","type":"address[]","internalType":"address[]"},{"name":"_marketShares","type":"uint256[]","internalType":"uint256[]"}],"outputs":[],"stateMutability":"nonpayable"},{"type":"function","name":"getAllBurnRequests","inputs":[],"outputs":[{"name":"","type":"tuple[]","internalType":"struct IndexFactoryInterface.Request[]","components":[{"name":"requester","type":"address","internalType":"address"},{"name":"amount","type":"uint256","internalType":"uint256"},{"name":"depositAddresses","type":"address[]","internalType":"address[]"},{"name":"nonce","type":"uint256","internalType":"uint256"},{"name":"timestamp","type":"uint256","internalType":"uint256"},{"name":"status","type":"uint8","internalType":"enum IndexFactoryInterface.RequestStatus"}]}],"stateMutability":"view"},{"type":"function","name":"getAllCustodianWallets","inputs":[],"outputs":[{"name":"","type":"address[]","internalType":"address[]"}],"stateMutability":"view"},{"type":"function","name":"getAllMintRequests","inputs":[],"outputs":[{"name":"","type":"tuple[]","internalType":"struct IndexFactoryInterface.Request[]","components":[{"name":"requester","type":"address","internalType":"address"},{"name":"amount","type":"uint256","internalType":"uint256"},{"name":"depositAddresses","type":"address[]","internalType":"address[]"},{"name":"nonce","type":"uint256","internalType":"uint256"},{"name":"timestamp","type":"uint256","internalType":"uint256"},{"name":"status","type":"uint8","internalType":"enum IndexFactoryInterface.RequestStatus"}]}],"stateMutability":"view"},{"type":"function","name":"getBurnRequest","inputs":[{"name":"nonce","type":"uint256","internalType":"uint256"}],"outputs":[{"name":"requestNonce","type":"uint256","internalType":"uint256"},{"name":"requester","type":"address","internalType":"address"},{"name":"amount","type":"uint256","internalType":"uint256"},{"name":"depositAddresses","type":"address[]","internalType":"address[]"},{"name":"timestamp","type":"uint256","internalType":"uint256"},{"name":"status","type":"string","internalType":"string"},{"name":"requestHash","type":"bytes32","internalType":"bytes32"}],"stateMutability":"view"},{"type":"function","name":"getBurnRequestsLength","inputs":[],"outputs":[{"name":"length","type":"uint256","internalType":"uint256"}],"stateMutability":"view"},{"type":"function","name":"getMintRequest","inputs":[{"name":"nonce","type":"uint256","internalType":"uint256"}],"outputs":[{"name":"requestNonce","type":"uint256","internalType":"uint256"},{"name":"requester","type":"address","internalType":"address"},{"name":"amount","type":"uint256","internalType":"uint256"},{"name":"depositAddresses","type":"address[]","internalType":"address[]"},{"name":"timestamp","type":"uint256","internalType":"uint256"},{"name":"status","type":"string","internalType":"string"},{"name":"requestHash","type":"bytes32","internalType":"bytes32"}],"stateMutability":"view"},{"type":"function","name":"getMintRequestsLength","inputs":[],"outputs":[{"name":"length","type":"uint256","internalType":"uint256"}],"stateMutability":"view"},{"type":"function","name":"initialize","inputs":[{"name":"_custodianWallet","type":"address","internalType":"address"},{"name":"_issuer","type":"address","internalType":"address"},{"name":"_token","type":"address","internalType":"address"},{"name":"_usdc","type":"address","internalType":"address"},{"name":"_usdcDecimals","type":"uint8","internalType":"uint8"},{"name":"_nft","type":"address","internalType":"address"},{"name":"_chainlinkToken","type":"address","internalType":"address"},{"name":"_oracleAddress","type":"address","internalType":"address"},{"name":"_externalJobId","type":"bytes32","internalType":"bytes32"}],"outputs":[],"stateMutability":"nonpayable"},{"type":"function","name":"issuer","inputs":[],"outputs":[{"name":"","type":"address","internalType":"address"}],"stateMutability":"view"},{"type":"function","name":"lastUpdateTime","inputs":[],"outputs":[{"name":"","type":"uint256","internalType":"uint256"}],"stateMutability":"view"},{"type":"function","name":"latestFeeUpdate","inputs":[],"outputs":[{"name":"","type":"uint256","internalType":"uint256"}],"stateMutability":"view"},{"type":"function","name":"mintRequestNonce","inputs":[{"name":"","type":"bytes32","internalType":"bytes32"}],"outputs":[{"name":"","type":"uint256","internalType":"uint256"}],"stateMutability":"view"},{"type":"function","name":"mintRequests","inputs":[{"name":"","type":"uint256","internalType":"uint256"}],"outputs":[{"name":"requester","type":"address","internalType":"address"},{"name":"amount","type":"uint256","internalType":"uint256"},{"name":"nonce","type":"uint256","internalType":"uint256"},{"name":"timestamp","type":"uint256","internalType":"uint256"},{"name":"status","type":"uint8","internalType":"enum IndexFactoryInterface.RequestStatus"}],"stateMutability":"view"},{"type":"function","name":"mockFillAssetsList","inputs":[{"name":"_addresses","type":"address[]","internalType":"address[]"},{"name":"_marketShares","type":"uint256[]","internalType":"uint256[]"}],"outputs":[],"stateMutability":"nonpayable"},{"type":"function","name":"oracleCustodianList","inputs":[{"name":"","type":"uint256","internalType":"uint256"}],"outputs":[{"name":"","type":"address","internalType":"address"}],"stateMutability":"view"},{"type":"function","name":"oraclePayment","inputs":[],"outputs":[{"name":"","type":"uint256","internalType":"uint256"}],"stateMutability":"view"},{"type":"function","name":"oracleShareList","inputs":[{"name":"","type":"uint256","internalType":"uint256"}],"outputs":[{"name":"","type":"uint256","internalType":"uint256"}],"stateMutability":"view"},{"type":"function","name":"owner","inputs":[],"outputs":[{"name":"","type":"address","internalType":"address"}],"stateMutability":"view"},{"type":"function","name":"pause","inputs":[],"outputs":[],"stateMutability":"nonpayable"},{"type":"function","name":"paused","inputs":[],"outputs":[{"name":"","type":"bool","internalType":"bool"}],"stateMutability":"view"},{"type":"function","name":"renounceOwnership","inputs":[],"outputs":[],"stateMutability":"nonpayable"},{"type":"function","name":"requestAssetsData","inputs":[],"outputs":[{"name":"","type":"bytes32","internalType":"bytes32"}],"stateMutability":"nonpayable"},{"type":"function","name":"setCustodianWallet","inputs":[{"name":"_custodianWallet","type":"address","internalType":"address"}],"outputs":[{"name":"","type":"bool","internalType":"bool"}],"stateMutability":"nonpayable"},{"type":"function","name":"setFeeRate","inputs":[{"name":"_newFee","type":"uint8","internalType":"uint8"}],"outputs":[],"stateMutability":"nonpayable"},{"type":"function","name":"setIssuer","inputs":[{"name":"_issuer","type":"address","internalType":"address"}],"outputs":[{"name":"","type":"bool","internalType":"bool"}],"stateMutability":"nonpayable"},{"type":"function","name":"setOracleInfo","inputs":[{"name":"_oracleAddress","type":"address","internalType":"address"},{"name":"_externalJobId","type":"bytes32","internalType":"bytes32"}],"outputs":[],"stateMutability":"nonpayable"},{"type":"function","name":"setTokenAddress","inputs":[{"name":"_token","type":"address","internalType":"address"}],"outputs":[{"name":"","type":"bool","internalType":"bool"}],"stateMutability":"nonpayable"},{"type":"function","name":"setUrl","inputs":[{"name":"_beforeAddress","type":"string","internalType":"string"},{"name":"_afterAddress","type":"string","internalType":"string"}],"outputs":[],"stateMutability":"nonpayable"},{"type":"function","name":"setUsdcAddress","inputs":[{"name":"_usdc","type":"address","internalType":"address"},{"name":"_usdcDecimals","type":"uint8","internalType":"uint8"}],"outputs":[{"name":"","type":"bool","internalType":"bool"}],"stateMutability":"nonpayable"},{"type":"function","name":"token","inputs":[],"outputs":[{"name":"","type":"address","internalType":"contract IndexToken"}],"stateMutability":"view"},{"type":"function","name":"totalOracleList","inputs":[],"outputs":[{"name":"","type":"uint256","internalType":"uint256"}],"stateMutability":"view"},{"type":"function","name":"transferOwnership","inputs":[{"name":"newOwner","type":"address","internalType":"address"}],"outputs":[],"stateMutability":"nonpayable"},{"type":"function","name":"unpause","inputs":[],"outputs":[],"stateMutability":"nonpayable"},{"type":"function","name":"usdc","inputs":[],"outputs":[{"name":"","type":"address","internalType":"address"}],"stateMutability":"view"},{"type":"function","name":"usdcDecimals","inputs":[],"outputs":[{"name":"","type":"uint8","internalType":"uint8"}],"stateMutability":"view"},{"type":"event","name":"BurnConfirmed","inputs":[{"name":"nonce","type":"uint256","indexed":true,"internalType":"uint256"},{"name":"requester","type":"address","indexed":true,"internalType":"address"},{"name":"amount","type":"uint256","indexed":false,"internalType":"uint256"},{"name":"depositAddresses","type":"address[]","indexed":false,"internalType":"address[]"},{"name":"timestamp","type":"uint256","indexed":false,"internalType":"uint256"},{"name":"inputRequestHash","type":"bytes32","indexed":false,"internalType":"bytes32"}],"anonymous":false},{"type":"event","name":"Burned","inputs":[{"name":"nonce","type":"uint256","indexed":true,"internalType":"uint256"},{"name":"requester","type":"address","indexed":true,"internalType":"address"},{"name":"amount","type":"uint256","indexed":false,"internalType":"uint256"},{"name":"depositAddresses","type":"address[]","indexed":false,"internalType":"address[]"},{"name":"timestamp","type":"uint256","indexed":false,"internalType":"uint256"},{"name":"requestHash","type":"bytes32","indexed":false,"internalType":"bytes32"}],"anonymous":false},{"type":"event","name":"ChainlinkCancelled","inputs":[{"name":"id","type":"bytes32","indexed":true,"internalType":"bytes32"}],"anonymous":false},{"type":"event","name":"ChainlinkFulfilled","inputs":[{"name":"id","type":"bytes32","indexed":true,"internalType":"bytes32"}],"anonymous":false},{"type":"event","name":"ChainlinkRequested","inputs":[{"name":"id","type":"bytes32","indexed":true,"internalType":"bytes32"}],"anonymous":false},{"type":"event","name":"CustodianSet","inputs":[{"name":"custodian","type":"address","indexed":true,"internalType":"address"}],"anonymous":false},{"type":"event","name":"ExchangeWalletsSet","inputs":[{"name":"addresses","type":"address[]","indexed":true,"internalType":"address[]"},{"name":"marketShares","type":"uint256[]","indexed":false,"internalType":"uint256[]"}],"anonymous":false},{"type":"event","name":"Initialized","inputs":[{"name":"version","type":"uint64","indexed":false,"internalType":"uint64"}],"anonymous":false},{"type":"event","name":"IssuerDepositAddressSet","inputs":[{"name":"merchant","type":"address","indexed":true,"internalType":"address"},{"name":"sender","type":"address","indexed":true,"internalType":"address"},{"name":"depositAddress","type":"address","indexed":false,"internalType":"address"}],"anonymous":false},{"type":"event","name":"IssuerSet","inputs":[{"name":"issuer","type":"address","indexed":true,"internalType":"address"}],"anonymous":false},{"type":"event","name":"MerchantDepositAddressSet","inputs":[{"name":"merchant","type":"address","indexed":true,"internalType":"address"},{"name":"depositAddress","type":"address","indexed":false,"internalType":"address"}],"anonymous":false},{"type":"event","name":"MintConfirmed","inputs":[{"name":"nonce","type":"uint256","indexed":true,"internalType":"uint256"},{"name":"requester","type":"address","indexed":true,"internalType":"address"},{"name":"amount","type":"uint256","indexed":false,"internalType":"uint256"},{"name":"depositAddresses","type":"address[]","indexed":false,"internalType":"address[]"},{"name":"timestamp","type":"uint256","indexed":false,"internalType":"uint256"},{"name":"requestHash","type":"bytes32","indexed":false,"internalType":"bytes32"}],"anonymous":false},{"type":"event","name":"MintRejected","inputs":[{"name":"nonce","type":"uint256","indexed":true,"internalType":"uint256"},{"name":"requester","type":"address","indexed":true,"internalType":"address"},{"name":"amount","type":"uint256","indexed":false,"internalType":"uint256"},{"name":"depositAddresses","type":"address[]","indexed":false,"internalType":"address[]"},{"name":"timestamp","type":"uint256","indexed":false,"internalType":"uint256"},{"name":"requestHash","type":"bytes32","indexed":false,"internalType":"bytes32"}],"anonymous":false},{"type":"event","name":"MintRequestAdd","inputs":[{"name":"nonce","type":"uint256","indexed":true,"internalType":"uint256"},{"name":"requester","type":"address","indexed":true,"internalType":"address"},{"name":"amount","type":"uint256","indexed":false,"internalType":"uint256"},{"name":"depositAddresses","type":"address[]","indexed":false,"internalType":"address[]"},{"name":"timestamp","type":"uint256","indexed":false,"internalType":"uint256"},{"name":"requestHash","type":"bytes32","indexed":false,"internalType":"bytes32"}],"anonymous":false},{"type":"event","name":"MintRequestCancel","inputs":[{"name":"nonce","type":"uint256","indexed":true,"internalType":"uint256"},{"name":"requester","type":"address","indexed":true,"internalType":"address"},{"name":"requestHash","type":"bytes32","indexed":false,"internalType":"bytes32"}],"anonymous":false},{"type":"event","name":"NFTSet","inputs":[{"name":"nft","type":"address","indexed":true,"internalType":"address"}],"anonymous":false},{"type":"event","name":"OwnershipTransferred","inputs":[{"name":"previousOwner","type":"address","indexed":true,"internalType":"address"},{"name":"newOwner","type":"address","indexed":true,"internalType":"address"}],"anonymous":false},{"type":"event","name":"Paused","inputs":[{"name":"account","type":"address","indexed":false,"internalType":"address"}],"anonymous":false},{"type":"event","name":"TokenAddressSet","inputs":[{"name":"token","type":"address","indexed":true,"internalType":"address"},{"name":"time","type":"uint256","indexed":false,"internalType":"uint256"}],"anonymous":false},{"type":"event","name":"Unpaused","inputs":[{"name":"account","type":"address","indexed":false,"internalType":"address"}],"anonymous":false},{"type":"event","name":"UsdcAddressSet","inputs":[{"name":"usdc","type":"address","indexed":true,"internalType":"address"},{"name":"decimals","type":"uint8","indexed":true,"internalType":"uint8"},{"name":"time","type":"uint256","indexed":false,"internalType":"uint256"}],"anonymous":false},{"type":"error","name":"AddressEmptyCode","inputs":[{"name":"target","type":"address","internalType":"address"}]},{"type":"error","name":"AddressInsufficientBalance","inputs":[{"name":"account","type":"address","internalType":"address"}]},{"type":"error","name":"EnforcedPause","inputs":[]},{"type":"error","name":"ExpectedPause","inputs":[]},{"type":"error","name":"FailedInnerCall","inputs":[]},{"type":"error","name":"InvalidInitialization","inputs":[]},{"type":"error","name":"NotInitializing","inputs":[]},{"type":"error","name":"OwnableInvalidOwner","inputs":[{"name":"owner","type":"address","internalType":"address"}]},{"type":"error","name":"OwnableUnauthorizedAccount","inputs":[{"name":"account","type":"address","internalType":"address"}]},{"type":"error","name":"SafeERC20FailedOperation","inputs":[{"name":"token","type":"address","internalType":"address"}]}],"bytecode":{"object":"0x6080604052348015600f57600080fd5b50613c038061001f6000396000f3fe608060405234801561001057600080fd5b506004361061028a5760003560e01c80638456cb591161015c578063c2275940116100ce578063eab2a71111610087578063eab2a711146105c5578063f14bea20146105d8578063f2fde38b146105eb578063f89b8f23146105fe578063fc0c546a14610626578063fcd3533c1461063957600080fd5b8063c227594014610544578063c72551be1461056d578063c8599ded1461058d578063c8f33c9114610596578063e21c40c01461059f578063e9d3e21f146105b257600080fd5b8063a34003f411610120578063a34003f4146104ba578063a73e1cbf146104cf578063a8b54bd4146104e2578063addc70d1146104eb578063b69b22d8146104fe578063b9a5575b1461052457600080fd5b80638456cb59146104635780638da5cb5b1461046b578063978bbdb9146104735780639ad4b86b146104875780639cc0fb5b146104a757600080fd5b806343482fc81161020057806364a9b8f7116101b957806364a9b8f71461040a57806364c70d451461041d578063715018a61461042557806372f69a721461042d5780637bf42165146104355780637ca58c551461045b57600080fd5b806343482fc8146103935780635177942a146103a657806355cc4e57146103b95780635c975abb146103cc57806360daba33146103e45780636406c10c146103f757600080fd5b80631e7aa9f4116102525780631e7aa9f41461031257806326a4e8d214610327578063311104f31461034a5780633e413bee146103525780633f4ba83a14610365578063424e65751461036f57600080fd5b8063011ced5f1461028f5780630c02e130146102ab5780630e329357146102b45780631d143848146102d45780631e106e99146102ff575b600080fd5b61029860165481565b6040519081526020015b60405180910390f35b61029860095481565b6102c76102c2366004613059565b61064c565b6040516102a2919061310c565b6010546102e7906001600160a01b031681565b6040516001600160a01b0390911681526020016102a2565b600f546102e7906001600160a01b031681565b61031a610679565b6040516102a29190613157565b61033a610335366004613253565b610795565b60405190151581526020016102a2565b601454610298565b6011546102e7906001600160a01b031681565b61036d61084c565b005b61038261037d36600461326e565b61085e565b6040516102a2959493929190613287565b61036d6103a13660046132b9565b6108ac565b61036d6103b43660046132f4565b6108c3565b61033a6103c7366004613253565b610a0d565b600080516020613bae8339815191525460ff1661033a565b61033a6103f236600461326e565b610ab5565b61038261040536600461326e565b610bd1565b61033a61041836600461330f565b610be1565b61031a610d61565b61036d610e74565b601554610298565b60115461044990600160a01b900460ff1681565b60405160ff90911681526020016102a2565b610298610e86565b61036d6110c6565b6102e76110d6565b60115461044990600160a81b900460ff1681565b61029861049536600461326e565b60126020526000908152604090205481565b61033a6104b5366004613253565b611104565b6104c26111b3565b6040516102a2919061336b565b61036d6104dd366004613059565b61125f565b61029860085481565b61036d6104f9366004613476565b611285565b61051161050c36600461326e565b61129b565b6040516102a297969594939291906134cf565b61029861053236600461326e565b600d6020526000908152604090205481565b6102e761055236600461326e565b600c602052600090815260409020546001600160a01b031681565b61029861057b36600461326e565b60136020526000908152604090205481565b610298600b5481565b610298600a5481565b6105116105ad36600461326e565b6113e6565b61036d6105c0366004613529565b61158c565b61033a6105d33660046135ca565b61180c565b61036d6105e63660046135fd565b6118cf565b61036d6105f9366004613253565b61199b565b61061161060c366004613669565b6119d9565b604080519283526020830191909152016102a2565b600e546102e7906001600160a01b031681565b610611610647366004613669565b611c71565b6060828260405160200161066192919061368c565b60405160208183030381529060405290505b92915050565b60606015805480602002602001604051908101604052809291908181526020016000905b8282101561078c5760008481526020908190206040805160c0810182526006860290920180546001600160a01b03168352600181015483850152600281018054835181870281018701855281815294959294938601939283018282801561072d57602002820191906000526020600020905b81546001600160a01b0316815260019091019060200180831161070f575b5050509183525050600382015460208201526004808301546040830152600583015460609092019160ff16908111156107685761076861311f565b60048111156107795761077961311f565b815250508152602001906001019061069d565b50505050905090565b600061079f611f04565b6001600160a01b0382166107f25760405162461bcd60e51b8152602060048201526015602482015274696e76616c696420746f6b656e206164647265737360581b60448201526064015b60405180910390fd5b600e80546001600160a01b0319166001600160a01b0384169081179091556040514281527f2d65e2eeacd42ac25aa023ad49c935dd4697a70e62b53317b7514f14096ff3899060200160405180910390a25060015b919050565b610854611f04565b61085c611f36565b565b6014818154811061086e57600080fd5b6000918252602090912060069091020180546001820154600383015460048401546005909401546001600160a01b0390931694509092909160ff1685565b6108b4611f04565b6108bd82611f96565b60085550565b6108cb611f04565b6000601654426108db91906136d1565b9050600c603c6108eb81846136fa565b6108f591906136fa565b116109685760405162461bcd60e51b815260206004820152603960248201527f596f752073686f756c642077616974206174206c6561737420313220686f757260448201527f7320616674657220746865206c6174657374207570646174650000000000000060648201526084016107e9565b60648260ff1611158015610980575060018260ff1610155b6109e85760405162461bcd60e51b815260206004820152603360248201527f546865206e65774665652073686f756c64206265206265747765656e203120616044820152726e64203130302028302e303125202d2031252960681b60648201526084016107e9565b506011805460ff909216600160a81b0260ff60a81b1990921691909117905542601655565b6000610a17611f04565b6001600160a01b038216610a665760405162461bcd60e51b8152602060048201526016602482015275696e76616c696420697373756572206164647265737360501b60448201526064016107e9565b601080546001600160a01b0319166001600160a01b0384169081179091556040517f141c634522c8bfcf25beba4c524ac0c87de0db74ebe83168cf5f3bf4d45fd89890600090a2506001919050565b6010546000906001600160a01b03163314610b095760405162461bcd60e51b815260206004820152601460248201527339b2b73232b9103737ba10309034b9b9bab2b91760611b60448201526064016107e9565b6000610b13612ea0565b610b1c84611fb8565b8092508193505050600360158381548110610b3957610b3961370e565b60009182526020909120600560069092020101805460ff19166001836004811115610b6657610b6661311f565b021790555080600001516001600160a01b031681606001517ffa90590fee8622abdd363195477587c362cc162fbb631bb0430063f7fccccb4d83602001518460400151856080015189604051610bbf9493929190613724565b60405180910390a35060019392505050565b6015818154811061086e57600080fd5b6010546000906001600160a01b03163314610c355760405162461bcd60e51b815260206004820152601460248201527339b2b73232b9103737ba10309034b9b9bab2b91760611b60448201526064016107e9565b6000610c3f612ea0565b610c4885612117565b8092508193505050600360148381548110610c6557610c6561370e565b60009182526020909120600560069092020101805460ff19166001836004811115610c9257610c9261311f565b0217905550600e5481516040516340c10f1960e01b81526001600160a01b039182166004820152602481018790529116906340c10f1990604401600060405180830381600087803b158015610ce657600080fd5b505af1158015610cfa573d6000803e3d6000fd5b5050505080600001516001600160a01b031681606001517f0f68b38538e0e8ee6fecbbedee04ccc18fcb16f18c260bcbe35e8b8bead6a87b86846040015185608001518a604051610d4e9493929190613724565b60405180910390a3506001949350505050565b60606014805480602002602001604051908101604052809291908181526020016000905b8282101561078c5760008481526020908190206040805160c0810182526006860290920180546001600160a01b031683526001810154838501526002810180548351818702810187018552818152949592949386019392830182828015610e1557602002820191906000526020600020905b81546001600160a01b03168152600190910190602001808311610df7575b5050509183525050600382015460208201526004808301546040830152600583015460609092019160ff1690811115610e5057610e5061311f565b6004811115610e6157610e6161311f565b8152505081526020019060010190610d85565b610e7c611f04565b61085c600061218d565b600080610fa760068054610e9990613750565b80601f0160208091040260200160405190810160405280929190818152602001828054610ec590613750565b8015610f125780601f10610ee757610100808354040283529160200191610f12565b820191906000526020600020905b815481529060010190602001808311610ef557829003601f168201915b505050505060078054610f2490613750565b80601f0160208091040260200160405190810160405280929190818152602001828054610f5090613750565b8015610f9d5780601f10610f7257610100808354040283529160200191610f9d565b820191906000526020600020905b815481529060010190602001808311610f8057829003601f168201915b505050505061064c565b90506000610fbf6008543063f14bea2060e01b6121fe565b60408051808201909152600381526219d95d60ea1b6020820152909150610fe890829084612225565b61104360405180604001604052806005815260200164706174683160d81b81525060405180604001604052806011815260200170726573756c74732c61646472657373657360781b815250836122259092919063ffffffff16565b6110a1604051806040016040528060058152602001643830ba341960d91b81525060405180604001604052806014815260200173726573756c74732c6d61726b657453686172657360601b815250836122259092919063ffffffff16565b6110bf6110b66003546001600160a01b031690565b82600954612243565b9250505090565b6110ce611f04565b61085c6122d6565b7f9016d09d72d40fdae2fd8ceac6b6234c7706214fd39c1cd1e609a0528c199300546001600160a01b031690565b600061110e611f04565b6001600160a01b0382166111645760405162461bcd60e51b815260206004820181905260248201527f696e76616c696420637573746f6469616e2077616c6c6574206164647265737360448201526064016107e9565b600f80546001600160a01b0319166001600160a01b0384169081179091556040517fb88c20a211c5d7677ba2a26c317d8ae6b25aa492016dc8ceca2469761d063d8090600090a2506001919050565b60606000600b546001600160401b038111156111d1576111d1612fa4565b6040519080825280602002602001820160405280156111fa578160200160208202803683370190505b50905060005b600b54811015611259576000818152600c602052604090205482516001600160a01b03909116908390839081106112395761123961370e565b6001600160a01b0390921660209283029190910190910152600101611200565b50919050565b611267611f04565b600661127383826137d4565b50600761128082826137d4565b505050565b61128d611f04565b611297828261231f565b5050565b6000806000606060006060600080601489815481106112bc576112bc61370e565b60009182526020918290206040805160c081018252600690930290910180546001600160a01b03168352600181015483850152600281018054835181870281018701855281815294959294938601939283018282801561134557602002820191906000526020600020905b81546001600160a01b03168152600190910190602001808311611327575b5050509183525050600382015460208201526004808301546040830152600583015460609092019160ff16908111156113805761138061311f565b60048111156113915761139161311f565b81525050905060006113a68260a00151612411565b905081606001519850816000015197508160200151965081604001519550816080015194508093506113d782612529565b92505050919395979092949650565b6000806000606060006060600080601589815481106114075761140761370e565b60009182526020822060056006909202019081015490925061142b9060ff16612411565b60038301548354600185015460028601805460408051602080840282018101909252828152959f506001600160a01b039094169d50919b50939450919291908301828280156114a357602002820191906000526020600020905b81546001600160a01b03168152600190910190602001808311611485575b5050505060048401546040805160c08101825286546001600160a01b0316815260018701546020808301919091526002880180548451818402810184018652818152979d50949b5096995089966113d796929550889493860193909183018282801561153857602002820191906000526020600020905b81546001600160a01b0316815260019091019060200180831161151a575b5050509183525050600382015460208201526004808301546040830152600583015460609092019160ff16908111156115735761157361311f565b60048111156115845761158461311f565b905250612529565b7ff0c57e16840df040f15088dc2f81fe391c3923bec73e23a9662efc9c229c6a008054600160401b810460ff1615906001600160401b03166000811580156115d15750825b90506000826001600160401b031660011480156115ed5750303b155b9050811580156115fb575080155b156116195760405163f92ee8a960e01b815260040160405180910390fd5b845467ffffffffffffffff19166001178555831561164357845460ff60401b1916600160401b1785555b8d600f60006101000a8154816001600160a01b0302191690836001600160a01b031602179055508c601060006101000a8154816001600160a01b0302191690836001600160a01b031602179055508b600e60006101000a8154816001600160a01b0302191690836001600160a01b031602179055508a601160006101000a8154816001600160a01b0302191690836001600160a01b0316021790555089601160146101000a81548160ff021916908360ff16021790555061170333612571565b61170b612582565b6011805460ff60a81b1916600560a91b179055600280546001600160a01b0319166001600160a01b038a1617905561174287611f96565b6008869055600a61175c670de0b6b3a76400006001613893565b61176691906136fa565b6009556040805160608101909152602a808252613b56602083013960069061178e90826137d4565b506040518060600160405280602e8152602001613b80602e91396007906117b590826137d4565b5083156117fc57845460ff60401b19168555604051600181527fc7f505b2f371ae2175ee4913f4499e1f2633a7b5936321eed1cdaeb6115181d29060200160405180910390a15b5050505050505050505050505050565b6000611816611f04565b6001600160a01b0383166118645760405162461bcd60e51b8152602060048201526015602482015274696e76616c696420746f6b656e206164647265737360581b60448201526064016107e9565b601180546001600160a01b0385166001600160a81b03199091168117600160a01b60ff8616908102919091179092556040514281527f47f70abc5eafc71015adda71f3628949d17bd87cb6199008a1243dca856ceaaf9060200160405180910390a350600192915050565b60008381526005602052604090205483906001600160a01b031633146119485760405162461bcd60e51b815260206004820152602860248201527f536f75726365206d75737420626520746865206f7261636c65206f6620746865604482015267081c995c5d595cdd60c21b60648201526084016107e9565b60008181526005602052604080822080546001600160a01b03191690555182917f7cc135e0cebb02c3480ae5d74d377283180a2601f8f644edf7987b009316c63a91a2611995838361231f565b50505050565b6119a3611f04565b6001600160a01b0381166119cd57604051631e4fbdf760e01b8152600060048201526024016107e9565b6119d68161218d565b50565b6000806119e4612592565b60115460009061271090611a0290600160a81b900460ff1687613893565b611a0c91906136fa565b90506000611a1a82876138aa565b905060005b600b54811015611a88576011546000828152600c6020908152604080832054600d90925290912054611a80926001600160a01b0390811692339291169068056bc75e2d6310000090611a71908d613893565b611a7b91906136fa565b6125c3565b600101611a1f565b50601154611aa8906001600160a01b031633611aa26110d6565b856125c3565b601454600042905060006040518060c00160405280896001600160a01b031681526020018a8152602001611ada6111b3565b815260208101859052604081018490526060016001905290506000611afe82612529565b600081815260126020908152604080832088905560148054600181018255935285517fce6d7b5282bd9a3661ae061feed1dbda4e52ab073b1f9285be6e155d9c38d4ec600690940293840180546001600160a01b0319166001600160a01b03909216919091178155868301517fce6d7b5282bd9a3661ae061feed1dbda4e52ab073b1f9285be6e155d9c38d4ed85015590860151805194955086949193611bcc937fce6d7b5282bd9a3661ae061feed1dbda4e52ab073b1f9285be6e155d9c38d4ee90910192910190612eef565b50606082015181600301556080820151816004015560a08201518160050160006101000a81548160ff02191690836004811115611c0b57611c0b61311f565b02179055505050886001600160a01b0316847f5451b00315df1843662f0967aa9d6ab74b6771df02cfb4a2ca70b0dddcf07ee68c611c476111b3565b8786604051611c599493929190613724565b60405180910390a39299929850919650505050505050565b600080611c7c612592565b601554604080516001808252818301909252429160009190602080830190803683370190505090508581600081518110611cb857611cb861370e565b60200260200101906001600160a01b031690816001600160a01b03168152505060006040518060c00160405280886001600160a01b0316815260200189815260200183815260200185815260200184815260200160016004811115611d1f57611d1f61311f565b905290506000611d2e82612529565b600081815260136020908152604080832089905560158054600181018255935285517f55f448fdea98c4d29eb340757ef0a66cd03dbb9538908a6a81d96026b71ec475600690940293840180546001600160a01b0319166001600160a01b03909216919091178155868301517f55f448fdea98c4d29eb340757ef0a66cd03dbb9538908a6a81d96026b71ec47685015590860151805194955086949193611dfc937f55f448fdea98c4d29eb340757ef0a66cd03dbb9538908a6a81d96026b71ec47790910192910190612eef565b50606082015181600301556080820151816004015560a08201518160050160006101000a81548160ff02191690836004811115611e3b57611e3b61311f565b021790555050600e54604051632770a7eb60e21b8152336004820152602481018c90526001600160a01b039091169150639dc29fac90604401600060405180830381600087803b158015611e8e57600080fd5b505af1158015611ea2573d6000803e3d6000fd5b50505050876001600160a01b0316857f1e56929c494b9bcad8c67bdcb55f874da5cbe9c29b5bc0ab151ea2a3ad306a008b611edb6111b3565b8886604051611eed9493929190613724565b60405180910390a393989397509295505050505050565b33611f0d6110d6565b6001600160a01b03161461085c5760405163118cdaa760e01b81523360048201526024016107e9565b611f3e61261d565b600080516020613bae833981519152805460ff191681557f5db9ee0a495bf2e6ff9c91a7834c1ba4fdd244a5e8aa4e537bd38aeae4b073aa335b6040516001600160a01b03909116815260200160405180910390a150565b600380546001600160a01b0319166001600160a01b0392909216919091179055565b6000611fc2612ea0565b60008390036120075760405162461bcd60e51b81526020600482015260116024820152700726571756573742068617368206973203607c1b60448201526064016107e9565b60008381526013602052604090205460158054919350908390811061202e5761202e61370e565b60009182526020918290206040805160c081018252600690930290910180546001600160a01b0316835260018101548385015260028101805483518187028101870185528181529495929493860193928301828280156120b757602002820191906000526020600020905b81546001600160a01b03168152600190910190602001808311612099575b5050509183525050600382015460208201526004808301546040830152600583015460609092019160ff16908111156120f2576120f261311f565b60048111156121035761210361311f565b9052509050612112818461264d565b915091565b6000612121612ea0565b60008390036121665760405162461bcd60e51b81526020600482015260116024820152700726571756573742068617368206973203607c1b60448201526064016107e9565b60008381526012602052604090205460148054919350908390811061202e5761202e61370e565b7f9016d09d72d40fdae2fd8ceac6b6234c7706214fd39c1cd1e609a0528c19930080546001600160a01b031981166001600160a01b03848116918217845560405192169182907f8be0079c531659141344cd1fd0a4f28419497f9722a3daafe3b4186f6b6457e090600090a3505050565b612206612f54565b61220e612f54565b61221a8186868661271e565b9150505b9392505050565b60808301516122349083612764565b60808301516112809082612764565b6004546000906122548160016138aa565b600455835160408086015160808701515191516000936320214ca360e11b9361228c9386938493923092918a916001916024016138bd565b60408051601f198184030181529190526020810180516001600160e01b03166001600160e01b03199093169290921790915290506122cc8683868461277b565b9695505050505050565b6122de612592565b600080516020613bae833981519152805460ff191660011781557f62e78cea01bee320cd4e420270b5ea74000d11b0c9f74754ebdbfc544b05a25833611f78565b818160005b82518110156123b45782818151811061233f5761233f61370e565b6020026020010151600c600083815260200190815260200160002060006101000a8154816001600160a01b0302191690836001600160a01b031602179055508381815181106123905761239061370e565b6020908102919091018101516000838152600d909252604090912055600101612324565b508151600b5542600a556040516123cc908590613925565b60405180910390207ff32c718cfcfde649cd1b7798a926c8707fda06cda4e8d4731eb86ca6772623d9846040516124039190613964565b60405180910390a250505050565b606060018260048111156124275761242761311f565b0361244f57505060408051808201909152600781526670656e64696e6760c81b602082015290565b60028260048111156124635761246361311f565b0361248c57505060408051808201909152600881526718d85b98d95b195960c21b602082015290565b60038260048111156124a0576124a061311f565b036124c9575050604080518082019091526008815267185c1c1c9bdd995960c21b602082015290565b60048260048111156124dd576124dd61311f565b036125065750506040805180820190915260088152671c995a9958dd195960c21b602082015290565b50506040805180820190915260078152663ab735b737bbb760c91b602082015290565b80516020808301516040808501516060860151608087015192516000966125549690959491016139a8565b604051602081830303815290604052805190602001209050919050565b6125796128d9565b6119d681612922565b61258a6128d9565b61085c61292a565b600080516020613bae8339815191525460ff161561085c5760405163d93c066560e01b815260040160405180910390fd5b604080516001600160a01b0385811660248301528416604482015260648082018490528251808303909101815260849091019091526020810180516001600160e01b03166323b872dd60e01b17905261199590859061294b565b600080516020613bae8339815191525460ff1661085c57604051638dfc202b60e01b815260040160405180910390fd5b60018260a0015160048111156126655761266561311f565b146126ab5760405162461bcd60e51b815260206004820152601660248201527572657175657374206973206e6f742070656e64696e6760501b60448201526064016107e9565b6126b482612529565b81146112975760405162461bcd60e51b815260206004820152603360248201527f676976656e2072657175657374206861736820646f6573206e6f74206d6174636044820152721a0818481c195b991a5b99c81c995c5d595cdd606a1b60648201526084016107e9565b612726612f54565b61273685608001516101006129ae565b50508284526001600160a01b03821660208501526001600160e01b031981166040850152835b949350505050565b6127718260038351612a13565b6112808282612b1a565b6040516bffffffffffffffffffffffff193060601b1660208201526034810184905260009060540160408051808303601f1901815282825280516020918201206000818152600590925291812080546001600160a01b0319166001600160a01b038a1617905590925082917fb5e6e01e79f91267dc17b4e6314d5d4d03593d2ceee0fbb452b750bd70ea5af99190a2600254604051630200057560e51b81526001600160a01b0390911690634000aea09061283e908890879087906004016139e3565b6020604051808303816000875af115801561285d573d6000803e3d6000fd5b505050506040513d601f19601f820116820180604052508101906128819190613a13565b61275c5760405162461bcd60e51b815260206004820152602360248201527f756e61626c6520746f207472616e73666572416e6443616c6c20746f206f7261604482015262636c6560e81b60648201526084016107e9565b7ff0c57e16840df040f15088dc2f81fe391c3923bec73e23a9662efc9c229c6a0054600160401b900460ff1661085c57604051631afcd79f60e31b815260040160405180910390fd5b6119a36128d9565b6129326128d9565b600080516020613bae833981519152805460ff19169055565b60006129606001600160a01b03841683612b41565b905080516000141580156129855750808060200190518101906129839190613a13565b155b1561128057604051635274afe760e01b81526001600160a01b03841660048201526024016107e9565b6040805180820190915260608152600060208201526129ce602083613a35565b156129f6576129de602083613a35565b6129e99060206136d1565b6129f390836138aa565b91505b506020828101829052604080518085526000815290920101905290565b6017816001600160401b031611612a37576119958360e0600585901b168317612b4f565b60ff816001600160401b031611612a7357612a5d836018611fe0600586901b1617612b4f565b50611995836001600160401b0383166001612b74565b61ffff816001600160401b031611612ab057612a9a836019611fe0600586901b1617612b4f565b50611995836001600160401b0383166002612b74565b63ffffffff816001600160401b031611612aef57612ad983601a611fe0600586901b1617612b4f565b50611995836001600160401b0383166004612b74565b612b0483601b611fe0600586901b1617612b4f565b50611995836001600160401b0383166008612b74565b60408051808201909152606081526000602082015261221e83846000015151848551612b9a565b606061221e83836000612c84565b60408051808201909152606081526000602082015261221e8384600001515184612d17565b60408051808201909152606081526000602082015261275c848560000151518585612d72565b6040805180820190915260608152600060208201528251821115612bbd57600080fd5b6020850151612bcc83866138aa565b1115612bff57612bff85612bef87602001518786612bea91906138aa565b612df3565b612bfa906002613893565b612e04565b600080865180518760208301019350808887011115612c1e5787860182525b505050602084015b60208410612c5e5780518252612c3d6020836138aa565b9150612c4a6020826138aa565b9050612c576020856136d1565b9350612c26565b51815160001960208690036101000a019081169019919091161790525083949350505050565b606081471015612ca95760405163cd78605960e01b81523060048201526024016107e9565b600080856001600160a01b03168486604051612cc59190613a49565b60006040518083038185875af1925050503d8060008114612d02576040519150601f19603f3d011682016040523d82523d6000602084013e612d07565b606091505b50915091506122cc868383612e1b565b60408051808201909152606081526000602082015283602001518310612d4c57612d4c8485602001516002612bfa9190613893565b8351805160208583010184815350808503612d68576001810182525b5093949350505050565b6040805180820190915260608152600060208201526020850151612d9685846138aa565b1115612daa57612daa85612bef86856138aa565b60006001612dba84610100613b49565b612dc491906136d1565b9050855183868201018583198251161781525080518487011115612de85783860181525b509495945050505050565b600081831115611259575081610673565b8151612e1083836129ae565b506119958382612b1a565b606082612e3057612e2b82612e77565b61221e565b8151158015612e4757506001600160a01b0384163b155b15612e7057604051639996b31560e01b81526001600160a01b03851660048201526024016107e9565b508061221e565b805115612e875780518082602001fd5b604051630a12f52160e11b815260040160405180910390fd5b6040518060c0016040528060006001600160a01b031681526020016000815260200160608152602001600081526020016000815260200160006004811115612eea57612eea61311f565b905290565b828054828255906000526020600020908101928215612f44579160200282015b82811115612f4457825182546001600160a01b0319166001600160a01b03909116178255602090920191600190910190612f0f565b50612f50929150612f8f565b5090565b6040805160a0810182526000808252602080830182905282840182905260608084018390528451808601909552845283015290608082015290565b5b80821115612f505760008155600101612f90565b634e487b7160e01b600052604160045260246000fd5b604051601f8201601f191681016001600160401b0381118282101715612fe257612fe2612fa4565b604052919050565b600082601f830112612ffb57600080fd5b81356001600160401b0381111561301457613014612fa4565b613027601f8201601f1916602001612fba565b81815284602083860101111561303c57600080fd5b816020850160208301376000918101602001919091529392505050565b6000806040838503121561306c57600080fd5b82356001600160401b038082111561308357600080fd5b61308f86838701612fea565b935060208501359150808211156130a557600080fd5b506130b285828601612fea565b9150509250929050565b60005b838110156130d75781810151838201526020016130bf565b50506000910152565b600081518084526130f88160208601602086016130bc565b601f01601f19169290920160200192915050565b60208152600061221e60208301846130e0565b634e487b7160e01b600052602160045260246000fd5b6005811061315357634e487b7160e01b600052602160045260246000fd5b9052565b600060208083018184528085518083526040925060408601915060408160051b8701018488016000805b8481101561322d57898403603f19018652825180516001600160a01b039081168652898201518a8701528882015160c08a8801819052815190880181905260e0880192918c01919086905b808210156131ee57835183168552938d0193928d0192600191909101906131cc565b50505050606082810151908701526080808301519087015260a0918201519161321981880184613135565b509689019694505091870191600101613181565b50919998505050505050505050565b80356001600160a01b038116811461084757600080fd5b60006020828403121561326557600080fd5b61221e8261323c565b60006020828403121561328057600080fd5b5035919050565b6001600160a01b038616815260208101859052604081018490526060810183905260a081016122cc6080830184613135565b600080604083850312156132cc57600080fd5b6132d58361323c565b946020939093013593505050565b803560ff8116811461084757600080fd5b60006020828403121561330657600080fd5b61221e826132e3565b6000806040838503121561332257600080fd5b50508035926020909101359150565b60008151808452602080850194506020840160005b83811015612de85781516001600160a01b031687529582019590820190600101613346565b60208152600061221e6020830184613331565b60006001600160401b0382111561339757613397612fa4565b5060051b60200190565b600082601f8301126133b257600080fd5b813560206133c76133c28361337e565b612fba565b8083825260208201915060208460051b8701019350868411156133e957600080fd5b602086015b8481101561340c576133ff8161323c565b83529183019183016133ee565b509695505050505050565b600082601f83011261342857600080fd5b813560206134386133c28361337e565b8083825260208201915060208460051b87010193508684111561345a57600080fd5b602086015b8481101561340c578035835291830191830161345f565b6000806040838503121561348957600080fd5b82356001600160401b03808211156134a057600080fd5b6134ac868387016133a1565b935060208501359150808211156134c257600080fd5b506130b285828601613417565b87815260018060a01b038716602082015285604082015260e0606082015260006134fc60e0830187613331565b85608084015282810360a084015261351481866130e0565b9150508260c083015298975050505050505050565b60008060008060008060008060006101208a8c03121561354857600080fd5b6135518a61323c565b985061355f60208b0161323c565b975061356d60408b0161323c565b965061357b60608b0161323c565b955061358960808b016132e3565b945061359760a08b0161323c565b93506135a560c08b0161323c565b92506135b360e08b0161323c565b91506101008a013590509295985092959850929598565b600080604083850312156135dd57600080fd5b6135e68361323c565b91506135f4602084016132e3565b90509250929050565b60008060006060848603121561361257600080fd5b8335925060208401356001600160401b038082111561363057600080fd5b61363c878388016133a1565b9350604086013591508082111561365257600080fd5b5061365f86828701613417565b9150509250925092565b6000806040838503121561367c57600080fd5b823591506135f46020840161323c565b6000835161369e8184602088016130bc565b8351908301906136b28183602088016130bc565b01949350505050565b634e487b7160e01b600052601160045260246000fd5b81810381811115610673576106736136bb565b634e487b7160e01b600052601260045260246000fd5b600082613709576137096136e4565b500490565b634e487b7160e01b600052603260045260246000fd5b84815260806020820152600061373d6080830186613331565b6040830194909452506060015292915050565b600181811c9082168061376457607f821691505b60208210810361125957634e487b7160e01b600052602260045260246000fd5b601f821115611280576000816000526020600020601f850160051c810160208610156137ad5750805b601f850160051c820191505b818110156137cc578281556001016137b9565b505050505050565b81516001600160401b038111156137ed576137ed612fa4565b613801816137fb8454613750565b84613784565b602080601f831160018114613836576000841561381e5750858301515b600019600386901b1c1916600185901b1785556137cc565b600085815260208120601f198616915b8281101561386557888601518255948401946001909101908401613846565b50858210156138835787850151600019600388901b60f8161c191681555b5050505050600190811b01905550565b8082028115828204841417610673576106736136bb565b80820180821115610673576106736136bb565b6001600160a01b0389811682526020820189905260408201889052861660608201526001600160e01b03198516608082015260a0810184905260c0810183905261010060e08201819052600090613916838201856130e0565b9b9a5050505050505050505050565b815160009082906020808601845b838110156139585781516001600160a01b031685529382019390820190600101613933565b50929695505050505050565b6020808252825182820181905260009190848201906040850190845b8181101561399c57835183529284019291840191600101613980565b50909695505050505050565b60018060a01b038616815284602082015260a0604082015260006139cf60a0830186613331565b606083019490945250608001529392505050565b60018060a01b0384168152826020820152606060408201526000613a0a60608301846130e0565b95945050505050565b600060208284031215613a2557600080fd5b8151801515811461221e57600080fd5b600082613a4457613a446136e4565b500690565b60008251613a5b8184602087016130bc565b9190910192915050565b600181815b80851115613aa0578160001904821115613a8657613a866136bb565b80851615613a9357918102915b93841c9390800290613a6a565b509250929050565b600082613ab757506001610673565b81613ac457506000610673565b8160018114613ada5760028114613ae457613b00565b6001915050610673565b60ff841115613af557613af56136bb565b50506001821b610673565b5060208310610133831016604e8410600b8410161715613b23575081810a610673565b613b2d8383613a65565b8060001904821115613b4157613b416136bb565b029392505050565b600061221e8383613aa856fe68747470733a2f2f6170702e6e65786c6162732e696f2f6170692f616c6c46756e64696e6752617465733f6d756c7469706c7946756e633d31382674696d65734e656746756e643d74727565266172726179733d74727565cd5ed15c6e187e77e9aee88184c21f4f2182ab5827cb3b7e07fbedcd63f03300a2646970667358221220c1fbc249cdff4e6d756cf6d25b943aa9a3db4001e6ccd7742e75b8a936498c3764736f6c63430008190033","linkReferences":{}},"methodIdentifiers":{"addMintRequest(uint256,address)":"f89b8f23","burn(uint256,address)":"fcd3533c","burnRequestNonce(bytes32)":"c72551be","burnRequests(uint256)":"6406c10c","concatenation(string,string)":"0e329357","confirmBurnRequest(bytes32)":"60daba33","confirmMintRequest(bytes32,uint256)":"64a9b8f7","custodianWallet()":"1e106e99","externalJobId()":"a8b54bd4","feeRate()":"978bbdb9","fulfillAssetsData(bytes32,address[],uint256[])":"f14bea20","getAllBurnRequests()":"1e7aa9f4","getAllCustodianWallets()":"a34003f4","getAllMintRequests()":"64c70d45","getBurnRequest(uint256)":"e21c40c0","getBurnRequestsLength()":"72f69a72","getMintRequest(uint256)":"b69b22d8","getMintRequestsLength()":"311104f3","initialize(address,address,address,address,uint8,address,address,address,bytes32)":"e9d3e21f","issuer()":"1d143848","lastUpdateTime()":"c8f33c91","latestFeeUpdate()":"011ced5f","mintRequestNonce(bytes32)":"9ad4b86b","mintRequests(uint256)":"424e6575","mockFillAssetsList(address[],uint256[])":"addc70d1","oracleCustodianList(uint256)":"c2275940","oraclePayment()":"0c02e130","oracleShareList(uint256)":"b9a5575b","owner()":"8da5cb5b","pause()":"8456cb59","paused()":"5c975abb","renounceOwnership()":"715018a6","requestAssetsData()":"7ca58c55","setCustodianWallet(address)":"9cc0fb5b","setFeeRate(uint8)":"5177942a","setIssuer(address)":"55cc4e57","setOracleInfo(address,bytes32)":"43482fc8","setTokenAddress(address)":"26a4e8d2","setUrl(string,string)":"a73e1cbf","setUsdcAddress(address,uint8)":"eab2a711","token()":"fc0c546a","totalOracleList()":"c8599ded","transferOwnership(address)":"f2fde38b","unpause()":"3f4ba83a","usdc()":"3e413bee","usdcDecimals()":"7bf42165"},"id":20}