{"abi":[{"type":"function","name":"actionInfoById","inputs":[{"name":"","type":"uint256","internalType":"uint256"}],"outputs":[{"name":"actionType","type":"uint256","internalType":"uint256"},{"name":"nonce","type":"uint256","internalType":"uint256"}],"stateMutability":"view"},{"type":"function","name":"burnedTokenAmountByNonce","inputs":[{"name":"","type":"uint256","internalType":"uint256"}],"outputs":[{"name":"","type":"uint256","internalType":"uint256"}],"stateMutability":"view"},{"type":"function","name":"buyRequestPayedAmountById","inputs":[{"name":"","type":"uint256","internalType":"uint256"}],"outputs":[{"name":"","type":"uint256","internalType":"uint256"}],"stateMutability":"view"},{"type":"function","name":"calculateBuyRequestFee","inputs":[{"name":"_amount","type":"uint256","internalType":"uint256"}],"outputs":[{"name":"","type":"uint256","internalType":"uint256"}],"stateMutability":"view"},{"type":"function","name":"calculateIssuanceFee","inputs":[{"name":"_inputAmount","type":"uint256","internalType":"uint256"}],"outputs":[{"name":"","type":"uint256","internalType":"uint256"}],"stateMutability":"view"},{"type":"function","name":"cancelIssuance","inputs":[{"name":"_issuanceNonce","type":"uint256","internalType":"uint256"}],"outputs":[],"stateMutability":"nonpayable"},{"type":"function","name":"cancelIssuanceComplted","inputs":[{"name":"","type":"uint256","internalType":"uint256"}],"outputs":[{"name":"","type":"bool","internalType":"bool"}],"stateMutability":"view"},{"type":"function","name":"cancelIssuanceRequestId","inputs":[{"name":"","type":"uint256","internalType":"uint256"},{"name":"","type":"address","internalType":"address"}],"outputs":[{"name":"","type":"uint256","internalType":"uint256"}],"stateMutability":"view"},{"type":"function","name":"cancelIssuanceUnfilledAmount","inputs":[{"name":"","type":"uint256","internalType":"uint256"},{"name":"","type":"address","internalType":"address"}],"outputs":[{"name":"","type":"uint256","internalType":"uint256"}],"stateMutability":"view"},{"type":"function","name":"cancelRedemption","inputs":[{"name":"_redemptionNonce","type":"uint256","internalType":"uint256"}],"outputs":[],"stateMutability":"nonpayable"},{"type":"function","name":"cancelRedemptionComplted","inputs":[{"name":"","type":"uint256","internalType":"uint256"}],"outputs":[{"name":"","type":"bool","internalType":"bool"}],"stateMutability":"view"},{"type":"function","name":"cancelRedemptionRequestId","inputs":[{"name":"","type":"uint256","internalType":"uint256"},{"name":"","type":"address","internalType":"address"}],"outputs":[{"name":"","type":"uint256","internalType":"uint256"}],"stateMutability":"view"},{"type":"function","name":"cancelRedemptionUnfilledAmount","inputs":[{"name":"","type":"uint256","internalType":"uint256"},{"name":"","type":"address","internalType":"address"}],"outputs":[{"name":"","type":"uint256","internalType":"uint256"}],"stateMutability":"view"},{"type":"function","name":"checkMultical","inputs":[{"name":"_reqeustId","type":"uint256","internalType":"uint256"}],"outputs":[{"name":"","type":"bool","internalType":"bool"}],"stateMutability":"view"},{"type":"function","name":"coaByIssuanceNonce","inputs":[{"name":"","type":"uint256","internalType":"uint256"}],"outputs":[{"name":"","type":"address","internalType":"address"}],"stateMutability":"view"},{"type":"function","name":"coaByRedemptionNonce","inputs":[{"name":"","type":"uint256","internalType":"uint256"}],"outputs":[{"name":"","type":"address","internalType":"address"}],"stateMutability":"view"},{"type":"function","name":"completeCancelIssuance","inputs":[{"name":"_issuanceNonce","type":"uint256","internalType":"uint256"}],"outputs":[],"stateMutability":"nonpayable"},{"type":"function","name":"completeCancelRedemption","inputs":[{"name":"_redemptionNonce","type":"uint256","internalType":"uint256"}],"outputs":[],"stateMutability":"nonpayable"},{"type":"function","name":"completeIssuance","inputs":[{"name":"_issuanceNonce","type":"uint256","internalType":"uint256"}],"outputs":[],"stateMutability":"nonpayable"},{"type":"function","name":"completeRedemption","inputs":[{"name":"_redemptionNonce","type":"uint256","internalType":"uint256"}],"outputs":[],"stateMutability":"nonpayable"},{"type":"function","name":"factoryStorage","inputs":[],"outputs":[{"name":"","type":"address","internalType":"contract IndexFactoryStorage"}],"stateMutability":"view"},{"type":"function","name":"feeRate","inputs":[],"outputs":[{"name":"","type":"uint8","internalType":"uint8"}],"stateMutability":"view"},{"type":"function","name":"getActionType","inputs":[{"name":"_requestId","type":"uint256","internalType":"uint256"}],"outputs":[{"name":"","type":"uint256","internalType":"uint256"}],"stateMutability":"view"},{"type":"function","name":"getIssuanceAmountOut","inputs":[{"name":"_amount","type":"uint256","internalType":"uint256"}],"outputs":[{"name":"","type":"uint256","internalType":"uint256"}],"stateMutability":"view"},{"type":"function","name":"getOrderInstanceById","inputs":[{"name":"id","type":"uint256","internalType":"uint256"}],"outputs":[{"name":"","type":"tuple","internalType":"struct IOrderProcessor.Order","components":[{"name":"requestTimestamp","type":"uint64","internalType":"uint64"},{"name":"recipient","type":"address","internalType":"address"},{"name":"assetToken","type":"address","internalType":"address"},{"name":"paymentToken","type":"address","internalType":"address"},{"name":"sell","type":"bool","internalType":"bool"},{"name":"orderType","type":"uint8","internalType":"enum IOrderProcessor.OrderType"},{"name":"assetTokenQuantity","type":"uint256","internalType":"uint256"},{"name":"paymentTokenQuantity","type":"uint256","internalType":"uint256"},{"name":"price","type":"uint256","internalType":"uint256"},{"name":"tif","type":"uint8","internalType":"enum IOrderProcessor.TIF"}]}],"stateMutability":"view"},{"type":"function","name":"getPortfolioValue","inputs":[],"outputs":[{"name":"","type":"uint256","internalType":"uint256"}],"stateMutability":"view"},{"type":"function","name":"getRedemptionAmountOut","inputs":[{"name":"_amount","type":"uint256","internalType":"uint256"}],"outputs":[{"name":"","type":"uint256","internalType":"uint256"}],"stateMutability":"view"},{"type":"function","name":"getVaultDshareBalance","inputs":[{"name":"_token","type":"address","internalType":"address"}],"outputs":[{"name":"","type":"uint256","internalType":"uint256"}],"stateMutability":"view"},{"type":"function","name":"getVaultDshareValue","inputs":[{"name":"_token","type":"address","internalType":"address"}],"outputs":[{"name":"","type":"uint256","internalType":"uint256"}],"stateMutability":"view"},{"type":"function","name":"initialize","inputs":[{"name":"_factoryStorage","type":"address","internalType":"address"},{"name":"_orderManager","type":"address","internalType":"address"},{"name":"_issuer","type":"address","internalType":"address"},{"name":"_token","type":"address","internalType":"address"},{"name":"_vault","type":"address","internalType":"address"},{"name":"_usdc","type":"address","internalType":"address"},{"name":"_usdcDecimals","type":"uint8","internalType":"uint8"},{"name":"_isMainnet","type":"bool","internalType":"bool"}],"outputs":[],"stateMutability":"nonpayable"},{"type":"function","name":"isMainnet","inputs":[],"outputs":[{"name":"","type":"bool","internalType":"bool"}],"stateMutability":"view"},{"type":"function","name":"issuanceIndexTokenPrimaryTotalSupply","inputs":[{"name":"","type":"uint256","internalType":"uint256"}],"outputs":[{"name":"","type":"uint256","internalType":"uint256"}],"stateMutability":"view"},{"type":"function","name":"issuanceIndexTokens","inputs":[{"name":"_inputAmount","type":"uint256","internalType":"uint256"}],"outputs":[{"name":"","type":"uint256","internalType":"uint256"}],"stateMutability":"nonpayable"},{"type":"function","name":"issuanceInputAmount","inputs":[{"name":"","type":"uint256","internalType":"uint256"}],"outputs":[{"name":"","type":"uint256","internalType":"uint256"}],"stateMutability":"view"},{"type":"function","name":"issuanceIsCompleted","inputs":[{"name":"","type":"uint256","internalType":"uint256"}],"outputs":[{"name":"","type":"bool","internalType":"bool"}],"stateMutability":"view"},{"type":"function","name":"issuanceNonce","inputs":[],"outputs":[{"name":"","type":"uint256","internalType":"uint256"}],"stateMutability":"view"},{"type":"function","name":"issuanceRequestId","inputs":[{"name":"","type":"uint256","internalType":"uint256"},{"name":"","type":"address","internalType":"address"}],"outputs":[{"name":"","type":"uint256","internalType":"uint256"}],"stateMutability":"view"},{"type":"function","name":"issuanceRequesterByNonce","inputs":[{"name":"","type":"uint256","internalType":"uint256"}],"outputs":[{"name":"","type":"address","internalType":"address"}],"stateMutability":"view"},{"type":"function","name":"issuanceTokenPrimaryBalance","inputs":[{"name":"","type":"uint256","internalType":"uint256"},{"name":"","type":"address","internalType":"address"}],"outputs":[{"name":"","type":"uint256","internalType":"uint256"}],"stateMutability":"view"},{"type":"function","name":"issuer","inputs":[],"outputs":[{"name":"","type":"address","internalType":"contract IOrderProcessor"}],"stateMutability":"view"},{"type":"function","name":"latestFeeUpdate","inputs":[],"outputs":[{"name":"","type":"uint256","internalType":"uint256"}],"stateMutability":"view"},{"type":"function","name":"multical","inputs":[{"name":"_requestId","type":"uint256","internalType":"uint256"}],"outputs":[],"stateMutability":"nonpayable"},{"type":"function","name":"orderInstanceById","inputs":[{"name":"","type":"uint256","internalType":"uint256"}],"outputs":[{"name":"requestTimestamp","type":"uint64","internalType":"uint64"},{"name":"recipient","type":"address","internalType":"address"},{"name":"assetToken","type":"address","internalType":"address"},{"name":"paymentToken","type":"address","internalType":"address"},{"name":"sell","type":"bool","internalType":"bool"},{"name":"orderType","type":"uint8","internalType":"enum IOrderProcessor.OrderType"},{"name":"assetTokenQuantity","type":"uint256","internalType":"uint256"},{"name":"paymentTokenQuantity","type":"uint256","internalType":"uint256"},{"name":"price","type":"uint256","internalType":"uint256"},{"name":"tif","type":"uint8","internalType":"enum IOrderProcessor.TIF"}],"stateMutability":"view"},{"type":"function","name":"orderManager","inputs":[],"outputs":[{"name":"","type":"address","internalType":"contract OrderManager"}],"stateMutability":"view"},{"type":"function","name":"owner","inputs":[],"outputs":[{"name":"","type":"address","internalType":"address"}],"stateMutability":"view"},{"type":"function","name":"pause","inputs":[],"outputs":[],"stateMutability":"nonpayable"},{"type":"function","name":"paused","inputs":[],"outputs":[{"name":"","type":"bool","internalType":"bool"}],"stateMutability":"view"},{"type":"function","name":"portfolioValueByNonce","inputs":[{"name":"","type":"uint256","internalType":"uint256"}],"outputs":[{"name":"","type":"uint256","internalType":"uint256"}],"stateMutability":"view"},{"type":"function","name":"priceInWei","inputs":[{"name":"_tokenAddress","type":"address","internalType":"address"}],"outputs":[{"name":"","type":"uint256","internalType":"uint256"}],"stateMutability":"view"},{"type":"function","name":"redemption","inputs":[{"name":"_inputAmount","type":"uint256","internalType":"uint256"}],"outputs":[{"name":"","type":"uint256","internalType":"uint256"}],"stateMutability":"nonpayable"},{"type":"function","name":"redemptionIndexTokenPrimaryTotalSupply","inputs":[{"name":"","type":"uint256","internalType":"uint256"}],"outputs":[{"name":"","type":"uint256","internalType":"uint256"}],"stateMutability":"view"},{"type":"function","name":"redemptionInputAmount","inputs":[{"name":"","type":"uint256","internalType":"uint256"}],"outputs":[{"name":"","type":"uint256","internalType":"uint256"}],"stateMutability":"view"},{"type":"function","name":"redemptionIsCompleted","inputs":[{"name":"","type":"uint256","internalType":"uint256"}],"outputs":[{"name":"","type":"bool","internalType":"bool"}],"stateMutability":"view"},{"type":"function","name":"redemptionNonce","inputs":[],"outputs":[{"name":"","type":"uint256","internalType":"uint256"}],"stateMutability":"view"},{"type":"function","name":"redemptionRequestId","inputs":[{"name":"","type":"uint256","internalType":"uint256"},{"name":"","type":"address","internalType":"address"}],"outputs":[{"name":"","type":"uint256","internalType":"uint256"}],"stateMutability":"view"},{"type":"function","name":"redemptionRequesterByNonce","inputs":[{"name":"","type":"uint256","internalType":"uint256"}],"outputs":[{"name":"","type":"address","internalType":"address"}],"stateMutability":"view"},{"type":"function","name":"redemptionTokenPrimaryBalance","inputs":[{"name":"","type":"uint256","internalType":"uint256"},{"name":"","type":"address","internalType":"address"}],"outputs":[{"name":"","type":"uint256","internalType":"uint256"}],"stateMutability":"view"},{"type":"function","name":"renounceOwnership","inputs":[],"outputs":[],"stateMutability":"nonpayable"},{"type":"function","name":"sellRequestAssetAmountById","inputs":[{"name":"","type":"uint256","internalType":"uint256"}],"outputs":[{"name":"","type":"uint256","internalType":"uint256"}],"stateMutability":"view"},{"type":"function","name":"setFeeRate","inputs":[{"name":"_newFee","type":"uint8","internalType":"uint8"}],"outputs":[],"stateMutability":"nonpayable"},{"type":"function","name":"setIndexFactoryStorage","inputs":[{"name":"_factoryStorage","type":"address","internalType":"address"}],"outputs":[{"name":"","type":"bool","internalType":"bool"}],"stateMutability":"nonpayable"},{"type":"function","name":"setIssuer","inputs":[{"name":"_issuer","type":"address","internalType":"address"}],"outputs":[{"name":"","type":"bool","internalType":"bool"}],"stateMutability":"nonpayable"},{"type":"function","name":"setTokenAddress","inputs":[{"name":"_token","type":"address","internalType":"address"}],"outputs":[{"name":"","type":"bool","internalType":"bool"}],"stateMutability":"nonpayable"},{"type":"function","name":"setUsdcAddress","inputs":[{"name":"_usdc","type":"address","internalType":"address"},{"name":"_usdcDecimals","type":"uint8","internalType":"uint8"}],"outputs":[{"name":"","type":"bool","internalType":"bool"}],"stateMutability":"nonpayable"},{"type":"function","name":"token","inputs":[],"outputs":[{"name":"","type":"address","internalType":"contract IndexToken"}],"stateMutability":"view"},{"type":"function","name":"tokenShortagePercentByNonce","inputs":[{"name":"","type":"uint256","internalType":"uint256"},{"name":"","type":"address","internalType":"address"}],"outputs":[{"name":"","type":"uint256","internalType":"uint256"}],"stateMutability":"view"},{"type":"function","name":"tokenValueByNonce","inputs":[{"name":"","type":"uint256","internalType":"uint256"},{"name":"","type":"address","internalType":"address"}],"outputs":[{"name":"","type":"uint256","internalType":"uint256"}],"stateMutability":"view"},{"type":"function","name":"totalShortagePercentByNonce","inputs":[{"name":"","type":"uint256","internalType":"uint256"}],"outputs":[{"name":"","type":"uint256","internalType":"uint256"}],"stateMutability":"view"},{"type":"function","name":"transferOwnership","inputs":[{"name":"newOwner","type":"address","internalType":"address"}],"outputs":[],"stateMutability":"nonpayable"},{"type":"function","name":"unpause","inputs":[],"outputs":[],"stateMutability":"nonpayable"},{"type":"function","name":"usdc","inputs":[],"outputs":[{"name":"","type":"address","internalType":"address"}],"stateMutability":"view"},{"type":"function","name":"usdcDecimals","inputs":[],"outputs":[{"name":"","type":"uint8","internalType":"uint8"}],"stateMutability":"view"},{"type":"function","name":"vault","inputs":[],"outputs":[{"name":"","type":"address","internalType":"contract NexVault"}],"stateMutability":"view"},{"type":"event","name":"Initialized","inputs":[{"name":"version","type":"uint64","indexed":false,"internalType":"uint64"}],"anonymous":false},{"type":"event","name":"Issuanced","inputs":[{"name":"nonce","type":"uint256","indexed":true,"internalType":"uint256"},{"name":"user","type":"address","indexed":true,"internalType":"address"},{"name":"inputToken","type":"address","indexed":false,"internalType":"address"},{"name":"inputAmount","type":"uint256","indexed":false,"internalType":"uint256"},{"name":"outputAmount","type":"uint256","indexed":false,"internalType":"uint256"},{"name":"time","type":"uint256","indexed":false,"internalType":"uint256"}],"anonymous":false},{"type":"event","name":"OwnershipTransferred","inputs":[{"name":"previousOwner","type":"address","indexed":true,"internalType":"address"},{"name":"newOwner","type":"address","indexed":true,"internalType":"address"}],"anonymous":false},{"type":"event","name":"Paused","inputs":[{"name":"account","type":"address","indexed":false,"internalType":"address"}],"anonymous":false},{"type":"event","name":"Redemption","inputs":[{"name":"nonce","type":"uint256","indexed":true,"internalType":"uint256"},{"name":"user","type":"address","indexed":true,"internalType":"address"},{"name":"outputToken","type":"address","indexed":false,"internalType":"address"},{"name":"inputAmount","type":"uint256","indexed":false,"internalType":"uint256"},{"name":"outputAmount","type":"uint256","indexed":false,"internalType":"uint256"},{"name":"time","type":"uint256","indexed":false,"internalType":"uint256"}],"anonymous":false},{"type":"event","name":"RequestIssuance","inputs":[{"name":"nonce","type":"uint256","indexed":true,"internalType":"uint256"},{"name":"user","type":"address","indexed":true,"internalType":"address"},{"name":"inputToken","type":"address","indexed":false,"internalType":"address"},{"name":"inputAmount","type":"uint256","indexed":false,"internalType":"uint256"},{"name":"outputAmount","type":"uint256","indexed":false,"internalType":"uint256"},{"name":"time","type":"uint256","indexed":false,"internalType":"uint256"}],"anonymous":false},{"type":"event","name":"RequestRedemption","inputs":[{"name":"nonce","type":"uint256","indexed":true,"internalType":"uint256"},{"name":"user","type":"address","indexed":true,"internalType":"address"},{"name":"outputToken","type":"address","indexed":false,"internalType":"address"},{"name":"inputAmount","type":"uint256","indexed":false,"internalType":"uint256"},{"name":"outputAmount","type":"uint256","indexed":false,"internalType":"uint256"},{"name":"time","type":"uint256","indexed":false,"internalType":"uint256"}],"anonymous":false},{"type":"event","name":"Unpaused","inputs":[{"name":"account","type":"address","indexed":false,"internalType":"address"}],"anonymous":false},{"type":"error","name":"EnforcedPause","inputs":[]},{"type":"error","name":"ExpectedPause","inputs":[]},{"type":"error","name":"InvalidInitialization","inputs":[]},{"type":"error","name":"NotInitializing","inputs":[]},{"type":"error","name":"OwnableInvalidOwner","inputs":[{"name":"owner","type":"address","internalType":"address"}]},{"type":"error","name":"OwnableUnauthorizedAccount","inputs":[{"name":"account","type":"address","internalType":"address"}]},{"type":"error","name":"PRBMath_MulDiv_Overflow","inputs":[{"name":"x","type":"uint256","internalType":"uint256"},{"name":"y","type":"uint256","internalType":"uint256"},{"name":"denominator","type":"uint256","internalType":"uint256"}]}],"bytecode":{"object":"0x6080604052348015600f57600080fd5b506161638061001f6000396000f3fe608060405234801561001057600080fd5b50600436106104335760003560e01c80638da5cb5b11610236578063bed45bef1161013b578063e19eefbe116100c3578063f2fde38b11610087578063f2fde38b14610beb578063f513a71814610bfe578063f9b6117f14610c29578063fbfa77cf14610c3c578063fc0c546a14610c4f57600080fd5b8063e19eefbe14610b7f578063e2851bd614610b92578063eab2a71114610ba5578063efdf505314610bb8578063f1f31d6614610bcb57600080fd5b8063cf9ee3191161010a578063cf9ee31914610ad6578063da65925a14610af6578063daf1c17d14610b21578063db5c1a1214610b41578063e16e554a14610b6c57600080fd5b8063bed45bef14610a8a578063c06e1ae214610a9d578063c8da330314610ab0578063cc8659ae14610ac357600080fd5b8063a363b9cb116101be578063b1dd819e1161018d578063b1dd819e146109ed578063b316e7fd14610a0d578063b46840f914610a36578063b75f4c2c14610a59578063bb0498de14610a8257600080fd5b8063a363b9cb1461095f578063a84ebc171461098a578063a87f98d2146109ad578063ab7820b2146109cd57600080fd5b8063978bbdb911610205578063978bbdb9146108e45780639cf54521146108f85780639dbb9c9e146109185780639edcf9f414610921578063a08d7bd61461094c57600080fd5b80638da5cb5b1461088d5780639026544f146108955780639219e510146108a857806394674098146108bb57600080fd5b80635177942a1161033c57806378032658116102c4578063840ecba011610293578063840ecba01461081e5780638456cb591461083157806384d77bb1146108395780638861d235146108425780638c2218991461086257600080fd5b806378032658146107995780637bf42165146107c25780637bfa27f2146107e8578063807ca2371461080b57600080fd5b80636839a0951161030b5780636839a095146107355780636e32040814610748578063715018a61461075b57806373b774ed1461076357806376529fdf1461077657600080fd5b80635177942a146106cc57806355cc4e57146106df5780635c975abb146106f2578063632439fd1461070a57600080fd5b806331c99010116103bf5780633f4ba83a1161038e5780633f4ba83a1461067c57806342faac051461068657806346d66a2c1461069357806348f6e87b146106a65780634a1dc092146106b957600080fd5b806331c99010146105e45780633aeff0591461060d5780633c1f70ca1461062d5780633e413bee1461066957600080fd5b80631d143848116104065780631d1438481461052b578063264fa8b91461055657806326a4e8d2146105815780632badae5d146105a45780632ca49334146105c457600080fd5b8063011ced5f1461043857806302e80f711461045457806306995e3b1461047f57806315e666a214610492575b600080fd5b61044160265481565b6040519081526020015b60405180910390f35b610441610462366004615a34565b600c60209081526000928352604080842090915290825290205481565b61044161048d366004615a64565b610c62565b6105156104a0366004615a64565b601e60205260009081526040902080546001820154600283015460038401546004850154600586015460069096015467ffffffffffffffff8616966001600160a01b03600160401b9097048716969586169585169460ff600160a01b8204811695600160a81b9092048116949193919291168a565b60405161044b9a99989796959493929190615ab7565b60075461053e906001600160a01b031681565b6040516001600160a01b03909116815260200161044b565b610441610564366004615a34565b601060209081526000928352604080842090915290825290205481565b61059461058f366004615b2d565b610d02565b604051901515815260200161044b565b6104416105b2366004615a64565b601f6020526000908152604090205481565b6104416105d2366004615a64565b60226020526000908152604090205481565b61053e6105f2366004615a64565b601a602052600090815260409020546001600160a01b031681565b61044161061b366004615a64565b60009081526025602052604090205490565b61065461063b366004615a64565b6025602052600090815260409020805460019091015482565b6040805192835260208301919091520161044b565b60085461053e906001600160a01b031681565b610684610d83565b005b600b546105949060ff1681565b6106846106a1366004615a64565b610d95565b6106846106b4366004615b67565b611511565b6104416106c7366004615a64565b611756565b6106846106da366004615c10565b611dc7565b6105946106ed366004615b2d565b611f12565b60008051602061610e8339815191525460ff16610594565b610441610718366004615a34565b600f60209081526000928352604080842090915290825290205481565b610441610743366004615b2d565b611f90565b610441610756366004615a64565b612174565b6106846127cb565b610684610771366004615a64565b6127dd565b610594610784366004615a64565b60016020526000908152604090205460ff1681565b61053e6107a7366004615a64565b6019602052600090815260409020546001600160a01b031681565b6008546107d690600160a01b900460ff1681565b60405160ff909116815260200161044b565b6105946107f6366004615a64565b601c6020526000908152604090205460ff1681565b610684610819366004615a64565b612861565b61068461082c366004615a64565b612ba3565b610684613070565b610441600a5481565b610441610850366004615a64565b60126020526000908152604090205481565b610441610870366004615a34565b600d60209081526000928352604080842090915290825290205481565b61053e613080565b6106846108a3366004615a64565b6130ae565b6106846108b6366004615a64565b61372b565b61053e6108c9366004615a64565b6018602052600090815260409020546001600160a01b031681565b6008546107d690600160a81b900460ff1681565b610441610906366004615a64565b60246020526000908152604090205481565b61044160095481565b61044161092f366004615a34565b600e60209081526000928352604080842090915290825290205481565b61044161095a366004615b2d565b613e80565b61044161096d366004615a34565b601560209081526000928352604080842090915290825290205481565b610594610998366004615a64565b60006020819052908152604090205460ff1681565b6104416109bb366004615a64565b60136020526000908152604090205481565b6104416109db366004615a64565b60026020526000908152604090205481565b6104416109fb366004615a64565b60166020526000908152604090205481565b610441610a1b366004615a34565b60208080526000928352604080842090915290825290205481565b610594610a44366004615a64565b601d6020526000908152604090205460ff1681565b61053e610a67366004615a64565b601b602052600090815260409020546001600160a01b031681565b610441613fdb565b610684610a98366004615a64565b6140e2565b60045461053e906001600160a01b031681565b610441610abe366004615a64565b6148b3565b610594610ad1366004615b2d565b614952565b610441610ae4366004615a64565b60236020526000908152604090205481565b610441610b04366004615a34565b601460209081526000928352604080842090915290825290205481565b610441610b2f366004615a64565b60176020526000908152604090205481565b610441610b4f366004615a34565b602160209081526000928352604080842090915290825290205481565b610594610b7a366004615a64565b6149d7565b610441610b8d366004615a64565b614b3a565b610441610ba0366004615a64565b614d77565b610594610bb3366004615c2d565b614e0c565b610441610bc6366004615b2d565b614e96565b610bde610bd9366004615a64565b614ece565b60405161044b9190615c5b565b610684610bf9366004615b2d565b614fd5565b610441610c0c366004615a34565b601160209081526000928352604080842090915290825290205481565b60065461053e906001600160a01b031681565b60055461053e906001600160a01b031681565b60035461053e906001600160a01b031681565b6007546008546040516308da5c3560e21b81526000600482018190526001600160a01b039283166024830152928392839291169063236970d4906044016040805180830381865afa158015610cbb573d6000803e3d6000fd5b505050506040513d601f19601f82011682018060405250810190610cdf9190615d21565b915091506000610cef8286615013565b610cf99084615d64565b95945050505050565b6000610d0c61503c565b6001600160a01b038216610d5f5760405162461bcd60e51b8152602060048201526015602482015274696e76616c696420746f6b656e206164647265737360581b60448201526064015b60405180910390fd5b50600380546001600160a01b0319166001600160a01b03831617905560015b919050565b610d8b61503c565b610d9361506e565b565b60008181526020819052604090205460ff1615610dec5760405162461bcd60e51b8152602060048201526015602482015274125cdcdd585b98d9481a5cc818dbdb5c1b195d1959605a1b6044820152606401610d56565b6000818152601860205260409020546001600160a01b0316338114610e625760405162461bcd60e51b815260206004820152602660248201527f4f6e6c79207265717565737465722063616e2063616e63656c207468652069736044820152657375616e636560d01b6064820152608401610d56565b60005b60048054604080516329fea19960e11b815290516001600160a01b03909216926353fd43329282820192602092908290030181865afa158015610eac573d6000803e3d6000fd5b505050506040513d601f19601f82011682018060405250810190610ed09190615d77565b81101561150c576004805460405163264cae9360e21b81529182018390526000916001600160a01b0390911690639932ba4c90602401602060405180830381865afa158015610f23573d6000803e3d6000fd5b505050506040513d601f19601f82011682018060405250810190610f479190615d90565b60008581526010602090815260408083206001600160a01b03808616855290835281842054808552601e8452828520835161014081018552815467ffffffffffffffff81168252600160401b90048416958101959095526001808201548416948601949094526002810154928316606086015260ff600160a01b84048116151560808701529697509095909260a0850192600160a81b900490911690811115610ff257610ff2615a7d565b600181111561100357611003615a7d565b815260038281015460208301526004830154604083015260058301546060830152600683015460809092019160ff169081111561104257611042615a7d565b600381111561105357611053615a7d565b9052506007546040516322fd455760e11b8152600481018590529192506001916001600160a01b03909116906345fa8aae90602401602060405180830381865afa1580156110a5573d6000803e3d6000fd5b505050506040513d601f19601f820116820180604052508101906110c99190615dad565b60038111156110da576110da615a7d565b60ff16148015611154575060075460405163187b2ed160e21b8152600481018490526001600160a01b03909116906361ecbb4490602401602060405180830381865afa15801561112e573d6000803e3d6000fd5b505050506040513d601f19601f820116820180604052508101906111529190615d77565b155b156111bc5760065460405163514fcac760e01b8152600481018490526001600160a01b039091169063514fcac790602401600060405180830381600087803b15801561119f57600080fd5b505af11580156111b3573d6000803e3d6000fd5b50505050611501565b6007546040516322fd455760e11b8152600481018490526002916001600160a01b0316906345fa8aae90602401602060405180830381865afa158015611206573d6000803e3d6000fd5b505050506040513d601f19601f8201168201806040525081019061122a9190615dad565b600381111561123b5761123b615a7d565b60ff1614806112b5575060075460405163187b2ed160e21b8152600481018490526000916001600160a01b0316906361ecbb4490602401602060405180830381865afa15801561128f573d6000803e3d6000fd5b505050506040513d601f19601f820116820180604052508101906112b39190615d77565b115b156115015760075460405163187b2ed160e21b8152600481018490526000916001600160a01b0316906361ecbb4490602401602060405180830381865afa158015611304573d6000803e3d6000fd5b505050506040513d601f19601f820116820180604052508101906113289190615d77565b60065490915060009061134790869084906001600160a01b03166150ce565b6040805180820182526003815260208082018c81526000858152602583528481209351845590516001938401558c8152600c82528381206001600160a01b038b81168352925283902084905560075492516322fd455760e11b81526004810189905293945090929116906345fa8aae90602401602060405180830381865afa1580156113d7573d6000803e3d6000fd5b505050506040513d601f19601f820116820180604052508101906113fb9190615dad565b600381111561140c5761140c615a7d565b60ff16036114fe5760075460405163103fdae160e31b8152600481018690526001600160a01b03909116906381fed70890602401602060405180830381865afa15801561145d573d6000803e3d6000fd5b505050506040513d601f19601f820116820180604052508101906114819190615d77565b6000898152600e602090815260408083206001600160a01b038a8116855292529182902092909255600654905163514fcac760e01b81526004810187905291169063514fcac790602401600060405180830381600087803b1580156114e557600080fd5b505af11580156114f9573d6000803e3d6000fd5b505050505b50505b505050600101610e65565b505050565b7ff0c57e16840df040f15088dc2f81fe391c3923bec73e23a9662efc9c229c6a008054600160401b810460ff16159067ffffffffffffffff166000811580156115575750825b905060008267ffffffffffffffff1660011480156115745750303b155b905081158015611582575080155b156115a05760405163f92ee8a960e01b815260040160405180910390fd5b845467ffffffffffffffff1916600117855583156115ca57845460ff60401b1916600160401b1785555b8c600460006101000a8154816001600160a01b0302191690836001600160a01b031602179055508b600660006101000a8154816001600160a01b0302191690836001600160a01b031602179055508a600760006101000a8154816001600160a01b0302191690836001600160a01b0316021790555089600360006101000a8154816001600160a01b0302191690836001600160a01b0316021790555088600560006101000a8154816001600160a01b0302191690836001600160a01b0316021790555087600860006101000a8154816001600160a01b0302191690836001600160a01b0316021790555086600860146101000a81548160ff021916908360ff1602179055506116d83361546c565b6116e061547d565b6008805460ff60a81b1916600560a91b179055600b805460ff1916871515179055831561174757845460ff60401b19168555604051600181527fc7f505b2f371ae2175ee4913f4499e1f2633a7b5936321eed1cdaeb6115181d29060200160405180910390a15b50505050505050505050505050565b60006001600a600082825461176b9190615d64565b9091555050600a54600090815260246020908152604080832085905560035481516318160ddd60e01b815291516001600160a01b03909116926318160ddd92600480820193918290030181865afa1580156117ca573d6000803e3d6000fd5b505050506040513d601f19601f820116820180604052508101906117ee9190615d77565b61180084670de0b6b3a7640000615dce565b61180a9190615dfb565b600354604051632770a7eb60e21b8152336004820152602481018690529192506001600160a01b031690639dc29fac90604401600060405180830381600087803b15801561185757600080fd5b505af115801561186b573d6000803e3d6000fd5b5050600a5460009081526002602052604081208690559150505b60048054604080516329fea19960e11b815290516001600160a01b03909216926353fd43329282820192602092908290030181865afa1580156118cc573d6000803e3d6000fd5b505050506040513d601f19601f820116820180604052508101906118f09190615d77565b811015611d6c576004805460405163264cae9360e21b81529182018390526000916001600160a01b0390911690639932ba4c90602401602060405180830381865afa158015611943573d6000803e3d6000fd5b505050506040513d601f19601f820116820180604052508101906119679190615d90565b6004805460405162493aaf60e51b81526001600160a01b0380851693820193909352929350600092670de0b6b3a7640000929091169063092755e090602401602060405180830381865afa1580156119c3573d6000803e3d6000fd5b505050506040513d601f19601f820116820180604052508101906119e79190615d90565b6005546040516370a0823160e01b81526001600160a01b0391821660048201529116906370a0823190602401602060405180830381865afa158015611a30573d6000803e3d6000fd5b505050506040513d601f19601f82011682018060405250810190611a549190615d77565b611a5e9086615dce565b611a689190615dfb565b600654909150600090611a8790849084906001600160a01b03166150ce565b60408051808201825260028152600a805460208084019182526000868152602582528581209451855591516001909401939093556013835283812087905581548152601183528381206001600160a01b0389811680845291855285832087905592548252601990935283812080546001600160a01b0319163317905560048054945162493aaf60e51b815290810193909352939450919091169063092755e090602401602060405180830381865afa158015611b47573d6000803e3d6000fd5b505050506040513d601f19601f82011682018060405250810190611b6b9190615d90565b6005546040516370a0823160e01b81526001600160a01b0391821660048201529116906370a0823190602401602060405180830381865afa158015611bb4573d6000803e3d6000fd5b505050506040513d601f19601f82011682018060405250810190611bd89190615d77565b6004805460405162493aaf60e51b81526001600160a01b038881169382019390935292935060009291169063092755e090602401602060405180830381865afa158015611c29573d6000803e3d6000fd5b505050506040513d601f19601f82011682018060405250810190611c4d9190615d90565b6001600160a01b0316634cdad506836040518263ffffffff1660e01b8152600401611c7a91815260200190565b602060405180830381865afa158015611c97573d6000803e3d6000fd5b505050506040513d601f19601f82011682018060405250810190611cbb9190615d77565b600a5460009081526015602090815260408083206001600160a01b03808b1685529083529281902084905560035481516318160ddd60e01b81529151949550909216926318160ddd9260048082019392918290030181865afa158015611d25573d6000803e3d6000fd5b505050506040513d601f19601f82011682018060405250810190611d499190615d77565b600a54600090815260176020526040902055505060019093019250611885915050565b50600a546008546040513392917f318a1eb196638838739aab2348b851e63485b8c41dacc90eaff499a0f14ce53391611db5916001600160a01b03169088906000904290615e1d565b60405180910390a35050600a54919050565b611dcf61503c565b600060265442611ddf9190615e43565b9050600c603c611def8184615dfb565b611df99190615dfb565b11611e6c5760405162461bcd60e51b815260206004820152603960248201527f596f752073686f756c642077616974206174206c6561737420313220686f757260448201527f7320616674657220746865206c617465737420757064617465000000000000006064820152608401610d56565b6127108260ff1611158015611e85575060018260ff1610155b611eed5760405162461bcd60e51b815260206004820152603360248201527f546865206e65774665652073686f756c64206265206265747765656e203120616044820152726e64203130302028302e303125202d2031252960681b6064820152608401610d56565b506008805460ff909216600160a81b0260ff60a81b1990921691909117905542602655565b6000611f1c61503c565b6001600160a01b038216611f6b5760405162461bcd60e51b8152602060048201526016602482015275696e76616c696420697373756572206164647265737360501b6044820152606401610d56565b50600780546001600160a01b0383166001600160a01b03199091161790556001919050565b600b5460009060ff16156120f0576004805460405163023712c360e21b81526001600160a01b0385811693820193909352600092909116906308dc4b0c90602401602060405180830381865afa158015611fee573d6000803e3d6000fd5b505050506040513d601f19601f820116820180604052508101906120129190615d90565b90506000816001600160a01b031663feaf968c6040518163ffffffff1660e01b815260040160a060405180830381865afa158015612054573d6000803e3d6000fd5b505050506040513d601f19601f820116820180604052508101906120789190615e70565b5050509150506000826001600160a01b031663313ce5676040518163ffffffff1660e01b8152600401602060405180830381865afa1580156120be573d6000803e3d6000fd5b505050506040513d601f19601f820116820180604052508101906120e29190615ec0565b9050610cf98282601261548d565b60075460085460405163a377cfbf60e01b81526001600160a01b0385811660048301529182166024820152600092919091169063a377cfbf906044016040805180830381865afa158015612148573d6000803e3d6000fd5b505050506040513d601f19601f8201168201806040525081019061216c9190615edd565b519392505050565b60085460009081906127109061219490600160a81b900460ff1685615dce565b61219e9190615dfb565b905060006121ab84614b3a565b905060006121b98583615d64565b6008546006546040516323b872dd60e01b81529293506001600160a01b03918216926323b872dd926121f49233929116908690600401615f4b565b6020604051808303816000875af1158015612213573d6000803e3d6000fd5b505050506040513d601f19601f820116820180604052508101906122379190615f6f565b506008546001600160a01b03166323b872dd33612252613080565b866040518463ffffffff1660e01b815260040161227193929190615f4b565b6020604051808303816000875af1158015612290573d6000803e3d6000fd5b505050506040513d601f19601f820116820180604052508101906122b49190615f6f565b506001600960008282546122c89190615d64565b909155505060095460009081526023602052604081208690555b60048054604080516329fea19960e11b815290516001600160a01b03909216926353fd43329282820192602092908290030181865afa158015612329573d6000803e3d6000fd5b505050506040513d601f19601f8201168201806040525081019061234d9190615d77565b81101561276e576004805460405163264cae9360e21b81529182018390526000916001600160a01b0390911690639932ba4c90602401602060405180830381865afa1580156123a0573d6000803e3d6000fd5b505050506040513d601f19601f820116820180604052508101906123c49190615d90565b60048054604051630be5271360e01b81526001600160a01b038085169382019390935292935060009268056bc75e2d631000009290911690630be5271390602401602060405180830381865afa158015612422573d6000803e3d6000fd5b505050506040513d601f19601f820116820180604052508101906124469190615d77565b612450908a615dce565b61245a9190615dfb565b60065490915060009061247990849084906001600160a01b03166154cd565b604080518082018252600180825260098054602080850191825260008781526025825286812095518655915194909301939093556012825283832087905580548352601082528383206001600160a01b03808a16855290835284842086905590548352601890915282822080546001600160a01b0319163317905560048054935162493aaf60e51b8152949550919392169163092755e09161252c918891016001600160a01b0391909116815260200190565b602060405180830381865afa158015612549573d6000803e3d6000fd5b505050506040513d601f19601f8201168201806040525081019061256d9190615d90565b6005546040516370a0823160e01b81526001600160a01b0391821660048201529116906370a0823190602401602060405180830381865afa1580156125b6573d6000803e3d6000fd5b505050506040513d601f19601f820116820180604052508101906125da9190615d77565b6004805460405162493aaf60e51b81526001600160a01b038881169382019390935292935060009291169063092755e090602401602060405180830381865afa15801561262b573d6000803e3d6000fd5b505050506040513d601f19601f8201168201806040525081019061264f9190615d90565b6001600160a01b0316634cdad506836040518263ffffffff1660e01b815260040161267c91815260200190565b602060405180830381865afa158015612699573d6000803e3d6000fd5b505050506040513d601f19601f820116820180604052508101906126bd9190615d77565b60095460009081526014602090815260408083206001600160a01b03808b1685529083529281902084905560035481516318160ddd60e01b81529151949550909216926318160ddd9260048082019392918290030181865afa158015612727573d6000803e3d6000fd5b505050506040513d601f19601f8201168201806040525081019061274b9190615d77565b6009546000908152601660205260409020555050600190930192506122e2915050565b506009546008546040513392917fb564a60b4184bee9ffdc1c0fd0588a93c23e406438195eec9857050fece55c20916127b7916001600160a01b0316908a906000904290615e1d565b60405180910390a350506009549392505050565b6127d361503c565b610d9360006156a3565b60008181526025602090815260409182902082518084019093528054808452600191820154928401929092520361281f5761281b81602001516140e2565b5050565b80516002036128355761281b8160200151612ba3565b805160030361284b5761281b8160200151612861565b805160040361281b5761281b81602001516130ae565b6004805460405163631c838560e01b81529182018390526001600160a01b03169063631c838590602401602060405180830381865afa1580156128a8573d6000803e3d6000fd5b505050506040513d601f19601f820116820180604052508101906128cc9190615f6f565b6129185760405162461bcd60e51b815260206004820181905260248201527f43616e63656c2069737375616e6365206973206e6f7420636f6d706c657465646044820152606401610d56565b6000818152601c602052604090205460ff16156129475760405162461bcd60e51b8152600401610d5690615f8c565b6000818152601860205260408120546001600160a01b031690805b60048054604080516329fea19960e11b815290516001600160a01b03909216926353fd43329282820192602092908290030181865afa1580156129a9573d6000803e3d6000fd5b505050506040513d601f19601f820116820180604052508101906129cd9190615d77565b811015612b1b576004805460405163264cae9360e21b81529182018390526000916001600160a01b0390911690639932ba4c90602401602060405180830381865afa158015612a20573d6000803e3d6000fd5b505050506040513d601f19601f82011682018060405250810190612a449190615d90565b60008681526010602090815260408083206001600160a01b038581168552925280832054600754915163187b2ed160e21b815260048101829052949550939116906361ecbb4490602401602060405180830381865afa158015612aab573d6000803e3d6000fd5b505050506040513d601f19601f82011682018060405250810190612acf9190615d77565b6000888152600e602090815260408083206001600160a01b0388168452909152902054909150612aff8183615d64565b612b099087615d64565b95505060019093019250612962915050565b50600654600854604051631c20fadd60e01b81526001600160a01b0392831692631c20fadd92612b549291169086908690600401615f4b565b600060405180830381600087803b158015612b6e57600080fd5b505af1158015612b82573d6000803e3d6000fd5b50505060009384525050601c6020525060409020805460ff19166001179055565b60048054604051631fd6049160e11b81529182018390526001600160a01b031690633fac092290602401602060405180830381865afa158015612bea573d6000803e3d6000fd5b505050506040513d601f19601f82011682018060405250810190612c0e9190615f6f565b612c665760405162461bcd60e51b815260206004820152602360248201527f526564656d7074696f6e206f726465727320617265206e6f7420636f6d706c656044820152621d195960ea1b6064820152608401610d56565b60008181526001602052604090205460ff1615612cbf5760405162461bcd60e51b8152602060048201526017602482015276149959195b5c1d1a5bdb881a5cc818dbdb5c1b195d1959604a1b6044820152606401610d56565b6000818152601960205260408120546001600160a01b031690805b60048054604080516329fea19960e11b815290516001600160a01b03909216926353fd43329282820192602092908290030181865afa158015612d21573d6000803e3d6000fd5b505050506040513d601f19601f82011682018060405250810190612d459190615d77565b811015612ee2576004805460405163264cae9360e21b81529182018390526000916001600160a01b0390911690639932ba4c90602401602060405180830381865afa158015612d98573d6000803e3d6000fd5b505050506040513d601f19601f82011682018060405250810190612dbc9190615d90565b60008681526011602090815260408083206001600160a01b038581168552925280832054600754915163187b2ed160e21b815260048101829052949550939116906361ecbb4490602401602060405180830381865afa158015612e23573d6000803e3d6000fd5b505050506040513d601f19601f82011682018060405250810190612e479190615d77565b60075460405163069352a960e41b8152600481018590529192506000916001600160a01b03909116906369352a9090602401602060405180830381865afa158015612e96573d6000803e3d6000fd5b505050506040513d601f19601f82011682018060405250810190612eba9190615d77565b9050612ec68183615e43565b612ed09087615d64565b95505060019093019250612cda915050565b5060085460009061271090612f0190600160a81b900460ff1684615dce565b612f0b9190615dfb565b6006546008549192506001600160a01b0390811691631c20fadd9116612f2f613080565b846040518463ffffffff1660e01b8152600401612f4e93929190615f4b565b600060405180830381600087803b158015612f6857600080fd5b505af1158015612f7c573d6000803e3d6000fd5b50506006546008546001600160a01b039182169350631c20fadd92501685612fa48587615e43565b6040518463ffffffff1660e01b8152600401612fc293929190615f4b565b600060405180830381600087803b158015612fdc57600080fd5b505af1158015612ff0573d6000803e3d6000fd5b5050506000858152600160208181526040808420805460ff19169093179092556008546024909152918190205490516001600160a01b03878116945088937f1c5f6e901258d71ab0ecaa2fcf93176caa78dac41e03fe5dd7a0184727336d8a9361306293929091169188904290615e1d565b60405180910390a350505050565b61307861503c565b610d93615714565b7f9016d09d72d40fdae2fd8ceac6b6234c7706214fd39c1cd1e609a0528c199300546001600160a01b031690565b60048054604051635ac9331560e11b81529182018390526001600160a01b03169063b592662a90602401602060405180830381865afa1580156130f5573d6000803e3d6000fd5b505050506040513d601f19601f820116820180604052508101906131199190615f6f565b6131705760405162461bcd60e51b815260206004820152602260248201527f43616e63656c20726564656d7074696f6e206973206e6f7420636f6d706c6574604482015261195960f21b6064820152608401610d56565b6000818152601d602052604090205460ff161561319f5760405162461bcd60e51b8152600401610d5690615f8c565b600081815260196020908152604080832054601b9092528083205460085491516370a0823160e01b81526001600160a01b0391821660048201819052938216949291909116906370a0823190602401602060405180830381865afa15801561320b573d6000803e3d6000fd5b505050506040513d601f19601f8201168201806040525081019061322f9190615d77565b905060005b60048054604080516329fea19960e11b815290516001600160a01b03909216926353fd43329282820192602092908290030181865afa15801561327b573d6000803e3d6000fd5b505050506040513d601f19601f8201168201806040525081019061329f9190615d77565b811015613696576004805460405163264cae9360e21b81529182018390526000916001600160a01b0390911690639932ba4c90602401602060405180830381865afa1580156132f2573d6000803e3d6000fd5b505050506040513d601f19601f820116820180604052508101906133169190615d90565b6000878152600d602090815260408083206001600160a01b038581168552925280832054600754915163069352a960e41b815260048101829052949550939116906369352a9090602401602060405180830381865afa15801561337d573d6000803e3d6000fd5b505050506040513d601f19601f820116820180604052508101906133a19190615d77565b60075460405163187b2ed160e21b8152600481018590526001600160a01b03909116906361ecbb4490602401602060405180830381865afa1580156133ea573d6000803e3d6000fd5b505050506040513d601f19601f8201168201806040525081019061340e9190615d77565b6134189190615e43565b6000898152600f602090815260408083206001600160a01b03881684529091528120549192506134488284615d64565b9050801561368557600654604051631c20fadd60e01b81526001600160a01b0390911690631c20fadd9061348490889030908690600401615f4b565b600060405180830381600087803b15801561349e57600080fd5b505af11580156134b2573d6000803e3d6000fd5b50506004805460405162493aaf60e51b81526001600160a01b038a811693820184905292945063095ea7b3935091169063092755e090602401602060405180830381865afa158015613508573d6000803e3d6000fd5b505050506040513d601f19601f8201168201806040525081019061352c9190615d90565b6040516001600160e01b031960e084901b1681526001600160a01b039091166004820152602481018490526044016020604051808303816000875af1158015613579573d6000803e3d6000fd5b505050506040513d601f19601f8201168201806040525081019061359d9190615f6f565b506004805460405162493aaf60e51b81526001600160a01b038881169382019390935291169063092755e090602401602060405180830381865afa1580156135e9573d6000803e3d6000fd5b505050506040513d601f19601f8201168201806040525081019061360d9190615d90565b600554604051636e553f6560e01b8152600481018490526001600160a01b039182166024820152911690636e553f65906044016020604051808303816000875af115801561365f573d6000803e3d6000fd5b505050506040513d601f19601f820116820180604052508101906136839190615d77565b505b505060019093019250613234915050565b50600354600085815260026020526040908190205490516340c10f1960e01b81526001600160a01b03868116600483015260248201929092529116906340c10f1990604401600060405180830381600087803b1580156136f557600080fd5b505af1158015613709573d6000803e3d6000fd5b50505060009485525050601d602052505060409020805460ff19166001179055565b60008181526001602052604090205460ff16156137845760405162461bcd60e51b8152602060048201526017602482015276149959195b5c1d1a5bdb881a5cc818dbdb5c1b195d1959604a1b6044820152606401610d56565b600081815260196020908152604080832054601b909252909120546001600160a01b03918216911633821461380c5760405162461bcd60e51b815260206004820152602860248201527f4f6e6c79207265717565737465722063616e2063616e63656c207468652072656044820152673232b6b83a34b7b760c11b6064820152608401610d56565b60005b60048054604080516329fea19960e11b815290516001600160a01b03909216926353fd43329282820192602092908290030181865afa158015613856573d6000803e3d6000fd5b505050506040513d601f19601f8201168201806040525081019061387a9190615d77565b811015613e7a576004805460405163264cae9360e21b81529182018390526000916001600160a01b0390911690639932ba4c90602401602060405180830381865afa1580156138cd573d6000803e3d6000fd5b505050506040513d601f19601f820116820180604052508101906138f19190615d90565b60008681526011602090815260408083206001600160a01b03808616855290835281842054808552601e8452828520835161014081018552815467ffffffffffffffff81168252600160401b90048416958101959095526001808201548416948601949094526002810154928316606086015260ff600160a01b84048116151560808701529697509095909260a0850192600160a81b90049091169081111561399c5761399c615a7d565b60018111156139ad576139ad615a7d565b815260038281015460208301526004830154604083015260058301546060830152600683015460809092019160ff16908111156139ec576139ec615a7d565b60038111156139fd576139fd615a7d565b90525060075460405163069352a960e41b8152600481018590529192506000916001600160a01b03909116906369352a9090602401602060405180830381865afa158015613a4f573d6000803e3d6000fd5b505050506040513d601f19601f82011682018060405250810190613a739190615d77565b60075460405163187b2ed160e21b8152600481018690526001600160a01b03909116906361ecbb4490602401602060405180830381865afa158015613abc573d6000803e3d6000fd5b505050506040513d601f19601f82011682018060405250810190613ae09190615d77565b613aea9190615e43565b60075460405163103fdae160e31b8152600481018690529192506000916001600160a01b03909116906381fed70890602401602060405180830381865afa158015613b39573d6000803e3d6000fd5b505050506040513d601f19601f82011682018060405250810190613b5d9190615d77565b6007546040516322fd455760e11b8152600481018790529192506001916001600160a01b03909116906345fa8aae90602401602060405180830381865afa158015613bac573d6000803e3d6000fd5b505050506040513d601f19601f82011682018060405250810190613bd09190615dad565b6003811115613be157613be1615a7d565b60ff16148015613bef575081155b15613c7c5760065460405163514fcac760e01b8152600481018690526001600160a01b039091169063514fcac790602401600060405180830381600087803b158015613c3a57600080fd5b505af1158015613c4e573d6000803e3d6000fd5b50505060008a8152600f602090815260408083206001600160a01b038a168452909152902082905550613e69565b6007546040516322fd455760e11b8152600481018690526002916001600160a01b0316906345fa8aae90602401602060405180830381865afa158015613cc6573d6000803e3d6000fd5b505050506040513d601f19601f82011682018060405250810190613cea9190615dad565b6003811115613cfb57613cfb615a7d565b60ff161480613d0a5750600082115b15613e69576000613d1c86848a6154cd565b604080518082018252600480825260208083018f81526000868152602583528581209451855590516001948501558f8152600d82528481206001600160a01b038d8116835292528490208a905560075493516322fd455760e11b81529182018a9052939450909291909116906345fa8aae90602401602060405180830381865afa158015613dae573d6000803e3d6000fd5b505050506040513d601f19601f82011682018060405250810190613dd29190615dad565b6003811115613de357613de3615a7d565b60ff1603613e675760008a8152600f602090815260408083206001600160a01b038a81168552925291829020849055600654915163514fcac760e01b81526004810188905291169063514fcac790602401600060405180830381600087803b158015613e4e57600080fd5b505af1158015613e62573d6000803e3d6000fd5b505050505b505b50506001909301925061380f915050565b50505050565b6004805460405162493aaf60e51b81526001600160a01b03848116938201939093526000928392169063092755e090602401602060405180830381865afa158015613ecf573d6000803e3d6000fd5b505050506040513d601f19601f82011682018060405250810190613ef39190615d90565b6005546040516370a0823160e01b81526001600160a01b039182166004820152919250600091908316906370a0823190602401602060405180830381865afa158015613f43573d6000803e3d6000fd5b505050506040513d601f19601f82011682018060405250810190613f679190615d77565b60405163266d6a8360e11b8152600481018290529091506001600160a01b03831690634cdad50690602401602060405180830381865afa158015613faf573d6000803e3d6000fd5b505050506040513d601f19601f82011682018060405250810190613fd39190615d77565b949350505050565b60008060005b60048054604080516329fea19960e11b815290516001600160a01b03909216926353fd43329282820192602092908290030181865afa158015614028573d6000803e3d6000fd5b505050506040513d601f19601f8201168201806040525081019061404c9190615d77565b8110156140dc576004805460405163264cae9360e21b81529182018390526000916140c5916001600160a01b031690639932ba4c90602401602060405180830381865afa1580156140a1573d6000803e3d6000fd5b505050506040513d601f19601f82011682018060405250810190610bc69190615d90565b90506140d18184615d64565b925050600101613fe1565b50919050565b600480546040516308d0eb2d60e21b81529182018390526001600160a01b031690632343acb490602401602060405180830381865afa158015614129573d6000803e3d6000fd5b505050506040513d601f19601f8201168201806040525081019061414d9190615f6f565b6141995760405162461bcd60e51b815260206004820152601860248201527f4f726465727320617265206e6f7420636f6d706c6574656400000000000000006044820152606401610d56565b60008181526020819052604090205460ff16156141f05760405162461bcd60e51b8152602060048201526015602482015274125cdcdd585b98d9481a5cc818dbdb5c1b195d1959605a1b6044820152606401610d56565b6000818152601860205260408120546001600160a01b03169080805b60048054604080516329fea19960e11b815290516001600160a01b03909216926353fd43329282820192602092908290030181865afa158015614253573d6000803e3d6000fd5b505050506040513d601f19601f820116820180604052508101906142779190615d77565b8110156146a9576004805460405163264cae9360e21b81529182018390526000916001600160a01b0390911690639932ba4c90602401602060405180830381865afa1580156142ca573d6000803e3d6000fd5b505050506040513d601f19601f820116820180604052508101906142ee9190615d90565b60008781526010602090815260408083206001600160a01b038581168086529190935281842054600754600854935163a377cfbf60e01b81526004810193909352928416602483015294955091169063a377cfbf906044016040805180830381865afa158015614362573d6000803e3d6000fd5b505050506040513d601f19601f820116820180604052508101906143869190615edd565b60075460405163187b2ed160e21b8152600481018590529192506000916001600160a01b03909116906361ecbb4490602401602060405180830381865afa1580156143d5573d6000803e3d6000fd5b505050506040513d601f19601f820116820180604052508101906143f99190615d77565b60008a81526014602090815260408083206001600160a01b038916845290915281205484519293509161442c9083615dce565b600086815260126020526040812054919250906144499083615d64565b9050614455828b615d64565b9950614461818a615d64565b600654604051631c20fadd60e01b8152919a506001600160a01b031690631c20fadd90614496908a9030908990600401615f4b565b600060405180830381600087803b1580156144b057600080fd5b505af11580156144c4573d6000803e3d6000fd5b50506004805460405162493aaf60e51b81526001600160a01b038c811693820184905292945063095ea7b3935091169063092755e090602401602060405180830381865afa15801561451a573d6000803e3d6000fd5b505050506040513d601f19601f8201168201806040525081019061453e9190615d90565b6040516001600160e01b031960e084901b1681526001600160a01b039091166004820152602481018790526044016020604051808303816000875af115801561458b573d6000803e3d6000fd5b505050506040513d601f19601f820116820180604052508101906145af9190615f6f565b506004805460405162493aaf60e51b81526001600160a01b038a81169382019390935291169063092755e090602401602060405180830381865afa1580156145fb573d6000803e3d6000fd5b505050506040513d601f19601f8201168201806040525081019061461f9190615d90565b600554604051636e553f6560e01b8152600481018790526001600160a01b039182166024820152911690636e553f65906044016020604051808303816000875af1158015614671573d6000803e3d6000fd5b505050506040513d601f19601f820116820180604052508101906146959190615d77565b50506001909601955061420c945050505050565b506000848152601660205260409020548015806146c4575082155b156147a25760006146d6836064615dce565b6003546040516340c10f1960e01b81526001600160a01b038881166004830152602482018490529293509116906340c10f1990604401600060405180830381600087803b15801561472657600080fd5b505af115801561473a573d6000803e3d6000fd5b5050600854600089815260236020526040908190205490516001600160a01b03808b1695508b94507f9b1c699e1cb709130ee00509d8f84a4fb33702e634298480371d27d66f6cd8c6936147949391169187904290615e1d565b60405180910390a350614890565b6000836147af8484615dce565b6147b99190615dfb565b905060006147c78383615e43565b6003546040516340c10f1960e01b81526001600160a01b038981166004830152602482018490529293509116906340c10f1990604401600060405180830381600087803b15801561481757600080fd5b505af115801561482b573d6000803e3d6000fd5b505060085460008a815260236020526040908190205490516001600160a01b03808c1695508c94507f9b1c699e1cb709130ee00509d8f84a4fb33702e634298480371d27d66f6cd8c6936148859391169187904290615e1d565b60405180910390a350505b50506009546000908152602081905260409020805460ff19166001179055505050565b6000806148be613fdb565b90506000600360009054906101000a90046001600160a01b03166001600160a01b03166318160ddd6040518163ffffffff1660e01b8152600401602060405180830381865afa158015614915573d6000803e3d6000fd5b505050506040513d601f19601f820116820180604052508101906149399190615d77565b90506000826149488387615dce565b610cf99190615dfb565b600061495c61503c565b6001600160a01b0382166149b25760405162461bcd60e51b815260206004820152601f60248201527f696e76616c696420666163746f72792073746f726167652061646472657373006044820152606401610d56565b50600480546001600160a01b0383166001600160a01b03199091161790556001919050565b6000818152602560209081526040808320815180830190925280548083526001918201549383019390935290919003614a80576004805460208301516040516308d0eb2d60e21b8152928301526001600160a01b031690632343acb4906024015b602060405180830381865afa158015614a55573d6000803e3d6000fd5b505050506040513d601f19601f82011682018060405250810190614a799190615f6f565b9392505050565b8051600203614abb57600480546020830151604051631fd6049160e11b8152928301526001600160a01b031690633fac092290602401614a38565b8051600303614af65760048054602083015160405163631c838560e01b8152928301526001600160a01b03169063631c838590602401614a38565b8051600403614b3157600480546020830151604051635ac9331560e11b8152928301526001600160a01b03169063b592662a90602401614a38565b50600092915050565b60008060005b60048054604080516329fea19960e11b815290516001600160a01b03909216926353fd43329282820192602092908290030181865afa158015614b87573d6000803e3d6000fd5b505050506040513d601f19601f82011682018060405250810190614bab9190615d77565b811015614d70576004805460405163264cae9360e21b81529182018390526000916001600160a01b0390911690639932ba4c90602401602060405180830381865afa158015614bfe573d6000803e3d6000fd5b505050506040513d601f19601f82011682018060405250810190614c229190615d90565b60048054604051630be5271360e01b81526001600160a01b038085169382019390935292935060009268056bc75e2d631000009290911690630be5271390602401602060405180830381865afa158015614c80573d6000803e3d6000fd5b505050506040513d601f19601f82011682018060405250810190614ca49190615d77565b614cae9088615dce565b614cb89190615dfb565b6007546008546040516308da5c3560e21b81526000600482018190526001600160a01b0392831660248301529394508392919091169063236970d4906044016040805180830381865afa158015614d13573d6000803e3d6000fd5b505050506040513d601f19601f82011682018060405250810190614d379190615d21565b915091506000614d478285615013565b614d519084615d64565b9050614d5d8188615d64565b96505060019094019350614b4092505050565b5092915050565b600080614d82613fdb565b90506000600360009054906101000a90046001600160a01b03166001600160a01b03166318160ddd6040518163ffffffff1660e01b8152600401602060405180830381865afa158015614dd9573d6000803e3d6000fd5b505050506040513d601f19601f82011682018060405250810190614dfd9190615d77565b90506000816149488487615dce565b6000614e1661503c565b6001600160a01b038316614e645760405162461bcd60e51b8152602060048201526015602482015274696e76616c696420746f6b656e206164647265737360581b6044820152606401610d56565b506008805460ff8316600160a01b026001600160a81b03199091166001600160a01b0385161717905560015b92915050565b600080614ea283611f90565b90506000614eaf84613e80565b9050670de0b6b3a7640000614ec48383615dce565b613fd39190615dfb565b614ed66159bc565b6000828152601e6020908152604091829020825161014081018452815467ffffffffffffffff811682526001600160a01b03600160401b9091048116938201939093526001808301548416948201949094526002820154928316606082015260ff600160a01b84048116151560808301529093919260a0850192600160a81b90910490911690811115614f6b57614f6b615a7d565b6001811115614f7c57614f7c615a7d565b815260038281015460208301526004830154604083015260058301546060830152600683015460809092019160ff1690811115614fbb57614fbb615a7d565b6003811115614fcc57614fcc615a7d565b90525092915050565b614fdd61503c565b6001600160a01b03811661500757604051631e4fbdf760e01b815260006004820152602401610d56565b615010816156a3565b50565b60008262ffffff16600003615029576000614a79565b614a798262ffffff8516620f424061575d565b33615045613080565b6001600160a01b031614610d935760405163118cdaa760e01b8152336004820152602401610d56565b615076615831565b60008051602061610e833981519152805460ff191681557f5db9ee0a495bf2e6ff9c91a7834c1ba4fdd244a5e8aa4e537bd38aeae4b073aa335b6040516001600160a01b03909116815260200160405180910390a150565b6004805460405162493aaf60e51b81526001600160a01b03868116938201939093526000928392169063092755e090602401602060405180830381865afa15801561511d573d6000803e3d6000fd5b505050506040513d601f19601f820116820180604052508101906151419190615d90565b600554604051631c20fadd60e01b81529192506001600160a01b031690631c20fadd9061517690849030908990600401615f4b565b600060405180830381600087803b15801561519057600080fd5b505af11580156151a4573d6000803e3d6000fd5b5050604051635d043b2960e11b81526004810187905230602482018190526044820152600092506001600160a01b038416915063ba087652906064016020604051808303816000875af11580156151ff573d6000803e3d6000fd5b505050506040513d601f19601f820116820180604052508101906152239190615d77565b905060006152316001615861565b6001600160a01b03888116604083810182905260c084018690528883166020850152600654905163a9059cbb60e01b8152921660048301526024820185905291925063a9059cbb906044016020604051808303816000875af115801561529b573d6000803e3d6000fd5b505050506040513d601f19601f820116820180604052508101906152bf9190615f6f565b506006546040516319b284d160e21b81526001600160a01b03898116600483015260248201859052878116604483015260009216906366ca1344906064016020604051808303816000875af115801561531c573d6000803e3d6000fd5b505050506040513d601f19601f820116820180604052508101906153409190615d77565b6000818152601e6020908152604091829020855181549287015167ffffffffffffffff9091166001600160e01b031990931692909217600160401b6001600160a01b039384160217815591850151600180840180546001600160a01b0319169284169290921790915560608601516002840180546080890151929094166001600160a81b031990941693909317600160a01b911515919091021780835560a08701519495508694929160ff60a81b1990911690600160a81b90849081111561540a5761540a615a7d565b021790555060c0820151816003015560e0820151816004015561010082015181600501556101208201518160060160006101000a81548160ff0219169083600381111561545957615459615a7d565b0217905550919998505050505050505050565b615474615919565b61501081615962565b615485615919565b610d9361596a565b60008260ff168260ff1611156154c3576154a78383615fd1565b6154b290600a6160ce565b6154bc90856160dd565b9050614a79565b6154a78284615fd1565b6000806154da6000615861565b6001600160a01b0384811660208301819052878216604080850182905260e0850189905260065490516312544d1b60e01b815260048101929092526024820189905260448201929092529293506000929116906312544d1b906064016020604051808303816000875af1158015615555573d6000803e3d6000fd5b505050506040513d601f19601f820116820180604052508101906155799190615d77565b6000818152601e6020908152604091829020855181549287015167ffffffffffffffff9091166001600160e01b031990931692909217600160401b6001600160a01b039384160217815591850151600180840180546001600160a01b0319169284169290921790915560608601516002840180546080890151929094166001600160a81b031990941693909317600160a01b911515919091021780835560a08701519495508694929160ff60a81b1990911690600160a81b90849081111561564357615643615a7d565b021790555060c0820151816003015560e0820151816004015561010082015181600501556101208201518160060160006101000a81548160ff0219169083600381111561569257615692615a7d565b021790555091979650505050505050565b7f9016d09d72d40fdae2fd8ceac6b6234c7706214fd39c1cd1e609a0528c19930080546001600160a01b031981166001600160a01b03848116918217845560405192169182907f8be0079c531659141344cd1fd0a4f28419497f9722a3daafe3b4186f6b6457e090600090a3505050565b61571c61598b565b60008051602061610e833981519152805460ff191660011781557f62e78cea01bee320cd4e420270b5ea74000d11b0c9f74754ebdbfc544b05a258336150b0565b60008080600019858709858702925082811083820303915050806000036157975783828161578d5761578d615de5565b0492505050614a79565b8381106157c857604051630c740aef60e31b8152600481018790526024810186905260448101859052606401610d56565b60008486880960026001871981018816978890046003810283188082028403028082028403028082028403028082028403028082028403029081029092039091026000889003889004909101858311909403939093029303949094049190911702949350505050565b60008051602061610e8339815191525460ff16610d9357604051638dfc202b60e01b815260040160405180910390fd5b6158696159bc565b604080516101408101825267ffffffffffffffff421681523060208201526003546001600160a01b03908116928201929092526008549091166060820152821515608082015260a0810160008152602001836158c65760006158d1565b68056bc75e2d631000005b68ffffffffffffffffff168152602001836158f55768056bc75e2d631000006158f8565b60005b68ffffffffffffffffff168152600060208201526040016001905292915050565b7ff0c57e16840df040f15088dc2f81fe391c3923bec73e23a9662efc9c229c6a0054600160401b900460ff16610d9357604051631afcd79f60e31b815260040160405180910390fd5b614fdd615919565b615972615919565b60008051602061610e833981519152805460ff19169055565b60008051602061610e8339815191525460ff1615610d935760405163d93c066560e01b815260040160405180910390fd5b604080516101408101825260008082526020820181905291810182905260608101829052608081018290529060a0820190815260200160008152602001600081526020016000815260200160006003811115615a1a57615a1a615a7d565b905290565b6001600160a01b038116811461501057600080fd5b60008060408385031215615a4757600080fd5b823591506020830135615a5981615a1f565b809150509250929050565b600060208284031215615a7657600080fd5b5035919050565b634e487b7160e01b600052602160045260246000fd5b60028110615aa357615aa3615a7d565b9052565b60048110615aa357615aa3615a7d565b67ffffffffffffffff8b1681526001600160a01b038a8116602083015289811660408301528816606082015286151560808201526101408101615afd60a0830188615a93565b8560c08301528460e083015283610100830152615b1e610120830184615aa7565b9b9a5050505050505050505050565b600060208284031215615b3f57600080fd5b8135614a7981615a1f565b60ff8116811461501057600080fd5b801515811461501057600080fd5b600080600080600080600080610100898b031215615b8457600080fd5b8835615b8f81615a1f565b97506020890135615b9f81615a1f565b96506040890135615baf81615a1f565b95506060890135615bbf81615a1f565b94506080890135615bcf81615a1f565b935060a0890135615bdf81615a1f565b925060c0890135615bef81615b4a565b915060e0890135615bff81615b59565b809150509295985092959890939650565b600060208284031215615c2257600080fd5b8135614a7981615b4a565b60008060408385031215615c4057600080fd5b8235615c4b81615a1f565b91506020830135615a5981615b4a565b815167ffffffffffffffff16815261014081016020830151615c8860208401826001600160a01b03169052565b506040830151615ca360408401826001600160a01b03169052565b506060830151615cbe60608401826001600160a01b03169052565b506080830151615cd2608084018215159052565b5060a0830151615ce560a0840182615a93565b5060c083015160c083015260e083015160e083015261010080840151818401525061012080840151615d1982850182615aa7565b505092915050565b60008060408385031215615d3457600080fd5b82519150602083015162ffffff81168114615a5957600080fd5b634e487b7160e01b600052601160045260246000fd5b80820180821115614e9057614e90615d4e565b600060208284031215615d8957600080fd5b5051919050565b600060208284031215615da257600080fd5b8151614a7981615a1f565b600060208284031215615dbf57600080fd5b815160048110614a7957600080fd5b8082028115828204841417614e9057614e90615d4e565b634e487b7160e01b600052601260045260246000fd5b600082615e1857634e487b7160e01b600052601260045260246000fd5b500490565b6001600160a01b0394909416845260208401929092526040830152606082015260800190565b81810381811115614e9057614e90615d4e565b805169ffffffffffffffffffff81168114610d7e57600080fd5b600080600080600060a08688031215615e8857600080fd5b615e9186615e56565b9450602086015193506040860151925060608601519150615eb460808701615e56565b90509295509295909350565b600060208284031215615ed257600080fd5b8151614a7981615b4a565b600060408284031215615eef57600080fd5b6040516040810167ffffffffffffffff8282108183111715615f2157634e487b7160e01b600052604160045260246000fd5b8160405284518352602085015191508082168214615f3e57600080fd5b5060208201529392505050565b6001600160a01b039384168152919092166020820152604081019190915260600190565b600060208284031215615f8157600080fd5b8151614a7981615b59565b60208082526025908201527f5468652070726f6365737320686173206265656e20636f6d706c65746564206260408201526465666f726560d81b606082015260800190565b60ff8281168282160390811115614e9057614e90615d4e565b600181815b8085111561602557816000190482111561600b5761600b615d4e565b8085161561601857918102915b93841c9390800290615fef565b509250929050565b60008261603c57506001614e90565b8161604957506000614e90565b816001811461605f576002811461606957616085565b6001915050614e90565b60ff84111561607a5761607a615d4e565b50506001821b614e90565b5060208310610133831016604e8410600b84101617156160a8575081810a614e90565b6160b28383615fea565b80600019048211156160c6576160c6615d4e565b029392505050565b6000614a7960ff84168361602d565b80820260008212600160ff1b841416156160f9576160f9615d4e565b8181058314821517614e9057614e90615d4e56fecd5ed15c6e187e77e9aee88184c21f4f2182ab5827cb3b7e07fbedcd63f03300a2646970667358221220b221a5fd0cda02d769bf429175a4f54797f766fc48b26c8990cb1c1bd2d0eb8564736f6c63430008190033","linkReferences":{}},"methodIdentifiers":{"actionInfoById(uint256)":"3c1f70ca","burnedTokenAmountByNonce(uint256)":"ab7820b2","buyRequestPayedAmountById(uint256)":"8861d235","calculateBuyRequestFee(uint256)":"06995e3b","calculateIssuanceFee(uint256)":"e19eefbe","cancelIssuance(uint256)":"46d66a2c","cancelIssuanceComplted(uint256)":"7bfa27f2","cancelIssuanceRequestId(uint256,address)":"02e80f71","cancelIssuanceUnfilledAmount(uint256,address)":"9edcf9f4","cancelRedemption(uint256)":"9219e510","cancelRedemptionComplted(uint256)":"b46840f9","cancelRedemptionRequestId(uint256,address)":"8c221899","cancelRedemptionUnfilledAmount(uint256,address)":"632439fd","checkMultical(uint256)":"e16e554a","coaByIssuanceNonce(uint256)":"31c99010","coaByRedemptionNonce(uint256)":"b75f4c2c","completeCancelIssuance(uint256)":"807ca237","completeCancelRedemption(uint256)":"9026544f","completeIssuance(uint256)":"bed45bef","completeRedemption(uint256)":"840ecba0","factoryStorage()":"c06e1ae2","feeRate()":"978bbdb9","getActionType(uint256)":"3aeff059","getIssuanceAmountOut(uint256)":"c8da3303","getOrderInstanceById(uint256)":"f1f31d66","getPortfolioValue()":"bb0498de","getRedemptionAmountOut(uint256)":"e2851bd6","getVaultDshareBalance(address)":"a08d7bd6","getVaultDshareValue(address)":"efdf5053","initialize(address,address,address,address,address,address,uint8,bool)":"48f6e87b","isMainnet()":"42faac05","issuanceIndexTokenPrimaryTotalSupply(uint256)":"b1dd819e","issuanceIndexTokens(uint256)":"6e320408","issuanceInputAmount(uint256)":"cf9ee319","issuanceIsCompleted(uint256)":"a84ebc17","issuanceNonce()":"9dbb9c9e","issuanceRequestId(uint256,address)":"264fa8b9","issuanceRequesterByNonce(uint256)":"94674098","issuanceTokenPrimaryBalance(uint256,address)":"da65925a","issuer()":"1d143848","latestFeeUpdate()":"011ced5f","multical(uint256)":"73b774ed","orderInstanceById(uint256)":"15e666a2","orderManager()":"f9b6117f","owner()":"8da5cb5b","pause()":"8456cb59","paused()":"5c975abb","portfolioValueByNonce(uint256)":"2badae5d","priceInWei(address)":"6839a095","redemption(uint256)":"4a1dc092","redemptionIndexTokenPrimaryTotalSupply(uint256)":"daf1c17d","redemptionInputAmount(uint256)":"9cf54521","redemptionIsCompleted(uint256)":"76529fdf","redemptionNonce()":"84d77bb1","redemptionRequestId(uint256,address)":"f513a718","redemptionRequesterByNonce(uint256)":"78032658","redemptionTokenPrimaryBalance(uint256,address)":"a363b9cb","renounceOwnership()":"715018a6","sellRequestAssetAmountById(uint256)":"a87f98d2","setFeeRate(uint8)":"5177942a","setIndexFactoryStorage(address)":"cc8659ae","setIssuer(address)":"55cc4e57","setTokenAddress(address)":"26a4e8d2","setUsdcAddress(address,uint8)":"eab2a711","token()":"fc0c546a","tokenShortagePercentByNonce(uint256,address)":"db5c1a12","tokenValueByNonce(uint256,address)":"b316e7fd","totalShortagePercentByNonce(uint256)":"2ca49334","transferOwnership(address)":"f2fde38b","unpause()":"3f4ba83a","usdc()":"3e413bee","usdcDecimals()":"7bf42165","vault()":"fbfa77cf"},"id":16}