{"abi":[{"type":"function","name":"buyRequestPayedAmountById","inputs":[{"name":"","type":"uint256","internalType":"uint256"}],"outputs":[{"name":"","type":"uint256","internalType":"uint256"}],"stateMutability":"view"},{"type":"function","name":"checkIssuance","inputs":[{"name":"_issuanceNonce","type":"uint256","internalType":"uint256"}],"outputs":[{"name":"","type":"bool","internalType":"bool"}],"stateMutability":"view"},{"type":"function","name":"checkRedemption","inputs":[{"name":"_redemptionNonce","type":"uint256","internalType":"uint256"}],"outputs":[{"name":"","type":"bool","internalType":"bool"}],"stateMutability":"view"},{"type":"function","name":"coaByIssuanceNonce","inputs":[{"name":"","type":"uint256","internalType":"uint256"}],"outputs":[{"name":"","type":"address","internalType":"address"}],"stateMutability":"view"},{"type":"function","name":"coaByRedemptionNonce","inputs":[{"name":"","type":"uint256","internalType":"uint256"}],"outputs":[{"name":"","type":"address","internalType":"address"}],"stateMutability":"view"},{"type":"function","name":"completeIssuance","inputs":[{"name":"_issuanceNonce","type":"uint256","internalType":"uint256"}],"outputs":[],"stateMutability":"nonpayable"},{"type":"function","name":"completeRedemption","inputs":[{"name":"_redemptionNonce","type":"uint256","internalType":"uint256"}],"outputs":[],"stateMutability":"nonpayable"},{"type":"function","name":"concatenation","inputs":[{"name":"a","type":"string","internalType":"string"},{"name":"b","type":"string","internalType":"string"}],"outputs":[{"name":"","type":"string","internalType":"string"}],"stateMutability":"pure"},{"type":"function","name":"currentList","inputs":[{"name":"","type":"uint256","internalType":"uint256"}],"outputs":[{"name":"","type":"address","internalType":"address"}],"stateMutability":"view"},{"type":"function","name":"custodianWallet","inputs":[],"outputs":[{"name":"","type":"address","internalType":"address"}],"stateMutability":"view"},{"type":"function","name":"externalJobId","inputs":[],"outputs":[{"name":"","type":"bytes32","internalType":"bytes32"}],"stateMutability":"view"},{"type":"function","name":"feeRate","inputs":[],"outputs":[{"name":"","type":"uint8","internalType":"uint8"}],"stateMutability":"view"},{"type":"function","name":"fulfillAssetsData","inputs":[{"name":"requestId","type":"bytes32","internalType":"bytes32"},{"name":"_tokens","type":"address[]","internalType":"address[]"},{"name":"_marketShares","type":"uint256[]","internalType":"uint256[]"}],"outputs":[],"stateMutability":"nonpayable"},{"type":"function","name":"initialize","inputs":[{"name":"_issuer","type":"address","internalType":"address"},{"name":"_token","type":"address","internalType":"address"},{"name":"_usdc","type":"address","internalType":"address"},{"name":"_usdcDecimals","type":"uint8","internalType":"uint8"},{"name":"_chainlinkToken","type":"address","internalType":"address"},{"name":"_oracleAddress","type":"address","internalType":"address"},{"name":"_externalJobId","type":"bytes32","internalType":"bytes32"}],"outputs":[],"stateMutability":"nonpayable"},{"type":"function","name":"issuance","inputs":[{"name":"_inputAmount","type":"uint256","internalType":"uint256"}],"outputs":[],"stateMutability":"nonpayable"},{"type":"function","name":"issuanceIndexTokenPrimaryTotalSupply","inputs":[{"name":"","type":"uint256","internalType":"uint256"}],"outputs":[{"name":"","type":"uint256","internalType":"uint256"}],"stateMutability":"view"},{"type":"function","name":"issuanceNonce","inputs":[],"outputs":[{"name":"","type":"uint256","internalType":"uint256"}],"stateMutability":"view"},{"type":"function","name":"issuanceRequestId","inputs":[{"name":"","type":"uint256","internalType":"uint256"},{"name":"","type":"address","internalType":"address"}],"outputs":[{"name":"","type":"uint256","internalType":"uint256"}],"stateMutability":"view"},{"type":"function","name":"issuanceRequesterByNonce","inputs":[{"name":"","type":"uint256","internalType":"uint256"}],"outputs":[{"name":"","type":"address","internalType":"address"}],"stateMutability":"view"},{"type":"function","name":"issuanceTokenPrimaryBalance","inputs":[{"name":"","type":"uint256","internalType":"uint256"},{"name":"","type":"address","internalType":"address"}],"outputs":[{"name":"","type":"uint256","internalType":"uint256"}],"stateMutability":"view"},{"type":"function","name":"issuer","inputs":[],"outputs":[{"name":"","type":"address","internalType":"contract IOrderProcessor"}],"stateMutability":"view"},{"type":"function","name":"lastUpdateTime","inputs":[],"outputs":[{"name":"","type":"uint256","internalType":"uint256"}],"stateMutability":"view"},{"type":"function","name":"latestFeeUpdate","inputs":[],"outputs":[{"name":"","type":"uint256","internalType":"uint256"}],"stateMutability":"view"},{"type":"function","name":"mockFillAssetsList","inputs":[{"name":"_tokens","type":"address[]","internalType":"address[]"},{"name":"_marketShares","type":"uint256[]","internalType":"uint256[]"}],"outputs":[],"stateMutability":"nonpayable"},{"type":"function","name":"oracleList","inputs":[{"name":"","type":"uint256","internalType":"uint256"}],"outputs":[{"name":"","type":"address","internalType":"address"}],"stateMutability":"view"},{"type":"function","name":"oraclePayment","inputs":[],"outputs":[{"name":"","type":"uint256","internalType":"uint256"}],"stateMutability":"view"},{"type":"function","name":"owner","inputs":[],"outputs":[{"name":"","type":"address","internalType":"address"}],"stateMutability":"view"},{"type":"function","name":"pause","inputs":[],"outputs":[],"stateMutability":"nonpayable"},{"type":"function","name":"paused","inputs":[],"outputs":[{"name":"","type":"bool","internalType":"bool"}],"stateMutability":"view"},{"type":"function","name":"redemption","inputs":[{"name":"_inputAmount","type":"uint256","internalType":"uint256"}],"outputs":[],"stateMutability":"nonpayable"},{"type":"function","name":"redemptionIndexTokenPrimaryTotalSupply","inputs":[{"name":"","type":"uint256","internalType":"uint256"}],"outputs":[{"name":"","type":"uint256","internalType":"uint256"}],"stateMutability":"view"},{"type":"function","name":"redemptionNonce","inputs":[],"outputs":[{"name":"","type":"uint256","internalType":"uint256"}],"stateMutability":"view"},{"type":"function","name":"redemptionRequestId","inputs":[{"name":"","type":"uint256","internalType":"uint256"},{"name":"","type":"address","internalType":"address"}],"outputs":[{"name":"","type":"uint256","internalType":"uint256"}],"stateMutability":"view"},{"type":"function","name":"redemptionRequesterByNonce","inputs":[{"name":"","type":"uint256","internalType":"uint256"}],"outputs":[{"name":"","type":"address","internalType":"address"}],"stateMutability":"view"},{"type":"function","name":"redemptionTokenPrimaryBalance","inputs":[{"name":"","type":"uint256","internalType":"uint256"},{"name":"","type":"address","internalType":"address"}],"outputs":[{"name":"","type":"uint256","internalType":"uint256"}],"stateMutability":"view"},{"type":"function","name":"renounceOwnership","inputs":[],"outputs":[],"stateMutability":"nonpayable"},{"type":"function","name":"requestAssetsData","inputs":[],"outputs":[{"name":"","type":"bytes32","internalType":"bytes32"}],"stateMutability":"nonpayable"},{"type":"function","name":"sellRequestAssetAmountById","inputs":[{"name":"","type":"uint256","internalType":"uint256"}],"outputs":[{"name":"","type":"uint256","internalType":"uint256"}],"stateMutability":"view"},{"type":"function","name":"setCustodianWallet","inputs":[{"name":"_custodianWallet","type":"address","internalType":"address"}],"outputs":[{"name":"","type":"bool","internalType":"bool"}],"stateMutability":"nonpayable"},{"type":"function","name":"setFeeRate","inputs":[{"name":"_newFee","type":"uint8","internalType":"uint8"}],"outputs":[],"stateMutability":"nonpayable"},{"type":"function","name":"setIssuer","inputs":[{"name":"_issuer","type":"address","internalType":"address"}],"outputs":[{"name":"","type":"bool","internalType":"bool"}],"stateMutability":"nonpayable"},{"type":"function","name":"setOracleInfo","inputs":[{"name":"_oracleAddress","type":"address","internalType":"address"},{"name":"_externalJobId","type":"bytes32","internalType":"bytes32"}],"outputs":[],"stateMutability":"nonpayable"},{"type":"function","name":"setTokenAddress","inputs":[{"name":"_token","type":"address","internalType":"address"}],"outputs":[{"name":"","type":"bool","internalType":"bool"}],"stateMutability":"nonpayable"},{"type":"function","name":"setUrl","inputs":[{"name":"_beforeAddress","type":"string","internalType":"string"},{"name":"_afterAddress","type":"string","internalType":"string"}],"outputs":[],"stateMutability":"nonpayable"},{"type":"function","name":"setUsdcAddress","inputs":[{"name":"_usdc","type":"address","internalType":"address"},{"name":"_usdcDecimals","type":"uint8","internalType":"uint8"}],"outputs":[{"name":"","type":"bool","internalType":"bool"}],"stateMutability":"nonpayable"},{"type":"function","name":"token","inputs":[],"outputs":[{"name":"","type":"address","internalType":"contract IndexToken"}],"stateMutability":"view"},{"type":"function","name":"tokenCurrentListIndex","inputs":[{"name":"","type":"address","internalType":"address"}],"outputs":[{"name":"","type":"uint256","internalType":"uint256"}],"stateMutability":"view"},{"type":"function","name":"tokenCurrentMarketShare","inputs":[{"name":"","type":"address","internalType":"address"}],"outputs":[{"name":"","type":"uint256","internalType":"uint256"}],"stateMutability":"view"},{"type":"function","name":"tokenOracleListIndex","inputs":[{"name":"","type":"address","internalType":"address"}],"outputs":[{"name":"","type":"uint256","internalType":"uint256"}],"stateMutability":"view"},{"type":"function","name":"tokenOracleMarketShare","inputs":[{"name":"","type":"address","internalType":"address"}],"outputs":[{"name":"","type":"uint256","internalType":"uint256"}],"stateMutability":"view"},{"type":"function","name":"totalCurrentList","inputs":[],"outputs":[{"name":"","type":"uint256","internalType":"uint256"}],"stateMutability":"view"},{"type":"function","name":"totalOracleList","inputs":[],"outputs":[{"name":"","type":"uint256","internalType":"uint256"}],"stateMutability":"view"},{"type":"function","name":"transferOwnership","inputs":[{"name":"newOwner","type":"address","internalType":"address"}],"outputs":[],"stateMutability":"nonpayable"},{"type":"function","name":"unpause","inputs":[],"outputs":[],"stateMutability":"nonpayable"},{"type":"function","name":"usdc","inputs":[],"outputs":[{"name":"","type":"address","internalType":"address"}],"stateMutability":"view"},{"type":"function","name":"usdcDecimals","inputs":[],"outputs":[{"name":"","type":"uint8","internalType":"uint8"}],"stateMutability":"view"},{"type":"event","name":"ChainlinkCancelled","inputs":[{"name":"id","type":"bytes32","indexed":true,"internalType":"bytes32"}],"anonymous":false},{"type":"event","name":"ChainlinkFulfilled","inputs":[{"name":"id","type":"bytes32","indexed":true,"internalType":"bytes32"}],"anonymous":false},{"type":"event","name":"ChainlinkRequested","inputs":[{"name":"id","type":"bytes32","indexed":true,"internalType":"bytes32"}],"anonymous":false},{"type":"event","name":"Initialized","inputs":[{"name":"version","type":"uint64","indexed":false,"internalType":"uint64"}],"anonymous":false},{"type":"event","name":"OwnershipTransferred","inputs":[{"name":"previousOwner","type":"address","indexed":true,"internalType":"address"},{"name":"newOwner","type":"address","indexed":true,"internalType":"address"}],"anonymous":false},{"type":"event","name":"Paused","inputs":[{"name":"account","type":"address","indexed":false,"internalType":"address"}],"anonymous":false},{"type":"event","name":"Unpaused","inputs":[{"name":"account","type":"address","indexed":false,"internalType":"address"}],"anonymous":false},{"type":"error","name":"EnforcedPause","inputs":[]},{"type":"error","name":"ExpectedPause","inputs":[]},{"type":"error","name":"InvalidInitialization","inputs":[]},{"type":"error","name":"NotInitializing","inputs":[]},{"type":"error","name":"OwnableInvalidOwner","inputs":[{"name":"owner","type":"address","internalType":"address"}]},{"type":"error","name":"OwnableUnauthorizedAccount","inputs":[{"name":"account","type":"address","internalType":"address"}]},{"type":"error","name":"PRBMath_MulDiv_Overflow","inputs":[{"name":"x","type":"uint256","internalType":"uint256"},{"name":"y","type":"uint256","internalType":"uint256"},{"name":"denominator","type":"uint256","internalType":"uint256"}]}],"bytecode":{"object":"0x6080604052348015600f57600080fd5b50613de88061001f6000396000f3fe608060405234801561001057600080fd5b50600436106103785760003560e01c80638456cb59116101d3578063a8b54bd411610104578063da65925a116100a2578063f14bea201161007c578063f14bea2014610890578063f2fde38b146108a3578063f513a718146108b6578063fc0c546a146108e157600080fd5b8063da65925a14610833578063daf1c17d1461085e578063eab2a7111461087d57600080fd5b8063b75f4c2c116100de578063b75f4c2c146107e5578063bed45bef1461080e578063c8599ded14610821578063c8f33c911461082a57600080fd5b8063a8b54bd4146107a9578063addc70d1146107b2578063b1dd819e146107c557600080fd5b8063978bbdb9116101715780639dbb9c9e1161014b5780639dbb9c9e14610742578063a363b9cb1461074b578063a73e1cbf14610776578063a87f98d21461078957600080fd5b8063978bbdb9146106f25780639932ba4c146107065780639cc0fb5b1461072f57600080fd5b80638c88c10c116101ad5780638c88c10c146106595780638da5cb5b14610679578063914f0cc6146106a957806394674098146106c957600080fd5b80638456cb591461062857806384d77bb1146106305780638861d2351461063957600080fd5b806343482fc8116102ad5780635c975abb1161024b5780637bf42165116102255780637bf42165146105d45780637ca58c55146105fa578063840ecba014610602578063845524f01461061557600080fd5b80635c975abb1461058b578063715018a6146105a357806378032658146105ab57600080fd5b80634b3e0b80116102875780634b3e0b801461053c5780635177942a1461055c57806353fd43321461056f57806355cc4e571461057857600080fd5b806343482fc81461050357806345e0ed4f146105165780634a1dc0921461052957600080fd5b8063239aad0d1161031a57806326a4e8d2116102f457806326a4e8d2146104ac57806331c99010146104bf5780633e413bee146104e85780633f4ba83a146104fb57600080fd5b8063239aad0d14610443578063248b761e1461046c578063264fa8b91461048157600080fd5b80630e329357116103565780630e329357146103c25780631d143848146103e25780631e106e991461040d5780632371a4de1461042057600080fd5b8063011ced5f1461037d5780630be52713146103995780630c02e130146103b9575b600080fd5b61038660255481565b6040519081526020015b60405180910390f35b6103866103a7366004612fc3565b60116020526000908152604090205481565b61038660095481565b6103d56103d0366004613093565b6108f4565b6040516103909190613146565b6015546103f5906001600160a01b031681565b6040516001600160a01b039091168152602001610390565b6014546103f5906001600160a01b031681565b61043361042e366004613159565b610921565b6040519015158152602001610390565b6103f5610451366004613159565b600d602052600090815260409020546001600160a01b031681565b61047f61047a366004613159565b610a20565b005b61038661048f366004613172565b601960209081526000928352604080842090915290825290205481565b6104336104ba366004612fc3565b610c65565b6103f56104cd366004613159565b6023602052600090815260409020546001600160a01b031681565b6016546103f5906001600160a01b031681565b61047f610ce6565b61047f61051136600461319e565b610cf8565b61047f6105243660046131d9565b610d0f565b61047f610537366004613159565b610f29565b61038661054a366004612fc3565b60126020526000908152604090205481565b61047f61056a366004613258565b6112ac565b610386600c5481565b610433610586366004612fc3565b6113f6565b600080516020613d938339815191525460ff16610433565b61047f611474565b6103f56105b9366004613159565b6022602052600090815260409020546001600160a01b031681565b6016546105e890600160a01b900460ff1681565b60405160ff9091168152602001610390565b610386611486565b61047f610610366004613159565b6116c6565b610433610623366004613159565b61181c565b61047f6118f9565b61038660185481565b610386610647366004613159565b601b6020526000908152604090205481565b610386610667366004612fc3565b600f6020526000908152604090205481565b7f9016d09d72d40fdae2fd8ceac6b6234c7706214fd39c1cd1e609a0528c199300546001600160a01b03166103f5565b6103866106b7366004612fc3565b60106020526000908152604090205481565b6103f56106d7366004613159565b6021602052600090815260409020546001600160a01b031681565b6016546105e890600160a81b900460ff1681565b6103f5610714366004613159565b600e602052600090815260409020546001600160a01b031681565b61043361073d366004612fc3565b611909565b61038660175481565b610386610759366004613172565b601e60209081526000928352604080842090915290825290205481565b61047f610784366004613093565b61198e565b610386610797366004613159565b601c6020526000908152604090205481565b61038660085481565b61047f6107c036600461336b565b6119af565b6103866107d3366004613159565b601f6020526000908152604090205481565b6103f56107f3366004613159565b6024602052600090815260409020546001600160a01b031681565b61047f61081c366004613159565b6119c5565b610386600b5481565b610386600a5481565b610386610841366004613172565b601d60209081526000928352604080842090915290825290205481565b61038661086c366004613159565b602080526000908152604090205481565b61043361088b3660046133c4565b611ce1565b61047f61089e3660046133ee565b611d6a565b61047f6108b1366004612fc3565b611e30565b6103866108c4366004613172565b601a60209081526000928352604080842090915290825290205481565b6013546103f5906001600160a01b031681565b6060828260405160200161090992919061345a565b60405160208183030381529060405290505b92915050565b60008060005b600c548110156109fe576000818152600e6020908152604080832054878452601983528184206001600160a01b039182168086529352928190205460155491516322fd455760e11b81526004810182905292939092600292909116906345fa8aae90602401602060405180830381865afa1580156109a9573d6000803e3d6000fd5b505050506040513d601f19601f820116820180604052508101906109cd919061349f565b60038111156109de576109de613489565b60ff16036109f4576109f16001856134d6565b93505b5050600101610927565b50600c548103610a115750600192915050565b50600092915050565b50919050565b600160176000828254610a3391906134d6565b92505081905550600030604051610a4990612f01565b6001600160a01b039091168152602001604051809103906000f080158015610a75573d6000803e3d6000fd5b50601754600090815260236020526040812080546001600160a01b0319166001600160a01b0384161790559091505b600c54811015610c60576000818152600e60209081526040808320546001600160a01b0316808452601190925282205490919068056bc75e2d6310000090610aec90876134e9565b610af69190613516565b90506000610b05838387611e6e565b6000818152601b60209081526040808320869055601780548452601983528184206001600160a01b0389168086529084528285208690559054845260219092529182902080546001600160a01b0319163317905590516370a0823160e01b8152306004820152919250906370a0823190602401602060405180830381865afa158015610b95573d6000803e3d6000fd5b505050506040513d601f19601f82011682018060405250810190610bb9919061352a565b6017546000908152601d602090815260408083206001600160a01b038089168552908352928190209390935560135483516318160ddd60e01b815293519216926318160ddd92600480830193928290030181865afa158015610c1f573d6000803e3d6000fd5b505050506040513d601f19601f82011682018060405250810190610c43919061352a565b6017546000908152601f6020526040902055505050600101610aa4565b505050565b6000610c6f6120b6565b6001600160a01b038216610cc25760405162461bcd60e51b8152602060048201526015602482015274696e76616c696420746f6b656e206164647265737360581b60448201526064015b60405180910390fd5b50601380546001600160a01b0319166001600160a01b03831617905560015b919050565b610cee6120b6565b610cf6612111565b565b610d006120b6565b610d0982612171565b60085550565b7ff0c57e16840df040f15088dc2f81fe391c3923bec73e23a9662efc9c229c6a008054600160401b810460ff1615906001600160401b0316600081158015610d545750825b90506000826001600160401b03166001148015610d705750303b155b905081158015610d7e575080155b15610d9c5760405163f92ee8a960e01b815260040160405180910390fd5b845467ffffffffffffffff191660011785558315610dc657845460ff60401b1916600160401b1785555b601580546001600160a01b03199081166001600160a01b038f811691909117909255601380549091168d831617905560168054918c166001600160a81b031990921691909117600160a01b60ff8c1602179055610e2233612193565b610e2a6121a4565b6016805460ff60a81b1916600560a91b179055600280546001600160a01b0319166001600160a01b038a16179055610e6187612171565b6008869055600a610e7b670de0b6b3a764000060016134e9565b610e859190613516565b6009556040805160608101909152602a808252613d3b6020830139600690610ead90826135c7565b506040518060600160405280602e8152602001613d65602e9139600790610ed490826135c7565b508315610f1b57845460ff60401b19168555604051600181527fc7f505b2f371ae2175ee4913f4499e1f2633a7b5936321eed1cdaeb6115181d29060200160405180910390a15b505050505050505050505050565b600160186000828254610f3c91906134d6565b92505081905550600030604051610f5290612f01565b6001600160a01b039091168152602001604051809103906000f080158015610f7e573d6000803e3d6000fd5b50601754600090815260246020908152604080832080546001600160a01b0319166001600160a01b038681169190911790915560135482516318160ddd60e01b8152925195965093949316926318160ddd926004808401939192918290030181865afa158015610ff2573d6000803e3d6000fd5b505050506040513d601f19601f82011682018060405250810190611016919061352a565b61102884670de0b6b3a76400006134e9565b6110329190613516565b601354604051632770a7eb60e21b8152336004820152602481018690529192506001600160a01b031690639dc29fac90604401600060405180830381600087803b15801561107f57600080fd5b505af1158015611093573d6000803e3d6000fd5b5050505060005b600c548110156112a6576000818152600e60205260408082205490516370a0823160e01b81523060048201526001600160a01b039091169190670de0b6b3a76400009083906370a0823190602401602060405180830381865afa158015611105573d6000803e3d6000fd5b505050506040513d601f19601f82011682018060405250810190611129919061352a565b61113390866134e9565b61113d9190613516565b9050600061114c8383886121b4565b6000818152601c60209081526040808320869055601880548452601a83528184206001600160a01b0389168086529084528285208690559054845260229092529182902080546001600160a01b0319163317905590516370a0823160e01b8152306004820152919250906370a0823190602401602060405180830381865afa1580156111dc573d6000803e3d6000fd5b505050506040513d601f19601f82011682018060405250810190611200919061352a565b6018546000908152601e602090815260408083206001600160a01b038089168552908352928190209390935560135483516318160ddd60e01b815293519216926318160ddd92600480830193928290030181865afa158015611266573d6000803e3d6000fd5b505050506040513d601f19601f8201168201806040525081019061128a919061352a565b601854600090815260208052604090205550505060010161109a565b50505050565b6112b46120b6565b6000602554426112c49190613686565b9050600c603c6112d48184613516565b6112de9190613516565b116113515760405162461bcd60e51b815260206004820152603960248201527f596f752073686f756c642077616974206174206c6561737420313220686f757260448201527f7320616674657220746865206c617465737420757064617465000000000000006064820152608401610cb9565b60648260ff1611158015611369575060018260ff1610155b6113d15760405162461bcd60e51b815260206004820152603360248201527f546865206e65774665652073686f756c64206265206265747765656e203120616044820152726e64203130302028302e303125202d2031252960681b6064820152608401610cb9565b506016805460ff909216600160a81b0260ff60a81b1990921691909117905542602555565b60006114006120b6565b6001600160a01b03821661144f5760405162461bcd60e51b8152602060048201526016602482015275696e76616c696420697373756572206164647265737360501b6044820152606401610cb9565b50601580546001600160a01b0383166001600160a01b03199091161790556001919050565b61147c6120b6565b610cf6600061234c565b6000806115a76006805461149990613543565b80601f01602080910402602001604051908101604052809291908181526020018280546114c590613543565b80156115125780601f106114e757610100808354040283529160200191611512565b820191906000526020600020905b8154815290600101906020018083116114f557829003601f168201915b50505050506007805461152490613543565b80601f016020809104026020016040519081016040528092919081815260200182805461155090613543565b801561159d5780601f106115725761010080835404028352916020019161159d565b820191906000526020600020905b81548152906001019060200180831161158057829003601f168201915b50505050506108f4565b905060006115bf6008543063f14bea2060e01b6123bd565b60408051808201909152600381526219d95d60ea1b60208201529091506115e8908290846123e2565b61164360405180604001604052806005815260200164706174683160d81b81525060405180604001604052806011815260200170726573756c74732c61646472657373657360781b815250836123e29092919063ffffffff16565b6116a1604051806040016040528060058152602001643830ba341960d91b81525060405180604001604052806014815260200173726573756c74732c6d61726b657453686172657360601b815250836123e29092919063ffffffff16565b6116bf6116b66003546001600160a01b031690565b82600954612400565b9250505090565b6116cf8161181c565b61171b5760405162461bcd60e51b815260206004820152601860248201527f526564656d7074696f6e206e6f7420636f6d706c6574656400000000000000006044820152606401610cb9565b6000818152602260209081526040808320546024928390528184205460165492516370a0823160e01b81526001600160a01b0391821660048201819052928216959294929391909116916370a082319101602060405180830381865afa158015611789573d6000803e3d6000fd5b505050506040513d601f19601f820116820180604052508101906117ad919061352a565b6016546040516317ee7de960e11b81529192506001600160a01b0380851692632fdcfbd2926117e492169087908690600401613699565b600060405180830381600087803b1580156117fe57600080fd5b505af1158015611812573d6000803e3d6000fd5b5050505050505050565b60008060005b600c548110156109fe576000818152600e6020908152604080832054878452601a83528184206001600160a01b039182168086529352928190205460155491516322fd455760e11b81526004810182905292939092600292909116906345fa8aae90602401602060405180830381865afa1580156118a4573d6000803e3d6000fd5b505050506040513d601f19601f820116820180604052508101906118c8919061349f565b60038111156118d9576118d9613489565b60ff16036118ef576118ec6001856134d6565b93505b5050600101611822565b6119016120b6565b610cf6612489565b60006119136120b6565b6001600160a01b0382166119695760405162461bcd60e51b815260206004820181905260248201527f696e76616c696420637573746f6469616e2077616c6c657420616464726573736044820152606401610cb9565b50601480546001600160a01b0383166001600160a01b03199091161790556001919050565b6119966120b6565b60066119a283826135c7565b506007610c6082826135c7565b6119b76120b6565b6119c182826124d2565b5050565b6119ce81610921565b611a135760405162461bcd60e51b8152602060048201526016602482015275125cdcdd585b98d9481b9bdd0818dbdb5c1b195d195960521b6044820152606401610cb9565b6000818152602160205260408120546001600160a01b03169080805b600c54811015611c3c576000818152600e6020908152604080832054888452601983528184206001600160a01b03918216808652935281842054601554601654935163a377cfbf60e01b815260048101869052938316602485015293949093909291169063a377cfbf906044016040805180830381865afa158015611ab8573d6000803e3d6000fd5b505050506040513d601f19601f82011682018060405250810190611adc91906136bd565b6000898152602360205260408082205490516370a0823160e01b81526001600160a01b0391821660048201819052939450908616906370a0823190602401602060405180830381865afa158015611b37573d6000803e3d6000fd5b505050506040513d601f19601f82011682018060405250810190611b5b919061352a565b60008b8152601d602090815260408083206001600160a01b038a168452909152812054855192935091611b8e90836134e9565b6000878152601b602052604081205491925090611bab90836134d6565b9050611bb7828c6134d6565b9a50611bc3818b6134d6565b6040516317ee7de960e11b8152909a506001600160a01b03861690632fdcfbd290611bf6908b9030908990600401613699565b600060405180830381600087803b158015611c1057600080fd5b505af1158015611c24573d6000803e3d6000fd5b50506001909a019950611a2f98505050505050505050565b506000848152601f60205260408120549083611c5884846134e9565b611c629190613516565b90506000611c708383613686565b6013546040516340c10f1960e01b81526001600160a01b038981166004830152602482018490529293509116906340c10f1990604401600060405180830381600087803b158015611cc057600080fd5b505af1158015611cd4573d6000803e3d6000fd5b5050505050505050505050565b6000611ceb6120b6565b6001600160a01b038316611d395760405162461bcd60e51b8152602060048201526015602482015274696e76616c696420746f6b656e206164647265737360581b6044820152606401610cb9565b506016805460ff8316600160a01b026001600160a81b03199091166001600160a01b03851617179055600192915050565b60008381526005602052604090205483906001600160a01b03163314611de35760405162461bcd60e51b815260206004820152602860248201527f536f75726365206d75737420626520746865206f7261636c65206f6620746865604482015267081c995c5d595cdd60c21b6064820152608401610cb9565b60008181526005602052604080822080546001600160a01b03191690555182917f7cc135e0cebb02c3480ae5d74d377283180a2601f8f644edf7987b009316c63a91a26112a683836124d2565b611e386120b6565b6001600160a01b038116611e6257604051631e4fbdf760e01b815260006004820152602401610cb9565b611e6b8161234c565b50565b6015546016546040516308da5c3560e21b81526000600482018190526001600160a01b039283166024830152928392839291169063236970d4906044016040805180830381865afa158015611ec7573d6000803e3d6000fd5b505050506040513d601f19601f82011682018060405250810190611eeb919061371c565b915091506000611efb82876126f3565b611f0590846134d6565b90506000611f13600061271c565b6001600160a01b0380881660208301528916604082015260e0810188905290506000611f3f83896134d6565b6016546040516323b872dd60e01b81529192506001600160a01b0316906323b872dd90611f7490339030908690600401613699565b6020604051808303816000875af1158015611f93573d6000803e3d6000fd5b505050506040513d601f19601f82011682018060405250810190611fb79190613754565b5060165460155460405163095ea7b360e01b81526001600160a01b0391821660048201526024810184905291169063095ea7b3906044016020604051808303816000875af115801561200d573d6000803e3d6000fd5b505050506040513d601f19601f820116820180604052508101906120319190613754565b5060155460405163aa2165f160e01b81526000916001600160a01b03169063aa2165f19061206390869060040161379a565b6020604051808303816000875af1158015612082573d6000803e3d6000fd5b505050506040513d601f19601f820116820180604052508101906120a6919061352a565b96505050505050505b9392505050565b336120e87f9016d09d72d40fdae2fd8ceac6b6234c7706214fd39c1cd1e609a0528c199300546001600160a01b031690565b6001600160a01b031614610cf65760405163118cdaa760e01b8152336004820152602401610cb9565b6121196127d3565b600080516020613d93833981519152805460ff191681557f5db9ee0a495bf2e6ff9c91a7834c1ba4fdd244a5e8aa4e537bd38aeae4b073aa335b6040516001600160a01b03909116815260200160405180910390a150565b600380546001600160a01b0319166001600160a01b0392909216919091179055565b61219b612803565b611e6b8161284c565b6121ac612803565b610cf6612854565b6000806121c1600161271c565b6001600160a01b0380871660408084019190915260c08301879052858216602084015260135490516323b872dd60e01b815292935016906323b872dd9061221090339030908990600401613699565b6020604051808303816000875af115801561222f573d6000803e3d6000fd5b505050506040513d601f19601f820116820180604052508101906122539190613754565b5060135460155460405163095ea7b360e01b81526001600160a01b0391821660048201526024810187905291169063095ea7b3906044016020604051808303816000875af11580156122a9573d6000803e3d6000fd5b505050506040513d601f19601f820116820180604052508101906122cd9190613754565b5060155460405163aa2165f160e01b81526000916001600160a01b03169063aa2165f1906122ff90859060040161379a565b6020604051808303816000875af115801561231e573d6000803e3d6000fd5b505050506040513d601f19601f82011682018060405250810190612342919061352a565b9695505050505050565b7f9016d09d72d40fdae2fd8ceac6b6234c7706214fd39c1cd1e609a0528c19930080546001600160a01b031981166001600160a01b03848116918217845560405192169182907f8be0079c531659141344cd1fd0a4f28419497f9722a3daafe3b4186f6b6457e090600090a3505050565b6123c5612f0e565b6123cd612f0e565b6123d981868686612875565b95945050505050565b60808301516123f190836128bb565b6080830151610c6090826128bb565b6004546000906124118160016134d6565b600455835160408086015160808701515191516000936320214ca360e11b936124499386938493923092918a9160019160240161385f565b60408051601f198184030181529190526020810180516001600160e01b03166001600160e01b0319909316929092179091529050612342868386846128d2565b612491612a30565b600080516020613d93833981519152805460ff191660011781557f62e78cea01bee320cd4e420270b5ea74000d11b0c9f74754ebdbfc544b05a25833612153565b818160005b82518110156126d3578281815181106124f2576124f26138c7565b6020026020010151600d600083815260200190815260200160002060006101000a8154816001600160a01b0302191690836001600160a01b0316021790555080600f6000858481518110612548576125486138c7565b60200260200101516001600160a01b03166001600160a01b0316815260200190815260200160002081905550818181518110612586576125866138c7565b6020026020010151601260008584815181106125a4576125a46138c7565b60200260200101516001600160a01b03166001600160a01b0316815260200190815260200160002081905550600c546000036126cb578281815181106125ec576125ec6138c7565b6020026020010151600e600083815260200190815260200160002060006101000a8154816001600160a01b0302191690836001600160a01b0316021790555081818151811061263d5761263d6138c7565b60200260200101516011600085848151811061265b5761265b6138c7565b60200260200101516001600160a01b03166001600160a01b0316815260200190815260200160002081905550806010600085848151811061269e5761269e6138c7565b60200260200101516001600160a01b03166001600160a01b03168152602001908152602001600020819055505b6001016124d7565b508151600b55600c546000036126e9578151600c555b505042600a555050565b60008262ffffff166000036127095760006120af565b6120af8262ffffff8516620f4240612a61565b612724612f4e565b60408051610140810182526001600160401b03421681523060208201526013546001600160a01b03908116928201929092526016549091166060820152821515608082015260a08101600081526020018361278057600061278b565b68056bc75e2d631000005b68ffffffffffffffffff168152602001836127af5768056bc75e2d631000006127b2565b60005b68ffffffffffffffffff168152600060208201526040016001905292915050565b600080516020613d938339815191525460ff16610cf657604051638dfc202b60e01b815260040160405180910390fd5b7ff0c57e16840df040f15088dc2f81fe391c3923bec73e23a9662efc9c229c6a0054600160401b900460ff16610cf657604051631afcd79f60e31b815260040160405180910390fd5b611e38612803565b61285c612803565b600080516020613d93833981519152805460ff19169055565b61287d612f0e565b61288d8560800151610100612b35565b50508284526001600160a01b03821660208501526001600160e01b031981166040850152835b949350505050565b6128c88260038351612b9a565b610c608282612ca1565b6040516bffffffffffffffffffffffff193060601b1660208201526034810184905260009060540160408051808303601f1901815282825280516020918201206000818152600590925291812080546001600160a01b0319166001600160a01b038a1617905590925082917fb5e6e01e79f91267dc17b4e6314d5d4d03593d2ceee0fbb452b750bd70ea5af99190a2600254604051630200057560e51b81526001600160a01b0390911690634000aea090612995908890879087906004016138dd565b6020604051808303816000875af11580156129b4573d6000803e3d6000fd5b505050506040513d601f19601f820116820180604052508101906129d89190613754565b6128b35760405162461bcd60e51b815260206004820152602360248201527f756e61626c6520746f207472616e73666572416e6443616c6c20746f206f7261604482015262636c6560e81b6064820152608401610cb9565b600080516020613d938339815191525460ff1615610cf65760405163d93c066560e01b815260040160405180910390fd5b6000808060001985870985870292508281108382030391505080600003612a9b57838281612a9157612a91613500565b04925050506120af565b838110612acc57604051630c740aef60e31b8152600481018790526024810186905260448101859052606401610cb9565b60008486880960026001871981018816978890046003810283188082028403028082028403028082028403028082028403028082028403029081029092039091026000889003889004909101858311909403939093029303949094049190911702949350505050565b604080518082019091526060815260006020820152612b55602083613904565b15612b7d57612b65602083613904565b612b70906020613686565b612b7a90836134d6565b91505b506020828101829052604080518085526000815290920101905290565b6017816001600160401b031611612bbe576112a68360e0600585901b168317612cc8565b60ff816001600160401b031611612bfa57612be4836018611fe0600586901b1617612cc8565b506112a6836001600160401b0383166001612ced565b61ffff816001600160401b031611612c3757612c21836019611fe0600586901b1617612cc8565b506112a6836001600160401b0383166002612ced565b63ffffffff816001600160401b031611612c7657612c6083601a611fe0600586901b1617612cc8565b506112a6836001600160401b0383166004612ced565b612c8b83601b611fe0600586901b1617612cc8565b506112a6836001600160401b0383166008612ced565b6040805180820190915260608152600060208201526120af83846000015151848551612d13565b6040805180820190915260608152600060208201526120af8384600001515184612dfd565b6040805180820190915260608152600060208201526128b3848560000151518585612e58565b6040805180820190915260608152600060208201528251821115612d3657600080fd5b6020850151612d4583866134d6565b1115612d7857612d7885612d6887602001518786612d6391906134d6565b612ed9565b612d739060026134e9565b612eea565b600080865180518760208301019350808887011115612d975787860182525b505050602084015b60208410612dd75780518252612db66020836134d6565b9150612dc36020826134d6565b9050612dd0602085613686565b9350612d9f565b51815160001960208690036101000a019081169019919091161790525083949350505050565b60408051808201909152606081526000602082015283602001518310612e3257612e328485602001516002612d7391906134e9565b8351805160208583010184815350808503612e4e576001810182525b5093949350505050565b6040805180820190915260608152600060208201526020850151612e7c85846134d6565b1115612e9057612e9085612d6886856134d6565b60006001612ea0846101006139fc565b612eaa9190613686565b9050855183868201018583198251161781525080518487011115612ece5783860181525b509495945050505050565b600081831115610a1a57508161091b565b8151612ef68383612b35565b506112a68382612ca1565b61033280613a0983390190565b6040805160a0810182526000808252602080830182905282840182905260608084018390528451808601909552845283015290608082015290565b905290565b604080516101408101825260008082526020820181905291810182905260608101829052608081018290529060a0820190815260200160008152602001600081526020016000815260200160006003811115612f4957612f49613489565b80356001600160a01b0381168114610ce157600080fd5b600060208284031215612fd557600080fd5b6120af82612fac565b634e487b7160e01b600052604160045260246000fd5b604051601f8201601f191681016001600160401b038111828210171561301c5761301c612fde565b604052919050565b600082601f83011261303557600080fd5b81356001600160401b0381111561304e5761304e612fde565b613061601f8201601f1916602001612ff4565b81815284602083860101111561307657600080fd5b816020850160208301376000918101602001919091529392505050565b600080604083850312156130a657600080fd5b82356001600160401b03808211156130bd57600080fd5b6130c986838701613024565b935060208501359150808211156130df57600080fd5b506130ec85828601613024565b9150509250929050565b60005b838110156131115781810151838201526020016130f9565b50506000910152565b600081518084526131328160208601602086016130f6565b601f01601f19169290920160200192915050565b6020815260006120af602083018461311a565b60006020828403121561316b57600080fd5b5035919050565b6000806040838503121561318557600080fd5b8235915061319560208401612fac565b90509250929050565b600080604083850312156131b157600080fd5b6131ba83612fac565b946020939093013593505050565b803560ff81168114610ce157600080fd5b600080600080600080600060e0888a0312156131f457600080fd5b6131fd88612fac565b965061320b60208901612fac565b955061321960408901612fac565b9450613227606089016131c8565b935061323560808901612fac565b925061324360a08901612fac565b915060c0880135905092959891949750929550565b60006020828403121561326a57600080fd5b6120af826131c8565b60006001600160401b0382111561328c5761328c612fde565b5060051b60200190565b600082601f8301126132a757600080fd5b813560206132bc6132b783613273565b612ff4565b8083825260208201915060208460051b8701019350868411156132de57600080fd5b602086015b84811015613301576132f481612fac565b83529183019183016132e3565b509695505050505050565b600082601f83011261331d57600080fd5b8135602061332d6132b783613273565b8083825260208201915060208460051b87010193508684111561334f57600080fd5b602086015b848110156133015780358352918301918301613354565b6000806040838503121561337e57600080fd5b82356001600160401b038082111561339557600080fd5b6133a186838701613296565b935060208501359150808211156133b757600080fd5b506130ec8582860161330c565b600080604083850312156133d757600080fd5b6133e083612fac565b9150613195602084016131c8565b60008060006060848603121561340357600080fd5b8335925060208401356001600160401b038082111561342157600080fd5b61342d87838801613296565b9350604086013591508082111561344357600080fd5b506134508682870161330c565b9150509250925092565b6000835161346c8184602088016130f6565b8351908301906134808183602088016130f6565b01949350505050565b634e487b7160e01b600052602160045260246000fd5b6000602082840312156134b157600080fd5b8151600481106120af57600080fd5b634e487b7160e01b600052601160045260246000fd5b8082018082111561091b5761091b6134c0565b808202811582820484141761091b5761091b6134c0565b634e487b7160e01b600052601260045260246000fd5b60008261352557613525613500565b500490565b60006020828403121561353c57600080fd5b5051919050565b600181811c9082168061355757607f821691505b602082108103610a1a57634e487b7160e01b600052602260045260246000fd5b601f821115610c60576000816000526020600020601f850160051c810160208610156135a05750805b601f850160051c820191505b818110156135bf578281556001016135ac565b505050505050565b81516001600160401b038111156135e0576135e0612fde565b6135f4816135ee8454613543565b84613577565b602080601f83116001811461362957600084156136115750858301515b600019600386901b1c1916600185901b1785556135bf565b600085815260208120601f198616915b8281101561365857888601518255948401946001909101908401613639565b50858210156136765787850151600019600388901b60f8161c191681555b5050505050600190811b01905550565b8181038181111561091b5761091b6134c0565b6001600160a01b039384168152919092166020820152604081019190915260600190565b6000604082840312156136cf57600080fd5b604051604081016001600160401b0382821081831117156136f2576136f2612fde565b816040528451835260208501519150808216821461370f57600080fd5b5060208201529392505050565b6000806040838503121561372f57600080fd5b82519150602083015162ffffff8116811461374957600080fd5b809150509250929050565b60006020828403121561376657600080fd5b815180151581146120af57600080fd5b6002811061378657613786613489565b9052565b6004811061378657613786613489565b81516001600160401b03168152610140810160208301516137c660208401826001600160a01b03169052565b5060408301516137e160408401826001600160a01b03169052565b5060608301516137fc60608401826001600160a01b03169052565b506080830151613810608084018215159052565b5060a083015161382360a0840182613776565b5060c083015160c083015260e083015160e0830152610100808401518184015250610120808401516138578285018261378a565b505092915050565b6001600160a01b0389811682526020820189905260408201889052861660608201526001600160e01b03198516608082015260a0810184905260c0810183905261010060e082018190526000906138b88382018561311a565b9b9a5050505050505050505050565b634e487b7160e01b600052603260045260246000fd5b60018060a01b03841681528260208201526060604082015260006123d9606083018461311a565b60008261391357613913613500565b500690565b600181815b80851115613953578160001904821115613939576139396134c0565b8085161561394657918102915b93841c939080029061391d565b509250929050565b60008261396a5750600161091b565b816139775750600061091b565b816001811461398d5760028114613997576139b3565b600191505061091b565b60ff8411156139a8576139a86134c0565b50506001821b61091b565b5060208310610133831016604e8410600b84101617156139d6575081810a61091b565b6139e08383613918565b80600019048211156139f4576139f46134c0565b029392505050565b60006120af838361395b56fe6080604052348015600f57600080fd5b50604051610332380380610332833981016040819052602c916050565b600080546001600160a01b0319166001600160a01b0392909216919091179055607e565b600060208284031215606157600080fd5b81516001600160a01b0381168114607757600080fd5b9392505050565b6102a58061008d6000396000f3fe608060405234801561001057600080fd5b50600436106100415760003560e01c806313af4035146100465780632fdcfbd21461005b5780638da5cb5b1461006e575b600080fd5b6100596100543660046101ef565b61009d565b005b610059610069366004610211565b61010f565b600054610081906001600160a01b031681565b6040516001600160a01b03909116815260200160405180910390f35b6000546001600160a01b031633146100ed5760405162461bcd60e51b815260206004820152600e60248201526d139bdd08185d5d1a1bdc9a5e995960921b60448201526064015b60405180910390fd5b600080546001600160a01b0319166001600160a01b0392909216919091179055565b6000546001600160a01b0316331461015a5760405162461bcd60e51b815260206004820152600e60248201526d139bdd08185d5d1a1bdc9a5e995960921b60448201526064016100e4565b60405163a9059cbb60e01b81526001600160a01b0383811660048301526024820183905284169063a9059cbb906044016020604051808303816000875af11580156101a9573d6000803e3d6000fd5b505050506040513d601f19601f820116820180604052508101906101cd919061024d565b50505050565b80356001600160a01b03811681146101ea57600080fd5b919050565b60006020828403121561020157600080fd5b61020a826101d3565b9392505050565b60008060006060848603121561022657600080fd5b61022f846101d3565b925061023d602085016101d3565b9150604084013590509250925092565b60006020828403121561025f57600080fd5b8151801515811461020a57600080fdfea2646970667358221220502fe3cef5472467ba27d3f0af8cc13ea970369ac0d01284025186802306355064736f6c6343000819003368747470733a2f2f6170702e6e65786c6162732e696f2f6170692f616c6c46756e64696e6752617465733f6d756c7469706c7946756e633d31382674696d65734e656746756e643d74727565266172726179733d74727565cd5ed15c6e187e77e9aee88184c21f4f2182ab5827cb3b7e07fbedcd63f03300a26469706673582212207f716d957009acc91e94080c96daafc3ec80d291ef022f4de1c3b50b2a66258164736f6c63430008190033","linkReferences":{}},"methodIdentifiers":{"buyRequestPayedAmountById(uint256)":"8861d235","checkIssuance(uint256)":"2371a4de","checkRedemption(uint256)":"845524f0","coaByIssuanceNonce(uint256)":"31c99010","coaByRedemptionNonce(uint256)":"b75f4c2c","completeIssuance(uint256)":"bed45bef","completeRedemption(uint256)":"840ecba0","concatenation(string,string)":"0e329357","currentList(uint256)":"9932ba4c","custodianWallet()":"1e106e99","externalJobId()":"a8b54bd4","feeRate()":"978bbdb9","fulfillAssetsData(bytes32,address[],uint256[])":"f14bea20","initialize(address,address,address,uint8,address,address,bytes32)":"45e0ed4f","issuance(uint256)":"248b761e","issuanceIndexTokenPrimaryTotalSupply(uint256)":"b1dd819e","issuanceNonce()":"9dbb9c9e","issuanceRequestId(uint256,address)":"264fa8b9","issuanceRequesterByNonce(uint256)":"94674098","issuanceTokenPrimaryBalance(uint256,address)":"da65925a","issuer()":"1d143848","lastUpdateTime()":"c8f33c91","latestFeeUpdate()":"011ced5f","mockFillAssetsList(address[],uint256[])":"addc70d1","oracleList(uint256)":"239aad0d","oraclePayment()":"0c02e130","owner()":"8da5cb5b","pause()":"8456cb59","paused()":"5c975abb","redemption(uint256)":"4a1dc092","redemptionIndexTokenPrimaryTotalSupply(uint256)":"daf1c17d","redemptionNonce()":"84d77bb1","redemptionRequestId(uint256,address)":"f513a718","redemptionRequesterByNonce(uint256)":"78032658","redemptionTokenPrimaryBalance(uint256,address)":"a363b9cb","renounceOwnership()":"715018a6","requestAssetsData()":"7ca58c55","sellRequestAssetAmountById(uint256)":"a87f98d2","setCustodianWallet(address)":"9cc0fb5b","setFeeRate(uint8)":"5177942a","setIssuer(address)":"55cc4e57","setOracleInfo(address,bytes32)":"43482fc8","setTokenAddress(address)":"26a4e8d2","setUrl(string,string)":"a73e1cbf","setUsdcAddress(address,uint8)":"eab2a711","token()":"fc0c546a","tokenCurrentListIndex(address)":"914f0cc6","tokenCurrentMarketShare(address)":"0be52713","tokenOracleListIndex(address)":"8c88c10c","tokenOracleMarketShare(address)":"4b3e0b80","totalCurrentList()":"53fd4332","totalOracleList()":"c8599ded","transferOwnership(address)":"f2fde38b","unpause()":"3f4ba83a","usdc()":"3e413bee","usdcDecimals()":"7bf42165"},"id":16}