{
  "abi": [
    {
      "inputs": [],
      "name": "EnforcedPause",
      "type": "error"
    },
    {
      "inputs": [],
      "name": "ExpectedPause",
      "type": "error"
    },
    {
      "inputs": [],
      "name": "InvalidInitialization",
      "type": "error"
    },
    {
      "inputs": [],
      "name": "NotInitializing",
      "type": "error"
    },
    {
      "inputs": [
        {
          "internalType": "address",
          "name": "owner",
          "type": "address"
        }
      ],
      "name": "OwnableInvalidOwner",
      "type": "error"
    },
    {
      "inputs": [
        {
          "internalType": "address",
          "name": "account",
          "type": "address"
        }
      ],
      "name": "OwnableUnauthorizedAccount",
      "type": "error"
    },
    {
      "inputs": [
        {
          "internalType": "uint256",
          "name": "x",
          "type": "uint256"
        },
        {
          "internalType": "uint256",
          "name": "y",
          "type": "uint256"
        },
        {
          "internalType": "uint256",
          "name": "denominator",
          "type": "uint256"
        }
      ],
      "name": "PRBMath_MulDiv_Overflow",
      "type": "error"
    },
    {
      "anonymous": false,
      "inputs": [
        {
          "indexed": true,
          "internalType": "bytes32",
          "name": "id",
          "type": "bytes32"
        }
      ],
      "name": "ChainlinkCancelled",
      "type": "event"
    },
    {
      "anonymous": false,
      "inputs": [
        {
          "indexed": true,
          "internalType": "bytes32",
          "name": "id",
          "type": "bytes32"
        }
      ],
      "name": "ChainlinkFulfilled",
      "type": "event"
    },
    {
      "anonymous": false,
      "inputs": [
        {
          "indexed": true,
          "internalType": "bytes32",
          "name": "id",
          "type": "bytes32"
        }
      ],
      "name": "ChainlinkRequested",
      "type": "event"
    },
    {
      "anonymous": false,
      "inputs": [
        {
          "indexed": false,
          "internalType": "uint64",
          "name": "version",
          "type": "uint64"
        }
      ],
      "name": "Initialized",
      "type": "event"
    },
    {
      "anonymous": false,
      "inputs": [
        {
          "indexed": true,
          "internalType": "address",
          "name": "previousOwner",
          "type": "address"
        },
        {
          "indexed": true,
          "internalType": "address",
          "name": "newOwner",
          "type": "address"
        }
      ],
      "name": "OwnershipTransferred",
      "type": "event"
    },
    {
      "anonymous": false,
      "inputs": [
        {
          "indexed": false,
          "internalType": "address",
          "name": "account",
          "type": "address"
        }
      ],
      "name": "Paused",
      "type": "event"
    },
    {
      "anonymous": false,
      "inputs": [
        {
          "indexed": false,
          "internalType": "address",
          "name": "account",
          "type": "address"
        }
      ],
      "name": "Unpaused",
      "type": "event"
    },
    {
      "inputs": [
        {
          "internalType": "uint256",
          "name": "",
          "type": "uint256"
        }
      ],
      "name": "buyRequestPayedAmountById",
      "outputs": [
        {
          "internalType": "uint256",
          "name": "",
          "type": "uint256"
        }
      ],
      "stateMutability": "view",
      "type": "function"
    },
    {
      "inputs": [
        {
          "internalType": "uint256",
          "name": "_issuanceNonce",
          "type": "uint256"
        }
      ],
      "name": "checkIssuance",
      "outputs": [
        {
          "internalType": "bool",
          "name": "",
          "type": "bool"
        }
      ],
      "stateMutability": "view",
      "type": "function"
    },
    {
      "inputs": [
        {
          "internalType": "uint256",
          "name": "issuanceNonce",
          "type": "uint256"
        }
      ],
      "name": "completeIssuance",
      "outputs": [],
      "stateMutability": "nonpayable",
      "type": "function"
    },
    {
      "inputs": [
        {
          "internalType": "string",
          "name": "a",
          "type": "string"
        },
        {
          "internalType": "string",
          "name": "b",
          "type": "string"
        }
      ],
      "name": "concatenation",
      "outputs": [
        {
          "internalType": "string",
          "name": "",
          "type": "string"
        }
      ],
      "stateMutability": "pure",
      "type": "function"
    },
    {
      "inputs": [
        {
          "internalType": "uint256",
          "name": "",
          "type": "uint256"
        }
      ],
      "name": "currentList",
      "outputs": [
        {
          "internalType": "address",
          "name": "",
          "type": "address"
        }
      ],
      "stateMutability": "view",
      "type": "function"
    },
    {
      "inputs": [],
      "name": "custodianWallet",
      "outputs": [
        {
          "internalType": "address",
          "name": "",
          "type": "address"
        }
      ],
      "stateMutability": "view",
      "type": "function"
    },
    {
      "inputs": [],
      "name": "externalJobId",
      "outputs": [
        {
          "internalType": "bytes32",
          "name": "",
          "type": "bytes32"
        }
      ],
      "stateMutability": "view",
      "type": "function"
    },
    {
      "inputs": [],
      "name": "feeRate",
      "outputs": [
        {
          "internalType": "uint8",
          "name": "",
          "type": "uint8"
        }
      ],
      "stateMutability": "view",
      "type": "function"
    },
    {
      "inputs": [
        {
          "internalType": "bytes32",
          "name": "requestId",
          "type": "bytes32"
        },
        {
          "internalType": "address[]",
          "name": "_tokens",
          "type": "address[]"
        },
        {
          "internalType": "uint256[]",
          "name": "_marketShares",
          "type": "uint256[]"
        }
      ],
      "name": "fulfillAssetsData",
      "outputs": [],
      "stateMutability": "nonpayable",
      "type": "function"
    },
    {
      "inputs": [
        {
          "internalType": "address",
          "name": "_issuer",
          "type": "address"
        },
        {
          "internalType": "address",
          "name": "_token",
          "type": "address"
        },
        {
          "internalType": "address",
          "name": "_usdc",
          "type": "address"
        },
        {
          "internalType": "uint8",
          "name": "_usdcDecimals",
          "type": "uint8"
        },
        {
          "internalType": "address",
          "name": "_chainlinkToken",
          "type": "address"
        },
        {
          "internalType": "address",
          "name": "_oracleAddress",
          "type": "address"
        },
        {
          "internalType": "bytes32",
          "name": "_externalJobId",
          "type": "bytes32"
        }
      ],
      "name": "initialize",
      "outputs": [],
      "stateMutability": "nonpayable",
      "type": "function"
    },
    {
      "inputs": [
        {
          "internalType": "uint256",
          "name": "_inputAmount",
          "type": "uint256"
        }
      ],
      "name": "issuance",
      "outputs": [],
      "stateMutability": "nonpayable",
      "type": "function"
    },
    {
      "inputs": [
        {
          "internalType": "uint256",
          "name": "",
          "type": "uint256"
        }
      ],
      "name": "issuanceIndexTokenPrimaryTotalSupply",
      "outputs": [
        {
          "internalType": "uint256",
          "name": "",
          "type": "uint256"
        }
      ],
      "stateMutability": "view",
      "type": "function"
    },
    {
      "inputs": [],
      "name": "issuanceNonce",
      "outputs": [
        {
          "internalType": "uint256",
          "name": "",
          "type": "uint256"
        }
      ],
      "stateMutability": "view",
      "type": "function"
    },
    {
      "inputs": [
        {
          "internalType": "uint256",
          "name": "",
          "type": "uint256"
        },
        {
          "internalType": "address",
          "name": "",
          "type": "address"
        }
      ],
      "name": "issuanceRequestId",
      "outputs": [
        {
          "internalType": "uint256",
          "name": "",
          "type": "uint256"
        }
      ],
      "stateMutability": "view",
      "type": "function"
    },
    {
      "inputs": [
        {
          "internalType": "uint256",
          "name": "",
          "type": "uint256"
        }
      ],
      "name": "issuanceRequesterByNonce",
      "outputs": [
        {
          "internalType": "address",
          "name": "",
          "type": "address"
        }
      ],
      "stateMutability": "view",
      "type": "function"
    },
    {
      "inputs": [
        {
          "internalType": "uint256",
          "name": "",
          "type": "uint256"
        },
        {
          "internalType": "address",
          "name": "",
          "type": "address"
        }
      ],
      "name": "issuanceTokenPrimaryBalance",
      "outputs": [
        {
          "internalType": "uint256",
          "name": "",
          "type": "uint256"
        }
      ],
      "stateMutability": "view",
      "type": "function"
    },
    {
      "inputs": [],
      "name": "issuer",
      "outputs": [
        {
          "internalType": "contract IOrderProcessor",
          "name": "",
          "type": "address"
        }
      ],
      "stateMutability": "view",
      "type": "function"
    },
    {
      "inputs": [],
      "name": "lastUpdateTime",
      "outputs": [
        {
          "internalType": "uint256",
          "name": "",
          "type": "uint256"
        }
      ],
      "stateMutability": "view",
      "type": "function"
    },
    {
      "inputs": [],
      "name": "latestFeeUpdate",
      "outputs": [
        {
          "internalType": "uint256",
          "name": "",
          "type": "uint256"
        }
      ],
      "stateMutability": "view",
      "type": "function"
    },
    {
      "inputs": [
        {
          "internalType": "address[]",
          "name": "_tokens",
          "type": "address[]"
        },
        {
          "internalType": "uint256[]",
          "name": "_marketShares",
          "type": "uint256[]"
        }
      ],
      "name": "mockFillAssetsList",
      "outputs": [],
      "stateMutability": "nonpayable",
      "type": "function"
    },
    {
      "inputs": [
        {
          "internalType": "uint256",
          "name": "",
          "type": "uint256"
        }
      ],
      "name": "oracleList",
      "outputs": [
        {
          "internalType": "address",
          "name": "",
          "type": "address"
        }
      ],
      "stateMutability": "view",
      "type": "function"
    },
    {
      "inputs": [],
      "name": "oraclePayment",
      "outputs": [
        {
          "internalType": "uint256",
          "name": "",
          "type": "uint256"
        }
      ],
      "stateMutability": "view",
      "type": "function"
    },
    {
      "inputs": [],
      "name": "owner",
      "outputs": [
        {
          "internalType": "address",
          "name": "",
          "type": "address"
        }
      ],
      "stateMutability": "view",
      "type": "function"
    },
    {
      "inputs": [],
      "name": "pause",
      "outputs": [],
      "stateMutability": "nonpayable",
      "type": "function"
    },
    {
      "inputs": [],
      "name": "paused",
      "outputs": [
        {
          "internalType": "bool",
          "name": "",
          "type": "bool"
        }
      ],
      "stateMutability": "view",
      "type": "function"
    },
    {
      "inputs": [
        {
          "internalType": "uint256",
          "name": "_inputAmount",
          "type": "uint256"
        }
      ],
      "name": "redemption",
      "outputs": [],
      "stateMutability": "nonpayable",
      "type": "function"
    },
    {
      "inputs": [],
      "name": "redemptionNonce",
      "outputs": [
        {
          "internalType": "uint256",
          "name": "",
          "type": "uint256"
        }
      ],
      "stateMutability": "view",
      "type": "function"
    },
    {
      "inputs": [
        {
          "internalType": "uint256",
          "name": "",
          "type": "uint256"
        },
        {
          "internalType": "address",
          "name": "",
          "type": "address"
        }
      ],
      "name": "redemptionRequestId",
      "outputs": [
        {
          "internalType": "uint256",
          "name": "",
          "type": "uint256"
        }
      ],
      "stateMutability": "view",
      "type": "function"
    },
    {
      "inputs": [
        {
          "internalType": "uint256",
          "name": "",
          "type": "uint256"
        }
      ],
      "name": "redemptionRequesterByNonce",
      "outputs": [
        {
          "internalType": "address",
          "name": "",
          "type": "address"
        }
      ],
      "stateMutability": "view",
      "type": "function"
    },
    {
      "inputs": [
        {
          "internalType": "uint256",
          "name": "",
          "type": "uint256"
        },
        {
          "internalType": "address",
          "name": "",
          "type": "address"
        }
      ],
      "name": "redemptionTokenPrimaryBalance",
      "outputs": [
        {
          "internalType": "uint256",
          "name": "",
          "type": "uint256"
        }
      ],
      "stateMutability": "view",
      "type": "function"
    },
    {
      "inputs": [],
      "name": "renounceOwnership",
      "outputs": [],
      "stateMutability": "nonpayable",
      "type": "function"
    },
    {
      "inputs": [],
      "name": "requestAssetsData",
      "outputs": [
        {
          "internalType": "bytes32",
          "name": "",
          "type": "bytes32"
        }
      ],
      "stateMutability": "nonpayable",
      "type": "function"
    },
    {
      "inputs": [
        {
          "internalType": "uint256",
          "name": "",
          "type": "uint256"
        }
      ],
      "name": "sellRequestAssetAmountById",
      "outputs": [
        {
          "internalType": "uint256",
          "name": "",
          "type": "uint256"
        }
      ],
      "stateMutability": "view",
      "type": "function"
    },
    {
      "inputs": [
        {
          "internalType": "address",
          "name": "_custodianWallet",
          "type": "address"
        }
      ],
      "name": "setCustodianWallet",
      "outputs": [
        {
          "internalType": "bool",
          "name": "",
          "type": "bool"
        }
      ],
      "stateMutability": "nonpayable",
      "type": "function"
    },
    {
      "inputs": [
        {
          "internalType": "uint8",
          "name": "_newFee",
          "type": "uint8"
        }
      ],
      "name": "setFeeRate",
      "outputs": [],
      "stateMutability": "nonpayable",
      "type": "function"
    },
    {
      "inputs": [
        {
          "internalType": "address",
          "name": "_issuer",
          "type": "address"
        }
      ],
      "name": "setIssuer",
      "outputs": [
        {
          "internalType": "bool",
          "name": "",
          "type": "bool"
        }
      ],
      "stateMutability": "nonpayable",
      "type": "function"
    },
    {
      "inputs": [
        {
          "internalType": "address",
          "name": "_oracleAddress",
          "type": "address"
        },
        {
          "internalType": "bytes32",
          "name": "_externalJobId",
          "type": "bytes32"
        }
      ],
      "name": "setOracleInfo",
      "outputs": [],
      "stateMutability": "nonpayable",
      "type": "function"
    },
    {
      "inputs": [
        {
          "internalType": "address",
          "name": "_token",
          "type": "address"
        }
      ],
      "name": "setTokenAddress",
      "outputs": [
        {
          "internalType": "bool",
          "name": "",
          "type": "bool"
        }
      ],
      "stateMutability": "nonpayable",
      "type": "function"
    },
    {
      "inputs": [
        {
          "internalType": "string",
          "name": "_beforeAddress",
          "type": "string"
        },
        {
          "internalType": "string",
          "name": "_afterAddress",
          "type": "string"
        }
      ],
      "name": "setUrl",
      "outputs": [],
      "stateMutability": "nonpayable",
      "type": "function"
    },
    {
      "inputs": [
        {
          "internalType": "address",
          "name": "_usdc",
          "type": "address"
        },
        {
          "internalType": "uint8",
          "name": "_usdcDecimals",
          "type": "uint8"
        }
      ],
      "name": "setUsdcAddress",
      "outputs": [
        {
          "internalType": "bool",
          "name": "",
          "type": "bool"
        }
      ],
      "stateMutability": "nonpayable",
      "type": "function"
    },
    {
      "inputs": [],
      "name": "token",
      "outputs": [
        {
          "internalType": "contract IndexToken",
          "name": "",
          "type": "address"
        }
      ],
      "stateMutability": "view",
      "type": "function"
    },
    {
      "inputs": [
        {
          "internalType": "address",
          "name": "",
          "type": "address"
        }
      ],
      "name": "tokenCurrentListIndex",
      "outputs": [
        {
          "internalType": "uint256",
          "name": "",
          "type": "uint256"
        }
      ],
      "stateMutability": "view",
      "type": "function"
    },
    {
      "inputs": [
        {
          "internalType": "address",
          "name": "",
          "type": "address"
        }
      ],
      "name": "tokenCurrentMarketShare",
      "outputs": [
        {
          "internalType": "uint256",
          "name": "",
          "type": "uint256"
        }
      ],
      "stateMutability": "view",
      "type": "function"
    },
    {
      "inputs": [
        {
          "internalType": "address",
          "name": "",
          "type": "address"
        }
      ],
      "name": "tokenOracleListIndex",
      "outputs": [
        {
          "internalType": "uint256",
          "name": "",
          "type": "uint256"
        }
      ],
      "stateMutability": "view",
      "type": "function"
    },
    {
      "inputs": [
        {
          "internalType": "address",
          "name": "",
          "type": "address"
        }
      ],
      "name": "tokenOracleMarketShare",
      "outputs": [
        {
          "internalType": "uint256",
          "name": "",
          "type": "uint256"
        }
      ],
      "stateMutability": "view",
      "type": "function"
    },
    {
      "inputs": [],
      "name": "totalCurrentList",
      "outputs": [
        {
          "internalType": "uint256",
          "name": "",
          "type": "uint256"
        }
      ],
      "stateMutability": "view",
      "type": "function"
    },
    {
      "inputs": [],
      "name": "totalOracleList",
      "outputs": [
        {
          "internalType": "uint256",
          "name": "",
          "type": "uint256"
        }
      ],
      "stateMutability": "view",
      "type": "function"
    },
    {
      "inputs": [
        {
          "internalType": "address",
          "name": "newOwner",
          "type": "address"
        }
      ],
      "name": "transferOwnership",
      "outputs": [],
      "stateMutability": "nonpayable",
      "type": "function"
    },
    {
      "inputs": [],
      "name": "unpause",
      "outputs": [],
      "stateMutability": "nonpayable",
      "type": "function"
    },
    {
      "inputs": [],
      "name": "usdc",
      "outputs": [
        {
          "internalType": "address",
          "name": "",
          "type": "address"
        }
      ],
      "stateMutability": "view",
      "type": "function"
    },
    {
      "inputs": [],
      "name": "usdcDecimals",
      "outputs": [
        {
          "internalType": "uint8",
          "name": "",
          "type": "uint8"
        }
      ],
      "stateMutability": "view",
      "type": "function"
    }
  ],
  "bytecode": {
    "object": "0x6080604052348015600f57600080fd5b506135e98061001f6000396000f3fe608060405234801561001057600080fd5b50600436106102f15760003560e01c80638456cb591161019d578063a87f98d2116100e9578063c8f33c91116100a2578063f14bea201161007c578063f14bea2014610771578063f2fde38b14610784578063f513a71814610797578063fc0c546a146107c257600080fd5b8063c8f33c911461072a578063da65925a14610733578063eab2a7111461075e57600080fd5b8063a87f98d2146106b2578063a8b54bd4146106d2578063addc70d1146106db578063b1dd819e146106ee578063bed45bef1461070e578063c8599ded1461072157600080fd5b806394674098116101565780639cc0fb5b116101305780639cc0fb5b146106585780639dbb9c9e1461066b578063a363b9cb14610674578063a73e1cbf1461069f57600080fd5b806394674098146105f3578063978bbdb91461061b5780639932ba4c1461062f57600080fd5b80638456cb591461055257806384d77bb11461055a5780638861d235146105635780638c88c10c146105835780638da5cb5b146105a3578063914f0cc6146105d357600080fd5b80633f4ba83a1161025c57806353fd433211610215578063715018a6116101ef578063715018a6146104f357806378032658146104fb5780637bf42165146105245780637ca58c551461054a57600080fd5b806353fd4332146104bf57806355cc4e57146104c85780635c975abb146104db57600080fd5b80633f4ba83a1461044b57806343482fc81461045357806345e0ed4f146104665780634a1dc092146104795780634b3e0b801461048c5780635177942a146104ac57600080fd5b80632371a4de116102ae5780632371a4de14610399578063239aad0d146103bc578063248b761e146103e5578063264fa8b9146103fa57806326a4e8d2146104255780633e413bee1461043857600080fd5b8063011ced5f146102f65780630be52713146103125780630c02e130146103325780630e3293571461033b5780631d1438481461035b5780631e106e9914610386575b600080fd5b6102ff60225481565b6040519081526020015b60405180910390f35b6102ff610320366004612b1a565b60116020526000908152604090205481565b6102ff60095481565b61034e610349366004612bea565b6107d5565b6040516103099190612c9d565b60155461036e906001600160a01b031681565b6040516001600160a01b039091168152602001610309565b60145461036e906001600160a01b031681565b6103ac6103a7366004612cb0565b610802565b6040519015158152602001610309565b61036e6103ca366004612cb0565b600d602052600090815260409020546001600160a01b031681565b6103f86103f3366004612cb0565b610901565b005b6102ff610408366004612cc9565b601960209081526000928352604080842090915290825290205481565b6103ac610433366004612b1a565b610ad2565b60165461036e906001600160a01b031681565b6103f8610b53565b6103f8610461366004612cf5565b610b65565b6103f8610474366004612d30565b610b7c565b6103f8610487366004612cb0565b610d96565b6102ff61049a366004612b1a565b60126020526000908152604090205481565b6103f86104ba366004612daf565b6110b1565b6102ff600c5481565b6103ac6104d6366004612b1a565b6111fb565b6000805160206135948339815191525460ff166103ac565b6103f8611279565b61036e610509366004612cb0565b6021602052600090815260409020546001600160a01b031681565b60165461053890600160a01b900460ff1681565b60405160ff9091168152602001610309565b6102ff61128b565b6103f86114cb565b6102ff60185481565b6102ff610571366004612cb0565b601b6020526000908152604090205481565b6102ff610591366004612b1a565b600f6020526000908152604090205481565b7f9016d09d72d40fdae2fd8ceac6b6234c7706214fd39c1cd1e609a0528c199300546001600160a01b031661036e565b6102ff6105e1366004612b1a565b60106020526000908152604090205481565b61036e610601366004612cb0565b60208052600090815260409020546001600160a01b031681565b60165461053890600160a81b900460ff1681565b61036e61063d366004612cb0565b600e602052600090815260409020546001600160a01b031681565b6103ac610666366004612b1a565b6114db565b6102ff60175481565b6102ff610682366004612cc9565b601e60209081526000928352604080842090915290825290205481565b6103f86106ad366004612bea565b611560565b6102ff6106c0366004612cb0565b601c6020526000908152604090205481565b6102ff60085481565b6103f86106e9366004612ec2565b611581565b6102ff6106fc366004612cb0565b601f6020526000908152604090205481565b6103f861071c366004612cb0565b611593565b6102ff600b5481565b6102ff600a5481565b6102ff610741366004612cc9565b601d60209081526000928352604080842090915290825290205481565b6103ac61076c366004612f1b565b611839565b6103f861077f366004612f45565b6118c2565b6103f8610792366004612b1a565b61198e565b6102ff6107a5366004612cc9565b601a60209081526000928352604080842090915290825290205481565b60135461036e906001600160a01b031681565b606082826040516020016107ea929190612fb1565b60405160208183030381529060405290505b92915050565b60008060005b600c548110156108df576000818152600e6020908152604080832054878452601983528184206001600160a01b039182168086529352928190205460155491516322fd455760e11b81526004810182905292939092600392909116906345fa8aae90602401602060405180830381865afa15801561088a573d6000803e3d6000fd5b505050506040513d601f19601f820116820180604052508101906108ae9190612ff6565b60038111156108bf576108bf612fe0565b60ff16036108d5576108d260018561302d565b93505b5050600101610808565b50600c5481036108f25750600192915050565b50600092915050565b50919050565b600160176000828254610914919061302d565b90915550600090505b600c54811015610ace576000818152600e60209081526040808320546001600160a01b0316808452601190925282205490919060649061095d9086613040565b610967919061306d565b9050600061097583836119cc565b6000818152601b60209081526040808320869055601780548452601983528184206001600160a01b038916808652908452828520869055905484529180529182902080546001600160a01b0319163317905590516370a0823160e01b8152306004820152919250906370a0823190602401602060405180830381865afa158015610a03573d6000803e3d6000fd5b505050506040513d601f19601f82011682018060405250810190610a279190613081565b6017546000908152601d602090815260408083206001600160a01b038089168552908352928190209390935560135483516318160ddd60e01b815293519216926318160ddd92600480830193928290030181865afa158015610a8d573d6000803e3d6000fd5b505050506040513d601f19601f82011682018060405250810190610ab19190613081565b6017546000908152601f602052604090205550505060010161091d565b5050565b6000610adc611c13565b6001600160a01b038216610b2f5760405162461bcd60e51b8152602060048201526015602482015274696e76616c696420746f6b656e206164647265737360581b60448201526064015b60405180910390fd5b50601380546001600160a01b0319166001600160a01b03831617905560015b919050565b610b5b611c13565b610b63611c6e565b565b610b6d611c13565b610b7682611cce565b60085550565b7ff0c57e16840df040f15088dc2f81fe391c3923bec73e23a9662efc9c229c6a008054600160401b810460ff1615906001600160401b0316600081158015610bc15750825b90506000826001600160401b03166001148015610bdd5750303b155b905081158015610beb575080155b15610c095760405163f92ee8a960e01b815260040160405180910390fd5b845467ffffffffffffffff191660011785558315610c3357845460ff60401b1916600160401b1785555b601580546001600160a01b03199081166001600160a01b038f811691909117909255601380549091168d831617905560168054918c166001600160a81b031990921691909117600160a01b60ff8c1602179055610c8f33611cf0565b610c97611d01565b6016805460ff60a81b1916600560a91b179055600280546001600160a01b0319166001600160a01b038a16179055610cce87611cce565b6008869055600a610ce8670de0b6b3a76400006001613040565b610cf2919061306d565b6009556040805160608101909152602a80825261353c6020830139600690610d1a908261311e565b506040518060600160405280602e8152602001613566602e9139600790610d41908261311e565b508315610d8857845460ff60401b19168555604051600181527fc7f505b2f371ae2175ee4913f4499e1f2633a7b5936321eed1cdaeb6115181d29060200160405180910390a15b505050505050505050505050565b600160186000828254610da9919061302d565b9091555050601354604080516318160ddd60e01b815290516000926001600160a01b0316916318160ddd9160048083019260209291908290030181865afa158015610df8573d6000803e3d6000fd5b505050506040513d601f19601f82011682018060405250810190610e1c9190613081565b610e2e83670de0b6b3a7640000613040565b610e38919061306d565b601354604051632770a7eb60e21b8152336004820152602481018590529192506001600160a01b031690639dc29fac90604401600060405180830381600087803b158015610e8557600080fd5b505af1158015610e99573d6000803e3d6000fd5b5050505060005b600c548110156110ac576000818152600e60205260408082205490516370a0823160e01b81523060048201526001600160a01b039091169190670de0b6b3a76400009083906370a0823190602401602060405180830381865afa158015610f0b573d6000803e3d6000fd5b505050506040513d601f19601f82011682018060405250810190610f2f9190613081565b610f399086613040565b610f43919061306d565b90506000610f518383611d11565b6000818152601c60209081526040808320869055601880548452601a83528184206001600160a01b0389168086529084528285208690559054845260219092529182902080546001600160a01b0319163317905590516370a0823160e01b8152306004820152919250906370a0823190602401602060405180830381865afa158015610fe1573d6000803e3d6000fd5b505050506040513d601f19601f820116820180604052508101906110059190613081565b6018546000908152601e602090815260408083206001600160a01b038089168552908352928190209390935560135483516318160ddd60e01b815293519216926318160ddd92600480830193928290030181865afa15801561106b573d6000803e3d6000fd5b505050506040513d601f19601f8201168201806040525081019061108f9190613081565b6018546000908152601f6020526040902055505050600101610ea0565b505050565b6110b9611c13565b6000602254426110c991906131dd565b9050600c603c6110d9818461306d565b6110e3919061306d565b116111565760405162461bcd60e51b815260206004820152603960248201527f596f752073686f756c642077616974206174206c6561737420313220686f757260448201527f7320616674657220746865206c617465737420757064617465000000000000006064820152608401610b26565b60648260ff161115801561116e575060018260ff1610155b6111d65760405162461bcd60e51b815260206004820152603360248201527f546865206e65774665652073686f756c64206265206265747765656e203120616044820152726e64203130302028302e303125202d2031252960681b6064820152608401610b26565b506016805460ff909216600160a81b0260ff60a81b1990921691909117905542602255565b6000611205611c13565b6001600160a01b0382166112545760405162461bcd60e51b8152602060048201526016602482015275696e76616c696420697373756572206164647265737360501b6044820152606401610b26565b50601580546001600160a01b0383166001600160a01b03199091161790556001919050565b611281611c13565b610b636000611ea4565b6000806113ac6006805461129e9061309a565b80601f01602080910402602001604051908101604052809291908181526020018280546112ca9061309a565b80156113175780601f106112ec57610100808354040283529160200191611317565b820191906000526020600020905b8154815290600101906020018083116112fa57829003601f168201915b5050505050600780546113299061309a565b80601f01602080910402602001604051908101604052809291908181526020018280546113559061309a565b80156113a25780601f10611377576101008083540402835291602001916113a2565b820191906000526020600020905b81548152906001019060200180831161138557829003601f168201915b50505050506107d5565b905060006113c46008543063f14bea2060e01b611f15565b60408051808201909152600381526219d95d60ea1b60208201529091506113ed90829084611f3c565b61144860405180604001604052806005815260200164706174683160d81b81525060405180604001604052806011815260200170726573756c74732c61646472657373657360781b81525083611f3c9092919063ffffffff16565b6114a6604051806040016040528060058152602001643830ba341960d91b81525060405180604001604052806014815260200173726573756c74732c6d61726b657453686172657360601b81525083611f3c9092919063ffffffff16565b6114c46114bb6003546001600160a01b031690565b82600954611f5a565b9250505090565b6114d3611c13565b610b63611fed565b60006114e5611c13565b6001600160a01b03821661153b5760405162461bcd60e51b815260206004820181905260248201527f696e76616c696420637573746f6469616e2077616c6c657420616464726573736044820152606401610b26565b50601480546001600160a01b0383166001600160a01b03199091161790556001919050565b611568611c13565b6006611574838261311e565b5060076110ac828261311e565b611589611c13565b610ace8282612036565b61159c81610802565b6115e15760405162461bcd60e51b8152602060048201526016602482015275125cdcdd585b98d9481b9bdd0818dbdb5c1b195d195960521b6044820152606401610b26565b60008181526020805260408120546001600160a01b03169080805b600c54811015611794576000818152600e6020908152604080832054888452601983528184206001600160a01b03918216808652935281842054601554601654935163a377cfbf60e01b815260048101869052938316602485015293949093909291169063a377cfbf906044016040805180830381865afa158015611685573d6000803e3d6000fd5b505050506040513d601f19601f820116820180604052508101906116a991906131f0565b6040516370a0823160e01b81523060048201529091506000906001600160a01b038516906370a0823190602401602060405180830381865afa1580156116f3573d6000803e3d6000fd5b505050506040513d601f19601f820116820180604052508101906117179190613081565b60008a8152601d602090815260408083206001600160a01b038916845290915281205484519293509161174a9083613040565b6000868152601b602052604081205491925090611767908361302d565b9050611773828b61302d565b995061177f818a61302d565b985050600190960195506115fc945050505050565b506000848152601f602052604081205490836117b08484613040565b6117ba919061306d565b905060006117c883836131dd565b6013546040516340c10f1960e01b81526001600160a01b038981166004830152602482018490529293509116906340c10f1990604401600060405180830381600087803b15801561181857600080fd5b505af115801561182c573d6000803e3d6000fd5b5050505050505050505050565b6000611843611c13565b6001600160a01b0383166118915760405162461bcd60e51b8152602060048201526015602482015274696e76616c696420746f6b656e206164647265737360581b6044820152606401610b26565b506016805460ff8316600160a01b026001600160a81b03199091166001600160a01b03851617179055600192915050565b60008381526005602052604090205483906001600160a01b0316331461193b5760405162461bcd60e51b815260206004820152602860248201527f536f75726365206d75737420626520746865206f7261636c65206f6620746865604482015267081c995c5d595cdd60c21b6064820152608401610b26565b60008181526005602052604080822080546001600160a01b03191690555182917f7cc135e0cebb02c3480ae5d74d377283180a2601f8f644edf7987b009316c63a91a26119888383612036565b50505050565b611996611c13565b6001600160a01b0381166119c057604051631e4fbdf760e01b815260006004820152602401610b26565b6119c981611ea4565b50565b6015546016546040516308da5c3560e21b81526000600482018190526001600160a01b039283166024830152928392839291169063236970d4906044016040805180830381865afa158015611a25573d6000803e3d6000fd5b505050506040513d601f19601f82011682018060405250810190611a49919061324f565b915091506000611a598286612257565b611a63908461302d565b90506000611a716000612280565b3060208201526001600160a01b038816604082015260e0810187905290506000611a9b838861302d565b6016546040516323b872dd60e01b8152336004820152306024820152604481018390529192506001600160a01b0316906323b872dd906064016020604051808303816000875af1158015611af3573d6000803e3d6000fd5b505050506040513d601f19601f82011682018060405250810190611b179190613287565b5060165460155460405163095ea7b360e01b81526001600160a01b0391821660048201526024810184905291169063095ea7b3906044016020604051808303816000875af1158015611b6d573d6000803e3d6000fd5b505050506040513d601f19601f82011682018060405250810190611b919190613287565b5060155460405163aa2165f160e01b81526000916001600160a01b03169063aa2165f190611bc39086906004016132cd565b6020604051808303816000875af1158015611be2573d6000803e3d6000fd5b505050506040513d601f19601f82011682018060405250810190611c069190613081565b9998505050505050505050565b33611c457f9016d09d72d40fdae2fd8ceac6b6234c7706214fd39c1cd1e609a0528c199300546001600160a01b031690565b6001600160a01b031614610b635760405163118cdaa760e01b8152336004820152602401610b26565b611c76612337565b600080516020613594833981519152805460ff191681557f5db9ee0a495bf2e6ff9c91a7834c1ba4fdd244a5e8aa4e537bd38aeae4b073aa335b6040516001600160a01b03909116815260200160405180910390a150565b600380546001600160a01b0319166001600160a01b0392909216919091179055565b611cf8612367565b6119c9816123b0565b611d09612367565b610b636123b8565b600080611d1e6001612280565b6001600160a01b0385811660408381019190915260c0830186905260135490516323b872dd60e01b81523360048201523060248201526044810187905292935016906323b872dd906064016020604051808303816000875af1158015611d88573d6000803e3d6000fd5b505050506040513d601f19601f82011682018060405250810190611dac9190613287565b5060135460155460405163095ea7b360e01b81526001600160a01b0391821660048201526024810186905291169063095ea7b3906044016020604051808303816000875af1158015611e02573d6000803e3d6000fd5b505050506040513d601f19601f82011682018060405250810190611e269190613287565b5060155460405163aa2165f160e01b81526000916001600160a01b03169063aa2165f190611e589085906004016132cd565b6020604051808303816000875af1158015611e77573d6000803e3d6000fd5b505050506040513d601f19601f82011682018060405250810190611e9b9190613081565b95945050505050565b7f9016d09d72d40fdae2fd8ceac6b6234c7706214fd39c1cd1e609a0528c19930080546001600160a01b031981166001600160a01b03848116918217845560405192169182907f8be0079c531659141344cd1fd0a4f28419497f9722a3daafe3b4186f6b6457e090600090a3505050565b611f1d612a65565b611f25612a65565b611f31818686866123d9565b9150505b9392505050565b6080830151611f4b908361241f565b60808301516110ac908261241f565b600454600090611f6b81600161302d565b600455835160408086015160808701515191516000936320214ca360e11b93611fa39386938493923092918a91600191602401613392565b60408051601f198184030181529190526020810180516001600160e01b03166001600160e01b0319909316929092179091529050611fe386838684612436565b9695505050505050565b611ff5612594565b600080516020613594833981519152805460ff191660011781557f62e78cea01bee320cd4e420270b5ea74000d11b0c9f74754ebdbfc544b05a25833611cb0565b818160005b825181101561223757828181518110612056576120566133fa565b6020026020010151600d600083815260200190815260200160002060006101000a8154816001600160a01b0302191690836001600160a01b0316021790555080600f60008584815181106120ac576120ac6133fa565b60200260200101516001600160a01b03166001600160a01b03168152602001908152602001600020819055508181815181106120ea576120ea6133fa565b602002602001015160126000858481518110612108576121086133fa565b60200260200101516001600160a01b03166001600160a01b0316815260200190815260200160002081905550600c5460000361222f57828181518110612150576121506133fa565b6020026020010151600e600083815260200190815260200160002060006101000a8154816001600160a01b0302191690836001600160a01b031602179055508181815181106121a1576121a16133fa565b6020026020010151601160008584815181106121bf576121bf6133fa565b60200260200101516001600160a01b03166001600160a01b03168152602001908152602001600020819055508060106000858481518110612202576122026133fa565b60200260200101516001600160a01b03166001600160a01b03168152602001908152602001600020819055505b60010161203b565b508151600b55600c5460000361224d578151600c555b505042600a555050565b60008262ffffff1660000361226d576000611f35565b611f358262ffffff8516620f42406125c5565b612288612aa5565b60408051610140810182526001600160401b03421681523060208201526013546001600160a01b03908116928201929092526016549091166060820152821515608082015260a0810160008152602001836122e45760006122ef565b68056bc75e2d631000005b68ffffffffffffffffff168152602001836123135768056bc75e2d63100000612316565b60005b68ffffffffffffffffff168152600060208201526040016001905292915050565b6000805160206135948339815191525460ff16610b6357604051638dfc202b60e01b815260040160405180910390fd5b7ff0c57e16840df040f15088dc2f81fe391c3923bec73e23a9662efc9c229c6a0054600160401b900460ff16610b6357604051631afcd79f60e31b815260040160405180910390fd5b611996612367565b6123c0612367565b600080516020613594833981519152805460ff19169055565b6123e1612a65565b6123f18560800151610100612699565b50508284526001600160a01b03821660208501526001600160e01b031981166040850152835b949350505050565b61242c82600383516126fe565b6110ac8282612805565b6040516bffffffffffffffffffffffff193060601b1660208201526034810184905260009060540160408051808303601f1901815282825280516020918201206000818152600590925291812080546001600160a01b0319166001600160a01b038a1617905590925082917fb5e6e01e79f91267dc17b4e6314d5d4d03593d2ceee0fbb452b750bd70ea5af99190a2600254604051630200057560e51b81526001600160a01b0390911690634000aea0906124f990889087908790600401613410565b6020604051808303816000875af1158015612518573d6000803e3d6000fd5b505050506040513d601f19601f8201168201806040525081019061253c9190613287565b6124175760405162461bcd60e51b815260206004820152602360248201527f756e61626c6520746f207472616e73666572416e6443616c6c20746f206f7261604482015262636c6560e81b6064820152608401610b26565b6000805160206135948339815191525460ff1615610b635760405163d93c066560e01b815260040160405180910390fd5b60008080600019858709858702925082811083820303915050806000036125ff578382816125f5576125f5613057565b0492505050611f35565b83811061263057604051630c740aef60e31b8152600481018790526024810186905260448101859052606401610b26565b60008486880960026001871981018816978890046003810283188082028403028082028403028082028403028082028403028082028403029081029092039091026000889003889004909101858311909403939093029303949094049190911702949350505050565b6040805180820190915260608152600060208201526126b9602083613437565b156126e1576126c9602083613437565b6126d49060206131dd565b6126de908361302d565b91505b506020828101829052604080518085526000815290920101905290565b6017816001600160401b031611612722576119888360e0600585901b16831761282c565b60ff816001600160401b03161161275e57612748836018611fe0600586901b161761282c565b50611988836001600160401b0383166001612851565b61ffff816001600160401b03161161279b57612785836019611fe0600586901b161761282c565b50611988836001600160401b0383166002612851565b63ffffffff816001600160401b0316116127da576127c483601a611fe0600586901b161761282c565b50611988836001600160401b0383166004612851565b6127ef83601b611fe0600586901b161761282c565b50611988836001600160401b0383166008612851565b604080518082019091526060815260006020820152611f3583846000015151848551612877565b604080518082019091526060815260006020820152611f358384600001515184612961565b6040805180820190915260608152600060208201526124178485600001515185856129bc565b604080518082019091526060815260006020820152825182111561289a57600080fd5b60208501516128a9838661302d565b11156128dc576128dc856128cc876020015187866128c7919061302d565b612a3d565b6128d7906002613040565b612a4e565b6000808651805187602083010193508088870111156128fb5787860182525b505050602084015b6020841061293b578051825261291a60208361302d565b915061292760208261302d565b90506129346020856131dd565b9350612903565b51815160001960208690036101000a019081169019919091161790525083949350505050565b604080518082019091526060815260006020820152836020015183106129965761299684856020015160026128d79190613040565b83518051602085830101848153508085036129b2576001810182525b5093949350505050565b60408051808201909152606081526000602082015260208501516129e0858461302d565b11156129f4576129f4856128cc868561302d565b60006001612a048461010061352f565b612a0e91906131dd565b9050855183868201018583198251161781525080518487011115612a325783860181525b509495945050505050565b6000818311156108fb5750816107fc565b8151612a5a8383612699565b506119888382612805565b6040805160a0810182526000808252602080830182905282840182905260608084018390528451808601909552845283015290608082015290565b905290565b604080516101408101825260008082526020820181905291810182905260608101829052608081018290529060a0820190815260200160008152602001600081526020016000815260200160006003811115612aa057612aa0612fe0565b80356001600160a01b0381168114610b4e57600080fd5b600060208284031215612b2c57600080fd5b611f3582612b03565b634e487b7160e01b600052604160045260246000fd5b604051601f8201601f191681016001600160401b0381118282101715612b7357612b73612b35565b604052919050565b600082601f830112612b8c57600080fd5b81356001600160401b03811115612ba557612ba5612b35565b612bb8601f8201601f1916602001612b4b565b818152846020838601011115612bcd57600080fd5b816020850160208301376000918101602001919091529392505050565b60008060408385031215612bfd57600080fd5b82356001600160401b0380821115612c1457600080fd5b612c2086838701612b7b565b93506020850135915080821115612c3657600080fd5b50612c4385828601612b7b565b9150509250929050565b60005b83811015612c68578181015183820152602001612c50565b50506000910152565b60008151808452612c89816020860160208601612c4d565b601f01601f19169290920160200192915050565b602081526000611f356020830184612c71565b600060208284031215612cc257600080fd5b5035919050565b60008060408385031215612cdc57600080fd5b82359150612cec60208401612b03565b90509250929050565b60008060408385031215612d0857600080fd5b612d1183612b03565b946020939093013593505050565b803560ff81168114610b4e57600080fd5b600080600080600080600060e0888a031215612d4b57600080fd5b612d5488612b03565b9650612d6260208901612b03565b9550612d7060408901612b03565b9450612d7e60608901612d1f565b9350612d8c60808901612b03565b9250612d9a60a08901612b03565b915060c0880135905092959891949750929550565b600060208284031215612dc157600080fd5b611f3582612d1f565b60006001600160401b03821115612de357612de3612b35565b5060051b60200190565b600082601f830112612dfe57600080fd5b81356020612e13612e0e83612dca565b612b4b565b8083825260208201915060208460051b870101935086841115612e3557600080fd5b602086015b84811015612e5857612e4b81612b03565b8352918301918301612e3a565b509695505050505050565b600082601f830112612e7457600080fd5b81356020612e84612e0e83612dca565b8083825260208201915060208460051b870101935086841115612ea657600080fd5b602086015b84811015612e585780358352918301918301612eab565b60008060408385031215612ed557600080fd5b82356001600160401b0380821115612eec57600080fd5b612ef886838701612ded565b93506020850135915080821115612f0e57600080fd5b50612c4385828601612e63565b60008060408385031215612f2e57600080fd5b612f3783612b03565b9150612cec60208401612d1f565b600080600060608486031215612f5a57600080fd5b8335925060208401356001600160401b0380821115612f7857600080fd5b612f8487838801612ded565b93506040860135915080821115612f9a57600080fd5b50612fa786828701612e63565b9150509250925092565b60008351612fc3818460208801612c4d565b835190830190612fd7818360208801612c4d565b01949350505050565b634e487b7160e01b600052602160045260246000fd5b60006020828403121561300857600080fd5b815160048110611f3557600080fd5b634e487b7160e01b600052601160045260246000fd5b808201808211156107fc576107fc613017565b80820281158282048414176107fc576107fc613017565b634e487b7160e01b600052601260045260246000fd5b60008261307c5761307c613057565b500490565b60006020828403121561309357600080fd5b5051919050565b600181811c908216806130ae57607f821691505b6020821081036108fb57634e487b7160e01b600052602260045260246000fd5b601f8211156110ac576000816000526020600020601f850160051c810160208610156130f75750805b601f850160051c820191505b8181101561311657828155600101613103565b505050505050565b81516001600160401b0381111561313757613137612b35565b61314b81613145845461309a565b846130ce565b602080601f83116001811461318057600084156131685750858301515b600019600386901b1c1916600185901b178555613116565b600085815260208120601f198616915b828110156131af57888601518255948401946001909101908401613190565b50858210156131cd5787850151600019600388901b60f8161c191681555b5050505050600190811b01905550565b818103818111156107fc576107fc613017565b60006040828403121561320257600080fd5b604051604081016001600160401b03828210818311171561322557613225612b35565b816040528451835260208501519150808216821461324257600080fd5b5060208201529392505050565b6000806040838503121561326257600080fd5b82519150602083015162ffffff8116811461327c57600080fd5b809150509250929050565b60006020828403121561329957600080fd5b81518015158114611f3557600080fd5b600281106132b9576132b9612fe0565b9052565b600481106132b9576132b9612fe0565b81516001600160401b03168152610140810160208301516132f960208401826001600160a01b03169052565b50604083015161331460408401826001600160a01b03169052565b50606083015161332f60608401826001600160a01b03169052565b506080830151613343608084018215159052565b5060a083015161335660a08401826132a9565b5060c083015160c083015260e083015160e08301526101008084015181840152506101208084015161338a828501826132bd565b505092915050565b6001600160a01b0389811682526020820189905260408201889052861660608201526001600160e01b03198516608082015260a0810184905260c0810183905261010060e082018190526000906133eb83820185612c71565b9b9a5050505050505050505050565b634e487b7160e01b600052603260045260246000fd5b60018060a01b0384168152826020820152606060408201526000611e9b6060830184612c71565b60008261344657613446613057565b500690565b600181815b8085111561348657816000190482111561346c5761346c613017565b8085161561347957918102915b93841c9390800290613450565b509250929050565b60008261349d575060016107fc565b816134aa575060006107fc565b81600181146134c057600281146134ca576134e6565b60019150506107fc565b60ff8411156134db576134db613017565b50506001821b6107fc565b5060208310610133831016604e8410600b8410161715613509575081810a6107fc565b613513838361344b565b806000190482111561352757613527613017565b029392505050565b6000611f35838361348e56fe68747470733a2f2f6170702e6e65786c6162732e696f2f6170692f616c6c46756e64696e6752617465733f6d756c7469706c7946756e633d31382674696d65734e656746756e643d74727565266172726179733d74727565cd5ed15c6e187e77e9aee88184c21f4f2182ab5827cb3b7e07fbedcd63f03300a2646970667358221220779e6aabc09aff9aaedee3b20182465c51adcdc17c290d51ec5e16a21fa7234164736f6c63430008190033",
    "linkReferences": {}
  },
  "methodIdentifiers": {
    "buyRequestPayedAmountById(uint256)": "8861d235",
    "checkIssuance(uint256)": "2371a4de",
    "completeIssuance(uint256)": "bed45bef",
    "concatenation(string,string)": "0e329357",
    "currentList(uint256)": "9932ba4c",
    "custodianWallet()": "1e106e99",
    "externalJobId()": "a8b54bd4",
    "feeRate()": "978bbdb9",
    "fulfillAssetsData(bytes32,address[],uint256[])": "f14bea20",
    "initialize(address,address,address,uint8,address,address,bytes32)": "45e0ed4f",
    "issuance(uint256)": "248b761e",
    "issuanceIndexTokenPrimaryTotalSupply(uint256)": "b1dd819e",
    "issuanceNonce()": "9dbb9c9e",
    "issuanceRequestId(uint256,address)": "264fa8b9",
    "issuanceRequesterByNonce(uint256)": "94674098",
    "issuanceTokenPrimaryBalance(uint256,address)": "da65925a",
    "issuer()": "1d143848",
    "lastUpdateTime()": "c8f33c91",
    "latestFeeUpdate()": "011ced5f",
    "mockFillAssetsList(address[],uint256[])": "addc70d1",
    "oracleList(uint256)": "239aad0d",
    "oraclePayment()": "0c02e130",
    "owner()": "8da5cb5b",
    "pause()": "8456cb59",
    "paused()": "5c975abb",
    "redemption(uint256)": "4a1dc092",
    "redemptionNonce()": "84d77bb1",
    "redemptionRequestId(uint256,address)": "f513a718",
    "redemptionRequesterByNonce(uint256)": "78032658",
    "redemptionTokenPrimaryBalance(uint256,address)": "a363b9cb",
    "renounceOwnership()": "715018a6",
    "requestAssetsData()": "7ca58c55",
    "sellRequestAssetAmountById(uint256)": "a87f98d2",
    "setCustodianWallet(address)": "9cc0fb5b",
    "setFeeRate(uint8)": "5177942a",
    "setIssuer(address)": "55cc4e57",
    "setOracleInfo(address,bytes32)": "43482fc8",
    "setTokenAddress(address)": "26a4e8d2",
    "setUrl(string,string)": "a73e1cbf",
    "setUsdcAddress(address,uint8)": "eab2a711",
    "token()": "fc0c546a",
    "tokenCurrentListIndex(address)": "914f0cc6",
    "tokenCurrentMarketShare(address)": "0be52713",
    "tokenOracleListIndex(address)": "8c88c10c",
    "tokenOracleMarketShare(address)": "4b3e0b80",
    "totalCurrentList()": "53fd4332",
    "totalOracleList()": "c8599ded",
    "transferOwnership(address)": "f2fde38b",
    "unpause()": "3f4ba83a",
    "usdc()": "3e413bee",
    "usdcDecimals()": "7bf42165"
  },
  "id": 15
}