{"abi":[{"type":"function","name":"burnedTokenAmountByNonce","inputs":[{"name":"","type":"uint256","internalType":"uint256"}],"outputs":[{"name":"","type":"uint256","internalType":"uint256"}],"stateMutability":"view"},{"type":"function","name":"buyRequestPayedAmountById","inputs":[{"name":"","type":"uint256","internalType":"uint256"}],"outputs":[{"name":"","type":"uint256","internalType":"uint256"}],"stateMutability":"view"},{"type":"function","name":"calculateIssuanceFee","inputs":[{"name":"_inputAmount","type":"uint256","internalType":"uint256"}],"outputs":[{"name":"","type":"uint256","internalType":"uint256"}],"stateMutability":"view"},{"type":"function","name":"cancelIssuance","inputs":[{"name":"_issuanceNonce","type":"uint256","internalType":"uint256"}],"outputs":[],"stateMutability":"nonpayable"},{"type":"function","name":"cancelIssuanceComplted","inputs":[{"name":"","type":"uint256","internalType":"uint256"}],"outputs":[{"name":"","type":"bool","internalType":"bool"}],"stateMutability":"view"},{"type":"function","name":"cancelIssuanceRequestId","inputs":[{"name":"","type":"uint256","internalType":"uint256"},{"name":"","type":"address","internalType":"address"}],"outputs":[{"name":"","type":"uint256","internalType":"uint256"}],"stateMutability":"view"},{"type":"function","name":"cancelRedemption","inputs":[{"name":"_redemptionNonce","type":"uint256","internalType":"uint256"}],"outputs":[],"stateMutability":"nonpayable"},{"type":"function","name":"cancelRedemptionComplted","inputs":[{"name":"","type":"uint256","internalType":"uint256"}],"outputs":[{"name":"","type":"bool","internalType":"bool"}],"stateMutability":"view"},{"type":"function","name":"cancelRedemptionRequestId","inputs":[{"name":"","type":"uint256","internalType":"uint256"},{"name":"","type":"address","internalType":"address"}],"outputs":[{"name":"","type":"uint256","internalType":"uint256"}],"stateMutability":"view"},{"type":"function","name":"checkCancelIssuanceStatus","inputs":[{"name":"_issuanceNonce","type":"uint256","internalType":"uint256"}],"outputs":[{"name":"","type":"bool","internalType":"bool"}],"stateMutability":"view"},{"type":"function","name":"checkCancelRedemptionStatus","inputs":[{"name":"_redemptionNonce","type":"uint256","internalType":"uint256"}],"outputs":[{"name":"","type":"bool","internalType":"bool"}],"stateMutability":"view"},{"type":"function","name":"checkFirstRebalanceOrdersStatus","inputs":[{"name":"_rebalanceNonce","type":"uint256","internalType":"uint256"}],"outputs":[{"name":"","type":"bool","internalType":"bool"}],"stateMutability":"view"},{"type":"function","name":"checkIssuanceOrdersStatus","inputs":[{"name":"_issuanceNonce","type":"uint256","internalType":"uint256"}],"outputs":[{"name":"","type":"bool","internalType":"bool"}],"stateMutability":"view"},{"type":"function","name":"checkRedemptionOrdersStatus","inputs":[{"name":"_redemptionNonce","type":"uint256","internalType":"uint256"}],"outputs":[{"name":"","type":"bool","internalType":"bool"}],"stateMutability":"view"},{"type":"function","name":"coaByIssuanceNonce","inputs":[{"name":"","type":"uint256","internalType":"uint256"}],"outputs":[{"name":"","type":"address","internalType":"address"}],"stateMutability":"view"},{"type":"function","name":"coaByRedemptionNonce","inputs":[{"name":"","type":"uint256","internalType":"uint256"}],"outputs":[{"name":"","type":"address","internalType":"address"}],"stateMutability":"view"},{"type":"function","name":"completeCancelIssuance","inputs":[{"name":"_issuanceNonce","type":"uint256","internalType":"uint256"}],"outputs":[],"stateMutability":"nonpayable"},{"type":"function","name":"completeCancelRedemption","inputs":[{"name":"_redemptionNonce","type":"uint256","internalType":"uint256"}],"outputs":[],"stateMutability":"nonpayable"},{"type":"function","name":"completeIssuance","inputs":[{"name":"_issuanceNonce","type":"uint256","internalType":"uint256"}],"outputs":[],"stateMutability":"nonpayable"},{"type":"function","name":"completeRedemption","inputs":[{"name":"_redemptionNonce","type":"uint256","internalType":"uint256"}],"outputs":[],"stateMutability":"nonpayable"},{"type":"function","name":"concatenation","inputs":[{"name":"a","type":"string","internalType":"string"},{"name":"b","type":"string","internalType":"string"}],"outputs":[{"name":"","type":"string","internalType":"string"}],"stateMutability":"pure"},{"type":"function","name":"currentList","inputs":[{"name":"","type":"uint256","internalType":"uint256"}],"outputs":[{"name":"","type":"address","internalType":"address"}],"stateMutability":"view"},{"type":"function","name":"custodianWallet","inputs":[],"outputs":[{"name":"","type":"address","internalType":"address"}],"stateMutability":"view"},{"type":"function","name":"externalJobId","inputs":[],"outputs":[{"name":"","type":"bytes32","internalType":"bytes32"}],"stateMutability":"view"},{"type":"function","name":"feeRate","inputs":[],"outputs":[{"name":"","type":"uint8","internalType":"uint8"}],"stateMutability":"view"},{"type":"function","name":"firstRebalanceAction","inputs":[],"outputs":[{"name":"","type":"uint256","internalType":"uint256"}],"stateMutability":"nonpayable"},{"type":"function","name":"fulfillAssetsData","inputs":[{"name":"requestId","type":"bytes32","internalType":"bytes32"},{"name":"_tokens","type":"address[]","internalType":"address[]"},{"name":"_marketShares","type":"uint256[]","internalType":"uint256[]"}],"outputs":[],"stateMutability":"nonpayable"},{"type":"function","name":"getOrderInstanceById","inputs":[{"name":"id","type":"uint256","internalType":"uint256"}],"outputs":[{"name":"","type":"tuple","internalType":"struct IOrderProcessor.Order","components":[{"name":"requestTimestamp","type":"uint64","internalType":"uint64"},{"name":"recipient","type":"address","internalType":"address"},{"name":"assetToken","type":"address","internalType":"address"},{"name":"paymentToken","type":"address","internalType":"address"},{"name":"sell","type":"bool","internalType":"bool"},{"name":"orderType","type":"uint8","internalType":"enum IOrderProcessor.OrderType"},{"name":"assetTokenQuantity","type":"uint256","internalType":"uint256"},{"name":"paymentTokenQuantity","type":"uint256","internalType":"uint256"},{"name":"price","type":"uint256","internalType":"uint256"},{"name":"tif","type":"uint8","internalType":"enum IOrderProcessor.TIF"}]}],"stateMutability":"view"},{"type":"function","name":"getPortfolioValue","inputs":[],"outputs":[{"name":"","type":"uint256","internalType":"uint256"}],"stateMutability":"view"},{"type":"function","name":"getVaultDshareBalance","inputs":[{"name":"_token","type":"address","internalType":"address"}],"outputs":[{"name":"","type":"uint256","internalType":"uint256"}],"stateMutability":"view"},{"type":"function","name":"getVaultDshareValue","inputs":[{"name":"_token","type":"address","internalType":"address"}],"outputs":[{"name":"","type":"uint256","internalType":"uint256"}],"stateMutability":"view"},{"type":"function","name":"initialize","inputs":[{"name":"_issuer","type":"address","internalType":"address"},{"name":"_token","type":"address","internalType":"address"},{"name":"_vault","type":"address","internalType":"address"},{"name":"_usdc","type":"address","internalType":"address"},{"name":"_usdcDecimals","type":"uint8","internalType":"uint8"},{"name":"_chainlinkToken","type":"address","internalType":"address"},{"name":"_oracleAddress","type":"address","internalType":"address"},{"name":"_externalJobId","type":"bytes32","internalType":"bytes32"},{"name":"_isMainnet","type":"bool","internalType":"bool"}],"outputs":[],"stateMutability":"nonpayable"},{"type":"function","name":"isIssuanceOrderActive","inputs":[{"name":"_issuanceNonce","type":"uint256","internalType":"uint256"}],"outputs":[{"name":"","type":"bool","internalType":"bool"}],"stateMutability":"view"},{"type":"function","name":"isMainnet","inputs":[],"outputs":[{"name":"","type":"bool","internalType":"bool"}],"stateMutability":"view"},{"type":"function","name":"isRedemptionOrderActive","inputs":[{"name":"_redemptionNonce","type":"uint256","internalType":"uint256"}],"outputs":[{"name":"","type":"bool","internalType":"bool"}],"stateMutability":"view"},{"type":"function","name":"issuance","inputs":[{"name":"_inputAmount","type":"uint256","internalType":"uint256"}],"outputs":[{"name":"","type":"uint256","internalType":"uint256"}],"stateMutability":"nonpayable"},{"type":"function","name":"issuanceIndexTokenPrimaryTotalSupply","inputs":[{"name":"","type":"uint256","internalType":"uint256"}],"outputs":[{"name":"","type":"uint256","internalType":"uint256"}],"stateMutability":"view"},{"type":"function","name":"issuanceIsCompleted","inputs":[{"name":"","type":"uint256","internalType":"uint256"}],"outputs":[{"name":"","type":"bool","internalType":"bool"}],"stateMutability":"view"},{"type":"function","name":"issuanceNonce","inputs":[],"outputs":[{"name":"","type":"uint256","internalType":"uint256"}],"stateMutability":"view"},{"type":"function","name":"issuanceRequestId","inputs":[{"name":"","type":"uint256","internalType":"uint256"},{"name":"","type":"address","internalType":"address"}],"outputs":[{"name":"","type":"uint256","internalType":"uint256"}],"stateMutability":"view"},{"type":"function","name":"issuanceRequesterByNonce","inputs":[{"name":"","type":"uint256","internalType":"uint256"}],"outputs":[{"name":"","type":"address","internalType":"address"}],"stateMutability":"view"},{"type":"function","name":"issuanceTokenPrimaryBalance","inputs":[{"name":"","type":"uint256","internalType":"uint256"},{"name":"","type":"address","internalType":"address"}],"outputs":[{"name":"","type":"uint256","internalType":"uint256"}],"stateMutability":"view"},{"type":"function","name":"issuer","inputs":[],"outputs":[{"name":"","type":"address","internalType":"contract IOrderProcessor"}],"stateMutability":"view"},{"type":"function","name":"lastUpdateTime","inputs":[],"outputs":[{"name":"","type":"uint256","internalType":"uint256"}],"stateMutability":"view"},{"type":"function","name":"latestFeeUpdate","inputs":[],"outputs":[{"name":"","type":"uint256","internalType":"uint256"}],"stateMutability":"view"},{"type":"function","name":"mockFillAssetsList","inputs":[{"name":"_tokens","type":"address[]","internalType":"address[]"},{"name":"_marketShares","type":"uint256[]","internalType":"uint256[]"}],"outputs":[],"stateMutability":"nonpayable"},{"type":"function","name":"oracleList","inputs":[{"name":"","type":"uint256","internalType":"uint256"}],"outputs":[{"name":"","type":"address","internalType":"address"}],"stateMutability":"view"},{"type":"function","name":"oraclePayment","inputs":[],"outputs":[{"name":"","type":"uint256","internalType":"uint256"}],"stateMutability":"view"},{"type":"function","name":"orderInstanceById","inputs":[{"name":"","type":"uint256","internalType":"uint256"}],"outputs":[{"name":"requestTimestamp","type":"uint64","internalType":"uint64"},{"name":"recipient","type":"address","internalType":"address"},{"name":"assetToken","type":"address","internalType":"address"},{"name":"paymentToken","type":"address","internalType":"address"},{"name":"sell","type":"bool","internalType":"bool"},{"name":"orderType","type":"uint8","internalType":"enum IOrderProcessor.OrderType"},{"name":"assetTokenQuantity","type":"uint256","internalType":"uint256"},{"name":"paymentTokenQuantity","type":"uint256","internalType":"uint256"},{"name":"price","type":"uint256","internalType":"uint256"},{"name":"tif","type":"uint8","internalType":"enum IOrderProcessor.TIF"}],"stateMutability":"view"},{"type":"function","name":"owner","inputs":[],"outputs":[{"name":"","type":"address","internalType":"address"}],"stateMutability":"view"},{"type":"function","name":"pause","inputs":[],"outputs":[],"stateMutability":"nonpayable"},{"type":"function","name":"paused","inputs":[],"outputs":[{"name":"","type":"bool","internalType":"bool"}],"stateMutability":"view"},{"type":"function","name":"portfolioValueByNonce","inputs":[{"name":"","type":"uint256","internalType":"uint256"}],"outputs":[{"name":"","type":"uint256","internalType":"uint256"}],"stateMutability":"view"},{"type":"function","name":"priceFeedByTokenAddress","inputs":[{"name":"","type":"address","internalType":"address"}],"outputs":[{"name":"","type":"address","internalType":"address"}],"stateMutability":"view"},{"type":"function","name":"priceInWei","inputs":[{"name":"_tokenAddress","type":"address","internalType":"address"}],"outputs":[{"name":"","type":"uint256","internalType":"uint256"}],"stateMutability":"view"},{"type":"function","name":"rebalanceBuyPayedAmountById","inputs":[{"name":"","type":"uint256","internalType":"uint256"}],"outputs":[{"name":"","type":"uint256","internalType":"uint256"}],"stateMutability":"view"},{"type":"function","name":"rebalanceNonce","inputs":[],"outputs":[{"name":"","type":"uint256","internalType":"uint256"}],"stateMutability":"view"},{"type":"function","name":"rebalanceRequestId","inputs":[{"name":"","type":"uint256","internalType":"uint256"},{"name":"","type":"address","internalType":"address"}],"outputs":[{"name":"","type":"uint256","internalType":"uint256"}],"stateMutability":"view"},{"type":"function","name":"rebalanceSellAssetAmountById","inputs":[{"name":"","type":"uint256","internalType":"uint256"}],"outputs":[{"name":"","type":"uint256","internalType":"uint256"}],"stateMutability":"view"},{"type":"function","name":"redemption","inputs":[{"name":"_inputAmount","type":"uint256","internalType":"uint256"}],"outputs":[{"name":"","type":"uint256","internalType":"uint256"}],"stateMutability":"nonpayable"},{"type":"function","name":"redemptionIndexTokenPrimaryTotalSupply","inputs":[{"name":"","type":"uint256","internalType":"uint256"}],"outputs":[{"name":"","type":"uint256","internalType":"uint256"}],"stateMutability":"view"},{"type":"function","name":"redemptionIsCompleted","inputs":[{"name":"","type":"uint256","internalType":"uint256"}],"outputs":[{"name":"","type":"bool","internalType":"bool"}],"stateMutability":"view"},{"type":"function","name":"redemptionNonce","inputs":[],"outputs":[{"name":"","type":"uint256","internalType":"uint256"}],"stateMutability":"view"},{"type":"function","name":"redemptionRequestId","inputs":[{"name":"","type":"uint256","internalType":"uint256"},{"name":"","type":"address","internalType":"address"}],"outputs":[{"name":"","type":"uint256","internalType":"uint256"}],"stateMutability":"view"},{"type":"function","name":"redemptionRequesterByNonce","inputs":[{"name":"","type":"uint256","internalType":"uint256"}],"outputs":[{"name":"","type":"address","internalType":"address"}],"stateMutability":"view"},{"type":"function","name":"redemptionTokenPrimaryBalance","inputs":[{"name":"","type":"uint256","internalType":"uint256"},{"name":"","type":"address","internalType":"address"}],"outputs":[{"name":"","type":"uint256","internalType":"uint256"}],"stateMutability":"view"},{"type":"function","name":"renounceOwnership","inputs":[],"outputs":[],"stateMutability":"nonpayable"},{"type":"function","name":"requestAssetsData","inputs":[],"outputs":[{"name":"","type":"bytes32","internalType":"bytes32"}],"stateMutability":"nonpayable"},{"type":"function","name":"secondRebalanceAction","inputs":[],"outputs":[],"stateMutability":"nonpayable"},{"type":"function","name":"sellRequestAssetAmountById","inputs":[{"name":"","type":"uint256","internalType":"uint256"}],"outputs":[{"name":"","type":"uint256","internalType":"uint256"}],"stateMutability":"view"},{"type":"function","name":"setCustodianWallet","inputs":[{"name":"_custodianWallet","type":"address","internalType":"address"}],"outputs":[{"name":"","type":"bool","internalType":"bool"}],"stateMutability":"nonpayable"},{"type":"function","name":"setFeeRate","inputs":[{"name":"_newFee","type":"uint8","internalType":"uint8"}],"outputs":[],"stateMutability":"nonpayable"},{"type":"function","name":"setIssuer","inputs":[{"name":"_issuer","type":"address","internalType":"address"}],"outputs":[{"name":"","type":"bool","internalType":"bool"}],"stateMutability":"nonpayable"},{"type":"function","name":"setOracleInfo","inputs":[{"name":"_oracleAddress","type":"address","internalType":"address"},{"name":"_externalJobId","type":"bytes32","internalType":"bytes32"}],"outputs":[],"stateMutability":"nonpayable"},{"type":"function","name":"setPriceFeedAddresses","inputs":[{"name":"_dShares","type":"address[]","internalType":"address[]"},{"name":"_priceFeedAddresses","type":"address[]","internalType":"address[]"}],"outputs":[],"stateMutability":"nonpayable"},{"type":"function","name":"setTokenAddress","inputs":[{"name":"_token","type":"address","internalType":"address"}],"outputs":[{"name":"","type":"bool","internalType":"bool"}],"stateMutability":"nonpayable"},{"type":"function","name":"setUrl","inputs":[{"name":"_beforeAddress","type":"string","internalType":"string"},{"name":"_afterAddress","type":"string","internalType":"string"}],"outputs":[],"stateMutability":"nonpayable"},{"type":"function","name":"setUsdcAddress","inputs":[{"name":"_usdc","type":"address","internalType":"address"},{"name":"_usdcDecimals","type":"uint8","internalType":"uint8"}],"outputs":[{"name":"","type":"bool","internalType":"bool"}],"stateMutability":"nonpayable"},{"type":"function","name":"setWrappedDShareAddresses","inputs":[{"name":"_dShares","type":"address[]","internalType":"address[]"},{"name":"_wrappedDShares","type":"address[]","internalType":"address[]"}],"outputs":[],"stateMutability":"nonpayable"},{"type":"function","name":"token","inputs":[],"outputs":[{"name":"","type":"address","internalType":"contract IndexToken"}],"stateMutability":"view"},{"type":"function","name":"tokenCurrentListIndex","inputs":[{"name":"","type":"address","internalType":"address"}],"outputs":[{"name":"","type":"uint256","internalType":"uint256"}],"stateMutability":"view"},{"type":"function","name":"tokenCurrentMarketShare","inputs":[{"name":"","type":"address","internalType":"address"}],"outputs":[{"name":"","type":"uint256","internalType":"uint256"}],"stateMutability":"view"},{"type":"function","name":"tokenOracleListIndex","inputs":[{"name":"","type":"address","internalType":"address"}],"outputs":[{"name":"","type":"uint256","internalType":"uint256"}],"stateMutability":"view"},{"type":"function","name":"tokenOracleMarketShare","inputs":[{"name":"","type":"address","internalType":"address"}],"outputs":[{"name":"","type":"uint256","internalType":"uint256"}],"stateMutability":"view"},{"type":"function","name":"tokenValueByNonce","inputs":[{"name":"","type":"uint256","internalType":"uint256"},{"name":"","type":"address","internalType":"address"}],"outputs":[{"name":"","type":"uint256","internalType":"uint256"}],"stateMutability":"view"},{"type":"function","name":"totalCurrentList","inputs":[],"outputs":[{"name":"","type":"uint256","internalType":"uint256"}],"stateMutability":"view"},{"type":"function","name":"totalOracleList","inputs":[],"outputs":[{"name":"","type":"uint256","internalType":"uint256"}],"stateMutability":"view"},{"type":"function","name":"transferOwnership","inputs":[{"name":"newOwner","type":"address","internalType":"address"}],"outputs":[],"stateMutability":"nonpayable"},{"type":"function","name":"unpause","inputs":[],"outputs":[],"stateMutability":"nonpayable"},{"type":"function","name":"usdc","inputs":[],"outputs":[{"name":"","type":"address","internalType":"address"}],"stateMutability":"view"},{"type":"function","name":"usdcDecimals","inputs":[],"outputs":[{"name":"","type":"uint8","internalType":"uint8"}],"stateMutability":"view"},{"type":"function","name":"vault","inputs":[],"outputs":[{"name":"","type":"address","internalType":"contract NexVault"}],"stateMutability":"view"},{"type":"function","name":"wrappedDshareAddress","inputs":[{"name":"","type":"address","internalType":"address"}],"outputs":[{"name":"","type":"address","internalType":"address"}],"stateMutability":"view"},{"type":"event","name":"ChainlinkCancelled","inputs":[{"name":"id","type":"bytes32","indexed":true,"internalType":"bytes32"}],"anonymous":false},{"type":"event","name":"ChainlinkFulfilled","inputs":[{"name":"id","type":"bytes32","indexed":true,"internalType":"bytes32"}],"anonymous":false},{"type":"event","name":"ChainlinkRequested","inputs":[{"name":"id","type":"bytes32","indexed":true,"internalType":"bytes32"}],"anonymous":false},{"type":"event","name":"Initialized","inputs":[{"name":"version","type":"uint64","indexed":false,"internalType":"uint64"}],"anonymous":false},{"type":"event","name":"OwnershipTransferred","inputs":[{"name":"previousOwner","type":"address","indexed":true,"internalType":"address"},{"name":"newOwner","type":"address","indexed":true,"internalType":"address"}],"anonymous":false},{"type":"event","name":"Paused","inputs":[{"name":"account","type":"address","indexed":false,"internalType":"address"}],"anonymous":false},{"type":"event","name":"Unpaused","inputs":[{"name":"account","type":"address","indexed":false,"internalType":"address"}],"anonymous":false},{"type":"error","name":"EnforcedPause","inputs":[]},{"type":"error","name":"ExpectedPause","inputs":[]},{"type":"error","name":"InvalidInitialization","inputs":[]},{"type":"error","name":"NotInitializing","inputs":[]},{"type":"error","name":"OwnableInvalidOwner","inputs":[{"name":"owner","type":"address","internalType":"address"}]},{"type":"error","name":"OwnableUnauthorizedAccount","inputs":[{"name":"account","type":"address","internalType":"address"}]},{"type":"error","name":"PRBMath_MulDiv_Overflow","inputs":[{"name":"x","type":"uint256","internalType":"uint256"},{"name":"y","type":"uint256","internalType":"uint256"},{"name":"denominator","type":"uint256","internalType":"uint256"}]}],"bytecode":{"object":"0x6080604052348015600f57600080fd5b50616c2c8061001f6000396000f3fe608060405234801561001057600080fd5b506004361061050f5760003560e01c80638c221899116102a4578063b1dd819e11610172578063da65925a116100d9578063f14bea2011610092578063f14bea2014610e13578063f1f31d6614610e26578063f2fde38b14610e46578063f513a71814610e59578063fbfa77cf14610e84578063fc0c546a14610e9757600080fd5b8063da65925a14610d86578063daf1c17d14610db1578063e19eefbe14610dd1578063eab2a71114610de4578063edca4f5e14610df7578063efdf505314610e0057600080fd5b8063b75f4c2c1161012b578063b75f4c2c14610d1d578063bb0498de14610d46578063bed45bef14610d4e578063c8599ded14610d61578063c8f33c9114610d6a578063d57e049314610d7357600080fd5b8063b1dd819e14610c81578063b316e7fd14610ca1578063b411dc4114610ccc578063b46840f914610cdf578063b592662a14610d02578063b59c360814610d1557600080fd5b80639cc0fb5b11610216578063a87f98d2116101cf578063a87f98d214610bf2578063a8b54bd414610c12578063ab7820b214610c1b578063ab935bb214610c3b578063addc70d114610c5b578063b0e1213414610c6e57600080fd5b80639cc0fb5b14610b625780639dbb9c9e14610b75578063a08d7bd614610b7e578063a363b9cb14610b91578063a73e1cbf14610bbc578063a84ebc1714610bcf57600080fd5b8063914f0cc611610268578063914f0cc614610ab65780639219e51014610ad657806392318df414610ae95780639467409814610afc578063978bbdb914610b255780639932ba4c14610b3957600080fd5b80638c22189914610a085780638c88c10c14610a335780638d6983c714610a535780638da5cb5b14610a735780639026544f14610aa357600080fd5b806343482fc8116103e1578063715018a6116103535780637ca58c551161030c5780637ca58c55146109a9578063807ca237146109b1578063840ecba0146109c45780638456cb59146109d757806384d77bb1146109df5780638861d235146109e857600080fd5b8063715018a6146108e157806375a3cb57146108e957806376529fdf1461091457806378032658146109375780637bf42165146109605780637bfa27f21461098657600080fd5b806353fd4332116103a557806353fd43321461087457806355cc4e571461087d57806357b61bc3146108905780635c975abb146108a3578063631c8385146108bb5780636839a095146108ce57600080fd5b806343482fc81461080857806346d66a2c1461081b5780634a1dc0921461082e5780634b3e0b80146108415780635177942a1461086157600080fd5b80632343acb41161048557806331c990101161043e57806331c990101461079a57806332f53f3c146107c35780633e413bee146107cb5780633f4ba83a146107de5780633fac0922146107e857806342faac05146107fb57600080fd5b80632343acb4146106ed578063239aad0d14610700578063248b761e14610729578063264fa8b91461073c57806326a4e8d2146107675780632badae5d1461077a57600080fd5b80630be52713116104d75780630be52713146105e65780630c02e130146106065780630e3293571461060f57806315e666a21461062f5780631d143848146106c75780631e106e99146106da57600080fd5b8063011ced5f1461051457806302e80f711461053057806308dc4b0c14610559578063092755e01461059a5780630b1a4918146105c3575b600080fd5b61051d60375481565b6040519081526020015b60405180910390f35b61051d61053e366004615bf1565b60208080526000928352604080842090915290825290205481565b610582610567366004615c1d565b6034602052600090815260409020546001600160a01b031681565b6040516001600160a01b039091168152602001610527565b6105826105a8366004615c1d565b600f602052600090815260409020546001600160a01b031681565b6105d66105d1366004615c38565b610eaa565b6040519015158152602001610527565b61051d6105f4366004615c1d565b60126020526000908152604090205481565b61051d60095481565b61062261061d366004615d06565b610f8b565b6040516105279190615db9565b6106b161063d366004615c38565b60336020526000908152604090208054600182015460028301546003840154600485015460058601546006909601546001600160401b038616966001600160a01b03600160401b9097048716969586169585169460ff600160a01b8204811695600160a81b9092048116949193919291168a565b6040516105279a99989796959493929190615e06565b601a54610582906001600160a01b031681565b601954610582906001600160a01b031681565b6105d66106fb366004615c38565b610fb8565b61058261070e366004615c38565b600d602052600090815260409020546001600160a01b031681565b61051d610737366004615c38565b6110ae565b61051d61074a366004615bf1565b602260209081526000928352604080842090915290825290205481565b6105d6610775366004615c1d565b6114a4565b61051d610788366004615c38565b60356020526000908152604090205481565b6105826107a8366004615c38565b602f602052600090815260409020546001600160a01b031681565b61051d611525565b601b54610582906001600160a01b031681565b6107e6611703565b005b6105d66107f6366004615c38565b611715565b601f546105d69060ff1681565b6107e6610816366004615e7b565b6117f2565b6107e6610829366004615c38565b611809565b61051d61083c366004615c38565b611d11565b61051d61084f366004615c1d565b60136020526000908152604090205481565b6107e661086f366004615eb4565b612161565b61051d600c5481565b6105d661088b366004615c1d565b6122ab565b6107e661089e366004615f6a565b612329565b600080516020616bd78339815191525460ff166105d6565b6105d66108c9366004615c38565b6123ff565b61051d6108dc366004615c1d565b6126b1565b6107e6612840565b61051d6108f7366004615bf1565b602460209081526000928352604080842090915290825290205481565b6105d6610922366004615c38565b60156020526000908152604090205460ff1681565b610582610945366004615c38565b602e602052600090815260409020546001600160a01b031681565b601b5461097490600160a01b900460ff1681565b60405160ff9091168152602001610527565b6105d6610994366004615c38565b60316020526000908152604090205460ff1681565b61051d612852565b6107e66109bf366004615c38565b612a92565b6107e66109d2366004615c38565b612c2d565b6107e6612dfe565b61051d601d5481565b61051d6109f6366004615c38565b60256020526000908152604090205481565b61051d610a16366004615bf1565b602160209081526000928352604080842090915290825290205481565b61051d610a41366004615c1d565b60106020526000908152604090205481565b61051d610a61366004615c38565b60286020526000908152604090205481565b7f9016d09d72d40fdae2fd8ceac6b6234c7706214fd39c1cd1e609a0528c199300546001600160a01b0316610582565b6107e6610ab1366004615c38565b612e0e565b61051d610ac4366004615c1d565b60116020526000908152604090205481565b6107e6610ae4366004615c38565b6130c7565b6105d6610af7366004615c38565b613489565b610582610b0a366004615c38565b602d602052600090815260409020546001600160a01b031681565b601b5461097490600160a81b900460ff1681565b610582610b47366004615c38565b600e602052600090815260409020546001600160a01b031681565b6105d6610b70366004615c1d565b61357d565b61051d601c5481565b61051d610b8c366004615c1d565b613602565b61051d610b9f366004615bf1565b602a60209081526000928352604080842090915290825290205481565b6107e6610bca366004615d06565b6136fd565b6105d6610bdd366004615c38565b60146020526000908152604090205460ff1681565b61051d610c00366004615c38565b60266020526000908152604090205481565b61051d60085481565b61051d610c29366004615c38565b60166020526000908152604090205481565b61051d610c49366004615c38565b60276020526000908152604090205481565b6107e6610c69366004616022565b61371e565b6105d6610c7c366004615c38565b613734565b61051d610c8f366004615c38565b602b6020526000908152604090205481565b61051d610caf366004615bf1565b603660209081526000928352604080842090915290825290205481565b6107e6610cda366004615f6a565b61380c565b6105d6610ced366004615c38565b60326020526000908152604090205460ff1681565b6105d6610d10366004615c38565b6138dd565b6107e6613b91565b610582610d2b366004615c38565b6030602052600090815260409020546001600160a01b031681565b61051d613cb5565b6107e6610d5c366004615c38565b613cfd565b61051d600b5481565b61051d600a5481565b6107e6610d81366004616089565b614227565b61051d610d94366004615bf1565b602960209081526000928352604080842090915290825290205481565b61051d610dbf366004615c38565b602c6020526000908152604090205481565b61051d610ddf366004615c38565b6144b5565b6105d6610df2366004616130565b6145cc565b61051d601e5481565b61051d610e0e366004615c1d565b614655565b6107e6610e21366004616167565b61468d565b610e39610e34366004615c38565b614753565b60405161052791906161d3565b6107e6610e54366004615c1d565b614859565b61051d610e67366004615bf1565b602360209081526000928352604080842090915290825290205481565b601854610582906001600160a01b031681565b601754610582906001600160a01b031681565b6000805b600c54811015610f82576000818152600e6020908152604080832054868452602383528184206001600160a01b0391821680865293529281902054601a5491516322fd455760e11b81526004810182905292939092600192909116906345fa8aae90602401602060405180830381865afa158015610f30573d6000803e3d6000fd5b505050506040513d601f19601f82011682018060405250810190610f549190616298565b6003811115610f6557610f65615dcc565b60ff1603610f7857506001949350505050565b5050600101610eae565b50600092915050565b60608282604051602001610fa09291906162b9565b60405160208183030381529060405290505b92915050565b60008060005b600c54811015611095576000818152600e6020908152604080832054878452602283528184206001600160a01b0391821680865293529281902054601a5491516322fd455760e11b81526004810182905292939092600292909116906345fa8aae90602401602060405180830381865afa158015611040573d6000803e3d6000fd5b505050506040513d601f19601f820116820180604052508101906110649190616298565b600381111561107557611075615dcc565b60ff160361108b576110886001856162fe565b93505b5050600101610fbe565b50600c548103610f825750600192915050565b50919050565b6000806110ba836144b5565b905060006110c884836162fe565b601b546040516323b872dd60e01b81529192506001600160a01b0316906323b872dd906110fd90339030908690600401616311565b6020604051808303816000875af115801561111c573d6000803e3d6000fd5b505050506040513d601f19601f820116820180604052508101906111409190616335565b50601b54601a5460405163095ea7b360e01b81526001600160a01b0391821660048201526024810184905291169063095ea7b3906044016020604051808303816000875af1158015611196573d6000803e3d6000fd5b505050506040513d601f19601f820116820180604052508101906111ba9190616335565b506001601c60008282546111ce91906162fe565b925050819055506000306040516111e490615b2f565b6001600160a01b039091168152602001604051809103906000f080158015611210573d6000803e3d6000fd5b50601c546000908152602f6020526040812080546001600160a01b0319166001600160a01b0384161790559091505b600c54811015611497576000818152600e60209081526040808320546001600160a01b0316808452601290925282205490919068056bc75e2d6310000090611287908a616352565b611291919061637f565b905060006112a0838387614897565b6000818152602560209081526040808320869055601c80548452602283528184206001600160a01b0389811680875291855283862087905591548552602d845282852080546001600160a01b031916331790558452600f9092528083205460185491516370a0823160e01b81529183166004830152939450919216906370a0823190602401602060405180830381865afa158015611342573d6000803e3d6000fd5b505050506040513d601f19601f820116820180604052508101906113669190616393565b6001600160a01b038581166000908152600f602052604080822054905163266d6a8360e11b8152600481018590529394509092911690634cdad50690602401602060405180830381865afa1580156113c2573d6000803e3d6000fd5b505050506040513d601f19601f820116820180604052508101906113e69190616393565b601c5460009081526029602090815260408083206001600160a01b03808b1685529083529281902084905560175481516318160ddd60e01b81529151949550909216926318160ddd9260048082019392918290030181865afa158015611450573d6000803e3d6000fd5b505050506040513d601f19601f820116820180604052508101906114749190616393565b601c546000908152602b602052604090205550506001909301925061123f915050565b5050601c54949350505050565b60006114ae614b10565b6001600160a01b0382166115015760405162461bcd60e51b8152602060048201526015602482015274696e76616c696420746f6b656e206164647265737360581b60448201526064015b60405180910390fd5b50601780546001600160a01b0319166001600160a01b03831617905560015b919050565b600061152f614b10565b6001601e600082825461154291906162fe565b9091555060009050805b600c548110156115ca576000818152600e60205260408120546001600160a01b031690611578826126b1565b9050600061158583614655565b601e5460009081526036602090815260408083206001600160a01b0388168452909152902081905590506115b981866162fe565b9450506001909201915061154c9050565b50601e5460009081526035602052604081208290555b600c548110156116f9576000818152600e6020908152604080832054601e548452603683528184206001600160a01b039091168085529252822054909161162683613602565b905060008561163e8468056bc75e2d63100000616352565b611648919061637f565b6001600160a01b0385166000908152601360205260409020549091508111156116e9576001600160a01b03841660009081526013602052604081205482906116909085616352565b61169a919061637f565b6116a490846163ac565b905060006116b3868330614b6b565b601e5460009081526024602090815260408083206001600160a01b038b1684528252808320849055928252602890522091909155505b5050600190920191506115e09050565b50601e5491505090565b61170b614b10565b611713614e9f565b565b60008060005b600c54811015611095576000818152600e6020908152604080832054878452602383528184206001600160a01b0391821680865293529281902054601a5491516322fd455760e11b81526004810182905292939092600292909116906345fa8aae90602401602060405180830381865afa15801561179d573d6000803e3d6000fd5b505050506040513d601f19601f820116820180604052508101906117c19190616298565b60038111156117d2576117d2615dcc565b60ff16036117e8576117e56001856162fe565b93505b505060010161171b565b6117fa614b10565b61180382614eff565b60085550565b60008181526014602052604090205460ff16156118605760405162461bcd60e51b8152602060048201526015602482015274125cdcdd585b98d9481a5cc818dbdb5c1b195d1959605a1b60448201526064016114f8565b6000818152602d6020908152604080832054602f909252909120546001600160a01b0391821691163382146118e65760405162461bcd60e51b815260206004820152602660248201527f4f6e6c79207265717565737465722063616e2063616e63656c207468652069736044820152657375616e636560d01b60648201526084016114f8565b60005b600c54811015611d0b576000818152600e6020908152604080832054878452602283528184206001600160a01b03918216808652908452828520548086526033855283862084516101408101865281546001600160401b0381168252600160401b90048516968101969096526001818101548516958701959095526002810154938416606087015260ff600160a01b85048116151560808801529296919591949193909260a0850192600160a81b90920416908111156119ab576119ab615dcc565b60018111156119bc576119bc615dcc565b815260038281015460208301526004830154604083015260058301546060830152600683015460809092019160ff16908111156119fb576119fb615dcc565b6003811115611a0c57611a0c615dcc565b905250601a546040516322fd455760e11b8152600481018590529192506001916001600160a01b03909116906345fa8aae90602401602060405180830381865afa158015611a5e573d6000803e3d6000fd5b505050506040513d601f19601f82011682018060405250810190611a829190616298565b6003811115611a9357611a93615dcc565b60ff1603611afe57601a546040516339a0e8b560e21b8152600481018490526001600160a01b039091169063e683a2d490602401600060405180830381600087803b158015611ae157600080fd5b505af1158015611af5573d6000803e3d6000fd5b50505050611d00565b601a546040516322fd455760e11b8152600481018490526002916001600160a01b0316906345fa8aae90602401602060405180830381865afa158015611b48573d6000803e3d6000fd5b505050506040513d601f19601f82011682018060405250810190611b6c9190616298565b6003811115611b7d57611b7d615dcc565b60ff161480611bf757506040516370a0823160e01b81526001600160a01b038681166004830152600091908516906370a0823190602401602060405180830381865afa158015611bd1573d6000803e3d6000fd5b505050506040513d601f19601f82011682018060405250810190611bf59190616393565b115b15611d00576040516370a0823160e01b81526001600160a01b038681166004830152600091908516906370a0823190602401602060405180830381865afa158015611c46573d6000803e3d6000fd5b505050506040513d601f19601f82011682018060405250810190611c6a9190616393565b6040516317ee7de960e11b81529091506001600160a01b03871690632fdcfbd290611c9d90879030908690600401616311565b600060405180830381600087803b158015611cb757600080fd5b505af1158015611ccb573d6000803e3d6000fd5b505050506000611cdc858389614b6b565b60008a8152602080805260408083206001600160a01b038a16845290915290205550505b5050506001016118e9565b50505050565b60006001601d6000828254611d2691906162fe565b92505081905550600030604051611d3c90615b2f565b6001600160a01b039091168152602001604051809103906000f080158015611d68573d6000803e3d6000fd5b50601d54600090815260306020908152604080832080546001600160a01b0319166001600160a01b038681169190911790915560175482516318160ddd60e01b8152925195965093949316926318160ddd926004808401939192918290030181865afa158015611ddc573d6000803e3d6000fd5b505050506040513d601f19601f82011682018060405250810190611e009190616393565b611e1285670de0b6b3a7640000616352565b611e1c919061637f565b601754604051632770a7eb60e21b8152336004820152602481018790529192506001600160a01b031690639dc29fac90604401600060405180830381600087803b158015611e6957600080fd5b505af1158015611e7d573d6000803e3d6000fd5b5050601d5460009081526016602052604081208790559150505b600c54811015612155576000818152600e60209081526040808320546001600160a01b03908116808552600f9093528184205460185492516370a0823160e01b81529282166004840152929392670de0b6b3a7640000929116906370a0823190602401602060405180830381865afa158015611f17573d6000803e3d6000fd5b505050506040513d601f19601f82011682018060405250810190611f3b9190616393565b611f459086616352565b611f4f919061637f565b90506000611f5e838388614b6b565b6000818152602660209081526040808320869055601d80548452602383528184206001600160a01b0389811680875291855283862087905591548552602e845282852080546001600160a01b031916331790558452600f9092528083205460185491516370a0823160e01b81529183166004830152939450919216906370a0823190602401602060405180830381865afa158015612000573d6000803e3d6000fd5b505050506040513d601f19601f820116820180604052508101906120249190616393565b6001600160a01b038581166000908152600f602052604080822054905163266d6a8360e11b8152600481018590529394509092911690634cdad50690602401602060405180830381865afa158015612080573d6000803e3d6000fd5b505050506040513d601f19601f820116820180604052508101906120a49190616393565b601d546000908152602a602090815260408083206001600160a01b03808b1685529083529281902084905560175481516318160ddd60e01b81529151949550909216926318160ddd9260048082019392918290030181865afa15801561210e573d6000803e3d6000fd5b505050506040513d601f19601f820116820180604052508101906121329190616393565b601d546000908152602c6020526040902055505060019093019250611e97915050565b5050601d549392505050565b612169614b10565b60006037544261217991906163ac565b9050600c603c612189818461637f565b612193919061637f565b116122065760405162461bcd60e51b815260206004820152603960248201527f596f752073686f756c642077616974206174206c6561737420313220686f757260448201527f7320616674657220746865206c6174657374207570646174650000000000000060648201526084016114f8565b60648260ff161115801561221e575060018260ff1610155b6122865760405162461bcd60e51b815260206004820152603360248201527f546865206e65774665652073686f756c64206265206265747765656e203120616044820152726e64203130302028302e303125202d2031252960681b60648201526084016114f8565b50601b805460ff909216600160a81b0260ff60a81b1990921691909117905542603755565b60006122b5614b10565b6001600160a01b0382166123045760405162461bcd60e51b8152602060048201526016602482015275696e76616c696420697373756572206164647265737360501b60448201526064016114f8565b50601a80546001600160a01b0383166001600160a01b03199091161790556001919050565b612331614b10565b805182511461237a5760405162461bcd60e51b8152602060048201526015602482015274082e4e4c2f240d8cadccee8d040dad2e6dac2e8c6d605b1b60448201526064016114f8565b60005b82518110156123fa57818181518110612398576123986163bf565b6020026020010151603460008584815181106123b6576123b66163bf565b6020908102919091018101516001600160a01b0390811683529082019290925260400160002080546001600160a01b0319169290911691909117905560010161237d565b505050565b60008060005b600c54811015611095576000818152600e6020908152604080832054878452602283528184206001600160a01b0391821680865290845282852054898652602f9094528285205492516370a0823160e01b815292909116600483018190529093909184906370a0823190602401602060405180830381865afa15801561248f573d6000803e3d6000fd5b505050506040513d601f19601f820116820180604052508101906124b39190616393565b601a546040516322fd455760e11b8152600481018690529192506003916001600160a01b03909116906345fa8aae90602401602060405180830381865afa158015612502573d6000803e3d6000fd5b505050506040513d601f19601f820116820180604052508101906125269190616298565b600381111561253757612537615dcc565b60ff16148015612545575080155b1561255c576125556001876162fe565b95506126a1565b601a546040516322fd455760e11b8152600481018590526002916001600160a01b0316906345fa8aae90602401602060405180830381865afa1580156125a6573d6000803e3d6000fd5b505050506040513d601f19601f820116820180604052508101906125ca9190616298565b60038111156125db576125db615dcc565b60ff161480156125e9575080155b156126a1576000888152602080805260408083206001600160a01b03888116855292529182902054601a5492516322fd455760e11b815260048101829052909260029216906345fa8aae90602401602060405180830381865afa158015612654573d6000803e3d6000fd5b505050506040513d601f19601f820116820180604052508101906126789190616298565b600381111561268957612689615dcc565b60ff160361269f5761269c6001886162fe565b96505b505b5050600190920191506124059050565b601f5460009060ff16156127bc576001600160a01b03808316600090815260346020526040808220548151633fabe5a360e21b81529151931692839163feaf968c9160048083019260a09291908290030181865afa158015612717573d6000803e3d6000fd5b505050506040513d601f19601f8201168201806040525081019061273b91906163ef565b5050509150506000826001600160a01b031663313ce5676040518163ffffffff1660e01b8152600401602060405180830381865afa158015612781573d6000803e3d6000fd5b505050506040513d601f19601f820116820180604052508101906127a5919061643f565b90506127b382826012614f21565b95945050505050565b601a54601b5460405163a377cfbf60e01b81526001600160a01b0385811660048301529182166024820152600092919091169063a377cfbf906044016040805180830381865afa158015612814573d6000803e3d6000fd5b505050506040513d601f19601f82011682018060405250810190612838919061645c565b519392505050565b612848614b10565b6117136000614f61565b60008061297360068054612865906164bb565b80601f0160208091040260200160405190810160405280929190818152602001828054612891906164bb565b80156128de5780601f106128b3576101008083540402835291602001916128de565b820191906000526020600020905b8154815290600101906020018083116128c157829003601f168201915b5050505050600780546128f0906164bb565b80601f016020809104026020016040519081016040528092919081815260200182805461291c906164bb565b80156129695780601f1061293e57610100808354040283529160200191612969565b820191906000526020600020905b81548152906001019060200180831161294c57829003601f168201915b5050505050610f8b565b9050600061298b6008543063f14bea2060e01b614fd2565b60408051808201909152600381526219d95d60ea1b60208201529091506129b490829084614fee565b612a0f60405180604001604052806005815260200164706174683160d81b81525060405180604001604052806011815260200170726573756c74732c61646472657373657360781b81525083614fee9092919063ffffffff16565b612a6d604051806040016040528060058152602001643830ba341960d91b81525060405180604001604052806014815260200173726573756c74732c6d61726b657453686172657360601b81525083614fee9092919063ffffffff16565b612a8b612a826003546001600160a01b031690565b8260095461500c565b9250505090565b612a9b816123ff565b612ae75760405162461bcd60e51b815260206004820181905260248201527f43616e63656c2069737375616e6365206973206e6f7420636f6d706c6574656460448201526064016114f8565b60008181526031602052604090205460ff1615612b165760405162461bcd60e51b81526004016114f8906164ef565b6000818152602d6020908152604080832054602f90925280832054601b5491516370a0823160e01b81526001600160a01b0391821660048201819052938216949291909116906370a0823190602401602060405180830381865afa158015612b82573d6000803e3d6000fd5b505050506040513d601f19601f82011682018060405250810190612ba69190616393565b601b546040516317ee7de960e11b81529192506001600160a01b0380851692632fdcfbd292612bdd92169087908690600401616311565b600060405180830381600087803b158015612bf757600080fd5b505af1158015612c0b573d6000803e3d6000fd5b505050600094855250506031602052505060409020805460ff19166001179055565b612c3681611715565b612c8e5760405162461bcd60e51b815260206004820152602360248201527f526564656d7074696f6e206f726465727320617265206e6f7420636f6d706c656044820152621d195960ea1b60648201526084016114f8565b60008181526015602052604090205460ff1615612ce75760405162461bcd60e51b8152602060048201526017602482015276149959195b5c1d1a5bdb881a5cc818dbdb5c1b195d1959604a1b60448201526064016114f8565b6000818152602e6020908152604080832054603090925280832054601b5491516370a0823160e01b81526001600160a01b0391821660048201819052938216949291909116906370a0823190602401602060405180830381865afa158015612d53573d6000803e3d6000fd5b505050506040513d601f19601f82011682018060405250810190612d779190616393565b601b546040516317ee7de960e11b81529192506001600160a01b0380851692632fdcfbd292612dae92169087908690600401616311565b600060405180830381600087803b158015612dc857600080fd5b505af1158015612ddc573d6000803e3d6000fd5b505050600094855250506015602052505060409020805460ff19166001179055565b612e06614b10565b61171361509f565b612e17816138dd565b612e6e5760405162461bcd60e51b815260206004820152602260248201527f43616e63656c20726564656d7074696f6e206973206e6f7420636f6d706c6574604482015261195960f21b60648201526084016114f8565b60008181526032602052604090205460ff1615612e9d5760405162461bcd60e51b81526004016114f8906164ef565b6000818152602e6020908152604080832054603090925280832054601b5491516370a0823160e01b81526001600160a01b0391821660048201819052938216949291909116906370a0823190602401602060405180830381865afa158015612f09573d6000803e3d6000fd5b505050506040513d601f19601f82011682018060405250810190612f2d9190616393565b905060005b600c54811015613032576000818152600e60205260408082205490516370a0823160e01b81526001600160a01b038681166004830152909116919082906370a0823190602401602060405180830381865afa158015612f95573d6000803e3d6000fd5b505050506040513d601f19601f82011682018060405250810190612fb99190616393565b90508015613028576018546040516317ee7de960e11b81526001600160a01b0380881692632fdcfbd292612ff592879216908690600401616311565b600060405180830381600087803b15801561300f57600080fd5b505af1158015613023573d6000803e3d6000fd5b505050505b5050600101612f32565b50601754600085815260166020526040908190205490516340c10f1960e01b81526001600160a01b03868116600483015260248201929092529116906340c10f1990604401600060405180830381600087803b15801561309157600080fd5b505af11580156130a5573d6000803e3d6000fd5b505050600094855250506032602052505060409020805460ff19166001179055565b60008181526015602052604090205460ff16156131205760405162461bcd60e51b8152602060048201526017602482015276149959195b5c1d1a5bdb881a5cc818dbdb5c1b195d1959604a1b60448201526064016114f8565b6000818152602e60209081526040808320546030909252909120546001600160a01b0391821691163382146131a85760405162461bcd60e51b815260206004820152602860248201527f4f6e6c79207265717565737465722063616e2063616e63656c207468652072656044820152673232b6b83a34b7b760c11b60648201526084016114f8565b60005b600c54811015611d0b576000818152600e6020908152604080832054878452602383528184206001600160a01b03918216808652908452828520548086526033855283862084516101408101865281546001600160401b0381168252600160401b90048516968101969096526001818101548516958701959095526002810154938416606087015260ff600160a01b85048116151560808801529296919591949193909260a0850192600160a81b909204169081111561326d5761326d615dcc565b600181111561327e5761327e615dcc565b815260038281015460208301526004830154604083015260058301546060830152600683015460809092019160ff16908111156132bd576132bd615dcc565b60038111156132ce576132ce615dcc565b905250601a5460405163187b2ed160e21b8152600481018590529192506000916001600160a01b03909116906361ecbb4490602401602060405180830381865afa158015613320573d6000803e3d6000fd5b505050506040513d601f19601f820116820180604052508101906133449190616393565b601a546040516322fd455760e11b8152600481018690529192506002916001600160a01b03909116906345fa8aae90602401602060405180830381865afa158015613393573d6000803e3d6000fd5b505050506040513d601f19601f820116820180604052508101906133b79190616298565b60038111156133c8576133c8615dcc565b60ff1614806133d75750600081115b1561347957601b546040516317ee7de960e11b81526001600160a01b0388811692632fdcfbd292613412929091169030908690600401616311565b600060405180830381600087803b15801561342c57600080fd5b505af1158015613440573d6000803e3d6000fd5b505050506000613451858389614897565b505060008881526021602090815260408083206001600160a01b038816845290915290208390555b5050600190920191506131ab9050565b60008060005b600c54811015613573576000818152600e6020908152604080832054878452602383528184206001600160a01b0390911680855292529091205480158015906135585750601a546040516322fd455760e11b8152600481018390526002916001600160a01b0316906345fa8aae90602401602060405180830381865afa15801561351d573d6000803e3d6000fd5b505050506040513d601f19601f820116820180604052508101906135419190616298565b600381111561355257613552615dcc565b60ff1614155b156135695750600095945050505050565b505060010161348f565b5060019392505050565b6000613587614b10565b6001600160a01b0382166135dd5760405162461bcd60e51b815260206004820181905260248201527f696e76616c696420637573746f6469616e2077616c6c6574206164647265737360448201526064016114f8565b50601980546001600160a01b0383166001600160a01b03199091161790556001919050565b6001600160a01b038181166000908152600f60205260408082205460185491516370a0823160e01b8152918416600483015291929190911690829082906370a0823190602401602060405180830381865afa158015613665573d6000803e3d6000fd5b505050506040513d601f19601f820116820180604052508101906136899190616393565b60405163266d6a8360e11b8152600481018290529091506001600160a01b03831690634cdad50690602401602060405180830381865afa1580156136d1573d6000803e3d6000fd5b505050506040513d601f19601f820116820180604052508101906136f59190616393565b949350505050565b613705614b10565b60066137118382616584565b5060076123fa8282616584565b613726614b10565b61373082826150e8565b5050565b6000805b600c54811015610f82576000818152600e6020908152604080832054868452602283528184206001600160a01b0391821680865293529281902054601a5491516322fd455760e11b81526004810182905292939092600192909116906345fa8aae90602401602060405180830381865afa1580156137ba573d6000803e3d6000fd5b505050506040513d601f19601f820116820180604052508101906137de9190616298565b60038111156137ef576137ef615dcc565b60ff160361380257506001949350505050565b5050600101613738565b613814614b10565b805182511461385d5760405162461bcd60e51b8152602060048201526015602482015274082e4e4c2f240d8cadccee8d040dad2e6dac2e8c6d605b1b60448201526064016114f8565b60005b82518110156123fa5781818151811061387b5761387b6163bf565b6020026020010151600f6000858481518110613899576138996163bf565b6020908102919091018101516001600160a01b0390811683529082019290925260400160002080546001600160a01b03191692909116919091179055600101613860565b60008060005b600c54811015611095576000818152600e6020908152604080832054878452602383528184206001600160a01b039182168086529084528285205489865260309094528285205492516370a0823160e01b815292909116600483018190529093909184906370a0823190602401602060405180830381865afa15801561396d573d6000803e3d6000fd5b505050506040513d601f19601f820116820180604052508101906139919190616393565b601a546040516322fd455760e11b8152600481018690529192506003916001600160a01b03909116906345fa8aae90602401602060405180830381865afa1580156139e0573d6000803e3d6000fd5b505050506040513d601f19601f82011682018060405250810190613a049190616298565b6003811115613a1557613a15615dcc565b60ff16148015613a23575080155b15613a3a57613a336001876162fe565b9550613b81565b601a546040516322fd455760e11b8152600481018590526002916001600160a01b0316906345fa8aae90602401602060405180830381865afa158015613a84573d6000803e3d6000fd5b505050506040513d601f19601f82011682018060405250810190613aa89190616298565b6003811115613ab957613ab9615dcc565b60ff16148015613ac7575080155b15613b815760008881526021602090815260408083206001600160a01b03888116855292529182902054601a5492516322fd455760e11b815260048101829052909260029216906345fa8aae90602401602060405180830381865afa158015613b34573d6000803e3d6000fd5b505050506040513d601f19601f82011682018060405250810190613b589190616298565b6003811115613b6957613b69615dcc565b60ff1603613b7f57613b7c6001886162fe565b96505b505b5050600190920191506138e39050565b613b99614b10565b601e54600090815260356020526040812054905b600c54811015613730576000818152600e6020908152604080832054601e548452603683528184206001600160a01b039091168085529252822054909184613bfe8368056bc75e2d63100000616352565b613c08919061637f565b6001600160a01b038416600090815260136020526040902054909150811015613caa576001600160a01b038316600090815260136020526040812054613c4f9083906163ac565b9050600068056bc75e2d63100000613c678884616352565b613c71919061637f565b90506000613c80868330614897565b601e5460009081526024602090815260408083206001600160a01b038b1684529091529020555050505b505050600101613bad565b60008060005b600c548110156110a8576000818152600e6020526040812054613ce6906001600160a01b0316614655565b9050613cf281846162fe565b925050600101613cbb565b613d0681610fb8565b613d525760405162461bcd60e51b815260206004820152601860248201527f4f726465727320617265206e6f7420636f6d706c65746564000000000000000060448201526064016114f8565b60008181526014602052604090205460ff1615613da95760405162461bcd60e51b8152602060048201526015602482015274125cdcdd585b98d9481a5cc818dbdb5c1b195d1959605a1b60448201526064016114f8565b6000818152602d60205260408120546001600160a01b03169080805b600c548110156140e1576000818152600e6020908152604080832054888452602283528184206001600160a01b03918216808652935281842054601a54601b54935163a377cfbf60e01b815260048101869052938316602485015293949093909291169063a377cfbf906044016040805180830381865afa158015613e4e573d6000803e3d6000fd5b505050506040513d601f19601f82011682018060405250810190613e72919061645c565b6000898152602f60205260408082205490516370a0823160e01b81526001600160a01b0391821660048201819052939450908616906370a0823190602401602060405180830381865afa158015613ecd573d6000803e3d6000fd5b505050506040513d601f19601f82011682018060405250810190613ef19190616393565b60008b81526029602090815260408083206001600160a01b038a168452909152812054855192935091613f249083616352565b60008781526025602052604081205491925090613f4190836162fe565b9050613f4d828c6162fe565b9a50613f59818b6162fe565b6040516317ee7de960e11b8152909a506001600160a01b03861690632fdcfbd290613f8c908b9030908990600401616311565b600060405180830381600087803b158015613fa657600080fd5b505af1158015613fba573d6000803e3d6000fd5b505050506001600160a01b038881166000818152600f60205260409081902054905163095ea7b360e01b815292166004830152602482018690529063095ea7b3906044016020604051808303816000875af115801561401d573d6000803e3d6000fd5b505050506040513d601f19601f820116820180604052508101906140419190616335565b506001600160a01b038881166000908152600f602052604090819020546018549151636e553f6560e01b815260048101889052918316602483015290911690636e553f65906044016020604051808303816000875af11580156140a8573d6000803e3d6000fd5b505050506040513d601f19601f820116820180604052508101906140cc9190616393565b505060019097019650613dc595505050505050565b506000848152602b602052604081205490819003614174576000614106836064616352565b6017546040516340c10f1960e01b81526001600160a01b038881166004830152602482018490529293509116906340c10f1990604401600060405180830381600087803b15801561415657600080fd5b505af115801561416a573d6000803e3d6000fd5b5050505050614204565b6000836141818484616352565b61418b919061637f565b9050600061419983836163ac565b6017546040516340c10f1960e01b81526001600160a01b038981166004830152602482018490529293509116906340c10f1990604401600060405180830381600087803b1580156141e957600080fd5b505af11580156141fd573d6000803e3d6000fd5b5050505050505b5050601c546000908152601460205260409020805460ff19166001179055505050565b7ff0c57e16840df040f15088dc2f81fe391c3923bec73e23a9662efc9c229c6a008054600160401b810460ff1615906001600160401b031660008115801561426c5750825b90506000826001600160401b031660011480156142885750303b155b905081158015614296575080155b156142b45760405163f92ee8a960e01b815260040160405180910390fd5b845467ffffffffffffffff1916600117855583156142de57845460ff60401b1916600160401b1785555b8d601a60006101000a8154816001600160a01b0302191690836001600160a01b031602179055508c601760006101000a8154816001600160a01b0302191690836001600160a01b031602179055508b601860006101000a8154816001600160a01b0302191690836001600160a01b031602179055508a601b60006101000a8154816001600160a01b0302191690836001600160a01b0316021790555089601b60146101000a81548160ff021916908360ff16021790555061439e33615309565b6143a661531a565b601b805460ff60a81b1916600560a91b179055600280546001600160a01b0319166001600160a01b038b161790556143dd88614eff565b6008879055600a6143f7670de0b6b3a76400006001616352565b614401919061637f565b6009556040805160608101909152602a808252616b7f60208301396006906144299082616584565b506040518060600160405280602e8152602001616ba9602e91396007906144509082616584565b50601f805460ff191687151517905583156144a557845460ff60401b19168555604051600181527fc7f505b2f371ae2175ee4913f4499e1f2633a7b5936321eed1cdaeb6115181d29060200160405180910390a15b5050505050505050505050505050565b60008060005b600c548110156145c5576000818152600e60209081526040808320546001600160a01b0316808452601290925282205490919068056bc75e2d63100000906145039088616352565b61450d919061637f565b601a54601b546040516308da5c3560e21b81526000600482018190526001600160a01b0392831660248301529394508392919091169063236970d4906044016040805180830381865afa158015614568573d6000803e3d6000fd5b505050506040513d601f19601f8201168201806040525081019061458c9190616643565b91509150600061459c828561532a565b6145a690846162fe565b90506145b281886162fe565b965050600190940193506144bb92505050565b5092915050565b60006145d6614b10565b6001600160a01b0383166146245760405162461bcd60e51b8152602060048201526015602482015274696e76616c696420746f6b656e206164647265737360581b60448201526064016114f8565b50601b805460ff8316600160a01b026001600160a81b03199091166001600160a01b03851617179055600192915050565b600080614661836126b1565b9050600061466e84613602565b9050670de0b6b3a76400006146838383616352565b6136f5919061637f565b60008381526005602052604090205483906001600160a01b031633146147065760405162461bcd60e51b815260206004820152602860248201527f536f75726365206d75737420626520746865206f7261636c65206f6620746865604482015267081c995c5d595cdd60c21b60648201526084016114f8565b60008181526005602052604080822080546001600160a01b03191690555182917f7cc135e0cebb02c3480ae5d74d377283180a2601f8f644edf7987b009316c63a91a2611d0b83836150e8565b61475b615b3c565b60008281526033602090815260409182902082516101408101845281546001600160401b03811682526001600160a01b03600160401b9091048116938201939093526001808301548416948201949094526002820154928316606082015260ff600160a01b84048116151560808301529093919260a0850192600160a81b909104909116908111156147ef576147ef615dcc565b600181111561480057614800615dcc565b815260038281015460208301526004830154604083015260058301546060830152600683015460809092019160ff169081111561483f5761483f615dcc565b600381111561485057614850615dcc565b90525092915050565b614861614b10565b6001600160a01b03811661488b57604051631e4fbdf760e01b8152600060048201526024016114f8565b61489481614f61565b50565b601a54601b546040516308da5c3560e21b81526000600482018190526001600160a01b039283166024830152928392839291169063236970d4906044016040805180830381865afa1580156148f0573d6000803e3d6000fd5b505050506040513d601f19601f820116820180604052508101906149149190616643565b915091506000614924828761532a565b61492e90846162fe565b9050600061493c6000615353565b6001600160a01b0380881660208301528916604082015260e081018890529050600061496883896162fe565b601a5460405163aa2165f160e01b81529192506000916001600160a01b039091169063aa2165f19061499e9086906004016161d3565b6020604051808303816000875af11580156149bd573d6000803e3d6000fd5b505050506040513d601f19601f820116820180604052508101906149e19190616393565b60008181526033602090815260409182902086518154928801516001600160401b039091166001600160e01b031990931692909217600160401b6001600160a01b039384160217815591860151600180840180546001600160a01b03191692841692909217909155606087015160028401805460808a0151929094166001600160a81b031990941693909317600160a01b911515919091021780835560a08801519495508794929160ff60a81b1990911690600160a81b908490811115614aaa57614aaa615dcc565b021790555060c0820151816003015560e0820151816004015561010082015181600501556101208201518160060160006101000a81548160ff02191690836003811115614af957614af9615dcc565b0217905550919750505050505050505b9392505050565b33614b427f9016d09d72d40fdae2fd8ceac6b6234c7706214fd39c1cd1e609a0528c199300546001600160a01b031690565b6001600160a01b0316146117135760405163118cdaa760e01b81523360048201526024016114f8565b6001600160a01b038084166000908152600f6020526040808220546018549151631c20fadd60e01b8152929390811692911690631c20fadd90614bb690849030908990600401616311565b600060405180830381600087803b158015614bd057600080fd5b505af1158015614be4573d6000803e3d6000fd5b5050604051635d043b2960e11b81526004810187905230602482018190526044820152600092506001600160a01b038416915063ba087652906064016020604051808303816000875af1158015614c3f573d6000803e3d6000fd5b505050506040513d601f19601f82011682018060405250810190614c639190616393565b90506000614c716001615353565b6001600160a01b03888116604083810182905260c084018690528883166020850152601a54905163095ea7b360e01b8152921660048301526024820185905291925063095ea7b3906044016020604051808303816000875af1158015614cdb573d6000803e3d6000fd5b505050506040513d601f19601f82011682018060405250810190614cff9190616335565b50601a5460405163aa2165f160e01b81526000916001600160a01b03169063aa2165f190614d319085906004016161d3565b6020604051808303816000875af1158015614d50573d6000803e3d6000fd5b505050506040513d601f19601f82011682018060405250810190614d749190616393565b60008181526033602090815260409182902085518154928701516001600160401b039091166001600160e01b031990931692909217600160401b6001600160a01b039384160217815591850151600180840180546001600160a01b0319169284169290921790915560608601516002840180546080890151929094166001600160a81b031990941693909317600160a01b911515919091021780835560a08701519495508694929160ff60a81b1990911690600160a81b908490811115614e3d57614e3d615dcc565b021790555060c0820151816003015560e0820151816004015561010082015181600501556101208201518160060160006101000a81548160ff02191690836003811115614e8c57614e8c615dcc565b0217905550919998505050505050505050565b614ea761540a565b600080516020616bd7833981519152805460ff191681557f5db9ee0a495bf2e6ff9c91a7834c1ba4fdd244a5e8aa4e537bd38aeae4b073aa335b6040516001600160a01b03909116815260200160405180910390a150565b600380546001600160a01b0319166001600160a01b0392909216919091179055565b60008260ff168260ff161115614f5757614f3b8383616670565b614f4690600a61676d565b614f50908561677c565b9050614b09565b614f3b8284616670565b7f9016d09d72d40fdae2fd8ceac6b6234c7706214fd39c1cd1e609a0528c19930080546001600160a01b031981166001600160a01b03848116918217845560405192169182907f8be0079c531659141344cd1fd0a4f28419497f9722a3daafe3b4186f6b6457e090600090a3505050565b614fda615b9f565b614fe2615b9f565b6127b38186868661543a565b6080830151614ffd9083615477565b60808301516123fa9082615477565b60045460009061501d8160016162fe565b600455835160408086015160808701515191516000936320214ca360e11b936150559386938493923092918a916001916024016167ac565b60408051601f198184030181529190526020810180516001600160e01b03166001600160e01b03199093169290921790915290506150958683868461548e565b9695505050505050565b6150a76155ec565b600080516020616bd7833981519152805460ff191660011781557f62e78cea01bee320cd4e420270b5ea74000d11b0c9f74754ebdbfc544b05a25833614ee1565b818160005b82518110156152e957828181518110615108576151086163bf565b6020026020010151600d600083815260200190815260200160002060006101000a8154816001600160a01b0302191690836001600160a01b03160217905550806010600085848151811061515e5761515e6163bf565b60200260200101516001600160a01b03166001600160a01b031681526020019081526020016000208190555081818151811061519c5761519c6163bf565b6020026020010151601360008584815181106151ba576151ba6163bf565b60200260200101516001600160a01b03166001600160a01b0316815260200190815260200160002081905550600c546000036152e157828181518110615202576152026163bf565b6020026020010151600e600083815260200190815260200160002060006101000a8154816001600160a01b0302191690836001600160a01b03160217905550818181518110615253576152536163bf565b602002602001015160126000858481518110615271576152716163bf565b60200260200101516001600160a01b03166001600160a01b031681526020019081526020016000208190555080601160008584815181106152b4576152b46163bf565b60200260200101516001600160a01b03166001600160a01b03168152602001908152602001600020819055505b6001016150ed565b508151600b55600c546000036152ff578151600c555b505042600a555050565b61531161561d565b61489481615666565b61532261561d565b61171361566e565b60008262ffffff16600003615340576000614b09565b614b098262ffffff8516620f424061568f565b61535b615b3c565b60408051610140810182526001600160401b03421681523060208201526017546001600160a01b0390811692820192909252601b549091166060820152821515608082015260a0810160008152602001836153b75760006153c2565b68056bc75e2d631000005b68ffffffffffffffffff168152602001836153e65768056bc75e2d631000006153e9565b60005b68ffffffffffffffffff168152600060208201526040016001905292915050565b600080516020616bd78339815191525460ff1661171357604051638dfc202b60e01b815260040160405180910390fd5b615442615b9f565b6154528560800151610100615763565b50509183526001600160a01b031660208301526001600160e01b031916604082015290565b61548482600383516157c8565b6123fa82826158cf565b6040516bffffffffffffffffffffffff193060601b1660208201526034810184905260009060540160408051808303601f1901815282825280516020918201206000818152600590925291812080546001600160a01b0319166001600160a01b038a1617905590925082917fb5e6e01e79f91267dc17b4e6314d5d4d03593d2ceee0fbb452b750bd70ea5af99190a2600254604051630200057560e51b81526001600160a01b0390911690634000aea09061555190889087908790600401616805565b6020604051808303816000875af1158015615570573d6000803e3d6000fd5b505050506040513d601f19601f820116820180604052508101906155949190616335565b6136f55760405162461bcd60e51b815260206004820152602360248201527f756e61626c6520746f207472616e73666572416e6443616c6c20746f206f7261604482015262636c6560e81b60648201526084016114f8565b600080516020616bd78339815191525460ff16156117135760405163d93c066560e01b815260040160405180910390fd5b7ff0c57e16840df040f15088dc2f81fe391c3923bec73e23a9662efc9c229c6a0054600160401b900460ff1661171357604051631afcd79f60e31b815260040160405180910390fd5b61486161561d565b61567661561d565b600080516020616bd7833981519152805460ff19169055565b60008080600019858709858702925082811083820303915050806000036156c9578382816156bf576156bf616369565b0492505050614b09565b8381106156fa57604051630c740aef60e31b81526004810187905260248101869052604481018590526064016114f8565b60008486880960026001871981018816978890046003810283188082028403028082028403028082028403028082028403028082028403029081029092039091026000889003889004909101858311909403939093029303949094049190911702949350505050565b60408051808201909152606081526000602082015261578360208361682c565b156157ab5761579360208361682c565b61579e9060206163ac565b6157a890836162fe565b91505b506020828101829052604080518085526000815290920101905290565b6017816001600160401b0316116157ec57611d0b8360e0600585901b1683176158f6565b60ff816001600160401b03161161582857615812836018611fe0600586901b16176158f6565b50611d0b836001600160401b038316600161591b565b61ffff816001600160401b0316116158655761584f836019611fe0600586901b16176158f6565b50611d0b836001600160401b038316600261591b565b63ffffffff816001600160401b0316116158a45761588e83601a611fe0600586901b16176158f6565b50611d0b836001600160401b038316600461591b565b6158b983601b611fe0600586901b16176158f6565b50611d0b836001600160401b038316600861591b565b604080518082019091526060815260006020820152614b0983846000015151848551615941565b604080518082019091526060815260006020820152614b098384600001515184615a2b565b6040805180820190915260608152600060208201526136f5848560000151518585615a86565b604080518082019091526060815260006020820152825182111561596457600080fd5b602085015161597383866162fe565b11156159a6576159a6856159968760200151878661599191906162fe565b615b07565b6159a1906002616352565b615b18565b6000808651805187602083010193508088870111156159c55787860182525b505050602084015b60208410615a0557805182526159e46020836162fe565b91506159f16020826162fe565b90506159fe6020856163ac565b93506159cd565b51815160001960208690036101000a019081169019919091161790525083949350505050565b60408051808201909152606081526000602082015283602001518310615a6057615a6084856020015160026159a19190616352565b8351805160208583010184815350808503615a7c576001810182525b5093949350505050565b6040805180820190915260608152600060208201526020850151615aaa85846162fe565b1115615abe57615abe8561599686856162fe565b60006001615ace84610100616840565b615ad891906163ac565b9050855183868201018583198251161781525080518487011115615afc5783860181525b509495945050505050565b6000818311156110a8575081610fb2565b8151615b248383615763565b50611d0b83826158cf565b6103328061684d83390190565b604080516101408101825260008082526020820181905291810182905260608101829052608081018290529060a0820190815260200160008152602001600081526020016000815260200160006003811115615b9a57615b9a615dcc565b905290565b6040805160a0810182526000808252602080830182905282840182905260608084018390528451808601909552845283015290608082015290565b80356001600160a01b038116811461152057600080fd5b60008060408385031215615c0457600080fd5b82359150615c1460208401615bda565b90509250929050565b600060208284031215615c2f57600080fd5b614b0982615bda565b600060208284031215615c4a57600080fd5b5035919050565b634e487b7160e01b600052604160045260246000fd5b604051601f8201601f191681016001600160401b0381118282101715615c8f57615c8f615c51565b604052919050565b600082601f830112615ca857600080fd5b81356001600160401b03811115615cc157615cc1615c51565b615cd4601f8201601f1916602001615c67565b818152846020838601011115615ce957600080fd5b816020850160208301376000918101602001919091529392505050565b60008060408385031215615d1957600080fd5b82356001600160401b0380821115615d3057600080fd5b615d3c86838701615c97565b93506020850135915080821115615d5257600080fd5b50615d5f85828601615c97565b9150509250929050565b60005b83811015615d84578181015183820152602001615d6c565b50506000910152565b60008151808452615da5816020860160208601615d69565b601f01601f19169290920160200192915050565b602081526000614b096020830184615d8d565b634e487b7160e01b600052602160045260246000fd5b60028110615df257615df2615dcc565b9052565b60048110615df257615df2615dcc565b6001600160401b038b1681526001600160a01b038a8116602083015289811660408301528816606082015286151560808201526101408101615e4b60a0830188615de2565b8560c08301528460e083015283610100830152615e6c610120830184615df6565b9b9a5050505050505050505050565b60008060408385031215615e8e57600080fd5b615e9783615bda565b946020939093013593505050565b60ff8116811461489457600080fd5b600060208284031215615ec657600080fd5b8135614b0981615ea5565b60006001600160401b03821115615eea57615eea615c51565b5060051b60200190565b600082601f830112615f0557600080fd5b81356020615f1a615f1583615ed1565b615c67565b8083825260208201915060208460051b870101935086841115615f3c57600080fd5b602086015b84811015615f5f57615f5281615bda565b8352918301918301615f41565b509695505050505050565b60008060408385031215615f7d57600080fd5b82356001600160401b0380821115615f9457600080fd5b615fa086838701615ef4565b93506020850135915080821115615fb657600080fd5b50615d5f85828601615ef4565b600082601f830112615fd457600080fd5b81356020615fe4615f1583615ed1565b8083825260208201915060208460051b87010193508684111561600657600080fd5b602086015b84811015615f5f578035835291830191830161600b565b6000806040838503121561603557600080fd5b82356001600160401b038082111561604c57600080fd5b61605886838701615ef4565b9350602085013591508082111561606e57600080fd5b50615d5f85828601615fc3565b801515811461489457600080fd5b60008060008060008060008060006101208a8c0312156160a857600080fd5b6160b18a615bda565b98506160bf60208b01615bda565b97506160cd60408b01615bda565b96506160db60608b01615bda565b955060808a01356160eb81615ea5565b94506160f960a08b01615bda565b935061610760c08b01615bda565b925060e08a013591506101008a013561611f8161607b565b809150509295985092959850929598565b6000806040838503121561614357600080fd5b61614c83615bda565b9150602083013561615c81615ea5565b809150509250929050565b60008060006060848603121561617c57600080fd5b8335925060208401356001600160401b038082111561619a57600080fd5b6161a687838801615ef4565b935060408601359150808211156161bc57600080fd5b506161c986828701615fc3565b9150509250925092565b81516001600160401b03168152610140810160208301516161ff60208401826001600160a01b03169052565b50604083015161621a60408401826001600160a01b03169052565b50606083015161623560608401826001600160a01b03169052565b506080830151616249608084018215159052565b5060a083015161625c60a0840182615de2565b5060c083015160c083015260e083015160e08301526101008084015181840152506101208084015161629082850182615df6565b505092915050565b6000602082840312156162aa57600080fd5b815160048110614b0957600080fd5b600083516162cb818460208801615d69565b8351908301906162df818360208801615d69565b01949350505050565b634e487b7160e01b600052601160045260246000fd5b80820180821115610fb257610fb26162e8565b6001600160a01b039384168152919092166020820152604081019190915260600190565b60006020828403121561634757600080fd5b8151614b098161607b565b8082028115828204841417610fb257610fb26162e8565b634e487b7160e01b600052601260045260246000fd5b60008261638e5761638e616369565b500490565b6000602082840312156163a557600080fd5b5051919050565b81810381811115610fb257610fb26162e8565b634e487b7160e01b600052603260045260246000fd5b805169ffffffffffffffffffff8116811461152057600080fd5b600080600080600060a0868803121561640757600080fd5b616410866163d5565b9450602086015193506040860151925060608601519150616433608087016163d5565b90509295509295909350565b60006020828403121561645157600080fd5b8151614b0981615ea5565b60006040828403121561646e57600080fd5b604051604081016001600160401b03828210818311171561649157616491615c51565b81604052845183526020850151915080821682146164ae57600080fd5b5060208201529392505050565b600181811c908216806164cf57607f821691505b6020821081036110a857634e487b7160e01b600052602260045260246000fd5b60208082526025908201527f5468652070726f6365737320686173206265656e20636f6d706c65746564206260408201526465666f726560d81b606082015260800190565b601f8211156123fa576000816000526020600020601f850160051c8101602086101561655d5750805b601f850160051c820191505b8181101561657c57828155600101616569565b505050505050565b81516001600160401b0381111561659d5761659d615c51565b6165b1816165ab84546164bb565b84616534565b602080601f8311600181146165e657600084156165ce5750858301515b600019600386901b1c1916600185901b17855561657c565b600085815260208120601f198616915b82811015616615578886015182559484019460019091019084016165f6565b50858210156166335787850151600019600388901b60f8161c191681555b5050505050600190811b01905550565b6000806040838503121561665657600080fd5b82519150602083015162ffffff8116811461615c57600080fd5b60ff8281168282160390811115610fb257610fb26162e8565b600181815b808511156166c45781600019048211156166aa576166aa6162e8565b808516156166b757918102915b93841c939080029061668e565b509250929050565b6000826166db57506001610fb2565b816166e857506000610fb2565b81600181146166fe576002811461670857616724565b6001915050610fb2565b60ff841115616719576167196162e8565b50506001821b610fb2565b5060208310610133831016604e8410600b8410161715616747575081810a610fb2565b6167518383616689565b8060001904821115616765576167656162e8565b029392505050565b6000614b0960ff8416836166cc565b80820260008212600160ff1b84141615616798576167986162e8565b8181058314821517610fb257610fb26162e8565b6001600160a01b0389811682526020820189905260408201889052861660608201526001600160e01b03198516608082015260a0810184905260c0810183905261010060e08201819052600090615e6c83820185615d8d565b60018060a01b03841681528260208201526060604082015260006127b36060830184615d8d565b60008261683b5761683b616369565b500690565b6000614b0983836166cc56fe6080604052348015600f57600080fd5b50604051610332380380610332833981016040819052602c916050565b600080546001600160a01b0319166001600160a01b0392909216919091179055607e565b600060208284031215606157600080fd5b81516001600160a01b0381168114607757600080fd5b9392505050565b6102a58061008d6000396000f3fe608060405234801561001057600080fd5b50600436106100415760003560e01c806313af4035146100465780632fdcfbd21461005b5780638da5cb5b1461006e575b600080fd5b6100596100543660046101ef565b61009d565b005b610059610069366004610211565b61010f565b600054610081906001600160a01b031681565b6040516001600160a01b03909116815260200160405180910390f35b6000546001600160a01b031633146100ed5760405162461bcd60e51b815260206004820152600e60248201526d139bdd08185d5d1a1bdc9a5e995960921b60448201526064015b60405180910390fd5b600080546001600160a01b0319166001600160a01b0392909216919091179055565b6000546001600160a01b0316331461015a5760405162461bcd60e51b815260206004820152600e60248201526d139bdd08185d5d1a1bdc9a5e995960921b60448201526064016100e4565b60405163a9059cbb60e01b81526001600160a01b0383811660048301526024820183905284169063a9059cbb906044016020604051808303816000875af11580156101a9573d6000803e3d6000fd5b505050506040513d601f19601f820116820180604052508101906101cd919061024d565b50505050565b80356001600160a01b03811681146101ea57600080fd5b919050565b60006020828403121561020157600080fd5b61020a826101d3565b9392505050565b60008060006060848603121561022657600080fd5b61022f846101d3565b925061023d602085016101d3565b9150604084013590509250925092565b60006020828403121561025f57600080fd5b8151801515811461020a57600080fdfea2646970667358221220502fe3cef5472467ba27d3f0af8cc13ea970369ac0d01284025186802306355064736f6c6343000819003368747470733a2f2f6170702e6e65786c6162732e696f2f6170692f616c6c46756e64696e6752617465733f6d756c7469706c7946756e633d31382674696d65734e656746756e643d74727565266172726179733d74727565cd5ed15c6e187e77e9aee88184c21f4f2182ab5827cb3b7e07fbedcd63f03300a264697066735822122019c25d7b044d9fae2022ebe65d022d83c2677ea63447f6749ec49e57ae46869164736f6c63430008190033","linkReferences":{}},"methodIdentifiers":{"burnedTokenAmountByNonce(uint256)":"ab7820b2","buyRequestPayedAmountById(uint256)":"8861d235","calculateIssuanceFee(uint256)":"e19eefbe","cancelIssuance(uint256)":"46d66a2c","cancelIssuanceComplted(uint256)":"7bfa27f2","cancelIssuanceRequestId(uint256,address)":"02e80f71","cancelRedemption(uint256)":"9219e510","cancelRedemptionComplted(uint256)":"b46840f9","cancelRedemptionRequestId(uint256,address)":"8c221899","checkCancelIssuanceStatus(uint256)":"631c8385","checkCancelRedemptionStatus(uint256)":"b592662a","checkFirstRebalanceOrdersStatus(uint256)":"92318df4","checkIssuanceOrdersStatus(uint256)":"2343acb4","checkRedemptionOrdersStatus(uint256)":"3fac0922","coaByIssuanceNonce(uint256)":"31c99010","coaByRedemptionNonce(uint256)":"b75f4c2c","completeCancelIssuance(uint256)":"807ca237","completeCancelRedemption(uint256)":"9026544f","completeIssuance(uint256)":"bed45bef","completeRedemption(uint256)":"840ecba0","concatenation(string,string)":"0e329357","currentList(uint256)":"9932ba4c","custodianWallet()":"1e106e99","externalJobId()":"a8b54bd4","feeRate()":"978bbdb9","firstRebalanceAction()":"32f53f3c","fulfillAssetsData(bytes32,address[],uint256[])":"f14bea20","getOrderInstanceById(uint256)":"f1f31d66","getPortfolioValue()":"bb0498de","getVaultDshareBalance(address)":"a08d7bd6","getVaultDshareValue(address)":"efdf5053","initialize(address,address,address,address,uint8,address,address,bytes32,bool)":"d57e0493","isIssuanceOrderActive(uint256)":"b0e12134","isMainnet()":"42faac05","isRedemptionOrderActive(uint256)":"0b1a4918","issuance(uint256)":"248b761e","issuanceIndexTokenPrimaryTotalSupply(uint256)":"b1dd819e","issuanceIsCompleted(uint256)":"a84ebc17","issuanceNonce()":"9dbb9c9e","issuanceRequestId(uint256,address)":"264fa8b9","issuanceRequesterByNonce(uint256)":"94674098","issuanceTokenPrimaryBalance(uint256,address)":"da65925a","issuer()":"1d143848","lastUpdateTime()":"c8f33c91","latestFeeUpdate()":"011ced5f","mockFillAssetsList(address[],uint256[])":"addc70d1","oracleList(uint256)":"239aad0d","oraclePayment()":"0c02e130","orderInstanceById(uint256)":"15e666a2","owner()":"8da5cb5b","pause()":"8456cb59","paused()":"5c975abb","portfolioValueByNonce(uint256)":"2badae5d","priceFeedByTokenAddress(address)":"08dc4b0c","priceInWei(address)":"6839a095","rebalanceBuyPayedAmountById(uint256)":"ab935bb2","rebalanceNonce()":"edca4f5e","rebalanceRequestId(uint256,address)":"75a3cb57","rebalanceSellAssetAmountById(uint256)":"8d6983c7","redemption(uint256)":"4a1dc092","redemptionIndexTokenPrimaryTotalSupply(uint256)":"daf1c17d","redemptionIsCompleted(uint256)":"76529fdf","redemptionNonce()":"84d77bb1","redemptionRequestId(uint256,address)":"f513a718","redemptionRequesterByNonce(uint256)":"78032658","redemptionTokenPrimaryBalance(uint256,address)":"a363b9cb","renounceOwnership()":"715018a6","requestAssetsData()":"7ca58c55","secondRebalanceAction()":"b59c3608","sellRequestAssetAmountById(uint256)":"a87f98d2","setCustodianWallet(address)":"9cc0fb5b","setFeeRate(uint8)":"5177942a","setIssuer(address)":"55cc4e57","setOracleInfo(address,bytes32)":"43482fc8","setPriceFeedAddresses(address[],address[])":"57b61bc3","setTokenAddress(address)":"26a4e8d2","setUrl(string,string)":"a73e1cbf","setUsdcAddress(address,uint8)":"eab2a711","setWrappedDShareAddresses(address[],address[])":"b411dc41","token()":"fc0c546a","tokenCurrentListIndex(address)":"914f0cc6","tokenCurrentMarketShare(address)":"0be52713","tokenOracleListIndex(address)":"8c88c10c","tokenOracleMarketShare(address)":"4b3e0b80","tokenValueByNonce(uint256,address)":"b316e7fd","totalCurrentList()":"53fd4332","totalOracleList()":"c8599ded","transferOwnership(address)":"f2fde38b","unpause()":"3f4ba83a","usdc()":"3e413bee","usdcDecimals()":"7bf42165","vault()":"fbfa77cf","wrappedDshareAddress(address)":"092755e0"},"id":16}