{"abi":[{"type":"function","name":"burnedTokenAmountByNonce","inputs":[{"name":"","type":"uint256","internalType":"uint256"}],"outputs":[{"name":"","type":"uint256","internalType":"uint256"}],"stateMutability":"view"},{"type":"function","name":"buyRequestPayedAmountById","inputs":[{"name":"","type":"uint256","internalType":"uint256"}],"outputs":[{"name":"","type":"uint256","internalType":"uint256"}],"stateMutability":"view"},{"type":"function","name":"calculateIssuanceFee","inputs":[{"name":"_inputAmount","type":"uint256","internalType":"uint256"}],"outputs":[{"name":"","type":"uint256","internalType":"uint256"}],"stateMutability":"view"},{"type":"function","name":"cancelIssuance","inputs":[{"name":"_issuanceNonce","type":"uint256","internalType":"uint256"}],"outputs":[],"stateMutability":"nonpayable"},{"type":"function","name":"cancelIssuanceComplted","inputs":[{"name":"","type":"uint256","internalType":"uint256"}],"outputs":[{"name":"","type":"bool","internalType":"bool"}],"stateMutability":"view"},{"type":"function","name":"cancelIssuanceRequestId","inputs":[{"name":"","type":"uint256","internalType":"uint256"},{"name":"","type":"address","internalType":"address"}],"outputs":[{"name":"","type":"uint256","internalType":"uint256"}],"stateMutability":"view"},{"type":"function","name":"cancelRedemption","inputs":[{"name":"_redemptionNonce","type":"uint256","internalType":"uint256"}],"outputs":[],"stateMutability":"nonpayable"},{"type":"function","name":"cancelRedemptionComplted","inputs":[{"name":"","type":"uint256","internalType":"uint256"}],"outputs":[{"name":"","type":"bool","internalType":"bool"}],"stateMutability":"view"},{"type":"function","name":"cancelRedemptionRequestId","inputs":[{"name":"","type":"uint256","internalType":"uint256"},{"name":"","type":"address","internalType":"address"}],"outputs":[{"name":"","type":"uint256","internalType":"uint256"}],"stateMutability":"view"},{"type":"function","name":"checkCancelIssuanceStatus","inputs":[{"name":"_issuanceNonce","type":"uint256","internalType":"uint256"}],"outputs":[{"name":"","type":"bool","internalType":"bool"}],"stateMutability":"view"},{"type":"function","name":"checkCancelRedemptionStatus","inputs":[{"name":"_redemptionNonce","type":"uint256","internalType":"uint256"}],"outputs":[{"name":"","type":"bool","internalType":"bool"}],"stateMutability":"view"},{"type":"function","name":"checkIssuanceOrdersStatus","inputs":[{"name":"_issuanceNonce","type":"uint256","internalType":"uint256"}],"outputs":[{"name":"","type":"bool","internalType":"bool"}],"stateMutability":"view"},{"type":"function","name":"checkRedemptionOrdersStatus","inputs":[{"name":"_redemptionNonce","type":"uint256","internalType":"uint256"}],"outputs":[{"name":"","type":"bool","internalType":"bool"}],"stateMutability":"view"},{"type":"function","name":"coaByIssuanceNonce","inputs":[{"name":"","type":"uint256","internalType":"uint256"}],"outputs":[{"name":"","type":"address","internalType":"address"}],"stateMutability":"view"},{"type":"function","name":"coaByRedemptionNonce","inputs":[{"name":"","type":"uint256","internalType":"uint256"}],"outputs":[{"name":"","type":"address","internalType":"address"}],"stateMutability":"view"},{"type":"function","name":"completeCancelIssuance","inputs":[{"name":"_issuanceNonce","type":"uint256","internalType":"uint256"}],"outputs":[],"stateMutability":"nonpayable"},{"type":"function","name":"completeCancelRedemption","inputs":[{"name":"_redemptionNonce","type":"uint256","internalType":"uint256"}],"outputs":[],"stateMutability":"nonpayable"},{"type":"function","name":"completeIssuance","inputs":[{"name":"_issuanceNonce","type":"uint256","internalType":"uint256"}],"outputs":[],"stateMutability":"nonpayable"},{"type":"function","name":"completeRedemption","inputs":[{"name":"_redemptionNonce","type":"uint256","internalType":"uint256"}],"outputs":[],"stateMutability":"nonpayable"},{"type":"function","name":"concatenation","inputs":[{"name":"a","type":"string","internalType":"string"},{"name":"b","type":"string","internalType":"string"}],"outputs":[{"name":"","type":"string","internalType":"string"}],"stateMutability":"pure"},{"type":"function","name":"currentList","inputs":[{"name":"","type":"uint256","internalType":"uint256"}],"outputs":[{"name":"","type":"address","internalType":"address"}],"stateMutability":"view"},{"type":"function","name":"custodianWallet","inputs":[],"outputs":[{"name":"","type":"address","internalType":"address"}],"stateMutability":"view"},{"type":"function","name":"externalJobId","inputs":[],"outputs":[{"name":"","type":"bytes32","internalType":"bytes32"}],"stateMutability":"view"},{"type":"function","name":"feeRate","inputs":[],"outputs":[{"name":"","type":"uint8","internalType":"uint8"}],"stateMutability":"view"},{"type":"function","name":"fulfillAssetsData","inputs":[{"name":"requestId","type":"bytes32","internalType":"bytes32"},{"name":"_tokens","type":"address[]","internalType":"address[]"},{"name":"_marketShares","type":"uint256[]","internalType":"uint256[]"}],"outputs":[],"stateMutability":"nonpayable"},{"type":"function","name":"getOrderInstanceById","inputs":[{"name":"id","type":"uint256","internalType":"uint256"}],"outputs":[{"name":"","type":"tuple","internalType":"struct IOrderProcessor.Order","components":[{"name":"requestTimestamp","type":"uint64","internalType":"uint64"},{"name":"recipient","type":"address","internalType":"address"},{"name":"assetToken","type":"address","internalType":"address"},{"name":"paymentToken","type":"address","internalType":"address"},{"name":"sell","type":"bool","internalType":"bool"},{"name":"orderType","type":"uint8","internalType":"enum IOrderProcessor.OrderType"},{"name":"assetTokenQuantity","type":"uint256","internalType":"uint256"},{"name":"paymentTokenQuantity","type":"uint256","internalType":"uint256"},{"name":"price","type":"uint256","internalType":"uint256"},{"name":"tif","type":"uint8","internalType":"enum IOrderProcessor.TIF"}]}],"stateMutability":"view"},{"type":"function","name":"initialize","inputs":[{"name":"_issuer","type":"address","internalType":"address"},{"name":"_token","type":"address","internalType":"address"},{"name":"_vault","type":"address","internalType":"address"},{"name":"_usdc","type":"address","internalType":"address"},{"name":"_usdcDecimals","type":"uint8","internalType":"uint8"},{"name":"_chainlinkToken","type":"address","internalType":"address"},{"name":"_oracleAddress","type":"address","internalType":"address"},{"name":"_externalJobId","type":"bytes32","internalType":"bytes32"}],"outputs":[],"stateMutability":"nonpayable"},{"type":"function","name":"isIssuanceOrderActive","inputs":[{"name":"_issuanceNonce","type":"uint256","internalType":"uint256"}],"outputs":[{"name":"","type":"bool","internalType":"bool"}],"stateMutability":"view"},{"type":"function","name":"isRedemptionOrderActive","inputs":[{"name":"_redemptionNonce","type":"uint256","internalType":"uint256"}],"outputs":[{"name":"","type":"bool","internalType":"bool"}],"stateMutability":"view"},{"type":"function","name":"issuance","inputs":[{"name":"_inputAmount","type":"uint256","internalType":"uint256"}],"outputs":[{"name":"","type":"uint256","internalType":"uint256"}],"stateMutability":"nonpayable"},{"type":"function","name":"issuanceIndexTokenPrimaryTotalSupply","inputs":[{"name":"","type":"uint256","internalType":"uint256"}],"outputs":[{"name":"","type":"uint256","internalType":"uint256"}],"stateMutability":"view"},{"type":"function","name":"issuanceIsCompleted","inputs":[{"name":"","type":"uint256","internalType":"uint256"}],"outputs":[{"name":"","type":"bool","internalType":"bool"}],"stateMutability":"view"},{"type":"function","name":"issuanceNonce","inputs":[],"outputs":[{"name":"","type":"uint256","internalType":"uint256"}],"stateMutability":"view"},{"type":"function","name":"issuanceRequestId","inputs":[{"name":"","type":"uint256","internalType":"uint256"},{"name":"","type":"address","internalType":"address"}],"outputs":[{"name":"","type":"uint256","internalType":"uint256"}],"stateMutability":"view"},{"type":"function","name":"issuanceRequesterByNonce","inputs":[{"name":"","type":"uint256","internalType":"uint256"}],"outputs":[{"name":"","type":"address","internalType":"address"}],"stateMutability":"view"},{"type":"function","name":"issuanceTokenPrimaryBalance","inputs":[{"name":"","type":"uint256","internalType":"uint256"},{"name":"","type":"address","internalType":"address"}],"outputs":[{"name":"","type":"uint256","internalType":"uint256"}],"stateMutability":"view"},{"type":"function","name":"issuer","inputs":[],"outputs":[{"name":"","type":"address","internalType":"contract IOrderProcessor"}],"stateMutability":"view"},{"type":"function","name":"lastUpdateTime","inputs":[],"outputs":[{"name":"","type":"uint256","internalType":"uint256"}],"stateMutability":"view"},{"type":"function","name":"latestFeeUpdate","inputs":[],"outputs":[{"name":"","type":"uint256","internalType":"uint256"}],"stateMutability":"view"},{"type":"function","name":"mockFillAssetsList","inputs":[{"name":"_tokens","type":"address[]","internalType":"address[]"},{"name":"_marketShares","type":"uint256[]","internalType":"uint256[]"}],"outputs":[],"stateMutability":"nonpayable"},{"type":"function","name":"oracleList","inputs":[{"name":"","type":"uint256","internalType":"uint256"}],"outputs":[{"name":"","type":"address","internalType":"address"}],"stateMutability":"view"},{"type":"function","name":"oraclePayment","inputs":[],"outputs":[{"name":"","type":"uint256","internalType":"uint256"}],"stateMutability":"view"},{"type":"function","name":"orderInstanceById","inputs":[{"name":"","type":"uint256","internalType":"uint256"}],"outputs":[{"name":"requestTimestamp","type":"uint64","internalType":"uint64"},{"name":"recipient","type":"address","internalType":"address"},{"name":"assetToken","type":"address","internalType":"address"},{"name":"paymentToken","type":"address","internalType":"address"},{"name":"sell","type":"bool","internalType":"bool"},{"name":"orderType","type":"uint8","internalType":"enum IOrderProcessor.OrderType"},{"name":"assetTokenQuantity","type":"uint256","internalType":"uint256"},{"name":"paymentTokenQuantity","type":"uint256","internalType":"uint256"},{"name":"price","type":"uint256","internalType":"uint256"},{"name":"tif","type":"uint8","internalType":"enum IOrderProcessor.TIF"}],"stateMutability":"view"},{"type":"function","name":"owner","inputs":[],"outputs":[{"name":"","type":"address","internalType":"address"}],"stateMutability":"view"},{"type":"function","name":"pause","inputs":[],"outputs":[],"stateMutability":"nonpayable"},{"type":"function","name":"paused","inputs":[],"outputs":[{"name":"","type":"bool","internalType":"bool"}],"stateMutability":"view"},{"type":"function","name":"redemption","inputs":[{"name":"_inputAmount","type":"uint256","internalType":"uint256"}],"outputs":[{"name":"","type":"uint256","internalType":"uint256"}],"stateMutability":"nonpayable"},{"type":"function","name":"redemptionIndexTokenPrimaryTotalSupply","inputs":[{"name":"","type":"uint256","internalType":"uint256"}],"outputs":[{"name":"","type":"uint256","internalType":"uint256"}],"stateMutability":"view"},{"type":"function","name":"redemptionIsCompleted","inputs":[{"name":"","type":"uint256","internalType":"uint256"}],"outputs":[{"name":"","type":"bool","internalType":"bool"}],"stateMutability":"view"},{"type":"function","name":"redemptionNonce","inputs":[],"outputs":[{"name":"","type":"uint256","internalType":"uint256"}],"stateMutability":"view"},{"type":"function","name":"redemptionRequestId","inputs":[{"name":"","type":"uint256","internalType":"uint256"},{"name":"","type":"address","internalType":"address"}],"outputs":[{"name":"","type":"uint256","internalType":"uint256"}],"stateMutability":"view"},{"type":"function","name":"redemptionRequesterByNonce","inputs":[{"name":"","type":"uint256","internalType":"uint256"}],"outputs":[{"name":"","type":"address","internalType":"address"}],"stateMutability":"view"},{"type":"function","name":"redemptionTokenPrimaryBalance","inputs":[{"name":"","type":"uint256","internalType":"uint256"},{"name":"","type":"address","internalType":"address"}],"outputs":[{"name":"","type":"uint256","internalType":"uint256"}],"stateMutability":"view"},{"type":"function","name":"renounceOwnership","inputs":[],"outputs":[],"stateMutability":"nonpayable"},{"type":"function","name":"requestAssetsData","inputs":[],"outputs":[{"name":"","type":"bytes32","internalType":"bytes32"}],"stateMutability":"nonpayable"},{"type":"function","name":"sellRequestAssetAmountById","inputs":[{"name":"","type":"uint256","internalType":"uint256"}],"outputs":[{"name":"","type":"uint256","internalType":"uint256"}],"stateMutability":"view"},{"type":"function","name":"setCustodianWallet","inputs":[{"name":"_custodianWallet","type":"address","internalType":"address"}],"outputs":[{"name":"","type":"bool","internalType":"bool"}],"stateMutability":"nonpayable"},{"type":"function","name":"setFeeRate","inputs":[{"name":"_newFee","type":"uint8","internalType":"uint8"}],"outputs":[],"stateMutability":"nonpayable"},{"type":"function","name":"setIssuer","inputs":[{"name":"_issuer","type":"address","internalType":"address"}],"outputs":[{"name":"","type":"bool","internalType":"bool"}],"stateMutability":"nonpayable"},{"type":"function","name":"setOracleInfo","inputs":[{"name":"_oracleAddress","type":"address","internalType":"address"},{"name":"_externalJobId","type":"bytes32","internalType":"bytes32"}],"outputs":[],"stateMutability":"nonpayable"},{"type":"function","name":"setTokenAddress","inputs":[{"name":"_token","type":"address","internalType":"address"}],"outputs":[{"name":"","type":"bool","internalType":"bool"}],"stateMutability":"nonpayable"},{"type":"function","name":"setUrl","inputs":[{"name":"_beforeAddress","type":"string","internalType":"string"},{"name":"_afterAddress","type":"string","internalType":"string"}],"outputs":[],"stateMutability":"nonpayable"},{"type":"function","name":"setUsdcAddress","inputs":[{"name":"_usdc","type":"address","internalType":"address"},{"name":"_usdcDecimals","type":"uint8","internalType":"uint8"}],"outputs":[{"name":"","type":"bool","internalType":"bool"}],"stateMutability":"nonpayable"},{"type":"function","name":"setWrappedDShareAddresses","inputs":[{"name":"_dShares","type":"address[]","internalType":"address[]"},{"name":"_wrappedDShares","type":"address[]","internalType":"address[]"}],"outputs":[],"stateMutability":"nonpayable"},{"type":"function","name":"token","inputs":[],"outputs":[{"name":"","type":"address","internalType":"contract IndexToken"}],"stateMutability":"view"},{"type":"function","name":"tokenCurrentListIndex","inputs":[{"name":"","type":"address","internalType":"address"}],"outputs":[{"name":"","type":"uint256","internalType":"uint256"}],"stateMutability":"view"},{"type":"function","name":"tokenCurrentMarketShare","inputs":[{"name":"","type":"address","internalType":"address"}],"outputs":[{"name":"","type":"uint256","internalType":"uint256"}],"stateMutability":"view"},{"type":"function","name":"tokenOracleListIndex","inputs":[{"name":"","type":"address","internalType":"address"}],"outputs":[{"name":"","type":"uint256","internalType":"uint256"}],"stateMutability":"view"},{"type":"function","name":"tokenOracleMarketShare","inputs":[{"name":"","type":"address","internalType":"address"}],"outputs":[{"name":"","type":"uint256","internalType":"uint256"}],"stateMutability":"view"},{"type":"function","name":"totalCurrentList","inputs":[],"outputs":[{"name":"","type":"uint256","internalType":"uint256"}],"stateMutability":"view"},{"type":"function","name":"totalOracleList","inputs":[],"outputs":[{"name":"","type":"uint256","internalType":"uint256"}],"stateMutability":"view"},{"type":"function","name":"transferOwnership","inputs":[{"name":"newOwner","type":"address","internalType":"address"}],"outputs":[],"stateMutability":"nonpayable"},{"type":"function","name":"unpause","inputs":[],"outputs":[],"stateMutability":"nonpayable"},{"type":"function","name":"usdc","inputs":[],"outputs":[{"name":"","type":"address","internalType":"address"}],"stateMutability":"view"},{"type":"function","name":"usdcDecimals","inputs":[],"outputs":[{"name":"","type":"uint8","internalType":"uint8"}],"stateMutability":"view"},{"type":"function","name":"vault","inputs":[],"outputs":[{"name":"","type":"address","internalType":"contract NexVault"}],"stateMutability":"view"},{"type":"function","name":"wrappedDshareAddress","inputs":[{"name":"","type":"address","internalType":"address"}],"outputs":[{"name":"","type":"address","internalType":"address"}],"stateMutability":"view"},{"type":"event","name":"ChainlinkCancelled","inputs":[{"name":"id","type":"bytes32","indexed":true,"internalType":"bytes32"}],"anonymous":false},{"type":"event","name":"ChainlinkFulfilled","inputs":[{"name":"id","type":"bytes32","indexed":true,"internalType":"bytes32"}],"anonymous":false},{"type":"event","name":"ChainlinkRequested","inputs":[{"name":"id","type":"bytes32","indexed":true,"internalType":"bytes32"}],"anonymous":false},{"type":"event","name":"Initialized","inputs":[{"name":"version","type":"uint64","indexed":false,"internalType":"uint64"}],"anonymous":false},{"type":"event","name":"OwnershipTransferred","inputs":[{"name":"previousOwner","type":"address","indexed":true,"internalType":"address"},{"name":"newOwner","type":"address","indexed":true,"internalType":"address"}],"anonymous":false},{"type":"event","name":"Paused","inputs":[{"name":"account","type":"address","indexed":false,"internalType":"address"}],"anonymous":false},{"type":"event","name":"Unpaused","inputs":[{"name":"account","type":"address","indexed":false,"internalType":"address"}],"anonymous":false},{"type":"error","name":"EnforcedPause","inputs":[]},{"type":"error","name":"ExpectedPause","inputs":[]},{"type":"error","name":"InvalidInitialization","inputs":[]},{"type":"error","name":"NotInitializing","inputs":[]},{"type":"error","name":"OwnableInvalidOwner","inputs":[{"name":"owner","type":"address","internalType":"address"}]},{"type":"error","name":"OwnableUnauthorizedAccount","inputs":[{"name":"account","type":"address","internalType":"address"}]},{"type":"error","name":"PRBMath_MulDiv_Overflow","inputs":[{"name":"x","type":"uint256","internalType":"uint256"},{"name":"y","type":"uint256","internalType":"uint256"},{"name":"denominator","type":"uint256","internalType":"uint256"}]}],"bytecode":{"object":"0x6080604052348015600f57600080fd5b506160ff8061001f6000396000f3fe608060405234801561001057600080fd5b506004361061045f5760003560e01c80638861d2351161024c578063b0e1213411610146578063daf1c17d116100c3578063f1f31d6611610087578063f1f31d6614610c0a578063f2fde38b14610c2a578063f513a71814610c3d578063fbfa77cf14610c68578063fc0c546a14610c7b57600080fd5b8063daf1c17d14610b9e578063e19eefbe14610bbe578063eab2a71114610bd1578063efa906c714610be4578063f14bea2014610bf757600080fd5b8063b75f4c2c1161010a578063b75f4c2c14610b25578063bed45bef14610b4e578063c8599ded14610b61578063c8f33c9114610b6a578063da65925a14610b7357600080fd5b8063b0e1213414610aa9578063b1dd819e14610abc578063b411dc4114610adc578063b46840f914610aef578063b592662a14610b1257600080fd5b80639932ba4c116101d4578063a84ebc1711610198578063a84ebc1714610a2a578063a87f98d214610a4d578063a8b54bd414610a6d578063ab7820b214610a76578063addc70d114610a9657600080fd5b80639932ba4c146109a75780639cc0fb5b146109d05780639dbb9c9e146109e3578063a363b9cb146109ec578063a73e1cbf14610a1757600080fd5b80639026544f1161021b5780639026544f14610924578063914f0cc6146109375780639219e51014610957578063946740981461096a578063978bbdb91461099357600080fd5b80638861d235146108895780638c221899146108a95780638c88c10c146108d45780638da5cb5b146108f457600080fd5b806343482fc81161035d578063715018a6116102e55780637ca58c55116102a95780637ca58c551461084a578063807ca23714610852578063840ecba0146108655780638456cb591461087857806384d77bb11461088057600080fd5b8063715018a6146107ad57806376529fdf146107b557806378032658146107d85780637bf42165146108015780637bfa27f21461082757600080fd5b80635177942a1161032c5780635177942a1461075357806353fd43321461076657806355cc4e571461076f5780635c975abb14610782578063631c83851461079a57600080fd5b806343482fc8146106fa57806346d66a2c1461070d5780634a1dc092146107205780634b3e0b801461073357600080fd5b80631e106e99116103eb57806326a4e8d2116103af57806326a4e8d21461068e57806331c99010146106a15780633e413bee146106ca5780633f4ba83a146106dd5780633fac0922146106e757600080fd5b80631e106e99146106035780632343acb414610616578063239aad0d14610629578063248b761e14610652578063264fa8b91461066557600080fd5b80630be52713116104325780630be527131461050f5780630c02e1301461052f5780630e3293571461053857806315e666a2146105585780631d143848146105f057600080fd5b8063011ced5f1461046457806302e80f7114610480578063092755e0146104ab5780630b1a4918146104ec575b600080fd5b61046d602f5481565b6040519081526020015b60405180910390f35b61046d61048e3660046151c5565b601e60209081526000928352604080842090915290825290205481565b6104d46104b93660046151f1565b600f602052600090815260409020546001600160a01b031681565b6040516001600160a01b039091168152602001610477565b6104ff6104fa36600461520c565b610c8e565b6040519015158152602001610477565b61046d61051d3660046151f1565b60126020526000908152604090205481565b61046d60095481565b61054b6105463660046152da565b610d6f565b604051610477919061538d565b6105da61056636600461520c565b602e6020526000908152604090208054600182015460028301546003840154600485015460058601546006909601546001600160401b038616966001600160a01b03600160401b9097048716969586169585169460ff600160a01b8204811695600160a81b9092048116949193919291168a565b6040516104779a999897969594939291906153da565b601a546104d4906001600160a01b031681565b6019546104d4906001600160a01b031681565b6104ff61062436600461520c565b610d9c565b6104d461063736600461520c565b600d602052600090815260409020546001600160a01b031681565b61046d61066036600461520c565b610e91565b61046d6106733660046151c5565b60208080526000928352604080842090915290825290205481565b6104ff61069c3660046151f1565b611286565b6104d46106af36600461520c565b602a602052600090815260409020546001600160a01b031681565b601b546104d4906001600160a01b031681565b6106e5611307565b005b6104ff6106f536600461520c565b611319565b6106e561070836600461544f565b6113f6565b6106e561071b36600461520c565b61140d565b61046d61072e36600461520c565b611916565b61046d6107413660046151f1565b60136020526000908152604090205481565b6106e561076136600461548a565b611d66565b61046d600c5481565b6104ff61077d3660046151f1565b611eb0565b6000805160206160aa8339815191525460ff166104ff565b6104ff6107a836600461520c565b611f2e565b6106e56121e1565b6104ff6107c336600461520c565b60156020526000908152604090205460ff1681565b6104d46107e636600461520c565b6029602052600090815260409020546001600160a01b031681565b601b5461081590600160a01b900460ff1681565b60405160ff9091168152602001610477565b6104ff61083536600461520c565b602c6020526000908152604090205460ff1681565b61046d6121f3565b6106e561086036600461520c565b612433565b6106e561087336600461520c565b6125ce565b6106e561279f565b61046d601d5481565b61046d61089736600461520c565b60226020526000908152604090205481565b61046d6108b73660046151c5565b601f60209081526000928352604080842090915290825290205481565b61046d6108e23660046151f1565b60106020526000908152604090205481565b7f9016d09d72d40fdae2fd8ceac6b6234c7706214fd39c1cd1e609a0528c199300546001600160a01b03166104d4565b6106e561093236600461520c565b6127af565b61046d6109453660046151f1565b60116020526000908152604090205481565b6106e561096536600461520c565b612a68565b6104d461097836600461520c565b6028602052600090815260409020546001600160a01b031681565b601b5461081590600160a81b900460ff1681565b6104d46109b536600461520c565b600e602052600090815260409020546001600160a01b031681565b6104ff6109de3660046151f1565b612e2a565b61046d601c5481565b61046d6109fa3660046151c5565b602560209081526000928352604080842090915290825290205481565b6106e5610a253660046152da565b612eaf565b6104ff610a3836600461520c565b60146020526000908152604090205460ff1681565b61046d610a5b36600461520c565b60236020526000908152604090205481565b61046d60085481565b61046d610a8436600461520c565b60166020526000908152604090205481565b6106e5610aa436600461559d565b612ed5565b6104ff610ab736600461520c565b612eeb565b61046d610aca36600461520c565b60266020526000908152604090205481565b6106e5610aea3660046155f6565b612fc2565b6104ff610afd36600461520c565b602d6020526000908152604090205460ff1681565b6104ff610b2036600461520c565b613093565b6104d4610b3336600461520c565b602b602052600090815260409020546001600160a01b031681565b6106e5610b5c36600461520c565b613347565b61046d600b5481565b61046d600a5481565b61046d610b813660046151c5565b602460209081526000928352604080842090915290825290205481565b61046d610bac36600461520c565b60276020526000908152604090205481565b61046d610bcc36600461520c565b613870565b6104ff610bdf36600461564f565b613987565b6106e5610bf2366004615679565b613a10565b6106e5610c05366004615709565b613c8f565b610c1d610c1836600461520c565b613d55565b6040516104779190615775565b6106e5610c383660046151f1565b613e5b565b61046d610c4b3660046151c5565b602160209081526000928352604080842090915290825290205481565b6018546104d4906001600160a01b031681565b6017546104d4906001600160a01b031681565b6000805b600c54811015610d66576000818152600e6020908152604080832054868452602183528184206001600160a01b0391821680865293529281902054601a5491516322fd455760e11b81526004810182905292939092600192909116906345fa8aae90602401602060405180830381865afa158015610d14573d6000803e3d6000fd5b505050506040513d601f19601f82011682018060405250810190610d38919061583a565b6003811115610d4957610d496153a0565b60ff1603610d5c57506001949350505050565b5050600101610c92565b50600092915050565b60608282604051602001610d8492919061585b565b60405160208183030381529060405290505b92915050565b60008060005b600c54811015610e78576000818152600e60209081526040808320548784528280528184206001600160a01b0391821680865293529281902054601a5491516322fd455760e11b81526004810182905292939092600292909116906345fa8aae90602401602060405180830381865afa158015610e23573d6000803e3d6000fd5b505050506040513d601f19601f82011682018060405250810190610e47919061583a565b6003811115610e5857610e586153a0565b60ff1603610e6e57610e6b6001856158a0565b93505b5050600101610da2565b50600c548103610d665750600192915050565b50919050565b600080610e9d83613870565b90506000610eab84836158a0565b601b546040516323b872dd60e01b81529192506001600160a01b0316906323b872dd90610ee0903390309086906004016158b3565b6020604051808303816000875af1158015610eff573d6000803e3d6000fd5b505050506040513d601f19601f82011682018060405250810190610f2391906158d7565b50601b54601a5460405163095ea7b360e01b81526001600160a01b0391821660048201526024810184905291169063095ea7b3906044016020604051808303816000875af1158015610f79573d6000803e3d6000fd5b505050506040513d601f19601f82011682018060405250810190610f9d91906158d7565b506001601c6000828254610fb191906158a0565b92505081905550600030604051610fc790615103565b6001600160a01b039091168152602001604051809103906000f080158015610ff3573d6000803e3d6000fd5b50601c546000908152602a6020526040812080546001600160a01b0319166001600160a01b0384161790559091505b600c54811015611279576000818152600e60209081526040808320546001600160a01b0316808452601290925282205490919068056bc75e2d631000009061106a908a6158f9565b6110749190615926565b90506000611083838387613e99565b6000818152602260209081526040808320869055601c805484528280528184206001600160a01b03898116808752918552838620879055915485526028845282852080546001600160a01b031916331790558452600f9092528083205460185491516370a0823160e01b81529183166004830152939450919216906370a0823190602401602060405180830381865afa158015611124573d6000803e3d6000fd5b505050506040513d601f19601f82011682018060405250810190611148919061593a565b6001600160a01b038581166000908152600f602052604080822054905163266d6a8360e11b8152600481018590529394509092911690634cdad50690602401602060405180830381865afa1580156111a4573d6000803e3d6000fd5b505050506040513d601f19601f820116820180604052508101906111c8919061593a565b601c5460009081526024602090815260408083206001600160a01b03808b1685529083529281902084905560175481516318160ddd60e01b81529151949550909216926318160ddd9260048082019392918290030181865afa158015611232573d6000803e3d6000fd5b505050506040513d601f19601f82011682018060405250810190611256919061593a565b601c54600090815260266020526040902055505060019093019250611022915050565b5050601c54949350505050565b6000611290614112565b6001600160a01b0382166112e35760405162461bcd60e51b8152602060048201526015602482015274696e76616c696420746f6b656e206164647265737360581b60448201526064015b60405180910390fd5b50601780546001600160a01b0319166001600160a01b03831617905560015b919050565b61130f614112565b61131761416d565b565b60008060005b600c54811015610e78576000818152600e6020908152604080832054878452602183528184206001600160a01b0391821680865293529281902054601a5491516322fd455760e11b81526004810182905292939092600292909116906345fa8aae90602401602060405180830381865afa1580156113a1573d6000803e3d6000fd5b505050506040513d601f19601f820116820180604052508101906113c5919061583a565b60038111156113d6576113d66153a0565b60ff16036113ec576113e96001856158a0565b93505b505060010161131f565b6113fe614112565b611407826141cd565b60085550565b60008181526014602052604090205460ff16156114645760405162461bcd60e51b8152602060048201526015602482015274125cdcdd585b98d9481a5cc818dbdb5c1b195d1959605a1b60448201526064016112da565b600081815260286020908152604080832054602a909252909120546001600160a01b0391821691163382146114ea5760405162461bcd60e51b815260206004820152602660248201527f4f6e6c79207265717565737465722063616e2063616e63656c207468652069736044820152657375616e636560d01b60648201526084016112da565b60005b600c54811015611910576000818152600e60209081526040808320548784528280528184206001600160a01b0391821680865290845282852054808652602e855283862084516101408101865281546001600160401b0381168252600160401b90048516968101969096526001818101548516958701959095526002810154938416606087015260ff600160a01b85048116151560808801529296919591949193909260a0850192600160a81b90920416908111156115ae576115ae6153a0565b60018111156115bf576115bf6153a0565b815260038281015460208301526004830154604083015260058301546060830152600683015460809092019160ff16908111156115fe576115fe6153a0565b600381111561160f5761160f6153a0565b905250601a546040516322fd455760e11b8152600481018590529192506001916001600160a01b03909116906345fa8aae90602401602060405180830381865afa158015611661573d6000803e3d6000fd5b505050506040513d601f19601f82011682018060405250810190611685919061583a565b6003811115611696576116966153a0565b60ff160361170157601a546040516339a0e8b560e21b8152600481018490526001600160a01b039091169063e683a2d490602401600060405180830381600087803b1580156116e457600080fd5b505af11580156116f8573d6000803e3d6000fd5b50505050611905565b601a546040516322fd455760e11b8152600481018490526002916001600160a01b0316906345fa8aae90602401602060405180830381865afa15801561174b573d6000803e3d6000fd5b505050506040513d601f19601f8201168201806040525081019061176f919061583a565b6003811115611780576117806153a0565b60ff1614806117fa57506040516370a0823160e01b81526001600160a01b038681166004830152600091908516906370a0823190602401602060405180830381865afa1580156117d4573d6000803e3d6000fd5b505050506040513d601f19601f820116820180604052508101906117f8919061593a565b115b15611905576040516370a0823160e01b81526001600160a01b038681166004830152600091908516906370a0823190602401602060405180830381865afa158015611849573d6000803e3d6000fd5b505050506040513d601f19601f8201168201806040525081019061186d919061593a565b6040516317ee7de960e11b81529091506001600160a01b03871690632fdcfbd2906118a0908790309086906004016158b3565b600060405180830381600087803b1580156118ba57600080fd5b505af11580156118ce573d6000803e3d6000fd5b5050505060006118df8583896141ef565b60008a8152601e602090815260408083206001600160a01b038a16845290915290205550505b5050506001016114ed565b50505050565b60006001601d600082825461192b91906158a0565b9250508190555060003060405161194190615103565b6001600160a01b039091168152602001604051809103906000f08015801561196d573d6000803e3d6000fd5b50601d546000908152602b6020908152604080832080546001600160a01b0319166001600160a01b038681169190911790915560175482516318160ddd60e01b8152925195965093949316926318160ddd926004808401939192918290030181865afa1580156119e1573d6000803e3d6000fd5b505050506040513d601f19601f82011682018060405250810190611a05919061593a565b611a1785670de0b6b3a76400006158f9565b611a219190615926565b601754604051632770a7eb60e21b8152336004820152602481018790529192506001600160a01b031690639dc29fac90604401600060405180830381600087803b158015611a6e57600080fd5b505af1158015611a82573d6000803e3d6000fd5b5050601d5460009081526016602052604081208790559150505b600c54811015611d5a576000818152600e60209081526040808320546001600160a01b03908116808552600f9093528184205460185492516370a0823160e01b81529282166004840152929392670de0b6b3a7640000929116906370a0823190602401602060405180830381865afa158015611b1c573d6000803e3d6000fd5b505050506040513d601f19601f82011682018060405250810190611b40919061593a565b611b4a90866158f9565b611b549190615926565b90506000611b638383886141ef565b6000818152602360209081526040808320869055601d80548452602183528184206001600160a01b03898116808752918552838620879055915485526029845282852080546001600160a01b031916331790558452600f9092528083205460185491516370a0823160e01b81529183166004830152939450919216906370a0823190602401602060405180830381865afa158015611c05573d6000803e3d6000fd5b505050506040513d601f19601f82011682018060405250810190611c29919061593a565b6001600160a01b038581166000908152600f602052604080822054905163266d6a8360e11b8152600481018590529394509092911690634cdad50690602401602060405180830381865afa158015611c85573d6000803e3d6000fd5b505050506040513d601f19601f82011682018060405250810190611ca9919061593a565b601d5460009081526025602090815260408083206001600160a01b03808b1685529083529281902084905560175481516318160ddd60e01b81529151949550909216926318160ddd9260048082019392918290030181865afa158015611d13573d6000803e3d6000fd5b505050506040513d601f19601f82011682018060405250810190611d37919061593a565b601d54600090815260276020526040902055505060019093019250611a9c915050565b5050601d549392505050565b611d6e614112565b6000602f5442611d7e9190615953565b9050600c603c611d8e8184615926565b611d989190615926565b11611e0b5760405162461bcd60e51b815260206004820152603960248201527f596f752073686f756c642077616974206174206c6561737420313220686f757260448201527f7320616674657220746865206c6174657374207570646174650000000000000060648201526084016112da565b60648260ff1611158015611e23575060018260ff1610155b611e8b5760405162461bcd60e51b815260206004820152603360248201527f546865206e65774665652073686f756c64206265206265747765656e203120616044820152726e64203130302028302e303125202d2031252960681b60648201526084016112da565b50601b805460ff909216600160a81b0260ff60a81b1990921691909117905542602f55565b6000611eba614112565b6001600160a01b038216611f095760405162461bcd60e51b8152602060048201526016602482015275696e76616c696420697373756572206164647265737360501b60448201526064016112da565b50601a80546001600160a01b0383166001600160a01b03199091161790556001919050565b60008060005b600c54811015610e78576000818152600e60209081526040808320548784528280528184206001600160a01b0391821680865290845282852054898652602a9094528285205492516370a0823160e01b815292909116600483018190529093909184906370a0823190602401602060405180830381865afa158015611fbd573d6000803e3d6000fd5b505050506040513d601f19601f82011682018060405250810190611fe1919061593a565b601a546040516322fd455760e11b8152600481018690529192506003916001600160a01b03909116906345fa8aae90602401602060405180830381865afa158015612030573d6000803e3d6000fd5b505050506040513d601f19601f82011682018060405250810190612054919061583a565b6003811115612065576120656153a0565b60ff16148015612073575080155b1561208a576120836001876158a0565b95506121d1565b601a546040516322fd455760e11b8152600481018590526002916001600160a01b0316906345fa8aae90602401602060405180830381865afa1580156120d4573d6000803e3d6000fd5b505050506040513d601f19601f820116820180604052508101906120f8919061583a565b6003811115612109576121096153a0565b60ff16148015612117575080155b156121d1576000888152601e602090815260408083206001600160a01b03888116855292529182902054601a5492516322fd455760e11b815260048101829052909260029216906345fa8aae90602401602060405180830381865afa158015612184573d6000803e3d6000fd5b505050506040513d601f19601f820116820180604052508101906121a8919061583a565b60038111156121b9576121b96153a0565b60ff16036121cf576121cc6001886158a0565b96505b505b505060019092019150611f349050565b6121e9614112565b6113176000614523565b6000806123146006805461220690615966565b80601f016020809104026020016040519081016040528092919081815260200182805461223290615966565b801561227f5780601f106122545761010080835404028352916020019161227f565b820191906000526020600020905b81548152906001019060200180831161226257829003601f168201915b50505050506007805461229190615966565b80601f01602080910402602001604051908101604052809291908181526020018280546122bd90615966565b801561230a5780601f106122df5761010080835404028352916020019161230a565b820191906000526020600020905b8154815290600101906020018083116122ed57829003601f168201915b5050505050610d6f565b9050600061232c6008543063f14bea2060e01b614594565b60408051808201909152600381526219d95d60ea1b6020820152909150612355908290846145b9565b6123b060405180604001604052806005815260200164706174683160d81b81525060405180604001604052806011815260200170726573756c74732c61646472657373657360781b815250836145b99092919063ffffffff16565b61240e604051806040016040528060058152602001643830ba341960d91b81525060405180604001604052806014815260200173726573756c74732c6d61726b657453686172657360601b815250836145b99092919063ffffffff16565b61242c6124236003546001600160a01b031690565b826009546145d7565b9250505090565b61243c81611f2e565b6124885760405162461bcd60e51b815260206004820181905260248201527f43616e63656c2069737375616e6365206973206e6f7420636f6d706c6574656460448201526064016112da565b6000818152602c602052604090205460ff16156124b75760405162461bcd60e51b81526004016112da9061599a565b600081815260286020908152604080832054602a90925280832054601b5491516370a0823160e01b81526001600160a01b0391821660048201819052938216949291909116906370a0823190602401602060405180830381865afa158015612523573d6000803e3d6000fd5b505050506040513d601f19601f82011682018060405250810190612547919061593a565b601b546040516317ee7de960e11b81529192506001600160a01b0380851692632fdcfbd29261257e921690879086906004016158b3565b600060405180830381600087803b15801561259857600080fd5b505af11580156125ac573d6000803e3d6000fd5b50505060009485525050602c602052505060409020805460ff19166001179055565b6125d781611319565b61262f5760405162461bcd60e51b815260206004820152602360248201527f526564656d7074696f6e206f726465727320617265206e6f7420636f6d706c656044820152621d195960ea1b60648201526084016112da565b60008181526015602052604090205460ff16156126885760405162461bcd60e51b8152602060048201526017602482015276149959195b5c1d1a5bdb881a5cc818dbdb5c1b195d1959604a1b60448201526064016112da565b600081815260296020908152604080832054602b90925280832054601b5491516370a0823160e01b81526001600160a01b0391821660048201819052938216949291909116906370a0823190602401602060405180830381865afa1580156126f4573d6000803e3d6000fd5b505050506040513d601f19601f82011682018060405250810190612718919061593a565b601b546040516317ee7de960e11b81529192506001600160a01b0380851692632fdcfbd29261274f921690879086906004016158b3565b600060405180830381600087803b15801561276957600080fd5b505af115801561277d573d6000803e3d6000fd5b505050600094855250506015602052505060409020805460ff19166001179055565b6127a7614112565b61131761466a565b6127b881613093565b61280f5760405162461bcd60e51b815260206004820152602260248201527f43616e63656c20726564656d7074696f6e206973206e6f7420636f6d706c6574604482015261195960f21b60648201526084016112da565b6000818152602d602052604090205460ff161561283e5760405162461bcd60e51b81526004016112da9061599a565b600081815260296020908152604080832054602b90925280832054601b5491516370a0823160e01b81526001600160a01b0391821660048201819052938216949291909116906370a0823190602401602060405180830381865afa1580156128aa573d6000803e3d6000fd5b505050506040513d601f19601f820116820180604052508101906128ce919061593a565b905060005b600c548110156129d3576000818152600e60205260408082205490516370a0823160e01b81526001600160a01b038681166004830152909116919082906370a0823190602401602060405180830381865afa158015612936573d6000803e3d6000fd5b505050506040513d601f19601f8201168201806040525081019061295a919061593a565b905080156129c9576018546040516317ee7de960e11b81526001600160a01b0380881692632fdcfbd292612996928792169086906004016158b3565b600060405180830381600087803b1580156129b057600080fd5b505af11580156129c4573d6000803e3d6000fd5b505050505b50506001016128d3565b50601754600085815260166020526040908190205490516340c10f1960e01b81526001600160a01b03868116600483015260248201929092529116906340c10f1990604401600060405180830381600087803b158015612a3257600080fd5b505af1158015612a46573d6000803e3d6000fd5b50505060009485525050602d602052505060409020805460ff19166001179055565b60008181526015602052604090205460ff1615612ac15760405162461bcd60e51b8152602060048201526017602482015276149959195b5c1d1a5bdb881a5cc818dbdb5c1b195d1959604a1b60448201526064016112da565b600081815260296020908152604080832054602b909252909120546001600160a01b039182169116338214612b495760405162461bcd60e51b815260206004820152602860248201527f4f6e6c79207265717565737465722063616e2063616e63656c207468652072656044820152673232b6b83a34b7b760c11b60648201526084016112da565b60005b600c54811015611910576000818152600e6020908152604080832054878452602183528184206001600160a01b0391821680865290845282852054808652602e855283862084516101408101865281546001600160401b0381168252600160401b90048516968101969096526001818101548516958701959095526002810154938416606087015260ff600160a01b85048116151560808801529296919591949193909260a0850192600160a81b9092041690811115612c0e57612c0e6153a0565b6001811115612c1f57612c1f6153a0565b815260038281015460208301526004830154604083015260058301546060830152600683015460809092019160ff1690811115612c5e57612c5e6153a0565b6003811115612c6f57612c6f6153a0565b905250601a5460405163187b2ed160e21b8152600481018590529192506000916001600160a01b03909116906361ecbb4490602401602060405180830381865afa158015612cc1573d6000803e3d6000fd5b505050506040513d601f19601f82011682018060405250810190612ce5919061593a565b601a546040516322fd455760e11b8152600481018690529192506002916001600160a01b03909116906345fa8aae90602401602060405180830381865afa158015612d34573d6000803e3d6000fd5b505050506040513d601f19601f82011682018060405250810190612d58919061583a565b6003811115612d6957612d696153a0565b60ff161480612d785750600081115b15612e1a57601b546040516317ee7de960e11b81526001600160a01b0388811692632fdcfbd292612db39290911690309086906004016158b3565b600060405180830381600087803b158015612dcd57600080fd5b505af1158015612de1573d6000803e3d6000fd5b505050506000612df2858389613e99565b50506000888152601f602090815260408083206001600160a01b038816845290915290208390555b505060019092019150612b4c9050565b6000612e34614112565b6001600160a01b038216612e8a5760405162461bcd60e51b815260206004820181905260248201527f696e76616c696420637573746f6469616e2077616c6c6574206164647265737360448201526064016112da565b50601980546001600160a01b0383166001600160a01b03199091161790556001919050565b612eb7614112565b6006612ec38382615a2f565b506007612ed08282615a2f565b505050565b612edd614112565b612ee782826146b3565b5050565b6000805b600c54811015610d66576000818152600e60209081526040808320548684528280528184206001600160a01b0391821680865293529281902054601a5491516322fd455760e11b81526004810182905292939092600192909116906345fa8aae90602401602060405180830381865afa158015612f70573d6000803e3d6000fd5b505050506040513d601f19601f82011682018060405250810190612f94919061583a565b6003811115612fa557612fa56153a0565b60ff1603612fb857506001949350505050565b5050600101612eef565b612fca614112565b80518251146130135760405162461bcd60e51b8152602060048201526015602482015274082e4e4c2f240d8cadccee8d040dad2e6dac2e8c6d605b1b60448201526064016112da565b60005b8251811015612ed05781818151811061303157613031615aee565b6020026020010151600f600085848151811061304f5761304f615aee565b6020908102919091018101516001600160a01b0390811683529082019290925260400160002080546001600160a01b03191692909116919091179055600101613016565b60008060005b600c54811015610e78576000818152600e6020908152604080832054878452602183528184206001600160a01b0391821680865290845282852054898652602b9094528285205492516370a0823160e01b815292909116600483018190529093909184906370a0823190602401602060405180830381865afa158015613123573d6000803e3d6000fd5b505050506040513d601f19601f82011682018060405250810190613147919061593a565b601a546040516322fd455760e11b8152600481018690529192506003916001600160a01b03909116906345fa8aae90602401602060405180830381865afa158015613196573d6000803e3d6000fd5b505050506040513d601f19601f820116820180604052508101906131ba919061583a565b60038111156131cb576131cb6153a0565b60ff161480156131d9575080155b156131f0576131e96001876158a0565b9550613337565b601a546040516322fd455760e11b8152600481018590526002916001600160a01b0316906345fa8aae90602401602060405180830381865afa15801561323a573d6000803e3d6000fd5b505050506040513d601f19601f8201168201806040525081019061325e919061583a565b600381111561326f5761326f6153a0565b60ff1614801561327d575080155b15613337576000888152601f602090815260408083206001600160a01b03888116855292529182902054601a5492516322fd455760e11b815260048101829052909260029216906345fa8aae90602401602060405180830381865afa1580156132ea573d6000803e3d6000fd5b505050506040513d601f19601f8201168201806040525081019061330e919061583a565b600381111561331f5761331f6153a0565b60ff1603613335576133326001886158a0565b96505b505b5050600190920191506130999050565b61335081610d9c565b61339c5760405162461bcd60e51b815260206004820152601860248201527f4f726465727320617265206e6f7420636f6d706c65746564000000000000000060448201526064016112da565b60008181526014602052604090205460ff16156133f35760405162461bcd60e51b8152602060048201526015602482015274125cdcdd585b98d9481a5cc818dbdb5c1b195d1959605a1b60448201526064016112da565b6000818152602860205260408120546001600160a01b03169080805b600c5481101561372a576000818152600e60209081526040808320548884528280528184206001600160a01b03918216808652935281842054601a54601b54935163a377cfbf60e01b815260048101869052938316602485015293949093909291169063a377cfbf906044016040805180830381865afa158015613497573d6000803e3d6000fd5b505050506040513d601f19601f820116820180604052508101906134bb9190615b04565b6000898152602a60205260408082205490516370a0823160e01b81526001600160a01b0391821660048201819052939450908616906370a0823190602401602060405180830381865afa158015613516573d6000803e3d6000fd5b505050506040513d601f19601f8201168201806040525081019061353a919061593a565b60008b81526024602090815260408083206001600160a01b038a16845290915281205485519293509161356d90836158f9565b6000878152602260205260408120549192509061358a90836158a0565b9050613596828c6158a0565b9a506135a2818b6158a0565b6040516317ee7de960e11b8152909a506001600160a01b03861690632fdcfbd2906135d5908b90309089906004016158b3565b600060405180830381600087803b1580156135ef57600080fd5b505af1158015613603573d6000803e3d6000fd5b505050506001600160a01b038881166000818152600f60205260409081902054905163095ea7b360e01b815292166004830152602482018690529063095ea7b3906044016020604051808303816000875af1158015613666573d6000803e3d6000fd5b505050506040513d601f19601f8201168201806040525081019061368a91906158d7565b506001600160a01b038881166000908152600f602052604090819020546018549151636e553f6560e01b815260048101889052918316602483015290911690636e553f65906044016020604051808303816000875af11580156136f1573d6000803e3d6000fd5b505050506040513d601f19601f82011682018060405250810190613715919061593a565b50506001909701965061340f95505050505050565b50600084815260266020526040812054908190036137bd57600061374f8360646158f9565b6017546040516340c10f1960e01b81526001600160a01b038881166004830152602482018490529293509116906340c10f1990604401600060405180830381600087803b15801561379f57600080fd5b505af11580156137b3573d6000803e3d6000fd5b505050505061384d565b6000836137ca84846158f9565b6137d49190615926565b905060006137e28383615953565b6017546040516340c10f1960e01b81526001600160a01b038981166004830152602482018490529293509116906340c10f1990604401600060405180830381600087803b15801561383257600080fd5b505af1158015613846573d6000803e3d6000fd5b5050505050505b5050601c546000908152601460205260409020805460ff19166001179055505050565b60008060005b600c54811015613980576000818152600e60209081526040808320546001600160a01b0316808452601290925282205490919068056bc75e2d63100000906138be90886158f9565b6138c89190615926565b601a54601b546040516308da5c3560e21b81526000600482018190526001600160a01b0392831660248301529394508392919091169063236970d4906044016040805180830381865afa158015613923573d6000803e3d6000fd5b505050506040513d601f19601f820116820180604052508101906139479190615b63565b91509150600061395782856148d4565b61396190846158a0565b905061396d81886158a0565b9650506001909401935061387692505050565b5092915050565b6000613991614112565b6001600160a01b0383166139df5760405162461bcd60e51b8152602060048201526015602482015274696e76616c696420746f6b656e206164647265737360581b60448201526064016112da565b50601b805460ff8316600160a01b026001600160a81b03199091166001600160a01b03851617179055600192915050565b7ff0c57e16840df040f15088dc2f81fe391c3923bec73e23a9662efc9c229c6a008054600160401b810460ff1615906001600160401b0316600081158015613a555750825b90506000826001600160401b03166001148015613a715750303b155b905081158015613a7f575080155b15613a9d5760405163f92ee8a960e01b815260040160405180910390fd5b845467ffffffffffffffff191660011785558315613ac757845460ff60401b1916600160401b1785555b8c601a60006101000a8154816001600160a01b0302191690836001600160a01b031602179055508b601760006101000a8154816001600160a01b0302191690836001600160a01b031602179055508a601860006101000a8154816001600160a01b0302191690836001600160a01b0316021790555089601b60006101000a8154816001600160a01b0302191690836001600160a01b0316021790555088601b60146101000a81548160ff021916908360ff160217905550613b87336148fd565b613b8f61490e565b601b805460ff60a81b1916600560a91b179055600280546001600160a01b0319166001600160a01b038a16179055613bc6876141cd565b6008869055600a613be0670de0b6b3a764000060016158f9565b613bea9190615926565b6009556040805160608101909152602a8082526160526020830139600690613c129082615a2f565b506040518060600160405280602e815260200161607c602e9139600790613c399082615a2f565b508315613c8057845460ff60401b19168555604051600181527fc7f505b2f371ae2175ee4913f4499e1f2633a7b5936321eed1cdaeb6115181d29060200160405180910390a15b50505050505050505050505050565b60008381526005602052604090205483906001600160a01b03163314613d085760405162461bcd60e51b815260206004820152602860248201527f536f75726365206d75737420626520746865206f7261636c65206f6620746865604482015267081c995c5d595cdd60c21b60648201526084016112da565b60008181526005602052604080822080546001600160a01b03191690555182917f7cc135e0cebb02c3480ae5d74d377283180a2601f8f644edf7987b009316c63a91a261191083836146b3565b613d5d615110565b6000828152602e602090815260409182902082516101408101845281546001600160401b03811682526001600160a01b03600160401b9091048116938201939093526001808301548416948201949094526002820154928316606082015260ff600160a01b84048116151560808301529093919260a0850192600160a81b90910490911690811115613df157613df16153a0565b6001811115613e0257613e026153a0565b815260038281015460208301526004830154604083015260058301546060830152600683015460809092019160ff1690811115613e4157613e416153a0565b6003811115613e5257613e526153a0565b90525092915050565b613e63614112565b6001600160a01b038116613e8d57604051631e4fbdf760e01b8152600060048201526024016112da565b613e9681614523565b50565b601a54601b546040516308da5c3560e21b81526000600482018190526001600160a01b039283166024830152928392839291169063236970d4906044016040805180830381865afa158015613ef2573d6000803e3d6000fd5b505050506040513d601f19601f82011682018060405250810190613f169190615b63565b915091506000613f2682876148d4565b613f3090846158a0565b90506000613f3e600061491e565b6001600160a01b0380881660208301528916604082015260e0810188905290506000613f6a83896158a0565b601a5460405163aa2165f160e01b81529192506000916001600160a01b039091169063aa2165f190613fa0908690600401615775565b6020604051808303816000875af1158015613fbf573d6000803e3d6000fd5b505050506040513d601f19601f82011682018060405250810190613fe3919061593a565b6000818152602e602090815260409182902086518154928801516001600160401b039091166001600160e01b031990931692909217600160401b6001600160a01b039384160217815591860151600180840180546001600160a01b03191692841692909217909155606087015160028401805460808a0151929094166001600160a81b031990941693909317600160a01b911515919091021780835560a08801519495508794929160ff60a81b1990911690600160a81b9084908111156140ac576140ac6153a0565b021790555060c0820151816003015560e0820151816004015561010082015181600501556101208201518160060160006101000a81548160ff021916908360038111156140fb576140fb6153a0565b0217905550919750505050505050505b9392505050565b336141447f9016d09d72d40fdae2fd8ceac6b6234c7706214fd39c1cd1e609a0528c199300546001600160a01b031690565b6001600160a01b0316146113175760405163118cdaa760e01b81523360048201526024016112da565b6141756149d5565b6000805160206160aa833981519152805460ff191681557f5db9ee0a495bf2e6ff9c91a7834c1ba4fdd244a5e8aa4e537bd38aeae4b073aa335b6040516001600160a01b03909116815260200160405180910390a150565b600380546001600160a01b0319166001600160a01b0392909216919091179055565b6001600160a01b038084166000908152600f6020526040808220546018549151631c20fadd60e01b8152929390811692911690631c20fadd9061423a908490309089906004016158b3565b600060405180830381600087803b15801561425457600080fd5b505af1158015614268573d6000803e3d6000fd5b5050604051635d043b2960e11b81526004810187905230602482018190526044820152600092506001600160a01b038416915063ba087652906064016020604051808303816000875af11580156142c3573d6000803e3d6000fd5b505050506040513d601f19601f820116820180604052508101906142e7919061593a565b905060006142f5600161491e565b6001600160a01b03888116604083810182905260c084018690528883166020850152601a54905163095ea7b360e01b8152921660048301526024820185905291925063095ea7b3906044016020604051808303816000875af115801561435f573d6000803e3d6000fd5b505050506040513d601f19601f8201168201806040525081019061438391906158d7565b50601a5460405163aa2165f160e01b81526000916001600160a01b03169063aa2165f1906143b5908590600401615775565b6020604051808303816000875af11580156143d4573d6000803e3d6000fd5b505050506040513d601f19601f820116820180604052508101906143f8919061593a565b6000818152602e602090815260409182902085518154928701516001600160401b039091166001600160e01b031990931692909217600160401b6001600160a01b039384160217815591850151600180840180546001600160a01b0319169284169290921790915560608601516002840180546080890151929094166001600160a81b031990941693909317600160a01b911515919091021780835560a08701519495508694929160ff60a81b1990911690600160a81b9084908111156144c1576144c16153a0565b021790555060c0820151816003015560e0820151816004015561010082015181600501556101208201518160060160006101000a81548160ff02191690836003811115614510576145106153a0565b0217905550919998505050505050505050565b7f9016d09d72d40fdae2fd8ceac6b6234c7706214fd39c1cd1e609a0528c19930080546001600160a01b031981166001600160a01b03848116918217845560405192169182907f8be0079c531659141344cd1fd0a4f28419497f9722a3daafe3b4186f6b6457e090600090a3505050565b61459c615173565b6145a4615173565b6145b081868686614a05565b95945050505050565b60808301516145c89083614a4b565b6080830151612ed09082614a4b565b6004546000906145e88160016158a0565b600455835160408086015160808701515191516000936320214ca360e11b936146209386938493923092918a91600191602401615b9b565b60408051601f198184030181529190526020810180516001600160e01b03166001600160e01b031990931692909217909152905061466086838684614a62565b9695505050505050565b614672614bc0565b6000805160206160aa833981519152805460ff191660011781557f62e78cea01bee320cd4e420270b5ea74000d11b0c9f74754ebdbfc544b05a258336141af565b818160005b82518110156148b4578281815181106146d3576146d3615aee565b6020026020010151600d600083815260200190815260200160002060006101000a8154816001600160a01b0302191690836001600160a01b03160217905550806010600085848151811061472957614729615aee565b60200260200101516001600160a01b03166001600160a01b031681526020019081526020016000208190555081818151811061476757614767615aee565b60200260200101516013600085848151811061478557614785615aee565b60200260200101516001600160a01b03166001600160a01b0316815260200190815260200160002081905550600c546000036148ac578281815181106147cd576147cd615aee565b6020026020010151600e600083815260200190815260200160002060006101000a8154816001600160a01b0302191690836001600160a01b0316021790555081818151811061481e5761481e615aee565b60200260200101516012600085848151811061483c5761483c615aee565b60200260200101516001600160a01b03166001600160a01b0316815260200190815260200160002081905550806011600085848151811061487f5761487f615aee565b60200260200101516001600160a01b03166001600160a01b03168152602001908152602001600020819055505b6001016146b8565b508151600b55600c546000036148ca578151600c555b505042600a555050565b60008262ffffff166000036148ea57600061410b565b61410b8262ffffff8516620f4240614bf1565b614905614cc5565b613e9681614d0e565b614916614cc5565b611317614d16565b614926615110565b60408051610140810182526001600160401b03421681523060208201526017546001600160a01b0390811692820192909252601b549091166060820152821515608082015260a08101600081526020018361498257600061498d565b68056bc75e2d631000005b68ffffffffffffffffff168152602001836149b15768056bc75e2d631000006149b4565b60005b68ffffffffffffffffff168152600060208201526040016001905292915050565b6000805160206160aa8339815191525460ff1661131757604051638dfc202b60e01b815260040160405180910390fd5b614a0d615173565b614a1d8560800151610100614d37565b50508284526001600160a01b03821660208501526001600160e01b031981166040850152835b949350505050565b614a588260038351614d9c565b612ed08282614ea3565b6040516bffffffffffffffffffffffff193060601b1660208201526034810184905260009060540160408051808303601f1901815282825280516020918201206000818152600590925291812080546001600160a01b0319166001600160a01b038a1617905590925082917fb5e6e01e79f91267dc17b4e6314d5d4d03593d2ceee0fbb452b750bd70ea5af99190a2600254604051630200057560e51b81526001600160a01b0390911690634000aea090614b2590889087908790600401615bf4565b6020604051808303816000875af1158015614b44573d6000803e3d6000fd5b505050506040513d601f19601f82011682018060405250810190614b6891906158d7565b614a435760405162461bcd60e51b815260206004820152602360248201527f756e61626c6520746f207472616e73666572416e6443616c6c20746f206f7261604482015262636c6560e81b60648201526084016112da565b6000805160206160aa8339815191525460ff16156113175760405163d93c066560e01b815260040160405180910390fd5b6000808060001985870985870292508281108382030391505080600003614c2b57838281614c2157614c21615910565b049250505061410b565b838110614c5c57604051630c740aef60e31b81526004810187905260248101869052604481018590526064016112da565b60008486880960026001871981018816978890046003810283188082028403028082028403028082028403028082028403028082028403029081029092039091026000889003889004909101858311909403939093029303949094049190911702949350505050565b7ff0c57e16840df040f15088dc2f81fe391c3923bec73e23a9662efc9c229c6a0054600160401b900460ff1661131757604051631afcd79f60e31b815260040160405180910390fd5b613e63614cc5565b614d1e614cc5565b6000805160206160aa833981519152805460ff19169055565b604080518082019091526060815260006020820152614d57602083615c1b565b15614d7f57614d67602083615c1b565b614d72906020615953565b614d7c90836158a0565b91505b506020828101829052604080518085526000815290920101905290565b6017816001600160401b031611614dc0576119108360e0600585901b168317614eca565b60ff816001600160401b031611614dfc57614de6836018611fe0600586901b1617614eca565b50611910836001600160401b0383166001614eef565b61ffff816001600160401b031611614e3957614e23836019611fe0600586901b1617614eca565b50611910836001600160401b0383166002614eef565b63ffffffff816001600160401b031611614e7857614e6283601a611fe0600586901b1617614eca565b50611910836001600160401b0383166004614eef565b614e8d83601b611fe0600586901b1617614eca565b50611910836001600160401b0383166008614eef565b60408051808201909152606081526000602082015261410b83846000015151848551614f15565b60408051808201909152606081526000602082015261410b8384600001515184614fff565b604080518082019091526060815260006020820152614a4384856000015151858561505a565b6040805180820190915260608152600060208201528251821115614f3857600080fd5b6020850151614f4783866158a0565b1115614f7a57614f7a85614f6a87602001518786614f6591906158a0565b6150db565b614f759060026158f9565b6150ec565b600080865180518760208301019350808887011115614f995787860182525b505050602084015b60208410614fd95780518252614fb86020836158a0565b9150614fc56020826158a0565b9050614fd2602085615953565b9350614fa1565b51815160001960208690036101000a019081169019919091161790525083949350505050565b60408051808201909152606081526000602082015283602001518310615034576150348485602001516002614f7591906158f9565b8351805160208583010184815350808503615050576001810182525b5093949350505050565b604080518082019091526060815260006020820152602085015161507e85846158a0565b11156150925761509285614f6a86856158a0565b600060016150a284610100615d13565b6150ac9190615953565b90508551838682010185831982511617815250805184870111156150d05783860181525b509495945050505050565b600081831115610e8b575081610d96565b81516150f88383614d37565b506119108382614ea3565b61033280615d2083390190565b604080516101408101825260008082526020820181905291810182905260608101829052608081018290529060a082019081526020016000815260200160008152602001600081526020016000600381111561516e5761516e6153a0565b905290565b6040805160a0810182526000808252602080830182905282840182905260608084018390528451808601909552845283015290608082015290565b80356001600160a01b038116811461130257600080fd5b600080604083850312156151d857600080fd5b823591506151e8602084016151ae565b90509250929050565b60006020828403121561520357600080fd5b61410b826151ae565b60006020828403121561521e57600080fd5b5035919050565b634e487b7160e01b600052604160045260246000fd5b604051601f8201601f191681016001600160401b038111828210171561526357615263615225565b604052919050565b600082601f83011261527c57600080fd5b81356001600160401b0381111561529557615295615225565b6152a8601f8201601f191660200161523b565b8181528460208386010111156152bd57600080fd5b816020850160208301376000918101602001919091529392505050565b600080604083850312156152ed57600080fd5b82356001600160401b038082111561530457600080fd5b6153108683870161526b565b9350602085013591508082111561532657600080fd5b506153338582860161526b565b9150509250929050565b60005b83811015615358578181015183820152602001615340565b50506000910152565b6000815180845261537981602086016020860161533d565b601f01601f19169290920160200192915050565b60208152600061410b6020830184615361565b634e487b7160e01b600052602160045260246000fd5b600281106153c6576153c66153a0565b9052565b600481106153c6576153c66153a0565b6001600160401b038b1681526001600160a01b038a811660208301528981166040830152881660608201528615156080820152610140810161541f60a08301886153b6565b8560c08301528460e0830152836101008301526154406101208301846153ca565b9b9a5050505050505050505050565b6000806040838503121561546257600080fd5b61546b836151ae565b946020939093013593505050565b803560ff8116811461130257600080fd5b60006020828403121561549c57600080fd5b61410b82615479565b60006001600160401b038211156154be576154be615225565b5060051b60200190565b600082601f8301126154d957600080fd5b813560206154ee6154e9836154a5565b61523b565b8083825260208201915060208460051b87010193508684111561551057600080fd5b602086015b8481101561553357615526816151ae565b8352918301918301615515565b509695505050505050565b600082601f83011261554f57600080fd5b8135602061555f6154e9836154a5565b8083825260208201915060208460051b87010193508684111561558157600080fd5b602086015b848110156155335780358352918301918301615586565b600080604083850312156155b057600080fd5b82356001600160401b03808211156155c757600080fd5b6155d3868387016154c8565b935060208501359150808211156155e957600080fd5b506153338582860161553e565b6000806040838503121561560957600080fd5b82356001600160401b038082111561562057600080fd5b61562c868387016154c8565b9350602085013591508082111561564257600080fd5b50615333858286016154c8565b6000806040838503121561566257600080fd5b61566b836151ae565b91506151e860208401615479565b600080600080600080600080610100898b03121561569657600080fd5b61569f896151ae565b97506156ad60208a016151ae565b96506156bb60408a016151ae565b95506156c960608a016151ae565b94506156d760808a01615479565b93506156e560a08a016151ae565b92506156f360c08a016151ae565b915060e089013590509295985092959890939650565b60008060006060848603121561571e57600080fd5b8335925060208401356001600160401b038082111561573c57600080fd5b615748878388016154c8565b9350604086013591508082111561575e57600080fd5b5061576b8682870161553e565b9150509250925092565b81516001600160401b03168152610140810160208301516157a160208401826001600160a01b03169052565b5060408301516157bc60408401826001600160a01b03169052565b5060608301516157d760608401826001600160a01b03169052565b5060808301516157eb608084018215159052565b5060a08301516157fe60a08401826153b6565b5060c083015160c083015260e083015160e083015261010080840151818401525061012080840151615832828501826153ca565b505092915050565b60006020828403121561584c57600080fd5b81516004811061410b57600080fd5b6000835161586d81846020880161533d565b83519083019061588181836020880161533d565b01949350505050565b634e487b7160e01b600052601160045260246000fd5b80820180821115610d9657610d9661588a565b6001600160a01b039384168152919092166020820152604081019190915260600190565b6000602082840312156158e957600080fd5b8151801515811461410b57600080fd5b8082028115828204841417610d9657610d9661588a565b634e487b7160e01b600052601260045260246000fd5b60008261593557615935615910565b500490565b60006020828403121561594c57600080fd5b5051919050565b81810381811115610d9657610d9661588a565b600181811c9082168061597a57607f821691505b602082108103610e8b57634e487b7160e01b600052602260045260246000fd5b60208082526025908201527f5468652070726f6365737320686173206265656e20636f6d706c65746564206260408201526465666f726560d81b606082015260800190565b601f821115612ed0576000816000526020600020601f850160051c81016020861015615a085750805b601f850160051c820191505b81811015615a2757828155600101615a14565b505050505050565b81516001600160401b03811115615a4857615a48615225565b615a5c81615a568454615966565b846159df565b602080601f831160018114615a915760008415615a795750858301515b600019600386901b1c1916600185901b178555615a27565b600085815260208120601f198616915b82811015615ac057888601518255948401946001909101908401615aa1565b5085821015615ade5787850151600019600388901b60f8161c191681555b5050505050600190811b01905550565b634e487b7160e01b600052603260045260246000fd5b600060408284031215615b1657600080fd5b604051604081016001600160401b038282108183111715615b3957615b39615225565b8160405284518352602085015191508082168214615b5657600080fd5b5060208201529392505050565b60008060408385031215615b7657600080fd5b82519150602083015162ffffff81168114615b9057600080fd5b809150509250929050565b6001600160a01b0389811682526020820189905260408201889052861660608201526001600160e01b03198516608082015260a0810184905260c0810183905261010060e0820181905260009061544083820185615361565b60018060a01b03841681528260208201526060604082015260006145b06060830184615361565b600082615c2a57615c2a615910565b500690565b600181815b80851115615c6a578160001904821115615c5057615c5061588a565b80851615615c5d57918102915b93841c9390800290615c34565b509250929050565b600082615c8157506001610d96565b81615c8e57506000610d96565b8160018114615ca45760028114615cae57615cca565b6001915050610d96565b60ff841115615cbf57615cbf61588a565b50506001821b610d96565b5060208310610133831016604e8410600b8410161715615ced575081810a610d96565b615cf78383615c2f565b8060001904821115615d0b57615d0b61588a565b029392505050565b600061410b8383615c7256fe6080604052348015600f57600080fd5b50604051610332380380610332833981016040819052602c916050565b600080546001600160a01b0319166001600160a01b0392909216919091179055607e565b600060208284031215606157600080fd5b81516001600160a01b0381168114607757600080fd5b9392505050565b6102a58061008d6000396000f3fe608060405234801561001057600080fd5b50600436106100415760003560e01c806313af4035146100465780632fdcfbd21461005b5780638da5cb5b1461006e575b600080fd5b6100596100543660046101ef565b61009d565b005b610059610069366004610211565b61010f565b600054610081906001600160a01b031681565b6040516001600160a01b03909116815260200160405180910390f35b6000546001600160a01b031633146100ed5760405162461bcd60e51b815260206004820152600e60248201526d139bdd08185d5d1a1bdc9a5e995960921b60448201526064015b60405180910390fd5b600080546001600160a01b0319166001600160a01b0392909216919091179055565b6000546001600160a01b0316331461015a5760405162461bcd60e51b815260206004820152600e60248201526d139bdd08185d5d1a1bdc9a5e995960921b60448201526064016100e4565b60405163a9059cbb60e01b81526001600160a01b0383811660048301526024820183905284169063a9059cbb906044016020604051808303816000875af11580156101a9573d6000803e3d6000fd5b505050506040513d601f19601f820116820180604052508101906101cd919061024d565b50505050565b80356001600160a01b03811681146101ea57600080fd5b919050565b60006020828403121561020157600080fd5b61020a826101d3565b9392505050565b60008060006060848603121561022657600080fd5b61022f846101d3565b925061023d602085016101d3565b9150604084013590509250925092565b60006020828403121561025f57600080fd5b8151801515811461020a57600080fdfea2646970667358221220502fe3cef5472467ba27d3f0af8cc13ea970369ac0d01284025186802306355064736f6c6343000819003368747470733a2f2f6170702e6e65786c6162732e696f2f6170692f616c6c46756e64696e6752617465733f6d756c7469706c7946756e633d31382674696d65734e656746756e643d74727565266172726179733d74727565cd5ed15c6e187e77e9aee88184c21f4f2182ab5827cb3b7e07fbedcd63f03300a26469706673582212203521950070ef74b1d46e293f02c8e6ab4ee980e86197503121f1d73ed8ea086464736f6c63430008190033","linkReferences":{}},"methodIdentifiers":{"burnedTokenAmountByNonce(uint256)":"ab7820b2","buyRequestPayedAmountById(uint256)":"8861d235","calculateIssuanceFee(uint256)":"e19eefbe","cancelIssuance(uint256)":"46d66a2c","cancelIssuanceComplted(uint256)":"7bfa27f2","cancelIssuanceRequestId(uint256,address)":"02e80f71","cancelRedemption(uint256)":"9219e510","cancelRedemptionComplted(uint256)":"b46840f9","cancelRedemptionRequestId(uint256,address)":"8c221899","checkCancelIssuanceStatus(uint256)":"631c8385","checkCancelRedemptionStatus(uint256)":"b592662a","checkIssuanceOrdersStatus(uint256)":"2343acb4","checkRedemptionOrdersStatus(uint256)":"3fac0922","coaByIssuanceNonce(uint256)":"31c99010","coaByRedemptionNonce(uint256)":"b75f4c2c","completeCancelIssuance(uint256)":"807ca237","completeCancelRedemption(uint256)":"9026544f","completeIssuance(uint256)":"bed45bef","completeRedemption(uint256)":"840ecba0","concatenation(string,string)":"0e329357","currentList(uint256)":"9932ba4c","custodianWallet()":"1e106e99","externalJobId()":"a8b54bd4","feeRate()":"978bbdb9","fulfillAssetsData(bytes32,address[],uint256[])":"f14bea20","getOrderInstanceById(uint256)":"f1f31d66","initialize(address,address,address,address,uint8,address,address,bytes32)":"efa906c7","isIssuanceOrderActive(uint256)":"b0e12134","isRedemptionOrderActive(uint256)":"0b1a4918","issuance(uint256)":"248b761e","issuanceIndexTokenPrimaryTotalSupply(uint256)":"b1dd819e","issuanceIsCompleted(uint256)":"a84ebc17","issuanceNonce()":"9dbb9c9e","issuanceRequestId(uint256,address)":"264fa8b9","issuanceRequesterByNonce(uint256)":"94674098","issuanceTokenPrimaryBalance(uint256,address)":"da65925a","issuer()":"1d143848","lastUpdateTime()":"c8f33c91","latestFeeUpdate()":"011ced5f","mockFillAssetsList(address[],uint256[])":"addc70d1","oracleList(uint256)":"239aad0d","oraclePayment()":"0c02e130","orderInstanceById(uint256)":"15e666a2","owner()":"8da5cb5b","pause()":"8456cb59","paused()":"5c975abb","redemption(uint256)":"4a1dc092","redemptionIndexTokenPrimaryTotalSupply(uint256)":"daf1c17d","redemptionIsCompleted(uint256)":"76529fdf","redemptionNonce()":"84d77bb1","redemptionRequestId(uint256,address)":"f513a718","redemptionRequesterByNonce(uint256)":"78032658","redemptionTokenPrimaryBalance(uint256,address)":"a363b9cb","renounceOwnership()":"715018a6","requestAssetsData()":"7ca58c55","sellRequestAssetAmountById(uint256)":"a87f98d2","setCustodianWallet(address)":"9cc0fb5b","setFeeRate(uint8)":"5177942a","setIssuer(address)":"55cc4e57","setOracleInfo(address,bytes32)":"43482fc8","setTokenAddress(address)":"26a4e8d2","setUrl(string,string)":"a73e1cbf","setUsdcAddress(address,uint8)":"eab2a711","setWrappedDShareAddresses(address[],address[])":"b411dc41","token()":"fc0c546a","tokenCurrentListIndex(address)":"914f0cc6","tokenCurrentMarketShare(address)":"0be52713","tokenOracleListIndex(address)":"8c88c10c","tokenOracleMarketShare(address)":"4b3e0b80","totalCurrentList()":"53fd4332","totalOracleList()":"c8599ded","transferOwnership(address)":"f2fde38b","unpause()":"3f4ba83a","usdc()":"3e413bee","usdcDecimals()":"7bf42165","vault()":"fbfa77cf","wrappedDshareAddress(address)":"092755e0"},"id":16}