{"abi":[{"type":"function","name":"buyRequestPayedAmountById","inputs":[{"name":"","type":"uint256","internalType":"uint256"}],"outputs":[{"name":"","type":"uint256","internalType":"uint256"}],"stateMutability":"view"},{"type":"function","name":"calculateIssuanceFee","inputs":[{"name":"_inputAmount","type":"uint256","internalType":"uint256"}],"outputs":[{"name":"","type":"uint256","internalType":"uint256"}],"stateMutability":"view"},{"type":"function","name":"cancelIssuance","inputs":[{"name":"_issuanceNonce","type":"uint256","internalType":"uint256"}],"outputs":[],"stateMutability":"nonpayable"},{"type":"function","name":"cancelIssuanceRequestId","inputs":[{"name":"","type":"uint256","internalType":"uint256"},{"name":"","type":"address","internalType":"address"}],"outputs":[{"name":"","type":"uint256","internalType":"uint256"}],"stateMutability":"view"},{"type":"function","name":"cancelRedemption","inputs":[{"name":"_redemptionNonce","type":"uint256","internalType":"uint256"}],"outputs":[],"stateMutability":"nonpayable"},{"type":"function","name":"cancelRedemptionRequestId","inputs":[{"name":"","type":"uint256","internalType":"uint256"},{"name":"","type":"address","internalType":"address"}],"outputs":[{"name":"","type":"uint256","internalType":"uint256"}],"stateMutability":"view"},{"type":"function","name":"checkCancelIssuanceStatus","inputs":[{"name":"_issuanceNonce","type":"uint256","internalType":"uint256"}],"outputs":[{"name":"","type":"bool","internalType":"bool"}],"stateMutability":"view"},{"type":"function","name":"checkCancelRedemptionStatus","inputs":[{"name":"_redemptionNonce","type":"uint256","internalType":"uint256"}],"outputs":[{"name":"","type":"bool","internalType":"bool"}],"stateMutability":"view"},{"type":"function","name":"checkIssuanceOrdersStatus","inputs":[{"name":"_issuanceNonce","type":"uint256","internalType":"uint256"}],"outputs":[{"name":"","type":"bool","internalType":"bool"}],"stateMutability":"view"},{"type":"function","name":"checkRedemptionOrdersStatus","inputs":[{"name":"_redemptionNonce","type":"uint256","internalType":"uint256"}],"outputs":[{"name":"","type":"bool","internalType":"bool"}],"stateMutability":"view"},{"type":"function","name":"coaByIssuanceNonce","inputs":[{"name":"","type":"uint256","internalType":"uint256"}],"outputs":[{"name":"","type":"address","internalType":"address"}],"stateMutability":"view"},{"type":"function","name":"coaByRedemptionNonce","inputs":[{"name":"","type":"uint256","internalType":"uint256"}],"outputs":[{"name":"","type":"address","internalType":"address"}],"stateMutability":"view"},{"type":"function","name":"completeCancelIssuance","inputs":[{"name":"_issuanceNonce","type":"uint256","internalType":"uint256"}],"outputs":[],"stateMutability":"nonpayable"},{"type":"function","name":"completeCancelRedemption","inputs":[{"name":"_redemptionNonce","type":"uint256","internalType":"uint256"}],"outputs":[],"stateMutability":"nonpayable"},{"type":"function","name":"completeIssuance","inputs":[{"name":"_issuanceNonce","type":"uint256","internalType":"uint256"}],"outputs":[],"stateMutability":"nonpayable"},{"type":"function","name":"completeRedemption","inputs":[{"name":"_redemptionNonce","type":"uint256","internalType":"uint256"}],"outputs":[],"stateMutability":"nonpayable"},{"type":"function","name":"concatenation","inputs":[{"name":"a","type":"string","internalType":"string"},{"name":"b","type":"string","internalType":"string"}],"outputs":[{"name":"","type":"string","internalType":"string"}],"stateMutability":"pure"},{"type":"function","name":"currentList","inputs":[{"name":"","type":"uint256","internalType":"uint256"}],"outputs":[{"name":"","type":"address","internalType":"address"}],"stateMutability":"view"},{"type":"function","name":"custodianWallet","inputs":[],"outputs":[{"name":"","type":"address","internalType":"address"}],"stateMutability":"view"},{"type":"function","name":"externalJobId","inputs":[],"outputs":[{"name":"","type":"bytes32","internalType":"bytes32"}],"stateMutability":"view"},{"type":"function","name":"feeRate","inputs":[],"outputs":[{"name":"","type":"uint8","internalType":"uint8"}],"stateMutability":"view"},{"type":"function","name":"fulfillAssetsData","inputs":[{"name":"requestId","type":"bytes32","internalType":"bytes32"},{"name":"_tokens","type":"address[]","internalType":"address[]"},{"name":"_marketShares","type":"uint256[]","internalType":"uint256[]"}],"outputs":[],"stateMutability":"nonpayable"},{"type":"function","name":"getOrderInctanceById","inputs":[{"name":"id","type":"uint256","internalType":"uint256"}],"outputs":[{"name":"","type":"tuple","internalType":"struct IOrderProcessor.Order","components":[{"name":"requestTimestamp","type":"uint64","internalType":"uint64"},{"name":"recipient","type":"address","internalType":"address"},{"name":"assetToken","type":"address","internalType":"address"},{"name":"paymentToken","type":"address","internalType":"address"},{"name":"sell","type":"bool","internalType":"bool"},{"name":"orderType","type":"uint8","internalType":"enum IOrderProcessor.OrderType"},{"name":"assetTokenQuantity","type":"uint256","internalType":"uint256"},{"name":"paymentTokenQuantity","type":"uint256","internalType":"uint256"},{"name":"price","type":"uint256","internalType":"uint256"},{"name":"tif","type":"uint8","internalType":"enum IOrderProcessor.TIF"}]}],"stateMutability":"view"},{"type":"function","name":"initialize","inputs":[{"name":"_issuer","type":"address","internalType":"address"},{"name":"_token","type":"address","internalType":"address"},{"name":"_vault","type":"address","internalType":"address"},{"name":"_usdc","type":"address","internalType":"address"},{"name":"_usdcDecimals","type":"uint8","internalType":"uint8"},{"name":"_chainlinkToken","type":"address","internalType":"address"},{"name":"_oracleAddress","type":"address","internalType":"address"},{"name":"_externalJobId","type":"bytes32","internalType":"bytes32"}],"outputs":[],"stateMutability":"nonpayable"},{"type":"function","name":"issuance","inputs":[{"name":"_inputAmount","type":"uint256","internalType":"uint256"}],"outputs":[{"name":"","type":"uint256","internalType":"uint256"}],"stateMutability":"nonpayable"},{"type":"function","name":"issuanceIndexTokenPrimaryTotalSupply","inputs":[{"name":"","type":"uint256","internalType":"uint256"}],"outputs":[{"name":"","type":"uint256","internalType":"uint256"}],"stateMutability":"view"},{"type":"function","name":"issuanceIsCompleted","inputs":[{"name":"","type":"uint256","internalType":"uint256"}],"outputs":[{"name":"","type":"bool","internalType":"bool"}],"stateMutability":"view"},{"type":"function","name":"issuanceNonce","inputs":[],"outputs":[{"name":"","type":"uint256","internalType":"uint256"}],"stateMutability":"view"},{"type":"function","name":"issuanceRequestId","inputs":[{"name":"","type":"uint256","internalType":"uint256"},{"name":"","type":"address","internalType":"address"}],"outputs":[{"name":"","type":"uint256","internalType":"uint256"}],"stateMutability":"view"},{"type":"function","name":"issuanceRequesterByNonce","inputs":[{"name":"","type":"uint256","internalType":"uint256"}],"outputs":[{"name":"","type":"address","internalType":"address"}],"stateMutability":"view"},{"type":"function","name":"issuanceTokenPrimaryBalance","inputs":[{"name":"","type":"uint256","internalType":"uint256"},{"name":"","type":"address","internalType":"address"}],"outputs":[{"name":"","type":"uint256","internalType":"uint256"}],"stateMutability":"view"},{"type":"function","name":"issuer","inputs":[],"outputs":[{"name":"","type":"address","internalType":"contract IOrderProcessor"}],"stateMutability":"view"},{"type":"function","name":"lastUpdateTime","inputs":[],"outputs":[{"name":"","type":"uint256","internalType":"uint256"}],"stateMutability":"view"},{"type":"function","name":"latestFeeUpdate","inputs":[],"outputs":[{"name":"","type":"uint256","internalType":"uint256"}],"stateMutability":"view"},{"type":"function","name":"mockFillAssetsList","inputs":[{"name":"_tokens","type":"address[]","internalType":"address[]"},{"name":"_marketShares","type":"uint256[]","internalType":"uint256[]"}],"outputs":[],"stateMutability":"nonpayable"},{"type":"function","name":"oracleList","inputs":[{"name":"","type":"uint256","internalType":"uint256"}],"outputs":[{"name":"","type":"address","internalType":"address"}],"stateMutability":"view"},{"type":"function","name":"oraclePayment","inputs":[],"outputs":[{"name":"","type":"uint256","internalType":"uint256"}],"stateMutability":"view"},{"type":"function","name":"orderInstanceById","inputs":[{"name":"","type":"uint256","internalType":"uint256"}],"outputs":[{"name":"requestTimestamp","type":"uint64","internalType":"uint64"},{"name":"recipient","type":"address","internalType":"address"},{"name":"assetToken","type":"address","internalType":"address"},{"name":"paymentToken","type":"address","internalType":"address"},{"name":"sell","type":"bool","internalType":"bool"},{"name":"orderType","type":"uint8","internalType":"enum IOrderProcessor.OrderType"},{"name":"assetTokenQuantity","type":"uint256","internalType":"uint256"},{"name":"paymentTokenQuantity","type":"uint256","internalType":"uint256"},{"name":"price","type":"uint256","internalType":"uint256"},{"name":"tif","type":"uint8","internalType":"enum IOrderProcessor.TIF"}],"stateMutability":"view"},{"type":"function","name":"owner","inputs":[],"outputs":[{"name":"","type":"address","internalType":"address"}],"stateMutability":"view"},{"type":"function","name":"pause","inputs":[],"outputs":[],"stateMutability":"nonpayable"},{"type":"function","name":"paused","inputs":[],"outputs":[{"name":"","type":"bool","internalType":"bool"}],"stateMutability":"view"},{"type":"function","name":"redemption","inputs":[{"name":"_inputAmount","type":"uint256","internalType":"uint256"}],"outputs":[{"name":"","type":"uint256","internalType":"uint256"}],"stateMutability":"nonpayable"},{"type":"function","name":"redemptionIndexTokenPrimaryTotalSupply","inputs":[{"name":"","type":"uint256","internalType":"uint256"}],"outputs":[{"name":"","type":"uint256","internalType":"uint256"}],"stateMutability":"view"},{"type":"function","name":"redemptionIsCompleted","inputs":[{"name":"","type":"uint256","internalType":"uint256"}],"outputs":[{"name":"","type":"bool","internalType":"bool"}],"stateMutability":"view"},{"type":"function","name":"redemptionNonce","inputs":[],"outputs":[{"name":"","type":"uint256","internalType":"uint256"}],"stateMutability":"view"},{"type":"function","name":"redemptionRequestId","inputs":[{"name":"","type":"uint256","internalType":"uint256"},{"name":"","type":"address","internalType":"address"}],"outputs":[{"name":"","type":"uint256","internalType":"uint256"}],"stateMutability":"view"},{"type":"function","name":"redemptionRequesterByNonce","inputs":[{"name":"","type":"uint256","internalType":"uint256"}],"outputs":[{"name":"","type":"address","internalType":"address"}],"stateMutability":"view"},{"type":"function","name":"redemptionTokenPrimaryBalance","inputs":[{"name":"","type":"uint256","internalType":"uint256"},{"name":"","type":"address","internalType":"address"}],"outputs":[{"name":"","type":"uint256","internalType":"uint256"}],"stateMutability":"view"},{"type":"function","name":"renounceOwnership","inputs":[],"outputs":[],"stateMutability":"nonpayable"},{"type":"function","name":"requestAssetsData","inputs":[],"outputs":[{"name":"","type":"bytes32","internalType":"bytes32"}],"stateMutability":"nonpayable"},{"type":"function","name":"sellRequestAssetAmountById","inputs":[{"name":"","type":"uint256","internalType":"uint256"}],"outputs":[{"name":"","type":"uint256","internalType":"uint256"}],"stateMutability":"view"},{"type":"function","name":"setCustodianWallet","inputs":[{"name":"_custodianWallet","type":"address","internalType":"address"}],"outputs":[{"name":"","type":"bool","internalType":"bool"}],"stateMutability":"nonpayable"},{"type":"function","name":"setDShareAddresses","inputs":[{"name":"_dShares","type":"address[]","internalType":"address[]"},{"name":"_wrappedDShares","type":"address[]","internalType":"address[]"}],"outputs":[],"stateMutability":"nonpayable"},{"type":"function","name":"setFeeRate","inputs":[{"name":"_newFee","type":"uint8","internalType":"uint8"}],"outputs":[],"stateMutability":"nonpayable"},{"type":"function","name":"setIssuer","inputs":[{"name":"_issuer","type":"address","internalType":"address"}],"outputs":[{"name":"","type":"bool","internalType":"bool"}],"stateMutability":"nonpayable"},{"type":"function","name":"setOracleInfo","inputs":[{"name":"_oracleAddress","type":"address","internalType":"address"},{"name":"_externalJobId","type":"bytes32","internalType":"bytes32"}],"outputs":[],"stateMutability":"nonpayable"},{"type":"function","name":"setTokenAddress","inputs":[{"name":"_token","type":"address","internalType":"address"}],"outputs":[{"name":"","type":"bool","internalType":"bool"}],"stateMutability":"nonpayable"},{"type":"function","name":"setUrl","inputs":[{"name":"_beforeAddress","type":"string","internalType":"string"},{"name":"_afterAddress","type":"string","internalType":"string"}],"outputs":[],"stateMutability":"nonpayable"},{"type":"function","name":"setUsdcAddress","inputs":[{"name":"_usdc","type":"address","internalType":"address"},{"name":"_usdcDecimals","type":"uint8","internalType":"uint8"}],"outputs":[{"name":"","type":"bool","internalType":"bool"}],"stateMutability":"nonpayable"},{"type":"function","name":"token","inputs":[],"outputs":[{"name":"","type":"address","internalType":"contract IndexToken"}],"stateMutability":"view"},{"type":"function","name":"tokenCurrentListIndex","inputs":[{"name":"","type":"address","internalType":"address"}],"outputs":[{"name":"","type":"uint256","internalType":"uint256"}],"stateMutability":"view"},{"type":"function","name":"tokenCurrentMarketShare","inputs":[{"name":"","type":"address","internalType":"address"}],"outputs":[{"name":"","type":"uint256","internalType":"uint256"}],"stateMutability":"view"},{"type":"function","name":"tokenOracleListIndex","inputs":[{"name":"","type":"address","internalType":"address"}],"outputs":[{"name":"","type":"uint256","internalType":"uint256"}],"stateMutability":"view"},{"type":"function","name":"tokenOracleMarketShare","inputs":[{"name":"","type":"address","internalType":"address"}],"outputs":[{"name":"","type":"uint256","internalType":"uint256"}],"stateMutability":"view"},{"type":"function","name":"totalCurrentList","inputs":[],"outputs":[{"name":"","type":"uint256","internalType":"uint256"}],"stateMutability":"view"},{"type":"function","name":"totalOracleList","inputs":[],"outputs":[{"name":"","type":"uint256","internalType":"uint256"}],"stateMutability":"view"},{"type":"function","name":"transferOwnership","inputs":[{"name":"newOwner","type":"address","internalType":"address"}],"outputs":[],"stateMutability":"nonpayable"},{"type":"function","name":"unpause","inputs":[],"outputs":[],"stateMutability":"nonpayable"},{"type":"function","name":"usdc","inputs":[],"outputs":[{"name":"","type":"address","internalType":"address"}],"stateMutability":"view"},{"type":"function","name":"usdcDecimals","inputs":[],"outputs":[{"name":"","type":"uint8","internalType":"uint8"}],"stateMutability":"view"},{"type":"function","name":"vault","inputs":[],"outputs":[{"name":"","type":"address","internalType":"contract NexVault"}],"stateMutability":"view"},{"type":"function","name":"wrappedDshareAddress","inputs":[{"name":"","type":"address","internalType":"address"}],"outputs":[{"name":"","type":"address","internalType":"address"}],"stateMutability":"view"},{"type":"event","name":"ChainlinkCancelled","inputs":[{"name":"id","type":"bytes32","indexed":true,"internalType":"bytes32"}],"anonymous":false},{"type":"event","name":"ChainlinkFulfilled","inputs":[{"name":"id","type":"bytes32","indexed":true,"internalType":"bytes32"}],"anonymous":false},{"type":"event","name":"ChainlinkRequested","inputs":[{"name":"id","type":"bytes32","indexed":true,"internalType":"bytes32"}],"anonymous":false},{"type":"event","name":"Initialized","inputs":[{"name":"version","type":"uint64","indexed":false,"internalType":"uint64"}],"anonymous":false},{"type":"event","name":"OwnershipTransferred","inputs":[{"name":"previousOwner","type":"address","indexed":true,"internalType":"address"},{"name":"newOwner","type":"address","indexed":true,"internalType":"address"}],"anonymous":false},{"type":"event","name":"Paused","inputs":[{"name":"account","type":"address","indexed":false,"internalType":"address"}],"anonymous":false},{"type":"event","name":"Unpaused","inputs":[{"name":"account","type":"address","indexed":false,"internalType":"address"}],"anonymous":false},{"type":"error","name":"EnforcedPause","inputs":[]},{"type":"error","name":"ExpectedPause","inputs":[]},{"type":"error","name":"InvalidInitialization","inputs":[]},{"type":"error","name":"NotInitializing","inputs":[]},{"type":"error","name":"OwnableInvalidOwner","inputs":[{"name":"owner","type":"address","internalType":"address"}]},{"type":"error","name":"OwnableUnauthorizedAccount","inputs":[{"name":"account","type":"address","internalType":"address"}]},{"type":"error","name":"PRBMath_MulDiv_Overflow","inputs":[{"name":"x","type":"uint256","internalType":"uint256"},{"name":"y","type":"uint256","internalType":"uint256"},{"name":"denominator","type":"uint256","internalType":"uint256"}]}],"bytecode":{"object":"0x6080604052348015600f57600080fd5b50615bae8061001f6000396000f3fe608060405234801561001057600080fd5b50600436106104285760003560e01c806384d77bb11161022b578063a8b54bd411610130578063daf1c17d116100b8578063f14bea2011610087578063f14bea2014610b56578063f2fde38b14610b69578063f513a71814610b7c578063fbfa77cf14610ba5578063fc0c546a14610bb857600080fd5b8063daf1c17d14610afd578063e19eefbe14610b1d578063eab2a71114610b30578063efa906c714610b4357600080fd5b8063b75f4c2c116100ff578063b75f4c2c14610a84578063bed45bef14610aad578063c8599ded14610ac0578063c8f33c9114610ac9578063da65925a14610ad257600080fd5b8063a8b54bd414610a35578063addc70d114610a3e578063b1dd819e14610a51578063b592662a14610a7157600080fd5b8063978bbdb9116101b3578063a363b9cb11610182578063a363b9cb14610994578063a58e03af146109bf578063a73e1cbf146109df578063a84ebc17146109f2578063a87f98d214610a1557600080fd5b8063978bbdb91461093b5780639932ba4c1461094f5780639cc0fb5b146109785780639dbb9c9e1461098b57600080fd5b80638da5cb5b116101fa5780638da5cb5b1461089c5780639026544f146108cc578063914f0cc6146108df5780639219e510146108ff578063946740981461091257600080fd5b806384d77bb1146108285780638861d235146108315780638c221899146108515780638c88c10c1461087c57600080fd5b80633fac092211610331578063631c8385116102b95780637bf42165116102885780637bf42165146107cc5780637ca58c55146107f2578063807ca237146107fa578063840ecba01461080d5780638456cb591461082057600080fd5b8063631c838514610765578063715018a61461077857806376529fdf1461078057806378032658146107a357600080fd5b80634b3e0b80116103005780634b3e0b80146106fe5780635177942a1461071e57806353fd43321461073157806355cc4e571461073a5780635c975abb1461074d57600080fd5b80633fac0922146106b257806343482fc8146106c557806346d66a2c146106d85780634a1dc092146106eb57600080fd5b80632343acb4116103b457806326a4e8d21161038357806326a4e8d21461064657806331c99010146106595780633492be94146106825780633e413bee146106975780633f4ba83a146106aa57600080fd5b80632343acb4146105bc578063239aad0d146105df578063248b761e14610608578063264fa8b91461061b57600080fd5b80630c02e130116103fb5780630c02e130146104d55780630e329357146104de57806315e666a2146104fe5780631d143848146105965780631e106e99146105a957600080fd5b8063011ced5f1461042d57806302e80f7114610449578063092755e0146104745780630be52713146104b5575b600080fd5b610436602c5481565b6040519081526020015b60405180910390f35b610436610457366004614c90565b601d60209081526000928352604080842090915290825290205481565b61049d610482366004614cbc565b600f602052600090815260409020546001600160a01b031681565b6040516001600160a01b039091168152602001610440565b6104366104c3366004614cbc565b60126020526000908152604090205481565b61043660095481565b6104f16104ec366004614d8c565b610bcb565b6040516104409190614e3f565b61058061050c366004614e52565b602b6020526000908152604090208054600182015460028301546003840154600485015460058601546006909601546001600160401b038616966001600160a01b03600160401b9097048716969586169585169460ff600160a01b8204811695600160a81b9092048116949193919291168a565b6040516104409a99989796959493929190614ea5565b60195461049d906001600160a01b031681565b60185461049d906001600160a01b031681565b6105cf6105ca366004614e52565b610bf8565b6040519015158152602001610440565b61049d6105ed366004614e52565b600d602052600090815260409020546001600160a01b031681565b610436610616366004614e52565b610cf7565b610436610629366004614c90565b601f60209081526000928352604080842090915290825290205481565b6105cf610654366004614cbc565b611055565b61049d610667366004614e52565b6029602052600090815260409020546001600160a01b031681565b610695610690366004614fb3565b6110d6565b005b601a5461049d906001600160a01b031681565b6106956111ac565b6105cf6106c0366004614e52565b6111be565b6106956106d336600461500c565b61129a565b6106956106e6366004614e52565b6112b1565b6104366106f9366004614e52565b6117bf565b61043661070c366004614cbc565b60136020526000908152604090205481565b61069561072c366004615047565b611b63565b610436600c5481565b6105cf610748366004614cbc565b611cad565b600080516020615b598339815191525460ff166105cf565b6105cf610773366004614e52565b611d2b565b610695611fdf565b6105cf61078e366004614e52565b60156020526000908152604090205460ff1681565b61049d6107b1366004614e52565b6028602052600090815260409020546001600160a01b031681565b601a546107e090600160a01b900460ff1681565b60405160ff9091168152602001610440565b610436611ff1565b610695610808366004614e52565b612231565b61069561081b366004614e52565b612386565b610695612557565b610436601c5481565b61043661083f366004614e52565b60216020526000908152604090205481565b61043661085f366004614c90565b601e60209081526000928352604080842090915290825290205481565b61043661088a366004614cbc565b60106020526000908152604090205481565b7f9016d09d72d40fdae2fd8ceac6b6234c7706214fd39c1cd1e609a0528c199300546001600160a01b031661049d565b6106956108da366004614e52565b612567565b6104366108ed366004614cbc565b60116020526000908152604090205481565b61069561090d366004614e52565b61261b565b61049d610920366004614e52565b6027602052600090815260409020546001600160a01b031681565b601a546107e090600160a81b900460ff1681565b61049d61095d366004614e52565b600e602052600090815260409020546001600160a01b031681565b6105cf610986366004614cbc565b612b26565b610436601b5481565b6104366109a2366004614c90565b602460209081526000928352604080842090915290825290205481565b6109d26109cd366004614e52565b612bab565b604051610440919061511a565b6106956109ed366004614d8c565b612cb1565b6105cf610a00366004614e52565b60146020526000908152604090205460ff1681565b610436610a23366004614e52565b60226020526000908152604090205481565b61043660085481565b610695610a4c366004615188565b612cd2565b610436610a5f366004614e52565b60256020526000908152604090205481565b6105cf610a7f366004614e52565b612ce8565b61049d610a92366004614e52565b602a602052600090815260409020546001600160a01b031681565b610695610abb366004614e52565b612f9b565b610436600b5481565b610436600a5481565b610436610ae0366004614c90565b602360209081526000928352604080842090915290825290205481565b610436610b0b366004614e52565b60266020526000908152604090205481565b610436610b2b366004614e52565b613441565b6105cf610b3e3660046151e1565b613558565b610695610b5136600461520b565b6135e1565b610695610b6436600461529b565b613860565b610695610b77366004614cbc565b613926565b610436610b8a366004614c90565b60208080526000928352604080842090915290825290205481565b60175461049d906001600160a01b031681565b60165461049d906001600160a01b031681565b60608282604051602001610be0929190615307565b60405160208183030381529060405290505b92915050565b60008060005b600c54811015610cd5576000818152600e6020908152604080832054878452601f83528184206001600160a01b039182168086529352928190205460195491516322fd455760e11b81526004810182905292939092600292909116906345fa8aae90602401602060405180830381865afa158015610c80573d6000803e3d6000fd5b505050506040513d601f19601f82011682018060405250810190610ca49190615336565b6003811115610cb557610cb5614e6b565b60ff1603610ccb57610cc860018561536d565b93505b5050600101610bfe565b50600c548103610ce85750600192915050565b50600092915050565b50919050565b600080610d0383613441565b90506000610d11848361536d565b601a546040516323b872dd60e01b81529192506001600160a01b0316906323b872dd90610d4690339030908690600401615380565b6020604051808303816000875af1158015610d65573d6000803e3d6000fd5b505050506040513d601f19601f82011682018060405250810190610d8991906153a4565b50601a5460195460405163095ea7b360e01b81526001600160a01b0391821660048201526024810184905291169063095ea7b3906044016020604051808303816000875af1158015610ddf573d6000803e3d6000fd5b505050506040513d601f19601f82011682018060405250810190610e0391906153a4565b506001601b6000828254610e17919061536d565b92505081905550600030604051610e2d90614bce565b6001600160a01b039091168152602001604051809103906000f080158015610e59573d6000803e3d6000fd5b50601b54600090815260296020526040812080546001600160a01b0319166001600160a01b0384161790559091505b600c54811015611048576000818152600e60209081526040808320546001600160a01b0316808452601290925282205490919068056bc75e2d6310000090610ed0908a6153c6565b610eda91906153f3565b90506000610ee9838387613964565b6000818152602160209081526040808320869055601b80548452601f83528184206001600160a01b038981168087529185528386208790559154855260279093529281902080546001600160a01b0319163317905560175490516370a0823160e01b8152921660048301529192506370a0823190602401602060405180830381865afa158015610f7d573d6000803e3d6000fd5b505050506040513d601f19601f82011682018060405250810190610fa19190615407565b601b5460009081526023602090815260408083206001600160a01b038089168552908352928190209390935560165483516318160ddd60e01b815293519216926318160ddd92600480830193928290030181865afa158015611007573d6000803e3d6000fd5b505050506040513d601f19601f8201168201806040525081019061102b9190615407565b601b54600090815260256020526040902055505050600101610e88565b5050601b54949350505050565b600061105f613bdd565b6001600160a01b0382166110b25760405162461bcd60e51b8152602060048201526015602482015274696e76616c696420746f6b656e206164647265737360581b60448201526064015b60405180910390fd5b50601680546001600160a01b0319166001600160a01b03831617905560015b919050565b6110de613bdd565b80518251146111275760405162461bcd60e51b8152602060048201526015602482015274082e4e4c2f240d8cadccee8d040dad2e6dac2e8c6d605b1b60448201526064016110a9565b60005b82518110156111a75781818151811061114557611145615420565b6020026020010151600f600085848151811061116357611163615420565b6020908102919091018101516001600160a01b0390811683529082019290925260400160002080546001600160a01b0319169290911691909117905560010161112a565b505050565b6111b4613bdd565b6111bc613c38565b565b60008060005b600c54811015610cd5576000818152600e60209081526040808320548784528280528184206001600160a01b039182168086529352928190205460195491516322fd455760e11b81526004810182905292939092600292909116906345fa8aae90602401602060405180830381865afa158015611245573d6000803e3d6000fd5b505050506040513d601f19601f820116820180604052508101906112699190615336565b600381111561127a5761127a614e6b565b60ff16036112905761128d60018561536d565b93505b50506001016111c4565b6112a2613bdd565b6112ab82613c98565b60085550565b60008181526014602052604090205460ff16156113085760405162461bcd60e51b8152602060048201526015602482015274125cdcdd585b98d9481a5cc818dbdb5c1b195d1959605a1b60448201526064016110a9565b6000818152602760209081526040808320546029909252909120546001600160a01b03918216911633821461138e5760405162461bcd60e51b815260206004820152602660248201527f4f6e6c79207265717565737465722063616e2063616e63656c207468652069736044820152657375616e636560d01b60648201526084016110a9565b60005b600c548110156117b9576000818152600e6020908152604080832054878452601f83528184206001600160a01b0391821680865290845282852054808652602b855283862084516101408101865281546001600160401b0381168252600160401b90048516968101969096526001818101548516958701959095526002810154938416606087015260ff600160a01b85048116151560808801529296919591949193909260a0850192600160a81b909204169081111561145357611453614e6b565b600181111561146457611464614e6b565b815260038281015460208301526004830154604083015260058301546060830152600683015460809092019160ff16908111156114a3576114a3614e6b565b60038111156114b4576114b4614e6b565b9052506019546040516322fd455760e11b8152600481018590529192506001916001600160a01b03909116906345fa8aae90602401602060405180830381865afa158015611506573d6000803e3d6000fd5b505050506040513d601f19601f8201168201806040525081019061152a9190615336565b600381111561153b5761153b614e6b565b60ff16036115aa57601954604051630e52931760e21b81526001600160a01b039091169063394a4c5c90611573908490600401615436565b600060405180830381600087803b15801561158d57600080fd5b505af11580156115a1573d6000803e3d6000fd5b505050506117ae565b6019546040516322fd455760e11b8152600481018490526002916001600160a01b0316906345fa8aae90602401602060405180830381865afa1580156115f4573d6000803e3d6000fd5b505050506040513d601f19601f820116820180604052508101906116189190615336565b600381111561162957611629614e6b565b60ff1614806116a357506040516370a0823160e01b81526001600160a01b038681166004830152600091908516906370a0823190602401602060405180830381865afa15801561167d573d6000803e3d6000fd5b505050506040513d601f19601f820116820180604052508101906116a19190615407565b115b156117ae576040516370a0823160e01b81526001600160a01b038681166004830152600091908516906370a0823190602401602060405180830381865afa1580156116f2573d6000803e3d6000fd5b505050506040513d601f19601f820116820180604052508101906117169190615407565b6040516317ee7de960e11b81529091506001600160a01b03871690632fdcfbd29061174990879030908690600401615380565b600060405180830381600087803b15801561176357600080fd5b505af1158015611777573d6000803e3d6000fd5b505050506000611788858389613cba565b60008a8152601d602090815260408083206001600160a01b038a16845290915290205550505b505050600101611391565b50505050565b60006001601c60008282546117d4919061536d565b925050819055506000306040516117ea90614bce565b6001600160a01b039091168152602001604051809103906000f080158015611816573d6000803e3d6000fd5b50601c546000908152602a6020908152604080832080546001600160a01b0319166001600160a01b038681169190911790915560165482516318160ddd60e01b8152925195965093949316926318160ddd926004808401939192918290030181865afa15801561188a573d6000803e3d6000fd5b505050506040513d601f19601f820116820180604052508101906118ae9190615407565b6118c085670de0b6b3a76400006153c6565b6118ca91906153f3565b601654604051632770a7eb60e21b8152336004820152602481018790529192506001600160a01b031690639dc29fac90604401600060405180830381600087803b15801561191757600080fd5b505af115801561192b573d6000803e3d6000fd5b5050505060005b600c54811015611b57576000818152600e60209081526040808320546001600160a01b03908116808552600f9093528184205460175492516370a0823160e01b81529282166004840152929392670de0b6b3a7640000929116906370a0823190602401602060405180830381865afa1580156119b2573d6000803e3d6000fd5b505050506040513d601f19601f820116820180604052508101906119d69190615407565b6119e090866153c6565b6119ea91906153f3565b905060006119f9838388613cba565b6000818152602260209081526040808320869055601c805484528280528184206001600160a01b038981168087529185528386208790559154855260289093529281902080546001600160a01b0319163317905560175490516370a0823160e01b8152921660048301529192506370a0823190602401602060405180830381865afa158015611a8c573d6000803e3d6000fd5b505050506040513d601f19601f82011682018060405250810190611ab09190615407565b601c5460009081526024602090815260408083206001600160a01b038089168552908352928190209390935560165483516318160ddd60e01b815293519216926318160ddd92600480830193928290030181865afa158015611b16573d6000803e3d6000fd5b505050506040513d601f19601f82011682018060405250810190611b3a9190615407565b601c54600090815260266020526040902055505050600101611932565b5050601c549392505050565b611b6b613bdd565b6000602c5442611b7b919061545d565b9050600c603c611b8b81846153f3565b611b9591906153f3565b11611c085760405162461bcd60e51b815260206004820152603960248201527f596f752073686f756c642077616974206174206c6561737420313220686f757260448201527f7320616674657220746865206c6174657374207570646174650000000000000060648201526084016110a9565b60648260ff1611158015611c20575060018260ff1610155b611c885760405162461bcd60e51b815260206004820152603360248201527f546865206e65774665652073686f756c64206265206265747765656e203120616044820152726e64203130302028302e303125202d2031252960681b60648201526084016110a9565b50601a805460ff909216600160a81b0260ff60a81b1990921691909117905542602c55565b6000611cb7613bdd565b6001600160a01b038216611d065760405162461bcd60e51b8152602060048201526016602482015275696e76616c696420697373756572206164647265737360501b60448201526064016110a9565b50601980546001600160a01b0383166001600160a01b03199091161790556001919050565b60008060005b600c54811015610cd5576000818152600e6020908152604080832054878452601f83528184206001600160a01b039182168086529084528285205489865260299094528285205492516370a0823160e01b815292909116600483018190529093909184906370a0823190602401602060405180830381865afa158015611dbb573d6000803e3d6000fd5b505050506040513d601f19601f82011682018060405250810190611ddf9190615407565b6019546040516322fd455760e11b8152600481018690529192506003916001600160a01b03909116906345fa8aae90602401602060405180830381865afa158015611e2e573d6000803e3d6000fd5b505050506040513d601f19601f82011682018060405250810190611e529190615336565b6003811115611e6357611e63614e6b565b60ff16148015611e71575080155b15611e8857611e8160018761536d565b9550611fcf565b6019546040516322fd455760e11b8152600481018590526002916001600160a01b0316906345fa8aae90602401602060405180830381865afa158015611ed2573d6000803e3d6000fd5b505050506040513d601f19601f82011682018060405250810190611ef69190615336565b6003811115611f0757611f07614e6b565b60ff16148015611f15575080155b15611fcf576000888152601d602090815260408083206001600160a01b0388811685529252918290205460195492516322fd455760e11b815260048101829052909260029216906345fa8aae90602401602060405180830381865afa158015611f82573d6000803e3d6000fd5b505050506040513d601f19601f82011682018060405250810190611fa69190615336565b6003811115611fb757611fb7614e6b565b60ff1603611fcd57611fca60018861536d565b96505b505b505060019092019150611d319050565b611fe7613bdd565b6111bc6000613fee565b6000806121126006805461200490615470565b80601f016020809104026020016040519081016040528092919081815260200182805461203090615470565b801561207d5780601f106120525761010080835404028352916020019161207d565b820191906000526020600020905b81548152906001019060200180831161206057829003601f168201915b50505050506007805461208f90615470565b80601f01602080910402602001604051908101604052809291908181526020018280546120bb90615470565b80156121085780601f106120dd57610100808354040283529160200191612108565b820191906000526020600020905b8154815290600101906020018083116120eb57829003601f168201915b5050505050610bcb565b9050600061212a6008543063f14bea2060e01b61405f565b60408051808201909152600381526219d95d60ea1b602082015290915061215390829084614084565b6121ae60405180604001604052806005815260200164706174683160d81b81525060405180604001604052806011815260200170726573756c74732c61646472657373657360781b815250836140849092919063ffffffff16565b61220c604051806040016040528060058152602001643830ba341960d91b81525060405180604001604052806014815260200173726573756c74732c6d61726b657453686172657360601b815250836140849092919063ffffffff16565b61222a6122216003546001600160a01b031690565b826009546140a2565b9250505090565b61223a81611d2b565b6122865760405162461bcd60e51b815260206004820181905260248201527f43616e63656c2069737375616e6365206973206e6f7420636f6d706c6574656460448201526064016110a9565b600081815260276020908152604080832054602990925280832054601a5491516370a0823160e01b81526001600160a01b0391821660048201819052938216949291909116906370a08231906024015b602060405180830381865afa1580156122f3573d6000803e3d6000fd5b505050506040513d601f19601f820116820180604052508101906123179190615407565b601a546040516317ee7de960e11b81529192506001600160a01b0380851692632fdcfbd29261234e92169087908690600401615380565b600060405180830381600087803b15801561236857600080fd5b505af115801561237c573d6000803e3d6000fd5b5050505050505050565b61238f816111be565b6123e75760405162461bcd60e51b815260206004820152602360248201527f526564656d7074696f6e206f726465727320617265206e6f7420636f6d706c656044820152621d195960ea1b60648201526084016110a9565b60008181526015602052604090205460ff16156124405760405162461bcd60e51b8152602060048201526017602482015276149959195b5c1d1a5bdb881a5cc818dbdb5c1b195d1959604a1b60448201526064016110a9565b600081815260286020908152604080832054602a90925280832054601a5491516370a0823160e01b81526001600160a01b0391821660048201819052938216949291909116906370a0823190602401602060405180830381865afa1580156124ac573d6000803e3d6000fd5b505050506040513d601f19601f820116820180604052508101906124d09190615407565b601a546040516317ee7de960e11b81529192506001600160a01b0380851692632fdcfbd29261250792169087908690600401615380565b600060405180830381600087803b15801561252157600080fd5b505af1158015612535573d6000803e3d6000fd5b505050600094855250506015602052505060409020805460ff19166001179055565b61255f613bdd565b6111bc614135565b61257081612ce8565b6125c75760405162461bcd60e51b815260206004820152602260248201527f43616e63656c20726564656d7074696f6e206973206e6f7420636f6d706c6574604482015261195960f21b60648201526084016110a9565b600081815260286020908152604080832054602a90925280832054601a5491516370a0823160e01b81526001600160a01b0391821660048201819052938216949291909116906370a08231906024016122d6565b60008181526015602052604090205460ff16156126745760405162461bcd60e51b8152602060048201526017602482015276149959195b5c1d1a5bdb881a5cc818dbdb5c1b195d1959604a1b60448201526064016110a9565b600081815260286020908152604080832054602a909252909120546001600160a01b0391821691163382146126fc5760405162461bcd60e51b815260206004820152602860248201527f4f6e6c79207265717565737465722063616e2063616e63656c207468652072656044820152673232b6b83a34b7b760c11b60648201526084016110a9565b60005b600c548110156117b9576000818152600e60209081526040808320548784528280528184206001600160a01b0391821680865290845282852054808652602b855283862084516101408101865281546001600160401b0381168252600160401b90048516968101969096526001818101548516958701959095526002810154938416606087015260ff600160a01b85048116151560808801529296919591949193909260a0850192600160a81b90920416908111156127c0576127c0614e6b565b60018111156127d1576127d1614e6b565b815260038281015460208301526004830154604083015260058301546060830152600683015460809092019160ff169081111561281057612810614e6b565b600381111561282157612821614e6b565b9052506019546040516322fd455760e11b8152600481018590529192506001916001600160a01b03909116906345fa8aae90602401602060405180830381865afa158015612873573d6000803e3d6000fd5b505050506040513d601f19601f820116820180604052508101906128979190615336565b60038111156128a8576128a8614e6b565b60ff160361291757601954604051630e52931760e21b81526001600160a01b039091169063394a4c5c906128e0908490600401615436565b600060405180830381600087803b1580156128fa57600080fd5b505af115801561290e573d6000803e3d6000fd5b50505050612b1b565b6019546040516322fd455760e11b8152600481018490526002916001600160a01b0316906345fa8aae90602401602060405180830381865afa158015612961573d6000803e3d6000fd5b505050506040513d601f19601f820116820180604052508101906129859190615336565b600381111561299657612996614e6b565b60ff161480612a1057506040516370a0823160e01b81526001600160a01b038681166004830152600091908516906370a0823190602401602060405180830381865afa1580156129ea573d6000803e3d6000fd5b505050506040513d601f19601f82011682018060405250810190612a0e9190615407565b115b15612b1b576040516370a0823160e01b81526001600160a01b038681166004830152600091908516906370a0823190602401602060405180830381865afa158015612a5f573d6000803e3d6000fd5b505050506040513d601f19601f82011682018060405250810190612a839190615407565b6040516317ee7de960e11b81529091506001600160a01b03871690632fdcfbd290612ab690879030908690600401615380565b600060405180830381600087803b158015612ad057600080fd5b505af1158015612ae4573d6000803e3d6000fd5b505050506000612af5858389613964565b60008a8152601e602090815260408083206001600160a01b038a16845290915290205550505b5050506001016126ff565b6000612b30613bdd565b6001600160a01b038216612b865760405162461bcd60e51b815260206004820181905260248201527f696e76616c696420637573746f6469616e2077616c6c6574206164647265737360448201526064016110a9565b50601880546001600160a01b0383166001600160a01b03199091161790556001919050565b612bb3614bdb565b6000828152602b602090815260409182902082516101408101845281546001600160401b03811682526001600160a01b03600160401b9091048116938201939093526001808301548416948201949094526002820154928316606082015260ff600160a01b84048116151560808301529093919260a0850192600160a81b90910490911690811115612c4757612c47614e6b565b6001811115612c5857612c58614e6b565b815260038281015460208301526004830154604083015260058301546060830152600683015460809092019160ff1690811115612c9757612c97614e6b565b6003811115612ca857612ca8614e6b565b90525092915050565b612cb9613bdd565b6006612cc583826154f4565b5060076111a782826154f4565b612cda613bdd565b612ce4828261417e565b5050565b60008060005b600c54811015610cd5576000818152600e60209081526040808320548784528280528184206001600160a01b0391821680865290845282852054898652602a9094528285205492516370a0823160e01b815292909116600483018190529093909184906370a0823190602401602060405180830381865afa158015612d77573d6000803e3d6000fd5b505050506040513d601f19601f82011682018060405250810190612d9b9190615407565b6019546040516322fd455760e11b8152600481018690529192506003916001600160a01b03909116906345fa8aae90602401602060405180830381865afa158015612dea573d6000803e3d6000fd5b505050506040513d601f19601f82011682018060405250810190612e0e9190615336565b6003811115612e1f57612e1f614e6b565b60ff16148015612e2d575080155b15612e4457612e3d60018761536d565b9550612f8b565b6019546040516322fd455760e11b8152600481018590526002916001600160a01b0316906345fa8aae90602401602060405180830381865afa158015612e8e573d6000803e3d6000fd5b505050506040513d601f19601f82011682018060405250810190612eb29190615336565b6003811115612ec357612ec3614e6b565b60ff16148015612ed1575080155b15612f8b576000888152601e602090815260408083206001600160a01b0388811685529252918290205460195492516322fd455760e11b815260048101829052909260029216906345fa8aae90602401602060405180830381865afa158015612f3e573d6000803e3d6000fd5b505050506040513d601f19601f82011682018060405250810190612f629190615336565b6003811115612f7357612f73614e6b565b60ff1603612f8957612f8660018861536d565b96505b505b505060019092019150612cee9050565b612fa481610bf8565b612ff05760405162461bcd60e51b815260206004820152601860248201527f4f726465727320617265206e6f7420636f6d706c65746564000000000000000060448201526064016110a9565b60008181526014602052604090205460ff16156130475760405162461bcd60e51b8152602060048201526015602482015274125cdcdd585b98d9481a5cc818dbdb5c1b195d1959605a1b60448201526064016110a9565b6000818152602760205260408120546001600160a01b03169080805b600c548110156132fb576000818152600e6020908152604080832054888452601f83528184206001600160a01b03918216808652935281842054601954601a54935163a377cfbf60e01b815260048101869052938316602485015293949093909291169063a377cfbf906044016040805180830381865afa1580156130ec573d6000803e3d6000fd5b505050506040513d601f19601f8201168201806040525081019061311091906155b3565b6000898152602960205260408082205490516370a0823160e01b81526001600160a01b0391821660048201819052939450908616906370a0823190602401602060405180830381865afa15801561316b573d6000803e3d6000fd5b505050506040513d601f19601f8201168201806040525081019061318f9190615407565b60008b81526023602090815260408083206001600160a01b038a1684529091528120548551929350916131c290836153c6565b600087815260216020526040812054919250906131df908361536d565b90506131eb828c61536d565b9a506131f7818b61536d565b6040516317ee7de960e11b8152909a506001600160a01b03861690632fdcfbd29061322a908b9030908990600401615380565b600060405180830381600087803b15801561324457600080fd5b505af1158015613258573d6000803e3d6000fd5b505050506001600160a01b038881166000908152600f602052604090819020546017549151636e553f6560e01b815260048101889052918316602483015290911690636e553f65906044016020604051808303816000875af11580156132c2573d6000803e3d6000fd5b505050506040513d601f19601f820116820180604052508101906132e69190615407565b50506001909701965061306395505050505050565b506000848152602560205260408120549081900361338e5760006133208360646153c6565b6016546040516340c10f1960e01b81526001600160a01b038881166004830152602482018490529293509116906340c10f1990604401600060405180830381600087803b15801561337057600080fd5b505af1158015613384573d6000803e3d6000fd5b505050505061341e565b60008361339b84846153c6565b6133a591906153f3565b905060006133b3838361545d565b6016546040516340c10f1960e01b81526001600160a01b038981166004830152602482018490529293509116906340c10f1990604401600060405180830381600087803b15801561340357600080fd5b505af1158015613417573d6000803e3d6000fd5b5050505050505b5050601b546000908152601460205260409020805460ff19166001179055505050565b60008060005b600c54811015613551576000818152600e60209081526040808320546001600160a01b0316808452601290925282205490919068056bc75e2d631000009061348f90886153c6565b61349991906153f3565b601954601a546040516308da5c3560e21b81526000600482018190526001600160a01b0392831660248301529394508392919091169063236970d4906044016040805180830381865afa1580156134f4573d6000803e3d6000fd5b505050506040513d601f19601f820116820180604052508101906135189190615612565b915091506000613528828561439f565b613532908461536d565b905061353e818861536d565b9650506001909401935061344792505050565b5092915050565b6000613562613bdd565b6001600160a01b0383166135b05760405162461bcd60e51b8152602060048201526015602482015274696e76616c696420746f6b656e206164647265737360581b60448201526064016110a9565b50601a805460ff8316600160a01b026001600160a81b03199091166001600160a01b03851617179055600192915050565b7ff0c57e16840df040f15088dc2f81fe391c3923bec73e23a9662efc9c229c6a008054600160401b810460ff1615906001600160401b03166000811580156136265750825b90506000826001600160401b031660011480156136425750303b155b905081158015613650575080155b1561366e5760405163f92ee8a960e01b815260040160405180910390fd5b845467ffffffffffffffff19166001178555831561369857845460ff60401b1916600160401b1785555b8c601960006101000a8154816001600160a01b0302191690836001600160a01b031602179055508b601660006101000a8154816001600160a01b0302191690836001600160a01b031602179055508a601760006101000a8154816001600160a01b0302191690836001600160a01b0316021790555089601a60006101000a8154816001600160a01b0302191690836001600160a01b0316021790555088601a60146101000a81548160ff021916908360ff160217905550613758336143c8565b6137606143d9565b601a805460ff60a81b1916600560a91b179055600280546001600160a01b0319166001600160a01b038a1617905561379787613c98565b6008869055600a6137b1670de0b6b3a764000060016153c6565b6137bb91906153f3565b6009556040805160608101909152602a808252615b0160208301396006906137e390826154f4565b506040518060600160405280602e8152602001615b2b602e913960079061380a90826154f4565b50831561385157845460ff60401b19168555604051600181527fc7f505b2f371ae2175ee4913f4499e1f2633a7b5936321eed1cdaeb6115181d29060200160405180910390a15b50505050505050505050505050565b60008381526005602052604090205483906001600160a01b031633146138d95760405162461bcd60e51b815260206004820152602860248201527f536f75726365206d75737420626520746865206f7261636c65206f6620746865604482015267081c995c5d595cdd60c21b60648201526084016110a9565b60008181526005602052604080822080546001600160a01b03191690555182917f7cc135e0cebb02c3480ae5d74d377283180a2601f8f644edf7987b009316c63a91a26117b9838361417e565b61392e613bdd565b6001600160a01b03811661395857604051631e4fbdf760e01b8152600060048201526024016110a9565b61396181613fee565b50565b601954601a546040516308da5c3560e21b81526000600482018190526001600160a01b039283166024830152928392839291169063236970d4906044016040805180830381865afa1580156139bd573d6000803e3d6000fd5b505050506040513d601f19601f820116820180604052508101906139e19190615612565b9150915060006139f1828761439f565b6139fb908461536d565b90506000613a0960006143e9565b6001600160a01b0380881660208301528916604082015260e0810188905290506000613a35838961536d565b60195460405163aa2165f160e01b81529192506000916001600160a01b039091169063aa2165f190613a6b90869060040161511a565b6020604051808303816000875af1158015613a8a573d6000803e3d6000fd5b505050506040513d601f19601f82011682018060405250810190613aae9190615407565b6000818152602b602090815260409182902086518154928801516001600160401b039091166001600160e01b031990931692909217600160401b6001600160a01b039384160217815591860151600180840180546001600160a01b03191692841692909217909155606087015160028401805460808a0151929094166001600160a81b031990941693909317600160a01b911515919091021780835560a08801519495508794929160ff60a81b1990911690600160a81b908490811115613b7757613b77614e6b565b021790555060c0820151816003015560e0820151816004015561010082015181600501556101208201518160060160006101000a81548160ff02191690836003811115613bc657613bc6614e6b565b0217905550919750505050505050505b9392505050565b33613c0f7f9016d09d72d40fdae2fd8ceac6b6234c7706214fd39c1cd1e609a0528c199300546001600160a01b031690565b6001600160a01b0316146111bc5760405163118cdaa760e01b81523360048201526024016110a9565b613c406144a0565b600080516020615b59833981519152805460ff191681557f5db9ee0a495bf2e6ff9c91a7834c1ba4fdd244a5e8aa4e537bd38aeae4b073aa335b6040516001600160a01b03909116815260200160405180910390a150565b600380546001600160a01b0319166001600160a01b0392909216919091179055565b6001600160a01b038084166000908152600f6020526040808220546017549151631c20fadd60e01b8152929390811692911690631c20fadd90613d0590849030908990600401615380565b600060405180830381600087803b158015613d1f57600080fd5b505af1158015613d33573d6000803e3d6000fd5b5050604051635d043b2960e11b81526004810187905230602482018190526044820152600092506001600160a01b038416915063ba087652906064016020604051808303816000875af1158015613d8e573d6000803e3d6000fd5b505050506040513d601f19601f82011682018060405250810190613db29190615407565b90506000613dc060016143e9565b6001600160a01b03888116604083810182905260c084018690528883166020850152601954905163095ea7b360e01b8152921660048301526024820185905291925063095ea7b3906044016020604051808303816000875af1158015613e2a573d6000803e3d6000fd5b505050506040513d601f19601f82011682018060405250810190613e4e91906153a4565b5060195460405163aa2165f160e01b81526000916001600160a01b03169063aa2165f190613e8090859060040161511a565b6020604051808303816000875af1158015613e9f573d6000803e3d6000fd5b505050506040513d601f19601f82011682018060405250810190613ec39190615407565b6000818152602b602090815260409182902085518154928701516001600160401b039091166001600160e01b031990931692909217600160401b6001600160a01b039384160217815591850151600180840180546001600160a01b0319169284169290921790915560608601516002840180546080890151929094166001600160a81b031990941693909317600160a01b911515919091021780835560a08701519495508694929160ff60a81b1990911690600160a81b908490811115613f8c57613f8c614e6b565b021790555060c0820151816003015560e0820151816004015561010082015181600501556101208201518160060160006101000a81548160ff02191690836003811115613fdb57613fdb614e6b565b0217905550919998505050505050505050565b7f9016d09d72d40fdae2fd8ceac6b6234c7706214fd39c1cd1e609a0528c19930080546001600160a01b031981166001600160a01b03848116918217845560405192169182907f8be0079c531659141344cd1fd0a4f28419497f9722a3daafe3b4186f6b6457e090600090a3505050565b614067614c3e565b61406f614c3e565b61407b818686866144d0565b95945050505050565b60808301516140939083614516565b60808301516111a79082614516565b6004546000906140b381600161536d565b600455835160408086015160808701515191516000936320214ca360e11b936140eb9386938493923092918a9160019160240161564a565b60408051601f198184030181529190526020810180516001600160e01b03166001600160e01b031990931692909217909152905061412b8683868461452d565b9695505050505050565b61413d61468b565b600080516020615b59833981519152805460ff191660011781557f62e78cea01bee320cd4e420270b5ea74000d11b0c9f74754ebdbfc544b05a25833613c7a565b818160005b825181101561437f5782818151811061419e5761419e615420565b6020026020010151600d600083815260200190815260200160002060006101000a8154816001600160a01b0302191690836001600160a01b0316021790555080601060008584815181106141f4576141f4615420565b60200260200101516001600160a01b03166001600160a01b031681526020019081526020016000208190555081818151811061423257614232615420565b60200260200101516013600085848151811061425057614250615420565b60200260200101516001600160a01b03166001600160a01b0316815260200190815260200160002081905550600c546000036143775782818151811061429857614298615420565b6020026020010151600e600083815260200190815260200160002060006101000a8154816001600160a01b0302191690836001600160a01b031602179055508181815181106142e9576142e9615420565b60200260200101516012600085848151811061430757614307615420565b60200260200101516001600160a01b03166001600160a01b0316815260200190815260200160002081905550806011600085848151811061434a5761434a615420565b60200260200101516001600160a01b03166001600160a01b03168152602001908152602001600020819055505b600101614183565b508151600b55600c54600003614395578151600c555b505042600a555050565b60008262ffffff166000036143b5576000613bd6565b613bd68262ffffff8516620f42406146bc565b6143d0614790565b613961816147d9565b6143e1614790565b6111bc6147e1565b6143f1614bdb565b60408051610140810182526001600160401b03421681523060208201526016546001600160a01b0390811692820192909252601a549091166060820152821515608082015260a08101600081526020018361444d576000614458565b68056bc75e2d631000005b68ffffffffffffffffff1681526020018361447c5768056bc75e2d6310000061447f565b60005b68ffffffffffffffffff168152600060208201526040016001905292915050565b600080516020615b598339815191525460ff166111bc57604051638dfc202b60e01b815260040160405180910390fd5b6144d8614c3e565b6144e88560800151610100614802565b50508284526001600160a01b03821660208501526001600160e01b031981166040850152835b949350505050565b6145238260038351614867565b6111a7828261496e565b6040516bffffffffffffffffffffffff193060601b1660208201526034810184905260009060540160408051808303601f1901815282825280516020918201206000818152600590925291812080546001600160a01b0319166001600160a01b038a1617905590925082917fb5e6e01e79f91267dc17b4e6314d5d4d03593d2ceee0fbb452b750bd70ea5af99190a2600254604051630200057560e51b81526001600160a01b0390911690634000aea0906145f0908890879087906004016156a3565b6020604051808303816000875af115801561460f573d6000803e3d6000fd5b505050506040513d601f19601f8201168201806040525081019061463391906153a4565b61450e5760405162461bcd60e51b815260206004820152602360248201527f756e61626c6520746f207472616e73666572416e6443616c6c20746f206f7261604482015262636c6560e81b60648201526084016110a9565b600080516020615b598339815191525460ff16156111bc5760405163d93c066560e01b815260040160405180910390fd5b60008080600019858709858702925082811083820303915050806000036146f6578382816146ec576146ec6153dd565b0492505050613bd6565b83811061472757604051630c740aef60e31b81526004810187905260248101869052604481018590526064016110a9565b60008486880960026001871981018816978890046003810283188082028403028082028403028082028403028082028403028082028403029081029092039091026000889003889004909101858311909403939093029303949094049190911702949350505050565b7ff0c57e16840df040f15088dc2f81fe391c3923bec73e23a9662efc9c229c6a0054600160401b900460ff166111bc57604051631afcd79f60e31b815260040160405180910390fd5b61392e614790565b6147e9614790565b600080516020615b59833981519152805460ff19169055565b6040805180820190915260608152600060208201526148226020836156ca565b1561484a576148326020836156ca565b61483d90602061545d565b614847908361536d565b91505b506020828101829052604080518085526000815290920101905290565b6017816001600160401b03161161488b576117b98360e0600585901b168317614995565b60ff816001600160401b0316116148c7576148b1836018611fe0600586901b1617614995565b506117b9836001600160401b03831660016149ba565b61ffff816001600160401b031611614904576148ee836019611fe0600586901b1617614995565b506117b9836001600160401b03831660026149ba565b63ffffffff816001600160401b0316116149435761492d83601a611fe0600586901b1617614995565b506117b9836001600160401b03831660046149ba565b61495883601b611fe0600586901b1617614995565b506117b9836001600160401b03831660086149ba565b604080518082019091526060815260006020820152613bd6838460000151518485516149e0565b604080518082019091526060815260006020820152613bd68384600001515184614aca565b60408051808201909152606081526000602082015261450e848560000151518585614b25565b6040805180820190915260608152600060208201528251821115614a0357600080fd5b6020850151614a12838661536d565b1115614a4557614a4585614a3587602001518786614a30919061536d565b614ba6565b614a409060026153c6565b614bb7565b600080865180518760208301019350808887011115614a645787860182525b505050602084015b60208410614aa45780518252614a8360208361536d565b9150614a9060208261536d565b9050614a9d60208561545d565b9350614a6c565b51815160001960208690036101000a019081169019919091161790525083949350505050565b60408051808201909152606081526000602082015283602001518310614aff57614aff8485602001516002614a4091906153c6565b8351805160208583010184815350808503614b1b576001810182525b5093949350505050565b6040805180820190915260608152600060208201526020850151614b49858461536d565b1115614b5d57614b5d85614a35868561536d565b60006001614b6d846101006157c2565b614b77919061545d565b9050855183868201018583198251161781525080518487011115614b9b5783860181525b509495945050505050565b600081831115610cf1575081610bf2565b8151614bc38383614802565b506117b9838261496e565b610332806157cf83390190565b604080516101408101825260008082526020820181905291810182905260608101829052608081018290529060a0820190815260200160008152602001600081526020016000815260200160006003811115614c3957614c39614e6b565b905290565b6040805160a0810182526000808252602080830182905282840182905260608084018390528451808601909552845283015290608082015290565b80356001600160a01b03811681146110d157600080fd5b60008060408385031215614ca357600080fd5b82359150614cb360208401614c79565b90509250929050565b600060208284031215614cce57600080fd5b613bd682614c79565b634e487b7160e01b600052604160045260246000fd5b604051601f8201601f191681016001600160401b0381118282101715614d1557614d15614cd7565b604052919050565b600082601f830112614d2e57600080fd5b81356001600160401b03811115614d4757614d47614cd7565b614d5a601f8201601f1916602001614ced565b818152846020838601011115614d6f57600080fd5b816020850160208301376000918101602001919091529392505050565b60008060408385031215614d9f57600080fd5b82356001600160401b0380821115614db657600080fd5b614dc286838701614d1d565b93506020850135915080821115614dd857600080fd5b50614de585828601614d1d565b9150509250929050565b60005b83811015614e0a578181015183820152602001614df2565b50506000910152565b60008151808452614e2b816020860160208601614def565b601f01601f19169290920160200192915050565b602081526000613bd66020830184614e13565b600060208284031215614e6457600080fd5b5035919050565b634e487b7160e01b600052602160045260246000fd5b60028110614e9157614e91614e6b565b9052565b60048110614e9157614e91614e6b565b6001600160401b038b1681526001600160a01b038a8116602083015289811660408301528816606082015286151560808201526101408101614eea60a0830188614e81565b8560c08301528460e083015283610100830152614f0b610120830184614e95565b9b9a5050505050505050505050565b60006001600160401b03821115614f3357614f33614cd7565b5060051b60200190565b600082601f830112614f4e57600080fd5b81356020614f63614f5e83614f1a565b614ced565b8083825260208201915060208460051b870101935086841115614f8557600080fd5b602086015b84811015614fa857614f9b81614c79565b8352918301918301614f8a565b509695505050505050565b60008060408385031215614fc657600080fd5b82356001600160401b0380821115614fdd57600080fd5b614fe986838701614f3d565b93506020850135915080821115614fff57600080fd5b50614de585828601614f3d565b6000806040838503121561501f57600080fd5b61502883614c79565b946020939093013593505050565b803560ff811681146110d157600080fd5b60006020828403121561505957600080fd5b613bd682615036565b80516001600160401b03168252602081015161508960208401826001600160a01b03169052565b5060408101516150a460408401826001600160a01b03169052565b5060608101516150bf60608401826001600160a01b03169052565b5060808101516150d3608084018215159052565b5060a08101516150e660a0840182614e81565b5060c081015160c083015260e081015160e0830152610100808201518184015250610120808201516117b982850182614e95565b6101408101610bf28284615062565b600082601f83011261513a57600080fd5b8135602061514a614f5e83614f1a565b8083825260208201915060208460051b87010193508684111561516c57600080fd5b602086015b84811015614fa85780358352918301918301615171565b6000806040838503121561519b57600080fd5b82356001600160401b03808211156151b257600080fd5b6151be86838701614f3d565b935060208501359150808211156151d457600080fd5b50614de585828601615129565b600080604083850312156151f457600080fd5b6151fd83614c79565b9150614cb360208401615036565b600080600080600080600080610100898b03121561522857600080fd5b61523189614c79565b975061523f60208a01614c79565b965061524d60408a01614c79565b955061525b60608a01614c79565b945061526960808a01615036565b935061527760a08a01614c79565b925061528560c08a01614c79565b915060e089013590509295985092959890939650565b6000806000606084860312156152b057600080fd5b8335925060208401356001600160401b03808211156152ce57600080fd5b6152da87838801614f3d565b935060408601359150808211156152f057600080fd5b506152fd86828701615129565b9150509250925092565b60008351615319818460208801614def565b83519083019061532d818360208801614def565b01949350505050565b60006020828403121561534857600080fd5b815160048110613bd657600080fd5b634e487b7160e01b600052601160045260246000fd5b80820180821115610bf257610bf2615357565b6001600160a01b039384168152919092166020820152604081019190915260600190565b6000602082840312156153b657600080fd5b81518015158114613bd657600080fd5b8082028115828204841417610bf257610bf2615357565b634e487b7160e01b600052601260045260246000fd5b600082615402576154026153dd565b500490565b60006020828403121561541957600080fd5b5051919050565b634e487b7160e01b600052603260045260246000fd5b60006101606154458385615062565b61014083018190526000908301525061018001919050565b81810381811115610bf257610bf2615357565b600181811c9082168061548457607f821691505b602082108103610cf157634e487b7160e01b600052602260045260246000fd5b601f8211156111a7576000816000526020600020601f850160051c810160208610156154cd5750805b601f850160051c820191505b818110156154ec578281556001016154d9565b505050505050565b81516001600160401b0381111561550d5761550d614cd7565b6155218161551b8454615470565b846154a4565b602080601f831160018114615556576000841561553e5750858301515b600019600386901b1c1916600185901b1785556154ec565b600085815260208120601f198616915b8281101561558557888601518255948401946001909101908401615566565b50858210156155a35787850151600019600388901b60f8161c191681555b5050505050600190811b01905550565b6000604082840312156155c557600080fd5b604051604081016001600160401b0382821081831117156155e8576155e8614cd7565b816040528451835260208501519150808216821461560557600080fd5b5060208201529392505050565b6000806040838503121561562557600080fd5b82519150602083015162ffffff8116811461563f57600080fd5b809150509250929050565b6001600160a01b0389811682526020820189905260408201889052861660608201526001600160e01b03198516608082015260a0810184905260c0810183905261010060e08201819052600090614f0b83820185614e13565b60018060a01b038416815282602082015260606040820152600061407b6060830184614e13565b6000826156d9576156d96153dd565b500690565b600181815b808511156157195781600019048211156156ff576156ff615357565b8085161561570c57918102915b93841c93908002906156e3565b509250929050565b60008261573057506001610bf2565b8161573d57506000610bf2565b8160018114615753576002811461575d57615779565b6001915050610bf2565b60ff84111561576e5761576e615357565b50506001821b610bf2565b5060208310610133831016604e8410600b841016171561579c575081810a610bf2565b6157a683836156de565b80600019048211156157ba576157ba615357565b029392505050565b6000613bd6838361572156fe6080604052348015600f57600080fd5b50604051610332380380610332833981016040819052602c916050565b600080546001600160a01b0319166001600160a01b0392909216919091179055607e565b600060208284031215606157600080fd5b81516001600160a01b0381168114607757600080fd5b9392505050565b6102a58061008d6000396000f3fe608060405234801561001057600080fd5b50600436106100415760003560e01c806313af4035146100465780632fdcfbd21461005b5780638da5cb5b1461006e575b600080fd5b6100596100543660046101ef565b61009d565b005b610059610069366004610211565b61010f565b600054610081906001600160a01b031681565b6040516001600160a01b03909116815260200160405180910390f35b6000546001600160a01b031633146100ed5760405162461bcd60e51b815260206004820152600e60248201526d139bdd08185d5d1a1bdc9a5e995960921b60448201526064015b60405180910390fd5b600080546001600160a01b0319166001600160a01b0392909216919091179055565b6000546001600160a01b0316331461015a5760405162461bcd60e51b815260206004820152600e60248201526d139bdd08185d5d1a1bdc9a5e995960921b60448201526064016100e4565b60405163a9059cbb60e01b81526001600160a01b0383811660048301526024820183905284169063a9059cbb906044016020604051808303816000875af11580156101a9573d6000803e3d6000fd5b505050506040513d601f19601f820116820180604052508101906101cd919061024d565b50505050565b80356001600160a01b03811681146101ea57600080fd5b919050565b60006020828403121561020157600080fd5b61020a826101d3565b9392505050565b60008060006060848603121561022657600080fd5b61022f846101d3565b925061023d602085016101d3565b9150604084013590509250925092565b60006020828403121561025f57600080fd5b8151801515811461020a57600080fdfea2646970667358221220502fe3cef5472467ba27d3f0af8cc13ea970369ac0d01284025186802306355064736f6c6343000819003368747470733a2f2f6170702e6e65786c6162732e696f2f6170692f616c6c46756e64696e6752617465733f6d756c7469706c7946756e633d31382674696d65734e656746756e643d74727565266172726179733d74727565cd5ed15c6e187e77e9aee88184c21f4f2182ab5827cb3b7e07fbedcd63f03300a2646970667358221220914f9f133f6e3f39c86acff8a590c979e6347e2f7534f7dd8c3ec4bdd827b88c64736f6c63430008190033","linkReferences":{}},"methodIdentifiers":{"buyRequestPayedAmountById(uint256)":"8861d235","calculateIssuanceFee(uint256)":"e19eefbe","cancelIssuance(uint256)":"46d66a2c","cancelIssuanceRequestId(uint256,address)":"02e80f71","cancelRedemption(uint256)":"9219e510","cancelRedemptionRequestId(uint256,address)":"8c221899","checkCancelIssuanceStatus(uint256)":"631c8385","checkCancelRedemptionStatus(uint256)":"b592662a","checkIssuanceOrdersStatus(uint256)":"2343acb4","checkRedemptionOrdersStatus(uint256)":"3fac0922","coaByIssuanceNonce(uint256)":"31c99010","coaByRedemptionNonce(uint256)":"b75f4c2c","completeCancelIssuance(uint256)":"807ca237","completeCancelRedemption(uint256)":"9026544f","completeIssuance(uint256)":"bed45bef","completeRedemption(uint256)":"840ecba0","concatenation(string,string)":"0e329357","currentList(uint256)":"9932ba4c","custodianWallet()":"1e106e99","externalJobId()":"a8b54bd4","feeRate()":"978bbdb9","fulfillAssetsData(bytes32,address[],uint256[])":"f14bea20","getOrderInctanceById(uint256)":"a58e03af","initialize(address,address,address,address,uint8,address,address,bytes32)":"efa906c7","issuance(uint256)":"248b761e","issuanceIndexTokenPrimaryTotalSupply(uint256)":"b1dd819e","issuanceIsCompleted(uint256)":"a84ebc17","issuanceNonce()":"9dbb9c9e","issuanceRequestId(uint256,address)":"264fa8b9","issuanceRequesterByNonce(uint256)":"94674098","issuanceTokenPrimaryBalance(uint256,address)":"da65925a","issuer()":"1d143848","lastUpdateTime()":"c8f33c91","latestFeeUpdate()":"011ced5f","mockFillAssetsList(address[],uint256[])":"addc70d1","oracleList(uint256)":"239aad0d","oraclePayment()":"0c02e130","orderInstanceById(uint256)":"15e666a2","owner()":"8da5cb5b","pause()":"8456cb59","paused()":"5c975abb","redemption(uint256)":"4a1dc092","redemptionIndexTokenPrimaryTotalSupply(uint256)":"daf1c17d","redemptionIsCompleted(uint256)":"76529fdf","redemptionNonce()":"84d77bb1","redemptionRequestId(uint256,address)":"f513a718","redemptionRequesterByNonce(uint256)":"78032658","redemptionTokenPrimaryBalance(uint256,address)":"a363b9cb","renounceOwnership()":"715018a6","requestAssetsData()":"7ca58c55","sellRequestAssetAmountById(uint256)":"a87f98d2","setCustodianWallet(address)":"9cc0fb5b","setDShareAddresses(address[],address[])":"3492be94","setFeeRate(uint8)":"5177942a","setIssuer(address)":"55cc4e57","setOracleInfo(address,bytes32)":"43482fc8","setTokenAddress(address)":"26a4e8d2","setUrl(string,string)":"a73e1cbf","setUsdcAddress(address,uint8)":"eab2a711","token()":"fc0c546a","tokenCurrentListIndex(address)":"914f0cc6","tokenCurrentMarketShare(address)":"0be52713","tokenOracleListIndex(address)":"8c88c10c","tokenOracleMarketShare(address)":"4b3e0b80","totalCurrentList()":"53fd4332","totalOracleList()":"c8599ded","transferOwnership(address)":"f2fde38b","unpause()":"3f4ba83a","usdc()":"3e413bee","usdcDecimals()":"7bf42165","vault()":"fbfa77cf","wrappedDshareAddress(address)":"092755e0"},"id":16}