{"abi":[{"type":"function","name":"burnedTokenAmountByNonce","inputs":[{"name":"","type":"uint256","internalType":"uint256"}],"outputs":[{"name":"","type":"uint256","internalType":"uint256"}],"stateMutability":"view"},{"type":"function","name":"buyRequestPayedAmountById","inputs":[{"name":"","type":"uint256","internalType":"uint256"}],"outputs":[{"name":"","type":"uint256","internalType":"uint256"}],"stateMutability":"view"},{"type":"function","name":"calculateBuyRequestFee","inputs":[{"name":"_amount","type":"uint256","internalType":"uint256"}],"outputs":[{"name":"","type":"uint256","internalType":"uint256"}],"stateMutability":"view"},{"type":"function","name":"calculateIssuanceFee","inputs":[{"name":"_inputAmount","type":"uint256","internalType":"uint256"}],"outputs":[{"name":"","type":"uint256","internalType":"uint256"}],"stateMutability":"view"},{"type":"function","name":"cancelIssuance","inputs":[{"name":"_issuanceNonce","type":"uint256","internalType":"uint256"}],"outputs":[],"stateMutability":"nonpayable"},{"type":"function","name":"cancelIssuanceComplted","inputs":[{"name":"","type":"uint256","internalType":"uint256"}],"outputs":[{"name":"","type":"bool","internalType":"bool"}],"stateMutability":"view"},{"type":"function","name":"cancelIssuanceRequestId","inputs":[{"name":"","type":"uint256","internalType":"uint256"},{"name":"","type":"address","internalType":"address"}],"outputs":[{"name":"","type":"uint256","internalType":"uint256"}],"stateMutability":"view"},{"type":"function","name":"cancelRedemption","inputs":[{"name":"_redemptionNonce","type":"uint256","internalType":"uint256"}],"outputs":[],"stateMutability":"nonpayable"},{"type":"function","name":"cancelRedemptionComplted","inputs":[{"name":"","type":"uint256","internalType":"uint256"}],"outputs":[{"name":"","type":"bool","internalType":"bool"}],"stateMutability":"view"},{"type":"function","name":"cancelRedemptionRequestId","inputs":[{"name":"","type":"uint256","internalType":"uint256"},{"name":"","type":"address","internalType":"address"}],"outputs":[{"name":"","type":"uint256","internalType":"uint256"}],"stateMutability":"view"},{"type":"function","name":"checkCancelIssuanceStatus","inputs":[{"name":"_issuanceNonce","type":"uint256","internalType":"uint256"}],"outputs":[{"name":"","type":"bool","internalType":"bool"}],"stateMutability":"view"},{"type":"function","name":"checkCancelRedemptionStatus","inputs":[{"name":"_redemptionNonce","type":"uint256","internalType":"uint256"}],"outputs":[{"name":"","type":"bool","internalType":"bool"}],"stateMutability":"view"},{"type":"function","name":"checkFirstRebalanceOrdersStatus","inputs":[{"name":"_rebalanceNonce","type":"uint256","internalType":"uint256"}],"outputs":[{"name":"","type":"bool","internalType":"bool"}],"stateMutability":"view"},{"type":"function","name":"checkIssuanceOrdersStatus","inputs":[{"name":"_issuanceNonce","type":"uint256","internalType":"uint256"}],"outputs":[{"name":"","type":"bool","internalType":"bool"}],"stateMutability":"view"},{"type":"function","name":"checkRedemptionOrdersStatus","inputs":[{"name":"_redemptionNonce","type":"uint256","internalType":"uint256"}],"outputs":[{"name":"","type":"bool","internalType":"bool"}],"stateMutability":"view"},{"type":"function","name":"checkSecondRebalanceOrdersStatus","inputs":[{"name":"_rebalanceNonce","type":"uint256","internalType":"uint256"}],"outputs":[{"name":"","type":"bool","internalType":"bool"}],"stateMutability":"view"},{"type":"function","name":"coaByIssuanceNonce","inputs":[{"name":"","type":"uint256","internalType":"uint256"}],"outputs":[{"name":"","type":"address","internalType":"address"}],"stateMutability":"view"},{"type":"function","name":"coaByRedemptionNonce","inputs":[{"name":"","type":"uint256","internalType":"uint256"}],"outputs":[{"name":"","type":"address","internalType":"address"}],"stateMutability":"view"},{"type":"function","name":"completeCancelIssuance","inputs":[{"name":"_issuanceNonce","type":"uint256","internalType":"uint256"}],"outputs":[],"stateMutability":"nonpayable"},{"type":"function","name":"completeCancelRedemption","inputs":[{"name":"_redemptionNonce","type":"uint256","internalType":"uint256"}],"outputs":[],"stateMutability":"nonpayable"},{"type":"function","name":"completeIssuance","inputs":[{"name":"_issuanceNonce","type":"uint256","internalType":"uint256"}],"outputs":[],"stateMutability":"nonpayable"},{"type":"function","name":"completeRebalanceActions","inputs":[{"name":"_rebalanceNonce","type":"uint256","internalType":"uint256"}],"outputs":[],"stateMutability":"nonpayable"},{"type":"function","name":"completeRedemption","inputs":[{"name":"_redemptionNonce","type":"uint256","internalType":"uint256"}],"outputs":[],"stateMutability":"nonpayable"},{"type":"function","name":"concatenation","inputs":[{"name":"a","type":"string","internalType":"string"},{"name":"b","type":"string","internalType":"string"}],"outputs":[{"name":"","type":"string","internalType":"string"}],"stateMutability":"pure"},{"type":"function","name":"currentList","inputs":[{"name":"","type":"uint256","internalType":"uint256"}],"outputs":[{"name":"","type":"address","internalType":"address"}],"stateMutability":"view"},{"type":"function","name":"custodianWallet","inputs":[],"outputs":[{"name":"","type":"address","internalType":"address"}],"stateMutability":"view"},{"type":"function","name":"estimateAmountAfterFee","inputs":[{"name":"_amount","type":"uint256","internalType":"uint256"}],"outputs":[{"name":"","type":"uint256","internalType":"uint256"}],"stateMutability":"view"},{"type":"function","name":"externalJobId","inputs":[],"outputs":[{"name":"","type":"bytes32","internalType":"bytes32"}],"stateMutability":"view"},{"type":"function","name":"feeRate","inputs":[],"outputs":[{"name":"","type":"uint8","internalType":"uint8"}],"stateMutability":"view"},{"type":"function","name":"firstRebalanceAction","inputs":[],"outputs":[{"name":"","type":"uint256","internalType":"uint256"}],"stateMutability":"nonpayable"},{"type":"function","name":"fulfillAssetsData","inputs":[{"name":"requestId","type":"bytes32","internalType":"bytes32"},{"name":"_tokens","type":"address[]","internalType":"address[]"},{"name":"_marketShares","type":"uint256[]","internalType":"uint256[]"}],"outputs":[],"stateMutability":"nonpayable"},{"type":"function","name":"getIssuanceAmountOut","inputs":[{"name":"_amount","type":"uint256","internalType":"uint256"}],"outputs":[{"name":"","type":"uint256","internalType":"uint256"}],"stateMutability":"view"},{"type":"function","name":"getOrderInstanceById","inputs":[{"name":"id","type":"uint256","internalType":"uint256"}],"outputs":[{"name":"","type":"tuple","internalType":"struct IOrderProcessor.Order","components":[{"name":"requestTimestamp","type":"uint64","internalType":"uint64"},{"name":"recipient","type":"address","internalType":"address"},{"name":"assetToken","type":"address","internalType":"address"},{"name":"paymentToken","type":"address","internalType":"address"},{"name":"sell","type":"bool","internalType":"bool"},{"name":"orderType","type":"uint8","internalType":"enum IOrderProcessor.OrderType"},{"name":"assetTokenQuantity","type":"uint256","internalType":"uint256"},{"name":"paymentTokenQuantity","type":"uint256","internalType":"uint256"},{"name":"price","type":"uint256","internalType":"uint256"},{"name":"tif","type":"uint8","internalType":"enum IOrderProcessor.TIF"}]}],"stateMutability":"view"},{"type":"function","name":"getPortfolioValue","inputs":[],"outputs":[{"name":"","type":"uint256","internalType":"uint256"}],"stateMutability":"view"},{"type":"function","name":"getRdemptionAmountOut","inputs":[{"name":"_amount","type":"uint256","internalType":"uint256"}],"outputs":[{"name":"","type":"uint256","internalType":"uint256"}],"stateMutability":"view"},{"type":"function","name":"getVaultDshareBalance","inputs":[{"name":"_token","type":"address","internalType":"address"}],"outputs":[{"name":"","type":"uint256","internalType":"uint256"}],"stateMutability":"view"},{"type":"function","name":"getVaultDshareValue","inputs":[{"name":"_token","type":"address","internalType":"address"}],"outputs":[{"name":"","type":"uint256","internalType":"uint256"}],"stateMutability":"view"},{"type":"function","name":"initialize","inputs":[{"name":"_issuer","type":"address","internalType":"address"},{"name":"_token","type":"address","internalType":"address"},{"name":"_vault","type":"address","internalType":"address"},{"name":"_usdc","type":"address","internalType":"address"},{"name":"_usdcDecimals","type":"uint8","internalType":"uint8"},{"name":"_chainlinkToken","type":"address","internalType":"address"},{"name":"_oracleAddress","type":"address","internalType":"address"},{"name":"_externalJobId","type":"bytes32","internalType":"bytes32"},{"name":"_isMainnet","type":"bool","internalType":"bool"}],"outputs":[],"stateMutability":"nonpayable"},{"type":"function","name":"isIssuanceOrderActive","inputs":[{"name":"_issuanceNonce","type":"uint256","internalType":"uint256"}],"outputs":[{"name":"","type":"bool","internalType":"bool"}],"stateMutability":"view"},{"type":"function","name":"isMainnet","inputs":[],"outputs":[{"name":"","type":"bool","internalType":"bool"}],"stateMutability":"view"},{"type":"function","name":"isRedemptionOrderActive","inputs":[{"name":"_redemptionNonce","type":"uint256","internalType":"uint256"}],"outputs":[{"name":"","type":"bool","internalType":"bool"}],"stateMutability":"view"},{"type":"function","name":"issuance","inputs":[{"name":"_inputAmount","type":"uint256","internalType":"uint256"}],"outputs":[{"name":"","type":"uint256","internalType":"uint256"}],"stateMutability":"nonpayable"},{"type":"function","name":"issuanceIndexTokenPrimaryTotalSupply","inputs":[{"name":"","type":"uint256","internalType":"uint256"}],"outputs":[{"name":"","type":"uint256","internalType":"uint256"}],"stateMutability":"view"},{"type":"function","name":"issuanceInputAmount","inputs":[{"name":"","type":"uint256","internalType":"uint256"}],"outputs":[{"name":"","type":"uint256","internalType":"uint256"}],"stateMutability":"view"},{"type":"function","name":"issuanceIsCompleted","inputs":[{"name":"","type":"uint256","internalType":"uint256"}],"outputs":[{"name":"","type":"bool","internalType":"bool"}],"stateMutability":"view"},{"type":"function","name":"issuanceNonce","inputs":[],"outputs":[{"name":"","type":"uint256","internalType":"uint256"}],"stateMutability":"view"},{"type":"function","name":"issuanceRequestId","inputs":[{"name":"","type":"uint256","internalType":"uint256"},{"name":"","type":"address","internalType":"address"}],"outputs":[{"name":"","type":"uint256","internalType":"uint256"}],"stateMutability":"view"},{"type":"function","name":"issuanceRequesterByNonce","inputs":[{"name":"","type":"uint256","internalType":"uint256"}],"outputs":[{"name":"","type":"address","internalType":"address"}],"stateMutability":"view"},{"type":"function","name":"issuanceTokenPrimaryBalance","inputs":[{"name":"","type":"uint256","internalType":"uint256"},{"name":"","type":"address","internalType":"address"}],"outputs":[{"name":"","type":"uint256","internalType":"uint256"}],"stateMutability":"view"},{"type":"function","name":"issuer","inputs":[],"outputs":[{"name":"","type":"address","internalType":"contract IOrderProcessor"}],"stateMutability":"view"},{"type":"function","name":"lastUpdateTime","inputs":[],"outputs":[{"name":"","type":"uint256","internalType":"uint256"}],"stateMutability":"view"},{"type":"function","name":"latestFeeUpdate","inputs":[],"outputs":[{"name":"","type":"uint256","internalType":"uint256"}],"stateMutability":"view"},{"type":"function","name":"mockFillAssetsList","inputs":[{"name":"_tokens","type":"address[]","internalType":"address[]"},{"name":"_marketShares","type":"uint256[]","internalType":"uint256[]"}],"outputs":[],"stateMutability":"nonpayable"},{"type":"function","name":"oracleList","inputs":[{"name":"","type":"uint256","internalType":"uint256"}],"outputs":[{"name":"","type":"address","internalType":"address"}],"stateMutability":"view"},{"type":"function","name":"oraclePayment","inputs":[],"outputs":[{"name":"","type":"uint256","internalType":"uint256"}],"stateMutability":"view"},{"type":"function","name":"orderInstanceById","inputs":[{"name":"","type":"uint256","internalType":"uint256"}],"outputs":[{"name":"requestTimestamp","type":"uint64","internalType":"uint64"},{"name":"recipient","type":"address","internalType":"address"},{"name":"assetToken","type":"address","internalType":"address"},{"name":"paymentToken","type":"address","internalType":"address"},{"name":"sell","type":"bool","internalType":"bool"},{"name":"orderType","type":"uint8","internalType":"enum IOrderProcessor.OrderType"},{"name":"assetTokenQuantity","type":"uint256","internalType":"uint256"},{"name":"paymentTokenQuantity","type":"uint256","internalType":"uint256"},{"name":"price","type":"uint256","internalType":"uint256"},{"name":"tif","type":"uint8","internalType":"enum IOrderProcessor.TIF"}],"stateMutability":"view"},{"type":"function","name":"owner","inputs":[],"outputs":[{"name":"","type":"address","internalType":"address"}],"stateMutability":"view"},{"type":"function","name":"pause","inputs":[],"outputs":[],"stateMutability":"nonpayable"},{"type":"function","name":"paused","inputs":[],"outputs":[{"name":"","type":"bool","internalType":"bool"}],"stateMutability":"view"},{"type":"function","name":"portfolioValueByNonce","inputs":[{"name":"","type":"uint256","internalType":"uint256"}],"outputs":[{"name":"","type":"uint256","internalType":"uint256"}],"stateMutability":"view"},{"type":"function","name":"priceFeedByTokenAddress","inputs":[{"name":"","type":"address","internalType":"address"}],"outputs":[{"name":"","type":"address","internalType":"address"}],"stateMutability":"view"},{"type":"function","name":"priceInWei","inputs":[{"name":"_tokenAddress","type":"address","internalType":"address"}],"outputs":[{"name":"","type":"uint256","internalType":"uint256"}],"stateMutability":"view"},{"type":"function","name":"rebalanceBuyPayedAmountById","inputs":[{"name":"","type":"uint256","internalType":"uint256"}],"outputs":[{"name":"","type":"uint256","internalType":"uint256"}],"stateMutability":"view"},{"type":"function","name":"rebalanceNonce","inputs":[],"outputs":[{"name":"","type":"uint256","internalType":"uint256"}],"stateMutability":"view"},{"type":"function","name":"rebalanceRequestId","inputs":[{"name":"","type":"uint256","internalType":"uint256"},{"name":"","type":"address","internalType":"address"}],"outputs":[{"name":"","type":"uint256","internalType":"uint256"}],"stateMutability":"view"},{"type":"function","name":"rebalanceSellAssetAmountById","inputs":[{"name":"","type":"uint256","internalType":"uint256"}],"outputs":[{"name":"","type":"uint256","internalType":"uint256"}],"stateMutability":"view"},{"type":"function","name":"redemption","inputs":[{"name":"_inputAmount","type":"uint256","internalType":"uint256"}],"outputs":[{"name":"","type":"uint256","internalType":"uint256"}],"stateMutability":"nonpayable"},{"type":"function","name":"redemptionIndexTokenPrimaryTotalSupply","inputs":[{"name":"","type":"uint256","internalType":"uint256"}],"outputs":[{"name":"","type":"uint256","internalType":"uint256"}],"stateMutability":"view"},{"type":"function","name":"redemptionInputAmount","inputs":[{"name":"","type":"uint256","internalType":"uint256"}],"outputs":[{"name":"","type":"uint256","internalType":"uint256"}],"stateMutability":"view"},{"type":"function","name":"redemptionIsCompleted","inputs":[{"name":"","type":"uint256","internalType":"uint256"}],"outputs":[{"name":"","type":"bool","internalType":"bool"}],"stateMutability":"view"},{"type":"function","name":"redemptionNonce","inputs":[],"outputs":[{"name":"","type":"uint256","internalType":"uint256"}],"stateMutability":"view"},{"type":"function","name":"redemptionRequestId","inputs":[{"name":"","type":"uint256","internalType":"uint256"},{"name":"","type":"address","internalType":"address"}],"outputs":[{"name":"","type":"uint256","internalType":"uint256"}],"stateMutability":"view"},{"type":"function","name":"redemptionRequesterByNonce","inputs":[{"name":"","type":"uint256","internalType":"uint256"}],"outputs":[{"name":"","type":"address","internalType":"address"}],"stateMutability":"view"},{"type":"function","name":"redemptionTokenPrimaryBalance","inputs":[{"name":"","type":"uint256","internalType":"uint256"},{"name":"","type":"address","internalType":"address"}],"outputs":[{"name":"","type":"uint256","internalType":"uint256"}],"stateMutability":"view"},{"type":"function","name":"renounceOwnership","inputs":[],"outputs":[],"stateMutability":"nonpayable"},{"type":"function","name":"requestAssetsData","inputs":[],"outputs":[{"name":"","type":"bytes32","internalType":"bytes32"}],"stateMutability":"nonpayable"},{"type":"function","name":"secondRebalanceAction","inputs":[{"name":"_rebalanceNonce","type":"uint256","internalType":"uint256"}],"outputs":[],"stateMutability":"nonpayable"},{"type":"function","name":"sellRequestAssetAmountById","inputs":[{"name":"","type":"uint256","internalType":"uint256"}],"outputs":[{"name":"","type":"uint256","internalType":"uint256"}],"stateMutability":"view"},{"type":"function","name":"setCustodianWallet","inputs":[{"name":"_custodianWallet","type":"address","internalType":"address"}],"outputs":[{"name":"","type":"bool","internalType":"bool"}],"stateMutability":"nonpayable"},{"type":"function","name":"setFeeRate","inputs":[{"name":"_newFee","type":"uint8","internalType":"uint8"}],"outputs":[],"stateMutability":"nonpayable"},{"type":"function","name":"setIssuer","inputs":[{"name":"_issuer","type":"address","internalType":"address"}],"outputs":[{"name":"","type":"bool","internalType":"bool"}],"stateMutability":"nonpayable"},{"type":"function","name":"setOracleInfo","inputs":[{"name":"_oracleAddress","type":"address","internalType":"address"},{"name":"_externalJobId","type":"bytes32","internalType":"bytes32"}],"outputs":[],"stateMutability":"nonpayable"},{"type":"function","name":"setPriceFeedAddresses","inputs":[{"name":"_dShares","type":"address[]","internalType":"address[]"},{"name":"_priceFeedAddresses","type":"address[]","internalType":"address[]"}],"outputs":[],"stateMutability":"nonpayable"},{"type":"function","name":"setTokenAddress","inputs":[{"name":"_token","type":"address","internalType":"address"}],"outputs":[{"name":"","type":"bool","internalType":"bool"}],"stateMutability":"nonpayable"},{"type":"function","name":"setUrl","inputs":[{"name":"_beforeAddress","type":"string","internalType":"string"},{"name":"_afterAddress","type":"string","internalType":"string"}],"outputs":[],"stateMutability":"nonpayable"},{"type":"function","name":"setUsdcAddress","inputs":[{"name":"_usdc","type":"address","internalType":"address"},{"name":"_usdcDecimals","type":"uint8","internalType":"uint8"}],"outputs":[{"name":"","type":"bool","internalType":"bool"}],"stateMutability":"nonpayable"},{"type":"function","name":"setWrappedDShareAddresses","inputs":[{"name":"_dShares","type":"address[]","internalType":"address[]"},{"name":"_wrappedDShares","type":"address[]","internalType":"address[]"}],"outputs":[],"stateMutability":"nonpayable"},{"type":"function","name":"token","inputs":[],"outputs":[{"name":"","type":"address","internalType":"contract IndexToken"}],"stateMutability":"view"},{"type":"function","name":"tokenCurrentListIndex","inputs":[{"name":"","type":"address","internalType":"address"}],"outputs":[{"name":"","type":"uint256","internalType":"uint256"}],"stateMutability":"view"},{"type":"function","name":"tokenCurrentMarketShare","inputs":[{"name":"","type":"address","internalType":"address"}],"outputs":[{"name":"","type":"uint256","internalType":"uint256"}],"stateMutability":"view"},{"type":"function","name":"tokenOracleListIndex","inputs":[{"name":"","type":"address","internalType":"address"}],"outputs":[{"name":"","type":"uint256","internalType":"uint256"}],"stateMutability":"view"},{"type":"function","name":"tokenOracleMarketShare","inputs":[{"name":"","type":"address","internalType":"address"}],"outputs":[{"name":"","type":"uint256","internalType":"uint256"}],"stateMutability":"view"},{"type":"function","name":"tokenShortagePercentByNonce","inputs":[{"name":"","type":"uint256","internalType":"uint256"},{"name":"","type":"address","internalType":"address"}],"outputs":[{"name":"","type":"uint256","internalType":"uint256"}],"stateMutability":"view"},{"type":"function","name":"tokenValueByNonce","inputs":[{"name":"","type":"uint256","internalType":"uint256"},{"name":"","type":"address","internalType":"address"}],"outputs":[{"name":"","type":"uint256","internalType":"uint256"}],"stateMutability":"view"},{"type":"function","name":"totalCurrentList","inputs":[],"outputs":[{"name":"","type":"uint256","internalType":"uint256"}],"stateMutability":"view"},{"type":"function","name":"totalOracleList","inputs":[],"outputs":[{"name":"","type":"uint256","internalType":"uint256"}],"stateMutability":"view"},{"type":"function","name":"totalShortagePercentByNonce","inputs":[{"name":"","type":"uint256","internalType":"uint256"}],"outputs":[{"name":"","type":"uint256","internalType":"uint256"}],"stateMutability":"view"},{"type":"function","name":"transferOwnership","inputs":[{"name":"newOwner","type":"address","internalType":"address"}],"outputs":[],"stateMutability":"nonpayable"},{"type":"function","name":"unpause","inputs":[],"outputs":[],"stateMutability":"nonpayable"},{"type":"function","name":"usdc","inputs":[],"outputs":[{"name":"","type":"address","internalType":"address"}],"stateMutability":"view"},{"type":"function","name":"usdcDecimals","inputs":[],"outputs":[{"name":"","type":"uint8","internalType":"uint8"}],"stateMutability":"view"},{"type":"function","name":"vault","inputs":[],"outputs":[{"name":"","type":"address","internalType":"contract NexVault"}],"stateMutability":"view"},{"type":"function","name":"wrappedDshareAddress","inputs":[{"name":"","type":"address","internalType":"address"}],"outputs":[{"name":"","type":"address","internalType":"address"}],"stateMutability":"view"},{"type":"event","name":"ChainlinkCancelled","inputs":[{"name":"id","type":"bytes32","indexed":true,"internalType":"bytes32"}],"anonymous":false},{"type":"event","name":"ChainlinkFulfilled","inputs":[{"name":"id","type":"bytes32","indexed":true,"internalType":"bytes32"}],"anonymous":false},{"type":"event","name":"ChainlinkRequested","inputs":[{"name":"id","type":"bytes32","indexed":true,"internalType":"bytes32"}],"anonymous":false},{"type":"event","name":"Initialized","inputs":[{"name":"version","type":"uint64","indexed":false,"internalType":"uint64"}],"anonymous":false},{"type":"event","name":"Issuanced","inputs":[{"name":"nonce","type":"uint256","indexed":true,"internalType":"uint256"},{"name":"user","type":"address","indexed":true,"internalType":"address"},{"name":"inputToken","type":"address","indexed":false,"internalType":"address"},{"name":"inputAmount","type":"uint256","indexed":false,"internalType":"uint256"},{"name":"outputAmount","type":"uint256","indexed":false,"internalType":"uint256"},{"name":"time","type":"uint256","indexed":false,"internalType":"uint256"}],"anonymous":false},{"type":"event","name":"OwnershipTransferred","inputs":[{"name":"previousOwner","type":"address","indexed":true,"internalType":"address"},{"name":"newOwner","type":"address","indexed":true,"internalType":"address"}],"anonymous":false},{"type":"event","name":"Paused","inputs":[{"name":"account","type":"address","indexed":false,"internalType":"address"}],"anonymous":false},{"type":"event","name":"Redemption","inputs":[{"name":"nonce","type":"uint256","indexed":true,"internalType":"uint256"},{"name":"user","type":"address","indexed":true,"internalType":"address"},{"name":"outputToken","type":"address","indexed":false,"internalType":"address"},{"name":"inputAmount","type":"uint256","indexed":false,"internalType":"uint256"},{"name":"outputAmount","type":"uint256","indexed":false,"internalType":"uint256"},{"name":"time","type":"uint256","indexed":false,"internalType":"uint256"}],"anonymous":false},{"type":"event","name":"RequestIssuance","inputs":[{"name":"nonce","type":"uint256","indexed":true,"internalType":"uint256"},{"name":"user","type":"address","indexed":true,"internalType":"address"},{"name":"inputToken","type":"address","indexed":false,"internalType":"address"},{"name":"inputAmount","type":"uint256","indexed":false,"internalType":"uint256"},{"name":"outputAmount","type":"uint256","indexed":false,"internalType":"uint256"},{"name":"time","type":"uint256","indexed":false,"internalType":"uint256"}],"anonymous":false},{"type":"event","name":"RequestRedemption","inputs":[{"name":"nonce","type":"uint256","indexed":true,"internalType":"uint256"},{"name":"user","type":"address","indexed":true,"internalType":"address"},{"name":"outputToken","type":"address","indexed":false,"internalType":"address"},{"name":"inputAmount","type":"uint256","indexed":false,"internalType":"uint256"},{"name":"outputAmount","type":"uint256","indexed":false,"internalType":"uint256"},{"name":"time","type":"uint256","indexed":false,"internalType":"uint256"}],"anonymous":false},{"type":"event","name":"Unpaused","inputs":[{"name":"account","type":"address","indexed":false,"internalType":"address"}],"anonymous":false},{"type":"error","name":"EnforcedPause","inputs":[]},{"type":"error","name":"ExpectedPause","inputs":[]},{"type":"error","name":"InvalidInitialization","inputs":[]},{"type":"error","name":"NotInitializing","inputs":[]},{"type":"error","name":"OwnableInvalidOwner","inputs":[{"name":"owner","type":"address","internalType":"address"}]},{"type":"error","name":"OwnableUnauthorizedAccount","inputs":[{"name":"account","type":"address","internalType":"address"}]},{"type":"error","name":"PRBMath_MulDiv_Overflow","inputs":[{"name":"x","type":"uint256","internalType":"uint256"},{"name":"y","type":"uint256","internalType":"uint256"},{"name":"denominator","type":"uint256","internalType":"uint256"}]},{"type":"error","name":"PRBMath_MulDiv_Overflow","inputs":[{"name":"x","type":"uint256","internalType":"uint256"},{"name":"y","type":"uint256","internalType":"uint256"},{"name":"denominator","type":"uint256","internalType":"uint256"}]}],"bytecode":{"object":"0x6080604052348015600f57600080fd5b5061776d8061001f6000396000f3fe608060405234801561001057600080fd5b50600436106105ed5760003560e01c80638c2218991161031b578063b1dd819e116101a8578063da65925a116100f4578063efdf5053116100ad578063f2fde38b11610087578063f2fde38b1461102c578063f513a7181461103f578063fbfa77cf1461106a578063fc0c546a1461107d57600080fd5b8063efdf505314610fe6578063f14bea2014610ff9578063f1f31d661461100c57600080fd5b8063da65925a14610f41578063daf1c17d14610f6c578063db5c1a1214610f8c578063e19eefbe14610fb7578063eab2a71114610fca578063edca4f5e14610fdd57600080fd5b8063bb0498de11610161578063c8da33031161013b578063c8da330314610ef2578063c8f33c9114610f05578063cf9ee31914610f0e578063d57e049314610f2e57600080fd5b8063bb0498de14610ece578063bed45bef14610ed6578063c8599ded14610ee957600080fd5b8063b1dd819e14610e11578063b316e7fd14610e31578063b411dc4114610e5c578063b46840f914610e6f578063b592662a14610e92578063b75f4c2c14610ea557600080fd5b80639cf5452111610267578063a84ebc1711610220578063ab7820b2116101fa578063ab7820b214610dab578063ab935bb214610dcb578063addc70d114610deb578063b0e1213414610dfe57600080fd5b8063a84ebc1714610d5f578063a87f98d214610d82578063a8b54bd414610da257600080fd5b80639cf5452114610cd25780639dbb9c9e14610cf25780639e76d0cb14610cfb578063a08d7bd614610d0e578063a363b9cb14610d21578063a73e1cbf14610d4c57600080fd5b8063914f0cc6116102d457806394674098116102ae5780639467409814610c59578063978bbdb914610c825780639932ba4c14610c965780639cc0fb5b14610cbf57600080fd5b8063914f0cc614610c135780639219e51014610c3357806392318df414610c4657600080fd5b80638c22189914610b525780638c88c10c14610b7d5780638c9e283414610b9d5780638d6983c714610bb05780638da5cb5b14610bd05780639026544f14610c0057600080fd5b806342faac05116104995780636839a095116103e55780637bfa27f21161039e578063840ecba011610378578063840ecba014610b0e5780638456cb5914610b2157806384d77bb114610b295780638861d23514610b3257600080fd5b80637bfa27f214610ad05780637ca58c5514610af3578063807ca23714610afb57600080fd5b80636839a09514610a18578063715018a614610a2b57806375a3cb5714610a3357806376529fdf14610a5e5780637803265814610a815780637bf4216514610aaa57600080fd5b806353fd43321161045257806357b61bc31161042c57806357b61bc3146109c75780635c975abb146109da578063631c8385146109f2578063643ee27f14610a0557600080fd5b806353fd433214610998578063558f1aa8146109a157806355cc4e57146109b457600080fd5b806342faac051461091f57806343482fc81461092c57806346d66a2c1461093f5780634a1dc092146109525780634b3e0b80146109655780635177942a1461098557600080fd5b80632343acb4116105585780632badae5d1161051157806332f53f3c116104eb57806332f53f3c146108e95780633e413bee146108f15780633f4ba83a146109045780633fac09221461090c57600080fd5b80632badae5d146108805780632ca49334146108a057806331c99010146108c057600080fd5b80632343acb4146107de578063239aad0d146107f1578063248b761e1461081a578063263e0d511461082d578063264fa8b91461084257806326a4e8d21461086d57600080fd5b80630be52713116105aa5780630be52713146106d75780630c02e130146106f75780630e3293571461070057806315e666a2146107205780631d143848146107b85780631e106e99146107cb57600080fd5b8063011ced5f146105f257806302e80f711461060e57806306995e3b1461063757806308dc4b0c1461064a578063092755e01461068b5780630b1a4918146106b4575b600080fd5b6105fb603b5481565b6040519081526020015b60405180910390f35b6105fb61061c3660046166ae565b60208080526000928352604080842090915290825290205481565b6105fb6106453660046166da565b611090565b6106736106583660046166f3565b6034602052600090815260409020546001600160a01b031681565b6040516001600160a01b039091168152602001610605565b6106736106993660046166f3565b600f602052600090815260409020546001600160a01b031681565b6106c76106c23660046166da565b611130565b6040519015158152602001610605565b6105fb6106e53660046166f3565b60126020526000908152604090205481565b6105fb60095481565b61071361070e3660046167c3565b611211565b6040516106059190616876565b6107a261072e3660046166da565b60336020526000908152604090208054600182015460028301546003840154600485015460058601546006909601546001600160401b038616966001600160a01b03600160401b9097048716969586169585169460ff600160a01b8204811695600160a81b9092048116949193919291168a565b6040516106059a999897969594939291906168c3565b601a54610673906001600160a01b031681565b601954610673906001600160a01b031681565b6106c76107ec3660046166da565b61123e565b6106736107ff3660046166da565b600d602052600090815260409020546001600160a01b031681565b6105fb6108283660046166da565b611334565b61084061083b3660046166da565b61178c565b005b6105fb6108503660046166ae565b602260209081526000928352604080842090915290825290205481565b6106c761087b3660046166f3565b611978565b6105fb61088e3660046166da565b60356020526000908152604090205481565b6105fb6108ae3660046166da565b60386020526000908152604090205481565b6106736108ce3660046166da565b602f602052600090815260409020546001600160a01b031681565b6105fb6119f4565b601b54610673906001600160a01b031681565b610840611c38565b6106c761091a3660046166da565b611c4a565b601f546106c79060ff1681565b61084061093a366004616938565b611d27565b61084061094d3660046166da565b611d3e565b6105fb6109603660046166da565b612246565b6105fb6109733660046166f3565b60136020526000908152604090205481565b610840610993366004616971565b6126f5565b6105fb600c5481565b6106c76109af3660046166da565b61283f565b6106c76109c23660046166f3565b612933565b6108406109d5366004616a27565b6129b1565b6000805160206177188339815191525460ff166106c7565b6106c7610a003660046166da565b612a87565b610840610a133660046166da565b612d39565b6105fb610a263660046166f3565b612fd1565b610840613157565b6105fb610a413660046166ae565b602460209081526000928352604080842090915290825290205481565b6106c7610a6c3660046166da565b60156020526000908152604090205460ff1681565b610673610a8f3660046166da565b602e602052600090815260409020546001600160a01b031681565b601b54610abe90600160a01b900460ff1681565b60405160ff9091168152602001610605565b6106c7610ade3660046166da565b60316020526000908152604090205460ff1681565b6105fb613169565b610840610b093660046166da565b6133a9565b610840610b1c3660046166da565b613544565b610840613770565b6105fb601d5481565b6105fb610b403660046166da565b60256020526000908152604090205481565b6105fb610b603660046166ae565b602160209081526000928352604080842090915290825290205481565b6105fb610b8b3660046166f3565b60106020526000908152604090205481565b6105fb610bab3660046166da565b613780565b6105fb610bbe3660046166da565b60286020526000908152604090205481565b7f9016d09d72d40fdae2fd8ceac6b6234c7706214fd39c1cd1e609a0528c199300546001600160a01b0316610673565b610840610c0e3660046166da565b61381f565b6105fb610c213660046166f3565b60116020526000908152604090205481565b610840610c413660046166da565b613ad8565b6106c7610c543660046166da565b613e9a565b610673610c673660046166da565b602d602052600090815260409020546001600160a01b031681565b601b54610abe90600160a81b900460ff1681565b610673610ca43660046166da565b600e602052600090815260409020546001600160a01b031681565b6106c7610ccd3660046166f3565b613f84565b6105fb610ce03660046166da565b603a6020526000908152604090205481565b6105fb601c5481565b6105fb610d093660046166da565b614009565b6105fb610d1c3660046166f3565b6140a1565b6105fb610d2f3660046166ae565b602a60209081526000928352604080842090915290825290205481565b610840610d5a3660046167c3565b61419c565b6106c7610d6d3660046166da565b60146020526000908152604090205460ff1681565b6105fb610d903660046166da565b60266020526000908152604090205481565b6105fb60085481565b6105fb610db93660046166da565b60166020526000908152604090205481565b6105fb610dd93660046166da565b60276020526000908152604090205481565b610840610df9366004616adf565b6141bd565b6106c7610e0c3660046166da565b6141d3565b6105fb610e1f3660046166da565b602b6020526000908152604090205481565b6105fb610e3f3660046166ae565b603660209081526000928352604080842090915290825290205481565b610840610e6a366004616a27565b6142ab565b6106c7610e7d3660046166da565b60326020526000908152604090205460ff1681565b6106c7610ea03660046166da565b61437c565b610673610eb33660046166da565b6030602052600090815260409020546001600160a01b031681565b6105fb614630565b610840610ee43660046166da565b614678565b6105fb600b5481565b6105fb610f003660046166da565b614c5e565b6105fb600a5481565b6105fb610f1c3660046166da565b60396020526000908152604090205481565b610840610f3c366004616b46565b614cf3565b6105fb610f4f3660046166ae565b602960209081526000928352604080842090915290825290205481565b6105fb610f7a3660046166da565b602c6020526000908152604090205481565b6105fb610f9a3660046166ae565b603760209081526000928352604080842090915290825290205481565b6105fb610fc53660046166da565b614f81565b6106c7610fd8366004616bed565b615098565b6105fb601e5481565b6105fb610ff43660046166f3565b615121565b610840611007366004616c24565b615159565b61101f61101a3660046166da565b61521f565b6040516106059190616c90565b61084061103a3660046166f3565b615325565b6105fb61104d3660046166ae565b602360209081526000928352604080842090915290825290205481565b601854610673906001600160a01b031681565b601754610673906001600160a01b031681565b601a54601b546040516308da5c3560e21b81526000600482018190526001600160a01b039283166024830152928392839291169063236970d4906044016040805180830381865afa1580156110e9573d6000803e3d6000fd5b505050506040513d601f19601f8201168201806040525081019061110d9190616d55565b91509150600061111d8286615360565b6111279084616d98565b95945050505050565b6000805b600c54811015611208576000818152600e6020908152604080832054868452602383528184206001600160a01b0391821680865293529281902054601a5491516322fd455760e11b81526004810182905292939092600192909116906345fa8aae90602401602060405180830381865afa1580156111b6573d6000803e3d6000fd5b505050506040513d601f19601f820116820180604052508101906111da9190616dab565b60038111156111eb576111eb616889565b60ff16036111fe57506001949350505050565b5050600101611134565b50600092915050565b60608282604051602001611226929190616dcc565b60405160208183030381529060405290505b92915050565b60008060005b600c5481101561131b576000818152600e6020908152604080832054878452602283528184206001600160a01b0391821680865293529281902054601a5491516322fd455760e11b81526004810182905292939092600292909116906345fa8aae90602401602060405180830381865afa1580156112c6573d6000803e3d6000fd5b505050506040513d601f19601f820116820180604052508101906112ea9190616dab565b60038111156112fb576112fb616889565b60ff16036113115761130e600185616d98565b93505b5050600101611244565b50600c5481036112085750600192915050565b50919050565b60008061134083614f81565b9050600061134e8483616d98565b601b546040516323b872dd60e01b81529192506001600160a01b0316906323b872dd9061138390339030908690600401616dfb565b6020604051808303816000875af11580156113a2573d6000803e3d6000fd5b505050506040513d601f19601f820116820180604052508101906113c69190616e1f565b50601b54601a5460405163095ea7b360e01b81526001600160a01b0391821660048201526024810184905291169063095ea7b3906044016020604051808303816000875af115801561141c573d6000803e3d6000fd5b505050506040513d601f19601f820116820180604052508101906114409190616e1f565b506001601c60008282546114549190616d98565b9250508190555060003060405161146a906165ec565b6001600160a01b039091168152602001604051809103906000f080158015611496573d6000803e3d6000fd5b50601c80546000908152602f6020908152604080832080546001600160a01b0319166001600160a01b03871617905592548252603990529081208790559091505b600c5481101561172f576000818152600e60209081526040808320546001600160a01b0316808452601290925282205490919068056bc75e2d631000009061151f908a616e3c565b6115299190616e69565b90506000611538838387615390565b6000818152602560209081526040808320869055601c80548452602283528184206001600160a01b0389811680875291855283862087905591548552602d845282852080546001600160a01b031916331790558452600f9092528083205460185491516370a0823160e01b81529183166004830152939450919216906370a0823190602401602060405180830381865afa1580156115da573d6000803e3d6000fd5b505050506040513d601f19601f820116820180604052508101906115fe9190616e7d565b6001600160a01b038581166000908152600f602052604080822054905163266d6a8360e11b8152600481018590529394509092911690634cdad50690602401602060405180830381865afa15801561165a573d6000803e3d6000fd5b505050506040513d601f19601f8201168201806040525081019061167e9190616e7d565b601c5460009081526029602090815260408083206001600160a01b03808b1685529083529281902084905560175481516318160ddd60e01b81529151949550909216926318160ddd9260048082019392918290030181865afa1580156116e8573d6000803e3d6000fd5b505050506040513d601f19601f8201168201806040525081019061170c9190616e7d565b601c546000908152602b60205260409020555050600190930192506114d7915050565b50601c54601b546040513392917fb564a60b4184bee9ffdc1c0fd0588a93c23e406438195eec9857050fece55c2091611778916001600160a01b0316908a906000904290616e96565b60405180910390a35050601c549392505050565b611794615558565b61179d8161283f565b6117c25760405162461bcd60e51b81526004016117b990616ebc565b60405180910390fd5b60005b600c5481101561196c576000818152600e60205260408082205490516370a0823160e01b81523060048201526001600160a01b03909116919082906370a0823190602401602060405180830381865afa158015611826573d6000803e3d6000fd5b505050506040513d601f19601f8201168201806040525081019061184a9190616e7d565b90508015611962576001600160a01b038281166000818152600f60205260409081902054905163095ea7b360e01b815292166004830152602482018390529063095ea7b3906044016020604051808303816000875af11580156118b1573d6000803e3d6000fd5b505050506040513d601f19601f820116820180604052508101906118d59190616e1f565b506001600160a01b038281166000908152600f602052604090819020546018549151636e553f6560e01b815260048101859052918316602483015290911690636e553f65906044016020604051808303816000875af115801561193c573d6000803e3d6000fd5b505050506040513d601f19601f820116820180604052508101906119609190616e7d565b505b50506001016117c5565b506119756155b3565b50565b6000611982615558565b6001600160a01b0382166119d05760405162461bcd60e51b8152602060048201526015602482015274696e76616c696420746f6b656e206164647265737360581b60448201526064016117b9565b50601780546001600160a01b0319166001600160a01b03831617905560015b919050565b60006119fe615558565b6001601e6000828254611a119190616d98565b9091555060009050805b600c54811015611a87576000818152600e60205260408120546001600160a01b031690611a4782615121565b601e5460009081526036602090815260408083206001600160a01b038716845290915290208190559050611a7b8185616d98565b93505050600101611a1b565b50601e5460009081526035602052604081208290555b600c54811015611c2e576000818152600e6020908152604080832054601e548452603683528184206001600160a01b0390911680855292528220549091611ae3836140a1565b9050600085611afb8468056bc75e2d63100000616e3c565b611b059190616e69565b6001600160a01b038516600090815260136020526040902054909150811115611baa576001600160a01b0384166000908152601360205260408120548290611b4d9085616e3c565b611b579190616e69565b611b619084616efe565b90506000611b7086833061561f565b601e5460009081526024602090815260408083206001600160a01b038b168452825280832084905592825260289052209190915550611c1e565b6001600160a01b038416600090815260136020526040812054611bce908390616efe565b601e805460009081526037602090815260408083206001600160a01b038b1684528252808320859055925482526038905290812080549293508392909190611c17908490616d98565b9091555050505b505060019092019150611a9d9050565b50601e5491505090565b611c40615558565b611c48615953565b565b60008060005b600c5481101561131b576000818152600e6020908152604080832054878452602383528184206001600160a01b0391821680865293529281902054601a5491516322fd455760e11b81526004810182905292939092600292909116906345fa8aae90602401602060405180830381865afa158015611cd2573d6000803e3d6000fd5b505050506040513d601f19601f82011682018060405250810190611cf69190616dab565b6003811115611d0757611d07616889565b60ff1603611d1d57611d1a600185616d98565b93505b5050600101611c50565b611d2f615558565b611d38826159b3565b60085550565b60008181526014602052604090205460ff1615611d955760405162461bcd60e51b8152602060048201526015602482015274125cdcdd585b98d9481a5cc818dbdb5c1b195d1959605a1b60448201526064016117b9565b6000818152602d6020908152604080832054602f909252909120546001600160a01b039182169116338214611e1b5760405162461bcd60e51b815260206004820152602660248201527f4f6e6c79207265717565737465722063616e2063616e63656c207468652069736044820152657375616e636560d01b60648201526084016117b9565b60005b600c54811015612240576000818152600e6020908152604080832054878452602283528184206001600160a01b03918216808652908452828520548086526033855283862084516101408101865281546001600160401b0381168252600160401b90048516968101969096526001818101548516958701959095526002810154938416606087015260ff600160a01b85048116151560808801529296919591949193909260a0850192600160a81b9092041690811115611ee057611ee0616889565b6001811115611ef157611ef1616889565b815260038281015460208301526004830154604083015260058301546060830152600683015460809092019160ff1690811115611f3057611f30616889565b6003811115611f4157611f41616889565b905250601a546040516322fd455760e11b8152600481018590529192506001916001600160a01b03909116906345fa8aae90602401602060405180830381865afa158015611f93573d6000803e3d6000fd5b505050506040513d601f19601f82011682018060405250810190611fb79190616dab565b6003811115611fc857611fc8616889565b60ff160361203357601a546040516339a0e8b560e21b8152600481018490526001600160a01b039091169063e683a2d490602401600060405180830381600087803b15801561201657600080fd5b505af115801561202a573d6000803e3d6000fd5b50505050612235565b601a546040516322fd455760e11b8152600481018490526002916001600160a01b0316906345fa8aae90602401602060405180830381865afa15801561207d573d6000803e3d6000fd5b505050506040513d601f19601f820116820180604052508101906120a19190616dab565b60038111156120b2576120b2616889565b60ff16148061212c57506040516370a0823160e01b81526001600160a01b038681166004830152600091908516906370a0823190602401602060405180830381865afa158015612106573d6000803e3d6000fd5b505050506040513d601f19601f8201168201806040525081019061212a9190616e7d565b115b15612235576040516370a0823160e01b81526001600160a01b038681166004830152600091908516906370a0823190602401602060405180830381865afa15801561217b573d6000803e3d6000fd5b505050506040513d601f19601f8201168201806040525081019061219f9190616e7d565b6040516317ee7de960e11b81529091506001600160a01b03871690632fdcfbd2906121d290879030908690600401616dfb565b600060405180830381600087803b1580156121ec57600080fd5b505af1158015612200573d6000803e3d6000fd5b50505050600061221185838961561f565b60008a8152602080805260408083206001600160a01b038a16845290915290205550505b505050600101611e1e565b50505050565b60006001601d600082825461225b9190616d98565b92505081905550600030604051612271906165ec565b6001600160a01b039091168152602001604051809103906000f08015801561229d573d6000803e3d6000fd5b50601d8054600090815260306020908152604080832080546001600160a01b0319166001600160a01b038781169190911790915593548352603a825280832088905560175481516318160ddd60e01b81529151959650929492909316926318160ddd92600480830193928290030181865afa158015612320573d6000803e3d6000fd5b505050506040513d601f19601f820116820180604052508101906123449190616e7d565b61235685670de0b6b3a7640000616e3c565b6123609190616e69565b601754604051632770a7eb60e21b8152336004820152602481018790529192506001600160a01b031690639dc29fac90604401600060405180830381600087803b1580156123ad57600080fd5b505af11580156123c1573d6000803e3d6000fd5b5050601d5460009081526016602052604081208790559150505b600c54811015612699576000818152600e60209081526040808320546001600160a01b03908116808552600f9093528184205460185492516370a0823160e01b81529282166004840152929392670de0b6b3a7640000929116906370a0823190602401602060405180830381865afa15801561245b573d6000803e3d6000fd5b505050506040513d601f19601f8201168201806040525081019061247f9190616e7d565b6124899086616e3c565b6124939190616e69565b905060006124a283838861561f565b6000818152602660209081526040808320869055601d80548452602383528184206001600160a01b0389811680875291855283862087905591548552602e845282852080546001600160a01b031916331790558452600f9092528083205460185491516370a0823160e01b81529183166004830152939450919216906370a0823190602401602060405180830381865afa158015612544573d6000803e3d6000fd5b505050506040513d601f19601f820116820180604052508101906125689190616e7d565b6001600160a01b038581166000908152600f602052604080822054905163266d6a8360e11b8152600481018590529394509092911690634cdad50690602401602060405180830381865afa1580156125c4573d6000803e3d6000fd5b505050506040513d601f19601f820116820180604052508101906125e89190616e7d565b601d546000908152602a602090815260408083206001600160a01b03808b1685529083529281902084905560175481516318160ddd60e01b81529151949550909216926318160ddd9260048082019392918290030181865afa158015612652573d6000803e3d6000fd5b505050506040513d601f19601f820116820180604052508101906126769190616e7d565b601d546000908152602c60205260409020555050600190930192506123db915050565b50601d54601b546040513392917f318a1eb196638838739aab2348b851e63485b8c41dacc90eaff499a0f14ce533916126e2916001600160a01b03169089906000904290616e96565b60405180910390a35050601d5492915050565b6126fd615558565b6000603b544261270d9190616efe565b9050600c603c61271d8184616e69565b6127279190616e69565b1161279a5760405162461bcd60e51b815260206004820152603960248201527f596f752073686f756c642077616974206174206c6561737420313220686f757260448201527f7320616674657220746865206c6174657374207570646174650000000000000060648201526084016117b9565b60648260ff16111580156127b2575060018260ff1610155b61281a5760405162461bcd60e51b815260206004820152603360248201527f546865206e65774665652073686f756c64206265206265747765656e203120616044820152726e64203130302028302e303125202d2031252960681b60648201526084016117b9565b50601b805460ff909216600160a81b0260ff60a81b1990921691909117905542603b55565b60008060005b600c54811015612929576000818152600e6020908152604080832054878452602483528184206001600160a01b03909116808552925290912054801580159061290e5750601a546040516322fd455760e11b8152600481018390526002916001600160a01b0316906345fa8aae90602401602060405180830381865afa1580156128d3573d6000803e3d6000fd5b505050506040513d601f19601f820116820180604052508101906128f79190616dab565b600381111561290857612908616889565b60ff1614155b1561291f5750600095945050505050565b5050600101612845565b5060019392505050565b600061293d615558565b6001600160a01b03821661298c5760405162461bcd60e51b8152602060048201526016602482015275696e76616c696420697373756572206164647265737360501b60448201526064016117b9565b50601a80546001600160a01b0383166001600160a01b03199091161790556001919050565b6129b9615558565b8051825114612a025760405162461bcd60e51b8152602060048201526015602482015274082e4e4c2f240d8cadccee8d040dad2e6dac2e8c6d605b1b60448201526064016117b9565b60005b8251811015612a8257818181518110612a2057612a20616f11565b602002602001015160346000858481518110612a3e57612a3e616f11565b6020908102919091018101516001600160a01b0390811683529082019290925260400160002080546001600160a01b03191692909116919091179055600101612a05565b505050565b60008060005b600c5481101561131b576000818152600e6020908152604080832054878452602283528184206001600160a01b0391821680865290845282852054898652602f9094528285205492516370a0823160e01b815292909116600483018190529093909184906370a0823190602401602060405180830381865afa158015612b17573d6000803e3d6000fd5b505050506040513d601f19601f82011682018060405250810190612b3b9190616e7d565b601a546040516322fd455760e11b8152600481018690529192506003916001600160a01b03909116906345fa8aae90602401602060405180830381865afa158015612b8a573d6000803e3d6000fd5b505050506040513d601f19601f82011682018060405250810190612bae9190616dab565b6003811115612bbf57612bbf616889565b60ff16148015612bcd575080155b15612be457612bdd600187616d98565b9550612d29565b601a546040516322fd455760e11b8152600481018590526002916001600160a01b0316906345fa8aae90602401602060405180830381865afa158015612c2e573d6000803e3d6000fd5b505050506040513d601f19601f82011682018060405250810190612c529190616dab565b6003811115612c6357612c63616889565b60ff16148015612c71575080155b15612d29576000888152602080805260408083206001600160a01b03888116855292529182902054601a5492516322fd455760e11b815260048101829052909260029216906345fa8aae90602401602060405180830381865afa158015612cdc573d6000803e3d6000fd5b505050506040513d601f19601f82011682018060405250810190612d009190616dab565b6003811115612d1157612d11616889565b60ff1603612d2757612d24600188616d98565b96505b505b505060019092019150612a8d9050565b612d41615558565b612d4c601e54613e9a565b612d685760405162461bcd60e51b81526004016117b990616ebc565b600081815260356020908152604080832054603890925280832054601b5491516370a0823160e01b81523060048201529293909290916001600160a01b0316906370a0823190602401602060405180830381865afa158015612dce573d6000803e3d6000fd5b505050506040513d601f19601f82011682018060405250810190612df29190616e7d565b905060005b600c54811015612fca576000818152600e6020908152604080832054888452603783528184206001600160a01b039091168085529252909120548015612fc057600085612e448684616e3c565b612e4e9190616e69565b601a54601b546040516308da5c3560e21b81526000600482018190526001600160a01b0392831660248301529394508392919091169063236970d4906044016040805180830381865afa158015612ea9573d6000803e3d6000fd5b505050506040513d601f19601f82011682018060405250810190612ecd9190616d55565b91509150600082612ede83866159d5565b612ee89190616efe565b90506000612ef68383615360565b612f009085616d98565b601b54601a5460405163095ea7b360e01b81526001600160a01b03918216600482015260248101899052929350169063095ea7b3906044016020604051808303816000875af1158015612f57573d6000803e3d6000fd5b505050506040513d601f19601f82011682018060405250810190612f7b9190616e1f565b506000612f89888430615390565b60008e81526024602090815260408083206001600160a01b038d168452825280832084905592825260279052209290925550505050505b5050600101612df7565b5050505050565b601f5460009060ff16156130d3576001600160a01b03808316600090815260346020526040808220548151633fabe5a360e21b81529151931692839163feaf968c9160048083019260a09291908290030181865afa158015613037573d6000803e3d6000fd5b505050506040513d601f19601f8201168201806040525081019061305b9190616f41565b5050509150506000826001600160a01b031663313ce5676040518163ffffffff1660e01b8152600401602060405180830381865afa1580156130a1573d6000803e3d6000fd5b505050506040513d601f19601f820116820180604052508101906130c59190616f91565b905061112782826012615a07565b601a54601b5460405163a377cfbf60e01b81526001600160a01b0385811660048301529182166024820152600092919091169063a377cfbf906044016040805180830381865afa15801561312b573d6000803e3d6000fd5b505050506040513d601f19601f8201168201806040525081019061314f9190616fae565b519392505050565b61315f615558565b611c486000615a47565b60008061328a6006805461317c9061700d565b80601f01602080910402602001604051908101604052809291908181526020018280546131a89061700d565b80156131f55780601f106131ca576101008083540402835291602001916131f5565b820191906000526020600020905b8154815290600101906020018083116131d857829003601f168201915b5050505050600780546132079061700d565b80601f01602080910402602001604051908101604052809291908181526020018280546132339061700d565b80156132805780601f1061325557610100808354040283529160200191613280565b820191906000526020600020905b81548152906001019060200180831161326357829003601f168201915b5050505050611211565b905060006132a26008543063f14bea2060e01b615ab8565b60408051808201909152600381526219d95d60ea1b60208201529091506132cb90829084615ad4565b61332660405180604001604052806005815260200164706174683160d81b81525060405180604001604052806011815260200170726573756c74732c61646472657373657360781b81525083615ad49092919063ffffffff16565b613384604051806040016040528060058152602001643830ba341960d91b81525060405180604001604052806014815260200173726573756c74732c6d61726b657453686172657360601b81525083615ad49092919063ffffffff16565b6133a26133996003546001600160a01b031690565b82600954615af2565b9250505090565b6133b281612a87565b6133fe5760405162461bcd60e51b815260206004820181905260248201527f43616e63656c2069737375616e6365206973206e6f7420636f6d706c6574656460448201526064016117b9565b60008181526031602052604090205460ff161561342d5760405162461bcd60e51b81526004016117b990617041565b6000818152602d6020908152604080832054602f90925280832054601b5491516370a0823160e01b81526001600160a01b0391821660048201819052938216949291909116906370a0823190602401602060405180830381865afa158015613499573d6000803e3d6000fd5b505050506040513d601f19601f820116820180604052508101906134bd9190616e7d565b601b546040516317ee7de960e11b81529192506001600160a01b0380851692632fdcfbd2926134f492169087908690600401616dfb565b600060405180830381600087803b15801561350e57600080fd5b505af1158015613522573d6000803e3d6000fd5b505050600094855250506031602052505060409020805460ff19166001179055565b61354d81611c4a565b6135a55760405162461bcd60e51b815260206004820152602360248201527f526564656d7074696f6e206f726465727320617265206e6f7420636f6d706c656044820152621d195960ea1b60648201526084016117b9565b60008181526015602052604090205460ff16156135fe5760405162461bcd60e51b8152602060048201526017602482015276149959195b5c1d1a5bdb881a5cc818dbdb5c1b195d1959604a1b60448201526064016117b9565b6000818152602e6020908152604080832054603090925280832054601b5491516370a0823160e01b81526001600160a01b0391821660048201819052938216949291909116906370a0823190602401602060405180830381865afa15801561366a573d6000803e3d6000fd5b505050506040513d601f19601f8201168201806040525081019061368e9190616e7d565b601b546040516317ee7de960e11b81529192506001600160a01b0380851692632fdcfbd2926136c592169087908690600401616dfb565b600060405180830381600087803b1580156136df57600080fd5b505af11580156136f3573d6000803e3d6000fd5b5050506000858152601560209081526040808320805460ff19166001179055601b54603a909252918290205491516001600160a01b03808816945088937f1c5f6e901258d71ab0ecaa2fcf93176caa78dac41e03fe5dd7a0184727336d8a936137629392169187904290616e96565b60405180910390a350505050565b613778615558565b611c48615b85565b60008061378b614630565b90506000601760009054906101000a90046001600160a01b03166001600160a01b03166318160ddd6040518163ffffffff1660e01b8152600401602060405180830381865afa1580156137e2573d6000803e3d6000fd5b505050506040513d601f19601f820116820180604052508101906138069190616e7d565b90506000816138158487616e3c565b6111279190616e69565b6138288161437c565b61387f5760405162461bcd60e51b815260206004820152602260248201527f43616e63656c20726564656d7074696f6e206973206e6f7420636f6d706c6574604482015261195960f21b60648201526084016117b9565b60008181526032602052604090205460ff16156138ae5760405162461bcd60e51b81526004016117b990617041565b6000818152602e6020908152604080832054603090925280832054601b5491516370a0823160e01b81526001600160a01b0391821660048201819052938216949291909116906370a0823190602401602060405180830381865afa15801561391a573d6000803e3d6000fd5b505050506040513d601f19601f8201168201806040525081019061393e9190616e7d565b905060005b600c54811015613a43576000818152600e60205260408082205490516370a0823160e01b81526001600160a01b038681166004830152909116919082906370a0823190602401602060405180830381865afa1580156139a6573d6000803e3d6000fd5b505050506040513d601f19601f820116820180604052508101906139ca9190616e7d565b90508015613a39576018546040516317ee7de960e11b81526001600160a01b0380881692632fdcfbd292613a0692879216908690600401616dfb565b600060405180830381600087803b158015613a2057600080fd5b505af1158015613a34573d6000803e3d6000fd5b505050505b5050600101613943565b50601754600085815260166020526040908190205490516340c10f1960e01b81526001600160a01b03868116600483015260248201929092529116906340c10f1990604401600060405180830381600087803b158015613aa257600080fd5b505af1158015613ab6573d6000803e3d6000fd5b505050600094855250506032602052505060409020805460ff19166001179055565b60008181526015602052604090205460ff1615613b315760405162461bcd60e51b8152602060048201526017602482015276149959195b5c1d1a5bdb881a5cc818dbdb5c1b195d1959604a1b60448201526064016117b9565b6000818152602e60209081526040808320546030909252909120546001600160a01b039182169116338214613bb95760405162461bcd60e51b815260206004820152602860248201527f4f6e6c79207265717565737465722063616e2063616e63656c207468652072656044820152673232b6b83a34b7b760c11b60648201526084016117b9565b60005b600c54811015612240576000818152600e6020908152604080832054878452602383528184206001600160a01b03918216808652908452828520548086526033855283862084516101408101865281546001600160401b0381168252600160401b90048516968101969096526001818101548516958701959095526002810154938416606087015260ff600160a01b85048116151560808801529296919591949193909260a0850192600160a81b9092041690811115613c7e57613c7e616889565b6001811115613c8f57613c8f616889565b815260038281015460208301526004830154604083015260058301546060830152600683015460809092019160ff1690811115613cce57613cce616889565b6003811115613cdf57613cdf616889565b905250601a5460405163187b2ed160e21b8152600481018590529192506000916001600160a01b03909116906361ecbb4490602401602060405180830381865afa158015613d31573d6000803e3d6000fd5b505050506040513d601f19601f82011682018060405250810190613d559190616e7d565b601a546040516322fd455760e11b8152600481018690529192506002916001600160a01b03909116906345fa8aae90602401602060405180830381865afa158015613da4573d6000803e3d6000fd5b505050506040513d601f19601f82011682018060405250810190613dc89190616dab565b6003811115613dd957613dd9616889565b60ff161480613de85750600081115b15613e8a57601b546040516317ee7de960e11b81526001600160a01b0388811692632fdcfbd292613e23929091169030908690600401616dfb565b600060405180830381600087803b158015613e3d57600080fd5b505af1158015613e51573d6000803e3d6000fd5b505050506000613e62858389615390565b505060008881526021602090815260408083206001600160a01b038816845290915290208390555b505060019092019150613bbc9050565b60008060005b600c54811015612929576000818152600e6020908152604080832054878452602483528184206001600160a01b039091168085529252909120548015801590613f695750601a546040516322fd455760e11b8152600481018390526002916001600160a01b0316906345fa8aae90602401602060405180830381865afa158015613f2e573d6000803e3d6000fd5b505050506040513d601f19601f82011682018060405250810190613f529190616dab565b6003811115613f6357613f63616889565b60ff1614155b15613f7a5750600095945050505050565b5050600101613ea0565b6000613f8e615558565b6001600160a01b038216613fe45760405162461bcd60e51b815260206004820181905260248201527f696e76616c696420637573746f6469616e2077616c6c6574206164647265737360448201526064016117b9565b50601980546001600160a01b0383166001600160a01b03199091161790556001919050565b601a54601b546040516308da5c3560e21b81526000600482018190526001600160a01b039283166024830152928392839291169063236970d4906044016040805180830381865afa158015614062573d6000803e3d6000fd5b505050506040513d601f19601f820116820180604052508101906140869190616d55565b9150915060008261409783876159d5565b6111279190616efe565b6001600160a01b038181166000908152600f60205260408082205460185491516370a0823160e01b8152918416600483015291929190911690829082906370a0823190602401602060405180830381865afa158015614104573d6000803e3d6000fd5b505050506040513d601f19601f820116820180604052508101906141289190616e7d565b60405163266d6a8360e11b8152600481018290529091506001600160a01b03831690634cdad50690602401602060405180830381865afa158015614170573d6000803e3d6000fd5b505050506040513d601f19601f820116820180604052508101906141949190616e7d565b949350505050565b6141a4615558565b60066141b083826170d6565b506007612a8282826170d6565b6141c5615558565b6141cf8282615bce565b5050565b6000805b600c54811015611208576000818152600e6020908152604080832054868452602283528184206001600160a01b0391821680865293529281902054601a5491516322fd455760e11b81526004810182905292939092600192909116906345fa8aae90602401602060405180830381865afa158015614259573d6000803e3d6000fd5b505050506040513d601f19601f8201168201806040525081019061427d9190616dab565b600381111561428e5761428e616889565b60ff16036142a157506001949350505050565b50506001016141d7565b6142b3615558565b80518251146142fc5760405162461bcd60e51b8152602060048201526015602482015274082e4e4c2f240d8cadccee8d040dad2e6dac2e8c6d605b1b60448201526064016117b9565b60005b8251811015612a825781818151811061431a5761431a616f11565b6020026020010151600f600085848151811061433857614338616f11565b6020908102919091018101516001600160a01b0390811683529082019290925260400160002080546001600160a01b031916929091169190911790556001016142ff565b60008060005b600c5481101561131b576000818152600e6020908152604080832054878452602383528184206001600160a01b039182168086529084528285205489865260309094528285205492516370a0823160e01b815292909116600483018190529093909184906370a0823190602401602060405180830381865afa15801561440c573d6000803e3d6000fd5b505050506040513d601f19601f820116820180604052508101906144309190616e7d565b601a546040516322fd455760e11b8152600481018690529192506003916001600160a01b03909116906345fa8aae90602401602060405180830381865afa15801561447f573d6000803e3d6000fd5b505050506040513d601f19601f820116820180604052508101906144a39190616dab565b60038111156144b4576144b4616889565b60ff161480156144c2575080155b156144d9576144d2600187616d98565b9550614620565b601a546040516322fd455760e11b8152600481018590526002916001600160a01b0316906345fa8aae90602401602060405180830381865afa158015614523573d6000803e3d6000fd5b505050506040513d601f19601f820116820180604052508101906145479190616dab565b600381111561455857614558616889565b60ff16148015614566575080155b156146205760008881526021602090815260408083206001600160a01b03888116855292529182902054601a5492516322fd455760e11b815260048101829052909260029216906345fa8aae90602401602060405180830381865afa1580156145d3573d6000803e3d6000fd5b505050506040513d601f19601f820116820180604052508101906145f79190616dab565b600381111561460857614608616889565b60ff160361461e5761461b600188616d98565b96505b505b5050600190920191506143829050565b60008060005b600c5481101561132e576000818152600e6020526040812054614661906001600160a01b0316615121565b905061466d8184616d98565b925050600101614636565b6146818161123e565b6146cd5760405162461bcd60e51b815260206004820152601860248201527f4f726465727320617265206e6f7420636f6d706c65746564000000000000000060448201526064016117b9565b60008181526014602052604090205460ff16156147245760405162461bcd60e51b8152602060048201526015602482015274125cdcdd585b98d9481a5cc818dbdb5c1b195d1959605a1b60448201526064016117b9565b6000818152602d60205260408120546001600160a01b03169080805b600c54811015614a5c576000818152600e6020908152604080832054888452602283528184206001600160a01b03918216808652935281842054601a54601b54935163a377cfbf60e01b815260048101869052938316602485015293949093909291169063a377cfbf906044016040805180830381865afa1580156147c9573d6000803e3d6000fd5b505050506040513d601f19601f820116820180604052508101906147ed9190616fae565b6000898152602f60205260408082205490516370a0823160e01b81526001600160a01b0391821660048201819052939450908616906370a0823190602401602060405180830381865afa158015614848573d6000803e3d6000fd5b505050506040513d601f19601f8201168201806040525081019061486c9190616e7d565b60008b81526029602090815260408083206001600160a01b038a16845290915281205485519293509161489f9083616e3c565b600087815260256020526040812054919250906148bc9083616d98565b90506148c8828c616d98565b9a506148d4818b616d98565b6040516317ee7de960e11b8152909a506001600160a01b03861690632fdcfbd290614907908b9030908990600401616dfb565b600060405180830381600087803b15801561492157600080fd5b505af1158015614935573d6000803e3d6000fd5b505050506001600160a01b038881166000818152600f60205260409081902054905163095ea7b360e01b815292166004830152602482018690529063095ea7b3906044016020604051808303816000875af1158015614998573d6000803e3d6000fd5b505050506040513d601f19601f820116820180604052508101906149bc9190616e1f565b506001600160a01b038881166000908152600f602052604090819020546018549151636e553f6560e01b815260048101889052918316602483015290911690636e553f65906044016020604051808303816000875af1158015614a23573d6000803e3d6000fd5b505050506040513d601f19601f82011682018060405250810190614a479190616e7d565b50506001909701965061474095505050505050565b506000848152602b602052604081205490819003614b4d576000614a81836064616e3c565b6017546040516340c10f1960e01b81526001600160a01b038881166004830152602482018490529293509116906340c10f1990604401600060405180830381600087803b158015614ad157600080fd5b505af1158015614ae5573d6000803e3d6000fd5b5050601b54600089815260396020526040908190205490516001600160a01b03808b1695508b94507f9b1c699e1cb709130ee00509d8f84a4fb33702e634298480371d27d66f6cd8c693614b3f9391169187904290616e96565b60405180910390a350614c3b565b600083614b5a8484616e3c565b614b649190616e69565b90506000614b728383616efe565b6017546040516340c10f1960e01b81526001600160a01b038981166004830152602482018490529293509116906340c10f1990604401600060405180830381600087803b158015614bc257600080fd5b505af1158015614bd6573d6000803e3d6000fd5b5050601b5460008a815260396020526040908190205490516001600160a01b03808c1695508c94507f9b1c699e1cb709130ee00509d8f84a4fb33702e634298480371d27d66f6cd8c693614c309391169187904290616e96565b60405180910390a350505b5050601c546000908152601460205260409020805460ff19166001179055505050565b600080614c69614630565b90506000601760009054906101000a90046001600160a01b03166001600160a01b03166318160ddd6040518163ffffffff1660e01b8152600401602060405180830381865afa158015614cc0573d6000803e3d6000fd5b505050506040513d601f19601f82011682018060405250810190614ce49190616e7d565b90506000826138158387616e3c565b7ff0c57e16840df040f15088dc2f81fe391c3923bec73e23a9662efc9c229c6a008054600160401b810460ff1615906001600160401b0316600081158015614d385750825b90506000826001600160401b03166001148015614d545750303b155b905081158015614d62575080155b15614d805760405163f92ee8a960e01b815260040160405180910390fd5b845467ffffffffffffffff191660011785558315614daa57845460ff60401b1916600160401b1785555b8d601a60006101000a8154816001600160a01b0302191690836001600160a01b031602179055508c601760006101000a8154816001600160a01b0302191690836001600160a01b031602179055508b601860006101000a8154816001600160a01b0302191690836001600160a01b031602179055508a601b60006101000a8154816001600160a01b0302191690836001600160a01b0316021790555089601b60146101000a81548160ff021916908360ff160217905550614e6a33615def565b614e72615e00565b601b805460ff60a81b1916600560a91b179055600280546001600160a01b0319166001600160a01b038b16179055614ea9886159b3565b6008879055600a614ec3670de0b6b3a76400006001616e3c565b614ecd9190616e69565b6009556040805160608101909152602a8082526176c06020830139600690614ef590826170d6565b506040518060600160405280602e81526020016176ea602e9139600790614f1c90826170d6565b50601f805460ff19168715151790558315614f7157845460ff60401b19168555604051600181527fc7f505b2f371ae2175ee4913f4499e1f2633a7b5936321eed1cdaeb6115181d29060200160405180910390a15b5050505050505050505050505050565b60008060005b600c54811015615091576000818152600e60209081526040808320546001600160a01b0316808452601290925282205490919068056bc75e2d6310000090614fcf9088616e3c565b614fd99190616e69565b601a54601b546040516308da5c3560e21b81526000600482018190526001600160a01b0392831660248301529394508392919091169063236970d4906044016040805180830381865afa158015615034573d6000803e3d6000fd5b505050506040513d601f19601f820116820180604052508101906150589190616d55565b9150915060006150688285615360565b6150729084616d98565b905061507e8188616d98565b96505060019094019350614f8792505050565b5092915050565b60006150a2615558565b6001600160a01b0383166150f05760405162461bcd60e51b8152602060048201526015602482015274696e76616c696420746f6b656e206164647265737360581b60448201526064016117b9565b50601b805460ff8316600160a01b026001600160a81b03199091166001600160a01b03851617179055600192915050565b60008061512d83612fd1565b9050600061513a846140a1565b9050670de0b6b3a764000061514f8383616e3c565b6141949190616e69565b60008381526005602052604090205483906001600160a01b031633146151d25760405162461bcd60e51b815260206004820152602860248201527f536f75726365206d75737420626520746865206f7261636c65206f6620746865604482015267081c995c5d595cdd60c21b60648201526084016117b9565b60008181526005602052604080822080546001600160a01b03191690555182917f7cc135e0cebb02c3480ae5d74d377283180a2601f8f644edf7987b009316c63a91a26122408383615bce565b6152276165f9565b60008281526033602090815260409182902082516101408101845281546001600160401b03811682526001600160a01b03600160401b9091048116938201939093526001808301548416948201949094526002820154928316606082015260ff600160a01b84048116151560808301529093919260a0850192600160a81b909104909116908111156152bb576152bb616889565b60018111156152cc576152cc616889565b815260038281015460208301526004830154604083015260058301546060830152600683015460809092019160ff169081111561530b5761530b616889565b600381111561531c5761531c616889565b90525092915050565b61532d615558565b6001600160a01b03811661535757604051631e4fbdf760e01b8152600060048201526024016117b9565b61197581615a47565b60008262ffffff16600003615376576000615389565b6153898262ffffff8516620f4240615e10565b9392505050565b60008061539d6000615ee4565b6001600160a01b03808516602083015286811660408084019190915260e08301879052601a54905163aa2165f160e01b815292935060009291169063aa2165f1906153ec908590600401616c90565b6020604051808303816000875af115801561540b573d6000803e3d6000fd5b505050506040513d601f19601f8201168201806040525081019061542f9190616e7d565b60008181526033602090815260409182902085518154928701516001600160401b039091166001600160e01b031990931692909217600160401b6001600160a01b039384160217815591850151600180840180546001600160a01b0319169284169290921790915560608601516002840180546080890151929094166001600160a81b031990941693909317600160a01b911515919091021780835560a08701519495508694929160ff60a81b1990911690600160a81b9084908111156154f8576154f8616889565b021790555060c0820151816003015560e0820151816004015561010082015181600501556101208201518160060160006101000a81548160ff0219169083600381111561554757615547616889565b021790555091979650505050505050565b3361558a7f9016d09d72d40fdae2fd8ceac6b6234c7706214fd39c1cd1e609a0528c199300546001600160a01b031690565b6001600160a01b031614611c485760405163118cdaa760e01b81523360048201526024016117b9565b600b54600c5560005b600b54811015611975576000818152600d6020908152604080832054600e835281842080546001600160a01b0319166001600160a01b039092169182179055835260138252808320546012835281842055601190915290208190556001016155bc565b6001600160a01b038084166000908152600f6020526040808220546018549151631c20fadd60e01b8152929390811692911690631c20fadd9061566a90849030908990600401616dfb565b600060405180830381600087803b15801561568457600080fd5b505af1158015615698573d6000803e3d6000fd5b5050604051635d043b2960e11b81526004810187905230602482018190526044820152600092506001600160a01b038416915063ba087652906064016020604051808303816000875af11580156156f3573d6000803e3d6000fd5b505050506040513d601f19601f820116820180604052508101906157179190616e7d565b905060006157256001615ee4565b6001600160a01b03888116604083810182905260c084018690528883166020850152601a54905163095ea7b360e01b8152921660048301526024820185905291925063095ea7b3906044016020604051808303816000875af115801561578f573d6000803e3d6000fd5b505050506040513d601f19601f820116820180604052508101906157b39190616e1f565b50601a5460405163aa2165f160e01b81526000916001600160a01b03169063aa2165f1906157e5908590600401616c90565b6020604051808303816000875af1158015615804573d6000803e3d6000fd5b505050506040513d601f19601f820116820180604052508101906158289190616e7d565b60008181526033602090815260409182902085518154928701516001600160401b039091166001600160e01b031990931692909217600160401b6001600160a01b039384160217815591850151600180840180546001600160a01b0319169284169290921790915560608601516002840180546080890151929094166001600160a81b031990941693909317600160a01b911515919091021780835560a08701519495508694929160ff60a81b1990911690600160a81b9084908111156158f1576158f1616889565b021790555060c0820151816003015560e0820151816004015561010082015181600501556101208201518160060160006101000a81548160ff0219169083600381111561594057615940616889565b0217905550919998505050505050505050565b61595b615f9b565b600080516020617718833981519152805460ff191681557f5db9ee0a495bf2e6ff9c91a7834c1ba4fdd244a5e8aa4e537bd38aeae4b073aa335b6040516001600160a01b03909116815260200160405180910390a150565b600380546001600160a01b0319166001600160a01b0392909216919091179055565b60008262ffffff166000036159eb576000615389565b61538982620f42406159fd8682617195565b62ffffff16615e10565b60008260ff168260ff161115615a3d57615a2183836171b1565b615a2c90600a6172ae565b615a3690856172bd565b9050615389565b615a2182846171b1565b7f9016d09d72d40fdae2fd8ceac6b6234c7706214fd39c1cd1e609a0528c19930080546001600160a01b031981166001600160a01b03848116918217845560405192169182907f8be0079c531659141344cd1fd0a4f28419497f9722a3daafe3b4186f6b6457e090600090a3505050565b615ac061665c565b615ac861665c565b61112781868686615fcb565b6080830151615ae39083616008565b6080830151612a829082616008565b600454600090615b03816001616d98565b600455835160408086015160808701515191516000936320214ca360e11b93615b3b9386938493923092918a916001916024016172ed565b60408051601f198184030181529190526020810180516001600160e01b03166001600160e01b0319909316929092179091529050615b7b8683868461601f565b9695505050505050565b615b8d61617d565b600080516020617718833981519152805460ff191660011781557f62e78cea01bee320cd4e420270b5ea74000d11b0c9f74754ebdbfc544b05a25833615995565b818160005b8251811015615dcf57828181518110615bee57615bee616f11565b6020026020010151600d600083815260200190815260200160002060006101000a8154816001600160a01b0302191690836001600160a01b031602179055508060106000858481518110615c4457615c44616f11565b60200260200101516001600160a01b03166001600160a01b0316815260200190815260200160002081905550818181518110615c8257615c82616f11565b602002602001015160136000858481518110615ca057615ca0616f11565b60200260200101516001600160a01b03166001600160a01b0316815260200190815260200160002081905550600c54600003615dc757828181518110615ce857615ce8616f11565b6020026020010151600e600083815260200190815260200160002060006101000a8154816001600160a01b0302191690836001600160a01b03160217905550818181518110615d3957615d39616f11565b602002602001015160126000858481518110615d5757615d57616f11565b60200260200101516001600160a01b03166001600160a01b03168152602001908152602001600020819055508060116000858481518110615d9a57615d9a616f11565b60200260200101516001600160a01b03166001600160a01b03168152602001908152602001600020819055505b600101615bd3565b508151600b55600c54600003615de5578151600c555b505042600a555050565b615df76161ae565b611975816161f7565b615e086161ae565b611c486161ff565b6000808060001985870985870292508281108382030391505080600003615e4a57838281615e4057615e40616e53565b0492505050615389565b838110615e7b57604051630c740aef60e31b81526004810187905260248101869052604481018590526064016117b9565b60008486880960026001871981018816978890046003810283188082028403028082028403028082028403028082028403028082028403029081029092039091026000889003889004909101858311909403939093029303949094049190911702949350505050565b615eec6165f9565b60408051610140810182526001600160401b03421681523060208201526017546001600160a01b0390811692820192909252601b549091166060820152821515608082015260a081016000815260200183615f48576000615f53565b68056bc75e2d631000005b68ffffffffffffffffff16815260200183615f775768056bc75e2d63100000615f7a565b60005b68ffffffffffffffffff168152600060208201526040016001905292915050565b6000805160206177188339815191525460ff16611c4857604051638dfc202b60e01b815260040160405180910390fd5b615fd361665c565b615fe38560800151610100616220565b50509183526001600160a01b031660208301526001600160e01b031916604082015290565b6160158260038351616285565b612a82828261638c565b6040516bffffffffffffffffffffffff193060601b1660208201526034810184905260009060540160408051808303601f1901815282825280516020918201206000818152600590925291812080546001600160a01b0319166001600160a01b038a1617905590925082917fb5e6e01e79f91267dc17b4e6314d5d4d03593d2ceee0fbb452b750bd70ea5af99190a2600254604051630200057560e51b81526001600160a01b0390911690634000aea0906160e290889087908790600401617346565b6020604051808303816000875af1158015616101573d6000803e3d6000fd5b505050506040513d601f19601f820116820180604052508101906161259190616e1f565b6141945760405162461bcd60e51b815260206004820152602360248201527f756e61626c6520746f207472616e73666572416e6443616c6c20746f206f7261604482015262636c6560e81b60648201526084016117b9565b6000805160206177188339815191525460ff1615611c485760405163d93c066560e01b815260040160405180910390fd5b7ff0c57e16840df040f15088dc2f81fe391c3923bec73e23a9662efc9c229c6a0054600160401b900460ff16611c4857604051631afcd79f60e31b815260040160405180910390fd5b61532d6161ae565b6162076161ae565b600080516020617718833981519152805460ff19169055565b60408051808201909152606081526000602082015261624060208361736d565b156162685761625060208361736d565b61625b906020616efe565b6162659083616d98565b91505b506020828101829052604080518085526000815290920101905290565b6017816001600160401b0316116162a9576122408360e0600585901b1683176163b3565b60ff816001600160401b0316116162e5576162cf836018611fe0600586901b16176163b3565b50612240836001600160401b03831660016163d8565b61ffff816001600160401b0316116163225761630c836019611fe0600586901b16176163b3565b50612240836001600160401b03831660026163d8565b63ffffffff816001600160401b0316116163615761634b83601a611fe0600586901b16176163b3565b50612240836001600160401b03831660046163d8565b61637683601b611fe0600586901b16176163b3565b50612240836001600160401b03831660086163d8565b604080518082019091526060815260006020820152615389838460000151518485516163fe565b60408051808201909152606081526000602082015261538983846000015151846164e8565b604080518082019091526060815260006020820152614194848560000151518585616543565b604080518082019091526060815260006020820152825182111561642157600080fd5b60208501516164308386616d98565b111561646357616463856164538760200151878661644e9190616d98565b6165c4565b61645e906002616e3c565b6165d5565b6000808651805187602083010193508088870111156164825787860182525b505050602084015b602084106164c257805182526164a1602083616d98565b91506164ae602082616d98565b90506164bb602085616efe565b935061648a565b51815160001960208690036101000a019081169019919091161790525083949350505050565b6040805180820190915260608152600060208201528360200151831061651d5761651d848560200151600261645e9190616e3c565b8351805160208583010184815350808503616539576001810182525b5093949350505050565b60408051808201909152606081526000602082015260208501516165678584616d98565b111561657b5761657b856164538685616d98565b6000600161658b84610100617381565b6165959190616efe565b90508551838682010185831982511617815250805184870111156165b95783860181525b509495945050505050565b60008183111561132e575081611238565b81516165e18383616220565b50612240838261638c565b6103328061738e83390190565b604080516101408101825260008082526020820181905291810182905260608101829052608081018290529060a082019081526020016000815260200160008152602001600081526020016000600381111561665757616657616889565b905290565b6040805160a0810182526000808252602080830182905282840182905260608084018390528451808601909552845283015290608082015290565b80356001600160a01b03811681146119ef57600080fd5b600080604083850312156166c157600080fd5b823591506166d160208401616697565b90509250929050565b6000602082840312156166ec57600080fd5b5035919050565b60006020828403121561670557600080fd5b61538982616697565b634e487b7160e01b600052604160045260246000fd5b604051601f8201601f191681016001600160401b038111828210171561674c5761674c61670e565b604052919050565b600082601f83011261676557600080fd5b81356001600160401b0381111561677e5761677e61670e565b616791601f8201601f1916602001616724565b8181528460208386010111156167a657600080fd5b816020850160208301376000918101602001919091529392505050565b600080604083850312156167d657600080fd5b82356001600160401b03808211156167ed57600080fd5b6167f986838701616754565b9350602085013591508082111561680f57600080fd5b5061681c85828601616754565b9150509250929050565b60005b83811015616841578181015183820152602001616829565b50506000910152565b60008151808452616862816020860160208601616826565b601f01601f19169290920160200192915050565b602081526000615389602083018461684a565b634e487b7160e01b600052602160045260246000fd5b600281106168af576168af616889565b9052565b600481106168af576168af616889565b6001600160401b038b1681526001600160a01b038a811660208301528981166040830152881660608201528615156080820152610140810161690860a083018861689f565b8560c08301528460e0830152836101008301526169296101208301846168b3565b9b9a5050505050505050505050565b6000806040838503121561694b57600080fd5b61695483616697565b946020939093013593505050565b60ff8116811461197557600080fd5b60006020828403121561698357600080fd5b813561538981616962565b60006001600160401b038211156169a7576169a761670e565b5060051b60200190565b600082601f8301126169c257600080fd5b813560206169d76169d28361698e565b616724565b8083825260208201915060208460051b8701019350868411156169f957600080fd5b602086015b84811015616a1c57616a0f81616697565b83529183019183016169fe565b509695505050505050565b60008060408385031215616a3a57600080fd5b82356001600160401b0380821115616a5157600080fd5b616a5d868387016169b1565b93506020850135915080821115616a7357600080fd5b5061681c858286016169b1565b600082601f830112616a9157600080fd5b81356020616aa16169d28361698e565b8083825260208201915060208460051b870101935086841115616ac357600080fd5b602086015b84811015616a1c5780358352918301918301616ac8565b60008060408385031215616af257600080fd5b82356001600160401b0380821115616b0957600080fd5b616b15868387016169b1565b93506020850135915080821115616b2b57600080fd5b5061681c85828601616a80565b801515811461197557600080fd5b60008060008060008060008060006101208a8c031215616b6557600080fd5b616b6e8a616697565b9850616b7c60208b01616697565b9750616b8a60408b01616697565b9650616b9860608b01616697565b955060808a0135616ba881616962565b9450616bb660a08b01616697565b9350616bc460c08b01616697565b925060e08a013591506101008a0135616bdc81616b38565b809150509295985092959850929598565b60008060408385031215616c0057600080fd5b616c0983616697565b91506020830135616c1981616962565b809150509250929050565b600080600060608486031215616c3957600080fd5b8335925060208401356001600160401b0380821115616c5757600080fd5b616c63878388016169b1565b93506040860135915080821115616c7957600080fd5b50616c8686828701616a80565b9150509250925092565b81516001600160401b0316815261014081016020830151616cbc60208401826001600160a01b03169052565b506040830151616cd760408401826001600160a01b03169052565b506060830151616cf260608401826001600160a01b03169052565b506080830151616d06608084018215159052565b5060a0830151616d1960a084018261689f565b5060c083015160c083015260e083015160e083015261010080840151818401525061012080840151616d4d828501826168b3565b505092915050565b60008060408385031215616d6857600080fd5b82519150602083015162ffffff81168114616c1957600080fd5b634e487b7160e01b600052601160045260246000fd5b8082018082111561123857611238616d82565b600060208284031215616dbd57600080fd5b81516004811061538957600080fd5b60008351616dde818460208801616826565b835190830190616df2818360208801616826565b01949350505050565b6001600160a01b039384168152919092166020820152604081019190915260600190565b600060208284031215616e3157600080fd5b815161538981616b38565b808202811582820484141761123857611238616d82565b634e487b7160e01b600052601260045260246000fd5b600082616e7857616e78616e53565b500490565b600060208284031215616e8f57600080fd5b5051919050565b6001600160a01b0394909416845260208401929092526040830152606082015260800190565b60208082526022908201527f526562616c616e6365206f726465727320617265206e6f7420636f6d706c6574604082015261195960f21b606082015260800190565b8181038181111561123857611238616d82565b634e487b7160e01b600052603260045260246000fd5b805169ffffffffffffffffffff811681146119ef57600080fd5b600080600080600060a08688031215616f5957600080fd5b616f6286616f27565b9450602086015193506040860151925060608601519150616f8560808701616f27565b90509295509295909350565b600060208284031215616fa357600080fd5b815161538981616962565b600060408284031215616fc057600080fd5b604051604081016001600160401b038282108183111715616fe357616fe361670e565b816040528451835260208501519150808216821461700057600080fd5b5060208201529392505050565b600181811c9082168061702157607f821691505b60208210810361132e57634e487b7160e01b600052602260045260246000fd5b60208082526025908201527f5468652070726f6365737320686173206265656e20636f6d706c65746564206260408201526465666f726560d81b606082015260800190565b601f821115612a82576000816000526020600020601f850160051c810160208610156170af5750805b601f850160051c820191505b818110156170ce578281556001016170bb565b505050505050565b81516001600160401b038111156170ef576170ef61670e565b617103816170fd845461700d565b84617086565b602080601f83116001811461713857600084156171205750858301515b600019600386901b1c1916600185901b1785556170ce565b600085815260208120601f198616915b8281101561716757888601518255948401946001909101908401617148565b50858210156171855787850151600019600388901b60f8161c191681555b5050505050600190811b01905550565b62ffffff81811683821601908082111561509157615091616d82565b60ff828116828216039081111561123857611238616d82565b600181815b808511156172055781600019048211156171eb576171eb616d82565b808516156171f857918102915b93841c93908002906171cf565b509250929050565b60008261721c57506001611238565b8161722957506000611238565b816001811461723f576002811461724957617265565b6001915050611238565b60ff84111561725a5761725a616d82565b50506001821b611238565b5060208310610133831016604e8410600b8410161715617288575081810a611238565b61729283836171ca565b80600019048211156172a6576172a6616d82565b029392505050565b600061538960ff84168361720d565b80820260008212600160ff1b841416156172d9576172d9616d82565b818105831482151761123857611238616d82565b6001600160a01b0389811682526020820189905260408201889052861660608201526001600160e01b03198516608082015260a0810184905260c0810183905261010060e082018190526000906169298382018561684a565b60018060a01b0384168152826020820152606060408201526000611127606083018461684a565b60008261737c5761737c616e53565b500690565b6000615389838361720d56fe6080604052348015600f57600080fd5b50604051610332380380610332833981016040819052602c916050565b600080546001600160a01b0319166001600160a01b0392909216919091179055607e565b600060208284031215606157600080fd5b81516001600160a01b0381168114607757600080fd5b9392505050565b6102a58061008d6000396000f3fe608060405234801561001057600080fd5b50600436106100415760003560e01c806313af4035146100465780632fdcfbd21461005b5780638da5cb5b1461006e575b600080fd5b6100596100543660046101ef565b61009d565b005b610059610069366004610211565b61010f565b600054610081906001600160a01b031681565b6040516001600160a01b03909116815260200160405180910390f35b6000546001600160a01b031633146100ed5760405162461bcd60e51b815260206004820152600e60248201526d139bdd08185d5d1a1bdc9a5e995960921b60448201526064015b60405180910390fd5b600080546001600160a01b0319166001600160a01b0392909216919091179055565b6000546001600160a01b0316331461015a5760405162461bcd60e51b815260206004820152600e60248201526d139bdd08185d5d1a1bdc9a5e995960921b60448201526064016100e4565b60405163a9059cbb60e01b81526001600160a01b0383811660048301526024820183905284169063a9059cbb906044016020604051808303816000875af11580156101a9573d6000803e3d6000fd5b505050506040513d601f19601f820116820180604052508101906101cd919061024d565b50505050565b80356001600160a01b03811681146101ea57600080fd5b919050565b60006020828403121561020157600080fd5b61020a826101d3565b9392505050565b60008060006060848603121561022657600080fd5b61022f846101d3565b925061023d602085016101d3565b9150604084013590509250925092565b60006020828403121561025f57600080fd5b8151801515811461020a57600080fdfea2646970667358221220502fe3cef5472467ba27d3f0af8cc13ea970369ac0d01284025186802306355064736f6c6343000819003368747470733a2f2f6170702e6e65786c6162732e696f2f6170692f616c6c46756e64696e6752617465733f6d756c7469706c7946756e633d31382674696d65734e656746756e643d74727565266172726179733d74727565cd5ed15c6e187e77e9aee88184c21f4f2182ab5827cb3b7e07fbedcd63f03300a264697066735822122073dc519cd8c2164e0affda9fd68a55a67cf6e7f367355d8ffe78fb3a3d82aff764736f6c63430008190033","linkReferences":{}},"methodIdentifiers":{"burnedTokenAmountByNonce(uint256)":"ab7820b2","buyRequestPayedAmountById(uint256)":"8861d235","calculateBuyRequestFee(uint256)":"06995e3b","calculateIssuanceFee(uint256)":"e19eefbe","cancelIssuance(uint256)":"46d66a2c","cancelIssuanceComplted(uint256)":"7bfa27f2","cancelIssuanceRequestId(uint256,address)":"02e80f71","cancelRedemption(uint256)":"9219e510","cancelRedemptionComplted(uint256)":"b46840f9","cancelRedemptionRequestId(uint256,address)":"8c221899","checkCancelIssuanceStatus(uint256)":"631c8385","checkCancelRedemptionStatus(uint256)":"b592662a","checkFirstRebalanceOrdersStatus(uint256)":"92318df4","checkIssuanceOrdersStatus(uint256)":"2343acb4","checkRedemptionOrdersStatus(uint256)":"3fac0922","checkSecondRebalanceOrdersStatus(uint256)":"558f1aa8","coaByIssuanceNonce(uint256)":"31c99010","coaByRedemptionNonce(uint256)":"b75f4c2c","completeCancelIssuance(uint256)":"807ca237","completeCancelRedemption(uint256)":"9026544f","completeIssuance(uint256)":"bed45bef","completeRebalanceActions(uint256)":"263e0d51","completeRedemption(uint256)":"840ecba0","concatenation(string,string)":"0e329357","currentList(uint256)":"9932ba4c","custodianWallet()":"1e106e99","estimateAmountAfterFee(uint256)":"9e76d0cb","externalJobId()":"a8b54bd4","feeRate()":"978bbdb9","firstRebalanceAction()":"32f53f3c","fulfillAssetsData(bytes32,address[],uint256[])":"f14bea20","getIssuanceAmountOut(uint256)":"c8da3303","getOrderInstanceById(uint256)":"f1f31d66","getPortfolioValue()":"bb0498de","getRdemptionAmountOut(uint256)":"8c9e2834","getVaultDshareBalance(address)":"a08d7bd6","getVaultDshareValue(address)":"efdf5053","initialize(address,address,address,address,uint8,address,address,bytes32,bool)":"d57e0493","isIssuanceOrderActive(uint256)":"b0e12134","isMainnet()":"42faac05","isRedemptionOrderActive(uint256)":"0b1a4918","issuance(uint256)":"248b761e","issuanceIndexTokenPrimaryTotalSupply(uint256)":"b1dd819e","issuanceInputAmount(uint256)":"cf9ee319","issuanceIsCompleted(uint256)":"a84ebc17","issuanceNonce()":"9dbb9c9e","issuanceRequestId(uint256,address)":"264fa8b9","issuanceRequesterByNonce(uint256)":"94674098","issuanceTokenPrimaryBalance(uint256,address)":"da65925a","issuer()":"1d143848","lastUpdateTime()":"c8f33c91","latestFeeUpdate()":"011ced5f","mockFillAssetsList(address[],uint256[])":"addc70d1","oracleList(uint256)":"239aad0d","oraclePayment()":"0c02e130","orderInstanceById(uint256)":"15e666a2","owner()":"8da5cb5b","pause()":"8456cb59","paused()":"5c975abb","portfolioValueByNonce(uint256)":"2badae5d","priceFeedByTokenAddress(address)":"08dc4b0c","priceInWei(address)":"6839a095","rebalanceBuyPayedAmountById(uint256)":"ab935bb2","rebalanceNonce()":"edca4f5e","rebalanceRequestId(uint256,address)":"75a3cb57","rebalanceSellAssetAmountById(uint256)":"8d6983c7","redemption(uint256)":"4a1dc092","redemptionIndexTokenPrimaryTotalSupply(uint256)":"daf1c17d","redemptionInputAmount(uint256)":"9cf54521","redemptionIsCompleted(uint256)":"76529fdf","redemptionNonce()":"84d77bb1","redemptionRequestId(uint256,address)":"f513a718","redemptionRequesterByNonce(uint256)":"78032658","redemptionTokenPrimaryBalance(uint256,address)":"a363b9cb","renounceOwnership()":"715018a6","requestAssetsData()":"7ca58c55","secondRebalanceAction(uint256)":"643ee27f","sellRequestAssetAmountById(uint256)":"a87f98d2","setCustodianWallet(address)":"9cc0fb5b","setFeeRate(uint8)":"5177942a","setIssuer(address)":"55cc4e57","setOracleInfo(address,bytes32)":"43482fc8","setPriceFeedAddresses(address[],address[])":"57b61bc3","setTokenAddress(address)":"26a4e8d2","setUrl(string,string)":"a73e1cbf","setUsdcAddress(address,uint8)":"eab2a711","setWrappedDShareAddresses(address[],address[])":"b411dc41","token()":"fc0c546a","tokenCurrentListIndex(address)":"914f0cc6","tokenCurrentMarketShare(address)":"0be52713","tokenOracleListIndex(address)":"8c88c10c","tokenOracleMarketShare(address)":"4b3e0b80","tokenShortagePercentByNonce(uint256,address)":"db5c1a12","tokenValueByNonce(uint256,address)":"b316e7fd","totalCurrentList()":"53fd4332","totalOracleList()":"c8599ded","totalShortagePercentByNonce(uint256)":"2ca49334","transferOwnership(address)":"f2fde38b","unpause()":"3f4ba83a","usdc()":"3e413bee","usdcDecimals()":"7bf42165","vault()":"fbfa77cf","wrappedDshareAddress(address)":"092755e0"},"id":16}