{"abi":[{"type":"function","name":"buyRequestPayedAmountById","inputs":[{"name":"","type":"uint256","internalType":"uint256"}],"outputs":[{"name":"","type":"uint256","internalType":"uint256"}],"stateMutability":"view"},{"type":"function","name":"calculateIssuanceFee","inputs":[{"name":"_inputAmount","type":"uint256","internalType":"uint256"}],"outputs":[{"name":"","type":"uint256","internalType":"uint256"}],"stateMutability":"view"},{"type":"function","name":"checkIssuanceOrdersStatus","inputs":[{"name":"_issuanceNonce","type":"uint256","internalType":"uint256"}],"outputs":[{"name":"","type":"bool","internalType":"bool"}],"stateMutability":"view"},{"type":"function","name":"checkRedemptionOrdersStatus","inputs":[{"name":"_redemptionNonce","type":"uint256","internalType":"uint256"}],"outputs":[{"name":"","type":"bool","internalType":"bool"}],"stateMutability":"view"},{"type":"function","name":"coaByIssuanceNonce","inputs":[{"name":"","type":"uint256","internalType":"uint256"}],"outputs":[{"name":"","type":"address","internalType":"address"}],"stateMutability":"view"},{"type":"function","name":"coaByRedemptionNonce","inputs":[{"name":"","type":"uint256","internalType":"uint256"}],"outputs":[{"name":"","type":"address","internalType":"address"}],"stateMutability":"view"},{"type":"function","name":"completeIssuance","inputs":[{"name":"_issuanceNonce","type":"uint256","internalType":"uint256"}],"outputs":[],"stateMutability":"nonpayable"},{"type":"function","name":"completeRedemption","inputs":[{"name":"_redemptionNonce","type":"uint256","internalType":"uint256"}],"outputs":[],"stateMutability":"nonpayable"},{"type":"function","name":"concatenation","inputs":[{"name":"a","type":"string","internalType":"string"},{"name":"b","type":"string","internalType":"string"}],"outputs":[{"name":"","type":"string","internalType":"string"}],"stateMutability":"pure"},{"type":"function","name":"currentList","inputs":[{"name":"","type":"uint256","internalType":"uint256"}],"outputs":[{"name":"","type":"address","internalType":"address"}],"stateMutability":"view"},{"type":"function","name":"custodianWallet","inputs":[],"outputs":[{"name":"","type":"address","internalType":"address"}],"stateMutability":"view"},{"type":"function","name":"externalJobId","inputs":[],"outputs":[{"name":"","type":"bytes32","internalType":"bytes32"}],"stateMutability":"view"},{"type":"function","name":"feeRate","inputs":[],"outputs":[{"name":"","type":"uint8","internalType":"uint8"}],"stateMutability":"view"},{"type":"function","name":"fulfillAssetsData","inputs":[{"name":"requestId","type":"bytes32","internalType":"bytes32"},{"name":"_tokens","type":"address[]","internalType":"address[]"},{"name":"_marketShares","type":"uint256[]","internalType":"uint256[]"}],"outputs":[],"stateMutability":"nonpayable"},{"type":"function","name":"getOrderInctanceById","inputs":[{"name":"id","type":"uint256","internalType":"uint256"}],"outputs":[{"name":"","type":"tuple","internalType":"struct IOrderProcessor.Order","components":[{"name":"requestTimestamp","type":"uint64","internalType":"uint64"},{"name":"recipient","type":"address","internalType":"address"},{"name":"assetToken","type":"address","internalType":"address"},{"name":"paymentToken","type":"address","internalType":"address"},{"name":"sell","type":"bool","internalType":"bool"},{"name":"orderType","type":"uint8","internalType":"enum IOrderProcessor.OrderType"},{"name":"assetTokenQuantity","type":"uint256","internalType":"uint256"},{"name":"paymentTokenQuantity","type":"uint256","internalType":"uint256"},{"name":"price","type":"uint256","internalType":"uint256"},{"name":"tif","type":"uint8","internalType":"enum IOrderProcessor.TIF"}]}],"stateMutability":"view"},{"type":"function","name":"initialize","inputs":[{"name":"_issuer","type":"address","internalType":"address"},{"name":"_token","type":"address","internalType":"address"},{"name":"_vault","type":"address","internalType":"address"},{"name":"_usdc","type":"address","internalType":"address"},{"name":"_usdcDecimals","type":"uint8","internalType":"uint8"},{"name":"_chainlinkToken","type":"address","internalType":"address"},{"name":"_oracleAddress","type":"address","internalType":"address"},{"name":"_externalJobId","type":"bytes32","internalType":"bytes32"}],"outputs":[],"stateMutability":"nonpayable"},{"type":"function","name":"issuance","inputs":[{"name":"_inputAmount","type":"uint256","internalType":"uint256"}],"outputs":[{"name":"","type":"uint256","internalType":"uint256"}],"stateMutability":"nonpayable"},{"type":"function","name":"issuanceIndexTokenPrimaryTotalSupply","inputs":[{"name":"","type":"uint256","internalType":"uint256"}],"outputs":[{"name":"","type":"uint256","internalType":"uint256"}],"stateMutability":"view"},{"type":"function","name":"issuanceIsCompleted","inputs":[{"name":"","type":"uint256","internalType":"uint256"}],"outputs":[{"name":"","type":"bool","internalType":"bool"}],"stateMutability":"view"},{"type":"function","name":"issuanceNonce","inputs":[],"outputs":[{"name":"","type":"uint256","internalType":"uint256"}],"stateMutability":"view"},{"type":"function","name":"issuanceRequestId","inputs":[{"name":"","type":"uint256","internalType":"uint256"},{"name":"","type":"address","internalType":"address"}],"outputs":[{"name":"","type":"uint256","internalType":"uint256"}],"stateMutability":"view"},{"type":"function","name":"issuanceRequesterByNonce","inputs":[{"name":"","type":"uint256","internalType":"uint256"}],"outputs":[{"name":"","type":"address","internalType":"address"}],"stateMutability":"view"},{"type":"function","name":"issuanceTokenPrimaryBalance","inputs":[{"name":"","type":"uint256","internalType":"uint256"},{"name":"","type":"address","internalType":"address"}],"outputs":[{"name":"","type":"uint256","internalType":"uint256"}],"stateMutability":"view"},{"type":"function","name":"issuer","inputs":[],"outputs":[{"name":"","type":"address","internalType":"contract IOrderProcessor"}],"stateMutability":"view"},{"type":"function","name":"lastUpdateTime","inputs":[],"outputs":[{"name":"","type":"uint256","internalType":"uint256"}],"stateMutability":"view"},{"type":"function","name":"latestFeeUpdate","inputs":[],"outputs":[{"name":"","type":"uint256","internalType":"uint256"}],"stateMutability":"view"},{"type":"function","name":"mockFillAssetsList","inputs":[{"name":"_tokens","type":"address[]","internalType":"address[]"},{"name":"_marketShares","type":"uint256[]","internalType":"uint256[]"}],"outputs":[],"stateMutability":"nonpayable"},{"type":"function","name":"oracleList","inputs":[{"name":"","type":"uint256","internalType":"uint256"}],"outputs":[{"name":"","type":"address","internalType":"address"}],"stateMutability":"view"},{"type":"function","name":"oraclePayment","inputs":[],"outputs":[{"name":"","type":"uint256","internalType":"uint256"}],"stateMutability":"view"},{"type":"function","name":"orderInstanceById","inputs":[{"name":"","type":"uint256","internalType":"uint256"}],"outputs":[{"name":"requestTimestamp","type":"uint64","internalType":"uint64"},{"name":"recipient","type":"address","internalType":"address"},{"name":"assetToken","type":"address","internalType":"address"},{"name":"paymentToken","type":"address","internalType":"address"},{"name":"sell","type":"bool","internalType":"bool"},{"name":"orderType","type":"uint8","internalType":"enum IOrderProcessor.OrderType"},{"name":"assetTokenQuantity","type":"uint256","internalType":"uint256"},{"name":"paymentTokenQuantity","type":"uint256","internalType":"uint256"},{"name":"price","type":"uint256","internalType":"uint256"},{"name":"tif","type":"uint8","internalType":"enum IOrderProcessor.TIF"}],"stateMutability":"view"},{"type":"function","name":"owner","inputs":[],"outputs":[{"name":"","type":"address","internalType":"address"}],"stateMutability":"view"},{"type":"function","name":"pause","inputs":[],"outputs":[],"stateMutability":"nonpayable"},{"type":"function","name":"paused","inputs":[],"outputs":[{"name":"","type":"bool","internalType":"bool"}],"stateMutability":"view"},{"type":"function","name":"redemption","inputs":[{"name":"_inputAmount","type":"uint256","internalType":"uint256"}],"outputs":[{"name":"","type":"uint256","internalType":"uint256"}],"stateMutability":"nonpayable"},{"type":"function","name":"redemptionIndexTokenPrimaryTotalSupply","inputs":[{"name":"","type":"uint256","internalType":"uint256"}],"outputs":[{"name":"","type":"uint256","internalType":"uint256"}],"stateMutability":"view"},{"type":"function","name":"redemptionIsCompleted","inputs":[{"name":"","type":"uint256","internalType":"uint256"}],"outputs":[{"name":"","type":"bool","internalType":"bool"}],"stateMutability":"view"},{"type":"function","name":"redemptionNonce","inputs":[],"outputs":[{"name":"","type":"uint256","internalType":"uint256"}],"stateMutability":"view"},{"type":"function","name":"redemptionRequestId","inputs":[{"name":"","type":"uint256","internalType":"uint256"},{"name":"","type":"address","internalType":"address"}],"outputs":[{"name":"","type":"uint256","internalType":"uint256"}],"stateMutability":"view"},{"type":"function","name":"redemptionRequesterByNonce","inputs":[{"name":"","type":"uint256","internalType":"uint256"}],"outputs":[{"name":"","type":"address","internalType":"address"}],"stateMutability":"view"},{"type":"function","name":"redemptionTokenPrimaryBalance","inputs":[{"name":"","type":"uint256","internalType":"uint256"},{"name":"","type":"address","internalType":"address"}],"outputs":[{"name":"","type":"uint256","internalType":"uint256"}],"stateMutability":"view"},{"type":"function","name":"renounceOwnership","inputs":[],"outputs":[],"stateMutability":"nonpayable"},{"type":"function","name":"requestAssetsData","inputs":[],"outputs":[{"name":"","type":"bytes32","internalType":"bytes32"}],"stateMutability":"nonpayable"},{"type":"function","name":"sellRequestAssetAmountById","inputs":[{"name":"","type":"uint256","internalType":"uint256"}],"outputs":[{"name":"","type":"uint256","internalType":"uint256"}],"stateMutability":"view"},{"type":"function","name":"setCustodianWallet","inputs":[{"name":"_custodianWallet","type":"address","internalType":"address"}],"outputs":[{"name":"","type":"bool","internalType":"bool"}],"stateMutability":"nonpayable"},{"type":"function","name":"setDShareAddresses","inputs":[{"name":"_dShares","type":"address[]","internalType":"address[]"},{"name":"_wrappedDShares","type":"address[]","internalType":"address[]"}],"outputs":[],"stateMutability":"nonpayable"},{"type":"function","name":"setFeeRate","inputs":[{"name":"_newFee","type":"uint8","internalType":"uint8"}],"outputs":[],"stateMutability":"nonpayable"},{"type":"function","name":"setIssuer","inputs":[{"name":"_issuer","type":"address","internalType":"address"}],"outputs":[{"name":"","type":"bool","internalType":"bool"}],"stateMutability":"nonpayable"},{"type":"function","name":"setOracleInfo","inputs":[{"name":"_oracleAddress","type":"address","internalType":"address"},{"name":"_externalJobId","type":"bytes32","internalType":"bytes32"}],"outputs":[],"stateMutability":"nonpayable"},{"type":"function","name":"setTokenAddress","inputs":[{"name":"_token","type":"address","internalType":"address"}],"outputs":[{"name":"","type":"bool","internalType":"bool"}],"stateMutability":"nonpayable"},{"type":"function","name":"setUrl","inputs":[{"name":"_beforeAddress","type":"string","internalType":"string"},{"name":"_afterAddress","type":"string","internalType":"string"}],"outputs":[],"stateMutability":"nonpayable"},{"type":"function","name":"setUsdcAddress","inputs":[{"name":"_usdc","type":"address","internalType":"address"},{"name":"_usdcDecimals","type":"uint8","internalType":"uint8"}],"outputs":[{"name":"","type":"bool","internalType":"bool"}],"stateMutability":"nonpayable"},{"type":"function","name":"token","inputs":[],"outputs":[{"name":"","type":"address","internalType":"contract IndexToken"}],"stateMutability":"view"},{"type":"function","name":"tokenCurrentListIndex","inputs":[{"name":"","type":"address","internalType":"address"}],"outputs":[{"name":"","type":"uint256","internalType":"uint256"}],"stateMutability":"view"},{"type":"function","name":"tokenCurrentMarketShare","inputs":[{"name":"","type":"address","internalType":"address"}],"outputs":[{"name":"","type":"uint256","internalType":"uint256"}],"stateMutability":"view"},{"type":"function","name":"tokenOracleListIndex","inputs":[{"name":"","type":"address","internalType":"address"}],"outputs":[{"name":"","type":"uint256","internalType":"uint256"}],"stateMutability":"view"},{"type":"function","name":"tokenOracleMarketShare","inputs":[{"name":"","type":"address","internalType":"address"}],"outputs":[{"name":"","type":"uint256","internalType":"uint256"}],"stateMutability":"view"},{"type":"function","name":"totalCurrentList","inputs":[],"outputs":[{"name":"","type":"uint256","internalType":"uint256"}],"stateMutability":"view"},{"type":"function","name":"totalOracleList","inputs":[],"outputs":[{"name":"","type":"uint256","internalType":"uint256"}],"stateMutability":"view"},{"type":"function","name":"transferOwnership","inputs":[{"name":"newOwner","type":"address","internalType":"address"}],"outputs":[],"stateMutability":"nonpayable"},{"type":"function","name":"unpause","inputs":[],"outputs":[],"stateMutability":"nonpayable"},{"type":"function","name":"usdc","inputs":[],"outputs":[{"name":"","type":"address","internalType":"address"}],"stateMutability":"view"},{"type":"function","name":"usdcDecimals","inputs":[],"outputs":[{"name":"","type":"uint8","internalType":"uint8"}],"stateMutability":"view"},{"type":"function","name":"vault","inputs":[],"outputs":[{"name":"","type":"address","internalType":"contract NexVault"}],"stateMutability":"view"},{"type":"function","name":"wrappedDshareAddress","inputs":[{"name":"","type":"address","internalType":"address"}],"outputs":[{"name":"","type":"address","internalType":"address"}],"stateMutability":"view"},{"type":"event","name":"ChainlinkCancelled","inputs":[{"name":"id","type":"bytes32","indexed":true,"internalType":"bytes32"}],"anonymous":false},{"type":"event","name":"ChainlinkFulfilled","inputs":[{"name":"id","type":"bytes32","indexed":true,"internalType":"bytes32"}],"anonymous":false},{"type":"event","name":"ChainlinkRequested","inputs":[{"name":"id","type":"bytes32","indexed":true,"internalType":"bytes32"}],"anonymous":false},{"type":"event","name":"Initialized","inputs":[{"name":"version","type":"uint64","indexed":false,"internalType":"uint64"}],"anonymous":false},{"type":"event","name":"OwnershipTransferred","inputs":[{"name":"previousOwner","type":"address","indexed":true,"internalType":"address"},{"name":"newOwner","type":"address","indexed":true,"internalType":"address"}],"anonymous":false},{"type":"event","name":"Paused","inputs":[{"name":"account","type":"address","indexed":false,"internalType":"address"}],"anonymous":false},{"type":"event","name":"Unpaused","inputs":[{"name":"account","type":"address","indexed":false,"internalType":"address"}],"anonymous":false},{"type":"error","name":"EnforcedPause","inputs":[]},{"type":"error","name":"ExpectedPause","inputs":[]},{"type":"error","name":"InvalidInitialization","inputs":[]},{"type":"error","name":"NotInitializing","inputs":[]},{"type":"error","name":"OwnableInvalidOwner","inputs":[{"name":"owner","type":"address","internalType":"address"}]},{"type":"error","name":"OwnableUnauthorizedAccount","inputs":[{"name":"account","type":"address","internalType":"address"}]},{"type":"error","name":"PRBMath_MulDiv_Overflow","inputs":[{"name":"x","type":"uint256","internalType":"uint256"},{"name":"y","type":"uint256","internalType":"uint256"},{"name":"denominator","type":"uint256","internalType":"uint256"}]}],"bytecode":{"object":"0x6080604052348015600f57600080fd5b506148e98061001f6000396000f3fe608060405234801561001057600080fd5b50600436106103d05760003560e01c806384d77bb1116101ff578063addc70d11161011a578063e19eefbe116100ad578063f2fde38b1161007c578063f2fde38b14610a48578063f513a71814610a5b578063fbfa77cf14610a86578063fc0c546a14610a9957600080fd5b8063e19eefbe146109fc578063eab2a71114610a0f578063efa906c714610a22578063f14bea2014610a3557600080fd5b8063c8599ded116100e9578063c8599ded1461099f578063c8f33c91146109a8578063da65925a146109b1578063daf1c17d146109dc57600080fd5b8063addc70d114610930578063b1dd819e14610943578063b75f4c2c14610963578063bed45bef1461098c57600080fd5b80639cc0fb5b11610192578063a73e1cbf11610161578063a73e1cbf146108d2578063a84ebc17146108e5578063a87f98d214610908578063a8b54bd41461092757600080fd5b80639cc0fb5b1461086b5780639dbb9c9e1461087e578063a363b9cb14610887578063a58e03af146108b257600080fd5b8063914f0cc6116101ce578063914f0cc6146107e55780639467409814610805578063978bbdb91461082e5780639932ba4c1461084257600080fd5b806384d77bb11461076c5780638861d235146107755780638c88c10c146107955780638da5cb5b146107b557600080fd5b80633f4ba83a116102ef5780635c975abb116102825780637bf42165116102515780637bf42165146107235780637ca58c5514610749578063840ecba0146107515780638456cb591461076457600080fd5b80635c975abb146106b7578063715018a6146106cf57806376529fdf146106d757806378032658146106fa57600080fd5b80634b3e0b80116102be5780634b3e0b80146106685780635177942a1461068857806353fd43321461069b57806355cc4e57146106a457600080fd5b80633f4ba83a146106275780633fac09221461062f57806343482fc8146106425780634a1dc0921461065557600080fd5b80632343acb41161036757806326a4e8d21161033657806326a4e8d2146105c357806331c99010146105d65780633492be94146105ff5780633e413bee1461061457600080fd5b80632343acb414610539578063239aad0d1461055c578063248b761e14610585578063264fa8b91461059857600080fd5b80630e329357116103a35780630e3293571461045b57806315e666a21461047b5780631d143848146105135780631e106e991461052657600080fd5b8063011ced5f146103d5578063092755e0146103f15780630be52713146104325780630c02e13014610452575b600080fd5b6103de602a5481565b6040519081526020015b60405180910390f35b61041a6103ff3660046139f4565b600f602052600090815260409020546001600160a01b031681565b6040516001600160a01b0390911681526020016103e8565b6103de6104403660046139f4565b60126020526000908152604090205481565b6103de60095481565b61046e610469366004613ac4565b610aac565b6040516103e89190613b77565b6104fd610489366004613b8a565b60296020526000908152604090208054600182015460028301546003840154600485015460058601546006909601546001600160401b038616966001600160a01b03600160401b9097048716969586169585169460ff600160a01b8204811695600160a81b9092048116949193919291168a565b6040516103e89a99989796959493929190613bdd565b60195461041a906001600160a01b031681565b60185461041a906001600160a01b031681565b61054c610547366004613b8a565b610ad9565b60405190151581526020016103e8565b61041a61056a366004613b8a565b600d602052600090815260409020546001600160a01b031681565b6103de610593366004613b8a565b610bd8565b6103de6105a6366004613c52565b601d60209081526000928352604080842090915290825290205481565b61054c6105d13660046139f4565b610f36565b61041a6105e4366004613b8a565b6027602052600090815260409020546001600160a01b031681565b61061261060d366004613d17565b610fb7565b005b601a5461041a906001600160a01b031681565b61061261108d565b61054c61063d366004613b8a565b61109f565b610612610650366004613d70565b61117c565b6103de610663366004613b8a565b611193565b6103de6106763660046139f4565b60136020526000908152604090205481565b610612610696366004613dab565b611536565b6103de600c5481565b61054c6106b23660046139f4565b611680565b6000805160206148948339815191525460ff1661054c565b6106126116fe565b61054c6106e5366004613b8a565b60156020526000908152604090205460ff1681565b61041a610708366004613b8a565b6026602052600090815260409020546001600160a01b031681565b601a5461073790600160a01b900460ff1681565b60405160ff90911681526020016103e8565b6103de611710565b61061261075f366004613b8a565b611950565b610612611b27565b6103de601c5481565b6103de610783366004613b8a565b601f6020526000908152604090205481565b6103de6107a33660046139f4565b60106020526000908152604090205481565b7f9016d09d72d40fdae2fd8ceac6b6234c7706214fd39c1cd1e609a0528c199300546001600160a01b031661041a565b6103de6107f33660046139f4565b60116020526000908152604090205481565b61041a610813366004613b8a565b6025602052600090815260409020546001600160a01b031681565b601a5461073790600160a81b900460ff1681565b61041a610850366004613b8a565b600e602052600090815260409020546001600160a01b031681565b61054c6108793660046139f4565b611b37565b6103de601b5481565b6103de610895366004613c52565b602260209081526000928352604080842090915290825290205481565b6108c56108c0366004613b8a565b611bbc565b6040516103e89190613dc6565b6106126108e0366004613ac4565b611cc2565b61054c6108f3366004613b8a565b60146020526000908152604090205460ff1681565b6103de610916366004613b8a565b602080526000908152604090205481565b6103de60085481565b61061261093e366004613eea565b611ce3565b6103de610951366004613b8a565b60236020526000908152604090205481565b61041a610971366004613b8a565b6028602052600090815260409020546001600160a01b031681565b61061261099a366004613b8a565b611cf9565b6103de600b5481565b6103de600a5481565b6103de6109bf366004613c52565b602160209081526000928352604080842090915290825290205481565b6103de6109ea366004613b8a565b60246020526000908152604090205481565b6103de610a0a366004613b8a565b61219f565b61054c610a1d366004613f43565b6122b6565b610612610a30366004613f6d565b61233f565b610612610a43366004613ffd565b6125be565b610612610a563660046139f4565b61268a565b6103de610a69366004613c52565b601e60209081526000928352604080842090915290825290205481565b60175461041a906001600160a01b031681565b60165461041a906001600160a01b031681565b60608282604051602001610ac1929190614069565b60405160208183030381529060405290505b92915050565b60008060005b600c54811015610bb6576000818152600e6020908152604080832054878452601d83528184206001600160a01b039182168086529352928190205460195491516322fd455760e11b81526004810182905292939092600292909116906345fa8aae90602401602060405180830381865afa158015610b61573d6000803e3d6000fd5b505050506040513d601f19601f82011682018060405250810190610b859190614098565b6003811115610b9657610b96613ba3565b60ff1603610bac57610ba96001856140cf565b93505b5050600101610adf565b50600c548103610bc95750600192915050565b50600092915050565b50919050565b600080610be48361219f565b90506000610bf284836140cf565b601a546040516323b872dd60e01b81529192506001600160a01b0316906323b872dd90610c27903390309086906004016140e2565b6020604051808303816000875af1158015610c46573d6000803e3d6000fd5b505050506040513d601f19601f82011682018060405250810190610c6a9190614106565b50601a5460195460405163095ea7b360e01b81526001600160a01b0391821660048201526024810184905291169063095ea7b3906044016020604051808303816000875af1158015610cc0573d6000803e3d6000fd5b505050506040513d601f19601f82011682018060405250810190610ce49190614106565b506001601b6000828254610cf891906140cf565b92505081905550600030604051610d0e90613932565b6001600160a01b039091168152602001604051809103906000f080158015610d3a573d6000803e3d6000fd5b50601b54600090815260276020526040812080546001600160a01b0319166001600160a01b0384161790559091505b600c54811015610f29576000818152600e60209081526040808320546001600160a01b0316808452601290925282205490919068056bc75e2d6310000090610db1908a614128565b610dbb9190614155565b90506000610dca8383876126c8565b6000818152601f60209081526040808320869055601b80548452601d83528184206001600160a01b038981168087529185528386208790559154855260259093529281902080546001600160a01b0319163317905560175490516370a0823160e01b8152921660048301529192506370a0823190602401602060405180830381865afa158015610e5e573d6000803e3d6000fd5b505050506040513d601f19601f82011682018060405250810190610e829190614169565b601b5460009081526021602090815260408083206001600160a01b038089168552908352928190209390935560165483516318160ddd60e01b815293519216926318160ddd92600480830193928290030181865afa158015610ee8573d6000803e3d6000fd5b505050506040513d601f19601f82011682018060405250810190610f0c9190614169565b601b54600090815260236020526040902055505050600101610d69565b5050601b54949350505050565b6000610f40612941565b6001600160a01b038216610f935760405162461bcd60e51b8152602060048201526015602482015274696e76616c696420746f6b656e206164647265737360581b60448201526064015b60405180910390fd5b50601680546001600160a01b0319166001600160a01b03831617905560015b919050565b610fbf612941565b80518251146110085760405162461bcd60e51b8152602060048201526015602482015274082e4e4c2f240d8cadccee8d040dad2e6dac2e8c6d605b1b6044820152606401610f8a565b60005b82518110156110885781818151811061102657611026614182565b6020026020010151600f600085848151811061104457611044614182565b6020908102919091018101516001600160a01b0390811683529082019290925260400160002080546001600160a01b0319169290911691909117905560010161100b565b505050565b611095612941565b61109d61299c565b565b60008060005b600c54811015610bb6576000818152600e6020908152604080832054878452601e83528184206001600160a01b039182168086529352928190205460195491516322fd455760e11b81526004810182905292939092600292909116906345fa8aae90602401602060405180830381865afa158015611127573d6000803e3d6000fd5b505050506040513d601f19601f8201168201806040525081019061114b9190614098565b600381111561115c5761115c613ba3565b60ff16036111725761116f6001856140cf565b93505b50506001016110a5565b611184612941565b61118d826129fc565b60085550565b60006001601c60008282546111a891906140cf565b925050819055506000306040516111be90613932565b6001600160a01b039091168152602001604051809103906000f0801580156111ea573d6000803e3d6000fd5b50601c54600090815260286020908152604080832080546001600160a01b0319166001600160a01b038681169190911790915560165482516318160ddd60e01b8152925195965093949316926318160ddd926004808401939192918290030181865afa15801561125e573d6000803e3d6000fd5b505050506040513d601f19601f820116820180604052508101906112829190614169565b61129485670de0b6b3a7640000614128565b61129e9190614155565b601654604051632770a7eb60e21b8152336004820152602481018790529192506001600160a01b031690639dc29fac90604401600060405180830381600087803b1580156112eb57600080fd5b505af11580156112ff573d6000803e3d6000fd5b5050505060005b600c5481101561152a576000818152600e60209081526040808320546001600160a01b03908116808552600f9093528184205460175492516370a0823160e01b81529282166004840152929392670de0b6b3a7640000929116906370a0823190602401602060405180830381865afa158015611386573d6000803e3d6000fd5b505050506040513d601f19601f820116820180604052508101906113aa9190614169565b6113b49086614128565b6113be9190614155565b905060006113cd838388612a1e565b600081815260208080526040808320869055601c80548452601e83528184206001600160a01b038981168087529185528386208790559154855260269093529281902080546001600160a01b0319163317905560175490516370a0823160e01b8152921660048301529192506370a0823190602401602060405180830381865afa15801561145f573d6000803e3d6000fd5b505050506040513d601f19601f820116820180604052508101906114839190614169565b601c5460009081526022602090815260408083206001600160a01b038089168552908352928190209390935560165483516318160ddd60e01b815293519216926318160ddd92600480830193928290030181865afa1580156114e9573d6000803e3d6000fd5b505050506040513d601f19601f8201168201806040525081019061150d9190614169565b601c54600090815260246020526040902055505050600101611306565b5050601c549392505050565b61153e612941565b6000602a544261154e9190614198565b9050600c603c61155e8184614155565b6115689190614155565b116115db5760405162461bcd60e51b815260206004820152603960248201527f596f752073686f756c642077616974206174206c6561737420313220686f757260448201527f7320616674657220746865206c617465737420757064617465000000000000006064820152608401610f8a565b60648260ff16111580156115f3575060018260ff1610155b61165b5760405162461bcd60e51b815260206004820152603360248201527f546865206e65774665652073686f756c64206265206265747765656e203120616044820152726e64203130302028302e303125202d2031252960681b6064820152608401610f8a565b50601a805460ff909216600160a81b0260ff60a81b1990921691909117905542602a55565b600061168a612941565b6001600160a01b0382166116d95760405162461bcd60e51b8152602060048201526016602482015275696e76616c696420697373756572206164647265737360501b6044820152606401610f8a565b50601980546001600160a01b0383166001600160a01b03199091161790556001919050565b611706612941565b61109d6000612d52565b60008061183160068054611723906141ab565b80601f016020809104026020016040519081016040528092919081815260200182805461174f906141ab565b801561179c5780601f106117715761010080835404028352916020019161179c565b820191906000526020600020905b81548152906001019060200180831161177f57829003601f168201915b5050505050600780546117ae906141ab565b80601f01602080910402602001604051908101604052809291908181526020018280546117da906141ab565b80156118275780601f106117fc57610100808354040283529160200191611827565b820191906000526020600020905b81548152906001019060200180831161180a57829003601f168201915b5050505050610aac565b905060006118496008543063f14bea2060e01b612dc3565b60408051808201909152600381526219d95d60ea1b602082015290915061187290829084612de8565b6118cd60405180604001604052806005815260200164706174683160d81b81525060405180604001604052806011815260200170726573756c74732c61646472657373657360781b81525083612de89092919063ffffffff16565b61192b604051806040016040528060058152602001643830ba341960d91b81525060405180604001604052806014815260200173726573756c74732c6d61726b657453686172657360601b81525083612de89092919063ffffffff16565b6119496119406003546001600160a01b031690565b82600954612e06565b9250505090565b6119598161109f565b6119b15760405162461bcd60e51b815260206004820152602360248201527f526564656d7074696f6e206f726465727320617265206e6f7420636f6d706c656044820152621d195960ea1b6064820152608401610f8a565b60008181526015602052604090205460ff1615611a105760405162461bcd60e51b815260206004820152601760248201527f526564656d7074696f6e20697320636f6d706c657465640000000000000000006044820152606401610f8a565b600081815260266020908152604080832054602890925280832054601a5491516370a0823160e01b81526001600160a01b0391821660048201819052938216949291909116906370a0823190602401602060405180830381865afa158015611a7c573d6000803e3d6000fd5b505050506040513d601f19601f82011682018060405250810190611aa09190614169565b601a546040516317ee7de960e11b81529192506001600160a01b0380851692632fdcfbd292611ad7921690879086906004016140e2565b600060405180830381600087803b158015611af157600080fd5b505af1158015611b05573d6000803e3d6000fd5b505050600094855250506015602052505060409020805460ff19166001179055565b611b2f612941565b61109d612e99565b6000611b41612941565b6001600160a01b038216611b975760405162461bcd60e51b815260206004820181905260248201527f696e76616c696420637573746f6469616e2077616c6c657420616464726573736044820152606401610f8a565b50601880546001600160a01b0383166001600160a01b03199091161790556001919050565b611bc461393f565b60008281526029602090815260409182902082516101408101845281546001600160401b03811682526001600160a01b03600160401b9091048116938201939093526001808301548416948201949094526002820154928316606082015260ff600160a01b84048116151560808301529093919260a0850192600160a81b90910490911690811115611c5857611c58613ba3565b6001811115611c6957611c69613ba3565b815260038281015460208301526004830154604083015260058301546060830152600683015460809092019160ff1690811115611ca857611ca8613ba3565b6003811115611cb957611cb9613ba3565b90525092915050565b611cca612941565b6006611cd6838261422f565b506007611088828261422f565b611ceb612941565b611cf58282612ee2565b5050565b611d0281610ad9565b611d4e5760405162461bcd60e51b815260206004820152601860248201527f4f726465727320617265206e6f7420636f6d706c6574656400000000000000006044820152606401610f8a565b60008181526014602052604090205460ff1615611da55760405162461bcd60e51b8152602060048201526015602482015274125cdcdd585b98d9481a5cc818dbdb5c1b195d1959605a1b6044820152606401610f8a565b6000818152602560205260408120546001600160a01b03169080805b600c54811015612059576000818152600e6020908152604080832054888452601d83528184206001600160a01b03918216808652935281842054601954601a54935163a377cfbf60e01b815260048101869052938316602485015293949093909291169063a377cfbf906044016040805180830381865afa158015611e4a573d6000803e3d6000fd5b505050506040513d601f19601f82011682018060405250810190611e6e91906142ee565b6000898152602760205260408082205490516370a0823160e01b81526001600160a01b0391821660048201819052939450908616906370a0823190602401602060405180830381865afa158015611ec9573d6000803e3d6000fd5b505050506040513d601f19601f82011682018060405250810190611eed9190614169565b60008b81526021602090815260408083206001600160a01b038a168452909152812054855192935091611f209083614128565b6000878152601f602052604081205491925090611f3d90836140cf565b9050611f49828c6140cf565b9a50611f55818b6140cf565b6040516317ee7de960e11b8152909a506001600160a01b03861690632fdcfbd290611f88908b90309089906004016140e2565b600060405180830381600087803b158015611fa257600080fd5b505af1158015611fb6573d6000803e3d6000fd5b505050506001600160a01b038881166000908152600f602052604090819020546017549151636e553f6560e01b815260048101889052918316602483015290911690636e553f65906044016020604051808303816000875af1158015612020573d6000803e3d6000fd5b505050506040513d601f19601f820116820180604052508101906120449190614169565b505060019097019650611dc195505050505050565b50600084815260236020526040812054908190036120ec57600061207e836064614128565b6016546040516340c10f1960e01b81526001600160a01b038881166004830152602482018490529293509116906340c10f1990604401600060405180830381600087803b1580156120ce57600080fd5b505af11580156120e2573d6000803e3d6000fd5b505050505061217c565b6000836120f98484614128565b6121039190614155565b905060006121118383614198565b6016546040516340c10f1960e01b81526001600160a01b038981166004830152602482018490529293509116906340c10f1990604401600060405180830381600087803b15801561216157600080fd5b505af1158015612175573d6000803e3d6000fd5b5050505050505b5050601b546000908152601460205260409020805460ff19166001179055505050565b60008060005b600c548110156122af576000818152600e60209081526040808320546001600160a01b0316808452601290925282205490919068056bc75e2d63100000906121ed9088614128565b6121f79190614155565b601954601a546040516308da5c3560e21b81526000600482018190526001600160a01b0392831660248301529394508392919091169063236970d4906044016040805180830381865afa158015612252573d6000803e3d6000fd5b505050506040513d601f19601f82011682018060405250810190612276919061434d565b9150915060006122868285613103565b61229090846140cf565b905061229c81886140cf565b965050600190940193506121a592505050565b5092915050565b60006122c0612941565b6001600160a01b03831661230e5760405162461bcd60e51b8152602060048201526015602482015274696e76616c696420746f6b656e206164647265737360581b6044820152606401610f8a565b50601a805460ff8316600160a01b026001600160a81b03199091166001600160a01b03851617179055600192915050565b7ff0c57e16840df040f15088dc2f81fe391c3923bec73e23a9662efc9c229c6a008054600160401b810460ff1615906001600160401b03166000811580156123845750825b90506000826001600160401b031660011480156123a05750303b155b9050811580156123ae575080155b156123cc5760405163f92ee8a960e01b815260040160405180910390fd5b845467ffffffffffffffff1916600117855583156123f657845460ff60401b1916600160401b1785555b8c601960006101000a8154816001600160a01b0302191690836001600160a01b031602179055508b601660006101000a8154816001600160a01b0302191690836001600160a01b031602179055508a601760006101000a8154816001600160a01b0302191690836001600160a01b0316021790555089601a60006101000a8154816001600160a01b0302191690836001600160a01b0316021790555088601a60146101000a81548160ff021916908360ff1602179055506124b63361312c565b6124be61313d565b601a805460ff60a81b1916600560a91b179055600280546001600160a01b0319166001600160a01b038a161790556124f5876129fc565b6008869055600a61250f670de0b6b3a76400006001614128565b6125199190614155565b6009556040805160608101909152602a80825261483c6020830139600690612541908261422f565b506040518060600160405280602e8152602001614866602e9139600790612568908261422f565b5083156125af57845460ff60401b19168555604051600181527fc7f505b2f371ae2175ee4913f4499e1f2633a7b5936321eed1cdaeb6115181d29060200160405180910390a15b50505050505050505050505050565b60008381526005602052604090205483906001600160a01b031633146126375760405162461bcd60e51b815260206004820152602860248201527f536f75726365206d75737420626520746865206f7261636c65206f6620746865604482015267081c995c5d595cdd60c21b6064820152608401610f8a565b60008181526005602052604080822080546001600160a01b03191690555182917f7cc135e0cebb02c3480ae5d74d377283180a2601f8f644edf7987b009316c63a91a26126848383612ee2565b50505050565b612692612941565b6001600160a01b0381166126bc57604051631e4fbdf760e01b815260006004820152602401610f8a565b6126c581612d52565b50565b601954601a546040516308da5c3560e21b81526000600482018190526001600160a01b039283166024830152928392839291169063236970d4906044016040805180830381865afa158015612721573d6000803e3d6000fd5b505050506040513d601f19601f82011682018060405250810190612745919061434d565b9150915060006127558287613103565b61275f90846140cf565b9050600061276d600061314d565b6001600160a01b0380881660208301528916604082015260e081018890529050600061279983896140cf565b60195460405163aa2165f160e01b81529192506000916001600160a01b039091169063aa2165f1906127cf908690600401613dc6565b6020604051808303816000875af11580156127ee573d6000803e3d6000fd5b505050506040513d601f19601f820116820180604052508101906128129190614169565b60008181526029602090815260409182902086518154928801516001600160401b039091166001600160e01b031990931692909217600160401b6001600160a01b039384160217815591860151600180840180546001600160a01b03191692841692909217909155606087015160028401805460808a0151929094166001600160a81b031990941693909317600160a01b911515919091021780835560a08801519495508794929160ff60a81b1990911690600160a81b9084908111156128db576128db613ba3565b021790555060c0820151816003015560e0820151816004015561010082015181600501556101208201518160060160006101000a81548160ff0219169083600381111561292a5761292a613ba3565b0217905550919750505050505050505b9392505050565b336129737f9016d09d72d40fdae2fd8ceac6b6234c7706214fd39c1cd1e609a0528c199300546001600160a01b031690565b6001600160a01b03161461109d5760405163118cdaa760e01b8152336004820152602401610f8a565b6129a4613204565b600080516020614894833981519152805460ff191681557f5db9ee0a495bf2e6ff9c91a7834c1ba4fdd244a5e8aa4e537bd38aeae4b073aa335b6040516001600160a01b03909116815260200160405180910390a150565b600380546001600160a01b0319166001600160a01b0392909216919091179055565b6001600160a01b038084166000908152600f6020526040808220546017549151631c20fadd60e01b8152929390811692911690631c20fadd90612a69908490309089906004016140e2565b600060405180830381600087803b158015612a8357600080fd5b505af1158015612a97573d6000803e3d6000fd5b5050604051635d043b2960e11b81526004810187905230602482018190526044820152600092506001600160a01b038416915063ba087652906064016020604051808303816000875af1158015612af2573d6000803e3d6000fd5b505050506040513d601f19601f82011682018060405250810190612b169190614169565b90506000612b24600161314d565b6001600160a01b03888116604083810182905260c084018690528883166020850152601954905163095ea7b360e01b8152921660048301526024820185905291925063095ea7b3906044016020604051808303816000875af1158015612b8e573d6000803e3d6000fd5b505050506040513d601f19601f82011682018060405250810190612bb29190614106565b5060195460405163aa2165f160e01b81526000916001600160a01b03169063aa2165f190612be4908590600401613dc6565b6020604051808303816000875af1158015612c03573d6000803e3d6000fd5b505050506040513d601f19601f82011682018060405250810190612c279190614169565b60008181526029602090815260409182902085518154928701516001600160401b039091166001600160e01b031990931692909217600160401b6001600160a01b039384160217815591850151600180840180546001600160a01b0319169284169290921790915560608601516002840180546080890151929094166001600160a81b031990941693909317600160a01b911515919091021780835560a08701519495508694929160ff60a81b1990911690600160a81b908490811115612cf057612cf0613ba3565b021790555060c0820151816003015560e0820151816004015561010082015181600501556101208201518160060160006101000a81548160ff02191690836003811115612d3f57612d3f613ba3565b0217905550919998505050505050505050565b7f9016d09d72d40fdae2fd8ceac6b6234c7706214fd39c1cd1e609a0528c19930080546001600160a01b031981166001600160a01b03848116918217845560405192169182907f8be0079c531659141344cd1fd0a4f28419497f9722a3daafe3b4186f6b6457e090600090a3505050565b612dcb6139a2565b612dd36139a2565b612ddf81868686613234565b95945050505050565b6080830151612df7908361327a565b6080830151611088908261327a565b600454600090612e178160016140cf565b600455835160408086015160808701515191516000936320214ca360e11b93612e4f9386938493923092918a91600191602401614385565b60408051601f198184030181529190526020810180516001600160e01b03166001600160e01b0319909316929092179091529050612e8f86838684613291565b9695505050505050565b612ea16133ef565b600080516020614894833981519152805460ff191660011781557f62e78cea01bee320cd4e420270b5ea74000d11b0c9f74754ebdbfc544b05a258336129de565b818160005b82518110156130e357828181518110612f0257612f02614182565b6020026020010151600d600083815260200190815260200160002060006101000a8154816001600160a01b0302191690836001600160a01b031602179055508060106000858481518110612f5857612f58614182565b60200260200101516001600160a01b03166001600160a01b0316815260200190815260200160002081905550818181518110612f9657612f96614182565b602002602001015160136000858481518110612fb457612fb4614182565b60200260200101516001600160a01b03166001600160a01b0316815260200190815260200160002081905550600c546000036130db57828181518110612ffc57612ffc614182565b6020026020010151600e600083815260200190815260200160002060006101000a8154816001600160a01b0302191690836001600160a01b0316021790555081818151811061304d5761304d614182565b60200260200101516012600085848151811061306b5761306b614182565b60200260200101516001600160a01b03166001600160a01b031681526020019081526020016000208190555080601160008584815181106130ae576130ae614182565b60200260200101516001600160a01b03166001600160a01b03168152602001908152602001600020819055505b600101612ee7565b508151600b55600c546000036130f9578151600c555b505042600a555050565b60008262ffffff1660000361311957600061293a565b61293a8262ffffff8516620f4240613420565b6131346134f4565b6126c58161353d565b6131456134f4565b61109d613545565b61315561393f565b60408051610140810182526001600160401b03421681523060208201526016546001600160a01b0390811692820192909252601a549091166060820152821515608082015260a0810160008152602001836131b15760006131bc565b68056bc75e2d631000005b68ffffffffffffffffff168152602001836131e05768056bc75e2d631000006131e3565b60005b68ffffffffffffffffff168152600060208201526040016001905292915050565b6000805160206148948339815191525460ff1661109d57604051638dfc202b60e01b815260040160405180910390fd5b61323c6139a2565b61324c8560800151610100613566565b50508284526001600160a01b03821660208501526001600160e01b031981166040850152835b949350505050565b61328782600383516135cb565b61108882826136d2565b6040516bffffffffffffffffffffffff193060601b1660208201526034810184905260009060540160408051808303601f1901815282825280516020918201206000818152600590925291812080546001600160a01b0319166001600160a01b038a1617905590925082917fb5e6e01e79f91267dc17b4e6314d5d4d03593d2ceee0fbb452b750bd70ea5af99190a2600254604051630200057560e51b81526001600160a01b0390911690634000aea090613354908890879087906004016143de565b6020604051808303816000875af1158015613373573d6000803e3d6000fd5b505050506040513d601f19601f820116820180604052508101906133979190614106565b6132725760405162461bcd60e51b815260206004820152602360248201527f756e61626c6520746f207472616e73666572416e6443616c6c20746f206f7261604482015262636c6560e81b6064820152608401610f8a565b6000805160206148948339815191525460ff161561109d5760405163d93c066560e01b815260040160405180910390fd5b600080806000198587098587029250828110838203039150508060000361345a578382816134505761345061413f565b049250505061293a565b83811061348b57604051630c740aef60e31b8152600481018790526024810186905260448101859052606401610f8a565b60008486880960026001871981018816978890046003810283188082028403028082028403028082028403028082028403028082028403029081029092039091026000889003889004909101858311909403939093029303949094049190911702949350505050565b7ff0c57e16840df040f15088dc2f81fe391c3923bec73e23a9662efc9c229c6a0054600160401b900460ff1661109d57604051631afcd79f60e31b815260040160405180910390fd5b6126926134f4565b61354d6134f4565b600080516020614894833981519152805460ff19169055565b604080518082019091526060815260006020820152613586602083614405565b156135ae57613596602083614405565b6135a1906020614198565b6135ab90836140cf565b91505b506020828101829052604080518085526000815290920101905290565b6017816001600160401b0316116135ef576126848360e0600585901b1683176136f9565b60ff816001600160401b03161161362b57613615836018611fe0600586901b16176136f9565b50612684836001600160401b038316600161371e565b61ffff816001600160401b03161161366857613652836019611fe0600586901b16176136f9565b50612684836001600160401b038316600261371e565b63ffffffff816001600160401b0316116136a75761369183601a611fe0600586901b16176136f9565b50612684836001600160401b038316600461371e565b6136bc83601b611fe0600586901b16176136f9565b50612684836001600160401b038316600861371e565b60408051808201909152606081526000602082015261293a83846000015151848551613744565b60408051808201909152606081526000602082015261293a838460000151518461382e565b604080518082019091526060815260006020820152613272848560000151518585613889565b604080518082019091526060815260006020820152825182111561376757600080fd5b602085015161377683866140cf565b11156137a9576137a9856137998760200151878661379491906140cf565b61390a565b6137a4906002614128565b61391b565b6000808651805187602083010193508088870111156137c85787860182525b505050602084015b6020841061380857805182526137e76020836140cf565b91506137f46020826140cf565b9050613801602085614198565b93506137d0565b51815160001960208690036101000a019081169019919091161790525083949350505050565b604080518082019091526060815260006020820152836020015183106138635761386384856020015160026137a49190614128565b835180516020858301018481535080850361387f576001810182525b5093949350505050565b60408051808201909152606081526000602082015260208501516138ad85846140cf565b11156138c1576138c18561379986856140cf565b600060016138d1846101006144fd565b6138db9190614198565b90508551838682010185831982511617815250805184870111156138ff5783860181525b509495945050505050565b600081831115610bd2575081610ad3565b81516139278383613566565b5061268483826136d2565b6103328061450a83390190565b604080516101408101825260008082526020820181905291810182905260608101829052608081018290529060a082019081526020016000815260200160008152602001600081526020016000600381111561399d5761399d613ba3565b905290565b6040805160a0810182526000808252602080830182905282840182905260608084018390528451808601909552845283015290608082015290565b80356001600160a01b0381168114610fb257600080fd5b600060208284031215613a0657600080fd5b61293a826139dd565b634e487b7160e01b600052604160045260246000fd5b604051601f8201601f191681016001600160401b0381118282101715613a4d57613a4d613a0f565b604052919050565b600082601f830112613a6657600080fd5b81356001600160401b03811115613a7f57613a7f613a0f565b613a92601f8201601f1916602001613a25565b818152846020838601011115613aa757600080fd5b816020850160208301376000918101602001919091529392505050565b60008060408385031215613ad757600080fd5b82356001600160401b0380821115613aee57600080fd5b613afa86838701613a55565b93506020850135915080821115613b1057600080fd5b50613b1d85828601613a55565b9150509250929050565b60005b83811015613b42578181015183820152602001613b2a565b50506000910152565b60008151808452613b63816020860160208601613b27565b601f01601f19169290920160200192915050565b60208152600061293a6020830184613b4b565b600060208284031215613b9c57600080fd5b5035919050565b634e487b7160e01b600052602160045260246000fd5b60028110613bc957613bc9613ba3565b9052565b60048110613bc957613bc9613ba3565b6001600160401b038b1681526001600160a01b038a8116602083015289811660408301528816606082015286151560808201526101408101613c2260a0830188613bb9565b8560c08301528460e083015283610100830152613c43610120830184613bcd565b9b9a5050505050505050505050565b60008060408385031215613c6557600080fd5b82359150613c75602084016139dd565b90509250929050565b60006001600160401b03821115613c9757613c97613a0f565b5060051b60200190565b600082601f830112613cb257600080fd5b81356020613cc7613cc283613c7e565b613a25565b8083825260208201915060208460051b870101935086841115613ce957600080fd5b602086015b84811015613d0c57613cff816139dd565b8352918301918301613cee565b509695505050505050565b60008060408385031215613d2a57600080fd5b82356001600160401b0380821115613d4157600080fd5b613d4d86838701613ca1565b93506020850135915080821115613d6357600080fd5b50613b1d85828601613ca1565b60008060408385031215613d8357600080fd5b613d8c836139dd565b946020939093013593505050565b803560ff81168114610fb257600080fd5b600060208284031215613dbd57600080fd5b61293a82613d9a565b81516001600160401b0316815261014081016020830151613df260208401826001600160a01b03169052565b506040830151613e0d60408401826001600160a01b03169052565b506060830151613e2860608401826001600160a01b03169052565b506080830151613e3c608084018215159052565b5060a0830151613e4f60a0840182613bb9565b5060c083015160c083015260e083015160e083015261010080840151818401525061012080840151613e8382850182613bcd565b505092915050565b600082601f830112613e9c57600080fd5b81356020613eac613cc283613c7e565b8083825260208201915060208460051b870101935086841115613ece57600080fd5b602086015b84811015613d0c5780358352918301918301613ed3565b60008060408385031215613efd57600080fd5b82356001600160401b0380821115613f1457600080fd5b613f2086838701613ca1565b93506020850135915080821115613f3657600080fd5b50613b1d85828601613e8b565b60008060408385031215613f5657600080fd5b613f5f836139dd565b9150613c7560208401613d9a565b600080600080600080600080610100898b031215613f8a57600080fd5b613f93896139dd565b9750613fa160208a016139dd565b9650613faf60408a016139dd565b9550613fbd60608a016139dd565b9450613fcb60808a01613d9a565b9350613fd960a08a016139dd565b9250613fe760c08a016139dd565b915060e089013590509295985092959890939650565b60008060006060848603121561401257600080fd5b8335925060208401356001600160401b038082111561403057600080fd5b61403c87838801613ca1565b9350604086013591508082111561405257600080fd5b5061405f86828701613e8b565b9150509250925092565b6000835161407b818460208801613b27565b83519083019061408f818360208801613b27565b01949350505050565b6000602082840312156140aa57600080fd5b81516004811061293a57600080fd5b634e487b7160e01b600052601160045260246000fd5b80820180821115610ad357610ad36140b9565b6001600160a01b039384168152919092166020820152604081019190915260600190565b60006020828403121561411857600080fd5b8151801515811461293a57600080fd5b8082028115828204841417610ad357610ad36140b9565b634e487b7160e01b600052601260045260246000fd5b6000826141645761416461413f565b500490565b60006020828403121561417b57600080fd5b5051919050565b634e487b7160e01b600052603260045260246000fd5b81810381811115610ad357610ad36140b9565b600181811c908216806141bf57607f821691505b602082108103610bd257634e487b7160e01b600052602260045260246000fd5b601f821115611088576000816000526020600020601f850160051c810160208610156142085750805b601f850160051c820191505b8181101561422757828155600101614214565b505050505050565b81516001600160401b0381111561424857614248613a0f565b61425c8161425684546141ab565b846141df565b602080601f83116001811461429157600084156142795750858301515b600019600386901b1c1916600185901b178555614227565b600085815260208120601f198616915b828110156142c0578886015182559484019460019091019084016142a1565b50858210156142de5787850151600019600388901b60f8161c191681555b5050505050600190811b01905550565b60006040828403121561430057600080fd5b604051604081016001600160401b03828210818311171561432357614323613a0f565b816040528451835260208501519150808216821461434057600080fd5b5060208201529392505050565b6000806040838503121561436057600080fd5b82519150602083015162ffffff8116811461437a57600080fd5b809150509250929050565b6001600160a01b0389811682526020820189905260408201889052861660608201526001600160e01b03198516608082015260a0810184905260c0810183905261010060e08201819052600090613c4383820185613b4b565b60018060a01b0384168152826020820152606060408201526000612ddf6060830184613b4b565b6000826144145761441461413f565b500690565b600181815b8085111561445457816000190482111561443a5761443a6140b9565b8085161561444757918102915b93841c939080029061441e565b509250929050565b60008261446b57506001610ad3565b8161447857506000610ad3565b816001811461448e5760028114614498576144b4565b6001915050610ad3565b60ff8411156144a9576144a96140b9565b50506001821b610ad3565b5060208310610133831016604e8410600b84101617156144d7575081810a610ad3565b6144e18383614419565b80600019048211156144f5576144f56140b9565b029392505050565b600061293a838361445c56fe6080604052348015600f57600080fd5b50604051610332380380610332833981016040819052602c916050565b600080546001600160a01b0319166001600160a01b0392909216919091179055607e565b600060208284031215606157600080fd5b81516001600160a01b0381168114607757600080fd5b9392505050565b6102a58061008d6000396000f3fe608060405234801561001057600080fd5b50600436106100415760003560e01c806313af4035146100465780632fdcfbd21461005b5780638da5cb5b1461006e575b600080fd5b6100596100543660046101ef565b61009d565b005b610059610069366004610211565b61010f565b600054610081906001600160a01b031681565b6040516001600160a01b03909116815260200160405180910390f35b6000546001600160a01b031633146100ed5760405162461bcd60e51b815260206004820152600e60248201526d139bdd08185d5d1a1bdc9a5e995960921b60448201526064015b60405180910390fd5b600080546001600160a01b0319166001600160a01b0392909216919091179055565b6000546001600160a01b0316331461015a5760405162461bcd60e51b815260206004820152600e60248201526d139bdd08185d5d1a1bdc9a5e995960921b60448201526064016100e4565b60405163a9059cbb60e01b81526001600160a01b0383811660048301526024820183905284169063a9059cbb906044016020604051808303816000875af11580156101a9573d6000803e3d6000fd5b505050506040513d601f19601f820116820180604052508101906101cd919061024d565b50505050565b80356001600160a01b03811681146101ea57600080fd5b919050565b60006020828403121561020157600080fd5b61020a826101d3565b9392505050565b60008060006060848603121561022657600080fd5b61022f846101d3565b925061023d602085016101d3565b9150604084013590509250925092565b60006020828403121561025f57600080fd5b8151801515811461020a57600080fdfea2646970667358221220502fe3cef5472467ba27d3f0af8cc13ea970369ac0d01284025186802306355064736f6c6343000819003368747470733a2f2f6170702e6e65786c6162732e696f2f6170692f616c6c46756e64696e6752617465733f6d756c7469706c7946756e633d31382674696d65734e656746756e643d74727565266172726179733d74727565cd5ed15c6e187e77e9aee88184c21f4f2182ab5827cb3b7e07fbedcd63f03300a264697066735822122096da27d24170513982d20fcb0efddcd61c3902653c6e3e32cad883902a04988164736f6c63430008190033","linkReferences":{}},"methodIdentifiers":{"buyRequestPayedAmountById(uint256)":"8861d235","calculateIssuanceFee(uint256)":"e19eefbe","checkIssuanceOrdersStatus(uint256)":"2343acb4","checkRedemptionOrdersStatus(uint256)":"3fac0922","coaByIssuanceNonce(uint256)":"31c99010","coaByRedemptionNonce(uint256)":"b75f4c2c","completeIssuance(uint256)":"bed45bef","completeRedemption(uint256)":"840ecba0","concatenation(string,string)":"0e329357","currentList(uint256)":"9932ba4c","custodianWallet()":"1e106e99","externalJobId()":"a8b54bd4","feeRate()":"978bbdb9","fulfillAssetsData(bytes32,address[],uint256[])":"f14bea20","getOrderInctanceById(uint256)":"a58e03af","initialize(address,address,address,address,uint8,address,address,bytes32)":"efa906c7","issuance(uint256)":"248b761e","issuanceIndexTokenPrimaryTotalSupply(uint256)":"b1dd819e","issuanceIsCompleted(uint256)":"a84ebc17","issuanceNonce()":"9dbb9c9e","issuanceRequestId(uint256,address)":"264fa8b9","issuanceRequesterByNonce(uint256)":"94674098","issuanceTokenPrimaryBalance(uint256,address)":"da65925a","issuer()":"1d143848","lastUpdateTime()":"c8f33c91","latestFeeUpdate()":"011ced5f","mockFillAssetsList(address[],uint256[])":"addc70d1","oracleList(uint256)":"239aad0d","oraclePayment()":"0c02e130","orderInstanceById(uint256)":"15e666a2","owner()":"8da5cb5b","pause()":"8456cb59","paused()":"5c975abb","redemption(uint256)":"4a1dc092","redemptionIndexTokenPrimaryTotalSupply(uint256)":"daf1c17d","redemptionIsCompleted(uint256)":"76529fdf","redemptionNonce()":"84d77bb1","redemptionRequestId(uint256,address)":"f513a718","redemptionRequesterByNonce(uint256)":"78032658","redemptionTokenPrimaryBalance(uint256,address)":"a363b9cb","renounceOwnership()":"715018a6","requestAssetsData()":"7ca58c55","sellRequestAssetAmountById(uint256)":"a87f98d2","setCustodianWallet(address)":"9cc0fb5b","setDShareAddresses(address[],address[])":"3492be94","setFeeRate(uint8)":"5177942a","setIssuer(address)":"55cc4e57","setOracleInfo(address,bytes32)":"43482fc8","setTokenAddress(address)":"26a4e8d2","setUrl(string,string)":"a73e1cbf","setUsdcAddress(address,uint8)":"eab2a711","token()":"fc0c546a","tokenCurrentListIndex(address)":"914f0cc6","tokenCurrentMarketShare(address)":"0be52713","tokenOracleListIndex(address)":"8c88c10c","tokenOracleMarketShare(address)":"4b3e0b80","totalCurrentList()":"53fd4332","totalOracleList()":"c8599ded","transferOwnership(address)":"f2fde38b","unpause()":"3f4ba83a","usdc()":"3e413bee","usdcDecimals()":"7bf42165","vault()":"fbfa77cf","wrappedDshareAddress(address)":"092755e0"},"id":16}