{"abi":[{"type":"function","name":"buyRequestPayedAmountById","inputs":[{"name":"","type":"uint256","internalType":"uint256"}],"outputs":[{"name":"","type":"uint256","internalType":"uint256"}],"stateMutability":"view"},{"type":"function","name":"calculateIssuanceFee","inputs":[{"name":"_inputAmount","type":"uint256","internalType":"uint256"}],"outputs":[{"name":"","type":"uint256","internalType":"uint256"}],"stateMutability":"view"},{"type":"function","name":"checkIssuanceOrdersStatus","inputs":[{"name":"_issuanceNonce","type":"uint256","internalType":"uint256"}],"outputs":[{"name":"","type":"bool","internalType":"bool"}],"stateMutability":"view"},{"type":"function","name":"checkRedemptionOrdersStatus","inputs":[{"name":"_redemptionNonce","type":"uint256","internalType":"uint256"}],"outputs":[{"name":"","type":"bool","internalType":"bool"}],"stateMutability":"view"},{"type":"function","name":"coaByIssuanceNonce","inputs":[{"name":"","type":"uint256","internalType":"uint256"}],"outputs":[{"name":"","type":"address","internalType":"address"}],"stateMutability":"view"},{"type":"function","name":"coaByRedemptionNonce","inputs":[{"name":"","type":"uint256","internalType":"uint256"}],"outputs":[{"name":"","type":"address","internalType":"address"}],"stateMutability":"view"},{"type":"function","name":"completeIssuance","inputs":[{"name":"_issuanceNonce","type":"uint256","internalType":"uint256"}],"outputs":[],"stateMutability":"nonpayable"},{"type":"function","name":"completeRedemption","inputs":[{"name":"_redemptionNonce","type":"uint256","internalType":"uint256"}],"outputs":[],"stateMutability":"nonpayable"},{"type":"function","name":"concatenation","inputs":[{"name":"a","type":"string","internalType":"string"},{"name":"b","type":"string","internalType":"string"}],"outputs":[{"name":"","type":"string","internalType":"string"}],"stateMutability":"pure"},{"type":"function","name":"currentList","inputs":[{"name":"","type":"uint256","internalType":"uint256"}],"outputs":[{"name":"","type":"address","internalType":"address"}],"stateMutability":"view"},{"type":"function","name":"custodianWallet","inputs":[],"outputs":[{"name":"","type":"address","internalType":"address"}],"stateMutability":"view"},{"type":"function","name":"externalJobId","inputs":[],"outputs":[{"name":"","type":"bytes32","internalType":"bytes32"}],"stateMutability":"view"},{"type":"function","name":"feeRate","inputs":[],"outputs":[{"name":"","type":"uint8","internalType":"uint8"}],"stateMutability":"view"},{"type":"function","name":"fulfillAssetsData","inputs":[{"name":"requestId","type":"bytes32","internalType":"bytes32"},{"name":"_tokens","type":"address[]","internalType":"address[]"},{"name":"_marketShares","type":"uint256[]","internalType":"uint256[]"}],"outputs":[],"stateMutability":"nonpayable"},{"type":"function","name":"getOrderInctanceById","inputs":[{"name":"id","type":"uint256","internalType":"uint256"}],"outputs":[{"name":"","type":"tuple","internalType":"struct IOrderProcessor.Order","components":[{"name":"requestTimestamp","type":"uint64","internalType":"uint64"},{"name":"recipient","type":"address","internalType":"address"},{"name":"assetToken","type":"address","internalType":"address"},{"name":"paymentToken","type":"address","internalType":"address"},{"name":"sell","type":"bool","internalType":"bool"},{"name":"orderType","type":"uint8","internalType":"enum IOrderProcessor.OrderType"},{"name":"assetTokenQuantity","type":"uint256","internalType":"uint256"},{"name":"paymentTokenQuantity","type":"uint256","internalType":"uint256"},{"name":"price","type":"uint256","internalType":"uint256"},{"name":"tif","type":"uint8","internalType":"enum IOrderProcessor.TIF"}]}],"stateMutability":"view"},{"type":"function","name":"initialize","inputs":[{"name":"_issuer","type":"address","internalType":"address"},{"name":"_token","type":"address","internalType":"address"},{"name":"_vault","type":"address","internalType":"address"},{"name":"_usdc","type":"address","internalType":"address"},{"name":"_usdcDecimals","type":"uint8","internalType":"uint8"},{"name":"_chainlinkToken","type":"address","internalType":"address"},{"name":"_oracleAddress","type":"address","internalType":"address"},{"name":"_externalJobId","type":"bytes32","internalType":"bytes32"}],"outputs":[],"stateMutability":"nonpayable"},{"type":"function","name":"issuance","inputs":[{"name":"_inputAmount","type":"uint256","internalType":"uint256"}],"outputs":[{"name":"","type":"uint256","internalType":"uint256"}],"stateMutability":"nonpayable"},{"type":"function","name":"issuanceIndexTokenPrimaryTotalSupply","inputs":[{"name":"","type":"uint256","internalType":"uint256"}],"outputs":[{"name":"","type":"uint256","internalType":"uint256"}],"stateMutability":"view"},{"type":"function","name":"issuanceIsCompleted","inputs":[{"name":"","type":"uint256","internalType":"uint256"}],"outputs":[{"name":"","type":"bool","internalType":"bool"}],"stateMutability":"view"},{"type":"function","name":"issuanceNonce","inputs":[],"outputs":[{"name":"","type":"uint256","internalType":"uint256"}],"stateMutability":"view"},{"type":"function","name":"issuanceRequestId","inputs":[{"name":"","type":"uint256","internalType":"uint256"},{"name":"","type":"address","internalType":"address"}],"outputs":[{"name":"","type":"uint256","internalType":"uint256"}],"stateMutability":"view"},{"type":"function","name":"issuanceRequesterByNonce","inputs":[{"name":"","type":"uint256","internalType":"uint256"}],"outputs":[{"name":"","type":"address","internalType":"address"}],"stateMutability":"view"},{"type":"function","name":"issuanceTokenPrimaryBalance","inputs":[{"name":"","type":"uint256","internalType":"uint256"},{"name":"","type":"address","internalType":"address"}],"outputs":[{"name":"","type":"uint256","internalType":"uint256"}],"stateMutability":"view"},{"type":"function","name":"issuer","inputs":[],"outputs":[{"name":"","type":"address","internalType":"contract IOrderProcessor"}],"stateMutability":"view"},{"type":"function","name":"lastUpdateTime","inputs":[],"outputs":[{"name":"","type":"uint256","internalType":"uint256"}],"stateMutability":"view"},{"type":"function","name":"latestFeeUpdate","inputs":[],"outputs":[{"name":"","type":"uint256","internalType":"uint256"}],"stateMutability":"view"},{"type":"function","name":"mockFillAssetsList","inputs":[{"name":"_tokens","type":"address[]","internalType":"address[]"},{"name":"_marketShares","type":"uint256[]","internalType":"uint256[]"}],"outputs":[],"stateMutability":"nonpayable"},{"type":"function","name":"oracleList","inputs":[{"name":"","type":"uint256","internalType":"uint256"}],"outputs":[{"name":"","type":"address","internalType":"address"}],"stateMutability":"view"},{"type":"function","name":"oraclePayment","inputs":[],"outputs":[{"name":"","type":"uint256","internalType":"uint256"}],"stateMutability":"view"},{"type":"function","name":"orderInstanceById","inputs":[{"name":"","type":"uint256","internalType":"uint256"}],"outputs":[{"name":"requestTimestamp","type":"uint64","internalType":"uint64"},{"name":"recipient","type":"address","internalType":"address"},{"name":"assetToken","type":"address","internalType":"address"},{"name":"paymentToken","type":"address","internalType":"address"},{"name":"sell","type":"bool","internalType":"bool"},{"name":"orderType","type":"uint8","internalType":"enum IOrderProcessor.OrderType"},{"name":"assetTokenQuantity","type":"uint256","internalType":"uint256"},{"name":"paymentTokenQuantity","type":"uint256","internalType":"uint256"},{"name":"price","type":"uint256","internalType":"uint256"},{"name":"tif","type":"uint8","internalType":"enum IOrderProcessor.TIF"}],"stateMutability":"view"},{"type":"function","name":"owner","inputs":[],"outputs":[{"name":"","type":"address","internalType":"address"}],"stateMutability":"view"},{"type":"function","name":"pause","inputs":[],"outputs":[],"stateMutability":"nonpayable"},{"type":"function","name":"paused","inputs":[],"outputs":[{"name":"","type":"bool","internalType":"bool"}],"stateMutability":"view"},{"type":"function","name":"redemption","inputs":[{"name":"_inputAmount","type":"uint256","internalType":"uint256"}],"outputs":[{"name":"","type":"uint256","internalType":"uint256"}],"stateMutability":"nonpayable"},{"type":"function","name":"redemptionIndexTokenPrimaryTotalSupply","inputs":[{"name":"","type":"uint256","internalType":"uint256"}],"outputs":[{"name":"","type":"uint256","internalType":"uint256"}],"stateMutability":"view"},{"type":"function","name":"redemptionIsCompleted","inputs":[{"name":"","type":"uint256","internalType":"uint256"}],"outputs":[{"name":"","type":"bool","internalType":"bool"}],"stateMutability":"view"},{"type":"function","name":"redemptionNonce","inputs":[],"outputs":[{"name":"","type":"uint256","internalType":"uint256"}],"stateMutability":"view"},{"type":"function","name":"redemptionRequestId","inputs":[{"name":"","type":"uint256","internalType":"uint256"},{"name":"","type":"address","internalType":"address"}],"outputs":[{"name":"","type":"uint256","internalType":"uint256"}],"stateMutability":"view"},{"type":"function","name":"redemptionRequesterByNonce","inputs":[{"name":"","type":"uint256","internalType":"uint256"}],"outputs":[{"name":"","type":"address","internalType":"address"}],"stateMutability":"view"},{"type":"function","name":"redemptionTokenPrimaryBalance","inputs":[{"name":"","type":"uint256","internalType":"uint256"},{"name":"","type":"address","internalType":"address"}],"outputs":[{"name":"","type":"uint256","internalType":"uint256"}],"stateMutability":"view"},{"type":"function","name":"renounceOwnership","inputs":[],"outputs":[],"stateMutability":"nonpayable"},{"type":"function","name":"requestAssetsData","inputs":[],"outputs":[{"name":"","type":"bytes32","internalType":"bytes32"}],"stateMutability":"nonpayable"},{"type":"function","name":"sellRequestAssetAmountById","inputs":[{"name":"","type":"uint256","internalType":"uint256"}],"outputs":[{"name":"","type":"uint256","internalType":"uint256"}],"stateMutability":"view"},{"type":"function","name":"setCustodianWallet","inputs":[{"name":"_custodianWallet","type":"address","internalType":"address"}],"outputs":[{"name":"","type":"bool","internalType":"bool"}],"stateMutability":"nonpayable"},{"type":"function","name":"setFeeRate","inputs":[{"name":"_newFee","type":"uint8","internalType":"uint8"}],"outputs":[],"stateMutability":"nonpayable"},{"type":"function","name":"setIssuer","inputs":[{"name":"_issuer","type":"address","internalType":"address"}],"outputs":[{"name":"","type":"bool","internalType":"bool"}],"stateMutability":"nonpayable"},{"type":"function","name":"setOracleInfo","inputs":[{"name":"_oracleAddress","type":"address","internalType":"address"},{"name":"_externalJobId","type":"bytes32","internalType":"bytes32"}],"outputs":[],"stateMutability":"nonpayable"},{"type":"function","name":"setTokenAddress","inputs":[{"name":"_token","type":"address","internalType":"address"}],"outputs":[{"name":"","type":"bool","internalType":"bool"}],"stateMutability":"nonpayable"},{"type":"function","name":"setUrl","inputs":[{"name":"_beforeAddress","type":"string","internalType":"string"},{"name":"_afterAddress","type":"string","internalType":"string"}],"outputs":[],"stateMutability":"nonpayable"},{"type":"function","name":"setUsdcAddress","inputs":[{"name":"_usdc","type":"address","internalType":"address"},{"name":"_usdcDecimals","type":"uint8","internalType":"uint8"}],"outputs":[{"name":"","type":"bool","internalType":"bool"}],"stateMutability":"nonpayable"},{"type":"function","name":"token","inputs":[],"outputs":[{"name":"","type":"address","internalType":"contract IndexToken"}],"stateMutability":"view"},{"type":"function","name":"tokenCurrentListIndex","inputs":[{"name":"","type":"address","internalType":"address"}],"outputs":[{"name":"","type":"uint256","internalType":"uint256"}],"stateMutability":"view"},{"type":"function","name":"tokenCurrentMarketShare","inputs":[{"name":"","type":"address","internalType":"address"}],"outputs":[{"name":"","type":"uint256","internalType":"uint256"}],"stateMutability":"view"},{"type":"function","name":"tokenOracleListIndex","inputs":[{"name":"","type":"address","internalType":"address"}],"outputs":[{"name":"","type":"uint256","internalType":"uint256"}],"stateMutability":"view"},{"type":"function","name":"tokenOracleMarketShare","inputs":[{"name":"","type":"address","internalType":"address"}],"outputs":[{"name":"","type":"uint256","internalType":"uint256"}],"stateMutability":"view"},{"type":"function","name":"totalCurrentList","inputs":[],"outputs":[{"name":"","type":"uint256","internalType":"uint256"}],"stateMutability":"view"},{"type":"function","name":"totalOracleList","inputs":[],"outputs":[{"name":"","type":"uint256","internalType":"uint256"}],"stateMutability":"view"},{"type":"function","name":"transferOwnership","inputs":[{"name":"newOwner","type":"address","internalType":"address"}],"outputs":[],"stateMutability":"nonpayable"},{"type":"function","name":"unpause","inputs":[],"outputs":[],"stateMutability":"nonpayable"},{"type":"function","name":"usdc","inputs":[],"outputs":[{"name":"","type":"address","internalType":"address"}],"stateMutability":"view"},{"type":"function","name":"usdcDecimals","inputs":[],"outputs":[{"name":"","type":"uint8","internalType":"uint8"}],"stateMutability":"view"},{"type":"function","name":"vault","inputs":[],"outputs":[{"name":"","type":"address","internalType":"contract NexVault"}],"stateMutability":"view"},{"type":"event","name":"ChainlinkCancelled","inputs":[{"name":"id","type":"bytes32","indexed":true,"internalType":"bytes32"}],"anonymous":false},{"type":"event","name":"ChainlinkFulfilled","inputs":[{"name":"id","type":"bytes32","indexed":true,"internalType":"bytes32"}],"anonymous":false},{"type":"event","name":"ChainlinkRequested","inputs":[{"name":"id","type":"bytes32","indexed":true,"internalType":"bytes32"}],"anonymous":false},{"type":"event","name":"Initialized","inputs":[{"name":"version","type":"uint64","indexed":false,"internalType":"uint64"}],"anonymous":false},{"type":"event","name":"OwnershipTransferred","inputs":[{"name":"previousOwner","type":"address","indexed":true,"internalType":"address"},{"name":"newOwner","type":"address","indexed":true,"internalType":"address"}],"anonymous":false},{"type":"event","name":"Paused","inputs":[{"name":"account","type":"address","indexed":false,"internalType":"address"}],"anonymous":false},{"type":"event","name":"Unpaused","inputs":[{"name":"account","type":"address","indexed":false,"internalType":"address"}],"anonymous":false},{"type":"error","name":"EnforcedPause","inputs":[]},{"type":"error","name":"ExpectedPause","inputs":[]},{"type":"error","name":"InvalidInitialization","inputs":[]},{"type":"error","name":"NotInitializing","inputs":[]},{"type":"error","name":"OwnableInvalidOwner","inputs":[{"name":"owner","type":"address","internalType":"address"}]},{"type":"error","name":"OwnableUnauthorizedAccount","inputs":[{"name":"account","type":"address","internalType":"address"}]},{"type":"error","name":"PRBMath_MulDiv_Overflow","inputs":[{"name":"x","type":"uint256","internalType":"uint256"},{"name":"y","type":"uint256","internalType":"uint256"},{"name":"denominator","type":"uint256","internalType":"uint256"}]}],"bytecode":{"object":"0x6080604052348015600f57600080fd5b506146438061001f6000396000f3fe608060405234801561001057600080fd5b50600436106103ba5760003560e01c80638861d235116101f4578063addc70d11161011a578063e19eefbe116100ad578063f2fde38b1161007c578063f2fde38b146109f5578063f513a71814610a08578063fbfa77cf14610a33578063fc0c546a14610a4657600080fd5b8063e19eefbe146109a9578063eab2a711146109bc578063efa906c7146109cf578063f14bea20146109e257600080fd5b8063c8599ded116100e9578063c8599ded1461094e578063c8f33c9114610957578063da65925a14610960578063daf1c17d1461098957600080fd5b8063addc70d1146108df578063b1dd819e146108f2578063b75f4c2c14610912578063bed45bef1461093b57600080fd5b80639cc0fb5b11610192578063a73e1cbf11610161578063a73e1cbf14610880578063a84ebc1714610893578063a87f98d2146108b6578063a8b54bd4146108d657600080fd5b80639cc0fb5b146108195780639dbb9c9e1461082c578063a363b9cb14610835578063a58e03af1461086057600080fd5b8063914f0cc6116101ce578063914f0cc61461079357806394674098146107b3578063978bbdb9146107dc5780639932ba4c146107f057600080fd5b80638861d235146107235780638c88c10c146107435780638da5cb5b1461076357600080fd5b80633fac0922116102e4578063715018a6116102775780637ca58c55116102465780637ca58c55146106f7578063840ecba0146106ff5780638456cb591461071257806384d77bb11461071a57600080fd5b8063715018a61461067d57806376529fdf1461068557806378032658146106a85780637bf42165146106d157600080fd5b80635177942a116102b35780635177942a1461063657806353fd43321461064957806355cc4e57146106525780635c975abb1461066557600080fd5b80633fac0922146105dd57806343482fc8146105f05780634a1dc092146106035780634b3e0b801461061657600080fd5b80632343acb41161035c57806326a4e8d21161032b57806326a4e8d21461058457806331c99010146105975780633e413bee146105c05780633f4ba83a146105d357600080fd5b80632343acb4146104fa578063239aad0d1461051d578063248b761e14610546578063264fa8b91461055957600080fd5b80630e329357116103985780630e3293571461040457806315e666a2146104245780631d143848146104bc5780631e106e99146104e757600080fd5b8063011ced5f146103bf5780630be52713146103db5780630c02e130146103fb575b600080fd5b6103c860295481565b6040519081526020015b60405180910390f35b6103c86103e93660046137a7565b60116020526000908152604090205481565b6103c860095481565b610417610412366004613877565b610a59565b6040516103d2919061392a565b6104a661043236600461393d565b60286020526000908152604090208054600182015460028301546003840154600485015460058601546006909601546001600160401b038616966001600160a01b03600160401b9097048716969586169585169460ff600160a01b8204811695600160a81b9092048116949193919291168a565b6040516103d29a99989796959493929190613990565b6018546104cf906001600160a01b031681565b6040516001600160a01b0390911681526020016103d2565b6017546104cf906001600160a01b031681565b61050d61050836600461393d565b610a86565b60405190151581526020016103d2565b6104cf61052b36600461393d565b600d602052600090815260409020546001600160a01b031681565b6103c861055436600461393d565b610b85565b6103c8610567366004613a05565b601c60209081526000928352604080842090915290825290205481565b61050d6105923660046137a7565b610ee2565b6104cf6105a536600461393d565b6026602052600090815260409020546001600160a01b031681565b6019546104cf906001600160a01b031681565b6105db610f63565b005b61050d6105eb36600461393d565b610f75565b6105db6105fe366004613a31565b611052565b6103c861061136600461393d565b611069565b6103c86106243660046137a7565b60126020526000908152604090205481565b6105db610644366004613a6c565b6113fd565b6103c8600c5481565b61050d6106603660046137a7565b611547565b6000805160206145ee8339815191525460ff1661050d565b6105db6115c5565b61050d61069336600461393d565b60146020526000908152604090205460ff1681565b6104cf6106b636600461393d565b6025602052600090815260409020546001600160a01b031681565b6019546106e590600160a01b900460ff1681565b60405160ff90911681526020016103d2565b6103c86115d7565b6105db61070d36600461393d565b611817565b6105db6119ee565b6103c8601b5481565b6103c861073136600461393d565b601e6020526000908152604090205481565b6103c86107513660046137a7565b600f6020526000908152604090205481565b7f9016d09d72d40fdae2fd8ceac6b6234c7706214fd39c1cd1e609a0528c199300546001600160a01b03166104cf565b6103c86107a13660046137a7565b60106020526000908152604090205481565b6104cf6107c136600461393d565b6024602052600090815260409020546001600160a01b031681565b6019546106e590600160a81b900460ff1681565b6104cf6107fe36600461393d565b600e602052600090815260409020546001600160a01b031681565b61050d6108273660046137a7565b6119fe565b6103c8601a5481565b6103c8610843366004613a05565b602160209081526000928352604080842090915290825290205481565b61087361086e36600461393d565b611a83565b6040516103d29190613a87565b6105db61088e366004613877565b611b89565b61050d6108a136600461393d565b60136020526000908152604090205460ff1681565b6103c86108c436600461393d565b601f6020526000908152604090205481565b6103c860085481565b6105db6108ed366004613c44565b611baf565b6103c861090036600461393d565b60226020526000908152604090205481565b6104cf61092036600461393d565b6027602052600090815260409020546001600160a01b031681565b6105db61094936600461393d565b611bc5565b6103c8600b5481565b6103c8600a5481565b6103c861096e366004613a05565b60208080526000928352604080842090915290825290205481565b6103c861099736600461393d565b60236020526000908152604090205481565b6103c86109b736600461393d565b611fe3565b61050d6109ca366004613c9d565b6120fa565b6105db6109dd366004613cc7565b612183565b6105db6109f0366004613d57565b612402565b6105db610a033660046137a7565b6124ce565b6103c8610a16366004613a05565b601d60209081526000928352604080842090915290825290205481565b6016546104cf906001600160a01b031681565b6015546104cf906001600160a01b031681565b60608282604051602001610a6e929190613dc3565b60405160208183030381529060405290505b92915050565b60008060005b600c54811015610b63576000818152600e6020908152604080832054878452601c83528184206001600160a01b039182168086529352928190205460185491516322fd455760e11b81526004810182905292939092600292909116906345fa8aae90602401602060405180830381865afa158015610b0e573d6000803e3d6000fd5b505050506040513d601f19601f82011682018060405250810190610b329190613df2565b6003811115610b4357610b43613956565b60ff1603610b5957610b56600185613e29565b93505b5050600101610a8c565b50600c548103610b765750600192915050565b50600092915050565b50919050565b600080610b9183611fe3565b90506000610b9f8483613e29565b6019546040516323b872dd60e01b81529192506001600160a01b0316906323b872dd90610bd490339030908690600401613e3c565b6020604051808303816000875af1158015610bf3573d6000803e3d6000fd5b505050506040513d601f19601f82011682018060405250810190610c179190613e60565b5060195460185460405163095ea7b360e01b81526001600160a01b0391821660048201526024810184905291169063095ea7b3906044016020604051808303816000875af1158015610c6d573d6000803e3d6000fd5b505050506040513d601f19601f82011682018060405250810190610c919190613e60565b506001601a6000828254610ca59190613e29565b92505081905550600030604051610cbb906136e5565b6001600160a01b039091168152602001604051809103906000f080158015610ce7573d6000803e3d6000fd5b50601a54600090815260266020526040812080546001600160a01b0319166001600160a01b0384161790559091505b600c54811015610ed5576000818152600e60209081526040808320546001600160a01b0316808452601190925282205490919068056bc75e2d6310000090610d5e908a613e82565b610d689190613eaf565b90506000610d7783838761250c565b6000818152601e60209081526040808320869055601a80548452601c83528184206001600160a01b03898116808752918552838620879055915485526024938490529382902080546001600160a01b0319163317905560165491516370a0823160e01b81529116600482015292935090916370a082319101602060405180830381865afa158015610e0c573d6000803e3d6000fd5b505050506040513d601f19601f82011682018060405250810190610e309190613ec3565b601a546000908152602080805260408083206001600160a01b038089168552908352928190209390935560155483516318160ddd60e01b815293519216926318160ddd92600480830193928290030181865afa158015610e94573d6000803e3d6000fd5b505050506040513d601f19601f82011682018060405250810190610eb89190613ec3565b601a54600090815260226020526040902055505050600101610d16565b5050601a54949350505050565b6000610eec612785565b6001600160a01b038216610f3f5760405162461bcd60e51b8152602060048201526015602482015274696e76616c696420746f6b656e206164647265737360581b60448201526064015b60405180910390fd5b50601580546001600160a01b0319166001600160a01b03831617905560015b919050565b610f6b612785565b610f736127e0565b565b60008060005b600c54811015610b63576000818152600e6020908152604080832054878452601d83528184206001600160a01b039182168086529352928190205460185491516322fd455760e11b81526004810182905292939092600292909116906345fa8aae90602401602060405180830381865afa158015610ffd573d6000803e3d6000fd5b505050506040513d601f19601f820116820180604052508101906110219190613df2565b600381111561103257611032613956565b60ff160361104857611045600185613e29565b93505b5050600101610f7b565b61105a612785565b61106382612840565b60085550565b60006001601b600082825461107e9190613e29565b92505081905550600030604051611094906136e5565b6001600160a01b039091168152602001604051809103906000f0801580156110c0573d6000803e3d6000fd5b50601b54600090815260276020908152604080832080546001600160a01b0319166001600160a01b038681169190911790915560155482516318160ddd60e01b8152925195965093949316926318160ddd926004808401939192918290030181865afa158015611134573d6000803e3d6000fd5b505050506040513d601f19601f820116820180604052508101906111589190613ec3565b61116a85670de0b6b3a7640000613e82565b6111749190613eaf565b601554604051632770a7eb60e21b8152336004820152602481018790529192506001600160a01b031690639dc29fac90604401600060405180830381600087803b1580156111c157600080fd5b505af11580156111d5573d6000803e3d6000fd5b5050505060005b600c548110156113f1576000818152600e60205260408082205460165491516370a0823160e01b81526001600160a01b03928316600482015291169190670de0b6b3a76400009083906370a0823190602401602060405180830381865afa15801561124b573d6000803e3d6000fd5b505050506040513d601f19601f8201168201806040525081019061126f9190613ec3565b6112799086613e82565b6112839190613eaf565b90506000611292838388612862565b6000818152601f60209081526040808320869055601b80548452601d83528184206001600160a01b038981168087529185528386208790559154855260259093529281902080546001600160a01b0319163317905560165490516370a0823160e01b8152921660048301529192506370a0823190602401602060405180830381865afa158015611326573d6000803e3d6000fd5b505050506040513d601f19601f8201168201806040525081019061134a9190613ec3565b601b5460009081526021602090815260408083206001600160a01b038089168552908352928190209390935560155483516318160ddd60e01b815293519216926318160ddd92600480830193928290030181865afa1580156113b0573d6000803e3d6000fd5b505050506040513d601f19601f820116820180604052508101906113d49190613ec3565b601b546000908152602360205260409020555050506001016111dc565b5050601b549392505050565b611405612785565b6000602954426114159190613edc565b9050600c603c6114258184613eaf565b61142f9190613eaf565b116114a25760405162461bcd60e51b815260206004820152603960248201527f596f752073686f756c642077616974206174206c6561737420313220686f757260448201527f7320616674657220746865206c617465737420757064617465000000000000006064820152608401610f36565b60648260ff16111580156114ba575060018260ff1610155b6115225760405162461bcd60e51b815260206004820152603360248201527f546865206e65774665652073686f756c64206265206265747765656e203120616044820152726e64203130302028302e303125202d2031252960681b6064820152608401610f36565b506019805460ff909216600160a81b0260ff60a81b1990921691909117905542602955565b6000611551612785565b6001600160a01b0382166115a05760405162461bcd60e51b8152602060048201526016602482015275696e76616c696420697373756572206164647265737360501b6044820152606401610f36565b50601880546001600160a01b0383166001600160a01b03199091161790556001919050565b6115cd612785565b610f736000612b05565b6000806116f8600680546115ea90613eef565b80601f016020809104026020016040519081016040528092919081815260200182805461161690613eef565b80156116635780601f1061163857610100808354040283529160200191611663565b820191906000526020600020905b81548152906001019060200180831161164657829003601f168201915b50505050506007805461167590613eef565b80601f01602080910402602001604051908101604052809291908181526020018280546116a190613eef565b80156116ee5780601f106116c3576101008083540402835291602001916116ee565b820191906000526020600020905b8154815290600101906020018083116116d157829003601f168201915b5050505050610a59565b905060006117106008543063f14bea2060e01b612b76565b60408051808201909152600381526219d95d60ea1b602082015290915061173990829084612b9b565b61179460405180604001604052806005815260200164706174683160d81b81525060405180604001604052806011815260200170726573756c74732c61646472657373657360781b81525083612b9b9092919063ffffffff16565b6117f2604051806040016040528060058152602001643830ba341960d91b81525060405180604001604052806014815260200173726573756c74732c6d61726b657453686172657360601b81525083612b9b9092919063ffffffff16565b6118106118076003546001600160a01b031690565b82600954612bb9565b9250505090565b61182081610f75565b6118785760405162461bcd60e51b815260206004820152602360248201527f526564656d7074696f6e206f726465727320617265206e6f7420636f6d706c656044820152621d195960ea1b6064820152608401610f36565b60008181526014602052604090205460ff16156118d75760405162461bcd60e51b815260206004820152601760248201527f526564656d7074696f6e20697320636f6d706c657465640000000000000000006044820152606401610f36565b60008181526025602090815260408083205460279092528083205460195491516370a0823160e01b81526001600160a01b0391821660048201819052938216949291909116906370a0823190602401602060405180830381865afa158015611943573d6000803e3d6000fd5b505050506040513d601f19601f820116820180604052508101906119679190613ec3565b6019546040516317ee7de960e11b81529192506001600160a01b0380851692632fdcfbd29261199e92169087908690600401613e3c565b600060405180830381600087803b1580156119b857600080fd5b505af11580156119cc573d6000803e3d6000fd5b505050600094855250506014602052505060409020805460ff19166001179055565b6119f6612785565b610f73612c4c565b6000611a08612785565b6001600160a01b038216611a5e5760405162461bcd60e51b815260206004820181905260248201527f696e76616c696420637573746f6469616e2077616c6c657420616464726573736044820152606401610f36565b50601780546001600160a01b0383166001600160a01b03199091161790556001919050565b611a8b6136f2565b60008281526028602090815260409182902082516101408101845281546001600160401b03811682526001600160a01b03600160401b9091048116938201939093526001808301548416948201949094526002820154928316606082015260ff600160a01b84048116151560808301529093919260a0850192600160a81b90910490911690811115611b1f57611b1f613956565b6001811115611b3057611b30613956565b815260038281015460208301526004830154604083015260058301546060830152600683015460809092019160ff1690811115611b6f57611b6f613956565b6003811115611b8057611b80613956565b90525092915050565b611b91612785565b6006611b9d8382613f73565b506007611baa8282613f73565b505050565b611bb7612785565b611bc18282612c95565b5050565b611bce81610a86565b611c1a5760405162461bcd60e51b815260206004820152601860248201527f4f726465727320617265206e6f7420636f6d706c6574656400000000000000006044820152606401610f36565b60008181526013602052604090205460ff1615611c715760405162461bcd60e51b8152602060048201526015602482015274125cdcdd585b98d9481a5cc818dbdb5c1b195d1959605a1b6044820152606401610f36565b6000818152602460205260408120546001600160a01b03169080805b600c54811015611e9d576000818152600e6020908152604080832054888452601c83528184206001600160a01b03918216808652935281842054601854601954935163a377cfbf60e01b815260048101869052938316602485015293949093909291169063a377cfbf906044016040805180830381865afa158015611d16573d6000803e3d6000fd5b505050506040513d601f19601f82011682018060405250810190611d3a9190614032565b6000898152602660205260408082205490516370a0823160e01b81526001600160a01b0391821660048201819052939450908616906370a0823190602401602060405180830381865afa158015611d95573d6000803e3d6000fd5b505050506040513d601f19601f82011682018060405250810190611db99190613ec3565b60008b8152602080805260408083206001600160a01b038a168452909152812054855192935091611dea9083613e82565b6000878152601e602052604081205491925090611e079083613e29565b9050611e13828c613e29565b9a50611e1f818b613e29565b6016546040516317ee7de960e11b8152919b506001600160a01b0380881692632fdcfbd292611e57928d929116908990600401613e3c565b600060405180830381600087803b158015611e7157600080fd5b505af1158015611e85573d6000803e3d6000fd5b50506001909a019950611c8d98505050505050505050565b5060008481526022602052604081205490819003611f30576000611ec2836064613e82565b6015546040516340c10f1960e01b81526001600160a01b038881166004830152602482018490529293509116906340c10f1990604401600060405180830381600087803b158015611f1257600080fd5b505af1158015611f26573d6000803e3d6000fd5b5050505050611fc0565b600083611f3d8484613e82565b611f479190613eaf565b90506000611f558383613edc565b6015546040516340c10f1960e01b81526001600160a01b038981166004830152602482018490529293509116906340c10f1990604401600060405180830381600087803b158015611fa557600080fd5b505af1158015611fb9573d6000803e3d6000fd5b5050505050505b5050601a546000908152601360205260409020805460ff19166001179055505050565b60008060005b600c548110156120f3576000818152600e60209081526040808320546001600160a01b0316808452601190925282205490919068056bc75e2d63100000906120319088613e82565b61203b9190613eaf565b6018546019546040516308da5c3560e21b81526000600482018190526001600160a01b0392831660248301529394508392919091169063236970d4906044016040805180830381865afa158015612096573d6000803e3d6000fd5b505050506040513d601f19601f820116820180604052508101906120ba9190614091565b9150915060006120ca8285612eb6565b6120d49084613e29565b90506120e08188613e29565b96505060019094019350611fe992505050565b5092915050565b6000612104612785565b6001600160a01b0383166121525760405162461bcd60e51b8152602060048201526015602482015274696e76616c696420746f6b656e206164647265737360581b6044820152606401610f36565b506019805460ff8316600160a01b026001600160a81b03199091166001600160a01b03851617179055600192915050565b7ff0c57e16840df040f15088dc2f81fe391c3923bec73e23a9662efc9c229c6a008054600160401b810460ff1615906001600160401b03166000811580156121c85750825b90506000826001600160401b031660011480156121e45750303b155b9050811580156121f2575080155b156122105760405163f92ee8a960e01b815260040160405180910390fd5b845467ffffffffffffffff19166001178555831561223a57845460ff60401b1916600160401b1785555b8c601860006101000a8154816001600160a01b0302191690836001600160a01b031602179055508b601560006101000a8154816001600160a01b0302191690836001600160a01b031602179055508a601660006101000a8154816001600160a01b0302191690836001600160a01b0316021790555089601960006101000a8154816001600160a01b0302191690836001600160a01b0316021790555088601960146101000a81548160ff021916908360ff1602179055506122fa33612edf565b612302612ef0565b6019805460ff60a81b1916600560a91b179055600280546001600160a01b0319166001600160a01b038a1617905561233987612840565b6008869055600a612353670de0b6b3a76400006001613e82565b61235d9190613eaf565b6009556040805160608101909152602a80825261459660208301396006906123859082613f73565b506040518060600160405280602e81526020016145c0602e91396007906123ac9082613f73565b5083156123f357845460ff60401b19168555604051600181527fc7f505b2f371ae2175ee4913f4499e1f2633a7b5936321eed1cdaeb6115181d29060200160405180910390a15b50505050505050505050505050565b60008381526005602052604090205483906001600160a01b0316331461247b5760405162461bcd60e51b815260206004820152602860248201527f536f75726365206d75737420626520746865206f7261636c65206f6620746865604482015267081c995c5d595cdd60c21b6064820152608401610f36565b60008181526005602052604080822080546001600160a01b03191690555182917f7cc135e0cebb02c3480ae5d74d377283180a2601f8f644edf7987b009316c63a91a26124c88383612c95565b50505050565b6124d6612785565b6001600160a01b03811661250057604051631e4fbdf760e01b815260006004820152602401610f36565b61250981612b05565b50565b6018546019546040516308da5c3560e21b81526000600482018190526001600160a01b039283166024830152928392839291169063236970d4906044016040805180830381865afa158015612565573d6000803e3d6000fd5b505050506040513d601f19601f820116820180604052508101906125899190614091565b9150915060006125998287612eb6565b6125a39084613e29565b905060006125b16000612f00565b6001600160a01b0380881660208301528916604082015260e08101889052905060006125dd8389613e29565b60185460405163aa2165f160e01b81529192506000916001600160a01b039091169063aa2165f190612613908690600401613a87565b6020604051808303816000875af1158015612632573d6000803e3d6000fd5b505050506040513d601f19601f820116820180604052508101906126569190613ec3565b60008181526028602090815260409182902086518154928801516001600160401b039091166001600160e01b031990931692909217600160401b6001600160a01b039384160217815591860151600180840180546001600160a01b03191692841692909217909155606087015160028401805460808a0151929094166001600160a81b031990941693909317600160a01b911515919091021780835560a08801519495508794929160ff60a81b1990911690600160a81b90849081111561271f5761271f613956565b021790555060c0820151816003015560e0820151816004015561010082015181600501556101208201518160060160006101000a81548160ff0219169083600381111561276e5761276e613956565b0217905550919750505050505050505b9392505050565b336127b77f9016d09d72d40fdae2fd8ceac6b6234c7706214fd39c1cd1e609a0528c199300546001600160a01b031690565b6001600160a01b031614610f735760405163118cdaa760e01b8152336004820152602401610f36565b6127e8612fb7565b6000805160206145ee833981519152805460ff191681557f5db9ee0a495bf2e6ff9c91a7834c1ba4fdd244a5e8aa4e537bd38aeae4b073aa335b6040516001600160a01b03909116815260200160405180910390a150565b600380546001600160a01b0319166001600160a01b0392909216919091179055565b60008061286f6001612f00565b6001600160a01b0380871660408084019190915260c0830187905285821660208401526016549051631c20fadd60e01b81529293501690631c20fadd906128be90889030908990600401613e3c565b600060405180830381600087803b1580156128d857600080fd5b505af11580156128ec573d6000803e3d6000fd5b505060185460405163095ea7b360e01b81526001600160a01b03918216600482015260248101889052908816925063095ea7b391506044016020604051808303816000875af1158015612943573d6000803e3d6000fd5b505050506040513d601f19601f820116820180604052508101906129679190613e60565b5060185460405163aa2165f160e01b81526000916001600160a01b03169063aa2165f190612999908590600401613a87565b6020604051808303816000875af11580156129b8573d6000803e3d6000fd5b505050506040513d601f19601f820116820180604052508101906129dc9190613ec3565b60008181526028602090815260409182902085518154928701516001600160401b039091166001600160e01b031990931692909217600160401b6001600160a01b039384160217815591850151600180840180546001600160a01b0319169284169290921790915560608601516002840180546080890151929094166001600160a81b031990941693909317600160a01b911515919091021780835560a08701519495508694929160ff60a81b1990911690600160a81b908490811115612aa557612aa5613956565b021790555060c0820151816003015560e0820151816004015561010082015181600501556101208201518160060160006101000a81548160ff02191690836003811115612af457612af4613956565b021790555091979650505050505050565b7f9016d09d72d40fdae2fd8ceac6b6234c7706214fd39c1cd1e609a0528c19930080546001600160a01b031981166001600160a01b03848116918217845560405192169182907f8be0079c531659141344cd1fd0a4f28419497f9722a3daafe3b4186f6b6457e090600090a3505050565b612b7e613755565b612b86613755565b612b9281868686612fe7565b95945050505050565b6080830151612baa908361302d565b6080830151611baa908261302d565b600454600090612bca816001613e29565b600455835160408086015160808701515191516000936320214ca360e11b93612c029386938493923092918a916001916024016140c9565b60408051601f198184030181529190526020810180516001600160e01b03166001600160e01b0319909316929092179091529050612c4286838684613044565b9695505050505050565b612c546131a2565b6000805160206145ee833981519152805460ff191660011781557f62e78cea01bee320cd4e420270b5ea74000d11b0c9f74754ebdbfc544b05a25833612822565b818160005b8251811015612e9657828181518110612cb557612cb5614122565b6020026020010151600d600083815260200190815260200160002060006101000a8154816001600160a01b0302191690836001600160a01b0316021790555080600f6000858481518110612d0b57612d0b614122565b60200260200101516001600160a01b03166001600160a01b0316815260200190815260200160002081905550818181518110612d4957612d49614122565b602002602001015160126000858481518110612d6757612d67614122565b60200260200101516001600160a01b03166001600160a01b0316815260200190815260200160002081905550600c54600003612e8e57828181518110612daf57612daf614122565b6020026020010151600e600083815260200190815260200160002060006101000a8154816001600160a01b0302191690836001600160a01b03160217905550818181518110612e0057612e00614122565b602002602001015160116000858481518110612e1e57612e1e614122565b60200260200101516001600160a01b03166001600160a01b03168152602001908152602001600020819055508060106000858481518110612e6157612e61614122565b60200260200101516001600160a01b03166001600160a01b03168152602001908152602001600020819055505b600101612c9a565b508151600b55600c54600003612eac578151600c555b505042600a555050565b60008262ffffff16600003612ecc57600061277e565b61277e8262ffffff8516620f42406131d3565b612ee76132a7565b612509816132f0565b612ef86132a7565b610f736132f8565b612f086136f2565b60408051610140810182526001600160401b03421681523060208201526015546001600160a01b03908116928201929092526019549091166060820152821515608082015260a081016000815260200183612f64576000612f6f565b68056bc75e2d631000005b68ffffffffffffffffff16815260200183612f935768056bc75e2d63100000612f96565b60005b68ffffffffffffffffff168152600060208201526040016001905292915050565b6000805160206145ee8339815191525460ff16610f7357604051638dfc202b60e01b815260040160405180910390fd5b612fef613755565b612fff8560800151610100613319565b50508284526001600160a01b03821660208501526001600160e01b031981166040850152835b949350505050565b61303a826003835161337e565b611baa8282613485565b6040516bffffffffffffffffffffffff193060601b1660208201526034810184905260009060540160408051808303601f1901815282825280516020918201206000818152600590925291812080546001600160a01b0319166001600160a01b038a1617905590925082917fb5e6e01e79f91267dc17b4e6314d5d4d03593d2ceee0fbb452b750bd70ea5af99190a2600254604051630200057560e51b81526001600160a01b0390911690634000aea09061310790889087908790600401614138565b6020604051808303816000875af1158015613126573d6000803e3d6000fd5b505050506040513d601f19601f8201168201806040525081019061314a9190613e60565b6130255760405162461bcd60e51b815260206004820152602360248201527f756e61626c6520746f207472616e73666572416e6443616c6c20746f206f7261604482015262636c6560e81b6064820152608401610f36565b6000805160206145ee8339815191525460ff1615610f735760405163d93c066560e01b815260040160405180910390fd5b600080806000198587098587029250828110838203039150508060000361320d5783828161320357613203613e99565b049250505061277e565b83811061323e57604051630c740aef60e31b8152600481018790526024810186905260448101859052606401610f36565b60008486880960026001871981018816978890046003810283188082028403028082028403028082028403028082028403028082028403029081029092039091026000889003889004909101858311909403939093029303949094049190911702949350505050565b7ff0c57e16840df040f15088dc2f81fe391c3923bec73e23a9662efc9c229c6a0054600160401b900460ff16610f7357604051631afcd79f60e31b815260040160405180910390fd5b6124d66132a7565b6133006132a7565b6000805160206145ee833981519152805460ff19169055565b60408051808201909152606081526000602082015261333960208361415f565b156133615761334960208361415f565b613354906020613edc565b61335e9083613e29565b91505b506020828101829052604080518085526000815290920101905290565b6017816001600160401b0316116133a2576124c88360e0600585901b1683176134ac565b60ff816001600160401b0316116133de576133c8836018611fe0600586901b16176134ac565b506124c8836001600160401b03831660016134d1565b61ffff816001600160401b03161161341b57613405836019611fe0600586901b16176134ac565b506124c8836001600160401b03831660026134d1565b63ffffffff816001600160401b03161161345a5761344483601a611fe0600586901b16176134ac565b506124c8836001600160401b03831660046134d1565b61346f83601b611fe0600586901b16176134ac565b506124c8836001600160401b03831660086134d1565b60408051808201909152606081526000602082015261277e838460000151518485516134f7565b60408051808201909152606081526000602082015261277e83846000015151846135e1565b60408051808201909152606081526000602082015261302584856000015151858561363c565b604080518082019091526060815260006020820152825182111561351a57600080fd5b60208501516135298386613e29565b111561355c5761355c8561354c876020015187866135479190613e29565b6136bd565b613557906002613e82565b6136ce565b60008086518051876020830101935080888701111561357b5787860182525b505050602084015b602084106135bb578051825261359a602083613e29565b91506135a7602082613e29565b90506135b4602085613edc565b9350613583565b51815160001960208690036101000a019081169019919091161790525083949350505050565b604080518082019091526060815260006020820152836020015183106136165761361684856020015160026135579190613e82565b8351805160208583010184815350808503613632576001810182525b5093949350505050565b60408051808201909152606081526000602082015260208501516136608584613e29565b1115613674576136748561354c8685613e29565b6000600161368484610100614257565b61368e9190613edc565b90508551838682010185831982511617815250805184870111156136b25783860181525b509495945050505050565b600081831115610b7f575081610a80565b81516136da8383613319565b506124c88382613485565b6103328061426483390190565b604080516101408101825260008082526020820181905291810182905260608101829052608081018290529060a082019081526020016000815260200160008152602001600081526020016000600381111561375057613750613956565b905290565b6040805160a0810182526000808252602080830182905282840182905260608084018390528451808601909552845283015290608082015290565b80356001600160a01b0381168114610f5e57600080fd5b6000602082840312156137b957600080fd5b61277e82613790565b634e487b7160e01b600052604160045260246000fd5b604051601f8201601f191681016001600160401b0381118282101715613800576138006137c2565b604052919050565b600082601f83011261381957600080fd5b81356001600160401b03811115613832576138326137c2565b613845601f8201601f19166020016137d8565b81815284602083860101111561385a57600080fd5b816020850160208301376000918101602001919091529392505050565b6000806040838503121561388a57600080fd5b82356001600160401b03808211156138a157600080fd5b6138ad86838701613808565b935060208501359150808211156138c357600080fd5b506138d085828601613808565b9150509250929050565b60005b838110156138f55781810151838201526020016138dd565b50506000910152565b600081518084526139168160208601602086016138da565b601f01601f19169290920160200192915050565b60208152600061277e60208301846138fe565b60006020828403121561394f57600080fd5b5035919050565b634e487b7160e01b600052602160045260246000fd5b6002811061397c5761397c613956565b9052565b6004811061397c5761397c613956565b6001600160401b038b1681526001600160a01b038a81166020830152898116604083015288166060820152861515608082015261014081016139d560a083018861396c565b8560c08301528460e0830152836101008301526139f6610120830184613980565b9b9a5050505050505050505050565b60008060408385031215613a1857600080fd5b82359150613a2860208401613790565b90509250929050565b60008060408385031215613a4457600080fd5b613a4d83613790565b946020939093013593505050565b803560ff81168114610f5e57600080fd5b600060208284031215613a7e57600080fd5b61277e82613a5b565b81516001600160401b0316815261014081016020830151613ab360208401826001600160a01b03169052565b506040830151613ace60408401826001600160a01b03169052565b506060830151613ae960608401826001600160a01b03169052565b506080830151613afd608084018215159052565b5060a0830151613b1060a084018261396c565b5060c083015160c083015260e083015160e083015261010080840151818401525061012080840151613b4482850182613980565b505092915050565b60006001600160401b03821115613b6557613b656137c2565b5060051b60200190565b600082601f830112613b8057600080fd5b81356020613b95613b9083613b4c565b6137d8565b8083825260208201915060208460051b870101935086841115613bb757600080fd5b602086015b84811015613bda57613bcd81613790565b8352918301918301613bbc565b509695505050505050565b600082601f830112613bf657600080fd5b81356020613c06613b9083613b4c565b8083825260208201915060208460051b870101935086841115613c2857600080fd5b602086015b84811015613bda5780358352918301918301613c2d565b60008060408385031215613c5757600080fd5b82356001600160401b0380821115613c6e57600080fd5b613c7a86838701613b6f565b93506020850135915080821115613c9057600080fd5b506138d085828601613be5565b60008060408385031215613cb057600080fd5b613cb983613790565b9150613a2860208401613a5b565b600080600080600080600080610100898b031215613ce457600080fd5b613ced89613790565b9750613cfb60208a01613790565b9650613d0960408a01613790565b9550613d1760608a01613790565b9450613d2560808a01613a5b565b9350613d3360a08a01613790565b9250613d4160c08a01613790565b915060e089013590509295985092959890939650565b600080600060608486031215613d6c57600080fd5b8335925060208401356001600160401b0380821115613d8a57600080fd5b613d9687838801613b6f565b93506040860135915080821115613dac57600080fd5b50613db986828701613be5565b9150509250925092565b60008351613dd58184602088016138da565b835190830190613de98183602088016138da565b01949350505050565b600060208284031215613e0457600080fd5b81516004811061277e57600080fd5b634e487b7160e01b600052601160045260246000fd5b80820180821115610a8057610a80613e13565b6001600160a01b039384168152919092166020820152604081019190915260600190565b600060208284031215613e7257600080fd5b8151801515811461277e57600080fd5b8082028115828204841417610a8057610a80613e13565b634e487b7160e01b600052601260045260246000fd5b600082613ebe57613ebe613e99565b500490565b600060208284031215613ed557600080fd5b5051919050565b81810381811115610a8057610a80613e13565b600181811c90821680613f0357607f821691505b602082108103610b7f57634e487b7160e01b600052602260045260246000fd5b601f821115611baa576000816000526020600020601f850160051c81016020861015613f4c5750805b601f850160051c820191505b81811015613f6b57828155600101613f58565b505050505050565b81516001600160401b03811115613f8c57613f8c6137c2565b613fa081613f9a8454613eef565b84613f23565b602080601f831160018114613fd55760008415613fbd5750858301515b600019600386901b1c1916600185901b178555613f6b565b600085815260208120601f198616915b8281101561400457888601518255948401946001909101908401613fe5565b50858210156140225787850151600019600388901b60f8161c191681555b5050505050600190811b01905550565b60006040828403121561404457600080fd5b604051604081016001600160401b038282108183111715614067576140676137c2565b816040528451835260208501519150808216821461408457600080fd5b5060208201529392505050565b600080604083850312156140a457600080fd5b82519150602083015162ffffff811681146140be57600080fd5b809150509250929050565b6001600160a01b0389811682526020820189905260408201889052861660608201526001600160e01b03198516608082015260a0810184905260c0810183905261010060e082018190526000906139f6838201856138fe565b634e487b7160e01b600052603260045260246000fd5b60018060a01b0384168152826020820152606060408201526000612b9260608301846138fe565b60008261416e5761416e613e99565b500690565b600181815b808511156141ae57816000190482111561419457614194613e13565b808516156141a157918102915b93841c9390800290614178565b509250929050565b6000826141c557506001610a80565b816141d257506000610a80565b81600181146141e857600281146141f25761420e565b6001915050610a80565b60ff84111561420357614203613e13565b50506001821b610a80565b5060208310610133831016604e8410600b8410161715614231575081810a610a80565b61423b8383614173565b806000190482111561424f5761424f613e13565b029392505050565b600061277e83836141b656fe6080604052348015600f57600080fd5b50604051610332380380610332833981016040819052602c916050565b600080546001600160a01b0319166001600160a01b0392909216919091179055607e565b600060208284031215606157600080fd5b81516001600160a01b0381168114607757600080fd5b9392505050565b6102a58061008d6000396000f3fe608060405234801561001057600080fd5b50600436106100415760003560e01c806313af4035146100465780632fdcfbd21461005b5780638da5cb5b1461006e575b600080fd5b6100596100543660046101ef565b61009d565b005b610059610069366004610211565b61010f565b600054610081906001600160a01b031681565b6040516001600160a01b03909116815260200160405180910390f35b6000546001600160a01b031633146100ed5760405162461bcd60e51b815260206004820152600e60248201526d139bdd08185d5d1a1bdc9a5e995960921b60448201526064015b60405180910390fd5b600080546001600160a01b0319166001600160a01b0392909216919091179055565b6000546001600160a01b0316331461015a5760405162461bcd60e51b815260206004820152600e60248201526d139bdd08185d5d1a1bdc9a5e995960921b60448201526064016100e4565b60405163a9059cbb60e01b81526001600160a01b0383811660048301526024820183905284169063a9059cbb906044016020604051808303816000875af11580156101a9573d6000803e3d6000fd5b505050506040513d601f19601f820116820180604052508101906101cd919061024d565b50505050565b80356001600160a01b03811681146101ea57600080fd5b919050565b60006020828403121561020157600080fd5b61020a826101d3565b9392505050565b60008060006060848603121561022657600080fd5b61022f846101d3565b925061023d602085016101d3565b9150604084013590509250925092565b60006020828403121561025f57600080fd5b8151801515811461020a57600080fdfea2646970667358221220502fe3cef5472467ba27d3f0af8cc13ea970369ac0d01284025186802306355064736f6c6343000819003368747470733a2f2f6170702e6e65786c6162732e696f2f6170692f616c6c46756e64696e6752617465733f6d756c7469706c7946756e633d31382674696d65734e656746756e643d74727565266172726179733d74727565cd5ed15c6e187e77e9aee88184c21f4f2182ab5827cb3b7e07fbedcd63f03300a2646970667358221220e13c1a5080408ed1bb8401d45f64df434bcbe5e1c2baaa7ca32486a0f62a16ad64736f6c63430008190033","linkReferences":{}},"methodIdentifiers":{"buyRequestPayedAmountById(uint256)":"8861d235","calculateIssuanceFee(uint256)":"e19eefbe","checkIssuanceOrdersStatus(uint256)":"2343acb4","checkRedemptionOrdersStatus(uint256)":"3fac0922","coaByIssuanceNonce(uint256)":"31c99010","coaByRedemptionNonce(uint256)":"b75f4c2c","completeIssuance(uint256)":"bed45bef","completeRedemption(uint256)":"840ecba0","concatenation(string,string)":"0e329357","currentList(uint256)":"9932ba4c","custodianWallet()":"1e106e99","externalJobId()":"a8b54bd4","feeRate()":"978bbdb9","fulfillAssetsData(bytes32,address[],uint256[])":"f14bea20","getOrderInctanceById(uint256)":"a58e03af","initialize(address,address,address,address,uint8,address,address,bytes32)":"efa906c7","issuance(uint256)":"248b761e","issuanceIndexTokenPrimaryTotalSupply(uint256)":"b1dd819e","issuanceIsCompleted(uint256)":"a84ebc17","issuanceNonce()":"9dbb9c9e","issuanceRequestId(uint256,address)":"264fa8b9","issuanceRequesterByNonce(uint256)":"94674098","issuanceTokenPrimaryBalance(uint256,address)":"da65925a","issuer()":"1d143848","lastUpdateTime()":"c8f33c91","latestFeeUpdate()":"011ced5f","mockFillAssetsList(address[],uint256[])":"addc70d1","oracleList(uint256)":"239aad0d","oraclePayment()":"0c02e130","orderInstanceById(uint256)":"15e666a2","owner()":"8da5cb5b","pause()":"8456cb59","paused()":"5c975abb","redemption(uint256)":"4a1dc092","redemptionIndexTokenPrimaryTotalSupply(uint256)":"daf1c17d","redemptionIsCompleted(uint256)":"76529fdf","redemptionNonce()":"84d77bb1","redemptionRequestId(uint256,address)":"f513a718","redemptionRequesterByNonce(uint256)":"78032658","redemptionTokenPrimaryBalance(uint256,address)":"a363b9cb","renounceOwnership()":"715018a6","requestAssetsData()":"7ca58c55","sellRequestAssetAmountById(uint256)":"a87f98d2","setCustodianWallet(address)":"9cc0fb5b","setFeeRate(uint8)":"5177942a","setIssuer(address)":"55cc4e57","setOracleInfo(address,bytes32)":"43482fc8","setTokenAddress(address)":"26a4e8d2","setUrl(string,string)":"a73e1cbf","setUsdcAddress(address,uint8)":"eab2a711","token()":"fc0c546a","tokenCurrentListIndex(address)":"914f0cc6","tokenCurrentMarketShare(address)":"0be52713","tokenOracleListIndex(address)":"8c88c10c","tokenOracleMarketShare(address)":"4b3e0b80","totalCurrentList()":"53fd4332","totalOracleList()":"c8599ded","transferOwnership(address)":"f2fde38b","unpause()":"3f4ba83a","usdc()":"3e413bee","usdcDecimals()":"7bf42165","vault()":"fbfa77cf"},"id":16}