{"abi":[{"type":"function","name":"cancelIssuance","inputs":[{"name":"_issuanceNonce","type":"uint256","internalType":"uint256"}],"outputs":[],"stateMutability":"nonpayable"},{"type":"function","name":"cancelRedemption","inputs":[{"name":"_redemptionNonce","type":"uint256","internalType":"uint256"}],"outputs":[],"stateMutability":"nonpayable"},{"type":"function","name":"factoryStorage","inputs":[],"outputs":[{"name":"","type":"address","internalType":"contract IndexFactoryStorage"}],"stateMutability":"view"},{"type":"function","name":"initialize","inputs":[{"name":"_factoryStorage","type":"address","internalType":"address"}],"outputs":[],"stateMutability":"nonpayable"},{"type":"function","name":"issuanceIndexTokens","inputs":[{"name":"_inputAmount","type":"uint256","internalType":"uint256"}],"outputs":[{"name":"","type":"uint256","internalType":"uint256"}],"stateMutability":"nonpayable"},{"type":"function","name":"owner","inputs":[],"outputs":[{"name":"","type":"address","internalType":"address"}],"stateMutability":"view"},{"type":"function","name":"pause","inputs":[],"outputs":[],"stateMutability":"nonpayable"},{"type":"function","name":"paused","inputs":[],"outputs":[{"name":"","type":"bool","internalType":"bool"}],"stateMutability":"view"},{"type":"function","name":"redemption","inputs":[{"name":"_inputAmount","type":"uint256","internalType":"uint256"}],"outputs":[{"name":"","type":"uint256","internalType":"uint256"}],"stateMutability":"nonpayable"},{"type":"function","name":"renounceOwnership","inputs":[],"outputs":[],"stateMutability":"nonpayable"},{"type":"function","name":"setIndexFactoryStorage","inputs":[{"name":"_factoryStorage","type":"address","internalType":"address"}],"outputs":[{"name":"","type":"bool","internalType":"bool"}],"stateMutability":"nonpayable"},{"type":"function","name":"transferOwnership","inputs":[{"name":"newOwner","type":"address","internalType":"address"}],"outputs":[],"stateMutability":"nonpayable"},{"type":"function","name":"unpause","inputs":[],"outputs":[],"stateMutability":"nonpayable"},{"type":"event","name":"Initialized","inputs":[{"name":"version","type":"uint64","indexed":false,"internalType":"uint64"}],"anonymous":false},{"type":"event","name":"Issuanced","inputs":[{"name":"nonce","type":"uint256","indexed":true,"internalType":"uint256"},{"name":"user","type":"address","indexed":true,"internalType":"address"},{"name":"inputToken","type":"address","indexed":false,"internalType":"address"},{"name":"inputAmount","type":"uint256","indexed":false,"internalType":"uint256"},{"name":"outputAmount","type":"uint256","indexed":false,"internalType":"uint256"},{"name":"time","type":"uint256","indexed":false,"internalType":"uint256"}],"anonymous":false},{"type":"event","name":"OwnershipTransferred","inputs":[{"name":"previousOwner","type":"address","indexed":true,"internalType":"address"},{"name":"newOwner","type":"address","indexed":true,"internalType":"address"}],"anonymous":false},{"type":"event","name":"Paused","inputs":[{"name":"account","type":"address","indexed":false,"internalType":"address"}],"anonymous":false},{"type":"event","name":"Redemption","inputs":[{"name":"nonce","type":"uint256","indexed":true,"internalType":"uint256"},{"name":"user","type":"address","indexed":true,"internalType":"address"},{"name":"outputToken","type":"address","indexed":false,"internalType":"address"},{"name":"inputAmount","type":"uint256","indexed":false,"internalType":"uint256"},{"name":"outputAmount","type":"uint256","indexed":false,"internalType":"uint256"},{"name":"time","type":"uint256","indexed":false,"internalType":"uint256"}],"anonymous":false},{"type":"event","name":"RequestIssuance","inputs":[{"name":"nonce","type":"uint256","indexed":true,"internalType":"uint256"},{"name":"user","type":"address","indexed":true,"internalType":"address"},{"name":"inputToken","type":"address","indexed":false,"internalType":"address"},{"name":"inputAmount","type":"uint256","indexed":false,"internalType":"uint256"},{"name":"outputAmount","type":"uint256","indexed":false,"internalType":"uint256"},{"name":"time","type":"uint256","indexed":false,"internalType":"uint256"}],"anonymous":false},{"type":"event","name":"RequestRedemption","inputs":[{"name":"nonce","type":"uint256","indexed":true,"internalType":"uint256"},{"name":"user","type":"address","indexed":true,"internalType":"address"},{"name":"outputToken","type":"address","indexed":false,"internalType":"address"},{"name":"inputAmount","type":"uint256","indexed":false,"internalType":"uint256"},{"name":"outputAmount","type":"uint256","indexed":false,"internalType":"uint256"},{"name":"time","type":"uint256","indexed":false,"internalType":"uint256"}],"anonymous":false},{"type":"event","name":"Unpaused","inputs":[{"name":"account","type":"address","indexed":false,"internalType":"address"}],"anonymous":false},{"type":"error","name":"EnforcedPause","inputs":[]},{"type":"error","name":"ExpectedPause","inputs":[]},{"type":"error","name":"InvalidInitialization","inputs":[]},{"type":"error","name":"NotInitializing","inputs":[]},{"type":"error","name":"OwnableInvalidOwner","inputs":[{"name":"owner","type":"address","internalType":"address"}]},{"type":"error","name":"OwnableUnauthorizedAccount","inputs":[{"name":"account","type":"address","internalType":"address"}]}],"bytecode":{"object":"0x6080604052348015600f57600080fd5b5061400b8061001f6000396000f3fe608060405234801561001057600080fd5b50600436106100cf5760003560e01c80638456cb591161008c578063c06e1ae211610066578063c06e1ae214610191578063c4d66de8146101a4578063cc8659ae146101b7578063f2fde38b146101ca57600080fd5b80638456cb59146101565780638da5cb5b1461015e5780639219e5101461017e57600080fd5b80633f4ba83a146100d457806346d66a2c146100de5780634a1dc092146100f15780635c975abb146101175780636e3204081461013b578063715018a61461014e575b600080fd5b6100dc6101dd565b005b6100dc6100ec366004613bfe565b6101ef565b6101046100ff366004613bfe565b610cc0565b6040519081526020015b60405180910390f35b600080516020613fb68339815191525460ff165b604051901515815260200161010e565b610104610149366004613bfe565b6118f3565b6100dc612620565b6100dc612632565b610166612642565b6040516001600160a01b03909116815260200161010e565b6100dc61018c366004613bfe565b612670565b600054610166906001600160a01b031681565b6100dc6101b2366004613c2c565b61312f565b61012b6101c5366004613c2c565b613262565b6100dc6101d8366004613c2c565b6132e6565b6101e5613324565b6101ed613356565b565b60005460405163a84ebc1760e01b8152600481018390526001600160a01b039091169063a84ebc1790602401602060405180830381865afa158015610238573d6000803e3d6000fd5b505050506040513d601f19601f8201168201806040525081019061025c9190613c60565b156102a65760405162461bcd60e51b8152602060048201526015602482015274125cdcdd585b98d9481a5cc818dbdb5c1b195d1959605a1b60448201526064015b60405180910390fd5b6000805460405163128ce81360e31b8152600481018490526001600160a01b0390911690639467409890602401602060405180830381865afa1580156102f0573d6000803e3d6000fd5b505050506040513d601f19601f820116820180604052508101906103149190613c86565b9050336001600160a01b0382161461037d5760405162461bcd60e51b815260206004820152602660248201527f4f6e6c79207265717565737465722063616e2063616e63656c207468652069736044820152657375616e636560d01b606482015260840161029d565b60008060009054906101000a90046001600160a01b03166001600160a01b0316631d1438486040518163ffffffff1660e01b8152600401602060405180830381865afa1580156103d1573d6000803e3d6000fd5b505050506040513d601f19601f820116820180604052508101906103f59190613c86565b905060005b60008054906101000a90046001600160a01b03166001600160a01b03166353fd43326040518163ffffffff1660e01b8152600401602060405180830381865afa15801561044b573d6000803e3d6000fd5b505050506040513d601f19601f8201168201806040525081019061046f9190613ca3565b811015610cba576000805460405163264cae9360e21b8152600481018490526001600160a01b0390911690639932ba4c90602401602060405180830381865afa1580156104c0573d6000803e3d6000fd5b505050506040513d601f19601f820116820180604052508101906104e49190613c86565b6000805460405163264fa8b960e01b8152600481018990526001600160a01b0380851660248301529394509192169063264fa8b990604401602060405180830381865afa158015610539573d6000803e3d6000fd5b505050506040513d601f19601f8201168201806040525081019061055d9190613ca3565b600080546040516378f98eb360e11b81526004810184905292935090916001600160a01b039091169063f1f31d669060240161014060405180830381865afa1580156105ad573d6000803e3d6000fd5b505050506040513d601f19601f820116820180604052508101906105d19190613d33565b6040516322fd455760e11b8152600481018490529091506001906001600160a01b038716906345fa8aae90602401602060405180830381865afa15801561061c573d6000803e3d6000fd5b505050506040513d601f19601f820116820180604052508101906106409190613dfd565b600381111561065157610651613de7565b60ff161480156106c7575060405163187b2ed160e21b8152600481018390526001600160a01b038616906361ecbb4490602401602060405180830381865afa1580156106a1573d6000803e3d6000fd5b505050506040513d601f19601f820116820180604052508101906106c59190613ca3565b155b156107a75760008060009054906101000a90046001600160a01b03166001600160a01b031663f9b6117f6040518163ffffffff1660e01b8152600401602060405180830381865afa158015610720573d6000803e3d6000fd5b505050506040513d601f19601f820116820180604052508101906107449190613c86565b60405163514fcac760e01b8152600481018590529091506001600160a01b0382169063514fcac790602401600060405180830381600087803b15801561078957600080fd5b505af115801561079d573d6000803e3d6000fd5b5050505050610caf565b6040516322fd455760e11b8152600481018390526002906001600160a01b038716906345fa8aae90602401602060405180830381865afa1580156107ef573d6000803e3d6000fd5b505050506040513d601f19601f820116820180604052508101906108139190613dfd565b600381111561082457610824613de7565b60ff16148061089c575060405163187b2ed160e21b8152600481018390526000906001600160a01b038716906361ecbb4490602401602060405180830381865afa158015610876573d6000803e3d6000fd5b505050506040513d601f19601f8201168201806040525081019061089a9190613ca3565b115b15610caf5760405163187b2ed160e21b8152600481018390526000906001600160a01b038716906361ecbb4490602401602060405180830381865afa1580156108e9573d6000803e3d6000fd5b505050506040513d601f19601f8201168201806040525081019061090d9190613ca3565b90506000610990858360008054906101000a90046001600160a01b03166001600160a01b031663f9b6117f6040518163ffffffff1660e01b8152600401602060405180830381865afa158015610967573d6000803e3d6000fd5b505050506040513d601f19601f8201168201806040525081019061098b9190613c86565b6133b6565b60005460408051808201825260038152602081018d815291516340c1249560e11b81526004810185905290516024820152905160448201529192506001600160a01b031690638182492a90606401600060405180830381600087803b1580156109f857600080fd5b505af1158015610a0c573d6000803e3d6000fd5b5050600054604051637a6c4b7b60e01b81526001600160a01b039091169250637a6c4b7b9150610a44908c9089908690600401613e1a565b600060405180830381600087803b158015610a5e57600080fd5b505af1158015610a72573d6000803e3d6000fd5b5060019250610a7f915050565b60ff16876001600160a01b03166345fa8aae866040518263ffffffff1660e01b8152600401610ab091815260200190565b602060405180830381865afa158015610acd573d6000803e3d6000fd5b505050506040513d601f19601f82011682018060405250810190610af19190613dfd565b6003811115610b0257610b02613de7565b60ff1603610cac5760005460405163103fdae160e31b8152600481018690526001600160a01b03918216916312b6d2e6918c918991908c16906381fed70890602401602060405180830381865afa158015610b61573d6000803e3d6000fd5b505050506040513d601f19601f82011682018060405250810190610b859190613ca3565b6040518463ffffffff1660e01b8152600401610ba393929190613e1a565b600060405180830381600087803b158015610bbd57600080fd5b505af1158015610bd1573d6000803e3d6000fd5b5050505060008060009054906101000a90046001600160a01b03166001600160a01b031663f9b6117f6040518163ffffffff1660e01b8152600401602060405180830381865afa158015610c29573d6000803e3d6000fd5b505050506040513d601f19601f82011682018060405250810190610c4d9190613c86565b60405163514fcac760e01b8152600481018790529091506001600160a01b0382169063514fcac790602401600060405180830381600087803b158015610c9257600080fd5b505af1158015610ca6573d6000803e3d6000fd5b50505050505b50505b5050506001016103fa565b50505050565b60008060009054906101000a90046001600160a01b03166001600160a01b0316637851b9056040518163ffffffff1660e01b8152600401600060405180830381600087803b158015610d1157600080fd5b505af1158015610d25573d6000803e3d6000fd5b5050505060008060009054906101000a90046001600160a01b03166001600160a01b03166384d77bb16040518163ffffffff1660e01b8152600401602060405180830381865afa158015610d7d573d6000803e3d6000fd5b505050506040513d601f19601f82011682018060405250810190610da19190613ca3565b60005460405163c7003d1b60e01b815260048101839052602481018690529192506001600160a01b03169063c7003d1b90604401600060405180830381600087803b158015610def57600080fd5b505af1158015610e03573d6000803e3d6000fd5b5050505060008060009054906101000a90046001600160a01b03166001600160a01b031663fc0c546a6040518163ffffffff1660e01b8152600401602060405180830381865afa158015610e5b573d6000803e3d6000fd5b505050506040513d601f19601f82011682018060405250810190610e7f9190613c86565b90506000816001600160a01b03166318160ddd6040518163ffffffff1660e01b8152600401602060405180830381865afa158015610ec1573d6000803e3d6000fd5b505050506040513d601f19601f82011682018060405250810190610ee59190613ca3565b610ef786670de0b6b3a7640000613e4f565b610f019190613e6c565b604051632770a7eb60e21b8152336004820152602481018790529091506001600160a01b03831690639dc29fac90604401600060405180830381600087803b158015610f4c57600080fd5b505af1158015610f60573d6000803e3d6000fd5b5050600054604051636188199f60e01b815260048101879052602481018990526001600160a01b039091169250636188199f9150604401600060405180830381600087803b158015610fb157600080fd5b505af1158015610fc5573d6000803e3d6000fd5b5050505060005b60008054906101000a90046001600160a01b03166001600160a01b03166353fd43326040518163ffffffff1660e01b8152600401602060405180830381865afa15801561101d573d6000803e3d6000fd5b505050506040513d601f19601f820116820180604052508101906110419190613ca3565b811015611819576000805460405163264cae9360e21b8152600481018490526001600160a01b0390911690639932ba4c90602401602060405180830381865afa158015611092573d6000803e3d6000fd5b505050506040513d601f19601f820116820180604052508101906110b69190613c86565b6000805460405162493aaf60e51b81526001600160a01b0380851660048301529394509192670de0b6b3a76400009291169063092755e090602401602060405180830381865afa15801561110e573d6000803e3d6000fd5b505050506040513d601f19601f820116820180604052508101906111329190613c86565b6001600160a01b03166370a0823160008054906101000a90046001600160a01b03166001600160a01b031663fbfa77cf6040518163ffffffff1660e01b8152600401602060405180830381865afa158015611191573d6000803e3d6000fd5b505050506040513d601f19601f820116820180604052508101906111b59190613c86565b6040516001600160e01b031960e084901b1681526001600160a01b039091166004820152602401602060405180830381865afa1580156111f9573d6000803e3d6000fd5b505050506040513d601f19601f8201168201806040525081019061121d9190613ca3565b6112279086613e4f565b6112319190613e6c565b9050600061128b838360008054906101000a90046001600160a01b03166001600160a01b031663f9b6117f6040518163ffffffff1660e01b8152600401602060405180830381865afa158015610967573d6000803e3d6000fd5b60005460408051808201825260028152602081018b815291516340c1249560e11b81526004810185905290516024820152905160448201529192506001600160a01b031690638182492a90606401600060405180830381600087803b1580156112f357600080fd5b505af1158015611307573d6000803e3d6000fd5b5050600054604051630f156c3760e11b815260048101859052602481018690526001600160a01b039091169250631e2ad86e9150604401600060405180830381600087803b15801561135857600080fd5b505af115801561136c573d6000803e3d6000fd5b5050600054604051631c7a295960e01b81526001600160a01b039091169250631c7a295991506113a4908a9087908690600401613e1a565b600060405180830381600087803b1580156113be57600080fd5b505af11580156113d2573d6000803e3d6000fd5b505060005460405163d34ed2ab60e01b8152600481018b90523360248201526001600160a01b03909116925063d34ed2ab9150604401600060405180830381600087803b15801561142257600080fd5b505af1158015611436573d6000803e3d6000fd5b50506000805460405162493aaf60e51b81526001600160a01b0388811660048301529294509116915063092755e090602401602060405180830381865afa158015611485573d6000803e3d6000fd5b505050506040513d601f19601f820116820180604052508101906114a99190613c86565b6001600160a01b03166370a0823160008054906101000a90046001600160a01b03166001600160a01b031663fbfa77cf6040518163ffffffff1660e01b8152600401602060405180830381865afa158015611508573d6000803e3d6000fd5b505050506040513d601f19601f8201168201806040525081019061152c9190613c86565b6040516001600160e01b031960e084901b1681526001600160a01b039091166004820152602401602060405180830381865afa158015611570573d6000803e3d6000fd5b505050506040513d601f19601f820116820180604052508101906115949190613ca3565b6000805460405162493aaf60e51b81526001600160a01b0388811660048301529394509192169063092755e090602401602060405180830381865afa1580156115e1573d6000803e3d6000fd5b505050506040513d601f19601f820116820180604052508101906116059190613c86565b6001600160a01b0316634cdad506836040518263ffffffff1660e01b815260040161163291815260200190565b602060405180830381865afa15801561164f573d6000803e3d6000fd5b505050506040513d601f19601f820116820180604052508101906116739190613ca3565b6000546040516321de914f60e01b81529192506001600160a01b0316906321de914f906116a8908c9089908690600401613e1a565b600060405180830381600087803b1580156116c257600080fd5b505af11580156116d6573d6000803e3d6000fd5b505060005460408051637e062a3560e11b815290516001600160a01b039092169350636ea495df92508c91849163fc0c546a9160048083019260209291908290030181865afa15801561172d573d6000803e3d6000fd5b505050506040513d601f19601f820116820180604052508101906117519190613c86565b6001600160a01b03166318160ddd6040518163ffffffff1660e01b8152600401602060405180830381865afa15801561178e573d6000803e3d6000fd5b505050506040513d601f19601f820116820180604052508101906117b29190613ca3565b6040516001600160e01b031960e085901b16815260048101929092526024820152604401600060405180830381600087803b1580156117f057600080fd5b505af1158015611804573d6000803e3d6000fd5b505060019097019650610fcc95505050505050565b50336001600160a01b0316837f318a1eb196638838739aab2348b851e63485b8c41dacc90eaff499a0f14ce53360008054906101000a90046001600160a01b03166001600160a01b0316633e413bee6040518163ffffffff1660e01b8152600401602060405180830381865afa158015611897573d6000803e3d6000fd5b505050506040513d601f19601f820116820180604052508101906118bb9190613c86565b604080516001600160a01b039092168252602082018a905260009082015242606082015260800160405180910390a350909392505050565b60008061271060008054906101000a90046001600160a01b03166001600160a01b031663978bbdb96040518163ffffffff1660e01b8152600401602060405180830381865afa15801561194a573d6000803e3d6000fd5b505050506040513d601f19601f8201168201806040525081019061196e9190613e8e565b61197b9060ff1685613e4f565b6119859190613e6c565b600080546040516370cf77df60e11b81526004810187905292935090916001600160a01b039091169063e19eefbe90602401602060405180830381865afa1580156119d4573d6000803e3d6000fd5b505050506040513d601f19601f820116820180604052508101906119f89190613ca3565b90506000611a068583613eb1565b905060008054906101000a90046001600160a01b03166001600160a01b0316633e413bee6040518163ffffffff1660e01b8152600401602060405180830381865afa158015611a59573d6000803e3d6000fd5b505050506040513d601f19601f82011682018060405250810190611a7d9190613c86565b6001600160a01b03166323b872dd3360008054906101000a90046001600160a01b03166001600160a01b031663f9b6117f6040518163ffffffff1660e01b8152600401602060405180830381865afa158015611add573d6000803e3d6000fd5b505050506040513d601f19601f82011682018060405250810190611b019190613c86565b6040516001600160e01b031960e085901b1681526001600160a01b03928316600482015291166024820152604481018490526064016020604051808303816000875af1158015611b55573d6000803e3d6000fd5b505050506040513d601f19601f82011682018060405250810190611b799190613c60565b5060008054906101000a90046001600160a01b03166001600160a01b0316633e413bee6040518163ffffffff1660e01b8152600401602060405180830381865afa158015611bcb573d6000803e3d6000fd5b505050506040513d601f19601f82011682018060405250810190611bef9190613c86565b6001600160a01b03166323b872dd33611c06612642565b6040516001600160e01b031960e085901b1681526001600160a01b03928316600482015291166024820152604481018690526064016020604051808303816000875af1158015611c5a573d6000803e3d6000fd5b505050506040513d601f19601f82011682018060405250810190611c7e9190613c60565b506000805460408051635501c6cf60e01b815290516001600160a01b0390921692635501c6cf9260048084019382900301818387803b158015611cc057600080fd5b505af1158015611cd4573d6000803e3d6000fd5b5050505060008060009054906101000a90046001600160a01b03166001600160a01b0316639dbb9c9e6040518163ffffffff1660e01b8152600401602060405180830381865afa158015611d2c573d6000803e3d6000fd5b505050506040513d601f19601f82011682018060405250810190611d509190613ca3565b600054604051631d4a285960e31b815260048101839052602481018990529192506001600160a01b03169063ea5142c890604401600060405180830381600087803b158015611d9e57600080fd5b505af1158015611db2573d6000803e3d6000fd5b5050505060005b60008054906101000a90046001600160a01b03166001600160a01b03166353fd43326040518163ffffffff1660e01b8152600401602060405180830381865afa158015611e0a573d6000803e3d6000fd5b505050506040513d601f19601f82011682018060405250810190611e2e9190613ca3565b811015612546576000805460405163264cae9360e21b8152600481018490526001600160a01b0390911690639932ba4c90602401602060405180830381865afa158015611e7f573d6000803e3d6000fd5b505050506040513d601f19601f82011682018060405250810190611ea39190613c86565b60008054604051630be5271360e01b81526001600160a01b038085166004830152939450919268056bc75e2d6310000092911690630be5271390602401602060405180830381865afa158015611efd573d6000803e3d6000fd5b505050506040513d601f19601f82011682018060405250810190611f219190613ca3565b611f2b908b613e4f565b611f359190613e6c565b90506000611fb8838360008054906101000a90046001600160a01b03166001600160a01b031663f9b6117f6040518163ffffffff1660e01b8152600401602060405180830381865afa158015611f8f573d6000803e3d6000fd5b505050506040513d601f19601f82011682018060405250810190611fb39190613c86565b613863565b600054604080518082018252600181526020810189815291516340c1249560e11b81526004810185905290516024820152905160448201529192506001600160a01b031690638182492a90606401600060405180830381600087803b15801561202057600080fd5b505af1158015612034573d6000803e3d6000fd5b5050600054604051631a3c946160e31b815260048101859052602481018690526001600160a01b03909116925063d1e4a3089150604401600060405180830381600087803b15801561208557600080fd5b505af1158015612099573d6000803e3d6000fd5b5050600054604051631258c12960e21b81526001600160a01b03909116925063496304a491506120d190889087908690600401613e1a565b600060405180830381600087803b1580156120eb57600080fd5b505af11580156120ff573d6000803e3d6000fd5b5050600054604051636f8eaf5160e11b8152600481018990523360248201526001600160a01b03909116925063df1d5ea29150604401600060405180830381600087803b15801561214f57600080fd5b505af1158015612163573d6000803e3d6000fd5b50506000805460405162493aaf60e51b81526001600160a01b0388811660048301529294509116915063092755e090602401602060405180830381865afa1580156121b2573d6000803e3d6000fd5b505050506040513d601f19601f820116820180604052508101906121d69190613c86565b6001600160a01b03166370a0823160008054906101000a90046001600160a01b03166001600160a01b031663fbfa77cf6040518163ffffffff1660e01b8152600401602060405180830381865afa158015612235573d6000803e3d6000fd5b505050506040513d601f19601f820116820180604052508101906122599190613c86565b6040516001600160e01b031960e084901b1681526001600160a01b039091166004820152602401602060405180830381865afa15801561229d573d6000803e3d6000fd5b505050506040513d601f19601f820116820180604052508101906122c19190613ca3565b6000805460405162493aaf60e51b81526001600160a01b0388811660048301529394509192169063092755e090602401602060405180830381865afa15801561230e573d6000803e3d6000fd5b505050506040513d601f19601f820116820180604052508101906123329190613c86565b6001600160a01b0316634cdad506836040518263ffffffff1660e01b815260040161235f91815260200190565b602060405180830381865afa15801561237c573d6000803e3d6000fd5b505050506040513d601f19601f820116820180604052508101906123a09190613ca3565b600054604051639b2d6e3b60e01b81529192506001600160a01b031690639b2d6e3b906123d5908a9089908690600401613e1a565b600060405180830381600087803b1580156123ef57600080fd5b505af1158015612403573d6000803e3d6000fd5b505060005460408051637e062a3560e11b815290516001600160a01b0390921693506399f68da892508a91849163fc0c546a9160048083019260209291908290030181865afa15801561245a573d6000803e3d6000fd5b505050506040513d601f19601f8201168201806040525081019061247e9190613c86565b6001600160a01b03166318160ddd6040518163ffffffff1660e01b8152600401602060405180830381865afa1580156124bb573d6000803e3d6000fd5b505050506040513d601f19601f820116820180604052508101906124df9190613ca3565b6040516001600160e01b031960e085901b16815260048101929092526024820152604401600060405180830381600087803b15801561251d57600080fd5b505af1158015612531573d6000803e3d6000fd5b505060019097019650611db995505050505050565b50336001600160a01b0316817fb564a60b4184bee9ffdc1c0fd0588a93c23e406438195eec9857050fece55c2060008054906101000a90046001600160a01b03166001600160a01b0316633e413bee6040518163ffffffff1660e01b8152600401602060405180830381865afa1580156125c4573d6000803e3d6000fd5b505050506040513d601f19601f820116820180604052508101906125e89190613c86565b604080516001600160a01b039092168252602082018b905260009082015242606082015260800160405180910390a395945050505050565b612628613324565b6101ed6000613a50565b61263a613324565b6101ed613ac1565b7f9016d09d72d40fdae2fd8ceac6b6234c7706214fd39c1cd1e609a0528c199300546001600160a01b031690565b6000546040516376529fdf60e01b8152600481018390526001600160a01b03909116906376529fdf90602401602060405180830381865afa1580156126b9573d6000803e3d6000fd5b505050506040513d601f19601f820116820180604052508101906126dd9190613c60565b1561272a5760405162461bcd60e51b815260206004820152601760248201527f526564656d7074696f6e20697320636f6d706c65746564000000000000000000604482015260640161029d565b60008054604051630f0064cb60e31b8152600481018490526001600160a01b0390911690637803265890602401602060405180830381865afa158015612774573d6000803e3d6000fd5b505050506040513d601f19601f820116820180604052508101906127989190613c86565b9050336001600160a01b038216146128035760405162461bcd60e51b815260206004820152602860248201527f4f6e6c79207265717565737465722063616e2063616e63656c207468652072656044820152673232b6b83a34b7b760c11b606482015260840161029d565b60008060009054906101000a90046001600160a01b03166001600160a01b0316631d1438486040518163ffffffff1660e01b8152600401602060405180830381865afa158015612857573d6000803e3d6000fd5b505050506040513d601f19601f8201168201806040525081019061287b9190613c86565b905060005b60008054906101000a90046001600160a01b03166001600160a01b03166353fd43326040518163ffffffff1660e01b8152600401602060405180830381865afa1580156128d1573d6000803e3d6000fd5b505050506040513d601f19601f820116820180604052508101906128f59190613ca3565b811015610cba576000805460405163264cae9360e21b8152600481018490526001600160a01b0390911690639932ba4c90602401602060405180830381865afa158015612946573d6000803e3d6000fd5b505050506040513d601f19601f8201168201806040525081019061296a9190613c86565b60008054604051631ea274e360e31b8152600481018990526001600160a01b0380851660248301529394509192169063f513a71890604401602060405180830381865afa1580156129bf573d6000803e3d6000fd5b505050506040513d601f19601f820116820180604052508101906129e39190613ca3565b600080546040516378f98eb360e11b81526004810184905292935090916001600160a01b039091169063f1f31d669060240161014060405180830381865afa158015612a33573d6000803e3d6000fd5b505050506040513d601f19601f82011682018060405250810190612a579190613d33565b60405163069352a960e41b8152600481018490529091506000906001600160a01b038716906369352a9090602401602060405180830381865afa158015612aa2573d6000803e3d6000fd5b505050506040513d601f19601f82011682018060405250810190612ac69190613ca3565b60405163187b2ed160e21b8152600481018590526001600160a01b038816906361ecbb4490602401602060405180830381865afa158015612b0b573d6000803e3d6000fd5b505050506040513d601f19601f82011682018060405250810190612b2f9190613ca3565b612b399190613ec4565b60405163103fdae160e31b8152600481018590529091506000906001600160a01b038816906381fed70890602401602060405180830381865afa158015612b84573d6000803e3d6000fd5b505050506040513d601f19601f82011682018060405250810190612ba89190613ca3565b6040516322fd455760e11b8152600481018690529091506001906001600160a01b038916906345fa8aae90602401602060405180830381865afa158015612bf3573d6000803e3d6000fd5b505050506040513d601f19601f82011682018060405250810190612c179190613dfd565b6003811115612c2857612c28613de7565b60ff16148015612c36575081155b15612d7c5760008060009054906101000a90046001600160a01b03166001600160a01b031663f9b6117f6040518163ffffffff1660e01b8152600401602060405180830381865afa158015612c8f573d6000803e3d6000fd5b505050506040513d601f19601f82011682018060405250810190612cb39190613c86565b60405163514fcac760e01b8152600481018790529091506001600160a01b0382169063514fcac790602401600060405180830381600087803b158015612cf857600080fd5b505af1158015612d0c573d6000803e3d6000fd5b505060005460405163375432ab60e11b81526001600160a01b039091169250636ea865569150612d44908d908a908790600401613e1a565b600060405180830381600087803b158015612d5e57600080fd5b505af1158015612d72573d6000803e3d6000fd5b505050505061311e565b6040516322fd455760e11b8152600481018590526002906001600160a01b038916906345fa8aae90602401602060405180830381865afa158015612dc4573d6000803e3d6000fd5b505050506040513d601f19601f82011682018060405250810190612de89190613dfd565b6003811115612df957612df9613de7565b60ff161480612e085750600082115b1561311e576000612e65868460008054906101000a90046001600160a01b03166001600160a01b031663f9b6117f6040518163ffffffff1660e01b8152600401602060405180830381865afa158015611f8f573d6000803e3d6000fd5b6000546040805180820182526004808252602082018f815292516340c1249560e11b815290810185905290516024820152905160448201529192506001600160a01b031690638182492a90606401600060405180830381600087803b158015612ecd57600080fd5b505af1158015612ee1573d6000803e3d6000fd5b505060005460405163457e0e0f60e01b81526001600160a01b03909116925063457e0e0f9150612f19908d908a908a90600401613e1a565b600060405180830381600087803b158015612f3357600080fd5b505af1158015612f47573d6000803e3d6000fd5b5060019250612f54915050565b60ff16886001600160a01b03166345fa8aae876040518263ffffffff1660e01b8152600401612f8591815260200190565b602060405180830381865afa158015612fa2573d6000803e3d6000fd5b505050506040513d601f19601f82011682018060405250810190612fc69190613dfd565b6003811115612fd757612fd7613de7565b60ff160361311c5760005460405163375432ab60e11b81526001600160a01b0390911690636ea8655690613013908d908a908790600401613e1a565b600060405180830381600087803b15801561302d57600080fd5b505af1158015613041573d6000803e3d6000fd5b5050505060008060009054906101000a90046001600160a01b03166001600160a01b031663f9b6117f6040518163ffffffff1660e01b8152600401602060405180830381865afa158015613099573d6000803e3d6000fd5b505050506040513d601f19601f820116820180604052508101906130bd9190613c86565b60405163514fcac760e01b8152600481018890529091506001600160a01b0382169063514fcac790602401600060405180830381600087803b15801561310257600080fd5b505af1158015613116573d6000803e3d6000fd5b50505050505b505b505060019093019250612880915050565b7ff0c57e16840df040f15088dc2f81fe391c3923bec73e23a9662efc9c229c6a008054600160401b810460ff16159067ffffffffffffffff166000811580156131755750825b905060008267ffffffffffffffff1660011480156131925750303b155b9050811580156131a0575080155b156131be5760405163f92ee8a960e01b815260040160405180910390fd5b845467ffffffffffffffff1916600117855583156131e857845460ff60401b1916600160401b1785555b600080546001600160a01b0319166001600160a01b03881617905561320c33613b0a565b613214613b1b565b831561325a57845460ff60401b19168555604051600181527fc7f505b2f371ae2175ee4913f4499e1f2633a7b5936321eed1cdaeb6115181d29060200160405180910390a15b505050505050565b600061326c613324565b6001600160a01b0382166132c25760405162461bcd60e51b815260206004820152601f60248201527f696e76616c696420666163746f72792073746f72616765206164647265737300604482015260640161029d565b50600080546001600160a01b0319166001600160a01b03831617905560015b919050565b6132ee613324565b6001600160a01b03811661331857604051631e4fbdf760e01b81526000600482015260240161029d565b61332181613a50565b50565b3361332d612642565b6001600160a01b0316146101ed5760405163118cdaa760e01b815233600482015260240161029d565b61335e613b2b565b600080516020613fb6833981519152805460ff191681557f5db9ee0a495bf2e6ff9c91a7834c1ba4fdd244a5e8aa4e537bd38aeae4b073aa335b6040516001600160a01b03909116815260200160405180910390a150565b6000805460405162493aaf60e51b81526001600160a01b0386811660048301528392169063092755e090602401602060405180830381865afa158015613400573d6000803e3d6000fd5b505050506040513d601f19601f820116820180604052508101906134249190613c86565b905060008054906101000a90046001600160a01b03166001600160a01b031663fbfa77cf6040518163ffffffff1660e01b8152600401602060405180830381865afa158015613477573d6000803e3d6000fd5b505050506040513d601f19601f8201168201806040525081019061349b9190613c86565b604051631c20fadd60e01b81526001600160a01b038381166004830152306024830152604482018790529190911690631c20fadd90606401600060405180830381600087803b1580156134ed57600080fd5b505af1158015613501573d6000803e3d6000fd5b5050604051635d043b2960e11b81526004810187905230602482018190526044820152600092506001600160a01b038416915063ba087652906064016020604051808303816000875af115801561355c573d6000803e3d6000fd5b505050506040513d601f19601f820116820180604052508101906135809190613ca3565b600080546040516358913cd560e11b81526001600482015292935090916001600160a01b039091169063b12279aa9060240161014060405180830381865afa1580156135d0573d6000803e3d6000fd5b505050506040513d601f19601f820116820180604052508101906135f49190613d33565b6001600160a01b03808916604080840182905260c08401869052888316602080860191909152600054825163f9b6117f60e01b81529251959650929463a9059cbb94939093169263f9b6117f9260048082019392918290030181865afa158015613662573d6000803e3d6000fd5b505050506040513d601f19601f820116820180604052508101906136869190613c86565b6040516001600160e01b031960e084901b1681526001600160a01b039091166004820152602481018590526044016020604051808303816000875af11580156136d3573d6000803e3d6000fd5b505050506040513d601f19601f820116820180604052508101906136f79190613c60565b5060008060009054906101000a90046001600160a01b03166001600160a01b031663f9b6117f6040518163ffffffff1660e01b8152600401602060405180830381865afa15801561374c573d6000803e3d6000fd5b505050506040513d601f19601f820116820180604052508101906137709190613c86565b6040516319b284d160e21b81526001600160a01b038a811660048301526024820186905288811660448301529192506000918316906366ca1344906064016020604051808303816000875af11580156137cd573d6000803e3d6000fd5b505050506040513d601f19601f820116820180604052508101906137f19190613ca3565b600054604051630d71448160e21b81529192506001600160a01b0316906335c51204906138249084908790600401613efb565b600060405180830381600087803b15801561383e57600080fd5b505af1158015613852573d6000803e3d6000fd5b50929b9a5050505050505050505050565b600080546040516358913cd560e11b81526004810183905282916001600160a01b03169063b12279aa9060240161014060405180830381865afa1580156138ae573d6000803e3d6000fd5b505050506040513d601f19601f820116820180604052508101906138d29190613d33565b6001600160a01b0380851660208084019190915287821660408085019190915260e0840188905260008054825163f9b6117f60e01b81529251959650909493169263f9b6117f926004808401939192918290030181865afa15801561393b573d6000803e3d6000fd5b505050506040513d601f19601f8201168201806040525081019061395f9190613c86565b6040516312544d1b60e01b81526001600160a01b0388811660048301526024820188905286811660448301529192506000918316906312544d1b906064016020604051808303816000875af11580156139bc573d6000803e3d6000fd5b505050506040513d601f19601f820116820180604052508101906139e09190613ca3565b600054604051630d71448160e21b81529192506001600160a01b0316906335c5120490613a139084908790600401613efb565b600060405180830381600087803b158015613a2d57600080fd5b505af1158015613a41573d6000803e3d6000fd5b50929998505050505050505050565b7f9016d09d72d40fdae2fd8ceac6b6234c7706214fd39c1cd1e609a0528c19930080546001600160a01b031981166001600160a01b03848116918217845560405192169182907f8be0079c531659141344cd1fd0a4f28419497f9722a3daafe3b4186f6b6457e090600090a3505050565b613ac9613b5b565b600080516020613fb6833981519152805460ff191660011781557f62e78cea01bee320cd4e420270b5ea74000d11b0c9f74754ebdbfc544b05a25833613398565b613b12613b8c565b61332181613bd5565b613b23613b8c565b6101ed613bdd565b600080516020613fb68339815191525460ff166101ed57604051638dfc202b60e01b815260040160405180910390fd5b600080516020613fb68339815191525460ff16156101ed5760405163d93c066560e01b815260040160405180910390fd5b7ff0c57e16840df040f15088dc2f81fe391c3923bec73e23a9662efc9c229c6a0054600160401b900460ff166101ed57604051631afcd79f60e31b815260040160405180910390fd5b6132ee613b8c565b613be5613b8c565b600080516020613fb6833981519152805460ff19169055565b600060208284031215613c1057600080fd5b5035919050565b6001600160a01b038116811461332157600080fd5b600060208284031215613c3e57600080fd5b8135613c4981613c17565b9392505050565b805180151581146132e157600080fd5b600060208284031215613c7257600080fd5b613c4982613c50565b80516132e181613c17565b600060208284031215613c9857600080fd5b8151613c4981613c17565b600060208284031215613cb557600080fd5b5051919050565b604051610140810167ffffffffffffffff81118282101715613cee57634e487b7160e01b600052604160045260246000fd5b60405290565b805167ffffffffffffffff811681146132e157600080fd5b8051600281106132e157600080fd5b6004811061332157600080fd5b80516132e181613d1b565b60006101408284031215613d4657600080fd5b613d4e613cbc565b613d5783613cf4565b8152613d6560208401613c7b565b6020820152613d7660408401613c7b565b6040820152613d8760608401613c7b565b6060820152613d9860808401613c50565b6080820152613da960a08401613d0c565b60a082015260c083015160c082015260e083015160e0820152610100808401518183015250610120613ddc818501613d28565b908201529392505050565b634e487b7160e01b600052602160045260246000fd5b600060208284031215613e0f57600080fd5b8151613c4981613d1b565b9283526001600160a01b03919091166020830152604082015260600190565b634e487b7160e01b600052601160045260246000fd5b8082028115828204841417613e6657613e66613e39565b92915050565b600082613e8957634e487b7160e01b600052601260045260246000fd5b500490565b600060208284031215613ea057600080fd5b815160ff81168114613c4957600080fd5b80820180821115613e6657613e66613e39565b81810381811115613e6657613e66613e39565b60028110613ee757613ee7613de7565b9052565b60048110613ee757613ee7613de7565b828152815167ffffffffffffffff166020820152610160810160208301516001600160a01b03811660408401525060408301516001600160a01b03811660608401525060608301516001600160a01b038116608084015250608083015180151560a08401525060a0830151613f7360c0840182613ed7565b5060c083015160e0838101919091528301516101008084019190915283015161012080840191909152830151613fad610140840182613eeb565b50939250505056fecd5ed15c6e187e77e9aee88184c21f4f2182ab5827cb3b7e07fbedcd63f03300a2646970667358221220a1538cf94be0f199be92a7a7f0c0d3908da7e9ec1986e6ee7d77b6687bd5099a64736f6c63430008190033","linkReferences":{}},"methodIdentifiers":{"cancelIssuance(uint256)":"46d66a2c","cancelRedemption(uint256)":"9219e510","factoryStorage()":"c06e1ae2","initialize(address)":"c4d66de8","issuanceIndexTokens(uint256)":"6e320408","owner()":"8da5cb5b","pause()":"8456cb59","paused()":"5c975abb","redemption(uint256)":"4a1dc092","renounceOwnership()":"715018a6","setIndexFactoryStorage(address)":"cc8659ae","transferOwnership(address)":"f2fde38b","unpause()":"3f4ba83a"},"id":16}