{"abi":[{"type":"function","name":"cancelIssuance","inputs":[{"name":"_issuanceNonce","type":"uint256","internalType":"uint256"}],"outputs":[],"stateMutability":"nonpayable"},{"type":"function","name":"cancelRedemption","inputs":[{"name":"_redemptionNonce","type":"uint256","internalType":"uint256"}],"outputs":[],"stateMutability":"nonpayable"},{"type":"function","name":"factoryStorage","inputs":[],"outputs":[{"name":"","type":"address","internalType":"contract IndexFactoryStorage"}],"stateMutability":"view"},{"type":"function","name":"initialize","inputs":[{"name":"_factoryStorage","type":"address","internalType":"address"}],"outputs":[],"stateMutability":"nonpayable"},{"type":"function","name":"issuanceIndexTokens","inputs":[{"name":"_inputAmount","type":"uint256","internalType":"uint256"}],"outputs":[{"name":"","type":"uint256","internalType":"uint256"}],"stateMutability":"nonpayable"},{"type":"function","name":"owner","inputs":[],"outputs":[{"name":"","type":"address","internalType":"address"}],"stateMutability":"view"},{"type":"function","name":"pause","inputs":[],"outputs":[],"stateMutability":"nonpayable"},{"type":"function","name":"paused","inputs":[],"outputs":[{"name":"","type":"bool","internalType":"bool"}],"stateMutability":"view"},{"type":"function","name":"redemption","inputs":[{"name":"_inputAmount","type":"uint256","internalType":"uint256"}],"outputs":[{"name":"","type":"uint256","internalType":"uint256"}],"stateMutability":"nonpayable"},{"type":"function","name":"renounceOwnership","inputs":[],"outputs":[],"stateMutability":"nonpayable"},{"type":"function","name":"setIndexFactoryStorage","inputs":[{"name":"_factoryStorage","type":"address","internalType":"address"}],"outputs":[{"name":"","type":"bool","internalType":"bool"}],"stateMutability":"nonpayable"},{"type":"function","name":"transferOwnership","inputs":[{"name":"newOwner","type":"address","internalType":"address"}],"outputs":[],"stateMutability":"nonpayable"},{"type":"function","name":"unpause","inputs":[],"outputs":[],"stateMutability":"nonpayable"},{"type":"event","name":"Initialized","inputs":[{"name":"version","type":"uint64","indexed":false,"internalType":"uint64"}],"anonymous":false},{"type":"event","name":"Issuanced","inputs":[{"name":"nonce","type":"uint256","indexed":true,"internalType":"uint256"},{"name":"user","type":"address","indexed":true,"internalType":"address"},{"name":"inputToken","type":"address","indexed":false,"internalType":"address"},{"name":"inputAmount","type":"uint256","indexed":false,"internalType":"uint256"},{"name":"outputAmount","type":"uint256","indexed":false,"internalType":"uint256"},{"name":"time","type":"uint256","indexed":false,"internalType":"uint256"}],"anonymous":false},{"type":"event","name":"OwnershipTransferred","inputs":[{"name":"previousOwner","type":"address","indexed":true,"internalType":"address"},{"name":"newOwner","type":"address","indexed":true,"internalType":"address"}],"anonymous":false},{"type":"event","name":"Paused","inputs":[{"name":"account","type":"address","indexed":false,"internalType":"address"}],"anonymous":false},{"type":"event","name":"Redemption","inputs":[{"name":"nonce","type":"uint256","indexed":true,"internalType":"uint256"},{"name":"user","type":"address","indexed":true,"internalType":"address"},{"name":"outputToken","type":"address","indexed":false,"internalType":"address"},{"name":"inputAmount","type":"uint256","indexed":false,"internalType":"uint256"},{"name":"outputAmount","type":"uint256","indexed":false,"internalType":"uint256"},{"name":"time","type":"uint256","indexed":false,"internalType":"uint256"}],"anonymous":false},{"type":"event","name":"RequestCancelIssuance","inputs":[{"name":"nonce","type":"uint256","indexed":true,"internalType":"uint256"},{"name":"user","type":"address","indexed":true,"internalType":"address"},{"name":"inputToken","type":"address","indexed":false,"internalType":"address"},{"name":"inputAmount","type":"uint256","indexed":false,"internalType":"uint256"},{"name":"outputAmount","type":"uint256","indexed":false,"internalType":"uint256"},{"name":"time","type":"uint256","indexed":false,"internalType":"uint256"}],"anonymous":false},{"type":"event","name":"RequestCancelRedemption","inputs":[{"name":"nonce","type":"uint256","indexed":true,"internalType":"uint256"},{"name":"user","type":"address","indexed":true,"internalType":"address"},{"name":"outputToken","type":"address","indexed":false,"internalType":"address"},{"name":"inputAmount","type":"uint256","indexed":false,"internalType":"uint256"},{"name":"outputAmount","type":"uint256","indexed":false,"internalType":"uint256"},{"name":"time","type":"uint256","indexed":false,"internalType":"uint256"}],"anonymous":false},{"type":"event","name":"RequestIssuance","inputs":[{"name":"nonce","type":"uint256","indexed":true,"internalType":"uint256"},{"name":"user","type":"address","indexed":true,"internalType":"address"},{"name":"inputToken","type":"address","indexed":false,"internalType":"address"},{"name":"inputAmount","type":"uint256","indexed":false,"internalType":"uint256"},{"name":"outputAmount","type":"uint256","indexed":false,"internalType":"uint256"},{"name":"time","type":"uint256","indexed":false,"internalType":"uint256"}],"anonymous":false},{"type":"event","name":"RequestRedemption","inputs":[{"name":"nonce","type":"uint256","indexed":true,"internalType":"uint256"},{"name":"user","type":"address","indexed":true,"internalType":"address"},{"name":"outputToken","type":"address","indexed":false,"internalType":"address"},{"name":"inputAmount","type":"uint256","indexed":false,"internalType":"uint256"},{"name":"outputAmount","type":"uint256","indexed":false,"internalType":"uint256"},{"name":"time","type":"uint256","indexed":false,"internalType":"uint256"}],"anonymous":false},{"type":"event","name":"Unpaused","inputs":[{"name":"account","type":"address","indexed":false,"internalType":"address"}],"anonymous":false},{"type":"error","name":"EnforcedPause","inputs":[]},{"type":"error","name":"ExpectedPause","inputs":[]},{"type":"error","name":"InvalidInitialization","inputs":[]},{"type":"error","name":"NotInitializing","inputs":[]},{"type":"error","name":"OwnableInvalidOwner","inputs":[{"name":"owner","type":"address","internalType":"address"}]},{"type":"error","name":"OwnableUnauthorizedAccount","inputs":[{"name":"account","type":"address","internalType":"address"}]}],"bytecode":{"object":"0x6080604052348015600f57600080fd5b50616cdc8061001f6000396000f3fe608060405234801561001057600080fd5b50600436106100cf5760003560e01c80638456cb591161008c578063c06e1ae211610066578063c06e1ae2146101c6578063c4d66de8146101e4578063cc8659ae14610200578063f2fde38b14610230576100cf565b80638456cb59146101825780638da5cb5b1461018c5780639219e510146101aa576100cf565b80633f4ba83a146100d457806346d66a2c146100de5780634a1dc092146100fa5780635c975abb1461012a5780636e32040814610148578063715018a614610178575b600080fd5b6100dc61024c565b005b6100f860048036038101906100f39190615a16565b61025e565b005b610114600480360381019061010f9190615a16565b6112ed565b6040516101219190615a52565b60405180910390f35b610132611dd8565b60405161013f9190615a88565b60405180910390f35b610162600480360381019061015d9190615a16565b611dfd565b60405161016f9190615a52565b60405180910390f35b610180612f2f565b005b61018a612f43565b005b610194612f55565b6040516101a19190615ae4565b60405180910390f35b6101c460048036038101906101bf9190615a16565b612f8d565b005b6101ce613b4a565b6040516101db9190615b5e565b60405180910390f35b6101fe60048036038101906101f99190615ba5565b613b6e565b005b61021a60048036038101906102159190615ba5565b613db4565b6040516102279190615a88565b60405180910390f35b61024a60048036038101906102459190615ba5565b613e76565b005b610254613efc565b61025c613f83565b565b60008054906101000a900473ffffffffffffffffffffffffffffffffffffffff1673ffffffffffffffffffffffffffffffffffffffff1663a84ebc17826040518263ffffffff1660e01b81526004016102b79190615a52565b602060405180830381865afa1580156102d4573d6000803e3d6000fd5b505050506040513d601f19601f820116820180604052508101906102f89190615bfe565b15610338576040517f08c379a000000000000000000000000000000000000000000000000000000000815260040161032f90615c88565b60405180910390fd5b60008060009054906101000a900473ffffffffffffffffffffffffffffffffffffffff1673ffffffffffffffffffffffffffffffffffffffff166394674098836040518263ffffffff1660e01b81526004016103949190615a52565b602060405180830381865afa1580156103b1573d6000803e3d6000fd5b505050506040513d601f19601f820116820180604052508101906103d59190615cbd565b90508073ffffffffffffffffffffffffffffffffffffffff163373ffffffffffffffffffffffffffffffffffffffff1614610445576040517f08c379a000000000000000000000000000000000000000000000000000000000815260040161043c90615d5c565b60405180910390fd5b60008060009054906101000a900473ffffffffffffffffffffffffffffffffffffffff1673ffffffffffffffffffffffffffffffffffffffff16631d1438486040518163ffffffff1660e01b8152600401602060405180830381865afa1580156104b3573d6000803e3d6000fd5b505050506040513d601f19601f820116820180604052508101906104d79190615dba565b90506000805b60008054906101000a900473ffffffffffffffffffffffffffffffffffffffff1673ffffffffffffffffffffffffffffffffffffffff166353fd43326040518163ffffffff1660e01b8152600401602060405180830381865afa158015610548573d6000803e3d6000fd5b505050506040513d601f19601f8201168201806040525081019061056c9190615dfc565b8110156111695760008060009054906101000a900473ffffffffffffffffffffffffffffffffffffffff1673ffffffffffffffffffffffffffffffffffffffff16639932ba4c836040518263ffffffff1660e01b81526004016105cf9190615a52565b602060405180830381865afa1580156105ec573d6000803e3d6000fd5b505050506040513d601f19601f820116820180604052508101906106109190615cbd565b905060008060009054906101000a900473ffffffffffffffffffffffffffffffffffffffff1673ffffffffffffffffffffffffffffffffffffffff1663264fa8b988846040518363ffffffff1660e01b8152600401610670929190615e29565b602060405180830381865afa15801561068d573d6000803e3d6000fd5b505050506040513d601f19601f820116820180604052508101906106b19190615dfc565b905060008060009054906101000a900473ffffffffffffffffffffffffffffffffffffffff1673ffffffffffffffffffffffffffffffffffffffff1663f1f31d66836040518263ffffffff1660e01b815260040161070f9190615a52565b61014060405180830381865afa15801561072d573d6000803e3d6000fd5b505050506040513d601f19601f820116820180604052508101906107519190616063565b90506001600381111561076757610766616091565b5b60ff168673ffffffffffffffffffffffffffffffffffffffff166345fa8aae846040518263ffffffff1660e01b81526004016107a39190615a52565b602060405180830381865afa1580156107c0573d6000803e3d6000fd5b505050506040513d601f19601f820116820180604052508101906107e491906160e5565b60038111156107f6576107f5616091565b5b60ff1614801561087f575060008673ffffffffffffffffffffffffffffffffffffffff166361ecbb44846040518263ffffffff1660e01b815260040161083c9190615a52565b602060405180830381865afa158015610859573d6000803e3d6000fd5b505050506040513d601f19601f8201168201806040525081019061087d9190615dfc565b145b15610a915760008060009054906101000a900473ffffffffffffffffffffffffffffffffffffffff1673ffffffffffffffffffffffffffffffffffffffff1663f9b6117f6040518163ffffffff1660e01b8152600401602060405180830381865afa1580156108f2573d6000803e3d6000fd5b505050506040513d601f19601f820116820180604052508101906109169190616150565b905060008054906101000a900473ffffffffffffffffffffffffffffffffffffffff1673ffffffffffffffffffffffffffffffffffffffff166312b6d2e68a868a73ffffffffffffffffffffffffffffffffffffffff166381fed708886040518263ffffffff1660e01b815260040161098f9190615a52565b602060405180830381865afa1580156109ac573d6000803e3d6000fd5b505050506040513d601f19601f820116820180604052508101906109d09190615dfc565b6040518463ffffffff1660e01b81526004016109ee9392919061617d565b600060405180830381600087803b158015610a0857600080fd5b505af1158015610a1c573d6000803e3d6000fd5b505050508073ffffffffffffffffffffffffffffffffffffffff1663514fcac7846040518263ffffffff1660e01b8152600401610a599190615a52565b600060405180830381600087803b158015610a7357600080fd5b505af1158015610a87573d6000803e3d6000fd5b5050505050611159565b60026003811115610aa557610aa4616091565b5b60ff168673ffffffffffffffffffffffffffffffffffffffff166345fa8aae846040518263ffffffff1660e01b8152600401610ae19190615a52565b602060405180830381865afa158015610afe573d6000803e3d6000fd5b505050506040513d601f19601f82011682018060405250810190610b2291906160e5565b6003811115610b3457610b33616091565b5b60ff161480610bbc575060008673ffffffffffffffffffffffffffffffffffffffff166361ecbb44846040518263ffffffff1660e01b8152600401610b799190615a52565b602060405180830381865afa158015610b96573d6000803e3d6000fd5b505050506040513d601f19601f82011682018060405250810190610bba9190615dfc565b115b156111585760008673ffffffffffffffffffffffffffffffffffffffff166361ecbb44846040518263ffffffff1660e01b8152600401610bfc9190615a52565b602060405180830381865afa158015610c19573d6000803e3d6000fd5b505050506040513d601f19601f82011682018060405250810190610c3d9190615dfc565b9050600080610cdb868460008054906101000a900473ffffffffffffffffffffffffffffffffffffffff1673ffffffffffffffffffffffffffffffffffffffff1663f9b6117f6040518163ffffffff1660e01b8152600401602060405180830381865afa158015610cb2573d6000803e3d6000fd5b505050506040513d601f19601f82011682018060405250810190610cd69190616150565b613ff5565b9150915060008054906101000a900473ffffffffffffffffffffffffffffffffffffffff1673ffffffffffffffffffffffffffffffffffffffff16638182492a836040518060400160405280600381526020018f8152506040518363ffffffff1660e01b8152600401610d4f9291906161f2565b600060405180830381600087803b158015610d6957600080fd5b505af1158015610d7d573d6000803e3d6000fd5b5050505060008054906101000a900473ffffffffffffffffffffffffffffffffffffffff1673ffffffffffffffffffffffffffffffffffffffff16637a6c4b7b8c88856040518463ffffffff1660e01b8152600401610dde9392919061617d565b600060405180830381600087803b158015610df857600080fd5b505af1158015610e0c573d6000803e3d6000fd5b5050505060008054906101000a900473ffffffffffffffffffffffffffffffffffffffff1673ffffffffffffffffffffffffffffffffffffffff16631e2ad86e83836040518363ffffffff1660e01b8152600401610e6b92919061621b565b600060405180830381600087803b158015610e8557600080fd5b505af1158015610e99573d6000803e3d6000fd5b5050505081975060016003811115610eb457610eb3616091565b5b60ff168973ffffffffffffffffffffffffffffffffffffffff166345fa8aae876040518263ffffffff1660e01b8152600401610ef09190615a52565b602060405180830381865afa158015610f0d573d6000803e3d6000fd5b505050506040513d601f19601f82011682018060405250810190610f3191906160e5565b6003811115610f4357610f42616091565b5b60ff16036111545760008054906101000a900473ffffffffffffffffffffffffffffffffffffffff1673ffffffffffffffffffffffffffffffffffffffff166312b6d2e68c888c73ffffffffffffffffffffffffffffffffffffffff166381fed7088a6040518263ffffffff1660e01b8152600401610fc29190615a52565b602060405180830381865afa158015610fdf573d6000803e3d6000fd5b505050506040513d601f19601f820116820180604052508101906110039190615dfc565b6040518463ffffffff1660e01b81526004016110219392919061617d565b600060405180830381600087803b15801561103b57600080fd5b505af115801561104f573d6000803e3d6000fd5b5050505060008060009054906101000a900473ffffffffffffffffffffffffffffffffffffffff1673ffffffffffffffffffffffffffffffffffffffff1663f9b6117f6040518163ffffffff1660e01b8152600401602060405180830381865afa1580156110c1573d6000803e3d6000fd5b505050506040513d601f19601f820116820180604052508101906110e59190616150565b90508073ffffffffffffffffffffffffffffffffffffffff1663514fcac7876040518263ffffffff1660e01b81526004016111209190615a52565b600060405180830381600087803b15801561113a57600080fd5b505af115801561114e573d6000803e3d6000fd5b50505050505b5050505b5b50505080806001019150506104dd565b508273ffffffffffffffffffffffffffffffffffffffff16847f01fa4af88ce9f2f6f5af53aa8e8b4ba6486f5ff5ef35f7b1efc92b4d85ca4c6b60008054906101000a900473ffffffffffffffffffffffffffffffffffffffff1673ffffffffffffffffffffffffffffffffffffffff16633e413bee6040518163ffffffff1660e01b8152600401602060405180830381865afa15801561120e573d6000803e3d6000fd5b505050506040513d601f19601f820116820180604052508101906112329190615cbd565b60008054906101000a900473ffffffffffffffffffffffffffffffffffffffff1673ffffffffffffffffffffffffffffffffffffffff1663cf9ee319896040518263ffffffff1660e01b815260040161128b9190615a52565b602060405180830381865afa1580156112a8573d6000803e3d6000fd5b505050506040513d601f19601f820116820180604052508101906112cc9190615dfc565b6000426040516112df949392919061627f565b60405180910390a350505050565b6000808211611331576040517f08c379a000000000000000000000000000000000000000000000000000000000815260040161132890616310565b60405180910390fd5b60008054906101000a900473ffffffffffffffffffffffffffffffffffffffff1673ffffffffffffffffffffffffffffffffffffffff16637851b9056040518163ffffffff1660e01b8152600401600060405180830381600087803b15801561139957600080fd5b505af11580156113ad573d6000803e3d6000fd5b5050505060008060009054906101000a900473ffffffffffffffffffffffffffffffffffffffff1673ffffffffffffffffffffffffffffffffffffffff166384d77bb16040518163ffffffff1660e01b8152600401602060405180830381865afa15801561141f573d6000803e3d6000fd5b505050506040513d601f19601f820116820180604052508101906114439190615dfc565b905060008054906101000a900473ffffffffffffffffffffffffffffffffffffffff1673ffffffffffffffffffffffffffffffffffffffff1663c7003d1b82856040518363ffffffff1660e01b81526004016114a092919061621b565b600060405180830381600087803b1580156114ba57600080fd5b505af11580156114ce573d6000803e3d6000fd5b5050505060008060009054906101000a900473ffffffffffffffffffffffffffffffffffffffff1673ffffffffffffffffffffffffffffffffffffffff1663fc0c546a6040518163ffffffff1660e01b8152600401602060405180830381865afa158015611540573d6000803e3d6000fd5b505050506040513d601f19601f82011682018060405250810190611564919061636e565b905060008173ffffffffffffffffffffffffffffffffffffffff166318160ddd6040518163ffffffff1660e01b8152600401602060405180830381865afa1580156115b3573d6000803e3d6000fd5b505050506040513d601f19601f820116820180604052508101906115d79190615dfc565b670de0b6b3a7640000866115eb91906163ca565b6115f5919061643b565b90508173ffffffffffffffffffffffffffffffffffffffff16639dc29fac33876040518363ffffffff1660e01b815260040161163292919061646c565b600060405180830381600087803b15801561164c57600080fd5b505af1158015611660573d6000803e3d6000fd5b5050505060008054906101000a900473ffffffffffffffffffffffffffffffffffffffff1673ffffffffffffffffffffffffffffffffffffffff16636188199f84876040518363ffffffff1660e01b81526004016116bf92919061621b565b600060405180830381600087803b1580156116d957600080fd5b505af11580156116ed573d6000803e3d6000fd5b5050505060005b60008054906101000a900473ffffffffffffffffffffffffffffffffffffffff1673ffffffffffffffffffffffffffffffffffffffff166353fd43326040518163ffffffff1660e01b8152600401602060405180830381865afa15801561175f573d6000803e3d6000fd5b505050506040513d601f19601f820116820180604052508101906117839190615dfc565b811015611ce85760008060009054906101000a900473ffffffffffffffffffffffffffffffffffffffff1673ffffffffffffffffffffffffffffffffffffffff16639932ba4c836040518263ffffffff1660e01b81526004016117e69190615a52565b602060405180830381865afa158015611803573d6000803e3d6000fd5b505050506040513d601f19601f820116820180604052508101906118279190615cbd565b90506000670de0b6b3a764000060008054906101000a900473ffffffffffffffffffffffffffffffffffffffff1673ffffffffffffffffffffffffffffffffffffffff1663092755e0846040518263ffffffff1660e01b815260040161188d9190615ae4565b602060405180830381865afa1580156118aa573d6000803e3d6000fd5b505050506040513d601f19601f820116820180604052508101906118ce9190615cbd565b73ffffffffffffffffffffffffffffffffffffffff166370a0823160008054906101000a900473ffffffffffffffffffffffffffffffffffffffff1673ffffffffffffffffffffffffffffffffffffffff1663fbfa77cf6040518163ffffffff1660e01b8152600401602060405180830381865afa158015611954573d6000803e3d6000fd5b505050506040513d601f19601f8201168201806040525081019061197891906164d3565b6040518263ffffffff1660e01b81526004016119949190615ae4565b602060405180830381865afa1580156119b1573d6000803e3d6000fd5b505050506040513d601f19601f820116820180604052508101906119d59190615dfc565b856119e091906163ca565b6119ea919061643b565b9050600080611a88848460008054906101000a900473ffffffffffffffffffffffffffffffffffffffff1673ffffffffffffffffffffffffffffffffffffffff1663f9b6117f6040518163ffffffff1660e01b8152600401602060405180830381865afa158015611a5f573d6000803e3d6000fd5b505050506040513d601f19601f82011682018060405250810190611a839190616150565b614422565b9150915060008054906101000a900473ffffffffffffffffffffffffffffffffffffffff1673ffffffffffffffffffffffffffffffffffffffff16638182492a836040518060400160405280600281526020018c8152506040518363ffffffff1660e01b8152600401611afc9291906161f2565b600060405180830381600087803b158015611b1657600080fd5b505af1158015611b2a573d6000803e3d6000fd5b5050505060008054906101000a900473ffffffffffffffffffffffffffffffffffffffff1673ffffffffffffffffffffffffffffffffffffffff16631e2ad86e83836040518363ffffffff1660e01b8152600401611b8992919061621b565b600060405180830381600087803b158015611ba357600080fd5b505af1158015611bb7573d6000803e3d6000fd5b5050505060008054906101000a900473ffffffffffffffffffffffffffffffffffffffff1673ffffffffffffffffffffffffffffffffffffffff16631c7a29598986856040518463ffffffff1660e01b8152600401611c189392919061617d565b600060405180830381600087803b158015611c3257600080fd5b505af1158015611c46573d6000803e3d6000fd5b5050505060008054906101000a900473ffffffffffffffffffffffffffffffffffffffff1673ffffffffffffffffffffffffffffffffffffffff1663d34ed2ab89336040518363ffffffff1660e01b8152600401611ca5929190615e29565b600060405180830381600087803b158015611cbf57600080fd5b505af1158015611cd3573d6000803e3d6000fd5b505050505050505080806001019150506116f4565b503373ffffffffffffffffffffffffffffffffffffffff16837f318a1eb196638838739aab2348b851e63485b8c41dacc90eaff499a0f14ce53360008054906101000a900473ffffffffffffffffffffffffffffffffffffffff1673ffffffffffffffffffffffffffffffffffffffff16633e413bee6040518163ffffffff1660e01b8152600401602060405180830381865afa158015611d8d573d6000803e3d6000fd5b505050506040513d601f19601f82011682018060405250810190611db19190615cbd565b88600042604051611dc5949392919061627f565b60405180910390a3829350505050919050565b600080611de3614d14565b90508060000160009054906101000a900460ff1691505090565b6000808211611e41576040517f08c379a0000000000000000000000000000000000000000000000000000000008152600401611e3890616310565b60405180910390fd5b600061271060008054906101000a900473ffffffffffffffffffffffffffffffffffffffff1673ffffffffffffffffffffffffffffffffffffffff1663978bbdb96040518163ffffffff1660e01b8152600401602060405180830381865afa158015611eb1573d6000803e3d6000fd5b505050506040513d601f19601f82011682018060405250810190611ed59190616539565b60ff1684611ee391906163ca565b611eed919061643b565b905060008060009054906101000a900473ffffffffffffffffffffffffffffffffffffffff1673ffffffffffffffffffffffffffffffffffffffff1663e19eefbe856040518263ffffffff1660e01b8152600401611f4b9190615a52565b602060405180830381865afa158015611f68573d6000803e3d6000fd5b505050506040513d601f19601f82011682018060405250810190611f8c9190615dfc565b905060008482611f9c9190616566565b905060008054906101000a900473ffffffffffffffffffffffffffffffffffffffff1673ffffffffffffffffffffffffffffffffffffffff16633e413bee6040518163ffffffff1660e01b8152600401602060405180830381865afa158015612009573d6000803e3d6000fd5b505050506040513d601f19601f8201168201806040525081019061202d9190615cbd565b73ffffffffffffffffffffffffffffffffffffffff166323b872dd3360008054906101000a900473ffffffffffffffffffffffffffffffffffffffff1673ffffffffffffffffffffffffffffffffffffffff1663f9b6117f6040518163ffffffff1660e01b8152600401602060405180830381865afa1580156120b4573d6000803e3d6000fd5b505050506040513d601f19601f820116820180604052508101906120d89190616150565b846040518463ffffffff1660e01b81526004016120f79392919061659a565b6020604051808303816000875af1158015612116573d6000803e3d6000fd5b505050506040513d601f19601f8201168201806040525081019061213a9190615bfe565b5060008054906101000a900473ffffffffffffffffffffffffffffffffffffffff1673ffffffffffffffffffffffffffffffffffffffff16633e413bee6040518163ffffffff1660e01b8152600401602060405180830381865afa1580156121a6573d6000803e3d6000fd5b505050506040513d601f19601f820116820180604052508101906121ca9190615cbd565b73ffffffffffffffffffffffffffffffffffffffff166323b872dd3360008054906101000a900473ffffffffffffffffffffffffffffffffffffffff1673ffffffffffffffffffffffffffffffffffffffff1663b3f006746040518163ffffffff1660e01b8152600401602060405180830381865afa158015612251573d6000803e3d6000fd5b505050506040513d601f19601f820116820180604052508101906122759190615cbd565b866040518463ffffffff1660e01b81526004016122949392919061659a565b6020604051808303816000875af11580156122b3573d6000803e3d6000fd5b505050506040513d601f19601f820116820180604052508101906122d79190615bfe565b5060008054906101000a900473ffffffffffffffffffffffffffffffffffffffff1673ffffffffffffffffffffffffffffffffffffffff16635501c6cf6040518163ffffffff1660e01b8152600401600060405180830381600087803b15801561234057600080fd5b505af1158015612354573d6000803e3d6000fd5b5050505060008060009054906101000a900473ffffffffffffffffffffffffffffffffffffffff1673ffffffffffffffffffffffffffffffffffffffff16639dbb9c9e6040518163ffffffff1660e01b8152600401602060405180830381865afa1580156123c6573d6000803e3d6000fd5b505050506040513d601f19601f820116820180604052508101906123ea9190615dfc565b905060008054906101000a900473ffffffffffffffffffffffffffffffffffffffff1673ffffffffffffffffffffffffffffffffffffffff1663ea5142c882886040518363ffffffff1660e01b815260040161244792919061621b565b600060405180830381600087803b15801561246157600080fd5b505af1158015612475573d6000803e3d6000fd5b5050505060005b60008054906101000a900473ffffffffffffffffffffffffffffffffffffffff1673ffffffffffffffffffffffffffffffffffffffff166353fd43326040518163ffffffff1660e01b8152600401602060405180830381865afa1580156124e7573d6000803e3d6000fd5b505050506040513d601f19601f8201168201806040525081019061250b9190615dfc565b811015612e3e5760008060009054906101000a900473ffffffffffffffffffffffffffffffffffffffff1673ffffffffffffffffffffffffffffffffffffffff16639932ba4c836040518263ffffffff1660e01b815260040161256e9190615a52565b602060405180830381865afa15801561258b573d6000803e3d6000fd5b505050506040513d601f19601f820116820180604052508101906125af9190615cbd565b9050600068056bc75e2d6310000060008054906101000a900473ffffffffffffffffffffffffffffffffffffffff1673ffffffffffffffffffffffffffffffffffffffff16630be52713846040518263ffffffff1660e01b81526004016126169190615ae4565b602060405180830381865afa158015612633573d6000803e3d6000fd5b505050506040513d601f19601f820116820180604052508101906126579190615dfc565b8a61266291906163ca565b61266c919061643b565b90506000612709838360008054906101000a900473ffffffffffffffffffffffffffffffffffffffff1673ffffffffffffffffffffffffffffffffffffffff1663f9b6117f6040518163ffffffff1660e01b8152600401602060405180830381865afa1580156126e0573d6000803e3d6000fd5b505050506040513d601f19601f820116820180604052508101906127049190616150565b614d3c565b905060008054906101000a900473ffffffffffffffffffffffffffffffffffffffff1673ffffffffffffffffffffffffffffffffffffffff16638182492a82604051806040016040528060018152602001898152506040518363ffffffff1660e01b815260040161277b9291906161f2565b600060405180830381600087803b15801561279557600080fd5b505af11580156127a9573d6000803e3d6000fd5b5050505060008054906101000a900473ffffffffffffffffffffffffffffffffffffffff1673ffffffffffffffffffffffffffffffffffffffff1663d1e4a30882846040518363ffffffff1660e01b815260040161280892919061621b565b600060405180830381600087803b15801561282257600080fd5b505af1158015612836573d6000803e3d6000fd5b5050505060008054906101000a900473ffffffffffffffffffffffffffffffffffffffff1673ffffffffffffffffffffffffffffffffffffffff1663496304a48685846040518463ffffffff1660e01b81526004016128979392919061617d565b600060405180830381600087803b1580156128b157600080fd5b505af11580156128c5573d6000803e3d6000fd5b5050505060008054906101000a900473ffffffffffffffffffffffffffffffffffffffff1673ffffffffffffffffffffffffffffffffffffffff1663df1d5ea286336040518363ffffffff1660e01b8152600401612924929190615e29565b600060405180830381600087803b15801561293e57600080fd5b505af1158015612952573d6000803e3d6000fd5b5050505060008060009054906101000a900473ffffffffffffffffffffffffffffffffffffffff1673ffffffffffffffffffffffffffffffffffffffff1663092755e0856040518263ffffffff1660e01b81526004016129b29190615ae4565b602060405180830381865afa1580156129cf573d6000803e3d6000fd5b505050506040513d601f19601f820116820180604052508101906129f39190615cbd565b73ffffffffffffffffffffffffffffffffffffffff166370a0823160008054906101000a900473ffffffffffffffffffffffffffffffffffffffff1673ffffffffffffffffffffffffffffffffffffffff1663fbfa77cf6040518163ffffffff1660e01b8152600401602060405180830381865afa158015612a79573d6000803e3d6000fd5b505050506040513d601f19601f82011682018060405250810190612a9d91906164d3565b6040518263ffffffff1660e01b8152600401612ab99190615ae4565b602060405180830381865afa158015612ad6573d6000803e3d6000fd5b505050506040513d601f19601f82011682018060405250810190612afa9190615dfc565b905060008060009054906101000a900473ffffffffffffffffffffffffffffffffffffffff1673ffffffffffffffffffffffffffffffffffffffff1663092755e0866040518263ffffffff1660e01b8152600401612b589190615ae4565b602060405180830381865afa158015612b75573d6000803e3d6000fd5b505050506040513d601f19601f82011682018060405250810190612b999190615cbd565b73ffffffffffffffffffffffffffffffffffffffff16634cdad506836040518263ffffffff1660e01b8152600401612bd19190615a52565b602060405180830381865afa158015612bee573d6000803e3d6000fd5b505050506040513d601f19601f82011682018060405250810190612c129190615dfc565b905060008054906101000a900473ffffffffffffffffffffffffffffffffffffffff1673ffffffffffffffffffffffffffffffffffffffff16639b2d6e3b8887846040518463ffffffff1660e01b8152600401612c719392919061617d565b600060405180830381600087803b158015612c8b57600080fd5b505af1158015612c9f573d6000803e3d6000fd5b5050505060008054906101000a900473ffffffffffffffffffffffffffffffffffffffff1673ffffffffffffffffffffffffffffffffffffffff166399f68da88860008054906101000a900473ffffffffffffffffffffffffffffffffffffffff1673ffffffffffffffffffffffffffffffffffffffff1663fc0c546a6040518163ffffffff1660e01b8152600401602060405180830381865afa158015612d4b573d6000803e3d6000fd5b505050506040513d601f19601f82011682018060405250810190612d6f919061636e565b73ffffffffffffffffffffffffffffffffffffffff166318160ddd6040518163ffffffff1660e01b8152600401602060405180830381865afa158015612db9573d6000803e3d6000fd5b505050506040513d601f19601f82011682018060405250810190612ddd9190615dfc565b6040518363ffffffff1660e01b8152600401612dfa92919061621b565b600060405180830381600087803b158015612e1457600080fd5b505af1158015612e28573d6000803e3d6000fd5b505050505050505050808060010191505061247c565b503373ffffffffffffffffffffffffffffffffffffffff16817fb564a60b4184bee9ffdc1c0fd0588a93c23e406438195eec9857050fece55c2060008054906101000a900473ffffffffffffffffffffffffffffffffffffffff1673ffffffffffffffffffffffffffffffffffffffff16633e413bee6040518163ffffffff1660e01b8152600401602060405180830381865afa158015612ee3573d6000803e3d6000fd5b505050506040513d601f19601f82011682018060405250810190612f079190615cbd565b89600042604051612f1b949392919061627f565b60405180910390a380945050505050919050565b612f37613efc565b612f416000615009565b565b612f4b613efc565b612f536150e0565b565b600080612f60615152565b90508060000160009054906101000a900473ffffffffffffffffffffffffffffffffffffffff1691505090565b60008054906101000a900473ffffffffffffffffffffffffffffffffffffffff1673ffffffffffffffffffffffffffffffffffffffff166376529fdf826040518263ffffffff1660e01b8152600401612fe69190615a52565b602060405180830381865afa158015613003573d6000803e3d6000fd5b505050506040513d601f19601f820116820180604052508101906130279190615bfe565b15613067576040517f08c379a000000000000000000000000000000000000000000000000000000000815260040161305e9061661d565b60405180910390fd5b60008060009054906101000a900473ffffffffffffffffffffffffffffffffffffffff1673ffffffffffffffffffffffffffffffffffffffff166378032658836040518263ffffffff1660e01b81526004016130c39190615a52565b602060405180830381865afa1580156130e0573d6000803e3d6000fd5b505050506040513d601f19601f820116820180604052508101906131049190615cbd565b90508073ffffffffffffffffffffffffffffffffffffffff163373ffffffffffffffffffffffffffffffffffffffff1614613174576040517f08c379a000000000000000000000000000000000000000000000000000000000815260040161316b906166af565b60405180910390fd5b60008060009054906101000a900473ffffffffffffffffffffffffffffffffffffffff1673ffffffffffffffffffffffffffffffffffffffff16631d1438486040518163ffffffff1660e01b8152600401602060405180830381865afa1580156131e2573d6000803e3d6000fd5b505050506040513d601f19601f820116820180604052508101906132069190615dba565b905060005b60008054906101000a900473ffffffffffffffffffffffffffffffffffffffff1673ffffffffffffffffffffffffffffffffffffffff166353fd43326040518163ffffffff1660e01b8152600401602060405180830381865afa158015613276573d6000803e3d6000fd5b505050506040513d601f19601f8201168201806040525081019061329a9190615dfc565b8110156139c75760008060009054906101000a900473ffffffffffffffffffffffffffffffffffffffff1673ffffffffffffffffffffffffffffffffffffffff16639932ba4c836040518263ffffffff1660e01b81526004016132fd9190615a52565b602060405180830381865afa15801561331a573d6000803e3d6000fd5b505050506040513d601f19601f8201168201806040525081019061333e9190615cbd565b905060008060009054906101000a900473ffffffffffffffffffffffffffffffffffffffff1673ffffffffffffffffffffffffffffffffffffffff1663f513a71887846040518363ffffffff1660e01b815260040161339e929190615e29565b602060405180830381865afa1580156133bb573d6000803e3d6000fd5b505050506040513d601f19601f820116820180604052508101906133df9190615dfc565b905060008060009054906101000a900473ffffffffffffffffffffffffffffffffffffffff1673ffffffffffffffffffffffffffffffffffffffff1663f1f31d66836040518263ffffffff1660e01b815260040161343d9190615a52565b61014060405180830381865afa15801561345b573d6000803e3d6000fd5b505050506040513d601f19601f8201168201806040525081019061347f9190616063565b905060008573ffffffffffffffffffffffffffffffffffffffff166369352a90846040518263ffffffff1660e01b81526004016134bc9190615a52565b602060405180830381865afa1580156134d9573d6000803e3d6000fd5b505050506040513d601f19601f820116820180604052508101906134fd9190615dfc565b8673ffffffffffffffffffffffffffffffffffffffff166361ecbb44856040518263ffffffff1660e01b81526004016135369190615a52565b602060405180830381865afa158015613553573d6000803e3d6000fd5b505050506040513d601f19601f820116820180604052508101906135779190615dfc565b61358191906166cf565b905060008673ffffffffffffffffffffffffffffffffffffffff166381fed708856040518263ffffffff1660e01b81526004016135be9190615a52565b602060405180830381865afa1580156135db573d6000803e3d6000fd5b505050506040513d601f19601f820116820180604052508101906135ff9190615dfc565b90506001600381111561361557613614616091565b5b60ff168773ffffffffffffffffffffffffffffffffffffffff166345fa8aae866040518263ffffffff1660e01b81526004016136519190615a52565b602060405180830381865afa15801561366e573d6000803e3d6000fd5b505050506040513d601f19601f8201168201806040525081019061369291906160e5565b60038111156136a4576136a3616091565b5b60ff161480156136b45750600082145b156138ef5760008060009054906101000a900473ffffffffffffffffffffffffffffffffffffffff1673ffffffffffffffffffffffffffffffffffffffff1663f9b6117f6040518163ffffffff1660e01b8152600401602060405180830381865afa158015613727573d6000803e3d6000fd5b505050506040513d601f19601f8201168201806040525081019061374b9190616150565b90508073ffffffffffffffffffffffffffffffffffffffff1663514fcac7866040518263ffffffff1660e01b81526004016137869190615a52565b600060405180830381600087803b1580156137a057600080fd5b505af11580156137b4573d6000803e3d6000fd5b5050505060008054906101000a900473ffffffffffffffffffffffffffffffffffffffff1673ffffffffffffffffffffffffffffffffffffffff16638182492a866040518060400160405280600481526020018e8152506040518363ffffffff1660e01b81526004016138289291906161f2565b600060405180830381600087803b15801561384257600080fd5b505af1158015613856573d6000803e3d6000fd5b5050505060008054906101000a900473ffffffffffffffffffffffffffffffffffffffff1673ffffffffffffffffffffffffffffffffffffffff16636ea865568b88856040518463ffffffff1660e01b81526004016138b79392919061617d565b600060405180830381600087803b1580156138d157600080fd5b505af11580156138e5573d6000803e3d6000fd5b50505050506139b5565b6002600381111561390357613902616091565b5b60ff168773ffffffffffffffffffffffffffffffffffffffff166345fa8aae866040518263ffffffff1660e01b815260040161393f9190615a52565b602060405180830381865afa15801561395c573d6000803e3d6000fd5b505050506040513d601f19601f8201168201806040525081019061398091906160e5565b600381111561399257613991616091565b5b60ff1614806139a15750600082115b156139b4576139b3858a86858561517a565b5b5b5050505050808060010191505061320b565b508173ffffffffffffffffffffffffffffffffffffffff16837fddeab43030d697ad27723568ce932f1a40dd5d2caea458334efcf4341e8aee6560008054906101000a900473ffffffffffffffffffffffffffffffffffffffff1673ffffffffffffffffffffffffffffffffffffffff16633e413bee6040518163ffffffff1660e01b8152600401602060405180830381865afa158015613a6c573d6000803e3d6000fd5b505050506040513d601f19601f82011682018060405250810190613a909190615cbd565b60008054906101000a900473ffffffffffffffffffffffffffffffffffffffff1673ffffffffffffffffffffffffffffffffffffffff16639cf54521886040518263ffffffff1660e01b8152600401613ae99190615a52565b602060405180830381865afa158015613b06573d6000803e3d6000fd5b505050506040513d601f19601f82011682018060405250810190613b2a9190615dfc565b600042604051613b3d949392919061627f565b60405180910390a3505050565b60008054906101000a900473ffffffffffffffffffffffffffffffffffffffff1681565b6000613b786157e0565b905060008160000160089054906101000a900460ff1615905060008260000160009054906101000a900467ffffffffffffffff1690506000808267ffffffffffffffff16148015613bc65750825b9050600060018367ffffffffffffffff16148015613bfb575060003073ffffffffffffffffffffffffffffffffffffffff163b145b905081158015613c09575080155b15613c40576040517ff92ee8a900000000000000000000000000000000000000000000000000000000815260040160405180910390fd5b60018560000160006101000a81548167ffffffffffffffff021916908367ffffffffffffffff1602179055508315613c905760018560000160086101000a81548160ff0219169083151502179055505b600073ffffffffffffffffffffffffffffffffffffffff168673ffffffffffffffffffffffffffffffffffffffff1603613cff576040517f08c379a0000000000000000000000000000000000000000000000000000000008152600401613cf69061674f565b60405180910390fd5b856000806101000a81548173ffffffffffffffffffffffffffffffffffffffff021916908373ffffffffffffffffffffffffffffffffffffffff160217905550613d4833615808565b613d5061581c565b8315613dac5760008560000160086101000a81548160ff0219169083151502179055507fc7f505b2f371ae2175ee4913f4499e1f2633a7b5936321eed1cdaeb6115181d26001604051613da391906167aa565b60405180910390a15b505050505050565b6000613dbe613efc565b600073ffffffffffffffffffffffffffffffffffffffff168273ffffffffffffffffffffffffffffffffffffffff1603613e2d576040517f08c379a0000000000000000000000000000000000000000000000000000000008152600401613e249061674f565b60405180910390fd5b816000806101000a81548173ffffffffffffffffffffffffffffffffffffffff021916908373ffffffffffffffffffffffffffffffffffffffff16021790555060019050919050565b613e7e613efc565b600073ffffffffffffffffffffffffffffffffffffffff168173ffffffffffffffffffffffffffffffffffffffff1603613ef05760006040517f1e4fbdf7000000000000000000000000000000000000000000000000000000008152600401613ee79190615ae4565b60405180910390fd5b613ef981615009565b50565b613f0461582e565b73ffffffffffffffffffffffffffffffffffffffff16613f22612f55565b73ffffffffffffffffffffffffffffffffffffffff1614613f8157613f4561582e565b6040517f118cdaa7000000000000000000000000000000000000000000000000000000008152600401613f789190615ae4565b60405180910390fd5b565b613f8b615836565b6000613f95614d14565b905060008160000160006101000a81548160ff0219169083151502179055507f5db9ee0a495bf2e6ff9c91a7834c1ba4fdd244a5e8aa4e537bd38aeae4b073aa613fdd61582e565b604051613fea9190615ae4565b60405180910390a150565b60008060008060009054906101000a900473ffffffffffffffffffffffffffffffffffffffff1673ffffffffffffffffffffffffffffffffffffffff16631d1438486040518163ffffffff1660e01b8152600401602060405180830381865afa158015614066573d6000803e3d6000fd5b505050506040513d601f19601f8201168201806040525081019061408a9190615dba565b905060008173ffffffffffffffffffffffffffffffffffffffff1663fc75f9ed886040518263ffffffff1660e01b81526004016140c79190615ae4565b602060405180830381865afa1580156140e4573d6000803e3d6000fd5b505050506040513d601f19601f820116820180604052508101906141089190616539565b9050600060018261411991906167c5565b600a614125919061692d565b876141309190616978565b8761413b91906166cf565b90506000818861414b91906166cf565b905060008060009054906101000a900473ffffffffffffffffffffffffffffffffffffffff1673ffffffffffffffffffffffffffffffffffffffff1663b12279aa60016040518263ffffffff1660e01b81526004016141aa9190615a88565b61014060405180830381865afa1580156141c8573d6000803e3d6000fd5b505050506040513d601f19601f820116820180604052508101906141ec9190616063565b905089816040019073ffffffffffffffffffffffffffffffffffffffff16908173ffffffffffffffffffffffffffffffffffffffff1681525050828160c001818152505087816020019073ffffffffffffffffffffffffffffffffffffffff16908173ffffffffffffffffffffffffffffffffffffffff168152505060008060009054906101000a900473ffffffffffffffffffffffffffffffffffffffff1673ffffffffffffffffffffffffffffffffffffffff1663f9b6117f6040518163ffffffff1660e01b8152600401602060405180830381865afa1580156142d6573d6000803e3d6000fd5b505050506040513d601f19601f820116820180604052508101906142fa9190616150565b905060008173ffffffffffffffffffffffffffffffffffffffff166366ca13448d878d6040518463ffffffff1660e01b815260040161433b939291906169a9565b6020604051808303816000875af115801561435a573d6000803e3d6000fd5b505050506040513d601f19601f8201168201806040525081019061437e9190615dfc565b905060008054906101000a900473ffffffffffffffffffffffffffffffffffffffff1673ffffffffffffffffffffffffffffffffffffffff166335c5120482856040518363ffffffff1660e01b81526004016143db929190616b69565b600060405180830381600087803b1580156143f557600080fd5b505af1158015614409573d6000803e3d6000fd5b5050505080859850985050505050505050935093915050565b60008060008060009054906101000a900473ffffffffffffffffffffffffffffffffffffffff1673ffffffffffffffffffffffffffffffffffffffff1663092755e0876040518263ffffffff1660e01b81526004016144819190615ae4565b602060405180830381865afa15801561449e573d6000803e3d6000fd5b505050506040513d601f19601f820116820180604052508101906144c29190615cbd565b905060008054906101000a900473ffffffffffffffffffffffffffffffffffffffff1673ffffffffffffffffffffffffffffffffffffffff1663fbfa77cf6040518163ffffffff1660e01b8152600401602060405180830381865afa15801561452f573d6000803e3d6000fd5b505050506040513d601f19601f8201168201806040525081019061455391906164d3565b73ffffffffffffffffffffffffffffffffffffffff16631c20fadd8230886040518463ffffffff1660e01b815260040161458f9392919061659a565b600060405180830381600087803b1580156145a957600080fd5b505af11580156145bd573d6000803e3d6000fd5b5050505060008173ffffffffffffffffffffffffffffffffffffffff1663ba0876528730306040518463ffffffff1660e01b815260040161460093929190616b93565b6020604051808303816000875af115801561461f573d6000803e3d6000fd5b505050506040513d601f19601f820116820180604052508101906146439190615dfc565b905060008060009054906101000a900473ffffffffffffffffffffffffffffffffffffffff1673ffffffffffffffffffffffffffffffffffffffff16631d1438486040518163ffffffff1660e01b8152600401602060405180830381865afa1580156146b3573d6000803e3d6000fd5b505050506040513d601f19601f820116820180604052508101906146d79190615dba565b905060008173ffffffffffffffffffffffffffffffffffffffff1663fc75f9ed8a6040518263ffffffff1660e01b81526004016147149190615ae4565b602060405180830381865afa158015614731573d6000803e3d6000fd5b505050506040513d601f19601f820116820180604052508101906147559190616539565b9050600060018261476691906167c5565b600a614772919061692d565b8461477d9190616978565b8461478891906166cf565b90506000818561479891906166cf565b90506000811115614930578a73ffffffffffffffffffffffffffffffffffffffff1663095ea7b387836040518363ffffffff1660e01b81526004016147de92919061646c565b6020604051808303816000875af11580156147fd573d6000803e3d6000fd5b505050506040513d601f19601f820116820180604052508101906148219190615bfe565b508573ffffffffffffffffffffffffffffffffffffffff16636e553f658260008054906101000a900473ffffffffffffffffffffffffffffffffffffffff1673ffffffffffffffffffffffffffffffffffffffff1663fbfa77cf6040518163ffffffff1660e01b8152600401602060405180830381865afa1580156148aa573d6000803e3d6000fd5b505050506040513d601f19601f820116820180604052508101906148ce91906164d3565b6040518363ffffffff1660e01b81526004016148eb929190615e29565b6020604051808303816000875af115801561490a573d6000803e3d6000fd5b505050506040513d601f19601f8201168201806040525081019061492e9190615dfc565b505b60008060009054906101000a900473ffffffffffffffffffffffffffffffffffffffff1673ffffffffffffffffffffffffffffffffffffffff1663b12279aa60016040518263ffffffff1660e01b815260040161498d9190615a88565b61014060405180830381865afa1580156149ab573d6000803e3d6000fd5b505050506040513d601f19601f820116820180604052508101906149cf9190616063565b90508b816040019073ffffffffffffffffffffffffffffffffffffffff16908173ffffffffffffffffffffffffffffffffffffffff1681525050828160c001818152505089816020019073ffffffffffffffffffffffffffffffffffffffff16908173ffffffffffffffffffffffffffffffffffffffff16815250508b73ffffffffffffffffffffffffffffffffffffffff1663a9059cbb60008054906101000a900473ffffffffffffffffffffffffffffffffffffffff1673ffffffffffffffffffffffffffffffffffffffff1663f9b6117f6040518163ffffffff1660e01b8152600401602060405180830381865afa158015614ad2573d6000803e3d6000fd5b505050506040513d601f19601f82011682018060405250810190614af69190616150565b856040518363ffffffff1660e01b8152600401614b1492919061646c565b6020604051808303816000875af1158015614b33573d6000803e3d6000fd5b505050506040513d601f19601f82011682018060405250810190614b579190615bfe565b5060008060009054906101000a900473ffffffffffffffffffffffffffffffffffffffff1673ffffffffffffffffffffffffffffffffffffffff1663f9b6117f6040518163ffffffff1660e01b8152600401602060405180830381865afa158015614bc6573d6000803e3d6000fd5b505050506040513d601f19601f82011682018060405250810190614bea9190616150565b905060008173ffffffffffffffffffffffffffffffffffffffff166366ca13448f878f6040518463ffffffff1660e01b8152600401614c2b939291906169a9565b6020604051808303816000875af1158015614c4a573d6000803e3d6000fd5b505050506040513d601f19601f82011682018060405250810190614c6e9190615dfc565b905060008054906101000a900473ffffffffffffffffffffffffffffffffffffffff1673ffffffffffffffffffffffffffffffffffffffff166335c5120482856040518363ffffffff1660e01b8152600401614ccb929190616b69565b600060405180830381600087803b158015614ce557600080fd5b505af1158015614cf9573d6000803e3d6000fd5b5050505080859a509a50505050505050505050935093915050565b60007fcd5ed15c6e187e77e9aee88184c21f4f2182ab5827cb3b7e07fbedcd63f03300905090565b60008060008054906101000a900473ffffffffffffffffffffffffffffffffffffffff1673ffffffffffffffffffffffffffffffffffffffff1663b12279aa60006040518263ffffffff1660e01b8152600401614d999190615a88565b61014060405180830381865afa158015614db7573d6000803e3d6000fd5b505050506040513d601f19601f82011682018060405250810190614ddb9190616063565b905082816020019073ffffffffffffffffffffffffffffffffffffffff16908173ffffffffffffffffffffffffffffffffffffffff168152505084816040019073ffffffffffffffffffffffffffffffffffffffff16908173ffffffffffffffffffffffffffffffffffffffff1681525050838160e001818152505060008060009054906101000a900473ffffffffffffffffffffffffffffffffffffffff1673ffffffffffffffffffffffffffffffffffffffff1663f9b6117f6040518163ffffffff1660e01b8152600401602060405180830381865afa158015614ec5573d6000803e3d6000fd5b505050506040513d601f19601f82011682018060405250810190614ee99190616150565b905060008173ffffffffffffffffffffffffffffffffffffffff166312544d1b8888886040518463ffffffff1660e01b8152600401614f2a939291906169a9565b6020604051808303816000875af1158015614f49573d6000803e3d6000fd5b505050506040513d601f19601f82011682018060405250810190614f6d9190615dfc565b905060008054906101000a900473ffffffffffffffffffffffffffffffffffffffff1673ffffffffffffffffffffffffffffffffffffffff166335c5120482856040518363ffffffff1660e01b8152600401614fca929190616b69565b600060405180830381600087803b158015614fe457600080fd5b505af1158015614ff8573d6000803e3d6000fd5b505050508093505050509392505050565b6000615013615152565b905060008160000160009054906101000a900473ffffffffffffffffffffffffffffffffffffffff169050828260000160006101000a81548173ffffffffffffffffffffffffffffffffffffffff021916908373ffffffffffffffffffffffffffffffffffffffff1602179055508273ffffffffffffffffffffffffffffffffffffffff168173ffffffffffffffffffffffffffffffffffffffff167f8be0079c531659141344cd1fd0a4f28419497f9722a3daafe3b4186f6b6457e060405160405180910390a3505050565b6150e8615876565b60006150f2614d14565b905060018160000160006101000a81548160ff0219169083151502179055507f62e78cea01bee320cd4e420270b5ea74000d11b0c9f74754ebdbfc544b05a25861513a61582e565b6040516151479190615ae4565b60405180910390a150565b60007f9016d09d72d40fdae2fd8ceac6b6234c7706214fd39c1cd1e609a0528c199300905090565b60008060009054906101000a900473ffffffffffffffffffffffffffffffffffffffff1673ffffffffffffffffffffffffffffffffffffffff16631d1438486040518163ffffffff1660e01b8152600401602060405180830381865afa1580156151e8573d6000803e3d6000fd5b505050506040513d601f19601f8201168201806040525081019061520c9190615dba565b90506000808273ffffffffffffffffffffffffffffffffffffffff1663236970d460008060009054906101000a900473ffffffffffffffffffffffffffffffffffffffff1673ffffffffffffffffffffffffffffffffffffffff16633e413bee6040518163ffffffff1660e01b8152600401602060405180830381865afa15801561529b573d6000803e3d6000fd5b505050506040513d601f19601f820116820180604052508101906152bf9190615cbd565b6040518363ffffffff1660e01b81526004016152dc929190616bca565b6040805180830381865afa1580156152f8573d6000803e3d6000fd5b505050506040513d601f19601f8201168201806040525081019061531c9190616c2e565b9150915060008260008054906101000a900473ffffffffffffffffffffffffffffffffffffffff1673ffffffffffffffffffffffffffffffffffffffff16632e6b96e784896040518363ffffffff1660e01b815260040161537e929190616c7d565b602060405180830381865afa15801561539b573d6000803e3d6000fd5b505050506040513d601f19601f820116820180604052508101906153bf9190615dfc565b6153c991906166cf565b905060006154668a8360008054906101000a900473ffffffffffffffffffffffffffffffffffffffff1673ffffffffffffffffffffffffffffffffffffffff1663f9b6117f6040518163ffffffff1660e01b8152600401602060405180830381865afa15801561543d573d6000803e3d6000fd5b505050506040513d601f19601f820116820180604052508101906154619190616150565b614d3c565b905060008054906101000a900473ffffffffffffffffffffffffffffffffffffffff1673ffffffffffffffffffffffffffffffffffffffff16638182492a826040518060400160405280600481526020018d8152506040518363ffffffff1660e01b81526004016154d89291906161f2565b600060405180830381600087803b1580156154f257600080fd5b505af1158015615506573d6000803e3d6000fd5b5050505060008054906101000a900473ffffffffffffffffffffffffffffffffffffffff1673ffffffffffffffffffffffffffffffffffffffff1663457e0e0f8a8c846040518463ffffffff1660e01b81526004016155679392919061617d565b600060405180830381600087803b15801561558157600080fd5b505af1158015615595573d6000803e3d6000fd5b50505050600160038111156155ad576155ac616091565b5b60ff168573ffffffffffffffffffffffffffffffffffffffff166345fa8aae8a6040518263ffffffff1660e01b81526004016155e99190615a52565b602060405180830381865afa158015615606573d6000803e3d6000fd5b505050506040513d601f19601f8201168201806040525081019061562a91906160e5565b600381111561563c5761563b616091565b5b60ff16036157d45760008054906101000a900473ffffffffffffffffffffffffffffffffffffffff1673ffffffffffffffffffffffffffffffffffffffff16636ea865568a8c896040518463ffffffff1660e01b81526004016156a19392919061617d565b600060405180830381600087803b1580156156bb57600080fd5b505af11580156156cf573d6000803e3d6000fd5b5050505060008060009054906101000a900473ffffffffffffffffffffffffffffffffffffffff1673ffffffffffffffffffffffffffffffffffffffff1663f9b6117f6040518163ffffffff1660e01b8152600401602060405180830381865afa158015615741573d6000803e3d6000fd5b505050506040513d601f19601f820116820180604052508101906157659190616150565b90508073ffffffffffffffffffffffffffffffffffffffff1663514fcac78a6040518263ffffffff1660e01b81526004016157a09190615a52565b600060405180830381600087803b1580156157ba57600080fd5b505af11580156157ce573d6000803e3d6000fd5b50505050505b50505050505050505050565b60007ff0c57e16840df040f15088dc2f81fe391c3923bec73e23a9662efc9c229c6a00905090565b6158106158b7565b615819816158f7565b50565b6158246158b7565b61582c61597d565b565b600033905090565b61583e611dd8565b615874576040517f8dfc202b00000000000000000000000000000000000000000000000000000000815260040160405180910390fd5b565b61587e611dd8565b156158b5576040517fd93c066500000000000000000000000000000000000000000000000000000000815260040160405180910390fd5b565b6158bf6159b1565b6158f5576040517fd7e6bcf800000000000000000000000000000000000000000000000000000000815260040160405180910390fd5b565b6158ff6158b7565b600073ffffffffffffffffffffffffffffffffffffffff168173ffffffffffffffffffffffffffffffffffffffff16036159715760006040517f1e4fbdf70000000000000000000000000000000000000000000000000000000081526004016159689190615ae4565b60405180910390fd5b61597a81615009565b50565b6159856158b7565b600061598f614d14565b905060008160000160006101000a81548160ff02191690831515021790555050565b60006159bb6157e0565b60000160089054906101000a900460ff16905090565b6000604051905090565b600080fd5b6000819050919050565b6159f3816159e0565b81146159fe57600080fd5b50565b600081359050615a10816159ea565b92915050565b600060208284031215615a2c57615a2b6159db565b5b6000615a3a84828501615a01565b91505092915050565b615a4c816159e0565b82525050565b6000602082019050615a676000830184615a43565b92915050565b60008115159050919050565b615a8281615a6d565b82525050565b6000602082019050615a9d6000830184615a79565b92915050565b600073ffffffffffffffffffffffffffffffffffffffff82169050919050565b6000615ace82615aa3565b9050919050565b615ade81615ac3565b82525050565b6000602082019050615af96000830184615ad5565b92915050565b6000819050919050565b6000615b24615b1f615b1a84615aa3565b615aff565b615aa3565b9050919050565b6000615b3682615b09565b9050919050565b6000615b4882615b2b565b9050919050565b615b5881615b3d565b82525050565b6000602082019050615b736000830184615b4f565b92915050565b615b8281615ac3565b8114615b8d57600080fd5b50565b600081359050615b9f81615b79565b92915050565b600060208284031215615bbb57615bba6159db565b5b6000615bc984828501615b90565b91505092915050565b615bdb81615a6d565b8114615be657600080fd5b50565b600081519050615bf881615bd2565b92915050565b600060208284031215615c1457615c136159db565b5b6000615c2284828501615be9565b91505092915050565b600082825260208201905092915050565b7f49737375616e636520697320636f6d706c657465640000000000000000000000600082015250565b6000615c72601583615c2b565b9150615c7d82615c3c565b602082019050919050565b60006020820190508181036000830152615ca181615c65565b9050919050565b600081519050615cb781615b79565b92915050565b600060208284031215615cd357615cd26159db565b5b6000615ce184828501615ca8565b91505092915050565b7f4f6e6c79207265717565737465722063616e2063616e63656c2074686520697360008201527f7375616e63650000000000000000000000000000000000000000000000000000602082015250565b6000615d46602683615c2b565b9150615d5182615cea565b604082019050919050565b60006020820190508181036000830152615d7581615d39565b9050919050565b6000615d8782615ac3565b9050919050565b615d9781615d7c565b8114615da257600080fd5b50565b600081519050615db481615d8e565b92915050565b600060208284031215615dd057615dcf6159db565b5b6000615dde84828501615da5565b91505092915050565b600081519050615df6816159ea565b92915050565b600060208284031215615e1257615e116159db565b5b6000615e2084828501615de7565b91505092915050565b6000604082019050615e3e6000830185615a43565b615e4b6020830184615ad5565b9392505050565b600080fd5b6000601f19601f8301169050919050565b7f4e487b7100000000000000000000000000000000000000000000000000000000600052604160045260246000fd5b615ea082615e57565b810181811067ffffffffffffffff82111715615ebf57615ebe615e68565b5b80604052505050565b6000615ed26159d1565b9050615ede8282615e97565b919050565b600067ffffffffffffffff82169050919050565b615f0081615ee3565b8114615f0b57600080fd5b50565b600081519050615f1d81615ef7565b92915050565b60028110615f3057600080fd5b50565b600081519050615f4281615f23565b92915050565b60048110615f5557600080fd5b50565b600081519050615f6781615f48565b92915050565b60006101408284031215615f8457615f83615e52565b5b615f8f610140615ec8565b90506000615f9f84828501615f0e565b6000830152506020615fb384828501615ca8565b6020830152506040615fc784828501615ca8565b6040830152506060615fdb84828501615ca8565b6060830152506080615fef84828501615be9565b60808301525060a061600384828501615f33565b60a08301525060c061601784828501615de7565b60c08301525060e061602b84828501615de7565b60e08301525061010061604084828501615de7565b6101008301525061012061605684828501615f58565b6101208301525092915050565b6000610140828403121561607a576160796159db565b5b600061608884828501615f6d565b91505092915050565b7f4e487b7100000000000000000000000000000000000000000000000000000000600052602160045260246000fd5b600481106160cd57600080fd5b50565b6000815190506160df816160c0565b92915050565b6000602082840312156160fb576160fa6159db565b5b6000616109848285016160d0565b91505092915050565b600061611d82615ac3565b9050919050565b61612d81616112565b811461613857600080fd5b50565b60008151905061614a81616124565b92915050565b600060208284031215616166576161656159db565b5b60006161748482850161613b565b91505092915050565b60006060820190506161926000830186615a43565b61619f6020830185615ad5565b6161ac6040830184615a43565b949350505050565b6161bd816159e0565b82525050565b6040820160008201516161d960008501826161b4565b5060208201516161ec60208501826161b4565b50505050565b60006060820190506162076000830185615a43565b61621460208301846161c3565b9392505050565b60006040820190506162306000830185615a43565b61623d6020830184615a43565b9392505050565b6000819050919050565b600061626961626461625f84616244565b615aff565b6159e0565b9050919050565b6162798161624e565b82525050565b60006080820190506162946000830187615ad5565b6162a16020830186615a43565b6162ae6040830185616270565b6162bb6060830184615a43565b95945050505050565b7f496e76616c696420696e70757420616d6f756e74000000000000000000000000600082015250565b60006162fa601483615c2b565b9150616305826162c4565b602082019050919050565b60006020820190508181036000830152616329816162ed565b9050919050565b600061633b82615ac3565b9050919050565b61634b81616330565b811461635657600080fd5b50565b60008151905061636881616342565b92915050565b600060208284031215616384576163836159db565b5b600061639284828501616359565b91505092915050565b7f4e487b7100000000000000000000000000000000000000000000000000000000600052601160045260246000fd5b60006163d5826159e0565b91506163e0836159e0565b92508282026163ee816159e0565b915082820484148315176164055761640461639b565b5b5092915050565b7f4e487b7100000000000000000000000000000000000000000000000000000000600052601260045260246000fd5b6000616446826159e0565b9150616451836159e0565b9250826164615761646061640c565b5b828204905092915050565b60006040820190506164816000830185615ad5565b61648e6020830184615a43565b9392505050565b60006164a082615ac3565b9050919050565b6164b081616495565b81146164bb57600080fd5b50565b6000815190506164cd816164a7565b92915050565b6000602082840312156164e9576164e86159db565b5b60006164f7848285016164be565b91505092915050565b600060ff82169050919050565b61651681616500565b811461652157600080fd5b50565b6000815190506165338161650d565b92915050565b60006020828403121561654f5761654e6159db565b5b600061655d84828501616524565b91505092915050565b6000616571826159e0565b915061657c836159e0565b92508282019050808211156165945761659361639b565b5b92915050565b60006060820190506165af6000830186615ad5565b6165bc6020830185615ad5565b6165c96040830184615a43565b949350505050565b7f526564656d7074696f6e20697320636f6d706c65746564000000000000000000600082015250565b6000616607601783615c2b565b9150616612826165d1565b602082019050919050565b60006020820190508181036000830152616636816165fa565b9050919050565b7f4f6e6c79207265717565737465722063616e2063616e63656c2074686520726560008201527f64656d7074696f6e000000000000000000000000000000000000000000000000602082015250565b6000616699602883615c2b565b91506166a48261663d565b604082019050919050565b600060208201905081810360008301526166c88161668c565b9050919050565b60006166da826159e0565b91506166e5836159e0565b92508282039050818111156166fd576166fc61639b565b5b92915050565b7f696e76616c696420666163746f72792073746f72616765206164647265737300600082015250565b6000616739601f83615c2b565b915061674482616703565b602082019050919050565b600060208201905081810360008301526167688161672c565b9050919050565b6000819050919050565b600061679461678f61678a8461676f565b615aff565b615ee3565b9050919050565b6167a481616779565b82525050565b60006020820190506167bf600083018461679b565b92915050565b60006167d082616500565b91506167db83616500565b9250828203905060ff8111156167f4576167f361639b565b5b92915050565b60008160011c9050919050565b6000808291508390505b60018511156168515780860481111561682d5761682c61639b565b5b600185161561683c5780820291505b808102905061684a856167fa565b9450616811565b94509492505050565b60008261686a5760019050616926565b816168785760009050616926565b816001811461688e5760028114616898576168c7565b6001915050616926565b60ff8411156168aa576168a961639b565b5b8360020a9150848211156168c1576168c061639b565b5b50616926565b5060208310610133831016604e8410600b84101617156168fc5782820a9050838111156168f7576168f661639b565b5b616926565b6169098484846001616807565b925090508184048111156169205761691f61639b565b5b81810290505b9392505050565b6000616938826159e0565b915061694383616500565b92506169707fffffffffffffffffffffffffffffffffffffffffffffffffffffffffffffffff848461685a565b905092915050565b6000616983826159e0565b915061698e836159e0565b92508261699e5761699d61640c565b5b828206905092915050565b60006060820190506169be6000830186615ad5565b6169cb6020830185615a43565b6169d86040830184615ad5565b949350505050565b6169e981615ee3565b82525050565b6169f881615ac3565b82525050565b616a0781615a6d565b82525050565b60028110616a1e57616a1d616091565b5b50565b6000819050616a2f82616a0d565b919050565b6000616a3f82616a21565b9050919050565b616a4f81616a34565b82525050565b60048110616a6657616a65616091565b5b50565b6000819050616a7782616a55565b919050565b6000616a8782616a69565b9050919050565b616a9781616a7c565b82525050565b61014082016000820151616ab460008501826169e0565b506020820151616ac760208501826169ef565b506040820151616ada60408501826169ef565b506060820151616aed60608501826169ef565b506080820151616b0060808501826169fe565b5060a0820151616b1360a0850182616a46565b5060c0820151616b2660c08501826161b4565b5060e0820151616b3960e08501826161b4565b50610100820151616b4e6101008501826161b4565b50610120820151616b63610120850182616a8e565b50505050565b600061016082019050616b7f6000830185615a43565b616b8c6020830184616a9d565b9392505050565b6000606082019050616ba86000830186615a43565b616bb56020830185615ad5565b616bc26040830184615ad5565b949350505050565b6000604082019050616bdf6000830185615a79565b616bec6020830184615ad5565b9392505050565b600062ffffff82169050919050565b616c0b81616bf3565b8114616c1657600080fd5b50565b600081519050616c2881616c02565b92915050565b60008060408385031215616c4557616c446159db565b5b6000616c5385828601615de7565b9250506020616c6485828601616c19565b9150509250929050565b616c7781616bf3565b82525050565b6000604082019050616c926000830185616c6e565b616c9f6020830184615a43565b939250505056fea2646970667358221220f6a879361ad53d6f5ab059aadb86b62be5fe2c1bbed519bd9bf4b4675321d21464736f6c63430008190033","linkReferences":{}},"methodIdentifiers":{"cancelIssuance(uint256)":"46d66a2c","cancelRedemption(uint256)":"9219e510","factoryStorage()":"c06e1ae2","initialize(address)":"c4d66de8","issuanceIndexTokens(uint256)":"6e320408","owner()":"8da5cb5b","pause()":"8456cb59","paused()":"5c975abb","redemption(uint256)":"4a1dc092","renounceOwnership()":"715018a6","setIndexFactoryStorage(address)":"cc8659ae","transferOwnership(address)":"f2fde38b","unpause()":"3f4ba83a"},"id":21}