{"abi":[{"type":"constructor","inputs":[{"name":"_decimals","type":"uint8","internalType":"uint8"},{"name":"_initialAnswer","type":"int256","internalType":"int256"}],"stateMutability":"nonpayable"},{"type":"function","name":"decimals","inputs":[],"outputs":[{"name":"","type":"uint8","internalType":"uint8"}],"stateMutability":"view"},{"type":"function","name":"description","inputs":[],"outputs":[{"name":"","type":"string","internalType":"string"}],"stateMutability":"pure"},{"type":"function","name":"getAnswer","inputs":[{"name":"","type":"uint256","internalType":"uint256"}],"outputs":[{"name":"","type":"int256","internalType":"int256"}],"stateMutability":"view"},{"type":"function","name":"getRoundData","inputs":[{"name":"_roundId","type":"uint80","internalType":"uint80"}],"outputs":[{"name":"roundId","type":"uint80","internalType":"uint80"},{"name":"answer","type":"int256","internalType":"int256"},{"name":"startedAt","type":"uint256","internalType":"uint256"},{"name":"updatedAt","type":"uint256","internalType":"uint256"},{"name":"answeredInRound","type":"uint80","internalType":"uint80"}],"stateMutability":"view"},{"type":"function","name":"getTimestamp","inputs":[{"name":"","type":"uint256","internalType":"uint256"}],"outputs":[{"name":"","type":"uint256","internalType":"uint256"}],"stateMutability":"view"},{"type":"function","name":"latestAnswer","inputs":[],"outputs":[{"name":"","type":"int256","internalType":"int256"}],"stateMutability":"view"},{"type":"function","name":"latestRound","inputs":[],"outputs":[{"name":"","type":"uint256","internalType":"uint256"}],"stateMutability":"view"},{"type":"function","name":"latestRoundData","inputs":[],"outputs":[{"name":"roundId","type":"uint80","internalType":"uint80"},{"name":"answer","type":"int256","internalType":"int256"},{"name":"startedAt","type":"uint256","internalType":"uint256"},{"name":"updatedAt","type":"uint256","internalType":"uint256"},{"name":"answeredInRound","type":"uint80","internalType":"uint80"}],"stateMutability":"view"},{"type":"function","name":"latestTimestamp","inputs":[],"outputs":[{"name":"","type":"uint256","internalType":"uint256"}],"stateMutability":"view"},{"type":"function","name":"updateAnswer","inputs":[{"name":"_answer","type":"int256","internalType":"int256"}],"outputs":[],"stateMutability":"nonpayable"},{"type":"function","name":"updateRoundData","inputs":[{"name":"_roundId","type":"uint80","internalType":"uint80"},{"name":"_answer","type":"int256","internalType":"int256"},{"name":"_timestamp","type":"uint256","internalType":"uint256"},{"name":"_startedAt","type":"uint256","internalType":"uint256"}],"outputs":[],"stateMutability":"nonpayable"},{"type":"function","name":"version","inputs":[],"outputs":[{"name":"","type":"uint256","internalType":"uint256"}],"stateMutability":"view"},{"type":"event","name":"AnswerUpdated","inputs":[{"name":"current","type":"int256","indexed":true,"internalType":"int256"},{"name":"roundId","type":"uint256","indexed":true,"internalType":"uint256"},{"name":"updatedAt","type":"uint256","indexed":false,"internalType":"uint256"}],"anonymous":false},{"type":"event","name":"NewRound","inputs":[{"name":"roundId","type":"uint256","indexed":true,"internalType":"uint256"},{"name":"startedBy","type":"address","indexed":true,"internalType":"address"},{"name":"startedAt","type":"uint256","indexed":false,"internalType":"uint256"}],"anonymous":false}],"bytecode":{"object":"0x608060405234801561001057600080fd5b50604051610ac4380380610ac48339818101604052810190610032919061014d565b816000806101000a81548160ff021916908360ff16021790555061005b8161006260201b60201c565b505061020e565b806001819055504260028190555060036000815480929190610083906101c6565b919050555080600460006003548152602001908152602001600020819055504260056000600354815260200190815260200160002081905550426006600060035481526020019081526020016000208190555050565b600080fd5b600060ff82169050919050565b6100f4816100de565b81146100ff57600080fd5b50565b600081519050610111816100eb565b92915050565b6000819050919050565b61012a81610117565b811461013557600080fd5b50565b60008151905061014781610121565b92915050565b60008060408385031215610164576101636100d9565b5b600061017285828601610102565b925050602061018385828601610138565b9150509250929050565b7f4e487b7100000000000000000000000000000000000000000000000000000000600052601160045260246000fd5b6000819050919050565b60006101d1826101bc565b91507fffffffffffffffffffffffffffffffffffffffffffffffffffffffffffffffff82036102035761020261018d565b5b600182019050919050565b6108a78061021d6000396000f3fe608060405234801561001057600080fd5b50600436106100b45760003560e01c80638205bf6a116100715780638205bf6a1461016b5780639a6fc8f514610189578063a87a20ce146101bd578063b5ab58dc146101d9578063b633620c14610209578063feaf968c14610239576100b4565b8063313ce567146100b95780634aa2011f146100d757806350d25bcd146100f357806354fd4d5014610111578063668a0f021461012f5780637284e4161461014d575b600080fd5b6100c161025b565b6040516100ce91906104d6565b60405180910390f35b6100f160048036038101906100ec91906105a4565b61026c565b005b6100fb6102e1565b604051610108919061061a565b60405180910390f35b6101196102e7565b6040516101269190610644565b60405180910390f35b6101376102ec565b6040516101449190610644565b60405180910390f35b6101556102f2565b60405161016291906106ef565b60405180910390f35b61017361032f565b6040516101809190610644565b60405180910390f35b6101a3600480360381019061019e9190610711565b610335565b6040516101b495949392919061074d565b60405180910390f35b6101d760048036038101906101d291906107a0565b6103b2565b005b6101f360048036038101906101ee91906107cd565b610429565b604051610200919061061a565b60405180910390f35b610223600480360381019061021e91906107cd565b610441565b6040516102309190610644565b60405180910390f35b610241610459565b60405161025295949392919061074d565b60405180910390f35b60008054906101000a900460ff1681565b8369ffffffffffffffffffff16600381905550826001819055508160028190555082600460006003548152602001908152602001600020819055508160056000600354815260200190815260200160002081905550806006600060035481526020019081526020016000208190555050505050565b60015481565b600081565b60035481565b60606040518060400160405280601f81526020017f76302e382f74657374732f4d6f636b563341676772656761746f722e736f6c00815250905090565b60025481565b600080600080600085600460008869ffffffffffffffffffff16815260200190815260200160002054600660008969ffffffffffffffffffff16815260200190815260200160002054600560008a69ffffffffffffffffffff16815260200190815260200160002054899450945094509450945091939590929450565b8060018190555042600281905550600360008154809291906103d390610829565b919050555080600460006003548152602001908152602001600020819055504260056000600354815260200190815260200160002081905550426006600060035481526020019081526020016000208190555050565b60046020528060005260406000206000915090505481565b60056020528060005260406000206000915090505481565b6000806000806000600354600460006003548152602001908152602001600020546006600060035481526020019081526020016000205460056000600354815260200190815260200160002054600354945094509450945094509091929394565b600060ff82169050919050565b6104d0816104ba565b82525050565b60006020820190506104eb60008301846104c7565b92915050565b600080fd5b600069ffffffffffffffffffff82169050919050565b610515816104f6565b811461052057600080fd5b50565b6000813590506105328161050c565b92915050565b6000819050919050565b61054b81610538565b811461055657600080fd5b50565b60008135905061056881610542565b92915050565b6000819050919050565b6105818161056e565b811461058c57600080fd5b50565b60008135905061059e81610578565b92915050565b600080600080608085870312156105be576105bd6104f1565b5b60006105cc87828801610523565b94505060206105dd87828801610559565b93505060406105ee8782880161058f565b92505060606105ff8782880161058f565b91505092959194509250565b61061481610538565b82525050565b600060208201905061062f600083018461060b565b92915050565b61063e8161056e565b82525050565b60006020820190506106596000830184610635565b92915050565b600081519050919050565b600082825260208201905092915050565b60005b8381101561069957808201518184015260208101905061067e565b60008484015250505050565b6000601f19601f8301169050919050565b60006106c18261065f565b6106cb818561066a565b93506106db81856020860161067b565b6106e4816106a5565b840191505092915050565b6000602082019050818103600083015261070981846106b6565b905092915050565b600060208284031215610727576107266104f1565b5b600061073584828501610523565b91505092915050565b610747816104f6565b82525050565b600060a082019050610762600083018861073e565b61076f602083018761060b565b61077c6040830186610635565b6107896060830185610635565b610796608083018461073e565b9695505050505050565b6000602082840312156107b6576107b56104f1565b5b60006107c484828501610559565b91505092915050565b6000602082840312156107e3576107e26104f1565b5b60006107f18482850161058f565b91505092915050565b7f4e487b7100000000000000000000000000000000000000000000000000000000600052601160045260246000fd5b60006108348261056e565b91507fffffffffffffffffffffffffffffffffffffffffffffffffffffffffffffffff8203610866576108656107fa565b5b60018201905091905056fea26469706673582212207afb70dbd751ac48c208d27bb4e562a3d40ff4c59628a39819e92f8bf4dbd6aa64736f6c63430008190033","linkReferences":{}},"methodIdentifiers":{"decimals()":"313ce567","description()":"7284e416","getAnswer(uint256)":"b5ab58dc","getRoundData(uint80)":"9a6fc8f5","getTimestamp(uint256)":"b633620c","latestAnswer()":"50d25bcd","latestRound()":"668a0f02","latestRoundData()":"feaf968c","latestTimestamp()":"8205bf6a","updateAnswer(int256)":"a87a20ce","updateRoundData(uint80,int256,uint256,uint256)":"4aa2011f","version()":"54fd4d50"},"id":33}