{"abi":[{"type":"constructor","inputs":[{"name":"_decimals","type":"uint8","internalType":"uint8"},{"name":"_initialAnswer","type":"int256","internalType":"int256"}],"stateMutability":"nonpayable"},{"type":"function","name":"decimals","inputs":[],"outputs":[{"name":"","type":"uint8","internalType":"uint8"}],"stateMutability":"view"},{"type":"function","name":"description","inputs":[],"outputs":[{"name":"","type":"string","internalType":"string"}],"stateMutability":"pure"},{"type":"function","name":"getAnswer","inputs":[{"name":"","type":"uint256","internalType":"uint256"}],"outputs":[{"name":"","type":"int256","internalType":"int256"}],"stateMutability":"view"},{"type":"function","name":"getRoundData","inputs":[{"name":"_roundId","type":"uint80","internalType":"uint80"}],"outputs":[{"name":"roundId","type":"uint80","internalType":"uint80"},{"name":"answer","type":"int256","internalType":"int256"},{"name":"startedAt","type":"uint256","internalType":"uint256"},{"name":"updatedAt","type":"uint256","internalType":"uint256"},{"name":"answeredInRound","type":"uint80","internalType":"uint80"}],"stateMutability":"view"},{"type":"function","name":"getTimestamp","inputs":[{"name":"","type":"uint256","internalType":"uint256"}],"outputs":[{"name":"","type":"uint256","internalType":"uint256"}],"stateMutability":"view"},{"type":"function","name":"latestAnswer","inputs":[],"outputs":[{"name":"","type":"int256","internalType":"int256"}],"stateMutability":"view"},{"type":"function","name":"latestRound","inputs":[],"outputs":[{"name":"","type":"uint256","internalType":"uint256"}],"stateMutability":"view"},{"type":"function","name":"latestRoundData","inputs":[],"outputs":[{"name":"roundId","type":"uint80","internalType":"uint80"},{"name":"answer","type":"int256","internalType":"int256"},{"name":"startedAt","type":"uint256","internalType":"uint256"},{"name":"updatedAt","type":"uint256","internalType":"uint256"},{"name":"answeredInRound","type":"uint80","internalType":"uint80"}],"stateMutability":"view"},{"type":"function","name":"latestTimestamp","inputs":[],"outputs":[{"name":"","type":"uint256","internalType":"uint256"}],"stateMutability":"view"},{"type":"function","name":"updateAnswer","inputs":[{"name":"_answer","type":"int256","internalType":"int256"}],"outputs":[],"stateMutability":"nonpayable"},{"type":"function","name":"updateRoundData","inputs":[{"name":"_roundId","type":"uint80","internalType":"uint80"},{"name":"_answer","type":"int256","internalType":"int256"},{"name":"_timestamp","type":"uint256","internalType":"uint256"},{"name":"_startedAt","type":"uint256","internalType":"uint256"}],"outputs":[],"stateMutability":"nonpayable"},{"type":"function","name":"version","inputs":[],"outputs":[{"name":"","type":"uint256","internalType":"uint256"}],"stateMutability":"view"},{"type":"event","name":"AnswerUpdated","inputs":[{"name":"current","type":"int256","indexed":true,"internalType":"int256"},{"name":"roundId","type":"uint256","indexed":true,"internalType":"uint256"},{"name":"updatedAt","type":"uint256","indexed":false,"internalType":"uint256"}],"anonymous":false},{"type":"event","name":"NewRound","inputs":[{"name":"roundId","type":"uint256","indexed":true,"internalType":"uint256"},{"name":"startedBy","type":"address","indexed":true,"internalType":"address"},{"name":"startedAt","type":"uint256","indexed":false,"internalType":"uint256"}],"anonymous":false}],"bytecode":{"object":"0x608060405234801561000f575f80fd5b50604051610a41380380610a418339818101604052810190610031919061013d565b815f806101000a81548160ff021916908360ff1602179055506100598161006060201b60201c565b50506101f8565b806001819055504260028190555060035f815480929190610080906101b1565b91905055508060045f60035481526020019081526020015f20819055504260055f60035481526020019081526020015f20819055504260065f60035481526020019081526020015f208190555050565b5f80fd5b5f60ff82169050919050565b6100e9816100d4565b81146100f3575f80fd5b50565b5f81519050610104816100e0565b92915050565b5f819050919050565b61011c8161010a565b8114610126575f80fd5b50565b5f8151905061013781610113565b92915050565b5f8060408385031215610153576101526100d0565b5b5f610160858286016100f6565b925050602061017185828601610129565b9150509250929050565b7f4e487b71000000000000000000000000000000000000000000000000000000005f52601160045260245ffd5b5f819050919050565b5f6101bb826101a8565b91507fffffffffffffffffffffffffffffffffffffffffffffffffffffffffffffffff82036101ed576101ec61017b565b5b600182019050919050565b61083c806102055f395ff3fe608060405234801561000f575f80fd5b50600436106100b2575f3560e01c80638205bf6a1161006f5780638205bf6a146101685780639a6fc8f514610186578063a87a20ce146101ba578063b5ab58dc146101d6578063b633620c14610206578063feaf968c14610236576100b2565b8063313ce567146100b65780634aa2011f146100d457806350d25bcd146100f057806354fd4d501461010e578063668a0f021461012c5780637284e4161461014a575b5f80fd5b6100be610258565b6040516100cb91906104ab565b60405180910390f35b6100ee60048036038101906100e9919061056d565b610268565b005b6100f86102d7565b60405161010591906105e0565b60405180910390f35b6101166102dd565b6040516101239190610608565b60405180910390f35b6101346102e1565b6040516101419190610608565b60405180910390f35b6101526102e7565b60405161015f9190610691565b60405180910390f35b610170610324565b60405161017d9190610608565b60405180910390f35b6101a0600480360381019061019b91906106b1565b61032a565b6040516101b19594939291906106eb565b60405180910390f35b6101d460048036038101906101cf919061073c565b61039e565b005b6101f060048036038101906101eb9190610767565b61040e565b6040516101fd91906105e0565b60405180910390f35b610220600480360381019061021b9190610767565b610423565b60405161022d9190610608565b60405180910390f35b61023e610438565b60405161024f9594939291906106eb565b60405180910390f35b5f8054906101000a900460ff1681565b8369ffffffffffffffffffff1660038190555082600181905550816002819055508260045f60035481526020019081526020015f20819055508160055f60035481526020019081526020015f20819055508060065f60035481526020019081526020015f208190555050505050565b60015481565b5f81565b60035481565b60606040518060400160405280601f81526020017f76302e382f74657374732f4d6f636b563341676772656761746f722e736f6c00815250905090565b60025481565b5f805f805f8560045f8869ffffffffffffffffffff1681526020019081526020015f205460065f8969ffffffffffffffffffff1681526020019081526020015f205460055f8a69ffffffffffffffffffff1681526020019081526020015f2054899450945094509450945091939590929450565b806001819055504260028190555060035f8154809291906103be906107bf565b91905055508060045f60035481526020019081526020015f20819055504260055f60035481526020019081526020015f20819055504260065f60035481526020019081526020015f208190555050565b6004602052805f5260405f205f915090505481565b6005602052805f5260405f205f915090505481565b5f805f805f60035460045f60035481526020019081526020015f205460065f60035481526020019081526020015f205460055f60035481526020019081526020015f2054600354945094509450945094509091929394565b5f60ff82169050919050565b6104a581610490565b82525050565b5f6020820190506104be5f83018461049c565b92915050565b5f80fd5b5f69ffffffffffffffffffff82169050919050565b6104e6816104c8565b81146104f0575f80fd5b50565b5f81359050610501816104dd565b92915050565b5f819050919050565b61051981610507565b8114610523575f80fd5b50565b5f8135905061053481610510565b92915050565b5f819050919050565b61054c8161053a565b8114610556575f80fd5b50565b5f8135905061056781610543565b92915050565b5f805f8060808587031215610585576105846104c4565b5b5f610592878288016104f3565b94505060206105a387828801610526565b93505060406105b487828801610559565b92505060606105c587828801610559565b91505092959194509250565b6105da81610507565b82525050565b5f6020820190506105f35f8301846105d1565b92915050565b6106028161053a565b82525050565b5f60208201905061061b5f8301846105f9565b92915050565b5f81519050919050565b5f82825260208201905092915050565b8281835e5f83830152505050565b5f601f19601f8301169050919050565b5f61066382610621565b61066d818561062b565b935061067d81856020860161063b565b61068681610649565b840191505092915050565b5f6020820190508181035f8301526106a98184610659565b905092915050565b5f602082840312156106c6576106c56104c4565b5b5f6106d3848285016104f3565b91505092915050565b6106e5816104c8565b82525050565b5f60a0820190506106fe5f8301886106dc565b61070b60208301876105d1565b61071860408301866105f9565b61072560608301856105f9565b61073260808301846106dc565b9695505050505050565b5f60208284031215610751576107506104c4565b5b5f61075e84828501610526565b91505092915050565b5f6020828403121561077c5761077b6104c4565b5b5f61078984828501610559565b91505092915050565b7f4e487b71000000000000000000000000000000000000000000000000000000005f52601160045260245ffd5b5f6107c98261053a565b91507fffffffffffffffffffffffffffffffffffffffffffffffffffffffffffffffff82036107fb576107fa610792565b5b60018201905091905056fea2646970667358221220ac33004eb654fcc6a72622f2d804e8ef699b9bbcc1cba8844effd65e2303147164736f6c63430008190033","linkReferences":{}},"methodIdentifiers":{"decimals()":"313ce567","description()":"7284e416","getAnswer(uint256)":"b5ab58dc","getRoundData(uint80)":"9a6fc8f5","getTimestamp(uint256)":"b633620c","latestAnswer()":"50d25bcd","latestRound()":"668a0f02","latestRoundData()":"feaf968c","latestTimestamp()":"8205bf6a","updateAnswer(int256)":"a87a20ce","updateRoundData(uint80,int256,uint256,uint256)":"4aa2011f","version()":"54fd4d50"},"id":33}