{"abi":[{"type":"constructor","inputs":[{"name":"admin","type":"address","internalType":"address"}],"stateMutability":"nonpayable"},{"type":"function","name":"DEFAULT_ADMIN_ROLE","inputs":[],"outputs":[{"name":"","type":"bytes32","internalType":"bytes32"}],"stateMutability":"view"},{"type":"function","name":"OPERATOR_ROLE","inputs":[],"outputs":[{"name":"","type":"bytes32","internalType":"bytes32"}],"stateMutability":"view"},{"type":"function","name":"acceptDefaultAdminTransfer","inputs":[],"outputs":[],"stateMutability":"nonpayable"},{"type":"function","name":"beginDefaultAdminTransfer","inputs":[{"name":"newAdmin","type":"address","internalType":"address"}],"outputs":[],"stateMutability":"nonpayable"},{"type":"function","name":"cancelDefaultAdminTransfer","inputs":[],"outputs":[],"stateMutability":"nonpayable"},{"type":"function","name":"changeDefaultAdminDelay","inputs":[{"name":"newDelay","type":"uint48","internalType":"uint48"}],"outputs":[],"stateMutability":"nonpayable"},{"type":"function","name":"defaultAdmin","inputs":[],"outputs":[{"name":"","type":"address","internalType":"address"}],"stateMutability":"view"},{"type":"function","name":"defaultAdminDelay","inputs":[],"outputs":[{"name":"","type":"uint48","internalType":"uint48"}],"stateMutability":"view"},{"type":"function","name":"defaultAdminDelayIncreaseWait","inputs":[],"outputs":[{"name":"","type":"uint48","internalType":"uint48"}],"stateMutability":"view"},{"type":"function","name":"getRoleAdmin","inputs":[{"name":"role","type":"bytes32","internalType":"bytes32"}],"outputs":[{"name":"","type":"bytes32","internalType":"bytes32"}],"stateMutability":"view"},{"type":"function","name":"grantRole","inputs":[{"name":"role","type":"bytes32","internalType":"bytes32"},{"name":"account","type":"address","internalType":"address"}],"outputs":[],"stateMutability":"nonpayable"},{"type":"function","name":"hasRole","inputs":[{"name":"role","type":"bytes32","internalType":"bytes32"},{"name":"account","type":"address","internalType":"address"}],"outputs":[{"name":"","type":"bool","internalType":"bool"}],"stateMutability":"view"},{"type":"function","name":"owner","inputs":[],"outputs":[{"name":"","type":"address","internalType":"address"}],"stateMutability":"view"},{"type":"function","name":"pendingDefaultAdmin","inputs":[],"outputs":[{"name":"newAdmin","type":"address","internalType":"address"},{"name":"schedule","type":"uint48","internalType":"uint48"}],"stateMutability":"view"},{"type":"function","name":"pendingDefaultAdminDelay","inputs":[],"outputs":[{"name":"newDelay","type":"uint48","internalType":"uint48"},{"name":"schedule","type":"uint48","internalType":"uint48"}],"stateMutability":"view"},{"type":"function","name":"renounceRole","inputs":[{"name":"role","type":"bytes32","internalType":"bytes32"},{"name":"account","type":"address","internalType":"address"}],"outputs":[],"stateMutability":"nonpayable"},{"type":"function","name":"rescueERC20","inputs":[{"name":"token","type":"address","internalType":"contract IERC20"},{"name":"to","type":"address","internalType":"address"},{"name":"amount","type":"uint256","internalType":"uint256"}],"outputs":[],"stateMutability":"nonpayable"},{"type":"function","name":"revokeRole","inputs":[{"name":"role","type":"bytes32","internalType":"bytes32"},{"name":"account","type":"address","internalType":"address"}],"outputs":[],"stateMutability":"nonpayable"},{"type":"function","name":"rollbackDefaultAdminDelay","inputs":[],"outputs":[],"stateMutability":"nonpayable"},{"type":"function","name":"supportsInterface","inputs":[{"name":"interfaceId","type":"bytes4","internalType":"bytes4"}],"outputs":[{"name":"","type":"bool","internalType":"bool"}],"stateMutability":"view"},{"type":"function","name":"withdrawFunds","inputs":[{"name":"token","type":"address","internalType":"contract IERC20"},{"name":"user","type":"address","internalType":"address"},{"name":"amount","type":"uint256","internalType":"uint256"}],"outputs":[],"stateMutability":"nonpayable"},{"type":"event","name":"DefaultAdminDelayChangeCanceled","inputs":[],"anonymous":false},{"type":"event","name":"DefaultAdminDelayChangeScheduled","inputs":[{"name":"newDelay","type":"uint48","indexed":false,"internalType":"uint48"},{"name":"effectSchedule","type":"uint48","indexed":false,"internalType":"uint48"}],"anonymous":false},{"type":"event","name":"DefaultAdminTransferCanceled","inputs":[],"anonymous":false},{"type":"event","name":"DefaultAdminTransferScheduled","inputs":[{"name":"newAdmin","type":"address","indexed":true,"internalType":"address"},{"name":"acceptSchedule","type":"uint48","indexed":false,"internalType":"uint48"}],"anonymous":false},{"type":"event","name":"FundsWithdrawn","inputs":[{"name":"token","type":"address","indexed":false,"internalType":"contract IERC20"},{"name":"user","type":"address","indexed":false,"internalType":"address"},{"name":"amount","type":"uint256","indexed":false,"internalType":"uint256"}],"anonymous":false},{"type":"event","name":"RoleAdminChanged","inputs":[{"name":"role","type":"bytes32","indexed":true,"internalType":"bytes32"},{"name":"previousAdminRole","type":"bytes32","indexed":true,"internalType":"bytes32"},{"name":"newAdminRole","type":"bytes32","indexed":true,"internalType":"bytes32"}],"anonymous":false},{"type":"event","name":"RoleGranted","inputs":[{"name":"role","type":"bytes32","indexed":true,"internalType":"bytes32"},{"name":"account","type":"address","indexed":true,"internalType":"address"},{"name":"sender","type":"address","indexed":true,"internalType":"address"}],"anonymous":false},{"type":"event","name":"RoleRevoked","inputs":[{"name":"role","type":"bytes32","indexed":true,"internalType":"bytes32"},{"name":"account","type":"address","indexed":true,"internalType":"address"},{"name":"sender","type":"address","indexed":true,"internalType":"address"}],"anonymous":false},{"type":"error","name":"AccessControlBadConfirmation","inputs":[]},{"type":"error","name":"AccessControlEnforcedDefaultAdminDelay","inputs":[{"name":"schedule","type":"uint48","internalType":"uint48"}]},{"type":"error","name":"AccessControlEnforcedDefaultAdminRules","inputs":[]},{"type":"error","name":"AccessControlInvalidDefaultAdmin","inputs":[{"name":"defaultAdmin","type":"address","internalType":"address"}]},{"type":"error","name":"AccessControlUnauthorizedAccount","inputs":[{"name":"account","type":"address","internalType":"address"},{"name":"neededRole","type":"bytes32","internalType":"bytes32"}]},{"type":"error","name":"AddressEmptyCode","inputs":[{"name":"target","type":"address","internalType":"address"}]},{"type":"error","name":"AddressInsufficientBalance","inputs":[{"name":"account","type":"address","internalType":"address"}]},{"type":"error","name":"FailedInnerCall","inputs":[]},{"type":"error","name":"SafeCastOverflowedUintDowncast","inputs":[{"name":"bits","type":"uint8","internalType":"uint8"},{"name":"value","type":"uint256","internalType":"uint256"}]},{"type":"error","name":"SafeERC20FailedOperation","inputs":[{"name":"token","type":"address","internalType":"address"}]}],"bytecode":{"object":"0x608060405234801561000f575f80fd5b506040516120653803806120658339818101604052810190610031919061039d565b5f815f73ffffffffffffffffffffffffffffffffffffffff168173ffffffffffffffffffffffffffffffffffffffff16036100a3575f6040517fc22c802200000000000000000000000000000000000000000000000000000000815260040161009a91906103d7565b60405180910390fd5b816001601a6101000a81548165ffffffffffff021916908365ffffffffffff1602179055506100da5f801b826100e360201b60201c565b505050506103f0565b5f805f1b83036101a0575f73ffffffffffffffffffffffffffffffffffffffff166101126101b860201b60201c565b73ffffffffffffffffffffffffffffffffffffffff161461015f576040517f3fc3c27a00000000000000000000000000000000000000000000000000000000815260040160405180910390fd5b8160025f6101000a81548173ffffffffffffffffffffffffffffffffffffffff021916908373ffffffffffffffffffffffffffffffffffffffff1602179055505b6101b083836101e060201b60201c565b905092915050565b5f60025f9054906101000a900473ffffffffffffffffffffffffffffffffffffffff16905090565b5f6101f183836102d560201b60201c565b6102cb5760015f808581526020019081526020015f205f015f8473ffffffffffffffffffffffffffffffffffffffff1673ffffffffffffffffffffffffffffffffffffffff1681526020019081526020015f205f6101000a81548160ff02191690831515021790555061026861033860201b60201c565b73ffffffffffffffffffffffffffffffffffffffff168273ffffffffffffffffffffffffffffffffffffffff16847f2f8788117e7eff1d82e926ec794901d17c78024a50270940304540a733656f0d60405160405180910390a4600190506102cf565b5f90505b92915050565b5f805f8481526020019081526020015f205f015f8373ffffffffffffffffffffffffffffffffffffffff1673ffffffffffffffffffffffffffffffffffffffff1681526020019081526020015f205f9054906101000a900460ff16905092915050565b5f33905090565b5f80fd5b5f73ffffffffffffffffffffffffffffffffffffffff82169050919050565b5f61036c82610343565b9050919050565b61037c81610362565b8114610386575f80fd5b50565b5f8151905061039781610373565b92915050565b5f602082840312156103b2576103b161033f565b5b5f6103bf84828501610389565b91505092915050565b6103d181610362565b82525050565b5f6020820190506103ea5f8301846103c8565b92915050565b611c68806103fd5f395ff3fe608060405234801561000f575f80fd5b5060043610610135575f3560e01c80638da5cb5b116100b6578063cc8463c81161007a578063cc8463c814610312578063cefc142914610330578063cf6eefb71461033a578063d547741f14610359578063d602b9fd14610375578063f5b541a61461037f57610135565b80638da5cb5b1461026b57806391d1485414610289578063a1eda53c146102b9578063a217fddf146102d8578063b2118a8d146102f657610135565b80632f2ff15d116100fd5780632f2ff15d146101dd57806336568abe146101f9578063634e93da14610215578063649a5ec71461023157806384ef8ffc1461024d57610135565b806301ffc9a714610139578063022d63fb146101695780630aa6220b146101875780631c20fadd14610191578063248a9ca3146101ad575b5f80fd5b610153600480360381019061014e9190611614565b61039d565b6040516101609190611659565b60405180910390f35b610171610416565b60405161017e9190611692565b60405180910390f35b61018f610420565b005b6101ab60048036038101906101a69190611773565b610437565b005b6101c760048036038101906101c291906117f6565b6104cd565b6040516101d49190611830565b60405180910390f35b6101f760048036038101906101f29190611849565b6104e9565b005b610213600480360381019061020e9190611849565b610532565b005b61022f600480360381019061022a9190611887565b610644565b005b61024b600480360381019061024691906118dc565b61065d565b005b610255610676565b6040516102629190611916565b60405180910390f35b61027361069e565b6040516102809190611916565b60405180910390f35b6102a3600480360381019061029e9190611849565b6106ac565b6040516102b09190611659565b60405180910390f35b6102c161070f565b6040516102cf92919061192f565b60405180910390f35b6102e061076d565b6040516102ed9190611830565b60405180910390f35b610310600480360381019061030b9190611773565b610773565b005b61031a6107b0565b6040516103279190611692565b60405180910390f35b61033861081d565b005b6103426108b2565b604051610350929190611956565b60405180910390f35b610373600480360381019061036e9190611849565b6108f3565b005b61037d61093c565b005b610387610953565b6040516103949190611830565b60405180910390f35b5f7f31498786000000000000000000000000000000000000000000000000000000007bffffffffffffffffffffffffffffffffffffffffffffffffffffffff1916827bffffffffffffffffffffffffffffffffffffffffffffffffffffffff1916148061040f575061040e82610977565b5b9050919050565b5f62069780905090565b5f801b61042c816109f0565b610434610a04565b50565b7f97667070c54ef182b0f5858b034beac1b6f3089aa2d3188bb1e8929f4fa9b929610461816109f0565b7fa92ff919b850e4909ab2261d907ef955f11bc1716733a6cbece38d163a69af8a848484604051610494939291906119e7565b60405180910390a16104c783838673ffffffffffffffffffffffffffffffffffffffff16610a109092919063ffffffff16565b50505050565b5f805f8381526020019081526020015f20600101549050919050565b5f801b8203610524576040517f3fc3c27a00000000000000000000000000000000000000000000000000000000815260040160405180910390fd5b61052e8282610a8f565b5050565b5f801b821480156105755750610546610676565b73ffffffffffffffffffffffffffffffffffffffff168173ffffffffffffffffffffffffffffffffffffffff16145b15610636575f806105846108b2565b915091505f73ffffffffffffffffffffffffffffffffffffffff168273ffffffffffffffffffffffffffffffffffffffff161415806105c957506105c781610ab1565b155b806105da57506105d881610ac5565b155b1561061c57806040517f19ca5ebb0000000000000000000000000000000000000000000000000000000081526004016106139190611692565b60405180910390fd5b600160146101000a81549065ffffffffffff021916905550505b6106408282610ad8565b5050565b5f801b610650816109f0565b61065982610b53565b5050565b5f801b610669816109f0565b61067282610bcd565b5050565b5f60025f9054906101000a900473ffffffffffffffffffffffffffffffffffffffff16905090565b5f6106a7610676565b905090565b5f805f8481526020019081526020015f205f015f8373ffffffffffffffffffffffffffffffffffffffff1673ffffffffffffffffffffffffffffffffffffffff1681526020019081526020015f205f9054906101000a900460ff16905092915050565b5f806002601a9054906101000a900465ffffffffffff16905061073181610ab1565b8015610743575061074181610ac5565b155b61074e575f80610765565b600260149054906101000a900465ffffffffffff16815b915091509091565b5f801b81565b5f801b61077f816109f0565b6107aa83838673ffffffffffffffffffffffffffffffffffffffff16610a109092919063ffffffff16565b50505050565b5f806002601a9054906101000a900465ffffffffffff1690506107d281610ab1565b80156107e357506107e281610ac5565b5b610801576001601a9054906101000a900465ffffffffffff16610817565b600260149054906101000a900465ffffffffffff165b91505090565b5f6108266108b2565b5090508073ffffffffffffffffffffffffffffffffffffffff16610848610c33565b73ffffffffffffffffffffffffffffffffffffffff16146108a75761086b610c33565b6040517fc22c802200000000000000000000000000000000000000000000000000000000815260040161089e9190611916565b60405180910390fd5b6108af610c3a565b50565b5f8060015f9054906101000a900473ffffffffffffffffffffffffffffffffffffffff16600160149054906101000a900465ffffffffffff16915091509091565b5f801b820361092e576040517f3fc3c27a00000000000000000000000000000000000000000000000000000000815260040160405180910390fd5b6109388282610d05565b5050565b5f801b610948816109f0565b610950610d27565b50565b7f97667070c54ef182b0f5858b034beac1b6f3089aa2d3188bb1e8929f4fa9b92981565b5f7f7965db0b000000000000000000000000000000000000000000000000000000007bffffffffffffffffffffffffffffffffffffffffffffffffffffffff1916827bffffffffffffffffffffffffffffffffffffffffffffffffffffffff191614806109e957506109e882610d33565b5b9050919050565b610a01816109fc610c33565b610d9c565b50565b610a0e5f80610ded565b565b610a8a838473ffffffffffffffffffffffffffffffffffffffff1663a9059cbb8585604051602401610a43929190611a1c565b604051602081830303815290604052915060e01b6020820180517bffffffffffffffffffffffffffffffffffffffffffffffffffffffff8381831617835250505050610edc565b505050565b610a98826104cd565b610aa1816109f0565b610aab8383610f71565b50505050565b5f808265ffffffffffff1614159050919050565b5f428265ffffffffffff16109050919050565b610ae0610c33565b73ffffffffffffffffffffffffffffffffffffffff168173ffffffffffffffffffffffffffffffffffffffff1614610b44576040517f6697b23200000000000000000000000000000000000000000000000000000000815260040160405180910390fd5b610b4e828261103a565b505050565b5f610b5c6107b0565b610b65426110ba565b610b6f9190611a70565b9050610b7b8282611113565b8173ffffffffffffffffffffffffffffffffffffffff167f3377dc44241e779dd06afab5b788a35ca5f3b778836e2990bdb26a2a4b2e5ed682604051610bc19190611692565b60405180910390a25050565b5f610bd7826111c4565b610be0426110ba565b610bea9190611a70565b9050610bf68282610ded565b7ff1038c18cf84a56e432fdbfaf746924b7ea511dfe03a6506a0ceba4888788d9b8282604051610c2792919061192f565b60405180910390a15050565b5f33905090565b5f80610c446108b2565b91509150610c5181610ab1565b1580610c635750610c6181610ac5565b155b15610ca557806040517f19ca5ebb000000000000000000000000000000000000000000000000000000008152600401610c9c9190611692565b60405180910390fd5b610cb85f801b610cb3610676565b61103a565b50610cc55f801b83610f71565b5060015f6101000a81549073ffffffffffffffffffffffffffffffffffffffff0219169055600160146101000a81549065ffffffffffff02191690555050565b610d0e826104cd565b610d17816109f0565b610d21838361103a565b50505050565b610d315f80611113565b565b5f7f01ffc9a7000000000000000000000000000000000000000000000000000000007bffffffffffffffffffffffffffffffffffffffffffffffffffffffff1916827bffffffffffffffffffffffffffffffffffffffffffffffffffffffff1916149050919050565b610da682826106ac565b610de95780826040517fe2517d3f000000000000000000000000000000000000000000000000000000008152600401610de0929190611aa9565b60405180910390fd5b5050565b5f6002601a9054906101000a900465ffffffffffff169050610e0e81610ab1565b15610e8d57610e1c81610ac5565b15610e5f57600260149054906101000a900465ffffffffffff166001601a6101000a81548165ffffffffffff021916908365ffffffffffff160217905550610e8c565b7f2b1fa2edafe6f7b9e97c1a9e0c3660e645beb2dcaa2d45bdbf9beaf5472e1ec560405160405180910390a15b5b82600260146101000a81548165ffffffffffff021916908365ffffffffffff160217905550816002601a6101000a81548165ffffffffffff021916908365ffffffffffff160217905550505050565b5f610f06828473ffffffffffffffffffffffffffffffffffffffff1661122290919063ffffffff16565b90505f815114158015610f2a575080806020019051810190610f289190611afa565b155b15610f6c57826040517f5274afe7000000000000000000000000000000000000000000000000000000008152600401610f639190611916565b60405180910390fd5b505050565b5f805f1b8303611028575f73ffffffffffffffffffffffffffffffffffffffff16610f9a610676565b73ffffffffffffffffffffffffffffffffffffffff1614610fe7576040517f3fc3c27a00000000000000000000000000000000000000000000000000000000815260040160405180910390fd5b8160025f6101000a81548173ffffffffffffffffffffffffffffffffffffffff021916908373ffffffffffffffffffffffffffffffffffffffff1602179055505b6110328383611237565b905092915050565b5f805f1b8314801561107e575061104f610676565b73ffffffffffffffffffffffffffffffffffffffff168273ffffffffffffffffffffffffffffffffffffffff16145b156110a85760025f6101000a81549073ffffffffffffffffffffffffffffffffffffffff02191690555b6110b28383611320565b905092915050565b5f65ffffffffffff801682111561110b576030826040517f6dfcc650000000000000000000000000000000000000000000000000000000008152600401611102929190611b6a565b60405180910390fd5b819050919050565b5f61111c6108b2565b9150508260015f6101000a81548173ffffffffffffffffffffffffffffffffffffffff021916908373ffffffffffffffffffffffffffffffffffffffff16021790555081600160146101000a81548165ffffffffffff021916908365ffffffffffff16021790555061118d81610ab1565b156111bf577f8886ebfc4259abdbc16601dd8fb5678e54878f47b3c34836cfc51154a960510960405160405180910390a15b505050565b5f806111ce6107b0565b90508065ffffffffffff168365ffffffffffff16116111f85782816111f39190611b91565b61121a565b6112198365ffffffffffff1661120c610416565b65ffffffffffff16611409565b5b915050919050565b606061122f83835f611421565b905092915050565b5f61124283836106ac565b6113165760015f808581526020019081526020015f205f015f8473ffffffffffffffffffffffffffffffffffffffff1673ffffffffffffffffffffffffffffffffffffffff1681526020019081526020015f205f6101000a81548160ff0219169083151502179055506112b3610c33565b73ffffffffffffffffffffffffffffffffffffffff168273ffffffffffffffffffffffffffffffffffffffff16847f2f8788117e7eff1d82e926ec794901d17c78024a50270940304540a733656f0d60405160405180910390a46001905061131a565b5f90505b92915050565b5f61132b83836106ac565b156113ff575f805f8581526020019081526020015f205f015f8473ffffffffffffffffffffffffffffffffffffffff1673ffffffffffffffffffffffffffffffffffffffff1681526020019081526020015f205f6101000a81548160ff02191690831515021790555061139c610c33565b73ffffffffffffffffffffffffffffffffffffffff168273ffffffffffffffffffffffffffffffffffffffff16847ff6391f5c32d9c69d2a47ea670b442974b53935d1edc7fd64eb21e047a839171b60405160405180910390a460019050611403565b5f90505b92915050565b5f8183106114175781611419565b825b905092915050565b60608147101561146857306040517fcd78605900000000000000000000000000000000000000000000000000000000815260040161145f9190611916565b60405180910390fd5b5f808573ffffffffffffffffffffffffffffffffffffffff1684866040516114909190611c1c565b5f6040518083038185875af1925050503d805f81146114ca576040519150601f19603f3d011682016040523d82523d5f602084013e6114cf565b606091505b50915091506114df8683836114ea565b925050509392505050565b6060826114ff576114fa82611577565b61156f565b5f825114801561152557505f8473ffffffffffffffffffffffffffffffffffffffff163b145b1561156757836040517f9996b31500000000000000000000000000000000000000000000000000000000815260040161155e9190611916565b60405180910390fd5b819050611570565b5b9392505050565b5f815111156115895780518082602001fd5b6040517f1425ea4200000000000000000000000000000000000000000000000000000000815260040160405180910390fd5b5f80fd5b5f7fffffffff0000000000000000000000000000000000000000000000000000000082169050919050565b6115f3816115bf565b81146115fd575f80fd5b50565b5f8135905061160e816115ea565b92915050565b5f60208284031215611629576116286115bb565b5b5f61163684828501611600565b91505092915050565b5f8115159050919050565b6116538161163f565b82525050565b5f60208201905061166c5f83018461164a565b92915050565b5f65ffffffffffff82169050919050565b61168c81611672565b82525050565b5f6020820190506116a55f830184611683565b92915050565b5f73ffffffffffffffffffffffffffffffffffffffff82169050919050565b5f6116d4826116ab565b9050919050565b5f6116e5826116ca565b9050919050565b6116f5816116db565b81146116ff575f80fd5b50565b5f81359050611710816116ec565b92915050565b61171f816116ca565b8114611729575f80fd5b50565b5f8135905061173a81611716565b92915050565b5f819050919050565b61175281611740565b811461175c575f80fd5b50565b5f8135905061176d81611749565b92915050565b5f805f6060848603121561178a576117896115bb565b5b5f61179786828701611702565b93505060206117a88682870161172c565b92505060406117b98682870161175f565b9150509250925092565b5f819050919050565b6117d5816117c3565b81146117df575f80fd5b50565b5f813590506117f0816117cc565b92915050565b5f6020828403121561180b5761180a6115bb565b5b5f611818848285016117e2565b91505092915050565b61182a816117c3565b82525050565b5f6020820190506118435f830184611821565b92915050565b5f806040838503121561185f5761185e6115bb565b5b5f61186c858286016117e2565b925050602061187d8582860161172c565b9150509250929050565b5f6020828403121561189c5761189b6115bb565b5b5f6118a98482850161172c565b91505092915050565b6118bb81611672565b81146118c5575f80fd5b50565b5f813590506118d6816118b2565b92915050565b5f602082840312156118f1576118f06115bb565b5b5f6118fe848285016118c8565b91505092915050565b611910816116ca565b82525050565b5f6020820190506119295f830184611907565b92915050565b5f6040820190506119425f830185611683565b61194f6020830184611683565b9392505050565b5f6040820190506119695f830185611907565b6119766020830184611683565b9392505050565b5f819050919050565b5f6119a061199b611996846116ab565b61197d565b6116ab565b9050919050565b5f6119b182611986565b9050919050565b5f6119c2826119a7565b9050919050565b6119d2816119b8565b82525050565b6119e181611740565b82525050565b5f6060820190506119fa5f8301866119c9565b611a076020830185611907565b611a1460408301846119d8565b949350505050565b5f604082019050611a2f5f830185611907565b611a3c60208301846119d8565b9392505050565b7f4e487b71000000000000000000000000000000000000000000000000000000005f52601160045260245ffd5b5f611a7a82611672565b9150611a8583611672565b9250828201905065ffffffffffff811115611aa357611aa2611a43565b5b92915050565b5f604082019050611abc5f830185611907565b611ac96020830184611821565b9392505050565b611ad98161163f565b8114611ae3575f80fd5b50565b5f81519050611af481611ad0565b92915050565b5f60208284031215611b0f57611b0e6115bb565b5b5f611b1c84828501611ae6565b91505092915050565b5f819050919050565b5f60ff82169050919050565b5f611b54611b4f611b4a84611b25565b61197d565b611b2e565b9050919050565b611b6481611b3a565b82525050565b5f604082019050611b7d5f830185611b5b565b611b8a60208301846119d8565b9392505050565b5f611b9b82611672565b9150611ba683611672565b9250828203905065ffffffffffff811115611bc457611bc3611a43565b5b92915050565b5f81519050919050565b5f81905092915050565b8281835e5f83830152505050565b5f611bf682611bca565b611c008185611bd4565b9350611c10818560208601611bde565b80840191505092915050565b5f611c278284611bec565b91508190509291505056fea2646970667358221220eb6e03658610a02ff86ba3b9447f795cd118718d83531976f3a5dda72921e05564736f6c63430008190033","linkReferences":{}},"methodIdentifiers":{"DEFAULT_ADMIN_ROLE()":"a217fddf","OPERATOR_ROLE()":"f5b541a6","acceptDefaultAdminTransfer()":"cefc1429","beginDefaultAdminTransfer(address)":"634e93da","cancelDefaultAdminTransfer()":"d602b9fd","changeDefaultAdminDelay(uint48)":"649a5ec7","defaultAdmin()":"84ef8ffc","defaultAdminDelay()":"cc8463c8","defaultAdminDelayIncreaseWait()":"022d63fb","getRoleAdmin(bytes32)":"248a9ca3","grantRole(bytes32,address)":"2f2ff15d","hasRole(bytes32,address)":"91d14854","owner()":"8da5cb5b","pendingDefaultAdmin()":"cf6eefb7","pendingDefaultAdminDelay()":"a1eda53c","renounceRole(bytes32,address)":"36568abe","rescueERC20(address,address,uint256)":"b2118a8d","revokeRole(bytes32,address)":"d547741f","rollbackDefaultAdminDelay()":"0aa6220b","supportsInterface(bytes4)":"01ffc9a7","withdrawFunds(address,address,uint256)":"1c20fadd"},"id":22}