{"abi":[{"type":"constructor","inputs":[{"name":"admin","type":"address","internalType":"address"}],"stateMutability":"nonpayable"},{"type":"function","name":"DEFAULT_ADMIN_ROLE","inputs":[],"outputs":[{"name":"","type":"bytes32","internalType":"bytes32"}],"stateMutability":"view"},{"type":"function","name":"OPERATOR_ROLE","inputs":[],"outputs":[{"name":"","type":"bytes32","internalType":"bytes32"}],"stateMutability":"view"},{"type":"function","name":"acceptDefaultAdminTransfer","inputs":[],"outputs":[],"stateMutability":"nonpayable"},{"type":"function","name":"beginDefaultAdminTransfer","inputs":[{"name":"newAdmin","type":"address","internalType":"address"}],"outputs":[],"stateMutability":"nonpayable"},{"type":"function","name":"cancelDefaultAdminTransfer","inputs":[],"outputs":[],"stateMutability":"nonpayable"},{"type":"function","name":"changeDefaultAdminDelay","inputs":[{"name":"newDelay","type":"uint48","internalType":"uint48"}],"outputs":[],"stateMutability":"nonpayable"},{"type":"function","name":"defaultAdmin","inputs":[],"outputs":[{"name":"","type":"address","internalType":"address"}],"stateMutability":"view"},{"type":"function","name":"defaultAdminDelay","inputs":[],"outputs":[{"name":"","type":"uint48","internalType":"uint48"}],"stateMutability":"view"},{"type":"function","name":"defaultAdminDelayIncreaseWait","inputs":[],"outputs":[{"name":"","type":"uint48","internalType":"uint48"}],"stateMutability":"view"},{"type":"function","name":"getRoleAdmin","inputs":[{"name":"role","type":"bytes32","internalType":"bytes32"}],"outputs":[{"name":"","type":"bytes32","internalType":"bytes32"}],"stateMutability":"view"},{"type":"function","name":"grantRole","inputs":[{"name":"role","type":"bytes32","internalType":"bytes32"},{"name":"account","type":"address","internalType":"address"}],"outputs":[],"stateMutability":"nonpayable"},{"type":"function","name":"hasRole","inputs":[{"name":"role","type":"bytes32","internalType":"bytes32"},{"name":"account","type":"address","internalType":"address"}],"outputs":[{"name":"","type":"bool","internalType":"bool"}],"stateMutability":"view"},{"type":"function","name":"owner","inputs":[],"outputs":[{"name":"","type":"address","internalType":"address"}],"stateMutability":"view"},{"type":"function","name":"pendingDefaultAdmin","inputs":[],"outputs":[{"name":"newAdmin","type":"address","internalType":"address"},{"name":"schedule","type":"uint48","internalType":"uint48"}],"stateMutability":"view"},{"type":"function","name":"pendingDefaultAdminDelay","inputs":[],"outputs":[{"name":"newDelay","type":"uint48","internalType":"uint48"},{"name":"schedule","type":"uint48","internalType":"uint48"}],"stateMutability":"view"},{"type":"function","name":"renounceRole","inputs":[{"name":"role","type":"bytes32","internalType":"bytes32"},{"name":"account","type":"address","internalType":"address"}],"outputs":[],"stateMutability":"nonpayable"},{"type":"function","name":"rescueERC20","inputs":[{"name":"token","type":"address","internalType":"contract IERC20"},{"name":"to","type":"address","internalType":"address"},{"name":"amount","type":"uint256","internalType":"uint256"}],"outputs":[],"stateMutability":"nonpayable"},{"type":"function","name":"revokeRole","inputs":[{"name":"role","type":"bytes32","internalType":"bytes32"},{"name":"account","type":"address","internalType":"address"}],"outputs":[],"stateMutability":"nonpayable"},{"type":"function","name":"rollbackDefaultAdminDelay","inputs":[],"outputs":[],"stateMutability":"nonpayable"},{"type":"function","name":"supportsInterface","inputs":[{"name":"interfaceId","type":"bytes4","internalType":"bytes4"}],"outputs":[{"name":"","type":"bool","internalType":"bool"}],"stateMutability":"view"},{"type":"function","name":"withdrawFunds","inputs":[{"name":"token","type":"address","internalType":"contract IERC20"},{"name":"user","type":"address","internalType":"address"},{"name":"amount","type":"uint256","internalType":"uint256"}],"outputs":[],"stateMutability":"nonpayable"},{"type":"event","name":"DefaultAdminDelayChangeCanceled","inputs":[],"anonymous":false},{"type":"event","name":"DefaultAdminDelayChangeScheduled","inputs":[{"name":"newDelay","type":"uint48","indexed":false,"internalType":"uint48"},{"name":"effectSchedule","type":"uint48","indexed":false,"internalType":"uint48"}],"anonymous":false},{"type":"event","name":"DefaultAdminTransferCanceled","inputs":[],"anonymous":false},{"type":"event","name":"DefaultAdminTransferScheduled","inputs":[{"name":"newAdmin","type":"address","indexed":true,"internalType":"address"},{"name":"acceptSchedule","type":"uint48","indexed":false,"internalType":"uint48"}],"anonymous":false},{"type":"event","name":"FundsWithdrawn","inputs":[{"name":"token","type":"address","indexed":false,"internalType":"contract IERC20"},{"name":"user","type":"address","indexed":false,"internalType":"address"},{"name":"amount","type":"uint256","indexed":false,"internalType":"uint256"}],"anonymous":false},{"type":"event","name":"RoleAdminChanged","inputs":[{"name":"role","type":"bytes32","indexed":true,"internalType":"bytes32"},{"name":"previousAdminRole","type":"bytes32","indexed":true,"internalType":"bytes32"},{"name":"newAdminRole","type":"bytes32","indexed":true,"internalType":"bytes32"}],"anonymous":false},{"type":"event","name":"RoleGranted","inputs":[{"name":"role","type":"bytes32","indexed":true,"internalType":"bytes32"},{"name":"account","type":"address","indexed":true,"internalType":"address"},{"name":"sender","type":"address","indexed":true,"internalType":"address"}],"anonymous":false},{"type":"event","name":"RoleRevoked","inputs":[{"name":"role","type":"bytes32","indexed":true,"internalType":"bytes32"},{"name":"account","type":"address","indexed":true,"internalType":"address"},{"name":"sender","type":"address","indexed":true,"internalType":"address"}],"anonymous":false},{"type":"error","name":"AccessControlBadConfirmation","inputs":[]},{"type":"error","name":"AccessControlEnforcedDefaultAdminDelay","inputs":[{"name":"schedule","type":"uint48","internalType":"uint48"}]},{"type":"error","name":"AccessControlEnforcedDefaultAdminRules","inputs":[]},{"type":"error","name":"AccessControlInvalidDefaultAdmin","inputs":[{"name":"defaultAdmin","type":"address","internalType":"address"}]},{"type":"error","name":"AccessControlUnauthorizedAccount","inputs":[{"name":"account","type":"address","internalType":"address"},{"name":"neededRole","type":"bytes32","internalType":"bytes32"}]},{"type":"error","name":"AddressEmptyCode","inputs":[{"name":"target","type":"address","internalType":"address"}]},{"type":"error","name":"AddressInsufficientBalance","inputs":[{"name":"account","type":"address","internalType":"address"}]},{"type":"error","name":"FailedInnerCall","inputs":[]},{"type":"error","name":"SafeCastOverflowedUintDowncast","inputs":[{"name":"bits","type":"uint8","internalType":"uint8"},{"name":"value","type":"uint256","internalType":"uint256"}]},{"type":"error","name":"SafeERC20FailedOperation","inputs":[{"name":"token","type":"address","internalType":"address"}]}],"bytecode":{"object":"0x608060405234801561000f575f80fd5b506040516111f43803806111f483398101604081905261002e916101a5565b5f816001600160a01b03811661005d57604051636116401160e11b81525f600482015260240160405180910390fd5b600180546001600160d01b0316600160d01b65ffffffffffff8516021790556100865f8261008f565b505050506101d2565b5f826100eb575f6100a86002546001600160a01b031690565b6001600160a01b0316146100cf57604051631fe1e13d60e11b815260040160405180910390fd5b600280546001600160a01b0319166001600160a01b0384161790555b6100f583836100fe565b90505b92915050565b5f828152602081815260408083206001600160a01b038516845290915281205460ff1661019e575f838152602081815260408083206001600160a01b03861684529091529020805460ff191660011790556101563390565b6001600160a01b0316826001600160a01b0316847f2f8788117e7eff1d82e926ec794901d17c78024a50270940304540a733656f0d60405160405180910390a45060016100f8565b505f6100f8565b5f602082840312156101b5575f80fd5b81516001600160a01b03811681146101cb575f80fd5b9392505050565b611015806101df5f395ff3fe608060405234801561000f575f80fd5b5060043610610132575f3560e01c80638da5cb5b116100b4578063cc8463c811610079578063cc8463c814610294578063cefc14291461029c578063cf6eefb7146102a4578063d547741f146102d2578063d602b9fd146102e5578063f5b541a6146102ed575f80fd5b80638da5cb5b1461023857806391d1485414610240578063a1eda53c14610253578063a217fddf1461027a578063b2118a8d14610281575f80fd5b80632f2ff15d116100fa5780632f2ff15d146101c757806336568abe146101da578063634e93da146101ed578063649a5ec71461020057806384ef8ffc14610213575f80fd5b806301ffc9a714610136578063022d63fb1461015e5780630aa6220b1461017a5780631c20fadd14610184578063248a9ca314610197575b5f80fd5b610149610144366004610e53565b610314565b60405190151581526020015b60405180910390f35b620697805b60405165ffffffffffff9091168152602001610155565b61018261033e565b005b610182610192366004610e8e565b610353565b6101b96101a5366004610ecc565b5f9081526020819052604090206001015490565b604051908152602001610155565b6101826101d5366004610ee3565b6103e2565b6101826101e8366004610ee3565b61040e565b6101826101fb366004610f11565b6104b9565b61018261020e366004610f2c565b6104cc565b6002546001600160a01b03165b6040516001600160a01b039091168152602001610155565b6102206104df565b61014961024e366004610ee3565b6104f7565b61025b61051f565b6040805165ffffffffffff938416815292909116602083015201610155565b6101b95f81565b61018261028f366004610e8e565b610571565b61016361058f565b6101826105ed565b6102ac61062c565b604080516001600160a01b03909316835265ffffffffffff909116602083015201610155565b6101826102e0366004610ee3565b61064d565b610182610675565b6101b97f97667070c54ef182b0f5858b034beac1b6f3089aa2d3188bb1e8929f4fa9b92981565b5f6001600160e01b031982166318a4c3c360e11b1480610338575061033882610687565b92915050565b5f610348816106bb565b6103506106c5565b50565b7f97667070c54ef182b0f5858b034beac1b6f3089aa2d3188bb1e8929f4fa9b92961037d816106bb565b604080516001600160a01b038087168252851660208201529081018390527fa92ff919b850e4909ab2261d907ef955f11bc1716733a6cbece38d163a69af8a9060600160405180910390a16103dc6001600160a01b03851684846106d1565b50505050565b8161040057604051631fe1e13d60e11b815260040160405180910390fd5b61040a8282610728565b5050565b8115801561042957506002546001600160a01b038281169116145b156104af575f8061043861062c565b90925090506001600160a01b03821615158061045a575065ffffffffffff8116155b8061046d57504265ffffffffffff821610155b1561049a576040516319ca5ebb60e01b815265ffffffffffff821660048201526024015b60405180910390fd5b50506001805465ffffffffffff60a01b191690555b61040a828261074c565b5f6104c3816106bb565b61040a8261077f565b5f6104d6816106bb565b61040a826107f1565b5f6104f26002546001600160a01b031690565b905090565b5f918252602082815260408084206001600160a01b0393909316845291905290205460ff1690565b6002545f90600160d01b900465ffffffffffff16801515801561054a57504265ffffffffffff821610155b610555575f80610569565b600254600160a01b900465ffffffffffff16815b915091509091565b5f61057b816106bb565b6103dc6001600160a01b03851684846106d1565b6002545f90600160d01b900465ffffffffffff1680151580156105b957504265ffffffffffff8216105b6105d457600154600160d01b900465ffffffffffff166105e7565b600254600160a01b900465ffffffffffff165b91505090565b5f6105f661062c565b509050336001600160a01b0382161461062457604051636116401160e11b8152336004820152602401610491565b610350610860565b6001546001600160a01b03811691600160a01b90910465ffffffffffff1690565b8161066b57604051631fe1e13d60e11b815260040160405180910390fd5b61040a82826108f6565b5f61067f816106bb565b61035061091a565b5f6001600160e01b03198216637965db0b60e01b148061033857506301ffc9a760e01b6001600160e01b0319831614610338565b6103508133610924565b6106cf5f8061095d565b565b604080516001600160a01b038416602482015260448082018490528251808303909101815260649091019091526020810180516001600160e01b031663a9059cbb60e01b179052610723908490610a1c565b505050565b5f82815260208190526040902060010154610742816106bb565b6103dc8383610a7d565b6001600160a01b03811633146107755760405163334bd91960e11b815260040160405180910390fd5b6107238282610aea565b5f61078861058f565b61079142610b26565b61079b9190610f65565b90506107a78282610b5c565b60405165ffffffffffff821681526001600160a01b038316907f3377dc44241e779dd06afab5b788a35ca5f3b778836e2990bdb26a2a4b2e5ed69060200160405180910390a25050565b5f6107fb82610bd9565b61080442610b26565b61080e9190610f65565b905061081a828261095d565b6040805165ffffffffffff8085168252831660208201527ff1038c18cf84a56e432fdbfaf746924b7ea511dfe03a6506a0ceba4888788d9b910160405180910390a15050565b5f8061086a61062c565b9150915061087f8165ffffffffffff16151590565b158061089357504265ffffffffffff821610155b156108bb576040516319ca5ebb60e01b815265ffffffffffff82166004820152602401610491565b6108d65f6108d16002546001600160a01b031690565b610aea565b506108e15f83610a7d565b5050600180546001600160d01b031916905550565b5f82815260208190526040902060010154610910816106bb565b6103dc8383610aea565b6106cf5f80610b5c565b61092e82826104f7565b61040a5760405163e2517d3f60e01b81526001600160a01b038216600482015260248101839052604401610491565b600254600160d01b900465ffffffffffff1680156109df574265ffffffffffff821610156109b657600254600180546001600160d01b0316600160a01b90920465ffffffffffff16600160d01b029190911790556109df565b6040517f2b1fa2edafe6f7b9e97c1a9e0c3660e645beb2dcaa2d45bdbf9beaf5472e1ec5905f90a15b50600280546001600160a01b0316600160a01b65ffffffffffff948516026001600160d01b031617600160d01b9290931691909102919091179055565b5f610a306001600160a01b03841683610c20565b905080515f14158015610a54575080806020019051810190610a529190610f8b565b155b1561072357604051635274afe760e01b81526001600160a01b0384166004820152602401610491565b5f82610ad9575f610a966002546001600160a01b031690565b6001600160a01b031614610abd57604051631fe1e13d60e11b815260040160405180910390fd5b600280546001600160a01b0319166001600160a01b0384161790555b610ae38383610c2d565b9392505050565b5f82158015610b0657506002546001600160a01b038381169116145b15610b1c57600280546001600160a01b03191690555b610ae38383610cbc565b5f65ffffffffffff821115610b58576040516306dfcc6560e41b81526030600482015260248101839052604401610491565b5090565b5f610b6561062c565b6001805465ffffffffffff8616600160a01b026001600160d01b03199091166001600160a01b038816171790559150610ba790508165ffffffffffff16151590565b15610723576040517f8886ebfc4259abdbc16601dd8fb5678e54878f47b3c34836cfc51154a9605109905f90a1505050565b5f80610be361058f565b90508065ffffffffffff168365ffffffffffff1611610c0b57610c068382610faa565b610ae3565b610ae365ffffffffffff841662069780610d25565b6060610ae383835f610d3a565b5f610c3883836104f7565b610cb5575f838152602081815260408083206001600160a01b03861684529091529020805460ff19166001179055610c6d3390565b6001600160a01b0316826001600160a01b0316847f2f8788117e7eff1d82e926ec794901d17c78024a50270940304540a733656f0d60405160405180910390a4506001610338565b505f610338565b5f610cc783836104f7565b15610cb5575f838152602081815260408083206001600160a01b0386168085529252808320805460ff1916905551339286917ff6391f5c32d9c69d2a47ea670b442974b53935d1edc7fd64eb21e047a839171b9190a4506001610338565b5f818310610d335781610ae3565b5090919050565b606081471015610d5f5760405163cd78605960e01b8152306004820152602401610491565b5f80856001600160a01b03168486604051610d7a9190610fc9565b5f6040518083038185875af1925050503d805f8114610db4576040519150601f19603f3d011682016040523d82523d5f602084013e610db9565b606091505b5091509150610dc9868383610dd3565b9695505050505050565b606082610de357610c0682610e2a565b8151158015610dfa57506001600160a01b0384163b155b15610e2357604051639996b31560e01b81526001600160a01b0385166004820152602401610491565b5080610ae3565b805115610e3a5780518082602001fd5b604051630a12f52160e11b815260040160405180910390fd5b5f60208284031215610e63575f80fd5b81356001600160e01b031981168114610ae3575f80fd5b6001600160a01b0381168114610350575f80fd5b5f805f60608486031215610ea0575f80fd5b8335610eab81610e7a565b92506020840135610ebb81610e7a565b929592945050506040919091013590565b5f60208284031215610edc575f80fd5b5035919050565b5f8060408385031215610ef4575f80fd5b823591506020830135610f0681610e7a565b809150509250929050565b5f60208284031215610f21575f80fd5b8135610ae381610e7a565b5f60208284031215610f3c575f80fd5b813565ffffffffffff81168114610ae3575f80fd5b634e487b7160e01b5f52601160045260245ffd5b65ffffffffffff818116838216019080821115610f8457610f84610f51565b5092915050565b5f60208284031215610f9b575f80fd5b81518015158114610ae3575f80fd5b65ffffffffffff828116828216039080821115610f8457610f84610f51565b5f82518060208501845e5f92019182525091905056fea26469706673582212202cb9105e981a37fb2d716d9788ae7b0e472bda6f900275a0a7d909e2929ea6fb64736f6c63430008190033","linkReferences":{}},"methodIdentifiers":{"DEFAULT_ADMIN_ROLE()":"a217fddf","OPERATOR_ROLE()":"f5b541a6","acceptDefaultAdminTransfer()":"cefc1429","beginDefaultAdminTransfer(address)":"634e93da","cancelDefaultAdminTransfer()":"d602b9fd","changeDefaultAdminDelay(uint48)":"649a5ec7","defaultAdmin()":"84ef8ffc","defaultAdminDelay()":"cc8463c8","defaultAdminDelayIncreaseWait()":"022d63fb","getRoleAdmin(bytes32)":"248a9ca3","grantRole(bytes32,address)":"2f2ff15d","hasRole(bytes32,address)":"91d14854","owner()":"8da5cb5b","pendingDefaultAdmin()":"cf6eefb7","pendingDefaultAdminDelay()":"a1eda53c","renounceRole(bytes32,address)":"36568abe","rescueERC20(address,address,uint256)":"b2118a8d","revokeRole(bytes32,address)":"d547741f","rollbackDefaultAdminDelay()":"0aa6220b","supportsInterface(bytes4)":"01ffc9a7","withdrawFunds(address,address,uint256)":"1c20fadd"},"id":22}