{"abi":[{"type":"constructor","inputs":[],"stateMutability":"nonpayable"},{"type":"function","name":"acceptOwnership","inputs":[],"outputs":[],"stateMutability":"nonpayable"},{"type":"function","name":"actionInfoById","inputs":[{"name":"","type":"uint256","internalType":"uint256"}],"outputs":[{"name":"actionType","type":"uint256","internalType":"uint256"},{"name":"nonce","type":"uint256","internalType":"uint256"}],"stateMutability":"view"},{"type":"function","name":"baseUrl","inputs":[],"outputs":[{"name":"","type":"string","internalType":"string"}],"stateMutability":"view"},{"type":"function","name":"burnedTokenAmountByNonce","inputs":[{"name":"","type":"uint256","internalType":"uint256"}],"outputs":[{"name":"","type":"uint256","internalType":"uint256"}],"stateMutability":"view"},{"type":"function","name":"buyRequestPayedAmountById","inputs":[{"name":"","type":"uint256","internalType":"uint256"}],"outputs":[{"name":"","type":"uint256","internalType":"uint256"}],"stateMutability":"view"},{"type":"function","name":"calculateBuyRequestFee","inputs":[{"name":"_amount","type":"uint256","internalType":"uint256"}],"outputs":[{"name":"","type":"uint256","internalType":"uint256"}],"stateMutability":"view"},{"type":"function","name":"calculateIssuanceFee","inputs":[{"name":"_inputAmount","type":"uint256","internalType":"uint256"}],"outputs":[{"name":"","type":"uint256","internalType":"uint256"}],"stateMutability":"view"},{"type":"function","name":"cancelIssuanceComplted","inputs":[{"name":"","type":"uint256","internalType":"uint256"}],"outputs":[{"name":"","type":"bool","internalType":"bool"}],"stateMutability":"view"},{"type":"function","name":"cancelIssuanceRequestId","inputs":[{"name":"","type":"uint256","internalType":"uint256"},{"name":"","type":"address","internalType":"address"}],"outputs":[{"name":"","type":"uint256","internalType":"uint256"}],"stateMutability":"view"},{"type":"function","name":"cancelIssuanceUnfilledAmount","inputs":[{"name":"","type":"uint256","internalType":"uint256"},{"name":"","type":"address","internalType":"address"}],"outputs":[{"name":"","type":"uint256","internalType":"uint256"}],"stateMutability":"view"},{"type":"function","name":"cancelRedemptionComplted","inputs":[{"name":"","type":"uint256","internalType":"uint256"}],"outputs":[{"name":"","type":"bool","internalType":"bool"}],"stateMutability":"view"},{"type":"function","name":"cancelRedemptionRequestId","inputs":[{"name":"","type":"uint256","internalType":"uint256"},{"name":"","type":"address","internalType":"address"}],"outputs":[{"name":"","type":"uint256","internalType":"uint256"}],"stateMutability":"view"},{"type":"function","name":"cancelRedemptionUnfilledAmount","inputs":[{"name":"","type":"uint256","internalType":"uint256"},{"name":"","type":"address","internalType":"address"}],"outputs":[{"name":"","type":"uint256","internalType":"uint256"}],"stateMutability":"view"},{"type":"function","name":"checkCancelIssuanceStatus","inputs":[{"name":"_issuanceNonce","type":"uint256","internalType":"uint256"}],"outputs":[{"name":"","type":"bool","internalType":"bool"}],"stateMutability":"view"},{"type":"function","name":"checkCancelRedemptionStatus","inputs":[{"name":"_redemptionNonce","type":"uint256","internalType":"uint256"}],"outputs":[{"name":"","type":"bool","internalType":"bool"}],"stateMutability":"view"},{"type":"function","name":"checkIssuanceOrdersStatus","inputs":[{"name":"_issuanceNonce","type":"uint256","internalType":"uint256"}],"outputs":[{"name":"","type":"bool","internalType":"bool"}],"stateMutability":"view"},{"type":"function","name":"checkRedemptionOrdersStatus","inputs":[{"name":"_redemptionNonce","type":"uint256","internalType":"uint256"}],"outputs":[{"name":"","type":"bool","internalType":"bool"}],"stateMutability":"view"},{"type":"function","name":"concatenation","inputs":[{"name":"a","type":"string","internalType":"string"},{"name":"b","type":"string","internalType":"string"}],"outputs":[{"name":"","type":"string","internalType":"string"}],"stateMutability":"pure"},{"type":"function","name":"currentList","inputs":[{"name":"","type":"uint256","internalType":"uint256"}],"outputs":[{"name":"","type":"address","internalType":"address"}],"stateMutability":"view"},{"type":"function","name":"donId","inputs":[],"outputs":[{"name":"","type":"bytes32","internalType":"bytes32"}],"stateMutability":"view"},{"type":"function","name":"factoryAddress","inputs":[],"outputs":[{"name":"","type":"address","internalType":"address"}],"stateMutability":"view"},{"type":"function","name":"factoryBalancerAddress","inputs":[],"outputs":[{"name":"","type":"address","internalType":"address"}],"stateMutability":"view"},{"type":"function","name":"factoryProcessorAddress","inputs":[],"outputs":[{"name":"","type":"address","internalType":"address"}],"stateMutability":"view"},{"type":"function","name":"feeRate","inputs":[],"outputs":[{"name":"","type":"uint8","internalType":"uint8"}],"stateMutability":"view"},{"type":"function","name":"feeReceiver","inputs":[],"outputs":[{"name":"","type":"address","internalType":"address"}],"stateMutability":"view"},{"type":"function","name":"functionsRouterAddress","inputs":[],"outputs":[{"name":"","type":"address","internalType":"address"}],"stateMutability":"view"},{"type":"function","name":"getActionInfoById","inputs":[{"name":"_id","type":"uint256","internalType":"uint256"}],"outputs":[{"name":"","type":"tuple","internalType":"struct IndexFactoryStorage.ActionInfo","components":[{"name":"actionType","type":"uint256","internalType":"uint256"},{"name":"nonce","type":"uint256","internalType":"uint256"}]}],"stateMutability":"view"},{"type":"function","name":"getAmountAfterFee","inputs":[{"name":"percentageFeeRate","type":"uint24","internalType":"uint24"},{"name":"orderValue","type":"uint256","internalType":"uint256"}],"outputs":[{"name":"","type":"uint256","internalType":"uint256"}],"stateMutability":"pure"},{"type":"function","name":"getIssuanceAmountOut","inputs":[{"name":"_amount","type":"uint256","internalType":"uint256"}],"outputs":[{"name":"","type":"uint256","internalType":"uint256"}],"stateMutability":"view"},{"type":"function","name":"getOrderInstanceById","inputs":[{"name":"_id","type":"uint256","internalType":"uint256"}],"outputs":[{"name":"","type":"tuple","internalType":"struct IOrderProcessor.Order","components":[{"name":"requestTimestamp","type":"uint64","internalType":"uint64"},{"name":"recipient","type":"address","internalType":"address"},{"name":"assetToken","type":"address","internalType":"address"},{"name":"paymentToken","type":"address","internalType":"address"},{"name":"sell","type":"bool","internalType":"bool"},{"name":"orderType","type":"uint8","internalType":"enum IOrderProcessor.OrderType"},{"name":"assetTokenQuantity","type":"uint256","internalType":"uint256"},{"name":"paymentTokenQuantity","type":"uint256","internalType":"uint256"},{"name":"price","type":"uint256","internalType":"uint256"},{"name":"tif","type":"uint8","internalType":"enum IOrderProcessor.TIF"}]}],"stateMutability":"view"},{"type":"function","name":"getPortfolioValue","inputs":[],"outputs":[{"name":"","type":"uint256","internalType":"uint256"}],"stateMutability":"view"},{"type":"function","name":"getPrimaryOrder","inputs":[{"name":"sell","type":"bool","internalType":"bool"}],"outputs":[{"name":"","type":"tuple","internalType":"struct IOrderProcessor.Order","components":[{"name":"requestTimestamp","type":"uint64","internalType":"uint64"},{"name":"recipient","type":"address","internalType":"address"},{"name":"assetToken","type":"address","internalType":"address"},{"name":"paymentToken","type":"address","internalType":"address"},{"name":"sell","type":"bool","internalType":"bool"},{"name":"orderType","type":"uint8","internalType":"enum IOrderProcessor.OrderType"},{"name":"assetTokenQuantity","type":"uint256","internalType":"uint256"},{"name":"paymentTokenQuantity","type":"uint256","internalType":"uint256"},{"name":"price","type":"uint256","internalType":"uint256"},{"name":"tif","type":"uint8","internalType":"enum IOrderProcessor.TIF"}]}],"stateMutability":"view"},{"type":"function","name":"getRedemptionAmountOut","inputs":[{"name":"_amount","type":"uint256","internalType":"uint256"}],"outputs":[{"name":"","type":"uint256","internalType":"uint256"}],"stateMutability":"view"},{"type":"function","name":"getVaultDshareBalance","inputs":[{"name":"_token","type":"address","internalType":"address"}],"outputs":[{"name":"","type":"uint256","internalType":"uint256"}],"stateMutability":"view"},{"type":"function","name":"getVaultDshareValue","inputs":[{"name":"_token","type":"address","internalType":"address"}],"outputs":[{"name":"","type":"uint256","internalType":"uint256"}],"stateMutability":"view"},{"type":"function","name":"handleOracleFulfillment","inputs":[{"name":"requestId","type":"bytes32","internalType":"bytes32"},{"name":"response","type":"bytes","internalType":"bytes"},{"name":"err","type":"bytes","internalType":"bytes"}],"outputs":[],"stateMutability":"nonpayable"},{"type":"function","name":"increaseIssuanceNonce","inputs":[],"outputs":[],"stateMutability":"nonpayable"},{"type":"function","name":"increaseRedemptionNonce","inputs":[],"outputs":[],"stateMutability":"nonpayable"},{"type":"function","name":"initialize","inputs":[{"name":"_issuer","type":"address","internalType":"address"},{"name":"_token","type":"address","internalType":"address"},{"name":"_vault","type":"address","internalType":"address"},{"name":"_usdc","type":"address","internalType":"address"},{"name":"_usdcDecimals","type":"uint8","internalType":"uint8"},{"name":"_chainlinkToken","type":"address","internalType":"address"},{"name":"_functionsRouterAddress","type":"address","internalType":"address"},{"name":"_newDonId","type":"bytes32","internalType":"bytes32"},{"name":"_isMainnet","type":"bool","internalType":"bool"}],"outputs":[],"stateMutability":"nonpayable"},{"type":"function","name":"isIssuanceOrderActive","inputs":[{"name":"_issuanceNonce","type":"uint256","internalType":"uint256"}],"outputs":[{"name":"","type":"bool","internalType":"bool"}],"stateMutability":"view"},{"type":"function","name":"isMainnet","inputs":[],"outputs":[{"name":"","type":"bool","internalType":"bool"}],"stateMutability":"view"},{"type":"function","name":"isRedemptionOrderActive","inputs":[{"name":"_redemptionNonce","type":"uint256","internalType":"uint256"}],"outputs":[{"name":"","type":"bool","internalType":"bool"}],"stateMutability":"view"},{"type":"function","name":"issuanceIndexTokenPrimaryTotalSupply","inputs":[{"name":"","type":"uint256","internalType":"uint256"}],"outputs":[{"name":"","type":"uint256","internalType":"uint256"}],"stateMutability":"view"},{"type":"function","name":"issuanceInputAmount","inputs":[{"name":"","type":"uint256","internalType":"uint256"}],"outputs":[{"name":"","type":"uint256","internalType":"uint256"}],"stateMutability":"view"},{"type":"function","name":"issuanceIsCompleted","inputs":[{"name":"","type":"uint256","internalType":"uint256"}],"outputs":[{"name":"","type":"bool","internalType":"bool"}],"stateMutability":"view"},{"type":"function","name":"issuanceNonce","inputs":[],"outputs":[{"name":"","type":"uint256","internalType":"uint256"}],"stateMutability":"view"},{"type":"function","name":"issuanceRequestId","inputs":[{"name":"","type":"uint256","internalType":"uint256"},{"name":"","type":"address","internalType":"address"}],"outputs":[{"name":"","type":"uint256","internalType":"uint256"}],"stateMutability":"view"},{"type":"function","name":"issuanceRequesterByNonce","inputs":[{"name":"","type":"uint256","internalType":"uint256"}],"outputs":[{"name":"","type":"address","internalType":"address"}],"stateMutability":"view"},{"type":"function","name":"issuanceTokenPrimaryBalance","inputs":[{"name":"","type":"uint256","internalType":"uint256"},{"name":"","type":"address","internalType":"address"}],"outputs":[{"name":"","type":"uint256","internalType":"uint256"}],"stateMutability":"view"},{"type":"function","name":"issuer","inputs":[],"outputs":[{"name":"","type":"address","internalType":"contract IOrderProcessor"}],"stateMutability":"view"},{"type":"function","name":"lastUpdateTime","inputs":[],"outputs":[{"name":"","type":"uint256","internalType":"uint256"}],"stateMutability":"view"},{"type":"function","name":"latestFeeUpdate","inputs":[],"outputs":[{"name":"","type":"uint256","internalType":"uint256"}],"stateMutability":"view"},{"type":"function","name":"latestPriceDecimals","inputs":[],"outputs":[{"name":"","type":"uint8","internalType":"uint8"}],"stateMutability":"view"},{"type":"function","name":"mockFillAssetsList","inputs":[{"name":"_tokens","type":"address[]","internalType":"address[]"},{"name":"_marketShares","type":"uint256[]","internalType":"uint256[]"}],"outputs":[],"stateMutability":"nonpayable"},{"type":"function","name":"oracleList","inputs":[{"name":"","type":"uint256","internalType":"uint256"}],"outputs":[{"name":"","type":"address","internalType":"address"}],"stateMutability":"view"},{"type":"function","name":"orderInstanceById","inputs":[{"name":"","type":"uint256","internalType":"uint256"}],"outputs":[{"name":"requestTimestamp","type":"uint64","internalType":"uint64"},{"name":"recipient","type":"address","internalType":"address"},{"name":"assetToken","type":"address","internalType":"address"},{"name":"paymentToken","type":"address","internalType":"address"},{"name":"sell","type":"bool","internalType":"bool"},{"name":"orderType","type":"uint8","internalType":"enum IOrderProcessor.OrderType"},{"name":"assetTokenQuantity","type":"uint256","internalType":"uint256"},{"name":"paymentTokenQuantity","type":"uint256","internalType":"uint256"},{"name":"price","type":"uint256","internalType":"uint256"},{"name":"tif","type":"uint8","internalType":"enum IOrderProcessor.TIF"}],"stateMutability":"view"},{"type":"function","name":"orderManager","inputs":[],"outputs":[{"name":"","type":"address","internalType":"contract OrderManager"}],"stateMutability":"view"},{"type":"function","name":"owner","inputs":[],"outputs":[{"name":"","type":"address","internalType":"address"}],"stateMutability":"view"},{"type":"function","name":"priceFeedByTokenAddress","inputs":[{"name":"","type":"address","internalType":"address"}],"outputs":[{"name":"","type":"address","internalType":"address"}],"stateMutability":"view"},{"type":"function","name":"priceInWei","inputs":[{"name":"_tokenAddress","type":"address","internalType":"address"}],"outputs":[{"name":"","type":"uint256","internalType":"uint256"}],"stateMutability":"view"},{"type":"function","name":"redemptionIndexTokenPrimaryTotalSupply","inputs":[{"name":"","type":"uint256","internalType":"uint256"}],"outputs":[{"name":"","type":"uint256","internalType":"uint256"}],"stateMutability":"view"},{"type":"function","name":"redemptionInputAmount","inputs":[{"name":"","type":"uint256","internalType":"uint256"}],"outputs":[{"name":"","type":"uint256","internalType":"uint256"}],"stateMutability":"view"},{"type":"function","name":"redemptionIsCompleted","inputs":[{"name":"","type":"uint256","internalType":"uint256"}],"outputs":[{"name":"","type":"bool","internalType":"bool"}],"stateMutability":"view"},{"type":"function","name":"redemptionNonce","inputs":[],"outputs":[{"name":"","type":"uint256","internalType":"uint256"}],"stateMutability":"view"},{"type":"function","name":"redemptionRequestId","inputs":[{"name":"","type":"uint256","internalType":"uint256"},{"name":"","type":"address","internalType":"address"}],"outputs":[{"name":"","type":"uint256","internalType":"uint256"}],"stateMutability":"view"},{"type":"function","name":"redemptionRequesterByNonce","inputs":[{"name":"","type":"uint256","internalType":"uint256"}],"outputs":[{"name":"","type":"address","internalType":"address"}],"stateMutability":"view"},{"type":"function","name":"redemptionTokenPrimaryBalance","inputs":[{"name":"","type":"uint256","internalType":"uint256"},{"name":"","type":"address","internalType":"address"}],"outputs":[{"name":"","type":"uint256","internalType":"uint256"}],"stateMutability":"view"},{"type":"function","name":"requestAssetsData","inputs":[{"name":"source","type":"string","internalType":"string"},{"name":"encryptedSecretsReference","type":"bytes","internalType":"bytes"},{"name":"args","type":"string[]","internalType":"string[]"},{"name":"bytesArgs","type":"bytes[]","internalType":"bytes[]"},{"name":"subscriptionId","type":"uint64","internalType":"uint64"},{"name":"callbackGasLimit","type":"uint32","internalType":"uint32"}],"outputs":[{"name":"","type":"bytes32","internalType":"bytes32"}],"stateMutability":"nonpayable"},{"type":"function","name":"sellRequestAssetAmountById","inputs":[{"name":"","type":"uint256","internalType":"uint256"}],"outputs":[{"name":"","type":"uint256","internalType":"uint256"}],"stateMutability":"view"},{"type":"function","name":"setActionInfoById","inputs":[{"name":"_requestId","type":"uint256","internalType":"uint256"},{"name":"_actionInfo","type":"tuple","internalType":"struct IndexFactoryStorage.ActionInfo","components":[{"name":"actionType","type":"uint256","internalType":"uint256"},{"name":"nonce","type":"uint256","internalType":"uint256"}]}],"outputs":[],"stateMutability":"nonpayable"},{"type":"function","name":"setBurnedTokenAmountByNonce","inputs":[{"name":"_redemptionNonce","type":"uint256","internalType":"uint256"},{"name":"_burnedAmount","type":"uint256","internalType":"uint256"}],"outputs":[],"stateMutability":"nonpayable"},{"type":"function","name":"setBuyRequestPayedAmountById","inputs":[{"name":"_requestId","type":"uint256","internalType":"uint256"},{"name":"_amount","type":"uint256","internalType":"uint256"}],"outputs":[],"stateMutability":"nonpayable"},{"type":"function","name":"setCancelIssuanceComplted","inputs":[{"name":"_issuanceNonce","type":"uint256","internalType":"uint256"},{"name":"_isCompleted","type":"bool","internalType":"bool"}],"outputs":[],"stateMutability":"nonpayable"},{"type":"function","name":"setCancelIssuanceRequestId","inputs":[{"name":"_issuanceNonce","type":"uint256","internalType":"uint256"},{"name":"_token","type":"address","internalType":"address"},{"name":"_requestId","type":"uint256","internalType":"uint256"}],"outputs":[],"stateMutability":"nonpayable"},{"type":"function","name":"setCancelIssuanceUnfilledAmount","inputs":[{"name":"_issuanceNonce","type":"uint256","internalType":"uint256"},{"name":"_token","type":"address","internalType":"address"},{"name":"_amount","type":"uint256","internalType":"uint256"}],"outputs":[],"stateMutability":"nonpayable"},{"type":"function","name":"setCancelRedemptionComplted","inputs":[{"name":"_redemptionNonce","type":"uint256","internalType":"uint256"},{"name":"_isCompleted","type":"bool","internalType":"bool"}],"outputs":[],"stateMutability":"nonpayable"},{"type":"function","name":"setCancelRedemptionRequestId","inputs":[{"name":"_redemptionNonce","type":"uint256","internalType":"uint256"},{"name":"_token","type":"address","internalType":"address"},{"name":"_requestId","type":"uint256","internalType":"uint256"}],"outputs":[],"stateMutability":"nonpayable"},{"type":"function","name":"setCancelRedemptionUnfilledAmount","inputs":[{"name":"_redemptionNonce","type":"uint256","internalType":"uint256"},{"name":"_token","type":"address","internalType":"address"},{"name":"_amount","type":"uint256","internalType":"uint256"}],"outputs":[],"stateMutability":"nonpayable"},{"type":"function","name":"setDonId","inputs":[{"name":"newDonId","type":"bytes32","internalType":"bytes32"}],"outputs":[],"stateMutability":"nonpayable"},{"type":"function","name":"setFactory","inputs":[{"name":"_factoryAddress","type":"address","internalType":"address"}],"outputs":[],"stateMutability":"nonpayable"},{"type":"function","name":"setFactoryBalancer","inputs":[{"name":"_factoryBalancerAddress","type":"address","internalType":"address"}],"outputs":[],"stateMutability":"nonpayable"},{"type":"function","name":"setFactoryProcessor","inputs":[{"name":"_factoryProcessorAddress","type":"address","internalType":"address"}],"outputs":[],"stateMutability":"nonpayable"},{"type":"function","name":"setFeeRate","inputs":[{"name":"_newFee","type":"uint8","internalType":"uint8"}],"outputs":[],"stateMutability":"nonpayable"},{"type":"function","name":"setFeeReceiver","inputs":[{"name":"_feeReceiver","type":"address","internalType":"address"}],"outputs":[],"stateMutability":"nonpayable"},{"type":"function","name":"setIsMainnet","inputs":[{"name":"_isMainnet","type":"bool","internalType":"bool"}],"outputs":[],"stateMutability":"nonpayable"},{"type":"function","name":"setIssuanceIndexTokenPrimaryTotalSupply","inputs":[{"name":"_issuanceNonce","type":"uint256","internalType":"uint256"},{"name":"_amount","type":"uint256","internalType":"uint256"}],"outputs":[],"stateMutability":"nonpayable"},{"type":"function","name":"setIssuanceInputAmount","inputs":[{"name":"_issuanceNonce","type":"uint256","internalType":"uint256"},{"name":"_amount","type":"uint256","internalType":"uint256"}],"outputs":[],"stateMutability":"nonpayable"},{"type":"function","name":"setIssuanceIsCompleted","inputs":[{"name":"_issuanceNonce","type":"uint256","internalType":"uint256"},{"name":"_isCompleted","type":"bool","internalType":"bool"}],"outputs":[],"stateMutability":"nonpayable"},{"type":"function","name":"setIssuanceRequestId","inputs":[{"name":"_issuanceNonce","type":"uint256","internalType":"uint256"},{"name":"_token","type":"address","internalType":"address"},{"name":"_requestId","type":"uint256","internalType":"uint256"}],"outputs":[],"stateMutability":"nonpayable"},{"type":"function","name":"setIssuanceRequesterByNonce","inputs":[{"name":"_issuanceNonce","type":"uint256","internalType":"uint256"},{"name":"_requester","type":"address","internalType":"address"}],"outputs":[],"stateMutability":"nonpayable"},{"type":"function","name":"setIssuanceTokenPrimaryBalance","inputs":[{"name":"_issuanceNonce","type":"uint256","internalType":"uint256"},{"name":"_token","type":"address","internalType":"address"},{"name":"_amount","type":"uint256","internalType":"uint256"}],"outputs":[],"stateMutability":"nonpayable"},{"type":"function","name":"setIssuer","inputs":[{"name":"_issuer","type":"address","internalType":"address"}],"outputs":[{"name":"","type":"bool","internalType":"bool"}],"stateMutability":"nonpayable"},{"type":"function","name":"setLatestPriceDecimals","inputs":[{"name":"_decimals","type":"uint8","internalType":"uint8"}],"outputs":[],"stateMutability":"nonpayable"},{"type":"function","name":"setOrderInstanceById","inputs":[{"name":"_requestId","type":"uint256","internalType":"uint256"},{"name":"_order","type":"tuple","internalType":"struct IOrderProcessor.Order","components":[{"name":"requestTimestamp","type":"uint64","internalType":"uint64"},{"name":"recipient","type":"address","internalType":"address"},{"name":"assetToken","type":"address","internalType":"address"},{"name":"paymentToken","type":"address","internalType":"address"},{"name":"sell","type":"bool","internalType":"bool"},{"name":"orderType","type":"uint8","internalType":"enum IOrderProcessor.OrderType"},{"name":"assetTokenQuantity","type":"uint256","internalType":"uint256"},{"name":"paymentTokenQuantity","type":"uint256","internalType":"uint256"},{"name":"price","type":"uint256","internalType":"uint256"},{"name":"tif","type":"uint8","internalType":"enum IOrderProcessor.TIF"}]}],"outputs":[],"stateMutability":"nonpayable"},{"type":"function","name":"setOrderManager","inputs":[{"name":"_orderManager","type":"address","internalType":"address"}],"outputs":[{"name":"","type":"bool","internalType":"bool"}],"stateMutability":"nonpayable"},{"type":"function","name":"setPriceFeedAddresses","inputs":[{"name":"_dShares","type":"address[]","internalType":"address[]"},{"name":"_priceFeedAddresses","type":"address[]","internalType":"address[]"}],"outputs":[],"stateMutability":"nonpayable"},{"type":"function","name":"setRedemptionIndexTokenPrimaryTotalSupply","inputs":[{"name":"_redemptionNonce","type":"uint256","internalType":"uint256"},{"name":"_amount","type":"uint256","internalType":"uint256"}],"outputs":[],"stateMutability":"nonpayable"},{"type":"function","name":"setRedemptionInputAmount","inputs":[{"name":"_redemptionNonce","type":"uint256","internalType":"uint256"},{"name":"_amount","type":"uint256","internalType":"uint256"}],"outputs":[],"stateMutability":"nonpayable"},{"type":"function","name":"setRedemptionIsCompleted","inputs":[{"name":"_redemptionNonce","type":"uint256","internalType":"uint256"},{"name":"_isCompleted","type":"bool","internalType":"bool"}],"outputs":[],"stateMutability":"nonpayable"},{"type":"function","name":"setRedemptionRequestId","inputs":[{"name":"_redemptionNonce","type":"uint256","internalType":"uint256"},{"name":"_token","type":"address","internalType":"address"},{"name":"_requestId","type":"uint256","internalType":"uint256"}],"outputs":[],"stateMutability":"nonpayable"},{"type":"function","name":"setRedemptionRequesterByNonce","inputs":[{"name":"_redemptionNonce","type":"uint256","internalType":"uint256"},{"name":"_requester","type":"address","internalType":"address"}],"outputs":[],"stateMutability":"nonpayable"},{"type":"function","name":"setRedemptionTokenPrimaryBalance","inputs":[{"name":"_redemptionNonce","type":"uint256","internalType":"uint256"},{"name":"_token","type":"address","internalType":"address"},{"name":"_amount","type":"uint256","internalType":"uint256"}],"outputs":[],"stateMutability":"nonpayable"},{"type":"function","name":"setSellRequestAssetAmountById","inputs":[{"name":"_requestId","type":"uint256","internalType":"uint256"},{"name":"_amount","type":"uint256","internalType":"uint256"}],"outputs":[],"stateMutability":"nonpayable"},{"type":"function","name":"setTokenAddress","inputs":[{"name":"_token","type":"address","internalType":"address"}],"outputs":[{"name":"","type":"bool","internalType":"bool"}],"stateMutability":"nonpayable"},{"type":"function","name":"setUrl","inputs":[{"name":"_beforeAddress","type":"string","internalType":"string"},{"name":"_afterAddress","type":"string","internalType":"string"}],"outputs":[],"stateMutability":"nonpayable"},{"type":"function","name":"setUsdcAddress","inputs":[{"name":"_usdc","type":"address","internalType":"address"},{"name":"_usdcDecimals","type":"uint8","internalType":"uint8"}],"outputs":[{"name":"","type":"bool","internalType":"bool"}],"stateMutability":"nonpayable"},{"type":"function","name":"setWrappedDShareAddresses","inputs":[{"name":"_dShares","type":"address[]","internalType":"address[]"},{"name":"_wrappedDShares","type":"address[]","internalType":"address[]"}],"outputs":[],"stateMutability":"nonpayable"},{"type":"function","name":"token","inputs":[],"outputs":[{"name":"","type":"address","internalType":"contract IndexToken"}],"stateMutability":"view"},{"type":"function","name":"tokenCurrentListIndex","inputs":[{"name":"","type":"address","internalType":"address"}],"outputs":[{"name":"","type":"uint256","internalType":"uint256"}],"stateMutability":"view"},{"type":"function","name":"tokenCurrentMarketShare","inputs":[{"name":"","type":"address","internalType":"address"}],"outputs":[{"name":"","type":"uint256","internalType":"uint256"}],"stateMutability":"view"},{"type":"function","name":"tokenOracleListIndex","inputs":[{"name":"","type":"address","internalType":"address"}],"outputs":[{"name":"","type":"uint256","internalType":"uint256"}],"stateMutability":"view"},{"type":"function","name":"tokenOracleMarketShare","inputs":[{"name":"","type":"address","internalType":"address"}],"outputs":[{"name":"","type":"uint256","internalType":"uint256"}],"stateMutability":"view"},{"type":"function","name":"totalCurrentList","inputs":[],"outputs":[{"name":"","type":"uint256","internalType":"uint256"}],"stateMutability":"view"},{"type":"function","name":"totalOracleList","inputs":[],"outputs":[{"name":"","type":"uint256","internalType":"uint256"}],"stateMutability":"view"},{"type":"function","name":"transferOwnership","inputs":[{"name":"to","type":"address","internalType":"address"}],"outputs":[],"stateMutability":"nonpayable"},{"type":"function","name":"updateCurrentList","inputs":[],"outputs":[],"stateMutability":"nonpayable"},{"type":"function","name":"urlParams","inputs":[],"outputs":[{"name":"","type":"string","internalType":"string"}],"stateMutability":"view"},{"type":"function","name":"usdc","inputs":[],"outputs":[{"name":"","type":"address","internalType":"address"}],"stateMutability":"view"},{"type":"function","name":"usdcDecimals","inputs":[],"outputs":[{"name":"","type":"uint8","internalType":"uint8"}],"stateMutability":"view"},{"type":"function","name":"vault","inputs":[],"outputs":[{"name":"","type":"address","internalType":"contract NexVault"}],"stateMutability":"view"},{"type":"function","name":"wrappedDshareAddress","inputs":[{"name":"","type":"address","internalType":"address"}],"outputs":[{"name":"","type":"address","internalType":"address"}],"stateMutability":"view"},{"type":"event","name":"Initialized","inputs":[{"name":"version","type":"uint64","indexed":false,"internalType":"uint64"}],"anonymous":false},{"type":"event","name":"OwnershipTransferRequested","inputs":[{"name":"from","type":"address","indexed":true,"internalType":"address"},{"name":"to","type":"address","indexed":true,"internalType":"address"}],"anonymous":false},{"type":"event","name":"OwnershipTransferred","inputs":[{"name":"from","type":"address","indexed":true,"internalType":"address"},{"name":"to","type":"address","indexed":true,"internalType":"address"}],"anonymous":false},{"type":"event","name":"RequestFulfilled","inputs":[{"name":"id","type":"bytes32","indexed":true,"internalType":"bytes32"}],"anonymous":false},{"type":"event","name":"RequestSent","inputs":[{"name":"id","type":"bytes32","indexed":true,"internalType":"bytes32"}],"anonymous":false},{"type":"error","name":"EmptyArgs","inputs":[]},{"type":"error","name":"EmptySource","inputs":[]},{"type":"error","name":"InvalidInitialization","inputs":[]},{"type":"error","name":"NoInlineSecrets","inputs":[]},{"type":"error","name":"NotInitializing","inputs":[]},{"type":"error","name":"OnlyRouterCanFulfill","inputs":[]},{"type":"error","name":"PRBMath_MulDiv_Overflow","inputs":[{"name":"x","type":"uint256","internalType":"uint256"},{"name":"y","type":"uint256","internalType":"uint256"},{"name":"denominator","type":"uint256","internalType":"uint256"}]},{"type":"error","name":"PRBMath_MulDiv_Overflow","inputs":[{"name":"x","type":"uint256","internalType":"uint256"},{"name":"y","type":"uint256","internalType":"uint256"},{"name":"denominator","type":"uint256","internalType":"uint256"}]}],"bytecode":{"object":"0x608060405234801561000f575f80fd5b5061001e61002360201b60201c565b610183565b5f61003261012160201b60201c565b9050805f0160089054906101000a900460ff161561007c576040517ff92ee8a900000000000000000000000000000000000000000000000000000000815260040160405180910390fd5b67ffffffffffffffff8016815f015f9054906101000a900467ffffffffffffffff1667ffffffffffffffff161461011e5767ffffffffffffffff815f015f6101000a81548167ffffffffffffffff021916908367ffffffffffffffff1602179055507fc7f505b2f371ae2175ee4913f4499e1f2633a7b5936321eed1cdaeb6115181d267ffffffffffffffff604051610115919061016a565b60405180910390a15b50565b5f7ff0c57e16840df040f15088dc2f81fe391c3923bec73e23a9662efc9c229c6a00905090565b5f67ffffffffffffffff82169050919050565b61016481610148565b82525050565b5f60208201905061017d5f83018461015b565b92915050565b61d5f5806101905f395ff3fe608060405234801561000f575f80fd5b5060043610610741575f3560e01c80638c03c55a116103bc578063b592662a116101fd578063daf1c17d11610123578063efdcd974116100b6578063f513a71811610085578063f513a71814611823578063f9b6117f14611853578063fbfa77cf14611871578063fc0c546a1461188f57610741565b8063efdcd9741461178b578063efdf5053146117a7578063f1f31d66146117d7578063f2fde38b1461180757610741565b8063e3c91043116100f2578063e3c9104314611703578063e789598c14611721578063ea5142c81461173f578063eab2a7111461175b57610741565b8063daf1c17d14611657578063df1d5ea214611687578063e19eefbe146116a3578063e2851bd6146116d357610741565b8063cb4d4e091161019b578063d34ed2ab1161016a578063d34ed2ab146115d3578063d57e0493146115ef578063d5fbea631461160b578063da65925a1461162757610741565b8063cb4d4e091461154d578063cf9ee3191461156b578063d1c0cee61461159b578063d1e4a308146115b757610741565b8063c7003d1b116101d7578063c7003d1b146114c5578063c8599ded146114e1578063c8da3303146114ff578063c8f33c911461152f57610741565b8063b592662a14611447578063bb0498de14611477578063c0da840d1461149557610741565b80639dbb9c9e116102e2578063ab7820b211610280578063b1dd819e1161024f578063b1dd819e146113ad578063b3f00674146113dd578063b411dc41146113fb578063b46840f91461141757610741565b8063ab7820b214611301578063addc70d114611331578063b0e121341461134d578063b12279aa1461137d57610741565b8063a363b9cb116102bc578063a363b9cb14611255578063a73e1cbf14611285578063a84ebc17146112a1578063a87f98d2146112d157610741565b80639dbb9c9e146111d75780639edcf9f4146111f5578063a08d7bd61461122557610741565b8063946740981161035a5780639932ba4c116103295780639932ba4c1461113f57806399f68da81461116f5780639b2d6e3b1461118b5780639cf54521146111a757610741565b806394674098146110b7578063966dae0e146110e7578063978bbdb914611105578063991be68e1461112357610741565b80638da5cb5b116103965780638da5cb5b1461102f5780638dbe7b9d1461104d5780638e97d7e11461106b578063914f0cc61461108757610741565b80638c03c55a14610f9f5780638c22189914610fcf5780638c88c10c14610fff57610741565b806342faac05116105865780636ea495df116104ac5780637a6c4b7b1161044a5780638182492a116104195780638182492a14610f2b57806384d77bb114610f475780638861d23514610f655780638baa6bf114610f9557610741565b80637a6c4b7b14610ea55780637bf4216514610ec15780637bfa27f214610edf5780637cd375e214610f0f57610741565b806378032658116104865780637803265814610e455780637851b90514610e7557806378ca5de714610e7f57806379ba509714610e9b57610741565b80636ea495df14610ddd5780636ea8655614610df957806376529fdf14610e1557610741565b806355cc4e57116105245780636188199f116104f35780636188199f14610d31578063631c838514610d4d578063632439fd14610d7d5780636839a09514610dad57610741565b806355cc4e5714610cab57806357b61bc314610cdb5780635bb4780814610cf75780635bcabf0414610d1357610741565b80634b3e0b80116105605780634b3e0b8014610c375780635177942a14610c6757806353fd433214610c835780635501c6cf14610ca157610741565b806342faac0514610be1578063457e0e0f14610bff578063496304a414610c1b57610741565b806315e666a21161066b578063264fa8b91161060957806335c51204116105d857806335c5120414610b465780633c1f70ca14610b625780633e413bee14610b935780633fac092214610bb157610741565b8063264fa8b914610a9a57806326a4e8d214610aca5780632e6b96e714610afa5780633250263914610b2a57610741565b80631e2ad86e116106455780631e2ad86e14610a0257806321de914f14610a1e5780632343acb414610a3a578063239aad0d14610a6a57610741565b806315e666a21461098f5780631c7a2959146109c85780631d143848146109e457610741565b80630acb8d40116106e35780630ca76175116106b25780630ca76175146108f75780630e3293571461091357806312b6d2e614610943578063147726ae1461095f57610741565b80630acb8d401461085b5780630b1a4918146108795780630b1fa733146108a95780630be52713146108c757610741565b806306995e3b1161071f57806306995e3b146107af57806308dc4b0c146107df578063092755e01461080f5780630a1d42701461083f57610741565b8063011ced5f1461074557806302e80f71146107635780630499a61d14610793575b5f80fd5b61074d6118ad565b60405161075a9190619db3565b60405180910390f35b61077d60048036038101906107789190619e61565b6118b3565b60405161078a9190619db3565b60405180910390f35b6107ad60048036038101906107a89190619e9f565b6118d3565b005b6107c960048036038101906107c49190619eca565b61198c565b6040516107d69190619db3565b60405180910390f35b6107f960048036038101906107f49190619e9f565b611ab3565b6040516108069190619f04565b60405180910390f35b61082960048036038101906108249190619e9f565b611ae3565b6040516108369190619f04565b60405180910390f35b61085960048036038101906108549190619f52565b611b13565b005b610863611c7c565b6040516108709190619f04565b60405180910390f35b610893600480360381019061088e9190619eca565b611ca1565b6040516108a09190619f9f565b60405180910390f35b6108b1611e21565b6040516108be9190619fd3565b60405180910390f35b6108e160048036038101906108dc9190619e9f565b611e33565b6040516108ee9190619db3565b60405180910390f35b610911600480360381019061090c919061a15b565b611e48565b005b61092d6004803603810190610928919061a281565b611f09565b60405161093a919061a357565b60405180910390f35b61095d6004803603810190610958919061a377565b611f35565b005b61097960048036038101906109749190619eca565b612178565b604051610986919061a403565b60405180910390f35b6109a960048036038101906109a49190619eca565b6121f8565b6040516109bf9a9998979695949392919061a4f7565b60405180910390f35b6109e260048036038101906109dd919061a377565b6122de565b005b6109ec612521565b6040516109f9919061a5ec565b60405180910390f35b610a1c6004803603810190610a17919061a605565b612546565b005b610a386004803603810190610a33919061a377565b6126df565b005b610a546004803603810190610a4f9190619eca565b6128e0565b604051610a619190619f9f565b60405180910390f35b610a846004803603810190610a7f9190619eca565b612a79565b604051610a919190619f04565b60405180910390f35b610ab46004803603810190610aaf9190619e61565b612aa9565b604051610ac19190619db3565b60405180910390f35b610ae46004803603810190610adf9190619e9f565b612ac9565b604051610af19190619f9f565b60405180910390f35b610b146004803603810190610b0f919061a67b565b612b89565b604051610b219190619db3565b60405180910390f35b610b446004803603810190610b3f919061a6e3565b612bc6565b005b610b606004803603810190610b5b919061a875565b612c30565b005b610b7c6004803603810190610b779190619eca565b612f65565b604051610b8a92919061a8b4565b60405180910390f35b610b9b612f85565b604051610ba89190619f04565b60405180910390f35b610bcb6004803603810190610bc69190619eca565b612faa565b604051610bd89190619f9f565b60405180910390f35b610be9613143565b604051610bf69190619f9f565b60405180910390f35b610c196004803603810190610c14919061a377565b613156565b005b610c356004803603810190610c30919061a377565b613399565b005b610c516004803603810190610c4c9190619e9f565b6135dc565b604051610c5e9190619db3565b60405180910390f35b610c816004803603810190610c7c919061a6e3565b6135f1565b005b610c8b6136e2565b604051610c989190619db3565b60405180910390f35b610ca96136e8565b005b610cc56004803603810190610cc09190619e9f565b613840565b604051610cd29190619f9f565b60405180910390f35b610cf56004803603810190610cf0919061a99f565b613900565b005b610d116004803603810190610d0c9190619e9f565b613a18565b005b610d1b613ad1565b604051610d28919061a357565b60405180910390f35b610d4b6004803603810190610d46919061a605565b613b5d565b005b610d676004803603810190610d629190619eca565b613cf6565b604051610d749190619f9f565b60405180910390f35b610d976004803603810190610d929190619e61565b61425e565b604051610da49190619db3565b60405180910390f35b610dc76004803603810190610dc29190619e9f565b61427e565b604051610dd49190619db3565b60405180910390f35b610df76004803603810190610df2919061a605565b61467d565b005b610e136004803603810190610e0e919061a377565b6147d4565b005b610e2f6004803603810190610e2a9190619eca565b614a17565b604051610e3c9190619f9f565b60405180910390f35b610e5f6004803603810190610e5a9190619eca565b614a34565b604051610e6c9190619f04565b60405180910390f35b610e7d614a64565b005b610e996004803603810190610e94919061aa15565b614bbc565b005b610ea3614bce565b005b610ebf6004803603810190610eba919061a377565b614d5f565b005b610ec9614fa2565b604051610ed69190619fd3565b60405180910390f35b610ef96004803603810190610ef49190619eca565b614fb5565b604051610f069190619f9f565b60405180910390f35b610f296004803603810190610f249190619f52565b614fd2565b005b610f456004803603810190610f40919061aa8d565b61513b565b005b610f4f6152e5565b604051610f5c9190619db3565b60405180910390f35b610f7f6004803603810190610f7a9190619eca565b6152eb565b604051610f8c9190619db3565b60405180910390f35b610f9d615300565b005b610fb96004803603810190610fb4919061ac5c565b6154f9565b604051610fc6919061ad75565b60405180910390f35b610fe96004803603810190610fe49190619e61565b615656565b604051610ff69190619db3565b60405180910390f35b61101960048036038101906110149190619e9f565b615676565b6040516110269190619db3565b60405180910390f35b61103761568b565b6040516110449190619f04565b60405180910390f35b6110556156b3565b604051611062919061ad75565b60405180910390f35b61108560048036038101906110809190619f52565b6156b9565b005b6110a1600480360381019061109c9190619e9f565b615822565b6040516110ae9190619db3565b60405180910390f35b6110d160048036038101906110cc9190619eca565b615837565b6040516110de9190619f04565b60405180910390f35b6110ef615867565b6040516110fc9190619f04565b60405180910390f35b61110d61588c565b60405161111a9190619fd3565b60405180910390f35b61113d6004803603810190611138919061ad8e565b61589f565b005b61115960048036038101906111549190619eca565b6158c4565b6040516111669190619f04565b60405180910390f35b6111896004803603810190611184919061a605565b6158f4565b005b6111a560048036038101906111a0919061a377565b615a4b565b005b6111c160048036038101906111bc9190619eca565b615c4c565b6040516111ce9190619db3565b60405180910390f35b6111df615c61565b6040516111ec9190619db3565b60405180910390f35b61120f600480360381019061120a9190619e61565b615c67565b60405161121c9190619db3565b60405180910390f35b61123f600480360381019061123a9190619e9f565b615c87565b60405161124c9190619db3565b60405180910390f35b61126f600480360381019061126a9190619e61565b615e73565b60405161127c9190619db3565b60405180910390f35b61129f600480360381019061129a919061a281565b615e93565b005b6112bb60048036038101906112b69190619eca565b615ebf565b6040516112c89190619f9f565b60405180910390f35b6112eb60048036038101906112e69190619eca565b615edc565b6040516112f89190619db3565b60405180910390f35b61131b60048036038101906113169190619eca565b615ef1565b6040516113289190619db3565b60405180910390f35b61134b6004803603810190611346919061ae79565b615f05565b005b61136760048036038101906113629190619eca565b615f1b565b6040516113749190619f9f565b60405180910390f35b6113976004803603810190611392919061ad8e565b61609b565b6040516113a4919061b004565b60405180910390f35b6113c760048036038101906113c29190619eca565b6161e5565b6040516113d49190619db3565b60405180910390f35b6113e56161fa565b6040516113f29190619f04565b60405180910390f35b6114156004803603810190611410919061a99f565b616220565b005b611431600480360381019061142c9190619eca565b616338565b60405161143e9190619f9f565b60405180910390f35b611461600480360381019061145c9190619eca565b616355565b60405161146e9190619f9f565b60405180910390f35b61147f6168bd565b60405161148c9190619db3565b60405180910390f35b6114af60048036038101906114aa9190619e9f565b61692b565b6040516114bc9190619f9f565b60405180910390f35b6114df60048036038101906114da919061a605565b6169eb565b005b6114e9616b84565b6040516114f69190619db3565b60405180910390f35b61151960048036038101906115149190619eca565b616b8a565b6040516115269190619db3565b60405180910390f35b611537616c8e565b6040516115449190619db3565b60405180910390f35b611555616c94565b6040516115629190619f04565b60405180910390f35b61158560048036038101906115809190619eca565b616cb9565b6040516115929190619db3565b60405180910390f35b6115b560048036038101906115b09190619f52565b616cce565b005b6115d160048036038101906115cc919061a605565b616e37565b005b6115ed60048036038101906115e89190619e61565b617012565b005b6116096004803603810190611604919061b01e565b617210565b005b61162560048036038101906116209190619e9f565b6178ea565b005b611641600480360381019061163c9190619e61565b6179a3565b60405161164e9190619db3565b60405180910390f35b611671600480360381019061166c9190619eca565b6179c3565b60405161167e9190619db3565b60405180910390f35b6116a1600480360381019061169c9190619e61565b6179d8565b005b6116bd60048036038101906116b89190619eca565b617bd6565b6040516116ca9190619db3565b60405180910390f35b6116ed60048036038101906116e89190619eca565b617dbd565b6040516116fa9190619db3565b60405180910390f35b61170b617ec1565b6040516117189190619f04565b60405180910390f35b611729617ee6565b604051611736919061a357565b60405180910390f35b6117596004803603810190611754919061a605565b617f72565b005b6117756004803603810190611770919061b0e2565b61810b565b6040516117829190619f9f565b60405180910390f35b6117a560048036038101906117a09190619e9f565b61822c565b005b6117c160048036038101906117bc9190619e9f565b6182e6565b6040516117ce9190619db3565b60405180910390f35b6117f160048036038101906117ec9190619eca565b618395565b6040516117fe919061b004565b60405180910390f35b611821600480360381019061181c9190619e9f565b6185e0565b005b61183d60048036038101906118389190619e61565b6185f4565b60405161184a9190619db3565b60405180910390f35b61185b618614565b604051611868919061b140565b60405180910390f35b611879618639565b604051611886919061b179565b60405180910390f35b61189761865e565b6040516118a4919061b1b2565b60405180910390f35b601a5481565b6021602052815f5260405f20602052805f5260405f205f91509150505481565b6118db618683565b5f73ffffffffffffffffffffffffffffffffffffffff168173ffffffffffffffffffffffffffffffffffffffff1603611949576040517f08c379a00000000000000000000000000000000000000000000000000000000081526004016119409061b23b565b60405180910390fd5b8060075f6101000a81548173ffffffffffffffffffffffffffffffffffffffff021916908373ffffffffffffffffffffffffffffffffffffffff16021790555050565b5f8082116119cf576040517f08c379a00000000000000000000000000000000000000000000000000000000081526004016119c69061b2a3565b60405180910390fd5b5f8060175f9054906101000a900473ffffffffffffffffffffffffffffffffffffffff1673ffffffffffffffffffffffffffffffffffffffff1663236970d45f60185f9054906101000a900473ffffffffffffffffffffffffffffffffffffffff166040518363ffffffff1660e01b8152600401611a4e92919061b2c1565b6040805180830381865afa158015611a68573d5f803e3d5ffd5b505050506040513d601f19601f82011682018060405250810190611a8c919061b310565b915091505f611a9b8286618714565b83611aa6919061b37b565b9050809350505050919050565b6014602052805f5260405f205f915054906101000a900473ffffffffffffffffffffffffffffffffffffffff1681565b600f602052805f5260405f205f915054906101000a900473ffffffffffffffffffffffffffffffffffffffff1681565b60055f9054906101000a900473ffffffffffffffffffffffffffffffffffffffff1673ffffffffffffffffffffffffffffffffffffffff163373ffffffffffffffffffffffffffffffffffffffff161480611bba575060075f9054906101000a900473ffffffffffffffffffffffffffffffffffffffff1673ffffffffffffffffffffffffffffffffffffffff163373ffffffffffffffffffffffffffffffffffffffff16145b80611c11575060065f9054906101000a900473ffffffffffffffffffffffffffffffffffffffff1673ffffffffffffffffffffffffffffffffffffffff163373ffffffffffffffffffffffffffffffffffffffff16145b611c50576040517f08c379a0000000000000000000000000000000000000000000000000000000008152600401611c479061b3f8565b60405180910390fd5b80601f5f8481526020019081526020015f205f6101000a81548160ff0219169083151502179055505050565b60075f9054906101000a900473ffffffffffffffffffffffffffffffffffffffff1681565b5f805b600c54811015611e17575f600e5f8381526020019081526020015f205f9054906101000a900473ffffffffffffffffffffffffffffffffffffffff1690505f60245f8681526020019081526020015f205f8373ffffffffffffffffffffffffffffffffffffffff1673ffffffffffffffffffffffffffffffffffffffff1681526020019081526020015f2054905060016003811115611d4657611d4561a43e565b5b60ff1660175f9054906101000a900473ffffffffffffffffffffffffffffffffffffffff1673ffffffffffffffffffffffffffffffffffffffff166345fa8aae836040518263ffffffff1660e01b8152600401611da39190619db3565b602060405180830381865afa158015611dbe573d5f803e3d5ffd5b505050506040513d601f19601f82011682018060405250810190611de2919061b439565b6003811115611df457611df361a43e565b5b60ff1603611e085760019350505050611e1c565b50508080600101915050611ca4565b505f90505b919050565b601d5f9054906101000a900460ff1681565b6012602052805f5260405f205f915090505481565b5f8054906101000a900473ffffffffffffffffffffffffffffffffffffffff1673ffffffffffffffffffffffffffffffffffffffff163373ffffffffffffffffffffffffffffffffffffffff1614611ecc576040517fc6829f8300000000000000000000000000000000000000000000000000000000815260040160405180910390fd5b611ed7838383618748565b827f85e1543bf2f84fe80c6badbce3648c8539ad1df4d2b3d822938ca0538be727e660405160405180910390a2505050565b60608282604051602001611f1e92919061b4a8565b604051602081830303815290604052905092915050565b60055f9054906101000a900473ffffffffffffffffffffffffffffffffffffffff1673ffffffffffffffffffffffffffffffffffffffff163373ffffffffffffffffffffffffffffffffffffffff161480611fdc575060075f9054906101000a900473ffffffffffffffffffffffffffffffffffffffff1673ffffffffffffffffffffffffffffffffffffffff163373ffffffffffffffffffffffffffffffffffffffff16145b80612033575060065f9054906101000a900473ffffffffffffffffffffffffffffffffffffffff1673ffffffffffffffffffffffffffffffffffffffff163373ffffffffffffffffffffffffffffffffffffffff16145b612072576040517f08c379a00000000000000000000000000000000000000000000000000000000081526004016120699061b3f8565b60405180910390fd5b5f81116120b4576040517f08c379a00000000000000000000000000000000000000000000000000000000081526004016120ab9061b53b565b60405180910390fd5b5f73ffffffffffffffffffffffffffffffffffffffff168273ffffffffffffffffffffffffffffffffffffffff1603612122576040517f08c379a00000000000000000000000000000000000000000000000000000000081526004016121199061b5a3565b60405180910390fd5b8060335f8581526020019081526020015f205f8473ffffffffffffffffffffffffffffffffffffffff1673ffffffffffffffffffffffffffffffffffffffff1681526020019081526020015f2081905550505050565b612180619c21565b5f82116121c2576040517f08c379a00000000000000000000000000000000000000000000000000000000081526004016121b99061b60b565b60405180910390fd5b60325f8381526020019081526020015f206040518060400160405290815f82015481526020016001820154815250509050919050565b602f602052805f5260405f205f91509050805f015f9054906101000a900467ffffffffffffffff1690805f0160089054906101000a900473ffffffffffffffffffffffffffffffffffffffff1690806001015f9054906101000a900473ffffffffffffffffffffffffffffffffffffffff1690806002015f9054906101000a900473ffffffffffffffffffffffffffffffffffffffff16908060020160149054906101000a900460ff16908060020160159054906101000a900460ff1690806003015490806004015490806005015490806006015f9054906101000a900460ff1690508a565b60055f9054906101000a900473ffffffffffffffffffffffffffffffffffffffff1673ffffffffffffffffffffffffffffffffffffffff163373ffffffffffffffffffffffffffffffffffffffff161480612385575060075f9054906101000a900473ffffffffffffffffffffffffffffffffffffffff1673ffffffffffffffffffffffffffffffffffffffff163373ffffffffffffffffffffffffffffffffffffffff16145b806123dc575060065f9054906101000a900473ffffffffffffffffffffffffffffffffffffffff1673ffffffffffffffffffffffffffffffffffffffff163373ffffffffffffffffffffffffffffffffffffffff16145b61241b576040517f08c379a00000000000000000000000000000000000000000000000000000000081526004016124129061b3f8565b60405180910390fd5b5f811161245d576040517f08c379a00000000000000000000000000000000000000000000000000000000081526004016124549061b673565b60405180910390fd5b5f73ffffffffffffffffffffffffffffffffffffffff168273ffffffffffffffffffffffffffffffffffffffff16036124cb576040517f08c379a00000000000000000000000000000000000000000000000000000000081526004016124c29061b5a3565b60405180910390fd5b8060245f8581526020019081526020015f205f8473ffffffffffffffffffffffffffffffffffffffff1673ffffffffffffffffffffffffffffffffffffffff1681526020019081526020015f2081905550505050565b60175f9054906101000a900473ffffffffffffffffffffffffffffffffffffffff1681565b60055f9054906101000a900473ffffffffffffffffffffffffffffffffffffffff1673ffffffffffffffffffffffffffffffffffffffff163373ffffffffffffffffffffffffffffffffffffffff1614806125ed575060075f9054906101000a900473ffffffffffffffffffffffffffffffffffffffff1673ffffffffffffffffffffffffffffffffffffffff163373ffffffffffffffffffffffffffffffffffffffff16145b80612644575060065f9054906101000a900473ffffffffffffffffffffffffffffffffffffffff1673ffffffffffffffffffffffffffffffffffffffff163373ffffffffffffffffffffffffffffffffffffffff16145b612683576040517f08c379a000000000000000000000000000000000000000000000000000000000815260040161267a9061b3f8565b60405180910390fd5b5f81116126c5576040517f08c379a00000000000000000000000000000000000000000000000000000000081526004016126bc9061b6db565b60405180910390fd5b8060265f8481526020019081526020015f20819055505050565b60055f9054906101000a900473ffffffffffffffffffffffffffffffffffffffff1673ffffffffffffffffffffffffffffffffffffffff163373ffffffffffffffffffffffffffffffffffffffff161480612786575060075f9054906101000a900473ffffffffffffffffffffffffffffffffffffffff1673ffffffffffffffffffffffffffffffffffffffff163373ffffffffffffffffffffffffffffffffffffffff16145b806127dd575060065f9054906101000a900473ffffffffffffffffffffffffffffffffffffffff1673ffffffffffffffffffffffffffffffffffffffff163373ffffffffffffffffffffffffffffffffffffffff16145b61281c576040517f08c379a00000000000000000000000000000000000000000000000000000000081526004016128139061b3f8565b60405180910390fd5b5f73ffffffffffffffffffffffffffffffffffffffff168273ffffffffffffffffffffffffffffffffffffffff160361288a576040517f08c379a00000000000000000000000000000000000000000000000000000000081526004016128819061b743565b60405180910390fd5b8060285f8581526020019081526020015f205f8473ffffffffffffffffffffffffffffffffffffffff1673ffffffffffffffffffffffffffffffffffffffff1681526020019081526020015f2081905550505050565b5f805f5b600c54811015612a5b575f600e5f8381526020019081526020015f205f9054906101000a900473ffffffffffffffffffffffffffffffffffffffff1690505f60235f8781526020019081526020015f205f8373ffffffffffffffffffffffffffffffffffffffff1673ffffffffffffffffffffffffffffffffffffffff1681526020019081526020015f20549050600260038111156129865761298561a43e565b5b60ff1660175f9054906101000a900473ffffffffffffffffffffffffffffffffffffffff1673ffffffffffffffffffffffffffffffffffffffff166345fa8aae836040518263ffffffff1660e01b81526004016129e39190619db3565b602060405180830381865afa1580156129fe573d5f803e3d5ffd5b505050506040513d601f19601f82011682018060405250810190612a22919061b439565b6003811115612a3457612a3361a43e565b5b60ff1603612a4c57600184612a49919061b37b565b93505b505080806001019150506128e4565b50600c548103612a6f576001915050612a74565b5f9150505b919050565b600d602052805f5260405f205f915054906101000a900473ffffffffffffffffffffffffffffffffffffffff1681565b6023602052815f5260405f20602052805f5260405f205f91509150505481565b5f612ad2618683565b5f73ffffffffffffffffffffffffffffffffffffffff168273ffffffffffffffffffffffffffffffffffffffff1603612b40576040517f08c379a0000000000000000000000000000000000000000000000000000000008152600401612b379061b7ab565b60405180910390fd5b8160155f6101000a81548173ffffffffffffffffffffffffffffffffffffffff021916908373ffffffffffffffffffffffffffffffffffffffff16021790555060019050919050565b5f808362ffffff1603612b9c575f612bbe565b612bbd82620f424085620f4240612bb3919061b7c9565b62ffffff1661883f565b5b905092915050565b612bce618683565b5f8160ff1611612c13576040517f08c379a0000000000000000000000000000000000000000000000000000000008152600401612c0a9061b849565b60405180910390fd5b80601d5f6101000a81548160ff021916908360ff16021790555050565b60055f9054906101000a900473ffffffffffffffffffffffffffffffffffffffff1673ffffffffffffffffffffffffffffffffffffffff163373ffffffffffffffffffffffffffffffffffffffff161480612cd7575060075f9054906101000a900473ffffffffffffffffffffffffffffffffffffffff1673ffffffffffffffffffffffffffffffffffffffff163373ffffffffffffffffffffffffffffffffffffffff16145b80612d2e575060065f9054906101000a900473ffffffffffffffffffffffffffffffffffffffff1673ffffffffffffffffffffffffffffffffffffffff163373ffffffffffffffffffffffffffffffffffffffff16145b612d6d576040517f08c379a0000000000000000000000000000000000000000000000000000000008152600401612d649061b3f8565b60405180910390fd5b5f8211612daf576040517f08c379a0000000000000000000000000000000000000000000000000000000008152600401612da69061b60b565b60405180910390fd5b80602f5f8481526020019081526020015f205f820151815f015f6101000a81548167ffffffffffffffff021916908367ffffffffffffffff1602179055506020820151815f0160086101000a81548173ffffffffffffffffffffffffffffffffffffffff021916908373ffffffffffffffffffffffffffffffffffffffff1602179055506040820151816001015f6101000a81548173ffffffffffffffffffffffffffffffffffffffff021916908373ffffffffffffffffffffffffffffffffffffffff1602179055506060820151816002015f6101000a81548173ffffffffffffffffffffffffffffffffffffffff021916908373ffffffffffffffffffffffffffffffffffffffff16021790555060808201518160020160146101000a81548160ff02191690831515021790555060a08201518160020160156101000a81548160ff02191690836001811115612f0a57612f0961a43e565b5b021790555060c0820151816003015560e082015181600401556101008201518160050155610120820151816006015f6101000a81548160ff02191690836003811115612f5957612f5861a43e565b5b02179055509050505050565b6032602052805f5260405f205f91509050805f0154908060010154905082565b60185f9054906101000a900473ffffffffffffffffffffffffffffffffffffffff1681565b5f805f5b600c54811015613125575f600e5f8381526020019081526020015f205f9054906101000a900473ffffffffffffffffffffffffffffffffffffffff1690505f60245f8781526020019081526020015f205f8373ffffffffffffffffffffffffffffffffffffffff1673ffffffffffffffffffffffffffffffffffffffff1681526020019081526020015f20549050600260038111156130505761304f61a43e565b5b60ff1660175f9054906101000a900473ffffffffffffffffffffffffffffffffffffffff1673ffffffffffffffffffffffffffffffffffffffff166345fa8aae836040518263ffffffff1660e01b81526004016130ad9190619db3565b602060405180830381865afa1580156130c8573d5f803e3d5ffd5b505050506040513d601f19601f820116820180604052508101906130ec919061b439565b60038111156130fe576130fd61a43e565b5b60ff160361311657600184613113919061b37b565b93505b50508080600101915050612fae565b50600c54810361313957600191505061313e565b5f9150505b919050565b601960149054906101000a900460ff1681565b60055f9054906101000a900473ffffffffffffffffffffffffffffffffffffffff1673ffffffffffffffffffffffffffffffffffffffff163373ffffffffffffffffffffffffffffffffffffffff1614806131fd575060075f9054906101000a900473ffffffffffffffffffffffffffffffffffffffff1673ffffffffffffffffffffffffffffffffffffffff163373ffffffffffffffffffffffffffffffffffffffff16145b80613254575060065f9054906101000a900473ffffffffffffffffffffffffffffffffffffffff1673ffffffffffffffffffffffffffffffffffffffff163373ffffffffffffffffffffffffffffffffffffffff16145b613293576040517f08c379a000000000000000000000000000000000000000000000000000000000815260040161328a9061b3f8565b60405180910390fd5b5f81116132d5576040517f08c379a00000000000000000000000000000000000000000000000000000000081526004016132cc9061b673565b60405180910390fd5b5f73ffffffffffffffffffffffffffffffffffffffff168273ffffffffffffffffffffffffffffffffffffffff1603613343576040517f08c379a000000000000000000000000000000000000000000000000000000000815260040161333a9061b5a3565b60405180910390fd5b8060225f8581526020019081526020015f205f8473ffffffffffffffffffffffffffffffffffffffff1673ffffffffffffffffffffffffffffffffffffffff1681526020019081526020015f2081905550505050565b60055f9054906101000a900473ffffffffffffffffffffffffffffffffffffffff1673ffffffffffffffffffffffffffffffffffffffff163373ffffffffffffffffffffffffffffffffffffffff161480613440575060075f9054906101000a900473ffffffffffffffffffffffffffffffffffffffff1673ffffffffffffffffffffffffffffffffffffffff163373ffffffffffffffffffffffffffffffffffffffff16145b80613497575060065f9054906101000a900473ffffffffffffffffffffffffffffffffffffffff1673ffffffffffffffffffffffffffffffffffffffff163373ffffffffffffffffffffffffffffffffffffffff16145b6134d6576040517f08c379a00000000000000000000000000000000000000000000000000000000081526004016134cd9061b3f8565b60405180910390fd5b5f8111613518576040517f08c379a000000000000000000000000000000000000000000000000000000000815260040161350f9061b8b1565b60405180910390fd5b5f73ffffffffffffffffffffffffffffffffffffffff168273ffffffffffffffffffffffffffffffffffffffff1603613586576040517f08c379a000000000000000000000000000000000000000000000000000000000815260040161357d9061b5a3565b60405180910390fd5b8060235f8581526020019081526020015f205f8473ffffffffffffffffffffffffffffffffffffffff1673ffffffffffffffffffffffffffffffffffffffff1681526020019081526020015f2081905550505050565b6013602052805f5260405f205f915090505481565b6135f9618683565b5f601a5442613608919061b8cf565b9050600c603c808361361a919061b92f565b613624919061b92f565b11613664576040517f08c379a000000000000000000000000000000000000000000000000000000000815260040161365b9061b9cf565b60405180910390fd5b6127108260ff161115801561367d575060018260ff1610155b6136bc576040517f08c379a00000000000000000000000000000000000000000000000000000000081526004016136b39061ba5d565b60405180910390fd5b81601960156101000a81548160ff021916908360ff16021790555042601a819055505050565b600c5481565b60055f9054906101000a900473ffffffffffffffffffffffffffffffffffffffff1673ffffffffffffffffffffffffffffffffffffffff163373ffffffffffffffffffffffffffffffffffffffff16148061378f575060075f9054906101000a900473ffffffffffffffffffffffffffffffffffffffff1673ffffffffffffffffffffffffffffffffffffffff163373ffffffffffffffffffffffffffffffffffffffff16145b806137e6575060065f9054906101000a900473ffffffffffffffffffffffffffffffffffffffff1673ffffffffffffffffffffffffffffffffffffffff163373ffffffffffffffffffffffffffffffffffffffff16145b613825576040517f08c379a000000000000000000000000000000000000000000000000000000000815260040161381c9061b3f8565b60405180910390fd5b6001601b5f828254613837919061b37b565b92505081905550565b5f613849618683565b5f73ffffffffffffffffffffffffffffffffffffffff168273ffffffffffffffffffffffffffffffffffffffff16036138b7576040517f08c379a00000000000000000000000000000000000000000000000000000000081526004016138ae9061bac5565b60405180910390fd5b8160175f6101000a81548173ffffffffffffffffffffffffffffffffffffffff021916908373ffffffffffffffffffffffffffffffffffffffff16021790555060019050919050565b613908618683565b805182511461394c576040517f08c379a00000000000000000000000000000000000000000000000000000000081526004016139439061bb2d565b60405180910390fd5b5f5b8251811015613a135781818151811061396a5761396961bb4b565b5b602002602001015160145f8584815181106139885761398761bb4b565b5b602002602001015173ffffffffffffffffffffffffffffffffffffffff1673ffffffffffffffffffffffffffffffffffffffff1681526020019081526020015f205f6101000a81548173ffffffffffffffffffffffffffffffffffffffff021916908373ffffffffffffffffffffffffffffffffffffffff160217905550808060010191505061394e565b505050565b613a20618683565b5f73ffffffffffffffffffffffffffffffffffffffff168173ffffffffffffffffffffffffffffffffffffffff1603613a8e576040517f08c379a0000000000000000000000000000000000000000000000000000000008152600401613a859061bbc2565b60405180910390fd5b8060055f6101000a81548173ffffffffffffffffffffffffffffffffffffffff021916908373ffffffffffffffffffffffffffffffffffffffff16021790555050565b60038054613ade9061bc0d565b80601f0160208091040260200160405190810160405280929190818152602001828054613b0a9061bc0d565b8015613b555780601f10613b2c57610100808354040283529160200191613b55565b820191905f5260205f20905b815481529060010190602001808311613b3857829003601f168201915b505050505081565b60055f9054906101000a900473ffffffffffffffffffffffffffffffffffffffff1673ffffffffffffffffffffffffffffffffffffffff163373ffffffffffffffffffffffffffffffffffffffff161480613c04575060075f9054906101000a900473ffffffffffffffffffffffffffffffffffffffff1673ffffffffffffffffffffffffffffffffffffffff163373ffffffffffffffffffffffffffffffffffffffff16145b80613c5b575060065f9054906101000a900473ffffffffffffffffffffffffffffffffffffffff1673ffffffffffffffffffffffffffffffffffffffff163373ffffffffffffffffffffffffffffffffffffffff16145b613c9a576040517f08c379a0000000000000000000000000000000000000000000000000000000008152600401613c919061b3f8565b60405180910390fd5b5f8111613cdc576040517f08c379a0000000000000000000000000000000000000000000000000000000008152600401613cd39061bc87565b60405180910390fd5b8060205f8481526020019081526020015f20819055505050565b5f805f5b600c54811015614240575f600e5f8381526020019081526020015f205f9054906101000a900473ffffffffffffffffffffffffffffffffffffffff1690505f60235f8781526020019081526020015f205f8373ffffffffffffffffffffffffffffffffffffffff1673ffffffffffffffffffffffffffffffffffffffff1681526020019081526020015f205490505f60175f9054906101000a900473ffffffffffffffffffffffffffffffffffffffff1673ffffffffffffffffffffffffffffffffffffffff166361ecbb44836040518263ffffffff1660e01b8152600401613de39190619db3565b602060405180830381865afa158015613dfe573d5f803e3d5ffd5b505050506040513d601f19601f82011682018060405250810190613e22919061bca5565b9050600380811115613e3757613e3661a43e565b5b60ff1660175f9054906101000a900473ffffffffffffffffffffffffffffffffffffffff1673ffffffffffffffffffffffffffffffffffffffff166345fa8aae846040518263ffffffff1660e01b8152600401613e949190619db3565b602060405180830381865afa158015613eaf573d5f803e3d5ffd5b505050506040513d601f19601f82011682018060405250810190613ed3919061b439565b6003811115613ee557613ee461a43e565b5b60ff1603614039575f8103613f0857600185613f01919061b37b565b9450614034565b5f60215f8981526020019081526020015f205f8573ffffffffffffffffffffffffffffffffffffffff1673ffffffffffffffffffffffffffffffffffffffff1681526020019081526020015f2054905060026003811115613f6c57613f6b61a43e565b5b60ff1660175f9054906101000a900473ffffffffffffffffffffffffffffffffffffffff1673ffffffffffffffffffffffffffffffffffffffff166345fa8aae836040518263ffffffff1660e01b8152600401613fc99190619db3565b602060405180830381865afa158015613fe4573d5f803e3d5ffd5b505050506040513d601f19601f82011682018060405250810190614008919061b439565b600381111561401a5761401961a43e565b5b60ff16036140325760018661402f919061b37b565b95505b505b614230565b6002600381111561404d5761404c61a43e565b5b60ff1660175f9054906101000a900473ffffffffffffffffffffffffffffffffffffffff1673ffffffffffffffffffffffffffffffffffffffff166345fa8aae846040518263ffffffff1660e01b81526004016140aa9190619db3565b602060405180830381865afa1580156140c5573d5f803e3d5ffd5b505050506040513d601f19601f820116820180604052508101906140e9919061b439565b60038111156140fb576140fa61a43e565b5b60ff160361422f575f60215f8981526020019081526020015f205f8573ffffffffffffffffffffffffffffffffffffffff1673ffffffffffffffffffffffffffffffffffffffff1681526020019081526020015f20549050600260038111156141675761416661a43e565b5b60ff1660175f9054906101000a900473ffffffffffffffffffffffffffffffffffffffff1673ffffffffffffffffffffffffffffffffffffffff166345fa8aae836040518263ffffffff1660e01b81526004016141c49190619db3565b602060405180830381865afa1580156141df573d5f803e3d5ffd5b505050506040513d601f19601f82011682018060405250810190614203919061b439565b60038111156142155761421461a43e565b5b60ff160361422d5760018661422a919061b37b565b95505b505b5b5050508080600101915050613cfa565b50600c548103614254576001915050614259565b5f9150505b919050565b6034602052815f5260405f20602052805f5260405f205f91509150505481565b5f8073ffffffffffffffffffffffffffffffffffffffff168273ffffffffffffffffffffffffffffffffffffffff16036142ed576040517f08c379a00000000000000000000000000000000000000000000000000000000081526004016142e49061b7ab565b60405180910390fd5b601960149054906101000a900460ff1615614594575f60145f8473ffffffffffffffffffffffffffffffffffffffff1673ffffffffffffffffffffffffffffffffffffffff1681526020019081526020015f205f9054906101000a900473ffffffffffffffffffffffffffffffffffffffff1690505f805f8373ffffffffffffffffffffffffffffffffffffffff1663feaf968c6040518163ffffffff1660e01b815260040160a060405180830381865afa1580156143ae573d5f803e3d5ffd5b505050506040513d601f19601f820116820180604052508101906143d2919061bd42565b50935050925092505f8369ffffffffffffffffffff1603614428576040517f08c379a000000000000000000000000000000000000000000000000000000000815260040161441f9061be03565b60405180910390fd5b5f81141580156144385750428111155b614477576040517f08c379a000000000000000000000000000000000000000000000000000000000815260040161446e9061be6b565b60405180910390fd5b5f82136144b9576040517f08c379a00000000000000000000000000000000000000000000000000000000081526004016144b09061bed3565b60405180910390fd5b6201518081426144c9919061b8cf565b10614509576040517f08c379a00000000000000000000000000000000000000000000000000000000081526004016145009061be6b565b60405180910390fd5b5f8473ffffffffffffffffffffffffffffffffffffffff1663313ce5676040518163ffffffff1660e01b8152600401602060405180830381865afa158015614553573d5f803e3d5ffd5b505050506040513d601f19601f82011682018060405250810190614577919061bf05565b905061458583826012618951565b92508295505050505050614678565b5f60175f9054906101000a900473ffffffffffffffffffffffffffffffffffffffff1673ffffffffffffffffffffffffffffffffffffffff1663a377cfbf8460185f9054906101000a900473ffffffffffffffffffffffffffffffffffffffff166040518363ffffffff1660e01b815260040161461292919061bf30565b6040805180830381865afa15801561462c573d5f803e3d5ffd5b505050506040513d601f19601f82011682018060405250810190614650919061bfb8565b90505f614670825f0151601d5f9054906101000a900460ff166012618951565b905080925050505b919050565b60055f9054906101000a900473ffffffffffffffffffffffffffffffffffffffff1673ffffffffffffffffffffffffffffffffffffffff163373ffffffffffffffffffffffffffffffffffffffff161480614724575060075f9054906101000a900473ffffffffffffffffffffffffffffffffffffffff1673ffffffffffffffffffffffffffffffffffffffff163373ffffffffffffffffffffffffffffffffffffffff16145b8061477b575060065f9054906101000a900473ffffffffffffffffffffffffffffffffffffffff1673ffffffffffffffffffffffffffffffffffffffff163373ffffffffffffffffffffffffffffffffffffffff16145b6147ba576040517f08c379a00000000000000000000000000000000000000000000000000000000081526004016147b19061b3f8565b60405180910390fd5b80602a5f8481526020019081526020015f20819055505050565b60055f9054906101000a900473ffffffffffffffffffffffffffffffffffffffff1673ffffffffffffffffffffffffffffffffffffffff163373ffffffffffffffffffffffffffffffffffffffff16148061487b575060075f9054906101000a900473ffffffffffffffffffffffffffffffffffffffff1673ffffffffffffffffffffffffffffffffffffffff163373ffffffffffffffffffffffffffffffffffffffff16145b806148d2575060065f9054906101000a900473ffffffffffffffffffffffffffffffffffffffff1673ffffffffffffffffffffffffffffffffffffffff163373ffffffffffffffffffffffffffffffffffffffff16145b614911576040517f08c379a00000000000000000000000000000000000000000000000000000000081526004016149089061b3f8565b60405180910390fd5b5f8111614953576040517f08c379a000000000000000000000000000000000000000000000000000000000815260040161494a9061c053565b60405180910390fd5b5f73ffffffffffffffffffffffffffffffffffffffff168273ffffffffffffffffffffffffffffffffffffffff16036149c1576040517f08c379a00000000000000000000000000000000000000000000000000000000081526004016149b89061b5a3565b60405180910390fd5b8060345f8581526020019081526020015f205f8473ffffffffffffffffffffffffffffffffffffffff1673ffffffffffffffffffffffffffffffffffffffff1681526020019081526020015f2081905550505050565b601f602052805f5260405f205f915054906101000a900460ff1681565b602c602052805f5260405f205f915054906101000a900473ffffffffffffffffffffffffffffffffffffffff1681565b60055f9054906101000a900473ffffffffffffffffffffffffffffffffffffffff1673ffffffffffffffffffffffffffffffffffffffff163373ffffffffffffffffffffffffffffffffffffffff161480614b0b575060075f9054906101000a900473ffffffffffffffffffffffffffffffffffffffff1673ffffffffffffffffffffffffffffffffffffffff163373ffffffffffffffffffffffffffffffffffffffff16145b80614b62575060065f9054906101000a900473ffffffffffffffffffffffffffffffffffffffff1673ffffffffffffffffffffffffffffffffffffffff163373ffffffffffffffffffffffffffffffffffffffff16145b614ba1576040517f08c379a0000000000000000000000000000000000000000000000000000000008152600401614b989061b3f8565b60405180910390fd5b6001601c5f828254614bb3919061b37b565b92505081905550565b614bc4618683565b8060088190555050565b60025f9054906101000a900473ffffffffffffffffffffffffffffffffffffffff1673ffffffffffffffffffffffffffffffffffffffff163373ffffffffffffffffffffffffffffffffffffffff1614614c5d576040517f08c379a0000000000000000000000000000000000000000000000000000000008152600401614c549061c0bb565b60405180910390fd5b5f60015f9054906101000a900473ffffffffffffffffffffffffffffffffffffffff1690503360015f6101000a81548173ffffffffffffffffffffffffffffffffffffffff021916908373ffffffffffffffffffffffffffffffffffffffff1602179055505f60025f6101000a81548173ffffffffffffffffffffffffffffffffffffffff021916908373ffffffffffffffffffffffffffffffffffffffff1602179055503373ffffffffffffffffffffffffffffffffffffffff168173ffffffffffffffffffffffffffffffffffffffff167f8be0079c531659141344cd1fd0a4f28419497f9722a3daafe3b4186f6b6457e060405160405180910390a350565b60055f9054906101000a900473ffffffffffffffffffffffffffffffffffffffff1673ffffffffffffffffffffffffffffffffffffffff163373ffffffffffffffffffffffffffffffffffffffff161480614e06575060075f9054906101000a900473ffffffffffffffffffffffffffffffffffffffff1673ffffffffffffffffffffffffffffffffffffffff163373ffffffffffffffffffffffffffffffffffffffff16145b80614e5d575060065f9054906101000a900473ffffffffffffffffffffffffffffffffffffffff1673ffffffffffffffffffffffffffffffffffffffff163373ffffffffffffffffffffffffffffffffffffffff16145b614e9c576040517f08c379a0000000000000000000000000000000000000000000000000000000008152600401614e939061b3f8565b60405180910390fd5b5f8111614ede576040517f08c379a0000000000000000000000000000000000000000000000000000000008152600401614ed59061c123565b60405180910390fd5b5f73ffffffffffffffffffffffffffffffffffffffff168273ffffffffffffffffffffffffffffffffffffffff1603614f4c576040517f08c379a0000000000000000000000000000000000000000000000000000000008152600401614f439061b5a3565b60405180910390fd5b8060215f8581526020019081526020015f205f8473ffffffffffffffffffffffffffffffffffffffff1673ffffffffffffffffffffffffffffffffffffffff1681526020019081526020015f2081905550505050565b601860149054906101000a900460ff1681565b602d602052805f5260405f205f915054906101000a900460ff1681565b60055f9054906101000a900473ffffffffffffffffffffffffffffffffffffffff1673ffffffffffffffffffffffffffffffffffffffff163373ffffffffffffffffffffffffffffffffffffffff161480615079575060075f9054906101000a900473ffffffffffffffffffffffffffffffffffffffff1673ffffffffffffffffffffffffffffffffffffffff163373ffffffffffffffffffffffffffffffffffffffff16145b806150d0575060065f9054906101000a900473ffffffffffffffffffffffffffffffffffffffff1673ffffffffffffffffffffffffffffffffffffffff163373ffffffffffffffffffffffffffffffffffffffff16145b61510f576040517f08c379a00000000000000000000000000000000000000000000000000000000081526004016151069061b3f8565b60405180910390fd5b80602d5f8481526020019081526020015f205f6101000a81548160ff0219169083151502179055505050565b60055f9054906101000a900473ffffffffffffffffffffffffffffffffffffffff1673ffffffffffffffffffffffffffffffffffffffff163373ffffffffffffffffffffffffffffffffffffffff1614806151e2575060075f9054906101000a900473ffffffffffffffffffffffffffffffffffffffff1673ffffffffffffffffffffffffffffffffffffffff163373ffffffffffffffffffffffffffffffffffffffff16145b80615239575060065f9054906101000a900473ffffffffffffffffffffffffffffffffffffffff1673ffffffffffffffffffffffffffffffffffffffff163373ffffffffffffffffffffffffffffffffffffffff16145b615278576040517f08c379a000000000000000000000000000000000000000000000000000000000815260040161526f9061b3f8565b60405180910390fd5b5f82116152ba576040517f08c379a00000000000000000000000000000000000000000000000000000000081526004016152b19061b60b565b60405180910390fd5b8060325f8481526020019081526020015f205f820151815f0155602082015181600101559050505050565b601c5481565b6025602052805f5260405f205f915090505481565b60065f9054906101000a900473ffffffffffffffffffffffffffffffffffffffff1673ffffffffffffffffffffffffffffffffffffffff163373ffffffffffffffffffffffffffffffffffffffff161461538f576040517f08c379a00000000000000000000000000000000000000000000000000000000081526004016153869061c18b565b60405180910390fd5b600b54600c819055505f5b600b548110156154f6575f600d5f8381526020019081526020015f205f9054906101000a900473ffffffffffffffffffffffffffffffffffffffff16905080600e5f8481526020019081526020015f205f6101000a81548173ffffffffffffffffffffffffffffffffffffffff021916908373ffffffffffffffffffffffffffffffffffffffff16021790555060135f8273ffffffffffffffffffffffffffffffffffffffff1673ffffffffffffffffffffffffffffffffffffffff1681526020019081526020015f205460125f8373ffffffffffffffffffffffffffffffffffffffff1673ffffffffffffffffffffffffffffffffffffffff1681526020019081526020015f20819055508160115f8373ffffffffffffffffffffffffffffffffffffffff1673ffffffffffffffffffffffffffffffffffffffff1681526020019081526020015f208190555050808060010191505061539a565b50565b5f615502619c39565b61555c5f808e8e8080601f0160208091040260200160405190810160405280939291908181526020018383808284375f81840152601f19601f8201169050808301925050505050505084618a45909392919063ffffffff16565b6001816020019060028111156155755761557461a43e565b5b908160028111156155895761558861a43e565b5b8152505089898080601f0160208091040260200160405190810160405280939291908181526020018383808284375f81840152601f19601f8201169050808301925050505050505081608001819052505f888890501115615604576156038888906155f4919061c25a565b82618aeb90919063ffffffff16565b5b5f86869050111561562f5761562e86869061561f919061c31f565b82618b3290919063ffffffff16565b5b61564561563b82618b79565b8585600854618f7e565b9150509a9950505050505050505050565b6022602052815f5260405f20602052805f5260405f205f91509150505481565b6010602052805f5260405f205f915090505481565b5f60015f9054906101000a900473ffffffffffffffffffffffffffffffffffffffff16905090565b60085481565b60055f9054906101000a900473ffffffffffffffffffffffffffffffffffffffff1673ffffffffffffffffffffffffffffffffffffffff163373ffffffffffffffffffffffffffffffffffffffff161480615760575060075f9054906101000a900473ffffffffffffffffffffffffffffffffffffffff1673ffffffffffffffffffffffffffffffffffffffff163373ffffffffffffffffffffffffffffffffffffffff16145b806157b7575060065f9054906101000a900473ffffffffffffffffffffffffffffffffffffffff1673ffffffffffffffffffffffffffffffffffffffff163373ffffffffffffffffffffffffffffffffffffffff16145b6157f6576040517f08c379a00000000000000000000000000000000000000000000000000000000081526004016157ed9061b3f8565b60405180910390fd5b80602e5f8481526020019081526020015f205f6101000a81548160ff0219169083151502179055505050565b6011602052805f5260405f205f915090505481565b602b602052805f5260405f205f915054906101000a900473ffffffffffffffffffffffffffffffffffffffff1681565b60055f9054906101000a900473ffffffffffffffffffffffffffffffffffffffff1681565b601960159054906101000a900460ff1681565b6158a7618683565b80601960146101000a81548160ff02191690831515021790555050565b600e602052805f5260405f205f915054906101000a900473ffffffffffffffffffffffffffffffffffffffff1681565b60055f9054906101000a900473ffffffffffffffffffffffffffffffffffffffff1673ffffffffffffffffffffffffffffffffffffffff163373ffffffffffffffffffffffffffffffffffffffff16148061599b575060075f9054906101000a900473ffffffffffffffffffffffffffffffffffffffff1673ffffffffffffffffffffffffffffffffffffffff163373ffffffffffffffffffffffffffffffffffffffff16145b806159f2575060065f9054906101000a900473ffffffffffffffffffffffffffffffffffffffff1673ffffffffffffffffffffffffffffffffffffffff163373ffffffffffffffffffffffffffffffffffffffff16145b615a31576040517f08c379a0000000000000000000000000000000000000000000000000000000008152600401615a289061b3f8565b60405180910390fd5b8060295f8481526020019081526020015f20819055505050565b60055f9054906101000a900473ffffffffffffffffffffffffffffffffffffffff1673ffffffffffffffffffffffffffffffffffffffff163373ffffffffffffffffffffffffffffffffffffffff161480615af2575060075f9054906101000a900473ffffffffffffffffffffffffffffffffffffffff1673ffffffffffffffffffffffffffffffffffffffff163373ffffffffffffffffffffffffffffffffffffffff16145b80615b49575060065f9054906101000a900473ffffffffffffffffffffffffffffffffffffffff1673ffffffffffffffffffffffffffffffffffffffff163373ffffffffffffffffffffffffffffffffffffffff16145b615b88576040517f08c379a0000000000000000000000000000000000000000000000000000000008152600401615b7f9061b3f8565b60405180910390fd5b5f73ffffffffffffffffffffffffffffffffffffffff168273ffffffffffffffffffffffffffffffffffffffff1603615bf6576040517f08c379a0000000000000000000000000000000000000000000000000000000008152600401615bed9061c3a3565b60405180910390fd5b8060275f8581526020019081526020015f205f8473ffffffffffffffffffffffffffffffffffffffff1673ffffffffffffffffffffffffffffffffffffffff1681526020019081526020015f2081905550505050565b6031602052805f5260405f205f915090505481565b601b5481565b6033602052815f5260405f20602052805f5260405f205f91509150505481565b5f8073ffffffffffffffffffffffffffffffffffffffff168273ffffffffffffffffffffffffffffffffffffffff1603615cf6576040517f08c379a0000000000000000000000000000000000000000000000000000000008152600401615ced9061b7ab565b60405180910390fd5b5f600f5f8473ffffffffffffffffffffffffffffffffffffffff1673ffffffffffffffffffffffffffffffffffffffff1681526020019081526020015f205f9054906101000a900473ffffffffffffffffffffffffffffffffffffffff1690505f8173ffffffffffffffffffffffffffffffffffffffff166370a0823160165f9054906101000a900473ffffffffffffffffffffffffffffffffffffffff166040518263ffffffff1660e01b8152600401615db19190619f04565b602060405180830381865afa158015615dcc573d5f803e3d5ffd5b505050506040513d601f19601f82011682018060405250810190615df0919061bca5565b90508173ffffffffffffffffffffffffffffffffffffffff16634cdad506826040518263ffffffff1660e01b8152600401615e2b9190619db3565b602060405180830381865afa158015615e46573d5f803e3d5ffd5b505050506040513d601f19601f82011682018060405250810190615e6a919061bca5565b92505050919050565b6028602052815f5260405f20602052805f5260405f205f91509150505481565b615e9b618683565b8160039081615eaa919061c555565b508060049081615eba919061c555565b505050565b601e602052805f5260405f205f915054906101000a900460ff1681565b6026602052805f5260405f205f915090505481565b60208052805f5260405f205f915090505481565b615f0d618683565b615f17828261905c565b5050565b5f805b600c54811015616091575f600e5f8381526020019081526020015f205f9054906101000a900473ffffffffffffffffffffffffffffffffffffffff1690505f60235f8681526020019081526020015f205f8373ffffffffffffffffffffffffffffffffffffffff1673ffffffffffffffffffffffffffffffffffffffff1681526020019081526020015f2054905060016003811115615fc057615fbf61a43e565b5b60ff1660175f9054906101000a900473ffffffffffffffffffffffffffffffffffffffff1673ffffffffffffffffffffffffffffffffffffffff166345fa8aae836040518263ffffffff1660e01b815260040161601d9190619db3565b602060405180830381865afa158015616038573d5f803e3d5ffd5b505050506040513d601f19601f8201168201806040525081019061605c919061b439565b600381111561606e5761606d61a43e565b5b60ff16036160825760019350505050616096565b50508080600101915050615f1e565b505f90505b919050565b6160a3619ca8565b6040518061014001604052804267ffffffffffffffff1681526020013073ffffffffffffffffffffffffffffffffffffffff16815260200160155f9054906101000a900473ffffffffffffffffffffffffffffffffffffffff1673ffffffffffffffffffffffffffffffffffffffff16815260200160185f9054906101000a900473ffffffffffffffffffffffffffffffffffffffff1673ffffffffffffffffffffffffffffffffffffffff16815260200183151581526020015f60018111156161705761616f61a43e565b5b815260200183616180575f61618b565b68056bc75e2d631000005b68ffffffffffffffffff168152602001836161af5768056bc75e2d631000006161b1565b5f5b68ffffffffffffffffff1681526020015f8152602001600160038111156161db576161da61a43e565b5b8152509050919050565b6029602052805f5260405f205f915090505481565b601d60019054906101000a900473ffffffffffffffffffffffffffffffffffffffff1681565b616228618683565b805182511461626c576040517f08c379a00000000000000000000000000000000000000000000000000000000081526004016162639061bb2d565b60405180910390fd5b5f5b82518110156163335781818151811061628a5761628961bb4b565b5b6020026020010151600f5f8584815181106162a8576162a761bb4b565b5b602002602001015173ffffffffffffffffffffffffffffffffffffffff1673ffffffffffffffffffffffffffffffffffffffff1681526020019081526020015f205f6101000a81548173ffffffffffffffffffffffffffffffffffffffff021916908373ffffffffffffffffffffffffffffffffffffffff160217905550808060010191505061626e565b505050565b602e602052805f5260405f205f915054906101000a900460ff1681565b5f805f5b600c5481101561689f575f600e5f8381526020019081526020015f205f9054906101000a900473ffffffffffffffffffffffffffffffffffffffff1690505f60245f8781526020019081526020015f205f8373ffffffffffffffffffffffffffffffffffffffff1673ffffffffffffffffffffffffffffffffffffffff1681526020019081526020015f205490505f60175f9054906101000a900473ffffffffffffffffffffffffffffffffffffffff1673ffffffffffffffffffffffffffffffffffffffff166361ecbb44836040518263ffffffff1660e01b81526004016164429190619db3565b602060405180830381865afa15801561645d573d5f803e3d5ffd5b505050506040513d601f19601f82011682018060405250810190616481919061bca5565b90506003808111156164965761649561a43e565b5b60ff1660175f9054906101000a900473ffffffffffffffffffffffffffffffffffffffff1673ffffffffffffffffffffffffffffffffffffffff166345fa8aae846040518263ffffffff1660e01b81526004016164f39190619db3565b602060405180830381865afa15801561650e573d5f803e3d5ffd5b505050506040513d601f19601f82011682018060405250810190616532919061b439565b60038111156165445761654361a43e565b5b60ff1603616698575f810361656757600185616560919061b37b565b9450616693565b5f60225f8981526020019081526020015f205f8573ffffffffffffffffffffffffffffffffffffffff1673ffffffffffffffffffffffffffffffffffffffff1681526020019081526020015f20549050600260038111156165cb576165ca61a43e565b5b60ff1660175f9054906101000a900473ffffffffffffffffffffffffffffffffffffffff1673ffffffffffffffffffffffffffffffffffffffff166345fa8aae836040518263ffffffff1660e01b81526004016166289190619db3565b602060405180830381865afa158015616643573d5f803e3d5ffd5b505050506040513d601f19601f82011682018060405250810190616667919061b439565b60038111156166795761667861a43e565b5b60ff16036166915760018661668e919061b37b565b95505b505b61688f565b600260038111156166ac576166ab61a43e565b5b60ff1660175f9054906101000a900473ffffffffffffffffffffffffffffffffffffffff1673ffffffffffffffffffffffffffffffffffffffff166345fa8aae846040518263ffffffff1660e01b81526004016167099190619db3565b602060405180830381865afa158015616724573d5f803e3d5ffd5b505050506040513d601f19601f82011682018060405250810190616748919061b439565b600381111561675a5761675961a43e565b5b60ff160361688e575f60225f8981526020019081526020015f205f8573ffffffffffffffffffffffffffffffffffffffff1673ffffffffffffffffffffffffffffffffffffffff1681526020019081526020015f20549050600260038111156167c6576167c561a43e565b5b60ff1660175f9054906101000a900473ffffffffffffffffffffffffffffffffffffffff1673ffffffffffffffffffffffffffffffffffffffff166345fa8aae836040518263ffffffff1660e01b81526004016168239190619db3565b602060405180830381865afa15801561683e573d5f803e3d5ffd5b505050506040513d601f19601f82011682018060405250810190616862919061b439565b60038111156168745761687361a43e565b5b60ff160361688c57600186616889919061b37b565b95505b505b5b5050508080600101915050616359565b50600c5481036168b35760019150506168b8565b5f9150505b919050565b5f805f5b600c54811015616923575f616905600e5f8481526020019081526020015f205f9054906101000a900473ffffffffffffffffffffffffffffffffffffffff166182e6565b90508083616913919061b37b565b92505080806001019150506168c1565b508091505090565b5f616934618683565b5f73ffffffffffffffffffffffffffffffffffffffff168273ffffffffffffffffffffffffffffffffffffffff16036169a2576040517f08c379a00000000000000000000000000000000000000000000000000000000081526004016169999061c66e565b60405180910390fd5b8160195f6101000a81548173ffffffffffffffffffffffffffffffffffffffff021916908373ffffffffffffffffffffffffffffffffffffffff16021790555060019050919050565b60055f9054906101000a900473ffffffffffffffffffffffffffffffffffffffff1673ffffffffffffffffffffffffffffffffffffffff163373ffffffffffffffffffffffffffffffffffffffff161480616a92575060075f9054906101000a900473ffffffffffffffffffffffffffffffffffffffff1673ffffffffffffffffffffffffffffffffffffffff163373ffffffffffffffffffffffffffffffffffffffff16145b80616ae9575060065f9054906101000a900473ffffffffffffffffffffffffffffffffffffffff1673ffffffffffffffffffffffffffffffffffffffff163373ffffffffffffffffffffffffffffffffffffffff16145b616b28576040517f08c379a0000000000000000000000000000000000000000000000000000000008152600401616b1f9061b3f8565b60405180910390fd5b5f8111616b6a576040517f08c379a0000000000000000000000000000000000000000000000000000000008152600401616b619061c6d6565b60405180910390fd5b8060315f8481526020019081526020015f20819055505050565b600b5481565b5f808211616bcd576040517f08c379a0000000000000000000000000000000000000000000000000000000008152600401616bc49061b2a3565b60405180910390fd5b5f616bd66168bd565b90505f60155f9054906101000a900473ffffffffffffffffffffffffffffffffffffffff1673ffffffffffffffffffffffffffffffffffffffff166318160ddd6040518163ffffffff1660e01b8152600401602060405180830381865afa158015616c43573d5f803e3d5ffd5b505050506040513d601f19601f82011682018060405250810190616c67919061bca5565b90505f828286616c77919061c6f4565b616c81919061b92f565b9050809350505050919050565b600a5481565b60065f9054906101000a900473ffffffffffffffffffffffffffffffffffffffff1681565b6030602052805f5260405f205f915090505481565b60055f9054906101000a900473ffffffffffffffffffffffffffffffffffffffff1673ffffffffffffffffffffffffffffffffffffffff163373ffffffffffffffffffffffffffffffffffffffff161480616d75575060075f9054906101000a900473ffffffffffffffffffffffffffffffffffffffff1673ffffffffffffffffffffffffffffffffffffffff163373ffffffffffffffffffffffffffffffffffffffff16145b80616dcc575060065f9054906101000a900473ffffffffffffffffffffffffffffffffffffffff1673ffffffffffffffffffffffffffffffffffffffff163373ffffffffffffffffffffffffffffffffffffffff16145b616e0b576040517f08c379a0000000000000000000000000000000000000000000000000000000008152600401616e029061b3f8565b60405180910390fd5b80601e5f8481526020019081526020015f205f6101000a81548160ff0219169083151502179055505050565b60055f9054906101000a900473ffffffffffffffffffffffffffffffffffffffff1673ffffffffffffffffffffffffffffffffffffffff163373ffffffffffffffffffffffffffffffffffffffff161480616ede575060075f9054906101000a900473ffffffffffffffffffffffffffffffffffffffff1673ffffffffffffffffffffffffffffffffffffffff163373ffffffffffffffffffffffffffffffffffffffff16145b80616f35575060065f9054906101000a900473ffffffffffffffffffffffffffffffffffffffff1673ffffffffffffffffffffffffffffffffffffffff163373ffffffffffffffffffffffffffffffffffffffff16145b616f74576040517f08c379a0000000000000000000000000000000000000000000000000000000008152600401616f6b9061b3f8565b60405180910390fd5b5f8111616fb6576040517f08c379a0000000000000000000000000000000000000000000000000000000008152600401616fad9061c77f565b60405180910390fd5b5f8211616ff8576040517f08c379a0000000000000000000000000000000000000000000000000000000008152600401616fef9061b60b565b60405180910390fd5b8060255f8481526020019081526020015f20819055505050565b60055f9054906101000a900473ffffffffffffffffffffffffffffffffffffffff1673ffffffffffffffffffffffffffffffffffffffff163373ffffffffffffffffffffffffffffffffffffffff1614806170b9575060075f9054906101000a900473ffffffffffffffffffffffffffffffffffffffff1673ffffffffffffffffffffffffffffffffffffffff163373ffffffffffffffffffffffffffffffffffffffff16145b80617110575060065f9054906101000a900473ffffffffffffffffffffffffffffffffffffffff1673ffffffffffffffffffffffffffffffffffffffff163373ffffffffffffffffffffffffffffffffffffffff16145b61714f576040517f08c379a00000000000000000000000000000000000000000000000000000000081526004016171469061b3f8565b60405180910390fd5b5f73ffffffffffffffffffffffffffffffffffffffff168173ffffffffffffffffffffffffffffffffffffffff16036171bd576040517f08c379a00000000000000000000000000000000000000000000000000000000081526004016171b49061c80d565b60405180910390fd5b80602c5f8481526020019081526020015f205f6101000a81548173ffffffffffffffffffffffffffffffffffffffff021916908373ffffffffffffffffffffffffffffffffffffffff1602179055505050565b5f617219619324565b90505f815f0160089054906101000a900460ff161590505f825f015f9054906101000a900467ffffffffffffffff1690505f808267ffffffffffffffff161480156172615750825b90505f60018367ffffffffffffffff1614801561729457505f3073ffffffffffffffffffffffffffffffffffffffff163b145b9050811580156172a2575080155b156172d9576040517ff92ee8a900000000000000000000000000000000000000000000000000000000815260040160405180910390fd5b6001855f015f6101000a81548167ffffffffffffffff021916908367ffffffffffffffff1602179055508315617326576001855f0160086101000a81548160ff0219169083151502179055505b5f73ffffffffffffffffffffffffffffffffffffffff168e73ffffffffffffffffffffffffffffffffffffffff1603617394576040517f08c379a000000000000000000000000000000000000000000000000000000000815260040161738b9061bac5565b60405180910390fd5b5f73ffffffffffffffffffffffffffffffffffffffff168d73ffffffffffffffffffffffffffffffffffffffff1603617402576040517f08c379a00000000000000000000000000000000000000000000000000000000081526004016173f99061b7ab565b60405180910390fd5b5f73ffffffffffffffffffffffffffffffffffffffff168c73ffffffffffffffffffffffffffffffffffffffff1603617470576040517f08c379a00000000000000000000000000000000000000000000000000000000081526004016174679061c875565b60405180910390fd5b5f73ffffffffffffffffffffffffffffffffffffffff168b73ffffffffffffffffffffffffffffffffffffffff16036174de576040517f08c379a00000000000000000000000000000000000000000000000000000000081526004016174d59061c8dd565b60405180910390fd5b5f8a60ff1611617523576040517f08c379a000000000000000000000000000000000000000000000000000000000815260040161751a9061b849565b60405180910390fd5b5f73ffffffffffffffffffffffffffffffffffffffff168973ffffffffffffffffffffffffffffffffffffffff1603617591576040517f08c379a00000000000000000000000000000000000000000000000000000000081526004016175889061c945565b60405180910390fd5b5f73ffffffffffffffffffffffffffffffffffffffff168873ffffffffffffffffffffffffffffffffffffffff16036175ff576040517f08c379a00000000000000000000000000000000000000000000000000000000081526004016175f69061c9ad565b60405180910390fd5b5f602060ff1611617645576040517f08c379a000000000000000000000000000000000000000000000000000000000815260040161763c9061ca15565b60405180910390fd5b8d60175f6101000a81548173ffffffffffffffffffffffffffffffffffffffff021916908373ffffffffffffffffffffffffffffffffffffffff1602179055508c60155f6101000a81548173ffffffffffffffffffffffffffffffffffffffff021916908373ffffffffffffffffffffffffffffffffffffffff1602179055508b60165f6101000a81548173ffffffffffffffffffffffffffffffffffffffff021916908373ffffffffffffffffffffffffffffffffffffffff1602179055508a60185f6101000a81548173ffffffffffffffffffffffffffffffffffffffff021916908373ffffffffffffffffffffffffffffffffffffffff16021790555089601860146101000a81548160ff021916908360ff1602179055506177698861934b565b6177723361938d565b866008819055508760095f6101000a81548173ffffffffffffffffffffffffffffffffffffffff021916908373ffffffffffffffffffffffffffffffffffffffff1602179055506040518060600160405280602a815260200161d568602a9139600390816177e0919061c555565b506040518060600160405280602e815260200161d592602e913960049081617808919061c555565b5085601960146101000a81548160ff021916908315150217905550600a601960156101000a81548160ff021916908360ff16021790555033601d60016101000a81548173ffffffffffffffffffffffffffffffffffffffff021916908373ffffffffffffffffffffffffffffffffffffffff16021790555083156178da575f855f0160086101000a81548160ff0219169083151502179055507fc7f505b2f371ae2175ee4913f4499e1f2633a7b5936321eed1cdaeb6115181d260016040516178d1919061ca6c565b60405180910390a15b5050505050505050505050505050565b6178f2618683565b5f73ffffffffffffffffffffffffffffffffffffffff168173ffffffffffffffffffffffffffffffffffffffff1603617960576040517f08c379a00000000000000000000000000000000000000000000000000000000081526004016179579061cacf565b60405180910390fd5b8060065f6101000a81548173ffffffffffffffffffffffffffffffffffffffff021916908373ffffffffffffffffffffffffffffffffffffffff16021790555050565b6027602052815f5260405f20602052805f5260405f205f91509150505481565b602a602052805f5260405f205f915090505481565b60055f9054906101000a900473ffffffffffffffffffffffffffffffffffffffff1673ffffffffffffffffffffffffffffffffffffffff163373ffffffffffffffffffffffffffffffffffffffff161480617a7f575060075f9054906101000a900473ffffffffffffffffffffffffffffffffffffffff1673ffffffffffffffffffffffffffffffffffffffff163373ffffffffffffffffffffffffffffffffffffffff16145b80617ad6575060065f9054906101000a900473ffffffffffffffffffffffffffffffffffffffff1673ffffffffffffffffffffffffffffffffffffffff163373ffffffffffffffffffffffffffffffffffffffff16145b617b15576040517f08c379a0000000000000000000000000000000000000000000000000000000008152600401617b0c9061b3f8565b60405180910390fd5b5f73ffffffffffffffffffffffffffffffffffffffff168173ffffffffffffffffffffffffffffffffffffffff1603617b83576040517f08c379a0000000000000000000000000000000000000000000000000000000008152600401617b7a9061cb5d565b60405180910390fd5b80602b5f8481526020019081526020015f205f6101000a81548173ffffffffffffffffffffffffffffffffffffffff021916908373ffffffffffffffffffffffffffffffffffffffff1602179055505050565b5f808211617c19576040517f08c379a0000000000000000000000000000000000000000000000000000000008152600401617c109061b2a3565b60405180910390fd5b5f805b600c54811015617db3575f600e5f8381526020019081526020015f205f9054906101000a900473ffffffffffffffffffffffffffffffffffffffff1690505f68056bc75e2d6310000060125f8473ffffffffffffffffffffffffffffffffffffffff1673ffffffffffffffffffffffffffffffffffffffff1681526020019081526020015f205487617cae919061c6f4565b617cb8919061b92f565b90505f8060175f9054906101000a900473ffffffffffffffffffffffffffffffffffffffff1673ffffffffffffffffffffffffffffffffffffffff1663236970d45f60185f9054906101000a900473ffffffffffffffffffffffffffffffffffffffff166040518363ffffffff1660e01b8152600401617d3992919061b2c1565b6040805180830381865afa158015617d53573d5f803e3d5ffd5b505050506040513d601f19601f82011682018060405250810190617d77919061b310565b915091505f617d868285618714565b83617d91919061b37b565b90508087617d9f919061b37b565b965050505050508080600101915050617c1c565b5080915050919050565b5f808211617e00576040517f08c379a0000000000000000000000000000000000000000000000000000000008152600401617df79061b2a3565b60405180910390fd5b5f617e096168bd565b90505f60155f9054906101000a900473ffffffffffffffffffffffffffffffffffffffff1673ffffffffffffffffffffffffffffffffffffffff166318160ddd6040518163ffffffff1660e01b8152600401602060405180830381865afa158015617e76573d5f803e3d5ffd5b505050506040513d601f19601f82011682018060405250810190617e9a919061bca5565b90505f818386617eaa919061c6f4565b617eb4919061b92f565b9050809350505050919050565b60095f9054906101000a900473ffffffffffffffffffffffffffffffffffffffff1681565b60048054617ef39061bc0d565b80601f0160208091040260200160405190810160405280929190818152602001828054617f1f9061bc0d565b8015617f6a5780601f10617f4157610100808354040283529160200191617f6a565b820191905f5260205f20905b815481529060010190602001808311617f4d57829003601f168201915b505050505081565b60055f9054906101000a900473ffffffffffffffffffffffffffffffffffffffff1673ffffffffffffffffffffffffffffffffffffffff163373ffffffffffffffffffffffffffffffffffffffff161480618019575060075f9054906101000a900473ffffffffffffffffffffffffffffffffffffffff1673ffffffffffffffffffffffffffffffffffffffff163373ffffffffffffffffffffffffffffffffffffffff16145b80618070575060065f9054906101000a900473ffffffffffffffffffffffffffffffffffffffff1673ffffffffffffffffffffffffffffffffffffffff163373ffffffffffffffffffffffffffffffffffffffff16145b6180af576040517f08c379a00000000000000000000000000000000000000000000000000000000081526004016180a69061b3f8565b60405180910390fd5b5f81116180f1576040517f08c379a00000000000000000000000000000000000000000000000000000000081526004016180e89061cbc5565b60405180910390fd5b8060305f8481526020019081526020015f20819055505050565b5f618114618683565b5f73ffffffffffffffffffffffffffffffffffffffff168373ffffffffffffffffffffffffffffffffffffffff1603618182576040517f08c379a00000000000000000000000000000000000000000000000000000000081526004016181799061b7ab565b60405180910390fd5b5f8260ff16116181c7576040517f08c379a00000000000000000000000000000000000000000000000000000000081526004016181be9061b849565b60405180910390fd5b8260185f6101000a81548173ffffffffffffffffffffffffffffffffffffffff021916908373ffffffffffffffffffffffffffffffffffffffff16021790555081601860146101000a81548160ff021916908360ff1602179055506001905092915050565b618234618683565b5f73ffffffffffffffffffffffffffffffffffffffff168173ffffffffffffffffffffffffffffffffffffffff16036182a2576040517f08c379a00000000000000000000000000000000000000000000000000000000081526004016182999061cc2d565b60405180910390fd5b80601d60016101000a81548173ffffffffffffffffffffffffffffffffffffffff021916908373ffffffffffffffffffffffffffffffffffffffff16021790555050565b5f8073ffffffffffffffffffffffffffffffffffffffff168273ffffffffffffffffffffffffffffffffffffffff1603618355576040517f08c379a000000000000000000000000000000000000000000000000000000000815260040161834c9061b7ab565b60405180910390fd5b5f61835f8361427e565b90505f61836b84615c87565b9050670de0b6b3a76400008282618382919061c6f4565b61838c919061b92f565b92505050919050565b61839d619ca8565b5f82116183df576040517f08c379a00000000000000000000000000000000000000000000000000000000081526004016183d69061b60b565b60405180910390fd5b602f5f8381526020019081526020015f20604051806101400160405290815f82015f9054906101000a900467ffffffffffffffff1667ffffffffffffffff1667ffffffffffffffff1681526020015f820160089054906101000a900473ffffffffffffffffffffffffffffffffffffffff1673ffffffffffffffffffffffffffffffffffffffff1673ffffffffffffffffffffffffffffffffffffffff168152602001600182015f9054906101000a900473ffffffffffffffffffffffffffffffffffffffff1673ffffffffffffffffffffffffffffffffffffffff1673ffffffffffffffffffffffffffffffffffffffff168152602001600282015f9054906101000a900473ffffffffffffffffffffffffffffffffffffffff1673ffffffffffffffffffffffffffffffffffffffff1673ffffffffffffffffffffffffffffffffffffffff1681526020016002820160149054906101000a900460ff161515151581526020016002820160159054906101000a900460ff16600181111561856b5761856a61a43e565b5b600181111561857d5761857c61a43e565b5b8152602001600382015481526020016004820154815260200160058201548152602001600682015f9054906101000a900460ff1660038111156185c3576185c261a43e565b5b60038111156185d5576185d461a43e565b5b815250509050919050565b6185e8618683565b6185f18161939a565b50565b6024602052815f5260405f20602052805f5260405f205f91509150505481565b60195f9054906101000a900473ffffffffffffffffffffffffffffffffffffffff1681565b60165f9054906101000a900473ffffffffffffffffffffffffffffffffffffffff1681565b60155f9054906101000a900473ffffffffffffffffffffffffffffffffffffffff1681565b60015f9054906101000a900473ffffffffffffffffffffffffffffffffffffffff1673ffffffffffffffffffffffffffffffffffffffff163373ffffffffffffffffffffffffffffffffffffffff1614618712576040517f08c379a00000000000000000000000000000000000000000000000000000000081526004016187099061cc95565b60405180910390fd5b565b5f808362ffffff1603618727575f618740565b61873f828462ffffff16620f424062ffffff166194c6565b5b905092915050565b5f808380602001905181019061875e919061cdf1565b915091505f602060ff16116187a8576040517f08c379a000000000000000000000000000000000000000000000000000000000815260040161879f9061ceb1565b60405180910390fd5b5f8251116187eb576040517f08c379a00000000000000000000000000000000000000000000000000000000081526004016187e29061cf19565b60405180910390fd5b5f81511161882e576040517f08c379a00000000000000000000000000000000000000000000000000000000081526004016188259061cf81565b60405180910390fd5b618838828261905c565b5050505050565b5f805f80198587098587029250828110838203039150505f81036188775783828161886d5761886c61b902565b5b049250505061894a565b8381106188bf578585856040517f63a057780000000000000000000000000000000000000000000000000000000081526004016188b69392919061cf9f565b60405180910390fd5b5f8486880990508281118203915080830392505f6001861901861690505f81870496508185049450600182835f0304019050808402851794505f60028860030218905080880260020381029050808802600203810290508088026002038102905080880260020381029050808802600203810290508088026002038102905080860296505050505050505b9392505050565b5f60128360ff161115618999576040517f08c379a00000000000000000000000000000000000000000000000000000000081526004016189909061d044565b60405180910390fd5b60128260ff1611156189e0576040517f08c379a00000000000000000000000000000000000000000000000000000000081526004016189d79061d0d2565b60405180910390fd5b8260ff168260ff161115618a185782826189fa919061d0f0565b600a618a06919061d253565b84618a11919061d29d565b9050618a3e565b8183618a24919061d0f0565b600a618a30919061d253565b84618a3b919061d29d565b90505b9392505050565b5f815103618a7f576040517f22ce3edd00000000000000000000000000000000000000000000000000000000815260040160405180910390fd5b82845f01906002811115618a9657618a9561a43e565b5b90816002811115618aaa57618aa961a43e565b5b815250508184604001905f811115618ac557618ac461a43e565b5b90815f811115618ad857618ad761a43e565b5b8152505080846060018190525050505050565b5f815103618b25576040517ffe936cb700000000000000000000000000000000000000000000000000000000815260040160405180910390fd5b808260a001819052505050565b5f815103618b6c576040517ffe936cb700000000000000000000000000000000000000000000000000000000815260040160405180910390fd5b808260c001819052505050565b60605f618b876101006195d8565b9050618bd16040518060400160405280600c81526020017f636f64654c6f636174696f6e0000000000000000000000000000000000000000815250826195fd90919063ffffffff16565b618bf9835f01516002811115618bea57618be961a43e565b5b8261962590919063ffffffff16565b618c416040518060400160405280600881526020017f6c616e6775616765000000000000000000000000000000000000000000000000815250826195fd90919063ffffffff16565b618c6983604001515f811115618c5a57618c5961a43e565b5b8261962590919063ffffffff16565b618cb16040518060400160405280600681526020017f736f757263650000000000000000000000000000000000000000000000000000815250826195fd90919063ffffffff16565b618cc88360600151826195fd90919063ffffffff16565b5f8360a00151511115618d7c57618d1d6040518060400160405280600481526020017f6172677300000000000000000000000000000000000000000000000000000000815250826195fd90919063ffffffff16565b618d2681619674565b5f5b8360a0015151811015618d7157618d668460a001518281518110618d4f57618d4e61bb4b565b5b6020026020010151836195fd90919063ffffffff16565b806001019050618d28565b50618d7b8161969c565b5b5f8360800151511115618ebb575f6002811115618d9c57618d9b61a43e565b5b83602001516002811115618db357618db261a43e565b5b03618dea576040517fa80d31f700000000000000000000000000000000000000000000000000000000815260040160405180910390fd5b618e326040518060400160405280600f81526020017f736563726574734c6f636174696f6e0000000000000000000000000000000000815250826195fd90919063ffffffff16565b618e5b83602001516002811115618e4c57618e4b61a43e565b5b8261962590919063ffffffff16565b618ea36040518060400160405280600781526020017f7365637265747300000000000000000000000000000000000000000000000000815250826195fd90919063ffffffff16565b618eba8360800151826196c490919063ffffffff16565b5b5f8360c00151511115618f6f57618f106040518060400160405280600981526020017f6279746573417267730000000000000000000000000000000000000000000000815250826195fd90919063ffffffff16565b618f1981619674565b5f5b8360c0015151811015618f6457618f598460c001518281518110618f4257618f4161bb4b565b5b6020026020010151836196c490919063ffffffff16565b806001019050618f1b565b50618f6e8161969c565b5b805f01515f0151915050919050565b5f805f8054906101000a900473ffffffffffffffffffffffffffffffffffffffff1673ffffffffffffffffffffffffffffffffffffffff1663461d27628688600188886040518663ffffffff1660e01b8152600401618fe195949392919061d386565b6020604051808303815f875af1158015618ffd573d5f803e3d5ffd5b505050506040513d601f19601f82011682018060405250810190619021919061d3f2565b9050807f1131472297a800fee664d1d89cfa8f7676ff07189ecc53f80bbb5f4969099db860405160405180910390a280915050949350505050565b5f8290505f8290505f5b82518110156192fc578281815181106190825761908161bb4b565b5b6020026020010151600d5f8381526020019081526020015f205f6101000a81548173ffffffffffffffffffffffffffffffffffffffff021916908373ffffffffffffffffffffffffffffffffffffffff1602179055508060105f8584815181106190ef576190ee61bb4b565b5b602002602001015173ffffffffffffffffffffffffffffffffffffffff1673ffffffffffffffffffffffffffffffffffffffff1681526020019081526020015f20819055508181815181106191475761914661bb4b565b5b602002602001015160135f8584815181106191655761916461bb4b565b5b602002602001015173ffffffffffffffffffffffffffffffffffffffff1673ffffffffffffffffffffffffffffffffffffffff1681526020019081526020015f20819055505f600c54036192ef578281815181106191c6576191c561bb4b565b5b6020026020010151600e5f8381526020019081526020015f205f6101000a81548173ffffffffffffffffffffffffffffffffffffffff021916908373ffffffffffffffffffffffffffffffffffffffff16021790555081818151811061922f5761922e61bb4b565b5b602002602001015160125f85848151811061924d5761924c61bb4b565b5b602002602001015173ffffffffffffffffffffffffffffffffffffffff1673ffffffffffffffffffffffffffffffffffffffff1681526020019081526020015f20819055508060115f8584815181106192a9576192a861bb4b565b5b602002602001015173ffffffffffffffffffffffffffffffffffffffff1673ffffffffffffffffffffffffffffffffffffffff1681526020019081526020015f20819055505b8080600101915050619066565b508151600b819055505f600c5403619317578151600c819055505b42600a8190555050505050565b5f7ff0c57e16840df040f15088dc2f81fe391c3923bec73e23a9662efc9c229c6a00905090565b805f806101000a81548173ffffffffffffffffffffffffffffffffffffffff021916908373ffffffffffffffffffffffffffffffffffffffff16021790555050565b619397815f6196ec565b50565b3373ffffffffffffffffffffffffffffffffffffffff168173ffffffffffffffffffffffffffffffffffffffff1603619408576040517f08c379a00000000000000000000000000000000000000000000000000000000081526004016193ff9061d467565b60405180910390fd5b8060025f6101000a81548173ffffffffffffffffffffffffffffffffffffffff021916908373ffffffffffffffffffffffffffffffffffffffff1602179055508073ffffffffffffffffffffffffffffffffffffffff1660015f9054906101000a900473ffffffffffffffffffffffffffffffffffffffff1673ffffffffffffffffffffffffffffffffffffffff167fed8889f560326eb138920d842192f0eb3dd22b4f139c87a2c57538e05bae127860405160405180910390a350565b5f805f80198587098587029250828110838203039150505f81036194fe578382816194f4576194f361b902565b5b04925050506195d1565b838110619546578585856040517f63a0577800000000000000000000000000000000000000000000000000000000815260040161953d9392919061cf9f565b60405180910390fd5b5f8486880990508281118203915080830392505f6001861901861690505f81870496508185049450600182835f0304019050808402851794505f60028860030218905080880260020381029050808802600203810290508088026002038102905080880260020381029050808802600203810290508088026002038102905080860296505050505050505b9392505050565b6195e0619d63565b6195ed815f0151836197db565b505f816020018181525050919050565b61960a8260038351619851565b61962081835f01516199f190919063ffffffff16565b505050565b61964660026005600660ff16901b17835f0151619a0d90919063ffffffff16565b50619670828260405160200161965c9190619db3565b6040516020818303038152906040526196c4565b5050565b61967f816004619a74565b600181602001818151619692919061b37b565b9150818152505050565b6196a7816007619a74565b6001816020018181516196ba919061b8cf565b9150818152505050565b6196d18260028351619851565b6196e781835f01516199f190919063ffffffff16565b505050565b5f73ffffffffffffffffffffffffffffffffffffffff168273ffffffffffffffffffffffffffffffffffffffff160361975a576040517f08c379a00000000000000000000000000000000000000000000000000000000081526004016197519061d4cf565b60405180910390fd5b8160015f6101000a81548173ffffffffffffffffffffffffffffffffffffffff021916908373ffffffffffffffffffffffffffffffffffffffff1602179055505f73ffffffffffffffffffffffffffffffffffffffff168173ffffffffffffffffffffffffffffffffffffffff16146197d7576197d68161939a565b5b5050565b6197e3619d82565b5f6020836197f1919061d4ed565b1461981d57602082619803919061d4ed565b602061980f919061b8cf565b8261981a919061b37b565b91505b818360200181815250506040518084525f815282810160200181811015619842575f80fd5b80604052505082905092915050565b60178167ffffffffffffffff161161988b576198858160058460ff16901b60ff1617845f0151619a0d90919063ffffffff16565b506199ec565b60ff8167ffffffffffffffff16116198e7576198bd601860058460ff16901b17845f0151619a0d90919063ffffffff16565b506198e18167ffffffffffffffff166001855f0151619a999092919063ffffffff16565b506199eb565b61ffff8167ffffffffffffffff16116199445761991a601960058460ff16901b17845f0151619a0d90919063ffffffff16565b5061993e8167ffffffffffffffff166002855f0151619a999092919063ffffffff16565b506199ea565b63ffffffff8167ffffffffffffffff16116199a357619979601a60058460ff16901b17845f0151619a0d90919063ffffffff16565b5061999d8167ffffffffffffffff166004855f0151619a999092919063ffffffff16565b506199e9565b6199c3601b60058460ff16901b17845f0151619a0d90919063ffffffff16565b506199e78167ffffffffffffffff166008855f0151619a999092919063ffffffff16565b505b5b5b5b505050565b6199f9619d82565b619a0583838451619b22565b905092915050565b619a15619d82565b5f835f01515190505f600182619a2b919061b37b565b905084602001518210619a4f57619a4e85600283619a49919061c6f4565b619bff565b5b84516020838201018581538151831115619a67578282525b5050849250505092915050565b619a94601f60058360ff16901b17835f0151619a0d90919063ffffffff16565b505050565b619aa1619d82565b5f845f01515190505f8184619ab6919061b37b565b90508560200151811115619adb57619ada86600283619ad5919061c6f4565b619bff565b5b5f600185610100619aec919061d51d565b619af6919061b8cf565b905086518281018783198251161781528151841115619b13578382525b50508693505050509392505050565b619b2a619d82565b8251821115619b37575f80fd5b5f845f01515190505f8382619b4c919061b37b565b90508560200151811115619b7157619b7086600283619b6b919061c6f4565b619bff565b5b5f8087518051856020830101935080851115619b8b578482525b60208901925050505b60208610619bd25780518252602082619bad919061b37b565b9150602081619bbc919061b37b565b9050602086619bcb919061b8cf565b9550619b94565b5f6001876020036101000a0390508019825116818451168181178552505050879450505050509392505050565b5f825f01519050619c1083836197db565b50619c1b83826199f1565b50505050565b60405180604001604052805f81526020015f81525090565b6040518060e001604052805f6002811115619c5757619c5661a43e565b5b81526020015f6002811115619c6f57619c6e61a43e565b5b81526020015f80811115619c8657619c8561a43e565b5b8152602001606081526020016060815260200160608152602001606081525090565b6040518061014001604052805f67ffffffffffffffff1681526020015f73ffffffffffffffffffffffffffffffffffffffff1681526020015f73ffffffffffffffffffffffffffffffffffffffff1681526020015f73ffffffffffffffffffffffffffffffffffffffff1681526020015f151581526020015f6001811115619d3357619d3261a43e565b5b81526020015f81526020015f81526020015f81526020015f6003811115619d5d57619d5c61a43e565b5b81525090565b6040518060400160405280619d76619d82565b81526020015f81525090565b6040518060400160405280606081526020015f81525090565b5f819050919050565b619dad81619d9b565b82525050565b5f602082019050619dc65f830184619da4565b92915050565b5f604051905090565b5f80fd5b5f80fd5b619de681619d9b565b8114619df0575f80fd5b50565b5f81359050619e0181619ddd565b92915050565b5f73ffffffffffffffffffffffffffffffffffffffff82169050919050565b5f619e3082619e07565b9050919050565b619e4081619e26565b8114619e4a575f80fd5b50565b5f81359050619e5b81619e37565b92915050565b5f8060408385031215619e7757619e76619dd5565b5b5f619e8485828601619df3565b9250506020619e9585828601619e4d565b9150509250929050565b5f60208284031215619eb457619eb3619dd5565b5b5f619ec184828501619e4d565b91505092915050565b5f60208284031215619edf57619ede619dd5565b5b5f619eec84828501619df3565b91505092915050565b619efe81619e26565b82525050565b5f602082019050619f175f830184619ef5565b92915050565b5f8115159050919050565b619f3181619f1d565b8114619f3b575f80fd5b50565b5f81359050619f4c81619f28565b92915050565b5f8060408385031215619f6857619f67619dd5565b5b5f619f7585828601619df3565b9250506020619f8685828601619f3e565b9150509250929050565b619f9981619f1d565b82525050565b5f602082019050619fb25f830184619f90565b92915050565b5f60ff82169050919050565b619fcd81619fb8565b82525050565b5f602082019050619fe65f830184619fc4565b92915050565b5f819050919050565b619ffe81619fec565b811461a008575f80fd5b50565b5f8135905061a01981619ff5565b92915050565b5f80fd5b5f80fd5b5f601f19601f8301169050919050565b7f4e487b71000000000000000000000000000000000000000000000000000000005f52604160045260245ffd5b61a06d8261a027565b810181811067ffffffffffffffff8211171561a08c5761a08b61a037565b5b80604052505050565b5f61a09e619dcc565b905061a0aa828261a064565b919050565b5f67ffffffffffffffff82111561a0c95761a0c861a037565b5b61a0d28261a027565b9050602081019050919050565b828183375f83830152505050565b5f61a0ff61a0fa8461a0af565b61a095565b90508281526020810184848401111561a11b5761a11a61a023565b5b61a12684828561a0df565b509392505050565b5f82601f83011261a1425761a14161a01f565b5b813561a15284826020860161a0ed565b91505092915050565b5f805f6060848603121561a1725761a171619dd5565b5b5f61a17f8682870161a00b565b935050602084013567ffffffffffffffff81111561a1a05761a19f619dd9565b5b61a1ac8682870161a12e565b925050604084013567ffffffffffffffff81111561a1cd5761a1cc619dd9565b5b61a1d98682870161a12e565b9150509250925092565b5f67ffffffffffffffff82111561a1fd5761a1fc61a037565b5b61a2068261a027565b9050602081019050919050565b5f61a22561a2208461a1e3565b61a095565b90508281526020810184848401111561a2415761a24061a023565b5b61a24c84828561a0df565b509392505050565b5f82601f83011261a2685761a26761a01f565b5b813561a27884826020860161a213565b91505092915050565b5f806040838503121561a2975761a296619dd5565b5b5f83013567ffffffffffffffff81111561a2b45761a2b3619dd9565b5b61a2c08582860161a254565b925050602083013567ffffffffffffffff81111561a2e15761a2e0619dd9565b5b61a2ed8582860161a254565b9150509250929050565b5f81519050919050565b5f82825260208201905092915050565b8281835e5f83830152505050565b5f61a3298261a2f7565b61a333818561a301565b935061a34381856020860161a311565b61a34c8161a027565b840191505092915050565b5f6020820190508181035f83015261a36f818461a31f565b905092915050565b5f805f6060848603121561a38e5761a38d619dd5565b5b5f61a39b86828701619df3565b935050602061a3ac86828701619e4d565b925050604061a3bd86828701619df3565b9150509250925092565b61a3d081619d9b565b82525050565b604082015f82015161a3ea5f85018261a3c7565b50602082015161a3fd602085018261a3c7565b50505050565b5f60408201905061a4165f83018461a3d6565b92915050565b5f67ffffffffffffffff82169050919050565b61a4388161a41c565b82525050565b7f4e487b71000000000000000000000000000000000000000000000000000000005f52602160045260245ffd5b6002811061a47c5761a47b61a43e565b5b50565b5f81905061a48c8261a46b565b919050565b5f61a49b8261a47f565b9050919050565b61a4ab8161a491565b82525050565b6004811061a4c25761a4c161a43e565b5b50565b5f81905061a4d28261a4b1565b919050565b5f61a4e18261a4c5565b9050919050565b61a4f18161a4d7565b82525050565b5f6101408201905061a50b5f83018d61a42f565b61a518602083018c619ef5565b61a525604083018b619ef5565b61a532606083018a619ef5565b61a53f6080830189619f90565b61a54c60a083018861a4a2565b61a55960c0830187619da4565b61a56660e0830186619da4565b61a574610100830185619da4565b61a58261012083018461a4e8565b9b9a5050505050505050505050565b5f819050919050565b5f61a5b461a5af61a5aa84619e07565b61a591565b619e07565b9050919050565b5f61a5c58261a59a565b9050919050565b5f61a5d68261a5bb565b9050919050565b61a5e68161a5cc565b82525050565b5f60208201905061a5ff5f83018461a5dd565b92915050565b5f806040838503121561a61b5761a61a619dd5565b5b5f61a62885828601619df3565b925050602061a63985828601619df3565b9150509250929050565b5f62ffffff82169050919050565b61a65a8161a643565b811461a664575f80fd5b50565b5f8135905061a6758161a651565b92915050565b5f806040838503121561a6915761a690619dd5565b5b5f61a69e8582860161a667565b925050602061a6af85828601619df3565b9150509250929050565b61a6c281619fb8565b811461a6cc575f80fd5b50565b5f8135905061a6dd8161a6b9565b92915050565b5f6020828403121561a6f85761a6f7619dd5565b5b5f61a7058482850161a6cf565b91505092915050565b5f80fd5b61a71b8161a41c565b811461a725575f80fd5b50565b5f8135905061a7368161a712565b92915050565b6002811061a748575f80fd5b50565b5f8135905061a7598161a73c565b92915050565b6004811061a76b575f80fd5b50565b5f8135905061a77c8161a75f565b92915050565b5f610140828403121561a7985761a79761a70e565b5b61a7a361014061a095565b90505f61a7b28482850161a728565b5f83015250602061a7c584828501619e4d565b602083015250604061a7d984828501619e4d565b604083015250606061a7ed84828501619e4d565b606083015250608061a80184828501619f3e565b60808301525060a061a8158482850161a74b565b60a08301525060c061a82984828501619df3565b60c08301525060e061a83d84828501619df3565b60e08301525061010061a85284828501619df3565b6101008301525061012061a8688482850161a76e565b6101208301525092915050565b5f80610160838503121561a88c5761a88b619dd5565b5b5f61a89985828601619df3565b925050602061a8aa8582860161a782565b9150509250929050565b5f60408201905061a8c75f830185619da4565b61a8d46020830184619da4565b9392505050565b5f67ffffffffffffffff82111561a8f55761a8f461a037565b5b602082029050602081019050919050565b5f80fd5b5f61a91c61a9178461a8db565b61a095565b9050808382526020820190506020840283018581111561a93f5761a93e61a906565b5b835b8181101561a968578061a9548882619e4d565b84526020840193505060208101905061a941565b5050509392505050565b5f82601f83011261a9865761a98561a01f565b5b813561a99684826020860161a90a565b91505092915050565b5f806040838503121561a9b55761a9b4619dd5565b5b5f83013567ffffffffffffffff81111561a9d25761a9d1619dd9565b5b61a9de8582860161a972565b925050602083013567ffffffffffffffff81111561a9ff5761a9fe619dd9565b5b61aa0b8582860161a972565b9150509250929050565b5f6020828403121561aa2a5761aa29619dd5565b5b5f61aa378482850161a00b565b91505092915050565b5f6040828403121561aa555761aa5461a70e565b5b61aa5f604061a095565b90505f61aa6e84828501619df3565b5f83015250602061aa8184828501619df3565b60208301525092915050565b5f806060838503121561aaa35761aaa2619dd5565b5b5f61aab085828601619df3565b925050602061aac18582860161aa40565b9150509250929050565b5f80fd5b5f8083601f84011261aae45761aae361a01f565b5b8235905067ffffffffffffffff81111561ab015761ab0061aacb565b5b60208301915083600182028301111561ab1d5761ab1c61a906565b5b9250929050565b5f8083601f84011261ab395761ab3861a01f565b5b8235905067ffffffffffffffff81111561ab565761ab5561aacb565b5b60208301915083600182028301111561ab725761ab7161a906565b5b9250929050565b5f8083601f84011261ab8e5761ab8d61a01f565b5b8235905067ffffffffffffffff81111561abab5761abaa61aacb565b5b60208301915083602082028301111561abc75761abc661a906565b5b9250929050565b5f8083601f84011261abe35761abe261a01f565b5b8235905067ffffffffffffffff81111561ac005761abff61aacb565b5b60208301915083602082028301111561ac1c5761ac1b61a906565b5b9250929050565b5f63ffffffff82169050919050565b61ac3b8161ac23565b811461ac45575f80fd5b50565b5f8135905061ac568161ac32565b92915050565b5f805f805f805f805f8060c08b8d03121561ac7a5761ac79619dd5565b5b5f8b013567ffffffffffffffff81111561ac975761ac96619dd9565b5b61aca38d828e0161aacf565b9a509a505060208b013567ffffffffffffffff81111561acc65761acc5619dd9565b5b61acd28d828e0161ab24565b985098505060408b013567ffffffffffffffff81111561acf55761acf4619dd9565b5b61ad018d828e0161ab79565b965096505060608b013567ffffffffffffffff81111561ad245761ad23619dd9565b5b61ad308d828e0161abce565b9450945050608061ad438d828e0161a728565b92505060a061ad548d828e0161ac48565b9150509295989b9194979a5092959850565b61ad6f81619fec565b82525050565b5f60208201905061ad885f83018461ad66565b92915050565b5f6020828403121561ada35761ada2619dd5565b5b5f61adb084828501619f3e565b91505092915050565b5f67ffffffffffffffff82111561add35761add261a037565b5b602082029050602081019050919050565b5f61adf661adf18461adb9565b61a095565b9050808382526020820190506020840283018581111561ae195761ae1861a906565b5b835b8181101561ae42578061ae2e8882619df3565b84526020840193505060208101905061ae1b565b5050509392505050565b5f82601f83011261ae605761ae5f61a01f565b5b813561ae7084826020860161ade4565b91505092915050565b5f806040838503121561ae8f5761ae8e619dd5565b5b5f83013567ffffffffffffffff81111561aeac5761aeab619dd9565b5b61aeb88582860161a972565b925050602083013567ffffffffffffffff81111561aed95761aed8619dd9565b5b61aee58582860161ae4c565b9150509250929050565b61aef88161a41c565b82525050565b61af0781619e26565b82525050565b61af1681619f1d565b82525050565b61af258161a491565b82525050565b61af348161a4d7565b82525050565b61014082015f82015161af4f5f85018261aeef565b50602082015161af62602085018261aefe565b50604082015161af75604085018261aefe565b50606082015161af88606085018261aefe565b50608082015161af9b608085018261af0d565b5060a082015161afae60a085018261af1c565b5060c082015161afc160c085018261a3c7565b5060e082015161afd460e085018261a3c7565b5061010082015161afe961010085018261a3c7565b5061012082015161affe61012085018261af2b565b50505050565b5f6101408201905061b0185f83018461af3a565b92915050565b5f805f805f805f805f6101208a8c03121561b03c5761b03b619dd5565b5b5f61b0498c828d01619e4d565b995050602061b05a8c828d01619e4d565b985050604061b06b8c828d01619e4d565b975050606061b07c8c828d01619e4d565b965050608061b08d8c828d0161a6cf565b95505060a061b09e8c828d01619e4d565b94505060c061b0af8c828d01619e4d565b93505060e061b0c08c828d0161a00b565b92505061010061b0d28c828d01619f3e565b9150509295985092959850929598565b5f806040838503121561b0f85761b0f7619dd5565b5b5f61b10585828601619e4d565b925050602061b1168582860161a6cf565b9150509250929050565b5f61b12a8261a5bb565b9050919050565b61b13a8161b120565b82525050565b5f60208201905061b1535f83018461b131565b92915050565b5f61b1638261a5bb565b9050919050565b61b1738161b159565b82525050565b5f60208201905061b18c5f83018461b16a565b92915050565b5f61b19c8261a5bb565b9050919050565b61b1ac8161b192565b82525050565b5f60208201905061b1c55f83018461b1a3565b92915050565b7f696e76616c696420666163746f72792070726f636573736f72206164647265735f8201527f7300000000000000000000000000000000000000000000000000000000000000602082015250565b5f61b22560218361a301565b915061b2308261b1cb565b604082019050919050565b5f6020820190508181035f83015261b2528161b219565b9050919050565b7f496e76616c696420616d6f756e740000000000000000000000000000000000005f82015250565b5f61b28d600e8361a301565b915061b2988261b259565b602082019050919050565b5f6020820190508181035f83015261b2ba8161b281565b9050919050565b5f60408201905061b2d45f830185619f90565b61b2e16020830184619ef5565b9392505050565b5f8151905061b2f681619ddd565b92915050565b5f8151905061b30a8161a651565b92915050565b5f806040838503121561b3265761b325619dd5565b5b5f61b3338582860161b2e8565b925050602061b3448582860161b2fc565b9150509250929050565b7f4e487b71000000000000000000000000000000000000000000000000000000005f52601160045260245ffd5b5f61b38582619d9b565b915061b39083619d9b565b925082820190508082111561b3a85761b3a761b34e565b5b92915050565b7f43616c6c6572206973206e6f74206120666163746f727920636f6e74726163745f82015250565b5f61b3e260208361a301565b915061b3ed8261b3ae565b602082019050919050565b5f6020820190508181035f83015261b40f8161b3d6565b9050919050565b6004811061b422575f80fd5b50565b5f8151905061b4338161b416565b92915050565b5f6020828403121561b44e5761b44d619dd5565b5b5f61b45b8482850161b425565b91505092915050565b5f81519050919050565b5f81905092915050565b5f61b4828261b464565b61b48c818561b46e565b935061b49c81856020860161a311565b80840191505092915050565b5f61b4b3828561b478565b915061b4bf828461b478565b91508190509392505050565b7f496e76616c69642063616e63656c2069737375616e636520756e66696c6c65645f8201527f20616d6f756e7400000000000000000000000000000000000000000000000000602082015250565b5f61b52560278361a301565b915061b5308261b4cb565b604082019050919050565b5f6020820190508181035f83015261b5528161b519565b9050919050565b7f496e76616c696420746f6b656e206164647265737300000000000000000000005f82015250565b5f61b58d60158361a301565b915061b5988261b559565b602082019050919050565b5f6020820190508181035f83015261b5ba8161b581565b9050919050565b7f496e76616c6964205265717565737420496400000000000000000000000000005f82015250565b5f61b5f560128361a301565b915061b6008261b5c1565b602082019050919050565b5f6020820190508181035f83015261b6228161b5e9565b9050919050565b7f496e76616c696420726564656d7074696f6e20726571756573742069640000005f82015250565b5f61b65d601d8361a301565b915061b6688261b629565b602082019050919050565b5f6020820190508181035f83015261b68a8161b651565b9050919050565b7f496e76616c69642073656c6c207265717565737420616d6f756e7400000000005f82015250565b5f61b6c5601b8361a301565b915061b6d08261b691565b602082019050919050565b5f6020820190508181035f83015261b6f28161b6b9565b9050919050565b7f496e76616c696420726564656d7074696f6e20746f6b656e20616464726573735f82015250565b5f61b72d60208361a301565b915061b7388261b6f9565b602082019050919050565b5f6020820190508181035f83015261b75a8161b721565b9050919050565b7f696e76616c696420746f6b656e206164647265737300000000000000000000005f82015250565b5f61b79560158361a301565b915061b7a08261b761565b602082019050919050565b5f6020820190508181035f83015261b7c28161b789565b9050919050565b5f61b7d38261a643565b915061b7de8361a643565b9250828201905062ffffff81111561b7f95761b7f861b34e565b5b92915050565b7f696e76616c696420646563696d616c73000000000000000000000000000000005f82015250565b5f61b83360108361a301565b915061b83e8261b7ff565b602082019050919050565b5f6020820190508181035f83015261b8608161b827565b9050919050565b7f496e76616c69642069737375616e6365205265717565737420496400000000005f82015250565b5f61b89b601b8361a301565b915061b8a68261b867565b602082019050919050565b5f6020820190508181035f83015261b8c88161b88f565b9050919050565b5f61b8d982619d9b565b915061b8e483619d9b565b925082820390508181111561b8fc5761b8fb61b34e565b5b92915050565b7f4e487b71000000000000000000000000000000000000000000000000000000005f52601260045260245ffd5b5f61b93982619d9b565b915061b94483619d9b565b92508261b9545761b95361b902565b5b828204905092915050565b7f596f752073686f756c642077616974206174206c6561737420313220686f75725f8201527f7320616674657220746865206c61746573742075706461746500000000000000602082015250565b5f61b9b960398361a301565b915061b9c48261b95f565b604082019050919050565b5f6020820190508181035f83015261b9e68161b9ad565b9050919050565b7f546865206e65774665652073686f756c64206265206265747765656e203120615f8201527f6e64203130302028302e303125202d2031252900000000000000000000000000602082015250565b5f61ba4760338361a301565b915061ba528261b9ed565b604082019050919050565b5f6020820190508181035f83015261ba748161ba3b565b9050919050565b7f696e76616c6964206973737565722061646472657373000000000000000000005f82015250565b5f61baaf60168361a301565b915061baba8261ba7b565b602082019050919050565b5f6020820190508181035f83015261badc8161baa3565b9050919050565b7f4172726179206c656e677468206d69736d6174636800000000000000000000005f82015250565b5f61bb1760158361a301565b915061bb228261bae3565b602082019050919050565b5f6020820190508181035f83015261bb448161bb0b565b9050919050565b7f4e487b71000000000000000000000000000000000000000000000000000000005f52603260045260245ffd5b7f696e76616c696420666163746f727920616464726573730000000000000000005f82015250565b5f61bbac60178361a301565b915061bbb78261bb78565b602082019050919050565b5f6020820190508181035f83015261bbd98161bba0565b9050919050565b7f4e487b71000000000000000000000000000000000000000000000000000000005f52602260045260245ffd5b5f600282049050600182168061bc2457607f821691505b60208210810361bc375761bc3661bbe0565b5b50919050565b7f496e76616c6964206275726e20616d6f756e74000000000000000000000000005f82015250565b5f61bc7160138361a301565b915061bc7c8261bc3d565b602082019050919050565b5f6020820190508181035f83015261bc9e8161bc65565b9050919050565b5f6020828403121561bcba5761bcb9619dd5565b5b5f61bcc78482850161b2e8565b91505092915050565b5f69ffffffffffffffffffff82169050919050565b61bcee8161bcd0565b811461bcf8575f80fd5b50565b5f8151905061bd098161bce5565b92915050565b5f819050919050565b61bd218161bd0f565b811461bd2b575f80fd5b50565b5f8151905061bd3c8161bd18565b92915050565b5f805f805f60a0868803121561bd5b5761bd5a619dd5565b5b5f61bd688882890161bcfb565b955050602061bd798882890161bd2e565b945050604061bd8a8882890161b2e8565b935050606061bd9b8882890161b2e8565b925050608061bdac8882890161bcfb565b9150509295509295909350565b7f696e76616c696420726f756e64206964000000000000000000000000000000005f82015250565b5f61bded60108361a301565b915061bdf88261bdb9565b602082019050919050565b5f6020820190508181035f83015261be1a8161bde1565b9050919050565b7f696e76616c696420757064617465642074696d650000000000000000000000005f82015250565b5f61be5560148361a301565b915061be608261be21565b602082019050919050565b5f6020820190508181035f83015261be828161be49565b9050919050565b7f696e76616c6964207072696365000000000000000000000000000000000000005f82015250565b5f61bebd600d8361a301565b915061bec88261be89565b602082019050919050565b5f6020820190508181035f83015261beea8161beb1565b9050919050565b5f8151905061beff8161a6b9565b92915050565b5f6020828403121561bf1a5761bf19619dd5565b5b5f61bf278482850161bef1565b91505092915050565b5f60408201905061bf435f830185619ef5565b61bf506020830184619ef5565b9392505050565b5f8151905061bf658161a712565b92915050565b5f6040828403121561bf805761bf7f61a70e565b5b61bf8a604061a095565b90505f61bf998482850161b2e8565b5f83015250602061bfac8482850161bf57565b60208301525092915050565b5f6040828403121561bfcd5761bfcc619dd5565b5b5f61bfda8482850161bf6b565b91505092915050565b7f496e76616c69642063616e63656c20726564656d7074696f6e20756e66696c6c5f8201527f656420616d6f756e740000000000000000000000000000000000000000000000602082015250565b5f61c03d60298361a301565b915061c0488261bfe3565b604082019050919050565b5f6020820190508181035f83015261c06a8161c031565b9050919050565b7f4d7573742062652070726f706f736564206f776e6572000000000000000000005f82015250565b5f61c0a560168361a301565b915061c0b08261c071565b602082019050919050565b5f6020820190508181035f83015261c0d28161c099565b9050919050565b7f496e76616c69642069737375616e6365207265717565737420696400000000005f82015250565b5f61c10d601b8361a301565b915061c1188261c0d9565b602082019050919050565b5f6020820190508181035f83015261c13a8161c101565b9050919050565b7f63616c6c6572206d75737420626520666163746f72792062616c616e636572005f82015250565b5f61c175601f8361a301565b915061c1808261c141565b602082019050919050565b5f6020820190508181035f83015261c1a28161c169565b9050919050565b5f67ffffffffffffffff82111561c1c35761c1c261a037565b5b602082029050602081019050919050565b5f61c1e661c1e18461c1a9565b61a095565b9050808382526020820190506020840283018581111561c2095761c20861a906565b5b835b8181101561c25057803567ffffffffffffffff81111561c22e5761c22d61a01f565b5b80860161c23b898261a254565b8552602085019450505060208101905061c20b565b5050509392505050565b5f61c26636848461c1d4565b905092915050565b5f67ffffffffffffffff82111561c2885761c28761a037565b5b602082029050602081019050919050565b5f61c2ab61c2a68461c26e565b61a095565b9050808382526020820190506020840283018581111561c2ce5761c2cd61a906565b5b835b8181101561c31557803567ffffffffffffffff81111561c2f35761c2f261a01f565b5b80860161c300898261a12e565b8552602085019450505060208101905061c2d0565b5050509392505050565b5f61c32b36848461c299565b905092915050565b7f496e76616c69642069737375616e6365207072696d61727920746f6b656e20615f8201527f6464726573730000000000000000000000000000000000000000000000000000602082015250565b5f61c38d60268361a301565b915061c3988261c333565b604082019050919050565b5f6020820190508181035f83015261c3ba8161c381565b9050919050565b5f819050815f5260205f209050919050565b5f6020601f8301049050919050565b5f82821b905092915050565b5f6008830261c41d7fffffffffffffffffffffffffffffffffffffffffffffffffffffffffffffffff8261c3e2565b61c427868361c3e2565b95508019841693508086168417925050509392505050565b5f61c45961c45461c44f84619d9b565b61a591565b619d9b565b9050919050565b5f819050919050565b61c4728361c43f565b61c48661c47e8261c460565b84845461c3ee565b825550505050565b5f90565b61c49a61c48e565b61c4a581848461c469565b505050565b5b8181101561c4c85761c4bd5f8261c492565b60018101905061c4ab565b5050565b601f82111561c50d5761c4de8161c3c1565b61c4e78461c3d3565b8101602085101561c4f6578190505b61c50a61c5028561c3d3565b83018261c4aa565b50505b505050565b5f82821c905092915050565b5f61c52d5f198460080261c512565b1980831691505092915050565b5f61c545838361c51e565b9150826002028217905092915050565b61c55e8261a2f7565b67ffffffffffffffff81111561c5775761c57661a037565b5b61c581825461bc0d565b61c58c82828561c4cc565b5f60209050601f83116001811461c5bd575f841561c5ab578287015190505b61c5b5858261c53a565b86555061c61c565b601f19841661c5cb8661c3c1565b5f5b8281101561c5f25784890151825560018201915060208501945060208101905061c5cd565b8683101561c60f578489015161c60b601f89168261c51e565b8355505b6001600288020188555050505b505050505050565b7f696e76616c6964206f72646572206d616e6167657220616464726573730000005f82015250565b5f61c658601d8361a301565b915061c6638261c624565b602082019050919050565b5f6020820190508181035f83015261c6858161c64c565b9050919050565b7f496e76616c696420726564656d7074696f6e20696e70757420616d6f756e74005f82015250565b5f61c6c0601f8361a301565b915061c6cb8261c68c565b602082019050919050565b5f6020820190508181035f83015261c6ed8161c6b4565b9050919050565b5f61c6fe82619d9b565b915061c70983619d9b565b925082820261c71781619d9b565b9150828204841483151761c72e5761c72d61b34e565b5b5092915050565b7f496e76616c696420627579207265717565737420616d6f756e740000000000005f82015250565b5f61c769601a8361a301565b915061c7748261c735565b602082019050919050565b5f6020820190508181035f83015261c7968161c75d565b9050919050565b7f496e76616c696420726564656d7074696f6e20726571756573746572206164645f8201527f7265737300000000000000000000000000000000000000000000000000000000602082015250565b5f61c7f760248361a301565b915061c8028261c79d565b604082019050919050565b5f6020820190508181035f83015261c8248161c7eb565b9050919050565b7f696e76616c6964207661756c74206164647265737300000000000000000000005f82015250565b5f61c85f60158361a301565b915061c86a8261c82b565b602082019050919050565b5f6020820190508181035f83015261c88c8161c853565b9050919050565b7f696e76616c6964207573646320616464726573730000000000000000000000005f82015250565b5f61c8c760148361a301565b915061c8d28261c893565b602082019050919050565b5f6020820190508181035f83015261c8f48161c8bb565b9050919050565b7f696e76616c696420636861696e6c696e6b20746f6b656e2061646472657373005f82015250565b5f61c92f601f8361a301565b915061c93a8261c8fb565b602082019050919050565b5f6020820190508181035f83015261c95c8161c923565b9050919050565b7f696e76616c69642066756e6374696f6e7320726f7574657220616464726573735f82015250565b5f61c99760208361a301565b915061c9a28261c963565b602082019050919050565b5f6020820190508181035f83015261c9c48161c98b565b9050919050565b7f696e76616c696420646f6e2069640000000000000000000000000000000000005f82015250565b5f61c9ff600e8361a301565b915061ca0a8261c9cb565b602082019050919050565b5f6020820190508181035f83015261ca2c8161c9f3565b9050919050565b5f819050919050565b5f61ca5661ca5161ca4c8461ca33565b61a591565b61a41c565b9050919050565b61ca668161ca3c565b82525050565b5f60208201905061ca7f5f83018461ca5d565b92915050565b7f696e76616c696420666163746f72792062616c616e63657220616464726573735f82015250565b5f61cab960208361a301565b915061cac48261ca85565b602082019050919050565b5f6020820190508181035f83015261cae68161caad565b9050919050565b7f496e76616c69642069737375616e6365207265717565737465722061646472655f8201527f7373000000000000000000000000000000000000000000000000000000000000602082015250565b5f61cb4760228361a301565b915061cb528261caed565b604082019050919050565b5f6020820190508181035f83015261cb748161cb3b565b9050919050565b7f496e76616c69642069737375616e636520696e70757420616d6f756e740000005f82015250565b5f61cbaf601d8361a301565b915061cbba8261cb7b565b602082019050919050565b5f6020820190508181035f83015261cbdc8161cba3565b9050919050565b7f696e76616c6964206665652072656365697665722061646472657373000000005f82015250565b5f61cc17601c8361a301565b915061cc228261cbe3565b602082019050919050565b5f6020820190508181035f83015261cc448161cc0b565b9050919050565b7f4f6e6c792063616c6c61626c65206279206f776e6572000000000000000000005f82015250565b5f61cc7f60168361a301565b915061cc8a8261cc4b565b602082019050919050565b5f6020820190508181035f83015261ccac8161cc73565b9050919050565b5f8151905061ccc181619e37565b92915050565b5f61ccd961ccd48461a8db565b61a095565b9050808382526020820190506020840283018581111561ccfc5761ccfb61a906565b5b835b8181101561cd25578061cd11888261ccb3565b84526020840193505060208101905061ccfe565b5050509392505050565b5f82601f83011261cd435761cd4261a01f565b5b815161cd5384826020860161ccc7565b91505092915050565b5f61cd6e61cd698461adb9565b61a095565b9050808382526020820190506020840283018581111561cd915761cd9061a906565b5b835b8181101561cdba578061cda6888261b2e8565b84526020840193505060208101905061cd93565b5050509392505050565b5f82601f83011261cdd85761cdd761a01f565b5b815161cde884826020860161cd5c565b91505092915050565b5f806040838503121561ce075761ce06619dd5565b5b5f83015167ffffffffffffffff81111561ce245761ce23619dd9565b5b61ce308582860161cd2f565b925050602083015167ffffffffffffffff81111561ce515761ce50619dd9565b5b61ce5d8582860161cdc4565b9150509250929050565b7f696e76616c6964207265717565737420696400000000000000000000000000005f82015250565b5f61ce9b60128361a301565b915061cea68261ce67565b602082019050919050565b5f6020820190508181035f83015261cec88161ce8f565b9050919050565b7f696e76616c696420746f6b656e730000000000000000000000000000000000005f82015250565b5f61cf03600e8361a301565b915061cf0e8261cecf565b602082019050919050565b5f6020820190508181035f83015261cf308161cef7565b9050919050565b7f696e76616c6964206d61726b65742073686172657300000000000000000000005f82015250565b5f61cf6b60158361a301565b915061cf768261cf37565b602082019050919050565b5f6020820190508181035f83015261cf988161cf5f565b9050919050565b5f60608201905061cfb25f830186619da4565b61cfbf6020830185619da4565b61cfcc6040830184619da4565b949350505050565b7f616d6f756e7420646563696d616c732073686f756c64206265206c65737320745f8201527f68616e206f7220657175616c20746f2031380000000000000000000000000000602082015250565b5f61d02e60328361a301565b915061d0398261cfd4565b604082019050919050565b5f6020820190508181035f83015261d05b8161d022565b9050919050565b7f636861696e20646563696d616c732073686f756c64206265206c6573732074685f8201527f616e206f7220657175616c20746f203138000000000000000000000000000000602082015250565b5f61d0bc60318361a301565b915061d0c78261d062565b604082019050919050565b5f6020820190508181035f83015261d0e98161d0b0565b9050919050565b5f61d0fa82619fb8565b915061d10583619fb8565b9250828203905060ff81111561d11e5761d11d61b34e565b5b92915050565b5f8160011c9050919050565b5f808291508390505b600185111561d1795780860481111561d1555761d15461b34e565b5b600185161561d1645780820291505b808102905061d1728561d124565b945061d139565b94509492505050565b5f8261d191576001905061d24c565b8161d19e575f905061d24c565b816001811461d1b4576002811461d1be5761d1ed565b600191505061d24c565b60ff84111561d1d05761d1cf61b34e565b5b8360020a91508482111561d1e75761d1e661b34e565b5b5061d24c565b5060208310610133831016604e8410600b841016171561d2225782820a90508381111561d21d5761d21c61b34e565b5b61d24c565b61d22f848484600161d130565b9250905081840481111561d2465761d24561b34e565b5b81810290505b9392505050565b5f61d25d82619d9b565b915061d26883619fb8565b925061d2957fffffffffffffffffffffffffffffffffffffffffffffffffffffffffffffffff848461d182565b905092915050565b5f61d2a78261bd0f565b915061d2b28361bd0f565b925082820261d2c08161bd0f565b91507f800000000000000000000000000000000000000000000000000000000000000084145f8412161561d2f75761d2f661b34e565b5b828205841483151761d30c5761d30b61b34e565b5b5092915050565b5f82825260208201905092915050565b5f61d32d8261b464565b61d337818561d313565b935061d34781856020860161a311565b61d3508161a027565b840191505092915050565b5f61ffff82169050919050565b61d3718161d35b565b82525050565b61d3808161ac23565b82525050565b5f60a08201905061d3995f83018861a42f565b818103602083015261d3ab818761d323565b905061d3ba604083018661d368565b61d3c7606083018561d377565b61d3d4608083018461ad66565b9695505050505050565b5f8151905061d3ec81619ff5565b92915050565b5f6020828403121561d4075761d406619dd5565b5b5f61d4148482850161d3de565b91505092915050565b7f43616e6e6f74207472616e7366657220746f2073656c660000000000000000005f82015250565b5f61d45160178361a301565b915061d45c8261d41d565b602082019050919050565b5f6020820190508181035f83015261d47e8161d445565b9050919050565b7f43616e6e6f7420736574206f776e657220746f207a65726f00000000000000005f82015250565b5f61d4b960188361a301565b915061d4c48261d485565b602082019050919050565b5f6020820190508181035f83015261d4e68161d4ad565b9050919050565b5f61d4f782619d9b565b915061d50283619d9b565b92508261d5125761d51161b902565b5b828206905092915050565b5f61d52782619d9b565b915061d53283619d9b565b925061d55f7fffffffffffffffffffffffffffffffffffffffffffffffffffffffffffffffff848461d182565b90509291505056fe68747470733a2f2f6170702e6e65786c6162732e696f2f6170692f616c6c46756e64696e6752617465733f6d756c7469706c7946756e633d31382674696d65734e656746756e643d74727565266172726179733d74727565a2646970667358221220b83b3904cad076299282e8bcd37a2af032ce0ea0060b742acf348b101293355a64736f6c63430008190033","linkReferences":{}},"methodIdentifiers":{"acceptOwnership()":"79ba5097","actionInfoById(uint256)":"3c1f70ca","baseUrl()":"5bcabf04","burnedTokenAmountByNonce(uint256)":"ab7820b2","buyRequestPayedAmountById(uint256)":"8861d235","calculateBuyRequestFee(uint256)":"06995e3b","calculateIssuanceFee(uint256)":"e19eefbe","cancelIssuanceComplted(uint256)":"7bfa27f2","cancelIssuanceRequestId(uint256,address)":"02e80f71","cancelIssuanceUnfilledAmount(uint256,address)":"9edcf9f4","cancelRedemptionComplted(uint256)":"b46840f9","cancelRedemptionRequestId(uint256,address)":"8c221899","cancelRedemptionUnfilledAmount(uint256,address)":"632439fd","checkCancelIssuanceStatus(uint256)":"631c8385","checkCancelRedemptionStatus(uint256)":"b592662a","checkIssuanceOrdersStatus(uint256)":"2343acb4","checkRedemptionOrdersStatus(uint256)":"3fac0922","concatenation(string,string)":"0e329357","currentList(uint256)":"9932ba4c","donId()":"8dbe7b9d","factoryAddress()":"966dae0e","factoryBalancerAddress()":"cb4d4e09","factoryProcessorAddress()":"0acb8d40","feeRate()":"978bbdb9","feeReceiver()":"b3f00674","functionsRouterAddress()":"e3c91043","getActionInfoById(uint256)":"147726ae","getAmountAfterFee(uint24,uint256)":"2e6b96e7","getIssuanceAmountOut(uint256)":"c8da3303","getOrderInstanceById(uint256)":"f1f31d66","getPortfolioValue()":"bb0498de","getPrimaryOrder(bool)":"b12279aa","getRedemptionAmountOut(uint256)":"e2851bd6","getVaultDshareBalance(address)":"a08d7bd6","getVaultDshareValue(address)":"efdf5053","handleOracleFulfillment(bytes32,bytes,bytes)":"0ca76175","increaseIssuanceNonce()":"5501c6cf","increaseRedemptionNonce()":"7851b905","initialize(address,address,address,address,uint8,address,address,bytes32,bool)":"d57e0493","isIssuanceOrderActive(uint256)":"b0e12134","isMainnet()":"42faac05","isRedemptionOrderActive(uint256)":"0b1a4918","issuanceIndexTokenPrimaryTotalSupply(uint256)":"b1dd819e","issuanceInputAmount(uint256)":"cf9ee319","issuanceIsCompleted(uint256)":"a84ebc17","issuanceNonce()":"9dbb9c9e","issuanceRequestId(uint256,address)":"264fa8b9","issuanceRequesterByNonce(uint256)":"94674098","issuanceTokenPrimaryBalance(uint256,address)":"da65925a","issuer()":"1d143848","lastUpdateTime()":"c8f33c91","latestFeeUpdate()":"011ced5f","latestPriceDecimals()":"0b1fa733","mockFillAssetsList(address[],uint256[])":"addc70d1","oracleList(uint256)":"239aad0d","orderInstanceById(uint256)":"15e666a2","orderManager()":"f9b6117f","owner()":"8da5cb5b","priceFeedByTokenAddress(address)":"08dc4b0c","priceInWei(address)":"6839a095","redemptionIndexTokenPrimaryTotalSupply(uint256)":"daf1c17d","redemptionInputAmount(uint256)":"9cf54521","redemptionIsCompleted(uint256)":"76529fdf","redemptionNonce()":"84d77bb1","redemptionRequestId(uint256,address)":"f513a718","redemptionRequesterByNonce(uint256)":"78032658","redemptionTokenPrimaryBalance(uint256,address)":"a363b9cb","requestAssetsData(string,bytes,string[],bytes[],uint64,uint32)":"8c03c55a","sellRequestAssetAmountById(uint256)":"a87f98d2","setActionInfoById(uint256,(uint256,uint256))":"8182492a","setBurnedTokenAmountByNonce(uint256,uint256)":"6188199f","setBuyRequestPayedAmountById(uint256,uint256)":"d1e4a308","setCancelIssuanceComplted(uint256,bool)":"7cd375e2","setCancelIssuanceRequestId(uint256,address,uint256)":"7a6c4b7b","setCancelIssuanceUnfilledAmount(uint256,address,uint256)":"12b6d2e6","setCancelRedemptionComplted(uint256,bool)":"8e97d7e1","setCancelRedemptionRequestId(uint256,address,uint256)":"457e0e0f","setCancelRedemptionUnfilledAmount(uint256,address,uint256)":"6ea86556","setDonId(bytes32)":"78ca5de7","setFactory(address)":"5bb47808","setFactoryBalancer(address)":"d5fbea63","setFactoryProcessor(address)":"0499a61d","setFeeRate(uint8)":"5177942a","setFeeReceiver(address)":"efdcd974","setIsMainnet(bool)":"991be68e","setIssuanceIndexTokenPrimaryTotalSupply(uint256,uint256)":"99f68da8","setIssuanceInputAmount(uint256,uint256)":"ea5142c8","setIssuanceIsCompleted(uint256,bool)":"d1c0cee6","setIssuanceRequestId(uint256,address,uint256)":"496304a4","setIssuanceRequesterByNonce(uint256,address)":"df1d5ea2","setIssuanceTokenPrimaryBalance(uint256,address,uint256)":"9b2d6e3b","setIssuer(address)":"55cc4e57","setLatestPriceDecimals(uint8)":"32502639","setOrderInstanceById(uint256,(uint64,address,address,address,bool,uint8,uint256,uint256,uint256,uint8))":"35c51204","setOrderManager(address)":"c0da840d","setPriceFeedAddresses(address[],address[])":"57b61bc3","setRedemptionIndexTokenPrimaryTotalSupply(uint256,uint256)":"6ea495df","setRedemptionInputAmount(uint256,uint256)":"c7003d1b","setRedemptionIsCompleted(uint256,bool)":"0a1d4270","setRedemptionRequestId(uint256,address,uint256)":"1c7a2959","setRedemptionRequesterByNonce(uint256,address)":"d34ed2ab","setRedemptionTokenPrimaryBalance(uint256,address,uint256)":"21de914f","setSellRequestAssetAmountById(uint256,uint256)":"1e2ad86e","setTokenAddress(address)":"26a4e8d2","setUrl(string,string)":"a73e1cbf","setUsdcAddress(address,uint8)":"eab2a711","setWrappedDShareAddresses(address[],address[])":"b411dc41","token()":"fc0c546a","tokenCurrentListIndex(address)":"914f0cc6","tokenCurrentMarketShare(address)":"0be52713","tokenOracleListIndex(address)":"8c88c10c","tokenOracleMarketShare(address)":"4b3e0b80","totalCurrentList()":"53fd4332","totalOracleList()":"c8599ded","transferOwnership(address)":"f2fde38b","updateCurrentList()":"8baa6bf1","urlParams()":"e789598c","usdc()":"3e413bee","usdcDecimals()":"7bf42165","vault()":"fbfa77cf","wrappedDshareAddress(address)":"092755e0"},"id":21}