{"abi":[{"type":"function","name":"actionInfoById","inputs":[{"name":"","type":"uint256","internalType":"uint256"}],"outputs":[{"name":"actionType","type":"uint256","internalType":"uint256"},{"name":"nonce","type":"uint256","internalType":"uint256"}],"stateMutability":"view"},{"type":"function","name":"baseUrl","inputs":[],"outputs":[{"name":"","type":"string","internalType":"string"}],"stateMutability":"view"},{"type":"function","name":"burnedTokenAmountByNonce","inputs":[{"name":"","type":"uint256","internalType":"uint256"}],"outputs":[{"name":"","type":"uint256","internalType":"uint256"}],"stateMutability":"view"},{"type":"function","name":"buyRequestPayedAmountById","inputs":[{"name":"","type":"uint256","internalType":"uint256"}],"outputs":[{"name":"","type":"uint256","internalType":"uint256"}],"stateMutability":"view"},{"type":"function","name":"calculateBuyRequestFee","inputs":[{"name":"_amount","type":"uint256","internalType":"uint256"}],"outputs":[{"name":"","type":"uint256","internalType":"uint256"}],"stateMutability":"view"},{"type":"function","name":"calculateIssuanceFee","inputs":[{"name":"_inputAmount","type":"uint256","internalType":"uint256"}],"outputs":[{"name":"","type":"uint256","internalType":"uint256"}],"stateMutability":"view"},{"type":"function","name":"cancelIssuanceComplted","inputs":[{"name":"","type":"uint256","internalType":"uint256"}],"outputs":[{"name":"","type":"bool","internalType":"bool"}],"stateMutability":"view"},{"type":"function","name":"cancelIssuanceRequestId","inputs":[{"name":"","type":"uint256","internalType":"uint256"},{"name":"","type":"address","internalType":"address"}],"outputs":[{"name":"","type":"uint256","internalType":"uint256"}],"stateMutability":"view"},{"type":"function","name":"cancelIssuanceUnfilledAmount","inputs":[{"name":"","type":"uint256","internalType":"uint256"},{"name":"","type":"address","internalType":"address"}],"outputs":[{"name":"","type":"uint256","internalType":"uint256"}],"stateMutability":"view"},{"type":"function","name":"cancelRedemptionComplted","inputs":[{"name":"","type":"uint256","internalType":"uint256"}],"outputs":[{"name":"","type":"bool","internalType":"bool"}],"stateMutability":"view"},{"type":"function","name":"cancelRedemptionRequestId","inputs":[{"name":"","type":"uint256","internalType":"uint256"},{"name":"","type":"address","internalType":"address"}],"outputs":[{"name":"","type":"uint256","internalType":"uint256"}],"stateMutability":"view"},{"type":"function","name":"cancelRedemptionUnfilledAmount","inputs":[{"name":"","type":"uint256","internalType":"uint256"},{"name":"","type":"address","internalType":"address"}],"outputs":[{"name":"","type":"uint256","internalType":"uint256"}],"stateMutability":"view"},{"type":"function","name":"checkCancelIssuanceStatus","inputs":[{"name":"_issuanceNonce","type":"uint256","internalType":"uint256"}],"outputs":[{"name":"","type":"bool","internalType":"bool"}],"stateMutability":"view"},{"type":"function","name":"checkCancelRedemptionStatus","inputs":[{"name":"_redemptionNonce","type":"uint256","internalType":"uint256"}],"outputs":[{"name":"","type":"bool","internalType":"bool"}],"stateMutability":"view"},{"type":"function","name":"checkIssuanceOrdersStatus","inputs":[{"name":"_issuanceNonce","type":"uint256","internalType":"uint256"}],"outputs":[{"name":"","type":"bool","internalType":"bool"}],"stateMutability":"view"},{"type":"function","name":"checkRedemptionOrdersStatus","inputs":[{"name":"_redemptionNonce","type":"uint256","internalType":"uint256"}],"outputs":[{"name":"","type":"bool","internalType":"bool"}],"stateMutability":"view"},{"type":"function","name":"concatenation","inputs":[{"name":"a","type":"string","internalType":"string"},{"name":"b","type":"string","internalType":"string"}],"outputs":[{"name":"","type":"string","internalType":"string"}],"stateMutability":"pure"},{"type":"function","name":"currentList","inputs":[{"name":"","type":"uint256","internalType":"uint256"}],"outputs":[{"name":"","type":"address","internalType":"address"}],"stateMutability":"view"},{"type":"function","name":"externalJobId","inputs":[],"outputs":[{"name":"","type":"bytes32","internalType":"bytes32"}],"stateMutability":"view"},{"type":"function","name":"factoryAddress","inputs":[],"outputs":[{"name":"","type":"address","internalType":"address"}],"stateMutability":"view"},{"type":"function","name":"factoryBalancerAddress","inputs":[],"outputs":[{"name":"","type":"address","internalType":"address"}],"stateMutability":"view"},{"type":"function","name":"factoryProcessorAddress","inputs":[],"outputs":[{"name":"","type":"address","internalType":"address"}],"stateMutability":"view"},{"type":"function","name":"feeRate","inputs":[],"outputs":[{"name":"","type":"uint8","internalType":"uint8"}],"stateMutability":"view"},{"type":"function","name":"fulfillAssetsData","inputs":[{"name":"requestId","type":"bytes32","internalType":"bytes32"},{"name":"_tokens","type":"address[]","internalType":"address[]"},{"name":"_marketShares","type":"uint256[]","internalType":"uint256[]"}],"outputs":[],"stateMutability":"nonpayable"},{"type":"function","name":"getActionInfoById","inputs":[{"name":"_id","type":"uint256","internalType":"uint256"}],"outputs":[{"name":"","type":"tuple","internalType":"struct IndexFactoryStorage.ActionInfo","components":[{"name":"actionType","type":"uint256","internalType":"uint256"},{"name":"nonce","type":"uint256","internalType":"uint256"}]}],"stateMutability":"view"},{"type":"function","name":"getIssuanceAmountOut","inputs":[{"name":"_amount","type":"uint256","internalType":"uint256"}],"outputs":[{"name":"","type":"uint256","internalType":"uint256"}],"stateMutability":"view"},{"type":"function","name":"getOrderInstanceById","inputs":[{"name":"_id","type":"uint256","internalType":"uint256"}],"outputs":[{"name":"","type":"tuple","internalType":"struct IOrderProcessor.Order","components":[{"name":"requestTimestamp","type":"uint64","internalType":"uint64"},{"name":"recipient","type":"address","internalType":"address"},{"name":"assetToken","type":"address","internalType":"address"},{"name":"paymentToken","type":"address","internalType":"address"},{"name":"sell","type":"bool","internalType":"bool"},{"name":"orderType","type":"uint8","internalType":"enum IOrderProcessor.OrderType"},{"name":"assetTokenQuantity","type":"uint256","internalType":"uint256"},{"name":"paymentTokenQuantity","type":"uint256","internalType":"uint256"},{"name":"price","type":"uint256","internalType":"uint256"},{"name":"tif","type":"uint8","internalType":"enum IOrderProcessor.TIF"}]}],"stateMutability":"view"},{"type":"function","name":"getPortfolioValue","inputs":[],"outputs":[{"name":"","type":"uint256","internalType":"uint256"}],"stateMutability":"view"},{"type":"function","name":"getPrimaryOrder","inputs":[{"name":"sell","type":"bool","internalType":"bool"}],"outputs":[{"name":"","type":"tuple","internalType":"struct IOrderProcessor.Order","components":[{"name":"requestTimestamp","type":"uint64","internalType":"uint64"},{"name":"recipient","type":"address","internalType":"address"},{"name":"assetToken","type":"address","internalType":"address"},{"name":"paymentToken","type":"address","internalType":"address"},{"name":"sell","type":"bool","internalType":"bool"},{"name":"orderType","type":"uint8","internalType":"enum IOrderProcessor.OrderType"},{"name":"assetTokenQuantity","type":"uint256","internalType":"uint256"},{"name":"paymentTokenQuantity","type":"uint256","internalType":"uint256"},{"name":"price","type":"uint256","internalType":"uint256"},{"name":"tif","type":"uint8","internalType":"enum IOrderProcessor.TIF"}]}],"stateMutability":"view"},{"type":"function","name":"getRedemptionAmountOut","inputs":[{"name":"_amount","type":"uint256","internalType":"uint256"}],"outputs":[{"name":"","type":"uint256","internalType":"uint256"}],"stateMutability":"view"},{"type":"function","name":"getVaultDshareBalance","inputs":[{"name":"_token","type":"address","internalType":"address"}],"outputs":[{"name":"","type":"uint256","internalType":"uint256"}],"stateMutability":"view"},{"type":"function","name":"getVaultDshareValue","inputs":[{"name":"_token","type":"address","internalType":"address"}],"outputs":[{"name":"","type":"uint256","internalType":"uint256"}],"stateMutability":"view"},{"type":"function","name":"increaseIssuanceNonce","inputs":[],"outputs":[],"stateMutability":"nonpayable"},{"type":"function","name":"increaseRedemptionNonce","inputs":[],"outputs":[],"stateMutability":"nonpayable"},{"type":"function","name":"initialize","inputs":[{"name":"_issuer","type":"address","internalType":"address"},{"name":"_token","type":"address","internalType":"address"},{"name":"_vault","type":"address","internalType":"address"},{"name":"_usdc","type":"address","internalType":"address"},{"name":"_usdcDecimals","type":"uint8","internalType":"uint8"},{"name":"_chainlinkToken","type":"address","internalType":"address"},{"name":"_oracleAddress","type":"address","internalType":"address"},{"name":"_externalJobId","type":"bytes32","internalType":"bytes32"},{"name":"_isMainnet","type":"bool","internalType":"bool"}],"outputs":[],"stateMutability":"nonpayable"},{"type":"function","name":"isIssuanceOrderActive","inputs":[{"name":"_issuanceNonce","type":"uint256","internalType":"uint256"}],"outputs":[{"name":"","type":"bool","internalType":"bool"}],"stateMutability":"view"},{"type":"function","name":"isMainnet","inputs":[],"outputs":[{"name":"","type":"bool","internalType":"bool"}],"stateMutability":"view"},{"type":"function","name":"isRedemptionOrderActive","inputs":[{"name":"_redemptionNonce","type":"uint256","internalType":"uint256"}],"outputs":[{"name":"","type":"bool","internalType":"bool"}],"stateMutability":"view"},{"type":"function","name":"issuanceIndexTokenPrimaryTotalSupply","inputs":[{"name":"","type":"uint256","internalType":"uint256"}],"outputs":[{"name":"","type":"uint256","internalType":"uint256"}],"stateMutability":"view"},{"type":"function","name":"issuanceInputAmount","inputs":[{"name":"","type":"uint256","internalType":"uint256"}],"outputs":[{"name":"","type":"uint256","internalType":"uint256"}],"stateMutability":"view"},{"type":"function","name":"issuanceIsCompleted","inputs":[{"name":"","type":"uint256","internalType":"uint256"}],"outputs":[{"name":"","type":"bool","internalType":"bool"}],"stateMutability":"view"},{"type":"function","name":"issuanceNonce","inputs":[],"outputs":[{"name":"","type":"uint256","internalType":"uint256"}],"stateMutability":"view"},{"type":"function","name":"issuanceRequestId","inputs":[{"name":"","type":"uint256","internalType":"uint256"},{"name":"","type":"address","internalType":"address"}],"outputs":[{"name":"","type":"uint256","internalType":"uint256"}],"stateMutability":"view"},{"type":"function","name":"issuanceRequesterByNonce","inputs":[{"name":"","type":"uint256","internalType":"uint256"}],"outputs":[{"name":"","type":"address","internalType":"address"}],"stateMutability":"view"},{"type":"function","name":"issuanceTokenPrimaryBalance","inputs":[{"name":"","type":"uint256","internalType":"uint256"},{"name":"","type":"address","internalType":"address"}],"outputs":[{"name":"","type":"uint256","internalType":"uint256"}],"stateMutability":"view"},{"type":"function","name":"issuer","inputs":[],"outputs":[{"name":"","type":"address","internalType":"contract IOrderProcessor"}],"stateMutability":"view"},{"type":"function","name":"lastUpdateTime","inputs":[],"outputs":[{"name":"","type":"uint256","internalType":"uint256"}],"stateMutability":"view"},{"type":"function","name":"latestFeeUpdate","inputs":[],"outputs":[{"name":"","type":"uint256","internalType":"uint256"}],"stateMutability":"view"},{"type":"function","name":"latestPriceDecimals","inputs":[],"outputs":[{"name":"","type":"uint8","internalType":"uint8"}],"stateMutability":"view"},{"type":"function","name":"mockFillAssetsList","inputs":[{"name":"_tokens","type":"address[]","internalType":"address[]"},{"name":"_marketShares","type":"uint256[]","internalType":"uint256[]"}],"outputs":[],"stateMutability":"nonpayable"},{"type":"function","name":"oracleList","inputs":[{"name":"","type":"uint256","internalType":"uint256"}],"outputs":[{"name":"","type":"address","internalType":"address"}],"stateMutability":"view"},{"type":"function","name":"oraclePayment","inputs":[],"outputs":[{"name":"","type":"uint256","internalType":"uint256"}],"stateMutability":"view"},{"type":"function","name":"orderInstanceById","inputs":[{"name":"","type":"uint256","internalType":"uint256"}],"outputs":[{"name":"requestTimestamp","type":"uint64","internalType":"uint64"},{"name":"recipient","type":"address","internalType":"address"},{"name":"assetToken","type":"address","internalType":"address"},{"name":"paymentToken","type":"address","internalType":"address"},{"name":"sell","type":"bool","internalType":"bool"},{"name":"orderType","type":"uint8","internalType":"enum IOrderProcessor.OrderType"},{"name":"assetTokenQuantity","type":"uint256","internalType":"uint256"},{"name":"paymentTokenQuantity","type":"uint256","internalType":"uint256"},{"name":"price","type":"uint256","internalType":"uint256"},{"name":"tif","type":"uint8","internalType":"enum IOrderProcessor.TIF"}],"stateMutability":"view"},{"type":"function","name":"orderManager","inputs":[],"outputs":[{"name":"","type":"address","internalType":"contract OrderManager"}],"stateMutability":"view"},{"type":"function","name":"owner","inputs":[],"outputs":[{"name":"","type":"address","internalType":"address"}],"stateMutability":"view"},{"type":"function","name":"priceFeedByTokenAddress","inputs":[{"name":"","type":"address","internalType":"address"}],"outputs":[{"name":"","type":"address","internalType":"address"}],"stateMutability":"view"},{"type":"function","name":"priceInWei","inputs":[{"name":"_tokenAddress","type":"address","internalType":"address"}],"outputs":[{"name":"","type":"uint256","internalType":"uint256"}],"stateMutability":"view"},{"type":"function","name":"redemptionIndexTokenPrimaryTotalSupply","inputs":[{"name":"","type":"uint256","internalType":"uint256"}],"outputs":[{"name":"","type":"uint256","internalType":"uint256"}],"stateMutability":"view"},{"type":"function","name":"redemptionInputAmount","inputs":[{"name":"","type":"uint256","internalType":"uint256"}],"outputs":[{"name":"","type":"uint256","internalType":"uint256"}],"stateMutability":"view"},{"type":"function","name":"redemptionIsCompleted","inputs":[{"name":"","type":"uint256","internalType":"uint256"}],"outputs":[{"name":"","type":"bool","internalType":"bool"}],"stateMutability":"view"},{"type":"function","name":"redemptionNonce","inputs":[],"outputs":[{"name":"","type":"uint256","internalType":"uint256"}],"stateMutability":"view"},{"type":"function","name":"redemptionRequestId","inputs":[{"name":"","type":"uint256","internalType":"uint256"},{"name":"","type":"address","internalType":"address"}],"outputs":[{"name":"","type":"uint256","internalType":"uint256"}],"stateMutability":"view"},{"type":"function","name":"redemptionRequesterByNonce","inputs":[{"name":"","type":"uint256","internalType":"uint256"}],"outputs":[{"name":"","type":"address","internalType":"address"}],"stateMutability":"view"},{"type":"function","name":"redemptionTokenPrimaryBalance","inputs":[{"name":"","type":"uint256","internalType":"uint256"},{"name":"","type":"address","internalType":"address"}],"outputs":[{"name":"","type":"uint256","internalType":"uint256"}],"stateMutability":"view"},{"type":"function","name":"renounceOwnership","inputs":[],"outputs":[],"stateMutability":"nonpayable"},{"type":"function","name":"requestAssetsData","inputs":[],"outputs":[{"name":"","type":"bytes32","internalType":"bytes32"}],"stateMutability":"nonpayable"},{"type":"function","name":"sellRequestAssetAmountById","inputs":[{"name":"","type":"uint256","internalType":"uint256"}],"outputs":[{"name":"","type":"uint256","internalType":"uint256"}],"stateMutability":"view"},{"type":"function","name":"setActionInfoById","inputs":[{"name":"_requestId","type":"uint256","internalType":"uint256"},{"name":"_actionInfo","type":"tuple","internalType":"struct IndexFactoryStorage.ActionInfo","components":[{"name":"actionType","type":"uint256","internalType":"uint256"},{"name":"nonce","type":"uint256","internalType":"uint256"}]}],"outputs":[],"stateMutability":"nonpayable"},{"type":"function","name":"setBurnedTokenAmountByNonce","inputs":[{"name":"_redemptionNonce","type":"uint256","internalType":"uint256"},{"name":"_burnedAmount","type":"uint256","internalType":"uint256"}],"outputs":[],"stateMutability":"nonpayable"},{"type":"function","name":"setBuyRequestPayedAmountById","inputs":[{"name":"_requestId","type":"uint256","internalType":"uint256"},{"name":"_amount","type":"uint256","internalType":"uint256"}],"outputs":[],"stateMutability":"nonpayable"},{"type":"function","name":"setCancelIssuanceComplted","inputs":[{"name":"_issuanceNonce","type":"uint256","internalType":"uint256"},{"name":"_isCompleted","type":"bool","internalType":"bool"}],"outputs":[],"stateMutability":"nonpayable"},{"type":"function","name":"setCancelIssuanceRequestId","inputs":[{"name":"_issuanceNonce","type":"uint256","internalType":"uint256"},{"name":"_token","type":"address","internalType":"address"},{"name":"_requestId","type":"uint256","internalType":"uint256"}],"outputs":[],"stateMutability":"nonpayable"},{"type":"function","name":"setCancelIssuanceUnfilledAmount","inputs":[{"name":"_issuanceNonce","type":"uint256","internalType":"uint256"},{"name":"_token","type":"address","internalType":"address"},{"name":"_amount","type":"uint256","internalType":"uint256"}],"outputs":[],"stateMutability":"nonpayable"},{"type":"function","name":"setCancelRedemptionComplted","inputs":[{"name":"_redemptionNonce","type":"uint256","internalType":"uint256"},{"name":"_isCompleted","type":"bool","internalType":"bool"}],"outputs":[],"stateMutability":"nonpayable"},{"type":"function","name":"setCancelRedemptionRequestId","inputs":[{"name":"_redemptionNonce","type":"uint256","internalType":"uint256"},{"name":"_token","type":"address","internalType":"address"},{"name":"_requestId","type":"uint256","internalType":"uint256"}],"outputs":[],"stateMutability":"nonpayable"},{"type":"function","name":"setCancelRedemptionUnfilledAmount","inputs":[{"name":"_redemptionNonce","type":"uint256","internalType":"uint256"},{"name":"_token","type":"address","internalType":"address"},{"name":"_amount","type":"uint256","internalType":"uint256"}],"outputs":[],"stateMutability":"nonpayable"},{"type":"function","name":"setFactory","inputs":[{"name":"_factoryAddress","type":"address","internalType":"address"}],"outputs":[],"stateMutability":"nonpayable"},{"type":"function","name":"setFactoryBalancer","inputs":[{"name":"_factoryBalancerAddress","type":"address","internalType":"address"}],"outputs":[],"stateMutability":"nonpayable"},{"type":"function","name":"setFactoryProcessor","inputs":[{"name":"_factoryProcessorAddress","type":"address","internalType":"address"}],"outputs":[],"stateMutability":"nonpayable"},{"type":"function","name":"setFeeRate","inputs":[{"name":"_newFee","type":"uint8","internalType":"uint8"}],"outputs":[],"stateMutability":"nonpayable"},{"type":"function","name":"setIssuanceIndexTokenPrimaryTotalSupply","inputs":[{"name":"_issuanceNonce","type":"uint256","internalType":"uint256"},{"name":"_amount","type":"uint256","internalType":"uint256"}],"outputs":[],"stateMutability":"nonpayable"},{"type":"function","name":"setIssuanceInputAmount","inputs":[{"name":"_issuanceNonce","type":"uint256","internalType":"uint256"},{"name":"_amount","type":"uint256","internalType":"uint256"}],"outputs":[],"stateMutability":"nonpayable"},{"type":"function","name":"setIssuanceIsCompleted","inputs":[{"name":"_issuanceNonce","type":"uint256","internalType":"uint256"},{"name":"_isCompleted","type":"bool","internalType":"bool"}],"outputs":[],"stateMutability":"nonpayable"},{"type":"function","name":"setIssuanceRequestId","inputs":[{"name":"_issuanceNonce","type":"uint256","internalType":"uint256"},{"name":"_token","type":"address","internalType":"address"},{"name":"_requestId","type":"uint256","internalType":"uint256"}],"outputs":[],"stateMutability":"nonpayable"},{"type":"function","name":"setIssuanceRequesterByNonce","inputs":[{"name":"_issuanceNonce","type":"uint256","internalType":"uint256"},{"name":"_requester","type":"address","internalType":"address"}],"outputs":[],"stateMutability":"nonpayable"},{"type":"function","name":"setIssuanceTokenPrimaryBalance","inputs":[{"name":"_issuanceNonce","type":"uint256","internalType":"uint256"},{"name":"_token","type":"address","internalType":"address"},{"name":"_amount","type":"uint256","internalType":"uint256"}],"outputs":[],"stateMutability":"nonpayable"},{"type":"function","name":"setIssuer","inputs":[{"name":"_issuer","type":"address","internalType":"address"}],"outputs":[{"name":"","type":"bool","internalType":"bool"}],"stateMutability":"nonpayable"},{"type":"function","name":"setLatestPriceDecimals","inputs":[{"name":"_decimals","type":"uint8","internalType":"uint8"}],"outputs":[],"stateMutability":"nonpayable"},{"type":"function","name":"setOracleInfo","inputs":[{"name":"_oracleAddress","type":"address","internalType":"address"},{"name":"_externalJobId","type":"bytes32","internalType":"bytes32"}],"outputs":[],"stateMutability":"nonpayable"},{"type":"function","name":"setOrderInstanceById","inputs":[{"name":"_requestId","type":"uint256","internalType":"uint256"},{"name":"_order","type":"tuple","internalType":"struct IOrderProcessor.Order","components":[{"name":"requestTimestamp","type":"uint64","internalType":"uint64"},{"name":"recipient","type":"address","internalType":"address"},{"name":"assetToken","type":"address","internalType":"address"},{"name":"paymentToken","type":"address","internalType":"address"},{"name":"sell","type":"bool","internalType":"bool"},{"name":"orderType","type":"uint8","internalType":"enum IOrderProcessor.OrderType"},{"name":"assetTokenQuantity","type":"uint256","internalType":"uint256"},{"name":"paymentTokenQuantity","type":"uint256","internalType":"uint256"},{"name":"price","type":"uint256","internalType":"uint256"},{"name":"tif","type":"uint8","internalType":"enum IOrderProcessor.TIF"}]}],"outputs":[],"stateMutability":"nonpayable"},{"type":"function","name":"setOrderManager","inputs":[{"name":"_orderManager","type":"address","internalType":"address"}],"outputs":[{"name":"","type":"bool","internalType":"bool"}],"stateMutability":"nonpayable"},{"type":"function","name":"setPriceFeedAddresses","inputs":[{"name":"_dShares","type":"address[]","internalType":"address[]"},{"name":"_priceFeedAddresses","type":"address[]","internalType":"address[]"}],"outputs":[],"stateMutability":"nonpayable"},{"type":"function","name":"setRedemptionIndexTokenPrimaryTotalSupply","inputs":[{"name":"_redemptionNonce","type":"uint256","internalType":"uint256"},{"name":"_amount","type":"uint256","internalType":"uint256"}],"outputs":[],"stateMutability":"nonpayable"},{"type":"function","name":"setRedemptionInputAmount","inputs":[{"name":"_redemptionNonce","type":"uint256","internalType":"uint256"},{"name":"_amount","type":"uint256","internalType":"uint256"}],"outputs":[],"stateMutability":"nonpayable"},{"type":"function","name":"setRedemptionIsCompleted","inputs":[{"name":"_redemptionNonce","type":"uint256","internalType":"uint256"},{"name":"_isCompleted","type":"bool","internalType":"bool"}],"outputs":[],"stateMutability":"nonpayable"},{"type":"function","name":"setRedemptionRequestId","inputs":[{"name":"_redemptionNonce","type":"uint256","internalType":"uint256"},{"name":"_token","type":"address","internalType":"address"},{"name":"_requestId","type":"uint256","internalType":"uint256"}],"outputs":[],"stateMutability":"nonpayable"},{"type":"function","name":"setRedemptionRequesterByNonce","inputs":[{"name":"_redemptionNonce","type":"uint256","internalType":"uint256"},{"name":"_requester","type":"address","internalType":"address"}],"outputs":[],"stateMutability":"nonpayable"},{"type":"function","name":"setRedemptionTokenPrimaryBalance","inputs":[{"name":"_redemptionNonce","type":"uint256","internalType":"uint256"},{"name":"_token","type":"address","internalType":"address"},{"name":"_amount","type":"uint256","internalType":"uint256"}],"outputs":[],"stateMutability":"nonpayable"},{"type":"function","name":"setSellRequestAssetAmountById","inputs":[{"name":"_requestId","type":"uint256","internalType":"uint256"},{"name":"_amount","type":"uint256","internalType":"uint256"}],"outputs":[],"stateMutability":"nonpayable"},{"type":"function","name":"setTokenAddress","inputs":[{"name":"_token","type":"address","internalType":"address"}],"outputs":[{"name":"","type":"bool","internalType":"bool"}],"stateMutability":"nonpayable"},{"type":"function","name":"setUrl","inputs":[{"name":"_beforeAddress","type":"string","internalType":"string"},{"name":"_afterAddress","type":"string","internalType":"string"}],"outputs":[],"stateMutability":"nonpayable"},{"type":"function","name":"setUsdcAddress","inputs":[{"name":"_usdc","type":"address","internalType":"address"},{"name":"_usdcDecimals","type":"uint8","internalType":"uint8"}],"outputs":[{"name":"","type":"bool","internalType":"bool"}],"stateMutability":"nonpayable"},{"type":"function","name":"setWrappedDShareAddresses","inputs":[{"name":"_dShares","type":"address[]","internalType":"address[]"},{"name":"_wrappedDShares","type":"address[]","internalType":"address[]"}],"outputs":[],"stateMutability":"nonpayable"},{"type":"function","name":"token","inputs":[],"outputs":[{"name":"","type":"address","internalType":"contract IndexToken"}],"stateMutability":"view"},{"type":"function","name":"tokenCurrentListIndex","inputs":[{"name":"","type":"address","internalType":"address"}],"outputs":[{"name":"","type":"uint256","internalType":"uint256"}],"stateMutability":"view"},{"type":"function","name":"tokenCurrentMarketShare","inputs":[{"name":"","type":"address","internalType":"address"}],"outputs":[{"name":"","type":"uint256","internalType":"uint256"}],"stateMutability":"view"},{"type":"function","name":"tokenOracleListIndex","inputs":[{"name":"","type":"address","internalType":"address"}],"outputs":[{"name":"","type":"uint256","internalType":"uint256"}],"stateMutability":"view"},{"type":"function","name":"tokenOracleMarketShare","inputs":[{"name":"","type":"address","internalType":"address"}],"outputs":[{"name":"","type":"uint256","internalType":"uint256"}],"stateMutability":"view"},{"type":"function","name":"totalCurrentList","inputs":[],"outputs":[{"name":"","type":"uint256","internalType":"uint256"}],"stateMutability":"view"},{"type":"function","name":"totalOracleList","inputs":[],"outputs":[{"name":"","type":"uint256","internalType":"uint256"}],"stateMutability":"view"},{"type":"function","name":"transferOwnership","inputs":[{"name":"newOwner","type":"address","internalType":"address"}],"outputs":[],"stateMutability":"nonpayable"},{"type":"function","name":"updateCurrentList","inputs":[],"outputs":[],"stateMutability":"nonpayable"},{"type":"function","name":"urlParams","inputs":[],"outputs":[{"name":"","type":"string","internalType":"string"}],"stateMutability":"view"},{"type":"function","name":"usdc","inputs":[],"outputs":[{"name":"","type":"address","internalType":"address"}],"stateMutability":"view"},{"type":"function","name":"usdcDecimals","inputs":[],"outputs":[{"name":"","type":"uint8","internalType":"uint8"}],"stateMutability":"view"},{"type":"function","name":"vault","inputs":[],"outputs":[{"name":"","type":"address","internalType":"contract NexVault"}],"stateMutability":"view"},{"type":"function","name":"wrappedDshareAddress","inputs":[{"name":"","type":"address","internalType":"address"}],"outputs":[{"name":"","type":"address","internalType":"address"}],"stateMutability":"view"},{"type":"event","name":"ChainlinkCancelled","inputs":[{"name":"id","type":"bytes32","indexed":true,"internalType":"bytes32"}],"anonymous":false},{"type":"event","name":"ChainlinkFulfilled","inputs":[{"name":"id","type":"bytes32","indexed":true,"internalType":"bytes32"}],"anonymous":false},{"type":"event","name":"ChainlinkRequested","inputs":[{"name":"id","type":"bytes32","indexed":true,"internalType":"bytes32"}],"anonymous":false},{"type":"event","name":"Initialized","inputs":[{"name":"version","type":"uint64","indexed":false,"internalType":"uint64"}],"anonymous":false},{"type":"event","name":"OwnershipTransferred","inputs":[{"name":"previousOwner","type":"address","indexed":true,"internalType":"address"},{"name":"newOwner","type":"address","indexed":true,"internalType":"address"}],"anonymous":false},{"type":"error","name":"InvalidInitialization","inputs":[]},{"type":"error","name":"NotInitializing","inputs":[]},{"type":"error","name":"OwnableInvalidOwner","inputs":[{"name":"owner","type":"address","internalType":"address"}]},{"type":"error","name":"OwnableUnauthorizedAccount","inputs":[{"name":"account","type":"address","internalType":"address"}]},{"type":"error","name":"PRBMath_MulDiv_Overflow","inputs":[{"name":"x","type":"uint256","internalType":"uint256"},{"name":"y","type":"uint256","internalType":"uint256"},{"name":"denominator","type":"uint256","internalType":"uint256"}]}],"bytecode":{"object":"0x6080604052348015600f57600080fd5b5061577b8061001f6000396000f3fe608060405234801561001057600080fd5b50600436106107175760003560e01c80638861d235116103a8578063b592662a116101f4578063daf1c17d1161011a578063efdf5053116100b8578063f513a71811610087578063f513a71814611257578063f9b6117f14611282578063fbfa77cf14611295578063fc0c546a146112a857600080fd5b8063efdf50531461120b578063f14bea201461121e578063f1f31d6614611231578063f2fde38b1461124457600080fd5b8063e2851bd6116100f4578063e2851bd6146111ca578063e789598c146111dd578063ea5142c8146111e5578063eab2a711146111f857600080fd5b8063daf1c17d14611184578063df1d5ea2146111a4578063e19eefbe146111b757600080fd5b8063cb4d4e0911610192578063d34ed2ab11610161578063d34ed2ab14611120578063d57e049314611133578063d5fbea6314611146578063da65925a1461115957600080fd5b8063cb4d4e09146110c7578063cf9ee319146110da578063d1c0cee6146110fa578063d1e4a3081461110d57600080fd5b8063c7003d1b116101ce578063c7003d1b1461108f578063c8599ded146110a2578063c8da3303146110ab578063c8f33c91146110be57600080fd5b8063b592662a14611061578063bb0498de14611074578063c0da840d1461107c57600080fd5b80639dbb9c9e116102d9578063a8b54bd411610277578063b12279aa11610246578063b12279aa14610feb578063b1dd819e1461100b578063b411dc411461102b578063b46840f91461103e57600080fd5b8063a8b54bd414610f9c578063ab7820b214610fa5578063addc70d114610fc5578063b0e1213414610fd857600080fd5b8063a363b9cb116102b3578063a363b9cb14610f1b578063a73e1cbf14610f46578063a84ebc1714610f59578063a87f98d214610f7c57600080fd5b80639dbb9c9e14610ed45780639edcf9f414610edd578063a08d7bd614610f0857600080fd5b806394674098116103465780639932ba4c116103205780639932ba4c14610e6557806399f68da814610e8e5780639b2d6e3b14610ea15780639cf5452114610eb457600080fd5b80639467409814610e15578063966dae0e14610e3e578063978bbdb914610e5157600080fd5b80638c88c10c116103825780638c88c10c14610d925780638da5cb5b14610db25780638e97d7e114610de2578063914f0cc614610df557600080fd5b80638861d23514610d3f5780638baa6bf114610d5f5780638c22189914610d6757600080fd5b806342faac0511610567578063632439fd116104985780637851b905116104365780637ca58c55116104055780637ca58c5514610d085780637cd375e214610d105780638182492a14610d2357806384d77bb114610d3657600080fd5b80637851b90514610cb65780637a6c4b7b14610cbe5780637bf4216514610cd15780637bfa27f214610ce557600080fd5b80636ea86556116104725780636ea8655614610c4f578063715018a614610c6257806376529fdf14610c6a5780637803265814610c8d57600080fd5b8063632439fd14610bfe5780636839a09514610c295780636ea495df14610c3c57600080fd5b80635501c6cf116105055780635bb47808116104df5780635bb4780814610bbd5780635bcabf0414610bd05780636188199f14610bd8578063631c838514610beb57600080fd5b80635501c6cf14610b8f57806355cc4e5714610b9757806357b61bc314610baa57600080fd5b8063496304a411610541578063496304a414610b405780634b3e0b8014610b535780635177942a14610b7357806353fd433214610b8657600080fd5b806342faac0514610b0657806343482fc814610b1a578063457e0e0f14610b2d57600080fd5b8063147726ae1161064c578063239aad0d116105ea57806335c51204116105b957806335c5120414610a915780633c1f70ca14610aa45780633e413bee14610ae05780633fac092214610af357600080fd5b8063239aad0d14610a17578063264fa8b914610a4057806326a4e8d214610a6b5780633250263914610a7e57600080fd5b80631d143848116106265780631d143848146109cb5780631e2ad86e146109de57806321de914f146109f15780632343acb414610a0457600080fd5b8063147726ae146108b957806315e666a2146109205780631c7a2959146109b857600080fd5b80630acb8d40116106b95780630be52713116106935780630be527131461085d5780630c02e1301461087d5780630e3293571461088657806312b6d2e6146108a657600080fd5b80630acb8d40146108085780630b1a49181461081b5780630b1fa7331461083e57600080fd5b806306995e3b116106f557806306995e3b1461077857806308dc4b0c1461078b578063092755e0146107cc5780630a1d4270146107f557600080fd5b8063011ced5f1461071c57806302e80f71146107385780630499a61d14610763575b600080fd5b610725601d5481565b6040519081526020015b60405180910390f35b610725610746366004614896565b602460209081526000928352604080842090915290825290205481565b6107766107713660046148c2565b6112bb565b005b6107256107863660046148dd565b6112e5565b6107b46107993660046148c2565b6017602052600090815260409020546001600160a01b031681565b6040516001600160a01b03909116815260200161072f565b6107b46107da3660046148c2565b6012602052600090815260409020546001600160a01b031681565b61077661080336600461490f565b611385565b600a546107b4906001600160a01b031681565b61082e6108293660046148dd565b611402565b604051901515815260200161072f565b60205461084b9060ff1681565b60405160ff909116815260200161072f565b61072561086b3660046148c2565b60156020526000908152604090205481565b610725600c5481565b610899610894366004614a3f565b6114e3565b60405161072f9190614af2565b6107766108b4366004614b05565b611510565b6109056108c73660046148dd565b604080518082019091526000808252602082015250600090815260356020908152604091829020825180840190935280548352600101549082015290565b6040805182518152602092830151928101929092520161072f565b6109a261092e3660046148dd565b60326020526000908152604090208054600182015460028301546003840154600485015460058601546006909601546001600160401b038616966001600160a01b03600160401b9097048716969586169585169460ff600160a01b8204811695600160a81b9092048116949193919291168a565b60405161072f9a99989796959493929190614b74565b6107766109c6366004614b05565b61158a565b601a546107b4906001600160a01b031681565b6107766109ec366004614be9565b611604565b6107766109ff366004614b05565b61166a565b61082e610a123660046148dd565b6116e4565b6107b4610a253660046148dd565b6010602052600090815260409020546001600160a01b031681565b610725610a4e366004614896565b602660209081526000928352604080842090915290825290205481565b61082e610a793660046148c2565b6117da565b610776610a8c366004614c1a565b611856565b610776610a9f366004614c7e565b611874565b610acb610ab23660046148dd565b6035602052600090815260409020805460019091015482565b6040805192835260208301919091520161072f565b601b546107b4906001600160a01b031681565b61082e610b013660046148dd565b6119e9565b601c5461082e90600160a01b900460ff1681565b610776610b28366004614d54565b611ac6565b610776610b3b366004614b05565b611add565b610776610b4e366004614b05565b611b57565b610725610b613660046148c2565b60166020526000908152604090205481565b610776610b81366004614c1a565b611bd1565b610725600f5481565b610776611d1c565b61082e610ba53660046148c2565b611d8a565b610776610bb8366004614e17565b611e08565b610776610bcb3660046148c2565b611ede565b610899611f08565b610776610be6366004614be9565b611f96565b61082e610bf93660046148dd565b611ffc565b610725610c0c366004614896565b603760209081526000928352604080842090915290825290205481565b610725610c373660046148c2565b6122a0565b610776610c4a366004614be9565b612447565b610776610c5d366004614b05565b6124ad565b610776612527565b61082e610c783660046148dd565b60226020526000908152604090205460ff1681565b6107b4610c9b3660046148dd565b602f602052600090815260409020546001600160a01b031681565b61077661253b565b610776610ccc366004614b05565b6125a2565b601b5461084b90600160a01b900460ff1681565b61082e610cf33660046148dd565b60306020526000908152604090205460ff1681565b61072561261c565b610776610d1e36600461490f565b61285c565b610776610d31366004614e70565b6128d0565b610725601f5481565b610725610d4d3660046148dd565b60286020526000908152604090205481565b610776612944565b610725610d75366004614896565b602560209081526000928352604080842090915290825290205481565b610725610da03660046148c2565b60136020526000908152604090205481565b7f9016d09d72d40fdae2fd8ceac6b6234c7706214fd39c1cd1e609a0528c199300546001600160a01b03166107b4565b610776610df036600461490f565b612a0d565b610725610e033660046148c2565b60146020526000908152604090205481565b6107b4610e233660046148dd565b602e602052600090815260409020546001600160a01b031681565b6008546107b4906001600160a01b031681565b601c5461084b90600160a81b900460ff1681565b6107b4610e733660046148dd565b6011602052600090815260409020546001600160a01b031681565b610776610e9c366004614be9565b612a81565b610776610eaf366004614b05565b612ae7565b610725610ec23660046148dd565b60346020526000908152604090205481565b610725601e5481565b610725610eeb366004614896565b603660209081526000928352604080842090915290825290205481565b610725610f163660046148c2565b612b61565b610725610f29366004614896565b602b60209081526000928352604080842090915290825290205481565b610776610f54366004614a3f565b612c54565b61082e610f673660046148dd565b60216020526000908152604090205460ff1681565b610725610f8a3660046148dd565b60296020526000908152604090205481565b610725600b5481565b610725610fb33660046148dd565b60236020526000908152604090205481565b610776610fd3366004614f1e565b612c75565b61082e610fe63660046148dd565b612c8b565b610ffe610ff9366004614f77565b612d63565b60405161072f9190614f94565b6107256110193660046148dd565b602c6020526000908152604090205481565b610776611039366004614e17565b612e1a565b61082e61104c3660046148dd565b60316020526000908152604090205460ff1681565b61082e61106f3660046148dd565b612eeb565b610725613190565b61082e61108a3660046148c2565b6131d8565b61077661109d366004614be9565b61325d565b610725600e5481565b6107256110b93660046148dd565b6132c3565b610725600d5481565b6009546107b4906001600160a01b031681565b6107256110e83660046148dd565b60336020526000908152604090205481565b61077661110836600461490f565b613362565b61077661111b366004614be9565b6133d6565b61077661112e366004614896565b61343c565b610776611141366004615059565b6134be565b6107766111543660046148c2565b613748565b610725611167366004614896565b602a60209081526000928352604080842090915290825290205481565b6107256111923660046148dd565b602d6020526000908152604090205481565b6107766111b2366004614896565b613772565b6107256111c53660046148dd565b6137f4565b6107256111d83660046148dd565b61390b565b6108996139a0565b6107766111f3366004614be9565b6139ad565b61082e611206366004615100565b613a13565b6107256112193660046148c2565b613a9c565b61077661122c36600461512c565b613ad4565b610ffe61123f3660046148dd565b613ba0565b6107766112523660046148c2565b613ca6565b610725611265366004614896565b602760209081526000928352604080842090915290825290205481565b601c546107b4906001600160a01b031681565b6019546107b4906001600160a01b031681565b6018546107b4906001600160a01b031681565b6112c3613ce1565b600a80546001600160a01b0319166001600160a01b0392909216919091179055565b601a54601b546040516308da5c3560e21b81526000600482018190526001600160a01b039283166024830152928392839291169063236970d4906044016040805180830381865afa15801561133e573d6000803e3d6000fd5b505050506040513d601f19601f820116820180604052508101906113629190615198565b9150915060006113728286613d3c565b61137c90846151db565b95945050505050565b6008546001600160a01b03163314806113a85750600a546001600160a01b031633145b806113bd57506009546001600160a01b031633145b6113e25760405162461bcd60e51b81526004016113d9906151ee565b60405180910390fd5b600091825260226020526040909120805460ff1916911515919091179055565b6000805b600f548110156114da57600081815260116020908152604080832054868452602783528184206001600160a01b0391821680865293529281902054601a5491516322fd455760e11b81526004810182905292939092600192909116906345fa8aae90602401602060405180830381865afa158015611488573d6000803e3d6000fd5b505050506040513d601f19601f820116820180604052508101906114ac9190615223565b60038111156114bd576114bd614b3a565b60ff16036114d057506001949350505050565b5050600101611406565b50600092915050565b606082826040516020016114f8929190615240565b60405160208183030381529060405290505b92915050565b6008546001600160a01b03163314806115335750600a546001600160a01b031633145b8061154857506009546001600160a01b031633145b6115645760405162461bcd60e51b81526004016113d9906151ee565b60009283526036602090815260408085206001600160a01b039094168552929052912055565b6008546001600160a01b03163314806115ad5750600a546001600160a01b031633145b806115c257506009546001600160a01b031633145b6115de5760405162461bcd60e51b81526004016113d9906151ee565b60009283526027602090815260408085206001600160a01b039094168552929052912055565b6008546001600160a01b03163314806116275750600a546001600160a01b031633145b8061163c57506009546001600160a01b031633145b6116585760405162461bcd60e51b81526004016113d9906151ee565b60009182526029602052604090912055565b6008546001600160a01b031633148061168d5750600a546001600160a01b031633145b806116a257506009546001600160a01b031633145b6116be5760405162461bcd60e51b81526004016113d9906151ee565b6000928352602b602090815260408085206001600160a01b039094168552929052912055565b60008060005b600f548110156117c157600081815260116020908152604080832054878452602683528184206001600160a01b0391821680865293529281902054601a5491516322fd455760e11b81526004810182905292939092600292909116906345fa8aae90602401602060405180830381865afa15801561176c573d6000803e3d6000fd5b505050506040513d601f19601f820116820180604052508101906117909190615223565b60038111156117a1576117a1614b3a565b60ff16036117b7576117b46001856151db565b93505b50506001016116ea565b50600f5481036114da5750600192915050565b50919050565b60006117e4613ce1565b6001600160a01b0382166118325760405162461bcd60e51b8152602060048201526015602482015274696e76616c696420746f6b656e206164647265737360581b60448201526064016113d9565b50601880546001600160a01b0319166001600160a01b03831617905560015b919050565b61185e613ce1565b6020805460ff191660ff92909216919091179055565b6008546001600160a01b03163314806118975750600a546001600160a01b031633145b806118ac57506009546001600160a01b031633145b6118c85760405162461bcd60e51b81526004016113d9906151ee565b60008281526032602090815260409182902083518154928501516001600160401b039091166001600160e01b031990931692909217600160401b6001600160a01b039384160217815591830151600180840180546001600160a01b0319169284169290921790915560608401516002840180546080870151929094166001600160a81b031990941693909317600160a01b911515919091021780835560a08501518594939092909160ff60a81b191690600160a81b90849081111561198f5761198f614b3a565b021790555060c0820151816003015560e0820151816004015561010082015181600501556101208201518160060160006101000a81548160ff021916908360038111156119de576119de614b3a565b021790555050505050565b60008060005b600f548110156117c157600081815260116020908152604080832054878452602783528184206001600160a01b0391821680865293529281902054601a5491516322fd455760e11b81526004810182905292939092600292909116906345fa8aae90602401602060405180830381865afa158015611a71573d6000803e3d6000fd5b505050506040513d601f19601f82011682018060405250810190611a959190615223565b6003811115611aa657611aa6614b3a565b60ff1603611abc57611ab96001856151db565b93505b50506001016119ef565b611ace613ce1565b611ad782613d6c565b600b5550565b6008546001600160a01b0316331480611b005750600a546001600160a01b031633145b80611b1557506009546001600160a01b031633145b611b315760405162461bcd60e51b81526004016113d9906151ee565b60009283526025602090815260408085206001600160a01b039094168552929052912055565b6008546001600160a01b0316331480611b7a5750600a546001600160a01b031633145b80611b8f57506009546001600160a01b031633145b611bab5760405162461bcd60e51b81526004016113d9906151ee565b60009283526026602090815260408085206001600160a01b039094168552929052912055565b611bd9613ce1565b6000601d5442611be9919061526f565b9050600c603c611bf98184615298565b611c039190615298565b11611c765760405162461bcd60e51b815260206004820152603960248201527f596f752073686f756c642077616974206174206c6561737420313220686f757260448201527f7320616674657220746865206c6174657374207570646174650000000000000060648201526084016113d9565b6127108260ff1611158015611c8f575060018260ff1610155b611cf75760405162461bcd60e51b815260206004820152603360248201527f546865206e65774665652073686f756c64206265206265747765656e203120616044820152726e64203130302028302e303125202d2031252960681b60648201526084016113d9565b50601c805460ff909216600160a81b0260ff60a81b1990921691909117905542601d55565b6008546001600160a01b0316331480611d3f5750600a546001600160a01b031633145b80611d5457506009546001600160a01b031633145b611d705760405162461bcd60e51b81526004016113d9906151ee565b6001601e6000828254611d8391906151db565b9091555050565b6000611d94613ce1565b6001600160a01b038216611de35760405162461bcd60e51b8152602060048201526016602482015275696e76616c696420697373756572206164647265737360501b60448201526064016113d9565b50601a80546001600160a01b0383166001600160a01b03199091161790556001919050565b611e10613ce1565b8051825114611e595760405162461bcd60e51b8152602060048201526015602482015274082e4e4c2f240d8cadccee8d040dad2e6dac2e8c6d605b1b60448201526064016113d9565b60005b8251811015611ed957818181518110611e7757611e776152ac565b602002602001015160176000858481518110611e9557611e956152ac565b6020908102919091018101516001600160a01b0390811683529082019290925260400160002080546001600160a01b03191692909116919091179055600101611e5c565b505050565b611ee6613ce1565b600880546001600160a01b0319166001600160a01b0392909216919091179055565b60068054611f15906152c2565b80601f0160208091040260200160405190810160405280929190818152602001828054611f41906152c2565b8015611f8e5780601f10611f6357610100808354040283529160200191611f8e565b820191906000526020600020905b815481529060010190602001808311611f7157829003601f168201915b505050505081565b6008546001600160a01b0316331480611fb95750600a546001600160a01b031633145b80611fce57506009546001600160a01b031633145b611fea5760405162461bcd60e51b81526004016113d9906151ee565b60009182526023602052604090912055565b60008060005b600f548110156117c157600081815260116020908152604080832054878452602683528184206001600160a01b03918216808652935281842054601a54925163187b2ed160e21b815260048101829052939490939092909116906361ecbb4490602401602060405180830381865afa158015612082573d6000803e3d6000fd5b505050506040513d601f19601f820116820180604052508101906120a691906152f6565b601a546040516322fd455760e11b8152600481018590529192506003916001600160a01b03909116906345fa8aae90602401602060405180830381865afa1580156120f5573d6000803e3d6000fd5b505050506040513d601f19601f820116820180604052508101906121199190615223565b600381111561212a5761212a614b3a565b60ff16148015612138575080155b1561214f576121486001866151db565b9450612295565b601a546040516322fd455760e11b8152600481018490526002916001600160a01b0316906345fa8aae90602401602060405180830381865afa158015612199573d6000803e3d6000fd5b505050506040513d601f19601f820116820180604052508101906121bd9190615223565b60038111156121ce576121ce614b3a565b60ff161480156121dc575080155b156122955760008781526024602081815260408084206001600160a01b03888116865292529283902054601a5493516322fd455760e11b81526004810182905290936002939216916345fa8aae9101602060405180830381865afa158015612248573d6000803e3d6000fd5b505050506040513d601f19601f8201168201806040525081019061226c9190615223565b600381111561227d5761227d614b3a565b60ff1603612293576122906001876151db565b95505b505b505050600101612002565b601c54600090600160a01b900460ff16156123a9576001600160a01b03808316600090815260176020526040808220548151633fabe5a360e21b81529151931692839163feaf968c9160048083019260a09291908290030181865afa15801561230d573d6000803e3d6000fd5b505050506040513d601f19601f820116820180604052508101906123319190615329565b5050509150506000826001600160a01b031663313ce5676040518163ffffffff1660e01b8152600401602060405180830381865afa158015612377573d6000803e3d6000fd5b505050506040513d601f19601f8201168201806040525081019061239b9190615379565b905061137c82826012613d8e565b601a54601b5460405163a377cfbf60e01b81526001600160a01b0385811660048301529182166024820152600092919091169063a377cfbf906044016040805180830381865afa158015612401573d6000803e3d6000fd5b505050506040513d601f19601f820116820180604052508101906124259190615396565b805160205491925060009161243f919060ff166012613d8e565b949350505050565b6008546001600160a01b031633148061246a5750600a546001600160a01b031633145b8061247f57506009546001600160a01b031633145b61249b5760405162461bcd60e51b81526004016113d9906151ee565b6000918252602d602052604090912055565b6008546001600160a01b03163314806124d05750600a546001600160a01b031633145b806124e557506009546001600160a01b031633145b6125015760405162461bcd60e51b81526004016113d9906151ee565b60009283526037602090815260408085206001600160a01b039094168552929052912055565b61252f613ce1565b6125396000613dce565b565b6008546001600160a01b031633148061255e5750600a546001600160a01b031633145b8061257357506009546001600160a01b031633145b61258f5760405162461bcd60e51b81526004016113d9906151ee565b6001601f6000828254611d8391906151db565b6008546001600160a01b03163314806125c55750600a546001600160a01b031633145b806125da57506009546001600160a01b031633145b6125f65760405162461bcd60e51b81526004016113d9906151ee565b60009283526024602090815260408085206001600160a01b039094168552929052912055565b60008061273d6006805461262f906152c2565b80601f016020809104026020016040519081016040528092919081815260200182805461265b906152c2565b80156126a85780601f1061267d576101008083540402835291602001916126a8565b820191906000526020600020905b81548152906001019060200180831161268b57829003601f168201915b5050505050600780546126ba906152c2565b80601f01602080910402602001604051908101604052809291908181526020018280546126e6906152c2565b80156127335780601f1061270857610100808354040283529160200191612733565b820191906000526020600020905b81548152906001019060200180831161271657829003601f168201915b50505050506114e3565b90506000612755600b543063f14bea2060e01b613e3f565b60408051808201909152600381526219d95d60ea1b602082015290915061277e90829084613e5b565b6127d960405180604001604052806005815260200164706174683160d81b81525060405180604001604052806011815260200170726573756c74732c61646472657373657360781b81525083613e5b9092919063ffffffff16565b612837604051806040016040528060058152602001643830ba341960d91b81525060405180604001604052806014815260200173726573756c74732c6d61726b657453686172657360601b81525083613e5b9092919063ffffffff16565b61285561284c6003546001600160a01b031690565b82600c54613e79565b9250505090565b6008546001600160a01b031633148061287f5750600a546001600160a01b031633145b8061289457506009546001600160a01b031633145b6128b05760405162461bcd60e51b81526004016113d9906151ee565b600091825260306020526040909120805460ff1916911515919091179055565b6008546001600160a01b03163314806128f35750600a546001600160a01b031633145b8061290857506009546001600160a01b031633145b6129245760405162461bcd60e51b81526004016113d9906151ee565b600091825260356020908152604090922081518155910151600190910155565b6009546001600160a01b0316331461299e5760405162461bcd60e51b815260206004820152601f60248201527f63616c6c6572206d75737420626520666163746f72792062616c616e6365720060448201526064016113d9565b600e54600f5560005b600e54811015612a0a576000818152601060209081526040808320546011835281842080546001600160a01b0319166001600160a01b039092169182179055835260168252808320546015835281842055601490915290208190556001016129a7565b50565b6008546001600160a01b0316331480612a305750600a546001600160a01b031633145b80612a4557506009546001600160a01b031633145b612a615760405162461bcd60e51b81526004016113d9906151ee565b600091825260316020526040909120805460ff1916911515919091179055565b6008546001600160a01b0316331480612aa45750600a546001600160a01b031633145b80612ab957506009546001600160a01b031633145b612ad55760405162461bcd60e51b81526004016113d9906151ee565b6000918252602c602052604090912055565b6008546001600160a01b0316331480612b0a5750600a546001600160a01b031633145b80612b1f57506009546001600160a01b031633145b612b3b5760405162461bcd60e51b81526004016113d9906151ee565b6000928352602a602090815260408085206001600160a01b039094168552929052912055565b6001600160a01b038181166000908152601260205260408082205460195491516370a0823160e01b8152918416600483015291929190911690829082906370a0823190602401602060405180830381865afa158015612bc4573d6000803e3d6000fd5b505050506040513d601f19601f82011682018060405250810190612be891906152f6565b60405163266d6a8360e11b8152600481018290529091506001600160a01b03831690634cdad50690602401602060405180830381865afa158015612c30573d6000803e3d6000fd5b505050506040513d601f19601f8201168201806040525081019061243f91906152f6565b612c5c613ce1565b6006612c68838261541e565b506007611ed9828261541e565b612c7d613ce1565b612c878282613f0c565b5050565b6000805b600f548110156114da57600081815260116020908152604080832054868452602683528184206001600160a01b0391821680865293529281902054601a5491516322fd455760e11b81526004810182905292939092600192909116906345fa8aae90602401602060405180830381865afa158015612d11573d6000803e3d6000fd5b505050506040513d601f19601f82011682018060405250810190612d359190615223565b6003811115612d4657612d46614b3a565b60ff1603612d5957506001949350505050565b5050600101612c8f565b612d6b6147e1565b60408051610140810182526001600160401b03421681523060208201526018546001600160a01b0390811692820192909252601b549091166060820152821515608082015260a081016000815260200183612dc7576000612dd2565b68056bc75e2d631000005b68ffffffffffffffffff16815260200183612df65768056bc75e2d63100000612df9565b60005b68ffffffffffffffffff168152600060208201526040016001905292915050565b612e22613ce1565b8051825114612e6b5760405162461bcd60e51b8152602060048201526015602482015274082e4e4c2f240d8cadccee8d040dad2e6dac2e8c6d605b1b60448201526064016113d9565b60005b8251811015611ed957818181518110612e8957612e896152ac565b602002602001015160126000858481518110612ea757612ea76152ac565b6020908102919091018101516001600160a01b0390811683529082019290925260400160002080546001600160a01b03191692909116919091179055600101612e6e565b60008060005b600f548110156117c157600081815260116020908152604080832054878452602783528184206001600160a01b03918216808652935281842054601a54925163187b2ed160e21b815260048101829052939490939092909116906361ecbb4490602401602060405180830381865afa158015612f71573d6000803e3d6000fd5b505050506040513d601f19601f82011682018060405250810190612f9591906152f6565b601a546040516322fd455760e11b8152600481018590529192506003916001600160a01b03909116906345fa8aae90602401602060405180830381865afa158015612fe4573d6000803e3d6000fd5b505050506040513d601f19601f820116820180604052508101906130089190615223565b600381111561301957613019614b3a565b60ff16148015613027575080155b1561303e576130376001866151db565b9450613185565b601a546040516322fd455760e11b8152600481018490526002916001600160a01b0316906345fa8aae90602401602060405180830381865afa158015613088573d6000803e3d6000fd5b505050506040513d601f19601f820116820180604052508101906130ac9190615223565b60038111156130bd576130bd614b3a565b60ff161480156130cb575080155b156131855760008781526025602090815260408083206001600160a01b03878116855292529182902054601a5492516322fd455760e11b815260048101829052909260029216906345fa8aae90602401602060405180830381865afa158015613138573d6000803e3d6000fd5b505050506040513d601f19601f8201168201806040525081019061315c9190615223565b600381111561316d5761316d614b3a565b60ff1603613183576131806001876151db565b95505b505b505050600101612ef1565b60008060005b600f548110156117d4576000818152601160205260408120546131c1906001600160a01b0316613a9c565b90506131cd81846151db565b925050600101613196565b60006131e2613ce1565b6001600160a01b0382166132385760405162461bcd60e51b815260206004820152601d60248201527f696e76616c6964206f72646572206d616e61676572206164647265737300000060448201526064016113d9565b50601c80546001600160a01b0383166001600160a01b03199091161790556001919050565b6008546001600160a01b03163314806132805750600a546001600160a01b031633145b8061329557506009546001600160a01b031633145b6132b15760405162461bcd60e51b81526004016113d9906151ee565b60009182526034602052604090912055565b6000806132ce613190565b90506000601860009054906101000a90046001600160a01b03166001600160a01b03166318160ddd6040518163ffffffff1660e01b8152600401602060405180830381865afa158015613325573d6000803e3d6000fd5b505050506040513d601f19601f8201168201806040525081019061334991906152f6565b905060008261335883876154dd565b61137c9190615298565b6008546001600160a01b03163314806133855750600a546001600160a01b031633145b8061339a57506009546001600160a01b031633145b6133b65760405162461bcd60e51b81526004016113d9906151ee565b600091825260216020526040909120805460ff1916911515919091179055565b6008546001600160a01b03163314806133f95750600a546001600160a01b031633145b8061340e57506009546001600160a01b031633145b61342a5760405162461bcd60e51b81526004016113d9906151ee565b60009182526028602052604090912055565b6008546001600160a01b031633148061345f5750600a546001600160a01b031633145b8061347457506009546001600160a01b031633145b6134905760405162461bcd60e51b81526004016113d9906151ee565b6000918252602f602052604090912080546001600160a01b0319166001600160a01b03909216919091179055565b7ff0c57e16840df040f15088dc2f81fe391c3923bec73e23a9662efc9c229c6a008054600160401b810460ff1615906001600160401b03166000811580156135035750825b90506000826001600160401b0316600114801561351f5750303b155b90508115801561352d575080155b1561354b5760405163f92ee8a960e01b815260040160405180910390fd5b845467ffffffffffffffff19166001178555831561357557845460ff60401b1916600160401b1785555b8d601a60006101000a8154816001600160a01b0302191690836001600160a01b031602179055508c601860006101000a8154816001600160a01b0302191690836001600160a01b031602179055508b601960006101000a8154816001600160a01b0302191690836001600160a01b031602179055508a601b60006101000a8154816001600160a01b0302191690836001600160a01b0316021790555089601b60146101000a81548160ff021916908360ff1602179055506136353361412d565b600280546001600160a01b0319166001600160a01b038b1617905561365988613d6c565b600b879055600a613673670de0b6b3a764000060016154dd565b61367d9190615298565b600c556040805160608101909152602a8082526156ee60208301396006906136a5908261541e565b506040518060600160405280602e8152602001615718602e91396007906136cc908261541e565b50601c805461ffff60a01b1916600160a01b8815150260ff60a81b191617600560a91b179055831561373857845460ff60401b19168555604051600181527fc7f505b2f371ae2175ee4913f4499e1f2633a7b5936321eed1cdaeb6115181d29060200160405180910390a15b5050505050505050505050505050565b613750613ce1565b600980546001600160a01b0319166001600160a01b0392909216919091179055565b6008546001600160a01b03163314806137955750600a546001600160a01b031633145b806137aa57506009546001600160a01b031633145b6137c65760405162461bcd60e51b81526004016113d9906151ee565b6000918252602e602052604090912080546001600160a01b0319166001600160a01b03909216919091179055565b60008060005b600f54811015613904576000818152601160209081526040808320546001600160a01b0316808452601590925282205490919068056bc75e2d631000009061384290886154dd565b61384c9190615298565b601a54601b546040516308da5c3560e21b81526000600482018190526001600160a01b0392831660248301529394508392919091169063236970d4906044016040805180830381865afa1580156138a7573d6000803e3d6000fd5b505050506040513d601f19601f820116820180604052508101906138cb9190615198565b9150915060006138db8285613d3c565b6138e590846151db565b90506138f181886151db565b965050600190940193506137fa92505050565b5092915050565b600080613916613190565b90506000601860009054906101000a90046001600160a01b03166001600160a01b03166318160ddd6040518163ffffffff1660e01b8152600401602060405180830381865afa15801561396d573d6000803e3d6000fd5b505050506040513d601f19601f8201168201806040525081019061399191906152f6565b905060008161335884876154dd565b60078054611f15906152c2565b6008546001600160a01b03163314806139d05750600a546001600160a01b031633145b806139e557506009546001600160a01b031633145b613a015760405162461bcd60e51b81526004016113d9906151ee565b60009182526033602052604090912055565b6000613a1d613ce1565b6001600160a01b038316613a6b5760405162461bcd60e51b8152602060048201526015602482015274696e76616c696420746f6b656e206164647265737360581b60448201526064016113d9565b50601b805460ff8316600160a01b026001600160a81b03199091166001600160a01b03851617179055600192915050565b600080613aa8836122a0565b90506000613ab584612b61565b9050670de0b6b3a7640000613aca83836154dd565b61243f9190615298565b60008381526005602052604090205483906001600160a01b03163314613b4d5760405162461bcd60e51b815260206004820152602860248201527f536f75726365206d75737420626520746865206f7261636c65206f6620746865604482015267081c995c5d595cdd60c21b60648201526084016113d9565b60008181526005602052604080822080546001600160a01b03191690555182917f7cc135e0cebb02c3480ae5d74d377283180a2601f8f644edf7987b009316c63a91a2613b9a8383613f0c565b50505050565b613ba86147e1565b60008281526032602090815260409182902082516101408101845281546001600160401b03811682526001600160a01b03600160401b9091048116938201939093526001808301548416948201949094526002820154928316606082015260ff600160a01b84048116151560808301529093919260a0850192600160a81b90910490911690811115613c3c57613c3c614b3a565b6001811115613c4d57613c4d614b3a565b815260038281015460208301526004830154604083015260058301546060830152600683015460809092019160ff1690811115613c8c57613c8c614b3a565b6003811115613c9d57613c9d614b3a565b90525092915050565b613cae613ce1565b6001600160a01b038116613cd857604051631e4fbdf760e01b8152600060048201526024016113d9565b612a0a81613dce565b33613d137f9016d09d72d40fdae2fd8ceac6b6234c7706214fd39c1cd1e609a0528c199300546001600160a01b031690565b6001600160a01b0316146125395760405163118cdaa760e01b81523360048201526024016113d9565b60008262ffffff16600003613d52576000613d65565b613d658262ffffff8516620f424061413e565b9392505050565b600380546001600160a01b0319166001600160a01b0392909216919091179055565b60008260ff168260ff161115613dc457613da883836154f4565b613db390600a6155f1565b613dbd9085615600565b9050613d65565b613da882846154f4565b7f9016d09d72d40fdae2fd8ceac6b6234c7706214fd39c1cd1e609a0528c19930080546001600160a01b031981166001600160a01b03848116918217845560405192169182907f8be0079c531659141344cd1fd0a4f28419497f9722a3daafe3b4186f6b6457e090600090a3505050565b613e47614844565b613e4f614844565b61137c81868686614212565b6080830151613e6a908361424f565b6080830151611ed9908261424f565b600454600090613e8a8160016151db565b600455835160408086015160808701515191516000936320214ca360e11b93613ec29386938493923092918a91600191602401615630565b60408051601f198184030181529190526020810180516001600160e01b03166001600160e01b0319909316929092179091529050613f0286838684614266565b9695505050505050565b818160005b825181101561410d57828181518110613f2c57613f2c6152ac565b60200260200101516010600083815260200190815260200160002060006101000a8154816001600160a01b0302191690836001600160a01b031602179055508060136000858481518110613f8257613f826152ac565b60200260200101516001600160a01b03166001600160a01b0316815260200190815260200160002081905550818181518110613fc057613fc06152ac565b602002602001015160166000858481518110613fde57613fde6152ac565b60200260200101516001600160a01b03166001600160a01b0316815260200190815260200160002081905550600f5460000361410557828181518110614026576140266152ac565b60200260200101516011600083815260200190815260200160002060006101000a8154816001600160a01b0302191690836001600160a01b03160217905550818181518110614077576140776152ac565b602002602001015160156000858481518110614095576140956152ac565b60200260200101516001600160a01b03166001600160a01b031681526020019081526020016000208190555080601460008584815181106140d8576140d86152ac565b60200260200101516001600160a01b03166001600160a01b03168152602001908152602001600020819055505b600101613f11565b508151600e55600f54600003614123578151600f555b505042600d555050565b6141356143c4565b612a0a8161440d565b60008080600019858709858702925082811083820303915050806000036141785783828161416e5761416e615282565b0492505050613d65565b8381106141a957604051630c740aef60e31b81526004810187905260248101869052604481018590526064016113d9565b60008486880960026001871981018816978890046003810283188082028403028082028403028082028403028082028403028082028403029081029092039091026000889003889004909101858311909403939093029303949094049190911702949350505050565b61421a614844565b61422a8560800151610100614415565b50509183526001600160a01b031660208301526001600160e01b031916604082015290565b61425c826003835161447a565b611ed98282614581565b6040516bffffffffffffffffffffffff193060601b1660208201526034810184905260009060540160408051808303601f1901815282825280516020918201206000818152600590925291812080546001600160a01b0319166001600160a01b038a1617905590925082917fb5e6e01e79f91267dc17b4e6314d5d4d03593d2ceee0fbb452b750bd70ea5af99190a2600254604051630200057560e51b81526001600160a01b0390911690634000aea09061432990889087908790600401615689565b6020604051808303816000875af1158015614348573d6000803e3d6000fd5b505050506040513d601f19601f8201168201806040525081019061436c91906156b0565b61243f5760405162461bcd60e51b815260206004820152602360248201527f756e61626c6520746f207472616e73666572416e6443616c6c20746f206f7261604482015262636c6560e81b60648201526084016113d9565b7ff0c57e16840df040f15088dc2f81fe391c3923bec73e23a9662efc9c229c6a0054600160401b900460ff1661253957604051631afcd79f60e31b815260040160405180910390fd5b613cae6143c4565b6040805180820190915260608152600060208201526144356020836156cd565b1561445d576144456020836156cd565b61445090602061526f565b61445a90836151db565b91505b506020828101829052604080518085526000815290920101905290565b6017816001600160401b03161161449e57613b9a8360e0600585901b1683176145a8565b60ff816001600160401b0316116144da576144c4836018611fe0600586901b16176145a8565b50613b9a836001600160401b03831660016145cd565b61ffff816001600160401b03161161451757614501836019611fe0600586901b16176145a8565b50613b9a836001600160401b03831660026145cd565b63ffffffff816001600160401b0316116145565761454083601a611fe0600586901b16176145a8565b50613b9a836001600160401b03831660046145cd565b61456b83601b611fe0600586901b16176145a8565b50613b9a836001600160401b03831660086145cd565b604080518082019091526060815260006020820152613d65838460000151518485516145f3565b604080518082019091526060815260006020820152613d6583846000015151846146dd565b60408051808201909152606081526000602082015261243f848560000151518585614738565b604080518082019091526060815260006020820152825182111561461657600080fd5b602085015161462583866151db565b111561465857614658856146488760200151878661464391906151db565b6147b9565b6146539060026154dd565b6147ca565b6000808651805187602083010193508088870111156146775787860182525b505050602084015b602084106146b757805182526146966020836151db565b91506146a36020826151db565b90506146b060208561526f565b935061467f565b51815160001960208690036101000a019081169019919091161790525083949350505050565b6040805180820190915260608152600060208201528360200151831061471257614712848560200151600261465391906154dd565b835180516020858301018481535080850361472e576001810182525b5093949350505050565b604080518082019091526060815260006020820152602085015161475c85846151db565b1115614770576147708561464886856151db565b60006001614780846101006156e1565b61478a919061526f565b90508551838682010185831982511617815250805184870111156147ae5783860181525b509495945050505050565b6000818311156117d457508161150a565b81516147d68383614415565b50613b9a8382614581565b604080516101408101825260008082526020820181905291810182905260608101829052608081018290529060a082019081526020016000815260200160008152602001600081526020016000600381111561483f5761483f614b3a565b905290565b6040805160a0810182526000808252602080830182905282840182905260608084018390528451808601909552845283015290608082015290565b80356001600160a01b038116811461185157600080fd5b600080604083850312156148a957600080fd5b823591506148b96020840161487f565b90509250929050565b6000602082840312156148d457600080fd5b613d658261487f565b6000602082840312156148ef57600080fd5b5035919050565b8015158114612a0a57600080fd5b8035611851816148f6565b6000806040838503121561492257600080fd5b823591506020830135614934816148f6565b809150509250929050565b634e487b7160e01b600052604160045260246000fd5b60405161014081016001600160401b03811182821017156149785761497861493f565b60405290565b604080519081016001600160401b03811182821017156149785761497861493f565b604051601f8201601f191681016001600160401b03811182821017156149c8576149c861493f565b604052919050565b600082601f8301126149e157600080fd5b81356001600160401b038111156149fa576149fa61493f565b614a0d601f8201601f19166020016149a0565b818152846020838601011115614a2257600080fd5b816020850160208301376000918101602001919091529392505050565b60008060408385031215614a5257600080fd5b82356001600160401b0380821115614a6957600080fd5b614a75868387016149d0565b93506020850135915080821115614a8b57600080fd5b50614a98858286016149d0565b9150509250929050565b60005b83811015614abd578181015183820152602001614aa5565b50506000910152565b60008151808452614ade816020860160208601614aa2565b601f01601f19169290920160200192915050565b602081526000613d656020830184614ac6565b600080600060608486031215614b1a57600080fd5b83359250614b2a6020850161487f565b9150604084013590509250925092565b634e487b7160e01b600052602160045260246000fd5b60028110614b6057614b60614b3a565b9052565b60048110614b6057614b60614b3a565b6001600160401b038b1681526001600160a01b038a8116602083015289811660408301528816606082015286151560808201526101408101614bb960a0830188614b50565b8560c08301528460e083015283610100830152614bda610120830184614b64565b9b9a5050505050505050505050565b60008060408385031215614bfc57600080fd5b50508035926020909101359150565b60ff81168114612a0a57600080fd5b600060208284031215614c2c57600080fd5b8135613d6581614c0b565b6001600160401b0381168114612a0a57600080fd5b803561185181614c37565b80356002811061185157600080fd5b60048110612a0a57600080fd5b803561185181614c66565b600080828403610160811215614c9357600080fd5b8335925061014080601f1983011215614cab57600080fd5b614cb3614955565b9150614cc160208601614c4c565b8252614ccf6040860161487f565b6020830152614ce06060860161487f565b6040830152614cf16080860161487f565b6060830152614d0260a08601614904565b6080830152614d1360c08601614c57565b60a083015260e085013560c08301526101008086013560e08401526101208087013582850152614d44838801614c73565b9084015250929590945092505050565b60008060408385031215614d6757600080fd5b614d708361487f565b946020939093013593505050565b60006001600160401b03821115614d9757614d9761493f565b5060051b60200190565b600082601f830112614db257600080fd5b81356020614dc7614dc283614d7e565b6149a0565b8083825260208201915060208460051b870101935086841115614de957600080fd5b602086015b84811015614e0c57614dff8161487f565b8352918301918301614dee565b509695505050505050565b60008060408385031215614e2a57600080fd5b82356001600160401b0380821115614e4157600080fd5b614e4d86838701614da1565b93506020850135915080821115614e6357600080fd5b50614a9885828601614da1565b6000808284036060811215614e8457600080fd5b833592506040601f1982011215614e9a57600080fd5b50614ea361497e565b6020840135815260408401356020820152809150509250929050565b600082601f830112614ed057600080fd5b81356020614ee0614dc283614d7e565b8083825260208201915060208460051b870101935086841115614f0257600080fd5b602086015b84811015614e0c5780358352918301918301614f07565b60008060408385031215614f3157600080fd5b82356001600160401b0380821115614f4857600080fd5b614f5486838701614da1565b93506020850135915080821115614f6a57600080fd5b50614a9885828601614ebf565b600060208284031215614f8957600080fd5b8135613d65816148f6565b81516001600160401b0316815261014081016020830151614fc060208401826001600160a01b03169052565b506040830151614fdb60408401826001600160a01b03169052565b506060830151614ff660608401826001600160a01b03169052565b50608083015161500a608084018215159052565b5060a083015161501d60a0840182614b50565b5060c083015160c083015260e083015160e08301526101008084015181840152506101208084015161505182850182614b64565b505092915050565b60008060008060008060008060006101208a8c03121561507857600080fd5b6150818a61487f565b985061508f60208b0161487f565b975061509d60408b0161487f565b96506150ab60608b0161487f565b955060808a01356150bb81614c0b565b94506150c960a08b0161487f565b93506150d760c08b0161487f565b925060e08a013591506101008a01356150ef816148f6565b809150509295985092959850929598565b6000806040838503121561511357600080fd5b61511c8361487f565b9150602083013561493481614c0b565b60008060006060848603121561514157600080fd5b8335925060208401356001600160401b038082111561515f57600080fd5b61516b87838801614da1565b9350604086013591508082111561518157600080fd5b5061518e86828701614ebf565b9150509250925092565b600080604083850312156151ab57600080fd5b82519150602083015162ffffff8116811461493457600080fd5b634e487b7160e01b600052601160045260246000fd5b8082018082111561150a5761150a6151c5565b6020808252818101527f43616c6c6572206973206e6f74206120666163746f727920636f6e7472616374604082015260600190565b60006020828403121561523557600080fd5b8151613d6581614c66565b60008351615252818460208801614aa2565b835190830190615266818360208801614aa2565b01949350505050565b8181038181111561150a5761150a6151c5565b634e487b7160e01b600052601260045260246000fd5b6000826152a7576152a7615282565b500490565b634e487b7160e01b600052603260045260246000fd5b600181811c908216806152d657607f821691505b6020821081036117d457634e487b7160e01b600052602260045260246000fd5b60006020828403121561530857600080fd5b5051919050565b805169ffffffffffffffffffff8116811461185157600080fd5b600080600080600060a0868803121561534157600080fd5b61534a8661530f565b945060208601519350604086015192506060860151915061536d6080870161530f565b90509295509295909350565b60006020828403121561538b57600080fd5b8151613d6581614c0b565b6000604082840312156153a857600080fd5b6153b061497e565b8251815260208301516153c281614c37565b60208201529392505050565b601f821115611ed9576000816000526020600020601f850160051c810160208610156153f75750805b601f850160051c820191505b8181101561541657828155600101615403565b505050505050565b81516001600160401b038111156154375761543761493f565b61544b8161544584546152c2565b846153ce565b602080601f83116001811461548057600084156154685750858301515b600019600386901b1c1916600185901b178555615416565b600085815260208120601f198616915b828110156154af57888601518255948401946001909101908401615490565b50858210156154cd5787850151600019600388901b60f8161c191681555b5050505050600190811b01905550565b808202811582820484141761150a5761150a6151c5565b60ff828116828216039081111561150a5761150a6151c5565b600181815b8085111561554857816000190482111561552e5761552e6151c5565b8085161561553b57918102915b93841c9390800290615512565b509250929050565b60008261555f5750600161150a565b8161556c5750600061150a565b8160018114615582576002811461558c576155a8565b600191505061150a565b60ff84111561559d5761559d6151c5565b50506001821b61150a565b5060208310610133831016604e8410600b84101617156155cb575081810a61150a565b6155d5838361550d565b80600019048211156155e9576155e96151c5565b029392505050565b6000613d6560ff841683615550565b80820260008212600160ff1b8414161561561c5761561c6151c5565b818105831482151761150a5761150a6151c5565b6001600160a01b0389811682526020820189905260408201889052861660608201526001600160e01b03198516608082015260a0810184905260c0810183905261010060e08201819052600090614bda83820185614ac6565b60018060a01b038416815282602082015260606040820152600061137c6060830184614ac6565b6000602082840312156156c257600080fd5b8151613d65816148f6565b6000826156dc576156dc615282565b500690565b6000613d65838361555056fe68747470733a2f2f6170702e6e65786c6162732e696f2f6170692f616c6c46756e64696e6752617465733f6d756c7469706c7946756e633d31382674696d65734e656746756e643d74727565266172726179733d74727565a2646970667358221220a549c14dc55c91496f4c3161276147417117bb35e8f0cf39bc59c28d8420fdc664736f6c63430008190033","linkReferences":{}},"methodIdentifiers":{"actionInfoById(uint256)":"3c1f70ca","baseUrl()":"5bcabf04","burnedTokenAmountByNonce(uint256)":"ab7820b2","buyRequestPayedAmountById(uint256)":"8861d235","calculateBuyRequestFee(uint256)":"06995e3b","calculateIssuanceFee(uint256)":"e19eefbe","cancelIssuanceComplted(uint256)":"7bfa27f2","cancelIssuanceRequestId(uint256,address)":"02e80f71","cancelIssuanceUnfilledAmount(uint256,address)":"9edcf9f4","cancelRedemptionComplted(uint256)":"b46840f9","cancelRedemptionRequestId(uint256,address)":"8c221899","cancelRedemptionUnfilledAmount(uint256,address)":"632439fd","checkCancelIssuanceStatus(uint256)":"631c8385","checkCancelRedemptionStatus(uint256)":"b592662a","checkIssuanceOrdersStatus(uint256)":"2343acb4","checkRedemptionOrdersStatus(uint256)":"3fac0922","concatenation(string,string)":"0e329357","currentList(uint256)":"9932ba4c","externalJobId()":"a8b54bd4","factoryAddress()":"966dae0e","factoryBalancerAddress()":"cb4d4e09","factoryProcessorAddress()":"0acb8d40","feeRate()":"978bbdb9","fulfillAssetsData(bytes32,address[],uint256[])":"f14bea20","getActionInfoById(uint256)":"147726ae","getIssuanceAmountOut(uint256)":"c8da3303","getOrderInstanceById(uint256)":"f1f31d66","getPortfolioValue()":"bb0498de","getPrimaryOrder(bool)":"b12279aa","getRedemptionAmountOut(uint256)":"e2851bd6","getVaultDshareBalance(address)":"a08d7bd6","getVaultDshareValue(address)":"efdf5053","increaseIssuanceNonce()":"5501c6cf","increaseRedemptionNonce()":"7851b905","initialize(address,address,address,address,uint8,address,address,bytes32,bool)":"d57e0493","isIssuanceOrderActive(uint256)":"b0e12134","isMainnet()":"42faac05","isRedemptionOrderActive(uint256)":"0b1a4918","issuanceIndexTokenPrimaryTotalSupply(uint256)":"b1dd819e","issuanceInputAmount(uint256)":"cf9ee319","issuanceIsCompleted(uint256)":"a84ebc17","issuanceNonce()":"9dbb9c9e","issuanceRequestId(uint256,address)":"264fa8b9","issuanceRequesterByNonce(uint256)":"94674098","issuanceTokenPrimaryBalance(uint256,address)":"da65925a","issuer()":"1d143848","lastUpdateTime()":"c8f33c91","latestFeeUpdate()":"011ced5f","latestPriceDecimals()":"0b1fa733","mockFillAssetsList(address[],uint256[])":"addc70d1","oracleList(uint256)":"239aad0d","oraclePayment()":"0c02e130","orderInstanceById(uint256)":"15e666a2","orderManager()":"f9b6117f","owner()":"8da5cb5b","priceFeedByTokenAddress(address)":"08dc4b0c","priceInWei(address)":"6839a095","redemptionIndexTokenPrimaryTotalSupply(uint256)":"daf1c17d","redemptionInputAmount(uint256)":"9cf54521","redemptionIsCompleted(uint256)":"76529fdf","redemptionNonce()":"84d77bb1","redemptionRequestId(uint256,address)":"f513a718","redemptionRequesterByNonce(uint256)":"78032658","redemptionTokenPrimaryBalance(uint256,address)":"a363b9cb","renounceOwnership()":"715018a6","requestAssetsData()":"7ca58c55","sellRequestAssetAmountById(uint256)":"a87f98d2","setActionInfoById(uint256,(uint256,uint256))":"8182492a","setBurnedTokenAmountByNonce(uint256,uint256)":"6188199f","setBuyRequestPayedAmountById(uint256,uint256)":"d1e4a308","setCancelIssuanceComplted(uint256,bool)":"7cd375e2","setCancelIssuanceRequestId(uint256,address,uint256)":"7a6c4b7b","setCancelIssuanceUnfilledAmount(uint256,address,uint256)":"12b6d2e6","setCancelRedemptionComplted(uint256,bool)":"8e97d7e1","setCancelRedemptionRequestId(uint256,address,uint256)":"457e0e0f","setCancelRedemptionUnfilledAmount(uint256,address,uint256)":"6ea86556","setFactory(address)":"5bb47808","setFactoryBalancer(address)":"d5fbea63","setFactoryProcessor(address)":"0499a61d","setFeeRate(uint8)":"5177942a","setIssuanceIndexTokenPrimaryTotalSupply(uint256,uint256)":"99f68da8","setIssuanceInputAmount(uint256,uint256)":"ea5142c8","setIssuanceIsCompleted(uint256,bool)":"d1c0cee6","setIssuanceRequestId(uint256,address,uint256)":"496304a4","setIssuanceRequesterByNonce(uint256,address)":"df1d5ea2","setIssuanceTokenPrimaryBalance(uint256,address,uint256)":"9b2d6e3b","setIssuer(address)":"55cc4e57","setLatestPriceDecimals(uint8)":"32502639","setOracleInfo(address,bytes32)":"43482fc8","setOrderInstanceById(uint256,(uint64,address,address,address,bool,uint8,uint256,uint256,uint256,uint8))":"35c51204","setOrderManager(address)":"c0da840d","setPriceFeedAddresses(address[],address[])":"57b61bc3","setRedemptionIndexTokenPrimaryTotalSupply(uint256,uint256)":"6ea495df","setRedemptionInputAmount(uint256,uint256)":"c7003d1b","setRedemptionIsCompleted(uint256,bool)":"0a1d4270","setRedemptionRequestId(uint256,address,uint256)":"1c7a2959","setRedemptionRequesterByNonce(uint256,address)":"d34ed2ab","setRedemptionTokenPrimaryBalance(uint256,address,uint256)":"21de914f","setSellRequestAssetAmountById(uint256,uint256)":"1e2ad86e","setTokenAddress(address)":"26a4e8d2","setUrl(string,string)":"a73e1cbf","setUsdcAddress(address,uint8)":"eab2a711","setWrappedDShareAddresses(address[],address[])":"b411dc41","token()":"fc0c546a","tokenCurrentListIndex(address)":"914f0cc6","tokenCurrentMarketShare(address)":"0be52713","tokenOracleListIndex(address)":"8c88c10c","tokenOracleMarketShare(address)":"4b3e0b80","totalCurrentList()":"53fd4332","totalOracleList()":"c8599ded","transferOwnership(address)":"f2fde38b","updateCurrentList()":"8baa6bf1","urlParams()":"e789598c","usdc()":"3e413bee","usdcDecimals()":"7bf42165","vault()":"fbfa77cf","wrappedDshareAddress(address)":"092755e0"},"id":19}