{"abi":[{"type":"function","name":"actionInfoById","inputs":[{"name":"","type":"uint256","internalType":"uint256"}],"outputs":[{"name":"actionType","type":"uint256","internalType":"uint256"},{"name":"nonce","type":"uint256","internalType":"uint256"}],"stateMutability":"view"},{"type":"function","name":"baseUrl","inputs":[],"outputs":[{"name":"","type":"string","internalType":"string"}],"stateMutability":"view"},{"type":"function","name":"burnedTokenAmountByNonce","inputs":[{"name":"","type":"uint256","internalType":"uint256"}],"outputs":[{"name":"","type":"uint256","internalType":"uint256"}],"stateMutability":"view"},{"type":"function","name":"buyRequestPayedAmountById","inputs":[{"name":"","type":"uint256","internalType":"uint256"}],"outputs":[{"name":"","type":"uint256","internalType":"uint256"}],"stateMutability":"view"},{"type":"function","name":"calculateBuyRequestFee","inputs":[{"name":"_amount","type":"uint256","internalType":"uint256"}],"outputs":[{"name":"","type":"uint256","internalType":"uint256"}],"stateMutability":"view"},{"type":"function","name":"calculateIssuanceFee","inputs":[{"name":"_inputAmount","type":"uint256","internalType":"uint256"}],"outputs":[{"name":"","type":"uint256","internalType":"uint256"}],"stateMutability":"view"},{"type":"function","name":"cancelIssuanceComplted","inputs":[{"name":"","type":"uint256","internalType":"uint256"}],"outputs":[{"name":"","type":"bool","internalType":"bool"}],"stateMutability":"view"},{"type":"function","name":"cancelIssuanceRequestId","inputs":[{"name":"","type":"uint256","internalType":"uint256"},{"name":"","type":"address","internalType":"address"}],"outputs":[{"name":"","type":"uint256","internalType":"uint256"}],"stateMutability":"view"},{"type":"function","name":"cancelIssuanceUnfilledAmount","inputs":[{"name":"","type":"uint256","internalType":"uint256"},{"name":"","type":"address","internalType":"address"}],"outputs":[{"name":"","type":"uint256","internalType":"uint256"}],"stateMutability":"view"},{"type":"function","name":"cancelRedemptionComplted","inputs":[{"name":"","type":"uint256","internalType":"uint256"}],"outputs":[{"name":"","type":"bool","internalType":"bool"}],"stateMutability":"view"},{"type":"function","name":"cancelRedemptionRequestId","inputs":[{"name":"","type":"uint256","internalType":"uint256"},{"name":"","type":"address","internalType":"address"}],"outputs":[{"name":"","type":"uint256","internalType":"uint256"}],"stateMutability":"view"},{"type":"function","name":"cancelRedemptionUnfilledAmount","inputs":[{"name":"","type":"uint256","internalType":"uint256"},{"name":"","type":"address","internalType":"address"}],"outputs":[{"name":"","type":"uint256","internalType":"uint256"}],"stateMutability":"view"},{"type":"function","name":"checkCancelIssuanceStatus","inputs":[{"name":"_issuanceNonce","type":"uint256","internalType":"uint256"}],"outputs":[{"name":"","type":"bool","internalType":"bool"}],"stateMutability":"view"},{"type":"function","name":"checkCancelRedemptionStatus","inputs":[{"name":"_redemptionNonce","type":"uint256","internalType":"uint256"}],"outputs":[{"name":"","type":"bool","internalType":"bool"}],"stateMutability":"view"},{"type":"function","name":"checkIssuanceOrdersStatus","inputs":[{"name":"_issuanceNonce","type":"uint256","internalType":"uint256"}],"outputs":[{"name":"","type":"bool","internalType":"bool"}],"stateMutability":"view"},{"type":"function","name":"checkRedemptionOrdersStatus","inputs":[{"name":"_redemptionNonce","type":"uint256","internalType":"uint256"}],"outputs":[{"name":"","type":"bool","internalType":"bool"}],"stateMutability":"view"},{"type":"function","name":"concatenation","inputs":[{"name":"a","type":"string","internalType":"string"},{"name":"b","type":"string","internalType":"string"}],"outputs":[{"name":"","type":"string","internalType":"string"}],"stateMutability":"pure"},{"type":"function","name":"currentList","inputs":[{"name":"","type":"uint256","internalType":"uint256"}],"outputs":[{"name":"","type":"address","internalType":"address"}],"stateMutability":"view"},{"type":"function","name":"externalJobId","inputs":[],"outputs":[{"name":"","type":"bytes32","internalType":"bytes32"}],"stateMutability":"view"},{"type":"function","name":"factoryAddress","inputs":[],"outputs":[{"name":"","type":"address","internalType":"address"}],"stateMutability":"view"},{"type":"function","name":"factoryBalancerAddress","inputs":[],"outputs":[{"name":"","type":"address","internalType":"address"}],"stateMutability":"view"},{"type":"function","name":"factoryProcessorAddress","inputs":[],"outputs":[{"name":"","type":"address","internalType":"address"}],"stateMutability":"view"},{"type":"function","name":"feeRate","inputs":[],"outputs":[{"name":"","type":"uint8","internalType":"uint8"}],"stateMutability":"view"},{"type":"function","name":"feeReceiver","inputs":[],"outputs":[{"name":"","type":"address","internalType":"address"}],"stateMutability":"view"},{"type":"function","name":"fulfillAssetsData","inputs":[{"name":"requestId","type":"bytes32","internalType":"bytes32"},{"name":"_tokens","type":"address[]","internalType":"address[]"},{"name":"_marketShares","type":"uint256[]","internalType":"uint256[]"}],"outputs":[],"stateMutability":"nonpayable"},{"type":"function","name":"getActionInfoById","inputs":[{"name":"_id","type":"uint256","internalType":"uint256"}],"outputs":[{"name":"","type":"tuple","internalType":"struct IndexFactoryStorage.ActionInfo","components":[{"name":"actionType","type":"uint256","internalType":"uint256"},{"name":"nonce","type":"uint256","internalType":"uint256"}]}],"stateMutability":"view"},{"type":"function","name":"getAmountAfterFee","inputs":[{"name":"percentageFeeRate","type":"uint24","internalType":"uint24"},{"name":"orderValue","type":"uint256","internalType":"uint256"}],"outputs":[{"name":"","type":"uint256","internalType":"uint256"}],"stateMutability":"pure"},{"type":"function","name":"getIssuanceAmountOut","inputs":[{"name":"_amount","type":"uint256","internalType":"uint256"}],"outputs":[{"name":"","type":"uint256","internalType":"uint256"}],"stateMutability":"view"},{"type":"function","name":"getOrderInstanceById","inputs":[{"name":"_id","type":"uint256","internalType":"uint256"}],"outputs":[{"name":"","type":"tuple","internalType":"struct IOrderProcessor.Order","components":[{"name":"requestTimestamp","type":"uint64","internalType":"uint64"},{"name":"recipient","type":"address","internalType":"address"},{"name":"assetToken","type":"address","internalType":"address"},{"name":"paymentToken","type":"address","internalType":"address"},{"name":"sell","type":"bool","internalType":"bool"},{"name":"orderType","type":"uint8","internalType":"enum IOrderProcessor.OrderType"},{"name":"assetTokenQuantity","type":"uint256","internalType":"uint256"},{"name":"paymentTokenQuantity","type":"uint256","internalType":"uint256"},{"name":"price","type":"uint256","internalType":"uint256"},{"name":"tif","type":"uint8","internalType":"enum IOrderProcessor.TIF"}]}],"stateMutability":"view"},{"type":"function","name":"getPortfolioValue","inputs":[],"outputs":[{"name":"","type":"uint256","internalType":"uint256"}],"stateMutability":"view"},{"type":"function","name":"getPrimaryOrder","inputs":[{"name":"sell","type":"bool","internalType":"bool"}],"outputs":[{"name":"","type":"tuple","internalType":"struct IOrderProcessor.Order","components":[{"name":"requestTimestamp","type":"uint64","internalType":"uint64"},{"name":"recipient","type":"address","internalType":"address"},{"name":"assetToken","type":"address","internalType":"address"},{"name":"paymentToken","type":"address","internalType":"address"},{"name":"sell","type":"bool","internalType":"bool"},{"name":"orderType","type":"uint8","internalType":"enum IOrderProcessor.OrderType"},{"name":"assetTokenQuantity","type":"uint256","internalType":"uint256"},{"name":"paymentTokenQuantity","type":"uint256","internalType":"uint256"},{"name":"price","type":"uint256","internalType":"uint256"},{"name":"tif","type":"uint8","internalType":"enum IOrderProcessor.TIF"}]}],"stateMutability":"view"},{"type":"function","name":"getRedemptionAmountOut","inputs":[{"name":"_amount","type":"uint256","internalType":"uint256"}],"outputs":[{"name":"","type":"uint256","internalType":"uint256"}],"stateMutability":"view"},{"type":"function","name":"getVaultDshareBalance","inputs":[{"name":"_token","type":"address","internalType":"address"}],"outputs":[{"name":"","type":"uint256","internalType":"uint256"}],"stateMutability":"view"},{"type":"function","name":"getVaultDshareValue","inputs":[{"name":"_token","type":"address","internalType":"address"}],"outputs":[{"name":"","type":"uint256","internalType":"uint256"}],"stateMutability":"view"},{"type":"function","name":"increaseIssuanceNonce","inputs":[],"outputs":[],"stateMutability":"nonpayable"},{"type":"function","name":"increaseRedemptionNonce","inputs":[],"outputs":[],"stateMutability":"nonpayable"},{"type":"function","name":"initialize","inputs":[{"name":"_issuer","type":"address","internalType":"address"},{"name":"_token","type":"address","internalType":"address"},{"name":"_vault","type":"address","internalType":"address"},{"name":"_usdc","type":"address","internalType":"address"},{"name":"_usdcDecimals","type":"uint8","internalType":"uint8"},{"name":"_chainlinkToken","type":"address","internalType":"address"},{"name":"_oracleAddress","type":"address","internalType":"address"},{"name":"_externalJobId","type":"bytes32","internalType":"bytes32"},{"name":"_isMainnet","type":"bool","internalType":"bool"}],"outputs":[],"stateMutability":"nonpayable"},{"type":"function","name":"isIssuanceOrderActive","inputs":[{"name":"_issuanceNonce","type":"uint256","internalType":"uint256"}],"outputs":[{"name":"","type":"bool","internalType":"bool"}],"stateMutability":"view"},{"type":"function","name":"isMainnet","inputs":[],"outputs":[{"name":"","type":"bool","internalType":"bool"}],"stateMutability":"view"},{"type":"function","name":"isRedemptionOrderActive","inputs":[{"name":"_redemptionNonce","type":"uint256","internalType":"uint256"}],"outputs":[{"name":"","type":"bool","internalType":"bool"}],"stateMutability":"view"},{"type":"function","name":"issuanceIndexTokenPrimaryTotalSupply","inputs":[{"name":"","type":"uint256","internalType":"uint256"}],"outputs":[{"name":"","type":"uint256","internalType":"uint256"}],"stateMutability":"view"},{"type":"function","name":"issuanceInputAmount","inputs":[{"name":"","type":"uint256","internalType":"uint256"}],"outputs":[{"name":"","type":"uint256","internalType":"uint256"}],"stateMutability":"view"},{"type":"function","name":"issuanceIsCompleted","inputs":[{"name":"","type":"uint256","internalType":"uint256"}],"outputs":[{"name":"","type":"bool","internalType":"bool"}],"stateMutability":"view"},{"type":"function","name":"issuanceNonce","inputs":[],"outputs":[{"name":"","type":"uint256","internalType":"uint256"}],"stateMutability":"view"},{"type":"function","name":"issuanceRequestId","inputs":[{"name":"","type":"uint256","internalType":"uint256"},{"name":"","type":"address","internalType":"address"}],"outputs":[{"name":"","type":"uint256","internalType":"uint256"}],"stateMutability":"view"},{"type":"function","name":"issuanceRequesterByNonce","inputs":[{"name":"","type":"uint256","internalType":"uint256"}],"outputs":[{"name":"","type":"address","internalType":"address"}],"stateMutability":"view"},{"type":"function","name":"issuanceTokenPrimaryBalance","inputs":[{"name":"","type":"uint256","internalType":"uint256"},{"name":"","type":"address","internalType":"address"}],"outputs":[{"name":"","type":"uint256","internalType":"uint256"}],"stateMutability":"view"},{"type":"function","name":"issuer","inputs":[],"outputs":[{"name":"","type":"address","internalType":"contract IOrderProcessor"}],"stateMutability":"view"},{"type":"function","name":"lastUpdateTime","inputs":[],"outputs":[{"name":"","type":"uint256","internalType":"uint256"}],"stateMutability":"view"},{"type":"function","name":"latestFeeUpdate","inputs":[],"outputs":[{"name":"","type":"uint256","internalType":"uint256"}],"stateMutability":"view"},{"type":"function","name":"latestPriceDecimals","inputs":[],"outputs":[{"name":"","type":"uint8","internalType":"uint8"}],"stateMutability":"view"},{"type":"function","name":"mockFillAssetsList","inputs":[{"name":"_tokens","type":"address[]","internalType":"address[]"},{"name":"_marketShares","type":"uint256[]","internalType":"uint256[]"}],"outputs":[],"stateMutability":"nonpayable"},{"type":"function","name":"oracleList","inputs":[{"name":"","type":"uint256","internalType":"uint256"}],"outputs":[{"name":"","type":"address","internalType":"address"}],"stateMutability":"view"},{"type":"function","name":"oraclePayment","inputs":[],"outputs":[{"name":"","type":"uint256","internalType":"uint256"}],"stateMutability":"view"},{"type":"function","name":"orderInstanceById","inputs":[{"name":"","type":"uint256","internalType":"uint256"}],"outputs":[{"name":"requestTimestamp","type":"uint64","internalType":"uint64"},{"name":"recipient","type":"address","internalType":"address"},{"name":"assetToken","type":"address","internalType":"address"},{"name":"paymentToken","type":"address","internalType":"address"},{"name":"sell","type":"bool","internalType":"bool"},{"name":"orderType","type":"uint8","internalType":"enum IOrderProcessor.OrderType"},{"name":"assetTokenQuantity","type":"uint256","internalType":"uint256"},{"name":"paymentTokenQuantity","type":"uint256","internalType":"uint256"},{"name":"price","type":"uint256","internalType":"uint256"},{"name":"tif","type":"uint8","internalType":"enum IOrderProcessor.TIF"}],"stateMutability":"view"},{"type":"function","name":"orderManager","inputs":[],"outputs":[{"name":"","type":"address","internalType":"contract OrderManager"}],"stateMutability":"view"},{"type":"function","name":"owner","inputs":[],"outputs":[{"name":"","type":"address","internalType":"address"}],"stateMutability":"view"},{"type":"function","name":"priceFeedByTokenAddress","inputs":[{"name":"","type":"address","internalType":"address"}],"outputs":[{"name":"","type":"address","internalType":"address"}],"stateMutability":"view"},{"type":"function","name":"priceInWei","inputs":[{"name":"_tokenAddress","type":"address","internalType":"address"}],"outputs":[{"name":"","type":"uint256","internalType":"uint256"}],"stateMutability":"view"},{"type":"function","name":"redemptionIndexTokenPrimaryTotalSupply","inputs":[{"name":"","type":"uint256","internalType":"uint256"}],"outputs":[{"name":"","type":"uint256","internalType":"uint256"}],"stateMutability":"view"},{"type":"function","name":"redemptionInputAmount","inputs":[{"name":"","type":"uint256","internalType":"uint256"}],"outputs":[{"name":"","type":"uint256","internalType":"uint256"}],"stateMutability":"view"},{"type":"function","name":"redemptionIsCompleted","inputs":[{"name":"","type":"uint256","internalType":"uint256"}],"outputs":[{"name":"","type":"bool","internalType":"bool"}],"stateMutability":"view"},{"type":"function","name":"redemptionNonce","inputs":[],"outputs":[{"name":"","type":"uint256","internalType":"uint256"}],"stateMutability":"view"},{"type":"function","name":"redemptionRequestId","inputs":[{"name":"","type":"uint256","internalType":"uint256"},{"name":"","type":"address","internalType":"address"}],"outputs":[{"name":"","type":"uint256","internalType":"uint256"}],"stateMutability":"view"},{"type":"function","name":"redemptionRequesterByNonce","inputs":[{"name":"","type":"uint256","internalType":"uint256"}],"outputs":[{"name":"","type":"address","internalType":"address"}],"stateMutability":"view"},{"type":"function","name":"redemptionTokenPrimaryBalance","inputs":[{"name":"","type":"uint256","internalType":"uint256"},{"name":"","type":"address","internalType":"address"}],"outputs":[{"name":"","type":"uint256","internalType":"uint256"}],"stateMutability":"view"},{"type":"function","name":"renounceOwnership","inputs":[],"outputs":[],"stateMutability":"nonpayable"},{"type":"function","name":"requestAssetsData","inputs":[],"outputs":[{"name":"","type":"bytes32","internalType":"bytes32"}],"stateMutability":"nonpayable"},{"type":"function","name":"sellRequestAssetAmountById","inputs":[{"name":"","type":"uint256","internalType":"uint256"}],"outputs":[{"name":"","type":"uint256","internalType":"uint256"}],"stateMutability":"view"},{"type":"function","name":"setActionInfoById","inputs":[{"name":"_requestId","type":"uint256","internalType":"uint256"},{"name":"_actionInfo","type":"tuple","internalType":"struct IndexFactoryStorage.ActionInfo","components":[{"name":"actionType","type":"uint256","internalType":"uint256"},{"name":"nonce","type":"uint256","internalType":"uint256"}]}],"outputs":[],"stateMutability":"nonpayable"},{"type":"function","name":"setBurnedTokenAmountByNonce","inputs":[{"name":"_redemptionNonce","type":"uint256","internalType":"uint256"},{"name":"_burnedAmount","type":"uint256","internalType":"uint256"}],"outputs":[],"stateMutability":"nonpayable"},{"type":"function","name":"setBuyRequestPayedAmountById","inputs":[{"name":"_requestId","type":"uint256","internalType":"uint256"},{"name":"_amount","type":"uint256","internalType":"uint256"}],"outputs":[],"stateMutability":"nonpayable"},{"type":"function","name":"setCancelIssuanceComplted","inputs":[{"name":"_issuanceNonce","type":"uint256","internalType":"uint256"},{"name":"_isCompleted","type":"bool","internalType":"bool"}],"outputs":[],"stateMutability":"nonpayable"},{"type":"function","name":"setCancelIssuanceRequestId","inputs":[{"name":"_issuanceNonce","type":"uint256","internalType":"uint256"},{"name":"_token","type":"address","internalType":"address"},{"name":"_requestId","type":"uint256","internalType":"uint256"}],"outputs":[],"stateMutability":"nonpayable"},{"type":"function","name":"setCancelIssuanceUnfilledAmount","inputs":[{"name":"_issuanceNonce","type":"uint256","internalType":"uint256"},{"name":"_token","type":"address","internalType":"address"},{"name":"_amount","type":"uint256","internalType":"uint256"}],"outputs":[],"stateMutability":"nonpayable"},{"type":"function","name":"setCancelRedemptionComplted","inputs":[{"name":"_redemptionNonce","type":"uint256","internalType":"uint256"},{"name":"_isCompleted","type":"bool","internalType":"bool"}],"outputs":[],"stateMutability":"nonpayable"},{"type":"function","name":"setCancelRedemptionRequestId","inputs":[{"name":"_redemptionNonce","type":"uint256","internalType":"uint256"},{"name":"_token","type":"address","internalType":"address"},{"name":"_requestId","type":"uint256","internalType":"uint256"}],"outputs":[],"stateMutability":"nonpayable"},{"type":"function","name":"setCancelRedemptionUnfilledAmount","inputs":[{"name":"_redemptionNonce","type":"uint256","internalType":"uint256"},{"name":"_token","type":"address","internalType":"address"},{"name":"_amount","type":"uint256","internalType":"uint256"}],"outputs":[],"stateMutability":"nonpayable"},{"type":"function","name":"setFactory","inputs":[{"name":"_factoryAddress","type":"address","internalType":"address"}],"outputs":[],"stateMutability":"nonpayable"},{"type":"function","name":"setFactoryBalancer","inputs":[{"name":"_factoryBalancerAddress","type":"address","internalType":"address"}],"outputs":[],"stateMutability":"nonpayable"},{"type":"function","name":"setFactoryProcessor","inputs":[{"name":"_factoryProcessorAddress","type":"address","internalType":"address"}],"outputs":[],"stateMutability":"nonpayable"},{"type":"function","name":"setFeeRate","inputs":[{"name":"_newFee","type":"uint8","internalType":"uint8"}],"outputs":[],"stateMutability":"nonpayable"},{"type":"function","name":"setFeeReceiver","inputs":[{"name":"_feeReceiver","type":"address","internalType":"address"}],"outputs":[],"stateMutability":"nonpayable"},{"type":"function","name":"setIsMainnet","inputs":[{"name":"_isMainnet","type":"bool","internalType":"bool"}],"outputs":[],"stateMutability":"nonpayable"},{"type":"function","name":"setIssuanceIndexTokenPrimaryTotalSupply","inputs":[{"name":"_issuanceNonce","type":"uint256","internalType":"uint256"},{"name":"_amount","type":"uint256","internalType":"uint256"}],"outputs":[],"stateMutability":"nonpayable"},{"type":"function","name":"setIssuanceInputAmount","inputs":[{"name":"_issuanceNonce","type":"uint256","internalType":"uint256"},{"name":"_amount","type":"uint256","internalType":"uint256"}],"outputs":[],"stateMutability":"nonpayable"},{"type":"function","name":"setIssuanceIsCompleted","inputs":[{"name":"_issuanceNonce","type":"uint256","internalType":"uint256"},{"name":"_isCompleted","type":"bool","internalType":"bool"}],"outputs":[],"stateMutability":"nonpayable"},{"type":"function","name":"setIssuanceRequestId","inputs":[{"name":"_issuanceNonce","type":"uint256","internalType":"uint256"},{"name":"_token","type":"address","internalType":"address"},{"name":"_requestId","type":"uint256","internalType":"uint256"}],"outputs":[],"stateMutability":"nonpayable"},{"type":"function","name":"setIssuanceRequesterByNonce","inputs":[{"name":"_issuanceNonce","type":"uint256","internalType":"uint256"},{"name":"_requester","type":"address","internalType":"address"}],"outputs":[],"stateMutability":"nonpayable"},{"type":"function","name":"setIssuanceTokenPrimaryBalance","inputs":[{"name":"_issuanceNonce","type":"uint256","internalType":"uint256"},{"name":"_token","type":"address","internalType":"address"},{"name":"_amount","type":"uint256","internalType":"uint256"}],"outputs":[],"stateMutability":"nonpayable"},{"type":"function","name":"setIssuer","inputs":[{"name":"_issuer","type":"address","internalType":"address"}],"outputs":[{"name":"","type":"bool","internalType":"bool"}],"stateMutability":"nonpayable"},{"type":"function","name":"setLatestPriceDecimals","inputs":[{"name":"_decimals","type":"uint8","internalType":"uint8"}],"outputs":[],"stateMutability":"nonpayable"},{"type":"function","name":"setOracleInfo","inputs":[{"name":"_oracleAddress","type":"address","internalType":"address"},{"name":"_externalJobId","type":"bytes32","internalType":"bytes32"}],"outputs":[],"stateMutability":"nonpayable"},{"type":"function","name":"setOrderInstanceById","inputs":[{"name":"_requestId","type":"uint256","internalType":"uint256"},{"name":"_order","type":"tuple","internalType":"struct IOrderProcessor.Order","components":[{"name":"requestTimestamp","type":"uint64","internalType":"uint64"},{"name":"recipient","type":"address","internalType":"address"},{"name":"assetToken","type":"address","internalType":"address"},{"name":"paymentToken","type":"address","internalType":"address"},{"name":"sell","type":"bool","internalType":"bool"},{"name":"orderType","type":"uint8","internalType":"enum IOrderProcessor.OrderType"},{"name":"assetTokenQuantity","type":"uint256","internalType":"uint256"},{"name":"paymentTokenQuantity","type":"uint256","internalType":"uint256"},{"name":"price","type":"uint256","internalType":"uint256"},{"name":"tif","type":"uint8","internalType":"enum IOrderProcessor.TIF"}]}],"outputs":[],"stateMutability":"nonpayable"},{"type":"function","name":"setOrderManager","inputs":[{"name":"_orderManager","type":"address","internalType":"address"}],"outputs":[{"name":"","type":"bool","internalType":"bool"}],"stateMutability":"nonpayable"},{"type":"function","name":"setPriceFeedAddresses","inputs":[{"name":"_dShares","type":"address[]","internalType":"address[]"},{"name":"_priceFeedAddresses","type":"address[]","internalType":"address[]"}],"outputs":[],"stateMutability":"nonpayable"},{"type":"function","name":"setRedemptionIndexTokenPrimaryTotalSupply","inputs":[{"name":"_redemptionNonce","type":"uint256","internalType":"uint256"},{"name":"_amount","type":"uint256","internalType":"uint256"}],"outputs":[],"stateMutability":"nonpayable"},{"type":"function","name":"setRedemptionInputAmount","inputs":[{"name":"_redemptionNonce","type":"uint256","internalType":"uint256"},{"name":"_amount","type":"uint256","internalType":"uint256"}],"outputs":[],"stateMutability":"nonpayable"},{"type":"function","name":"setRedemptionIsCompleted","inputs":[{"name":"_redemptionNonce","type":"uint256","internalType":"uint256"},{"name":"_isCompleted","type":"bool","internalType":"bool"}],"outputs":[],"stateMutability":"nonpayable"},{"type":"function","name":"setRedemptionRequestId","inputs":[{"name":"_redemptionNonce","type":"uint256","internalType":"uint256"},{"name":"_token","type":"address","internalType":"address"},{"name":"_requestId","type":"uint256","internalType":"uint256"}],"outputs":[],"stateMutability":"nonpayable"},{"type":"function","name":"setRedemptionRequesterByNonce","inputs":[{"name":"_redemptionNonce","type":"uint256","internalType":"uint256"},{"name":"_requester","type":"address","internalType":"address"}],"outputs":[],"stateMutability":"nonpayable"},{"type":"function","name":"setRedemptionTokenPrimaryBalance","inputs":[{"name":"_redemptionNonce","type":"uint256","internalType":"uint256"},{"name":"_token","type":"address","internalType":"address"},{"name":"_amount","type":"uint256","internalType":"uint256"}],"outputs":[],"stateMutability":"nonpayable"},{"type":"function","name":"setSellRequestAssetAmountById","inputs":[{"name":"_requestId","type":"uint256","internalType":"uint256"},{"name":"_amount","type":"uint256","internalType":"uint256"}],"outputs":[],"stateMutability":"nonpayable"},{"type":"function","name":"setTokenAddress","inputs":[{"name":"_token","type":"address","internalType":"address"}],"outputs":[{"name":"","type":"bool","internalType":"bool"}],"stateMutability":"nonpayable"},{"type":"function","name":"setUrl","inputs":[{"name":"_beforeAddress","type":"string","internalType":"string"},{"name":"_afterAddress","type":"string","internalType":"string"}],"outputs":[],"stateMutability":"nonpayable"},{"type":"function","name":"setUsdcAddress","inputs":[{"name":"_usdc","type":"address","internalType":"address"},{"name":"_usdcDecimals","type":"uint8","internalType":"uint8"}],"outputs":[{"name":"","type":"bool","internalType":"bool"}],"stateMutability":"nonpayable"},{"type":"function","name":"setWrappedDShareAddresses","inputs":[{"name":"_dShares","type":"address[]","internalType":"address[]"},{"name":"_wrappedDShares","type":"address[]","internalType":"address[]"}],"outputs":[],"stateMutability":"nonpayable"},{"type":"function","name":"token","inputs":[],"outputs":[{"name":"","type":"address","internalType":"contract IndexToken"}],"stateMutability":"view"},{"type":"function","name":"tokenCurrentListIndex","inputs":[{"name":"","type":"address","internalType":"address"}],"outputs":[{"name":"","type":"uint256","internalType":"uint256"}],"stateMutability":"view"},{"type":"function","name":"tokenCurrentMarketShare","inputs":[{"name":"","type":"address","internalType":"address"}],"outputs":[{"name":"","type":"uint256","internalType":"uint256"}],"stateMutability":"view"},{"type":"function","name":"tokenOracleListIndex","inputs":[{"name":"","type":"address","internalType":"address"}],"outputs":[{"name":"","type":"uint256","internalType":"uint256"}],"stateMutability":"view"},{"type":"function","name":"tokenOracleMarketShare","inputs":[{"name":"","type":"address","internalType":"address"}],"outputs":[{"name":"","type":"uint256","internalType":"uint256"}],"stateMutability":"view"},{"type":"function","name":"totalCurrentList","inputs":[],"outputs":[{"name":"","type":"uint256","internalType":"uint256"}],"stateMutability":"view"},{"type":"function","name":"totalOracleList","inputs":[],"outputs":[{"name":"","type":"uint256","internalType":"uint256"}],"stateMutability":"view"},{"type":"function","name":"transferOwnership","inputs":[{"name":"newOwner","type":"address","internalType":"address"}],"outputs":[],"stateMutability":"nonpayable"},{"type":"function","name":"updateCurrentList","inputs":[],"outputs":[],"stateMutability":"nonpayable"},{"type":"function","name":"urlParams","inputs":[],"outputs":[{"name":"","type":"string","internalType":"string"}],"stateMutability":"view"},{"type":"function","name":"usdc","inputs":[],"outputs":[{"name":"","type":"address","internalType":"address"}],"stateMutability":"view"},{"type":"function","name":"usdcDecimals","inputs":[],"outputs":[{"name":"","type":"uint8","internalType":"uint8"}],"stateMutability":"view"},{"type":"function","name":"vault","inputs":[],"outputs":[{"name":"","type":"address","internalType":"contract NexVault"}],"stateMutability":"view"},{"type":"function","name":"wrappedDshareAddress","inputs":[{"name":"","type":"address","internalType":"address"}],"outputs":[{"name":"","type":"address","internalType":"address"}],"stateMutability":"view"},{"type":"event","name":"ChainlinkCancelled","inputs":[{"name":"id","type":"bytes32","indexed":true,"internalType":"bytes32"}],"anonymous":false},{"type":"event","name":"ChainlinkFulfilled","inputs":[{"name":"id","type":"bytes32","indexed":true,"internalType":"bytes32"}],"anonymous":false},{"type":"event","name":"ChainlinkRequested","inputs":[{"name":"id","type":"bytes32","indexed":true,"internalType":"bytes32"}],"anonymous":false},{"type":"event","name":"Initialized","inputs":[{"name":"version","type":"uint64","indexed":false,"internalType":"uint64"}],"anonymous":false},{"type":"event","name":"OwnershipTransferred","inputs":[{"name":"previousOwner","type":"address","indexed":true,"internalType":"address"},{"name":"newOwner","type":"address","indexed":true,"internalType":"address"}],"anonymous":false},{"type":"error","name":"InvalidInitialization","inputs":[]},{"type":"error","name":"NotInitializing","inputs":[]},{"type":"error","name":"OwnableInvalidOwner","inputs":[{"name":"owner","type":"address","internalType":"address"}]},{"type":"error","name":"OwnableUnauthorizedAccount","inputs":[{"name":"account","type":"address","internalType":"address"}]},{"type":"error","name":"PRBMath_MulDiv_Overflow","inputs":[{"name":"x","type":"uint256","internalType":"uint256"},{"name":"y","type":"uint256","internalType":"uint256"},{"name":"denominator","type":"uint256","internalType":"uint256"}]},{"type":"error","name":"PRBMath_MulDiv_Overflow","inputs":[{"name":"x","type":"uint256","internalType":"uint256"},{"name":"y","type":"uint256","internalType":"uint256"},{"name":"denominator","type":"uint256","internalType":"uint256"}]}],"bytecode":{"object":"0x6080604052348015600f57600080fd5b5061cfa98061001f6000396000f3fe608060405234801561001057600080fd5b50600436106107435760003560e01c80638baa6bf1116103be578063b592662a116101ff578063daf1c17d11610125578063efdf5053116100b8578063f513a71811610087578063f513a71814611814578063f9b6117f14611844578063fbfa77cf14611862578063fc0c546a1461188057610743565b8063efdf50531461177c578063f14bea20146117ac578063f1f31d66146117c8578063f2fde38b146117f857610743565b8063e789598c116100f4578063e789598c146116f6578063ea5142c814611714578063eab2a71114611730578063efdcd9741461176057610743565b8063daf1c17d1461164a578063df1d5ea21461167a578063e19eefbe14611696578063e2851bd6146116c657610743565b8063cb4d4e091161019d578063d34ed2ab1161016c578063d34ed2ab146115c6578063d57e0493146115e2578063d5fbea63146115fe578063da65925a1461161a57610743565b8063cb4d4e0914611540578063cf9ee3191461155e578063d1c0cee61461158e578063d1e4a308146115aa57610743565b8063c7003d1b116101d9578063c7003d1b146114b8578063c8599ded146114d4578063c8da3303146114f2578063c8f33c911461152257610743565b8063b592662a1461143a578063bb0498de1461146a578063c0da840d1461148857610743565b80639edcf9f4116102e4578063ab7820b211610282578063b1dd819e11610251578063b1dd819e146113a0578063b3f00674146113d0578063b411dc41146113ee578063b46840f91461140a57610743565b8063ab7820b2146112f4578063addc70d114611324578063b0e1213414611340578063b12279aa1461137057610743565b8063a73e1cbf116102be578063a73e1cbf1461125a578063a84ebc1714611276578063a87f98d2146112a6578063a8b54bd4146112d657610743565b80639edcf9f4146111ca578063a08d7bd6146111fa578063a363b9cb1461122a57610743565b8063966dae0e1161035c57806399f68da81161032b57806399f68da8146111445780639b2d6e3b146111605780639cf545211461117c5780639dbb9c9e146111ac57610743565b8063966dae0e146110bc578063978bbdb9146110da578063991be68e146110f85780639932ba4c1461111457610743565b80638da5cb5b116103985780638da5cb5b146110225780638e97d7e114611040578063914f0cc61461105c578063946740981461108c57610743565b80638baa6bf114610fb85780638c22189914610fc25780638c88c10c14610ff257610743565b806342faac05116105885780636839a095116104ae5780637a6c4b7b1161044c5780637cd375e21161041b5780637cd375e214610f325780638182492a14610f4e57806384d77bb114610f6a5780638861d23514610f8857610743565b80637a6c4b7b14610eaa5780637bf4216514610ec65780637bfa27f214610ee45780637ca58c5514610f1457610743565b8063715018a611610488578063715018a614610e3657806376529fdf14610e405780637803265814610e705780637851b90514610ea057610743565b80636839a09514610dce5780636ea495df14610dfe5780636ea8655614610e1a57610743565b80635501c6cf116105265780635bcabf04116104f55780635bcabf0414610d345780636188199f14610d52578063631c838514610d6e578063632439fd14610d9e57610743565b80635501c6cf14610cc257806355cc4e5714610ccc57806357b61bc314610cfc5780635bb4780814610d1857610743565b8063496304a411610562578063496304a414610c3c5780634b3e0b8014610c585780635177942a14610c8857806353fd433214610ca457610743565b806342faac0514610be657806343482fc814610c04578063457e0e0f14610c2057610743565b806315e666a21161066d578063264fa8b91161060b57806335c51204116105da57806335c5120414610b4b5780633c1f70ca14610b675780633e413bee14610b985780633fac092214610bb657610743565b8063264fa8b914610a9f57806326a4e8d214610acf5780632e6b96e714610aff5780633250263914610b2f57610743565b80631e2ad86e116106475780631e2ad86e14610a0757806321de914f14610a235780632343acb414610a3f578063239aad0d14610a6f57610743565b806315e666a2146109945780631c7a2959146109cd5780631d143848146109e957610743565b80630acb8d40116106e55780630c02e130116106b45780630c02e130146108fa5780630e3293571461091857806312b6d2e614610948578063147726ae1461096457610743565b80630acb8d401461085e5780630b1a49181461087c5780630b1fa733146108ac5780630be52713146108ca57610743565b806306995e3b1161072157806306995e3b146107b257806308dc4b0c146107e2578063092755e0146108125780630a1d42701461084257610743565b8063011ced5f1461074857806302e80f71146107665780630499a61d14610796575b600080fd5b61075061189e565b60405161075d9190619cba565b60405180910390f35b610780600480360381019061077b9190619d73565b6118a4565b60405161078d9190619cba565b60405180910390f35b6107b060048036038101906107ab9190619db3565b6118c9565b005b6107cc60048036038101906107c79190619de0565b611984565b6040516107d99190619cba565b60405180910390f35b6107fc60048036038101906107f79190619db3565b611ab3565b6040516108099190619e1c565b60405180910390f35b61082c60048036038101906108279190619db3565b611ae6565b6040516108399190619e1c565b60405180910390f35b61085c60048036038101906108579190619e6f565b611b19565b005b610866611c88565b6040516108739190619e1c565b60405180910390f35b61089660048036038101906108919190619de0565b611cae565b6040516108a39190619ebe565b60405180910390f35b6108b4611e3c565b6040516108c19190619ef5565b60405180910390f35b6108e460048036038101906108df9190619db3565b611e4f565b6040516108f19190619cba565b60405180910390f35b610902611e67565b60405161090f9190619cba565b60405180910390f35b610932600480360381019061092d919061a056565b611e6d565b60405161093f919061a14d565b60405180910390f35b610962600480360381019061095d919061a16f565b611e99565b005b61097e60048036038101906109799190619de0565b6120e5565b60405161098b919061a200565b60405180910390f35b6109ae60048036038101906109a99190619de0565b612169565b6040516109c49a9998979695949392919061a2fd565b60405180910390f35b6109e760048036038101906109e2919061a16f565b612258565b005b6109f16124a4565b6040516109fe919061a3f8565b60405180910390f35b610a216004803603810190610a1c919061a413565b6124ca565b005b610a3d6004803603810190610a38919061a16f565b612669565b005b610a596004803603810190610a549190619de0565b612872565b604051610a669190619ebe565b60405180910390f35b610a896004803603810190610a849190619de0565b612a1a565b604051610a969190619e1c565b60405180910390f35b610ab96004803603810190610ab49190619d73565b612a4d565b604051610ac69190619cba565b60405180910390f35b610ae96004803603810190610ae49190619db3565b612a72565b604051610af69190619ebe565b60405180910390f35b610b196004803603810190610b14919061a48e565b612b35565b604051610b269190619cba565b60405180910390f35b610b496004803603810190610b44919061a4fa565b612b74565b005b610b656004803603810190610b60919061a698565b612be0565b005b610b816004803603810190610b7c9190619de0565b612f22565b604051610b8f92919061a6d9565b60405180910390f35b610ba0612f46565b604051610bad9190619e1c565b60405180910390f35b610bd06004803603810190610bcb9190619de0565b612f6c565b604051610bdd9190619ebe565b60405180910390f35b610bee613114565b604051610bfb9190619ebe565b60405180910390f35b610c1e6004803603810190610c19919061a738565b613127565b005b610c3a6004803603810190610c35919061a16f565b6131f9565b005b610c566004803603810190610c51919061a16f565b613445565b005b610c726004803603810190610c6d9190619db3565b613691565b604051610c7f9190619cba565b60405180910390f35b610ca26004803603810190610c9d919061a4fa565b6136a9565b005b610cac61379b565b604051610cb99190619cba565b60405180910390f35b610cca6137a1565b005b610ce66004803603810190610ce19190619db3565b6138fd565b604051610cf39190619ebe565b60405180910390f35b610d166004803603810190610d11919061a840565b6139c0565b005b610d326004803603810190610d2d9190619db3565b613adc565b005b610d3c613b97565b604051610d49919061a14d565b60405180910390f35b610d6c6004803603810190610d67919061a413565b613c25565b005b610d886004803603810190610d839190619de0565b613dc4565b604051610d959190619ebe565b60405180910390f35b610db86004803603810190610db39190619d73565b614353565b604051610dc59190619cba565b60405180910390f35b610de86004803603810190610de39190619db3565b614378565b604051610df59190619cba565b60405180910390f35b610e186004803603810190610e13919061a413565b614655565b005b610e346004803603810190610e2f919061a16f565b6147b1565b005b610e3e6149fd565b005b610e5a6004803603810190610e559190619de0565b614a11565b604051610e679190619ebe565b60405180910390f35b610e8a6004803603810190610e859190619de0565b614a31565b604051610e979190619e1c565b60405180910390f35b610ea8614a64565b005b610ec46004803603810190610ebf919061a16f565b614bc0565b005b610ece614e0c565b604051610edb9190619ef5565b60405180910390f35b610efe6004803603810190610ef99190619de0565b614e1f565b604051610f0b9190619ebe565b60405180910390f35b610f1c614e3f565b604051610f29919061a8c7565b60405180910390f35b610f4c6004803603810190610f479190619e6f565b6150dd565b005b610f686004803603810190610f63919061a932565b61524c565b005b610f726153fe565b604051610f7f9190619cba565b60405180910390f35b610fa26004803603810190610f9d9190619de0565b615404565b604051610faf9190619cba565b60405180910390f35b610fc061541c565b005b610fdc6004803603810190610fd79190619d73565b615624565b604051610fe99190619cba565b60405180910390f35b61100c60048036038101906110079190619db3565b615649565b6040516110199190619cba565b60405180910390f35b61102a615661565b6040516110379190619e1c565b60405180910390f35b61105a60048036038101906110559190619e6f565b615699565b005b61107660048036038101906110719190619db3565b615808565b6040516110839190619cba565b60405180910390f35b6110a660048036038101906110a19190619de0565b615820565b6040516110b39190619e1c565b60405180910390f35b6110c4615853565b6040516110d19190619e1c565b60405180910390f35b6110e2615879565b6040516110ef9190619ef5565b60405180910390f35b611112600480360381019061110d919061a972565b61588c565b005b61112e60048036038101906111299190619de0565b6158b1565b60405161113b9190619e1c565b60405180910390f35b61115e6004803603810190611159919061a413565b6158e4565b005b61117a6004803603810190611175919061a16f565b615a40565b005b61119660048036038101906111919190619de0565b615c49565b6040516111a39190619cba565b60405180910390f35b6111b4615c61565b6040516111c19190619cba565b60405180910390f35b6111e460048036038101906111df9190619d73565b615c67565b6040516111f19190619cba565b60405180910390f35b611214600480360381019061120f9190619db3565b615c8c565b6040516112219190619cba565b60405180910390f35b611244600480360381019061123f9190619d73565b615e83565b6040516112519190619cba565b60405180910390f35b611274600480360381019061126f919061a056565b615ea8565b005b611290600480360381019061128b9190619de0565b615ed4565b60405161129d9190619ebe565b60405180910390f35b6112c060048036038101906112bb9190619de0565b615ef4565b6040516112cd9190619cba565b60405180910390f35b6112de615f0c565b6040516112eb919061a8c7565b60405180910390f35b61130e60048036038101906113099190619de0565b615f12565b60405161131b9190619cba565b60405180910390f35b61133e6004803603810190611339919061aa62565b615f2a565b005b61135a60048036038101906113559190619de0565b615f40565b6040516113679190619ebe565b60405180910390f35b61138a6004803603810190611385919061a972565b6160ce565b604051611397919061abf1565b60405180910390f35b6113ba60048036038101906113b59190619de0565b61621e565b6040516113c79190619cba565b60405180910390f35b6113d8616236565b6040516113e59190619e1c565b60405180910390f35b6114086004803603810190611403919061a840565b61625c565b005b611424600480360381019061141f9190619de0565b616378565b6040516114319190619ebe565b60405180910390f35b611454600480360381019061144f9190619de0565b616398565b6040516114619190619ebe565b60405180910390f35b611472616927565b60405161147f9190619cba565b60405180910390f35b6114a2600480360381019061149d9190619db3565b61699b565b6040516114af9190619ebe565b60405180910390f35b6114d260048036038101906114cd919061a413565b616a5e565b005b6114dc616bfd565b6040516114e99190619cba565b60405180910390f35b61150c60048036038101906115079190619de0565b616c03565b6040516115199190619cba565b60405180910390f35b61152a616d0e565b6040516115379190619cba565b60405180910390f35b611548616d14565b6040516115559190619e1c565b60405180910390f35b61157860048036038101906115739190619de0565b616d3a565b6040516115859190619cba565b60405180910390f35b6115a860048036038101906115a39190619e6f565b616d52565b005b6115c460048036038101906115bf919061a413565b616ec1565b005b6115e060048036038101906115db9190619d73565b6170a3565b005b6115fc60048036038101906115f7919061ac0d565b6172a8565b005b61161860048036038101906116139190619db3565b61798c565b005b611634600480360381019061162f9190619d73565b617a47565b6040516116419190619cba565b60405180910390f35b611664600480360381019061165f9190619de0565b617a6c565b6040516116719190619cba565b60405180910390f35b611694600480360381019061168f9190619d73565b617a84565b005b6116b060048036038101906116ab9190619de0565b617c89565b6040516116bd9190619cba565b60405180910390f35b6116e060048036038101906116db9190619de0565b617e80565b6040516116ed9190619cba565b60405180910390f35b6116fe617f8b565b60405161170b919061a14d565b60405180910390f35b61172e6004803603810190611729919061a413565b618019565b005b61174a6004803603810190611745919061acd7565b6181b8565b6040516117579190619ebe565b60405180910390f35b61177a60048036038101906117759190619db3565b6182dd565b005b61179660048036038101906117919190619db3565b618398565b6040516117a39190619cba565b60405180910390f35b6117c660048036038101906117c1919061ad17565b61844a565b005b6117e260048036038101906117dd9190619de0565b61862e565b6040516117ef919061abf1565b60405180910390f35b611812600480360381019061180d9190619db3565b618882565b005b61182e60048036038101906118299190619d73565b618908565b60405161183b9190619cba565b60405180910390f35b61184c61892d565b604051611859919061adc3565b60405180910390f35b61186a618953565b604051611877919061adff565b60405180910390f35b611888618979565b604051611895919061ae3b565b60405180910390f35b601d5481565b6024602052816000526040600020602052806000526040600020600091509150505481565b6118d161899f565b600073ffffffffffffffffffffffffffffffffffffffff168173ffffffffffffffffffffffffffffffffffffffff1603611940576040517f08c379a00000000000000000000000000000000000000000000000000000000081526004016119379061aec8565b60405180910390fd5b80600a60006101000a81548173ffffffffffffffffffffffffffffffffffffffff021916908373ffffffffffffffffffffffffffffffffffffffff16021790555050565b60008082116119c8576040517f08c379a00000000000000000000000000000000000000000000000000000000081526004016119bf9061af34565b60405180910390fd5b600080601a60009054906101000a900473ffffffffffffffffffffffffffffffffffffffff1673ffffffffffffffffffffffffffffffffffffffff1663236970d46000601b60009054906101000a900473ffffffffffffffffffffffffffffffffffffffff166040518363ffffffff1660e01b8152600401611a4b92919061af54565b6040805180830381865afa158015611a67573d6000803e3d6000fd5b505050506040513d601f19601f82011682018060405250810190611a8b919061afa7565b915091506000611a9b8286618a26565b83611aa6919061b016565b9050809350505050919050565b60176020528060005260406000206000915054906101000a900473ffffffffffffffffffffffffffffffffffffffff1681565b60126020528060005260406000206000915054906101000a900473ffffffffffffffffffffffffffffffffffffffff1681565b600860009054906101000a900473ffffffffffffffffffffffffffffffffffffffff1673ffffffffffffffffffffffffffffffffffffffff163373ffffffffffffffffffffffffffffffffffffffff161480611bc25750600a60009054906101000a900473ffffffffffffffffffffffffffffffffffffffff1673ffffffffffffffffffffffffffffffffffffffff163373ffffffffffffffffffffffffffffffffffffffff16145b80611c1a5750600960009054906101000a900473ffffffffffffffffffffffffffffffffffffffff1673ffffffffffffffffffffffffffffffffffffffff163373ffffffffffffffffffffffffffffffffffffffff16145b611c59576040517f08c379a0000000000000000000000000000000000000000000000000000000008152600401611c509061b096565b60405180910390fd5b806022600084815260200190815260200160002060006101000a81548160ff0219169083151502179055505050565b600a60009054906101000a900473ffffffffffffffffffffffffffffffffffffffff1681565b6000805b600f54811015611e315760006011600083815260200190815260200160002060009054906101000a900473ffffffffffffffffffffffffffffffffffffffff16905060006027600086815260200190815260200160002060008373ffffffffffffffffffffffffffffffffffffffff1673ffffffffffffffffffffffffffffffffffffffff16815260200190815260200160002054905060016003811115611d5d57611d5c61a23e565b5b60ff16601a60009054906101000a900473ffffffffffffffffffffffffffffffffffffffff1673ffffffffffffffffffffffffffffffffffffffff166345fa8aae836040518263ffffffff1660e01b8152600401611dbb9190619cba565b602060405180830381865afa158015611dd8573d6000803e3d6000fd5b505050506040513d601f19601f82011682018060405250810190611dfc919061b0db565b6003811115611e0e57611e0d61a23e565b5b60ff1603611e225760019350505050611e37565b50508080600101915050611cb2565b50600090505b919050565b602060009054906101000a900460ff1681565b60156020528060005260406000206000915090505481565b600c5481565b60608282604051602001611e8292919061b14f565b604051602081830303815290604052905092915050565b600860009054906101000a900473ffffffffffffffffffffffffffffffffffffffff1673ffffffffffffffffffffffffffffffffffffffff163373ffffffffffffffffffffffffffffffffffffffff161480611f425750600a60009054906101000a900473ffffffffffffffffffffffffffffffffffffffff1673ffffffffffffffffffffffffffffffffffffffff163373ffffffffffffffffffffffffffffffffffffffff16145b80611f9a5750600960009054906101000a900473ffffffffffffffffffffffffffffffffffffffff1673ffffffffffffffffffffffffffffffffffffffff163373ffffffffffffffffffffffffffffffffffffffff16145b611fd9576040517f08c379a0000000000000000000000000000000000000000000000000000000008152600401611fd09061b096565b60405180910390fd5b6000811161201c576040517f08c379a00000000000000000000000000000000000000000000000000000000081526004016120139061b1e5565b60405180910390fd5b600073ffffffffffffffffffffffffffffffffffffffff168273ffffffffffffffffffffffffffffffffffffffff160361208b576040517f08c379a00000000000000000000000000000000000000000000000000000000081526004016120829061b251565b60405180910390fd5b806036600085815260200190815260200160002060008473ffffffffffffffffffffffffffffffffffffffff1673ffffffffffffffffffffffffffffffffffffffff16815260200190815260200160002081905550505050565b6120ed619b3b565b60008211612130576040517f08c379a00000000000000000000000000000000000000000000000000000000081526004016121279061b2bd565b60405180910390fd5b60356000838152602001908152602001600020604051806040016040529081600082015481526020016001820154815250509050919050565b60326020528060005260406000206000915090508060000160009054906101000a900467ffffffffffffffff16908060000160089054906101000a900473ffffffffffffffffffffffffffffffffffffffff16908060010160009054906101000a900473ffffffffffffffffffffffffffffffffffffffff16908060020160009054906101000a900473ffffffffffffffffffffffffffffffffffffffff16908060020160149054906101000a900460ff16908060020160159054906101000a900460ff16908060030154908060040154908060050154908060060160009054906101000a900460ff1690508a565b600860009054906101000a900473ffffffffffffffffffffffffffffffffffffffff1673ffffffffffffffffffffffffffffffffffffffff163373ffffffffffffffffffffffffffffffffffffffff1614806123015750600a60009054906101000a900473ffffffffffffffffffffffffffffffffffffffff1673ffffffffffffffffffffffffffffffffffffffff163373ffffffffffffffffffffffffffffffffffffffff16145b806123595750600960009054906101000a900473ffffffffffffffffffffffffffffffffffffffff1673ffffffffffffffffffffffffffffffffffffffff163373ffffffffffffffffffffffffffffffffffffffff16145b612398576040517f08c379a000000000000000000000000000000000000000000000000000000000815260040161238f9061b096565b60405180910390fd5b600081116123db576040517f08c379a00000000000000000000000000000000000000000000000000000000081526004016123d29061b329565b60405180910390fd5b600073ffffffffffffffffffffffffffffffffffffffff168273ffffffffffffffffffffffffffffffffffffffff160361244a576040517f08c379a00000000000000000000000000000000000000000000000000000000081526004016124419061b251565b60405180910390fd5b806027600085815260200190815260200160002060008473ffffffffffffffffffffffffffffffffffffffff1673ffffffffffffffffffffffffffffffffffffffff16815260200190815260200160002081905550505050565b601a60009054906101000a900473ffffffffffffffffffffffffffffffffffffffff1681565b600860009054906101000a900473ffffffffffffffffffffffffffffffffffffffff1673ffffffffffffffffffffffffffffffffffffffff163373ffffffffffffffffffffffffffffffffffffffff1614806125735750600a60009054906101000a900473ffffffffffffffffffffffffffffffffffffffff1673ffffffffffffffffffffffffffffffffffffffff163373ffffffffffffffffffffffffffffffffffffffff16145b806125cb5750600960009054906101000a900473ffffffffffffffffffffffffffffffffffffffff1673ffffffffffffffffffffffffffffffffffffffff163373ffffffffffffffffffffffffffffffffffffffff16145b61260a576040517f08c379a00000000000000000000000000000000000000000000000000000000081526004016126019061b096565b60405180910390fd5b6000811161264d576040517f08c379a00000000000000000000000000000000000000000000000000000000081526004016126449061b395565b60405180910390fd5b8060296000848152602001908152602001600020819055505050565b600860009054906101000a900473ffffffffffffffffffffffffffffffffffffffff1673ffffffffffffffffffffffffffffffffffffffff163373ffffffffffffffffffffffffffffffffffffffff1614806127125750600a60009054906101000a900473ffffffffffffffffffffffffffffffffffffffff1673ffffffffffffffffffffffffffffffffffffffff163373ffffffffffffffffffffffffffffffffffffffff16145b8061276a5750600960009054906101000a900473ffffffffffffffffffffffffffffffffffffffff1673ffffffffffffffffffffffffffffffffffffffff163373ffffffffffffffffffffffffffffffffffffffff16145b6127a9576040517f08c379a00000000000000000000000000000000000000000000000000000000081526004016127a09061b096565b60405180910390fd5b600073ffffffffffffffffffffffffffffffffffffffff168273ffffffffffffffffffffffffffffffffffffffff1603612818576040517f08c379a000000000000000000000000000000000000000000000000000000000815260040161280f9061b401565b60405180910390fd5b80602b600085815260200190815260200160002060008473ffffffffffffffffffffffffffffffffffffffff1673ffffffffffffffffffffffffffffffffffffffff16815260200190815260200160002081905550505050565b60008060005b600f548110156129fb5760006011600083815260200190815260200160002060009054906101000a900473ffffffffffffffffffffffffffffffffffffffff16905060006026600087815260200190815260200160002060008373ffffffffffffffffffffffffffffffffffffffff1673ffffffffffffffffffffffffffffffffffffffff168152602001908152602001600020549050600260038111156129235761292261a23e565b5b60ff16601a60009054906101000a900473ffffffffffffffffffffffffffffffffffffffff1673ffffffffffffffffffffffffffffffffffffffff166345fa8aae836040518263ffffffff1660e01b81526004016129819190619cba565b602060405180830381865afa15801561299e573d6000803e3d6000fd5b505050506040513d601f19601f820116820180604052508101906129c2919061b0db565b60038111156129d4576129d361a23e565b5b60ff16036129ec576001846129e9919061b016565b93505b50508080600101915050612878565b50600f548103612a0f576001915050612a15565b60009150505b919050565b60106020528060005260406000206000915054906101000a900473ffffffffffffffffffffffffffffffffffffffff1681565b6026602052816000526040600020602052806000526040600020600091509150505481565b6000612a7c61899f565b600073ffffffffffffffffffffffffffffffffffffffff168273ffffffffffffffffffffffffffffffffffffffff1603612aeb576040517f08c379a0000000000000000000000000000000000000000000000000000000008152600401612ae29061b46d565b60405180910390fd5b81601860006101000a81548173ffffffffffffffffffffffffffffffffffffffff021916908373ffffffffffffffffffffffffffffffffffffffff16021790555060019050919050565b6000808362ffffff1603612b4a576000612b6c565b612b6b82620f424085620f4240612b61919061b48d565b62ffffff16618a5c565b5b905092915050565b612b7c61899f565b60008160ff1611612bc2576040517f08c379a0000000000000000000000000000000000000000000000000000000008152600401612bb99061b510565b60405180910390fd5b80602060006101000a81548160ff021916908360ff16021790555050565b600860009054906101000a900473ffffffffffffffffffffffffffffffffffffffff1673ffffffffffffffffffffffffffffffffffffffff163373ffffffffffffffffffffffffffffffffffffffff161480612c895750600a60009054906101000a900473ffffffffffffffffffffffffffffffffffffffff1673ffffffffffffffffffffffffffffffffffffffff163373ffffffffffffffffffffffffffffffffffffffff16145b80612ce15750600960009054906101000a900473ffffffffffffffffffffffffffffffffffffffff1673ffffffffffffffffffffffffffffffffffffffff163373ffffffffffffffffffffffffffffffffffffffff16145b612d20576040517f08c379a0000000000000000000000000000000000000000000000000000000008152600401612d179061b096565b60405180910390fd5b60008211612d63576040517f08c379a0000000000000000000000000000000000000000000000000000000008152600401612d5a9061b2bd565b60405180910390fd5b806032600084815260200190815260200160002060008201518160000160006101000a81548167ffffffffffffffff021916908367ffffffffffffffff16021790555060208201518160000160086101000a81548173ffffffffffffffffffffffffffffffffffffffff021916908373ffffffffffffffffffffffffffffffffffffffff16021790555060408201518160010160006101000a81548173ffffffffffffffffffffffffffffffffffffffff021916908373ffffffffffffffffffffffffffffffffffffffff16021790555060608201518160020160006101000a81548173ffffffffffffffffffffffffffffffffffffffff021916908373ffffffffffffffffffffffffffffffffffffffff16021790555060808201518160020160146101000a81548160ff02191690831515021790555060a08201518160020160156101000a81548160ff02191690836001811115612ec657612ec561a23e565b5b021790555060c0820151816003015560e0820151816004015561010082015181600501556101208201518160060160006101000a81548160ff02191690836003811115612f1657612f1561a23e565b5b02179055509050505050565b60356020528060005260406000206000915090508060000154908060010154905082565b601b60009054906101000a900473ffffffffffffffffffffffffffffffffffffffff1681565b60008060005b600f548110156130f55760006011600083815260200190815260200160002060009054906101000a900473ffffffffffffffffffffffffffffffffffffffff16905060006027600087815260200190815260200160002060008373ffffffffffffffffffffffffffffffffffffffff1673ffffffffffffffffffffffffffffffffffffffff1681526020019081526020016000205490506002600381111561301d5761301c61a23e565b5b60ff16601a60009054906101000a900473ffffffffffffffffffffffffffffffffffffffff1673ffffffffffffffffffffffffffffffffffffffff166345fa8aae836040518263ffffffff1660e01b815260040161307b9190619cba565b602060405180830381865afa158015613098573d6000803e3d6000fd5b505050506040513d601f19601f820116820180604052508101906130bc919061b0db565b60038111156130ce576130cd61a23e565b5b60ff16036130e6576001846130e3919061b016565b93505b50508080600101915050612f72565b50600f54810361310957600191505061310f565b60009150505b919050565b601c60149054906101000a900460ff1681565b61312f61899f565b600073ffffffffffffffffffffffffffffffffffffffff168273ffffffffffffffffffffffffffffffffffffffff160361319e576040517f08c379a00000000000000000000000000000000000000000000000000000000081526004016131959061b57c565b60405180910390fd5b6000602060ff16116131e5576040517f08c379a00000000000000000000000000000000000000000000000000000000081526004016131dc9061b5e8565b60405180910390fd5b6131ee82618b76565b80600b819055505050565b600860009054906101000a900473ffffffffffffffffffffffffffffffffffffffff1673ffffffffffffffffffffffffffffffffffffffff163373ffffffffffffffffffffffffffffffffffffffff1614806132a25750600a60009054906101000a900473ffffffffffffffffffffffffffffffffffffffff1673ffffffffffffffffffffffffffffffffffffffff163373ffffffffffffffffffffffffffffffffffffffff16145b806132fa5750600960009054906101000a900473ffffffffffffffffffffffffffffffffffffffff1673ffffffffffffffffffffffffffffffffffffffff163373ffffffffffffffffffffffffffffffffffffffff16145b613339576040517f08c379a00000000000000000000000000000000000000000000000000000000081526004016133309061b096565b60405180910390fd5b6000811161337c576040517f08c379a00000000000000000000000000000000000000000000000000000000081526004016133739061b329565b60405180910390fd5b600073ffffffffffffffffffffffffffffffffffffffff168273ffffffffffffffffffffffffffffffffffffffff16036133eb576040517f08c379a00000000000000000000000000000000000000000000000000000000081526004016133e29061b251565b60405180910390fd5b806025600085815260200190815260200160002060008473ffffffffffffffffffffffffffffffffffffffff1673ffffffffffffffffffffffffffffffffffffffff16815260200190815260200160002081905550505050565b600860009054906101000a900473ffffffffffffffffffffffffffffffffffffffff1673ffffffffffffffffffffffffffffffffffffffff163373ffffffffffffffffffffffffffffffffffffffff1614806134ee5750600a60009054906101000a900473ffffffffffffffffffffffffffffffffffffffff1673ffffffffffffffffffffffffffffffffffffffff163373ffffffffffffffffffffffffffffffffffffffff16145b806135465750600960009054906101000a900473ffffffffffffffffffffffffffffffffffffffff1673ffffffffffffffffffffffffffffffffffffffff163373ffffffffffffffffffffffffffffffffffffffff16145b613585576040517f08c379a000000000000000000000000000000000000000000000000000000000815260040161357c9061b096565b60405180910390fd5b600081116135c8576040517f08c379a00000000000000000000000000000000000000000000000000000000081526004016135bf9061b654565b60405180910390fd5b600073ffffffffffffffffffffffffffffffffffffffff168273ffffffffffffffffffffffffffffffffffffffff1603613637576040517f08c379a000000000000000000000000000000000000000000000000000000000815260040161362e9061b251565b60405180910390fd5b806026600085815260200190815260200160002060008473ffffffffffffffffffffffffffffffffffffffff1673ffffffffffffffffffffffffffffffffffffffff16815260200190815260200160002081905550505050565b60166020528060005260406000206000915090505481565b6136b161899f565b6000601d54426136c1919061b674565b9050600c603c80836136d3919061b6d7565b6136dd919061b6d7565b1161371d576040517f08c379a00000000000000000000000000000000000000000000000000000000081526004016137149061b77a565b60405180910390fd5b6127108260ff1611158015613736575060018260ff1610155b613775576040517f08c379a000000000000000000000000000000000000000000000000000000000815260040161376c9061b80c565b60405180910390fd5b81601c60156101000a81548160ff021916908360ff16021790555042601d819055505050565b600f5481565b600860009054906101000a900473ffffffffffffffffffffffffffffffffffffffff1673ffffffffffffffffffffffffffffffffffffffff163373ffffffffffffffffffffffffffffffffffffffff16148061384a5750600a60009054906101000a900473ffffffffffffffffffffffffffffffffffffffff1673ffffffffffffffffffffffffffffffffffffffff163373ffffffffffffffffffffffffffffffffffffffff16145b806138a25750600960009054906101000a900473ffffffffffffffffffffffffffffffffffffffff1673ffffffffffffffffffffffffffffffffffffffff163373ffffffffffffffffffffffffffffffffffffffff16145b6138e1576040517f08c379a00000000000000000000000000000000000000000000000000000000081526004016138d89061b096565b60405180910390fd5b6001601e60008282546138f4919061b016565b92505081905550565b600061390761899f565b600073ffffffffffffffffffffffffffffffffffffffff168273ffffffffffffffffffffffffffffffffffffffff1603613976576040517f08c379a000000000000000000000000000000000000000000000000000000000815260040161396d9061b878565b60405180910390fd5b81601a60006101000a81548173ffffffffffffffffffffffffffffffffffffffff021916908373ffffffffffffffffffffffffffffffffffffffff16021790555060019050919050565b6139c861899f565b8051825114613a0c576040517f08c379a0000000000000000000000000000000000000000000000000000000008152600401613a039061b8e4565b60405180910390fd5b60005b8251811015613ad757818181518110613a2b57613a2a61b904565b5b602002602001015160176000858481518110613a4a57613a4961b904565b5b602002602001015173ffffffffffffffffffffffffffffffffffffffff1673ffffffffffffffffffffffffffffffffffffffff16815260200190815260200160002060006101000a81548173ffffffffffffffffffffffffffffffffffffffff021916908373ffffffffffffffffffffffffffffffffffffffff1602179055508080600101915050613a0f565b505050565b613ae461899f565b600073ffffffffffffffffffffffffffffffffffffffff168173ffffffffffffffffffffffffffffffffffffffff1603613b53576040517f08c379a0000000000000000000000000000000000000000000000000000000008152600401613b4a9061b97f565b60405180910390fd5b80600860006101000a81548173ffffffffffffffffffffffffffffffffffffffff021916908373ffffffffffffffffffffffffffffffffffffffff16021790555050565b60068054613ba49061b9ce565b80601f0160208091040260200160405190810160405280929190818152602001828054613bd09061b9ce565b8015613c1d5780601f10613bf257610100808354040283529160200191613c1d565b820191906000526020600020905b815481529060010190602001808311613c0057829003601f168201915b505050505081565b600860009054906101000a900473ffffffffffffffffffffffffffffffffffffffff1673ffffffffffffffffffffffffffffffffffffffff163373ffffffffffffffffffffffffffffffffffffffff161480613cce5750600a60009054906101000a900473ffffffffffffffffffffffffffffffffffffffff1673ffffffffffffffffffffffffffffffffffffffff163373ffffffffffffffffffffffffffffffffffffffff16145b80613d265750600960009054906101000a900473ffffffffffffffffffffffffffffffffffffffff1673ffffffffffffffffffffffffffffffffffffffff163373ffffffffffffffffffffffffffffffffffffffff16145b613d65576040517f08c379a0000000000000000000000000000000000000000000000000000000008152600401613d5c9061b096565b60405180910390fd5b60008111613da8576040517f08c379a0000000000000000000000000000000000000000000000000000000008152600401613d9f9061ba4b565b60405180910390fd5b8060236000848152602001908152602001600020819055505050565b60008060005b600f548110156143345760006011600083815260200190815260200160002060009054906101000a900473ffffffffffffffffffffffffffffffffffffffff16905060006026600087815260200190815260200160002060008373ffffffffffffffffffffffffffffffffffffffff1673ffffffffffffffffffffffffffffffffffffffff1681526020019081526020016000205490506000601a60009054906101000a900473ffffffffffffffffffffffffffffffffffffffff1673ffffffffffffffffffffffffffffffffffffffff166361ecbb44836040518263ffffffff1660e01b8152600401613ebe9190619cba565b602060405180830381865afa158015613edb573d6000803e3d6000fd5b505050506040513d601f19601f82011682018060405250810190613eff919061ba6b565b9050600380811115613f1457613f1361a23e565b5b60ff16601a60009054906101000a900473ffffffffffffffffffffffffffffffffffffffff1673ffffffffffffffffffffffffffffffffffffffff166345fa8aae846040518263ffffffff1660e01b8152600401613f729190619cba565b602060405180830381865afa158015613f8f573d6000803e3d6000fd5b505050506040513d601f19601f82011682018060405250810190613fb3919061b0db565b6003811115613fc557613fc461a23e565b5b60ff16036141225760008103613fe957600185613fe2919061b016565b945061411d565b60006024600089815260200190815260200160002060008573ffffffffffffffffffffffffffffffffffffffff1673ffffffffffffffffffffffffffffffffffffffff168152602001908152602001600020549050600260038111156140525761405161a23e565b5b60ff16601a60009054906101000a900473ffffffffffffffffffffffffffffffffffffffff1673ffffffffffffffffffffffffffffffffffffffff166345fa8aae836040518263ffffffff1660e01b81526004016140b09190619cba565b602060405180830381865afa1580156140cd573d6000803e3d6000fd5b505050506040513d601f19601f820116820180604052508101906140f1919061b0db565b60038111156141035761410261a23e565b5b60ff160361411b57600186614118919061b016565b95505b505b614324565b600260038111156141365761413561a23e565b5b60ff16601a60009054906101000a900473ffffffffffffffffffffffffffffffffffffffff1673ffffffffffffffffffffffffffffffffffffffff166345fa8aae846040518263ffffffff1660e01b81526004016141949190619cba565b602060405180830381865afa1580156141b1573d6000803e3d6000fd5b505050506040513d601f19601f820116820180604052508101906141d5919061b0db565b60038111156141e7576141e661a23e565b5b60ff16036143235760006024600089815260200190815260200160002060008573ffffffffffffffffffffffffffffffffffffffff1673ffffffffffffffffffffffffffffffffffffffff168152602001908152602001600020549050600260038111156142585761425761a23e565b5b60ff16601a60009054906101000a900473ffffffffffffffffffffffffffffffffffffffff1673ffffffffffffffffffffffffffffffffffffffff166345fa8aae836040518263ffffffff1660e01b81526004016142b69190619cba565b602060405180830381865afa1580156142d3573d6000803e3d6000fd5b505050506040513d601f19601f820116820180604052508101906142f7919061b0db565b60038111156143095761430861a23e565b5b60ff16036143215760018661431e919061b016565b95505b505b5b5050508080600101915050613dca565b50600f54810361434857600191505061434e565b60009150505b919050565b6037602052816000526040600020602052806000526040600020600091509150505481565b60008073ffffffffffffffffffffffffffffffffffffffff168273ffffffffffffffffffffffffffffffffffffffff16036143e8576040517f08c379a00000000000000000000000000000000000000000000000000000000081526004016143df9061b46d565b60405180910390fd5b601c60149054906101000a900460ff1615614564576000601760008473ffffffffffffffffffffffffffffffffffffffff1673ffffffffffffffffffffffffffffffffffffffff16815260200190815260200160002060009054906101000a900473ffffffffffffffffffffffffffffffffffffffff16905060008173ffffffffffffffffffffffffffffffffffffffff1663feaf968c6040518163ffffffff1660e01b815260040160a060405180830381865afa1580156144ae573d6000803e3d6000fd5b505050506040513d601f19601f820116820180604052508101906144d2919061bb10565b50505091505060008273ffffffffffffffffffffffffffffffffffffffff1663313ce5676040518163ffffffff1660e01b8152600401602060405180830381865afa158015614525573d6000803e3d6000fd5b505050506040513d601f19601f82011682018060405250810190614549919061bba0565b905061455782826012618bba565b9150819350505050614650565b6000601a60009054906101000a900473ffffffffffffffffffffffffffffffffffffffff1673ffffffffffffffffffffffffffffffffffffffff1663a377cfbf84601b60009054906101000a900473ffffffffffffffffffffffffffffffffffffffff166040518363ffffffff1660e01b81526004016145e592919061bbcd565b6040805180830381865afa158015614601573d6000803e3d6000fd5b505050506040513d601f19601f82011682018060405250810190614625919061bc5b565b905060006146488260000151602060009054906101000a900460ff166012618bba565b905080925050505b919050565b600860009054906101000a900473ffffffffffffffffffffffffffffffffffffffff1673ffffffffffffffffffffffffffffffffffffffff163373ffffffffffffffffffffffffffffffffffffffff1614806146fe5750600a60009054906101000a900473ffffffffffffffffffffffffffffffffffffffff1673ffffffffffffffffffffffffffffffffffffffff163373ffffffffffffffffffffffffffffffffffffffff16145b806147565750600960009054906101000a900473ffffffffffffffffffffffffffffffffffffffff1673ffffffffffffffffffffffffffffffffffffffff163373ffffffffffffffffffffffffffffffffffffffff16145b614795576040517f08c379a000000000000000000000000000000000000000000000000000000000815260040161478c9061b096565b60405180910390fd5b80602d6000848152602001908152602001600020819055505050565b600860009054906101000a900473ffffffffffffffffffffffffffffffffffffffff1673ffffffffffffffffffffffffffffffffffffffff163373ffffffffffffffffffffffffffffffffffffffff16148061485a5750600a60009054906101000a900473ffffffffffffffffffffffffffffffffffffffff1673ffffffffffffffffffffffffffffffffffffffff163373ffffffffffffffffffffffffffffffffffffffff16145b806148b25750600960009054906101000a900473ffffffffffffffffffffffffffffffffffffffff1673ffffffffffffffffffffffffffffffffffffffff163373ffffffffffffffffffffffffffffffffffffffff16145b6148f1576040517f08c379a00000000000000000000000000000000000000000000000000000000081526004016148e89061b096565b60405180910390fd5b60008111614934576040517f08c379a000000000000000000000000000000000000000000000000000000000815260040161492b9061bcfa565b60405180910390fd5b600073ffffffffffffffffffffffffffffffffffffffff168273ffffffffffffffffffffffffffffffffffffffff16036149a3576040517f08c379a000000000000000000000000000000000000000000000000000000000815260040161499a9061b251565b60405180910390fd5b806037600085815260200190815260200160002060008473ffffffffffffffffffffffffffffffffffffffff1673ffffffffffffffffffffffffffffffffffffffff16815260200190815260200160002081905550505050565b614a0561899f565b614a0f6000618caf565b565b60226020528060005260406000206000915054906101000a900460ff1681565b602f6020528060005260406000206000915054906101000a900473ffffffffffffffffffffffffffffffffffffffff1681565b600860009054906101000a900473ffffffffffffffffffffffffffffffffffffffff1673ffffffffffffffffffffffffffffffffffffffff163373ffffffffffffffffffffffffffffffffffffffff161480614b0d5750600a60009054906101000a900473ffffffffffffffffffffffffffffffffffffffff1673ffffffffffffffffffffffffffffffffffffffff163373ffffffffffffffffffffffffffffffffffffffff16145b80614b655750600960009054906101000a900473ffffffffffffffffffffffffffffffffffffffff1673ffffffffffffffffffffffffffffffffffffffff163373ffffffffffffffffffffffffffffffffffffffff16145b614ba4576040517f08c379a0000000000000000000000000000000000000000000000000000000008152600401614b9b9061b096565b60405180910390fd5b6001601f6000828254614bb7919061b016565b92505081905550565b600860009054906101000a900473ffffffffffffffffffffffffffffffffffffffff1673ffffffffffffffffffffffffffffffffffffffff163373ffffffffffffffffffffffffffffffffffffffff161480614c695750600a60009054906101000a900473ffffffffffffffffffffffffffffffffffffffff1673ffffffffffffffffffffffffffffffffffffffff163373ffffffffffffffffffffffffffffffffffffffff16145b80614cc15750600960009054906101000a900473ffffffffffffffffffffffffffffffffffffffff1673ffffffffffffffffffffffffffffffffffffffff163373ffffffffffffffffffffffffffffffffffffffff16145b614d00576040517f08c379a0000000000000000000000000000000000000000000000000000000008152600401614cf79061b096565b60405180910390fd5b60008111614d43576040517f08c379a0000000000000000000000000000000000000000000000000000000008152600401614d3a9061bd66565b60405180910390fd5b600073ffffffffffffffffffffffffffffffffffffffff168273ffffffffffffffffffffffffffffffffffffffff1603614db2576040517f08c379a0000000000000000000000000000000000000000000000000000000008152600401614da99061b251565b60405180910390fd5b806024600085815260200190815260200160002060008473ffffffffffffffffffffffffffffffffffffffff1673ffffffffffffffffffffffffffffffffffffffff16815260200190815260200160002081905550505050565b601b60149054906101000a900460ff1681565b60306020528060005260406000206000915054906101000a900460ff1681565b600080614f6060068054614e529061b9ce565b80601f0160208091040260200160405190810160405280929190818152602001828054614e7e9061b9ce565b8015614ecb5780601f10614ea057610100808354040283529160200191614ecb565b820191906000526020600020905b815481529060010190602001808311614eae57829003601f168201915b505050505060078054614edd9061b9ce565b80601f0160208091040260200160405190810160405280929190818152602001828054614f099061b9ce565b8015614f565780601f10614f2b57610100808354040283529160200191614f56565b820191906000526020600020905b815481529060010190602001808311614f3957829003601f168201915b5050505050611e6d565b90506000614f78600b543063f14bea2060e01b618d86565b9050614fc46040518060400160405280600381526020017f67657400000000000000000000000000000000000000000000000000000000008152508383618db79092919063ffffffff16565b6150436040518060400160405280600581526020017f70617468310000000000000000000000000000000000000000000000000000008152506040518060400160405280601181526020017f726573756c74732c61646472657373657300000000000000000000000000000081525083618db79092919063ffffffff16565b6150c26040518060400160405280600581526020017f70617468320000000000000000000000000000000000000000000000000000008152506040518060400160405280601481526020017f726573756c74732c6d61726b657453686172657300000000000000000000000081525083618db79092919063ffffffff16565b6150d66150cd618dea565b82600c54618e14565b9250505090565b600860009054906101000a900473ffffffffffffffffffffffffffffffffffffffff1673ffffffffffffffffffffffffffffffffffffffff163373ffffffffffffffffffffffffffffffffffffffff1614806151865750600a60009054906101000a900473ffffffffffffffffffffffffffffffffffffffff1673ffffffffffffffffffffffffffffffffffffffff163373ffffffffffffffffffffffffffffffffffffffff16145b806151de5750600960009054906101000a900473ffffffffffffffffffffffffffffffffffffffff1673ffffffffffffffffffffffffffffffffffffffff163373ffffffffffffffffffffffffffffffffffffffff16145b61521d576040517f08c379a00000000000000000000000000000000000000000000000000000000081526004016152149061b096565b60405180910390fd5b806030600084815260200190815260200160002060006101000a81548160ff0219169083151502179055505050565b600860009054906101000a900473ffffffffffffffffffffffffffffffffffffffff1673ffffffffffffffffffffffffffffffffffffffff163373ffffffffffffffffffffffffffffffffffffffff1614806152f55750600a60009054906101000a900473ffffffffffffffffffffffffffffffffffffffff1673ffffffffffffffffffffffffffffffffffffffff163373ffffffffffffffffffffffffffffffffffffffff16145b8061534d5750600960009054906101000a900473ffffffffffffffffffffffffffffffffffffffff1673ffffffffffffffffffffffffffffffffffffffff163373ffffffffffffffffffffffffffffffffffffffff16145b61538c576040517f08c379a00000000000000000000000000000000000000000000000000000000081526004016153839061b096565b60405180910390fd5b600082116153cf576040517f08c379a00000000000000000000000000000000000000000000000000000000081526004016153c69061b2bd565b60405180910390fd5b806035600084815260200190815260200160002060008201518160000155602082015181600101559050505050565b601f5481565b60286020528060005260406000206000915090505481565b600960009054906101000a900473ffffffffffffffffffffffffffffffffffffffff1673ffffffffffffffffffffffffffffffffffffffff163373ffffffffffffffffffffffffffffffffffffffff16146154ac576040517f08c379a00000000000000000000000000000000000000000000000000000000081526004016154a39061bdd2565b60405180910390fd5b600e54600f8190555060005b600e548110156156215760006010600083815260200190815260200160002060009054906101000a900473ffffffffffffffffffffffffffffffffffffffff169050806011600084815260200190815260200160002060006101000a81548173ffffffffffffffffffffffffffffffffffffffff021916908373ffffffffffffffffffffffffffffffffffffffff160217905550601660008273ffffffffffffffffffffffffffffffffffffffff1673ffffffffffffffffffffffffffffffffffffffff16815260200190815260200160002054601560008373ffffffffffffffffffffffffffffffffffffffff1673ffffffffffffffffffffffffffffffffffffffff1681526020019081526020016000208190555081601460008373ffffffffffffffffffffffffffffffffffffffff1673ffffffffffffffffffffffffffffffffffffffff168152602001908152602001600020819055505080806001019150506154b8565b50565b6025602052816000526040600020602052806000526040600020600091509150505481565b60136020528060005260406000206000915090505481565b60008061566c618ee0565b90508060000160009054906101000a900473ffffffffffffffffffffffffffffffffffffffff1691505090565b600860009054906101000a900473ffffffffffffffffffffffffffffffffffffffff1673ffffffffffffffffffffffffffffffffffffffff163373ffffffffffffffffffffffffffffffffffffffff1614806157425750600a60009054906101000a900473ffffffffffffffffffffffffffffffffffffffff1673ffffffffffffffffffffffffffffffffffffffff163373ffffffffffffffffffffffffffffffffffffffff16145b8061579a5750600960009054906101000a900473ffffffffffffffffffffffffffffffffffffffff1673ffffffffffffffffffffffffffffffffffffffff163373ffffffffffffffffffffffffffffffffffffffff16145b6157d9576040517f08c379a00000000000000000000000000000000000000000000000000000000081526004016157d09061b096565b60405180910390fd5b806031600084815260200190815260200160002060006101000a81548160ff0219169083151502179055505050565b60146020528060005260406000206000915090505481565b602e6020528060005260406000206000915054906101000a900473ffffffffffffffffffffffffffffffffffffffff1681565b600860009054906101000a900473ffffffffffffffffffffffffffffffffffffffff1681565b601c60159054906101000a900460ff1681565b61589461899f565b80601c60146101000a81548160ff02191690831515021790555050565b60116020528060005260406000206000915054906101000a900473ffffffffffffffffffffffffffffffffffffffff1681565b600860009054906101000a900473ffffffffffffffffffffffffffffffffffffffff1673ffffffffffffffffffffffffffffffffffffffff163373ffffffffffffffffffffffffffffffffffffffff16148061598d5750600a60009054906101000a900473ffffffffffffffffffffffffffffffffffffffff1673ffffffffffffffffffffffffffffffffffffffff163373ffffffffffffffffffffffffffffffffffffffff16145b806159e55750600960009054906101000a900473ffffffffffffffffffffffffffffffffffffffff1673ffffffffffffffffffffffffffffffffffffffff163373ffffffffffffffffffffffffffffffffffffffff16145b615a24576040517f08c379a0000000000000000000000000000000000000000000000000000000008152600401615a1b9061b096565b60405180910390fd5b80602c6000848152602001908152602001600020819055505050565b600860009054906101000a900473ffffffffffffffffffffffffffffffffffffffff1673ffffffffffffffffffffffffffffffffffffffff163373ffffffffffffffffffffffffffffffffffffffff161480615ae95750600a60009054906101000a900473ffffffffffffffffffffffffffffffffffffffff1673ffffffffffffffffffffffffffffffffffffffff163373ffffffffffffffffffffffffffffffffffffffff16145b80615b415750600960009054906101000a900473ffffffffffffffffffffffffffffffffffffffff1673ffffffffffffffffffffffffffffffffffffffff163373ffffffffffffffffffffffffffffffffffffffff16145b615b80576040517f08c379a0000000000000000000000000000000000000000000000000000000008152600401615b779061b096565b60405180910390fd5b600073ffffffffffffffffffffffffffffffffffffffff168273ffffffffffffffffffffffffffffffffffffffff1603615bef576040517f08c379a0000000000000000000000000000000000000000000000000000000008152600401615be69061be64565b60405180910390fd5b80602a600085815260200190815260200160002060008473ffffffffffffffffffffffffffffffffffffffff1673ffffffffffffffffffffffffffffffffffffffff16815260200190815260200160002081905550505050565b60346020528060005260406000206000915090505481565b601e5481565b6036602052816000526040600020602052806000526040600020600091509150505481565b60008073ffffffffffffffffffffffffffffffffffffffff168273ffffffffffffffffffffffffffffffffffffffff1603615cfc576040517f08c379a0000000000000000000000000000000000000000000000000000000008152600401615cf39061b46d565b60405180910390fd5b6000601260008473ffffffffffffffffffffffffffffffffffffffff1673ffffffffffffffffffffffffffffffffffffffff16815260200190815260200160002060009054906101000a900473ffffffffffffffffffffffffffffffffffffffff16905060008173ffffffffffffffffffffffffffffffffffffffff166370a08231601960009054906101000a900473ffffffffffffffffffffffffffffffffffffffff166040518263ffffffff1660e01b8152600401615dbd9190619e1c565b602060405180830381865afa158015615dda573d6000803e3d6000fd5b505050506040513d601f19601f82011682018060405250810190615dfe919061ba6b565b90508173ffffffffffffffffffffffffffffffffffffffff16634cdad506826040518263ffffffff1660e01b8152600401615e399190619cba565b602060405180830381865afa158015615e56573d6000803e3d6000fd5b505050506040513d601f19601f82011682018060405250810190615e7a919061ba6b565b92505050919050565b602b602052816000526040600020602052806000526040600020600091509150505481565b615eb061899f565b8160069081615ebf919061c026565b508060079081615ecf919061c026565b505050565b60216020528060005260406000206000915054906101000a900460ff1681565b60296020528060005260406000206000915090505481565b600b5481565b60236020528060005260406000206000915090505481565b615f3261899f565b615f3c8282618f08565b5050565b6000805b600f548110156160c35760006011600083815260200190815260200160002060009054906101000a900473ffffffffffffffffffffffffffffffffffffffff16905060006026600086815260200190815260200160002060008373ffffffffffffffffffffffffffffffffffffffff1673ffffffffffffffffffffffffffffffffffffffff16815260200190815260200160002054905060016003811115615fef57615fee61a23e565b5b60ff16601a60009054906101000a900473ffffffffffffffffffffffffffffffffffffffff1673ffffffffffffffffffffffffffffffffffffffff166345fa8aae836040518263ffffffff1660e01b815260040161604d9190619cba565b602060405180830381865afa15801561606a573d6000803e3d6000fd5b505050506040513d601f19601f8201168201806040525081019061608e919061b0db565b60038111156160a05761609f61a23e565b5b60ff16036160b457600193505050506160c9565b50508080600101915050615f44565b50600090505b919050565b6160d6619b55565b6040518061014001604052804267ffffffffffffffff1681526020013073ffffffffffffffffffffffffffffffffffffffff168152602001601860009054906101000a900473ffffffffffffffffffffffffffffffffffffffff1673ffffffffffffffffffffffffffffffffffffffff168152602001601b60009054906101000a900473ffffffffffffffffffffffffffffffffffffffff1673ffffffffffffffffffffffffffffffffffffffff1681526020018315158152602001600060018111156161a6576161a561a23e565b5b8152602001836161b75760006161c2565b68056bc75e2d631000005b68ffffffffffffffffff168152602001836161e65768056bc75e2d631000006161e9565b60005b68ffffffffffffffffff16815260200160008152602001600160038111156162145761621361a23e565b5b8152509050919050565b602c6020528060005260406000206000915090505481565b602060019054906101000a900473ffffffffffffffffffffffffffffffffffffffff1681565b61626461899f565b80518251146162a8576040517f08c379a000000000000000000000000000000000000000000000000000000000815260040161629f9061b8e4565b60405180910390fd5b60005b8251811015616373578181815181106162c7576162c661b904565b5b6020026020010151601260008584815181106162e6576162e561b904565b5b602002602001015173ffffffffffffffffffffffffffffffffffffffff1673ffffffffffffffffffffffffffffffffffffffff16815260200190815260200160002060006101000a81548173ffffffffffffffffffffffffffffffffffffffff021916908373ffffffffffffffffffffffffffffffffffffffff16021790555080806001019150506162ab565b505050565b60316020528060005260406000206000915054906101000a900460ff1681565b60008060005b600f548110156169085760006011600083815260200190815260200160002060009054906101000a900473ffffffffffffffffffffffffffffffffffffffff16905060006027600087815260200190815260200160002060008373ffffffffffffffffffffffffffffffffffffffff1673ffffffffffffffffffffffffffffffffffffffff1681526020019081526020016000205490506000601a60009054906101000a900473ffffffffffffffffffffffffffffffffffffffff1673ffffffffffffffffffffffffffffffffffffffff166361ecbb44836040518263ffffffff1660e01b81526004016164929190619cba565b602060405180830381865afa1580156164af573d6000803e3d6000fd5b505050506040513d601f19601f820116820180604052508101906164d3919061ba6b565b90506003808111156164e8576164e761a23e565b5b60ff16601a60009054906101000a900473ffffffffffffffffffffffffffffffffffffffff1673ffffffffffffffffffffffffffffffffffffffff166345fa8aae846040518263ffffffff1660e01b81526004016165469190619cba565b602060405180830381865afa158015616563573d6000803e3d6000fd5b505050506040513d601f19601f82011682018060405250810190616587919061b0db565b60038111156165995761659861a23e565b5b60ff16036166f657600081036165bd576001856165b6919061b016565b94506166f1565b60006025600089815260200190815260200160002060008573ffffffffffffffffffffffffffffffffffffffff1673ffffffffffffffffffffffffffffffffffffffff168152602001908152602001600020549050600260038111156166265761662561a23e565b5b60ff16601a60009054906101000a900473ffffffffffffffffffffffffffffffffffffffff1673ffffffffffffffffffffffffffffffffffffffff166345fa8aae836040518263ffffffff1660e01b81526004016166849190619cba565b602060405180830381865afa1580156166a1573d6000803e3d6000fd5b505050506040513d601f19601f820116820180604052508101906166c5919061b0db565b60038111156166d7576166d661a23e565b5b60ff16036166ef576001866166ec919061b016565b95505b505b6168f8565b6002600381111561670a5761670961a23e565b5b60ff16601a60009054906101000a900473ffffffffffffffffffffffffffffffffffffffff1673ffffffffffffffffffffffffffffffffffffffff166345fa8aae846040518263ffffffff1660e01b81526004016167689190619cba565b602060405180830381865afa158015616785573d6000803e3d6000fd5b505050506040513d601f19601f820116820180604052508101906167a9919061b0db565b60038111156167bb576167ba61a23e565b5b60ff16036168f75760006025600089815260200190815260200160002060008573ffffffffffffffffffffffffffffffffffffffff1673ffffffffffffffffffffffffffffffffffffffff1681526020019081526020016000205490506002600381111561682c5761682b61a23e565b5b60ff16601a60009054906101000a900473ffffffffffffffffffffffffffffffffffffffff1673ffffffffffffffffffffffffffffffffffffffff166345fa8aae836040518263ffffffff1660e01b815260040161688a9190619cba565b602060405180830381865afa1580156168a7573d6000803e3d6000fd5b505050506040513d601f19601f820116820180604052508101906168cb919061b0db565b60038111156168dd576168dc61a23e565b5b60ff16036168f5576001866168f2919061b016565b95505b505b5b505050808060010191505061639e565b50600f54810361691c576001915050616922565b60009150505b919050565b60008060005b600f548110156169935760006169756011600084815260200190815260200160002060009054906101000a900473ffffffffffffffffffffffffffffffffffffffff16618398565b90508083616983919061b016565b925050808060010191505061692d565b508091505090565b60006169a561899f565b600073ffffffffffffffffffffffffffffffffffffffff168273ffffffffffffffffffffffffffffffffffffffff1603616a14576040517f08c379a0000000000000000000000000000000000000000000000000000000008152600401616a0b9061c144565b60405180910390fd5b81601c60006101000a81548173ffffffffffffffffffffffffffffffffffffffff021916908373ffffffffffffffffffffffffffffffffffffffff16021790555060019050919050565b600860009054906101000a900473ffffffffffffffffffffffffffffffffffffffff1673ffffffffffffffffffffffffffffffffffffffff163373ffffffffffffffffffffffffffffffffffffffff161480616b075750600a60009054906101000a900473ffffffffffffffffffffffffffffffffffffffff1673ffffffffffffffffffffffffffffffffffffffff163373ffffffffffffffffffffffffffffffffffffffff16145b80616b5f5750600960009054906101000a900473ffffffffffffffffffffffffffffffffffffffff1673ffffffffffffffffffffffffffffffffffffffff163373ffffffffffffffffffffffffffffffffffffffff16145b616b9e576040517f08c379a0000000000000000000000000000000000000000000000000000000008152600401616b959061b096565b60405180910390fd5b60008111616be1576040517f08c379a0000000000000000000000000000000000000000000000000000000008152600401616bd89061c1b0565b60405180910390fd5b8060346000848152602001908152602001600020819055505050565b600e5481565b6000808211616c47576040517f08c379a0000000000000000000000000000000000000000000000000000000008152600401616c3e9061af34565b60405180910390fd5b6000616c51616927565b90506000601860009054906101000a900473ffffffffffffffffffffffffffffffffffffffff1673ffffffffffffffffffffffffffffffffffffffff166318160ddd6040518163ffffffff1660e01b8152600401602060405180830381865afa158015616cc2573d6000803e3d6000fd5b505050506040513d601f19601f82011682018060405250810190616ce6919061ba6b565b90506000828286616cf7919061c1d0565b616d01919061b6d7565b9050809350505050919050565b600d5481565b600960009054906101000a900473ffffffffffffffffffffffffffffffffffffffff1681565b60336020528060005260406000206000915090505481565b600860009054906101000a900473ffffffffffffffffffffffffffffffffffffffff1673ffffffffffffffffffffffffffffffffffffffff163373ffffffffffffffffffffffffffffffffffffffff161480616dfb5750600a60009054906101000a900473ffffffffffffffffffffffffffffffffffffffff1673ffffffffffffffffffffffffffffffffffffffff163373ffffffffffffffffffffffffffffffffffffffff16145b80616e535750600960009054906101000a900473ffffffffffffffffffffffffffffffffffffffff1673ffffffffffffffffffffffffffffffffffffffff163373ffffffffffffffffffffffffffffffffffffffff16145b616e92576040517f08c379a0000000000000000000000000000000000000000000000000000000008152600401616e899061b096565b60405180910390fd5b806021600084815260200190815260200160002060006101000a81548160ff0219169083151502179055505050565b600860009054906101000a900473ffffffffffffffffffffffffffffffffffffffff1673ffffffffffffffffffffffffffffffffffffffff163373ffffffffffffffffffffffffffffffffffffffff161480616f6a5750600a60009054906101000a900473ffffffffffffffffffffffffffffffffffffffff1673ffffffffffffffffffffffffffffffffffffffff163373ffffffffffffffffffffffffffffffffffffffff16145b80616fc25750600960009054906101000a900473ffffffffffffffffffffffffffffffffffffffff1673ffffffffffffffffffffffffffffffffffffffff163373ffffffffffffffffffffffffffffffffffffffff16145b617001576040517f08c379a0000000000000000000000000000000000000000000000000000000008152600401616ff89061b096565b60405180910390fd5b60008111617044576040517f08c379a000000000000000000000000000000000000000000000000000000000815260040161703b9061c25e565b60405180910390fd5b60008211617087576040517f08c379a000000000000000000000000000000000000000000000000000000000815260040161707e9061b2bd565b60405180910390fd5b8060286000848152602001908152602001600020819055505050565b600860009054906101000a900473ffffffffffffffffffffffffffffffffffffffff1673ffffffffffffffffffffffffffffffffffffffff163373ffffffffffffffffffffffffffffffffffffffff16148061714c5750600a60009054906101000a900473ffffffffffffffffffffffffffffffffffffffff1673ffffffffffffffffffffffffffffffffffffffff163373ffffffffffffffffffffffffffffffffffffffff16145b806171a45750600960009054906101000a900473ffffffffffffffffffffffffffffffffffffffff1673ffffffffffffffffffffffffffffffffffffffff163373ffffffffffffffffffffffffffffffffffffffff16145b6171e3576040517f08c379a00000000000000000000000000000000000000000000000000000000081526004016171da9061b096565b60405180910390fd5b600073ffffffffffffffffffffffffffffffffffffffff168173ffffffffffffffffffffffffffffffffffffffff1603617252576040517f08c379a00000000000000000000000000000000000000000000000000000000081526004016172499061c2f0565b60405180910390fd5b80602f600084815260200190815260200160002060006101000a81548173ffffffffffffffffffffffffffffffffffffffff021916908373ffffffffffffffffffffffffffffffffffffffff1602179055505050565b60006172b26191e3565b905060008160000160089054906101000a900460ff1615905060008260000160009054906101000a900467ffffffffffffffff1690506000808267ffffffffffffffff161480156173005750825b9050600060018367ffffffffffffffff16148015617335575060003073ffffffffffffffffffffffffffffffffffffffff163b145b905081158015617343575080155b1561737a576040517ff92ee8a900000000000000000000000000000000000000000000000000000000815260040160405180910390fd5b60018560000160006101000a81548167ffffffffffffffff021916908367ffffffffffffffff16021790555083156173ca5760018560000160086101000a81548160ff0219169083151502179055505b600073ffffffffffffffffffffffffffffffffffffffff168e73ffffffffffffffffffffffffffffffffffffffff1603617439576040517f08c379a00000000000000000000000000000000000000000000000000000000081526004016174309061b878565b60405180910390fd5b600073ffffffffffffffffffffffffffffffffffffffff168d73ffffffffffffffffffffffffffffffffffffffff16036174a8576040517f08c379a000000000000000000000000000000000000000000000000000000000815260040161749f9061b46d565b60405180910390fd5b600073ffffffffffffffffffffffffffffffffffffffff168c73ffffffffffffffffffffffffffffffffffffffff1603617517576040517f08c379a000000000000000000000000000000000000000000000000000000000815260040161750e9061c35c565b60405180910390fd5b600073ffffffffffffffffffffffffffffffffffffffff168b73ffffffffffffffffffffffffffffffffffffffff1603617586576040517f08c379a000000000000000000000000000000000000000000000000000000000815260040161757d9061c3c8565b60405180910390fd5b60008a60ff16116175cc576040517f08c379a00000000000000000000000000000000000000000000000000000000081526004016175c39061b510565b60405180910390fd5b600073ffffffffffffffffffffffffffffffffffffffff168973ffffffffffffffffffffffffffffffffffffffff160361763b576040517f08c379a00000000000000000000000000000000000000000000000000000000081526004016176329061c434565b60405180910390fd5b600073ffffffffffffffffffffffffffffffffffffffff168873ffffffffffffffffffffffffffffffffffffffff16036176aa576040517f08c379a00000000000000000000000000000000000000000000000000000000081526004016176a19061b57c565b60405180910390fd5b6000602060ff16116176f1576040517f08c379a00000000000000000000000000000000000000000000000000000000081526004016176e89061b5e8565b60405180910390fd5b8d601a60006101000a81548173ffffffffffffffffffffffffffffffffffffffff021916908373ffffffffffffffffffffffffffffffffffffffff1602179055508c601860006101000a81548173ffffffffffffffffffffffffffffffffffffffff021916908373ffffffffffffffffffffffffffffffffffffffff1602179055508b601960006101000a81548173ffffffffffffffffffffffffffffffffffffffff021916908373ffffffffffffffffffffffffffffffffffffffff1602179055508a601b60006101000a81548173ffffffffffffffffffffffffffffffffffffffff021916908373ffffffffffffffffffffffffffffffffffffffff16021790555089601b60146101000a81548160ff021916908360ff1602179055506178193361920b565b6178228961921f565b61782b88618b76565b86600b81905550600a670de0b6b3a76400006001617849919061c1d0565b617853919061b6d7565b600c819055506040518060600160405280602a815260200161cf1c602a913960069081617880919061c026565b506040518060600160405280602e815260200161cf46602e9139600790816178a8919061c026565b5085601c60146101000a81548160ff021916908315150217905550600a601c60156101000a81548160ff021916908360ff16021790555033602060016101000a81548173ffffffffffffffffffffffffffffffffffffffff021916908373ffffffffffffffffffffffffffffffffffffffff160217905550831561797c5760008560000160086101000a81548160ff0219169083151502179055507fc7f505b2f371ae2175ee4913f4499e1f2633a7b5936321eed1cdaeb6115181d26001604051617973919061c48f565b60405180910390a15b5050505050505050505050505050565b61799461899f565b600073ffffffffffffffffffffffffffffffffffffffff168173ffffffffffffffffffffffffffffffffffffffff1603617a03576040517f08c379a00000000000000000000000000000000000000000000000000000000081526004016179fa9061c4f6565b60405180910390fd5b80600960006101000a81548173ffffffffffffffffffffffffffffffffffffffff021916908373ffffffffffffffffffffffffffffffffffffffff16021790555050565b602a602052816000526040600020602052806000526040600020600091509150505481565b602d6020528060005260406000206000915090505481565b600860009054906101000a900473ffffffffffffffffffffffffffffffffffffffff1673ffffffffffffffffffffffffffffffffffffffff163373ffffffffffffffffffffffffffffffffffffffff161480617b2d5750600a60009054906101000a900473ffffffffffffffffffffffffffffffffffffffff1673ffffffffffffffffffffffffffffffffffffffff163373ffffffffffffffffffffffffffffffffffffffff16145b80617b855750600960009054906101000a900473ffffffffffffffffffffffffffffffffffffffff1673ffffffffffffffffffffffffffffffffffffffff163373ffffffffffffffffffffffffffffffffffffffff16145b617bc4576040517f08c379a0000000000000000000000000000000000000000000000000000000008152600401617bbb9061b096565b60405180910390fd5b600073ffffffffffffffffffffffffffffffffffffffff168173ffffffffffffffffffffffffffffffffffffffff1603617c33576040517f08c379a0000000000000000000000000000000000000000000000000000000008152600401617c2a9061c588565b60405180910390fd5b80602e600084815260200190815260200160002060006101000a81548173ffffffffffffffffffffffffffffffffffffffff021916908373ffffffffffffffffffffffffffffffffffffffff1602179055505050565b6000808211617ccd576040517f08c379a0000000000000000000000000000000000000000000000000000000008152600401617cc49061af34565b60405180910390fd5b6000805b600f54811015617e765760006011600083815260200190815260200160002060009054906101000a900473ffffffffffffffffffffffffffffffffffffffff169050600068056bc75e2d63100000601560008473ffffffffffffffffffffffffffffffffffffffff1673ffffffffffffffffffffffffffffffffffffffff1681526020019081526020016000205487617d6a919061c1d0565b617d74919061b6d7565b9050600080601a60009054906101000a900473ffffffffffffffffffffffffffffffffffffffff1673ffffffffffffffffffffffffffffffffffffffff1663236970d46000601b60009054906101000a900473ffffffffffffffffffffffffffffffffffffffff166040518363ffffffff1660e01b8152600401617df992919061af54565b6040805180830381865afa158015617e15573d6000803e3d6000fd5b505050506040513d601f19601f82011682018060405250810190617e39919061afa7565b915091506000617e498285618a26565b83617e54919061b016565b90508087617e62919061b016565b965050505050508080600101915050617cd1565b5080915050919050565b6000808211617ec4576040517f08c379a0000000000000000000000000000000000000000000000000000000008152600401617ebb9061af34565b60405180910390fd5b6000617ece616927565b90506000601860009054906101000a900473ffffffffffffffffffffffffffffffffffffffff1673ffffffffffffffffffffffffffffffffffffffff166318160ddd6040518163ffffffff1660e01b8152600401602060405180830381865afa158015617f3f573d6000803e3d6000fd5b505050506040513d601f19601f82011682018060405250810190617f63919061ba6b565b90506000818386617f74919061c1d0565b617f7e919061b6d7565b9050809350505050919050565b60078054617f989061b9ce565b80601f0160208091040260200160405190810160405280929190818152602001828054617fc49061b9ce565b80156180115780601f10617fe657610100808354040283529160200191618011565b820191906000526020600020905b815481529060010190602001808311617ff457829003601f168201915b505050505081565b600860009054906101000a900473ffffffffffffffffffffffffffffffffffffffff1673ffffffffffffffffffffffffffffffffffffffff163373ffffffffffffffffffffffffffffffffffffffff1614806180c25750600a60009054906101000a900473ffffffffffffffffffffffffffffffffffffffff1673ffffffffffffffffffffffffffffffffffffffff163373ffffffffffffffffffffffffffffffffffffffff16145b8061811a5750600960009054906101000a900473ffffffffffffffffffffffffffffffffffffffff1673ffffffffffffffffffffffffffffffffffffffff163373ffffffffffffffffffffffffffffffffffffffff16145b618159576040517f08c379a00000000000000000000000000000000000000000000000000000000081526004016181509061b096565b60405180910390fd5b6000811161819c576040517f08c379a00000000000000000000000000000000000000000000000000000000081526004016181939061c5f4565b60405180910390fd5b8060336000848152602001908152602001600020819055505050565b60006181c261899f565b600073ffffffffffffffffffffffffffffffffffffffff168373ffffffffffffffffffffffffffffffffffffffff1603618231576040517f08c379a00000000000000000000000000000000000000000000000000000000081526004016182289061b46d565b60405180910390fd5b60008260ff1611618277576040517f08c379a000000000000000000000000000000000000000000000000000000000815260040161826e9061b510565b60405180910390fd5b82601b60006101000a81548173ffffffffffffffffffffffffffffffffffffffff021916908373ffffffffffffffffffffffffffffffffffffffff16021790555081601b60146101000a81548160ff021916908360ff1602179055506001905092915050565b6182e561899f565b600073ffffffffffffffffffffffffffffffffffffffff168173ffffffffffffffffffffffffffffffffffffffff1603618354576040517f08c379a000000000000000000000000000000000000000000000000000000000815260040161834b9061c660565b60405180910390fd5b80602060016101000a81548173ffffffffffffffffffffffffffffffffffffffff021916908373ffffffffffffffffffffffffffffffffffffffff16021790555050565b60008073ffffffffffffffffffffffffffffffffffffffff168273ffffffffffffffffffffffffffffffffffffffff1603618408576040517f08c379a00000000000000000000000000000000000000000000000000000000081526004016183ff9061b46d565b60405180910390fd5b600061841383614378565b9050600061842084615c8c565b9050670de0b6b3a76400008282618437919061c1d0565b618441919061b6d7565b92505050919050565b826005600082815260200190815260200160002060009054906101000a900473ffffffffffffffffffffffffffffffffffffffff1673ffffffffffffffffffffffffffffffffffffffff163373ffffffffffffffffffffffffffffffffffffffff16146184ec576040517f08c379a00000000000000000000000000000000000000000000000000000000081526004016184e39061c6f2565b60405180910390fd5b6005600082815260200190815260200160002060006101000a81549073ffffffffffffffffffffffffffffffffffffffff0219169055807f7cc135e0cebb02c3480ae5d74d377283180a2601f8f644edf7987b009316c63a60405160405180910390a26000602060ff1611618596576040517f08c379a000000000000000000000000000000000000000000000000000000000815260040161858d9061c75e565b60405180910390fd5b60008351116185da576040517f08c379a00000000000000000000000000000000000000000000000000000000081526004016185d19061c7ca565b60405180910390fd5b600082511161861e576040517f08c379a00000000000000000000000000000000000000000000000000000000081526004016186159061c836565b60405180910390fd5b6186288383618f08565b50505050565b618636619b55565b60008211618679576040517f08c379a00000000000000000000000000000000000000000000000000000000081526004016186709061b2bd565b60405180910390fd5b60326000838152602001908152602001600020604051806101400160405290816000820160009054906101000a900467ffffffffffffffff1667ffffffffffffffff1667ffffffffffffffff1681526020016000820160089054906101000a900473ffffffffffffffffffffffffffffffffffffffff1673ffffffffffffffffffffffffffffffffffffffff1673ffffffffffffffffffffffffffffffffffffffff1681526020016001820160009054906101000a900473ffffffffffffffffffffffffffffffffffffffff1673ffffffffffffffffffffffffffffffffffffffff1673ffffffffffffffffffffffffffffffffffffffff1681526020016002820160009054906101000a900473ffffffffffffffffffffffffffffffffffffffff1673ffffffffffffffffffffffffffffffffffffffff1673ffffffffffffffffffffffffffffffffffffffff1681526020016002820160149054906101000a900460ff161515151581526020016002820160159054906101000a900460ff16600181111561880c5761880b61a23e565b5b600181111561881e5761881d61a23e565b5b81526020016003820154815260200160048201548152602001600582015481526020016006820160009054906101000a900460ff1660038111156188655761886461a23e565b5b60038111156188775761887661a23e565b5b815250509050919050565b61888a61899f565b600073ffffffffffffffffffffffffffffffffffffffff168173ffffffffffffffffffffffffffffffffffffffff16036188fc5760006040517f1e4fbdf70000000000000000000000000000000000000000000000000000000081526004016188f39190619e1c565b60405180910390fd5b61890581618caf565b50565b6027602052816000526040600020602052806000526040600020600091509150505481565b601c60009054906101000a900473ffffffffffffffffffffffffffffffffffffffff1681565b601960009054906101000a900473ffffffffffffffffffffffffffffffffffffffff1681565b601860009054906101000a900473ffffffffffffffffffffffffffffffffffffffff1681565b6189a7619263565b73ffffffffffffffffffffffffffffffffffffffff166189c5615661565b73ffffffffffffffffffffffffffffffffffffffff1614618a24576189e8619263565b6040517f118cdaa7000000000000000000000000000000000000000000000000000000008152600401618a1b9190619e1c565b60405180910390fd5b565b6000808362ffffff1603618a3b576000618a54565b618a53828462ffffff16620f424062ffffff1661926b565b5b905092915050565b6000806000801985870985870292508281108382030391505060008103618a9757838281618a8d57618a8c61b6a8565b5b0492505050618b6f565b838110618adf578585856040517f63a05778000000000000000000000000000000000000000000000000000000008152600401618ad69392919061c856565b60405180910390fd5b60008486880990508281118203915080830392506000600186190186169050600081870496508185049450600182836000030401905080840285179450600060028860030218905080880260020381029050808802600203810290508088026002038102905080880260020381029050808802600203810290508088026002038102905080860296505050505050505b9392505050565b80600360006101000a81548173ffffffffffffffffffffffffffffffffffffffff021916908373ffffffffffffffffffffffffffffffffffffffff16021790555050565b600060128360ff161115618c03576040517f08c379a0000000000000000000000000000000000000000000000000000000008152600401618bfa9061c8ff565b60405180910390fd5b60128260ff161115618c4a576040517f08c379a0000000000000000000000000000000000000000000000000000000008152600401618c419061c991565b60405180910390fd5b8260ff168260ff161115618c82578282618c64919061c9b1565b600a618c70919061cb19565b84618c7b919061cb64565b9050618ca8565b8183618c8e919061c9b1565b600a618c9a919061cb19565b84618ca5919061cb64565b90505b9392505050565b6000618cb9618ee0565b905060008160000160009054906101000a900473ffffffffffffffffffffffffffffffffffffffff169050828260000160006101000a81548173ffffffffffffffffffffffffffffffffffffffff021916908373ffffffffffffffffffffffffffffffffffffffff1602179055508273ffffffffffffffffffffffffffffffffffffffff168173ffffffffffffffffffffffffffffffffffffffff167f8be0079c531659141344cd1fd0a4f28419497f9722a3daafe3b4186f6b6457e060405160405180910390a3505050565b618d8e619c1a565b618d96619c1a565b618dad85858584619385909392919063ffffffff16565b9150509392505050565b618dce82846080015161943590919063ffffffff16565b618de581846080015161943590919063ffffffff16565b505050565b6000600360009054906101000a900473ffffffffffffffffffffffffffffffffffffffff16905090565b6000806004549050600181618e29919061b016565b6004819055506000634042994660e01b60008087600001513089604001518760018c6080015160000151604051602401618e6a98979695949392919061cc61565b604051602081830303815290604052907bffffffffffffffffffffffffffffffffffffffffffffffffffffffff19166020820180517bffffffffffffffffffffffffffffffffffffffffffffffffffffffff83818316178352505050509050618ed58683868461945a565b925050509392505050565b60007f9016d09d72d40fdae2fd8ceac6b6234c7706214fd39c1cd1e609a0528c199300905090565b6000829050600082905060005b82518110156191ba57828181518110618f3157618f3061b904565b5b60200260200101516010600083815260200190815260200160002060006101000a81548173ffffffffffffffffffffffffffffffffffffffff021916908373ffffffffffffffffffffffffffffffffffffffff1602179055508060136000858481518110618fa257618fa161b904565b5b602002602001015173ffffffffffffffffffffffffffffffffffffffff1673ffffffffffffffffffffffffffffffffffffffff16815260200190815260200160002081905550818181518110618ffb57618ffa61b904565b5b60200260200101516016600085848151811061901a5761901961b904565b5b602002602001015173ffffffffffffffffffffffffffffffffffffffff1673ffffffffffffffffffffffffffffffffffffffff168152602001908152602001600020819055506000600f54036191ad5782818151811061907d5761907c61b904565b5b60200260200101516011600083815260200190815260200160002060006101000a81548173ffffffffffffffffffffffffffffffffffffffff021916908373ffffffffffffffffffffffffffffffffffffffff1602179055508181815181106190e9576190e861b904565b5b6020026020010151601560008584815181106191085761910761b904565b5b602002602001015173ffffffffffffffffffffffffffffffffffffffff1673ffffffffffffffffffffffffffffffffffffffff1681526020019081526020016000208190555080601460008584815181106191665761916561b904565b5b602002602001015173ffffffffffffffffffffffffffffffffffffffff1673ffffffffffffffffffffffffffffffffffffffff168152602001908152602001600020819055505b8080600101915050618f15565b508151600e819055506000600f54036191d6578151600f819055505b42600d8190555050505050565b60007ff0c57e16840df040f15088dc2f81fe391c3923bec73e23a9662efc9c229c6a00905090565b6192136195ef565b61921c8161962f565b50565b80600260006101000a81548173ffffffffffffffffffffffffffffffffffffffff021916908373ffffffffffffffffffffffffffffffffffffffff16021790555050565b600033905090565b60008060008019858709858702925082811083820303915050600081036192a65783828161929c5761929b61b6a8565b5b049250505061937e565b8381106192ee578585856040517f63a057780000000000000000000000000000000000000000000000000000000081526004016192e59392919061c856565b60405180910390fd5b60008486880990508281118203915080830392506000600186190186169050600081870496508185049450600182836000030401905080840285179450600060028860030218905080880260020381029050808802600203810290508088026002038102905080880260020381029050808802600203810290508088026002038102905080860296505050505050505b9392505050565b61938d619c1a565b61939d85608001516101006196b5565b508385600001818152505082856020019073ffffffffffffffffffffffffffffffffffffffff16908173ffffffffffffffffffffffffffffffffffffffff16815250508185604001907bffffffffffffffffffffffffffffffffffffffffffffffffffffffff191690817bffffffffffffffffffffffffffffffffffffffffffffffffffffffff191681525050849050949350505050565b619442826003835161971f565b61945581836198a490919063ffffffff16565b505050565b6000308460405160200161946f92919061cd61565b604051602081830303815290604052805190602001209050846005600083815260200190815260200160002060006101000a81548173ffffffffffffffffffffffffffffffffffffffff021916908373ffffffffffffffffffffffffffffffffffffffff160217905550807fb5e6e01e79f91267dc17b4e6314d5d4d03593d2ceee0fbb452b750bd70ea5af960405160405180910390a2600260009054906101000a900473ffffffffffffffffffffffffffffffffffffffff1673ffffffffffffffffffffffffffffffffffffffff16634000aea08685856040518463ffffffff1660e01b81526004016195659392919061cd8d565b6020604051808303816000875af1158015619584573d6000803e3d6000fd5b505050506040513d601f19601f820116820180604052508101906195a8919061cde0565b6195e7576040517f08c379a00000000000000000000000000000000000000000000000000000000081526004016195de9061ce7f565b60405180910390fd5b949350505050565b6195f76198c6565b61962d576040517fd7e6bcf800000000000000000000000000000000000000000000000000000000815260040160405180910390fd5b565b6196376195ef565b600073ffffffffffffffffffffffffffffffffffffffff168173ffffffffffffffffffffffffffffffffffffffff16036196a95760006040517f1e4fbdf70000000000000000000000000000000000000000000000000000000081526004016196a09190619e1c565b60405180910390fd5b6196b281618caf565b50565b6196bd619c87565b60006020836196cc919061ce9f565b146196f8576020826196de919061ce9f565b60206196ea919061b674565b826196f5919061b016565b91505b81836020018181525050604051808452600081528281016020016040525082905092915050565b60178167ffffffffffffffff1611619756576197508160058460ff16901b60ff1617846198e690919063ffffffff16565b5061989f565b60ff8167ffffffffffffffff16116197ac57619785601860058460ff16901b17846198e690919063ffffffff16565b506197a68167ffffffffffffffff166001856199069092919063ffffffff16565b5061989e565b61ffff8167ffffffffffffffff1611619803576197dc601960058460ff16901b17846198e690919063ffffffff16565b506197fd8167ffffffffffffffff166002856199069092919063ffffffff16565b5061989d565b63ffffffff8167ffffffffffffffff161161985c57619835601a60058460ff16901b17846198e690919063ffffffff16565b506198568167ffffffffffffffff166004856199069092919063ffffffff16565b5061989c565b619879601b60058460ff16901b17846198e690919063ffffffff16565b5061989a8167ffffffffffffffff166008856199069092919063ffffffff16565b505b5b5b5b505050565b6198ac619c87565b6198be83846000015151848551619928565b905092915050565b60006198d06191e3565b60000160089054906101000a900460ff16905090565b6198ee619c87565b6198fe8384600001515184619a17565b905092915050565b61990e619c87565b61991f848560000151518585619a6d565b90509392505050565b619930619c87565b825182111561993e57600080fd5b8460200151828561994f919061b016565b1115619984576199838560026199748860200151888761996f919061b016565b619afb565b61997e919061c1d0565b619b17565b5b6000808651805187602083010193508088870111156199a35787860182525b60208701925050505b602084106199ea57805182526020826199c5919061b016565b91506020816199d4919061b016565b90506020846199e3919061b674565b93506199ac565b60006001856020036101000a03905080198251168184511681811785525050508692505050949350505050565b619a1f619c87565b83602001518310619a4557619a448460028660200151619a3f919061c1d0565b619b17565b5b83518051602085830101848153818603619a60576001820183525b5050508390509392505050565b619a75619c87565b84602001518483619a86919061b016565b1115619aae57619aad8560028685619a9e919061b016565b619aa8919061c1d0565b619b17565b5b6000600183610100619ac0919061ced0565b619aca919061b674565b90508551838682010185831982511617815281518588011115619aed5784870182525b505085915050949350505050565b600081831115619b0d57829050619b11565b8190505b92915050565b600082600001519050619b2a83836196b5565b50619b3583826198a4565b50505050565b604051806040016040528060008152602001600081525090565b604051806101400160405280600067ffffffffffffffff168152602001600073ffffffffffffffffffffffffffffffffffffffff168152602001600073ffffffffffffffffffffffffffffffffffffffff168152602001600073ffffffffffffffffffffffffffffffffffffffff16815260200160001515815260200160006001811115619be657619be561a23e565b5b815260200160008152602001600081526020016000815260200160006003811115619c1457619c1361a23e565b5b81525090565b6040518060a0016040528060008019168152602001600073ffffffffffffffffffffffffffffffffffffffff16815260200160007bffffffffffffffffffffffffffffffffffffffffffffffffffffffff1916815260200160008152602001619c81619c87565b81525090565b604051806040016040528060608152602001600081525090565b6000819050919050565b619cb481619ca1565b82525050565b6000602082019050619ccf6000830184619cab565b92915050565b6000604051905090565b600080fd5b600080fd5b619cf281619ca1565b8114619cfd57600080fd5b50565b600081359050619d0f81619ce9565b92915050565b600073ffffffffffffffffffffffffffffffffffffffff82169050919050565b6000619d4082619d15565b9050919050565b619d5081619d35565b8114619d5b57600080fd5b50565b600081359050619d6d81619d47565b92915050565b60008060408385031215619d8a57619d89619cdf565b5b6000619d9885828601619d00565b9250506020619da985828601619d5e565b9150509250929050565b600060208284031215619dc957619dc8619cdf565b5b6000619dd784828501619d5e565b91505092915050565b600060208284031215619df657619df5619cdf565b5b6000619e0484828501619d00565b91505092915050565b619e1681619d35565b82525050565b6000602082019050619e316000830184619e0d565b92915050565b60008115159050919050565b619e4c81619e37565b8114619e5757600080fd5b50565b600081359050619e6981619e43565b92915050565b60008060408385031215619e8657619e85619cdf565b5b6000619e9485828601619d00565b9250506020619ea585828601619e5a565b9150509250929050565b619eb881619e37565b82525050565b6000602082019050619ed36000830184619eaf565b92915050565b600060ff82169050919050565b619eef81619ed9565b82525050565b6000602082019050619f0a6000830184619ee6565b92915050565b600080fd5b600080fd5b6000601f19601f8301169050919050565b7f4e487b7100000000000000000000000000000000000000000000000000000000600052604160045260246000fd5b619f6382619f1a565b810181811067ffffffffffffffff82111715619f8257619f81619f2b565b5b80604052505050565b6000619f95619cd5565b9050619fa18282619f5a565b919050565b600067ffffffffffffffff821115619fc157619fc0619f2b565b5b619fca82619f1a565b9050602081019050919050565b82818337600083830152505050565b6000619ff9619ff484619fa6565b619f8b565b90508281526020810184848401111561a0155761a014619f15565b5b61a020848285619fd7565b509392505050565b600082601f83011261a03d5761a03c619f10565b5b813561a04d848260208601619fe6565b91505092915050565b6000806040838503121561a06d5761a06c619cdf565b5b600083013567ffffffffffffffff81111561a08b5761a08a619ce4565b5b61a0978582860161a028565b925050602083013567ffffffffffffffff81111561a0b85761a0b7619ce4565b5b61a0c48582860161a028565b9150509250929050565b600081519050919050565b600082825260208201905092915050565b60005b8381101561a10857808201518184015260208101905061a0ed565b60008484015250505050565b600061a11f8261a0ce565b61a129818561a0d9565b935061a13981856020860161a0ea565b61a14281619f1a565b840191505092915050565b6000602082019050818103600083015261a167818461a114565b905092915050565b60008060006060848603121561a1885761a187619cdf565b5b600061a19686828701619d00565b935050602061a1a786828701619d5e565b925050604061a1b886828701619d00565b9150509250925092565b61a1cb81619ca1565b82525050565b60408201600082015161a1e7600085018261a1c2565b50602082015161a1fa602085018261a1c2565b50505050565b600060408201905061a215600083018461a1d1565b92915050565b600067ffffffffffffffff82169050919050565b61a2388161a21b565b82525050565b7f4e487b7100000000000000000000000000000000000000000000000000000000600052602160045260246000fd5b6002811061a27e5761a27d61a23e565b5b50565b600081905061a28f8261a26d565b919050565b600061a29f8261a281565b9050919050565b61a2af8161a294565b82525050565b6004811061a2c65761a2c561a23e565b5b50565b600081905061a2d78261a2b5565b919050565b600061a2e78261a2c9565b9050919050565b61a2f78161a2dc565b82525050565b60006101408201905061a313600083018d61a22f565b61a320602083018c619e0d565b61a32d604083018b619e0d565b61a33a606083018a619e0d565b61a3476080830189619eaf565b61a35460a083018861a2a6565b61a36160c0830187619cab565b61a36e60e0830186619cab565b61a37c610100830185619cab565b61a38a61012083018461a2ee565b9b9a5050505050505050505050565b6000819050919050565b600061a3be61a3b961a3b484619d15565b61a399565b619d15565b9050919050565b600061a3d08261a3a3565b9050919050565b600061a3e28261a3c5565b9050919050565b61a3f28161a3d7565b82525050565b600060208201905061a40d600083018461a3e9565b92915050565b6000806040838503121561a42a5761a429619cdf565b5b600061a43885828601619d00565b925050602061a44985828601619d00565b9150509250929050565b600062ffffff82169050919050565b61a46b8161a453565b811461a47657600080fd5b50565b60008135905061a4888161a462565b92915050565b6000806040838503121561a4a55761a4a4619cdf565b5b600061a4b38582860161a479565b925050602061a4c485828601619d00565b9150509250929050565b61a4d781619ed9565b811461a4e257600080fd5b50565b60008135905061a4f48161a4ce565b92915050565b60006020828403121561a5105761a50f619cdf565b5b600061a51e8482850161a4e5565b91505092915050565b600080fd5b61a5358161a21b565b811461a54057600080fd5b50565b60008135905061a5528161a52c565b92915050565b6002811061a56557600080fd5b50565b60008135905061a5778161a558565b92915050565b6004811061a58a57600080fd5b50565b60008135905061a59c8161a57d565b92915050565b6000610140828403121561a5b95761a5b861a527565b5b61a5c4610140619f8b565b9050600061a5d48482850161a543565b600083015250602061a5e884828501619d5e565b602083015250604061a5fc84828501619d5e565b604083015250606061a61084828501619d5e565b606083015250608061a62484828501619e5a565b60808301525060a061a6388482850161a568565b60a08301525060c061a64c84828501619d00565b60c08301525060e061a66084828501619d00565b60e08301525061010061a67584828501619d00565b6101008301525061012061a68b8482850161a58d565b6101208301525092915050565b600080610160838503121561a6b05761a6af619cdf565b5b600061a6be85828601619d00565b925050602061a6cf8582860161a5a2565b9150509250929050565b600060408201905061a6ee6000830185619cab565b61a6fb6020830184619cab565b9392505050565b6000819050919050565b61a7158161a702565b811461a72057600080fd5b50565b60008135905061a7328161a70c565b92915050565b6000806040838503121561a74f5761a74e619cdf565b5b600061a75d85828601619d5e565b925050602061a76e8582860161a723565b9150509250929050565b600067ffffffffffffffff82111561a7935761a792619f2b565b5b602082029050602081019050919050565b600080fd5b600061a7bc61a7b78461a778565b619f8b565b9050808382526020820190506020840283018581111561a7df5761a7de61a7a4565b5b835b8181101561a808578061a7f48882619d5e565b84526020840193505060208101905061a7e1565b5050509392505050565b600082601f83011261a8275761a826619f10565b5b813561a83784826020860161a7a9565b91505092915050565b6000806040838503121561a8575761a856619cdf565b5b600083013567ffffffffffffffff81111561a8755761a874619ce4565b5b61a8818582860161a812565b925050602083013567ffffffffffffffff81111561a8a25761a8a1619ce4565b5b61a8ae8582860161a812565b9150509250929050565b61a8c18161a702565b82525050565b600060208201905061a8dc600083018461a8b8565b92915050565b60006040828403121561a8f85761a8f761a527565b5b61a9026040619f8b565b9050600061a91284828501619d00565b600083015250602061a92684828501619d00565b60208301525092915050565b6000806060838503121561a9495761a948619cdf565b5b600061a95785828601619d00565b925050602061a9688582860161a8e2565b9150509250929050565b60006020828403121561a9885761a987619cdf565b5b600061a99684828501619e5a565b91505092915050565b600067ffffffffffffffff82111561a9ba5761a9b9619f2b565b5b602082029050602081019050919050565b600061a9de61a9d98461a99f565b619f8b565b9050808382526020820190506020840283018581111561aa015761aa0061a7a4565b5b835b8181101561aa2a578061aa168882619d00565b84526020840193505060208101905061aa03565b5050509392505050565b600082601f83011261aa495761aa48619f10565b5b813561aa5984826020860161a9cb565b91505092915050565b6000806040838503121561aa795761aa78619cdf565b5b600083013567ffffffffffffffff81111561aa975761aa96619ce4565b5b61aaa38582860161a812565b925050602083013567ffffffffffffffff81111561aac45761aac3619ce4565b5b61aad08582860161aa34565b9150509250929050565b61aae38161a21b565b82525050565b61aaf281619d35565b82525050565b61ab0181619e37565b82525050565b61ab108161a294565b82525050565b61ab1f8161a2dc565b82525050565b6101408201600082015161ab3c600085018261aada565b50602082015161ab4f602085018261aae9565b50604082015161ab62604085018261aae9565b50606082015161ab75606085018261aae9565b50608082015161ab88608085018261aaf8565b5060a082015161ab9b60a085018261ab07565b5060c082015161abae60c085018261a1c2565b5060e082015161abc160e085018261a1c2565b5061010082015161abd661010085018261a1c2565b5061012082015161abeb61012085018261ab16565b50505050565b60006101408201905061ac07600083018461ab25565b92915050565b60008060008060008060008060006101208a8c03121561ac305761ac2f619cdf565b5b600061ac3e8c828d01619d5e565b995050602061ac4f8c828d01619d5e565b985050604061ac608c828d01619d5e565b975050606061ac718c828d01619d5e565b965050608061ac828c828d0161a4e5565b95505060a061ac938c828d01619d5e565b94505060c061aca48c828d01619d5e565b93505060e061acb58c828d0161a723565b92505061010061acc78c828d01619e5a565b9150509295985092959850929598565b6000806040838503121561acee5761aced619cdf565b5b600061acfc85828601619d5e565b925050602061ad0d8582860161a4e5565b9150509250929050565b60008060006060848603121561ad305761ad2f619cdf565b5b600061ad3e8682870161a723565b935050602084013567ffffffffffffffff81111561ad5f5761ad5e619ce4565b5b61ad6b8682870161a812565b925050604084013567ffffffffffffffff81111561ad8c5761ad8b619ce4565b5b61ad988682870161aa34565b9150509250925092565b600061adad8261a3c5565b9050919050565b61adbd8161ada2565b82525050565b600060208201905061add8600083018461adb4565b92915050565b600061ade98261a3c5565b9050919050565b61adf98161adde565b82525050565b600060208201905061ae14600083018461adf0565b92915050565b600061ae258261a3c5565b9050919050565b61ae358161ae1a565b82525050565b600060208201905061ae50600083018461ae2c565b92915050565b7f696e76616c696420666163746f72792070726f636573736f722061646472657360008201527f7300000000000000000000000000000000000000000000000000000000000000602082015250565b600061aeb260218361a0d9565b915061aebd8261ae56565b604082019050919050565b6000602082019050818103600083015261aee18161aea5565b9050919050565b7f496e76616c696420616d6f756e74000000000000000000000000000000000000600082015250565b600061af1e600e8361a0d9565b915061af298261aee8565b602082019050919050565b6000602082019050818103600083015261af4d8161af11565b9050919050565b600060408201905061af696000830185619eaf565b61af766020830184619e0d565b9392505050565b60008151905061af8c81619ce9565b92915050565b60008151905061afa18161a462565b92915050565b6000806040838503121561afbe5761afbd619cdf565b5b600061afcc8582860161af7d565b925050602061afdd8582860161af92565b9150509250929050565b7f4e487b7100000000000000000000000000000000000000000000000000000000600052601160045260246000fd5b600061b02182619ca1565b915061b02c83619ca1565b925082820190508082111561b0445761b04361afe7565b5b92915050565b7f43616c6c6572206973206e6f74206120666163746f727920636f6e7472616374600082015250565b600061b08060208361a0d9565b915061b08b8261b04a565b602082019050919050565b6000602082019050818103600083015261b0af8161b073565b9050919050565b6004811061b0c357600080fd5b50565b60008151905061b0d58161b0b6565b92915050565b60006020828403121561b0f15761b0f0619cdf565b5b600061b0ff8482850161b0c6565b91505092915050565b600081519050919050565b600081905092915050565b600061b1298261b108565b61b133818561b113565b935061b14381856020860161a0ea565b80840191505092915050565b600061b15b828561b11e565b915061b167828461b11e565b91508190509392505050565b7f496e76616c69642063616e63656c2069737375616e636520756e66696c6c656460008201527f20616d6f756e7400000000000000000000000000000000000000000000000000602082015250565b600061b1cf60278361a0d9565b915061b1da8261b173565b604082019050919050565b6000602082019050818103600083015261b1fe8161b1c2565b9050919050565b7f496e76616c696420746f6b656e20616464726573730000000000000000000000600082015250565b600061b23b60158361a0d9565b915061b2468261b205565b602082019050919050565b6000602082019050818103600083015261b26a8161b22e565b9050919050565b7f496e76616c696420526571756573742049640000000000000000000000000000600082015250565b600061b2a760128361a0d9565b915061b2b28261b271565b602082019050919050565b6000602082019050818103600083015261b2d68161b29a565b9050919050565b7f496e76616c696420726564656d7074696f6e2072657175657374206964000000600082015250565b600061b313601d8361a0d9565b915061b31e8261b2dd565b602082019050919050565b6000602082019050818103600083015261b3428161b306565b9050919050565b7f496e76616c69642073656c6c207265717565737420616d6f756e740000000000600082015250565b600061b37f601b8361a0d9565b915061b38a8261b349565b602082019050919050565b6000602082019050818103600083015261b3ae8161b372565b9050919050565b7f496e76616c696420726564656d7074696f6e20746f6b656e2061646472657373600082015250565b600061b3eb60208361a0d9565b915061b3f68261b3b5565b602082019050919050565b6000602082019050818103600083015261b41a8161b3de565b9050919050565b7f696e76616c696420746f6b656e20616464726573730000000000000000000000600082015250565b600061b45760158361a0d9565b915061b4628261b421565b602082019050919050565b6000602082019050818103600083015261b4868161b44a565b9050919050565b600061b4988261a453565b915061b4a38361a453565b9250828201905062ffffff81111561b4be5761b4bd61afe7565b5b92915050565b7f696e76616c696420646563696d616c7300000000000000000000000000000000600082015250565b600061b4fa60108361a0d9565b915061b5058261b4c4565b602082019050919050565b6000602082019050818103600083015261b5298161b4ed565b9050919050565b7f696e76616c6964206f7261636c65206164647265737300000000000000000000600082015250565b600061b56660168361a0d9565b915061b5718261b530565b602082019050919050565b6000602082019050818103600083015261b5958161b559565b9050919050565b7f696e76616c6964206a6f62206964000000000000000000000000000000000000600082015250565b600061b5d2600e8361a0d9565b915061b5dd8261b59c565b602082019050919050565b6000602082019050818103600083015261b6018161b5c5565b9050919050565b7f496e76616c69642069737375616e636520526571756573742049640000000000600082015250565b600061b63e601b8361a0d9565b915061b6498261b608565b602082019050919050565b6000602082019050818103600083015261b66d8161b631565b9050919050565b600061b67f82619ca1565b915061b68a83619ca1565b925082820390508181111561b6a25761b6a161afe7565b5b92915050565b7f4e487b7100000000000000000000000000000000000000000000000000000000600052601260045260246000fd5b600061b6e282619ca1565b915061b6ed83619ca1565b92508261b6fd5761b6fc61b6a8565b5b828204905092915050565b7f596f752073686f756c642077616974206174206c6561737420313220686f757260008201527f7320616674657220746865206c61746573742075706461746500000000000000602082015250565b600061b76460398361a0d9565b915061b76f8261b708565b604082019050919050565b6000602082019050818103600083015261b7938161b757565b9050919050565b7f546865206e65774665652073686f756c64206265206265747765656e2031206160008201527f6e64203130302028302e303125202d2031252900000000000000000000000000602082015250565b600061b7f660338361a0d9565b915061b8018261b79a565b604082019050919050565b6000602082019050818103600083015261b8258161b7e9565b9050919050565b7f696e76616c696420697373756572206164647265737300000000000000000000600082015250565b600061b86260168361a0d9565b915061b86d8261b82c565b602082019050919050565b6000602082019050818103600083015261b8918161b855565b9050919050565b7f4172726179206c656e677468206d69736d617463680000000000000000000000600082015250565b600061b8ce60158361a0d9565b915061b8d98261b898565b602082019050919050565b6000602082019050818103600083015261b8fd8161b8c1565b9050919050565b7f4e487b7100000000000000000000000000000000000000000000000000000000600052603260045260246000fd5b7f696e76616c696420666163746f72792061646472657373000000000000000000600082015250565b600061b96960178361a0d9565b915061b9748261b933565b602082019050919050565b6000602082019050818103600083015261b9988161b95c565b9050919050565b7f4e487b7100000000000000000000000000000000000000000000000000000000600052602260045260246000fd5b6000600282049050600182168061b9e657607f821691505b60208210810361b9f95761b9f861b99f565b5b50919050565b7f496e76616c6964206275726e20616d6f756e7400000000000000000000000000600082015250565b600061ba3560138361a0d9565b915061ba408261b9ff565b602082019050919050565b6000602082019050818103600083015261ba648161ba28565b9050919050565b60006020828403121561ba815761ba80619cdf565b5b600061ba8f8482850161af7d565b91505092915050565b600069ffffffffffffffffffff82169050919050565b61bab78161ba98565b811461bac257600080fd5b50565b60008151905061bad48161baae565b92915050565b6000819050919050565b61baed8161bada565b811461baf857600080fd5b50565b60008151905061bb0a8161bae4565b92915050565b600080600080600060a0868803121561bb2c5761bb2b619cdf565b5b600061bb3a8882890161bac5565b955050602061bb4b8882890161bafb565b945050604061bb5c8882890161af7d565b935050606061bb6d8882890161af7d565b925050608061bb7e8882890161bac5565b9150509295509295909350565b60008151905061bb9a8161a4ce565b92915050565b60006020828403121561bbb65761bbb5619cdf565b5b600061bbc48482850161bb8b565b91505092915050565b600060408201905061bbe26000830185619e0d565b61bbef6020830184619e0d565b9392505050565b60008151905061bc058161a52c565b92915050565b60006040828403121561bc215761bc2061a527565b5b61bc2b6040619f8b565b9050600061bc3b8482850161af7d565b600083015250602061bc4f8482850161bbf6565b60208301525092915050565b60006040828403121561bc715761bc70619cdf565b5b600061bc7f8482850161bc0b565b91505092915050565b7f496e76616c69642063616e63656c20726564656d7074696f6e20756e66696c6c60008201527f656420616d6f756e740000000000000000000000000000000000000000000000602082015250565b600061bce460298361a0d9565b915061bcef8261bc88565b604082019050919050565b6000602082019050818103600083015261bd138161bcd7565b9050919050565b7f496e76616c69642069737375616e636520726571756573742069640000000000600082015250565b600061bd50601b8361a0d9565b915061bd5b8261bd1a565b602082019050919050565b6000602082019050818103600083015261bd7f8161bd43565b9050919050565b7f63616c6c6572206d75737420626520666163746f72792062616c616e63657200600082015250565b600061bdbc601f8361a0d9565b915061bdc78261bd86565b602082019050919050565b6000602082019050818103600083015261bdeb8161bdaf565b9050919050565b7f496e76616c69642069737375616e6365207072696d61727920746f6b656e206160008201527f6464726573730000000000000000000000000000000000000000000000000000602082015250565b600061be4e60268361a0d9565b915061be598261bdf2565b604082019050919050565b6000602082019050818103600083015261be7d8161be41565b9050919050565b60008190508160005260206000209050919050565b60006020601f8301049050919050565b600082821b905092915050565b60006008830261bee67fffffffffffffffffffffffffffffffffffffffffffffffffffffffffffffffff8261bea9565b61bef0868361bea9565b95508019841693508086168417925050509392505050565b600061bf2361bf1e61bf1984619ca1565b61a399565b619ca1565b9050919050565b6000819050919050565b61bf3d8361bf08565b61bf5161bf498261bf2a565b84845461beb6565b825550505050565b600090565b61bf6661bf59565b61bf7181848461bf34565b505050565b5b8181101561bf955761bf8a60008261bf5e565b60018101905061bf77565b5050565b601f82111561bfda5761bfab8161be84565b61bfb48461be99565b8101602085101561bfc3578190505b61bfd761bfcf8561be99565b83018261bf76565b50505b505050565b600082821c905092915050565b600061bffd6000198460080261bfdf565b1980831691505092915050565b600061c016838361bfec565b9150826002028217905092915050565b61c02f8261a0ce565b67ffffffffffffffff81111561c0485761c047619f2b565b5b61c052825461b9ce565b61c05d82828561bf99565b600060209050601f83116001811461c090576000841561c07e578287015190505b61c088858261c00a565b86555061c0f0565b601f19841661c09e8661be84565b60005b8281101561c0c65784890151825560018201915060208501945060208101905061c0a1565b8683101561c0e3578489015161c0df601f89168261bfec565b8355505b6001600288020188555050505b505050505050565b7f696e76616c6964206f72646572206d616e616765722061646472657373000000600082015250565b600061c12e601d8361a0d9565b915061c1398261c0f8565b602082019050919050565b6000602082019050818103600083015261c15d8161c121565b9050919050565b7f496e76616c696420726564656d7074696f6e20696e70757420616d6f756e7400600082015250565b600061c19a601f8361a0d9565b915061c1a58261c164565b602082019050919050565b6000602082019050818103600083015261c1c98161c18d565b9050919050565b600061c1db82619ca1565b915061c1e683619ca1565b925082820261c1f481619ca1565b9150828204841483151761c20b5761c20a61afe7565b5b5092915050565b7f496e76616c696420627579207265717565737420616d6f756e74000000000000600082015250565b600061c248601a8361a0d9565b915061c2538261c212565b602082019050919050565b6000602082019050818103600083015261c2778161c23b565b9050919050565b7f496e76616c696420726564656d7074696f6e207265717565737465722061646460008201527f7265737300000000000000000000000000000000000000000000000000000000602082015250565b600061c2da60248361a0d9565b915061c2e58261c27e565b604082019050919050565b6000602082019050818103600083015261c3098161c2cd565b9050919050565b7f696e76616c6964207661756c7420616464726573730000000000000000000000600082015250565b600061c34660158361a0d9565b915061c3518261c310565b602082019050919050565b6000602082019050818103600083015261c3758161c339565b9050919050565b7f696e76616c696420757364632061646472657373000000000000000000000000600082015250565b600061c3b260148361a0d9565b915061c3bd8261c37c565b602082019050919050565b6000602082019050818103600083015261c3e18161c3a5565b9050919050565b7f696e76616c696420636861696e6c696e6b20746f6b656e206164647265737300600082015250565b600061c41e601f8361a0d9565b915061c4298261c3e8565b602082019050919050565b6000602082019050818103600083015261c44d8161c411565b9050919050565b6000819050919050565b600061c47961c47461c46f8461c454565b61a399565b61a21b565b9050919050565b61c4898161c45e565b82525050565b600060208201905061c4a4600083018461c480565b92915050565b7f696e76616c696420666163746f72792062616c616e6365722061646472657373600082015250565b600061c4e060208361a0d9565b915061c4eb8261c4aa565b602082019050919050565b6000602082019050818103600083015261c50f8161c4d3565b9050919050565b7f496e76616c69642069737375616e63652072657175657374657220616464726560008201527f7373000000000000000000000000000000000000000000000000000000000000602082015250565b600061c57260228361a0d9565b915061c57d8261c516565b604082019050919050565b6000602082019050818103600083015261c5a18161c565565b9050919050565b7f496e76616c69642069737375616e636520696e70757420616d6f756e74000000600082015250565b600061c5de601d8361a0d9565b915061c5e98261c5a8565b602082019050919050565b6000602082019050818103600083015261c60d8161c5d1565b9050919050565b7f696e76616c696420666565207265636569766572206164647265737300000000600082015250565b600061c64a601c8361a0d9565b915061c6558261c614565b602082019050919050565b6000602082019050818103600083015261c6798161c63d565b9050919050565b7f536f75726365206d75737420626520746865206f7261636c65206f662074686560008201527f2072657175657374000000000000000000000000000000000000000000000000602082015250565b600061c6dc60288361a0d9565b915061c6e78261c680565b604082019050919050565b6000602082019050818103600083015261c70b8161c6cf565b9050919050565b7f696e76616c696420726571756573742069640000000000000000000000000000600082015250565b600061c74860128361a0d9565b915061c7538261c712565b602082019050919050565b6000602082019050818103600083015261c7778161c73b565b9050919050565b7f696e76616c696420746f6b656e73000000000000000000000000000000000000600082015250565b600061c7b4600e8361a0d9565b915061c7bf8261c77e565b602082019050919050565b6000602082019050818103600083015261c7e38161c7a7565b9050919050565b7f696e76616c6964206d61726b6574207368617265730000000000000000000000600082015250565b600061c82060158361a0d9565b915061c82b8261c7ea565b602082019050919050565b6000602082019050818103600083015261c84f8161c813565b9050919050565b600060608201905061c86b6000830186619cab565b61c8786020830185619cab565b61c8856040830184619cab565b949350505050565b7f616d6f756e7420646563696d616c732073686f756c64206265206c657373207460008201527f68616e206f7220657175616c20746f2031380000000000000000000000000000602082015250565b600061c8e960328361a0d9565b915061c8f48261c88d565b604082019050919050565b6000602082019050818103600083015261c9188161c8dc565b9050919050565b7f636861696e20646563696d616c732073686f756c64206265206c65737320746860008201527f616e206f7220657175616c20746f203138000000000000000000000000000000602082015250565b600061c97b60318361a0d9565b915061c9868261c91f565b604082019050919050565b6000602082019050818103600083015261c9aa8161c96e565b9050919050565b600061c9bc82619ed9565b915061c9c783619ed9565b9250828203905060ff81111561c9e05761c9df61afe7565b5b92915050565b60008160011c9050919050565b6000808291508390505b600185111561ca3d5780860481111561ca195761ca1861afe7565b5b600185161561ca285780820291505b808102905061ca368561c9e6565b945061c9fd565b94509492505050565b60008261ca56576001905061cb12565b8161ca64576000905061cb12565b816001811461ca7a576002811461ca845761cab3565b600191505061cb12565b60ff84111561ca965761ca9561afe7565b5b8360020a91508482111561caad5761caac61afe7565b5b5061cb12565b5060208310610133831016604e8410600b841016171561cae85782820a90508381111561cae35761cae261afe7565b5b61cb12565b61caf5848484600161c9f3565b9250905081840481111561cb0c5761cb0b61afe7565b5b81810290505b9392505050565b600061cb2482619ca1565b915061cb2f83619ed9565b925061cb5c7fffffffffffffffffffffffffffffffffffffffffffffffffffffffffffffffff848461ca46565b905092915050565b600061cb6f8261bada565b915061cb7a8361bada565b925082820261cb888161bada565b91507f8000000000000000000000000000000000000000000000000000000000000000841460008412161561cbc05761cbbf61afe7565b5b828205841483151761cbd55761cbd461afe7565b5b5092915050565b60007fffffffff0000000000000000000000000000000000000000000000000000000082169050919050565b61cc118161cbdc565b82525050565b600082825260208201905092915050565b600061cc338261b108565b61cc3d818561cc17565b935061cc4d81856020860161a0ea565b61cc5681619f1a565b840191505092915050565b60006101008201905061cc77600083018b619e0d565b61cc84602083018a619cab565b61cc91604083018961a8b8565b61cc9e6060830188619e0d565b61ccab608083018761cc08565b61ccb860a0830186619cab565b61ccc560c0830185619cab565b81810360e083015261ccd7818461cc28565b90509998505050505050505050565b600061ccf18261a3c5565b9050919050565b60008160601b9050919050565b600061cd108261ccf8565b9050919050565b600061cd228261cd05565b9050919050565b61cd3a61cd358261cce6565b61cd17565b82525050565b6000819050919050565b61cd5b61cd5682619ca1565b61cd40565b82525050565b600061cd6d828561cd29565b60148201915061cd7d828461cd4a565b6020820191508190509392505050565b600060608201905061cda26000830186619e0d565b61cdaf6020830185619cab565b818103604083015261cdc1818461cc28565b9050949350505050565b60008151905061cdda81619e43565b92915050565b60006020828403121561cdf65761cdf5619cdf565b5b600061ce048482850161cdcb565b91505092915050565b7f756e61626c6520746f207472616e73666572416e6443616c6c20746f206f726160008201527f636c650000000000000000000000000000000000000000000000000000000000602082015250565b600061ce6960238361a0d9565b915061ce748261ce0d565b604082019050919050565b6000602082019050818103600083015261ce988161ce5c565b9050919050565b600061ceaa82619ca1565b915061ceb583619ca1565b92508261cec55761cec461b6a8565b5b828206905092915050565b600061cedb82619ca1565b915061cee683619ca1565b925061cf137fffffffffffffffffffffffffffffffffffffffffffffffffffffffffffffffff848461ca46565b90509291505056fe68747470733a2f2f6170702e6e65786c6162732e696f2f6170692f616c6c46756e64696e6752617465733f6d756c7469706c7946756e633d31382674696d65734e656746756e643d74727565266172726179733d74727565a2646970667358221220a720a828ad30c65b572ea84ff5c1bd5ffbcbcface97fe86772056ef5891a58e864736f6c63430008190033","linkReferences":{}},"methodIdentifiers":{"actionInfoById(uint256)":"3c1f70ca","baseUrl()":"5bcabf04","burnedTokenAmountByNonce(uint256)":"ab7820b2","buyRequestPayedAmountById(uint256)":"8861d235","calculateBuyRequestFee(uint256)":"06995e3b","calculateIssuanceFee(uint256)":"e19eefbe","cancelIssuanceComplted(uint256)":"7bfa27f2","cancelIssuanceRequestId(uint256,address)":"02e80f71","cancelIssuanceUnfilledAmount(uint256,address)":"9edcf9f4","cancelRedemptionComplted(uint256)":"b46840f9","cancelRedemptionRequestId(uint256,address)":"8c221899","cancelRedemptionUnfilledAmount(uint256,address)":"632439fd","checkCancelIssuanceStatus(uint256)":"631c8385","checkCancelRedemptionStatus(uint256)":"b592662a","checkIssuanceOrdersStatus(uint256)":"2343acb4","checkRedemptionOrdersStatus(uint256)":"3fac0922","concatenation(string,string)":"0e329357","currentList(uint256)":"9932ba4c","externalJobId()":"a8b54bd4","factoryAddress()":"966dae0e","factoryBalancerAddress()":"cb4d4e09","factoryProcessorAddress()":"0acb8d40","feeRate()":"978bbdb9","feeReceiver()":"b3f00674","fulfillAssetsData(bytes32,address[],uint256[])":"f14bea20","getActionInfoById(uint256)":"147726ae","getAmountAfterFee(uint24,uint256)":"2e6b96e7","getIssuanceAmountOut(uint256)":"c8da3303","getOrderInstanceById(uint256)":"f1f31d66","getPortfolioValue()":"bb0498de","getPrimaryOrder(bool)":"b12279aa","getRedemptionAmountOut(uint256)":"e2851bd6","getVaultDshareBalance(address)":"a08d7bd6","getVaultDshareValue(address)":"efdf5053","increaseIssuanceNonce()":"5501c6cf","increaseRedemptionNonce()":"7851b905","initialize(address,address,address,address,uint8,address,address,bytes32,bool)":"d57e0493","isIssuanceOrderActive(uint256)":"b0e12134","isMainnet()":"42faac05","isRedemptionOrderActive(uint256)":"0b1a4918","issuanceIndexTokenPrimaryTotalSupply(uint256)":"b1dd819e","issuanceInputAmount(uint256)":"cf9ee319","issuanceIsCompleted(uint256)":"a84ebc17","issuanceNonce()":"9dbb9c9e","issuanceRequestId(uint256,address)":"264fa8b9","issuanceRequesterByNonce(uint256)":"94674098","issuanceTokenPrimaryBalance(uint256,address)":"da65925a","issuer()":"1d143848","lastUpdateTime()":"c8f33c91","latestFeeUpdate()":"011ced5f","latestPriceDecimals()":"0b1fa733","mockFillAssetsList(address[],uint256[])":"addc70d1","oracleList(uint256)":"239aad0d","oraclePayment()":"0c02e130","orderInstanceById(uint256)":"15e666a2","orderManager()":"f9b6117f","owner()":"8da5cb5b","priceFeedByTokenAddress(address)":"08dc4b0c","priceInWei(address)":"6839a095","redemptionIndexTokenPrimaryTotalSupply(uint256)":"daf1c17d","redemptionInputAmount(uint256)":"9cf54521","redemptionIsCompleted(uint256)":"76529fdf","redemptionNonce()":"84d77bb1","redemptionRequestId(uint256,address)":"f513a718","redemptionRequesterByNonce(uint256)":"78032658","redemptionTokenPrimaryBalance(uint256,address)":"a363b9cb","renounceOwnership()":"715018a6","requestAssetsData()":"7ca58c55","sellRequestAssetAmountById(uint256)":"a87f98d2","setActionInfoById(uint256,(uint256,uint256))":"8182492a","setBurnedTokenAmountByNonce(uint256,uint256)":"6188199f","setBuyRequestPayedAmountById(uint256,uint256)":"d1e4a308","setCancelIssuanceComplted(uint256,bool)":"7cd375e2","setCancelIssuanceRequestId(uint256,address,uint256)":"7a6c4b7b","setCancelIssuanceUnfilledAmount(uint256,address,uint256)":"12b6d2e6","setCancelRedemptionComplted(uint256,bool)":"8e97d7e1","setCancelRedemptionRequestId(uint256,address,uint256)":"457e0e0f","setCancelRedemptionUnfilledAmount(uint256,address,uint256)":"6ea86556","setFactory(address)":"5bb47808","setFactoryBalancer(address)":"d5fbea63","setFactoryProcessor(address)":"0499a61d","setFeeRate(uint8)":"5177942a","setFeeReceiver(address)":"efdcd974","setIsMainnet(bool)":"991be68e","setIssuanceIndexTokenPrimaryTotalSupply(uint256,uint256)":"99f68da8","setIssuanceInputAmount(uint256,uint256)":"ea5142c8","setIssuanceIsCompleted(uint256,bool)":"d1c0cee6","setIssuanceRequestId(uint256,address,uint256)":"496304a4","setIssuanceRequesterByNonce(uint256,address)":"df1d5ea2","setIssuanceTokenPrimaryBalance(uint256,address,uint256)":"9b2d6e3b","setIssuer(address)":"55cc4e57","setLatestPriceDecimals(uint8)":"32502639","setOracleInfo(address,bytes32)":"43482fc8","setOrderInstanceById(uint256,(uint64,address,address,address,bool,uint8,uint256,uint256,uint256,uint8))":"35c51204","setOrderManager(address)":"c0da840d","setPriceFeedAddresses(address[],address[])":"57b61bc3","setRedemptionIndexTokenPrimaryTotalSupply(uint256,uint256)":"6ea495df","setRedemptionInputAmount(uint256,uint256)":"c7003d1b","setRedemptionIsCompleted(uint256,bool)":"0a1d4270","setRedemptionRequestId(uint256,address,uint256)":"1c7a2959","setRedemptionRequesterByNonce(uint256,address)":"d34ed2ab","setRedemptionTokenPrimaryBalance(uint256,address,uint256)":"21de914f","setSellRequestAssetAmountById(uint256,uint256)":"1e2ad86e","setTokenAddress(address)":"26a4e8d2","setUrl(string,string)":"a73e1cbf","setUsdcAddress(address,uint8)":"eab2a711","setWrappedDShareAddresses(address[],address[])":"b411dc41","token()":"fc0c546a","tokenCurrentListIndex(address)":"914f0cc6","tokenCurrentMarketShare(address)":"0be52713","tokenOracleListIndex(address)":"8c88c10c","tokenOracleMarketShare(address)":"4b3e0b80","totalCurrentList()":"53fd4332","totalOracleList()":"c8599ded","transferOwnership(address)":"f2fde38b","updateCurrentList()":"8baa6bf1","urlParams()":"e789598c","usdc()":"3e413bee","usdcDecimals()":"7bf42165","vault()":"fbfa77cf","wrappedDshareAddress(address)":"092755e0"},"id":24}