{"abi":[{"type":"function","name":"acceptOwnership","inputs":[],"outputs":[],"stateMutability":"nonpayable"},{"type":"function","name":"actionInfoById","inputs":[{"name":"","type":"uint256","internalType":"uint256"}],"outputs":[{"name":"actionType","type":"uint256","internalType":"uint256"},{"name":"nonce","type":"uint256","internalType":"uint256"}],"stateMutability":"view"},{"type":"function","name":"baseUrl","inputs":[],"outputs":[{"name":"","type":"string","internalType":"string"}],"stateMutability":"view"},{"type":"function","name":"burnedTokenAmountByNonce","inputs":[{"name":"","type":"uint256","internalType":"uint256"}],"outputs":[{"name":"","type":"uint256","internalType":"uint256"}],"stateMutability":"view"},{"type":"function","name":"buyRequestPayedAmountById","inputs":[{"name":"","type":"uint256","internalType":"uint256"}],"outputs":[{"name":"","type":"uint256","internalType":"uint256"}],"stateMutability":"view"},{"type":"function","name":"calculateBuyRequestFee","inputs":[{"name":"_amount","type":"uint256","internalType":"uint256"}],"outputs":[{"name":"","type":"uint256","internalType":"uint256"}],"stateMutability":"view"},{"type":"function","name":"calculateIssuanceFee","inputs":[{"name":"_inputAmount","type":"uint256","internalType":"uint256"}],"outputs":[{"name":"","type":"uint256","internalType":"uint256"}],"stateMutability":"view"},{"type":"function","name":"cancelIssuanceComplted","inputs":[{"name":"","type":"uint256","internalType":"uint256"}],"outputs":[{"name":"","type":"bool","internalType":"bool"}],"stateMutability":"view"},{"type":"function","name":"cancelIssuanceRequestId","inputs":[{"name":"","type":"uint256","internalType":"uint256"},{"name":"","type":"address","internalType":"address"}],"outputs":[{"name":"","type":"uint256","internalType":"uint256"}],"stateMutability":"view"},{"type":"function","name":"cancelIssuanceUnfilledAmount","inputs":[{"name":"","type":"uint256","internalType":"uint256"},{"name":"","type":"address","internalType":"address"}],"outputs":[{"name":"","type":"uint256","internalType":"uint256"}],"stateMutability":"view"},{"type":"function","name":"cancelRedemptionComplted","inputs":[{"name":"","type":"uint256","internalType":"uint256"}],"outputs":[{"name":"","type":"bool","internalType":"bool"}],"stateMutability":"view"},{"type":"function","name":"cancelRedemptionRequestId","inputs":[{"name":"","type":"uint256","internalType":"uint256"},{"name":"","type":"address","internalType":"address"}],"outputs":[{"name":"","type":"uint256","internalType":"uint256"}],"stateMutability":"view"},{"type":"function","name":"cancelRedemptionUnfilledAmount","inputs":[{"name":"","type":"uint256","internalType":"uint256"},{"name":"","type":"address","internalType":"address"}],"outputs":[{"name":"","type":"uint256","internalType":"uint256"}],"stateMutability":"view"},{"type":"function","name":"checkCancelIssuanceStatus","inputs":[{"name":"_issuanceNonce","type":"uint256","internalType":"uint256"}],"outputs":[{"name":"","type":"bool","internalType":"bool"}],"stateMutability":"view"},{"type":"function","name":"checkCancelRedemptionStatus","inputs":[{"name":"_redemptionNonce","type":"uint256","internalType":"uint256"}],"outputs":[{"name":"","type":"bool","internalType":"bool"}],"stateMutability":"view"},{"type":"function","name":"checkIssuanceOrdersStatus","inputs":[{"name":"_issuanceNonce","type":"uint256","internalType":"uint256"}],"outputs":[{"name":"","type":"bool","internalType":"bool"}],"stateMutability":"view"},{"type":"function","name":"checkRedemptionOrdersStatus","inputs":[{"name":"_redemptionNonce","type":"uint256","internalType":"uint256"}],"outputs":[{"name":"","type":"bool","internalType":"bool"}],"stateMutability":"view"},{"type":"function","name":"concatenation","inputs":[{"name":"a","type":"string","internalType":"string"},{"name":"b","type":"string","internalType":"string"}],"outputs":[{"name":"","type":"string","internalType":"string"}],"stateMutability":"pure"},{"type":"function","name":"currentList","inputs":[{"name":"","type":"uint256","internalType":"uint256"}],"outputs":[{"name":"","type":"address","internalType":"address"}],"stateMutability":"view"},{"type":"function","name":"donId","inputs":[],"outputs":[{"name":"","type":"bytes32","internalType":"bytes32"}],"stateMutability":"view"},{"type":"function","name":"factoryAddress","inputs":[],"outputs":[{"name":"","type":"address","internalType":"address"}],"stateMutability":"view"},{"type":"function","name":"factoryBalancerAddress","inputs":[],"outputs":[{"name":"","type":"address","internalType":"address"}],"stateMutability":"view"},{"type":"function","name":"factoryProcessorAddress","inputs":[],"outputs":[{"name":"","type":"address","internalType":"address"}],"stateMutability":"view"},{"type":"function","name":"feeRate","inputs":[],"outputs":[{"name":"","type":"uint8","internalType":"uint8"}],"stateMutability":"view"},{"type":"function","name":"feeReceiver","inputs":[],"outputs":[{"name":"","type":"address","internalType":"address"}],"stateMutability":"view"},{"type":"function","name":"functionsRouterAddress","inputs":[],"outputs":[{"name":"","type":"address","internalType":"address"}],"stateMutability":"view"},{"type":"function","name":"getActionInfoById","inputs":[{"name":"_id","type":"uint256","internalType":"uint256"}],"outputs":[{"name":"","type":"tuple","internalType":"struct IndexFactoryStorage.ActionInfo","components":[{"name":"actionType","type":"uint256","internalType":"uint256"},{"name":"nonce","type":"uint256","internalType":"uint256"}]}],"stateMutability":"view"},{"type":"function","name":"getAmountAfterFee","inputs":[{"name":"percentageFeeRate","type":"uint24","internalType":"uint24"},{"name":"orderValue","type":"uint256","internalType":"uint256"}],"outputs":[{"name":"","type":"uint256","internalType":"uint256"}],"stateMutability":"pure"},{"type":"function","name":"getIssuanceAmountOut","inputs":[{"name":"_amount","type":"uint256","internalType":"uint256"}],"outputs":[{"name":"","type":"uint256","internalType":"uint256"}],"stateMutability":"view"},{"type":"function","name":"getOrderInstanceById","inputs":[{"name":"_id","type":"uint256","internalType":"uint256"}],"outputs":[{"name":"","type":"tuple","internalType":"struct IOrderProcessor.Order","components":[{"name":"requestTimestamp","type":"uint64","internalType":"uint64"},{"name":"recipient","type":"address","internalType":"address"},{"name":"assetToken","type":"address","internalType":"address"},{"name":"paymentToken","type":"address","internalType":"address"},{"name":"sell","type":"bool","internalType":"bool"},{"name":"orderType","type":"uint8","internalType":"enum IOrderProcessor.OrderType"},{"name":"assetTokenQuantity","type":"uint256","internalType":"uint256"},{"name":"paymentTokenQuantity","type":"uint256","internalType":"uint256"},{"name":"price","type":"uint256","internalType":"uint256"},{"name":"tif","type":"uint8","internalType":"enum IOrderProcessor.TIF"}]}],"stateMutability":"view"},{"type":"function","name":"getPortfolioValue","inputs":[],"outputs":[{"name":"","type":"uint256","internalType":"uint256"}],"stateMutability":"view"},{"type":"function","name":"getPrimaryOrder","inputs":[{"name":"sell","type":"bool","internalType":"bool"}],"outputs":[{"name":"","type":"tuple","internalType":"struct IOrderProcessor.Order","components":[{"name":"requestTimestamp","type":"uint64","internalType":"uint64"},{"name":"recipient","type":"address","internalType":"address"},{"name":"assetToken","type":"address","internalType":"address"},{"name":"paymentToken","type":"address","internalType":"address"},{"name":"sell","type":"bool","internalType":"bool"},{"name":"orderType","type":"uint8","internalType":"enum IOrderProcessor.OrderType"},{"name":"assetTokenQuantity","type":"uint256","internalType":"uint256"},{"name":"paymentTokenQuantity","type":"uint256","internalType":"uint256"},{"name":"price","type":"uint256","internalType":"uint256"},{"name":"tif","type":"uint8","internalType":"enum IOrderProcessor.TIF"}]}],"stateMutability":"view"},{"type":"function","name":"getRedemptionAmountOut","inputs":[{"name":"_amount","type":"uint256","internalType":"uint256"}],"outputs":[{"name":"","type":"uint256","internalType":"uint256"}],"stateMutability":"view"},{"type":"function","name":"getVaultDshareBalance","inputs":[{"name":"_token","type":"address","internalType":"address"}],"outputs":[{"name":"","type":"uint256","internalType":"uint256"}],"stateMutability":"view"},{"type":"function","name":"getVaultDshareValue","inputs":[{"name":"_token","type":"address","internalType":"address"}],"outputs":[{"name":"","type":"uint256","internalType":"uint256"}],"stateMutability":"view"},{"type":"function","name":"handleOracleFulfillment","inputs":[{"name":"requestId","type":"bytes32","internalType":"bytes32"},{"name":"response","type":"bytes","internalType":"bytes"},{"name":"err","type":"bytes","internalType":"bytes"}],"outputs":[],"stateMutability":"nonpayable"},{"type":"function","name":"increaseIssuanceNonce","inputs":[],"outputs":[],"stateMutability":"nonpayable"},{"type":"function","name":"increaseRedemptionNonce","inputs":[],"outputs":[],"stateMutability":"nonpayable"},{"type":"function","name":"initialize","inputs":[{"name":"_issuer","type":"address","internalType":"address"},{"name":"_token","type":"address","internalType":"address"},{"name":"_vault","type":"address","internalType":"address"},{"name":"_usdc","type":"address","internalType":"address"},{"name":"_usdcDecimals","type":"uint8","internalType":"uint8"},{"name":"_chainlinkToken","type":"address","internalType":"address"},{"name":"_functionsRouterAddress","type":"address","internalType":"address"},{"name":"_newDonId","type":"bytes32","internalType":"bytes32"},{"name":"_isMainnet","type":"bool","internalType":"bool"}],"outputs":[],"stateMutability":"nonpayable"},{"type":"function","name":"isIssuanceOrderActive","inputs":[{"name":"_issuanceNonce","type":"uint256","internalType":"uint256"}],"outputs":[{"name":"","type":"bool","internalType":"bool"}],"stateMutability":"view"},{"type":"function","name":"isMainnet","inputs":[],"outputs":[{"name":"","type":"bool","internalType":"bool"}],"stateMutability":"view"},{"type":"function","name":"isRedemptionOrderActive","inputs":[{"name":"_redemptionNonce","type":"uint256","internalType":"uint256"}],"outputs":[{"name":"","type":"bool","internalType":"bool"}],"stateMutability":"view"},{"type":"function","name":"issuanceIndexTokenPrimaryTotalSupply","inputs":[{"name":"","type":"uint256","internalType":"uint256"}],"outputs":[{"name":"","type":"uint256","internalType":"uint256"}],"stateMutability":"view"},{"type":"function","name":"issuanceInputAmount","inputs":[{"name":"","type":"uint256","internalType":"uint256"}],"outputs":[{"name":"","type":"uint256","internalType":"uint256"}],"stateMutability":"view"},{"type":"function","name":"issuanceIsCompleted","inputs":[{"name":"","type":"uint256","internalType":"uint256"}],"outputs":[{"name":"","type":"bool","internalType":"bool"}],"stateMutability":"view"},{"type":"function","name":"issuanceNonce","inputs":[],"outputs":[{"name":"","type":"uint256","internalType":"uint256"}],"stateMutability":"view"},{"type":"function","name":"issuanceRequestId","inputs":[{"name":"","type":"uint256","internalType":"uint256"},{"name":"","type":"address","internalType":"address"}],"outputs":[{"name":"","type":"uint256","internalType":"uint256"}],"stateMutability":"view"},{"type":"function","name":"issuanceRequesterByNonce","inputs":[{"name":"","type":"uint256","internalType":"uint256"}],"outputs":[{"name":"","type":"address","internalType":"address"}],"stateMutability":"view"},{"type":"function","name":"issuanceTokenPrimaryBalance","inputs":[{"name":"","type":"uint256","internalType":"uint256"},{"name":"","type":"address","internalType":"address"}],"outputs":[{"name":"","type":"uint256","internalType":"uint256"}],"stateMutability":"view"},{"type":"function","name":"issuer","inputs":[],"outputs":[{"name":"","type":"address","internalType":"contract IOrderProcessor"}],"stateMutability":"view"},{"type":"function","name":"lastUpdateTime","inputs":[],"outputs":[{"name":"","type":"uint256","internalType":"uint256"}],"stateMutability":"view"},{"type":"function","name":"latestFeeUpdate","inputs":[],"outputs":[{"name":"","type":"uint256","internalType":"uint256"}],"stateMutability":"view"},{"type":"function","name":"latestPriceDecimals","inputs":[],"outputs":[{"name":"","type":"uint8","internalType":"uint8"}],"stateMutability":"view"},{"type":"function","name":"mockFillAssetsList","inputs":[{"name":"_tokens","type":"address[]","internalType":"address[]"},{"name":"_marketShares","type":"uint256[]","internalType":"uint256[]"}],"outputs":[],"stateMutability":"nonpayable"},{"type":"function","name":"oracleList","inputs":[{"name":"","type":"uint256","internalType":"uint256"}],"outputs":[{"name":"","type":"address","internalType":"address"}],"stateMutability":"view"},{"type":"function","name":"orderInstanceById","inputs":[{"name":"","type":"uint256","internalType":"uint256"}],"outputs":[{"name":"requestTimestamp","type":"uint64","internalType":"uint64"},{"name":"recipient","type":"address","internalType":"address"},{"name":"assetToken","type":"address","internalType":"address"},{"name":"paymentToken","type":"address","internalType":"address"},{"name":"sell","type":"bool","internalType":"bool"},{"name":"orderType","type":"uint8","internalType":"enum IOrderProcessor.OrderType"},{"name":"assetTokenQuantity","type":"uint256","internalType":"uint256"},{"name":"paymentTokenQuantity","type":"uint256","internalType":"uint256"},{"name":"price","type":"uint256","internalType":"uint256"},{"name":"tif","type":"uint8","internalType":"enum IOrderProcessor.TIF"}],"stateMutability":"view"},{"type":"function","name":"orderManager","inputs":[],"outputs":[{"name":"","type":"address","internalType":"contract OrderManager"}],"stateMutability":"view"},{"type":"function","name":"owner","inputs":[],"outputs":[{"name":"","type":"address","internalType":"address"}],"stateMutability":"view"},{"type":"function","name":"priceFeedByTokenAddress","inputs":[{"name":"","type":"address","internalType":"address"}],"outputs":[{"name":"","type":"address","internalType":"address"}],"stateMutability":"view"},{"type":"function","name":"priceInWei","inputs":[{"name":"_tokenAddress","type":"address","internalType":"address"}],"outputs":[{"name":"","type":"uint256","internalType":"uint256"}],"stateMutability":"view"},{"type":"function","name":"redemptionIndexTokenPrimaryTotalSupply","inputs":[{"name":"","type":"uint256","internalType":"uint256"}],"outputs":[{"name":"","type":"uint256","internalType":"uint256"}],"stateMutability":"view"},{"type":"function","name":"redemptionInputAmount","inputs":[{"name":"","type":"uint256","internalType":"uint256"}],"outputs":[{"name":"","type":"uint256","internalType":"uint256"}],"stateMutability":"view"},{"type":"function","name":"redemptionIsCompleted","inputs":[{"name":"","type":"uint256","internalType":"uint256"}],"outputs":[{"name":"","type":"bool","internalType":"bool"}],"stateMutability":"view"},{"type":"function","name":"redemptionNonce","inputs":[],"outputs":[{"name":"","type":"uint256","internalType":"uint256"}],"stateMutability":"view"},{"type":"function","name":"redemptionRequestId","inputs":[{"name":"","type":"uint256","internalType":"uint256"},{"name":"","type":"address","internalType":"address"}],"outputs":[{"name":"","type":"uint256","internalType":"uint256"}],"stateMutability":"view"},{"type":"function","name":"redemptionRequesterByNonce","inputs":[{"name":"","type":"uint256","internalType":"uint256"}],"outputs":[{"name":"","type":"address","internalType":"address"}],"stateMutability":"view"},{"type":"function","name":"redemptionTokenPrimaryBalance","inputs":[{"name":"","type":"uint256","internalType":"uint256"},{"name":"","type":"address","internalType":"address"}],"outputs":[{"name":"","type":"uint256","internalType":"uint256"}],"stateMutability":"view"},{"type":"function","name":"requestAssetsData","inputs":[{"name":"source","type":"string","internalType":"string"},{"name":"encryptedSecretsReference","type":"bytes","internalType":"bytes"},{"name":"args","type":"string[]","internalType":"string[]"},{"name":"bytesArgs","type":"bytes[]","internalType":"bytes[]"},{"name":"subscriptionId","type":"uint64","internalType":"uint64"},{"name":"callbackGasLimit","type":"uint32","internalType":"uint32"}],"outputs":[{"name":"","type":"bytes32","internalType":"bytes32"}],"stateMutability":"nonpayable"},{"type":"function","name":"sellRequestAssetAmountById","inputs":[{"name":"","type":"uint256","internalType":"uint256"}],"outputs":[{"name":"","type":"uint256","internalType":"uint256"}],"stateMutability":"view"},{"type":"function","name":"setActionInfoById","inputs":[{"name":"_requestId","type":"uint256","internalType":"uint256"},{"name":"_actionInfo","type":"tuple","internalType":"struct IndexFactoryStorage.ActionInfo","components":[{"name":"actionType","type":"uint256","internalType":"uint256"},{"name":"nonce","type":"uint256","internalType":"uint256"}]}],"outputs":[],"stateMutability":"nonpayable"},{"type":"function","name":"setBurnedTokenAmountByNonce","inputs":[{"name":"_redemptionNonce","type":"uint256","internalType":"uint256"},{"name":"_burnedAmount","type":"uint256","internalType":"uint256"}],"outputs":[],"stateMutability":"nonpayable"},{"type":"function","name":"setBuyRequestPayedAmountById","inputs":[{"name":"_requestId","type":"uint256","internalType":"uint256"},{"name":"_amount","type":"uint256","internalType":"uint256"}],"outputs":[],"stateMutability":"nonpayable"},{"type":"function","name":"setCancelIssuanceComplted","inputs":[{"name":"_issuanceNonce","type":"uint256","internalType":"uint256"},{"name":"_isCompleted","type":"bool","internalType":"bool"}],"outputs":[],"stateMutability":"nonpayable"},{"type":"function","name":"setCancelIssuanceRequestId","inputs":[{"name":"_issuanceNonce","type":"uint256","internalType":"uint256"},{"name":"_token","type":"address","internalType":"address"},{"name":"_requestId","type":"uint256","internalType":"uint256"}],"outputs":[],"stateMutability":"nonpayable"},{"type":"function","name":"setCancelIssuanceUnfilledAmount","inputs":[{"name":"_issuanceNonce","type":"uint256","internalType":"uint256"},{"name":"_token","type":"address","internalType":"address"},{"name":"_amount","type":"uint256","internalType":"uint256"}],"outputs":[],"stateMutability":"nonpayable"},{"type":"function","name":"setCancelRedemptionComplted","inputs":[{"name":"_redemptionNonce","type":"uint256","internalType":"uint256"},{"name":"_isCompleted","type":"bool","internalType":"bool"}],"outputs":[],"stateMutability":"nonpayable"},{"type":"function","name":"setCancelRedemptionRequestId","inputs":[{"name":"_redemptionNonce","type":"uint256","internalType":"uint256"},{"name":"_token","type":"address","internalType":"address"},{"name":"_requestId","type":"uint256","internalType":"uint256"}],"outputs":[],"stateMutability":"nonpayable"},{"type":"function","name":"setCancelRedemptionUnfilledAmount","inputs":[{"name":"_redemptionNonce","type":"uint256","internalType":"uint256"},{"name":"_token","type":"address","internalType":"address"},{"name":"_amount","type":"uint256","internalType":"uint256"}],"outputs":[],"stateMutability":"nonpayable"},{"type":"function","name":"setDonId","inputs":[{"name":"newDonId","type":"bytes32","internalType":"bytes32"}],"outputs":[],"stateMutability":"nonpayable"},{"type":"function","name":"setFactory","inputs":[{"name":"_factoryAddress","type":"address","internalType":"address"}],"outputs":[],"stateMutability":"nonpayable"},{"type":"function","name":"setFactoryBalancer","inputs":[{"name":"_factoryBalancerAddress","type":"address","internalType":"address"}],"outputs":[],"stateMutability":"nonpayable"},{"type":"function","name":"setFactoryProcessor","inputs":[{"name":"_factoryProcessorAddress","type":"address","internalType":"address"}],"outputs":[],"stateMutability":"nonpayable"},{"type":"function","name":"setFeeRate","inputs":[{"name":"_newFee","type":"uint8","internalType":"uint8"}],"outputs":[],"stateMutability":"nonpayable"},{"type":"function","name":"setFeeReceiver","inputs":[{"name":"_feeReceiver","type":"address","internalType":"address"}],"outputs":[],"stateMutability":"nonpayable"},{"type":"function","name":"setIsMainnet","inputs":[{"name":"_isMainnet","type":"bool","internalType":"bool"}],"outputs":[],"stateMutability":"nonpayable"},{"type":"function","name":"setIssuanceIndexTokenPrimaryTotalSupply","inputs":[{"name":"_issuanceNonce","type":"uint256","internalType":"uint256"},{"name":"_amount","type":"uint256","internalType":"uint256"}],"outputs":[],"stateMutability":"nonpayable"},{"type":"function","name":"setIssuanceInputAmount","inputs":[{"name":"_issuanceNonce","type":"uint256","internalType":"uint256"},{"name":"_amount","type":"uint256","internalType":"uint256"}],"outputs":[],"stateMutability":"nonpayable"},{"type":"function","name":"setIssuanceIsCompleted","inputs":[{"name":"_issuanceNonce","type":"uint256","internalType":"uint256"},{"name":"_isCompleted","type":"bool","internalType":"bool"}],"outputs":[],"stateMutability":"nonpayable"},{"type":"function","name":"setIssuanceRequestId","inputs":[{"name":"_issuanceNonce","type":"uint256","internalType":"uint256"},{"name":"_token","type":"address","internalType":"address"},{"name":"_requestId","type":"uint256","internalType":"uint256"}],"outputs":[],"stateMutability":"nonpayable"},{"type":"function","name":"setIssuanceRequesterByNonce","inputs":[{"name":"_issuanceNonce","type":"uint256","internalType":"uint256"},{"name":"_requester","type":"address","internalType":"address"}],"outputs":[],"stateMutability":"nonpayable"},{"type":"function","name":"setIssuanceTokenPrimaryBalance","inputs":[{"name":"_issuanceNonce","type":"uint256","internalType":"uint256"},{"name":"_token","type":"address","internalType":"address"},{"name":"_amount","type":"uint256","internalType":"uint256"}],"outputs":[],"stateMutability":"nonpayable"},{"type":"function","name":"setIssuer","inputs":[{"name":"_issuer","type":"address","internalType":"address"}],"outputs":[{"name":"","type":"bool","internalType":"bool"}],"stateMutability":"nonpayable"},{"type":"function","name":"setLatestPriceDecimals","inputs":[{"name":"_decimals","type":"uint8","internalType":"uint8"}],"outputs":[],"stateMutability":"nonpayable"},{"type":"function","name":"setOrderInstanceById","inputs":[{"name":"_requestId","type":"uint256","internalType":"uint256"},{"name":"_order","type":"tuple","internalType":"struct IOrderProcessor.Order","components":[{"name":"requestTimestamp","type":"uint64","internalType":"uint64"},{"name":"recipient","type":"address","internalType":"address"},{"name":"assetToken","type":"address","internalType":"address"},{"name":"paymentToken","type":"address","internalType":"address"},{"name":"sell","type":"bool","internalType":"bool"},{"name":"orderType","type":"uint8","internalType":"enum IOrderProcessor.OrderType"},{"name":"assetTokenQuantity","type":"uint256","internalType":"uint256"},{"name":"paymentTokenQuantity","type":"uint256","internalType":"uint256"},{"name":"price","type":"uint256","internalType":"uint256"},{"name":"tif","type":"uint8","internalType":"enum IOrderProcessor.TIF"}]}],"outputs":[],"stateMutability":"nonpayable"},{"type":"function","name":"setOrderManager","inputs":[{"name":"_orderManager","type":"address","internalType":"address"}],"outputs":[{"name":"","type":"bool","internalType":"bool"}],"stateMutability":"nonpayable"},{"type":"function","name":"setPriceFeedAddresses","inputs":[{"name":"_dShares","type":"address[]","internalType":"address[]"},{"name":"_priceFeedAddresses","type":"address[]","internalType":"address[]"}],"outputs":[],"stateMutability":"nonpayable"},{"type":"function","name":"setRedemptionIndexTokenPrimaryTotalSupply","inputs":[{"name":"_redemptionNonce","type":"uint256","internalType":"uint256"},{"name":"_amount","type":"uint256","internalType":"uint256"}],"outputs":[],"stateMutability":"nonpayable"},{"type":"function","name":"setRedemptionInputAmount","inputs":[{"name":"_redemptionNonce","type":"uint256","internalType":"uint256"},{"name":"_amount","type":"uint256","internalType":"uint256"}],"outputs":[],"stateMutability":"nonpayable"},{"type":"function","name":"setRedemptionIsCompleted","inputs":[{"name":"_redemptionNonce","type":"uint256","internalType":"uint256"},{"name":"_isCompleted","type":"bool","internalType":"bool"}],"outputs":[],"stateMutability":"nonpayable"},{"type":"function","name":"setRedemptionRequestId","inputs":[{"name":"_redemptionNonce","type":"uint256","internalType":"uint256"},{"name":"_token","type":"address","internalType":"address"},{"name":"_requestId","type":"uint256","internalType":"uint256"}],"outputs":[],"stateMutability":"nonpayable"},{"type":"function","name":"setRedemptionRequesterByNonce","inputs":[{"name":"_redemptionNonce","type":"uint256","internalType":"uint256"},{"name":"_requester","type":"address","internalType":"address"}],"outputs":[],"stateMutability":"nonpayable"},{"type":"function","name":"setRedemptionTokenPrimaryBalance","inputs":[{"name":"_redemptionNonce","type":"uint256","internalType":"uint256"},{"name":"_token","type":"address","internalType":"address"},{"name":"_amount","type":"uint256","internalType":"uint256"}],"outputs":[],"stateMutability":"nonpayable"},{"type":"function","name":"setSellRequestAssetAmountById","inputs":[{"name":"_requestId","type":"uint256","internalType":"uint256"},{"name":"_amount","type":"uint256","internalType":"uint256"}],"outputs":[],"stateMutability":"nonpayable"},{"type":"function","name":"setTokenAddress","inputs":[{"name":"_token","type":"address","internalType":"address"}],"outputs":[{"name":"","type":"bool","internalType":"bool"}],"stateMutability":"nonpayable"},{"type":"function","name":"setUrl","inputs":[{"name":"_beforeAddress","type":"string","internalType":"string"},{"name":"_afterAddress","type":"string","internalType":"string"}],"outputs":[],"stateMutability":"nonpayable"},{"type":"function","name":"setUsdcAddress","inputs":[{"name":"_usdc","type":"address","internalType":"address"},{"name":"_usdcDecimals","type":"uint8","internalType":"uint8"}],"outputs":[{"name":"","type":"bool","internalType":"bool"}],"stateMutability":"nonpayable"},{"type":"function","name":"setWrappedDShareAddresses","inputs":[{"name":"_dShares","type":"address[]","internalType":"address[]"},{"name":"_wrappedDShares","type":"address[]","internalType":"address[]"}],"outputs":[],"stateMutability":"nonpayable"},{"type":"function","name":"token","inputs":[],"outputs":[{"name":"","type":"address","internalType":"contract IndexToken"}],"stateMutability":"view"},{"type":"function","name":"tokenCurrentListIndex","inputs":[{"name":"","type":"address","internalType":"address"}],"outputs":[{"name":"","type":"uint256","internalType":"uint256"}],"stateMutability":"view"},{"type":"function","name":"tokenCurrentMarketShare","inputs":[{"name":"","type":"address","internalType":"address"}],"outputs":[{"name":"","type":"uint256","internalType":"uint256"}],"stateMutability":"view"},{"type":"function","name":"tokenOracleListIndex","inputs":[{"name":"","type":"address","internalType":"address"}],"outputs":[{"name":"","type":"uint256","internalType":"uint256"}],"stateMutability":"view"},{"type":"function","name":"tokenOracleMarketShare","inputs":[{"name":"","type":"address","internalType":"address"}],"outputs":[{"name":"","type":"uint256","internalType":"uint256"}],"stateMutability":"view"},{"type":"function","name":"totalCurrentList","inputs":[],"outputs":[{"name":"","type":"uint256","internalType":"uint256"}],"stateMutability":"view"},{"type":"function","name":"totalOracleList","inputs":[],"outputs":[{"name":"","type":"uint256","internalType":"uint256"}],"stateMutability":"view"},{"type":"function","name":"transferOwnership","inputs":[{"name":"to","type":"address","internalType":"address"}],"outputs":[],"stateMutability":"nonpayable"},{"type":"function","name":"updateCurrentList","inputs":[],"outputs":[],"stateMutability":"nonpayable"},{"type":"function","name":"urlParams","inputs":[],"outputs":[{"name":"","type":"string","internalType":"string"}],"stateMutability":"view"},{"type":"function","name":"usdc","inputs":[],"outputs":[{"name":"","type":"address","internalType":"address"}],"stateMutability":"view"},{"type":"function","name":"usdcDecimals","inputs":[],"outputs":[{"name":"","type":"uint8","internalType":"uint8"}],"stateMutability":"view"},{"type":"function","name":"vault","inputs":[],"outputs":[{"name":"","type":"address","internalType":"contract NexVault"}],"stateMutability":"view"},{"type":"function","name":"wrappedDshareAddress","inputs":[{"name":"","type":"address","internalType":"address"}],"outputs":[{"name":"","type":"address","internalType":"address"}],"stateMutability":"view"},{"type":"event","name":"Initialized","inputs":[{"name":"version","type":"uint64","indexed":false,"internalType":"uint64"}],"anonymous":false},{"type":"event","name":"OwnershipTransferRequested","inputs":[{"name":"from","type":"address","indexed":true,"internalType":"address"},{"name":"to","type":"address","indexed":true,"internalType":"address"}],"anonymous":false},{"type":"event","name":"OwnershipTransferred","inputs":[{"name":"from","type":"address","indexed":true,"internalType":"address"},{"name":"to","type":"address","indexed":true,"internalType":"address"}],"anonymous":false},{"type":"event","name":"RequestFulfilled","inputs":[{"name":"id","type":"bytes32","indexed":true,"internalType":"bytes32"}],"anonymous":false},{"type":"event","name":"RequestSent","inputs":[{"name":"id","type":"bytes32","indexed":true,"internalType":"bytes32"}],"anonymous":false},{"type":"error","name":"EmptyArgs","inputs":[]},{"type":"error","name":"EmptySource","inputs":[]},{"type":"error","name":"InvalidInitialization","inputs":[]},{"type":"error","name":"NoInlineSecrets","inputs":[]},{"type":"error","name":"NotInitializing","inputs":[]},{"type":"error","name":"OnlyRouterCanFulfill","inputs":[]},{"type":"error","name":"PRBMath_MulDiv_Overflow","inputs":[{"name":"x","type":"uint256","internalType":"uint256"},{"name":"y","type":"uint256","internalType":"uint256"},{"name":"denominator","type":"uint256","internalType":"uint256"}]},{"type":"error","name":"PRBMath_MulDiv_Overflow","inputs":[{"name":"x","type":"uint256","internalType":"uint256"},{"name":"y","type":"uint256","internalType":"uint256"},{"name":"denominator","type":"uint256","internalType":"uint256"}]}],"bytecode":{"object":"0x6080604052348015600e575f80fd5b5061d3888061001c5f395ff3fe608060405234801561000f575f80fd5b5060043610610741575f3560e01c80638c03c55a116103bc578063b592662a116101fd578063daf1c17d11610123578063efdcd974116100b6578063f513a71811610085578063f513a71814611823578063f9b6117f14611853578063fbfa77cf14611871578063fc0c546a1461188f57610741565b8063efdcd9741461178b578063efdf5053146117a7578063f1f31d66146117d7578063f2fde38b1461180757610741565b8063e3c91043116100f2578063e3c9104314611703578063e789598c14611721578063ea5142c81461173f578063eab2a7111461175b57610741565b8063daf1c17d14611657578063df1d5ea214611687578063e19eefbe146116a3578063e2851bd6146116d357610741565b8063cb4d4e091161019b578063d34ed2ab1161016a578063d34ed2ab146115d3578063d57e0493146115ef578063d5fbea631461160b578063da65925a1461162757610741565b8063cb4d4e091461154d578063cf9ee3191461156b578063d1c0cee61461159b578063d1e4a308146115b757610741565b8063c7003d1b116101d7578063c7003d1b146114c5578063c8599ded146114e1578063c8da3303146114ff578063c8f33c911461152f57610741565b8063b592662a14611447578063bb0498de14611477578063c0da840d1461149557610741565b80639dbb9c9e116102e2578063ab7820b211610280578063b1dd819e1161024f578063b1dd819e146113ad578063b3f00674146113dd578063b411dc41146113fb578063b46840f91461141757610741565b8063ab7820b214611301578063addc70d114611331578063b0e121341461134d578063b12279aa1461137d57610741565b8063a363b9cb116102bc578063a363b9cb14611255578063a73e1cbf14611285578063a84ebc17146112a1578063a87f98d2146112d157610741565b80639dbb9c9e146111d75780639edcf9f4146111f5578063a08d7bd61461122557610741565b8063946740981161035a5780639932ba4c116103295780639932ba4c1461113f57806399f68da81461116f5780639b2d6e3b1461118b5780639cf54521146111a757610741565b806394674098146110b7578063966dae0e146110e7578063978bbdb914611105578063991be68e1461112357610741565b80638da5cb5b116103965780638da5cb5b1461102f5780638dbe7b9d1461104d5780638e97d7e11461106b578063914f0cc61461108757610741565b80638c03c55a14610f9f5780638c22189914610fcf5780638c88c10c14610fff57610741565b806342faac05116105865780636ea495df116104ac5780637a6c4b7b1161044a5780638182492a116104195780638182492a14610f2b57806384d77bb114610f475780638861d23514610f655780638baa6bf114610f9557610741565b80637a6c4b7b14610ea55780637bf4216514610ec15780637bfa27f214610edf5780637cd375e214610f0f57610741565b806378032658116104865780637803265814610e455780637851b90514610e7557806378ca5de714610e7f57806379ba509714610e9b57610741565b80636ea495df14610ddd5780636ea8655614610df957806376529fdf14610e1557610741565b806355cc4e57116105245780636188199f116104f35780636188199f14610d31578063631c838514610d4d578063632439fd14610d7d5780636839a09514610dad57610741565b806355cc4e5714610cab57806357b61bc314610cdb5780635bb4780814610cf75780635bcabf0414610d1357610741565b80634b3e0b80116105605780634b3e0b8014610c375780635177942a14610c6757806353fd433214610c835780635501c6cf14610ca157610741565b806342faac0514610be1578063457e0e0f14610bff578063496304a414610c1b57610741565b806315e666a21161066b578063264fa8b91161060957806335c51204116105d857806335c5120414610b465780633c1f70ca14610b625780633e413bee14610b935780633fac092214610bb157610741565b8063264fa8b914610a9a57806326a4e8d214610aca5780632e6b96e714610afa5780633250263914610b2a57610741565b80631e2ad86e116106455780631e2ad86e14610a0257806321de914f14610a1e5780632343acb414610a3a578063239aad0d14610a6a57610741565b806315e666a21461098f5780631c7a2959146109c85780631d143848146109e457610741565b80630acb8d40116106e35780630ca76175116106b25780630ca76175146108f75780630e3293571461091357806312b6d2e614610943578063147726ae1461095f57610741565b80630acb8d401461085b5780630b1a4918146108795780630b1fa733146108a95780630be52713146108c757610741565b806306995e3b1161071f57806306995e3b146107af57806308dc4b0c146107df578063092755e01461080f5780630a1d42701461083f57610741565b8063011ced5f1461074557806302e80f71146107635780630499a61d14610793575b5f80fd5b61074d6118ad565b60405161075a9190619c7e565b60405180910390f35b61077d60048036038101906107789190619d2c565b6118b3565b60405161078a9190619c7e565b60405180910390f35b6107ad60048036038101906107a89190619d6a565b6118d3565b005b6107c960048036038101906107c49190619d95565b61198c565b6040516107d69190619c7e565b60405180910390f35b6107f960048036038101906107f49190619d6a565b611ab3565b6040516108069190619dcf565b60405180910390f35b61082960048036038101906108249190619d6a565b611ae3565b6040516108369190619dcf565b60405180910390f35b61085960048036038101906108549190619e1d565b611b13565b005b610863611c7c565b6040516108709190619dcf565b60405180910390f35b610893600480360381019061088e9190619d95565b611ca1565b6040516108a09190619e6a565b60405180910390f35b6108b1611e21565b6040516108be9190619e9e565b60405180910390f35b6108e160048036038101906108dc9190619d6a565b611e33565b6040516108ee9190619c7e565b60405180910390f35b610911600480360381019061090c919061a026565b611e48565b005b61092d6004803603810190610928919061a14c565b611f09565b60405161093a919061a222565b60405180910390f35b61095d6004803603810190610958919061a242565b611f35565b005b61097960048036038101906109749190619d95565b612178565b604051610986919061a2ce565b60405180910390f35b6109a960048036038101906109a49190619d95565b6121f8565b6040516109bf9a9998979695949392919061a3c2565b60405180910390f35b6109e260048036038101906109dd919061a242565b6122de565b005b6109ec612521565b6040516109f9919061a4b7565b60405180910390f35b610a1c6004803603810190610a17919061a4d0565b612546565b005b610a386004803603810190610a33919061a242565b6126df565b005b610a546004803603810190610a4f9190619d95565b6128e0565b604051610a619190619e6a565b60405180910390f35b610a846004803603810190610a7f9190619d95565b612a79565b604051610a919190619dcf565b60405180910390f35b610ab46004803603810190610aaf9190619d2c565b612aa9565b604051610ac19190619c7e565b60405180910390f35b610ae46004803603810190610adf9190619d6a565b612ac9565b604051610af19190619e6a565b60405180910390f35b610b146004803603810190610b0f919061a546565b612b89565b604051610b219190619c7e565b60405180910390f35b610b446004803603810190610b3f919061a5ae565b612bc6565b005b610b606004803603810190610b5b919061a740565b612c30565b005b610b7c6004803603810190610b779190619d95565b612f65565b604051610b8a92919061a77f565b60405180910390f35b610b9b612f85565b604051610ba89190619dcf565b60405180910390f35b610bcb6004803603810190610bc69190619d95565b612faa565b604051610bd89190619e6a565b60405180910390f35b610be9613143565b604051610bf69190619e6a565b60405180910390f35b610c196004803603810190610c14919061a242565b613156565b005b610c356004803603810190610c30919061a242565b613399565b005b610c516004803603810190610c4c9190619d6a565b6135dc565b604051610c5e9190619c7e565b60405180910390f35b610c816004803603810190610c7c919061a5ae565b6135f1565b005b610c8b6136e2565b604051610c989190619c7e565b60405180910390f35b610ca96136e8565b005b610cc56004803603810190610cc09190619d6a565b613840565b604051610cd29190619e6a565b60405180910390f35b610cf56004803603810190610cf0919061a86a565b613900565b005b610d116004803603810190610d0c9190619d6a565b613a18565b005b610d1b613ad1565b604051610d28919061a222565b60405180910390f35b610d4b6004803603810190610d46919061a4d0565b613b5d565b005b610d676004803603810190610d629190619d95565b613cf6565b604051610d749190619e6a565b60405180910390f35b610d976004803603810190610d929190619d2c565b61425e565b604051610da49190619c7e565b60405180910390f35b610dc76004803603810190610dc29190619d6a565b61427e565b604051610dd49190619c7e565b60405180910390f35b610df76004803603810190610df2919061a4d0565b614548565b005b610e136004803603810190610e0e919061a242565b61469f565b005b610e2f6004803603810190610e2a9190619d95565b6148e2565b604051610e3c9190619e6a565b60405180910390f35b610e5f6004803603810190610e5a9190619d95565b6148ff565b604051610e6c9190619dcf565b60405180910390f35b610e7d61492f565b005b610e996004803603810190610e94919061a8e0565b614a87565b005b610ea3614a99565b005b610ebf6004803603810190610eba919061a242565b614c2a565b005b610ec9614e6d565b604051610ed69190619e9e565b60405180910390f35b610ef96004803603810190610ef49190619d95565b614e80565b604051610f069190619e6a565b60405180910390f35b610f296004803603810190610f249190619e1d565b614e9d565b005b610f456004803603810190610f40919061a958565b615006565b005b610f4f6151b0565b604051610f5c9190619c7e565b60405180910390f35b610f7f6004803603810190610f7a9190619d95565b6151b6565b604051610f8c9190619c7e565b60405180910390f35b610f9d6151cb565b005b610fb96004803603810190610fb4919061ab27565b6153c4565b604051610fc6919061ac40565b60405180910390f35b610fe96004803603810190610fe49190619d2c565b615521565b604051610ff69190619c7e565b60405180910390f35b61101960048036038101906110149190619d6a565b615541565b6040516110269190619c7e565b60405180910390f35b611037615556565b6040516110449190619dcf565b60405180910390f35b61105561557e565b604051611062919061ac40565b60405180910390f35b61108560048036038101906110809190619e1d565b615584565b005b6110a1600480360381019061109c9190619d6a565b6156ed565b6040516110ae9190619c7e565b60405180910390f35b6110d160048036038101906110cc9190619d95565b615702565b6040516110de9190619dcf565b60405180910390f35b6110ef615732565b6040516110fc9190619dcf565b60405180910390f35b61110d615757565b60405161111a9190619e9e565b60405180910390f35b61113d6004803603810190611138919061ac59565b61576a565b005b61115960048036038101906111549190619d95565b61578f565b6040516111669190619dcf565b60405180910390f35b6111896004803603810190611184919061a4d0565b6157bf565b005b6111a560048036038101906111a0919061a242565b615916565b005b6111c160048036038101906111bc9190619d95565b615b17565b6040516111ce9190619c7e565b60405180910390f35b6111df615b2c565b6040516111ec9190619c7e565b60405180910390f35b61120f600480360381019061120a9190619d2c565b615b32565b60405161121c9190619c7e565b60405180910390f35b61123f600480360381019061123a9190619d6a565b615b52565b60405161124c9190619c7e565b60405180910390f35b61126f600480360381019061126a9190619d2c565b615d3e565b60405161127c9190619c7e565b60405180910390f35b61129f600480360381019061129a919061a14c565b615d5e565b005b6112bb60048036038101906112b69190619d95565b615d8a565b6040516112c89190619e6a565b60405180910390f35b6112eb60048036038101906112e69190619d95565b615da7565b6040516112f89190619c7e565b60405180910390f35b61131b60048036038101906113169190619d95565b615dbc565b6040516113289190619c7e565b60405180910390f35b61134b6004803603810190611346919061ad44565b615dd0565b005b61136760048036038101906113629190619d95565b615de6565b6040516113749190619e6a565b60405180910390f35b6113976004803603810190611392919061ac59565b615f66565b6040516113a4919061aecf565b60405180910390f35b6113c760048036038101906113c29190619d95565b6160b0565b6040516113d49190619c7e565b60405180910390f35b6113e56160c5565b6040516113f29190619dcf565b60405180910390f35b6114156004803603810190611410919061a86a565b6160eb565b005b611431600480360381019061142c9190619d95565b616203565b60405161143e9190619e6a565b60405180910390f35b611461600480360381019061145c9190619d95565b616220565b60405161146e9190619e6a565b60405180910390f35b61147f616788565b60405161148c9190619c7e565b60405180910390f35b6114af60048036038101906114aa9190619d6a565b6167f6565b6040516114bc9190619e6a565b60405180910390f35b6114df60048036038101906114da919061a4d0565b6168b6565b005b6114e9616a4f565b6040516114f69190619c7e565b60405180910390f35b61151960048036038101906115149190619d95565b616a55565b6040516115269190619c7e565b60405180910390f35b611537616b59565b6040516115449190619c7e565b60405180910390f35b611555616b5f565b6040516115629190619dcf565b60405180910390f35b61158560048036038101906115809190619d95565b616b84565b6040516115929190619c7e565b60405180910390f35b6115b560048036038101906115b09190619e1d565b616b99565b005b6115d160048036038101906115cc919061a4d0565b616d02565b005b6115ed60048036038101906115e89190619d2c565b616edd565b005b6116096004803603810190611604919061aee9565b6170db565b005b61162560048036038101906116209190619d6a565b6177b5565b005b611641600480360381019061163c9190619d2c565b61786e565b60405161164e9190619c7e565b60405180910390f35b611671600480360381019061166c9190619d95565b61788e565b60405161167e9190619c7e565b60405180910390f35b6116a1600480360381019061169c9190619d2c565b6178a3565b005b6116bd60048036038101906116b89190619d95565b617aa1565b6040516116ca9190619c7e565b60405180910390f35b6116ed60048036038101906116e89190619d95565b617c88565b6040516116fa9190619c7e565b60405180910390f35b61170b617d8c565b6040516117189190619dcf565b60405180910390f35b611729617db1565b604051611736919061a222565b60405180910390f35b6117596004803603810190611754919061a4d0565b617e3d565b005b6117756004803603810190611770919061afad565b617fd6565b6040516117829190619e6a565b60405180910390f35b6117a560048036038101906117a09190619d6a565b6180f7565b005b6117c160048036038101906117bc9190619d6a565b6181b1565b6040516117ce9190619c7e565b60405180910390f35b6117f160048036038101906117ec9190619d95565b618260565b6040516117fe919061aecf565b60405180910390f35b611821600480360381019061181c9190619d6a565b6184ab565b005b61183d60048036038101906118389190619d2c565b6184bf565b60405161184a9190619c7e565b60405180910390f35b61185b6184df565b604051611868919061b00b565b60405180910390f35b611879618504565b604051611886919061b044565b60405180910390f35b611897618529565b6040516118a4919061b07d565b60405180910390f35b601a5481565b6021602052815f5260405f20602052805f5260405f205f91509150505481565b6118db61854e565b5f73ffffffffffffffffffffffffffffffffffffffff168173ffffffffffffffffffffffffffffffffffffffff1603611949576040517f08c379a00000000000000000000000000000000000000000000000000000000081526004016119409061b106565b60405180910390fd5b8060075f6101000a81548173ffffffffffffffffffffffffffffffffffffffff021916908373ffffffffffffffffffffffffffffffffffffffff16021790555050565b5f8082116119cf576040517f08c379a00000000000000000000000000000000000000000000000000000000081526004016119c69061b16e565b60405180910390fd5b5f8060175f9054906101000a900473ffffffffffffffffffffffffffffffffffffffff1673ffffffffffffffffffffffffffffffffffffffff1663236970d45f60185f9054906101000a900473ffffffffffffffffffffffffffffffffffffffff166040518363ffffffff1660e01b8152600401611a4e92919061b18c565b6040805180830381865afa158015611a68573d5f803e3d5ffd5b505050506040513d601f19601f82011682018060405250810190611a8c919061b1db565b915091505f611a9b82866185df565b83611aa6919061b246565b9050809350505050919050565b6014602052805f5260405f205f915054906101000a900473ffffffffffffffffffffffffffffffffffffffff1681565b600f602052805f5260405f205f915054906101000a900473ffffffffffffffffffffffffffffffffffffffff1681565b60055f9054906101000a900473ffffffffffffffffffffffffffffffffffffffff1673ffffffffffffffffffffffffffffffffffffffff163373ffffffffffffffffffffffffffffffffffffffff161480611bba575060075f9054906101000a900473ffffffffffffffffffffffffffffffffffffffff1673ffffffffffffffffffffffffffffffffffffffff163373ffffffffffffffffffffffffffffffffffffffff16145b80611c11575060065f9054906101000a900473ffffffffffffffffffffffffffffffffffffffff1673ffffffffffffffffffffffffffffffffffffffff163373ffffffffffffffffffffffffffffffffffffffff16145b611c50576040517f08c379a0000000000000000000000000000000000000000000000000000000008152600401611c479061b2c3565b60405180910390fd5b80601f5f8481526020019081526020015f205f6101000a81548160ff0219169083151502179055505050565b60075f9054906101000a900473ffffffffffffffffffffffffffffffffffffffff1681565b5f805b600c54811015611e17575f600e5f8381526020019081526020015f205f9054906101000a900473ffffffffffffffffffffffffffffffffffffffff1690505f60245f8681526020019081526020015f205f8373ffffffffffffffffffffffffffffffffffffffff1673ffffffffffffffffffffffffffffffffffffffff1681526020019081526020015f2054905060016003811115611d4657611d4561a309565b5b60ff1660175f9054906101000a900473ffffffffffffffffffffffffffffffffffffffff1673ffffffffffffffffffffffffffffffffffffffff166345fa8aae836040518263ffffffff1660e01b8152600401611da39190619c7e565b602060405180830381865afa158015611dbe573d5f803e3d5ffd5b505050506040513d601f19601f82011682018060405250810190611de2919061b304565b6003811115611df457611df361a309565b5b60ff1603611e085760019350505050611e1c565b50508080600101915050611ca4565b505f90505b919050565b601d5f9054906101000a900460ff1681565b6012602052805f5260405f205f915090505481565b5f8054906101000a900473ffffffffffffffffffffffffffffffffffffffff1673ffffffffffffffffffffffffffffffffffffffff163373ffffffffffffffffffffffffffffffffffffffff1614611ecc576040517fc6829f8300000000000000000000000000000000000000000000000000000000815260040160405180910390fd5b611ed7838383618613565b827f85e1543bf2f84fe80c6badbce3648c8539ad1df4d2b3d822938ca0538be727e660405160405180910390a2505050565b60608282604051602001611f1e92919061b373565b604051602081830303815290604052905092915050565b60055f9054906101000a900473ffffffffffffffffffffffffffffffffffffffff1673ffffffffffffffffffffffffffffffffffffffff163373ffffffffffffffffffffffffffffffffffffffff161480611fdc575060075f9054906101000a900473ffffffffffffffffffffffffffffffffffffffff1673ffffffffffffffffffffffffffffffffffffffff163373ffffffffffffffffffffffffffffffffffffffff16145b80612033575060065f9054906101000a900473ffffffffffffffffffffffffffffffffffffffff1673ffffffffffffffffffffffffffffffffffffffff163373ffffffffffffffffffffffffffffffffffffffff16145b612072576040517f08c379a00000000000000000000000000000000000000000000000000000000081526004016120699061b2c3565b60405180910390fd5b5f81116120b4576040517f08c379a00000000000000000000000000000000000000000000000000000000081526004016120ab9061b406565b60405180910390fd5b5f73ffffffffffffffffffffffffffffffffffffffff168273ffffffffffffffffffffffffffffffffffffffff1603612122576040517f08c379a00000000000000000000000000000000000000000000000000000000081526004016121199061b46e565b60405180910390fd5b8060335f8581526020019081526020015f205f8473ffffffffffffffffffffffffffffffffffffffff1673ffffffffffffffffffffffffffffffffffffffff1681526020019081526020015f2081905550505050565b612180619aec565b5f82116121c2576040517f08c379a00000000000000000000000000000000000000000000000000000000081526004016121b99061b4d6565b60405180910390fd5b60325f8381526020019081526020015f206040518060400160405290815f82015481526020016001820154815250509050919050565b602f602052805f5260405f205f91509050805f015f9054906101000a900467ffffffffffffffff1690805f0160089054906101000a900473ffffffffffffffffffffffffffffffffffffffff1690806001015f9054906101000a900473ffffffffffffffffffffffffffffffffffffffff1690806002015f9054906101000a900473ffffffffffffffffffffffffffffffffffffffff16908060020160149054906101000a900460ff16908060020160159054906101000a900460ff1690806003015490806004015490806005015490806006015f9054906101000a900460ff1690508a565b60055f9054906101000a900473ffffffffffffffffffffffffffffffffffffffff1673ffffffffffffffffffffffffffffffffffffffff163373ffffffffffffffffffffffffffffffffffffffff161480612385575060075f9054906101000a900473ffffffffffffffffffffffffffffffffffffffff1673ffffffffffffffffffffffffffffffffffffffff163373ffffffffffffffffffffffffffffffffffffffff16145b806123dc575060065f9054906101000a900473ffffffffffffffffffffffffffffffffffffffff1673ffffffffffffffffffffffffffffffffffffffff163373ffffffffffffffffffffffffffffffffffffffff16145b61241b576040517f08c379a00000000000000000000000000000000000000000000000000000000081526004016124129061b2c3565b60405180910390fd5b5f811161245d576040517f08c379a00000000000000000000000000000000000000000000000000000000081526004016124549061b53e565b60405180910390fd5b5f73ffffffffffffffffffffffffffffffffffffffff168273ffffffffffffffffffffffffffffffffffffffff16036124cb576040517f08c379a00000000000000000000000000000000000000000000000000000000081526004016124c29061b46e565b60405180910390fd5b8060245f8581526020019081526020015f205f8473ffffffffffffffffffffffffffffffffffffffff1673ffffffffffffffffffffffffffffffffffffffff1681526020019081526020015f2081905550505050565b60175f9054906101000a900473ffffffffffffffffffffffffffffffffffffffff1681565b60055f9054906101000a900473ffffffffffffffffffffffffffffffffffffffff1673ffffffffffffffffffffffffffffffffffffffff163373ffffffffffffffffffffffffffffffffffffffff1614806125ed575060075f9054906101000a900473ffffffffffffffffffffffffffffffffffffffff1673ffffffffffffffffffffffffffffffffffffffff163373ffffffffffffffffffffffffffffffffffffffff16145b80612644575060065f9054906101000a900473ffffffffffffffffffffffffffffffffffffffff1673ffffffffffffffffffffffffffffffffffffffff163373ffffffffffffffffffffffffffffffffffffffff16145b612683576040517f08c379a000000000000000000000000000000000000000000000000000000000815260040161267a9061b2c3565b60405180910390fd5b5f81116126c5576040517f08c379a00000000000000000000000000000000000000000000000000000000081526004016126bc9061b5a6565b60405180910390fd5b8060265f8481526020019081526020015f20819055505050565b60055f9054906101000a900473ffffffffffffffffffffffffffffffffffffffff1673ffffffffffffffffffffffffffffffffffffffff163373ffffffffffffffffffffffffffffffffffffffff161480612786575060075f9054906101000a900473ffffffffffffffffffffffffffffffffffffffff1673ffffffffffffffffffffffffffffffffffffffff163373ffffffffffffffffffffffffffffffffffffffff16145b806127dd575060065f9054906101000a900473ffffffffffffffffffffffffffffffffffffffff1673ffffffffffffffffffffffffffffffffffffffff163373ffffffffffffffffffffffffffffffffffffffff16145b61281c576040517f08c379a00000000000000000000000000000000000000000000000000000000081526004016128139061b2c3565b60405180910390fd5b5f73ffffffffffffffffffffffffffffffffffffffff168273ffffffffffffffffffffffffffffffffffffffff160361288a576040517f08c379a00000000000000000000000000000000000000000000000000000000081526004016128819061b60e565b60405180910390fd5b8060285f8581526020019081526020015f205f8473ffffffffffffffffffffffffffffffffffffffff1673ffffffffffffffffffffffffffffffffffffffff1681526020019081526020015f2081905550505050565b5f805f5b600c54811015612a5b575f600e5f8381526020019081526020015f205f9054906101000a900473ffffffffffffffffffffffffffffffffffffffff1690505f60235f8781526020019081526020015f205f8373ffffffffffffffffffffffffffffffffffffffff1673ffffffffffffffffffffffffffffffffffffffff1681526020019081526020015f20549050600260038111156129865761298561a309565b5b60ff1660175f9054906101000a900473ffffffffffffffffffffffffffffffffffffffff1673ffffffffffffffffffffffffffffffffffffffff166345fa8aae836040518263ffffffff1660e01b81526004016129e39190619c7e565b602060405180830381865afa1580156129fe573d5f803e3d5ffd5b505050506040513d601f19601f82011682018060405250810190612a22919061b304565b6003811115612a3457612a3361a309565b5b60ff1603612a4c57600184612a49919061b246565b93505b505080806001019150506128e4565b50600c548103612a6f576001915050612a74565b5f9150505b919050565b600d602052805f5260405f205f915054906101000a900473ffffffffffffffffffffffffffffffffffffffff1681565b6023602052815f5260405f20602052805f5260405f205f91509150505481565b5f612ad261854e565b5f73ffffffffffffffffffffffffffffffffffffffff168273ffffffffffffffffffffffffffffffffffffffff1603612b40576040517f08c379a0000000000000000000000000000000000000000000000000000000008152600401612b379061b676565b60405180910390fd5b8160155f6101000a81548173ffffffffffffffffffffffffffffffffffffffff021916908373ffffffffffffffffffffffffffffffffffffffff16021790555060019050919050565b5f808362ffffff1603612b9c575f612bbe565b612bbd82620f424085620f4240612bb3919061b694565b62ffffff1661870a565b5b905092915050565b612bce61854e565b5f8160ff1611612c13576040517f08c379a0000000000000000000000000000000000000000000000000000000008152600401612c0a9061b714565b60405180910390fd5b80601d5f6101000a81548160ff021916908360ff16021790555050565b60055f9054906101000a900473ffffffffffffffffffffffffffffffffffffffff1673ffffffffffffffffffffffffffffffffffffffff163373ffffffffffffffffffffffffffffffffffffffff161480612cd7575060075f9054906101000a900473ffffffffffffffffffffffffffffffffffffffff1673ffffffffffffffffffffffffffffffffffffffff163373ffffffffffffffffffffffffffffffffffffffff16145b80612d2e575060065f9054906101000a900473ffffffffffffffffffffffffffffffffffffffff1673ffffffffffffffffffffffffffffffffffffffff163373ffffffffffffffffffffffffffffffffffffffff16145b612d6d576040517f08c379a0000000000000000000000000000000000000000000000000000000008152600401612d649061b2c3565b60405180910390fd5b5f8211612daf576040517f08c379a0000000000000000000000000000000000000000000000000000000008152600401612da69061b4d6565b60405180910390fd5b80602f5f8481526020019081526020015f205f820151815f015f6101000a81548167ffffffffffffffff021916908367ffffffffffffffff1602179055506020820151815f0160086101000a81548173ffffffffffffffffffffffffffffffffffffffff021916908373ffffffffffffffffffffffffffffffffffffffff1602179055506040820151816001015f6101000a81548173ffffffffffffffffffffffffffffffffffffffff021916908373ffffffffffffffffffffffffffffffffffffffff1602179055506060820151816002015f6101000a81548173ffffffffffffffffffffffffffffffffffffffff021916908373ffffffffffffffffffffffffffffffffffffffff16021790555060808201518160020160146101000a81548160ff02191690831515021790555060a08201518160020160156101000a81548160ff02191690836001811115612f0a57612f0961a309565b5b021790555060c0820151816003015560e082015181600401556101008201518160050155610120820151816006015f6101000a81548160ff02191690836003811115612f5957612f5861a309565b5b02179055509050505050565b6032602052805f5260405f205f91509050805f0154908060010154905082565b60185f9054906101000a900473ffffffffffffffffffffffffffffffffffffffff1681565b5f805f5b600c54811015613125575f600e5f8381526020019081526020015f205f9054906101000a900473ffffffffffffffffffffffffffffffffffffffff1690505f60245f8781526020019081526020015f205f8373ffffffffffffffffffffffffffffffffffffffff1673ffffffffffffffffffffffffffffffffffffffff1681526020019081526020015f20549050600260038111156130505761304f61a309565b5b60ff1660175f9054906101000a900473ffffffffffffffffffffffffffffffffffffffff1673ffffffffffffffffffffffffffffffffffffffff166345fa8aae836040518263ffffffff1660e01b81526004016130ad9190619c7e565b602060405180830381865afa1580156130c8573d5f803e3d5ffd5b505050506040513d601f19601f820116820180604052508101906130ec919061b304565b60038111156130fe576130fd61a309565b5b60ff160361311657600184613113919061b246565b93505b50508080600101915050612fae565b50600c54810361313957600191505061313e565b5f9150505b919050565b601960149054906101000a900460ff1681565b60055f9054906101000a900473ffffffffffffffffffffffffffffffffffffffff1673ffffffffffffffffffffffffffffffffffffffff163373ffffffffffffffffffffffffffffffffffffffff1614806131fd575060075f9054906101000a900473ffffffffffffffffffffffffffffffffffffffff1673ffffffffffffffffffffffffffffffffffffffff163373ffffffffffffffffffffffffffffffffffffffff16145b80613254575060065f9054906101000a900473ffffffffffffffffffffffffffffffffffffffff1673ffffffffffffffffffffffffffffffffffffffff163373ffffffffffffffffffffffffffffffffffffffff16145b613293576040517f08c379a000000000000000000000000000000000000000000000000000000000815260040161328a9061b2c3565b60405180910390fd5b5f81116132d5576040517f08c379a00000000000000000000000000000000000000000000000000000000081526004016132cc9061b53e565b60405180910390fd5b5f73ffffffffffffffffffffffffffffffffffffffff168273ffffffffffffffffffffffffffffffffffffffff1603613343576040517f08c379a000000000000000000000000000000000000000000000000000000000815260040161333a9061b46e565b60405180910390fd5b8060225f8581526020019081526020015f205f8473ffffffffffffffffffffffffffffffffffffffff1673ffffffffffffffffffffffffffffffffffffffff1681526020019081526020015f2081905550505050565b60055f9054906101000a900473ffffffffffffffffffffffffffffffffffffffff1673ffffffffffffffffffffffffffffffffffffffff163373ffffffffffffffffffffffffffffffffffffffff161480613440575060075f9054906101000a900473ffffffffffffffffffffffffffffffffffffffff1673ffffffffffffffffffffffffffffffffffffffff163373ffffffffffffffffffffffffffffffffffffffff16145b80613497575060065f9054906101000a900473ffffffffffffffffffffffffffffffffffffffff1673ffffffffffffffffffffffffffffffffffffffff163373ffffffffffffffffffffffffffffffffffffffff16145b6134d6576040517f08c379a00000000000000000000000000000000000000000000000000000000081526004016134cd9061b2c3565b60405180910390fd5b5f8111613518576040517f08c379a000000000000000000000000000000000000000000000000000000000815260040161350f9061b77c565b60405180910390fd5b5f73ffffffffffffffffffffffffffffffffffffffff168273ffffffffffffffffffffffffffffffffffffffff1603613586576040517f08c379a000000000000000000000000000000000000000000000000000000000815260040161357d9061b46e565b60405180910390fd5b8060235f8581526020019081526020015f205f8473ffffffffffffffffffffffffffffffffffffffff1673ffffffffffffffffffffffffffffffffffffffff1681526020019081526020015f2081905550505050565b6013602052805f5260405f205f915090505481565b6135f961854e565b5f601a5442613608919061b79a565b9050600c603c808361361a919061b7fa565b613624919061b7fa565b11613664576040517f08c379a000000000000000000000000000000000000000000000000000000000815260040161365b9061b89a565b60405180910390fd5b6127108260ff161115801561367d575060018260ff1610155b6136bc576040517f08c379a00000000000000000000000000000000000000000000000000000000081526004016136b39061b928565b60405180910390fd5b81601960156101000a81548160ff021916908360ff16021790555042601a819055505050565b600c5481565b60055f9054906101000a900473ffffffffffffffffffffffffffffffffffffffff1673ffffffffffffffffffffffffffffffffffffffff163373ffffffffffffffffffffffffffffffffffffffff16148061378f575060075f9054906101000a900473ffffffffffffffffffffffffffffffffffffffff1673ffffffffffffffffffffffffffffffffffffffff163373ffffffffffffffffffffffffffffffffffffffff16145b806137e6575060065f9054906101000a900473ffffffffffffffffffffffffffffffffffffffff1673ffffffffffffffffffffffffffffffffffffffff163373ffffffffffffffffffffffffffffffffffffffff16145b613825576040517f08c379a000000000000000000000000000000000000000000000000000000000815260040161381c9061b2c3565b60405180910390fd5b6001601b5f828254613837919061b246565b92505081905550565b5f61384961854e565b5f73ffffffffffffffffffffffffffffffffffffffff168273ffffffffffffffffffffffffffffffffffffffff16036138b7576040517f08c379a00000000000000000000000000000000000000000000000000000000081526004016138ae9061b990565b60405180910390fd5b8160175f6101000a81548173ffffffffffffffffffffffffffffffffffffffff021916908373ffffffffffffffffffffffffffffffffffffffff16021790555060019050919050565b61390861854e565b805182511461394c576040517f08c379a00000000000000000000000000000000000000000000000000000000081526004016139439061b9f8565b60405180910390fd5b5f5b8251811015613a135781818151811061396a5761396961ba16565b5b602002602001015160145f8584815181106139885761398761ba16565b5b602002602001015173ffffffffffffffffffffffffffffffffffffffff1673ffffffffffffffffffffffffffffffffffffffff1681526020019081526020015f205f6101000a81548173ffffffffffffffffffffffffffffffffffffffff021916908373ffffffffffffffffffffffffffffffffffffffff160217905550808060010191505061394e565b505050565b613a2061854e565b5f73ffffffffffffffffffffffffffffffffffffffff168173ffffffffffffffffffffffffffffffffffffffff1603613a8e576040517f08c379a0000000000000000000000000000000000000000000000000000000008152600401613a859061ba8d565b60405180910390fd5b8060055f6101000a81548173ffffffffffffffffffffffffffffffffffffffff021916908373ffffffffffffffffffffffffffffffffffffffff16021790555050565b60038054613ade9061bad8565b80601f0160208091040260200160405190810160405280929190818152602001828054613b0a9061bad8565b8015613b555780601f10613b2c57610100808354040283529160200191613b55565b820191905f5260205f20905b815481529060010190602001808311613b3857829003601f168201915b505050505081565b60055f9054906101000a900473ffffffffffffffffffffffffffffffffffffffff1673ffffffffffffffffffffffffffffffffffffffff163373ffffffffffffffffffffffffffffffffffffffff161480613c04575060075f9054906101000a900473ffffffffffffffffffffffffffffffffffffffff1673ffffffffffffffffffffffffffffffffffffffff163373ffffffffffffffffffffffffffffffffffffffff16145b80613c5b575060065f9054906101000a900473ffffffffffffffffffffffffffffffffffffffff1673ffffffffffffffffffffffffffffffffffffffff163373ffffffffffffffffffffffffffffffffffffffff16145b613c9a576040517f08c379a0000000000000000000000000000000000000000000000000000000008152600401613c919061b2c3565b60405180910390fd5b5f8111613cdc576040517f08c379a0000000000000000000000000000000000000000000000000000000008152600401613cd39061bb52565b60405180910390fd5b8060205f8481526020019081526020015f20819055505050565b5f805f5b600c54811015614240575f600e5f8381526020019081526020015f205f9054906101000a900473ffffffffffffffffffffffffffffffffffffffff1690505f60235f8781526020019081526020015f205f8373ffffffffffffffffffffffffffffffffffffffff1673ffffffffffffffffffffffffffffffffffffffff1681526020019081526020015f205490505f60175f9054906101000a900473ffffffffffffffffffffffffffffffffffffffff1673ffffffffffffffffffffffffffffffffffffffff166361ecbb44836040518263ffffffff1660e01b8152600401613de39190619c7e565b602060405180830381865afa158015613dfe573d5f803e3d5ffd5b505050506040513d601f19601f82011682018060405250810190613e22919061bb70565b9050600380811115613e3757613e3661a309565b5b60ff1660175f9054906101000a900473ffffffffffffffffffffffffffffffffffffffff1673ffffffffffffffffffffffffffffffffffffffff166345fa8aae846040518263ffffffff1660e01b8152600401613e949190619c7e565b602060405180830381865afa158015613eaf573d5f803e3d5ffd5b505050506040513d601f19601f82011682018060405250810190613ed3919061b304565b6003811115613ee557613ee461a309565b5b60ff1603614039575f8103613f0857600185613f01919061b246565b9450614034565b5f60215f8981526020019081526020015f205f8573ffffffffffffffffffffffffffffffffffffffff1673ffffffffffffffffffffffffffffffffffffffff1681526020019081526020015f2054905060026003811115613f6c57613f6b61a309565b5b60ff1660175f9054906101000a900473ffffffffffffffffffffffffffffffffffffffff1673ffffffffffffffffffffffffffffffffffffffff166345fa8aae836040518263ffffffff1660e01b8152600401613fc99190619c7e565b602060405180830381865afa158015613fe4573d5f803e3d5ffd5b505050506040513d601f19601f82011682018060405250810190614008919061b304565b600381111561401a5761401961a309565b5b60ff16036140325760018661402f919061b246565b95505b505b614230565b6002600381111561404d5761404c61a309565b5b60ff1660175f9054906101000a900473ffffffffffffffffffffffffffffffffffffffff1673ffffffffffffffffffffffffffffffffffffffff166345fa8aae846040518263ffffffff1660e01b81526004016140aa9190619c7e565b602060405180830381865afa1580156140c5573d5f803e3d5ffd5b505050506040513d601f19601f820116820180604052508101906140e9919061b304565b60038111156140fb576140fa61a309565b5b60ff160361422f575f60215f8981526020019081526020015f205f8573ffffffffffffffffffffffffffffffffffffffff1673ffffffffffffffffffffffffffffffffffffffff1681526020019081526020015f20549050600260038111156141675761416661a309565b5b60ff1660175f9054906101000a900473ffffffffffffffffffffffffffffffffffffffff1673ffffffffffffffffffffffffffffffffffffffff166345fa8aae836040518263ffffffff1660e01b81526004016141c49190619c7e565b602060405180830381865afa1580156141df573d5f803e3d5ffd5b505050506040513d601f19601f82011682018060405250810190614203919061b304565b60038111156142155761421461a309565b5b60ff160361422d5760018661422a919061b246565b95505b505b5b5050508080600101915050613cfa565b50600c548103614254576001915050614259565b5f9150505b919050565b6034602052815f5260405f20602052805f5260405f205f91509150505481565b5f8073ffffffffffffffffffffffffffffffffffffffff168273ffffffffffffffffffffffffffffffffffffffff16036142ed576040517f08c379a00000000000000000000000000000000000000000000000000000000081526004016142e49061b676565b60405180910390fd5b601960149054906101000a900460ff161561445f575f60145f8473ffffffffffffffffffffffffffffffffffffffff1673ffffffffffffffffffffffffffffffffffffffff1681526020019081526020015f205f9054906101000a900473ffffffffffffffffffffffffffffffffffffffff1690505f8173ffffffffffffffffffffffffffffffffffffffff1663feaf968c6040518163ffffffff1660e01b815260040160a060405180830381865afa1580156143ac573d5f803e3d5ffd5b505050506040513d601f19601f820116820180604052508101906143d0919061bc0d565b5050509150505f8273ffffffffffffffffffffffffffffffffffffffff1663313ce5676040518163ffffffff1660e01b8152600401602060405180830381865afa158015614420573d5f803e3d5ffd5b505050506040513d601f19601f82011682018060405250810190614444919061bc98565b90506144528282601261881c565b9150819350505050614543565b5f60175f9054906101000a900473ffffffffffffffffffffffffffffffffffffffff1673ffffffffffffffffffffffffffffffffffffffff1663a377cfbf8460185f9054906101000a900473ffffffffffffffffffffffffffffffffffffffff166040518363ffffffff1660e01b81526004016144dd92919061bcc3565b6040805180830381865afa1580156144f7573d5f803e3d5ffd5b505050506040513d601f19601f8201168201806040525081019061451b919061bd4b565b90505f61453b825f0151601d5f9054906101000a900460ff16601261881c565b905080925050505b919050565b60055f9054906101000a900473ffffffffffffffffffffffffffffffffffffffff1673ffffffffffffffffffffffffffffffffffffffff163373ffffffffffffffffffffffffffffffffffffffff1614806145ef575060075f9054906101000a900473ffffffffffffffffffffffffffffffffffffffff1673ffffffffffffffffffffffffffffffffffffffff163373ffffffffffffffffffffffffffffffffffffffff16145b80614646575060065f9054906101000a900473ffffffffffffffffffffffffffffffffffffffff1673ffffffffffffffffffffffffffffffffffffffff163373ffffffffffffffffffffffffffffffffffffffff16145b614685576040517f08c379a000000000000000000000000000000000000000000000000000000000815260040161467c9061b2c3565b60405180910390fd5b80602a5f8481526020019081526020015f20819055505050565b60055f9054906101000a900473ffffffffffffffffffffffffffffffffffffffff1673ffffffffffffffffffffffffffffffffffffffff163373ffffffffffffffffffffffffffffffffffffffff161480614746575060075f9054906101000a900473ffffffffffffffffffffffffffffffffffffffff1673ffffffffffffffffffffffffffffffffffffffff163373ffffffffffffffffffffffffffffffffffffffff16145b8061479d575060065f9054906101000a900473ffffffffffffffffffffffffffffffffffffffff1673ffffffffffffffffffffffffffffffffffffffff163373ffffffffffffffffffffffffffffffffffffffff16145b6147dc576040517f08c379a00000000000000000000000000000000000000000000000000000000081526004016147d39061b2c3565b60405180910390fd5b5f811161481e576040517f08c379a00000000000000000000000000000000000000000000000000000000081526004016148159061bde6565b60405180910390fd5b5f73ffffffffffffffffffffffffffffffffffffffff168273ffffffffffffffffffffffffffffffffffffffff160361488c576040517f08c379a00000000000000000000000000000000000000000000000000000000081526004016148839061b46e565b60405180910390fd5b8060345f8581526020019081526020015f205f8473ffffffffffffffffffffffffffffffffffffffff1673ffffffffffffffffffffffffffffffffffffffff1681526020019081526020015f2081905550505050565b601f602052805f5260405f205f915054906101000a900460ff1681565b602c602052805f5260405f205f915054906101000a900473ffffffffffffffffffffffffffffffffffffffff1681565b60055f9054906101000a900473ffffffffffffffffffffffffffffffffffffffff1673ffffffffffffffffffffffffffffffffffffffff163373ffffffffffffffffffffffffffffffffffffffff1614806149d6575060075f9054906101000a900473ffffffffffffffffffffffffffffffffffffffff1673ffffffffffffffffffffffffffffffffffffffff163373ffffffffffffffffffffffffffffffffffffffff16145b80614a2d575060065f9054906101000a900473ffffffffffffffffffffffffffffffffffffffff1673ffffffffffffffffffffffffffffffffffffffff163373ffffffffffffffffffffffffffffffffffffffff16145b614a6c576040517f08c379a0000000000000000000000000000000000000000000000000000000008152600401614a639061b2c3565b60405180910390fd5b6001601c5f828254614a7e919061b246565b92505081905550565b614a8f61854e565b8060088190555050565b60025f9054906101000a900473ffffffffffffffffffffffffffffffffffffffff1673ffffffffffffffffffffffffffffffffffffffff163373ffffffffffffffffffffffffffffffffffffffff1614614b28576040517f08c379a0000000000000000000000000000000000000000000000000000000008152600401614b1f9061be4e565b60405180910390fd5b5f60015f9054906101000a900473ffffffffffffffffffffffffffffffffffffffff1690503360015f6101000a81548173ffffffffffffffffffffffffffffffffffffffff021916908373ffffffffffffffffffffffffffffffffffffffff1602179055505f60025f6101000a81548173ffffffffffffffffffffffffffffffffffffffff021916908373ffffffffffffffffffffffffffffffffffffffff1602179055503373ffffffffffffffffffffffffffffffffffffffff168173ffffffffffffffffffffffffffffffffffffffff167f8be0079c531659141344cd1fd0a4f28419497f9722a3daafe3b4186f6b6457e060405160405180910390a350565b60055f9054906101000a900473ffffffffffffffffffffffffffffffffffffffff1673ffffffffffffffffffffffffffffffffffffffff163373ffffffffffffffffffffffffffffffffffffffff161480614cd1575060075f9054906101000a900473ffffffffffffffffffffffffffffffffffffffff1673ffffffffffffffffffffffffffffffffffffffff163373ffffffffffffffffffffffffffffffffffffffff16145b80614d28575060065f9054906101000a900473ffffffffffffffffffffffffffffffffffffffff1673ffffffffffffffffffffffffffffffffffffffff163373ffffffffffffffffffffffffffffffffffffffff16145b614d67576040517f08c379a0000000000000000000000000000000000000000000000000000000008152600401614d5e9061b2c3565b60405180910390fd5b5f8111614da9576040517f08c379a0000000000000000000000000000000000000000000000000000000008152600401614da09061beb6565b60405180910390fd5b5f73ffffffffffffffffffffffffffffffffffffffff168273ffffffffffffffffffffffffffffffffffffffff1603614e17576040517f08c379a0000000000000000000000000000000000000000000000000000000008152600401614e0e9061b46e565b60405180910390fd5b8060215f8581526020019081526020015f205f8473ffffffffffffffffffffffffffffffffffffffff1673ffffffffffffffffffffffffffffffffffffffff1681526020019081526020015f2081905550505050565b601860149054906101000a900460ff1681565b602d602052805f5260405f205f915054906101000a900460ff1681565b60055f9054906101000a900473ffffffffffffffffffffffffffffffffffffffff1673ffffffffffffffffffffffffffffffffffffffff163373ffffffffffffffffffffffffffffffffffffffff161480614f44575060075f9054906101000a900473ffffffffffffffffffffffffffffffffffffffff1673ffffffffffffffffffffffffffffffffffffffff163373ffffffffffffffffffffffffffffffffffffffff16145b80614f9b575060065f9054906101000a900473ffffffffffffffffffffffffffffffffffffffff1673ffffffffffffffffffffffffffffffffffffffff163373ffffffffffffffffffffffffffffffffffffffff16145b614fda576040517f08c379a0000000000000000000000000000000000000000000000000000000008152600401614fd19061b2c3565b60405180910390fd5b80602d5f8481526020019081526020015f205f6101000a81548160ff0219169083151502179055505050565b60055f9054906101000a900473ffffffffffffffffffffffffffffffffffffffff1673ffffffffffffffffffffffffffffffffffffffff163373ffffffffffffffffffffffffffffffffffffffff1614806150ad575060075f9054906101000a900473ffffffffffffffffffffffffffffffffffffffff1673ffffffffffffffffffffffffffffffffffffffff163373ffffffffffffffffffffffffffffffffffffffff16145b80615104575060065f9054906101000a900473ffffffffffffffffffffffffffffffffffffffff1673ffffffffffffffffffffffffffffffffffffffff163373ffffffffffffffffffffffffffffffffffffffff16145b615143576040517f08c379a000000000000000000000000000000000000000000000000000000000815260040161513a9061b2c3565b60405180910390fd5b5f8211615185576040517f08c379a000000000000000000000000000000000000000000000000000000000815260040161517c9061b4d6565b60405180910390fd5b8060325f8481526020019081526020015f205f820151815f0155602082015181600101559050505050565b601c5481565b6025602052805f5260405f205f915090505481565b60065f9054906101000a900473ffffffffffffffffffffffffffffffffffffffff1673ffffffffffffffffffffffffffffffffffffffff163373ffffffffffffffffffffffffffffffffffffffff161461525a576040517f08c379a00000000000000000000000000000000000000000000000000000000081526004016152519061bf1e565b60405180910390fd5b600b54600c819055505f5b600b548110156153c1575f600d5f8381526020019081526020015f205f9054906101000a900473ffffffffffffffffffffffffffffffffffffffff16905080600e5f8481526020019081526020015f205f6101000a81548173ffffffffffffffffffffffffffffffffffffffff021916908373ffffffffffffffffffffffffffffffffffffffff16021790555060135f8273ffffffffffffffffffffffffffffffffffffffff1673ffffffffffffffffffffffffffffffffffffffff1681526020019081526020015f205460125f8373ffffffffffffffffffffffffffffffffffffffff1673ffffffffffffffffffffffffffffffffffffffff1681526020019081526020015f20819055508160115f8373ffffffffffffffffffffffffffffffffffffffff1673ffffffffffffffffffffffffffffffffffffffff1681526020019081526020015f2081905550508080600101915050615265565b50565b5f6153cd619b04565b6154275f808e8e8080601f0160208091040260200160405190810160405280939291908181526020018383808284375f81840152601f19601f8201169050808301925050505050505084618910909392919063ffffffff16565b6001816020019060028111156154405761543f61a309565b5b908160028111156154545761545361a309565b5b8152505089898080601f0160208091040260200160405190810160405280939291908181526020018383808284375f81840152601f19601f8201169050808301925050505050505081608001819052505f8888905011156154cf576154ce8888906154bf919061bfed565b826189b690919063ffffffff16565b5b5f8686905011156154fa576154f98686906154ea919061c0b2565b826189fd90919063ffffffff16565b5b61551061550682618a44565b8585600854618e49565b9150509a9950505050505050505050565b6022602052815f5260405f20602052805f5260405f205f91509150505481565b6010602052805f5260405f205f915090505481565b5f60015f9054906101000a900473ffffffffffffffffffffffffffffffffffffffff16905090565b60085481565b60055f9054906101000a900473ffffffffffffffffffffffffffffffffffffffff1673ffffffffffffffffffffffffffffffffffffffff163373ffffffffffffffffffffffffffffffffffffffff16148061562b575060075f9054906101000a900473ffffffffffffffffffffffffffffffffffffffff1673ffffffffffffffffffffffffffffffffffffffff163373ffffffffffffffffffffffffffffffffffffffff16145b80615682575060065f9054906101000a900473ffffffffffffffffffffffffffffffffffffffff1673ffffffffffffffffffffffffffffffffffffffff163373ffffffffffffffffffffffffffffffffffffffff16145b6156c1576040517f08c379a00000000000000000000000000000000000000000000000000000000081526004016156b89061b2c3565b60405180910390fd5b80602e5f8481526020019081526020015f205f6101000a81548160ff0219169083151502179055505050565b6011602052805f5260405f205f915090505481565b602b602052805f5260405f205f915054906101000a900473ffffffffffffffffffffffffffffffffffffffff1681565b60055f9054906101000a900473ffffffffffffffffffffffffffffffffffffffff1681565b601960159054906101000a900460ff1681565b61577261854e565b80601960146101000a81548160ff02191690831515021790555050565b600e602052805f5260405f205f915054906101000a900473ffffffffffffffffffffffffffffffffffffffff1681565b60055f9054906101000a900473ffffffffffffffffffffffffffffffffffffffff1673ffffffffffffffffffffffffffffffffffffffff163373ffffffffffffffffffffffffffffffffffffffff161480615866575060075f9054906101000a900473ffffffffffffffffffffffffffffffffffffffff1673ffffffffffffffffffffffffffffffffffffffff163373ffffffffffffffffffffffffffffffffffffffff16145b806158bd575060065f9054906101000a900473ffffffffffffffffffffffffffffffffffffffff1673ffffffffffffffffffffffffffffffffffffffff163373ffffffffffffffffffffffffffffffffffffffff16145b6158fc576040517f08c379a00000000000000000000000000000000000000000000000000000000081526004016158f39061b2c3565b60405180910390fd5b8060295f8481526020019081526020015f20819055505050565b60055f9054906101000a900473ffffffffffffffffffffffffffffffffffffffff1673ffffffffffffffffffffffffffffffffffffffff163373ffffffffffffffffffffffffffffffffffffffff1614806159bd575060075f9054906101000a900473ffffffffffffffffffffffffffffffffffffffff1673ffffffffffffffffffffffffffffffffffffffff163373ffffffffffffffffffffffffffffffffffffffff16145b80615a14575060065f9054906101000a900473ffffffffffffffffffffffffffffffffffffffff1673ffffffffffffffffffffffffffffffffffffffff163373ffffffffffffffffffffffffffffffffffffffff16145b615a53576040517f08c379a0000000000000000000000000000000000000000000000000000000008152600401615a4a9061b2c3565b60405180910390fd5b5f73ffffffffffffffffffffffffffffffffffffffff168273ffffffffffffffffffffffffffffffffffffffff1603615ac1576040517f08c379a0000000000000000000000000000000000000000000000000000000008152600401615ab89061c136565b60405180910390fd5b8060275f8581526020019081526020015f205f8473ffffffffffffffffffffffffffffffffffffffff1673ffffffffffffffffffffffffffffffffffffffff1681526020019081526020015f2081905550505050565b6031602052805f5260405f205f915090505481565b601b5481565b6033602052815f5260405f20602052805f5260405f205f91509150505481565b5f8073ffffffffffffffffffffffffffffffffffffffff168273ffffffffffffffffffffffffffffffffffffffff1603615bc1576040517f08c379a0000000000000000000000000000000000000000000000000000000008152600401615bb89061b676565b60405180910390fd5b5f600f5f8473ffffffffffffffffffffffffffffffffffffffff1673ffffffffffffffffffffffffffffffffffffffff1681526020019081526020015f205f9054906101000a900473ffffffffffffffffffffffffffffffffffffffff1690505f8173ffffffffffffffffffffffffffffffffffffffff166370a0823160165f9054906101000a900473ffffffffffffffffffffffffffffffffffffffff166040518263ffffffff1660e01b8152600401615c7c9190619dcf565b602060405180830381865afa158015615c97573d5f803e3d5ffd5b505050506040513d601f19601f82011682018060405250810190615cbb919061bb70565b90508173ffffffffffffffffffffffffffffffffffffffff16634cdad506826040518263ffffffff1660e01b8152600401615cf69190619c7e565b602060405180830381865afa158015615d11573d5f803e3d5ffd5b505050506040513d601f19601f82011682018060405250810190615d35919061bb70565b92505050919050565b6028602052815f5260405f20602052805f5260405f205f91509150505481565b615d6661854e565b8160039081615d75919061c2e8565b508060049081615d85919061c2e8565b505050565b601e602052805f5260405f205f915054906101000a900460ff1681565b6026602052805f5260405f205f915090505481565b60208052805f5260405f205f915090505481565b615dd861854e565b615de28282618f27565b5050565b5f805b600c54811015615f5c575f600e5f8381526020019081526020015f205f9054906101000a900473ffffffffffffffffffffffffffffffffffffffff1690505f60235f8681526020019081526020015f205f8373ffffffffffffffffffffffffffffffffffffffff1673ffffffffffffffffffffffffffffffffffffffff1681526020019081526020015f2054905060016003811115615e8b57615e8a61a309565b5b60ff1660175f9054906101000a900473ffffffffffffffffffffffffffffffffffffffff1673ffffffffffffffffffffffffffffffffffffffff166345fa8aae836040518263ffffffff1660e01b8152600401615ee89190619c7e565b602060405180830381865afa158015615f03573d5f803e3d5ffd5b505050506040513d601f19601f82011682018060405250810190615f27919061b304565b6003811115615f3957615f3861a309565b5b60ff1603615f4d5760019350505050615f61565b50508080600101915050615de9565b505f90505b919050565b615f6e619b73565b6040518061014001604052804267ffffffffffffffff1681526020013073ffffffffffffffffffffffffffffffffffffffff16815260200160155f9054906101000a900473ffffffffffffffffffffffffffffffffffffffff1673ffffffffffffffffffffffffffffffffffffffff16815260200160185f9054906101000a900473ffffffffffffffffffffffffffffffffffffffff1673ffffffffffffffffffffffffffffffffffffffff16815260200183151581526020015f600181111561603b5761603a61a309565b5b81526020018361604b575f616056565b68056bc75e2d631000005b68ffffffffffffffffff1681526020018361607a5768056bc75e2d6310000061607c565b5f5b68ffffffffffffffffff1681526020015f8152602001600160038111156160a6576160a561a309565b5b8152509050919050565b6029602052805f5260405f205f915090505481565b601d60019054906101000a900473ffffffffffffffffffffffffffffffffffffffff1681565b6160f361854e565b8051825114616137576040517f08c379a000000000000000000000000000000000000000000000000000000000815260040161612e9061b9f8565b60405180910390fd5b5f5b82518110156161fe578181815181106161555761615461ba16565b5b6020026020010151600f5f8584815181106161735761617261ba16565b5b602002602001015173ffffffffffffffffffffffffffffffffffffffff1673ffffffffffffffffffffffffffffffffffffffff1681526020019081526020015f205f6101000a81548173ffffffffffffffffffffffffffffffffffffffff021916908373ffffffffffffffffffffffffffffffffffffffff1602179055508080600101915050616139565b505050565b602e602052805f5260405f205f915054906101000a900460ff1681565b5f805f5b600c5481101561676a575f600e5f8381526020019081526020015f205f9054906101000a900473ffffffffffffffffffffffffffffffffffffffff1690505f60245f8781526020019081526020015f205f8373ffffffffffffffffffffffffffffffffffffffff1673ffffffffffffffffffffffffffffffffffffffff1681526020019081526020015f205490505f60175f9054906101000a900473ffffffffffffffffffffffffffffffffffffffff1673ffffffffffffffffffffffffffffffffffffffff166361ecbb44836040518263ffffffff1660e01b815260040161630d9190619c7e565b602060405180830381865afa158015616328573d5f803e3d5ffd5b505050506040513d601f19601f8201168201806040525081019061634c919061bb70565b90506003808111156163615761636061a309565b5b60ff1660175f9054906101000a900473ffffffffffffffffffffffffffffffffffffffff1673ffffffffffffffffffffffffffffffffffffffff166345fa8aae846040518263ffffffff1660e01b81526004016163be9190619c7e565b602060405180830381865afa1580156163d9573d5f803e3d5ffd5b505050506040513d601f19601f820116820180604052508101906163fd919061b304565b600381111561640f5761640e61a309565b5b60ff1603616563575f81036164325760018561642b919061b246565b945061655e565b5f60225f8981526020019081526020015f205f8573ffffffffffffffffffffffffffffffffffffffff1673ffffffffffffffffffffffffffffffffffffffff1681526020019081526020015f20549050600260038111156164965761649561a309565b5b60ff1660175f9054906101000a900473ffffffffffffffffffffffffffffffffffffffff1673ffffffffffffffffffffffffffffffffffffffff166345fa8aae836040518263ffffffff1660e01b81526004016164f39190619c7e565b602060405180830381865afa15801561650e573d5f803e3d5ffd5b505050506040513d601f19601f82011682018060405250810190616532919061b304565b60038111156165445761654361a309565b5b60ff160361655c57600186616559919061b246565b95505b505b61675a565b600260038111156165775761657661a309565b5b60ff1660175f9054906101000a900473ffffffffffffffffffffffffffffffffffffffff1673ffffffffffffffffffffffffffffffffffffffff166345fa8aae846040518263ffffffff1660e01b81526004016165d49190619c7e565b602060405180830381865afa1580156165ef573d5f803e3d5ffd5b505050506040513d601f19601f82011682018060405250810190616613919061b304565b60038111156166255761662461a309565b5b60ff1603616759575f60225f8981526020019081526020015f205f8573ffffffffffffffffffffffffffffffffffffffff1673ffffffffffffffffffffffffffffffffffffffff1681526020019081526020015f20549050600260038111156166915761669061a309565b5b60ff1660175f9054906101000a900473ffffffffffffffffffffffffffffffffffffffff1673ffffffffffffffffffffffffffffffffffffffff166345fa8aae836040518263ffffffff1660e01b81526004016166ee9190619c7e565b602060405180830381865afa158015616709573d5f803e3d5ffd5b505050506040513d601f19601f8201168201806040525081019061672d919061b304565b600381111561673f5761673e61a309565b5b60ff160361675757600186616754919061b246565b95505b505b5b5050508080600101915050616224565b50600c54810361677e576001915050616783565b5f9150505b919050565b5f805f5b600c548110156167ee575f6167d0600e5f8481526020019081526020015f205f9054906101000a900473ffffffffffffffffffffffffffffffffffffffff166181b1565b905080836167de919061b246565b925050808060010191505061678c565b508091505090565b5f6167ff61854e565b5f73ffffffffffffffffffffffffffffffffffffffff168273ffffffffffffffffffffffffffffffffffffffff160361686d576040517f08c379a00000000000000000000000000000000000000000000000000000000081526004016168649061c401565b60405180910390fd5b8160195f6101000a81548173ffffffffffffffffffffffffffffffffffffffff021916908373ffffffffffffffffffffffffffffffffffffffff16021790555060019050919050565b60055f9054906101000a900473ffffffffffffffffffffffffffffffffffffffff1673ffffffffffffffffffffffffffffffffffffffff163373ffffffffffffffffffffffffffffffffffffffff16148061695d575060075f9054906101000a900473ffffffffffffffffffffffffffffffffffffffff1673ffffffffffffffffffffffffffffffffffffffff163373ffffffffffffffffffffffffffffffffffffffff16145b806169b4575060065f9054906101000a900473ffffffffffffffffffffffffffffffffffffffff1673ffffffffffffffffffffffffffffffffffffffff163373ffffffffffffffffffffffffffffffffffffffff16145b6169f3576040517f08c379a00000000000000000000000000000000000000000000000000000000081526004016169ea9061b2c3565b60405180910390fd5b5f8111616a35576040517f08c379a0000000000000000000000000000000000000000000000000000000008152600401616a2c9061c469565b60405180910390fd5b8060315f8481526020019081526020015f20819055505050565b600b5481565b5f808211616a98576040517f08c379a0000000000000000000000000000000000000000000000000000000008152600401616a8f9061b16e565b60405180910390fd5b5f616aa1616788565b90505f60155f9054906101000a900473ffffffffffffffffffffffffffffffffffffffff1673ffffffffffffffffffffffffffffffffffffffff166318160ddd6040518163ffffffff1660e01b8152600401602060405180830381865afa158015616b0e573d5f803e3d5ffd5b505050506040513d601f19601f82011682018060405250810190616b32919061bb70565b90505f828286616b42919061c487565b616b4c919061b7fa565b9050809350505050919050565b600a5481565b60065f9054906101000a900473ffffffffffffffffffffffffffffffffffffffff1681565b6030602052805f5260405f205f915090505481565b60055f9054906101000a900473ffffffffffffffffffffffffffffffffffffffff1673ffffffffffffffffffffffffffffffffffffffff163373ffffffffffffffffffffffffffffffffffffffff161480616c40575060075f9054906101000a900473ffffffffffffffffffffffffffffffffffffffff1673ffffffffffffffffffffffffffffffffffffffff163373ffffffffffffffffffffffffffffffffffffffff16145b80616c97575060065f9054906101000a900473ffffffffffffffffffffffffffffffffffffffff1673ffffffffffffffffffffffffffffffffffffffff163373ffffffffffffffffffffffffffffffffffffffff16145b616cd6576040517f08c379a0000000000000000000000000000000000000000000000000000000008152600401616ccd9061b2c3565b60405180910390fd5b80601e5f8481526020019081526020015f205f6101000a81548160ff0219169083151502179055505050565b60055f9054906101000a900473ffffffffffffffffffffffffffffffffffffffff1673ffffffffffffffffffffffffffffffffffffffff163373ffffffffffffffffffffffffffffffffffffffff161480616da9575060075f9054906101000a900473ffffffffffffffffffffffffffffffffffffffff1673ffffffffffffffffffffffffffffffffffffffff163373ffffffffffffffffffffffffffffffffffffffff16145b80616e00575060065f9054906101000a900473ffffffffffffffffffffffffffffffffffffffff1673ffffffffffffffffffffffffffffffffffffffff163373ffffffffffffffffffffffffffffffffffffffff16145b616e3f576040517f08c379a0000000000000000000000000000000000000000000000000000000008152600401616e369061b2c3565b60405180910390fd5b5f8111616e81576040517f08c379a0000000000000000000000000000000000000000000000000000000008152600401616e789061c512565b60405180910390fd5b5f8211616ec3576040517f08c379a0000000000000000000000000000000000000000000000000000000008152600401616eba9061b4d6565b60405180910390fd5b8060255f8481526020019081526020015f20819055505050565b60055f9054906101000a900473ffffffffffffffffffffffffffffffffffffffff1673ffffffffffffffffffffffffffffffffffffffff163373ffffffffffffffffffffffffffffffffffffffff161480616f84575060075f9054906101000a900473ffffffffffffffffffffffffffffffffffffffff1673ffffffffffffffffffffffffffffffffffffffff163373ffffffffffffffffffffffffffffffffffffffff16145b80616fdb575060065f9054906101000a900473ffffffffffffffffffffffffffffffffffffffff1673ffffffffffffffffffffffffffffffffffffffff163373ffffffffffffffffffffffffffffffffffffffff16145b61701a576040517f08c379a00000000000000000000000000000000000000000000000000000000081526004016170119061b2c3565b60405180910390fd5b5f73ffffffffffffffffffffffffffffffffffffffff168173ffffffffffffffffffffffffffffffffffffffff1603617088576040517f08c379a000000000000000000000000000000000000000000000000000000000815260040161707f9061c5a0565b60405180910390fd5b80602c5f8481526020019081526020015f205f6101000a81548173ffffffffffffffffffffffffffffffffffffffff021916908373ffffffffffffffffffffffffffffffffffffffff1602179055505050565b5f6170e46191ef565b90505f815f0160089054906101000a900460ff161590505f825f015f9054906101000a900467ffffffffffffffff1690505f808267ffffffffffffffff1614801561712c5750825b90505f60018367ffffffffffffffff1614801561715f57505f3073ffffffffffffffffffffffffffffffffffffffff163b145b90508115801561716d575080155b156171a4576040517ff92ee8a900000000000000000000000000000000000000000000000000000000815260040160405180910390fd5b6001855f015f6101000a81548167ffffffffffffffff021916908367ffffffffffffffff16021790555083156171f1576001855f0160086101000a81548160ff0219169083151502179055505b5f73ffffffffffffffffffffffffffffffffffffffff168e73ffffffffffffffffffffffffffffffffffffffff160361725f576040517f08c379a00000000000000000000000000000000000000000000000000000000081526004016172569061b990565b60405180910390fd5b5f73ffffffffffffffffffffffffffffffffffffffff168d73ffffffffffffffffffffffffffffffffffffffff16036172cd576040517f08c379a00000000000000000000000000000000000000000000000000000000081526004016172c49061b676565b60405180910390fd5b5f73ffffffffffffffffffffffffffffffffffffffff168c73ffffffffffffffffffffffffffffffffffffffff160361733b576040517f08c379a00000000000000000000000000000000000000000000000000000000081526004016173329061c608565b60405180910390fd5b5f73ffffffffffffffffffffffffffffffffffffffff168b73ffffffffffffffffffffffffffffffffffffffff16036173a9576040517f08c379a00000000000000000000000000000000000000000000000000000000081526004016173a09061c670565b60405180910390fd5b5f8a60ff16116173ee576040517f08c379a00000000000000000000000000000000000000000000000000000000081526004016173e59061b714565b60405180910390fd5b5f73ffffffffffffffffffffffffffffffffffffffff168973ffffffffffffffffffffffffffffffffffffffff160361745c576040517f08c379a00000000000000000000000000000000000000000000000000000000081526004016174539061c6d8565b60405180910390fd5b5f73ffffffffffffffffffffffffffffffffffffffff168873ffffffffffffffffffffffffffffffffffffffff16036174ca576040517f08c379a00000000000000000000000000000000000000000000000000000000081526004016174c19061c740565b60405180910390fd5b5f602060ff1611617510576040517f08c379a00000000000000000000000000000000000000000000000000000000081526004016175079061c7a8565b60405180910390fd5b8d60175f6101000a81548173ffffffffffffffffffffffffffffffffffffffff021916908373ffffffffffffffffffffffffffffffffffffffff1602179055508c60155f6101000a81548173ffffffffffffffffffffffffffffffffffffffff021916908373ffffffffffffffffffffffffffffffffffffffff1602179055508b60165f6101000a81548173ffffffffffffffffffffffffffffffffffffffff021916908373ffffffffffffffffffffffffffffffffffffffff1602179055508a60185f6101000a81548173ffffffffffffffffffffffffffffffffffffffff021916908373ffffffffffffffffffffffffffffffffffffffff16021790555089601860146101000a81548160ff021916908360ff16021790555061763488619216565b61763d33619258565b866008819055508760095f6101000a81548173ffffffffffffffffffffffffffffffffffffffff021916908373ffffffffffffffffffffffffffffffffffffffff1602179055506040518060600160405280602a815260200161d2fb602a9139600390816176ab919061c2e8565b506040518060600160405280602e815260200161d325602e9139600490816176d3919061c2e8565b5085601960146101000a81548160ff021916908315150217905550600a601960156101000a81548160ff021916908360ff16021790555033601d60016101000a81548173ffffffffffffffffffffffffffffffffffffffff021916908373ffffffffffffffffffffffffffffffffffffffff16021790555083156177a5575f855f0160086101000a81548160ff0219169083151502179055507fc7f505b2f371ae2175ee4913f4499e1f2633a7b5936321eed1cdaeb6115181d2600160405161779c919061c7ff565b60405180910390a15b5050505050505050505050505050565b6177bd61854e565b5f73ffffffffffffffffffffffffffffffffffffffff168173ffffffffffffffffffffffffffffffffffffffff160361782b576040517f08c379a00000000000000000000000000000000000000000000000000000000081526004016178229061c862565b60405180910390fd5b8060065f6101000a81548173ffffffffffffffffffffffffffffffffffffffff021916908373ffffffffffffffffffffffffffffffffffffffff16021790555050565b6027602052815f5260405f20602052805f5260405f205f91509150505481565b602a602052805f5260405f205f915090505481565b60055f9054906101000a900473ffffffffffffffffffffffffffffffffffffffff1673ffffffffffffffffffffffffffffffffffffffff163373ffffffffffffffffffffffffffffffffffffffff16148061794a575060075f9054906101000a900473ffffffffffffffffffffffffffffffffffffffff1673ffffffffffffffffffffffffffffffffffffffff163373ffffffffffffffffffffffffffffffffffffffff16145b806179a1575060065f9054906101000a900473ffffffffffffffffffffffffffffffffffffffff1673ffffffffffffffffffffffffffffffffffffffff163373ffffffffffffffffffffffffffffffffffffffff16145b6179e0576040517f08c379a00000000000000000000000000000000000000000000000000000000081526004016179d79061b2c3565b60405180910390fd5b5f73ffffffffffffffffffffffffffffffffffffffff168173ffffffffffffffffffffffffffffffffffffffff1603617a4e576040517f08c379a0000000000000000000000000000000000000000000000000000000008152600401617a459061c8f0565b60405180910390fd5b80602b5f8481526020019081526020015f205f6101000a81548173ffffffffffffffffffffffffffffffffffffffff021916908373ffffffffffffffffffffffffffffffffffffffff1602179055505050565b5f808211617ae4576040517f08c379a0000000000000000000000000000000000000000000000000000000008152600401617adb9061b16e565b60405180910390fd5b5f805b600c54811015617c7e575f600e5f8381526020019081526020015f205f9054906101000a900473ffffffffffffffffffffffffffffffffffffffff1690505f68056bc75e2d6310000060125f8473ffffffffffffffffffffffffffffffffffffffff1673ffffffffffffffffffffffffffffffffffffffff1681526020019081526020015f205487617b79919061c487565b617b83919061b7fa565b90505f8060175f9054906101000a900473ffffffffffffffffffffffffffffffffffffffff1673ffffffffffffffffffffffffffffffffffffffff1663236970d45f60185f9054906101000a900473ffffffffffffffffffffffffffffffffffffffff166040518363ffffffff1660e01b8152600401617c0492919061b18c565b6040805180830381865afa158015617c1e573d5f803e3d5ffd5b505050506040513d601f19601f82011682018060405250810190617c42919061b1db565b915091505f617c5182856185df565b83617c5c919061b246565b90508087617c6a919061b246565b965050505050508080600101915050617ae7565b5080915050919050565b5f808211617ccb576040517f08c379a0000000000000000000000000000000000000000000000000000000008152600401617cc29061b16e565b60405180910390fd5b5f617cd4616788565b90505f60155f9054906101000a900473ffffffffffffffffffffffffffffffffffffffff1673ffffffffffffffffffffffffffffffffffffffff166318160ddd6040518163ffffffff1660e01b8152600401602060405180830381865afa158015617d41573d5f803e3d5ffd5b505050506040513d601f19601f82011682018060405250810190617d65919061bb70565b90505f818386617d75919061c487565b617d7f919061b7fa565b9050809350505050919050565b60095f9054906101000a900473ffffffffffffffffffffffffffffffffffffffff1681565b60048054617dbe9061bad8565b80601f0160208091040260200160405190810160405280929190818152602001828054617dea9061bad8565b8015617e355780601f10617e0c57610100808354040283529160200191617e35565b820191905f5260205f20905b815481529060010190602001808311617e1857829003601f168201915b505050505081565b60055f9054906101000a900473ffffffffffffffffffffffffffffffffffffffff1673ffffffffffffffffffffffffffffffffffffffff163373ffffffffffffffffffffffffffffffffffffffff161480617ee4575060075f9054906101000a900473ffffffffffffffffffffffffffffffffffffffff1673ffffffffffffffffffffffffffffffffffffffff163373ffffffffffffffffffffffffffffffffffffffff16145b80617f3b575060065f9054906101000a900473ffffffffffffffffffffffffffffffffffffffff1673ffffffffffffffffffffffffffffffffffffffff163373ffffffffffffffffffffffffffffffffffffffff16145b617f7a576040517f08c379a0000000000000000000000000000000000000000000000000000000008152600401617f719061b2c3565b60405180910390fd5b5f8111617fbc576040517f08c379a0000000000000000000000000000000000000000000000000000000008152600401617fb39061c958565b60405180910390fd5b8060305f8481526020019081526020015f20819055505050565b5f617fdf61854e565b5f73ffffffffffffffffffffffffffffffffffffffff168373ffffffffffffffffffffffffffffffffffffffff160361804d576040517f08c379a00000000000000000000000000000000000000000000000000000000081526004016180449061b676565b60405180910390fd5b5f8260ff1611618092576040517f08c379a00000000000000000000000000000000000000000000000000000000081526004016180899061b714565b60405180910390fd5b8260185f6101000a81548173ffffffffffffffffffffffffffffffffffffffff021916908373ffffffffffffffffffffffffffffffffffffffff16021790555081601860146101000a81548160ff021916908360ff1602179055506001905092915050565b6180ff61854e565b5f73ffffffffffffffffffffffffffffffffffffffff168173ffffffffffffffffffffffffffffffffffffffff160361816d576040517f08c379a00000000000000000000000000000000000000000000000000000000081526004016181649061c9c0565b60405180910390fd5b80601d60016101000a81548173ffffffffffffffffffffffffffffffffffffffff021916908373ffffffffffffffffffffffffffffffffffffffff16021790555050565b5f8073ffffffffffffffffffffffffffffffffffffffff168273ffffffffffffffffffffffffffffffffffffffff1603618220576040517f08c379a00000000000000000000000000000000000000000000000000000000081526004016182179061b676565b60405180910390fd5b5f61822a8361427e565b90505f61823684615b52565b9050670de0b6b3a7640000828261824d919061c487565b618257919061b7fa565b92505050919050565b618268619b73565b5f82116182aa576040517f08c379a00000000000000000000000000000000000000000000000000000000081526004016182a19061b4d6565b60405180910390fd5b602f5f8381526020019081526020015f20604051806101400160405290815f82015f9054906101000a900467ffffffffffffffff1667ffffffffffffffff1667ffffffffffffffff1681526020015f820160089054906101000a900473ffffffffffffffffffffffffffffffffffffffff1673ffffffffffffffffffffffffffffffffffffffff1673ffffffffffffffffffffffffffffffffffffffff168152602001600182015f9054906101000a900473ffffffffffffffffffffffffffffffffffffffff1673ffffffffffffffffffffffffffffffffffffffff1673ffffffffffffffffffffffffffffffffffffffff168152602001600282015f9054906101000a900473ffffffffffffffffffffffffffffffffffffffff1673ffffffffffffffffffffffffffffffffffffffff1673ffffffffffffffffffffffffffffffffffffffff1681526020016002820160149054906101000a900460ff161515151581526020016002820160159054906101000a900460ff1660018111156184365761843561a309565b5b60018111156184485761844761a309565b5b8152602001600382015481526020016004820154815260200160058201548152602001600682015f9054906101000a900460ff16600381111561848e5761848d61a309565b5b60038111156184a05761849f61a309565b5b815250509050919050565b6184b361854e565b6184bc81619265565b50565b6024602052815f5260405f20602052805f5260405f205f91509150505481565b60195f9054906101000a900473ffffffffffffffffffffffffffffffffffffffff1681565b60165f9054906101000a900473ffffffffffffffffffffffffffffffffffffffff1681565b60155f9054906101000a900473ffffffffffffffffffffffffffffffffffffffff1681565b60015f9054906101000a900473ffffffffffffffffffffffffffffffffffffffff1673ffffffffffffffffffffffffffffffffffffffff163373ffffffffffffffffffffffffffffffffffffffff16146185dd576040517f08c379a00000000000000000000000000000000000000000000000000000000081526004016185d49061ca28565b60405180910390fd5b565b5f808362ffffff16036185f2575f61860b565b61860a828462ffffff16620f424062ffffff16619391565b5b905092915050565b5f8083806020019051810190618629919061cb84565b915091505f602060ff1611618673576040517f08c379a000000000000000000000000000000000000000000000000000000000815260040161866a9061cc44565b60405180910390fd5b5f8251116186b6576040517f08c379a00000000000000000000000000000000000000000000000000000000081526004016186ad9061ccac565b60405180910390fd5b5f8151116186f9576040517f08c379a00000000000000000000000000000000000000000000000000000000081526004016186f09061cd14565b60405180910390fd5b6187038282618f27565b5050505050565b5f805f80198587098587029250828110838203039150505f8103618742578382816187385761873761b7cd565b5b0492505050618815565b83811061878a578585856040517f63a057780000000000000000000000000000000000000000000000000000000081526004016187819392919061cd32565b60405180910390fd5b5f8486880990508281118203915080830392505f6001861901861690505f81870496508185049450600182835f0304019050808402851794505f60028860030218905080880260020381029050808802600203810290508088026002038102905080880260020381029050808802600203810290508088026002038102905080860296505050505050505b9392505050565b5f60128360ff161115618864576040517f08c379a000000000000000000000000000000000000000000000000000000000815260040161885b9061cdd7565b60405180910390fd5b60128260ff1611156188ab576040517f08c379a00000000000000000000000000000000000000000000000000000000081526004016188a29061ce65565b60405180910390fd5b8260ff168260ff1611156188e35782826188c5919061ce83565b600a6188d1919061cfe6565b846188dc919061d030565b9050618909565b81836188ef919061ce83565b600a6188fb919061cfe6565b84618906919061d030565b90505b9392505050565b5f81510361894a576040517f22ce3edd00000000000000000000000000000000000000000000000000000000815260040160405180910390fd5b82845f019060028111156189615761896061a309565b5b908160028111156189755761897461a309565b5b815250508184604001905f8111156189905761898f61a309565b5b90815f8111156189a3576189a261a309565b5b8152505080846060018190525050505050565b5f8151036189f0576040517ffe936cb700000000000000000000000000000000000000000000000000000000815260040160405180910390fd5b808260a001819052505050565b5f815103618a37576040517ffe936cb700000000000000000000000000000000000000000000000000000000815260040160405180910390fd5b808260c001819052505050565b60605f618a526101006194a3565b9050618a9c6040518060400160405280600c81526020017f636f64654c6f636174696f6e0000000000000000000000000000000000000000815250826194c890919063ffffffff16565b618ac4835f01516002811115618ab557618ab461a309565b5b826194f090919063ffffffff16565b618b0c6040518060400160405280600881526020017f6c616e6775616765000000000000000000000000000000000000000000000000815250826194c890919063ffffffff16565b618b3483604001515f811115618b2557618b2461a309565b5b826194f090919063ffffffff16565b618b7c6040518060400160405280600681526020017f736f757263650000000000000000000000000000000000000000000000000000815250826194c890919063ffffffff16565b618b938360600151826194c890919063ffffffff16565b5f8360a00151511115618c4757618be86040518060400160405280600481526020017f6172677300000000000000000000000000000000000000000000000000000000815250826194c890919063ffffffff16565b618bf18161953f565b5f5b8360a0015151811015618c3c57618c318460a001518281518110618c1a57618c1961ba16565b5b6020026020010151836194c890919063ffffffff16565b806001019050618bf3565b50618c4681619567565b5b5f8360800151511115618d86575f6002811115618c6757618c6661a309565b5b83602001516002811115618c7e57618c7d61a309565b5b03618cb5576040517fa80d31f700000000000000000000000000000000000000000000000000000000815260040160405180910390fd5b618cfd6040518060400160405280600f81526020017f736563726574734c6f636174696f6e0000000000000000000000000000000000815250826194c890919063ffffffff16565b618d2683602001516002811115618d1757618d1661a309565b5b826194f090919063ffffffff16565b618d6e6040518060400160405280600781526020017f7365637265747300000000000000000000000000000000000000000000000000815250826194c890919063ffffffff16565b618d8583608001518261958f90919063ffffffff16565b5b5f8360c00151511115618e3a57618ddb6040518060400160405280600981526020017f6279746573417267730000000000000000000000000000000000000000000000815250826194c890919063ffffffff16565b618de48161953f565b5f5b8360c0015151811015618e2f57618e248460c001518281518110618e0d57618e0c61ba16565b5b60200260200101518361958f90919063ffffffff16565b806001019050618de6565b50618e3981619567565b5b805f01515f0151915050919050565b5f805f8054906101000a900473ffffffffffffffffffffffffffffffffffffffff1673ffffffffffffffffffffffffffffffffffffffff1663461d27628688600188886040518663ffffffff1660e01b8152600401618eac95949392919061d119565b6020604051808303815f875af1158015618ec8573d5f803e3d5ffd5b505050506040513d601f19601f82011682018060405250810190618eec919061d185565b9050807f1131472297a800fee664d1d89cfa8f7676ff07189ecc53f80bbb5f4969099db860405160405180910390a280915050949350505050565b5f8290505f8290505f5b82518110156191c757828181518110618f4d57618f4c61ba16565b5b6020026020010151600d5f8381526020019081526020015f205f6101000a81548173ffffffffffffffffffffffffffffffffffffffff021916908373ffffffffffffffffffffffffffffffffffffffff1602179055508060105f858481518110618fba57618fb961ba16565b5b602002602001015173ffffffffffffffffffffffffffffffffffffffff1673ffffffffffffffffffffffffffffffffffffffff1681526020019081526020015f20819055508181815181106190125761901161ba16565b5b602002602001015160135f8584815181106190305761902f61ba16565b5b602002602001015173ffffffffffffffffffffffffffffffffffffffff1673ffffffffffffffffffffffffffffffffffffffff1681526020019081526020015f20819055505f600c54036191ba578281815181106190915761909061ba16565b5b6020026020010151600e5f8381526020019081526020015f205f6101000a81548173ffffffffffffffffffffffffffffffffffffffff021916908373ffffffffffffffffffffffffffffffffffffffff1602179055508181815181106190fa576190f961ba16565b5b602002602001015160125f8584815181106191185761911761ba16565b5b602002602001015173ffffffffffffffffffffffffffffffffffffffff1673ffffffffffffffffffffffffffffffffffffffff1681526020019081526020015f20819055508060115f8584815181106191745761917361ba16565b5b602002602001015173ffffffffffffffffffffffffffffffffffffffff1673ffffffffffffffffffffffffffffffffffffffff1681526020019081526020015f20819055505b8080600101915050618f31565b508151600b819055505f600c54036191e2578151600c819055505b42600a8190555050505050565b5f7ff0c57e16840df040f15088dc2f81fe391c3923bec73e23a9662efc9c229c6a00905090565b805f806101000a81548173ffffffffffffffffffffffffffffffffffffffff021916908373ffffffffffffffffffffffffffffffffffffffff16021790555050565b619262815f6195b7565b50565b3373ffffffffffffffffffffffffffffffffffffffff168173ffffffffffffffffffffffffffffffffffffffff16036192d3576040517f08c379a00000000000000000000000000000000000000000000000000000000081526004016192ca9061d1fa565b60405180910390fd5b8060025f6101000a81548173ffffffffffffffffffffffffffffffffffffffff021916908373ffffffffffffffffffffffffffffffffffffffff1602179055508073ffffffffffffffffffffffffffffffffffffffff1660015f9054906101000a900473ffffffffffffffffffffffffffffffffffffffff1673ffffffffffffffffffffffffffffffffffffffff167fed8889f560326eb138920d842192f0eb3dd22b4f139c87a2c57538e05bae127860405160405180910390a350565b5f805f80198587098587029250828110838203039150505f81036193c9578382816193bf576193be61b7cd565b5b049250505061949c565b838110619411578585856040517f63a057780000000000000000000000000000000000000000000000000000000081526004016194089392919061cd32565b60405180910390fd5b5f8486880990508281118203915080830392505f6001861901861690505f81870496508185049450600182835f0304019050808402851794505f60028860030218905080880260020381029050808802600203810290508088026002038102905080880260020381029050808802600203810290508088026002038102905080860296505050505050505b9392505050565b6194ab619c2e565b6194b8815f0151836196a6565b505f816020018181525050919050565b6194d5826003835161971c565b6194eb81835f01516198bc90919063ffffffff16565b505050565b61951160026005600660ff16901b17835f01516198d890919063ffffffff16565b5061953b82826040516020016195279190619c7e565b60405160208183030381529060405261958f565b5050565b61954a81600461993f565b60018160200181815161955d919061b246565b9150818152505050565b61957281600761993f565b600181602001818151619585919061b79a565b9150818152505050565b61959c826002835161971c565b6195b281835f01516198bc90919063ffffffff16565b505050565b5f73ffffffffffffffffffffffffffffffffffffffff168273ffffffffffffffffffffffffffffffffffffffff1603619625576040517f08c379a000000000000000000000000000000000000000000000000000000000815260040161961c9061d262565b60405180910390fd5b8160015f6101000a81548173ffffffffffffffffffffffffffffffffffffffff021916908373ffffffffffffffffffffffffffffffffffffffff1602179055505f73ffffffffffffffffffffffffffffffffffffffff168173ffffffffffffffffffffffffffffffffffffffff16146196a2576196a181619265565b5b5050565b6196ae619c4d565b5f6020836196bc919061d280565b146196e8576020826196ce919061d280565b60206196da919061b79a565b826196e5919061b246565b91505b818360200181815250506040518084525f81528281016020018181101561970d575f80fd5b80604052505082905092915050565b60178167ffffffffffffffff1611619756576197508160058460ff16901b60ff1617845f01516198d890919063ffffffff16565b506198b7565b60ff8167ffffffffffffffff16116197b257619788601860058460ff16901b17845f01516198d890919063ffffffff16565b506197ac8167ffffffffffffffff166001855f01516199649092919063ffffffff16565b506198b6565b61ffff8167ffffffffffffffff161161980f576197e5601960058460ff16901b17845f01516198d890919063ffffffff16565b506198098167ffffffffffffffff166002855f01516199649092919063ffffffff16565b506198b5565b63ffffffff8167ffffffffffffffff161161986e57619844601a60058460ff16901b17845f01516198d890919063ffffffff16565b506198688167ffffffffffffffff166004855f01516199649092919063ffffffff16565b506198b4565b61988e601b60058460ff16901b17845f01516198d890919063ffffffff16565b506198b28167ffffffffffffffff166008855f01516199649092919063ffffffff16565b505b5b5b5b505050565b6198c4619c4d565b6198d0838384516199ed565b905092915050565b6198e0619c4d565b5f835f01515190505f6001826198f6919061b246565b90508460200151821061991a5761991985600283619914919061c487565b619aca565b5b84516020838201018581538151831115619932578282525b5050849250505092915050565b61995f601f60058360ff16901b17835f01516198d890919063ffffffff16565b505050565b61996c619c4d565b5f845f01515190505f8184619981919061b246565b905085602001518111156199a6576199a5866002836199a0919061c487565b619aca565b5b5f6001856101006199b7919061d2b0565b6199c1919061b79a565b9050865182810187831982511617815281518411156199de578382525b50508693505050509392505050565b6199f5619c4d565b8251821115619a02575f80fd5b5f845f01515190505f8382619a17919061b246565b90508560200151811115619a3c57619a3b86600283619a36919061c487565b619aca565b5b5f8087518051856020830101935080851115619a56578482525b60208901925050505b60208610619a9d5780518252602082619a78919061b246565b9150602081619a87919061b246565b9050602086619a96919061b79a565b9550619a5f565b5f6001876020036101000a0390508019825116818451168181178552505050879450505050509392505050565b5f825f01519050619adb83836196a6565b50619ae683826198bc565b50505050565b60405180604001604052805f81526020015f81525090565b6040518060e001604052805f6002811115619b2257619b2161a309565b5b81526020015f6002811115619b3a57619b3961a309565b5b81526020015f80811115619b5157619b5061a309565b5b8152602001606081526020016060815260200160608152602001606081525090565b6040518061014001604052805f67ffffffffffffffff1681526020015f73ffffffffffffffffffffffffffffffffffffffff1681526020015f73ffffffffffffffffffffffffffffffffffffffff1681526020015f73ffffffffffffffffffffffffffffffffffffffff1681526020015f151581526020015f6001811115619bfe57619bfd61a309565b5b81526020015f81526020015f81526020015f81526020015f6003811115619c2857619c2761a309565b5b81525090565b6040518060400160405280619c41619c4d565b81526020015f81525090565b6040518060400160405280606081526020015f81525090565b5f819050919050565b619c7881619c66565b82525050565b5f602082019050619c915f830184619c6f565b92915050565b5f604051905090565b5f80fd5b5f80fd5b619cb181619c66565b8114619cbb575f80fd5b50565b5f81359050619ccc81619ca8565b92915050565b5f73ffffffffffffffffffffffffffffffffffffffff82169050919050565b5f619cfb82619cd2565b9050919050565b619d0b81619cf1565b8114619d15575f80fd5b50565b5f81359050619d2681619d02565b92915050565b5f8060408385031215619d4257619d41619ca0565b5b5f619d4f85828601619cbe565b9250506020619d6085828601619d18565b9150509250929050565b5f60208284031215619d7f57619d7e619ca0565b5b5f619d8c84828501619d18565b91505092915050565b5f60208284031215619daa57619da9619ca0565b5b5f619db784828501619cbe565b91505092915050565b619dc981619cf1565b82525050565b5f602082019050619de25f830184619dc0565b92915050565b5f8115159050919050565b619dfc81619de8565b8114619e06575f80fd5b50565b5f81359050619e1781619df3565b92915050565b5f8060408385031215619e3357619e32619ca0565b5b5f619e4085828601619cbe565b9250506020619e5185828601619e09565b9150509250929050565b619e6481619de8565b82525050565b5f602082019050619e7d5f830184619e5b565b92915050565b5f60ff82169050919050565b619e9881619e83565b82525050565b5f602082019050619eb15f830184619e8f565b92915050565b5f819050919050565b619ec981619eb7565b8114619ed3575f80fd5b50565b5f81359050619ee481619ec0565b92915050565b5f80fd5b5f80fd5b5f601f19601f8301169050919050565b7f4e487b71000000000000000000000000000000000000000000000000000000005f52604160045260245ffd5b619f3882619ef2565b810181811067ffffffffffffffff82111715619f5757619f56619f02565b5b80604052505050565b5f619f69619c97565b9050619f758282619f2f565b919050565b5f67ffffffffffffffff821115619f9457619f93619f02565b5b619f9d82619ef2565b9050602081019050919050565b828183375f83830152505050565b5f619fca619fc584619f7a565b619f60565b905082815260208101848484011115619fe657619fe5619eee565b5b619ff1848285619faa565b509392505050565b5f82601f83011261a00d5761a00c619eea565b5b813561a01d848260208601619fb8565b91505092915050565b5f805f6060848603121561a03d5761a03c619ca0565b5b5f61a04a86828701619ed6565b935050602084013567ffffffffffffffff81111561a06b5761a06a619ca4565b5b61a07786828701619ff9565b925050604084013567ffffffffffffffff81111561a0985761a097619ca4565b5b61a0a486828701619ff9565b9150509250925092565b5f67ffffffffffffffff82111561a0c85761a0c7619f02565b5b61a0d182619ef2565b9050602081019050919050565b5f61a0f061a0eb8461a0ae565b619f60565b90508281526020810184848401111561a10c5761a10b619eee565b5b61a117848285619faa565b509392505050565b5f82601f83011261a1335761a132619eea565b5b813561a14384826020860161a0de565b91505092915050565b5f806040838503121561a1625761a161619ca0565b5b5f83013567ffffffffffffffff81111561a17f5761a17e619ca4565b5b61a18b8582860161a11f565b925050602083013567ffffffffffffffff81111561a1ac5761a1ab619ca4565b5b61a1b88582860161a11f565b9150509250929050565b5f81519050919050565b5f82825260208201905092915050565b8281835e5f83830152505050565b5f61a1f48261a1c2565b61a1fe818561a1cc565b935061a20e81856020860161a1dc565b61a21781619ef2565b840191505092915050565b5f6020820190508181035f83015261a23a818461a1ea565b905092915050565b5f805f6060848603121561a2595761a258619ca0565b5b5f61a26686828701619cbe565b935050602061a27786828701619d18565b925050604061a28886828701619cbe565b9150509250925092565b61a29b81619c66565b82525050565b604082015f82015161a2b55f85018261a292565b50602082015161a2c8602085018261a292565b50505050565b5f60408201905061a2e15f83018461a2a1565b92915050565b5f67ffffffffffffffff82169050919050565b61a3038161a2e7565b82525050565b7f4e487b71000000000000000000000000000000000000000000000000000000005f52602160045260245ffd5b6002811061a3475761a34661a309565b5b50565b5f81905061a3578261a336565b919050565b5f61a3668261a34a565b9050919050565b61a3768161a35c565b82525050565b6004811061a38d5761a38c61a309565b5b50565b5f81905061a39d8261a37c565b919050565b5f61a3ac8261a390565b9050919050565b61a3bc8161a3a2565b82525050565b5f6101408201905061a3d65f83018d61a2fa565b61a3e3602083018c619dc0565b61a3f0604083018b619dc0565b61a3fd606083018a619dc0565b61a40a6080830189619e5b565b61a41760a083018861a36d565b61a42460c0830187619c6f565b61a43160e0830186619c6f565b61a43f610100830185619c6f565b61a44d61012083018461a3b3565b9b9a5050505050505050505050565b5f819050919050565b5f61a47f61a47a61a47584619cd2565b61a45c565b619cd2565b9050919050565b5f61a4908261a465565b9050919050565b5f61a4a18261a486565b9050919050565b61a4b18161a497565b82525050565b5f60208201905061a4ca5f83018461a4a8565b92915050565b5f806040838503121561a4e65761a4e5619ca0565b5b5f61a4f385828601619cbe565b925050602061a50485828601619cbe565b9150509250929050565b5f62ffffff82169050919050565b61a5258161a50e565b811461a52f575f80fd5b50565b5f8135905061a5408161a51c565b92915050565b5f806040838503121561a55c5761a55b619ca0565b5b5f61a5698582860161a532565b925050602061a57a85828601619cbe565b9150509250929050565b61a58d81619e83565b811461a597575f80fd5b50565b5f8135905061a5a88161a584565b92915050565b5f6020828403121561a5c35761a5c2619ca0565b5b5f61a5d08482850161a59a565b91505092915050565b5f80fd5b61a5e68161a2e7565b811461a5f0575f80fd5b50565b5f8135905061a6018161a5dd565b92915050565b6002811061a613575f80fd5b50565b5f8135905061a6248161a607565b92915050565b6004811061a636575f80fd5b50565b5f8135905061a6478161a62a565b92915050565b5f610140828403121561a6635761a66261a5d9565b5b61a66e610140619f60565b90505f61a67d8482850161a5f3565b5f83015250602061a69084828501619d18565b602083015250604061a6a484828501619d18565b604083015250606061a6b884828501619d18565b606083015250608061a6cc84828501619e09565b60808301525060a061a6e08482850161a616565b60a08301525060c061a6f484828501619cbe565b60c08301525060e061a70884828501619cbe565b60e08301525061010061a71d84828501619cbe565b6101008301525061012061a7338482850161a639565b6101208301525092915050565b5f80610160838503121561a7575761a756619ca0565b5b5f61a76485828601619cbe565b925050602061a7758582860161a64d565b9150509250929050565b5f60408201905061a7925f830185619c6f565b61a79f6020830184619c6f565b9392505050565b5f67ffffffffffffffff82111561a7c05761a7bf619f02565b5b602082029050602081019050919050565b5f80fd5b5f61a7e761a7e28461a7a6565b619f60565b9050808382526020820190506020840283018581111561a80a5761a80961a7d1565b5b835b8181101561a833578061a81f8882619d18565b84526020840193505060208101905061a80c565b5050509392505050565b5f82601f83011261a8515761a850619eea565b5b813561a86184826020860161a7d5565b91505092915050565b5f806040838503121561a8805761a87f619ca0565b5b5f83013567ffffffffffffffff81111561a89d5761a89c619ca4565b5b61a8a98582860161a83d565b925050602083013567ffffffffffffffff81111561a8ca5761a8c9619ca4565b5b61a8d68582860161a83d565b9150509250929050565b5f6020828403121561a8f55761a8f4619ca0565b5b5f61a90284828501619ed6565b91505092915050565b5f6040828403121561a9205761a91f61a5d9565b5b61a92a6040619f60565b90505f61a93984828501619cbe565b5f83015250602061a94c84828501619cbe565b60208301525092915050565b5f806060838503121561a96e5761a96d619ca0565b5b5f61a97b85828601619cbe565b925050602061a98c8582860161a90b565b9150509250929050565b5f80fd5b5f8083601f84011261a9af5761a9ae619eea565b5b8235905067ffffffffffffffff81111561a9cc5761a9cb61a996565b5b60208301915083600182028301111561a9e85761a9e761a7d1565b5b9250929050565b5f8083601f84011261aa045761aa03619eea565b5b8235905067ffffffffffffffff81111561aa215761aa2061a996565b5b60208301915083600182028301111561aa3d5761aa3c61a7d1565b5b9250929050565b5f8083601f84011261aa595761aa58619eea565b5b8235905067ffffffffffffffff81111561aa765761aa7561a996565b5b60208301915083602082028301111561aa925761aa9161a7d1565b5b9250929050565b5f8083601f84011261aaae5761aaad619eea565b5b8235905067ffffffffffffffff81111561aacb5761aaca61a996565b5b60208301915083602082028301111561aae75761aae661a7d1565b5b9250929050565b5f63ffffffff82169050919050565b61ab068161aaee565b811461ab10575f80fd5b50565b5f8135905061ab218161aafd565b92915050565b5f805f805f805f805f8060c08b8d03121561ab455761ab44619ca0565b5b5f8b013567ffffffffffffffff81111561ab625761ab61619ca4565b5b61ab6e8d828e0161a99a565b9a509a505060208b013567ffffffffffffffff81111561ab915761ab90619ca4565b5b61ab9d8d828e0161a9ef565b985098505060408b013567ffffffffffffffff81111561abc05761abbf619ca4565b5b61abcc8d828e0161aa44565b965096505060608b013567ffffffffffffffff81111561abef5761abee619ca4565b5b61abfb8d828e0161aa99565b9450945050608061ac0e8d828e0161a5f3565b92505060a061ac1f8d828e0161ab13565b9150509295989b9194979a5092959850565b61ac3a81619eb7565b82525050565b5f60208201905061ac535f83018461ac31565b92915050565b5f6020828403121561ac6e5761ac6d619ca0565b5b5f61ac7b84828501619e09565b91505092915050565b5f67ffffffffffffffff82111561ac9e5761ac9d619f02565b5b602082029050602081019050919050565b5f61acc161acbc8461ac84565b619f60565b9050808382526020820190506020840283018581111561ace45761ace361a7d1565b5b835b8181101561ad0d578061acf98882619cbe565b84526020840193505060208101905061ace6565b5050509392505050565b5f82601f83011261ad2b5761ad2a619eea565b5b813561ad3b84826020860161acaf565b91505092915050565b5f806040838503121561ad5a5761ad59619ca0565b5b5f83013567ffffffffffffffff81111561ad775761ad76619ca4565b5b61ad838582860161a83d565b925050602083013567ffffffffffffffff81111561ada45761ada3619ca4565b5b61adb08582860161ad17565b9150509250929050565b61adc38161a2e7565b82525050565b61add281619cf1565b82525050565b61ade181619de8565b82525050565b61adf08161a35c565b82525050565b61adff8161a3a2565b82525050565b61014082015f82015161ae1a5f85018261adba565b50602082015161ae2d602085018261adc9565b50604082015161ae40604085018261adc9565b50606082015161ae53606085018261adc9565b50608082015161ae66608085018261add8565b5060a082015161ae7960a085018261ade7565b5060c082015161ae8c60c085018261a292565b5060e082015161ae9f60e085018261a292565b5061010082015161aeb461010085018261a292565b5061012082015161aec961012085018261adf6565b50505050565b5f6101408201905061aee35f83018461ae05565b92915050565b5f805f805f805f805f6101208a8c03121561af075761af06619ca0565b5b5f61af148c828d01619d18565b995050602061af258c828d01619d18565b985050604061af368c828d01619d18565b975050606061af478c828d01619d18565b965050608061af588c828d0161a59a565b95505060a061af698c828d01619d18565b94505060c061af7a8c828d01619d18565b93505060e061af8b8c828d01619ed6565b92505061010061af9d8c828d01619e09565b9150509295985092959850929598565b5f806040838503121561afc35761afc2619ca0565b5b5f61afd085828601619d18565b925050602061afe18582860161a59a565b9150509250929050565b5f61aff58261a486565b9050919050565b61b0058161afeb565b82525050565b5f60208201905061b01e5f83018461affc565b92915050565b5f61b02e8261a486565b9050919050565b61b03e8161b024565b82525050565b5f60208201905061b0575f83018461b035565b92915050565b5f61b0678261a486565b9050919050565b61b0778161b05d565b82525050565b5f60208201905061b0905f83018461b06e565b92915050565b7f696e76616c696420666163746f72792070726f636573736f72206164647265735f8201527f7300000000000000000000000000000000000000000000000000000000000000602082015250565b5f61b0f060218361a1cc565b915061b0fb8261b096565b604082019050919050565b5f6020820190508181035f83015261b11d8161b0e4565b9050919050565b7f496e76616c696420616d6f756e740000000000000000000000000000000000005f82015250565b5f61b158600e8361a1cc565b915061b1638261b124565b602082019050919050565b5f6020820190508181035f83015261b1858161b14c565b9050919050565b5f60408201905061b19f5f830185619e5b565b61b1ac6020830184619dc0565b9392505050565b5f8151905061b1c181619ca8565b92915050565b5f8151905061b1d58161a51c565b92915050565b5f806040838503121561b1f15761b1f0619ca0565b5b5f61b1fe8582860161b1b3565b925050602061b20f8582860161b1c7565b9150509250929050565b7f4e487b71000000000000000000000000000000000000000000000000000000005f52601160045260245ffd5b5f61b25082619c66565b915061b25b83619c66565b925082820190508082111561b2735761b27261b219565b5b92915050565b7f43616c6c6572206973206e6f74206120666163746f727920636f6e74726163745f82015250565b5f61b2ad60208361a1cc565b915061b2b88261b279565b602082019050919050565b5f6020820190508181035f83015261b2da8161b2a1565b9050919050565b6004811061b2ed575f80fd5b50565b5f8151905061b2fe8161b2e1565b92915050565b5f6020828403121561b3195761b318619ca0565b5b5f61b3268482850161b2f0565b91505092915050565b5f81519050919050565b5f81905092915050565b5f61b34d8261b32f565b61b357818561b339565b935061b36781856020860161a1dc565b80840191505092915050565b5f61b37e828561b343565b915061b38a828461b343565b91508190509392505050565b7f496e76616c69642063616e63656c2069737375616e636520756e66696c6c65645f8201527f20616d6f756e7400000000000000000000000000000000000000000000000000602082015250565b5f61b3f060278361a1cc565b915061b3fb8261b396565b604082019050919050565b5f6020820190508181035f83015261b41d8161b3e4565b9050919050565b7f496e76616c696420746f6b656e206164647265737300000000000000000000005f82015250565b5f61b45860158361a1cc565b915061b4638261b424565b602082019050919050565b5f6020820190508181035f83015261b4858161b44c565b9050919050565b7f496e76616c6964205265717565737420496400000000000000000000000000005f82015250565b5f61b4c060128361a1cc565b915061b4cb8261b48c565b602082019050919050565b5f6020820190508181035f83015261b4ed8161b4b4565b9050919050565b7f496e76616c696420726564656d7074696f6e20726571756573742069640000005f82015250565b5f61b528601d8361a1cc565b915061b5338261b4f4565b602082019050919050565b5f6020820190508181035f83015261b5558161b51c565b9050919050565b7f496e76616c69642073656c6c207265717565737420616d6f756e7400000000005f82015250565b5f61b590601b8361a1cc565b915061b59b8261b55c565b602082019050919050565b5f6020820190508181035f83015261b5bd8161b584565b9050919050565b7f496e76616c696420726564656d7074696f6e20746f6b656e20616464726573735f82015250565b5f61b5f860208361a1cc565b915061b6038261b5c4565b602082019050919050565b5f6020820190508181035f83015261b6258161b5ec565b9050919050565b7f696e76616c696420746f6b656e206164647265737300000000000000000000005f82015250565b5f61b66060158361a1cc565b915061b66b8261b62c565b602082019050919050565b5f6020820190508181035f83015261b68d8161b654565b9050919050565b5f61b69e8261a50e565b915061b6a98361a50e565b9250828201905062ffffff81111561b6c45761b6c361b219565b5b92915050565b7f696e76616c696420646563696d616c73000000000000000000000000000000005f82015250565b5f61b6fe60108361a1cc565b915061b7098261b6ca565b602082019050919050565b5f6020820190508181035f83015261b72b8161b6f2565b9050919050565b7f496e76616c69642069737375616e6365205265717565737420496400000000005f82015250565b5f61b766601b8361a1cc565b915061b7718261b732565b602082019050919050565b5f6020820190508181035f83015261b7938161b75a565b9050919050565b5f61b7a482619c66565b915061b7af83619c66565b925082820390508181111561b7c75761b7c661b219565b5b92915050565b7f4e487b71000000000000000000000000000000000000000000000000000000005f52601260045260245ffd5b5f61b80482619c66565b915061b80f83619c66565b92508261b81f5761b81e61b7cd565b5b828204905092915050565b7f596f752073686f756c642077616974206174206c6561737420313220686f75725f8201527f7320616674657220746865206c61746573742075706461746500000000000000602082015250565b5f61b88460398361a1cc565b915061b88f8261b82a565b604082019050919050565b5f6020820190508181035f83015261b8b18161b878565b9050919050565b7f546865206e65774665652073686f756c64206265206265747765656e203120615f8201527f6e64203130302028302e303125202d2031252900000000000000000000000000602082015250565b5f61b91260338361a1cc565b915061b91d8261b8b8565b604082019050919050565b5f6020820190508181035f83015261b93f8161b906565b9050919050565b7f696e76616c6964206973737565722061646472657373000000000000000000005f82015250565b5f61b97a60168361a1cc565b915061b9858261b946565b602082019050919050565b5f6020820190508181035f83015261b9a78161b96e565b9050919050565b7f4172726179206c656e677468206d69736d6174636800000000000000000000005f82015250565b5f61b9e260158361a1cc565b915061b9ed8261b9ae565b602082019050919050565b5f6020820190508181035f83015261ba0f8161b9d6565b9050919050565b7f4e487b71000000000000000000000000000000000000000000000000000000005f52603260045260245ffd5b7f696e76616c696420666163746f727920616464726573730000000000000000005f82015250565b5f61ba7760178361a1cc565b915061ba828261ba43565b602082019050919050565b5f6020820190508181035f83015261baa48161ba6b565b9050919050565b7f4e487b71000000000000000000000000000000000000000000000000000000005f52602260045260245ffd5b5f600282049050600182168061baef57607f821691505b60208210810361bb025761bb0161baab565b5b50919050565b7f496e76616c6964206275726e20616d6f756e74000000000000000000000000005f82015250565b5f61bb3c60138361a1cc565b915061bb478261bb08565b602082019050919050565b5f6020820190508181035f83015261bb698161bb30565b9050919050565b5f6020828403121561bb855761bb84619ca0565b5b5f61bb928482850161b1b3565b91505092915050565b5f69ffffffffffffffffffff82169050919050565b61bbb98161bb9b565b811461bbc3575f80fd5b50565b5f8151905061bbd48161bbb0565b92915050565b5f819050919050565b61bbec8161bbda565b811461bbf6575f80fd5b50565b5f8151905061bc078161bbe3565b92915050565b5f805f805f60a0868803121561bc265761bc25619ca0565b5b5f61bc338882890161bbc6565b955050602061bc448882890161bbf9565b945050604061bc558882890161b1b3565b935050606061bc668882890161b1b3565b925050608061bc778882890161bbc6565b9150509295509295909350565b5f8151905061bc928161a584565b92915050565b5f6020828403121561bcad5761bcac619ca0565b5b5f61bcba8482850161bc84565b91505092915050565b5f60408201905061bcd65f830185619dc0565b61bce36020830184619dc0565b9392505050565b5f8151905061bcf88161a5dd565b92915050565b5f6040828403121561bd135761bd1261a5d9565b5b61bd1d6040619f60565b90505f61bd2c8482850161b1b3565b5f83015250602061bd3f8482850161bcea565b60208301525092915050565b5f6040828403121561bd605761bd5f619ca0565b5b5f61bd6d8482850161bcfe565b91505092915050565b7f496e76616c69642063616e63656c20726564656d7074696f6e20756e66696c6c5f8201527f656420616d6f756e740000000000000000000000000000000000000000000000602082015250565b5f61bdd060298361a1cc565b915061bddb8261bd76565b604082019050919050565b5f6020820190508181035f83015261bdfd8161bdc4565b9050919050565b7f4d7573742062652070726f706f736564206f776e6572000000000000000000005f82015250565b5f61be3860168361a1cc565b915061be438261be04565b602082019050919050565b5f6020820190508181035f83015261be658161be2c565b9050919050565b7f496e76616c69642069737375616e6365207265717565737420696400000000005f82015250565b5f61bea0601b8361a1cc565b915061beab8261be6c565b602082019050919050565b5f6020820190508181035f83015261becd8161be94565b9050919050565b7f63616c6c6572206d75737420626520666163746f72792062616c616e636572005f82015250565b5f61bf08601f8361a1cc565b915061bf138261bed4565b602082019050919050565b5f6020820190508181035f83015261bf358161befc565b9050919050565b5f67ffffffffffffffff82111561bf565761bf55619f02565b5b602082029050602081019050919050565b5f61bf7961bf748461bf3c565b619f60565b9050808382526020820190506020840283018581111561bf9c5761bf9b61a7d1565b5b835b8181101561bfe357803567ffffffffffffffff81111561bfc15761bfc0619eea565b5b80860161bfce898261a11f565b8552602085019450505060208101905061bf9e565b5050509392505050565b5f61bff936848461bf67565b905092915050565b5f67ffffffffffffffff82111561c01b5761c01a619f02565b5b602082029050602081019050919050565b5f61c03e61c0398461c001565b619f60565b9050808382526020820190506020840283018581111561c0615761c06061a7d1565b5b835b8181101561c0a857803567ffffffffffffffff81111561c0865761c085619eea565b5b80860161c0938982619ff9565b8552602085019450505060208101905061c063565b5050509392505050565b5f61c0be36848461c02c565b905092915050565b7f496e76616c69642069737375616e6365207072696d61727920746f6b656e20615f8201527f6464726573730000000000000000000000000000000000000000000000000000602082015250565b5f61c12060268361a1cc565b915061c12b8261c0c6565b604082019050919050565b5f6020820190508181035f83015261c14d8161c114565b9050919050565b5f819050815f5260205f209050919050565b5f6020601f8301049050919050565b5f82821b905092915050565b5f6008830261c1b07fffffffffffffffffffffffffffffffffffffffffffffffffffffffffffffffff8261c175565b61c1ba868361c175565b95508019841693508086168417925050509392505050565b5f61c1ec61c1e761c1e284619c66565b61a45c565b619c66565b9050919050565b5f819050919050565b61c2058361c1d2565b61c21961c2118261c1f3565b84845461c181565b825550505050565b5f90565b61c22d61c221565b61c23881848461c1fc565b505050565b5b8181101561c25b5761c2505f8261c225565b60018101905061c23e565b5050565b601f82111561c2a05761c2718161c154565b61c27a8461c166565b8101602085101561c289578190505b61c29d61c2958561c166565b83018261c23d565b50505b505050565b5f82821c905092915050565b5f61c2c05f198460080261c2a5565b1980831691505092915050565b5f61c2d8838361c2b1565b9150826002028217905092915050565b61c2f18261a1c2565b67ffffffffffffffff81111561c30a5761c309619f02565b5b61c314825461bad8565b61c31f82828561c25f565b5f60209050601f83116001811461c350575f841561c33e578287015190505b61c348858261c2cd565b86555061c3af565b601f19841661c35e8661c154565b5f5b8281101561c3855784890151825560018201915060208501945060208101905061c360565b8683101561c3a2578489015161c39e601f89168261c2b1565b8355505b6001600288020188555050505b505050505050565b7f696e76616c6964206f72646572206d616e6167657220616464726573730000005f82015250565b5f61c3eb601d8361a1cc565b915061c3f68261c3b7565b602082019050919050565b5f6020820190508181035f83015261c4188161c3df565b9050919050565b7f496e76616c696420726564656d7074696f6e20696e70757420616d6f756e74005f82015250565b5f61c453601f8361a1cc565b915061c45e8261c41f565b602082019050919050565b5f6020820190508181035f83015261c4808161c447565b9050919050565b5f61c49182619c66565b915061c49c83619c66565b925082820261c4aa81619c66565b9150828204841483151761c4c15761c4c061b219565b5b5092915050565b7f496e76616c696420627579207265717565737420616d6f756e740000000000005f82015250565b5f61c4fc601a8361a1cc565b915061c5078261c4c8565b602082019050919050565b5f6020820190508181035f83015261c5298161c4f0565b9050919050565b7f496e76616c696420726564656d7074696f6e20726571756573746572206164645f8201527f7265737300000000000000000000000000000000000000000000000000000000602082015250565b5f61c58a60248361a1cc565b915061c5958261c530565b604082019050919050565b5f6020820190508181035f83015261c5b78161c57e565b9050919050565b7f696e76616c6964207661756c74206164647265737300000000000000000000005f82015250565b5f61c5f260158361a1cc565b915061c5fd8261c5be565b602082019050919050565b5f6020820190508181035f83015261c61f8161c5e6565b9050919050565b7f696e76616c6964207573646320616464726573730000000000000000000000005f82015250565b5f61c65a60148361a1cc565b915061c6658261c626565b602082019050919050565b5f6020820190508181035f83015261c6878161c64e565b9050919050565b7f696e76616c696420636861696e6c696e6b20746f6b656e2061646472657373005f82015250565b5f61c6c2601f8361a1cc565b915061c6cd8261c68e565b602082019050919050565b5f6020820190508181035f83015261c6ef8161c6b6565b9050919050565b7f696e76616c69642066756e6374696f6e7320726f7574657220616464726573735f82015250565b5f61c72a60208361a1cc565b915061c7358261c6f6565b602082019050919050565b5f6020820190508181035f83015261c7578161c71e565b9050919050565b7f696e76616c696420646f6e2069640000000000000000000000000000000000005f82015250565b5f61c792600e8361a1cc565b915061c79d8261c75e565b602082019050919050565b5f6020820190508181035f83015261c7bf8161c786565b9050919050565b5f819050919050565b5f61c7e961c7e461c7df8461c7c6565b61a45c565b61a2e7565b9050919050565b61c7f98161c7cf565b82525050565b5f60208201905061c8125f83018461c7f0565b92915050565b7f696e76616c696420666163746f72792062616c616e63657220616464726573735f82015250565b5f61c84c60208361a1cc565b915061c8578261c818565b602082019050919050565b5f6020820190508181035f83015261c8798161c840565b9050919050565b7f496e76616c69642069737375616e6365207265717565737465722061646472655f8201527f7373000000000000000000000000000000000000000000000000000000000000602082015250565b5f61c8da60228361a1cc565b915061c8e58261c880565b604082019050919050565b5f6020820190508181035f83015261c9078161c8ce565b9050919050565b7f496e76616c69642069737375616e636520696e70757420616d6f756e740000005f82015250565b5f61c942601d8361a1cc565b915061c94d8261c90e565b602082019050919050565b5f6020820190508181035f83015261c96f8161c936565b9050919050565b7f696e76616c6964206665652072656365697665722061646472657373000000005f82015250565b5f61c9aa601c8361a1cc565b915061c9b58261c976565b602082019050919050565b5f6020820190508181035f83015261c9d78161c99e565b9050919050565b7f4f6e6c792063616c6c61626c65206279206f776e6572000000000000000000005f82015250565b5f61ca1260168361a1cc565b915061ca1d8261c9de565b602082019050919050565b5f6020820190508181035f83015261ca3f8161ca06565b9050919050565b5f8151905061ca5481619d02565b92915050565b5f61ca6c61ca678461a7a6565b619f60565b9050808382526020820190506020840283018581111561ca8f5761ca8e61a7d1565b5b835b8181101561cab8578061caa4888261ca46565b84526020840193505060208101905061ca91565b5050509392505050565b5f82601f83011261cad65761cad5619eea565b5b815161cae684826020860161ca5a565b91505092915050565b5f61cb0161cafc8461ac84565b619f60565b9050808382526020820190506020840283018581111561cb245761cb2361a7d1565b5b835b8181101561cb4d578061cb39888261b1b3565b84526020840193505060208101905061cb26565b5050509392505050565b5f82601f83011261cb6b5761cb6a619eea565b5b815161cb7b84826020860161caef565b91505092915050565b5f806040838503121561cb9a5761cb99619ca0565b5b5f83015167ffffffffffffffff81111561cbb75761cbb6619ca4565b5b61cbc38582860161cac2565b925050602083015167ffffffffffffffff81111561cbe45761cbe3619ca4565b5b61cbf08582860161cb57565b9150509250929050565b7f696e76616c6964207265717565737420696400000000000000000000000000005f82015250565b5f61cc2e60128361a1cc565b915061cc398261cbfa565b602082019050919050565b5f6020820190508181035f83015261cc5b8161cc22565b9050919050565b7f696e76616c696420746f6b656e730000000000000000000000000000000000005f82015250565b5f61cc96600e8361a1cc565b915061cca18261cc62565b602082019050919050565b5f6020820190508181035f83015261ccc38161cc8a565b9050919050565b7f696e76616c6964206d61726b65742073686172657300000000000000000000005f82015250565b5f61ccfe60158361a1cc565b915061cd098261ccca565b602082019050919050565b5f6020820190508181035f83015261cd2b8161ccf2565b9050919050565b5f60608201905061cd455f830186619c6f565b61cd526020830185619c6f565b61cd5f6040830184619c6f565b949350505050565b7f616d6f756e7420646563696d616c732073686f756c64206265206c65737320745f8201527f68616e206f7220657175616c20746f2031380000000000000000000000000000602082015250565b5f61cdc160328361a1cc565b915061cdcc8261cd67565b604082019050919050565b5f6020820190508181035f83015261cdee8161cdb5565b9050919050565b7f636861696e20646563696d616c732073686f756c64206265206c6573732074685f8201527f616e206f7220657175616c20746f203138000000000000000000000000000000602082015250565b5f61ce4f60318361a1cc565b915061ce5a8261cdf5565b604082019050919050565b5f6020820190508181035f83015261ce7c8161ce43565b9050919050565b5f61ce8d82619e83565b915061ce9883619e83565b9250828203905060ff81111561ceb15761ceb061b219565b5b92915050565b5f8160011c9050919050565b5f808291508390505b600185111561cf0c5780860481111561cee85761cee761b219565b5b600185161561cef75780820291505b808102905061cf058561ceb7565b945061cecc565b94509492505050565b5f8261cf24576001905061cfdf565b8161cf31575f905061cfdf565b816001811461cf47576002811461cf515761cf80565b600191505061cfdf565b60ff84111561cf635761cf6261b219565b5b8360020a91508482111561cf7a5761cf7961b219565b5b5061cfdf565b5060208310610133831016604e8410600b841016171561cfb55782820a90508381111561cfb05761cfaf61b219565b5b61cfdf565b61cfc2848484600161cec3565b9250905081840481111561cfd95761cfd861b219565b5b81810290505b9392505050565b5f61cff082619c66565b915061cffb83619e83565b925061d0287fffffffffffffffffffffffffffffffffffffffffffffffffffffffffffffffff848461cf15565b905092915050565b5f61d03a8261bbda565b915061d0458361bbda565b925082820261d0538161bbda565b91507f800000000000000000000000000000000000000000000000000000000000000084145f8412161561d08a5761d08961b219565b5b828205841483151761d09f5761d09e61b219565b5b5092915050565b5f82825260208201905092915050565b5f61d0c08261b32f565b61d0ca818561d0a6565b935061d0da81856020860161a1dc565b61d0e381619ef2565b840191505092915050565b5f61ffff82169050919050565b61d1048161d0ee565b82525050565b61d1138161aaee565b82525050565b5f60a08201905061d12c5f83018861a2fa565b818103602083015261d13e818761d0b6565b905061d14d604083018661d0fb565b61d15a606083018561d10a565b61d167608083018461ac31565b9695505050505050565b5f8151905061d17f81619ec0565b92915050565b5f6020828403121561d19a5761d199619ca0565b5b5f61d1a78482850161d171565b91505092915050565b7f43616e6e6f74207472616e7366657220746f2073656c660000000000000000005f82015250565b5f61d1e460178361a1cc565b915061d1ef8261d1b0565b602082019050919050565b5f6020820190508181035f83015261d2118161d1d8565b9050919050565b7f43616e6e6f7420736574206f776e657220746f207a65726f00000000000000005f82015250565b5f61d24c60188361a1cc565b915061d2578261d218565b602082019050919050565b5f6020820190508181035f83015261d2798161d240565b9050919050565b5f61d28a82619c66565b915061d29583619c66565b92508261d2a55761d2a461b7cd565b5b828206905092915050565b5f61d2ba82619c66565b915061d2c583619c66565b925061d2f27fffffffffffffffffffffffffffffffffffffffffffffffffffffffffffffffff848461cf15565b90509291505056fe68747470733a2f2f6170702e6e65786c6162732e696f2f6170692f616c6c46756e64696e6752617465733f6d756c7469706c7946756e633d31382674696d65734e656746756e643d74727565266172726179733d74727565a2646970667358221220ec3d88f5708fa2f795ee23983f3fa1b817510aab91003f47841da9639ba4e33e64736f6c63430008190033","linkReferences":{}},"methodIdentifiers":{"acceptOwnership()":"79ba5097","actionInfoById(uint256)":"3c1f70ca","baseUrl()":"5bcabf04","burnedTokenAmountByNonce(uint256)":"ab7820b2","buyRequestPayedAmountById(uint256)":"8861d235","calculateBuyRequestFee(uint256)":"06995e3b","calculateIssuanceFee(uint256)":"e19eefbe","cancelIssuanceComplted(uint256)":"7bfa27f2","cancelIssuanceRequestId(uint256,address)":"02e80f71","cancelIssuanceUnfilledAmount(uint256,address)":"9edcf9f4","cancelRedemptionComplted(uint256)":"b46840f9","cancelRedemptionRequestId(uint256,address)":"8c221899","cancelRedemptionUnfilledAmount(uint256,address)":"632439fd","checkCancelIssuanceStatus(uint256)":"631c8385","checkCancelRedemptionStatus(uint256)":"b592662a","checkIssuanceOrdersStatus(uint256)":"2343acb4","checkRedemptionOrdersStatus(uint256)":"3fac0922","concatenation(string,string)":"0e329357","currentList(uint256)":"9932ba4c","donId()":"8dbe7b9d","factoryAddress()":"966dae0e","factoryBalancerAddress()":"cb4d4e09","factoryProcessorAddress()":"0acb8d40","feeRate()":"978bbdb9","feeReceiver()":"b3f00674","functionsRouterAddress()":"e3c91043","getActionInfoById(uint256)":"147726ae","getAmountAfterFee(uint24,uint256)":"2e6b96e7","getIssuanceAmountOut(uint256)":"c8da3303","getOrderInstanceById(uint256)":"f1f31d66","getPortfolioValue()":"bb0498de","getPrimaryOrder(bool)":"b12279aa","getRedemptionAmountOut(uint256)":"e2851bd6","getVaultDshareBalance(address)":"a08d7bd6","getVaultDshareValue(address)":"efdf5053","handleOracleFulfillment(bytes32,bytes,bytes)":"0ca76175","increaseIssuanceNonce()":"5501c6cf","increaseRedemptionNonce()":"7851b905","initialize(address,address,address,address,uint8,address,address,bytes32,bool)":"d57e0493","isIssuanceOrderActive(uint256)":"b0e12134","isMainnet()":"42faac05","isRedemptionOrderActive(uint256)":"0b1a4918","issuanceIndexTokenPrimaryTotalSupply(uint256)":"b1dd819e","issuanceInputAmount(uint256)":"cf9ee319","issuanceIsCompleted(uint256)":"a84ebc17","issuanceNonce()":"9dbb9c9e","issuanceRequestId(uint256,address)":"264fa8b9","issuanceRequesterByNonce(uint256)":"94674098","issuanceTokenPrimaryBalance(uint256,address)":"da65925a","issuer()":"1d143848","lastUpdateTime()":"c8f33c91","latestFeeUpdate()":"011ced5f","latestPriceDecimals()":"0b1fa733","mockFillAssetsList(address[],uint256[])":"addc70d1","oracleList(uint256)":"239aad0d","orderInstanceById(uint256)":"15e666a2","orderManager()":"f9b6117f","owner()":"8da5cb5b","priceFeedByTokenAddress(address)":"08dc4b0c","priceInWei(address)":"6839a095","redemptionIndexTokenPrimaryTotalSupply(uint256)":"daf1c17d","redemptionInputAmount(uint256)":"9cf54521","redemptionIsCompleted(uint256)":"76529fdf","redemptionNonce()":"84d77bb1","redemptionRequestId(uint256,address)":"f513a718","redemptionRequesterByNonce(uint256)":"78032658","redemptionTokenPrimaryBalance(uint256,address)":"a363b9cb","requestAssetsData(string,bytes,string[],bytes[],uint64,uint32)":"8c03c55a","sellRequestAssetAmountById(uint256)":"a87f98d2","setActionInfoById(uint256,(uint256,uint256))":"8182492a","setBurnedTokenAmountByNonce(uint256,uint256)":"6188199f","setBuyRequestPayedAmountById(uint256,uint256)":"d1e4a308","setCancelIssuanceComplted(uint256,bool)":"7cd375e2","setCancelIssuanceRequestId(uint256,address,uint256)":"7a6c4b7b","setCancelIssuanceUnfilledAmount(uint256,address,uint256)":"12b6d2e6","setCancelRedemptionComplted(uint256,bool)":"8e97d7e1","setCancelRedemptionRequestId(uint256,address,uint256)":"457e0e0f","setCancelRedemptionUnfilledAmount(uint256,address,uint256)":"6ea86556","setDonId(bytes32)":"78ca5de7","setFactory(address)":"5bb47808","setFactoryBalancer(address)":"d5fbea63","setFactoryProcessor(address)":"0499a61d","setFeeRate(uint8)":"5177942a","setFeeReceiver(address)":"efdcd974","setIsMainnet(bool)":"991be68e","setIssuanceIndexTokenPrimaryTotalSupply(uint256,uint256)":"99f68da8","setIssuanceInputAmount(uint256,uint256)":"ea5142c8","setIssuanceIsCompleted(uint256,bool)":"d1c0cee6","setIssuanceRequestId(uint256,address,uint256)":"496304a4","setIssuanceRequesterByNonce(uint256,address)":"df1d5ea2","setIssuanceTokenPrimaryBalance(uint256,address,uint256)":"9b2d6e3b","setIssuer(address)":"55cc4e57","setLatestPriceDecimals(uint8)":"32502639","setOrderInstanceById(uint256,(uint64,address,address,address,bool,uint8,uint256,uint256,uint256,uint8))":"35c51204","setOrderManager(address)":"c0da840d","setPriceFeedAddresses(address[],address[])":"57b61bc3","setRedemptionIndexTokenPrimaryTotalSupply(uint256,uint256)":"6ea495df","setRedemptionInputAmount(uint256,uint256)":"c7003d1b","setRedemptionIsCompleted(uint256,bool)":"0a1d4270","setRedemptionRequestId(uint256,address,uint256)":"1c7a2959","setRedemptionRequesterByNonce(uint256,address)":"d34ed2ab","setRedemptionTokenPrimaryBalance(uint256,address,uint256)":"21de914f","setSellRequestAssetAmountById(uint256,uint256)":"1e2ad86e","setTokenAddress(address)":"26a4e8d2","setUrl(string,string)":"a73e1cbf","setUsdcAddress(address,uint8)":"eab2a711","setWrappedDShareAddresses(address[],address[])":"b411dc41","token()":"fc0c546a","tokenCurrentListIndex(address)":"914f0cc6","tokenCurrentMarketShare(address)":"0be52713","tokenOracleListIndex(address)":"8c88c10c","tokenOracleMarketShare(address)":"4b3e0b80","totalCurrentList()":"53fd4332","totalOracleList()":"c8599ded","transferOwnership(address)":"f2fde38b","updateCurrentList()":"8baa6bf1","urlParams()":"e789598c","usdc()":"3e413bee","usdcDecimals()":"7bf42165","vault()":"fbfa77cf","wrappedDshareAddress(address)":"092755e0"},"id":26}