{"abi":[{"type":"function","name":"actionInfoById","inputs":[{"name":"","type":"uint256","internalType":"uint256"}],"outputs":[{"name":"actionType","type":"uint256","internalType":"uint256"},{"name":"nonce","type":"uint256","internalType":"uint256"}],"stateMutability":"view"},{"type":"function","name":"baseUrl","inputs":[],"outputs":[{"name":"","type":"string","internalType":"string"}],"stateMutability":"view"},{"type":"function","name":"burnedTokenAmountByNonce","inputs":[{"name":"","type":"uint256","internalType":"uint256"}],"outputs":[{"name":"","type":"uint256","internalType":"uint256"}],"stateMutability":"view"},{"type":"function","name":"buyRequestPayedAmountById","inputs":[{"name":"","type":"uint256","internalType":"uint256"}],"outputs":[{"name":"","type":"uint256","internalType":"uint256"}],"stateMutability":"view"},{"type":"function","name":"calculateBuyRequestFee","inputs":[{"name":"_amount","type":"uint256","internalType":"uint256"}],"outputs":[{"name":"","type":"uint256","internalType":"uint256"}],"stateMutability":"view"},{"type":"function","name":"calculateIssuanceFee","inputs":[{"name":"_inputAmount","type":"uint256","internalType":"uint256"}],"outputs":[{"name":"","type":"uint256","internalType":"uint256"}],"stateMutability":"view"},{"type":"function","name":"cancelIssuanceComplted","inputs":[{"name":"","type":"uint256","internalType":"uint256"}],"outputs":[{"name":"","type":"bool","internalType":"bool"}],"stateMutability":"view"},{"type":"function","name":"cancelIssuanceRequestId","inputs":[{"name":"","type":"uint256","internalType":"uint256"},{"name":"","type":"address","internalType":"address"}],"outputs":[{"name":"","type":"uint256","internalType":"uint256"}],"stateMutability":"view"},{"type":"function","name":"cancelIssuanceUnfilledAmount","inputs":[{"name":"","type":"uint256","internalType":"uint256"},{"name":"","type":"address","internalType":"address"}],"outputs":[{"name":"","type":"uint256","internalType":"uint256"}],"stateMutability":"view"},{"type":"function","name":"cancelRedemptionComplted","inputs":[{"name":"","type":"uint256","internalType":"uint256"}],"outputs":[{"name":"","type":"bool","internalType":"bool"}],"stateMutability":"view"},{"type":"function","name":"cancelRedemptionRequestId","inputs":[{"name":"","type":"uint256","internalType":"uint256"},{"name":"","type":"address","internalType":"address"}],"outputs":[{"name":"","type":"uint256","internalType":"uint256"}],"stateMutability":"view"},{"type":"function","name":"cancelRedemptionUnfilledAmount","inputs":[{"name":"","type":"uint256","internalType":"uint256"},{"name":"","type":"address","internalType":"address"}],"outputs":[{"name":"","type":"uint256","internalType":"uint256"}],"stateMutability":"view"},{"type":"function","name":"checkCancelIssuanceStatus","inputs":[{"name":"_issuanceNonce","type":"uint256","internalType":"uint256"}],"outputs":[{"name":"","type":"bool","internalType":"bool"}],"stateMutability":"view"},{"type":"function","name":"checkCancelRedemptionStatus","inputs":[{"name":"_redemptionNonce","type":"uint256","internalType":"uint256"}],"outputs":[{"name":"","type":"bool","internalType":"bool"}],"stateMutability":"view"},{"type":"function","name":"checkIssuanceOrdersStatus","inputs":[{"name":"_issuanceNonce","type":"uint256","internalType":"uint256"}],"outputs":[{"name":"","type":"bool","internalType":"bool"}],"stateMutability":"view"},{"type":"function","name":"checkRedemptionOrdersStatus","inputs":[{"name":"_redemptionNonce","type":"uint256","internalType":"uint256"}],"outputs":[{"name":"","type":"bool","internalType":"bool"}],"stateMutability":"view"},{"type":"function","name":"concatenation","inputs":[{"name":"a","type":"string","internalType":"string"},{"name":"b","type":"string","internalType":"string"}],"outputs":[{"name":"","type":"string","internalType":"string"}],"stateMutability":"pure"},{"type":"function","name":"currentList","inputs":[{"name":"","type":"uint256","internalType":"uint256"}],"outputs":[{"name":"","type":"address","internalType":"address"}],"stateMutability":"view"},{"type":"function","name":"externalJobId","inputs":[],"outputs":[{"name":"","type":"bytes32","internalType":"bytes32"}],"stateMutability":"view"},{"type":"function","name":"factoryAddress","inputs":[],"outputs":[{"name":"","type":"address","internalType":"address"}],"stateMutability":"view"},{"type":"function","name":"factoryBalancerAddress","inputs":[],"outputs":[{"name":"","type":"address","internalType":"address"}],"stateMutability":"view"},{"type":"function","name":"factoryProcessorAddress","inputs":[],"outputs":[{"name":"","type":"address","internalType":"address"}],"stateMutability":"view"},{"type":"function","name":"feeRate","inputs":[],"outputs":[{"name":"","type":"uint8","internalType":"uint8"}],"stateMutability":"view"},{"type":"function","name":"feeReceiver","inputs":[],"outputs":[{"name":"","type":"address","internalType":"address"}],"stateMutability":"view"},{"type":"function","name":"fulfillAssetsData","inputs":[{"name":"requestId","type":"bytes32","internalType":"bytes32"},{"name":"_tokens","type":"address[]","internalType":"address[]"},{"name":"_marketShares","type":"uint256[]","internalType":"uint256[]"}],"outputs":[],"stateMutability":"nonpayable"},{"type":"function","name":"getActionInfoById","inputs":[{"name":"_id","type":"uint256","internalType":"uint256"}],"outputs":[{"name":"","type":"tuple","internalType":"struct IndexFactoryStorage.ActionInfo","components":[{"name":"actionType","type":"uint256","internalType":"uint256"},{"name":"nonce","type":"uint256","internalType":"uint256"}]}],"stateMutability":"view"},{"type":"function","name":"getAmountAfterFee","inputs":[{"name":"percentageFeeRate","type":"uint24","internalType":"uint24"},{"name":"orderValue","type":"uint256","internalType":"uint256"}],"outputs":[{"name":"","type":"uint256","internalType":"uint256"}],"stateMutability":"pure"},{"type":"function","name":"getIssuanceAmountOut","inputs":[{"name":"_amount","type":"uint256","internalType":"uint256"}],"outputs":[{"name":"","type":"uint256","internalType":"uint256"}],"stateMutability":"view"},{"type":"function","name":"getOrderInstanceById","inputs":[{"name":"_id","type":"uint256","internalType":"uint256"}],"outputs":[{"name":"","type":"tuple","internalType":"struct IOrderProcessor.Order","components":[{"name":"requestTimestamp","type":"uint64","internalType":"uint64"},{"name":"recipient","type":"address","internalType":"address"},{"name":"assetToken","type":"address","internalType":"address"},{"name":"paymentToken","type":"address","internalType":"address"},{"name":"sell","type":"bool","internalType":"bool"},{"name":"orderType","type":"uint8","internalType":"enum IOrderProcessor.OrderType"},{"name":"assetTokenQuantity","type":"uint256","internalType":"uint256"},{"name":"paymentTokenQuantity","type":"uint256","internalType":"uint256"},{"name":"price","type":"uint256","internalType":"uint256"},{"name":"tif","type":"uint8","internalType":"enum IOrderProcessor.TIF"}]}],"stateMutability":"view"},{"type":"function","name":"getPortfolioValue","inputs":[],"outputs":[{"name":"","type":"uint256","internalType":"uint256"}],"stateMutability":"view"},{"type":"function","name":"getPrimaryOrder","inputs":[{"name":"sell","type":"bool","internalType":"bool"}],"outputs":[{"name":"","type":"tuple","internalType":"struct IOrderProcessor.Order","components":[{"name":"requestTimestamp","type":"uint64","internalType":"uint64"},{"name":"recipient","type":"address","internalType":"address"},{"name":"assetToken","type":"address","internalType":"address"},{"name":"paymentToken","type":"address","internalType":"address"},{"name":"sell","type":"bool","internalType":"bool"},{"name":"orderType","type":"uint8","internalType":"enum IOrderProcessor.OrderType"},{"name":"assetTokenQuantity","type":"uint256","internalType":"uint256"},{"name":"paymentTokenQuantity","type":"uint256","internalType":"uint256"},{"name":"price","type":"uint256","internalType":"uint256"},{"name":"tif","type":"uint8","internalType":"enum IOrderProcessor.TIF"}]}],"stateMutability":"view"},{"type":"function","name":"getRedemptionAmountOut","inputs":[{"name":"_amount","type":"uint256","internalType":"uint256"}],"outputs":[{"name":"","type":"uint256","internalType":"uint256"}],"stateMutability":"view"},{"type":"function","name":"getVaultDshareBalance","inputs":[{"name":"_token","type":"address","internalType":"address"}],"outputs":[{"name":"","type":"uint256","internalType":"uint256"}],"stateMutability":"view"},{"type":"function","name":"getVaultDshareValue","inputs":[{"name":"_token","type":"address","internalType":"address"}],"outputs":[{"name":"","type":"uint256","internalType":"uint256"}],"stateMutability":"view"},{"type":"function","name":"increaseIssuanceNonce","inputs":[],"outputs":[],"stateMutability":"nonpayable"},{"type":"function","name":"increaseRedemptionNonce","inputs":[],"outputs":[],"stateMutability":"nonpayable"},{"type":"function","name":"initialize","inputs":[{"name":"_issuer","type":"address","internalType":"address"},{"name":"_token","type":"address","internalType":"address"},{"name":"_vault","type":"address","internalType":"address"},{"name":"_usdc","type":"address","internalType":"address"},{"name":"_usdcDecimals","type":"uint8","internalType":"uint8"},{"name":"_chainlinkToken","type":"address","internalType":"address"},{"name":"_oracleAddress","type":"address","internalType":"address"},{"name":"_externalJobId","type":"bytes32","internalType":"bytes32"},{"name":"_isMainnet","type":"bool","internalType":"bool"}],"outputs":[],"stateMutability":"nonpayable"},{"type":"function","name":"isIssuanceOrderActive","inputs":[{"name":"_issuanceNonce","type":"uint256","internalType":"uint256"}],"outputs":[{"name":"","type":"bool","internalType":"bool"}],"stateMutability":"view"},{"type":"function","name":"isMainnet","inputs":[],"outputs":[{"name":"","type":"bool","internalType":"bool"}],"stateMutability":"view"},{"type":"function","name":"isRedemptionOrderActive","inputs":[{"name":"_redemptionNonce","type":"uint256","internalType":"uint256"}],"outputs":[{"name":"","type":"bool","internalType":"bool"}],"stateMutability":"view"},{"type":"function","name":"issuanceIndexTokenPrimaryTotalSupply","inputs":[{"name":"","type":"uint256","internalType":"uint256"}],"outputs":[{"name":"","type":"uint256","internalType":"uint256"}],"stateMutability":"view"},{"type":"function","name":"issuanceInputAmount","inputs":[{"name":"","type":"uint256","internalType":"uint256"}],"outputs":[{"name":"","type":"uint256","internalType":"uint256"}],"stateMutability":"view"},{"type":"function","name":"issuanceIsCompleted","inputs":[{"name":"","type":"uint256","internalType":"uint256"}],"outputs":[{"name":"","type":"bool","internalType":"bool"}],"stateMutability":"view"},{"type":"function","name":"issuanceNonce","inputs":[],"outputs":[{"name":"","type":"uint256","internalType":"uint256"}],"stateMutability":"view"},{"type":"function","name":"issuanceRequestId","inputs":[{"name":"","type":"uint256","internalType":"uint256"},{"name":"","type":"address","internalType":"address"}],"outputs":[{"name":"","type":"uint256","internalType":"uint256"}],"stateMutability":"view"},{"type":"function","name":"issuanceRequesterByNonce","inputs":[{"name":"","type":"uint256","internalType":"uint256"}],"outputs":[{"name":"","type":"address","internalType":"address"}],"stateMutability":"view"},{"type":"function","name":"issuanceTokenPrimaryBalance","inputs":[{"name":"","type":"uint256","internalType":"uint256"},{"name":"","type":"address","internalType":"address"}],"outputs":[{"name":"","type":"uint256","internalType":"uint256"}],"stateMutability":"view"},{"type":"function","name":"issuer","inputs":[],"outputs":[{"name":"","type":"address","internalType":"contract IOrderProcessor"}],"stateMutability":"view"},{"type":"function","name":"lastUpdateTime","inputs":[],"outputs":[{"name":"","type":"uint256","internalType":"uint256"}],"stateMutability":"view"},{"type":"function","name":"latestFeeUpdate","inputs":[],"outputs":[{"name":"","type":"uint256","internalType":"uint256"}],"stateMutability":"view"},{"type":"function","name":"latestPriceDecimals","inputs":[],"outputs":[{"name":"","type":"uint8","internalType":"uint8"}],"stateMutability":"view"},{"type":"function","name":"mockFillAssetsList","inputs":[{"name":"_tokens","type":"address[]","internalType":"address[]"},{"name":"_marketShares","type":"uint256[]","internalType":"uint256[]"}],"outputs":[],"stateMutability":"nonpayable"},{"type":"function","name":"oracleList","inputs":[{"name":"","type":"uint256","internalType":"uint256"}],"outputs":[{"name":"","type":"address","internalType":"address"}],"stateMutability":"view"},{"type":"function","name":"oraclePayment","inputs":[],"outputs":[{"name":"","type":"uint256","internalType":"uint256"}],"stateMutability":"view"},{"type":"function","name":"orderInstanceById","inputs":[{"name":"","type":"uint256","internalType":"uint256"}],"outputs":[{"name":"requestTimestamp","type":"uint64","internalType":"uint64"},{"name":"recipient","type":"address","internalType":"address"},{"name":"assetToken","type":"address","internalType":"address"},{"name":"paymentToken","type":"address","internalType":"address"},{"name":"sell","type":"bool","internalType":"bool"},{"name":"orderType","type":"uint8","internalType":"enum IOrderProcessor.OrderType"},{"name":"assetTokenQuantity","type":"uint256","internalType":"uint256"},{"name":"paymentTokenQuantity","type":"uint256","internalType":"uint256"},{"name":"price","type":"uint256","internalType":"uint256"},{"name":"tif","type":"uint8","internalType":"enum IOrderProcessor.TIF"}],"stateMutability":"view"},{"type":"function","name":"orderManager","inputs":[],"outputs":[{"name":"","type":"address","internalType":"contract OrderManager"}],"stateMutability":"view"},{"type":"function","name":"owner","inputs":[],"outputs":[{"name":"","type":"address","internalType":"address"}],"stateMutability":"view"},{"type":"function","name":"priceFeedByTokenAddress","inputs":[{"name":"","type":"address","internalType":"address"}],"outputs":[{"name":"","type":"address","internalType":"address"}],"stateMutability":"view"},{"type":"function","name":"priceInWei","inputs":[{"name":"_tokenAddress","type":"address","internalType":"address"}],"outputs":[{"name":"","type":"uint256","internalType":"uint256"}],"stateMutability":"view"},{"type":"function","name":"redemptionIndexTokenPrimaryTotalSupply","inputs":[{"name":"","type":"uint256","internalType":"uint256"}],"outputs":[{"name":"","type":"uint256","internalType":"uint256"}],"stateMutability":"view"},{"type":"function","name":"redemptionInputAmount","inputs":[{"name":"","type":"uint256","internalType":"uint256"}],"outputs":[{"name":"","type":"uint256","internalType":"uint256"}],"stateMutability":"view"},{"type":"function","name":"redemptionIsCompleted","inputs":[{"name":"","type":"uint256","internalType":"uint256"}],"outputs":[{"name":"","type":"bool","internalType":"bool"}],"stateMutability":"view"},{"type":"function","name":"redemptionNonce","inputs":[],"outputs":[{"name":"","type":"uint256","internalType":"uint256"}],"stateMutability":"view"},{"type":"function","name":"redemptionRequestId","inputs":[{"name":"","type":"uint256","internalType":"uint256"},{"name":"","type":"address","internalType":"address"}],"outputs":[{"name":"","type":"uint256","internalType":"uint256"}],"stateMutability":"view"},{"type":"function","name":"redemptionRequesterByNonce","inputs":[{"name":"","type":"uint256","internalType":"uint256"}],"outputs":[{"name":"","type":"address","internalType":"address"}],"stateMutability":"view"},{"type":"function","name":"redemptionTokenPrimaryBalance","inputs":[{"name":"","type":"uint256","internalType":"uint256"},{"name":"","type":"address","internalType":"address"}],"outputs":[{"name":"","type":"uint256","internalType":"uint256"}],"stateMutability":"view"},{"type":"function","name":"renounceOwnership","inputs":[],"outputs":[],"stateMutability":"nonpayable"},{"type":"function","name":"requestAssetsData","inputs":[],"outputs":[{"name":"","type":"bytes32","internalType":"bytes32"}],"stateMutability":"nonpayable"},{"type":"function","name":"sellRequestAssetAmountById","inputs":[{"name":"","type":"uint256","internalType":"uint256"}],"outputs":[{"name":"","type":"uint256","internalType":"uint256"}],"stateMutability":"view"},{"type":"function","name":"setActionInfoById","inputs":[{"name":"_requestId","type":"uint256","internalType":"uint256"},{"name":"_actionInfo","type":"tuple","internalType":"struct IndexFactoryStorage.ActionInfo","components":[{"name":"actionType","type":"uint256","internalType":"uint256"},{"name":"nonce","type":"uint256","internalType":"uint256"}]}],"outputs":[],"stateMutability":"nonpayable"},{"type":"function","name":"setBurnedTokenAmountByNonce","inputs":[{"name":"_redemptionNonce","type":"uint256","internalType":"uint256"},{"name":"_burnedAmount","type":"uint256","internalType":"uint256"}],"outputs":[],"stateMutability":"nonpayable"},{"type":"function","name":"setBuyRequestPayedAmountById","inputs":[{"name":"_requestId","type":"uint256","internalType":"uint256"},{"name":"_amount","type":"uint256","internalType":"uint256"}],"outputs":[],"stateMutability":"nonpayable"},{"type":"function","name":"setCancelIssuanceComplted","inputs":[{"name":"_issuanceNonce","type":"uint256","internalType":"uint256"},{"name":"_isCompleted","type":"bool","internalType":"bool"}],"outputs":[],"stateMutability":"nonpayable"},{"type":"function","name":"setCancelIssuanceRequestId","inputs":[{"name":"_issuanceNonce","type":"uint256","internalType":"uint256"},{"name":"_token","type":"address","internalType":"address"},{"name":"_requestId","type":"uint256","internalType":"uint256"}],"outputs":[],"stateMutability":"nonpayable"},{"type":"function","name":"setCancelIssuanceUnfilledAmount","inputs":[{"name":"_issuanceNonce","type":"uint256","internalType":"uint256"},{"name":"_token","type":"address","internalType":"address"},{"name":"_amount","type":"uint256","internalType":"uint256"}],"outputs":[],"stateMutability":"nonpayable"},{"type":"function","name":"setCancelRedemptionComplted","inputs":[{"name":"_redemptionNonce","type":"uint256","internalType":"uint256"},{"name":"_isCompleted","type":"bool","internalType":"bool"}],"outputs":[],"stateMutability":"nonpayable"},{"type":"function","name":"setCancelRedemptionRequestId","inputs":[{"name":"_redemptionNonce","type":"uint256","internalType":"uint256"},{"name":"_token","type":"address","internalType":"address"},{"name":"_requestId","type":"uint256","internalType":"uint256"}],"outputs":[],"stateMutability":"nonpayable"},{"type":"function","name":"setCancelRedemptionUnfilledAmount","inputs":[{"name":"_redemptionNonce","type":"uint256","internalType":"uint256"},{"name":"_token","type":"address","internalType":"address"},{"name":"_amount","type":"uint256","internalType":"uint256"}],"outputs":[],"stateMutability":"nonpayable"},{"type":"function","name":"setFactory","inputs":[{"name":"_factoryAddress","type":"address","internalType":"address"}],"outputs":[],"stateMutability":"nonpayable"},{"type":"function","name":"setFactoryBalancer","inputs":[{"name":"_factoryBalancerAddress","type":"address","internalType":"address"}],"outputs":[],"stateMutability":"nonpayable"},{"type":"function","name":"setFactoryProcessor","inputs":[{"name":"_factoryProcessorAddress","type":"address","internalType":"address"}],"outputs":[],"stateMutability":"nonpayable"},{"type":"function","name":"setFeeRate","inputs":[{"name":"_newFee","type":"uint8","internalType":"uint8"}],"outputs":[],"stateMutability":"nonpayable"},{"type":"function","name":"setFeeReceiver","inputs":[{"name":"_feeReceiver","type":"address","internalType":"address"}],"outputs":[],"stateMutability":"nonpayable"},{"type":"function","name":"setIsMainnet","inputs":[{"name":"_isMainnet","type":"bool","internalType":"bool"}],"outputs":[],"stateMutability":"nonpayable"},{"type":"function","name":"setIssuanceIndexTokenPrimaryTotalSupply","inputs":[{"name":"_issuanceNonce","type":"uint256","internalType":"uint256"},{"name":"_amount","type":"uint256","internalType":"uint256"}],"outputs":[],"stateMutability":"nonpayable"},{"type":"function","name":"setIssuanceInputAmount","inputs":[{"name":"_issuanceNonce","type":"uint256","internalType":"uint256"},{"name":"_amount","type":"uint256","internalType":"uint256"}],"outputs":[],"stateMutability":"nonpayable"},{"type":"function","name":"setIssuanceIsCompleted","inputs":[{"name":"_issuanceNonce","type":"uint256","internalType":"uint256"},{"name":"_isCompleted","type":"bool","internalType":"bool"}],"outputs":[],"stateMutability":"nonpayable"},{"type":"function","name":"setIssuanceRequestId","inputs":[{"name":"_issuanceNonce","type":"uint256","internalType":"uint256"},{"name":"_token","type":"address","internalType":"address"},{"name":"_requestId","type":"uint256","internalType":"uint256"}],"outputs":[],"stateMutability":"nonpayable"},{"type":"function","name":"setIssuanceRequesterByNonce","inputs":[{"name":"_issuanceNonce","type":"uint256","internalType":"uint256"},{"name":"_requester","type":"address","internalType":"address"}],"outputs":[],"stateMutability":"nonpayable"},{"type":"function","name":"setIssuanceTokenPrimaryBalance","inputs":[{"name":"_issuanceNonce","type":"uint256","internalType":"uint256"},{"name":"_token","type":"address","internalType":"address"},{"name":"_amount","type":"uint256","internalType":"uint256"}],"outputs":[],"stateMutability":"nonpayable"},{"type":"function","name":"setIssuer","inputs":[{"name":"_issuer","type":"address","internalType":"address"}],"outputs":[{"name":"","type":"bool","internalType":"bool"}],"stateMutability":"nonpayable"},{"type":"function","name":"setLatestPriceDecimals","inputs":[{"name":"_decimals","type":"uint8","internalType":"uint8"}],"outputs":[],"stateMutability":"nonpayable"},{"type":"function","name":"setOracleInfo","inputs":[{"name":"_oracleAddress","type":"address","internalType":"address"},{"name":"_externalJobId","type":"bytes32","internalType":"bytes32"}],"outputs":[],"stateMutability":"nonpayable"},{"type":"function","name":"setOrderInstanceById","inputs":[{"name":"_requestId","type":"uint256","internalType":"uint256"},{"name":"_order","type":"tuple","internalType":"struct IOrderProcessor.Order","components":[{"name":"requestTimestamp","type":"uint64","internalType":"uint64"},{"name":"recipient","type":"address","internalType":"address"},{"name":"assetToken","type":"address","internalType":"address"},{"name":"paymentToken","type":"address","internalType":"address"},{"name":"sell","type":"bool","internalType":"bool"},{"name":"orderType","type":"uint8","internalType":"enum IOrderProcessor.OrderType"},{"name":"assetTokenQuantity","type":"uint256","internalType":"uint256"},{"name":"paymentTokenQuantity","type":"uint256","internalType":"uint256"},{"name":"price","type":"uint256","internalType":"uint256"},{"name":"tif","type":"uint8","internalType":"enum IOrderProcessor.TIF"}]}],"outputs":[],"stateMutability":"nonpayable"},{"type":"function","name":"setOrderManager","inputs":[{"name":"_orderManager","type":"address","internalType":"address"}],"outputs":[{"name":"","type":"bool","internalType":"bool"}],"stateMutability":"nonpayable"},{"type":"function","name":"setPriceFeedAddresses","inputs":[{"name":"_dShares","type":"address[]","internalType":"address[]"},{"name":"_priceFeedAddresses","type":"address[]","internalType":"address[]"}],"outputs":[],"stateMutability":"nonpayable"},{"type":"function","name":"setRedemptionIndexTokenPrimaryTotalSupply","inputs":[{"name":"_redemptionNonce","type":"uint256","internalType":"uint256"},{"name":"_amount","type":"uint256","internalType":"uint256"}],"outputs":[],"stateMutability":"nonpayable"},{"type":"function","name":"setRedemptionInputAmount","inputs":[{"name":"_redemptionNonce","type":"uint256","internalType":"uint256"},{"name":"_amount","type":"uint256","internalType":"uint256"}],"outputs":[],"stateMutability":"nonpayable"},{"type":"function","name":"setRedemptionIsCompleted","inputs":[{"name":"_redemptionNonce","type":"uint256","internalType":"uint256"},{"name":"_isCompleted","type":"bool","internalType":"bool"}],"outputs":[],"stateMutability":"nonpayable"},{"type":"function","name":"setRedemptionRequestId","inputs":[{"name":"_redemptionNonce","type":"uint256","internalType":"uint256"},{"name":"_token","type":"address","internalType":"address"},{"name":"_requestId","type":"uint256","internalType":"uint256"}],"outputs":[],"stateMutability":"nonpayable"},{"type":"function","name":"setRedemptionRequesterByNonce","inputs":[{"name":"_redemptionNonce","type":"uint256","internalType":"uint256"},{"name":"_requester","type":"address","internalType":"address"}],"outputs":[],"stateMutability":"nonpayable"},{"type":"function","name":"setRedemptionTokenPrimaryBalance","inputs":[{"name":"_redemptionNonce","type":"uint256","internalType":"uint256"},{"name":"_token","type":"address","internalType":"address"},{"name":"_amount","type":"uint256","internalType":"uint256"}],"outputs":[],"stateMutability":"nonpayable"},{"type":"function","name":"setSellRequestAssetAmountById","inputs":[{"name":"_requestId","type":"uint256","internalType":"uint256"},{"name":"_amount","type":"uint256","internalType":"uint256"}],"outputs":[],"stateMutability":"nonpayable"},{"type":"function","name":"setTokenAddress","inputs":[{"name":"_token","type":"address","internalType":"address"}],"outputs":[{"name":"","type":"bool","internalType":"bool"}],"stateMutability":"nonpayable"},{"type":"function","name":"setUrl","inputs":[{"name":"_beforeAddress","type":"string","internalType":"string"},{"name":"_afterAddress","type":"string","internalType":"string"}],"outputs":[],"stateMutability":"nonpayable"},{"type":"function","name":"setUsdcAddress","inputs":[{"name":"_usdc","type":"address","internalType":"address"},{"name":"_usdcDecimals","type":"uint8","internalType":"uint8"}],"outputs":[{"name":"","type":"bool","internalType":"bool"}],"stateMutability":"nonpayable"},{"type":"function","name":"setWrappedDShareAddresses","inputs":[{"name":"_dShares","type":"address[]","internalType":"address[]"},{"name":"_wrappedDShares","type":"address[]","internalType":"address[]"}],"outputs":[],"stateMutability":"nonpayable"},{"type":"function","name":"token","inputs":[],"outputs":[{"name":"","type":"address","internalType":"contract IndexToken"}],"stateMutability":"view"},{"type":"function","name":"tokenCurrentListIndex","inputs":[{"name":"","type":"address","internalType":"address"}],"outputs":[{"name":"","type":"uint256","internalType":"uint256"}],"stateMutability":"view"},{"type":"function","name":"tokenCurrentMarketShare","inputs":[{"name":"","type":"address","internalType":"address"}],"outputs":[{"name":"","type":"uint256","internalType":"uint256"}],"stateMutability":"view"},{"type":"function","name":"tokenOracleListIndex","inputs":[{"name":"","type":"address","internalType":"address"}],"outputs":[{"name":"","type":"uint256","internalType":"uint256"}],"stateMutability":"view"},{"type":"function","name":"tokenOracleMarketShare","inputs":[{"name":"","type":"address","internalType":"address"}],"outputs":[{"name":"","type":"uint256","internalType":"uint256"}],"stateMutability":"view"},{"type":"function","name":"totalCurrentList","inputs":[],"outputs":[{"name":"","type":"uint256","internalType":"uint256"}],"stateMutability":"view"},{"type":"function","name":"totalOracleList","inputs":[],"outputs":[{"name":"","type":"uint256","internalType":"uint256"}],"stateMutability":"view"},{"type":"function","name":"transferOwnership","inputs":[{"name":"newOwner","type":"address","internalType":"address"}],"outputs":[],"stateMutability":"nonpayable"},{"type":"function","name":"updateCurrentList","inputs":[],"outputs":[],"stateMutability":"nonpayable"},{"type":"function","name":"urlParams","inputs":[],"outputs":[{"name":"","type":"string","internalType":"string"}],"stateMutability":"view"},{"type":"function","name":"usdc","inputs":[],"outputs":[{"name":"","type":"address","internalType":"address"}],"stateMutability":"view"},{"type":"function","name":"usdcDecimals","inputs":[],"outputs":[{"name":"","type":"uint8","internalType":"uint8"}],"stateMutability":"view"},{"type":"function","name":"vault","inputs":[],"outputs":[{"name":"","type":"address","internalType":"contract NexVault"}],"stateMutability":"view"},{"type":"function","name":"wrappedDshareAddress","inputs":[{"name":"","type":"address","internalType":"address"}],"outputs":[{"name":"","type":"address","internalType":"address"}],"stateMutability":"view"},{"type":"event","name":"ChainlinkCancelled","inputs":[{"name":"id","type":"bytes32","indexed":true,"internalType":"bytes32"}],"anonymous":false},{"type":"event","name":"ChainlinkFulfilled","inputs":[{"name":"id","type":"bytes32","indexed":true,"internalType":"bytes32"}],"anonymous":false},{"type":"event","name":"ChainlinkRequested","inputs":[{"name":"id","type":"bytes32","indexed":true,"internalType":"bytes32"}],"anonymous":false},{"type":"event","name":"Initialized","inputs":[{"name":"version","type":"uint64","indexed":false,"internalType":"uint64"}],"anonymous":false},{"type":"event","name":"OwnershipTransferred","inputs":[{"name":"previousOwner","type":"address","indexed":true,"internalType":"address"},{"name":"newOwner","type":"address","indexed":true,"internalType":"address"}],"anonymous":false},{"type":"error","name":"InvalidInitialization","inputs":[]},{"type":"error","name":"NotInitializing","inputs":[]},{"type":"error","name":"OwnableInvalidOwner","inputs":[{"name":"owner","type":"address","internalType":"address"}]},{"type":"error","name":"OwnableUnauthorizedAccount","inputs":[{"name":"account","type":"address","internalType":"address"}]},{"type":"error","name":"PRBMath_MulDiv_Overflow","inputs":[{"name":"x","type":"uint256","internalType":"uint256"},{"name":"y","type":"uint256","internalType":"uint256"},{"name":"denominator","type":"uint256","internalType":"uint256"}]},{"type":"error","name":"PRBMath_MulDiv_Overflow","inputs":[{"name":"x","type":"uint256","internalType":"uint256"},{"name":"y","type":"uint256","internalType":"uint256"},{"name":"denominator","type":"uint256","internalType":"uint256"}]}],"bytecode":{"object":"0x6080604052348015600f57600080fd5b506167648061001f6000396000f3fe608060405234801561001057600080fd5b50600436106107435760003560e01c80638baa6bf1116103be578063b592662a116101ff578063daf1c17d11610125578063efdf5053116100b8578063f513a71811610087578063f513a7181461129b578063f9b6117f146112c6578063fbfa77cf146112d9578063fc0c546a146112ec57600080fd5b8063efdf50531461124f578063f14bea2014611262578063f1f31d6614611275578063f2fde38b1461128857600080fd5b8063e789598c116100f4578063e789598c1461120e578063ea5142c814611216578063eab2a71114611229578063efdcd9741461123c57600080fd5b8063daf1c17d146111b5578063df1d5ea2146111d5578063e19eefbe146111e8578063e2851bd6146111fb57600080fd5b8063cb4d4e091161019d578063d34ed2ab1161016c578063d34ed2ab14611151578063d57e049314611164578063d5fbea6314611177578063da65925a1461118a57600080fd5b8063cb4d4e09146110f8578063cf9ee3191461110b578063d1c0cee61461112b578063d1e4a3081461113e57600080fd5b8063c7003d1b116101d9578063c7003d1b146110c0578063c8599ded146110d3578063c8da3303146110dc578063c8f33c91146110ef57600080fd5b8063b592662a14611092578063bb0498de146110a5578063c0da840d146110ad57600080fd5b80639edcf9f4116102e4578063ab7820b211610282578063b1dd819e11610251578063b1dd819e14611024578063b3f0067414611044578063b411dc411461105c578063b46840f91461106f57600080fd5b8063ab7820b214610fbe578063addc70d114610fde578063b0e1213414610ff1578063b12279aa1461100457600080fd5b8063a73e1cbf116102be578063a73e1cbf14610f5f578063a84ebc1714610f72578063a87f98d214610f95578063a8b54bd414610fb557600080fd5b80639edcf9f414610ef6578063a08d7bd614610f21578063a363b9cb14610f3457600080fd5b8063966dae0e1161035c57806399f68da81161032b57806399f68da814610ea75780639b2d6e3b14610eba5780639cf5452114610ecd5780639dbb9c9e14610eed57600080fd5b8063966dae0e14610e44578063978bbdb914610e57578063991be68e14610e6b5780639932ba4c14610e7e57600080fd5b80638da5cb5b116103985780638da5cb5b14610db85780638e97d7e114610de8578063914f0cc614610dfb5780639467409814610e1b57600080fd5b80638baa6bf114610d655780638c22189914610d6d5780638c88c10c14610d9857600080fd5b806342faac05116105885780636839a095116104ae5780637a6c4b7b1161044c5780637cd375e21161041b5780637cd375e214610d165780638182492a14610d2957806384d77bb114610d3c5780638861d23514610d4557600080fd5b80637a6c4b7b14610cc45780637bf4216514610cd75780637bfa27f214610ceb5780637ca58c5514610d0e57600080fd5b8063715018a611610488578063715018a614610c6857806376529fdf14610c705780637803265814610c935780637851b90514610cbc57600080fd5b80636839a09514610c2f5780636ea495df14610c425780636ea8655614610c5557600080fd5b80635501c6cf116105265780635bcabf04116104f55780635bcabf0414610bd65780636188199f14610bde578063631c838514610bf1578063632439fd14610c0457600080fd5b80635501c6cf14610b9557806355cc4e5714610b9d57806357b61bc314610bb05780635bb4780814610bc357600080fd5b8063496304a411610562578063496304a414610b465780634b3e0b8014610b595780635177942a14610b7957806353fd433214610b8c57600080fd5b806342faac0514610b0c57806343482fc814610b20578063457e0e0f14610b3357600080fd5b806315e666a21161066d578063264fa8b91161060b57806335c51204116105da57806335c5120414610a975780633c1f70ca14610aaa5780633e413bee14610ae65780633fac092214610af957600080fd5b8063264fa8b914610a3357806326a4e8d214610a5e5780632e6b96e714610a715780633250263914610a8457600080fd5b80631e2ad86e116106475780631e2ad86e146109d157806321de914f146109e45780632343acb4146109f7578063239aad0d14610a0a57600080fd5b806315e666a2146109135780631c7a2959146109ab5780631d143848146109be57600080fd5b80630acb8d40116106e55780630c02e130116106b45780630c02e130146108a95780630e329357146108b257806312b6d2e6146108d2578063147726ae146108e557600080fd5b80630acb8d40146108345780630b1a4918146108475780630b1fa7331461086a5780630be527131461088957600080fd5b806306995e3b1161072157806306995e3b146107a457806308dc4b0c146107b7578063092755e0146107f85780630a1d42701461082157600080fd5b8063011ced5f1461074857806302e80f71146107645780630499a61d1461078f575b600080fd5b610751601d5481565b6040519081526020015b60405180910390f35b610751610772366004615760565b602460209081526000928352604080842090915290825290205481565b6107a261079d36600461578c565b6112ff565b005b6107516107b23660046157a7565b61138e565b6107e06107c536600461578c565b6017602052600090815260409020546001600160a01b031681565b6040516001600160a01b03909116815260200161075b565b6107e061080636600461578c565b6012602052600090815260409020546001600160a01b031681565b6107a261082f3660046157d9565b61144c565b600a546107e0906001600160a01b031681565b61085a6108553660046157a7565b6114c0565b604051901515815260200161075b565b6020546108779060ff1681565b60405160ff909116815260200161075b565b61075161089736600461578c565b60156020526000908152604090205481565b610751600c5481565b6108c56108c0366004615909565b6115a1565b60405161075b91906159bc565b6107a26108e03660046159cf565b6115ce565b6108f86108f33660046157a7565b6116ce565b6040805182518152602092830151928101929092520161075b565b6109956109213660046157a7565b60326020526000908152604090208054600182015460028301546003840154600485015460058601546006909601546001600160401b038616966001600160a01b03600160401b9097048716969586169585169460ff600160a01b8204811695600160a81b9092048116949193919291168a565b60405161075b9a99989796959493929190615a3e565b6107a26109b93660046159cf565b61172c565b601a546107e0906001600160a01b031681565b6107a26109df366004615ab3565b61181c565b6107a26109f23660046159cf565b6118d2565b61085a610a053660046157a7565b6119a2565b6107e0610a183660046157a7565b6010602052600090815260409020546001600160a01b031681565b610751610a41366004615760565b602660209081526000928352604080842090915290825290205481565b61085a610a6c36600461578c565b611a98565b610751610a7f366004615ae6565b611aec565b6107a2610a92366004615b21565b611b25565b6107a2610aa5366004615b85565b611b66565b610ad1610ab83660046157a7565b6035602052600090815260409020805460019091015482565b6040805192835260208301919091520161075b565b601b546107e0906001600160a01b031681565b61085a610b073660046157a7565b611cfb565b601c5461085a90600160a01b900460ff1681565b6107a2610b2e366004615c5b565b611dd8565b6107a2610b413660046159cf565b611e3e565b6107a2610b543660046159cf565b611f2e565b610751610b6736600461578c565b60166020526000908152604090205481565b6107a2610b87366004615b21565b61201e565b610751600f5481565b6107a2612169565b61085a610bab36600461578c565b6121d7565b6107a2610bbe366004615d10565b612255565b6107a2610bd136600461578c565b61232b565b6108c56123ab565b6107a2610bec366004615ab3565b612439565b61085a610bff3660046157a7565b6124e5565b610751610c12366004615760565b603760209081526000928352604080842090915290825290205481565b610751610c3d36600461578c565b612833565b6107a2610c50366004615ab3565b6129ff565b6107a2610c633660046159cf565b612a65565b6107a2612b67565b61085a610c7e3660046157a7565b60226020526000908152604090205460ff1681565b6107e0610ca13660046157a7565b602f602052600090815260409020546001600160a01b031681565b6107a2612b7b565b6107a2610cd23660046159cf565b612be2565b601b5461087790600160a01b900460ff1681565b61085a610cf93660046157a7565b60306020526000908152604090205460ff1681565b610751612cd2565b6107a2610d243660046157d9565b612f12565b6107a2610d37366004615d69565b612f86565b610751601f5481565b610751610d533660046157a7565b60286020526000908152604090205481565b6107a261301a565b610751610d7b366004615760565b602560209081526000928352604080842090915290825290205481565b610751610da636600461578c565b60136020526000908152604090205481565b7f9016d09d72d40fdae2fd8ceac6b6234c7706214fd39c1cd1e609a0528c199300546001600160a01b03166107e0565b6107a2610df63660046157d9565b6130e3565b610751610e0936600461578c565b60146020526000908152604090205481565b6107e0610e293660046157a7565b602e602052600090815260409020546001600160a01b031681565b6008546107e0906001600160a01b031681565b601c5461087790600160a81b900460ff1681565b6107a2610e79366004615db8565b613157565b6107e0610e8c3660046157a7565b6011602052600090815260409020546001600160a01b031681565b6107a2610eb5366004615ab3565b61317d565b6107a2610ec83660046159cf565b6131e3565b610751610edb3660046157a7565b60346020526000908152604090205481565b610751601e5481565b610751610f04366004615760565b603660209081526000928352604080842090915290825290205481565b610751610f2f36600461578c565b6132c2565b610751610f42366004615760565b602b60209081526000928352604080842090915290825290205481565b6107a2610f6d366004615909565b6133d8565b61085a610f803660046157a7565b60216020526000908152604090205460ff1681565b610751610fa33660046157a7565b60296020526000908152604090205481565b610751600b5481565b610751610fcc3660046157a7565b60236020526000908152604090205481565b6107a2610fec366004615e34565b6133f9565b61085a610fff3660046157a7565b61340f565b611017611012366004615db8565b6134e7565b60405161075b9190615e8d565b6107516110323660046157a7565b602c6020526000908152604090205481565b6020546107e09061010090046001600160a01b031681565b6107a261106a366004615d10565b61359e565b61085a61107d3660046157a7565b60316020526000908152604090205460ff1681565b61085a6110a03660046157a7565b61366f565b6107516139bf565b61085a6110bb36600461578c565b613a07565b6107a26110ce366004615ab3565b613a8c565b610751600e5481565b6107516110ea3660046157a7565b613b42565b610751600d5481565b6009546107e0906001600160a01b031681565b6107516111193660046157a7565b60336020526000908152604090205481565b6107a26111393660046157d9565b613c01565b6107a261114c366004615ab3565b613c75565b6107a261115f366004615760565b613d4b565b6107a2611172366004615f52565b613e2f565b6107a261118536600461578c565b6142a8565b610751611198366004615760565b602a60209081526000928352604080842090915290825290205481565b6107516111c33660046157a7565b602d6020526000908152604090205481565b6107a26111e3366004615760565b614328565b6107516111f63660046157a7565b61440b565b6107516112093660046157a7565b614541565b6108c56145f6565b6107a2611224366004615ab3565b614603565b61085a611237366004615ff9565b6146b9565b6107a261124a36600461578c565b61473d565b61075161125d36600461578c565b6147c3565b6107a2611270366004616025565b614822565b6110176112833660046157a7565b614979565b6107a261129636600461578c565b614a9f565b6107516112a9366004615760565b602760209081526000928352604080842090915290825290205481565b601c546107e0906001600160a01b031681565b6019546107e0906001600160a01b031681565b6018546107e0906001600160a01b031681565b611307614ada565b6001600160a01b03811661136c5760405162461bcd60e51b815260206004820152602160248201527f696e76616c696420666163746f72792070726f636573736f72206164647265736044820152607360f81b60648201526084015b60405180910390fd5b600a80546001600160a01b0319166001600160a01b0392909216919091179055565b60008082116113af5760405162461bcd60e51b815260040161136390616091565b601a54601b546040516308da5c3560e21b81526000600482018190526001600160a01b039283166024830152928392169063236970d4906044016040805180830381865afa158015611405573d6000803e3d6000fd5b505050506040513d601f19601f8201168201806040525081019061142991906160b9565b9150915060006114398286614b35565b61144390846160f4565b95945050505050565b6008546001600160a01b031633148061146f5750600a546001600160a01b031633145b8061148457506009546001600160a01b031633145b6114a05760405162461bcd60e51b815260040161136390616107565b600091825260226020526040909120805460ff1916911515919091179055565b6000805b600f5481101561159857600081815260116020908152604080832054868452602783528184206001600160a01b0391821680865293529281902054601a5491516322fd455760e11b81526004810182905292939092600192909116906345fa8aae90602401602060405180830381865afa158015611546573d6000803e3d6000fd5b505050506040513d601f19601f8201168201806040525081019061156a919061613c565b600381111561157b5761157b615a04565b60ff160361158e57506001949350505050565b50506001016114c4565b50600092915050565b606082826040516020016115b6929190616159565b60405160208183030381529060405290505b92915050565b6008546001600160a01b03163314806115f15750600a546001600160a01b031633145b8061160657506009546001600160a01b031633145b6116225760405162461bcd60e51b815260040161136390616107565b600081116116825760405162461bcd60e51b815260206004820152602760248201527f496e76616c69642063616e63656c2069737375616e636520756e66696c6c656460448201526608185b5bdd5b9d60ca1b6064820152608401611363565b6001600160a01b0382166116a85760405162461bcd60e51b815260040161136390616188565b60009283526036602090815260408085206001600160a01b039094168552929052912055565b6040805180820190915260008082526020820152600082116117025760405162461bcd60e51b8152600401611363906161b7565b50600090815260356020908152604091829020825180840190935280548352600101549082015290565b6008546001600160a01b031633148061174f5750600a546001600160a01b031633145b8061176457506009546001600160a01b031633145b6117805760405162461bcd60e51b815260040161136390616107565b600081116117d05760405162461bcd60e51b815260206004820152601d60248201527f496e76616c696420726564656d7074696f6e20726571756573742069640000006044820152606401611363565b6001600160a01b0382166117f65760405162461bcd60e51b815260040161136390616188565b60009283526027602090815260408085206001600160a01b039094168552929052912055565b6008546001600160a01b031633148061183f5750600a546001600160a01b031633145b8061185457506009546001600160a01b031633145b6118705760405162461bcd60e51b815260040161136390616107565b600081116118c05760405162461bcd60e51b815260206004820152601b60248201527f496e76616c69642073656c6c207265717565737420616d6f756e7400000000006044820152606401611363565b60009182526029602052604090912055565b6008546001600160a01b03163314806118f55750600a546001600160a01b031633145b8061190a57506009546001600160a01b031633145b6119265760405162461bcd60e51b815260040161136390616107565b6001600160a01b03821661197c5760405162461bcd60e51b815260206004820181905260248201527f496e76616c696420726564656d7074696f6e20746f6b656e20616464726573736044820152606401611363565b6000928352602b602090815260408085206001600160a01b039094168552929052912055565b60008060005b600f54811015611a7f57600081815260116020908152604080832054878452602683528184206001600160a01b0391821680865293529281902054601a5491516322fd455760e11b81526004810182905292939092600292909116906345fa8aae90602401602060405180830381865afa158015611a2a573d6000803e3d6000fd5b505050506040513d601f19601f82011682018060405250810190611a4e919061613c565b6003811115611a5f57611a5f615a04565b60ff1603611a7557611a726001856160f4565b93505b50506001016119a8565b50600f5481036115985750600192915050565b50919050565b6000611aa2614ada565b6001600160a01b038216611ac85760405162461bcd60e51b8152600401611363906161e3565b50601880546001600160a01b0319166001600160a01b03831617905560015b919050565b60008262ffffff16600003611b02576000611b1e565b611b1e82620f4240611b148682616212565b62ffffff16614b5a565b9392505050565b611b2d614ada565b60008160ff1611611b505760405162461bcd60e51b81526004016113639061622e565b6020805460ff191660ff92909216919091179055565b6008546001600160a01b0316331480611b895750600a546001600160a01b031633145b80611b9e57506009546001600160a01b031633145b611bba5760405162461bcd60e51b815260040161136390616107565b60008211611bda5760405162461bcd60e51b8152600401611363906161b7565b60008281526032602090815260409182902083518154928501516001600160401b039091166001600160e01b031990931692909217600160401b6001600160a01b039384160217815591830151600180840180546001600160a01b0319169284169290921790915560608401516002840180546080870151929094166001600160a81b031990941693909317600160a01b911515919091021780835560a08501518594939092909160ff60a81b191690600160a81b908490811115611ca157611ca1615a04565b021790555060c0820151816003015560e0820151816004015561010082015181600501556101208201518160060160006101000a81548160ff02191690836003811115611cf057611cf0615a04565b021790555050505050565b60008060005b600f54811015611a7f57600081815260116020908152604080832054878452602783528184206001600160a01b0391821680865293529281902054601a5491516322fd455760e11b81526004810182905292939092600292909116906345fa8aae90602401602060405180830381865afa158015611d83573d6000803e3d6000fd5b505050506040513d601f19601f82011682018060405250810190611da7919061613c565b6003811115611db857611db8615a04565b60ff1603611dce57611dcb6001856160f4565b93505b5050600101611d01565b611de0614ada565b6001600160a01b038216611e2f5760405162461bcd60e51b8152602060048201526016602482015275696e76616c6964206f7261636c65206164647265737360501b6044820152606401611363565b611e3882614c2d565b600b5550565b6008546001600160a01b0316331480611e615750600a546001600160a01b031633145b80611e7657506009546001600160a01b031633145b611e925760405162461bcd60e51b815260040161136390616107565b60008111611ee25760405162461bcd60e51b815260206004820152601d60248201527f496e76616c696420726564656d7074696f6e20726571756573742069640000006044820152606401611363565b6001600160a01b038216611f085760405162461bcd60e51b815260040161136390616188565b60009283526025602090815260408085206001600160a01b039094168552929052912055565b6008546001600160a01b0316331480611f515750600a546001600160a01b031633145b80611f6657506009546001600160a01b031633145b611f825760405162461bcd60e51b815260040161136390616107565b60008111611fd25760405162461bcd60e51b815260206004820152601b60248201527f496e76616c69642069737375616e6365205265717565737420496400000000006044820152606401611363565b6001600160a01b038216611ff85760405162461bcd60e51b815260040161136390616188565b60009283526026602090815260408085206001600160a01b039094168552929052912055565b612026614ada565b6000601d54426120369190616258565b9050600c603c6120468184616281565b6120509190616281565b116120c35760405162461bcd60e51b815260206004820152603960248201527f596f752073686f756c642077616974206174206c6561737420313220686f757260448201527f7320616674657220746865206c617465737420757064617465000000000000006064820152608401611363565b6127108260ff16111580156120dc575060018260ff1610155b6121445760405162461bcd60e51b815260206004820152603360248201527f546865206e65774665652073686f756c64206265206265747765656e203120616044820152726e64203130302028302e303125202d2031252960681b6064820152608401611363565b50601c805460ff909216600160a81b0260ff60a81b1990921691909117905542601d55565b6008546001600160a01b031633148061218c5750600a546001600160a01b031633145b806121a157506009546001600160a01b031633145b6121bd5760405162461bcd60e51b815260040161136390616107565b6001601e60008282546121d091906160f4565b9091555050565b60006121e1614ada565b6001600160a01b0382166122305760405162461bcd60e51b8152602060048201526016602482015275696e76616c696420697373756572206164647265737360501b6044820152606401611363565b50601a80546001600160a01b0383166001600160a01b03199091161790556001919050565b61225d614ada565b80518251146122a65760405162461bcd60e51b8152602060048201526015602482015274082e4e4c2f240d8cadccee8d040dad2e6dac2e8c6d605b1b6044820152606401611363565b60005b8251811015612326578181815181106122c4576122c4616295565b6020026020010151601760008584815181106122e2576122e2616295565b6020908102919091018101516001600160a01b0390811683529082019290925260400160002080546001600160a01b031916929091169190911790556001016122a9565b505050565b612333614ada565b6001600160a01b0381166123895760405162461bcd60e51b815260206004820152601760248201527f696e76616c696420666163746f727920616464726573730000000000000000006044820152606401611363565b600880546001600160a01b0319166001600160a01b0392909216919091179055565b600680546123b8906162ab565b80601f01602080910402602001604051908101604052809291908181526020018280546123e4906162ab565b80156124315780601f1061240657610100808354040283529160200191612431565b820191906000526020600020905b81548152906001019060200180831161241457829003601f168201915b505050505081565b6008546001600160a01b031633148061245c5750600a546001600160a01b031633145b8061247157506009546001600160a01b031633145b61248d5760405162461bcd60e51b815260040161136390616107565b600081116124d35760405162461bcd60e51b8152602060048201526013602482015272125b9d985b1a5908189d5c9b88185b5bdd5b9d606a1b6044820152606401611363565b60009182526023602052604090912055565b60008060005b600f54811015611a7f57600081815260116020908152604080832054878452602683528184206001600160a01b03918216808652935281842054601a54925163187b2ed160e21b815260048101829052939490939092909116906361ecbb4490602401602060405180830381865afa15801561256b573d6000803e3d6000fd5b505050506040513d601f19601f8201168201806040525081019061258f91906162df565b601a546040516322fd455760e11b8152600481018590529192506003916001600160a01b03909116906345fa8aae90602401602060405180830381865afa1580156125de573d6000803e3d6000fd5b505050506040513d601f19601f82011682018060405250810190612602919061613c565b600381111561261357612613615a04565b60ff16036126ed57806000036126355761262e6001866160f4565b9450612828565b60008781526024602081815260408084206001600160a01b03888116865292529283902054601a5493516322fd455760e11b81526004810182905290936002939216916345fa8aae9101602060405180830381865afa15801561269c573d6000803e3d6000fd5b505050506040513d601f19601f820116820180604052508101906126c0919061613c565b60038111156126d1576126d1615a04565b60ff16036126e7576126e46001876160f4565b95505b50612828565b601a546040516322fd455760e11b8152600481018490526002916001600160a01b0316906345fa8aae90602401602060405180830381865afa158015612737573d6000803e3d6000fd5b505050506040513d601f19601f8201168201806040525081019061275b919061613c565b600381111561276c5761276c615a04565b60ff16036128285760008781526024602081815260408084206001600160a01b03888116865292529283902054601a5493516322fd455760e11b81526004810182905290936002939216916345fa8aae9101602060405180830381865afa1580156127db573d6000803e3d6000fd5b505050506040513d601f19601f820116820180604052508101906127ff919061613c565b600381111561281057612810615a04565b60ff1603612826576128236001876160f4565b95505b505b5050506001016124eb565b60006001600160a01b03821661285b5760405162461bcd60e51b8152600401611363906161e3565b601c54600160a01b900460ff1615612961576001600160a01b03808316600090815260176020526040808220548151633fabe5a360e21b81529151931692839163feaf968c9160048083019260a09291908290030181865afa1580156128c5573d6000803e3d6000fd5b505050506040513d601f19601f820116820180604052508101906128e99190616312565b5050509150506000826001600160a01b031663313ce5676040518163ffffffff1660e01b8152600401602060405180830381865afa15801561292f573d6000803e3d6000fd5b505050506040513d601f19601f820116820180604052508101906129539190616362565b905061144382826012614c4f565b601a54601b5460405163a377cfbf60e01b81526001600160a01b0385811660048301529182166024820152600092919091169063a377cfbf906044016040805180830381865afa1580156129b9573d6000803e3d6000fd5b505050506040513d601f19601f820116820180604052508101906129dd919061637f565b80516020549192506000916129f7919060ff166012614c4f565b949350505050565b6008546001600160a01b0316331480612a225750600a546001600160a01b031633145b80612a3757506009546001600160a01b031633145b612a535760405162461bcd60e51b815260040161136390616107565b6000918252602d602052604090912055565b6008546001600160a01b0316331480612a885750600a546001600160a01b031633145b80612a9d57506009546001600160a01b031633145b612ab95760405162461bcd60e51b815260040161136390616107565b60008111612b1b5760405162461bcd60e51b815260206004820152602960248201527f496e76616c69642063616e63656c20726564656d7074696f6e20756e66696c6c604482015268195908185b5bdd5b9d60ba1b6064820152608401611363565b6001600160a01b038216612b415760405162461bcd60e51b815260040161136390616188565b60009283526037602090815260408085206001600160a01b039094168552929052912055565b612b6f614ada565b612b796000614d6c565b565b6008546001600160a01b0316331480612b9e5750600a546001600160a01b031633145b80612bb357506009546001600160a01b031633145b612bcf5760405162461bcd60e51b815260040161136390616107565b6001601f60008282546121d091906160f4565b6008546001600160a01b0316331480612c055750600a546001600160a01b031633145b80612c1a57506009546001600160a01b031633145b612c365760405162461bcd60e51b815260040161136390616107565b60008111612c865760405162461bcd60e51b815260206004820152601b60248201527f496e76616c69642069737375616e6365207265717565737420696400000000006044820152606401611363565b6001600160a01b038216612cac5760405162461bcd60e51b815260040161136390616188565b60009283526024602090815260408085206001600160a01b039094168552929052912055565b600080612df360068054612ce5906162ab565b80601f0160208091040260200160405190810160405280929190818152602001828054612d11906162ab565b8015612d5e5780601f10612d3357610100808354040283529160200191612d5e565b820191906000526020600020905b815481529060010190602001808311612d4157829003601f168201915b505050505060078054612d70906162ab565b80601f0160208091040260200160405190810160405280929190818152602001828054612d9c906162ab565b8015612de95780601f10612dbe57610100808354040283529160200191612de9565b820191906000526020600020905b815481529060010190602001808311612dcc57829003601f168201915b50505050506115a1565b90506000612e0b600b543063f14bea2060e01b614ddd565b60408051808201909152600381526219d95d60ea1b6020820152909150612e3490829084614df9565b612e8f60405180604001604052806005815260200164706174683160d81b81525060405180604001604052806011815260200170726573756c74732c61646472657373657360781b81525083614df99092919063ffffffff16565b612eed604051806040016040528060058152602001643830ba341960d91b81525060405180604001604052806014815260200173726573756c74732c6d61726b657453686172657360601b81525083614df99092919063ffffffff16565b612f0b612f026003546001600160a01b031690565b82600c54614e17565b9250505090565b6008546001600160a01b0316331480612f355750600a546001600160a01b031633145b80612f4a57506009546001600160a01b031633145b612f665760405162461bcd60e51b815260040161136390616107565b600091825260306020526040909120805460ff1916911515919091179055565b6008546001600160a01b0316331480612fa95750600a546001600160a01b031633145b80612fbe57506009546001600160a01b031633145b612fda5760405162461bcd60e51b815260040161136390616107565b60008211612ffa5760405162461bcd60e51b8152600401611363906161b7565b600091825260356020908152604090922081518155910151600190910155565b6009546001600160a01b031633146130745760405162461bcd60e51b815260206004820152601f60248201527f63616c6c6572206d75737420626520666163746f72792062616c616e636572006044820152606401611363565b600e54600f5560005b600e548110156130e0576000818152601060209081526040808320546011835281842080546001600160a01b0319166001600160a01b0390921691821790558352601682528083205460158352818420556014909152902081905560010161307d565b50565b6008546001600160a01b03163314806131065750600a546001600160a01b031633145b8061311b57506009546001600160a01b031633145b6131375760405162461bcd60e51b815260040161136390616107565b600091825260316020526040909120805460ff1916911515919091179055565b61315f614ada565b601c8054911515600160a01b0260ff60a01b19909216919091179055565b6008546001600160a01b03163314806131a05750600a546001600160a01b031633145b806131b557506009546001600160a01b031633145b6131d15760405162461bcd60e51b815260040161136390616107565b6000918252602c602052604090912055565b6008546001600160a01b03163314806132065750600a546001600160a01b031633145b8061321b57506009546001600160a01b031633145b6132375760405162461bcd60e51b815260040161136390616107565b6001600160a01b03821661329c5760405162461bcd60e51b815260206004820152602660248201527f496e76616c69642069737375616e6365207072696d61727920746f6b656e206160448201526564647265737360d01b6064820152608401611363565b6000928352602a602090815260408085206001600160a01b039094168552929052912055565b60006001600160a01b0382166132ea5760405162461bcd60e51b8152600401611363906161e3565b6001600160a01b038281166000908152601260205260408082205460195491516370a0823160e01b815291841660048301529092169182906370a0823190602401602060405180830381865afa158015613348573d6000803e3d6000fd5b505050506040513d601f19601f8201168201806040525081019061336c91906162df565b60405163266d6a8360e11b8152600481018290529091506001600160a01b03831690634cdad50690602401602060405180830381865afa1580156133b4573d6000803e3d6000fd5b505050506040513d601f19601f820116820180604052508101906129f791906162df565b6133e0614ada565b60066133ec8382616407565b5060076123268282616407565b613401614ada565b61340b8282614eaa565b5050565b6000805b600f5481101561159857600081815260116020908152604080832054868452602683528184206001600160a01b0391821680865293529281902054601a5491516322fd455760e11b81526004810182905292939092600192909116906345fa8aae90602401602060405180830381865afa158015613495573d6000803e3d6000fd5b505050506040513d601f19601f820116820180604052508101906134b9919061613c565b60038111156134ca576134ca615a04565b60ff16036134dd57506001949350505050565b5050600101613413565b6134ef6156ab565b60408051610140810182526001600160401b03421681523060208201526018546001600160a01b0390811692820192909252601b549091166060820152821515608082015260a08101600081526020018361354b576000613556565b68056bc75e2d631000005b68ffffffffffffffffff1681526020018361357a5768056bc75e2d6310000061357d565b60005b68ffffffffffffffffff168152600060208201526040016001905292915050565b6135a6614ada565b80518251146135ef5760405162461bcd60e51b8152602060048201526015602482015274082e4e4c2f240d8cadccee8d040dad2e6dac2e8c6d605b1b6044820152606401611363565b60005b82518110156123265781818151811061360d5761360d616295565b60200260200101516012600085848151811061362b5761362b616295565b6020908102919091018101516001600160a01b0390811683529082019290925260400160002080546001600160a01b031916929091169190911790556001016135f2565b60008060005b600f54811015611a7f57600081815260116020908152604080832054878452602783528184206001600160a01b03918216808652935281842054601a54925163187b2ed160e21b815260048101829052939490939092909116906361ecbb4490602401602060405180830381865afa1580156136f5573d6000803e3d6000fd5b505050506040513d601f19601f8201168201806040525081019061371991906162df565b601a546040516322fd455760e11b8152600481018590529192506003916001600160a01b03909116906345fa8aae90602401602060405180830381865afa158015613768573d6000803e3d6000fd5b505050506040513d601f19601f8201168201806040525081019061378c919061613c565b600381111561379d5761379d615a04565b60ff160361387857806000036137bf576137b86001866160f4565b94506139b4565b60008781526025602090815260408083206001600160a01b03878116855292529182902054601a5492516322fd455760e11b815260048101829052909260029216906345fa8aae90602401602060405180830381865afa158015613827573d6000803e3d6000fd5b505050506040513d601f19601f8201168201806040525081019061384b919061613c565b600381111561385c5761385c615a04565b60ff16036138725761386f6001876160f4565b95505b506139b4565b601a546040516322fd455760e11b8152600481018490526002916001600160a01b0316906345fa8aae90602401602060405180830381865afa1580156138c2573d6000803e3d6000fd5b505050506040513d601f19601f820116820180604052508101906138e6919061613c565b60038111156138f7576138f7615a04565b60ff16036139b45760008781526025602090815260408083206001600160a01b03878116855292529182902054601a5492516322fd455760e11b815260048101829052909260029216906345fa8aae90602401602060405180830381865afa158015613967573d6000803e3d6000fd5b505050506040513d601f19601f8201168201806040525081019061398b919061613c565b600381111561399c5761399c615a04565b60ff16036139b2576139af6001876160f4565b95505b505b505050600101613675565b60008060005b600f54811015611a92576000818152601160205260408120546139f0906001600160a01b03166147c3565b90506139fc81846160f4565b9250506001016139c5565b6000613a11614ada565b6001600160a01b038216613a675760405162461bcd60e51b815260206004820152601d60248201527f696e76616c6964206f72646572206d616e6167657220616464726573730000006044820152606401611363565b50601c80546001600160a01b0383166001600160a01b03199091161790556001919050565b6008546001600160a01b0316331480613aaf5750600a546001600160a01b031633145b80613ac457506009546001600160a01b031633145b613ae05760405162461bcd60e51b815260040161136390616107565b60008111613b305760405162461bcd60e51b815260206004820152601f60248201527f496e76616c696420726564656d7074696f6e20696e70757420616d6f756e74006044820152606401611363565b60009182526034602052604090912055565b6000808211613b635760405162461bcd60e51b815260040161136390616091565b6000613b6d6139bf565b90506000601860009054906101000a90046001600160a01b03166001600160a01b03166318160ddd6040518163ffffffff1660e01b8152600401602060405180830381865afa158015613bc4573d6000803e3d6000fd5b505050506040513d601f19601f82011682018060405250810190613be891906162df565b9050600082613bf783876164c6565b6114439190616281565b6008546001600160a01b0316331480613c245750600a546001600160a01b031633145b80613c3957506009546001600160a01b031633145b613c555760405162461bcd60e51b815260040161136390616107565b600091825260216020526040909120805460ff1916911515919091179055565b6008546001600160a01b0316331480613c985750600a546001600160a01b031633145b80613cad57506009546001600160a01b031633145b613cc95760405162461bcd60e51b815260040161136390616107565b60008111613d195760405162461bcd60e51b815260206004820152601a60248201527f496e76616c696420627579207265717565737420616d6f756e740000000000006044820152606401611363565b60008211613d395760405162461bcd60e51b8152600401611363906161b7565b60009182526028602052604090912055565b6008546001600160a01b0316331480613d6e5750600a546001600160a01b031633145b80613d8357506009546001600160a01b031633145b613d9f5760405162461bcd60e51b815260040161136390616107565b6001600160a01b038116613e015760405162461bcd60e51b8152602060048201526024808201527f496e76616c696420726564656d7074696f6e20726571756573746572206164646044820152637265737360e01b6064820152608401611363565b6000918252602f602052604090912080546001600160a01b0319166001600160a01b03909216919091179055565b7ff0c57e16840df040f15088dc2f81fe391c3923bec73e23a9662efc9c229c6a008054600160401b810460ff1615906001600160401b0316600081158015613e745750825b90506000826001600160401b03166001148015613e905750303b155b905081158015613e9e575080155b15613ebc5760405163f92ee8a960e01b815260040160405180910390fd5b845467ffffffffffffffff191660011785558315613ee657845460ff60401b1916600160401b1785555b6001600160a01b038e16613f355760405162461bcd60e51b8152602060048201526016602482015275696e76616c696420697373756572206164647265737360501b6044820152606401611363565b6001600160a01b038d16613f5b5760405162461bcd60e51b8152600401611363906161e3565b6001600160a01b038c16613fa95760405162461bcd60e51b8152602060048201526015602482015274696e76616c6964207661756c74206164647265737360581b6044820152606401611363565b6001600160a01b038b16613ff65760405162461bcd60e51b8152602060048201526014602482015273696e76616c69642075736463206164647265737360601b6044820152606401611363565b60008a60ff16116140195760405162461bcd60e51b81526004016113639061622e565b6001600160a01b03891661406f5760405162461bcd60e51b815260206004820152601f60248201527f696e76616c696420636861696e6c696e6b20746f6b656e2061646472657373006044820152606401611363565b6001600160a01b0388166140be5760405162461bcd60e51b8152602060048201526016602482015275696e76616c6964206f7261636c65206164647265737360501b6044820152606401611363565b8d601a60006101000a8154816001600160a01b0302191690836001600160a01b031602179055508c601860006101000a8154816001600160a01b0302191690836001600160a01b031602179055508b601960006101000a8154816001600160a01b0302191690836001600160a01b031602179055508a601b60006101000a8154816001600160a01b0302191690836001600160a01b0316021790555089601b60146101000a81548160ff021916908360ff16021790555061417e336150cb565b600280546001600160a01b0319166001600160a01b038b161790556141a288614c2d565b600b879055600a6141bc670de0b6b3a764000060016164c6565b6141c69190616281565b600c556040805160608101909152602a8082526166d760208301396006906141ee9082616407565b506040518060600160405280602e8152602001616701602e91396007906142159082616407565b50601c805461ffff60a01b1916600160a01b8815150260ff60a81b191617600560a91b17905560208054610100600160a81b0319166101003302179055831561429857845460ff60401b19168555604051600181527fc7f505b2f371ae2175ee4913f4499e1f2633a7b5936321eed1cdaeb6115181d29060200160405180910390a15b5050505050505050505050505050565b6142b0614ada565b6001600160a01b0381166143065760405162461bcd60e51b815260206004820181905260248201527f696e76616c696420666163746f72792062616c616e63657220616464726573736044820152606401611363565b600980546001600160a01b0319166001600160a01b0392909216919091179055565b6008546001600160a01b031633148061434b5750600a546001600160a01b031633145b8061436057506009546001600160a01b031633145b61437c5760405162461bcd60e51b815260040161136390616107565b6001600160a01b0381166143dd5760405162461bcd60e51b815260206004820152602260248201527f496e76616c69642069737375616e636520726571756573746572206164647265604482015261737360f01b6064820152608401611363565b6000918252602e602052604090912080546001600160a01b0319166001600160a01b03909216919091179055565b600080821161442c5760405162461bcd60e51b815260040161136390616091565b6000805b600f5481101561453a576000818152601160209081526040808320546001600160a01b0316808452601590925282205490919068056bc75e2d631000009061447890886164c6565b6144829190616281565b601a54601b546040516308da5c3560e21b81526000600482018190526001600160a01b0392831660248301529394508392919091169063236970d4906044016040805180830381865afa1580156144dd573d6000803e3d6000fd5b505050506040513d601f19601f8201168201806040525081019061450191906160b9565b9150915060006145118285614b35565b61451b90846160f4565b905061452781886160f4565b9650506001909401935061443092505050565b5092915050565b60008082116145625760405162461bcd60e51b815260040161136390616091565b600061456c6139bf565b90506000601860009054906101000a90046001600160a01b03166001600160a01b03166318160ddd6040518163ffffffff1660e01b8152600401602060405180830381865afa1580156145c3573d6000803e3d6000fd5b505050506040513d601f19601f820116820180604052508101906145e791906162df565b9050600081613bf784876164c6565b600780546123b8906162ab565b6008546001600160a01b03163314806146265750600a546001600160a01b031633145b8061463b57506009546001600160a01b031633145b6146575760405162461bcd60e51b815260040161136390616107565b600081116146a75760405162461bcd60e51b815260206004820152601d60248201527f496e76616c69642069737375616e636520696e70757420616d6f756e740000006044820152606401611363565b60009182526033602052604090912055565b60006146c3614ada565b6001600160a01b0383166146e95760405162461bcd60e51b8152600401611363906161e3565b60008260ff161161470c5760405162461bcd60e51b81526004016113639061622e565b50601b805460ff8316600160a01b026001600160a81b03199091166001600160a01b03851617179055600192915050565b614745614ada565b6001600160a01b03811661479b5760405162461bcd60e51b815260206004820152601c60248201527f696e76616c6964206665652072656365697665722061646472657373000000006044820152606401611363565b602080546001600160a01b0390921661010002610100600160a81b0319909216919091179055565b60006001600160a01b0382166147eb5760405162461bcd60e51b8152600401611363906161e3565b60006147f683612833565b90506000614803846132c2565b9050670de0b6b3a764000061481883836164c6565b6129f79190616281565b60008381526005602052604090205483906001600160a01b0316331461489b5760405162461bcd60e51b815260206004820152602860248201527f536f75726365206d75737420626520746865206f7261636c65206f6620746865604482015267081c995c5d595cdd60c21b6064820152608401611363565b60008181526005602052604080822080546001600160a01b03191690555182917f7cc135e0cebb02c3480ae5d74d377283180a2601f8f644edf7987b009316c63a91a260008351116149205760405162461bcd60e51b815260206004820152600e60248201526d696e76616c696420746f6b656e7360901b6044820152606401611363565b60008251116149695760405162461bcd60e51b8152602060048201526015602482015274696e76616c6964206d61726b65742073686172657360581b6044820152606401611363565b6149738383614eaa565b50505050565b6149816156ab565b600082116149a15760405162461bcd60e51b8152600401611363906161b7565b60008281526032602090815260409182902082516101408101845281546001600160401b03811682526001600160a01b03600160401b9091048116938201939093526001808301548416948201949094526002820154928316606082015260ff600160a01b84048116151560808301529093919260a0850192600160a81b90910490911690811115614a3557614a35615a04565b6001811115614a4657614a46615a04565b815260038281015460208301526004830154604083015260058301546060830152600683015460809092019160ff1690811115614a8557614a85615a04565b6003811115614a9657614a96615a04565b90525092915050565b614aa7614ada565b6001600160a01b038116614ad157604051631e4fbdf760e01b815260006004820152602401611363565b6130e081614d6c565b33614b0c7f9016d09d72d40fdae2fd8ceac6b6234c7706214fd39c1cd1e609a0528c199300546001600160a01b031690565b6001600160a01b031614612b795760405163118cdaa760e01b8152336004820152602401611363565b60008262ffffff16600003614b4b576000611b1e565b611b1e8262ffffff8516620f42405b6000808060001985870985870292508281108382030391505080600003614b9457838281614b8a57614b8a61626b565b0492505050611b1e565b838110614bc557604051630c740aef60e31b8152600481018790526024810186905260448101859052606401611363565b600084868809600260036001881981018916988990049182028318808302840302808302840302808302840302808302840302808302840302918202909203026000889003889004909101858311909403939093029303949094049190911702949350505050565b600380546001600160a01b0319166001600160a01b0392909216919091179055565b600060128360ff161115614cc05760405162461bcd60e51b815260206004820152603260248201527f616d6f756e7420646563696d616c732073686f756c64206265206c65737320746044820152710d0c2dc40dee440cae2eac2d840e8de4062760731b6064820152608401611363565b60128260ff161115614d2e5760405162461bcd60e51b815260206004820152603160248201527f636861696e20646563696d616c732073686f756c64206265206c6573732074686044820152700c2dc40dee440cae2eac2d840e8de40627607b1b6064820152608401611363565b8260ff168260ff161115614d6257614d4683836164dd565b614d5190600a6165da565b614d5b90856165e9565b9050611b1e565b614d4682846164dd565b7f9016d09d72d40fdae2fd8ceac6b6234c7706214fd39c1cd1e609a0528c19930080546001600160a01b031981166001600160a01b03848116918217845560405192169182907f8be0079c531659141344cd1fd0a4f28419497f9722a3daafe3b4186f6b6457e090600090a3505050565b614de561570e565b614ded61570e565b611443818686866150dc565b6080830151614e089083615119565b60808301516123269082615119565b600454600090614e288160016160f4565b600455835160408086015160808701515191516000936320214ca360e11b93614e609386938493923092918a91600191602401616619565b60408051601f198184030181529190526020810180516001600160e01b03166001600160e01b0319909316929092179091529050614ea086838684615130565b9695505050505050565b818160005b82518110156150ab57828181518110614eca57614eca616295565b60200260200101516010600083815260200190815260200160002060006101000a8154816001600160a01b0302191690836001600160a01b031602179055508060136000858481518110614f2057614f20616295565b60200260200101516001600160a01b03166001600160a01b0316815260200190815260200160002081905550818181518110614f5e57614f5e616295565b602002602001015160166000858481518110614f7c57614f7c616295565b60200260200101516001600160a01b03166001600160a01b0316815260200190815260200160002081905550600f546000036150a357828181518110614fc457614fc4616295565b60200260200101516011600083815260200190815260200160002060006101000a8154816001600160a01b0302191690836001600160a01b0316021790555081818151811061501557615015616295565b60200260200101516015600085848151811061503357615033616295565b60200260200101516001600160a01b03166001600160a01b0316815260200190815260200160002081905550806014600085848151811061507657615076616295565b60200260200101516001600160a01b03166001600160a01b03168152602001908152602001600020819055505b600101614eaf565b508151600e55600f546000036150c1578151600f555b505042600d555050565b6150d361528e565b6130e0816152d7565b6150e461570e565b6150f485608001516101006152df565b50509183526001600160a01b031660208301526001600160e01b031916604082015290565b6151268260038351615344565b612326828261544b565b6040516bffffffffffffffffffffffff193060601b1660208201526034810184905260009060540160408051808303601f1901815282825280516020918201206000818152600590925291812080546001600160a01b0319166001600160a01b038a1617905590925082917fb5e6e01e79f91267dc17b4e6314d5d4d03593d2ceee0fbb452b750bd70ea5af99190a2600254604051630200057560e51b81526001600160a01b0390911690634000aea0906151f390889087908790600401616672565b6020604051808303816000875af1158015615212573d6000803e3d6000fd5b505050506040513d601f19601f820116820180604052508101906152369190616699565b6129f75760405162461bcd60e51b815260206004820152602360248201527f756e61626c6520746f207472616e73666572416e6443616c6c20746f206f7261604482015262636c6560e81b6064820152608401611363565b7ff0c57e16840df040f15088dc2f81fe391c3923bec73e23a9662efc9c229c6a0054600160401b900460ff16612b7957604051631afcd79f60e31b815260040160405180910390fd5b614aa761528e565b6040805180820190915260608152600060208201526152ff6020836166b6565b156153275761530f6020836166b6565b61531a906020616258565b61532490836160f4565b91505b506020828101829052604080518085526000815290920101905290565b6017816001600160401b031611615368576149738360e0600585901b168317615472565b60ff816001600160401b0316116153a45761538e836018611fe0600586901b1617615472565b50614973836001600160401b0383166001615497565b61ffff816001600160401b0316116153e1576153cb836019611fe0600586901b1617615472565b50614973836001600160401b0383166002615497565b63ffffffff816001600160401b0316116154205761540a83601a611fe0600586901b1617615472565b50614973836001600160401b0383166004615497565b61543583601b611fe0600586901b1617615472565b50614973836001600160401b0383166008615497565b604080518082019091526060815260006020820152611b1e838460000151518485516154bd565b604080518082019091526060815260006020820152611b1e83846000015151846155a7565b6040805180820190915260608152600060208201526129f7848560000151518585615602565b60408051808201909152606081526000602082015282518211156154e057600080fd5b60208501516154ef83866160f4565b111561552257615522856155128760200151878661550d91906160f4565b615683565b61551d9060026164c6565b615694565b6000808651805187602083010193508088870111156155415787860182525b505050602084015b6020841061558157805182526155606020836160f4565b915061556d6020826160f4565b905061557a602085616258565b9350615549565b51815160001960208690036101000a019081169019919091161790525083949350505050565b604080518082019091526060815260006020820152836020015183106155dc576155dc848560200151600261551d91906164c6565b83518051602085830101848153508085036155f8576001810182525b5093949350505050565b604080518082019091526060815260006020820152602085015161562685846160f4565b111561563a5761563a8561551286856160f4565b6000600161564a846101006166ca565b6156549190616258565b90508551838682010185831982511617815250805184870111156156785783860181525b509495945050505050565b600081831115611a925750816115c8565b81516156a083836152df565b50614973838261544b565b604080516101408101825260008082526020820181905291810182905260608101829052608081018290529060a082019081526020016000815260200160008152602001600081526020016000600381111561570957615709615a04565b905290565b6040805160a0810182526000808252602080830182905282840182905260608084018390528451808601909552845283015290608082015290565b80356001600160a01b0381168114611ae757600080fd5b6000806040838503121561577357600080fd5b8235915061578360208401615749565b90509250929050565b60006020828403121561579e57600080fd5b611b1e82615749565b6000602082840312156157b957600080fd5b5035919050565b80151581146130e057600080fd5b8035611ae7816157c0565b600080604083850312156157ec57600080fd5b8235915060208301356157fe816157c0565b809150509250929050565b634e487b7160e01b600052604160045260246000fd5b60405161014081016001600160401b038111828210171561584257615842615809565b60405290565b604080519081016001600160401b038111828210171561584257615842615809565b604051601f8201601f191681016001600160401b038111828210171561589257615892615809565b604052919050565b600082601f8301126158ab57600080fd5b81356001600160401b038111156158c4576158c4615809565b6158d7601f8201601f191660200161586a565b8181528460208386010111156158ec57600080fd5b816020850160208301376000918101602001919091529392505050565b6000806040838503121561591c57600080fd5b82356001600160401b038082111561593357600080fd5b61593f8683870161589a565b9350602085013591508082111561595557600080fd5b506159628582860161589a565b9150509250929050565b60005b8381101561598757818101518382015260200161596f565b50506000910152565b600081518084526159a881602086016020860161596c565b601f01601f19169290920160200192915050565b602081526000611b1e6020830184615990565b6000806000606084860312156159e457600080fd5b833592506159f460208501615749565b9150604084013590509250925092565b634e487b7160e01b600052602160045260246000fd5b60028110615a2a57615a2a615a04565b9052565b60048110615a2a57615a2a615a04565b6001600160401b038b1681526001600160a01b038a8116602083015289811660408301528816606082015286151560808201526101408101615a8360a0830188615a1a565b8560c08301528460e083015283610100830152615aa4610120830184615a2e565b9b9a5050505050505050505050565b60008060408385031215615ac657600080fd5b50508035926020909101359150565b62ffffff811681146130e057600080fd5b60008060408385031215615af957600080fd5b8235615b0481615ad5565b946020939093013593505050565b60ff811681146130e057600080fd5b600060208284031215615b3357600080fd5b8135611b1e81615b12565b6001600160401b03811681146130e057600080fd5b8035611ae781615b3e565b803560028110611ae757600080fd5b600481106130e057600080fd5b8035611ae781615b6d565b600080828403610160811215615b9a57600080fd5b8335925061014080601f1983011215615bb257600080fd5b615bba61581f565b9150615bc860208601615b53565b8252615bd660408601615749565b6020830152615be760608601615749565b6040830152615bf860808601615749565b6060830152615c0960a086016157ce565b6080830152615c1a60c08601615b5e565b60a083015260e085013560c08301526101008086013560e08401526101208087013582850152615c4b838801615b7a565b9084015250929590945092505050565b60008060408385031215615c6e57600080fd5b615b0483615749565b60006001600160401b03821115615c9057615c90615809565b5060051b60200190565b600082601f830112615cab57600080fd5b81356020615cc0615cbb83615c77565b61586a565b8083825260208201915060208460051b870101935086841115615ce257600080fd5b602086015b84811015615d0557615cf881615749565b8352918301918301615ce7565b509695505050505050565b60008060408385031215615d2357600080fd5b82356001600160401b0380821115615d3a57600080fd5b615d4686838701615c9a565b93506020850135915080821115615d5c57600080fd5b5061596285828601615c9a565b6000808284036060811215615d7d57600080fd5b833592506040601f1982011215615d9357600080fd5b50615d9c615848565b6020840135815260408401356020820152809150509250929050565b600060208284031215615dca57600080fd5b8135611b1e816157c0565b600082601f830112615de657600080fd5b81356020615df6615cbb83615c77565b8083825260208201915060208460051b870101935086841115615e1857600080fd5b602086015b84811015615d055780358352918301918301615e1d565b60008060408385031215615e4757600080fd5b82356001600160401b0380821115615e5e57600080fd5b615e6a86838701615c9a565b93506020850135915080821115615e8057600080fd5b5061596285828601615dd5565b81516001600160401b0316815261014081016020830151615eb960208401826001600160a01b03169052565b506040830151615ed460408401826001600160a01b03169052565b506060830151615eef60608401826001600160a01b03169052565b506080830151615f03608084018215159052565b5060a0830151615f1660a0840182615a1a565b5060c083015160c083015260e083015160e083015261010080840151818401525061012080840151615f4a82850182615a2e565b505092915050565b60008060008060008060008060006101208a8c031215615f7157600080fd5b615f7a8a615749565b9850615f8860208b01615749565b9750615f9660408b01615749565b9650615fa460608b01615749565b955060808a0135615fb481615b12565b9450615fc260a08b01615749565b9350615fd060c08b01615749565b925060e08a013591506101008a0135615fe8816157c0565b809150509295985092959850929598565b6000806040838503121561600c57600080fd5b61601583615749565b915060208301356157fe81615b12565b60008060006060848603121561603a57600080fd5b8335925060208401356001600160401b038082111561605857600080fd5b61606487838801615c9a565b9350604086013591508082111561607a57600080fd5b5061608786828701615dd5565b9150509250925092565b6020808252600e908201526d125b9d985b1a5908185b5bdd5b9d60921b604082015260600190565b600080604083850312156160cc57600080fd5b8251915060208301516157fe81615ad5565b634e487b7160e01b600052601160045260246000fd5b808201808211156115c8576115c86160de565b6020808252818101527f43616c6c6572206973206e6f74206120666163746f727920636f6e7472616374604082015260600190565b60006020828403121561614e57600080fd5b8151611b1e81615b6d565b6000835161616b81846020880161596c565b83519083019061617f81836020880161596c565b01949350505050565b602080825260159082015274496e76616c696420746f6b656e206164647265737360581b604082015260600190565b602080825260129082015271125b9d985b1a590814995c5d595cdd08125960721b604082015260600190565b602080825260159082015274696e76616c696420746f6b656e206164647265737360581b604082015260600190565b62ffffff81811683821601908082111561453a5761453a6160de565b60208082526010908201526f696e76616c696420646563696d616c7360801b604082015260600190565b818103818111156115c8576115c86160de565b634e487b7160e01b600052601260045260246000fd5b6000826162905761629061626b565b500490565b634e487b7160e01b600052603260045260246000fd5b600181811c908216806162bf57607f821691505b602082108103611a9257634e487b7160e01b600052602260045260246000fd5b6000602082840312156162f157600080fd5b5051919050565b805169ffffffffffffffffffff81168114611ae757600080fd5b600080600080600060a0868803121561632a57600080fd5b616333866162f8565b9450602086015193506040860151925060608601519150616356608087016162f8565b90509295509295909350565b60006020828403121561637457600080fd5b8151611b1e81615b12565b60006040828403121561639157600080fd5b616399615848565b8251815260208301516163ab81615b3e565b60208201529392505050565b601f821115612326576000816000526020600020601f850160051c810160208610156163e05750805b601f850160051c820191505b818110156163ff578281556001016163ec565b505050505050565b81516001600160401b0381111561642057616420615809565b6164348161642e84546162ab565b846163b7565b602080601f83116001811461646957600084156164515750858301515b600019600386901b1c1916600185901b1785556163ff565b600085815260208120601f198616915b8281101561649857888601518255948401946001909101908401616479565b50858210156164b65787850151600019600388901b60f8161c191681555b5050505050600190811b01905550565b80820281158282048414176115c8576115c86160de565b60ff82811682821603908111156115c8576115c86160de565b600181815b80851115616531578160001904821115616517576165176160de565b8085161561652457918102915b93841c93908002906164fb565b509250929050565b600082616548575060016115c8565b81616555575060006115c8565b816001811461656b576002811461657557616591565b60019150506115c8565b60ff841115616586576165866160de565b50506001821b6115c8565b5060208310610133831016604e8410600b84101617156165b4575081810a6115c8565b6165be83836164f6565b80600019048211156165d2576165d26160de565b029392505050565b6000611b1e60ff841683616539565b80820260008212600160ff1b84141615616605576166056160de565b81810583148215176115c8576115c86160de565b6001600160a01b0389811682526020820189905260408201889052861660608201526001600160e01b03198516608082015260a0810184905260c0810183905261010060e08201819052600090615aa483820185615990565b60018060a01b03841681528260208201526060604082015260006114436060830184615990565b6000602082840312156166ab57600080fd5b8151611b1e816157c0565b6000826166c5576166c561626b565b500690565b6000611b1e838361653956fe68747470733a2f2f6170702e6e65786c6162732e696f2f6170692f616c6c46756e64696e6752617465733f6d756c7469706c7946756e633d31382674696d65734e656746756e643d74727565266172726179733d74727565a26469706673582212200cbfb9be42669b9d5a8019d359e32bf6e9812f0a84530d49228b87a03299179864736f6c63430008190033","linkReferences":{}},"methodIdentifiers":{"actionInfoById(uint256)":"3c1f70ca","baseUrl()":"5bcabf04","burnedTokenAmountByNonce(uint256)":"ab7820b2","buyRequestPayedAmountById(uint256)":"8861d235","calculateBuyRequestFee(uint256)":"06995e3b","calculateIssuanceFee(uint256)":"e19eefbe","cancelIssuanceComplted(uint256)":"7bfa27f2","cancelIssuanceRequestId(uint256,address)":"02e80f71","cancelIssuanceUnfilledAmount(uint256,address)":"9edcf9f4","cancelRedemptionComplted(uint256)":"b46840f9","cancelRedemptionRequestId(uint256,address)":"8c221899","cancelRedemptionUnfilledAmount(uint256,address)":"632439fd","checkCancelIssuanceStatus(uint256)":"631c8385","checkCancelRedemptionStatus(uint256)":"b592662a","checkIssuanceOrdersStatus(uint256)":"2343acb4","checkRedemptionOrdersStatus(uint256)":"3fac0922","concatenation(string,string)":"0e329357","currentList(uint256)":"9932ba4c","externalJobId()":"a8b54bd4","factoryAddress()":"966dae0e","factoryBalancerAddress()":"cb4d4e09","factoryProcessorAddress()":"0acb8d40","feeRate()":"978bbdb9","feeReceiver()":"b3f00674","fulfillAssetsData(bytes32,address[],uint256[])":"f14bea20","getActionInfoById(uint256)":"147726ae","getAmountAfterFee(uint24,uint256)":"2e6b96e7","getIssuanceAmountOut(uint256)":"c8da3303","getOrderInstanceById(uint256)":"f1f31d66","getPortfolioValue()":"bb0498de","getPrimaryOrder(bool)":"b12279aa","getRedemptionAmountOut(uint256)":"e2851bd6","getVaultDshareBalance(address)":"a08d7bd6","getVaultDshareValue(address)":"efdf5053","increaseIssuanceNonce()":"5501c6cf","increaseRedemptionNonce()":"7851b905","initialize(address,address,address,address,uint8,address,address,bytes32,bool)":"d57e0493","isIssuanceOrderActive(uint256)":"b0e12134","isMainnet()":"42faac05","isRedemptionOrderActive(uint256)":"0b1a4918","issuanceIndexTokenPrimaryTotalSupply(uint256)":"b1dd819e","issuanceInputAmount(uint256)":"cf9ee319","issuanceIsCompleted(uint256)":"a84ebc17","issuanceNonce()":"9dbb9c9e","issuanceRequestId(uint256,address)":"264fa8b9","issuanceRequesterByNonce(uint256)":"94674098","issuanceTokenPrimaryBalance(uint256,address)":"da65925a","issuer()":"1d143848","lastUpdateTime()":"c8f33c91","latestFeeUpdate()":"011ced5f","latestPriceDecimals()":"0b1fa733","mockFillAssetsList(address[],uint256[])":"addc70d1","oracleList(uint256)":"239aad0d","oraclePayment()":"0c02e130","orderInstanceById(uint256)":"15e666a2","orderManager()":"f9b6117f","owner()":"8da5cb5b","priceFeedByTokenAddress(address)":"08dc4b0c","priceInWei(address)":"6839a095","redemptionIndexTokenPrimaryTotalSupply(uint256)":"daf1c17d","redemptionInputAmount(uint256)":"9cf54521","redemptionIsCompleted(uint256)":"76529fdf","redemptionNonce()":"84d77bb1","redemptionRequestId(uint256,address)":"f513a718","redemptionRequesterByNonce(uint256)":"78032658","redemptionTokenPrimaryBalance(uint256,address)":"a363b9cb","renounceOwnership()":"715018a6","requestAssetsData()":"7ca58c55","sellRequestAssetAmountById(uint256)":"a87f98d2","setActionInfoById(uint256,(uint256,uint256))":"8182492a","setBurnedTokenAmountByNonce(uint256,uint256)":"6188199f","setBuyRequestPayedAmountById(uint256,uint256)":"d1e4a308","setCancelIssuanceComplted(uint256,bool)":"7cd375e2","setCancelIssuanceRequestId(uint256,address,uint256)":"7a6c4b7b","setCancelIssuanceUnfilledAmount(uint256,address,uint256)":"12b6d2e6","setCancelRedemptionComplted(uint256,bool)":"8e97d7e1","setCancelRedemptionRequestId(uint256,address,uint256)":"457e0e0f","setCancelRedemptionUnfilledAmount(uint256,address,uint256)":"6ea86556","setFactory(address)":"5bb47808","setFactoryBalancer(address)":"d5fbea63","setFactoryProcessor(address)":"0499a61d","setFeeRate(uint8)":"5177942a","setFeeReceiver(address)":"efdcd974","setIsMainnet(bool)":"991be68e","setIssuanceIndexTokenPrimaryTotalSupply(uint256,uint256)":"99f68da8","setIssuanceInputAmount(uint256,uint256)":"ea5142c8","setIssuanceIsCompleted(uint256,bool)":"d1c0cee6","setIssuanceRequestId(uint256,address,uint256)":"496304a4","setIssuanceRequesterByNonce(uint256,address)":"df1d5ea2","setIssuanceTokenPrimaryBalance(uint256,address,uint256)":"9b2d6e3b","setIssuer(address)":"55cc4e57","setLatestPriceDecimals(uint8)":"32502639","setOracleInfo(address,bytes32)":"43482fc8","setOrderInstanceById(uint256,(uint64,address,address,address,bool,uint8,uint256,uint256,uint256,uint8))":"35c51204","setOrderManager(address)":"c0da840d","setPriceFeedAddresses(address[],address[])":"57b61bc3","setRedemptionIndexTokenPrimaryTotalSupply(uint256,uint256)":"6ea495df","setRedemptionInputAmount(uint256,uint256)":"c7003d1b","setRedemptionIsCompleted(uint256,bool)":"0a1d4270","setRedemptionRequestId(uint256,address,uint256)":"1c7a2959","setRedemptionRequesterByNonce(uint256,address)":"d34ed2ab","setRedemptionTokenPrimaryBalance(uint256,address,uint256)":"21de914f","setSellRequestAssetAmountById(uint256,uint256)":"1e2ad86e","setTokenAddress(address)":"26a4e8d2","setUrl(string,string)":"a73e1cbf","setUsdcAddress(address,uint8)":"eab2a711","setWrappedDShareAddresses(address[],address[])":"b411dc41","token()":"fc0c546a","tokenCurrentListIndex(address)":"914f0cc6","tokenCurrentMarketShare(address)":"0be52713","tokenOracleListIndex(address)":"8c88c10c","tokenOracleMarketShare(address)":"4b3e0b80","totalCurrentList()":"53fd4332","totalOracleList()":"c8599ded","transferOwnership(address)":"f2fde38b","updateCurrentList()":"8baa6bf1","urlParams()":"e789598c","usdc()":"3e413bee","usdcDecimals()":"7bf42165","vault()":"fbfa77cf","wrappedDshareAddress(address)":"092755e0"},"id":19}