{"abi":[{"type":"constructor","inputs":[],"stateMutability":"nonpayable"},{"type":"function","name":"acceptOwnership","inputs":[],"outputs":[],"stateMutability":"nonpayable"},{"type":"function","name":"actionInfoById","inputs":[{"name":"","type":"uint256","internalType":"uint256"}],"outputs":[{"name":"actionType","type":"uint256","internalType":"uint256"},{"name":"nonce","type":"uint256","internalType":"uint256"}],"stateMutability":"view"},{"type":"function","name":"baseUrl","inputs":[],"outputs":[{"name":"","type":"string","internalType":"string"}],"stateMutability":"view"},{"type":"function","name":"burnedTokenAmountByNonce","inputs":[{"name":"","type":"uint256","internalType":"uint256"}],"outputs":[{"name":"","type":"uint256","internalType":"uint256"}],"stateMutability":"view"},{"type":"function","name":"buyRequestPayedAmountById","inputs":[{"name":"","type":"uint256","internalType":"uint256"}],"outputs":[{"name":"","type":"uint256","internalType":"uint256"}],"stateMutability":"view"},{"type":"function","name":"calculateBuyRequestFee","inputs":[{"name":"_amount","type":"uint256","internalType":"uint256"}],"outputs":[{"name":"","type":"uint256","internalType":"uint256"}],"stateMutability":"view"},{"type":"function","name":"calculateIssuanceFee","inputs":[{"name":"_inputAmount","type":"uint256","internalType":"uint256"}],"outputs":[{"name":"","type":"uint256","internalType":"uint256"}],"stateMutability":"view"},{"type":"function","name":"cancelIssuanceComplted","inputs":[{"name":"","type":"uint256","internalType":"uint256"}],"outputs":[{"name":"","type":"bool","internalType":"bool"}],"stateMutability":"view"},{"type":"function","name":"cancelIssuanceRequestId","inputs":[{"name":"","type":"uint256","internalType":"uint256"},{"name":"","type":"address","internalType":"address"}],"outputs":[{"name":"","type":"uint256","internalType":"uint256"}],"stateMutability":"view"},{"type":"function","name":"cancelIssuanceUnfilledAmount","inputs":[{"name":"","type":"uint256","internalType":"uint256"},{"name":"","type":"address","internalType":"address"}],"outputs":[{"name":"","type":"uint256","internalType":"uint256"}],"stateMutability":"view"},{"type":"function","name":"cancelRedemptionComplted","inputs":[{"name":"","type":"uint256","internalType":"uint256"}],"outputs":[{"name":"","type":"bool","internalType":"bool"}],"stateMutability":"view"},{"type":"function","name":"cancelRedemptionRequestId","inputs":[{"name":"","type":"uint256","internalType":"uint256"},{"name":"","type":"address","internalType":"address"}],"outputs":[{"name":"","type":"uint256","internalType":"uint256"}],"stateMutability":"view"},{"type":"function","name":"cancelRedemptionUnfilledAmount","inputs":[{"name":"","type":"uint256","internalType":"uint256"},{"name":"","type":"address","internalType":"address"}],"outputs":[{"name":"","type":"uint256","internalType":"uint256"}],"stateMutability":"view"},{"type":"function","name":"checkCancelIssuanceStatus","inputs":[{"name":"_issuanceNonce","type":"uint256","internalType":"uint256"}],"outputs":[{"name":"","type":"bool","internalType":"bool"}],"stateMutability":"view"},{"type":"function","name":"checkCancelRedemptionStatus","inputs":[{"name":"_redemptionNonce","type":"uint256","internalType":"uint256"}],"outputs":[{"name":"","type":"bool","internalType":"bool"}],"stateMutability":"view"},{"type":"function","name":"checkIssuanceOrdersStatus","inputs":[{"name":"_issuanceNonce","type":"uint256","internalType":"uint256"}],"outputs":[{"name":"","type":"bool","internalType":"bool"}],"stateMutability":"view"},{"type":"function","name":"checkRedemptionOrdersStatus","inputs":[{"name":"_redemptionNonce","type":"uint256","internalType":"uint256"}],"outputs":[{"name":"","type":"bool","internalType":"bool"}],"stateMutability":"view"},{"type":"function","name":"concatenation","inputs":[{"name":"a","type":"string","internalType":"string"},{"name":"b","type":"string","internalType":"string"}],"outputs":[{"name":"","type":"string","internalType":"string"}],"stateMutability":"pure"},{"type":"function","name":"currentList","inputs":[{"name":"","type":"uint256","internalType":"uint256"}],"outputs":[{"name":"","type":"address","internalType":"address"}],"stateMutability":"view"},{"type":"function","name":"donId","inputs":[],"outputs":[{"name":"","type":"bytes32","internalType":"bytes32"}],"stateMutability":"view"},{"type":"function","name":"factoryAddress","inputs":[],"outputs":[{"name":"","type":"address","internalType":"address"}],"stateMutability":"view"},{"type":"function","name":"factoryBalancerAddress","inputs":[],"outputs":[{"name":"","type":"address","internalType":"address"}],"stateMutability":"view"},{"type":"function","name":"factoryProcessorAddress","inputs":[],"outputs":[{"name":"","type":"address","internalType":"address"}],"stateMutability":"view"},{"type":"function","name":"feeRate","inputs":[],"outputs":[{"name":"","type":"uint8","internalType":"uint8"}],"stateMutability":"view"},{"type":"function","name":"feeReceiver","inputs":[],"outputs":[{"name":"","type":"address","internalType":"address"}],"stateMutability":"view"},{"type":"function","name":"functionsRouterAddress","inputs":[],"outputs":[{"name":"","type":"address","internalType":"address"}],"stateMutability":"view"},{"type":"function","name":"getActionInfoById","inputs":[{"name":"_id","type":"uint256","internalType":"uint256"}],"outputs":[{"name":"","type":"tuple","internalType":"struct IndexFactoryStorage.ActionInfo","components":[{"name":"actionType","type":"uint256","internalType":"uint256"},{"name":"nonce","type":"uint256","internalType":"uint256"}]}],"stateMutability":"view"},{"type":"function","name":"getAmountAfterFee","inputs":[{"name":"percentageFeeRate","type":"uint24","internalType":"uint24"},{"name":"orderValue","type":"uint256","internalType":"uint256"}],"outputs":[{"name":"","type":"uint256","internalType":"uint256"}],"stateMutability":"pure"},{"type":"function","name":"getIssuanceAmountOut","inputs":[{"name":"_amount","type":"uint256","internalType":"uint256"}],"outputs":[{"name":"","type":"uint256","internalType":"uint256"}],"stateMutability":"view"},{"type":"function","name":"getOrderInstanceById","inputs":[{"name":"_id","type":"uint256","internalType":"uint256"}],"outputs":[{"name":"","type":"tuple","internalType":"struct IOrderProcessor.Order","components":[{"name":"requestTimestamp","type":"uint64","internalType":"uint64"},{"name":"recipient","type":"address","internalType":"address"},{"name":"assetToken","type":"address","internalType":"address"},{"name":"paymentToken","type":"address","internalType":"address"},{"name":"sell","type":"bool","internalType":"bool"},{"name":"orderType","type":"uint8","internalType":"enum IOrderProcessor.OrderType"},{"name":"assetTokenQuantity","type":"uint256","internalType":"uint256"},{"name":"paymentTokenQuantity","type":"uint256","internalType":"uint256"},{"name":"price","type":"uint256","internalType":"uint256"},{"name":"tif","type":"uint8","internalType":"enum IOrderProcessor.TIF"}]}],"stateMutability":"view"},{"type":"function","name":"getPortfolioValue","inputs":[],"outputs":[{"name":"","type":"uint256","internalType":"uint256"}],"stateMutability":"view"},{"type":"function","name":"getPrimaryOrder","inputs":[{"name":"sell","type":"bool","internalType":"bool"}],"outputs":[{"name":"","type":"tuple","internalType":"struct IOrderProcessor.Order","components":[{"name":"requestTimestamp","type":"uint64","internalType":"uint64"},{"name":"recipient","type":"address","internalType":"address"},{"name":"assetToken","type":"address","internalType":"address"},{"name":"paymentToken","type":"address","internalType":"address"},{"name":"sell","type":"bool","internalType":"bool"},{"name":"orderType","type":"uint8","internalType":"enum IOrderProcessor.OrderType"},{"name":"assetTokenQuantity","type":"uint256","internalType":"uint256"},{"name":"paymentTokenQuantity","type":"uint256","internalType":"uint256"},{"name":"price","type":"uint256","internalType":"uint256"},{"name":"tif","type":"uint8","internalType":"enum IOrderProcessor.TIF"}]}],"stateMutability":"view"},{"type":"function","name":"getRedemptionAmountOut","inputs":[{"name":"_amount","type":"uint256","internalType":"uint256"}],"outputs":[{"name":"","type":"uint256","internalType":"uint256"}],"stateMutability":"view"},{"type":"function","name":"getVaultDshareBalance","inputs":[{"name":"_token","type":"address","internalType":"address"}],"outputs":[{"name":"","type":"uint256","internalType":"uint256"}],"stateMutability":"view"},{"type":"function","name":"getVaultDshareValue","inputs":[{"name":"_token","type":"address","internalType":"address"}],"outputs":[{"name":"","type":"uint256","internalType":"uint256"}],"stateMutability":"view"},{"type":"function","name":"handleOracleFulfillment","inputs":[{"name":"requestId","type":"bytes32","internalType":"bytes32"},{"name":"response","type":"bytes","internalType":"bytes"},{"name":"err","type":"bytes","internalType":"bytes"}],"outputs":[],"stateMutability":"nonpayable"},{"type":"function","name":"increaseIssuanceNonce","inputs":[],"outputs":[],"stateMutability":"nonpayable"},{"type":"function","name":"increaseRedemptionNonce","inputs":[],"outputs":[],"stateMutability":"nonpayable"},{"type":"function","name":"initialize","inputs":[{"name":"_issuer","type":"address","internalType":"address"},{"name":"_token","type":"address","internalType":"address"},{"name":"_vault","type":"address","internalType":"address"},{"name":"_usdc","type":"address","internalType":"address"},{"name":"_usdcDecimals","type":"uint8","internalType":"uint8"},{"name":"_chainlinkToken","type":"address","internalType":"address"},{"name":"_functionsRouterAddress","type":"address","internalType":"address"},{"name":"_newDonId","type":"bytes32","internalType":"bytes32"},{"name":"_isMainnet","type":"bool","internalType":"bool"}],"outputs":[],"stateMutability":"nonpayable"},{"type":"function","name":"isIssuanceOrderActive","inputs":[{"name":"_issuanceNonce","type":"uint256","internalType":"uint256"}],"outputs":[{"name":"","type":"bool","internalType":"bool"}],"stateMutability":"view"},{"type":"function","name":"isMainnet","inputs":[],"outputs":[{"name":"","type":"bool","internalType":"bool"}],"stateMutability":"view"},{"type":"function","name":"isRedemptionOrderActive","inputs":[{"name":"_redemptionNonce","type":"uint256","internalType":"uint256"}],"outputs":[{"name":"","type":"bool","internalType":"bool"}],"stateMutability":"view"},{"type":"function","name":"issuanceIndexTokenPrimaryTotalSupply","inputs":[{"name":"","type":"uint256","internalType":"uint256"}],"outputs":[{"name":"","type":"uint256","internalType":"uint256"}],"stateMutability":"view"},{"type":"function","name":"issuanceInputAmount","inputs":[{"name":"","type":"uint256","internalType":"uint256"}],"outputs":[{"name":"","type":"uint256","internalType":"uint256"}],"stateMutability":"view"},{"type":"function","name":"issuanceIsCompleted","inputs":[{"name":"","type":"uint256","internalType":"uint256"}],"outputs":[{"name":"","type":"bool","internalType":"bool"}],"stateMutability":"view"},{"type":"function","name":"issuanceNonce","inputs":[],"outputs":[{"name":"","type":"uint256","internalType":"uint256"}],"stateMutability":"view"},{"type":"function","name":"issuanceRequestId","inputs":[{"name":"","type":"uint256","internalType":"uint256"},{"name":"","type":"address","internalType":"address"}],"outputs":[{"name":"","type":"uint256","internalType":"uint256"}],"stateMutability":"view"},{"type":"function","name":"issuanceRequesterByNonce","inputs":[{"name":"","type":"uint256","internalType":"uint256"}],"outputs":[{"name":"","type":"address","internalType":"address"}],"stateMutability":"view"},{"type":"function","name":"issuanceTokenPrimaryBalance","inputs":[{"name":"","type":"uint256","internalType":"uint256"},{"name":"","type":"address","internalType":"address"}],"outputs":[{"name":"","type":"uint256","internalType":"uint256"}],"stateMutability":"view"},{"type":"function","name":"issuer","inputs":[],"outputs":[{"name":"","type":"address","internalType":"contract IOrderProcessor"}],"stateMutability":"view"},{"type":"function","name":"lastUpdateTime","inputs":[],"outputs":[{"name":"","type":"uint256","internalType":"uint256"}],"stateMutability":"view"},{"type":"function","name":"latestFeeUpdate","inputs":[],"outputs":[{"name":"","type":"uint256","internalType":"uint256"}],"stateMutability":"view"},{"type":"function","name":"latestPriceDecimals","inputs":[],"outputs":[{"name":"","type":"uint8","internalType":"uint8"}],"stateMutability":"view"},{"type":"function","name":"mockFillAssetsList","inputs":[{"name":"_tokens","type":"address[]","internalType":"address[]"},{"name":"_marketShares","type":"uint256[]","internalType":"uint256[]"}],"outputs":[],"stateMutability":"nonpayable"},{"type":"function","name":"oracleList","inputs":[{"name":"","type":"uint256","internalType":"uint256"}],"outputs":[{"name":"","type":"address","internalType":"address"}],"stateMutability":"view"},{"type":"function","name":"orderInstanceById","inputs":[{"name":"","type":"uint256","internalType":"uint256"}],"outputs":[{"name":"requestTimestamp","type":"uint64","internalType":"uint64"},{"name":"recipient","type":"address","internalType":"address"},{"name":"assetToken","type":"address","internalType":"address"},{"name":"paymentToken","type":"address","internalType":"address"},{"name":"sell","type":"bool","internalType":"bool"},{"name":"orderType","type":"uint8","internalType":"enum IOrderProcessor.OrderType"},{"name":"assetTokenQuantity","type":"uint256","internalType":"uint256"},{"name":"paymentTokenQuantity","type":"uint256","internalType":"uint256"},{"name":"price","type":"uint256","internalType":"uint256"},{"name":"tif","type":"uint8","internalType":"enum IOrderProcessor.TIF"}],"stateMutability":"view"},{"type":"function","name":"orderManager","inputs":[],"outputs":[{"name":"","type":"address","internalType":"contract OrderManager"}],"stateMutability":"view"},{"type":"function","name":"owner","inputs":[],"outputs":[{"name":"","type":"address","internalType":"address"}],"stateMutability":"view"},{"type":"function","name":"priceFeedByTokenAddress","inputs":[{"name":"","type":"address","internalType":"address"}],"outputs":[{"name":"","type":"address","internalType":"address"}],"stateMutability":"view"},{"type":"function","name":"priceInWei","inputs":[{"name":"_tokenAddress","type":"address","internalType":"address"}],"outputs":[{"name":"","type":"uint256","internalType":"uint256"}],"stateMutability":"view"},{"type":"function","name":"redemptionIndexTokenPrimaryTotalSupply","inputs":[{"name":"","type":"uint256","internalType":"uint256"}],"outputs":[{"name":"","type":"uint256","internalType":"uint256"}],"stateMutability":"view"},{"type":"function","name":"redemptionInputAmount","inputs":[{"name":"","type":"uint256","internalType":"uint256"}],"outputs":[{"name":"","type":"uint256","internalType":"uint256"}],"stateMutability":"view"},{"type":"function","name":"redemptionIsCompleted","inputs":[{"name":"","type":"uint256","internalType":"uint256"}],"outputs":[{"name":"","type":"bool","internalType":"bool"}],"stateMutability":"view"},{"type":"function","name":"redemptionNonce","inputs":[],"outputs":[{"name":"","type":"uint256","internalType":"uint256"}],"stateMutability":"view"},{"type":"function","name":"redemptionRequestId","inputs":[{"name":"","type":"uint256","internalType":"uint256"},{"name":"","type":"address","internalType":"address"}],"outputs":[{"name":"","type":"uint256","internalType":"uint256"}],"stateMutability":"view"},{"type":"function","name":"redemptionRequesterByNonce","inputs":[{"name":"","type":"uint256","internalType":"uint256"}],"outputs":[{"name":"","type":"address","internalType":"address"}],"stateMutability":"view"},{"type":"function","name":"redemptionTokenPrimaryBalance","inputs":[{"name":"","type":"uint256","internalType":"uint256"},{"name":"","type":"address","internalType":"address"}],"outputs":[{"name":"","type":"uint256","internalType":"uint256"}],"stateMutability":"view"},{"type":"function","name":"requestAssetsData","inputs":[{"name":"source","type":"string","internalType":"string"},{"name":"encryptedSecretsReference","type":"bytes","internalType":"bytes"},{"name":"args","type":"string[]","internalType":"string[]"},{"name":"bytesArgs","type":"bytes[]","internalType":"bytes[]"},{"name":"subscriptionId","type":"uint64","internalType":"uint64"},{"name":"callbackGasLimit","type":"uint32","internalType":"uint32"}],"outputs":[{"name":"","type":"bytes32","internalType":"bytes32"}],"stateMutability":"nonpayable"},{"type":"function","name":"sellRequestAssetAmountById","inputs":[{"name":"","type":"uint256","internalType":"uint256"}],"outputs":[{"name":"","type":"uint256","internalType":"uint256"}],"stateMutability":"view"},{"type":"function","name":"setActionInfoById","inputs":[{"name":"_requestId","type":"uint256","internalType":"uint256"},{"name":"_actionInfo","type":"tuple","internalType":"struct IndexFactoryStorage.ActionInfo","components":[{"name":"actionType","type":"uint256","internalType":"uint256"},{"name":"nonce","type":"uint256","internalType":"uint256"}]}],"outputs":[],"stateMutability":"nonpayable"},{"type":"function","name":"setBurnedTokenAmountByNonce","inputs":[{"name":"_redemptionNonce","type":"uint256","internalType":"uint256"},{"name":"_burnedAmount","type":"uint256","internalType":"uint256"}],"outputs":[],"stateMutability":"nonpayable"},{"type":"function","name":"setBuyRequestPayedAmountById","inputs":[{"name":"_requestId","type":"uint256","internalType":"uint256"},{"name":"_amount","type":"uint256","internalType":"uint256"}],"outputs":[],"stateMutability":"nonpayable"},{"type":"function","name":"setCancelIssuanceComplted","inputs":[{"name":"_issuanceNonce","type":"uint256","internalType":"uint256"},{"name":"_isCompleted","type":"bool","internalType":"bool"}],"outputs":[],"stateMutability":"nonpayable"},{"type":"function","name":"setCancelIssuanceRequestId","inputs":[{"name":"_issuanceNonce","type":"uint256","internalType":"uint256"},{"name":"_token","type":"address","internalType":"address"},{"name":"_requestId","type":"uint256","internalType":"uint256"}],"outputs":[],"stateMutability":"nonpayable"},{"type":"function","name":"setCancelIssuanceUnfilledAmount","inputs":[{"name":"_issuanceNonce","type":"uint256","internalType":"uint256"},{"name":"_token","type":"address","internalType":"address"},{"name":"_amount","type":"uint256","internalType":"uint256"}],"outputs":[],"stateMutability":"nonpayable"},{"type":"function","name":"setCancelRedemptionComplted","inputs":[{"name":"_redemptionNonce","type":"uint256","internalType":"uint256"},{"name":"_isCompleted","type":"bool","internalType":"bool"}],"outputs":[],"stateMutability":"nonpayable"},{"type":"function","name":"setCancelRedemptionRequestId","inputs":[{"name":"_redemptionNonce","type":"uint256","internalType":"uint256"},{"name":"_token","type":"address","internalType":"address"},{"name":"_requestId","type":"uint256","internalType":"uint256"}],"outputs":[],"stateMutability":"nonpayable"},{"type":"function","name":"setCancelRedemptionUnfilledAmount","inputs":[{"name":"_redemptionNonce","type":"uint256","internalType":"uint256"},{"name":"_token","type":"address","internalType":"address"},{"name":"_amount","type":"uint256","internalType":"uint256"}],"outputs":[],"stateMutability":"nonpayable"},{"type":"function","name":"setDonId","inputs":[{"name":"newDonId","type":"bytes32","internalType":"bytes32"}],"outputs":[],"stateMutability":"nonpayable"},{"type":"function","name":"setFactory","inputs":[{"name":"_factoryAddress","type":"address","internalType":"address"}],"outputs":[],"stateMutability":"nonpayable"},{"type":"function","name":"setFactoryBalancer","inputs":[{"name":"_factoryBalancerAddress","type":"address","internalType":"address"}],"outputs":[],"stateMutability":"nonpayable"},{"type":"function","name":"setFactoryProcessor","inputs":[{"name":"_factoryProcessorAddress","type":"address","internalType":"address"}],"outputs":[],"stateMutability":"nonpayable"},{"type":"function","name":"setFeeRate","inputs":[{"name":"_newFee","type":"uint8","internalType":"uint8"}],"outputs":[],"stateMutability":"nonpayable"},{"type":"function","name":"setFeeReceiver","inputs":[{"name":"_feeReceiver","type":"address","internalType":"address"}],"outputs":[],"stateMutability":"nonpayable"},{"type":"function","name":"setIsMainnet","inputs":[{"name":"_isMainnet","type":"bool","internalType":"bool"}],"outputs":[],"stateMutability":"nonpayable"},{"type":"function","name":"setIssuanceIndexTokenPrimaryTotalSupply","inputs":[{"name":"_issuanceNonce","type":"uint256","internalType":"uint256"},{"name":"_amount","type":"uint256","internalType":"uint256"}],"outputs":[],"stateMutability":"nonpayable"},{"type":"function","name":"setIssuanceInputAmount","inputs":[{"name":"_issuanceNonce","type":"uint256","internalType":"uint256"},{"name":"_amount","type":"uint256","internalType":"uint256"}],"outputs":[],"stateMutability":"nonpayable"},{"type":"function","name":"setIssuanceIsCompleted","inputs":[{"name":"_issuanceNonce","type":"uint256","internalType":"uint256"},{"name":"_isCompleted","type":"bool","internalType":"bool"}],"outputs":[],"stateMutability":"nonpayable"},{"type":"function","name":"setIssuanceRequestId","inputs":[{"name":"_issuanceNonce","type":"uint256","internalType":"uint256"},{"name":"_token","type":"address","internalType":"address"},{"name":"_requestId","type":"uint256","internalType":"uint256"}],"outputs":[],"stateMutability":"nonpayable"},{"type":"function","name":"setIssuanceRequesterByNonce","inputs":[{"name":"_issuanceNonce","type":"uint256","internalType":"uint256"},{"name":"_requester","type":"address","internalType":"address"}],"outputs":[],"stateMutability":"nonpayable"},{"type":"function","name":"setIssuanceTokenPrimaryBalance","inputs":[{"name":"_issuanceNonce","type":"uint256","internalType":"uint256"},{"name":"_token","type":"address","internalType":"address"},{"name":"_amount","type":"uint256","internalType":"uint256"}],"outputs":[],"stateMutability":"nonpayable"},{"type":"function","name":"setIssuer","inputs":[{"name":"_issuer","type":"address","internalType":"address"}],"outputs":[{"name":"","type":"bool","internalType":"bool"}],"stateMutability":"nonpayable"},{"type":"function","name":"setLatestPriceDecimals","inputs":[{"name":"_decimals","type":"uint8","internalType":"uint8"}],"outputs":[],"stateMutability":"nonpayable"},{"type":"function","name":"setOrderInstanceById","inputs":[{"name":"_requestId","type":"uint256","internalType":"uint256"},{"name":"_order","type":"tuple","internalType":"struct IOrderProcessor.Order","components":[{"name":"requestTimestamp","type":"uint64","internalType":"uint64"},{"name":"recipient","type":"address","internalType":"address"},{"name":"assetToken","type":"address","internalType":"address"},{"name":"paymentToken","type":"address","internalType":"address"},{"name":"sell","type":"bool","internalType":"bool"},{"name":"orderType","type":"uint8","internalType":"enum IOrderProcessor.OrderType"},{"name":"assetTokenQuantity","type":"uint256","internalType":"uint256"},{"name":"paymentTokenQuantity","type":"uint256","internalType":"uint256"},{"name":"price","type":"uint256","internalType":"uint256"},{"name":"tif","type":"uint8","internalType":"enum IOrderProcessor.TIF"}]}],"outputs":[],"stateMutability":"nonpayable"},{"type":"function","name":"setOrderManager","inputs":[{"name":"_orderManager","type":"address","internalType":"address"}],"outputs":[{"name":"","type":"bool","internalType":"bool"}],"stateMutability":"nonpayable"},{"type":"function","name":"setPriceFeedAddresses","inputs":[{"name":"_dShares","type":"address[]","internalType":"address[]"},{"name":"_priceFeedAddresses","type":"address[]","internalType":"address[]"}],"outputs":[],"stateMutability":"nonpayable"},{"type":"function","name":"setRedemptionIndexTokenPrimaryTotalSupply","inputs":[{"name":"_redemptionNonce","type":"uint256","internalType":"uint256"},{"name":"_amount","type":"uint256","internalType":"uint256"}],"outputs":[],"stateMutability":"nonpayable"},{"type":"function","name":"setRedemptionInputAmount","inputs":[{"name":"_redemptionNonce","type":"uint256","internalType":"uint256"},{"name":"_amount","type":"uint256","internalType":"uint256"}],"outputs":[],"stateMutability":"nonpayable"},{"type":"function","name":"setRedemptionIsCompleted","inputs":[{"name":"_redemptionNonce","type":"uint256","internalType":"uint256"},{"name":"_isCompleted","type":"bool","internalType":"bool"}],"outputs":[],"stateMutability":"nonpayable"},{"type":"function","name":"setRedemptionRequestId","inputs":[{"name":"_redemptionNonce","type":"uint256","internalType":"uint256"},{"name":"_token","type":"address","internalType":"address"},{"name":"_requestId","type":"uint256","internalType":"uint256"}],"outputs":[],"stateMutability":"nonpayable"},{"type":"function","name":"setRedemptionRequesterByNonce","inputs":[{"name":"_redemptionNonce","type":"uint256","internalType":"uint256"},{"name":"_requester","type":"address","internalType":"address"}],"outputs":[],"stateMutability":"nonpayable"},{"type":"function","name":"setRedemptionTokenPrimaryBalance","inputs":[{"name":"_redemptionNonce","type":"uint256","internalType":"uint256"},{"name":"_token","type":"address","internalType":"address"},{"name":"_amount","type":"uint256","internalType":"uint256"}],"outputs":[],"stateMutability":"nonpayable"},{"type":"function","name":"setSellRequestAssetAmountById","inputs":[{"name":"_requestId","type":"uint256","internalType":"uint256"},{"name":"_amount","type":"uint256","internalType":"uint256"}],"outputs":[],"stateMutability":"nonpayable"},{"type":"function","name":"setTokenAddress","inputs":[{"name":"_token","type":"address","internalType":"address"}],"outputs":[{"name":"","type":"bool","internalType":"bool"}],"stateMutability":"nonpayable"},{"type":"function","name":"setUrl","inputs":[{"name":"_beforeAddress","type":"string","internalType":"string"},{"name":"_afterAddress","type":"string","internalType":"string"}],"outputs":[],"stateMutability":"nonpayable"},{"type":"function","name":"setUsdcAddress","inputs":[{"name":"_usdc","type":"address","internalType":"address"},{"name":"_usdcDecimals","type":"uint8","internalType":"uint8"}],"outputs":[{"name":"","type":"bool","internalType":"bool"}],"stateMutability":"nonpayable"},{"type":"function","name":"setWrappedDShareAddresses","inputs":[{"name":"_dShares","type":"address[]","internalType":"address[]"},{"name":"_wrappedDShares","type":"address[]","internalType":"address[]"}],"outputs":[],"stateMutability":"nonpayable"},{"type":"function","name":"setWrappedDshareAndPriceFeedAddresses","inputs":[{"name":"_dShares","type":"address[]","internalType":"address[]"},{"name":"_wrappedDShares","type":"address[]","internalType":"address[]"},{"name":"_priceFeedAddresses","type":"address[]","internalType":"address[]"}],"outputs":[],"stateMutability":"nonpayable"},{"type":"function","name":"token","inputs":[],"outputs":[{"name":"","type":"address","internalType":"contract IndexToken"}],"stateMutability":"view"},{"type":"function","name":"tokenCurrentListIndex","inputs":[{"name":"","type":"address","internalType":"address"}],"outputs":[{"name":"","type":"uint256","internalType":"uint256"}],"stateMutability":"view"},{"type":"function","name":"tokenCurrentMarketShare","inputs":[{"name":"","type":"address","internalType":"address"}],"outputs":[{"name":"","type":"uint256","internalType":"uint256"}],"stateMutability":"view"},{"type":"function","name":"tokenOracleListIndex","inputs":[{"name":"","type":"address","internalType":"address"}],"outputs":[{"name":"","type":"uint256","internalType":"uint256"}],"stateMutability":"view"},{"type":"function","name":"tokenOracleMarketShare","inputs":[{"name":"","type":"address","internalType":"address"}],"outputs":[{"name":"","type":"uint256","internalType":"uint256"}],"stateMutability":"view"},{"type":"function","name":"totalCurrentList","inputs":[],"outputs":[{"name":"","type":"uint256","internalType":"uint256"}],"stateMutability":"view"},{"type":"function","name":"totalOracleList","inputs":[],"outputs":[{"name":"","type":"uint256","internalType":"uint256"}],"stateMutability":"view"},{"type":"function","name":"transferOwnership","inputs":[{"name":"to","type":"address","internalType":"address"}],"outputs":[],"stateMutability":"nonpayable"},{"type":"function","name":"updateCurrentList","inputs":[],"outputs":[],"stateMutability":"nonpayable"},{"type":"function","name":"urlParams","inputs":[],"outputs":[{"name":"","type":"string","internalType":"string"}],"stateMutability":"view"},{"type":"function","name":"usdc","inputs":[],"outputs":[{"name":"","type":"address","internalType":"address"}],"stateMutability":"view"},{"type":"function","name":"usdcDecimals","inputs":[],"outputs":[{"name":"","type":"uint8","internalType":"uint8"}],"stateMutability":"view"},{"type":"function","name":"vault","inputs":[],"outputs":[{"name":"","type":"address","internalType":"contract NexVault"}],"stateMutability":"view"},{"type":"function","name":"wrappedDshareAddress","inputs":[{"name":"","type":"address","internalType":"address"}],"outputs":[{"name":"","type":"address","internalType":"address"}],"stateMutability":"view"},{"type":"event","name":"Initialized","inputs":[{"name":"version","type":"uint64","indexed":false,"internalType":"uint64"}],"anonymous":false},{"type":"event","name":"OwnershipTransferRequested","inputs":[{"name":"from","type":"address","indexed":true,"internalType":"address"},{"name":"to","type":"address","indexed":true,"internalType":"address"}],"anonymous":false},{"type":"event","name":"OwnershipTransferred","inputs":[{"name":"from","type":"address","indexed":true,"internalType":"address"},{"name":"to","type":"address","indexed":true,"internalType":"address"}],"anonymous":false},{"type":"event","name":"RequestFulfilled","inputs":[{"name":"id","type":"bytes32","indexed":true,"internalType":"bytes32"}],"anonymous":false},{"type":"event","name":"RequestSent","inputs":[{"name":"id","type":"bytes32","indexed":true,"internalType":"bytes32"}],"anonymous":false},{"type":"error","name":"EmptyArgs","inputs":[]},{"type":"error","name":"EmptySource","inputs":[]},{"type":"error","name":"InvalidInitialization","inputs":[]},{"type":"error","name":"NoInlineSecrets","inputs":[]},{"type":"error","name":"NotInitializing","inputs":[]},{"type":"error","name":"OnlyRouterCanFulfill","inputs":[]},{"type":"error","name":"PRBMath_MulDiv_Overflow","inputs":[{"name":"x","type":"uint256","internalType":"uint256"},{"name":"y","type":"uint256","internalType":"uint256"},{"name":"denominator","type":"uint256","internalType":"uint256"}]},{"type":"error","name":"PRBMath_MulDiv_Overflow","inputs":[{"name":"x","type":"uint256","internalType":"uint256"},{"name":"y","type":"uint256","internalType":"uint256"},{"name":"denominator","type":"uint256","internalType":"uint256"}]}],"bytecode":{"object":"0x608060405234801561000f575f80fd5b5061001e61002360201b60201c565b610183565b5f61003261012160201b60201c565b9050805f0160089054906101000a900460ff161561007c576040517ff92ee8a900000000000000000000000000000000000000000000000000000000815260040160405180910390fd5b67ffffffffffffffff8016815f015f9054906101000a900467ffffffffffffffff1667ffffffffffffffff161461011e5767ffffffffffffffff815f015f6101000a81548167ffffffffffffffff021916908367ffffffffffffffff1602179055507fc7f505b2f371ae2175ee4913f4499e1f2633a7b5936321eed1cdaeb6115181d267ffffffffffffffff604051610115919061016a565b60405180910390a15b50565b5f7ff0c57e16840df040f15088dc2f81fe391c3923bec73e23a9662efc9c229c6a00905090565b5f67ffffffffffffffff82169050919050565b61016481610148565b82525050565b5f60208201905061017d5f83018461015b565b92915050565b61d8cd806101905f395ff3fe608060405234801561000f575f80fd5b506004361061074c575f3560e01c80638c03c55a116103bc578063b592662a116101fd578063daf1c17d11610123578063efdcd974116100b6578063f513a71811610085578063f513a7181461184a578063f9b6117f1461187a578063fbfa77cf14611898578063fc0c546a146118b65761074c565b8063efdcd974146117b2578063efdf5053146117ce578063f1f31d66146117fe578063f2fde38b1461182e5761074c565b8063e3c91043116100f2578063e3c910431461172a578063e789598c14611748578063ea5142c814611766578063eab2a711146117825761074c565b8063daf1c17d1461167e578063df1d5ea2146116ae578063e19eefbe146116ca578063e2851bd6146116fa5761074c565b8063cb4d4e091161019b578063d34ed2ab1161016a578063d34ed2ab146115fa578063d57e049314611616578063d5fbea6314611632578063da65925a1461164e5761074c565b8063cb4d4e0914611574578063cf9ee31914611592578063d1c0cee6146115c2578063d1e4a308146115de5761074c565b8063c7003d1b116101d7578063c7003d1b146114ec578063c8599ded14611508578063c8da330314611526578063c8f33c91146115565761074c565b8063b592662a1461146e578063bb0498de1461149e578063c0da840d146114bc5761074c565b80639dbb9c9e116102e2578063ab7820b211610280578063b1dd819e1161024f578063b1dd819e146113d4578063b3f0067414611404578063b411dc4114611422578063b46840f91461143e5761074c565b8063ab7820b214611328578063addc70d114611358578063b0e1213414611374578063b12279aa146113a45761074c565b8063a363b9cb116102bc578063a363b9cb1461127c578063a73e1cbf146112ac578063a84ebc17146112c8578063a87f98d2146112f85761074c565b80639dbb9c9e146111fe5780639edcf9f41461121c578063a08d7bd61461124c5761074c565b8063946740981161035a5780639932ba4c116103295780639932ba4c1461116657806399f68da8146111965780639b2d6e3b146111b25780639cf54521146111ce5761074c565b806394674098146110de578063966dae0e1461110e578063978bbdb91461112c578063991be68e1461114a5761074c565b80638da5cb5b116103965780638da5cb5b146110565780638dbe7b9d146110745780638e97d7e114611092578063914f0cc6146110ae5761074c565b80638c03c55a14610fc65780638c22189914610ff65780638c88c10c146110265761074c565b806342faac05116105915780636ea495df116104b75780637a6c4b7b1161044a5780638182492a116104195780638182492a14610f5257806384d77bb114610f6e5780638861d23514610f8c5780638baa6bf114610fbc5761074c565b80637a6c4b7b14610ecc5780637bf4216514610ee85780637bfa27f214610f065780637cd375e214610f365761074c565b806378032658116104865780637803265814610e6c5780637851b90514610e9c57806378ca5de714610ea657806379ba509714610ec25761074c565b80636ea495df14610de85780636ea8655614610e04578063748e2c0f14610e2057806376529fdf14610e3c5761074c565b806355cc4e571161052f5780636188199f116104fe5780636188199f14610d3c578063631c838514610d58578063632439fd14610d885780636839a09514610db85761074c565b806355cc4e5714610cb657806357b61bc314610ce65780635bb4780814610d025780635bcabf0414610d1e5761074c565b80634b3e0b801161056b5780634b3e0b8014610c425780635177942a14610c7257806353fd433214610c8e5780635501c6cf14610cac5761074c565b806342faac0514610bec578063457e0e0f14610c0a578063496304a414610c265761074c565b806315e666a211610676578063264fa8b91161061457806335c51204116105e357806335c5120414610b515780633c1f70ca14610b6d5780633e413bee14610b9e5780633fac092214610bbc5761074c565b8063264fa8b914610aa557806326a4e8d214610ad55780632e6b96e714610b055780633250263914610b355761074c565b80631e2ad86e116106505780631e2ad86e14610a0d57806321de914f14610a295780632343acb414610a45578063239aad0d14610a755761074c565b806315e666a21461099a5780631c7a2959146109d35780631d143848146109ef5761074c565b80630acb8d40116106ee5780630ca76175116106bd5780630ca76175146109025780630e3293571461091e57806312b6d2e61461094e578063147726ae1461096a5761074c565b80630acb8d40146108665780630b1a4918146108845780630b1fa733146108b45780630be52713146108d25761074c565b806306995e3b1161072a57806306995e3b146107ba57806308dc4b0c146107ea578063092755e01461081a5780630a1d42701461084a5761074c565b8063011ced5f1461075057806302e80f711461076e5780630499a61d1461079e575b5f80fd5b6107586118d4565b6040516107659190619fe7565b60405180910390f35b6107886004803603810190610783919061a095565b6118da565b6040516107959190619fe7565b60405180910390f35b6107b860048036038101906107b3919061a0d3565b6118fa565b005b6107d460048036038101906107cf919061a0fe565b6119b3565b6040516107e19190619fe7565b60405180910390f35b61080460048036038101906107ff919061a0d3565b611ada565b604051610811919061a138565b60405180910390f35b610834600480360381019061082f919061a0d3565b611b0a565b604051610841919061a138565b60405180910390f35b610864600480360381019061085f919061a186565b611b3a565b005b61086e611ca3565b60405161087b919061a138565b60405180910390f35b61089e6004803603810190610899919061a0fe565b611cc8565b6040516108ab919061a1d3565b60405180910390f35b6108bc611e48565b6040516108c9919061a207565b60405180910390f35b6108ec60048036038101906108e7919061a0d3565b611e5a565b6040516108f99190619fe7565b60405180910390f35b61091c6004803603810190610917919061a38f565b611e6f565b005b6109386004803603810190610933919061a4b5565b611f30565b604051610945919061a58b565b60405180910390f35b6109686004803603810190610963919061a5ab565b611f5c565b005b610984600480360381019061097f919061a0fe565b61219f565b604051610991919061a637565b60405180910390f35b6109b460048036038101906109af919061a0fe565b61221f565b6040516109ca9a9998979695949392919061a72b565b60405180910390f35b6109ed60048036038101906109e8919061a5ab565b612305565b005b6109f7612548565b604051610a04919061a820565b60405180910390f35b610a276004803603810190610a22919061a839565b61256d565b005b610a436004803603810190610a3e919061a5ab565b612706565b005b610a5f6004803603810190610a5a919061a0fe565b612907565b604051610a6c919061a1d3565b60405180910390f35b610a8f6004803603810190610a8a919061a0fe565b612aa0565b604051610a9c919061a138565b60405180910390f35b610abf6004803603810190610aba919061a095565b612ad0565b604051610acc9190619fe7565b60405180910390f35b610aef6004803603810190610aea919061a0d3565b612af0565b604051610afc919061a1d3565b60405180910390f35b610b1f6004803603810190610b1a919061a8af565b612bb0565b604051610b2c9190619fe7565b60405180910390f35b610b4f6004803603810190610b4a919061a917565b612bed565b005b610b6b6004803603810190610b66919061aaa9565b612c57565b005b610b876004803603810190610b82919061a0fe565b612f8c565b604051610b9592919061aae8565b60405180910390f35b610ba6612fac565b604051610bb3919061a138565b60405180910390f35b610bd66004803603810190610bd1919061a0fe565b612fd1565b604051610be3919061a1d3565b60405180910390f35b610bf461316a565b604051610c01919061a1d3565b60405180910390f35b610c246004803603810190610c1f919061a5ab565b61317d565b005b610c406004803603810190610c3b919061a5ab565b6133c0565b005b610c5c6004803603810190610c57919061a0d3565b613603565b604051610c699190619fe7565b60405180910390f35b610c8c6004803603810190610c87919061a917565b613618565b005b610c9661370a565b604051610ca39190619fe7565b60405180910390f35b610cb4613710565b005b610cd06004803603810190610ccb919061a0d3565b613868565b604051610cdd919061a1d3565b60405180910390f35b610d006004803603810190610cfb919061abd3565b613928565b005b610d1c6004803603810190610d17919061a0d3565b613a40565b005b610d26613af9565b604051610d33919061a58b565b60405180910390f35b610d566004803603810190610d51919061a839565b613b85565b005b610d726004803603810190610d6d919061a0fe565b613d1e565b604051610d7f919061a1d3565b60405180910390f35b610da26004803603810190610d9d919061a095565b614286565b604051610daf9190619fe7565b60405180910390f35b610dd26004803603810190610dcd919061a0d3565b6142a6565b604051610ddf9190619fe7565b60405180910390f35b610e026004803603810190610dfd919061a839565b6146a5565b005b610e1e6004803603810190610e19919061a5ab565b6147fc565b005b610e3a6004803603810190610e35919061ac49565b614a3f565b005b610e566004803603810190610e51919061a0fe565b614c4b565b604051610e63919061a1d3565b60405180910390f35b610e866004803603810190610e81919061a0fe565b614c67565b604051610e93919061a138565b60405180910390f35b610ea4614c97565b005b610ec06004803603810190610ebb919061aced565b614def565b005b610eca614e01565b005b610ee66004803603810190610ee1919061a5ab565b614f92565b005b610ef06151d5565b604051610efd919061a207565b60405180910390f35b610f206004803603810190610f1b919061a0fe565b6151e8565b604051610f2d919061a1d3565b60405180910390f35b610f506004803603810190610f4b919061a186565b615205565b005b610f6c6004803603810190610f67919061ad65565b61536e565b005b610f76615518565b604051610f839190619fe7565b60405180910390f35b610fa66004803603810190610fa1919061a0fe565b61551e565b604051610fb39190619fe7565b60405180910390f35b610fc4615533565b005b610fe06004803603810190610fdb919061af34565b61572c565b604051610fed919061b04d565b60405180910390f35b611010600480360381019061100b919061a095565b615889565b60405161101d9190619fe7565b60405180910390f35b611040600480360381019061103b919061a0d3565b6158a9565b60405161104d9190619fe7565b60405180910390f35b61105e6158be565b60405161106b919061a138565b60405180910390f35b61107c6158e6565b604051611089919061b04d565b60405180910390f35b6110ac60048036038101906110a7919061a186565b6158ec565b005b6110c860048036038101906110c3919061a0d3565b615a55565b6040516110d59190619fe7565b60405180910390f35b6110f860048036038101906110f3919061a0fe565b615a6a565b604051611105919061a138565b60405180910390f35b611116615a9a565b604051611123919061a138565b60405180910390f35b611134615abf565b604051611141919061a207565b60405180910390f35b611164600480360381019061115f919061b066565b615ad2565b005b611180600480360381019061117b919061a0fe565b615af7565b60405161118d919061a138565b60405180910390f35b6111b060048036038101906111ab919061a839565b615b27565b005b6111cc60048036038101906111c7919061a5ab565b615c7e565b005b6111e860048036038101906111e3919061a0fe565b615e7f565b6040516111f59190619fe7565b60405180910390f35b611206615e94565b6040516112139190619fe7565b60405180910390f35b6112366004803603810190611231919061a095565b615e9a565b6040516112439190619fe7565b60405180910390f35b6112666004803603810190611261919061a0d3565b615eba565b6040516112739190619fe7565b60405180910390f35b6112966004803603810190611291919061a095565b6160a6565b6040516112a39190619fe7565b60405180910390f35b6112c660048036038101906112c1919061a4b5565b6160c6565b005b6112e260048036038101906112dd919061a0fe565b6160f2565b6040516112ef919061a1d3565b60405180910390f35b611312600480360381019061130d919061a0fe565b61610f565b60405161131f9190619fe7565b60405180910390f35b611342600480360381019061133d919061a0fe565b616124565b60405161134f9190619fe7565b60405180910390f35b611372600480360381019061136d919061b151565b616139565b005b61138e6004803603810190611389919061a0fe565b61614f565b60405161139b919061a1d3565b60405180910390f35b6113be60048036038101906113b9919061b066565b6162cf565b6040516113cb919061b2dc565b60405180910390f35b6113ee60048036038101906113e9919061a0fe565b616419565b6040516113fb9190619fe7565b60405180910390f35b61140c61642e565b604051611419919061a138565b60405180910390f35b61143c6004803603810190611437919061abd3565b616454565b005b6114586004803603810190611453919061a0fe565b61656c565b604051611465919061a1d3565b60405180910390f35b6114886004803603810190611483919061a0fe565b616589565b604051611495919061a1d3565b60405180910390f35b6114a6616af1565b6040516114b39190619fe7565b60405180910390f35b6114d660048036038101906114d1919061a0d3565b616b5f565b6040516114e3919061a1d3565b60405180910390f35b6115066004803603810190611501919061a839565b616c1f565b005b611510616db8565b60405161151d9190619fe7565b60405180910390f35b611540600480360381019061153b919061a0fe565b616dbe565b60405161154d9190619fe7565b60405180910390f35b61155e616ec2565b60405161156b9190619fe7565b60405180910390f35b61157c616ec8565b604051611589919061a138565b60405180910390f35b6115ac60048036038101906115a7919061a0fe565b616eed565b6040516115b99190619fe7565b60405180910390f35b6115dc60048036038101906115d7919061a186565b616f02565b005b6115f860048036038101906115f3919061a839565b61706b565b005b611614600480360381019061160f919061a095565b617246565b005b611630600480360381019061162b919061b2f6565b617444565b005b61164c6004803603810190611647919061a0d3565b617b1e565b005b6116686004803603810190611663919061a095565b617bd7565b6040516116759190619fe7565b60405180910390f35b6116986004803603810190611693919061a0fe565b617bf7565b6040516116a59190619fe7565b60405180910390f35b6116c860048036038101906116c3919061a095565b617c0c565b005b6116e460048036038101906116df919061a0fe565b617e0a565b6040516116f19190619fe7565b60405180910390f35b611714600480360381019061170f919061a0fe565b617ff1565b6040516117219190619fe7565b60405180910390f35b6117326180f5565b60405161173f919061a138565b60405180910390f35b61175061811a565b60405161175d919061a58b565b60405180910390f35b611780600480360381019061177b919061a839565b6181a6565b005b61179c6004803603810190611797919061b3ba565b61833f565b6040516117a9919061a1d3565b60405180910390f35b6117cc60048036038101906117c7919061a0d3565b618460565b005b6117e860048036038101906117e3919061a0d3565b61851a565b6040516117f59190619fe7565b60405180910390f35b6118186004803603810190611813919061a0fe565b6185c9565b604051611825919061b2dc565b60405180910390f35b6118486004803603810190611843919061a0d3565b618814565b005b611864600480360381019061185f919061a095565b618828565b6040516118719190619fe7565b60405180910390f35b611882618848565b60405161188f919061b418565b60405180910390f35b6118a061886d565b6040516118ad919061b451565b60405180910390f35b6118be618892565b6040516118cb919061b48a565b60405180910390f35b601b5481565b6022602052815f5260405f20602052805f5260405f205f91509150505481565b6119026188b7565b5f73ffffffffffffffffffffffffffffffffffffffff168173ffffffffffffffffffffffffffffffffffffffff1603611970576040517f08c379a00000000000000000000000000000000000000000000000000000000081526004016119679061b513565b60405180910390fd5b8060075f6101000a81548173ffffffffffffffffffffffffffffffffffffffff021916908373ffffffffffffffffffffffffffffffffffffffff16021790555050565b5f8082116119f6576040517f08c379a00000000000000000000000000000000000000000000000000000000081526004016119ed9061b57b565b60405180910390fd5b5f8060185f9054906101000a900473ffffffffffffffffffffffffffffffffffffffff1673ffffffffffffffffffffffffffffffffffffffff1663236970d45f60195f9054906101000a900473ffffffffffffffffffffffffffffffffffffffff166040518363ffffffff1660e01b8152600401611a7592919061b599565b6040805180830381865afa158015611a8f573d5f803e3d5ffd5b505050506040513d601f19601f82011682018060405250810190611ab3919061b5e8565b915091505f611ac28286618948565b83611acd919061b653565b9050809350505050919050565b6015602052805f5260405f205f915054906101000a900473ffffffffffffffffffffffffffffffffffffffff1681565b6010602052805f5260405f205f915054906101000a900473ffffffffffffffffffffffffffffffffffffffff1681565b60055f9054906101000a900473ffffffffffffffffffffffffffffffffffffffff1673ffffffffffffffffffffffffffffffffffffffff163373ffffffffffffffffffffffffffffffffffffffff161480611be1575060075f9054906101000a900473ffffffffffffffffffffffffffffffffffffffff1673ffffffffffffffffffffffffffffffffffffffff163373ffffffffffffffffffffffffffffffffffffffff16145b80611c38575060065f9054906101000a900473ffffffffffffffffffffffffffffffffffffffff1673ffffffffffffffffffffffffffffffffffffffff163373ffffffffffffffffffffffffffffffffffffffff16145b611c77576040517f08c379a0000000000000000000000000000000000000000000000000000000008152600401611c6e9061b6d0565b60405180910390fd5b8060205f8481526020019081526020015f205f6101000a81548160ff0219169083151502179055505050565b60075f9054906101000a900473ffffffffffffffffffffffffffffffffffffffff1681565b5f805b600d54811015611e3e575f600f5f8381526020019081526020015f205f9054906101000a900473ffffffffffffffffffffffffffffffffffffffff1690505f60255f8681526020019081526020015f205f8373ffffffffffffffffffffffffffffffffffffffff1673ffffffffffffffffffffffffffffffffffffffff1681526020019081526020015f2054905060016003811115611d6d57611d6c61a672565b5b60ff1660185f9054906101000a900473ffffffffffffffffffffffffffffffffffffffff1673ffffffffffffffffffffffffffffffffffffffff166345fa8aae836040518263ffffffff1660e01b8152600401611dca9190619fe7565b602060405180830381865afa158015611de5573d5f803e3d5ffd5b505050506040513d601f19601f82011682018060405250810190611e09919061b711565b6003811115611e1b57611e1a61a672565b5b60ff1603611e2f5760019350505050611e43565b50508080600101915050611ccb565b505f90505b919050565b601e5f9054906101000a900460ff1681565b6013602052805f5260405f205f915090505481565b5f8054906101000a900473ffffffffffffffffffffffffffffffffffffffff1673ffffffffffffffffffffffffffffffffffffffff163373ffffffffffffffffffffffffffffffffffffffff1614611ef3576040517fc6829f8300000000000000000000000000000000000000000000000000000000815260040160405180910390fd5b611efe83838361897c565b827f85e1543bf2f84fe80c6badbce3648c8539ad1df4d2b3d822938ca0538be727e660405160405180910390a2505050565b60608282604051602001611f4592919061b780565b604051602081830303815290604052905092915050565b60055f9054906101000a900473ffffffffffffffffffffffffffffffffffffffff1673ffffffffffffffffffffffffffffffffffffffff163373ffffffffffffffffffffffffffffffffffffffff161480612003575060075f9054906101000a900473ffffffffffffffffffffffffffffffffffffffff1673ffffffffffffffffffffffffffffffffffffffff163373ffffffffffffffffffffffffffffffffffffffff16145b8061205a575060065f9054906101000a900473ffffffffffffffffffffffffffffffffffffffff1673ffffffffffffffffffffffffffffffffffffffff163373ffffffffffffffffffffffffffffffffffffffff16145b612099576040517f08c379a00000000000000000000000000000000000000000000000000000000081526004016120909061b6d0565b60405180910390fd5b5f81116120db576040517f08c379a00000000000000000000000000000000000000000000000000000000081526004016120d29061b813565b60405180910390fd5b5f73ffffffffffffffffffffffffffffffffffffffff168273ffffffffffffffffffffffffffffffffffffffff1603612149576040517f08c379a00000000000000000000000000000000000000000000000000000000081526004016121409061b87b565b60405180910390fd5b8060345f8581526020019081526020015f205f8473ffffffffffffffffffffffffffffffffffffffff1673ffffffffffffffffffffffffffffffffffffffff1681526020019081526020015f2081905550505050565b6121a7619e55565b5f82116121e9576040517f08c379a00000000000000000000000000000000000000000000000000000000081526004016121e09061b8e3565b60405180910390fd5b60335f8381526020019081526020015f206040518060400160405290815f82015481526020016001820154815250509050919050565b6030602052805f5260405f205f91509050805f015f9054906101000a900467ffffffffffffffff1690805f0160089054906101000a900473ffffffffffffffffffffffffffffffffffffffff1690806001015f9054906101000a900473ffffffffffffffffffffffffffffffffffffffff1690806002015f9054906101000a900473ffffffffffffffffffffffffffffffffffffffff16908060020160149054906101000a900460ff16908060020160159054906101000a900460ff1690806003015490806004015490806005015490806006015f9054906101000a900460ff1690508a565b60055f9054906101000a900473ffffffffffffffffffffffffffffffffffffffff1673ffffffffffffffffffffffffffffffffffffffff163373ffffffffffffffffffffffffffffffffffffffff1614806123ac575060075f9054906101000a900473ffffffffffffffffffffffffffffffffffffffff1673ffffffffffffffffffffffffffffffffffffffff163373ffffffffffffffffffffffffffffffffffffffff16145b80612403575060065f9054906101000a900473ffffffffffffffffffffffffffffffffffffffff1673ffffffffffffffffffffffffffffffffffffffff163373ffffffffffffffffffffffffffffffffffffffff16145b612442576040517f08c379a00000000000000000000000000000000000000000000000000000000081526004016124399061b6d0565b60405180910390fd5b5f8111612484576040517f08c379a000000000000000000000000000000000000000000000000000000000815260040161247b9061b94b565b60405180910390fd5b5f73ffffffffffffffffffffffffffffffffffffffff168273ffffffffffffffffffffffffffffffffffffffff16036124f2576040517f08c379a00000000000000000000000000000000000000000000000000000000081526004016124e99061b87b565b60405180910390fd5b8060255f8581526020019081526020015f205f8473ffffffffffffffffffffffffffffffffffffffff1673ffffffffffffffffffffffffffffffffffffffff1681526020019081526020015f2081905550505050565b60185f9054906101000a900473ffffffffffffffffffffffffffffffffffffffff1681565b60055f9054906101000a900473ffffffffffffffffffffffffffffffffffffffff1673ffffffffffffffffffffffffffffffffffffffff163373ffffffffffffffffffffffffffffffffffffffff161480612614575060075f9054906101000a900473ffffffffffffffffffffffffffffffffffffffff1673ffffffffffffffffffffffffffffffffffffffff163373ffffffffffffffffffffffffffffffffffffffff16145b8061266b575060065f9054906101000a900473ffffffffffffffffffffffffffffffffffffffff1673ffffffffffffffffffffffffffffffffffffffff163373ffffffffffffffffffffffffffffffffffffffff16145b6126aa576040517f08c379a00000000000000000000000000000000000000000000000000000000081526004016126a19061b6d0565b60405180910390fd5b5f81116126ec576040517f08c379a00000000000000000000000000000000000000000000000000000000081526004016126e39061b9b3565b60405180910390fd5b8060275f8481526020019081526020015f20819055505050565b60055f9054906101000a900473ffffffffffffffffffffffffffffffffffffffff1673ffffffffffffffffffffffffffffffffffffffff163373ffffffffffffffffffffffffffffffffffffffff1614806127ad575060075f9054906101000a900473ffffffffffffffffffffffffffffffffffffffff1673ffffffffffffffffffffffffffffffffffffffff163373ffffffffffffffffffffffffffffffffffffffff16145b80612804575060065f9054906101000a900473ffffffffffffffffffffffffffffffffffffffff1673ffffffffffffffffffffffffffffffffffffffff163373ffffffffffffffffffffffffffffffffffffffff16145b612843576040517f08c379a000000000000000000000000000000000000000000000000000000000815260040161283a9061b6d0565b60405180910390fd5b5f73ffffffffffffffffffffffffffffffffffffffff168273ffffffffffffffffffffffffffffffffffffffff16036128b1576040517f08c379a00000000000000000000000000000000000000000000000000000000081526004016128a89061ba1b565b60405180910390fd5b8060295f8581526020019081526020015f205f8473ffffffffffffffffffffffffffffffffffffffff1673ffffffffffffffffffffffffffffffffffffffff1681526020019081526020015f2081905550505050565b5f805f5b600d54811015612a82575f600f5f8381526020019081526020015f205f9054906101000a900473ffffffffffffffffffffffffffffffffffffffff1690505f60245f8781526020019081526020015f205f8373ffffffffffffffffffffffffffffffffffffffff1673ffffffffffffffffffffffffffffffffffffffff1681526020019081526020015f20549050600260038111156129ad576129ac61a672565b5b60ff1660185f9054906101000a900473ffffffffffffffffffffffffffffffffffffffff1673ffffffffffffffffffffffffffffffffffffffff166345fa8aae836040518263ffffffff1660e01b8152600401612a0a9190619fe7565b602060405180830381865afa158015612a25573d5f803e3d5ffd5b505050506040513d601f19601f82011682018060405250810190612a49919061b711565b6003811115612a5b57612a5a61a672565b5b60ff1603612a7357600184612a70919061b653565b93505b5050808060010191505061290b565b50600d548103612a96576001915050612a9b565b5f9150505b919050565b600e602052805f5260405f205f915054906101000a900473ffffffffffffffffffffffffffffffffffffffff1681565b6024602052815f5260405f20602052805f5260405f205f91509150505481565b5f612af96188b7565b5f73ffffffffffffffffffffffffffffffffffffffff168273ffffffffffffffffffffffffffffffffffffffff1603612b67576040517f08c379a0000000000000000000000000000000000000000000000000000000008152600401612b5e9061ba83565b60405180910390fd5b8160165f6101000a81548173ffffffffffffffffffffffffffffffffffffffff021916908373ffffffffffffffffffffffffffffffffffffffff16021790555060019050919050565b5f808362ffffff1603612bc3575f612be5565b612be482620f424085620f4240612bda919061baa1565b62ffffff16618a73565b5b905092915050565b612bf56188b7565b5f8160ff1611612c3a576040517f08c379a0000000000000000000000000000000000000000000000000000000008152600401612c319061bb21565b60405180910390fd5b80601e5f6101000a81548160ff021916908360ff16021790555050565b60055f9054906101000a900473ffffffffffffffffffffffffffffffffffffffff1673ffffffffffffffffffffffffffffffffffffffff163373ffffffffffffffffffffffffffffffffffffffff161480612cfe575060075f9054906101000a900473ffffffffffffffffffffffffffffffffffffffff1673ffffffffffffffffffffffffffffffffffffffff163373ffffffffffffffffffffffffffffffffffffffff16145b80612d55575060065f9054906101000a900473ffffffffffffffffffffffffffffffffffffffff1673ffffffffffffffffffffffffffffffffffffffff163373ffffffffffffffffffffffffffffffffffffffff16145b612d94576040517f08c379a0000000000000000000000000000000000000000000000000000000008152600401612d8b9061b6d0565b60405180910390fd5b5f8211612dd6576040517f08c379a0000000000000000000000000000000000000000000000000000000008152600401612dcd9061b8e3565b60405180910390fd5b8060305f8481526020019081526020015f205f820151815f015f6101000a81548167ffffffffffffffff021916908367ffffffffffffffff1602179055506020820151815f0160086101000a81548173ffffffffffffffffffffffffffffffffffffffff021916908373ffffffffffffffffffffffffffffffffffffffff1602179055506040820151816001015f6101000a81548173ffffffffffffffffffffffffffffffffffffffff021916908373ffffffffffffffffffffffffffffffffffffffff1602179055506060820151816002015f6101000a81548173ffffffffffffffffffffffffffffffffffffffff021916908373ffffffffffffffffffffffffffffffffffffffff16021790555060808201518160020160146101000a81548160ff02191690831515021790555060a08201518160020160156101000a81548160ff02191690836001811115612f3157612f3061a672565b5b021790555060c0820151816003015560e082015181600401556101008201518160050155610120820151816006015f6101000a81548160ff02191690836003811115612f8057612f7f61a672565b5b02179055509050505050565b6033602052805f5260405f205f91509050805f0154908060010154905082565b60195f9054906101000a900473ffffffffffffffffffffffffffffffffffffffff1681565b5f805f5b600d5481101561314c575f600f5f8381526020019081526020015f205f9054906101000a900473ffffffffffffffffffffffffffffffffffffffff1690505f60255f8781526020019081526020015f205f8373ffffffffffffffffffffffffffffffffffffffff1673ffffffffffffffffffffffffffffffffffffffff1681526020019081526020015f20549050600260038111156130775761307661a672565b5b60ff1660185f9054906101000a900473ffffffffffffffffffffffffffffffffffffffff1673ffffffffffffffffffffffffffffffffffffffff166345fa8aae836040518263ffffffff1660e01b81526004016130d49190619fe7565b602060405180830381865afa1580156130ef573d5f803e3d5ffd5b505050506040513d601f19601f82011682018060405250810190613113919061b711565b60038111156131255761312461a672565b5b60ff160361313d5760018461313a919061b653565b93505b50508080600101915050612fd5565b50600d548103613160576001915050613165565b5f9150505b919050565b601a60149054906101000a900460ff1681565b60055f9054906101000a900473ffffffffffffffffffffffffffffffffffffffff1673ffffffffffffffffffffffffffffffffffffffff163373ffffffffffffffffffffffffffffffffffffffff161480613224575060075f9054906101000a900473ffffffffffffffffffffffffffffffffffffffff1673ffffffffffffffffffffffffffffffffffffffff163373ffffffffffffffffffffffffffffffffffffffff16145b8061327b575060065f9054906101000a900473ffffffffffffffffffffffffffffffffffffffff1673ffffffffffffffffffffffffffffffffffffffff163373ffffffffffffffffffffffffffffffffffffffff16145b6132ba576040517f08c379a00000000000000000000000000000000000000000000000000000000081526004016132b19061b6d0565b60405180910390fd5b5f81116132fc576040517f08c379a00000000000000000000000000000000000000000000000000000000081526004016132f39061b94b565b60405180910390fd5b5f73ffffffffffffffffffffffffffffffffffffffff168273ffffffffffffffffffffffffffffffffffffffff160361336a576040517f08c379a00000000000000000000000000000000000000000000000000000000081526004016133619061b87b565b60405180910390fd5b8060235f8581526020019081526020015f205f8473ffffffffffffffffffffffffffffffffffffffff1673ffffffffffffffffffffffffffffffffffffffff1681526020019081526020015f2081905550505050565b60055f9054906101000a900473ffffffffffffffffffffffffffffffffffffffff1673ffffffffffffffffffffffffffffffffffffffff163373ffffffffffffffffffffffffffffffffffffffff161480613467575060075f9054906101000a900473ffffffffffffffffffffffffffffffffffffffff1673ffffffffffffffffffffffffffffffffffffffff163373ffffffffffffffffffffffffffffffffffffffff16145b806134be575060065f9054906101000a900473ffffffffffffffffffffffffffffffffffffffff1673ffffffffffffffffffffffffffffffffffffffff163373ffffffffffffffffffffffffffffffffffffffff16145b6134fd576040517f08c379a00000000000000000000000000000000000000000000000000000000081526004016134f49061b6d0565b60405180910390fd5b5f811161353f576040517f08c379a00000000000000000000000000000000000000000000000000000000081526004016135369061bb89565b60405180910390fd5b5f73ffffffffffffffffffffffffffffffffffffffff168273ffffffffffffffffffffffffffffffffffffffff16036135ad576040517f08c379a00000000000000000000000000000000000000000000000000000000081526004016135a49061b87b565b60405180910390fd5b8060245f8581526020019081526020015f205f8473ffffffffffffffffffffffffffffffffffffffff1673ffffffffffffffffffffffffffffffffffffffff1681526020019081526020015f2081905550505050565b6014602052805f5260405f205f915090505481565b6136206188b7565b5f601b544261362f919061bba7565b9050600c603c8083613641919061bc07565b61364b919061bc07565b101561368c576040517f08c379a00000000000000000000000000000000000000000000000000000000081526004016136839061bca7565b60405180910390fd5b6127108260ff16111580156136a5575060018260ff1610155b6136e4576040517f08c379a00000000000000000000000000000000000000000000000000000000081526004016136db9061bd35565b60405180910390fd5b81601a60156101000a81548160ff021916908360ff16021790555042601b819055505050565b600d5481565b60055f9054906101000a900473ffffffffffffffffffffffffffffffffffffffff1673ffffffffffffffffffffffffffffffffffffffff163373ffffffffffffffffffffffffffffffffffffffff1614806137b7575060075f9054906101000a900473ffffffffffffffffffffffffffffffffffffffff1673ffffffffffffffffffffffffffffffffffffffff163373ffffffffffffffffffffffffffffffffffffffff16145b8061380e575060065f9054906101000a900473ffffffffffffffffffffffffffffffffffffffff1673ffffffffffffffffffffffffffffffffffffffff163373ffffffffffffffffffffffffffffffffffffffff16145b61384d576040517f08c379a00000000000000000000000000000000000000000000000000000000081526004016138449061b6d0565b60405180910390fd5b6001601c5f82825461385f919061b653565b92505081905550565b5f6138716188b7565b5f73ffffffffffffffffffffffffffffffffffffffff168273ffffffffffffffffffffffffffffffffffffffff16036138df576040517f08c379a00000000000000000000000000000000000000000000000000000000081526004016138d69061bd9d565b60405180910390fd5b8160185f6101000a81548173ffffffffffffffffffffffffffffffffffffffff021916908373ffffffffffffffffffffffffffffffffffffffff16021790555060019050919050565b6139306188b7565b8051825114613974576040517f08c379a000000000000000000000000000000000000000000000000000000000815260040161396b9061be05565b60405180910390fd5b5f5b8251811015613a3b578181815181106139925761399161be23565b5b602002602001015160155f8584815181106139b0576139af61be23565b5b602002602001015173ffffffffffffffffffffffffffffffffffffffff1673ffffffffffffffffffffffffffffffffffffffff1681526020019081526020015f205f6101000a81548173ffffffffffffffffffffffffffffffffffffffff021916908373ffffffffffffffffffffffffffffffffffffffff1602179055508080600101915050613976565b505050565b613a486188b7565b5f73ffffffffffffffffffffffffffffffffffffffff168173ffffffffffffffffffffffffffffffffffffffff1603613ab6576040517f08c379a0000000000000000000000000000000000000000000000000000000008152600401613aad9061be9a565b60405180910390fd5b8060055f6101000a81548173ffffffffffffffffffffffffffffffffffffffff021916908373ffffffffffffffffffffffffffffffffffffffff16021790555050565b60038054613b069061bee5565b80601f0160208091040260200160405190810160405280929190818152602001828054613b329061bee5565b8015613b7d5780601f10613b5457610100808354040283529160200191613b7d565b820191905f5260205f20905b815481529060010190602001808311613b6057829003601f168201915b505050505081565b60055f9054906101000a900473ffffffffffffffffffffffffffffffffffffffff1673ffffffffffffffffffffffffffffffffffffffff163373ffffffffffffffffffffffffffffffffffffffff161480613c2c575060075f9054906101000a900473ffffffffffffffffffffffffffffffffffffffff1673ffffffffffffffffffffffffffffffffffffffff163373ffffffffffffffffffffffffffffffffffffffff16145b80613c83575060065f9054906101000a900473ffffffffffffffffffffffffffffffffffffffff1673ffffffffffffffffffffffffffffffffffffffff163373ffffffffffffffffffffffffffffffffffffffff16145b613cc2576040517f08c379a0000000000000000000000000000000000000000000000000000000008152600401613cb99061b6d0565b60405180910390fd5b5f8111613d04576040517f08c379a0000000000000000000000000000000000000000000000000000000008152600401613cfb9061bf5f565b60405180910390fd5b8060215f8481526020019081526020015f20819055505050565b5f805f5b600d54811015614268575f600f5f8381526020019081526020015f205f9054906101000a900473ffffffffffffffffffffffffffffffffffffffff1690505f60245f8781526020019081526020015f205f8373ffffffffffffffffffffffffffffffffffffffff1673ffffffffffffffffffffffffffffffffffffffff1681526020019081526020015f205490505f60185f9054906101000a900473ffffffffffffffffffffffffffffffffffffffff1673ffffffffffffffffffffffffffffffffffffffff166361ecbb44836040518263ffffffff1660e01b8152600401613e0b9190619fe7565b602060405180830381865afa158015613e26573d5f803e3d5ffd5b505050506040513d601f19601f82011682018060405250810190613e4a919061bf7d565b9050600380811115613e5f57613e5e61a672565b5b60ff1660185f9054906101000a900473ffffffffffffffffffffffffffffffffffffffff1673ffffffffffffffffffffffffffffffffffffffff166345fa8aae846040518263ffffffff1660e01b8152600401613ebc9190619fe7565b602060405180830381865afa158015613ed7573d5f803e3d5ffd5b505050506040513d601f19601f82011682018060405250810190613efb919061b711565b6003811115613f0d57613f0c61a672565b5b60ff1603614061575f8103613f3057600185613f29919061b653565b945061405c565b5f60225f8981526020019081526020015f205f8573ffffffffffffffffffffffffffffffffffffffff1673ffffffffffffffffffffffffffffffffffffffff1681526020019081526020015f2054905060026003811115613f9457613f9361a672565b5b60ff1660185f9054906101000a900473ffffffffffffffffffffffffffffffffffffffff1673ffffffffffffffffffffffffffffffffffffffff166345fa8aae836040518263ffffffff1660e01b8152600401613ff19190619fe7565b602060405180830381865afa15801561400c573d5f803e3d5ffd5b505050506040513d601f19601f82011682018060405250810190614030919061b711565b60038111156140425761404161a672565b5b60ff160361405a57600186614057919061b653565b95505b505b614258565b600260038111156140755761407461a672565b5b60ff1660185f9054906101000a900473ffffffffffffffffffffffffffffffffffffffff1673ffffffffffffffffffffffffffffffffffffffff166345fa8aae846040518263ffffffff1660e01b81526004016140d29190619fe7565b602060405180830381865afa1580156140ed573d5f803e3d5ffd5b505050506040513d601f19601f82011682018060405250810190614111919061b711565b60038111156141235761412261a672565b5b60ff1603614257575f60225f8981526020019081526020015f205f8573ffffffffffffffffffffffffffffffffffffffff1673ffffffffffffffffffffffffffffffffffffffff1681526020019081526020015f205490506002600381111561418f5761418e61a672565b5b60ff1660185f9054906101000a900473ffffffffffffffffffffffffffffffffffffffff1673ffffffffffffffffffffffffffffffffffffffff166345fa8aae836040518263ffffffff1660e01b81526004016141ec9190619fe7565b602060405180830381865afa158015614207573d5f803e3d5ffd5b505050506040513d601f19601f8201168201806040525081019061422b919061b711565b600381111561423d5761423c61a672565b5b60ff160361425557600186614252919061b653565b95505b505b5b5050508080600101915050613d22565b50600d54810361427c576001915050614281565b5f9150505b919050565b6035602052815f5260405f20602052805f5260405f205f91509150505481565b5f8073ffffffffffffffffffffffffffffffffffffffff168273ffffffffffffffffffffffffffffffffffffffff1603614315576040517f08c379a000000000000000000000000000000000000000000000000000000000815260040161430c9061ba83565b60405180910390fd5b601a60149054906101000a900460ff16156145bc575f60155f8473ffffffffffffffffffffffffffffffffffffffff1673ffffffffffffffffffffffffffffffffffffffff1681526020019081526020015f205f9054906101000a900473ffffffffffffffffffffffffffffffffffffffff1690505f805f8373ffffffffffffffffffffffffffffffffffffffff1663feaf968c6040518163ffffffff1660e01b815260040160a060405180830381865afa1580156143d6573d5f803e3d5ffd5b505050506040513d601f19601f820116820180604052508101906143fa919061c01a565b50935050925092505f8369ffffffffffffffffffff1603614450576040517f08c379a00000000000000000000000000000000000000000000000000000000081526004016144479061c0db565b60405180910390fd5b5f81141580156144605750428111155b61449f576040517f08c379a00000000000000000000000000000000000000000000000000000000081526004016144969061c143565b60405180910390fd5b5f82136144e1576040517f08c379a00000000000000000000000000000000000000000000000000000000081526004016144d89061c1ab565b60405180910390fd5b6201518081426144f1919061bba7565b10614531576040517f08c379a00000000000000000000000000000000000000000000000000000000081526004016145289061c143565b60405180910390fd5b5f8473ffffffffffffffffffffffffffffffffffffffff1663313ce5676040518163ffffffff1660e01b8152600401602060405180830381865afa15801561457b573d5f803e3d5ffd5b505050506040513d601f19601f8201168201806040525081019061459f919061c1dd565b90506145ad83826012618b85565b925082955050505050506146a0565b5f60185f9054906101000a900473ffffffffffffffffffffffffffffffffffffffff1673ffffffffffffffffffffffffffffffffffffffff1663a377cfbf8460195f9054906101000a900473ffffffffffffffffffffffffffffffffffffffff166040518363ffffffff1660e01b815260040161463a92919061c208565b6040805180830381865afa158015614654573d5f803e3d5ffd5b505050506040513d601f19601f82011682018060405250810190614678919061c290565b90505f614698825f0151601e5f9054906101000a900460ff166012618b85565b905080925050505b919050565b60055f9054906101000a900473ffffffffffffffffffffffffffffffffffffffff1673ffffffffffffffffffffffffffffffffffffffff163373ffffffffffffffffffffffffffffffffffffffff16148061474c575060075f9054906101000a900473ffffffffffffffffffffffffffffffffffffffff1673ffffffffffffffffffffffffffffffffffffffff163373ffffffffffffffffffffffffffffffffffffffff16145b806147a3575060065f9054906101000a900473ffffffffffffffffffffffffffffffffffffffff1673ffffffffffffffffffffffffffffffffffffffff163373ffffffffffffffffffffffffffffffffffffffff16145b6147e2576040517f08c379a00000000000000000000000000000000000000000000000000000000081526004016147d99061b6d0565b60405180910390fd5b80602b5f8481526020019081526020015f20819055505050565b60055f9054906101000a900473ffffffffffffffffffffffffffffffffffffffff1673ffffffffffffffffffffffffffffffffffffffff163373ffffffffffffffffffffffffffffffffffffffff1614806148a3575060075f9054906101000a900473ffffffffffffffffffffffffffffffffffffffff1673ffffffffffffffffffffffffffffffffffffffff163373ffffffffffffffffffffffffffffffffffffffff16145b806148fa575060065f9054906101000a900473ffffffffffffffffffffffffffffffffffffffff1673ffffffffffffffffffffffffffffffffffffffff163373ffffffffffffffffffffffffffffffffffffffff16145b614939576040517f08c379a00000000000000000000000000000000000000000000000000000000081526004016149309061b6d0565b60405180910390fd5b5f811161497b576040517f08c379a00000000000000000000000000000000000000000000000000000000081526004016149729061c32b565b60405180910390fd5b5f73ffffffffffffffffffffffffffffffffffffffff168273ffffffffffffffffffffffffffffffffffffffff16036149e9576040517f08c379a00000000000000000000000000000000000000000000000000000000081526004016149e09061b87b565b60405180910390fd5b8060355f8581526020019081526020015f205f8473ffffffffffffffffffffffffffffffffffffffff1673ffffffffffffffffffffffffffffffffffffffff1681526020019081526020015f2081905550505050565b614a476188b7565b8151835114614a8b576040517f08c379a0000000000000000000000000000000000000000000000000000000008152600401614a829061be05565b60405180910390fd5b8051835114614acf576040517f08c379a0000000000000000000000000000000000000000000000000000000008152600401614ac69061be05565b60405180910390fd5b5f5b8351811015614c4557828181518110614aed57614aec61be23565b5b602002602001015160105f868481518110614b0b57614b0a61be23565b5b602002602001015173ffffffffffffffffffffffffffffffffffffffff1673ffffffffffffffffffffffffffffffffffffffff1681526020019081526020015f205f6101000a81548173ffffffffffffffffffffffffffffffffffffffff021916908373ffffffffffffffffffffffffffffffffffffffff160217905550818181518110614b9c57614b9b61be23565b5b602002602001015160155f868481518110614bba57614bb961be23565b5b602002602001015173ffffffffffffffffffffffffffffffffffffffff1673ffffffffffffffffffffffffffffffffffffffff1681526020019081526020015f205f6101000a81548173ffffffffffffffffffffffffffffffffffffffff021916908373ffffffffffffffffffffffffffffffffffffffff1602179055508080600101915050614ad1565b50505050565b60208052805f5260405f205f915054906101000a900460ff1681565b602d602052805f5260405f205f915054906101000a900473ffffffffffffffffffffffffffffffffffffffff1681565b60055f9054906101000a900473ffffffffffffffffffffffffffffffffffffffff1673ffffffffffffffffffffffffffffffffffffffff163373ffffffffffffffffffffffffffffffffffffffff161480614d3e575060075f9054906101000a900473ffffffffffffffffffffffffffffffffffffffff1673ffffffffffffffffffffffffffffffffffffffff163373ffffffffffffffffffffffffffffffffffffffff16145b80614d95575060065f9054906101000a900473ffffffffffffffffffffffffffffffffffffffff1673ffffffffffffffffffffffffffffffffffffffff163373ffffffffffffffffffffffffffffffffffffffff16145b614dd4576040517f08c379a0000000000000000000000000000000000000000000000000000000008152600401614dcb9061b6d0565b60405180910390fd5b6001601d5f828254614de6919061b653565b92505081905550565b614df76188b7565b8060088190555050565b60025f9054906101000a900473ffffffffffffffffffffffffffffffffffffffff1673ffffffffffffffffffffffffffffffffffffffff163373ffffffffffffffffffffffffffffffffffffffff1614614e90576040517f08c379a0000000000000000000000000000000000000000000000000000000008152600401614e879061c393565b60405180910390fd5b5f60015f9054906101000a900473ffffffffffffffffffffffffffffffffffffffff1690503360015f6101000a81548173ffffffffffffffffffffffffffffffffffffffff021916908373ffffffffffffffffffffffffffffffffffffffff1602179055505f60025f6101000a81548173ffffffffffffffffffffffffffffffffffffffff021916908373ffffffffffffffffffffffffffffffffffffffff1602179055503373ffffffffffffffffffffffffffffffffffffffff168173ffffffffffffffffffffffffffffffffffffffff167f8be0079c531659141344cd1fd0a4f28419497f9722a3daafe3b4186f6b6457e060405160405180910390a350565b60055f9054906101000a900473ffffffffffffffffffffffffffffffffffffffff1673ffffffffffffffffffffffffffffffffffffffff163373ffffffffffffffffffffffffffffffffffffffff161480615039575060075f9054906101000a900473ffffffffffffffffffffffffffffffffffffffff1673ffffffffffffffffffffffffffffffffffffffff163373ffffffffffffffffffffffffffffffffffffffff16145b80615090575060065f9054906101000a900473ffffffffffffffffffffffffffffffffffffffff1673ffffffffffffffffffffffffffffffffffffffff163373ffffffffffffffffffffffffffffffffffffffff16145b6150cf576040517f08c379a00000000000000000000000000000000000000000000000000000000081526004016150c69061b6d0565b60405180910390fd5b5f8111615111576040517f08c379a00000000000000000000000000000000000000000000000000000000081526004016151089061c3fb565b60405180910390fd5b5f73ffffffffffffffffffffffffffffffffffffffff168273ffffffffffffffffffffffffffffffffffffffff160361517f576040517f08c379a00000000000000000000000000000000000000000000000000000000081526004016151769061b87b565b60405180910390fd5b8060225f8581526020019081526020015f205f8473ffffffffffffffffffffffffffffffffffffffff1673ffffffffffffffffffffffffffffffffffffffff1681526020019081526020015f2081905550505050565b601960149054906101000a900460ff1681565b602e602052805f5260405f205f915054906101000a900460ff1681565b60055f9054906101000a900473ffffffffffffffffffffffffffffffffffffffff1673ffffffffffffffffffffffffffffffffffffffff163373ffffffffffffffffffffffffffffffffffffffff1614806152ac575060075f9054906101000a900473ffffffffffffffffffffffffffffffffffffffff1673ffffffffffffffffffffffffffffffffffffffff163373ffffffffffffffffffffffffffffffffffffffff16145b80615303575060065f9054906101000a900473ffffffffffffffffffffffffffffffffffffffff1673ffffffffffffffffffffffffffffffffffffffff163373ffffffffffffffffffffffffffffffffffffffff16145b615342576040517f08c379a00000000000000000000000000000000000000000000000000000000081526004016153399061b6d0565b60405180910390fd5b80602e5f8481526020019081526020015f205f6101000a81548160ff0219169083151502179055505050565b60055f9054906101000a900473ffffffffffffffffffffffffffffffffffffffff1673ffffffffffffffffffffffffffffffffffffffff163373ffffffffffffffffffffffffffffffffffffffff161480615415575060075f9054906101000a900473ffffffffffffffffffffffffffffffffffffffff1673ffffffffffffffffffffffffffffffffffffffff163373ffffffffffffffffffffffffffffffffffffffff16145b8061546c575060065f9054906101000a900473ffffffffffffffffffffffffffffffffffffffff1673ffffffffffffffffffffffffffffffffffffffff163373ffffffffffffffffffffffffffffffffffffffff16145b6154ab576040517f08c379a00000000000000000000000000000000000000000000000000000000081526004016154a29061b6d0565b60405180910390fd5b5f82116154ed576040517f08c379a00000000000000000000000000000000000000000000000000000000081526004016154e49061b8e3565b60405180910390fd5b8060335f8481526020019081526020015f205f820151815f0155602082015181600101559050505050565b601d5481565b6026602052805f5260405f205f915090505481565b60065f9054906101000a900473ffffffffffffffffffffffffffffffffffffffff1673ffffffffffffffffffffffffffffffffffffffff163373ffffffffffffffffffffffffffffffffffffffff16146155c2576040517f08c379a00000000000000000000000000000000000000000000000000000000081526004016155b99061c463565b60405180910390fd5b600c54600d819055505f5b600c54811015615729575f600e5f8381526020019081526020015f205f9054906101000a900473ffffffffffffffffffffffffffffffffffffffff16905080600f5f8481526020019081526020015f205f6101000a81548173ffffffffffffffffffffffffffffffffffffffff021916908373ffffffffffffffffffffffffffffffffffffffff16021790555060145f8273ffffffffffffffffffffffffffffffffffffffff1673ffffffffffffffffffffffffffffffffffffffff1681526020019081526020015f205460135f8373ffffffffffffffffffffffffffffffffffffffff1673ffffffffffffffffffffffffffffffffffffffff1681526020019081526020015f20819055508160125f8373ffffffffffffffffffffffffffffffffffffffff1673ffffffffffffffffffffffffffffffffffffffff1681526020019081526020015f20819055505080806001019150506155cd565b50565b5f615735619e6d565b61578f5f808e8e8080601f0160208091040260200160405190810160405280939291908181526020018383808284375f81840152601f19601f8201169050808301925050505050505084618c79909392919063ffffffff16565b6001816020019060028111156157a8576157a761a672565b5b908160028111156157bc576157bb61a672565b5b8152505089898080601f0160208091040260200160405190810160405280939291908181526020018383808284375f81840152601f19601f8201169050808301925050505050505081608001819052505f88889050111561583757615836888890615827919061c532565b82618d1f90919063ffffffff16565b5b5f86869050111561586257615861868690615852919061c5f7565b82618d6690919063ffffffff16565b5b61587861586e82618dad565b85856008546191b2565b9150509a9950505050505050505050565b6023602052815f5260405f20602052805f5260405f205f91509150505481565b6011602052805f5260405f205f915090505481565b5f60015f9054906101000a900473ffffffffffffffffffffffffffffffffffffffff16905090565b60085481565b60055f9054906101000a900473ffffffffffffffffffffffffffffffffffffffff1673ffffffffffffffffffffffffffffffffffffffff163373ffffffffffffffffffffffffffffffffffffffff161480615993575060075f9054906101000a900473ffffffffffffffffffffffffffffffffffffffff1673ffffffffffffffffffffffffffffffffffffffff163373ffffffffffffffffffffffffffffffffffffffff16145b806159ea575060065f9054906101000a900473ffffffffffffffffffffffffffffffffffffffff1673ffffffffffffffffffffffffffffffffffffffff163373ffffffffffffffffffffffffffffffffffffffff16145b615a29576040517f08c379a0000000000000000000000000000000000000000000000000000000008152600401615a209061b6d0565b60405180910390fd5b80602f5f8481526020019081526020015f205f6101000a81548160ff0219169083151502179055505050565b6012602052805f5260405f205f915090505481565b602c602052805f5260405f205f915054906101000a900473ffffffffffffffffffffffffffffffffffffffff1681565b60055f9054906101000a900473ffffffffffffffffffffffffffffffffffffffff1681565b601a60159054906101000a900460ff1681565b615ada6188b7565b80601a60146101000a81548160ff02191690831515021790555050565b600f602052805f5260405f205f915054906101000a900473ffffffffffffffffffffffffffffffffffffffff1681565b60055f9054906101000a900473ffffffffffffffffffffffffffffffffffffffff1673ffffffffffffffffffffffffffffffffffffffff163373ffffffffffffffffffffffffffffffffffffffff161480615bce575060075f9054906101000a900473ffffffffffffffffffffffffffffffffffffffff1673ffffffffffffffffffffffffffffffffffffffff163373ffffffffffffffffffffffffffffffffffffffff16145b80615c25575060065f9054906101000a900473ffffffffffffffffffffffffffffffffffffffff1673ffffffffffffffffffffffffffffffffffffffff163373ffffffffffffffffffffffffffffffffffffffff16145b615c64576040517f08c379a0000000000000000000000000000000000000000000000000000000008152600401615c5b9061b6d0565b60405180910390fd5b80602a5f8481526020019081526020015f20819055505050565b60055f9054906101000a900473ffffffffffffffffffffffffffffffffffffffff1673ffffffffffffffffffffffffffffffffffffffff163373ffffffffffffffffffffffffffffffffffffffff161480615d25575060075f9054906101000a900473ffffffffffffffffffffffffffffffffffffffff1673ffffffffffffffffffffffffffffffffffffffff163373ffffffffffffffffffffffffffffffffffffffff16145b80615d7c575060065f9054906101000a900473ffffffffffffffffffffffffffffffffffffffff1673ffffffffffffffffffffffffffffffffffffffff163373ffffffffffffffffffffffffffffffffffffffff16145b615dbb576040517f08c379a0000000000000000000000000000000000000000000000000000000008152600401615db29061b6d0565b60405180910390fd5b5f73ffffffffffffffffffffffffffffffffffffffff168273ffffffffffffffffffffffffffffffffffffffff1603615e29576040517f08c379a0000000000000000000000000000000000000000000000000000000008152600401615e209061c67b565b60405180910390fd5b8060285f8581526020019081526020015f205f8473ffffffffffffffffffffffffffffffffffffffff1673ffffffffffffffffffffffffffffffffffffffff1681526020019081526020015f2081905550505050565b6032602052805f5260405f205f915090505481565b601c5481565b6034602052815f5260405f20602052805f5260405f205f91509150505481565b5f8073ffffffffffffffffffffffffffffffffffffffff168273ffffffffffffffffffffffffffffffffffffffff1603615f29576040517f08c379a0000000000000000000000000000000000000000000000000000000008152600401615f209061ba83565b60405180910390fd5b5f60105f8473ffffffffffffffffffffffffffffffffffffffff1673ffffffffffffffffffffffffffffffffffffffff1681526020019081526020015f205f9054906101000a900473ffffffffffffffffffffffffffffffffffffffff1690505f8173ffffffffffffffffffffffffffffffffffffffff166370a0823160175f9054906101000a900473ffffffffffffffffffffffffffffffffffffffff166040518263ffffffff1660e01b8152600401615fe4919061a138565b602060405180830381865afa158015615fff573d5f803e3d5ffd5b505050506040513d601f19601f82011682018060405250810190616023919061bf7d565b90508173ffffffffffffffffffffffffffffffffffffffff16634cdad506826040518263ffffffff1660e01b815260040161605e9190619fe7565b602060405180830381865afa158015616079573d5f803e3d5ffd5b505050506040513d601f19601f8201168201806040525081019061609d919061bf7d565b92505050919050565b6029602052815f5260405f20602052805f5260405f205f91509150505481565b6160ce6188b7565b81600390816160dd919061c82d565b5080600490816160ed919061c82d565b505050565b601f602052805f5260405f205f915054906101000a900460ff1681565b6027602052805f5260405f205f915090505481565b6021602052805f5260405f205f915090505481565b6161416188b7565b61614b8282619290565b5050565b5f805b600d548110156162c5575f600f5f8381526020019081526020015f205f9054906101000a900473ffffffffffffffffffffffffffffffffffffffff1690505f60245f8681526020019081526020015f205f8373ffffffffffffffffffffffffffffffffffffffff1673ffffffffffffffffffffffffffffffffffffffff1681526020019081526020015f20549050600160038111156161f4576161f361a672565b5b60ff1660185f9054906101000a900473ffffffffffffffffffffffffffffffffffffffff1673ffffffffffffffffffffffffffffffffffffffff166345fa8aae836040518263ffffffff1660e01b81526004016162519190619fe7565b602060405180830381865afa15801561626c573d5f803e3d5ffd5b505050506040513d601f19601f82011682018060405250810190616290919061b711565b60038111156162a2576162a161a672565b5b60ff16036162b657600193505050506162ca565b50508080600101915050616152565b505f90505b919050565b6162d7619edc565b6040518061014001604052804267ffffffffffffffff1681526020013073ffffffffffffffffffffffffffffffffffffffff16815260200160165f9054906101000a900473ffffffffffffffffffffffffffffffffffffffff1673ffffffffffffffffffffffffffffffffffffffff16815260200160195f9054906101000a900473ffffffffffffffffffffffffffffffffffffffff1673ffffffffffffffffffffffffffffffffffffffff16815260200183151581526020015f60018111156163a4576163a361a672565b5b8152602001836163b4575f6163bf565b68056bc75e2d631000005b68ffffffffffffffffff168152602001836163e35768056bc75e2d631000006163e5565b5f5b68ffffffffffffffffff1681526020015f81526020016001600381111561640f5761640e61a672565b5b8152509050919050565b602a602052805f5260405f205f915090505481565b601e60019054906101000a900473ffffffffffffffffffffffffffffffffffffffff1681565b61645c6188b7565b80518251146164a0576040517f08c379a00000000000000000000000000000000000000000000000000000000081526004016164979061be05565b60405180910390fd5b5f5b8251811015616567578181815181106164be576164bd61be23565b5b602002602001015160105f8584815181106164dc576164db61be23565b5b602002602001015173ffffffffffffffffffffffffffffffffffffffff1673ffffffffffffffffffffffffffffffffffffffff1681526020019081526020015f205f6101000a81548173ffffffffffffffffffffffffffffffffffffffff021916908373ffffffffffffffffffffffffffffffffffffffff16021790555080806001019150506164a2565b505050565b602f602052805f5260405f205f915054906101000a900460ff1681565b5f805f5b600d54811015616ad3575f600f5f8381526020019081526020015f205f9054906101000a900473ffffffffffffffffffffffffffffffffffffffff1690505f60255f8781526020019081526020015f205f8373ffffffffffffffffffffffffffffffffffffffff1673ffffffffffffffffffffffffffffffffffffffff1681526020019081526020015f205490505f60185f9054906101000a900473ffffffffffffffffffffffffffffffffffffffff1673ffffffffffffffffffffffffffffffffffffffff166361ecbb44836040518263ffffffff1660e01b81526004016166769190619fe7565b602060405180830381865afa158015616691573d5f803e3d5ffd5b505050506040513d601f19601f820116820180604052508101906166b5919061bf7d565b90506003808111156166ca576166c961a672565b5b60ff1660185f9054906101000a900473ffffffffffffffffffffffffffffffffffffffff1673ffffffffffffffffffffffffffffffffffffffff166345fa8aae846040518263ffffffff1660e01b81526004016167279190619fe7565b602060405180830381865afa158015616742573d5f803e3d5ffd5b505050506040513d601f19601f82011682018060405250810190616766919061b711565b60038111156167785761677761a672565b5b60ff16036168cc575f810361679b57600185616794919061b653565b94506168c7565b5f60235f8981526020019081526020015f205f8573ffffffffffffffffffffffffffffffffffffffff1673ffffffffffffffffffffffffffffffffffffffff1681526020019081526020015f20549050600260038111156167ff576167fe61a672565b5b60ff1660185f9054906101000a900473ffffffffffffffffffffffffffffffffffffffff1673ffffffffffffffffffffffffffffffffffffffff166345fa8aae836040518263ffffffff1660e01b815260040161685c9190619fe7565b602060405180830381865afa158015616877573d5f803e3d5ffd5b505050506040513d601f19601f8201168201806040525081019061689b919061b711565b60038111156168ad576168ac61a672565b5b60ff16036168c5576001866168c2919061b653565b95505b505b616ac3565b600260038111156168e0576168df61a672565b5b60ff1660185f9054906101000a900473ffffffffffffffffffffffffffffffffffffffff1673ffffffffffffffffffffffffffffffffffffffff166345fa8aae846040518263ffffffff1660e01b815260040161693d9190619fe7565b602060405180830381865afa158015616958573d5f803e3d5ffd5b505050506040513d601f19601f8201168201806040525081019061697c919061b711565b600381111561698e5761698d61a672565b5b60ff1603616ac2575f60235f8981526020019081526020015f205f8573ffffffffffffffffffffffffffffffffffffffff1673ffffffffffffffffffffffffffffffffffffffff1681526020019081526020015f20549050600260038111156169fa576169f961a672565b5b60ff1660185f9054906101000a900473ffffffffffffffffffffffffffffffffffffffff1673ffffffffffffffffffffffffffffffffffffffff166345fa8aae836040518263ffffffff1660e01b8152600401616a579190619fe7565b602060405180830381865afa158015616a72573d5f803e3d5ffd5b505050506040513d601f19601f82011682018060405250810190616a96919061b711565b6003811115616aa857616aa761a672565b5b60ff1603616ac057600186616abd919061b653565b95505b505b5b505050808060010191505061658d565b50600d548103616ae7576001915050616aec565b5f9150505b919050565b5f805f5b600d54811015616b57575f616b39600f5f8481526020019081526020015f205f9054906101000a900473ffffffffffffffffffffffffffffffffffffffff1661851a565b90508083616b47919061b653565b9250508080600101915050616af5565b508091505090565b5f616b686188b7565b5f73ffffffffffffffffffffffffffffffffffffffff168273ffffffffffffffffffffffffffffffffffffffff1603616bd6576040517f08c379a0000000000000000000000000000000000000000000000000000000008152600401616bcd9061c946565b60405180910390fd5b81601a5f6101000a81548173ffffffffffffffffffffffffffffffffffffffff021916908373ffffffffffffffffffffffffffffffffffffffff16021790555060019050919050565b60055f9054906101000a900473ffffffffffffffffffffffffffffffffffffffff1673ffffffffffffffffffffffffffffffffffffffff163373ffffffffffffffffffffffffffffffffffffffff161480616cc6575060075f9054906101000a900473ffffffffffffffffffffffffffffffffffffffff1673ffffffffffffffffffffffffffffffffffffffff163373ffffffffffffffffffffffffffffffffffffffff16145b80616d1d575060065f9054906101000a900473ffffffffffffffffffffffffffffffffffffffff1673ffffffffffffffffffffffffffffffffffffffff163373ffffffffffffffffffffffffffffffffffffffff16145b616d5c576040517f08c379a0000000000000000000000000000000000000000000000000000000008152600401616d539061b6d0565b60405180910390fd5b5f8111616d9e576040517f08c379a0000000000000000000000000000000000000000000000000000000008152600401616d959061c9ae565b60405180910390fd5b8060325f8481526020019081526020015f20819055505050565b600c5481565b5f808211616e01576040517f08c379a0000000000000000000000000000000000000000000000000000000008152600401616df89061b57b565b60405180910390fd5b5f616e0a616af1565b90505f60165f9054906101000a900473ffffffffffffffffffffffffffffffffffffffff1673ffffffffffffffffffffffffffffffffffffffff166318160ddd6040518163ffffffff1660e01b8152600401602060405180830381865afa158015616e77573d5f803e3d5ffd5b505050506040513d601f19601f82011682018060405250810190616e9b919061bf7d565b90505f828286616eab919061c9cc565b616eb5919061bc07565b9050809350505050919050565b600a5481565b60065f9054906101000a900473ffffffffffffffffffffffffffffffffffffffff1681565b6031602052805f5260405f205f915090505481565b60055f9054906101000a900473ffffffffffffffffffffffffffffffffffffffff1673ffffffffffffffffffffffffffffffffffffffff163373ffffffffffffffffffffffffffffffffffffffff161480616fa9575060075f9054906101000a900473ffffffffffffffffffffffffffffffffffffffff1673ffffffffffffffffffffffffffffffffffffffff163373ffffffffffffffffffffffffffffffffffffffff16145b80617000575060065f9054906101000a900473ffffffffffffffffffffffffffffffffffffffff1673ffffffffffffffffffffffffffffffffffffffff163373ffffffffffffffffffffffffffffffffffffffff16145b61703f576040517f08c379a00000000000000000000000000000000000000000000000000000000081526004016170369061b6d0565b60405180910390fd5b80601f5f8481526020019081526020015f205f6101000a81548160ff0219169083151502179055505050565b60055f9054906101000a900473ffffffffffffffffffffffffffffffffffffffff1673ffffffffffffffffffffffffffffffffffffffff163373ffffffffffffffffffffffffffffffffffffffff161480617112575060075f9054906101000a900473ffffffffffffffffffffffffffffffffffffffff1673ffffffffffffffffffffffffffffffffffffffff163373ffffffffffffffffffffffffffffffffffffffff16145b80617169575060065f9054906101000a900473ffffffffffffffffffffffffffffffffffffffff1673ffffffffffffffffffffffffffffffffffffffff163373ffffffffffffffffffffffffffffffffffffffff16145b6171a8576040517f08c379a000000000000000000000000000000000000000000000000000000000815260040161719f9061b6d0565b60405180910390fd5b5f81116171ea576040517f08c379a00000000000000000000000000000000000000000000000000000000081526004016171e19061ca57565b60405180910390fd5b5f821161722c576040517f08c379a00000000000000000000000000000000000000000000000000000000081526004016172239061b8e3565b60405180910390fd5b8060265f8481526020019081526020015f20819055505050565b60055f9054906101000a900473ffffffffffffffffffffffffffffffffffffffff1673ffffffffffffffffffffffffffffffffffffffff163373ffffffffffffffffffffffffffffffffffffffff1614806172ed575060075f9054906101000a900473ffffffffffffffffffffffffffffffffffffffff1673ffffffffffffffffffffffffffffffffffffffff163373ffffffffffffffffffffffffffffffffffffffff16145b80617344575060065f9054906101000a900473ffffffffffffffffffffffffffffffffffffffff1673ffffffffffffffffffffffffffffffffffffffff163373ffffffffffffffffffffffffffffffffffffffff16145b617383576040517f08c379a000000000000000000000000000000000000000000000000000000000815260040161737a9061b6d0565b60405180910390fd5b5f73ffffffffffffffffffffffffffffffffffffffff168173ffffffffffffffffffffffffffffffffffffffff16036173f1576040517f08c379a00000000000000000000000000000000000000000000000000000000081526004016173e89061cae5565b60405180910390fd5b80602d5f8481526020019081526020015f205f6101000a81548173ffffffffffffffffffffffffffffffffffffffff021916908373ffffffffffffffffffffffffffffffffffffffff1602179055505050565b5f61744d619558565b90505f815f0160089054906101000a900460ff161590505f825f015f9054906101000a900467ffffffffffffffff1690505f808267ffffffffffffffff161480156174955750825b90505f60018367ffffffffffffffff161480156174c857505f3073ffffffffffffffffffffffffffffffffffffffff163b145b9050811580156174d6575080155b1561750d576040517ff92ee8a900000000000000000000000000000000000000000000000000000000815260040160405180910390fd5b6001855f015f6101000a81548167ffffffffffffffff021916908367ffffffffffffffff160217905550831561755a576001855f0160086101000a81548160ff0219169083151502179055505b5f73ffffffffffffffffffffffffffffffffffffffff168e73ffffffffffffffffffffffffffffffffffffffff16036175c8576040517f08c379a00000000000000000000000000000000000000000000000000000000081526004016175bf9061bd9d565b60405180910390fd5b5f73ffffffffffffffffffffffffffffffffffffffff168d73ffffffffffffffffffffffffffffffffffffffff1603617636576040517f08c379a000000000000000000000000000000000000000000000000000000000815260040161762d9061ba83565b60405180910390fd5b5f73ffffffffffffffffffffffffffffffffffffffff168c73ffffffffffffffffffffffffffffffffffffffff16036176a4576040517f08c379a000000000000000000000000000000000000000000000000000000000815260040161769b9061cb4d565b60405180910390fd5b5f73ffffffffffffffffffffffffffffffffffffffff168b73ffffffffffffffffffffffffffffffffffffffff1603617712576040517f08c379a00000000000000000000000000000000000000000000000000000000081526004016177099061cbb5565b60405180910390fd5b5f8a60ff1611617757576040517f08c379a000000000000000000000000000000000000000000000000000000000815260040161774e9061bb21565b60405180910390fd5b5f73ffffffffffffffffffffffffffffffffffffffff168973ffffffffffffffffffffffffffffffffffffffff16036177c5576040517f08c379a00000000000000000000000000000000000000000000000000000000081526004016177bc9061cc1d565b60405180910390fd5b5f73ffffffffffffffffffffffffffffffffffffffff168873ffffffffffffffffffffffffffffffffffffffff1603617833576040517f08c379a000000000000000000000000000000000000000000000000000000000815260040161782a9061cc85565b60405180910390fd5b5f602060ff1611617879576040517f08c379a00000000000000000000000000000000000000000000000000000000081526004016178709061cced565b60405180910390fd5b8d60185f6101000a81548173ffffffffffffffffffffffffffffffffffffffff021916908373ffffffffffffffffffffffffffffffffffffffff1602179055508c60165f6101000a81548173ffffffffffffffffffffffffffffffffffffffff021916908373ffffffffffffffffffffffffffffffffffffffff1602179055508b60175f6101000a81548173ffffffffffffffffffffffffffffffffffffffff021916908373ffffffffffffffffffffffffffffffffffffffff1602179055508a60195f6101000a81548173ffffffffffffffffffffffffffffffffffffffff021916908373ffffffffffffffffffffffffffffffffffffffff16021790555089601960146101000a81548160ff021916908360ff16021790555061799d8861957f565b6179a6336195c1565b866008819055508760095f6101000a81548173ffffffffffffffffffffffffffffffffffffffff021916908373ffffffffffffffffffffffffffffffffffffffff1602179055506040518060600160405280602a815260200161d840602a913960039081617a14919061c82d565b506040518060600160405280602e815260200161d86a602e913960049081617a3c919061c82d565b5085601a60146101000a81548160ff021916908315150217905550600a601a60156101000a81548160ff021916908360ff16021790555033601e60016101000a81548173ffffffffffffffffffffffffffffffffffffffff021916908373ffffffffffffffffffffffffffffffffffffffff1602179055508315617b0e575f855f0160086101000a81548160ff0219169083151502179055507fc7f505b2f371ae2175ee4913f4499e1f2633a7b5936321eed1cdaeb6115181d26001604051617b05919061cd44565b60405180910390a15b5050505050505050505050505050565b617b266188b7565b5f73ffffffffffffffffffffffffffffffffffffffff168173ffffffffffffffffffffffffffffffffffffffff1603617b94576040517f08c379a0000000000000000000000000000000000000000000000000000000008152600401617b8b9061cda7565b60405180910390fd5b8060065f6101000a81548173ffffffffffffffffffffffffffffffffffffffff021916908373ffffffffffffffffffffffffffffffffffffffff16021790555050565b6028602052815f5260405f20602052805f5260405f205f91509150505481565b602b602052805f5260405f205f915090505481565b60055f9054906101000a900473ffffffffffffffffffffffffffffffffffffffff1673ffffffffffffffffffffffffffffffffffffffff163373ffffffffffffffffffffffffffffffffffffffff161480617cb3575060075f9054906101000a900473ffffffffffffffffffffffffffffffffffffffff1673ffffffffffffffffffffffffffffffffffffffff163373ffffffffffffffffffffffffffffffffffffffff16145b80617d0a575060065f9054906101000a900473ffffffffffffffffffffffffffffffffffffffff1673ffffffffffffffffffffffffffffffffffffffff163373ffffffffffffffffffffffffffffffffffffffff16145b617d49576040517f08c379a0000000000000000000000000000000000000000000000000000000008152600401617d409061b6d0565b60405180910390fd5b5f73ffffffffffffffffffffffffffffffffffffffff168173ffffffffffffffffffffffffffffffffffffffff1603617db7576040517f08c379a0000000000000000000000000000000000000000000000000000000008152600401617dae9061ce35565b60405180910390fd5b80602c5f8481526020019081526020015f205f6101000a81548173ffffffffffffffffffffffffffffffffffffffff021916908373ffffffffffffffffffffffffffffffffffffffff1602179055505050565b5f808211617e4d576040517f08c379a0000000000000000000000000000000000000000000000000000000008152600401617e449061b57b565b60405180910390fd5b5f805b600d54811015617fe7575f600f5f8381526020019081526020015f205f9054906101000a900473ffffffffffffffffffffffffffffffffffffffff1690505f68056bc75e2d6310000060135f8473ffffffffffffffffffffffffffffffffffffffff1673ffffffffffffffffffffffffffffffffffffffff1681526020019081526020015f205487617ee2919061c9cc565b617eec919061bc07565b90505f8060185f9054906101000a900473ffffffffffffffffffffffffffffffffffffffff1673ffffffffffffffffffffffffffffffffffffffff1663236970d45f60195f9054906101000a900473ffffffffffffffffffffffffffffffffffffffff166040518363ffffffff1660e01b8152600401617f6d92919061b599565b6040805180830381865afa158015617f87573d5f803e3d5ffd5b505050506040513d601f19601f82011682018060405250810190617fab919061b5e8565b915091505f617fba8285618948565b83617fc5919061b653565b90508087617fd3919061b653565b965050505050508080600101915050617e50565b5080915050919050565b5f808211618034576040517f08c379a000000000000000000000000000000000000000000000000000000000815260040161802b9061b57b565b60405180910390fd5b5f61803d616af1565b90505f60165f9054906101000a900473ffffffffffffffffffffffffffffffffffffffff1673ffffffffffffffffffffffffffffffffffffffff166318160ddd6040518163ffffffff1660e01b8152600401602060405180830381865afa1580156180aa573d5f803e3d5ffd5b505050506040513d601f19601f820116820180604052508101906180ce919061bf7d565b90505f8183866180de919061c9cc565b6180e8919061bc07565b9050809350505050919050565b60095f9054906101000a900473ffffffffffffffffffffffffffffffffffffffff1681565b600480546181279061bee5565b80601f01602080910402602001604051908101604052809291908181526020018280546181539061bee5565b801561819e5780601f106181755761010080835404028352916020019161819e565b820191905f5260205f20905b81548152906001019060200180831161818157829003601f168201915b505050505081565b60055f9054906101000a900473ffffffffffffffffffffffffffffffffffffffff1673ffffffffffffffffffffffffffffffffffffffff163373ffffffffffffffffffffffffffffffffffffffff16148061824d575060075f9054906101000a900473ffffffffffffffffffffffffffffffffffffffff1673ffffffffffffffffffffffffffffffffffffffff163373ffffffffffffffffffffffffffffffffffffffff16145b806182a4575060065f9054906101000a900473ffffffffffffffffffffffffffffffffffffffff1673ffffffffffffffffffffffffffffffffffffffff163373ffffffffffffffffffffffffffffffffffffffff16145b6182e3576040517f08c379a00000000000000000000000000000000000000000000000000000000081526004016182da9061b6d0565b60405180910390fd5b5f8111618325576040517f08c379a000000000000000000000000000000000000000000000000000000000815260040161831c9061ce9d565b60405180910390fd5b8060315f8481526020019081526020015f20819055505050565b5f6183486188b7565b5f73ffffffffffffffffffffffffffffffffffffffff168373ffffffffffffffffffffffffffffffffffffffff16036183b6576040517f08c379a00000000000000000000000000000000000000000000000000000000081526004016183ad9061ba83565b60405180910390fd5b5f8260ff16116183fb576040517f08c379a00000000000000000000000000000000000000000000000000000000081526004016183f29061bb21565b60405180910390fd5b8260195f6101000a81548173ffffffffffffffffffffffffffffffffffffffff021916908373ffffffffffffffffffffffffffffffffffffffff16021790555081601960146101000a81548160ff021916908360ff1602179055506001905092915050565b6184686188b7565b5f73ffffffffffffffffffffffffffffffffffffffff168173ffffffffffffffffffffffffffffffffffffffff16036184d6576040517f08c379a00000000000000000000000000000000000000000000000000000000081526004016184cd9061cf05565b60405180910390fd5b80601e60016101000a81548173ffffffffffffffffffffffffffffffffffffffff021916908373ffffffffffffffffffffffffffffffffffffffff16021790555050565b5f8073ffffffffffffffffffffffffffffffffffffffff168273ffffffffffffffffffffffffffffffffffffffff1603618589576040517f08c379a00000000000000000000000000000000000000000000000000000000081526004016185809061ba83565b60405180910390fd5b5f618593836142a6565b90505f61859f84615eba565b9050670de0b6b3a764000082826185b6919061c9cc565b6185c0919061bc07565b92505050919050565b6185d1619edc565b5f8211618613576040517f08c379a000000000000000000000000000000000000000000000000000000000815260040161860a9061b8e3565b60405180910390fd5b60305f8381526020019081526020015f20604051806101400160405290815f82015f9054906101000a900467ffffffffffffffff1667ffffffffffffffff1667ffffffffffffffff1681526020015f820160089054906101000a900473ffffffffffffffffffffffffffffffffffffffff1673ffffffffffffffffffffffffffffffffffffffff1673ffffffffffffffffffffffffffffffffffffffff168152602001600182015f9054906101000a900473ffffffffffffffffffffffffffffffffffffffff1673ffffffffffffffffffffffffffffffffffffffff1673ffffffffffffffffffffffffffffffffffffffff168152602001600282015f9054906101000a900473ffffffffffffffffffffffffffffffffffffffff1673ffffffffffffffffffffffffffffffffffffffff1673ffffffffffffffffffffffffffffffffffffffff1681526020016002820160149054906101000a900460ff161515151581526020016002820160159054906101000a900460ff16600181111561879f5761879e61a672565b5b60018111156187b1576187b061a672565b5b8152602001600382015481526020016004820154815260200160058201548152602001600682015f9054906101000a900460ff1660038111156187f7576187f661a672565b5b60038111156188095761880861a672565b5b815250509050919050565b61881c6188b7565b618825816195ce565b50565b6025602052815f5260405f20602052805f5260405f205f91509150505481565b601a5f9054906101000a900473ffffffffffffffffffffffffffffffffffffffff1681565b60175f9054906101000a900473ffffffffffffffffffffffffffffffffffffffff1681565b60165f9054906101000a900473ffffffffffffffffffffffffffffffffffffffff1681565b60015f9054906101000a900473ffffffffffffffffffffffffffffffffffffffff1673ffffffffffffffffffffffffffffffffffffffff163373ffffffffffffffffffffffffffffffffffffffff1614618946576040517f08c379a000000000000000000000000000000000000000000000000000000000815260040161893d9061cf6d565b60405180910390fd5b565b5f808362ffffff160361895b575f618974565b618973828462ffffff16620f424062ffffff166196fa565b5b905092915050565b5f8083806020019051810190618992919061d0c9565b915091505f602060ff16116189dc576040517f08c379a00000000000000000000000000000000000000000000000000000000081526004016189d39061d189565b60405180910390fd5b5f825111618a1f576040517f08c379a0000000000000000000000000000000000000000000000000000000008152600401618a169061d1f1565b60405180910390fd5b5f815111618a62576040517f08c379a0000000000000000000000000000000000000000000000000000000008152600401618a599061d259565b60405180910390fd5b618a6c8282619290565b5050505050565b5f805f80198587098587029250828110838203039150505f8103618aab57838281618aa157618aa061bbda565b5b0492505050618b7e565b838110618af3578585856040517f63a05778000000000000000000000000000000000000000000000000000000008152600401618aea9392919061d277565b60405180910390fd5b5f8486880990508281118203915080830392505f6001861901861690505f81870496508185049450600182835f0304019050808402851794505f60028860030218905080880260020381029050808802600203810290508088026002038102905080880260020381029050808802600203810290508088026002038102905080860296505050505050505b9392505050565b5f60128360ff161115618bcd576040517f08c379a0000000000000000000000000000000000000000000000000000000008152600401618bc49061d31c565b60405180910390fd5b60128260ff161115618c14576040517f08c379a0000000000000000000000000000000000000000000000000000000008152600401618c0b9061d3aa565b60405180910390fd5b8260ff168260ff161115618c4c578282618c2e919061d3c8565b600a618c3a919061d52b565b84618c45919061d575565b9050618c72565b8183618c58919061d3c8565b600a618c64919061d52b565b84618c6f919061d575565b90505b9392505050565b5f815103618cb3576040517f22ce3edd00000000000000000000000000000000000000000000000000000000815260040160405180910390fd5b82845f01906002811115618cca57618cc961a672565b5b90816002811115618cde57618cdd61a672565b5b815250508184604001905f811115618cf957618cf861a672565b5b90815f811115618d0c57618d0b61a672565b5b8152505080846060018190525050505050565b5f815103618d59576040517ffe936cb700000000000000000000000000000000000000000000000000000000815260040160405180910390fd5b808260a001819052505050565b5f815103618da0576040517ffe936cb700000000000000000000000000000000000000000000000000000000815260040160405180910390fd5b808260c001819052505050565b60605f618dbb61010061980c565b9050618e056040518060400160405280600c81526020017f636f64654c6f636174696f6e00000000000000000000000000000000000000008152508261983190919063ffffffff16565b618e2d835f01516002811115618e1e57618e1d61a672565b5b8261985990919063ffffffff16565b618e756040518060400160405280600881526020017f6c616e67756167650000000000000000000000000000000000000000000000008152508261983190919063ffffffff16565b618e9d83604001515f811115618e8e57618e8d61a672565b5b8261985990919063ffffffff16565b618ee56040518060400160405280600681526020017f736f7572636500000000000000000000000000000000000000000000000000008152508261983190919063ffffffff16565b618efc83606001518261983190919063ffffffff16565b5f8360a00151511115618fb057618f516040518060400160405280600481526020017f61726773000000000000000000000000000000000000000000000000000000008152508261983190919063ffffffff16565b618f5a816198a8565b5f5b8360a0015151811015618fa557618f9a8460a001518281518110618f8357618f8261be23565b5b60200260200101518361983190919063ffffffff16565b806001019050618f5c565b50618faf816198d0565b5b5f83608001515111156190ef575f6002811115618fd057618fcf61a672565b5b83602001516002811115618fe757618fe661a672565b5b0361901e576040517fa80d31f700000000000000000000000000000000000000000000000000000000815260040160405180910390fd5b6190666040518060400160405280600f81526020017f736563726574734c6f636174696f6e00000000000000000000000000000000008152508261983190919063ffffffff16565b61908f836020015160028111156190805761907f61a672565b5b8261985990919063ffffffff16565b6190d76040518060400160405280600781526020017f73656372657473000000000000000000000000000000000000000000000000008152508261983190919063ffffffff16565b6190ee8360800151826198f890919063ffffffff16565b5b5f8360c001515111156191a3576191446040518060400160405280600981526020017f62797465734172677300000000000000000000000000000000000000000000008152508261983190919063ffffffff16565b61914d816198a8565b5f5b8360c00151518110156191985761918d8460c0015182815181106191765761917561be23565b5b6020026020010151836198f890919063ffffffff16565b80600101905061914f565b506191a2816198d0565b5b805f01515f0151915050919050565b5f805f8054906101000a900473ffffffffffffffffffffffffffffffffffffffff1673ffffffffffffffffffffffffffffffffffffffff1663461d27628688600188886040518663ffffffff1660e01b815260040161921595949392919061d65e565b6020604051808303815f875af1158015619231573d5f803e3d5ffd5b505050506040513d601f19601f82011682018060405250810190619255919061d6ca565b9050807f1131472297a800fee664d1d89cfa8f7676ff07189ecc53f80bbb5f4969099db860405160405180910390a280915050949350505050565b5f8290505f8290505f5b8251811015619530578281815181106192b6576192b561be23565b5b6020026020010151600e5f8381526020019081526020015f205f6101000a81548173ffffffffffffffffffffffffffffffffffffffff021916908373ffffffffffffffffffffffffffffffffffffffff1602179055508060115f8584815181106193235761932261be23565b5b602002602001015173ffffffffffffffffffffffffffffffffffffffff1673ffffffffffffffffffffffffffffffffffffffff1681526020019081526020015f208190555081818151811061937b5761937a61be23565b5b602002602001015160145f8584815181106193995761939861be23565b5b602002602001015173ffffffffffffffffffffffffffffffffffffffff1673ffffffffffffffffffffffffffffffffffffffff1681526020019081526020015f20819055505f600d5403619523578281815181106193fa576193f961be23565b5b6020026020010151600f5f8381526020019081526020015f205f6101000a81548173ffffffffffffffffffffffffffffffffffffffff021916908373ffffffffffffffffffffffffffffffffffffffff1602179055508181815181106194635761946261be23565b5b602002602001015160135f8584815181106194815761948061be23565b5b602002602001015173ffffffffffffffffffffffffffffffffffffffff1673ffffffffffffffffffffffffffffffffffffffff1681526020019081526020015f20819055508060125f8584815181106194dd576194dc61be23565b5b602002602001015173ffffffffffffffffffffffffffffffffffffffff1673ffffffffffffffffffffffffffffffffffffffff1681526020019081526020015f20819055505b808060010191505061929a565b508151600c819055505f600d540361954b578151600d819055505b42600a8190555050505050565b5f7ff0c57e16840df040f15088dc2f81fe391c3923bec73e23a9662efc9c229c6a00905090565b805f806101000a81548173ffffffffffffffffffffffffffffffffffffffff021916908373ffffffffffffffffffffffffffffffffffffffff16021790555050565b6195cb815f619920565b50565b3373ffffffffffffffffffffffffffffffffffffffff168173ffffffffffffffffffffffffffffffffffffffff160361963c576040517f08c379a00000000000000000000000000000000000000000000000000000000081526004016196339061d73f565b60405180910390fd5b8060025f6101000a81548173ffffffffffffffffffffffffffffffffffffffff021916908373ffffffffffffffffffffffffffffffffffffffff1602179055508073ffffffffffffffffffffffffffffffffffffffff1660015f9054906101000a900473ffffffffffffffffffffffffffffffffffffffff1673ffffffffffffffffffffffffffffffffffffffff167fed8889f560326eb138920d842192f0eb3dd22b4f139c87a2c57538e05bae127860405160405180910390a350565b5f805f80198587098587029250828110838203039150505f8103619732578382816197285761972761bbda565b5b0492505050619805565b83811061977a578585856040517f63a057780000000000000000000000000000000000000000000000000000000081526004016197719392919061d277565b60405180910390fd5b5f8486880990508281118203915080830392505f6001861901861690505f81870496508185049450600182835f0304019050808402851794505f60028860030218905080880260020381029050808802600203810290508088026002038102905080880260020381029050808802600203810290508088026002038102905080860296505050505050505b9392505050565b619814619f97565b619821815f015183619a0f565b505f816020018181525050919050565b61983e8260038351619a85565b61985481835f0151619c2590919063ffffffff16565b505050565b61987a60026005600660ff16901b17835f0151619c4190919063ffffffff16565b506198a482826040516020016198909190619fe7565b6040516020818303038152906040526198f8565b5050565b6198b3816004619ca8565b6001816020018181516198c6919061b653565b9150818152505050565b6198db816007619ca8565b6001816020018181516198ee919061bba7565b9150818152505050565b6199058260028351619a85565b61991b81835f0151619c2590919063ffffffff16565b505050565b5f73ffffffffffffffffffffffffffffffffffffffff168273ffffffffffffffffffffffffffffffffffffffff160361998e576040517f08c379a00000000000000000000000000000000000000000000000000000000081526004016199859061d7a7565b60405180910390fd5b8160015f6101000a81548173ffffffffffffffffffffffffffffffffffffffff021916908373ffffffffffffffffffffffffffffffffffffffff1602179055505f73ffffffffffffffffffffffffffffffffffffffff168173ffffffffffffffffffffffffffffffffffffffff1614619a0b57619a0a816195ce565b5b5050565b619a17619fb6565b5f602083619a25919061d7c5565b14619a5157602082619a37919061d7c5565b6020619a43919061bba7565b82619a4e919061b653565b91505b818360200181815250506040518084525f815282810160200181811015619a76575f80fd5b80604052505082905092915050565b60178167ffffffffffffffff1611619abf57619ab98160058460ff16901b60ff1617845f0151619c4190919063ffffffff16565b50619c20565b60ff8167ffffffffffffffff1611619b1b57619af1601860058460ff16901b17845f0151619c4190919063ffffffff16565b50619b158167ffffffffffffffff166001855f0151619ccd9092919063ffffffff16565b50619c1f565b61ffff8167ffffffffffffffff1611619b7857619b4e601960058460ff16901b17845f0151619c4190919063ffffffff16565b50619b728167ffffffffffffffff166002855f0151619ccd9092919063ffffffff16565b50619c1e565b63ffffffff8167ffffffffffffffff1611619bd757619bad601a60058460ff16901b17845f0151619c4190919063ffffffff16565b50619bd18167ffffffffffffffff166004855f0151619ccd9092919063ffffffff16565b50619c1d565b619bf7601b60058460ff16901b17845f0151619c4190919063ffffffff16565b50619c1b8167ffffffffffffffff166008855f0151619ccd9092919063ffffffff16565b505b5b5b5b505050565b619c2d619fb6565b619c3983838451619d56565b905092915050565b619c49619fb6565b5f835f01515190505f600182619c5f919061b653565b905084602001518210619c8357619c8285600283619c7d919061c9cc565b619e33565b5b84516020838201018581538151831115619c9b578282525b5050849250505092915050565b619cc8601f60058360ff16901b17835f0151619c4190919063ffffffff16565b505050565b619cd5619fb6565b5f845f01515190505f8184619cea919061b653565b90508560200151811115619d0f57619d0e86600283619d09919061c9cc565b619e33565b5b5f600185610100619d20919061d7f5565b619d2a919061bba7565b905086518281018783198251161781528151841115619d47578382525b50508693505050509392505050565b619d5e619fb6565b8251821115619d6b575f80fd5b5f845f01515190505f8382619d80919061b653565b90508560200151811115619da557619da486600283619d9f919061c9cc565b619e33565b5b5f8087518051856020830101935080851115619dbf578482525b60208901925050505b60208610619e065780518252602082619de1919061b653565b9150602081619df0919061b653565b9050602086619dff919061bba7565b9550619dc8565b5f6001876020036101000a0390508019825116818451168181178552505050879450505050509392505050565b5f825f01519050619e448383619a0f565b50619e4f8382619c25565b50505050565b60405180604001604052805f81526020015f81525090565b6040518060e001604052805f6002811115619e8b57619e8a61a672565b5b81526020015f6002811115619ea357619ea261a672565b5b81526020015f80811115619eba57619eb961a672565b5b8152602001606081526020016060815260200160608152602001606081525090565b6040518061014001604052805f67ffffffffffffffff1681526020015f73ffffffffffffffffffffffffffffffffffffffff1681526020015f73ffffffffffffffffffffffffffffffffffffffff1681526020015f73ffffffffffffffffffffffffffffffffffffffff1681526020015f151581526020015f6001811115619f6757619f6661a672565b5b81526020015f81526020015f81526020015f81526020015f6003811115619f9157619f9061a672565b5b81525090565b6040518060400160405280619faa619fb6565b81526020015f81525090565b6040518060400160405280606081526020015f81525090565b5f819050919050565b619fe181619fcf565b82525050565b5f602082019050619ffa5f830184619fd8565b92915050565b5f604051905090565b5f80fd5b5f80fd5b61a01a81619fcf565b811461a024575f80fd5b50565b5f8135905061a0358161a011565b92915050565b5f73ffffffffffffffffffffffffffffffffffffffff82169050919050565b5f61a0648261a03b565b9050919050565b61a0748161a05a565b811461a07e575f80fd5b50565b5f8135905061a08f8161a06b565b92915050565b5f806040838503121561a0ab5761a0aa61a009565b5b5f61a0b88582860161a027565b925050602061a0c98582860161a081565b9150509250929050565b5f6020828403121561a0e85761a0e761a009565b5b5f61a0f58482850161a081565b91505092915050565b5f6020828403121561a1135761a11261a009565b5b5f61a1208482850161a027565b91505092915050565b61a1328161a05a565b82525050565b5f60208201905061a14b5f83018461a129565b92915050565b5f8115159050919050565b61a1658161a151565b811461a16f575f80fd5b50565b5f8135905061a1808161a15c565b92915050565b5f806040838503121561a19c5761a19b61a009565b5b5f61a1a98582860161a027565b925050602061a1ba8582860161a172565b9150509250929050565b61a1cd8161a151565b82525050565b5f60208201905061a1e65f83018461a1c4565b92915050565b5f60ff82169050919050565b61a2018161a1ec565b82525050565b5f60208201905061a21a5f83018461a1f8565b92915050565b5f819050919050565b61a2328161a220565b811461a23c575f80fd5b50565b5f8135905061a24d8161a229565b92915050565b5f80fd5b5f80fd5b5f601f19601f8301169050919050565b7f4e487b71000000000000000000000000000000000000000000000000000000005f52604160045260245ffd5b61a2a18261a25b565b810181811067ffffffffffffffff8211171561a2c05761a2bf61a26b565b5b80604052505050565b5f61a2d261a000565b905061a2de828261a298565b919050565b5f67ffffffffffffffff82111561a2fd5761a2fc61a26b565b5b61a3068261a25b565b9050602081019050919050565b828183375f83830152505050565b5f61a33361a32e8461a2e3565b61a2c9565b90508281526020810184848401111561a34f5761a34e61a257565b5b61a35a84828561a313565b509392505050565b5f82601f83011261a3765761a37561a253565b5b813561a38684826020860161a321565b91505092915050565b5f805f6060848603121561a3a65761a3a561a009565b5b5f61a3b38682870161a23f565b935050602084013567ffffffffffffffff81111561a3d45761a3d361a00d565b5b61a3e08682870161a362565b925050604084013567ffffffffffffffff81111561a4015761a40061a00d565b5b61a40d8682870161a362565b9150509250925092565b5f67ffffffffffffffff82111561a4315761a43061a26b565b5b61a43a8261a25b565b9050602081019050919050565b5f61a45961a4548461a417565b61a2c9565b90508281526020810184848401111561a4755761a47461a257565b5b61a48084828561a313565b509392505050565b5f82601f83011261a49c5761a49b61a253565b5b813561a4ac84826020860161a447565b91505092915050565b5f806040838503121561a4cb5761a4ca61a009565b5b5f83013567ffffffffffffffff81111561a4e85761a4e761a00d565b5b61a4f48582860161a488565b925050602083013567ffffffffffffffff81111561a5155761a51461a00d565b5b61a5218582860161a488565b9150509250929050565b5f81519050919050565b5f82825260208201905092915050565b8281835e5f83830152505050565b5f61a55d8261a52b565b61a567818561a535565b935061a57781856020860161a545565b61a5808161a25b565b840191505092915050565b5f6020820190508181035f83015261a5a3818461a553565b905092915050565b5f805f6060848603121561a5c25761a5c161a009565b5b5f61a5cf8682870161a027565b935050602061a5e08682870161a081565b925050604061a5f18682870161a027565b9150509250925092565b61a60481619fcf565b82525050565b604082015f82015161a61e5f85018261a5fb565b50602082015161a631602085018261a5fb565b50505050565b5f60408201905061a64a5f83018461a60a565b92915050565b5f67ffffffffffffffff82169050919050565b61a66c8161a650565b82525050565b7f4e487b71000000000000000000000000000000000000000000000000000000005f52602160045260245ffd5b6002811061a6b05761a6af61a672565b5b50565b5f81905061a6c08261a69f565b919050565b5f61a6cf8261a6b3565b9050919050565b61a6df8161a6c5565b82525050565b6004811061a6f65761a6f561a672565b5b50565b5f81905061a7068261a6e5565b919050565b5f61a7158261a6f9565b9050919050565b61a7258161a70b565b82525050565b5f6101408201905061a73f5f83018d61a663565b61a74c602083018c61a129565b61a759604083018b61a129565b61a766606083018a61a129565b61a773608083018961a1c4565b61a78060a083018861a6d6565b61a78d60c0830187619fd8565b61a79a60e0830186619fd8565b61a7a8610100830185619fd8565b61a7b661012083018461a71c565b9b9a5050505050505050505050565b5f819050919050565b5f61a7e861a7e361a7de8461a03b565b61a7c5565b61a03b565b9050919050565b5f61a7f98261a7ce565b9050919050565b5f61a80a8261a7ef565b9050919050565b61a81a8161a800565b82525050565b5f60208201905061a8335f83018461a811565b92915050565b5f806040838503121561a84f5761a84e61a009565b5b5f61a85c8582860161a027565b925050602061a86d8582860161a027565b9150509250929050565b5f62ffffff82169050919050565b61a88e8161a877565b811461a898575f80fd5b50565b5f8135905061a8a98161a885565b92915050565b5f806040838503121561a8c55761a8c461a009565b5b5f61a8d28582860161a89b565b925050602061a8e38582860161a027565b9150509250929050565b61a8f68161a1ec565b811461a900575f80fd5b50565b5f8135905061a9118161a8ed565b92915050565b5f6020828403121561a92c5761a92b61a009565b5b5f61a9398482850161a903565b91505092915050565b5f80fd5b61a94f8161a650565b811461a959575f80fd5b50565b5f8135905061a96a8161a946565b92915050565b6002811061a97c575f80fd5b50565b5f8135905061a98d8161a970565b92915050565b6004811061a99f575f80fd5b50565b5f8135905061a9b08161a993565b92915050565b5f610140828403121561a9cc5761a9cb61a942565b5b61a9d761014061a2c9565b90505f61a9e68482850161a95c565b5f83015250602061a9f98482850161a081565b602083015250604061aa0d8482850161a081565b604083015250606061aa218482850161a081565b606083015250608061aa358482850161a172565b60808301525060a061aa498482850161a97f565b60a08301525060c061aa5d8482850161a027565b60c08301525060e061aa718482850161a027565b60e08301525061010061aa868482850161a027565b6101008301525061012061aa9c8482850161a9a2565b6101208301525092915050565b5f80610160838503121561aac05761aabf61a009565b5b5f61aacd8582860161a027565b925050602061aade8582860161a9b6565b9150509250929050565b5f60408201905061aafb5f830185619fd8565b61ab086020830184619fd8565b9392505050565b5f67ffffffffffffffff82111561ab295761ab2861a26b565b5b602082029050602081019050919050565b5f80fd5b5f61ab5061ab4b8461ab0f565b61a2c9565b9050808382526020820190506020840283018581111561ab735761ab7261ab3a565b5b835b8181101561ab9c578061ab88888261a081565b84526020840193505060208101905061ab75565b5050509392505050565b5f82601f83011261abba5761abb961a253565b5b813561abca84826020860161ab3e565b91505092915050565b5f806040838503121561abe95761abe861a009565b5b5f83013567ffffffffffffffff81111561ac065761ac0561a00d565b5b61ac128582860161aba6565b925050602083013567ffffffffffffffff81111561ac335761ac3261a00d565b5b61ac3f8582860161aba6565b9150509250929050565b5f805f6060848603121561ac605761ac5f61a009565b5b5f84013567ffffffffffffffff81111561ac7d5761ac7c61a00d565b5b61ac898682870161aba6565b935050602084013567ffffffffffffffff81111561acaa5761aca961a00d565b5b61acb68682870161aba6565b925050604084013567ffffffffffffffff81111561acd75761acd661a00d565b5b61ace38682870161aba6565b9150509250925092565b5f6020828403121561ad025761ad0161a009565b5b5f61ad0f8482850161a23f565b91505092915050565b5f6040828403121561ad2d5761ad2c61a942565b5b61ad37604061a2c9565b90505f61ad468482850161a027565b5f83015250602061ad598482850161a027565b60208301525092915050565b5f806060838503121561ad7b5761ad7a61a009565b5b5f61ad888582860161a027565b925050602061ad998582860161ad18565b9150509250929050565b5f80fd5b5f8083601f84011261adbc5761adbb61a253565b5b8235905067ffffffffffffffff81111561add95761add861ada3565b5b60208301915083600182028301111561adf55761adf461ab3a565b5b9250929050565b5f8083601f84011261ae115761ae1061a253565b5b8235905067ffffffffffffffff81111561ae2e5761ae2d61ada3565b5b60208301915083600182028301111561ae4a5761ae4961ab3a565b5b9250929050565b5f8083601f84011261ae665761ae6561a253565b5b8235905067ffffffffffffffff81111561ae835761ae8261ada3565b5b60208301915083602082028301111561ae9f5761ae9e61ab3a565b5b9250929050565b5f8083601f84011261aebb5761aeba61a253565b5b8235905067ffffffffffffffff81111561aed85761aed761ada3565b5b60208301915083602082028301111561aef45761aef361ab3a565b5b9250929050565b5f63ffffffff82169050919050565b61af138161aefb565b811461af1d575f80fd5b50565b5f8135905061af2e8161af0a565b92915050565b5f805f805f805f805f8060c08b8d03121561af525761af5161a009565b5b5f8b013567ffffffffffffffff81111561af6f5761af6e61a00d565b5b61af7b8d828e0161ada7565b9a509a505060208b013567ffffffffffffffff81111561af9e5761af9d61a00d565b5b61afaa8d828e0161adfc565b985098505060408b013567ffffffffffffffff81111561afcd5761afcc61a00d565b5b61afd98d828e0161ae51565b965096505060608b013567ffffffffffffffff81111561affc5761affb61a00d565b5b61b0088d828e0161aea6565b9450945050608061b01b8d828e0161a95c565b92505060a061b02c8d828e0161af20565b9150509295989b9194979a5092959850565b61b0478161a220565b82525050565b5f60208201905061b0605f83018461b03e565b92915050565b5f6020828403121561b07b5761b07a61a009565b5b5f61b0888482850161a172565b91505092915050565b5f67ffffffffffffffff82111561b0ab5761b0aa61a26b565b5b602082029050602081019050919050565b5f61b0ce61b0c98461b091565b61a2c9565b9050808382526020820190506020840283018581111561b0f15761b0f061ab3a565b5b835b8181101561b11a578061b106888261a027565b84526020840193505060208101905061b0f3565b5050509392505050565b5f82601f83011261b1385761b13761a253565b5b813561b14884826020860161b0bc565b91505092915050565b5f806040838503121561b1675761b16661a009565b5b5f83013567ffffffffffffffff81111561b1845761b18361a00d565b5b61b1908582860161aba6565b925050602083013567ffffffffffffffff81111561b1b15761b1b061a00d565b5b61b1bd8582860161b124565b9150509250929050565b61b1d08161a650565b82525050565b61b1df8161a05a565b82525050565b61b1ee8161a151565b82525050565b61b1fd8161a6c5565b82525050565b61b20c8161a70b565b82525050565b61014082015f82015161b2275f85018261b1c7565b50602082015161b23a602085018261b1d6565b50604082015161b24d604085018261b1d6565b50606082015161b260606085018261b1d6565b50608082015161b273608085018261b1e5565b5060a082015161b28660a085018261b1f4565b5060c082015161b29960c085018261a5fb565b5060e082015161b2ac60e085018261a5fb565b5061010082015161b2c161010085018261a5fb565b5061012082015161b2d661012085018261b203565b50505050565b5f6101408201905061b2f05f83018461b212565b92915050565b5f805f805f805f805f6101208a8c03121561b3145761b31361a009565b5b5f61b3218c828d0161a081565b995050602061b3328c828d0161a081565b985050604061b3438c828d0161a081565b975050606061b3548c828d0161a081565b965050608061b3658c828d0161a903565b95505060a061b3768c828d0161a081565b94505060c061b3878c828d0161a081565b93505060e061b3988c828d0161a23f565b92505061010061b3aa8c828d0161a172565b9150509295985092959850929598565b5f806040838503121561b3d05761b3cf61a009565b5b5f61b3dd8582860161a081565b925050602061b3ee8582860161a903565b9150509250929050565b5f61b4028261a7ef565b9050919050565b61b4128161b3f8565b82525050565b5f60208201905061b42b5f83018461b409565b92915050565b5f61b43b8261a7ef565b9050919050565b61b44b8161b431565b82525050565b5f60208201905061b4645f83018461b442565b92915050565b5f61b4748261a7ef565b9050919050565b61b4848161b46a565b82525050565b5f60208201905061b49d5f83018461b47b565b92915050565b7f696e76616c696420666163746f72792070726f636573736f72206164647265735f8201527f7300000000000000000000000000000000000000000000000000000000000000602082015250565b5f61b4fd60218361a535565b915061b5088261b4a3565b604082019050919050565b5f6020820190508181035f83015261b52a8161b4f1565b9050919050565b7f496e76616c696420616d6f756e740000000000000000000000000000000000005f82015250565b5f61b565600e8361a535565b915061b5708261b531565b602082019050919050565b5f6020820190508181035f83015261b5928161b559565b9050919050565b5f60408201905061b5ac5f83018561a1c4565b61b5b9602083018461a129565b9392505050565b5f8151905061b5ce8161a011565b92915050565b5f8151905061b5e28161a885565b92915050565b5f806040838503121561b5fe5761b5fd61a009565b5b5f61b60b8582860161b5c0565b925050602061b61c8582860161b5d4565b9150509250929050565b7f4e487b71000000000000000000000000000000000000000000000000000000005f52601160045260245ffd5b5f61b65d82619fcf565b915061b66883619fcf565b925082820190508082111561b6805761b67f61b626565b5b92915050565b7f43616c6c6572206973206e6f74206120666163746f727920636f6e74726163745f82015250565b5f61b6ba60208361a535565b915061b6c58261b686565b602082019050919050565b5f6020820190508181035f83015261b6e78161b6ae565b9050919050565b6004811061b6fa575f80fd5b50565b5f8151905061b70b8161b6ee565b92915050565b5f6020828403121561b7265761b72561a009565b5b5f61b7338482850161b6fd565b91505092915050565b5f81519050919050565b5f81905092915050565b5f61b75a8261b73c565b61b764818561b746565b935061b77481856020860161a545565b80840191505092915050565b5f61b78b828561b750565b915061b797828461b750565b91508190509392505050565b7f496e76616c69642063616e63656c2069737375616e636520756e66696c6c65645f8201527f20616d6f756e7400000000000000000000000000000000000000000000000000602082015250565b5f61b7fd60278361a535565b915061b8088261b7a3565b604082019050919050565b5f6020820190508181035f83015261b82a8161b7f1565b9050919050565b7f496e76616c696420746f6b656e206164647265737300000000000000000000005f82015250565b5f61b86560158361a535565b915061b8708261b831565b602082019050919050565b5f6020820190508181035f83015261b8928161b859565b9050919050565b7f496e76616c6964205265717565737420496400000000000000000000000000005f82015250565b5f61b8cd60128361a535565b915061b8d88261b899565b602082019050919050565b5f6020820190508181035f83015261b8fa8161b8c1565b9050919050565b7f496e76616c696420726564656d7074696f6e20726571756573742069640000005f82015250565b5f61b935601d8361a535565b915061b9408261b901565b602082019050919050565b5f6020820190508181035f83015261b9628161b929565b9050919050565b7f496e76616c69642073656c6c207265717565737420616d6f756e7400000000005f82015250565b5f61b99d601b8361a535565b915061b9a88261b969565b602082019050919050565b5f6020820190508181035f83015261b9ca8161b991565b9050919050565b7f496e76616c696420726564656d7074696f6e20746f6b656e20616464726573735f82015250565b5f61ba0560208361a535565b915061ba108261b9d1565b602082019050919050565b5f6020820190508181035f83015261ba328161b9f9565b9050919050565b7f696e76616c696420746f6b656e206164647265737300000000000000000000005f82015250565b5f61ba6d60158361a535565b915061ba788261ba39565b602082019050919050565b5f6020820190508181035f83015261ba9a8161ba61565b9050919050565b5f61baab8261a877565b915061bab68361a877565b9250828201905062ffffff81111561bad15761bad061b626565b5b92915050565b7f696e76616c696420646563696d616c73000000000000000000000000000000005f82015250565b5f61bb0b60108361a535565b915061bb168261bad7565b602082019050919050565b5f6020820190508181035f83015261bb388161baff565b9050919050565b7f496e76616c69642069737375616e6365205265717565737420496400000000005f82015250565b5f61bb73601b8361a535565b915061bb7e8261bb3f565b602082019050919050565b5f6020820190508181035f83015261bba08161bb67565b9050919050565b5f61bbb182619fcf565b915061bbbc83619fcf565b925082820390508181111561bbd45761bbd361b626565b5b92915050565b7f4e487b71000000000000000000000000000000000000000000000000000000005f52601260045260245ffd5b5f61bc1182619fcf565b915061bc1c83619fcf565b92508261bc2c5761bc2b61bbda565b5b828204905092915050565b7f596f752073686f756c642077616974206174206c6561737420313220686f75725f8201527f7320616674657220746865206c61746573742075706461746500000000000000602082015250565b5f61bc9160398361a535565b915061bc9c8261bc37565b604082019050919050565b5f6020820190508181035f83015261bcbe8161bc85565b9050919050565b7f546865206e65774665652073686f756c64206265206265747765656e203120615f8201527f6e64203130302028302e303125202d2031252900000000000000000000000000602082015250565b5f61bd1f60338361a535565b915061bd2a8261bcc5565b604082019050919050565b5f6020820190508181035f83015261bd4c8161bd13565b9050919050565b7f696e76616c6964206973737565722061646472657373000000000000000000005f82015250565b5f61bd8760168361a535565b915061bd928261bd53565b602082019050919050565b5f6020820190508181035f83015261bdb48161bd7b565b9050919050565b7f4172726179206c656e677468206d69736d6174636800000000000000000000005f82015250565b5f61bdef60158361a535565b915061bdfa8261bdbb565b602082019050919050565b5f6020820190508181035f83015261be1c8161bde3565b9050919050565b7f4e487b71000000000000000000000000000000000000000000000000000000005f52603260045260245ffd5b7f696e76616c696420666163746f727920616464726573730000000000000000005f82015250565b5f61be8460178361a535565b915061be8f8261be50565b602082019050919050565b5f6020820190508181035f83015261beb18161be78565b9050919050565b7f4e487b71000000000000000000000000000000000000000000000000000000005f52602260045260245ffd5b5f600282049050600182168061befc57607f821691505b60208210810361bf0f5761bf0e61beb8565b5b50919050565b7f496e76616c6964206275726e20616d6f756e74000000000000000000000000005f82015250565b5f61bf4960138361a535565b915061bf548261bf15565b602082019050919050565b5f6020820190508181035f83015261bf768161bf3d565b9050919050565b5f6020828403121561bf925761bf9161a009565b5b5f61bf9f8482850161b5c0565b91505092915050565b5f69ffffffffffffffffffff82169050919050565b61bfc68161bfa8565b811461bfd0575f80fd5b50565b5f8151905061bfe18161bfbd565b92915050565b5f819050919050565b61bff98161bfe7565b811461c003575f80fd5b50565b5f8151905061c0148161bff0565b92915050565b5f805f805f60a0868803121561c0335761c03261a009565b5b5f61c0408882890161bfd3565b955050602061c0518882890161c006565b945050604061c0628882890161b5c0565b935050606061c0738882890161b5c0565b925050608061c0848882890161bfd3565b9150509295509295909350565b7f696e76616c696420726f756e64206964000000000000000000000000000000005f82015250565b5f61c0c560108361a535565b915061c0d08261c091565b602082019050919050565b5f6020820190508181035f83015261c0f28161c0b9565b9050919050565b7f696e76616c696420757064617465642074696d650000000000000000000000005f82015250565b5f61c12d60148361a535565b915061c1388261c0f9565b602082019050919050565b5f6020820190508181035f83015261c15a8161c121565b9050919050565b7f696e76616c6964207072696365000000000000000000000000000000000000005f82015250565b5f61c195600d8361a535565b915061c1a08261c161565b602082019050919050565b5f6020820190508181035f83015261c1c28161c189565b9050919050565b5f8151905061c1d78161a8ed565b92915050565b5f6020828403121561c1f25761c1f161a009565b5b5f61c1ff8482850161c1c9565b91505092915050565b5f60408201905061c21b5f83018561a129565b61c228602083018461a129565b9392505050565b5f8151905061c23d8161a946565b92915050565b5f6040828403121561c2585761c25761a942565b5b61c262604061a2c9565b90505f61c2718482850161b5c0565b5f83015250602061c2848482850161c22f565b60208301525092915050565b5f6040828403121561c2a55761c2a461a009565b5b5f61c2b28482850161c243565b91505092915050565b7f496e76616c69642063616e63656c20726564656d7074696f6e20756e66696c6c5f8201527f656420616d6f756e740000000000000000000000000000000000000000000000602082015250565b5f61c31560298361a535565b915061c3208261c2bb565b604082019050919050565b5f6020820190508181035f83015261c3428161c309565b9050919050565b7f4d7573742062652070726f706f736564206f776e6572000000000000000000005f82015250565b5f61c37d60168361a535565b915061c3888261c349565b602082019050919050565b5f6020820190508181035f83015261c3aa8161c371565b9050919050565b7f496e76616c69642069737375616e6365207265717565737420696400000000005f82015250565b5f61c3e5601b8361a535565b915061c3f08261c3b1565b602082019050919050565b5f6020820190508181035f83015261c4128161c3d9565b9050919050565b7f63616c6c6572206d75737420626520666163746f72792062616c616e636572005f82015250565b5f61c44d601f8361a535565b915061c4588261c419565b602082019050919050565b5f6020820190508181035f83015261c47a8161c441565b9050919050565b5f67ffffffffffffffff82111561c49b5761c49a61a26b565b5b602082029050602081019050919050565b5f61c4be61c4b98461c481565b61a2c9565b9050808382526020820190506020840283018581111561c4e15761c4e061ab3a565b5b835b8181101561c52857803567ffffffffffffffff81111561c5065761c50561a253565b5b80860161c513898261a488565b8552602085019450505060208101905061c4e3565b5050509392505050565b5f61c53e36848461c4ac565b905092915050565b5f67ffffffffffffffff82111561c5605761c55f61a26b565b5b602082029050602081019050919050565b5f61c58361c57e8461c546565b61a2c9565b9050808382526020820190506020840283018581111561c5a65761c5a561ab3a565b5b835b8181101561c5ed57803567ffffffffffffffff81111561c5cb5761c5ca61a253565b5b80860161c5d8898261a362565b8552602085019450505060208101905061c5a8565b5050509392505050565b5f61c60336848461c571565b905092915050565b7f496e76616c69642069737375616e6365207072696d61727920746f6b656e20615f8201527f6464726573730000000000000000000000000000000000000000000000000000602082015250565b5f61c66560268361a535565b915061c6708261c60b565b604082019050919050565b5f6020820190508181035f83015261c6928161c659565b9050919050565b5f819050815f5260205f209050919050565b5f6020601f8301049050919050565b5f82821b905092915050565b5f6008830261c6f57fffffffffffffffffffffffffffffffffffffffffffffffffffffffffffffffff8261c6ba565b61c6ff868361c6ba565b95508019841693508086168417925050509392505050565b5f61c73161c72c61c72784619fcf565b61a7c5565b619fcf565b9050919050565b5f819050919050565b61c74a8361c717565b61c75e61c7568261c738565b84845461c6c6565b825550505050565b5f90565b61c77261c766565b61c77d81848461c741565b505050565b5b8181101561c7a05761c7955f8261c76a565b60018101905061c783565b5050565b601f82111561c7e55761c7b68161c699565b61c7bf8461c6ab565b8101602085101561c7ce578190505b61c7e261c7da8561c6ab565b83018261c782565b50505b505050565b5f82821c905092915050565b5f61c8055f198460080261c7ea565b1980831691505092915050565b5f61c81d838361c7f6565b9150826002028217905092915050565b61c8368261a52b565b67ffffffffffffffff81111561c84f5761c84e61a26b565b5b61c859825461bee5565b61c86482828561c7a4565b5f60209050601f83116001811461c895575f841561c883578287015190505b61c88d858261c812565b86555061c8f4565b601f19841661c8a38661c699565b5f5b8281101561c8ca5784890151825560018201915060208501945060208101905061c8a5565b8683101561c8e7578489015161c8e3601f89168261c7f6565b8355505b6001600288020188555050505b505050505050565b7f696e76616c6964206f72646572206d616e6167657220616464726573730000005f82015250565b5f61c930601d8361a535565b915061c93b8261c8fc565b602082019050919050565b5f6020820190508181035f83015261c95d8161c924565b9050919050565b7f496e76616c696420726564656d7074696f6e20696e70757420616d6f756e74005f82015250565b5f61c998601f8361a535565b915061c9a38261c964565b602082019050919050565b5f6020820190508181035f83015261c9c58161c98c565b9050919050565b5f61c9d682619fcf565b915061c9e183619fcf565b925082820261c9ef81619fcf565b9150828204841483151761ca065761ca0561b626565b5b5092915050565b7f496e76616c696420627579207265717565737420616d6f756e740000000000005f82015250565b5f61ca41601a8361a535565b915061ca4c8261ca0d565b602082019050919050565b5f6020820190508181035f83015261ca6e8161ca35565b9050919050565b7f496e76616c696420726564656d7074696f6e20726571756573746572206164645f8201527f7265737300000000000000000000000000000000000000000000000000000000602082015250565b5f61cacf60248361a535565b915061cada8261ca75565b604082019050919050565b5f6020820190508181035f83015261cafc8161cac3565b9050919050565b7f696e76616c6964207661756c74206164647265737300000000000000000000005f82015250565b5f61cb3760158361a535565b915061cb428261cb03565b602082019050919050565b5f6020820190508181035f83015261cb648161cb2b565b9050919050565b7f696e76616c6964207573646320616464726573730000000000000000000000005f82015250565b5f61cb9f60148361a535565b915061cbaa8261cb6b565b602082019050919050565b5f6020820190508181035f83015261cbcc8161cb93565b9050919050565b7f696e76616c696420636861696e6c696e6b20746f6b656e2061646472657373005f82015250565b5f61cc07601f8361a535565b915061cc128261cbd3565b602082019050919050565b5f6020820190508181035f83015261cc348161cbfb565b9050919050565b7f696e76616c69642066756e6374696f6e7320726f7574657220616464726573735f82015250565b5f61cc6f60208361a535565b915061cc7a8261cc3b565b602082019050919050565b5f6020820190508181035f83015261cc9c8161cc63565b9050919050565b7f696e76616c696420646f6e2069640000000000000000000000000000000000005f82015250565b5f61ccd7600e8361a535565b915061cce28261cca3565b602082019050919050565b5f6020820190508181035f83015261cd048161cccb565b9050919050565b5f819050919050565b5f61cd2e61cd2961cd248461cd0b565b61a7c5565b61a650565b9050919050565b61cd3e8161cd14565b82525050565b5f60208201905061cd575f83018461cd35565b92915050565b7f696e76616c696420666163746f72792062616c616e63657220616464726573735f82015250565b5f61cd9160208361a535565b915061cd9c8261cd5d565b602082019050919050565b5f6020820190508181035f83015261cdbe8161cd85565b9050919050565b7f496e76616c69642069737375616e6365207265717565737465722061646472655f8201527f7373000000000000000000000000000000000000000000000000000000000000602082015250565b5f61ce1f60228361a535565b915061ce2a8261cdc5565b604082019050919050565b5f6020820190508181035f83015261ce4c8161ce13565b9050919050565b7f496e76616c69642069737375616e636520696e70757420616d6f756e740000005f82015250565b5f61ce87601d8361a535565b915061ce928261ce53565b602082019050919050565b5f6020820190508181035f83015261ceb48161ce7b565b9050919050565b7f696e76616c6964206665652072656365697665722061646472657373000000005f82015250565b5f61ceef601c8361a535565b915061cefa8261cebb565b602082019050919050565b5f6020820190508181035f83015261cf1c8161cee3565b9050919050565b7f4f6e6c792063616c6c61626c65206279206f776e6572000000000000000000005f82015250565b5f61cf5760168361a535565b915061cf628261cf23565b602082019050919050565b5f6020820190508181035f83015261cf848161cf4b565b9050919050565b5f8151905061cf998161a06b565b92915050565b5f61cfb161cfac8461ab0f565b61a2c9565b9050808382526020820190506020840283018581111561cfd45761cfd361ab3a565b5b835b8181101561cffd578061cfe9888261cf8b565b84526020840193505060208101905061cfd6565b5050509392505050565b5f82601f83011261d01b5761d01a61a253565b5b815161d02b84826020860161cf9f565b91505092915050565b5f61d04661d0418461b091565b61a2c9565b9050808382526020820190506020840283018581111561d0695761d06861ab3a565b5b835b8181101561d092578061d07e888261b5c0565b84526020840193505060208101905061d06b565b5050509392505050565b5f82601f83011261d0b05761d0af61a253565b5b815161d0c084826020860161d034565b91505092915050565b5f806040838503121561d0df5761d0de61a009565b5b5f83015167ffffffffffffffff81111561d0fc5761d0fb61a00d565b5b61d1088582860161d007565b925050602083015167ffffffffffffffff81111561d1295761d12861a00d565b5b61d1358582860161d09c565b9150509250929050565b7f696e76616c6964207265717565737420696400000000000000000000000000005f82015250565b5f61d17360128361a535565b915061d17e8261d13f565b602082019050919050565b5f6020820190508181035f83015261d1a08161d167565b9050919050565b7f696e76616c696420746f6b656e730000000000000000000000000000000000005f82015250565b5f61d1db600e8361a535565b915061d1e68261d1a7565b602082019050919050565b5f6020820190508181035f83015261d2088161d1cf565b9050919050565b7f696e76616c6964206d61726b65742073686172657300000000000000000000005f82015250565b5f61d24360158361a535565b915061d24e8261d20f565b602082019050919050565b5f6020820190508181035f83015261d2708161d237565b9050919050565b5f60608201905061d28a5f830186619fd8565b61d2976020830185619fd8565b61d2a46040830184619fd8565b949350505050565b7f616d6f756e7420646563696d616c732073686f756c64206265206c65737320745f8201527f68616e206f7220657175616c20746f2031380000000000000000000000000000602082015250565b5f61d30660328361a535565b915061d3118261d2ac565b604082019050919050565b5f6020820190508181035f83015261d3338161d2fa565b9050919050565b7f636861696e20646563696d616c732073686f756c64206265206c6573732074685f8201527f616e206f7220657175616c20746f203138000000000000000000000000000000602082015250565b5f61d39460318361a535565b915061d39f8261d33a565b604082019050919050565b5f6020820190508181035f83015261d3c18161d388565b9050919050565b5f61d3d28261a1ec565b915061d3dd8361a1ec565b9250828203905060ff81111561d3f65761d3f561b626565b5b92915050565b5f8160011c9050919050565b5f808291508390505b600185111561d4515780860481111561d42d5761d42c61b626565b5b600185161561d43c5780820291505b808102905061d44a8561d3fc565b945061d411565b94509492505050565b5f8261d469576001905061d524565b8161d476575f905061d524565b816001811461d48c576002811461d4965761d4c5565b600191505061d524565b60ff84111561d4a85761d4a761b626565b5b8360020a91508482111561d4bf5761d4be61b626565b5b5061d524565b5060208310610133831016604e8410600b841016171561d4fa5782820a90508381111561d4f55761d4f461b626565b5b61d524565b61d507848484600161d408565b9250905081840481111561d51e5761d51d61b626565b5b81810290505b9392505050565b5f61d53582619fcf565b915061d5408361a1ec565b925061d56d7fffffffffffffffffffffffffffffffffffffffffffffffffffffffffffffffff848461d45a565b905092915050565b5f61d57f8261bfe7565b915061d58a8361bfe7565b925082820261d5988161bfe7565b91507f800000000000000000000000000000000000000000000000000000000000000084145f8412161561d5cf5761d5ce61b626565b5b828205841483151761d5e45761d5e361b626565b5b5092915050565b5f82825260208201905092915050565b5f61d6058261b73c565b61d60f818561d5eb565b935061d61f81856020860161a545565b61d6288161a25b565b840191505092915050565b5f61ffff82169050919050565b61d6498161d633565b82525050565b61d6588161aefb565b82525050565b5f60a08201905061d6715f83018861a663565b818103602083015261d683818761d5fb565b905061d692604083018661d640565b61d69f606083018561d64f565b61d6ac608083018461b03e565b9695505050505050565b5f8151905061d6c48161a229565b92915050565b5f6020828403121561d6df5761d6de61a009565b5b5f61d6ec8482850161d6b6565b91505092915050565b7f43616e6e6f74207472616e7366657220746f2073656c660000000000000000005f82015250565b5f61d72960178361a535565b915061d7348261d6f5565b602082019050919050565b5f6020820190508181035f83015261d7568161d71d565b9050919050565b7f43616e6e6f7420736574206f776e657220746f207a65726f00000000000000005f82015250565b5f61d79160188361a535565b915061d79c8261d75d565b602082019050919050565b5f6020820190508181035f83015261d7be8161d785565b9050919050565b5f61d7cf82619fcf565b915061d7da83619fcf565b92508261d7ea5761d7e961bbda565b5b828206905092915050565b5f61d7ff82619fcf565b915061d80a83619fcf565b925061d8377fffffffffffffffffffffffffffffffffffffffffffffffffffffffffffffffff848461d45a565b90509291505056fe68747470733a2f2f6170702e6e65786c6162732e696f2f6170692f616c6c46756e64696e6752617465733f6d756c7469706c7946756e633d31382674696d65734e656746756e643d74727565266172726179733d74727565a2646970667358221220df162542a37f37f0c2a15459dffc646b711267d344625b111d7dd18dbab9c9c664736f6c63430008190033","linkReferences":{}},"methodIdentifiers":{"acceptOwnership()":"79ba5097","actionInfoById(uint256)":"3c1f70ca","baseUrl()":"5bcabf04","burnedTokenAmountByNonce(uint256)":"ab7820b2","buyRequestPayedAmountById(uint256)":"8861d235","calculateBuyRequestFee(uint256)":"06995e3b","calculateIssuanceFee(uint256)":"e19eefbe","cancelIssuanceComplted(uint256)":"7bfa27f2","cancelIssuanceRequestId(uint256,address)":"02e80f71","cancelIssuanceUnfilledAmount(uint256,address)":"9edcf9f4","cancelRedemptionComplted(uint256)":"b46840f9","cancelRedemptionRequestId(uint256,address)":"8c221899","cancelRedemptionUnfilledAmount(uint256,address)":"632439fd","checkCancelIssuanceStatus(uint256)":"631c8385","checkCancelRedemptionStatus(uint256)":"b592662a","checkIssuanceOrdersStatus(uint256)":"2343acb4","checkRedemptionOrdersStatus(uint256)":"3fac0922","concatenation(string,string)":"0e329357","currentList(uint256)":"9932ba4c","donId()":"8dbe7b9d","factoryAddress()":"966dae0e","factoryBalancerAddress()":"cb4d4e09","factoryProcessorAddress()":"0acb8d40","feeRate()":"978bbdb9","feeReceiver()":"b3f00674","functionsRouterAddress()":"e3c91043","getActionInfoById(uint256)":"147726ae","getAmountAfterFee(uint24,uint256)":"2e6b96e7","getIssuanceAmountOut(uint256)":"c8da3303","getOrderInstanceById(uint256)":"f1f31d66","getPortfolioValue()":"bb0498de","getPrimaryOrder(bool)":"b12279aa","getRedemptionAmountOut(uint256)":"e2851bd6","getVaultDshareBalance(address)":"a08d7bd6","getVaultDshareValue(address)":"efdf5053","handleOracleFulfillment(bytes32,bytes,bytes)":"0ca76175","increaseIssuanceNonce()":"5501c6cf","increaseRedemptionNonce()":"7851b905","initialize(address,address,address,address,uint8,address,address,bytes32,bool)":"d57e0493","isIssuanceOrderActive(uint256)":"b0e12134","isMainnet()":"42faac05","isRedemptionOrderActive(uint256)":"0b1a4918","issuanceIndexTokenPrimaryTotalSupply(uint256)":"b1dd819e","issuanceInputAmount(uint256)":"cf9ee319","issuanceIsCompleted(uint256)":"a84ebc17","issuanceNonce()":"9dbb9c9e","issuanceRequestId(uint256,address)":"264fa8b9","issuanceRequesterByNonce(uint256)":"94674098","issuanceTokenPrimaryBalance(uint256,address)":"da65925a","issuer()":"1d143848","lastUpdateTime()":"c8f33c91","latestFeeUpdate()":"011ced5f","latestPriceDecimals()":"0b1fa733","mockFillAssetsList(address[],uint256[])":"addc70d1","oracleList(uint256)":"239aad0d","orderInstanceById(uint256)":"15e666a2","orderManager()":"f9b6117f","owner()":"8da5cb5b","priceFeedByTokenAddress(address)":"08dc4b0c","priceInWei(address)":"6839a095","redemptionIndexTokenPrimaryTotalSupply(uint256)":"daf1c17d","redemptionInputAmount(uint256)":"9cf54521","redemptionIsCompleted(uint256)":"76529fdf","redemptionNonce()":"84d77bb1","redemptionRequestId(uint256,address)":"f513a718","redemptionRequesterByNonce(uint256)":"78032658","redemptionTokenPrimaryBalance(uint256,address)":"a363b9cb","requestAssetsData(string,bytes,string[],bytes[],uint64,uint32)":"8c03c55a","sellRequestAssetAmountById(uint256)":"a87f98d2","setActionInfoById(uint256,(uint256,uint256))":"8182492a","setBurnedTokenAmountByNonce(uint256,uint256)":"6188199f","setBuyRequestPayedAmountById(uint256,uint256)":"d1e4a308","setCancelIssuanceComplted(uint256,bool)":"7cd375e2","setCancelIssuanceRequestId(uint256,address,uint256)":"7a6c4b7b","setCancelIssuanceUnfilledAmount(uint256,address,uint256)":"12b6d2e6","setCancelRedemptionComplted(uint256,bool)":"8e97d7e1","setCancelRedemptionRequestId(uint256,address,uint256)":"457e0e0f","setCancelRedemptionUnfilledAmount(uint256,address,uint256)":"6ea86556","setDonId(bytes32)":"78ca5de7","setFactory(address)":"5bb47808","setFactoryBalancer(address)":"d5fbea63","setFactoryProcessor(address)":"0499a61d","setFeeRate(uint8)":"5177942a","setFeeReceiver(address)":"efdcd974","setIsMainnet(bool)":"991be68e","setIssuanceIndexTokenPrimaryTotalSupply(uint256,uint256)":"99f68da8","setIssuanceInputAmount(uint256,uint256)":"ea5142c8","setIssuanceIsCompleted(uint256,bool)":"d1c0cee6","setIssuanceRequestId(uint256,address,uint256)":"496304a4","setIssuanceRequesterByNonce(uint256,address)":"df1d5ea2","setIssuanceTokenPrimaryBalance(uint256,address,uint256)":"9b2d6e3b","setIssuer(address)":"55cc4e57","setLatestPriceDecimals(uint8)":"32502639","setOrderInstanceById(uint256,(uint64,address,address,address,bool,uint8,uint256,uint256,uint256,uint8))":"35c51204","setOrderManager(address)":"c0da840d","setPriceFeedAddresses(address[],address[])":"57b61bc3","setRedemptionIndexTokenPrimaryTotalSupply(uint256,uint256)":"6ea495df","setRedemptionInputAmount(uint256,uint256)":"c7003d1b","setRedemptionIsCompleted(uint256,bool)":"0a1d4270","setRedemptionRequestId(uint256,address,uint256)":"1c7a2959","setRedemptionRequesterByNonce(uint256,address)":"d34ed2ab","setRedemptionTokenPrimaryBalance(uint256,address,uint256)":"21de914f","setSellRequestAssetAmountById(uint256,uint256)":"1e2ad86e","setTokenAddress(address)":"26a4e8d2","setUrl(string,string)":"a73e1cbf","setUsdcAddress(address,uint8)":"eab2a711","setWrappedDShareAddresses(address[],address[])":"b411dc41","setWrappedDshareAndPriceFeedAddresses(address[],address[],address[])":"748e2c0f","token()":"fc0c546a","tokenCurrentListIndex(address)":"914f0cc6","tokenCurrentMarketShare(address)":"0be52713","tokenOracleListIndex(address)":"8c88c10c","tokenOracleMarketShare(address)":"4b3e0b80","totalCurrentList()":"53fd4332","totalOracleList()":"c8599ded","transferOwnership(address)":"f2fde38b","updateCurrentList()":"8baa6bf1","urlParams()":"e789598c","usdc()":"3e413bee","usdcDecimals()":"7bf42165","vault()":"fbfa77cf","wrappedDshareAddress(address)":"092755e0"},"id":21}