{"abi":[{"type":"function","name":"baseUrl","inputs":[],"outputs":[{"name":"","type":"string","internalType":"string"}],"stateMutability":"view"},{"type":"function","name":"checkCancelIssuanceStatus","inputs":[{"name":"_issuanceNonce","type":"uint256","internalType":"uint256"}],"outputs":[{"name":"","type":"bool","internalType":"bool"}],"stateMutability":"view"},{"type":"function","name":"checkCancelRedemptionStatus","inputs":[{"name":"_redemptionNonce","type":"uint256","internalType":"uint256"}],"outputs":[{"name":"","type":"bool","internalType":"bool"}],"stateMutability":"view"},{"type":"function","name":"checkIssuanceOrdersStatus","inputs":[{"name":"_issuanceNonce","type":"uint256","internalType":"uint256"}],"outputs":[{"name":"","type":"bool","internalType":"bool"}],"stateMutability":"view"},{"type":"function","name":"checkRedemptionOrdersStatus","inputs":[{"name":"_redemptionNonce","type":"uint256","internalType":"uint256"}],"outputs":[{"name":"","type":"bool","internalType":"bool"}],"stateMutability":"view"},{"type":"function","name":"concatenation","inputs":[{"name":"a","type":"string","internalType":"string"},{"name":"b","type":"string","internalType":"string"}],"outputs":[{"name":"","type":"string","internalType":"string"}],"stateMutability":"pure"},{"type":"function","name":"currentList","inputs":[{"name":"","type":"uint256","internalType":"uint256"}],"outputs":[{"name":"","type":"address","internalType":"address"}],"stateMutability":"view"},{"type":"function","name":"externalJobId","inputs":[],"outputs":[{"name":"","type":"bytes32","internalType":"bytes32"}],"stateMutability":"view"},{"type":"function","name":"factory","inputs":[],"outputs":[{"name":"","type":"address","internalType":"contract IndexFactory"}],"stateMutability":"view"},{"type":"function","name":"factoryBalancer","inputs":[],"outputs":[{"name":"","type":"address","internalType":"contract IndexFactoryBalancer"}],"stateMutability":"view"},{"type":"function","name":"fulfillAssetsData","inputs":[{"name":"requestId","type":"bytes32","internalType":"bytes32"},{"name":"_tokens","type":"address[]","internalType":"address[]"},{"name":"_marketShares","type":"uint256[]","internalType":"uint256[]"}],"outputs":[],"stateMutability":"nonpayable"},{"type":"function","name":"initialize","inputs":[{"name":"_issuer","type":"address","internalType":"address"},{"name":"_token","type":"address","internalType":"address"},{"name":"_vault","type":"address","internalType":"address"},{"name":"_usdc","type":"address","internalType":"address"},{"name":"_usdcDecimals","type":"uint8","internalType":"uint8"},{"name":"_chainlinkToken","type":"address","internalType":"address"},{"name":"_oracleAddress","type":"address","internalType":"address"},{"name":"_externalJobId","type":"bytes32","internalType":"bytes32"}],"outputs":[],"stateMutability":"nonpayable"},{"type":"function","name":"isIssuanceOrderActive","inputs":[{"name":"_issuanceNonce","type":"uint256","internalType":"uint256"}],"outputs":[{"name":"","type":"bool","internalType":"bool"}],"stateMutability":"view"},{"type":"function","name":"isRedemptionOrderActive","inputs":[{"name":"_redemptionNonce","type":"uint256","internalType":"uint256"}],"outputs":[{"name":"","type":"bool","internalType":"bool"}],"stateMutability":"view"},{"type":"function","name":"issuer","inputs":[],"outputs":[{"name":"","type":"address","internalType":"contract IOrderProcessor"}],"stateMutability":"view"},{"type":"function","name":"lastUpdateTime","inputs":[],"outputs":[{"name":"","type":"uint256","internalType":"uint256"}],"stateMutability":"view"},{"type":"function","name":"mockFillAssetsList","inputs":[{"name":"_tokens","type":"address[]","internalType":"address[]"},{"name":"_marketShares","type":"uint256[]","internalType":"uint256[]"}],"outputs":[],"stateMutability":"nonpayable"},{"type":"function","name":"oracleList","inputs":[{"name":"","type":"uint256","internalType":"uint256"}],"outputs":[{"name":"","type":"address","internalType":"address"}],"stateMutability":"view"},{"type":"function","name":"oraclePayment","inputs":[],"outputs":[{"name":"","type":"uint256","internalType":"uint256"}],"stateMutability":"view"},{"type":"function","name":"owner","inputs":[],"outputs":[{"name":"","type":"address","internalType":"address"}],"stateMutability":"view"},{"type":"function","name":"priceFeedByTokenAddress","inputs":[{"name":"","type":"address","internalType":"address"}],"outputs":[{"name":"","type":"address","internalType":"address"}],"stateMutability":"view"},{"type":"function","name":"renounceOwnership","inputs":[],"outputs":[],"stateMutability":"nonpayable"},{"type":"function","name":"requestAssetsData","inputs":[],"outputs":[{"name":"","type":"bytes32","internalType":"bytes32"}],"stateMutability":"nonpayable"},{"type":"function","name":"setFactory","inputs":[{"name":"_factoryAddress","type":"address","internalType":"address"}],"outputs":[],"stateMutability":"nonpayable"},{"type":"function","name":"setFactoryBalancer","inputs":[{"name":"_factoryBalancerAddress","type":"address","internalType":"address"}],"outputs":[],"stateMutability":"nonpayable"},{"type":"function","name":"setOracleInfo","inputs":[{"name":"_oracleAddress","type":"address","internalType":"address"},{"name":"_externalJobId","type":"bytes32","internalType":"bytes32"}],"outputs":[],"stateMutability":"nonpayable"},{"type":"function","name":"setPriceFeedAddresses","inputs":[{"name":"_dShares","type":"address[]","internalType":"address[]"},{"name":"_priceFeedAddresses","type":"address[]","internalType":"address[]"}],"outputs":[],"stateMutability":"nonpayable"},{"type":"function","name":"setUrl","inputs":[{"name":"_beforeAddress","type":"string","internalType":"string"},{"name":"_afterAddress","type":"string","internalType":"string"}],"outputs":[],"stateMutability":"nonpayable"},{"type":"function","name":"setWrappedDShareAddresses","inputs":[{"name":"_dShares","type":"address[]","internalType":"address[]"},{"name":"_wrappedDShares","type":"address[]","internalType":"address[]"}],"outputs":[],"stateMutability":"nonpayable"},{"type":"function","name":"token","inputs":[],"outputs":[{"name":"","type":"address","internalType":"contract IndexToken"}],"stateMutability":"view"},{"type":"function","name":"tokenCurrentListIndex","inputs":[{"name":"","type":"address","internalType":"address"}],"outputs":[{"name":"","type":"uint256","internalType":"uint256"}],"stateMutability":"view"},{"type":"function","name":"tokenCurrentMarketShare","inputs":[{"name":"","type":"address","internalType":"address"}],"outputs":[{"name":"","type":"uint256","internalType":"uint256"}],"stateMutability":"view"},{"type":"function","name":"tokenOracleListIndex","inputs":[{"name":"","type":"address","internalType":"address"}],"outputs":[{"name":"","type":"uint256","internalType":"uint256"}],"stateMutability":"view"},{"type":"function","name":"tokenOracleMarketShare","inputs":[{"name":"","type":"address","internalType":"address"}],"outputs":[{"name":"","type":"uint256","internalType":"uint256"}],"stateMutability":"view"},{"type":"function","name":"totalCurrentList","inputs":[],"outputs":[{"name":"","type":"uint256","internalType":"uint256"}],"stateMutability":"view"},{"type":"function","name":"totalOracleList","inputs":[],"outputs":[{"name":"","type":"uint256","internalType":"uint256"}],"stateMutability":"view"},{"type":"function","name":"transferOwnership","inputs":[{"name":"newOwner","type":"address","internalType":"address"}],"outputs":[],"stateMutability":"nonpayable"},{"type":"function","name":"updateCurrentList","inputs":[],"outputs":[],"stateMutability":"nonpayable"},{"type":"function","name":"urlParams","inputs":[],"outputs":[{"name":"","type":"string","internalType":"string"}],"stateMutability":"view"},{"type":"function","name":"usdc","inputs":[],"outputs":[{"name":"","type":"address","internalType":"address"}],"stateMutability":"view"},{"type":"function","name":"usdcDecimals","inputs":[],"outputs":[{"name":"","type":"uint8","internalType":"uint8"}],"stateMutability":"view"},{"type":"function","name":"vault","inputs":[],"outputs":[{"name":"","type":"address","internalType":"contract NexVault"}],"stateMutability":"view"},{"type":"function","name":"wrappedDshareAddress","inputs":[{"name":"","type":"address","internalType":"address"}],"outputs":[{"name":"","type":"address","internalType":"address"}],"stateMutability":"view"},{"type":"event","name":"ChainlinkCancelled","inputs":[{"name":"id","type":"bytes32","indexed":true,"internalType":"bytes32"}],"anonymous":false},{"type":"event","name":"ChainlinkFulfilled","inputs":[{"name":"id","type":"bytes32","indexed":true,"internalType":"bytes32"}],"anonymous":false},{"type":"event","name":"ChainlinkRequested","inputs":[{"name":"id","type":"bytes32","indexed":true,"internalType":"bytes32"}],"anonymous":false},{"type":"event","name":"Initialized","inputs":[{"name":"version","type":"uint64","indexed":false,"internalType":"uint64"}],"anonymous":false},{"type":"event","name":"OwnershipTransferred","inputs":[{"name":"previousOwner","type":"address","indexed":true,"internalType":"address"},{"name":"newOwner","type":"address","indexed":true,"internalType":"address"}],"anonymous":false},{"type":"error","name":"InvalidInitialization","inputs":[]},{"type":"error","name":"NotInitializing","inputs":[]},{"type":"error","name":"OwnableInvalidOwner","inputs":[{"name":"owner","type":"address","internalType":"address"}]},{"type":"error","name":"OwnableUnauthorizedAccount","inputs":[{"name":"account","type":"address","internalType":"address"}]}],"bytecode":{"object":"0x6080604052348015600f57600080fd5b5061300b8061001f6000396000f3fe608060405234801561001057600080fd5b50600436106102695760003560e01c80637ca58c5511610151578063b592662a116100c3578063e789598c11610087578063e789598c146105d5578063efa906c7146105dd578063f14bea20146105f0578063f2fde38b14610603578063fbfa77cf14610616578063fc0c546a1461062957600080fd5b8063b592662a1461058a578063c45a01551461059d578063c8599ded146105b0578063c8f33c91146105b9578063d5fbea63146105c257600080fd5b80639932ba4c116101155780639932ba4c1461050c578063a73e1cbf14610535578063a8b54bd414610548578063addc70d114610551578063b0e1213414610564578063b411dc411461057757600080fd5b80637ca58c551461048c5780638baa6bf1146104945780638c88c10c1461049c5780638da5cb5b146104bc578063914f0cc6146104ec57600080fd5b80633e413bee116101ea57806357b61bc3116101ae57806357b61bc31461041d5780635bb47808146104305780635bcabf0414610443578063631c83851461044b578063715018a61461045e5780637bf421651461046657600080fd5b80633e413bee146103b95780633fac0922146103cc57806343482fc8146103df5780634b3e0b80146103f457806353fd43321461041457600080fd5b80630e329357116102315780630e329357146103375780631d143848146103575780632343acb41461036a578063239aad0d1461037d57806334d58f66146103a657600080fd5b806308dc4b0c1461026e578063092755e0146102b45780630b1a4918146102dd5780630be52713146103005780630c02e1301461032e575b600080fd5b61029761027c3660046126bb565b6016602052600090815260409020546001600160a01b031681565b6040516001600160a01b0390911681526020015b60405180910390f35b6102976102c23660046126bb565b6011602052600090815260409020546001600160a01b031681565b6102f06102eb3660046126d8565b61063c565b60405190151581526020016102ab565b61032061030e3660046126bb565b60146020526000908152604090205481565b6040519081526020016102ab565b610320600b5481565b61034a6103453660046127a6565b61077d565b6040516102ab9190612859565b601954610297906001600160a01b031681565b6102f06103783660046126d8565b6107aa565b61029761038b3660046126d8565b600f602052600090815260409020546001600160a01b031681565b600954610297906001600160a01b031681565b601a54610297906001600160a01b031681565b6102f06103da3660046126d8565b610900565b6103f26103ed36600461286c565b610a3d565b005b6103206104023660046126bb565b60156020526000908152604090205481565b610320600e5481565b6103f261042b366004612933565b610a54565b6103f261043e3660046126bb565b610b2f565b61034a610b59565b6102f06104593660046126d8565b610be7565b6103f2610fc0565b601a5461047a90600160a01b900460ff1681565b60405160ff90911681526020016102ab565b610320610fd4565b6103f2611214565b6103206104aa3660046126bb565b60126020526000908152604090205481565b7f9016d09d72d40fdae2fd8ceac6b6234c7706214fd39c1cd1e609a0528c199300546001600160a01b0316610297565b6103206104fa3660046126bb565b60136020526000908152604090205481565b61029761051a3660046126d8565b6010602052600090815260409020546001600160a01b031681565b6103f26105433660046127a6565b6112dd565b610320600a5481565b6103f261055f3660046129eb565b6112fe565b6102f06105723660046126d8565b611314565b6103f2610585366004612933565b61144c565b6102f06105983660046126d8565b61151d565b600854610297906001600160a01b031681565b610320600d5481565b610320600c5481565b6103f26105d03660046126bb565b6118f6565b61034a611920565b6103f26105eb366004612a44565b61192d565b6103f26105fe366004612aea565b611b8f565b6103f26106113660046126bb565b611c5b565b601854610297906001600160a01b031681565b601754610297906001600160a01b031681565b6000805b600e5481101561077457600081815260106020526040808220546008549151631ea274e360e31b8152600481018790526001600160a01b03918216602482018190529392919091169063f513a71890604401602060405180830381865afa1580156106af573d6000803e3d6000fd5b505050506040513d601f19601f820116820180604052508101906106d39190612b56565b6019546040516322fd455760e11b8152600481018390529192506001916001600160a01b03909116906345fa8aae90602401602060405180830381865afa158015610722573d6000803e3d6000fd5b505050506040513d601f19601f820116820180604052508101906107469190612b85565b600381111561075757610757612b6f565b60ff160361076a57506001949350505050565b5050600101610640565b50600092915050565b60608282604051602001610792929190612ba6565b60405160208183030381529060405290505b92915050565b60008060005b600e548110156108e75760008181526010602052604080822054600854915163264fa8b960e01b8152600481018890526001600160a01b03918216602482018190529392919091169063264fa8b990604401602060405180830381865afa15801561081f573d6000803e3d6000fd5b505050506040513d601f19601f820116820180604052508101906108439190612b56565b6019546040516322fd455760e11b8152600481018390529192506002916001600160a01b03909116906345fa8aae90602401602060405180830381865afa158015610892573d6000803e3d6000fd5b505050506040513d601f19601f820116820180604052508101906108b69190612b85565b60038111156108c7576108c7612b6f565b60ff16036108dd576108da600185612beb565b93505b50506001016107b0565b50600e5481036107745750600192915050565b50919050565b60008060005b600e548110156108e757600081815260106020526040808220546008549151631ea274e360e31b8152600481018890526001600160a01b03918216602482018190529392919091169063f513a71890604401602060405180830381865afa158015610975573d6000803e3d6000fd5b505050506040513d601f19601f820116820180604052508101906109999190612b56565b6019546040516322fd455760e11b8152600481018390529192506002916001600160a01b03909116906345fa8aae90602401602060405180830381865afa1580156109e8573d6000803e3d6000fd5b505050506040513d601f19601f82011682018060405250810190610a0c9190612b85565b6003811115610a1d57610a1d612b6f565b60ff1603610a3357610a30600185612beb565b93505b5050600101610906565b610a45611c96565b610a4e82611cf1565b600a5550565b610a5c611c96565b8051825114610aaa5760405162461bcd60e51b8152602060048201526015602482015274082e4e4c2f240d8cadccee8d040dad2e6dac2e8c6d605b1b60448201526064015b60405180910390fd5b60005b8251811015610b2a57818181518110610ac857610ac8612bfe565b602002602001015160166000858481518110610ae657610ae6612bfe565b6020908102919091018101516001600160a01b0390811683529082019290925260400160002080546001600160a01b03191692909116919091179055600101610aad565b505050565b610b37611c96565b600880546001600160a01b0319166001600160a01b0392909216919091179055565b60068054610b6690612c14565b80601f0160208091040260200160405190810160405280929190818152602001828054610b9290612c14565b8015610bdf5780601f10610bb457610100808354040283529160200191610bdf565b820191906000526020600020905b815481529060010190602001808311610bc257829003601f168201915b505050505081565b60008060005b600e548110156108e75760008181526010602052604080822054600854915163264fa8b960e01b8152600481018890526001600160a01b03918216602482018190529392919091169063264fa8b990604401602060405180830381865afa158015610c5c573d6000803e3d6000fd5b505050506040513d601f19601f82011682018060405250810190610c809190612b56565b60085460405163031c990160e41b8152600481018990529192506000916001600160a01b03909116906331c9901090602401602060405180830381865afa158015610ccf573d6000803e3d6000fd5b505050506040513d601f19601f82011682018060405250810190610cf39190612c48565b6040516370a0823160e01b81526001600160a01b0380831660048301529192506000918516906370a0823190602401602060405180830381865afa158015610d3f573d6000803e3d6000fd5b505050506040513d601f19601f82011682018060405250810190610d639190612b56565b6019546040516322fd455760e11b8152600481018690529192506003916001600160a01b03909116906345fa8aae90602401602060405180830381865afa158015610db2573d6000803e3d6000fd5b505050506040513d601f19601f82011682018060405250810190610dd69190612b85565b6003811115610de757610de7612b6f565b60ff16148015610df5575080155b15610e0c57610e05600187612beb565b9550610fb0565b6019546040516322fd455760e11b8152600481018590526002916001600160a01b0316906345fa8aae90602401602060405180830381865afa158015610e56573d6000803e3d6000fd5b505050506040513d601f19601f82011682018060405250810190610e7a9190612b85565b6003811115610e8b57610e8b612b6f565b60ff16148015610e99575080155b15610fb0576008546040516302e80f7160e01b8152600481018a90526001600160a01b03868116602483015260009216906302e80f7190604401602060405180830381865afa158015610ef0573d6000803e3d6000fd5b505050506040513d601f19601f82011682018060405250810190610f149190612b56565b6019546040516322fd455760e11b8152600481018390529192506002916001600160a01b03909116906345fa8aae90602401602060405180830381865afa158015610f63573d6000803e3d6000fd5b505050506040513d601f19601f82011682018060405250810190610f879190612b85565b6003811115610f9857610f98612b6f565b60ff1603610fae57610fab600188612beb565b96505b505b505060019092019150610bed9050565b610fc8611c96565b610fd26000611d13565b565b6000806110f560068054610fe790612c14565b80601f016020809104026020016040519081016040528092919081815260200182805461101390612c14565b80156110605780601f1061103557610100808354040283529160200191611060565b820191906000526020600020905b81548152906001019060200180831161104357829003601f168201915b50505050506007805461107290612c14565b80601f016020809104026020016040519081016040528092919081815260200182805461109e90612c14565b80156110eb5780601f106110c0576101008083540402835291602001916110eb565b820191906000526020600020905b8154815290600101906020018083116110ce57829003601f168201915b505050505061077d565b9050600061110d600a543063f14bea2060e01b611d84565b60408051808201909152600381526219d95d60ea1b602082015290915061113690829084611da9565b61119160405180604001604052806005815260200164706174683160d81b81525060405180604001604052806011815260200170726573756c74732c61646472657373657360781b81525083611da99092919063ffffffff16565b6111ef604051806040016040528060058152602001643830ba341960d91b81525060405180604001604052806014815260200173726573756c74732c6d61726b657453686172657360601b81525083611da99092919063ffffffff16565b61120d6112046003546001600160a01b031690565b82600b54611dc7565b9250505090565b6009546001600160a01b0316331461126e5760405162461bcd60e51b815260206004820152601f60248201527f63616c6c6572206d75737420626520666163746f72792062616c616e636572006044820152606401610aa1565b600d54600e5560005b600d548110156112da576000818152600f60209081526040808320546010835281842080546001600160a01b0319166001600160a01b03909216918217905583526015825280832054601483528184205560139091529020819055600101611277565b50565b6112e5611c96565b60066112f18382612cb5565b506007610b2a8282612cb5565b611306611c96565b6113108282611e5a565b5050565b6000805b600e548110156107745760008181526010602052604080822054600854915163264fa8b960e01b8152600481018790526001600160a01b03918216602482018190529392919091169063264fa8b990604401602060405180830381865afa158015611387573d6000803e3d6000fd5b505050506040513d601f19601f820116820180604052508101906113ab9190612b56565b6019546040516322fd455760e11b8152600481018390529192506001916001600160a01b03909116906345fa8aae90602401602060405180830381865afa1580156113fa573d6000803e3d6000fd5b505050506040513d601f19601f8201168201806040525081019061141e9190612b85565b600381111561142f5761142f612b6f565b60ff160361144257506001949350505050565b5050600101611318565b611454611c96565b805182511461149d5760405162461bcd60e51b8152602060048201526015602482015274082e4e4c2f240d8cadccee8d040dad2e6dac2e8c6d605b1b6044820152606401610aa1565b60005b8251811015610b2a578181815181106114bb576114bb612bfe565b6020026020010151601160008584815181106114d9576114d9612bfe565b6020908102919091018101516001600160a01b0390811683529082019290925260400160002080546001600160a01b031916929091169190911790556001016114a0565b60008060005b600e548110156108e757600081815260106020526040808220546008549151631ea274e360e31b8152600481018890526001600160a01b03918216602482018190529392919091169063f513a71890604401602060405180830381865afa158015611592573d6000803e3d6000fd5b505050506040513d601f19601f820116820180604052508101906115b69190612b56565b600854604051632dd7d30b60e21b8152600481018990529192506000916001600160a01b039091169063b75f4c2c90602401602060405180830381865afa158015611605573d6000803e3d6000fd5b505050506040513d601f19601f820116820180604052508101906116299190612c48565b6040516370a0823160e01b81526001600160a01b0380831660048301529192506000918516906370a0823190602401602060405180830381865afa158015611675573d6000803e3d6000fd5b505050506040513d601f19601f820116820180604052508101906116999190612b56565b6019546040516322fd455760e11b8152600481018690529192506003916001600160a01b03909116906345fa8aae90602401602060405180830381865afa1580156116e8573d6000803e3d6000fd5b505050506040513d601f19601f8201168201806040525081019061170c9190612b85565b600381111561171d5761171d612b6f565b60ff1614801561172b575080155b156117425761173b600187612beb565b95506118e6565b6019546040516322fd455760e11b8152600481018590526002916001600160a01b0316906345fa8aae90602401602060405180830381865afa15801561178c573d6000803e3d6000fd5b505050506040513d601f19601f820116820180604052508101906117b09190612b85565b60038111156117c1576117c1612b6f565b60ff161480156117cf575080155b156118e657600854604051638c22189960e01b8152600481018a90526001600160a01b0386811660248301526000921690638c22189990604401602060405180830381865afa158015611826573d6000803e3d6000fd5b505050506040513d601f19601f8201168201806040525081019061184a9190612b56565b6019546040516322fd455760e11b8152600481018390529192506002916001600160a01b03909116906345fa8aae90602401602060405180830381865afa158015611899573d6000803e3d6000fd5b505050506040513d601f19601f820116820180604052508101906118bd9190612b85565b60038111156118ce576118ce612b6f565b60ff16036118e4576118e1600188612beb565b96505b505b5050600190920191506115239050565b6118fe611c96565b600980546001600160a01b0319166001600160a01b0392909216919091179055565b60078054610b6690612c14565b7ff0c57e16840df040f15088dc2f81fe391c3923bec73e23a9662efc9c229c6a008054600160401b810460ff1615906001600160401b03166000811580156119725750825b90506000826001600160401b0316600114801561198e5750303b155b90508115801561199c575080155b156119ba5760405163f92ee8a960e01b815260040160405180910390fd5b845467ffffffffffffffff1916600117855583156119e457845460ff60401b1916600160401b1785555b8c601960006101000a8154816001600160a01b0302191690836001600160a01b031602179055508b601760006101000a8154816001600160a01b0302191690836001600160a01b031602179055508a601860006101000a8154816001600160a01b0302191690836001600160a01b0316021790555089601a60006101000a8154816001600160a01b0302191690836001600160a01b0316021790555088601a60146101000a81548160ff021916908360ff160217905550611aa43361207b565b600280546001600160a01b0319166001600160a01b038a16179055611ac887611cf1565b600a868155611ae0670de0b6b3a76400006001612d74565b611aea9190612da1565b600b556040805160608101909152602a808252612f7e6020830139600690611b129082612cb5565b506040518060600160405280602e8152602001612fa8602e9139600790611b399082612cb5565b508315611b8057845460ff60401b19168555604051600181527fc7f505b2f371ae2175ee4913f4499e1f2633a7b5936321eed1cdaeb6115181d29060200160405180910390a15b50505050505050505050505050565b60008381526005602052604090205483906001600160a01b03163314611c085760405162461bcd60e51b815260206004820152602860248201527f536f75726365206d75737420626520746865206f7261636c65206f6620746865604482015267081c995c5d595cdd60c21b6064820152608401610aa1565b60008181526005602052604080822080546001600160a01b03191690555182917f7cc135e0cebb02c3480ae5d74d377283180a2601f8f644edf7987b009316c63a91a2611c558383611e5a565b50505050565b611c63611c96565b6001600160a01b038116611c8d57604051631e4fbdf760e01b815260006004820152602401610aa1565b6112da81611d13565b33611cc87f9016d09d72d40fdae2fd8ceac6b6234c7706214fd39c1cd1e609a0528c199300546001600160a01b031690565b6001600160a01b031614610fd25760405163118cdaa760e01b8152336004820152602401610aa1565b600380546001600160a01b0319166001600160a01b0392909216919091179055565b7f9016d09d72d40fdae2fd8ceac6b6234c7706214fd39c1cd1e609a0528c19930080546001600160a01b031981166001600160a01b03848116918217845560405192169182907f8be0079c531659141344cd1fd0a4f28419497f9722a3daafe3b4186f6b6457e090600090a3505050565b611d8c61266b565b611d9461266b565b611da08186868661208c565b95945050505050565b6080830151611db890836120d2565b6080830151610b2a90826120d2565b600454600090611dd8816001612beb565b600455835160408086015160808701515191516000936320214ca360e11b93611e109386938493923092918a91600191602401612db5565b60408051601f198184030181529190526020810180516001600160e01b03166001600160e01b0319909316929092179091529050611e50868386846120e9565b9695505050505050565b818160005b825181101561205b57828181518110611e7a57611e7a612bfe565b6020026020010151600f600083815260200190815260200160002060006101000a8154816001600160a01b0302191690836001600160a01b031602179055508060126000858481518110611ed057611ed0612bfe565b60200260200101516001600160a01b03166001600160a01b0316815260200190815260200160002081905550818181518110611f0e57611f0e612bfe565b602002602001015160156000858481518110611f2c57611f2c612bfe565b60200260200101516001600160a01b03166001600160a01b0316815260200190815260200160002081905550600e5460000361205357828181518110611f7457611f74612bfe565b60200260200101516010600083815260200190815260200160002060006101000a8154816001600160a01b0302191690836001600160a01b03160217905550818181518110611fc557611fc5612bfe565b602002602001015160146000858481518110611fe357611fe3612bfe565b60200260200101516001600160a01b03166001600160a01b0316815260200190815260200160002081905550806013600085848151811061202657612026612bfe565b60200260200101516001600160a01b03166001600160a01b03168152602001908152602001600020819055505b600101611e5f565b508151600d55600e54600003612071578151600e555b505042600c555050565b612083612247565b6112da81612290565b61209461266b565b6120a48560800151610100612298565b50508284526001600160a01b03821660208501526001600160e01b031981166040850152835b949350505050565b6120df82600383516122fd565b610b2a8282612404565b6040516bffffffffffffffffffffffff193060601b1660208201526034810184905260009060540160408051808303601f1901815282825280516020918201206000818152600590925291812080546001600160a01b0319166001600160a01b038a1617905590925082917fb5e6e01e79f91267dc17b4e6314d5d4d03593d2ceee0fbb452b750bd70ea5af99190a2600254604051630200057560e51b81526001600160a01b0390911690634000aea0906121ac90889087908790600401612e1d565b6020604051808303816000875af11580156121cb573d6000803e3d6000fd5b505050506040513d601f19601f820116820180604052508101906121ef9190612e44565b6120ca5760405162461bcd60e51b815260206004820152602360248201527f756e61626c6520746f207472616e73666572416e6443616c6c20746f206f7261604482015262636c6560e81b6064820152608401610aa1565b7ff0c57e16840df040f15088dc2f81fe391c3923bec73e23a9662efc9c229c6a0054600160401b900460ff16610fd257604051631afcd79f60e31b815260040160405180910390fd5b611c63612247565b6040805180820190915260608152600060208201526122b8602083612e66565b156122e0576122c8602083612e66565b6122d3906020612e7a565b6122dd9083612beb565b91505b506020828101829052604080518085526000815290920101905290565b6017816001600160401b03161161232157611c558360e0600585901b168317612432565b60ff816001600160401b03161161235d57612347836018611fe0600586901b1617612432565b50611c55836001600160401b0383166001612457565b61ffff816001600160401b03161161239a57612384836019611fe0600586901b1617612432565b50611c55836001600160401b0383166002612457565b63ffffffff816001600160401b0316116123d9576123c383601a611fe0600586901b1617612432565b50611c55836001600160401b0383166004612457565b6123ee83601b611fe0600586901b1617612432565b50611c55836001600160401b0383166008612457565b60408051808201909152606081526000602082015261242b8384600001515184855161247d565b9392505050565b60408051808201909152606081526000602082015261242b8384600001515184612567565b6040805180820190915260608152600060208201526120ca8485600001515185856125c2565b60408051808201909152606081526000602082015282518211156124a057600080fd5b60208501516124af8386612beb565b11156124e2576124e2856124d2876020015187866124cd9190612beb565b612643565b6124dd906002612d74565b612654565b6000808651805187602083010193508088870111156125015787860182525b505050602084015b602084106125415780518252612520602083612beb565b915061252d602082612beb565b905061253a602085612e7a565b9350612509565b51815160001960208690036101000a019081169019919091161790525083949350505050565b6040805180820190915260608152600060208201528360200151831061259c5761259c84856020015160026124dd9190612d74565b83518051602085830101848153508085036125b8576001810182525b5093949350505050565b60408051808201909152606081526000602082015260208501516125e68584612beb565b11156125fa576125fa856124d28685612beb565b6000600161260a84610100612f71565b6126149190612e7a565b90508551838682010185831982511617815250805184870111156126385783860181525b509495945050505050565b6000818311156108fa5750816107a4565b81516126608383612298565b50611c558382612404565b6040805160a0810182526000808252602080830182905282840182905260608084018390528451808601909552845283015290608082015290565b6001600160a01b03811681146112da57600080fd5b6000602082840312156126cd57600080fd5b813561242b816126a6565b6000602082840312156126ea57600080fd5b5035919050565b634e487b7160e01b600052604160045260246000fd5b604051601f8201601f191681016001600160401b038111828210171561272f5761272f6126f1565b604052919050565b600082601f83011261274857600080fd5b81356001600160401b03811115612761576127616126f1565b612774601f8201601f1916602001612707565b81815284602083860101111561278957600080fd5b816020850160208301376000918101602001919091529392505050565b600080604083850312156127b957600080fd5b82356001600160401b03808211156127d057600080fd5b6127dc86838701612737565b935060208501359150808211156127f257600080fd5b506127ff85828601612737565b9150509250929050565b60005b8381101561282457818101518382015260200161280c565b50506000910152565b60008151808452612845816020860160208601612809565b601f01601f19169290920160200192915050565b60208152600061242b602083018461282d565b6000806040838503121561287f57600080fd5b823561288a816126a6565b946020939093013593505050565b60006001600160401b038211156128b1576128b16126f1565b5060051b60200190565b600082601f8301126128cc57600080fd5b813560206128e16128dc83612898565b612707565b8083825260208201915060208460051b87010193508684111561290357600080fd5b602086015b8481101561292857803561291b816126a6565b8352918301918301612908565b509695505050505050565b6000806040838503121561294657600080fd5b82356001600160401b038082111561295d57600080fd5b612969868387016128bb565b9350602085013591508082111561297f57600080fd5b506127ff858286016128bb565b600082601f83011261299d57600080fd5b813560206129ad6128dc83612898565b8083825260208201915060208460051b8701019350868411156129cf57600080fd5b602086015b8481101561292857803583529183019183016129d4565b600080604083850312156129fe57600080fd5b82356001600160401b0380821115612a1557600080fd5b612a21868387016128bb565b93506020850135915080821115612a3757600080fd5b506127ff8582860161298c565b600080600080600080600080610100898b031215612a6157600080fd5b8835612a6c816126a6565b97506020890135612a7c816126a6565b96506040890135612a8c816126a6565b95506060890135612a9c816126a6565b9450608089013560ff81168114612ab257600080fd5b935060a0890135612ac2816126a6565b925060c0890135612ad2816126a6565b8092505060e089013590509295985092959890939650565b600080600060608486031215612aff57600080fd5b8335925060208401356001600160401b0380821115612b1d57600080fd5b612b29878388016128bb565b93506040860135915080821115612b3f57600080fd5b50612b4c8682870161298c565b9150509250925092565b600060208284031215612b6857600080fd5b5051919050565b634e487b7160e01b600052602160045260246000fd5b600060208284031215612b9757600080fd5b81516004811061242b57600080fd5b60008351612bb8818460208801612809565b835190830190612bcc818360208801612809565b01949350505050565b634e487b7160e01b600052601160045260246000fd5b808201808211156107a4576107a4612bd5565b634e487b7160e01b600052603260045260246000fd5b600181811c90821680612c2857607f821691505b6020821081036108fa57634e487b7160e01b600052602260045260246000fd5b600060208284031215612c5a57600080fd5b815161242b816126a6565b601f821115610b2a576000816000526020600020601f850160051c81016020861015612c8e5750805b601f850160051c820191505b81811015612cad57828155600101612c9a565b505050505050565b81516001600160401b03811115612cce57612cce6126f1565b612ce281612cdc8454612c14565b84612c65565b602080601f831160018114612d175760008415612cff5750858301515b600019600386901b1c1916600185901b178555612cad565b600085815260208120601f198616915b82811015612d4657888601518255948401946001909101908401612d27565b5085821015612d645787850151600019600388901b60f8161c191681555b5050505050600190811b01905550565b80820281158282048414176107a4576107a4612bd5565b634e487b7160e01b600052601260045260246000fd5b600082612db057612db0612d8b565b500490565b6001600160a01b0389811682526020820189905260408201889052861660608201526001600160e01b03198516608082015260a0810184905260c0810183905261010060e08201819052600090612e0e8382018561282d565b9b9a5050505050505050505050565b60018060a01b0384168152826020820152606060408201526000611da0606083018461282d565b600060208284031215612e5657600080fd5b8151801515811461242b57600080fd5b600082612e7557612e75612d8b565b500690565b818103818111156107a4576107a4612bd5565b600181815b80851115612ec8578160001904821115612eae57612eae612bd5565b80851615612ebb57918102915b93841c9390800290612e92565b509250929050565b600082612edf575060016107a4565b81612eec575060006107a4565b8160018114612f025760028114612f0c57612f28565b60019150506107a4565b60ff841115612f1d57612f1d612bd5565b50506001821b6107a4565b5060208310610133831016604e8410600b8410161715612f4b575081810a6107a4565b612f558383612e8d565b8060001904821115612f6957612f69612bd5565b029392505050565b600061242b8383612ed056fe68747470733a2f2f6170702e6e65786c6162732e696f2f6170692f616c6c46756e64696e6752617465733f6d756c7469706c7946756e633d31382674696d65734e656746756e643d74727565266172726179733d74727565a264697066735822122017ca7ef38dbb7cad5709f9dc4530e1c23b29e7cd70f7f16e423fc4aa6038776564736f6c63430008190033","linkReferences":{}},"methodIdentifiers":{"baseUrl()":"5bcabf04","checkCancelIssuanceStatus(uint256)":"631c8385","checkCancelRedemptionStatus(uint256)":"b592662a","checkIssuanceOrdersStatus(uint256)":"2343acb4","checkRedemptionOrdersStatus(uint256)":"3fac0922","concatenation(string,string)":"0e329357","currentList(uint256)":"9932ba4c","externalJobId()":"a8b54bd4","factory()":"c45a0155","factoryBalancer()":"34d58f66","fulfillAssetsData(bytes32,address[],uint256[])":"f14bea20","initialize(address,address,address,address,uint8,address,address,bytes32)":"efa906c7","isIssuanceOrderActive(uint256)":"b0e12134","isRedemptionOrderActive(uint256)":"0b1a4918","issuer()":"1d143848","lastUpdateTime()":"c8f33c91","mockFillAssetsList(address[],uint256[])":"addc70d1","oracleList(uint256)":"239aad0d","oraclePayment()":"0c02e130","owner()":"8da5cb5b","priceFeedByTokenAddress(address)":"08dc4b0c","renounceOwnership()":"715018a6","requestAssetsData()":"7ca58c55","setFactory(address)":"5bb47808","setFactoryBalancer(address)":"d5fbea63","setOracleInfo(address,bytes32)":"43482fc8","setPriceFeedAddresses(address[],address[])":"57b61bc3","setUrl(string,string)":"a73e1cbf","setWrappedDShareAddresses(address[],address[])":"b411dc41","token()":"fc0c546a","tokenCurrentListIndex(address)":"914f0cc6","tokenCurrentMarketShare(address)":"0be52713","tokenOracleListIndex(address)":"8c88c10c","tokenOracleMarketShare(address)":"4b3e0b80","totalCurrentList()":"53fd4332","totalOracleList()":"c8599ded","transferOwnership(address)":"f2fde38b","updateCurrentList()":"8baa6bf1","urlParams()":"e789598c","usdc()":"3e413bee","usdcDecimals()":"7bf42165","vault()":"fbfa77cf","wrappedDshareAddress(address)":"092755e0"},"id":18}