{"abi":[{"type":"function","name":"actionInfoById","inputs":[{"name":"","type":"uint256","internalType":"uint256"}],"outputs":[{"name":"actionType","type":"uint256","internalType":"uint256"},{"name":"nonce","type":"uint256","internalType":"uint256"}],"stateMutability":"view"},{"type":"function","name":"baseUrl","inputs":[],"outputs":[{"name":"","type":"string","internalType":"string"}],"stateMutability":"view"},{"type":"function","name":"burnedTokenAmountByNonce","inputs":[{"name":"","type":"uint256","internalType":"uint256"}],"outputs":[{"name":"","type":"uint256","internalType":"uint256"}],"stateMutability":"view"},{"type":"function","name":"buyRequestPayedAmountById","inputs":[{"name":"","type":"uint256","internalType":"uint256"}],"outputs":[{"name":"","type":"uint256","internalType":"uint256"}],"stateMutability":"view"},{"type":"function","name":"calculateBuyRequestFee","inputs":[{"name":"_amount","type":"uint256","internalType":"uint256"}],"outputs":[{"name":"","type":"uint256","internalType":"uint256"}],"stateMutability":"view"},{"type":"function","name":"calculateIssuanceFee","inputs":[{"name":"_inputAmount","type":"uint256","internalType":"uint256"}],"outputs":[{"name":"","type":"uint256","internalType":"uint256"}],"stateMutability":"view"},{"type":"function","name":"cancelIssuanceComplted","inputs":[{"name":"","type":"uint256","internalType":"uint256"}],"outputs":[{"name":"","type":"bool","internalType":"bool"}],"stateMutability":"view"},{"type":"function","name":"cancelIssuanceRequestId","inputs":[{"name":"","type":"uint256","internalType":"uint256"},{"name":"","type":"address","internalType":"address"}],"outputs":[{"name":"","type":"uint256","internalType":"uint256"}],"stateMutability":"view"},{"type":"function","name":"cancelIssuanceUnfilledAmount","inputs":[{"name":"","type":"uint256","internalType":"uint256"},{"name":"","type":"address","internalType":"address"}],"outputs":[{"name":"","type":"uint256","internalType":"uint256"}],"stateMutability":"view"},{"type":"function","name":"cancelRedemptionComplted","inputs":[{"name":"","type":"uint256","internalType":"uint256"}],"outputs":[{"name":"","type":"bool","internalType":"bool"}],"stateMutability":"view"},{"type":"function","name":"cancelRedemptionRequestId","inputs":[{"name":"","type":"uint256","internalType":"uint256"},{"name":"","type":"address","internalType":"address"}],"outputs":[{"name":"","type":"uint256","internalType":"uint256"}],"stateMutability":"view"},{"type":"function","name":"cancelRedemptionUnfilledAmount","inputs":[{"name":"","type":"uint256","internalType":"uint256"},{"name":"","type":"address","internalType":"address"}],"outputs":[{"name":"","type":"uint256","internalType":"uint256"}],"stateMutability":"view"},{"type":"function","name":"checkCancelIssuanceStatus","inputs":[{"name":"_issuanceNonce","type":"uint256","internalType":"uint256"}],"outputs":[{"name":"","type":"bool","internalType":"bool"}],"stateMutability":"view"},{"type":"function","name":"checkCancelRedemptionStatus","inputs":[{"name":"_redemptionNonce","type":"uint256","internalType":"uint256"}],"outputs":[{"name":"","type":"bool","internalType":"bool"}],"stateMutability":"view"},{"type":"function","name":"checkIssuanceOrdersStatus","inputs":[{"name":"_issuanceNonce","type":"uint256","internalType":"uint256"}],"outputs":[{"name":"","type":"bool","internalType":"bool"}],"stateMutability":"view"},{"type":"function","name":"checkRedemptionOrdersStatus","inputs":[{"name":"_redemptionNonce","type":"uint256","internalType":"uint256"}],"outputs":[{"name":"","type":"bool","internalType":"bool"}],"stateMutability":"view"},{"type":"function","name":"concatenation","inputs":[{"name":"a","type":"string","internalType":"string"},{"name":"b","type":"string","internalType":"string"}],"outputs":[{"name":"","type":"string","internalType":"string"}],"stateMutability":"pure"},{"type":"function","name":"currentList","inputs":[{"name":"","type":"uint256","internalType":"uint256"}],"outputs":[{"name":"","type":"address","internalType":"address"}],"stateMutability":"view"},{"type":"function","name":"externalJobId","inputs":[],"outputs":[{"name":"","type":"bytes32","internalType":"bytes32"}],"stateMutability":"view"},{"type":"function","name":"factoryAddress","inputs":[],"outputs":[{"name":"","type":"address","internalType":"address"}],"stateMutability":"view"},{"type":"function","name":"factoryBalancerAddress","inputs":[],"outputs":[{"name":"","type":"address","internalType":"address"}],"stateMutability":"view"},{"type":"function","name":"factoryProcessorAddress","inputs":[],"outputs":[{"name":"","type":"address","internalType":"address"}],"stateMutability":"view"},{"type":"function","name":"feeRate","inputs":[],"outputs":[{"name":"","type":"uint8","internalType":"uint8"}],"stateMutability":"view"},{"type":"function","name":"feeReceiver","inputs":[],"outputs":[{"name":"","type":"address","internalType":"address"}],"stateMutability":"view"},{"type":"function","name":"fulfillAssetsData","inputs":[{"name":"requestId","type":"bytes32","internalType":"bytes32"},{"name":"_tokens","type":"address[]","internalType":"address[]"},{"name":"_marketShares","type":"uint256[]","internalType":"uint256[]"}],"outputs":[],"stateMutability":"nonpayable"},{"type":"function","name":"getActionInfoById","inputs":[{"name":"_id","type":"uint256","internalType":"uint256"}],"outputs":[{"name":"","type":"tuple","internalType":"struct IndexFactoryStorage.ActionInfo","components":[{"name":"actionType","type":"uint256","internalType":"uint256"},{"name":"nonce","type":"uint256","internalType":"uint256"}]}],"stateMutability":"view"},{"type":"function","name":"getAmountAfterFee","inputs":[{"name":"percentageFeeRate","type":"uint24","internalType":"uint24"},{"name":"orderValue","type":"uint256","internalType":"uint256"}],"outputs":[{"name":"","type":"uint256","internalType":"uint256"}],"stateMutability":"pure"},{"type":"function","name":"getIssuanceAmountOut","inputs":[{"name":"_amount","type":"uint256","internalType":"uint256"}],"outputs":[{"name":"","type":"uint256","internalType":"uint256"}],"stateMutability":"view"},{"type":"function","name":"getOrderInstanceById","inputs":[{"name":"_id","type":"uint256","internalType":"uint256"}],"outputs":[{"name":"","type":"tuple","internalType":"struct IOrderProcessor.Order","components":[{"name":"requestTimestamp","type":"uint64","internalType":"uint64"},{"name":"recipient","type":"address","internalType":"address"},{"name":"assetToken","type":"address","internalType":"address"},{"name":"paymentToken","type":"address","internalType":"address"},{"name":"sell","type":"bool","internalType":"bool"},{"name":"orderType","type":"uint8","internalType":"enum IOrderProcessor.OrderType"},{"name":"assetTokenQuantity","type":"uint256","internalType":"uint256"},{"name":"paymentTokenQuantity","type":"uint256","internalType":"uint256"},{"name":"price","type":"uint256","internalType":"uint256"},{"name":"tif","type":"uint8","internalType":"enum IOrderProcessor.TIF"}]}],"stateMutability":"view"},{"type":"function","name":"getPendingRequest","inputs":[{"name":"requestId","type":"bytes32","internalType":"bytes32"}],"outputs":[{"name":"","type":"address","internalType":"address"}],"stateMutability":"view"},{"type":"function","name":"getPortfolioValue","inputs":[],"outputs":[{"name":"","type":"uint256","internalType":"uint256"}],"stateMutability":"view"},{"type":"function","name":"getPrimaryOrder","inputs":[{"name":"sell","type":"bool","internalType":"bool"}],"outputs":[{"name":"","type":"tuple","internalType":"struct IOrderProcessor.Order","components":[{"name":"requestTimestamp","type":"uint64","internalType":"uint64"},{"name":"recipient","type":"address","internalType":"address"},{"name":"assetToken","type":"address","internalType":"address"},{"name":"paymentToken","type":"address","internalType":"address"},{"name":"sell","type":"bool","internalType":"bool"},{"name":"orderType","type":"uint8","internalType":"enum IOrderProcessor.OrderType"},{"name":"assetTokenQuantity","type":"uint256","internalType":"uint256"},{"name":"paymentTokenQuantity","type":"uint256","internalType":"uint256"},{"name":"price","type":"uint256","internalType":"uint256"},{"name":"tif","type":"uint8","internalType":"enum IOrderProcessor.TIF"}]}],"stateMutability":"view"},{"type":"function","name":"getRedemptionAmountOut","inputs":[{"name":"_amount","type":"uint256","internalType":"uint256"}],"outputs":[{"name":"","type":"uint256","internalType":"uint256"}],"stateMutability":"view"},{"type":"function","name":"getVaultDshareBalance","inputs":[{"name":"_token","type":"address","internalType":"address"}],"outputs":[{"name":"","type":"uint256","internalType":"uint256"}],"stateMutability":"view"},{"type":"function","name":"getVaultDshareValue","inputs":[{"name":"_token","type":"address","internalType":"address"}],"outputs":[{"name":"","type":"uint256","internalType":"uint256"}],"stateMutability":"view"},{"type":"function","name":"increaseIssuanceNonce","inputs":[],"outputs":[],"stateMutability":"nonpayable"},{"type":"function","name":"increaseRedemptionNonce","inputs":[],"outputs":[],"stateMutability":"nonpayable"},{"type":"function","name":"initialize","inputs":[{"name":"_issuer","type":"address","internalType":"address"},{"name":"_token","type":"address","internalType":"address"},{"name":"_vault","type":"address","internalType":"address"},{"name":"_usdc","type":"address","internalType":"address"},{"name":"_usdcDecimals","type":"uint8","internalType":"uint8"},{"name":"_chainlinkToken","type":"address","internalType":"address"},{"name":"_oracleAddress","type":"address","internalType":"address"},{"name":"_externalJobId","type":"bytes32","internalType":"bytes32"},{"name":"_isMainnet","type":"bool","internalType":"bool"}],"outputs":[],"stateMutability":"nonpayable"},{"type":"function","name":"isIssuanceOrderActive","inputs":[{"name":"_issuanceNonce","type":"uint256","internalType":"uint256"}],"outputs":[{"name":"","type":"bool","internalType":"bool"}],"stateMutability":"view"},{"type":"function","name":"isMainnet","inputs":[],"outputs":[{"name":"","type":"bool","internalType":"bool"}],"stateMutability":"view"},{"type":"function","name":"isRedemptionOrderActive","inputs":[{"name":"_redemptionNonce","type":"uint256","internalType":"uint256"}],"outputs":[{"name":"","type":"bool","internalType":"bool"}],"stateMutability":"view"},{"type":"function","name":"issuanceIndexTokenPrimaryTotalSupply","inputs":[{"name":"","type":"uint256","internalType":"uint256"}],"outputs":[{"name":"","type":"uint256","internalType":"uint256"}],"stateMutability":"view"},{"type":"function","name":"issuanceInputAmount","inputs":[{"name":"","type":"uint256","internalType":"uint256"}],"outputs":[{"name":"","type":"uint256","internalType":"uint256"}],"stateMutability":"view"},{"type":"function","name":"issuanceIsCompleted","inputs":[{"name":"","type":"uint256","internalType":"uint256"}],"outputs":[{"name":"","type":"bool","internalType":"bool"}],"stateMutability":"view"},{"type":"function","name":"issuanceNonce","inputs":[],"outputs":[{"name":"","type":"uint256","internalType":"uint256"}],"stateMutability":"view"},{"type":"function","name":"issuanceRequestId","inputs":[{"name":"","type":"uint256","internalType":"uint256"},{"name":"","type":"address","internalType":"address"}],"outputs":[{"name":"","type":"uint256","internalType":"uint256"}],"stateMutability":"view"},{"type":"function","name":"issuanceRequesterByNonce","inputs":[{"name":"","type":"uint256","internalType":"uint256"}],"outputs":[{"name":"","type":"address","internalType":"address"}],"stateMutability":"view"},{"type":"function","name":"issuanceTokenPrimaryBalance","inputs":[{"name":"","type":"uint256","internalType":"uint256"},{"name":"","type":"address","internalType":"address"}],"outputs":[{"name":"","type":"uint256","internalType":"uint256"}],"stateMutability":"view"},{"type":"function","name":"issuer","inputs":[],"outputs":[{"name":"","type":"address","internalType":"contract IOrderProcessor"}],"stateMutability":"view"},{"type":"function","name":"lastUpdateTime","inputs":[],"outputs":[{"name":"","type":"uint256","internalType":"uint256"}],"stateMutability":"view"},{"type":"function","name":"latestFeeUpdate","inputs":[],"outputs":[{"name":"","type":"uint256","internalType":"uint256"}],"stateMutability":"view"},{"type":"function","name":"latestPriceDecimals","inputs":[],"outputs":[{"name":"","type":"uint8","internalType":"uint8"}],"stateMutability":"view"},{"type":"function","name":"mockFillAssetsList","inputs":[{"name":"_tokens","type":"address[]","internalType":"address[]"},{"name":"_marketShares","type":"uint256[]","internalType":"uint256[]"}],"outputs":[],"stateMutability":"nonpayable"},{"type":"function","name":"oracleList","inputs":[{"name":"","type":"uint256","internalType":"uint256"}],"outputs":[{"name":"","type":"address","internalType":"address"}],"stateMutability":"view"},{"type":"function","name":"oraclePayment","inputs":[],"outputs":[{"name":"","type":"uint256","internalType":"uint256"}],"stateMutability":"view"},{"type":"function","name":"orderInstanceById","inputs":[{"name":"","type":"uint256","internalType":"uint256"}],"outputs":[{"name":"requestTimestamp","type":"uint64","internalType":"uint64"},{"name":"recipient","type":"address","internalType":"address"},{"name":"assetToken","type":"address","internalType":"address"},{"name":"paymentToken","type":"address","internalType":"address"},{"name":"sell","type":"bool","internalType":"bool"},{"name":"orderType","type":"uint8","internalType":"enum IOrderProcessor.OrderType"},{"name":"assetTokenQuantity","type":"uint256","internalType":"uint256"},{"name":"paymentTokenQuantity","type":"uint256","internalType":"uint256"},{"name":"price","type":"uint256","internalType":"uint256"},{"name":"tif","type":"uint8","internalType":"enum IOrderProcessor.TIF"}],"stateMutability":"view"},{"type":"function","name":"orderManager","inputs":[],"outputs":[{"name":"","type":"address","internalType":"contract OrderManager"}],"stateMutability":"view"},{"type":"function","name":"owner","inputs":[],"outputs":[{"name":"","type":"address","internalType":"address"}],"stateMutability":"view"},{"type":"function","name":"priceFeedByTokenAddress","inputs":[{"name":"","type":"address","internalType":"address"}],"outputs":[{"name":"","type":"address","internalType":"address"}],"stateMutability":"view"},{"type":"function","name":"priceInWei","inputs":[{"name":"_tokenAddress","type":"address","internalType":"address"}],"outputs":[{"name":"","type":"uint256","internalType":"uint256"}],"stateMutability":"view"},{"type":"function","name":"redemptionIndexTokenPrimaryTotalSupply","inputs":[{"name":"","type":"uint256","internalType":"uint256"}],"outputs":[{"name":"","type":"uint256","internalType":"uint256"}],"stateMutability":"view"},{"type":"function","name":"redemptionInputAmount","inputs":[{"name":"","type":"uint256","internalType":"uint256"}],"outputs":[{"name":"","type":"uint256","internalType":"uint256"}],"stateMutability":"view"},{"type":"function","name":"redemptionIsCompleted","inputs":[{"name":"","type":"uint256","internalType":"uint256"}],"outputs":[{"name":"","type":"bool","internalType":"bool"}],"stateMutability":"view"},{"type":"function","name":"redemptionNonce","inputs":[],"outputs":[{"name":"","type":"uint256","internalType":"uint256"}],"stateMutability":"view"},{"type":"function","name":"redemptionRequestId","inputs":[{"name":"","type":"uint256","internalType":"uint256"},{"name":"","type":"address","internalType":"address"}],"outputs":[{"name":"","type":"uint256","internalType":"uint256"}],"stateMutability":"view"},{"type":"function","name":"redemptionRequesterByNonce","inputs":[{"name":"","type":"uint256","internalType":"uint256"}],"outputs":[{"name":"","type":"address","internalType":"address"}],"stateMutability":"view"},{"type":"function","name":"redemptionTokenPrimaryBalance","inputs":[{"name":"","type":"uint256","internalType":"uint256"},{"name":"","type":"address","internalType":"address"}],"outputs":[{"name":"","type":"uint256","internalType":"uint256"}],"stateMutability":"view"},{"type":"function","name":"renounceOwnership","inputs":[],"outputs":[],"stateMutability":"nonpayable"},{"type":"function","name":"requestAssetsData","inputs":[],"outputs":[{"name":"","type":"bytes32","internalType":"bytes32"}],"stateMutability":"nonpayable"},{"type":"function","name":"sellRequestAssetAmountById","inputs":[{"name":"","type":"uint256","internalType":"uint256"}],"outputs":[{"name":"","type":"uint256","internalType":"uint256"}],"stateMutability":"view"},{"type":"function","name":"setActionInfoById","inputs":[{"name":"_requestId","type":"uint256","internalType":"uint256"},{"name":"_actionInfo","type":"tuple","internalType":"struct IndexFactoryStorage.ActionInfo","components":[{"name":"actionType","type":"uint256","internalType":"uint256"},{"name":"nonce","type":"uint256","internalType":"uint256"}]}],"outputs":[],"stateMutability":"nonpayable"},{"type":"function","name":"setBurnedTokenAmountByNonce","inputs":[{"name":"_redemptionNonce","type":"uint256","internalType":"uint256"},{"name":"_burnedAmount","type":"uint256","internalType":"uint256"}],"outputs":[],"stateMutability":"nonpayable"},{"type":"function","name":"setBuyRequestPayedAmountById","inputs":[{"name":"_requestId","type":"uint256","internalType":"uint256"},{"name":"_amount","type":"uint256","internalType":"uint256"}],"outputs":[],"stateMutability":"nonpayable"},{"type":"function","name":"setCancelIssuanceComplted","inputs":[{"name":"_issuanceNonce","type":"uint256","internalType":"uint256"},{"name":"_isCompleted","type":"bool","internalType":"bool"}],"outputs":[],"stateMutability":"nonpayable"},{"type":"function","name":"setCancelIssuanceRequestId","inputs":[{"name":"_issuanceNonce","type":"uint256","internalType":"uint256"},{"name":"_token","type":"address","internalType":"address"},{"name":"_requestId","type":"uint256","internalType":"uint256"}],"outputs":[],"stateMutability":"nonpayable"},{"type":"function","name":"setCancelIssuanceUnfilledAmount","inputs":[{"name":"_issuanceNonce","type":"uint256","internalType":"uint256"},{"name":"_token","type":"address","internalType":"address"},{"name":"_amount","type":"uint256","internalType":"uint256"}],"outputs":[],"stateMutability":"nonpayable"},{"type":"function","name":"setCancelRedemptionComplted","inputs":[{"name":"_redemptionNonce","type":"uint256","internalType":"uint256"},{"name":"_isCompleted","type":"bool","internalType":"bool"}],"outputs":[],"stateMutability":"nonpayable"},{"type":"function","name":"setCancelRedemptionRequestId","inputs":[{"name":"_redemptionNonce","type":"uint256","internalType":"uint256"},{"name":"_token","type":"address","internalType":"address"},{"name":"_requestId","type":"uint256","internalType":"uint256"}],"outputs":[],"stateMutability":"nonpayable"},{"type":"function","name":"setCancelRedemptionUnfilledAmount","inputs":[{"name":"_redemptionNonce","type":"uint256","internalType":"uint256"},{"name":"_token","type":"address","internalType":"address"},{"name":"_amount","type":"uint256","internalType":"uint256"}],"outputs":[],"stateMutability":"nonpayable"},{"type":"function","name":"setFactory","inputs":[{"name":"_factoryAddress","type":"address","internalType":"address"}],"outputs":[],"stateMutability":"nonpayable"},{"type":"function","name":"setFactoryBalancer","inputs":[{"name":"_factoryBalancerAddress","type":"address","internalType":"address"}],"outputs":[],"stateMutability":"nonpayable"},{"type":"function","name":"setFactoryProcessor","inputs":[{"name":"_factoryProcessorAddress","type":"address","internalType":"address"}],"outputs":[],"stateMutability":"nonpayable"},{"type":"function","name":"setFeeRate","inputs":[{"name":"_newFee","type":"uint8","internalType":"uint8"}],"outputs":[],"stateMutability":"nonpayable"},{"type":"function","name":"setFeeReceiver","inputs":[{"name":"_feeReceiver","type":"address","internalType":"address"}],"outputs":[],"stateMutability":"nonpayable"},{"type":"function","name":"setIsMainnet","inputs":[{"name":"_isMainnet","type":"bool","internalType":"bool"}],"outputs":[],"stateMutability":"nonpayable"},{"type":"function","name":"setIssuanceIndexTokenPrimaryTotalSupply","inputs":[{"name":"_issuanceNonce","type":"uint256","internalType":"uint256"},{"name":"_amount","type":"uint256","internalType":"uint256"}],"outputs":[],"stateMutability":"nonpayable"},{"type":"function","name":"setIssuanceInputAmount","inputs":[{"name":"_issuanceNonce","type":"uint256","internalType":"uint256"},{"name":"_amount","type":"uint256","internalType":"uint256"}],"outputs":[],"stateMutability":"nonpayable"},{"type":"function","name":"setIssuanceIsCompleted","inputs":[{"name":"_issuanceNonce","type":"uint256","internalType":"uint256"},{"name":"_isCompleted","type":"bool","internalType":"bool"}],"outputs":[],"stateMutability":"nonpayable"},{"type":"function","name":"setIssuanceRequestId","inputs":[{"name":"_issuanceNonce","type":"uint256","internalType":"uint256"},{"name":"_token","type":"address","internalType":"address"},{"name":"_requestId","type":"uint256","internalType":"uint256"}],"outputs":[],"stateMutability":"nonpayable"},{"type":"function","name":"setIssuanceRequesterByNonce","inputs":[{"name":"_issuanceNonce","type":"uint256","internalType":"uint256"},{"name":"_requester","type":"address","internalType":"address"}],"outputs":[],"stateMutability":"nonpayable"},{"type":"function","name":"setIssuanceTokenPrimaryBalance","inputs":[{"name":"_issuanceNonce","type":"uint256","internalType":"uint256"},{"name":"_token","type":"address","internalType":"address"},{"name":"_amount","type":"uint256","internalType":"uint256"}],"outputs":[],"stateMutability":"nonpayable"},{"type":"function","name":"setIssuer","inputs":[{"name":"_issuer","type":"address","internalType":"address"}],"outputs":[{"name":"","type":"bool","internalType":"bool"}],"stateMutability":"nonpayable"},{"type":"function","name":"setLatestPriceDecimals","inputs":[{"name":"_decimals","type":"uint8","internalType":"uint8"}],"outputs":[],"stateMutability":"nonpayable"},{"type":"function","name":"setOracleInfo","inputs":[{"name":"_oracleAddress","type":"address","internalType":"address"},{"name":"_externalJobId","type":"bytes32","internalType":"bytes32"}],"outputs":[],"stateMutability":"nonpayable"},{"type":"function","name":"setOrderInstanceById","inputs":[{"name":"_requestId","type":"uint256","internalType":"uint256"},{"name":"_order","type":"tuple","internalType":"struct IOrderProcessor.Order","components":[{"name":"requestTimestamp","type":"uint64","internalType":"uint64"},{"name":"recipient","type":"address","internalType":"address"},{"name":"assetToken","type":"address","internalType":"address"},{"name":"paymentToken","type":"address","internalType":"address"},{"name":"sell","type":"bool","internalType":"bool"},{"name":"orderType","type":"uint8","internalType":"enum IOrderProcessor.OrderType"},{"name":"assetTokenQuantity","type":"uint256","internalType":"uint256"},{"name":"paymentTokenQuantity","type":"uint256","internalType":"uint256"},{"name":"price","type":"uint256","internalType":"uint256"},{"name":"tif","type":"uint8","internalType":"enum IOrderProcessor.TIF"}]}],"outputs":[],"stateMutability":"nonpayable"},{"type":"function","name":"setOrderManager","inputs":[{"name":"_orderManager","type":"address","internalType":"address"}],"outputs":[{"name":"","type":"bool","internalType":"bool"}],"stateMutability":"nonpayable"},{"type":"function","name":"setPriceFeedAddresses","inputs":[{"name":"_dShares","type":"address[]","internalType":"address[]"},{"name":"_priceFeedAddresses","type":"address[]","internalType":"address[]"}],"outputs":[],"stateMutability":"nonpayable"},{"type":"function","name":"setRedemptionIndexTokenPrimaryTotalSupply","inputs":[{"name":"_redemptionNonce","type":"uint256","internalType":"uint256"},{"name":"_amount","type":"uint256","internalType":"uint256"}],"outputs":[],"stateMutability":"nonpayable"},{"type":"function","name":"setRedemptionInputAmount","inputs":[{"name":"_redemptionNonce","type":"uint256","internalType":"uint256"},{"name":"_amount","type":"uint256","internalType":"uint256"}],"outputs":[],"stateMutability":"nonpayable"},{"type":"function","name":"setRedemptionIsCompleted","inputs":[{"name":"_redemptionNonce","type":"uint256","internalType":"uint256"},{"name":"_isCompleted","type":"bool","internalType":"bool"}],"outputs":[],"stateMutability":"nonpayable"},{"type":"function","name":"setRedemptionRequestId","inputs":[{"name":"_redemptionNonce","type":"uint256","internalType":"uint256"},{"name":"_token","type":"address","internalType":"address"},{"name":"_requestId","type":"uint256","internalType":"uint256"}],"outputs":[],"stateMutability":"nonpayable"},{"type":"function","name":"setRedemptionRequesterByNonce","inputs":[{"name":"_redemptionNonce","type":"uint256","internalType":"uint256"},{"name":"_requester","type":"address","internalType":"address"}],"outputs":[],"stateMutability":"nonpayable"},{"type":"function","name":"setRedemptionTokenPrimaryBalance","inputs":[{"name":"_redemptionNonce","type":"uint256","internalType":"uint256"},{"name":"_token","type":"address","internalType":"address"},{"name":"_amount","type":"uint256","internalType":"uint256"}],"outputs":[],"stateMutability":"nonpayable"},{"type":"function","name":"setSellRequestAssetAmountById","inputs":[{"name":"_requestId","type":"uint256","internalType":"uint256"},{"name":"_amount","type":"uint256","internalType":"uint256"}],"outputs":[],"stateMutability":"nonpayable"},{"type":"function","name":"setTokenAddress","inputs":[{"name":"_token","type":"address","internalType":"address"}],"outputs":[{"name":"","type":"bool","internalType":"bool"}],"stateMutability":"nonpayable"},{"type":"function","name":"setUrl","inputs":[{"name":"_beforeAddress","type":"string","internalType":"string"},{"name":"_afterAddress","type":"string","internalType":"string"}],"outputs":[],"stateMutability":"nonpayable"},{"type":"function","name":"setUsdcAddress","inputs":[{"name":"_usdc","type":"address","internalType":"address"},{"name":"_usdcDecimals","type":"uint8","internalType":"uint8"}],"outputs":[{"name":"","type":"bool","internalType":"bool"}],"stateMutability":"nonpayable"},{"type":"function","name":"setWrappedDShareAddresses","inputs":[{"name":"_dShares","type":"address[]","internalType":"address[]"},{"name":"_wrappedDShares","type":"address[]","internalType":"address[]"}],"outputs":[],"stateMutability":"nonpayable"},{"type":"function","name":"token","inputs":[],"outputs":[{"name":"","type":"address","internalType":"contract IndexToken"}],"stateMutability":"view"},{"type":"function","name":"tokenCurrentListIndex","inputs":[{"name":"","type":"address","internalType":"address"}],"outputs":[{"name":"","type":"uint256","internalType":"uint256"}],"stateMutability":"view"},{"type":"function","name":"tokenCurrentMarketShare","inputs":[{"name":"","type":"address","internalType":"address"}],"outputs":[{"name":"","type":"uint256","internalType":"uint256"}],"stateMutability":"view"},{"type":"function","name":"tokenOracleListIndex","inputs":[{"name":"","type":"address","internalType":"address"}],"outputs":[{"name":"","type":"uint256","internalType":"uint256"}],"stateMutability":"view"},{"type":"function","name":"tokenOracleMarketShare","inputs":[{"name":"","type":"address","internalType":"address"}],"outputs":[{"name":"","type":"uint256","internalType":"uint256"}],"stateMutability":"view"},{"type":"function","name":"totalCurrentList","inputs":[],"outputs":[{"name":"","type":"uint256","internalType":"uint256"}],"stateMutability":"view"},{"type":"function","name":"totalOracleList","inputs":[],"outputs":[{"name":"","type":"uint256","internalType":"uint256"}],"stateMutability":"view"},{"type":"function","name":"transferOwnership","inputs":[{"name":"newOwner","type":"address","internalType":"address"}],"outputs":[],"stateMutability":"nonpayable"},{"type":"function","name":"updateCurrentList","inputs":[],"outputs":[],"stateMutability":"nonpayable"},{"type":"function","name":"urlParams","inputs":[],"outputs":[{"name":"","type":"string","internalType":"string"}],"stateMutability":"view"},{"type":"function","name":"usdc","inputs":[],"outputs":[{"name":"","type":"address","internalType":"address"}],"stateMutability":"view"},{"type":"function","name":"usdcDecimals","inputs":[],"outputs":[{"name":"","type":"uint8","internalType":"uint8"}],"stateMutability":"view"},{"type":"function","name":"vault","inputs":[],"outputs":[{"name":"","type":"address","internalType":"contract NexVault"}],"stateMutability":"view"},{"type":"function","name":"wrappedDshareAddress","inputs":[{"name":"","type":"address","internalType":"address"}],"outputs":[{"name":"","type":"address","internalType":"address"}],"stateMutability":"view"},{"type":"event","name":"ChainlinkCancelled","inputs":[{"name":"id","type":"bytes32","indexed":true,"internalType":"bytes32"}],"anonymous":false},{"type":"event","name":"ChainlinkFulfilled","inputs":[{"name":"id","type":"bytes32","indexed":true,"internalType":"bytes32"}],"anonymous":false},{"type":"event","name":"ChainlinkRequested","inputs":[{"name":"id","type":"bytes32","indexed":true,"internalType":"bytes32"}],"anonymous":false},{"type":"event","name":"Initialized","inputs":[{"name":"version","type":"uint64","indexed":false,"internalType":"uint64"}],"anonymous":false},{"type":"event","name":"OwnershipTransferred","inputs":[{"name":"previousOwner","type":"address","indexed":true,"internalType":"address"},{"name":"newOwner","type":"address","indexed":true,"internalType":"address"}],"anonymous":false},{"type":"error","name":"InvalidInitialization","inputs":[]},{"type":"error","name":"NotInitializing","inputs":[]},{"type":"error","name":"OwnableInvalidOwner","inputs":[{"name":"owner","type":"address","internalType":"address"}]},{"type":"error","name":"OwnableUnauthorizedAccount","inputs":[{"name":"account","type":"address","internalType":"address"}]},{"type":"error","name":"PRBMath_MulDiv_Overflow","inputs":[{"name":"x","type":"uint256","internalType":"uint256"},{"name":"y","type":"uint256","internalType":"uint256"},{"name":"denominator","type":"uint256","internalType":"uint256"}]},{"type":"error","name":"PRBMath_MulDiv_Overflow","inputs":[{"name":"x","type":"uint256","internalType":"uint256"},{"name":"y","type":"uint256","internalType":"uint256"},{"name":"denominator","type":"uint256","internalType":"uint256"}]}],"bytecode":{"object":"0x6080604052348015600e575f80fd5b5061ab538061001c5f395ff3fe608060405234801561000f575f80fd5b506004361061074c575f3560e01c80638baa6bf1116103bc578063b592662a116101fd578063daf1c17d11610123578063efdf5053116100b6578063f513a71811610085578063f513a7181461184c578063f9b6117f1461187c578063fbfa77cf1461189a578063fc0c546a146118b85761074c565b8063efdf5053146117b4578063f14bea20146117e4578063f1f31d6614611800578063f2fde38b146118305761074c565b8063e789598c116100f2578063e789598c1461172e578063ea5142c81461174c578063eab2a71114611768578063efdcd974146117985761074c565b8063daf1c17d14611682578063df1d5ea2146116b2578063e19eefbe146116ce578063e2851bd6146116fe5761074c565b8063cb4d4e091161019b578063d34ed2ab1161016a578063d34ed2ab146115fe578063d57e04931461161a578063d5fbea6314611636578063da65925a146116525761074c565b8063cb4d4e0914611578578063cf9ee31914611596578063d1c0cee6146115c6578063d1e4a308146115e25761074c565b8063c7003d1b116101d7578063c7003d1b146114f0578063c8599ded1461150c578063c8da33031461152a578063c8f33c911461155a5761074c565b8063b592662a14611472578063bb0498de146114a2578063c0da840d146114c05761074c565b80639edcf9f4116102e2578063ab7820b211610280578063b1dd819e1161024f578063b1dd819e146113d8578063b3f0067414611408578063b411dc4114611426578063b46840f9146114425761074c565b8063ab7820b21461132c578063addc70d11461135c578063b0e1213414611378578063b12279aa146113a85761074c565b8063a73e1cbf116102bc578063a73e1cbf14611292578063a84ebc17146112ae578063a87f98d2146112de578063a8b54bd41461130e5761074c565b80639edcf9f414611202578063a08d7bd614611232578063a363b9cb146112625761074c565b8063966dae0e1161035a57806399f68da81161032957806399f68da81461117c5780639b2d6e3b146111985780639cf54521146111b45780639dbb9c9e146111e45761074c565b8063966dae0e146110f4578063978bbdb914611112578063991be68e146111305780639932ba4c1461114c5761074c565b80638da5cb5b116103965780638da5cb5b1461105a5780638e97d7e114611078578063914f0cc61461109457806394674098146110c45761074c565b80638baa6bf114610ff05780638c22189914610ffa5780638c88c10c1461102a5761074c565b806342faac05116105915780636839a095116104b75780637bf421651161044a5780638182492a116104195780638182492a14610f5657806384d77bb114610f725780638861d23514610f9057806388b12d5514610fc05761074c565b80637bf4216514610ece5780637bfa27f214610eec5780637ca58c5514610f1c5780637cd375e214610f3a5761074c565b806376529fdf1161048657806376529fdf14610e485780637803265814610e785780637851b90514610ea85780637a6c4b7b14610eb25761074c565b80636839a09514610dd65780636ea495df14610e065780636ea8655614610e22578063715018a614610e3e5761074c565b80635501c6cf1161052f5780635bcabf04116104fe5780635bcabf0414610d3c5780636188199f14610d5a578063631c838514610d76578063632439fd14610da65761074c565b80635501c6cf14610cca57806355cc4e5714610cd457806357b61bc314610d045780635bb4780814610d205761074c565b8063496304a41161056b578063496304a414610c445780634b3e0b8014610c605780635177942a14610c9057806353fd433214610cac5761074c565b806342faac0514610bee57806343482fc814610c0c578063457e0e0f14610c285761074c565b806315e666a211610676578063264fa8b91161061457806335c51204116105e357806335c5120414610b535780633c1f70ca14610b6f5780633e413bee14610ba05780633fac092214610bbe5761074c565b8063264fa8b914610aa757806326a4e8d214610ad75780632e6b96e714610b075780633250263914610b375761074c565b80631e2ad86e116106505780631e2ad86e14610a0f57806321de914f14610a2b5780632343acb414610a47578063239aad0d14610a775761074c565b806315e666a21461099c5780631c7a2959146109d55780631d143848146109f15761074c565b80630acb8d40116106ee5780630c02e130116106bd5780630c02e130146109025780630e3293571461092057806312b6d2e614610950578063147726ae1461096c5761074c565b80630acb8d40146108665780630b1a4918146108845780630b1fa733146108b45780630be52713146108d25761074c565b806306995e3b1161072a57806306995e3b146107ba57806308dc4b0c146107ea578063092755e01461081a5780630a1d42701461084a5761074c565b8063011ced5f1461075057806302e80f711461076e5780630499a61d1461079e575b5f80fd5b6107586118d6565b604051610765919061881f565b60405180910390f35b610788600480360381019061078391906188cd565b6118dc565b604051610795919061881f565b60405180910390f35b6107b860048036038101906107b3919061890b565b6118fc565b005b6107d460048036038101906107cf9190618936565b611947565b6040516107e1919061881f565b60405180910390f35b61080460048036038101906107ff919061890b565b611a2c565b6040516108119190618970565b60405180910390f35b610834600480360381019061082f919061890b565b611a5c565b6040516108419190618970565b60405180910390f35b610864600480360381019061085f91906189be565b611a8c565b005b61086e611bf5565b60405161087b9190618970565b60405180910390f35b61089e60048036038101906108999190618936565b611c1a565b6040516108ab9190618a0b565b60405180910390f35b6108bc611d9a565b6040516108c99190618a3f565b60405180910390f35b6108ec60048036038101906108e7919061890b565b611dac565b6040516108f9919061881f565b60405180910390f35b61090a611dc1565b604051610917919061881f565b60405180910390f35b61093a60048036038101906109359190618b94565b611dc7565b6040516109479190618c6a565b60405180910390f35b61096a60048036038101906109659190618c8a565b611df3565b005b61098660048036038101906109819190618936565b611f86565b6040516109939190618d16565b60405180910390f35b6109b660048036038101906109b19190618936565b611fc4565b6040516109cc9a99989796959493929190618e0a565b60405180910390f35b6109ef60048036038101906109ea9190618c8a565b6120aa565b005b6109f961223d565b604051610a069190618eff565b60405180910390f35b610a296004803603810190610a249190618f18565b612262565b005b610a456004803603810190610a409190618c8a565b6123b9565b005b610a616004803603810190610a5c9190618936565b61254c565b604051610a6e9190618a0b565b60405180910390f35b610a916004803603810190610a8c9190618936565b6126e5565b604051610a9e9190618970565b60405180910390f35b610ac16004803603810190610abc91906188cd565b612715565b604051610ace919061881f565b60405180910390f35b610af16004803603810190610aec919061890b565b612735565b604051610afe9190618a0b565b60405180910390f35b610b216004803603810190610b1c9190618f8e565b6127f5565b604051610b2e919061881f565b60405180910390f35b610b516004803603810190610b4c9190618ff6565b612832565b005b610b6d6004803603810190610b689190619188565b612857565b005b610b896004803603810190610b849190618936565b612b4a565b604051610b979291906191c7565b60405180910390f35b610ba8612b6a565b604051610bb59190618970565b60405180910390f35b610bd86004803603810190610bd39190618936565b612b8f565b604051610be59190618a0b565b60405180910390f35b610bf6612d28565b604051610c039190618a0b565b60405180910390f35b610c266004803603810190610c219190619221565b612d3b565b005b610c426004803603810190610c3d9190618c8a565b612d57565b005b610c5e6004803603810190610c599190618c8a565b612eea565b005b610c7a6004803603810190610c75919061890b565b61307d565b604051610c87919061881f565b60405180910390f35b610caa6004803603810190610ca59190618ff6565b613092565b005b610cb4613183565b604051610cc1919061881f565b60405180910390f35b610cd2613189565b005b610cee6004803603810190610ce9919061890b565b6132e1565b604051610cfb9190618a0b565b60405180910390f35b610d1e6004803603810190610d199190619323565b6133a1565b005b610d3a6004803603810190610d35919061890b565b6134b9565b005b610d44613504565b604051610d519190618c6a565b60405180910390f35b610d746004803603810190610d6f9190618f18565b613590565b005b610d906004803603810190610d8b9190618936565b6136e7565b604051610d9d9190618a0b565b60405180910390f35b610dc06004803603810190610dbb91906188cd565b613c4f565b604051610dcd919061881f565b60405180910390f35b610df06004803603810190610deb919061890b565b613c6f565b604051610dfd919061881f565b60405180910390f35b610e206004803603810190610e1b9190618f18565b613ecb565b005b610e3c6004803603810190610e379190618c8a565b614022565b005b610e466141b5565b005b610e626004803603810190610e5d9190618936565b6141c8565b604051610e6f9190618a0b565b60405180910390f35b610e926004803603810190610e8d9190618936565b6141e5565b604051610e9f9190618970565b60405180910390f35b610eb0614215565b005b610ecc6004803603810190610ec79190618c8a565b61436d565b005b610ed6614500565b604051610ee39190618a3f565b60405180910390f35b610f066004803603810190610f019190618936565b614513565b604051610f139190618a0b565b60405180910390f35b610f24614530565b604051610f3191906193a8565b60405180910390f35b610f546004803603810190610f4f91906189be565b6147c8565b005b610f706004803603810190610f6b919061940e565b614931565b005b610f7a614a99565b604051610f87919061881f565b60405180910390f35b610faa6004803603810190610fa59190618936565b614a9f565b604051610fb7919061881f565b60405180910390f35b610fda6004803603810190610fd5919061944c565b614ab4565b604051610fe79190618970565b60405180910390f35b610ff8614aed565b005b611014600480360381019061100f91906188cd565b614ce6565b604051611021919061881f565b60405180910390f35b611044600480360381019061103f919061890b565b614d06565b604051611051919061881f565b60405180910390f35b611062614d1b565b60405161106f9190618970565b60405180910390f35b611092600480360381019061108d91906189be565b614d50565b005b6110ae60048036038101906110a9919061890b565b614eb9565b6040516110bb919061881f565b60405180910390f35b6110de60048036038101906110d99190618936565b614ece565b6040516110eb9190618970565b60405180910390f35b6110fc614efe565b6040516111099190618970565b60405180910390f35b61111a614f23565b6040516111279190618a3f565b60405180910390f35b61114a60048036038101906111459190619477565b614f36565b005b61116660048036038101906111619190618936565b614f5b565b6040516111739190618970565b60405180910390f35b61119660048036038101906111919190618f18565b614f8b565b005b6111b260048036038101906111ad9190618c8a565b6150e2565b005b6111ce60048036038101906111c99190618936565b615275565b6040516111db919061881f565b60405180910390f35b6111ec61528a565b6040516111f9919061881f565b60405180910390f35b61121c600480360381019061121791906188cd565b615290565b604051611229919061881f565b60405180910390f35b61124c6004803603810190611247919061890b565b6152b0565b604051611259919061881f565b60405180910390f35b61127c600480360381019061127791906188cd565b61542e565b604051611289919061881f565b60405180910390f35b6112ac60048036038101906112a79190618b94565b61544e565b005b6112c860048036038101906112c39190618936565b61547a565b6040516112d59190618a0b565b60405180910390f35b6112f860048036038101906112f39190618936565b615497565b604051611305919061881f565b60405180910390f35b6113166154ac565b60405161132391906193a8565b60405180910390f35b61134660048036038101906113419190618936565b6154b2565b604051611353919061881f565b60405180910390f35b61137660048036038101906113719190619562565b6154c7565b005b611392600480360381019061138d9190618936565b6154dd565b60405161139f9190618a0b565b60405180910390f35b6113c260048036038101906113bd9190619477565b61565d565b6040516113cf91906196ed565b60405180910390f35b6113f260048036038101906113ed9190618936565b6157a7565b6040516113ff919061881f565b60405180910390f35b6114106157bc565b60405161141d9190618970565b60405180910390f35b611440600480360381019061143b9190619323565b6157e2565b005b61145c60048036038101906114579190618936565b6158fa565b6040516114699190618a0b565b60405180910390f35b61148c60048036038101906114879190618936565b615917565b6040516114999190618a0b565b60405180910390f35b6114aa615e7f565b6040516114b7919061881f565b60405180910390f35b6114da60048036038101906114d5919061890b565b615eed565b6040516114e79190618a0b565b60405180910390f35b61150a60048036038101906115059190618f18565b615fad565b005b611514616104565b604051611521919061881f565b60405180910390f35b611544600480360381019061153f9190618936565b61610a565b604051611551919061881f565b60405180910390f35b6115626161cc565b60405161156f919061881f565b60405180910390f35b6115806161d2565b60405161158d9190618970565b60405180910390f35b6115b060048036038101906115ab9190618936565b6161f7565b6040516115bd919061881f565b60405180910390f35b6115e060048036038101906115db91906189be565b61620c565b005b6115fc60048036038101906115f79190618f18565b616375565b005b611618600480360381019061161391906188cd565b6164cc565b005b611634600480360381019061162f9190619707565b61665c565b005b611650600480360381019061164b919061890b565b616a07565b005b61166c600480360381019061166791906188cd565b616a52565b604051611679919061881f565b60405180910390f35b61169c60048036038101906116979190618936565b616a72565b6040516116a9919061881f565b60405180910390f35b6116cc60048036038101906116c791906188cd565b616a87565b005b6116e860048036038101906116e39190618936565b616c17565b6040516116f5919061881f565b60405180910390f35b61171860048036038101906117139190618936565b616dbc565b604051611725919061881f565b60405180910390f35b611736616e7e565b6040516117439190618c6a565b60405180910390f35b61176660048036038101906117619190618f18565b616f0a565b005b611782600480360381019061177d91906197cb565b617061565b60405161178f9190618a0b565b60405180910390f35b6117b260048036038101906117ad919061890b565b61713d565b005b6117ce60048036038101906117c9919061890b565b617189565b6040516117db919061881f565b60405180910390f35b6117fe60048036038101906117f99190619809565b6171ca565b005b61181a60048036038101906118159190618936565b6172d9565b60405161182791906196ed565b60405180910390f35b61184a6004803603810190611845919061890b565b6174e2565b005b611866600480360381019061186191906188cd565b617566565b604051611873919061881f565b60405180910390f35b611884617586565b60405161189191906198b1565b60405180910390f35b6118a26175ab565b6040516118af91906198ea565b60405180910390f35b6118c06175d0565b6040516118cd9190619923565b60405180910390f35b601d5481565b6024602052815f5260405f20602052805f5260405f205f91509150505481565b6119046175f5565b80600a5f6101000a81548173ffffffffffffffffffffffffffffffffffffffff021916908373ffffffffffffffffffffffffffffffffffffffff16021790555050565b5f805f601a5f9054906101000a900473ffffffffffffffffffffffffffffffffffffffff1673ffffffffffffffffffffffffffffffffffffffff1663236970d45f601b5f9054906101000a900473ffffffffffffffffffffffffffffffffffffffff166040518363ffffffff1660e01b81526004016119c792919061993c565b6040805180830381865afa1580156119e1573d5f803e3d5ffd5b505050506040513d601f19601f82011682018060405250810190611a05919061998b565b915091505f611a14828661767c565b83611a1f91906199f6565b9050809350505050919050565b6017602052805f5260405f205f915054906101000a900473ffffffffffffffffffffffffffffffffffffffff1681565b6012602052805f5260405f205f915054906101000a900473ffffffffffffffffffffffffffffffffffffffff1681565b60085f9054906101000a900473ffffffffffffffffffffffffffffffffffffffff1673ffffffffffffffffffffffffffffffffffffffff163373ffffffffffffffffffffffffffffffffffffffff161480611b335750600a5f9054906101000a900473ffffffffffffffffffffffffffffffffffffffff1673ffffffffffffffffffffffffffffffffffffffff163373ffffffffffffffffffffffffffffffffffffffff16145b80611b8a575060095f9054906101000a900473ffffffffffffffffffffffffffffffffffffffff1673ffffffffffffffffffffffffffffffffffffffff163373ffffffffffffffffffffffffffffffffffffffff16145b611bc9576040517f08c379a0000000000000000000000000000000000000000000000000000000008152600401611bc090619a73565b60405180910390fd5b8060225f8481526020019081526020015f205f6101000a81548160ff0219169083151502179055505050565b600a5f9054906101000a900473ffffffffffffffffffffffffffffffffffffffff1681565b5f805b600f54811015611d90575f60115f8381526020019081526020015f205f9054906101000a900473ffffffffffffffffffffffffffffffffffffffff1690505f60275f8681526020019081526020015f205f8373ffffffffffffffffffffffffffffffffffffffff1673ffffffffffffffffffffffffffffffffffffffff1681526020019081526020015f2054905060016003811115611cbf57611cbe618d51565b5b60ff16601a5f9054906101000a900473ffffffffffffffffffffffffffffffffffffffff1673ffffffffffffffffffffffffffffffffffffffff166345fa8aae836040518263ffffffff1660e01b8152600401611d1c919061881f565b602060405180830381865afa158015611d37573d5f803e3d5ffd5b505050506040513d601f19601f82011682018060405250810190611d5b9190619ab4565b6003811115611d6d57611d6c618d51565b5b60ff1603611d815760019350505050611d95565b50508080600101915050611c1d565b505f90505b919050565b60205f9054906101000a900460ff1681565b6015602052805f5260405f205f915090505481565b600c5481565b60608282604051602001611ddc929190619b23565b604051602081830303815290604052905092915050565b60085f9054906101000a900473ffffffffffffffffffffffffffffffffffffffff1673ffffffffffffffffffffffffffffffffffffffff163373ffffffffffffffffffffffffffffffffffffffff161480611e9a5750600a5f9054906101000a900473ffffffffffffffffffffffffffffffffffffffff1673ffffffffffffffffffffffffffffffffffffffff163373ffffffffffffffffffffffffffffffffffffffff16145b80611ef1575060095f9054906101000a900473ffffffffffffffffffffffffffffffffffffffff1673ffffffffffffffffffffffffffffffffffffffff163373ffffffffffffffffffffffffffffffffffffffff16145b611f30576040517f08c379a0000000000000000000000000000000000000000000000000000000008152600401611f2790619a73565b60405180910390fd5b8060365f8581526020019081526020015f205f8473ffffffffffffffffffffffffffffffffffffffff1673ffffffffffffffffffffffffffffffffffffffff1681526020019081526020015f2081905550505050565b611f8e6186b2565b60355f8381526020019081526020015f206040518060400160405290815f82015481526020016001820154815250509050919050565b6032602052805f5260405f205f91509050805f015f9054906101000a900467ffffffffffffffff1690805f0160089054906101000a900473ffffffffffffffffffffffffffffffffffffffff1690806001015f9054906101000a900473ffffffffffffffffffffffffffffffffffffffff1690806002015f9054906101000a900473ffffffffffffffffffffffffffffffffffffffff16908060020160149054906101000a900460ff16908060020160159054906101000a900460ff1690806003015490806004015490806005015490806006015f9054906101000a900460ff1690508a565b60085f9054906101000a900473ffffffffffffffffffffffffffffffffffffffff1673ffffffffffffffffffffffffffffffffffffffff163373ffffffffffffffffffffffffffffffffffffffff1614806121515750600a5f9054906101000a900473ffffffffffffffffffffffffffffffffffffffff1673ffffffffffffffffffffffffffffffffffffffff163373ffffffffffffffffffffffffffffffffffffffff16145b806121a8575060095f9054906101000a900473ffffffffffffffffffffffffffffffffffffffff1673ffffffffffffffffffffffffffffffffffffffff163373ffffffffffffffffffffffffffffffffffffffff16145b6121e7576040517f08c379a00000000000000000000000000000000000000000000000000000000081526004016121de90619a73565b60405180910390fd5b8060275f8581526020019081526020015f205f8473ffffffffffffffffffffffffffffffffffffffff1673ffffffffffffffffffffffffffffffffffffffff1681526020019081526020015f2081905550505050565b601a5f9054906101000a900473ffffffffffffffffffffffffffffffffffffffff1681565b60085f9054906101000a900473ffffffffffffffffffffffffffffffffffffffff1673ffffffffffffffffffffffffffffffffffffffff163373ffffffffffffffffffffffffffffffffffffffff1614806123095750600a5f9054906101000a900473ffffffffffffffffffffffffffffffffffffffff1673ffffffffffffffffffffffffffffffffffffffff163373ffffffffffffffffffffffffffffffffffffffff16145b80612360575060095f9054906101000a900473ffffffffffffffffffffffffffffffffffffffff1673ffffffffffffffffffffffffffffffffffffffff163373ffffffffffffffffffffffffffffffffffffffff16145b61239f576040517f08c379a000000000000000000000000000000000000000000000000000000000815260040161239690619a73565b60405180910390fd5b8060295f8481526020019081526020015f20819055505050565b60085f9054906101000a900473ffffffffffffffffffffffffffffffffffffffff1673ffffffffffffffffffffffffffffffffffffffff163373ffffffffffffffffffffffffffffffffffffffff1614806124605750600a5f9054906101000a900473ffffffffffffffffffffffffffffffffffffffff1673ffffffffffffffffffffffffffffffffffffffff163373ffffffffffffffffffffffffffffffffffffffff16145b806124b7575060095f9054906101000a900473ffffffffffffffffffffffffffffffffffffffff1673ffffffffffffffffffffffffffffffffffffffff163373ffffffffffffffffffffffffffffffffffffffff16145b6124f6576040517f08c379a00000000000000000000000000000000000000000000000000000000081526004016124ed90619a73565b60405180910390fd5b80602b5f8581526020019081526020015f205f8473ffffffffffffffffffffffffffffffffffffffff1673ffffffffffffffffffffffffffffffffffffffff1681526020019081526020015f2081905550505050565b5f805f5b600f548110156126c7575f60115f8381526020019081526020015f205f9054906101000a900473ffffffffffffffffffffffffffffffffffffffff1690505f60265f8781526020019081526020015f205f8373ffffffffffffffffffffffffffffffffffffffff1673ffffffffffffffffffffffffffffffffffffffff1681526020019081526020015f20549050600260038111156125f2576125f1618d51565b5b60ff16601a5f9054906101000a900473ffffffffffffffffffffffffffffffffffffffff1673ffffffffffffffffffffffffffffffffffffffff166345fa8aae836040518263ffffffff1660e01b815260040161264f919061881f565b602060405180830381865afa15801561266a573d5f803e3d5ffd5b505050506040513d601f19601f8201168201806040525081019061268e9190619ab4565b60038111156126a05761269f618d51565b5b60ff16036126b8576001846126b591906199f6565b93505b50508080600101915050612550565b50600f5481036126db5760019150506126e0565b5f9150505b919050565b6010602052805f5260405f205f915054906101000a900473ffffffffffffffffffffffffffffffffffffffff1681565b6026602052815f5260405f20602052805f5260405f205f91509150505481565b5f61273e6175f5565b5f73ffffffffffffffffffffffffffffffffffffffff168273ffffffffffffffffffffffffffffffffffffffff16036127ac576040517f08c379a00000000000000000000000000000000000000000000000000000000081526004016127a390619b90565b60405180910390fd5b8160185f6101000a81548173ffffffffffffffffffffffffffffffffffffffff021916908373ffffffffffffffffffffffffffffffffffffffff16021790555060019050919050565b5f808362ffffff1603612808575f61282a565b61282982620f424085620f424061281f9190619bae565b62ffffff166176b0565b5b905092915050565b61283a6175f5565b8060205f6101000a81548160ff021916908360ff16021790555050565b60085f9054906101000a900473ffffffffffffffffffffffffffffffffffffffff1673ffffffffffffffffffffffffffffffffffffffff163373ffffffffffffffffffffffffffffffffffffffff1614806128fe5750600a5f9054906101000a900473ffffffffffffffffffffffffffffffffffffffff1673ffffffffffffffffffffffffffffffffffffffff163373ffffffffffffffffffffffffffffffffffffffff16145b80612955575060095f9054906101000a900473ffffffffffffffffffffffffffffffffffffffff1673ffffffffffffffffffffffffffffffffffffffff163373ffffffffffffffffffffffffffffffffffffffff16145b612994576040517f08c379a000000000000000000000000000000000000000000000000000000000815260040161298b90619a73565b60405180910390fd5b8060325f8481526020019081526020015f205f820151815f015f6101000a81548167ffffffffffffffff021916908367ffffffffffffffff1602179055506020820151815f0160086101000a81548173ffffffffffffffffffffffffffffffffffffffff021916908373ffffffffffffffffffffffffffffffffffffffff1602179055506040820151816001015f6101000a81548173ffffffffffffffffffffffffffffffffffffffff021916908373ffffffffffffffffffffffffffffffffffffffff1602179055506060820151816002015f6101000a81548173ffffffffffffffffffffffffffffffffffffffff021916908373ffffffffffffffffffffffffffffffffffffffff16021790555060808201518160020160146101000a81548160ff02191690831515021790555060a08201518160020160156101000a81548160ff02191690836001811115612aef57612aee618d51565b5b021790555060c0820151816003015560e082015181600401556101008201518160050155610120820151816006015f6101000a81548160ff02191690836003811115612b3e57612b3d618d51565b5b02179055509050505050565b6035602052805f5260405f205f91509050805f0154908060010154905082565b601b5f9054906101000a900473ffffffffffffffffffffffffffffffffffffffff1681565b5f805f5b600f54811015612d0a575f60115f8381526020019081526020015f205f9054906101000a900473ffffffffffffffffffffffffffffffffffffffff1690505f60275f8781526020019081526020015f205f8373ffffffffffffffffffffffffffffffffffffffff1673ffffffffffffffffffffffffffffffffffffffff1681526020019081526020015f2054905060026003811115612c3557612c34618d51565b5b60ff16601a5f9054906101000a900473ffffffffffffffffffffffffffffffffffffffff1673ffffffffffffffffffffffffffffffffffffffff166345fa8aae836040518263ffffffff1660e01b8152600401612c92919061881f565b602060405180830381865afa158015612cad573d5f803e3d5ffd5b505050506040513d601f19601f82011682018060405250810190612cd19190619ab4565b6003811115612ce357612ce2618d51565b5b60ff1603612cfb57600184612cf891906199f6565b93505b50508080600101915050612b93565b50600f548103612d1e576001915050612d23565b5f9150505b919050565b601c60149054906101000a900460ff1681565b612d436175f5565b612d4c826177c2565b80600b819055505050565b60085f9054906101000a900473ffffffffffffffffffffffffffffffffffffffff1673ffffffffffffffffffffffffffffffffffffffff163373ffffffffffffffffffffffffffffffffffffffff161480612dfe5750600a5f9054906101000a900473ffffffffffffffffffffffffffffffffffffffff1673ffffffffffffffffffffffffffffffffffffffff163373ffffffffffffffffffffffffffffffffffffffff16145b80612e55575060095f9054906101000a900473ffffffffffffffffffffffffffffffffffffffff1673ffffffffffffffffffffffffffffffffffffffff163373ffffffffffffffffffffffffffffffffffffffff16145b612e94576040517f08c379a0000000000000000000000000000000000000000000000000000000008152600401612e8b90619a73565b60405180910390fd5b8060255f8581526020019081526020015f205f8473ffffffffffffffffffffffffffffffffffffffff1673ffffffffffffffffffffffffffffffffffffffff1681526020019081526020015f2081905550505050565b60085f9054906101000a900473ffffffffffffffffffffffffffffffffffffffff1673ffffffffffffffffffffffffffffffffffffffff163373ffffffffffffffffffffffffffffffffffffffff161480612f915750600a5f9054906101000a900473ffffffffffffffffffffffffffffffffffffffff1673ffffffffffffffffffffffffffffffffffffffff163373ffffffffffffffffffffffffffffffffffffffff16145b80612fe8575060095f9054906101000a900473ffffffffffffffffffffffffffffffffffffffff1673ffffffffffffffffffffffffffffffffffffffff163373ffffffffffffffffffffffffffffffffffffffff16145b613027576040517f08c379a000000000000000000000000000000000000000000000000000000000815260040161301e90619a73565b60405180910390fd5b8060265f8581526020019081526020015f205f8473ffffffffffffffffffffffffffffffffffffffff1673ffffffffffffffffffffffffffffffffffffffff1681526020019081526020015f2081905550505050565b6016602052805f5260405f205f915090505481565b61309a6175f5565b5f601d54426130a99190619be4565b9050600c603c80836130bb9190619c44565b6130c59190619c44565b11613105576040517f08c379a00000000000000000000000000000000000000000000000000000000081526004016130fc90619ce4565b60405180910390fd5b6127108260ff161115801561311e575060018260ff1610155b61315d576040517f08c379a000000000000000000000000000000000000000000000000000000000815260040161315490619d72565b60405180910390fd5b81601c60156101000a81548160ff021916908360ff16021790555042601d819055505050565b600f5481565b60085f9054906101000a900473ffffffffffffffffffffffffffffffffffffffff1673ffffffffffffffffffffffffffffffffffffffff163373ffffffffffffffffffffffffffffffffffffffff1614806132305750600a5f9054906101000a900473ffffffffffffffffffffffffffffffffffffffff1673ffffffffffffffffffffffffffffffffffffffff163373ffffffffffffffffffffffffffffffffffffffff16145b80613287575060095f9054906101000a900473ffffffffffffffffffffffffffffffffffffffff1673ffffffffffffffffffffffffffffffffffffffff163373ffffffffffffffffffffffffffffffffffffffff16145b6132c6576040517f08c379a00000000000000000000000000000000000000000000000000000000081526004016132bd90619a73565b60405180910390fd5b6001601e5f8282546132d891906199f6565b92505081905550565b5f6132ea6175f5565b5f73ffffffffffffffffffffffffffffffffffffffff168273ffffffffffffffffffffffffffffffffffffffff1603613358576040517f08c379a000000000000000000000000000000000000000000000000000000000815260040161334f90619dda565b60405180910390fd5b81601a5f6101000a81548173ffffffffffffffffffffffffffffffffffffffff021916908373ffffffffffffffffffffffffffffffffffffffff16021790555060019050919050565b6133a96175f5565b80518251146133ed576040517f08c379a00000000000000000000000000000000000000000000000000000000081526004016133e490619e42565b60405180910390fd5b5f5b82518110156134b45781818151811061340b5761340a619e60565b5b602002602001015160175f85848151811061342957613428619e60565b5b602002602001015173ffffffffffffffffffffffffffffffffffffffff1673ffffffffffffffffffffffffffffffffffffffff1681526020019081526020015f205f6101000a81548173ffffffffffffffffffffffffffffffffffffffff021916908373ffffffffffffffffffffffffffffffffffffffff16021790555080806001019150506133ef565b505050565b6134c16175f5565b8060085f6101000a81548173ffffffffffffffffffffffffffffffffffffffff021916908373ffffffffffffffffffffffffffffffffffffffff16021790555050565b6006805461351190619eba565b80601f016020809104026020016040519081016040528092919081815260200182805461353d90619eba565b80156135885780601f1061355f57610100808354040283529160200191613588565b820191905f5260205f20905b81548152906001019060200180831161356b57829003601f168201915b505050505081565b60085f9054906101000a900473ffffffffffffffffffffffffffffffffffffffff1673ffffffffffffffffffffffffffffffffffffffff163373ffffffffffffffffffffffffffffffffffffffff1614806136375750600a5f9054906101000a900473ffffffffffffffffffffffffffffffffffffffff1673ffffffffffffffffffffffffffffffffffffffff163373ffffffffffffffffffffffffffffffffffffffff16145b8061368e575060095f9054906101000a900473ffffffffffffffffffffffffffffffffffffffff1673ffffffffffffffffffffffffffffffffffffffff163373ffffffffffffffffffffffffffffffffffffffff16145b6136cd576040517f08c379a00000000000000000000000000000000000000000000000000000000081526004016136c490619a73565b60405180910390fd5b8060235f8481526020019081526020015f20819055505050565b5f805f5b600f54811015613c31575f60115f8381526020019081526020015f205f9054906101000a900473ffffffffffffffffffffffffffffffffffffffff1690505f60265f8781526020019081526020015f205f8373ffffffffffffffffffffffffffffffffffffffff1673ffffffffffffffffffffffffffffffffffffffff1681526020019081526020015f205490505f601a5f9054906101000a900473ffffffffffffffffffffffffffffffffffffffff1673ffffffffffffffffffffffffffffffffffffffff166361ecbb44836040518263ffffffff1660e01b81526004016137d4919061881f565b602060405180830381865afa1580156137ef573d5f803e3d5ffd5b505050506040513d601f19601f820116820180604052508101906138139190619eea565b905060038081111561382857613827618d51565b5b60ff16601a5f9054906101000a900473ffffffffffffffffffffffffffffffffffffffff1673ffffffffffffffffffffffffffffffffffffffff166345fa8aae846040518263ffffffff1660e01b8152600401613885919061881f565b602060405180830381865afa1580156138a0573d5f803e3d5ffd5b505050506040513d601f19601f820116820180604052508101906138c49190619ab4565b60038111156138d6576138d5618d51565b5b60ff1603613a2a575f81036138f9576001856138f291906199f6565b9450613a25565b5f60245f8981526020019081526020015f205f8573ffffffffffffffffffffffffffffffffffffffff1673ffffffffffffffffffffffffffffffffffffffff1681526020019081526020015f205490506002600381111561395d5761395c618d51565b5b60ff16601a5f9054906101000a900473ffffffffffffffffffffffffffffffffffffffff1673ffffffffffffffffffffffffffffffffffffffff166345fa8aae836040518263ffffffff1660e01b81526004016139ba919061881f565b602060405180830381865afa1580156139d5573d5f803e3d5ffd5b505050506040513d601f19601f820116820180604052508101906139f99190619ab4565b6003811115613a0b57613a0a618d51565b5b60ff1603613a2357600186613a2091906199f6565b95505b505b613c21565b60026003811115613a3e57613a3d618d51565b5b60ff16601a5f9054906101000a900473ffffffffffffffffffffffffffffffffffffffff1673ffffffffffffffffffffffffffffffffffffffff166345fa8aae846040518263ffffffff1660e01b8152600401613a9b919061881f565b602060405180830381865afa158015613ab6573d5f803e3d5ffd5b505050506040513d601f19601f82011682018060405250810190613ada9190619ab4565b6003811115613aec57613aeb618d51565b5b60ff1603613c20575f60245f8981526020019081526020015f205f8573ffffffffffffffffffffffffffffffffffffffff1673ffffffffffffffffffffffffffffffffffffffff1681526020019081526020015f2054905060026003811115613b5857613b57618d51565b5b60ff16601a5f9054906101000a900473ffffffffffffffffffffffffffffffffffffffff1673ffffffffffffffffffffffffffffffffffffffff166345fa8aae836040518263ffffffff1660e01b8152600401613bb5919061881f565b602060405180830381865afa158015613bd0573d5f803e3d5ffd5b505050506040513d601f19601f82011682018060405250810190613bf49190619ab4565b6003811115613c0657613c05618d51565b5b60ff1603613c1e57600186613c1b91906199f6565b95505b505b5b50505080806001019150506136eb565b50600f548103613c45576001915050613c4a565b5f9150505b919050565b6037602052815f5260405f20602052805f5260405f205f91509150505481565b5f601c60149054906101000a900460ff1615613de2575f60175f8473ffffffffffffffffffffffffffffffffffffffff1673ffffffffffffffffffffffffffffffffffffffff1681526020019081526020015f205f9054906101000a900473ffffffffffffffffffffffffffffffffffffffff1690505f8173ffffffffffffffffffffffffffffffffffffffff1663feaf968c6040518163ffffffff1660e01b815260040160a060405180830381865afa158015613d2f573d5f803e3d5ffd5b505050506040513d601f19601f82011682018060405250810190613d539190619f87565b5050509150505f8273ffffffffffffffffffffffffffffffffffffffff1663313ce5676040518163ffffffff1660e01b8152600401602060405180830381865afa158015613da3573d5f803e3d5ffd5b505050506040513d601f19601f82011682018060405250810190613dc7919061a012565b9050613dd582826012617805565b9150819350505050613ec6565b5f601a5f9054906101000a900473ffffffffffffffffffffffffffffffffffffffff1673ffffffffffffffffffffffffffffffffffffffff1663a377cfbf84601b5f9054906101000a900473ffffffffffffffffffffffffffffffffffffffff166040518363ffffffff1660e01b8152600401613e6092919061a03d565b6040805180830381865afa158015613e7a573d5f803e3d5ffd5b505050506040513d601f19601f82011682018060405250810190613e9e919061a0c5565b90505f613ebe825f015160205f9054906101000a900460ff166012617805565b905080925050505b919050565b60085f9054906101000a900473ffffffffffffffffffffffffffffffffffffffff1673ffffffffffffffffffffffffffffffffffffffff163373ffffffffffffffffffffffffffffffffffffffff161480613f725750600a5f9054906101000a900473ffffffffffffffffffffffffffffffffffffffff1673ffffffffffffffffffffffffffffffffffffffff163373ffffffffffffffffffffffffffffffffffffffff16145b80613fc9575060095f9054906101000a900473ffffffffffffffffffffffffffffffffffffffff1673ffffffffffffffffffffffffffffffffffffffff163373ffffffffffffffffffffffffffffffffffffffff16145b614008576040517f08c379a0000000000000000000000000000000000000000000000000000000008152600401613fff90619a73565b60405180910390fd5b80602d5f8481526020019081526020015f20819055505050565b60085f9054906101000a900473ffffffffffffffffffffffffffffffffffffffff1673ffffffffffffffffffffffffffffffffffffffff163373ffffffffffffffffffffffffffffffffffffffff1614806140c95750600a5f9054906101000a900473ffffffffffffffffffffffffffffffffffffffff1673ffffffffffffffffffffffffffffffffffffffff163373ffffffffffffffffffffffffffffffffffffffff16145b80614120575060095f9054906101000a900473ffffffffffffffffffffffffffffffffffffffff1673ffffffffffffffffffffffffffffffffffffffff163373ffffffffffffffffffffffffffffffffffffffff16145b61415f576040517f08c379a000000000000000000000000000000000000000000000000000000000815260040161415690619a73565b60405180910390fd5b8060375f8581526020019081526020015f205f8473ffffffffffffffffffffffffffffffffffffffff1673ffffffffffffffffffffffffffffffffffffffff1681526020019081526020015f2081905550505050565b6141bd6175f5565b6141c65f61786b565b565b6022602052805f5260405f205f915054906101000a900460ff1681565b602f602052805f5260405f205f915054906101000a900473ffffffffffffffffffffffffffffffffffffffff1681565b60085f9054906101000a900473ffffffffffffffffffffffffffffffffffffffff1673ffffffffffffffffffffffffffffffffffffffff163373ffffffffffffffffffffffffffffffffffffffff1614806142bc5750600a5f9054906101000a900473ffffffffffffffffffffffffffffffffffffffff1673ffffffffffffffffffffffffffffffffffffffff163373ffffffffffffffffffffffffffffffffffffffff16145b80614313575060095f9054906101000a900473ffffffffffffffffffffffffffffffffffffffff1673ffffffffffffffffffffffffffffffffffffffff163373ffffffffffffffffffffffffffffffffffffffff16145b614352576040517f08c379a000000000000000000000000000000000000000000000000000000000815260040161434990619a73565b60405180910390fd5b6001601f5f82825461436491906199f6565b92505081905550565b60085f9054906101000a900473ffffffffffffffffffffffffffffffffffffffff1673ffffffffffffffffffffffffffffffffffffffff163373ffffffffffffffffffffffffffffffffffffffff1614806144145750600a5f9054906101000a900473ffffffffffffffffffffffffffffffffffffffff1673ffffffffffffffffffffffffffffffffffffffff163373ffffffffffffffffffffffffffffffffffffffff16145b8061446b575060095f9054906101000a900473ffffffffffffffffffffffffffffffffffffffff1673ffffffffffffffffffffffffffffffffffffffff163373ffffffffffffffffffffffffffffffffffffffff16145b6144aa576040517f08c379a00000000000000000000000000000000000000000000000000000000081526004016144a190619a73565b60405180910390fd5b8060245f8581526020019081526020015f205f8473ffffffffffffffffffffffffffffffffffffffff1673ffffffffffffffffffffffffffffffffffffffff1681526020019081526020015f2081905550505050565b601b60149054906101000a900460ff1681565b6030602052805f5260405f205f915054906101000a900460ff1681565b5f8061464c6006805461454290619eba565b80601f016020809104026020016040519081016040528092919081815260200182805461456e90619eba565b80156145b95780601f10614590576101008083540402835291602001916145b9565b820191905f5260205f20905b81548152906001019060200180831161459c57829003601f168201915b5050505050600780546145cb90619eba565b80601f01602080910402602001604051908101604052809291908181526020018280546145f790619eba565b80156146425780601f1061461957610100808354040283529160200191614642565b820191905f5260205f20905b81548152906001019060200180831161462557829003601f168201915b5050505050611dc7565b90505f614663600b543063f14bea2060e01b61793c565b90506146af6040518060400160405280600381526020017f6765740000000000000000000000000000000000000000000000000000000000815250838361796d9092919063ffffffff16565b61472e6040518060400160405280600581526020017f70617468310000000000000000000000000000000000000000000000000000008152506040518060400160405280601181526020017f726573756c74732c6164647265737365730000000000000000000000000000008152508361796d9092919063ffffffff16565b6147ad6040518060400160405280600581526020017f70617468320000000000000000000000000000000000000000000000000000008152506040518060400160405280601481526020017f726573756c74732c6d61726b65745368617265730000000000000000000000008152508361796d9092919063ffffffff16565b6147c16147b86179a0565b82600c546179c8565b9250505090565b60085f9054906101000a900473ffffffffffffffffffffffffffffffffffffffff1673ffffffffffffffffffffffffffffffffffffffff163373ffffffffffffffffffffffffffffffffffffffff16148061486f5750600a5f9054906101000a900473ffffffffffffffffffffffffffffffffffffffff1673ffffffffffffffffffffffffffffffffffffffff163373ffffffffffffffffffffffffffffffffffffffff16145b806148c6575060095f9054906101000a900473ffffffffffffffffffffffffffffffffffffffff1673ffffffffffffffffffffffffffffffffffffffff163373ffffffffffffffffffffffffffffffffffffffff16145b614905576040517f08c379a00000000000000000000000000000000000000000000000000000000081526004016148fc90619a73565b60405180910390fd5b8060305f8481526020019081526020015f205f6101000a81548160ff0219169083151502179055505050565b60085f9054906101000a900473ffffffffffffffffffffffffffffffffffffffff1673ffffffffffffffffffffffffffffffffffffffff163373ffffffffffffffffffffffffffffffffffffffff1614806149d85750600a5f9054906101000a900473ffffffffffffffffffffffffffffffffffffffff1673ffffffffffffffffffffffffffffffffffffffff163373ffffffffffffffffffffffffffffffffffffffff16145b80614a2f575060095f9054906101000a900473ffffffffffffffffffffffffffffffffffffffff1673ffffffffffffffffffffffffffffffffffffffff163373ffffffffffffffffffffffffffffffffffffffff16145b614a6e576040517f08c379a0000000000000000000000000000000000000000000000000000000008152600401614a6590619a73565b60405180910390fd5b8060355f8481526020019081526020015f205f820151815f0155602082015181600101559050505050565b601f5481565b6028602052805f5260405f205f915090505481565b5f60055f8381526020019081526020015f205f9054906101000a900473ffffffffffffffffffffffffffffffffffffffff169050919050565b60095f9054906101000a900473ffffffffffffffffffffffffffffffffffffffff1673ffffffffffffffffffffffffffffffffffffffff163373ffffffffffffffffffffffffffffffffffffffff1614614b7c576040517f08c379a0000000000000000000000000000000000000000000000000000000008152600401614b739061a13a565b60405180910390fd5b600e54600f819055505f5b600e54811015614ce3575f60105f8381526020019081526020015f205f9054906101000a900473ffffffffffffffffffffffffffffffffffffffff1690508060115f8481526020019081526020015f205f6101000a81548173ffffffffffffffffffffffffffffffffffffffff021916908373ffffffffffffffffffffffffffffffffffffffff16021790555060165f8273ffffffffffffffffffffffffffffffffffffffff1673ffffffffffffffffffffffffffffffffffffffff1681526020019081526020015f205460155f8373ffffffffffffffffffffffffffffffffffffffff1673ffffffffffffffffffffffffffffffffffffffff1681526020019081526020015f20819055508160145f8373ffffffffffffffffffffffffffffffffffffffff1673ffffffffffffffffffffffffffffffffffffffff1681526020019081526020015f2081905550508080600101915050614b87565b50565b6025602052815f5260405f20602052805f5260405f205f91509150505481565b6013602052805f5260405f205f915090505481565b5f80614d25617a8f565b9050805f015f9054906101000a900473ffffffffffffffffffffffffffffffffffffffff1691505090565b60085f9054906101000a900473ffffffffffffffffffffffffffffffffffffffff1673ffffffffffffffffffffffffffffffffffffffff163373ffffffffffffffffffffffffffffffffffffffff161480614df75750600a5f9054906101000a900473ffffffffffffffffffffffffffffffffffffffff1673ffffffffffffffffffffffffffffffffffffffff163373ffffffffffffffffffffffffffffffffffffffff16145b80614e4e575060095f9054906101000a900473ffffffffffffffffffffffffffffffffffffffff1673ffffffffffffffffffffffffffffffffffffffff163373ffffffffffffffffffffffffffffffffffffffff16145b614e8d576040517f08c379a0000000000000000000000000000000000000000000000000000000008152600401614e8490619a73565b60405180910390fd5b8060315f8481526020019081526020015f205f6101000a81548160ff0219169083151502179055505050565b6014602052805f5260405f205f915090505481565b602e602052805f5260405f205f915054906101000a900473ffffffffffffffffffffffffffffffffffffffff1681565b60085f9054906101000a900473ffffffffffffffffffffffffffffffffffffffff1681565b601c60159054906101000a900460ff1681565b614f3e6175f5565b80601c60146101000a81548160ff02191690831515021790555050565b6011602052805f5260405f205f915054906101000a900473ffffffffffffffffffffffffffffffffffffffff1681565b60085f9054906101000a900473ffffffffffffffffffffffffffffffffffffffff1673ffffffffffffffffffffffffffffffffffffffff163373ffffffffffffffffffffffffffffffffffffffff1614806150325750600a5f9054906101000a900473ffffffffffffffffffffffffffffffffffffffff1673ffffffffffffffffffffffffffffffffffffffff163373ffffffffffffffffffffffffffffffffffffffff16145b80615089575060095f9054906101000a900473ffffffffffffffffffffffffffffffffffffffff1673ffffffffffffffffffffffffffffffffffffffff163373ffffffffffffffffffffffffffffffffffffffff16145b6150c8576040517f08c379a00000000000000000000000000000000000000000000000000000000081526004016150bf90619a73565b60405180910390fd5b80602c5f8481526020019081526020015f20819055505050565b60085f9054906101000a900473ffffffffffffffffffffffffffffffffffffffff1673ffffffffffffffffffffffffffffffffffffffff163373ffffffffffffffffffffffffffffffffffffffff1614806151895750600a5f9054906101000a900473ffffffffffffffffffffffffffffffffffffffff1673ffffffffffffffffffffffffffffffffffffffff163373ffffffffffffffffffffffffffffffffffffffff16145b806151e0575060095f9054906101000a900473ffffffffffffffffffffffffffffffffffffffff1673ffffffffffffffffffffffffffffffffffffffff163373ffffffffffffffffffffffffffffffffffffffff16145b61521f576040517f08c379a000000000000000000000000000000000000000000000000000000000815260040161521690619a73565b60405180910390fd5b80602a5f8581526020019081526020015f205f8473ffffffffffffffffffffffffffffffffffffffff1673ffffffffffffffffffffffffffffffffffffffff1681526020019081526020015f2081905550505050565b6034602052805f5260405f205f915090505481565b601e5481565b6036602052815f5260405f20602052805f5260405f205f91509150505481565b5f8060125f8473ffffffffffffffffffffffffffffffffffffffff1673ffffffffffffffffffffffffffffffffffffffff1681526020019081526020015f205f9054906101000a900473ffffffffffffffffffffffffffffffffffffffff1690505f8173ffffffffffffffffffffffffffffffffffffffff166370a0823160195f9054906101000a900473ffffffffffffffffffffffffffffffffffffffff166040518263ffffffff1660e01b815260040161536c9190618970565b602060405180830381865afa158015615387573d5f803e3d5ffd5b505050506040513d601f19601f820116820180604052508101906153ab9190619eea565b90508173ffffffffffffffffffffffffffffffffffffffff16634cdad506826040518263ffffffff1660e01b81526004016153e6919061881f565b602060405180830381865afa158015615401573d5f803e3d5ffd5b505050506040513d601f19601f820116820180604052508101906154259190619eea565b92505050919050565b602b602052815f5260405f20602052805f5260405f205f91509150505481565b6154566175f5565b8160069081615465919061a2ec565b508060079081615475919061a2ec565b505050565b6021602052805f5260405f205f915054906101000a900460ff1681565b6029602052805f5260405f205f915090505481565b600b5481565b6023602052805f5260405f205f915090505481565b6154cf6175f5565b6154d98282617ab6565b5050565b5f805b600f54811015615653575f60115f8381526020019081526020015f205f9054906101000a900473ffffffffffffffffffffffffffffffffffffffff1690505f60265f8681526020019081526020015f205f8373ffffffffffffffffffffffffffffffffffffffff1673ffffffffffffffffffffffffffffffffffffffff1681526020019081526020015f205490506001600381111561558257615581618d51565b5b60ff16601a5f9054906101000a900473ffffffffffffffffffffffffffffffffffffffff1673ffffffffffffffffffffffffffffffffffffffff166345fa8aae836040518263ffffffff1660e01b81526004016155df919061881f565b602060405180830381865afa1580156155fa573d5f803e3d5ffd5b505050506040513d601f19601f8201168201806040525081019061561e9190619ab4565b60038111156156305761562f618d51565b5b60ff16036156445760019350505050615658565b505080806001019150506154e0565b505f90505b919050565b6156656186ca565b6040518061014001604052804267ffffffffffffffff1681526020013073ffffffffffffffffffffffffffffffffffffffff16815260200160185f9054906101000a900473ffffffffffffffffffffffffffffffffffffffff1673ffffffffffffffffffffffffffffffffffffffff168152602001601b5f9054906101000a900473ffffffffffffffffffffffffffffffffffffffff1673ffffffffffffffffffffffffffffffffffffffff16815260200183151581526020015f600181111561573257615731618d51565b5b815260200183615742575f61574d565b68056bc75e2d631000005b68ffffffffffffffffff168152602001836157715768056bc75e2d63100000615773565b5f5b68ffffffffffffffffff1681526020015f81526020016001600381111561579d5761579c618d51565b5b8152509050919050565b602c602052805f5260405f205f915090505481565b602060019054906101000a900473ffffffffffffffffffffffffffffffffffffffff1681565b6157ea6175f5565b805182511461582e576040517f08c379a000000000000000000000000000000000000000000000000000000000815260040161582590619e42565b60405180910390fd5b5f5b82518110156158f55781818151811061584c5761584b619e60565b5b602002602001015160125f85848151811061586a57615869619e60565b5b602002602001015173ffffffffffffffffffffffffffffffffffffffff1673ffffffffffffffffffffffffffffffffffffffff1681526020019081526020015f205f6101000a81548173ffffffffffffffffffffffffffffffffffffffff021916908373ffffffffffffffffffffffffffffffffffffffff1602179055508080600101915050615830565b505050565b6031602052805f5260405f205f915054906101000a900460ff1681565b5f805f5b600f54811015615e61575f60115f8381526020019081526020015f205f9054906101000a900473ffffffffffffffffffffffffffffffffffffffff1690505f60275f8781526020019081526020015f205f8373ffffffffffffffffffffffffffffffffffffffff1673ffffffffffffffffffffffffffffffffffffffff1681526020019081526020015f205490505f601a5f9054906101000a900473ffffffffffffffffffffffffffffffffffffffff1673ffffffffffffffffffffffffffffffffffffffff166361ecbb44836040518263ffffffff1660e01b8152600401615a04919061881f565b602060405180830381865afa158015615a1f573d5f803e3d5ffd5b505050506040513d601f19601f82011682018060405250810190615a439190619eea565b9050600380811115615a5857615a57618d51565b5b60ff16601a5f9054906101000a900473ffffffffffffffffffffffffffffffffffffffff1673ffffffffffffffffffffffffffffffffffffffff166345fa8aae846040518263ffffffff1660e01b8152600401615ab5919061881f565b602060405180830381865afa158015615ad0573d5f803e3d5ffd5b505050506040513d601f19601f82011682018060405250810190615af49190619ab4565b6003811115615b0657615b05618d51565b5b60ff1603615c5a575f8103615b2957600185615b2291906199f6565b9450615c55565b5f60255f8981526020019081526020015f205f8573ffffffffffffffffffffffffffffffffffffffff1673ffffffffffffffffffffffffffffffffffffffff1681526020019081526020015f2054905060026003811115615b8d57615b8c618d51565b5b60ff16601a5f9054906101000a900473ffffffffffffffffffffffffffffffffffffffff1673ffffffffffffffffffffffffffffffffffffffff166345fa8aae836040518263ffffffff1660e01b8152600401615bea919061881f565b602060405180830381865afa158015615c05573d5f803e3d5ffd5b505050506040513d601f19601f82011682018060405250810190615c299190619ab4565b6003811115615c3b57615c3a618d51565b5b60ff1603615c5357600186615c5091906199f6565b95505b505b615e51565b60026003811115615c6e57615c6d618d51565b5b60ff16601a5f9054906101000a900473ffffffffffffffffffffffffffffffffffffffff1673ffffffffffffffffffffffffffffffffffffffff166345fa8aae846040518263ffffffff1660e01b8152600401615ccb919061881f565b602060405180830381865afa158015615ce6573d5f803e3d5ffd5b505050506040513d601f19601f82011682018060405250810190615d0a9190619ab4565b6003811115615d1c57615d1b618d51565b5b60ff1603615e50575f60255f8981526020019081526020015f205f8573ffffffffffffffffffffffffffffffffffffffff1673ffffffffffffffffffffffffffffffffffffffff1681526020019081526020015f2054905060026003811115615d8857615d87618d51565b5b60ff16601a5f9054906101000a900473ffffffffffffffffffffffffffffffffffffffff1673ffffffffffffffffffffffffffffffffffffffff166345fa8aae836040518263ffffffff1660e01b8152600401615de5919061881f565b602060405180830381865afa158015615e00573d5f803e3d5ffd5b505050506040513d601f19601f82011682018060405250810190615e249190619ab4565b6003811115615e3657615e35618d51565b5b60ff1603615e4e57600186615e4b91906199f6565b95505b505b5b505050808060010191505061591b565b50600f548103615e75576001915050615e7a565b5f9150505b919050565b5f805f5b600f54811015615ee5575f615ec760115f8481526020019081526020015f205f9054906101000a900473ffffffffffffffffffffffffffffffffffffffff16617189565b90508083615ed591906199f6565b9250508080600101915050615e83565b508091505090565b5f615ef66175f5565b5f73ffffffffffffffffffffffffffffffffffffffff168273ffffffffffffffffffffffffffffffffffffffff1603615f64576040517f08c379a0000000000000000000000000000000000000000000000000000000008152600401615f5b9061a405565b60405180910390fd5b81601c5f6101000a81548173ffffffffffffffffffffffffffffffffffffffff021916908373ffffffffffffffffffffffffffffffffffffffff16021790555060019050919050565b60085f9054906101000a900473ffffffffffffffffffffffffffffffffffffffff1673ffffffffffffffffffffffffffffffffffffffff163373ffffffffffffffffffffffffffffffffffffffff1614806160545750600a5f9054906101000a900473ffffffffffffffffffffffffffffffffffffffff1673ffffffffffffffffffffffffffffffffffffffff163373ffffffffffffffffffffffffffffffffffffffff16145b806160ab575060095f9054906101000a900473ffffffffffffffffffffffffffffffffffffffff1673ffffffffffffffffffffffffffffffffffffffff163373ffffffffffffffffffffffffffffffffffffffff16145b6160ea576040517f08c379a00000000000000000000000000000000000000000000000000000000081526004016160e190619a73565b60405180910390fd5b8060345f8481526020019081526020015f20819055505050565b600e5481565b5f80616114615e7f565b90505f60185f9054906101000a900473ffffffffffffffffffffffffffffffffffffffff1673ffffffffffffffffffffffffffffffffffffffff166318160ddd6040518163ffffffff1660e01b8152600401602060405180830381865afa158015616181573d5f803e3d5ffd5b505050506040513d601f19601f820116820180604052508101906161a59190619eea565b90505f8282866161b5919061a423565b6161bf9190619c44565b9050809350505050919050565b600d5481565b60095f9054906101000a900473ffffffffffffffffffffffffffffffffffffffff1681565b6033602052805f5260405f205f915090505481565b60085f9054906101000a900473ffffffffffffffffffffffffffffffffffffffff1673ffffffffffffffffffffffffffffffffffffffff163373ffffffffffffffffffffffffffffffffffffffff1614806162b35750600a5f9054906101000a900473ffffffffffffffffffffffffffffffffffffffff1673ffffffffffffffffffffffffffffffffffffffff163373ffffffffffffffffffffffffffffffffffffffff16145b8061630a575060095f9054906101000a900473ffffffffffffffffffffffffffffffffffffffff1673ffffffffffffffffffffffffffffffffffffffff163373ffffffffffffffffffffffffffffffffffffffff16145b616349576040517f08c379a000000000000000000000000000000000000000000000000000000000815260040161634090619a73565b60405180910390fd5b8060215f8481526020019081526020015f205f6101000a81548160ff0219169083151502179055505050565b60085f9054906101000a900473ffffffffffffffffffffffffffffffffffffffff1673ffffffffffffffffffffffffffffffffffffffff163373ffffffffffffffffffffffffffffffffffffffff16148061641c5750600a5f9054906101000a900473ffffffffffffffffffffffffffffffffffffffff1673ffffffffffffffffffffffffffffffffffffffff163373ffffffffffffffffffffffffffffffffffffffff16145b80616473575060095f9054906101000a900473ffffffffffffffffffffffffffffffffffffffff1673ffffffffffffffffffffffffffffffffffffffff163373ffffffffffffffffffffffffffffffffffffffff16145b6164b2576040517f08c379a00000000000000000000000000000000000000000000000000000000081526004016164a990619a73565b60405180910390fd5b8060285f8481526020019081526020015f20819055505050565b60085f9054906101000a900473ffffffffffffffffffffffffffffffffffffffff1673ffffffffffffffffffffffffffffffffffffffff163373ffffffffffffffffffffffffffffffffffffffff1614806165735750600a5f9054906101000a900473ffffffffffffffffffffffffffffffffffffffff1673ffffffffffffffffffffffffffffffffffffffff163373ffffffffffffffffffffffffffffffffffffffff16145b806165ca575060095f9054906101000a900473ffffffffffffffffffffffffffffffffffffffff1673ffffffffffffffffffffffffffffffffffffffff163373ffffffffffffffffffffffffffffffffffffffff16145b616609576040517f08c379a000000000000000000000000000000000000000000000000000000000815260040161660090619a73565b60405180910390fd5b80602f5f8481526020019081526020015f205f6101000a81548173ffffffffffffffffffffffffffffffffffffffff021916908373ffffffffffffffffffffffffffffffffffffffff1602179055505050565b5f616665617d7e565b90505f815f0160089054906101000a900460ff161590505f825f015f9054906101000a900467ffffffffffffffff1690505f808267ffffffffffffffff161480156166ad5750825b90505f60018367ffffffffffffffff161480156166e057505f3073ffffffffffffffffffffffffffffffffffffffff163b145b9050811580156166ee575080155b15616725576040517ff92ee8a900000000000000000000000000000000000000000000000000000000815260040160405180910390fd5b6001855f015f6101000a81548167ffffffffffffffff021916908367ffffffffffffffff1602179055508315616772576001855f0160086101000a81548160ff0219169083151502179055505b8d601a5f6101000a81548173ffffffffffffffffffffffffffffffffffffffff021916908373ffffffffffffffffffffffffffffffffffffffff1602179055508c60185f6101000a81548173ffffffffffffffffffffffffffffffffffffffff021916908373ffffffffffffffffffffffffffffffffffffffff1602179055508b60195f6101000a81548173ffffffffffffffffffffffffffffffffffffffff021916908373ffffffffffffffffffffffffffffffffffffffff1602179055508a601b5f6101000a81548173ffffffffffffffffffffffffffffffffffffffff021916908373ffffffffffffffffffffffffffffffffffffffff16021790555089601b60146101000a81548160ff021916908360ff16021790555061689633617da5565b61689f89617db9565b6168a8886177c2565b86600b81905550600a670de0b6b3a764000060016168c6919061a423565b6168d09190619c44565b600c819055506040518060600160405280602a815260200161aac6602a9139600690816168fd919061a2ec565b506040518060600160405280602e815260200161aaf0602e913960079081616925919061a2ec565b5085601c60146101000a81548160ff021916908315150217905550600a601c60156101000a81548160ff021916908360ff16021790555033602060016101000a81548173ffffffffffffffffffffffffffffffffffffffff021916908373ffffffffffffffffffffffffffffffffffffffff16021790555083156169f7575f855f0160086101000a81548160ff0219169083151502179055507fc7f505b2f371ae2175ee4913f4499e1f2633a7b5936321eed1cdaeb6115181d260016040516169ee919061a49d565b60405180910390a15b5050505050505050505050505050565b616a0f6175f5565b8060095f6101000a81548173ffffffffffffffffffffffffffffffffffffffff021916908373ffffffffffffffffffffffffffffffffffffffff16021790555050565b602a602052815f5260405f20602052805f5260405f205f91509150505481565b602d602052805f5260405f205f915090505481565b60085f9054906101000a900473ffffffffffffffffffffffffffffffffffffffff1673ffffffffffffffffffffffffffffffffffffffff163373ffffffffffffffffffffffffffffffffffffffff161480616b2e5750600a5f9054906101000a900473ffffffffffffffffffffffffffffffffffffffff1673ffffffffffffffffffffffffffffffffffffffff163373ffffffffffffffffffffffffffffffffffffffff16145b80616b85575060095f9054906101000a900473ffffffffffffffffffffffffffffffffffffffff1673ffffffffffffffffffffffffffffffffffffffff163373ffffffffffffffffffffffffffffffffffffffff16145b616bc4576040517f08c379a0000000000000000000000000000000000000000000000000000000008152600401616bbb90619a73565b60405180910390fd5b80602e5f8481526020019081526020015f205f6101000a81548173ffffffffffffffffffffffffffffffffffffffff021916908373ffffffffffffffffffffffffffffffffffffffff1602179055505050565b5f805f5b600f54811015616db2575f60115f8381526020019081526020015f205f9054906101000a900473ffffffffffffffffffffffffffffffffffffffff1690505f68056bc75e2d6310000060155f8473ffffffffffffffffffffffffffffffffffffffff1673ffffffffffffffffffffffffffffffffffffffff1681526020019081526020015f205487616cad919061a423565b616cb79190619c44565b90505f80601a5f9054906101000a900473ffffffffffffffffffffffffffffffffffffffff1673ffffffffffffffffffffffffffffffffffffffff1663236970d45f601b5f9054906101000a900473ffffffffffffffffffffffffffffffffffffffff166040518363ffffffff1660e01b8152600401616d3892919061993c565b6040805180830381865afa158015616d52573d5f803e3d5ffd5b505050506040513d601f19601f82011682018060405250810190616d76919061998b565b915091505f616d85828561767c565b83616d9091906199f6565b90508087616d9e91906199f6565b965050505050508080600101915050616c1b565b5080915050919050565b5f80616dc6615e7f565b90505f60185f9054906101000a900473ffffffffffffffffffffffffffffffffffffffff1673ffffffffffffffffffffffffffffffffffffffff166318160ddd6040518163ffffffff1660e01b8152600401602060405180830381865afa158015616e33573d5f803e3d5ffd5b505050506040513d601f19601f82011682018060405250810190616e579190619eea565b90505f818386616e67919061a423565b616e719190619c44565b9050809350505050919050565b60078054616e8b90619eba565b80601f0160208091040260200160405190810160405280929190818152602001828054616eb790619eba565b8015616f025780601f10616ed957610100808354040283529160200191616f02565b820191905f5260205f20905b815481529060010190602001808311616ee557829003601f168201915b505050505081565b60085f9054906101000a900473ffffffffffffffffffffffffffffffffffffffff1673ffffffffffffffffffffffffffffffffffffffff163373ffffffffffffffffffffffffffffffffffffffff161480616fb15750600a5f9054906101000a900473ffffffffffffffffffffffffffffffffffffffff1673ffffffffffffffffffffffffffffffffffffffff163373ffffffffffffffffffffffffffffffffffffffff16145b80617008575060095f9054906101000a900473ffffffffffffffffffffffffffffffffffffffff1673ffffffffffffffffffffffffffffffffffffffff163373ffffffffffffffffffffffffffffffffffffffff16145b617047576040517f08c379a000000000000000000000000000000000000000000000000000000000815260040161703e90619a73565b60405180910390fd5b8060335f8481526020019081526020015f20819055505050565b5f61706a6175f5565b5f73ffffffffffffffffffffffffffffffffffffffff168373ffffffffffffffffffffffffffffffffffffffff16036170d8576040517f08c379a00000000000000000000000000000000000000000000000000000000081526004016170cf90619b90565b60405180910390fd5b82601b5f6101000a81548173ffffffffffffffffffffffffffffffffffffffff021916908373ffffffffffffffffffffffffffffffffffffffff16021790555081601b60146101000a81548160ff021916908360ff1602179055506001905092915050565b6171456175f5565b80602060016101000a81548173ffffffffffffffffffffffffffffffffffffffff021916908373ffffffffffffffffffffffffffffffffffffffff16021790555050565b5f8061719483613c6f565b90505f6171a0846152b0565b9050670de0b6b3a764000082826171b7919061a423565b6171c19190619c44565b92505050919050565b8260055f8281526020019081526020015f205f9054906101000a900473ffffffffffffffffffffffffffffffffffffffff1673ffffffffffffffffffffffffffffffffffffffff163373ffffffffffffffffffffffffffffffffffffffff1614617269576040517f08c379a00000000000000000000000000000000000000000000000000000000081526004016172609061a526565b60405180910390fd5b60055f8281526020019081526020015f205f6101000a81549073ffffffffffffffffffffffffffffffffffffffff0219169055807f7cc135e0cebb02c3480ae5d74d377283180a2601f8f644edf7987b009316c63a60405160405180910390a26172d38383617ab6565b50505050565b6172e16186ca565b60325f8381526020019081526020015f20604051806101400160405290815f82015f9054906101000a900467ffffffffffffffff1667ffffffffffffffff1667ffffffffffffffff1681526020015f820160089054906101000a900473ffffffffffffffffffffffffffffffffffffffff1673ffffffffffffffffffffffffffffffffffffffff1673ffffffffffffffffffffffffffffffffffffffff168152602001600182015f9054906101000a900473ffffffffffffffffffffffffffffffffffffffff1673ffffffffffffffffffffffffffffffffffffffff1673ffffffffffffffffffffffffffffffffffffffff168152602001600282015f9054906101000a900473ffffffffffffffffffffffffffffffffffffffff1673ffffffffffffffffffffffffffffffffffffffff1673ffffffffffffffffffffffffffffffffffffffff1681526020016002820160149054906101000a900460ff161515151581526020016002820160159054906101000a900460ff16600181111561746d5761746c618d51565b5b600181111561747f5761747e618d51565b5b8152602001600382015481526020016004820154815260200160058201548152602001600682015f9054906101000a900460ff1660038111156174c5576174c4618d51565b5b60038111156174d7576174d6618d51565b5b815250509050919050565b6174ea6175f5565b5f73ffffffffffffffffffffffffffffffffffffffff168173ffffffffffffffffffffffffffffffffffffffff160361755a575f6040517f1e4fbdf70000000000000000000000000000000000000000000000000000000081526004016175519190618970565b60405180910390fd5b6175638161786b565b50565b6027602052815f5260405f20602052805f5260405f205f91509150505481565b601c5f9054906101000a900473ffffffffffffffffffffffffffffffffffffffff1681565b60195f9054906101000a900473ffffffffffffffffffffffffffffffffffffffff1681565b60185f9054906101000a900473ffffffffffffffffffffffffffffffffffffffff1681565b6175fd617dfc565b73ffffffffffffffffffffffffffffffffffffffff1661761b614d1b565b73ffffffffffffffffffffffffffffffffffffffff161461767a5761763e617dfc565b6040517f118cdaa70000000000000000000000000000000000000000000000000000000081526004016176719190618970565b60405180910390fd5b565b5f808362ffffff160361768f575f6176a8565b6176a7828462ffffff16620f424062ffffff16617e03565b5b905092915050565b5f805f80198587098587029250828110838203039150505f81036176e8578382816176de576176dd619c17565b5b04925050506177bb565b838110617730578585856040517f63a057780000000000000000000000000000000000000000000000000000000081526004016177279392919061a544565b60405180910390fd5b5f8486880990508281118203915080830392505f6001861901861690505f81870496508185049450600182835f0304019050808402851794505f60028860030218905080880260020381029050808802600203810290508088026002038102905080880260020381029050808802600203810290508088026002038102905080860296505050505050505b9392505050565b8060035f6101000a81548173ffffffffffffffffffffffffffffffffffffffff021916908373ffffffffffffffffffffffffffffffffffffffff16021790555050565b5f8260ff168260ff16111561783e578282617820919061a579565b600a61782c919061a6dc565b84617837919061a726565b9050617864565b818361784a919061a579565b600a617856919061a6dc565b84617861919061a726565b90505b9392505050565b5f617874617a8f565b90505f815f015f9054906101000a900473ffffffffffffffffffffffffffffffffffffffff16905082825f015f6101000a81548173ffffffffffffffffffffffffffffffffffffffff021916908373ffffffffffffffffffffffffffffffffffffffff1602179055508273ffffffffffffffffffffffffffffffffffffffff168173ffffffffffffffffffffffffffffffffffffffff167f8be0079c531659141344cd1fd0a4f28419497f9722a3daafe3b4186f6b6457e060405160405180910390a3505050565b617944618785565b61794c618785565b61796385858584617f15909392919063ffffffff16565b9150509392505050565b617984828460800151617fc490919063ffffffff16565b61799b818460800151617fc490919063ffffffff16565b505050565b5f60035f9054906101000a900473ffffffffffffffffffffffffffffffffffffffff16905090565b5f8060045490506001816179dc91906199f6565b6004819055505f634042994660e01b5f80875f01513089604001518760018c608001515f0151604051602401617a1998979695949392919061a81e565b604051602081830303815290604052907bffffffffffffffffffffffffffffffffffffffffffffffffffffffff19166020820180517bffffffffffffffffffffffffffffffffffffffffffffffffffffffff83818316178352505050509050617a8486838684617fe9565b925050509392505050565b5f7f9016d09d72d40fdae2fd8ceac6b6234c7706214fd39c1cd1e609a0528c199300905090565b5f8290505f8290505f5b8251811015617d5657828181518110617adc57617adb619e60565b5b602002602001015160105f8381526020019081526020015f205f6101000a81548173ffffffffffffffffffffffffffffffffffffffff021916908373ffffffffffffffffffffffffffffffffffffffff1602179055508060135f858481518110617b4957617b48619e60565b5b602002602001015173ffffffffffffffffffffffffffffffffffffffff1673ffffffffffffffffffffffffffffffffffffffff1681526020019081526020015f2081905550818181518110617ba157617ba0619e60565b5b602002602001015160165f858481518110617bbf57617bbe619e60565b5b602002602001015173ffffffffffffffffffffffffffffffffffffffff1673ffffffffffffffffffffffffffffffffffffffff1681526020019081526020015f20819055505f600f5403617d4957828181518110617c2057617c1f619e60565b5b602002602001015160115f8381526020019081526020015f205f6101000a81548173ffffffffffffffffffffffffffffffffffffffff021916908373ffffffffffffffffffffffffffffffffffffffff160217905550818181518110617c8957617c88619e60565b5b602002602001015160155f858481518110617ca757617ca6619e60565b5b602002602001015173ffffffffffffffffffffffffffffffffffffffff1673ffffffffffffffffffffffffffffffffffffffff1681526020019081526020015f20819055508060145f858481518110617d0357617d02619e60565b5b602002602001015173ffffffffffffffffffffffffffffffffffffffff1673ffffffffffffffffffffffffffffffffffffffff1681526020019081526020015f20819055505b8080600101915050617ac0565b508151600e819055505f600f5403617d71578151600f819055505b42600d8190555050505050565b5f7ff0c57e16840df040f15088dc2f81fe391c3923bec73e23a9662efc9c229c6a00905090565b617dad618176565b617db6816181b6565b50565b8060025f6101000a81548173ffffffffffffffffffffffffffffffffffffffff021916908373ffffffffffffffffffffffffffffffffffffffff16021790555050565b5f33905090565b5f805f80198587098587029250828110838203039150505f8103617e3b57838281617e3157617e30619c17565b5b0492505050617f0e565b838110617e83578585856040517f63a05778000000000000000000000000000000000000000000000000000000008152600401617e7a9392919061a544565b60405180910390fd5b5f8486880990508281118203915080830392505f6001861901861690505f81870496508185049450600182835f0304019050808402851794505f60028860030218905080880260020381029050808802600203810290508088026002038102905080880260020381029050808802600203810290508088026002038102905080860296505050505050505b9392505050565b617f1d618785565b617f2d856080015161010061823a565b5083855f01818152505082856020019073ffffffffffffffffffffffffffffffffffffffff16908173ffffffffffffffffffffffffffffffffffffffff16815250508185604001907bffffffffffffffffffffffffffffffffffffffffffffffffffffffff191690817bffffffffffffffffffffffffffffffffffffffffffffffffffffffff191681525050849050949350505050565b617fd182600383516182a2565b617fe4818361842790919063ffffffff16565b505050565b5f3084604051602001617ffd92919061a917565b6040516020818303038152906040528051906020012090508460055f8381526020019081526020015f205f6101000a81548173ffffffffffffffffffffffffffffffffffffffff021916908373ffffffffffffffffffffffffffffffffffffffff160217905550807fb5e6e01e79f91267dc17b4e6314d5d4d03593d2ceee0fbb452b750bd70ea5af960405160405180910390a260025f9054906101000a900473ffffffffffffffffffffffffffffffffffffffff1673ffffffffffffffffffffffffffffffffffffffff16634000aea08685856040518463ffffffff1660e01b81526004016180ef9392919061a942565b6020604051808303815f875af115801561810b573d5f803e3d5ffd5b505050506040513d601f19601f8201168201806040525081019061812f919061a992565b61816e576040517f08c379a00000000000000000000000000000000000000000000000000000000081526004016181659061aa2d565b60405180910390fd5b949350505050565b61817e618448565b6181b4576040517fd7e6bcf800000000000000000000000000000000000000000000000000000000815260040160405180910390fd5b565b6181be618176565b5f73ffffffffffffffffffffffffffffffffffffffff168173ffffffffffffffffffffffffffffffffffffffff160361822e575f6040517f1e4fbdf70000000000000000000000000000000000000000000000000000000081526004016182259190618970565b60405180910390fd5b6182378161786b565b50565b6182426187ee565b5f602083618250919061aa4b565b1461827c57602082618262919061aa4b565b602061826e9190619be4565b8261827991906199f6565b91505b818360200181815250506040518084525f81528281016020016040525082905092915050565b60178167ffffffffffffffff16116182d9576182d38160058460ff16901b60ff16178461846690919063ffffffff16565b50618422565b60ff8167ffffffffffffffff161161832f57618308601860058460ff16901b178461846690919063ffffffff16565b506183298167ffffffffffffffff166001856184859092919063ffffffff16565b50618421565b61ffff8167ffffffffffffffff16116183865761835f601960058460ff16901b178461846690919063ffffffff16565b506183808167ffffffffffffffff166002856184859092919063ffffffff16565b50618420565b63ffffffff8167ffffffffffffffff16116183df576183b8601a60058460ff16901b178461846690919063ffffffff16565b506183d98167ffffffffffffffff166004856184859092919063ffffffff16565b5061841f565b6183fc601b60058460ff16901b178461846690919063ffffffff16565b5061841d8167ffffffffffffffff166008856184859092919063ffffffff16565b505b5b5b5b505050565b61842f6187ee565b61844083845f0151518485516184a6565b905092915050565b5f618451617d7e565b5f0160089054906101000a900460ff16905090565b61846e6187ee565b61847d83845f01515184618592565b905092915050565b61848d6187ee565b61849d84855f01515185856185e8565b90509392505050565b6184ae6187ee565b82518211156184bb575f80fd5b846020015182856184cc91906199f6565b1115618501576185008560026184f1886020015188876184ec91906199f6565b618675565b6184fb919061a423565b618690565b5b5f8086518051876020830101935080888701111561851f5787860182525b60208701925050505b60208410618566578051825260208261854191906199f6565b915060208161855091906199f6565b905060208461855f9190619be4565b9350618528565b5f6001856020036101000a03905080198251168184511681811785525050508692505050949350505050565b61859a6187ee565b836020015183106185c0576185bf84600286602001516185ba919061a423565b618690565b5b835180516020858301018481538186036185db576001820183525b5050508390509392505050565b6185f06187ee565b8460200151848361860191906199f6565b111561862957618628856002868561861991906199f6565b618623919061a423565b618690565b5b5f60018361010061863a919061aa7b565b6186449190619be4565b905085518386820101858319825116178152815185880111156186675784870182525b505085915050949350505050565b5f818311156186865782905061868a565b8190505b92915050565b5f825f015190506186a1838361823a565b506186ac8382618427565b50505050565b60405180604001604052805f81526020015f81525090565b6040518061014001604052805f67ffffffffffffffff1681526020015f73ffffffffffffffffffffffffffffffffffffffff1681526020015f73ffffffffffffffffffffffffffffffffffffffff1681526020015f73ffffffffffffffffffffffffffffffffffffffff1681526020015f151581526020015f600181111561875557618754618d51565b5b81526020015f81526020015f81526020015f81526020015f600381111561877f5761877e618d51565b5b81525090565b6040518060a001604052805f80191681526020015f73ffffffffffffffffffffffffffffffffffffffff1681526020015f7bffffffffffffffffffffffffffffffffffffffffffffffffffffffff191681526020015f81526020016187e86187ee565b81525090565b6040518060400160405280606081526020015f81525090565b5f819050919050565b61881981618807565b82525050565b5f6020820190506188325f830184618810565b92915050565b5f604051905090565b5f80fd5b5f80fd5b61885281618807565b811461885c575f80fd5b50565b5f8135905061886d81618849565b92915050565b5f73ffffffffffffffffffffffffffffffffffffffff82169050919050565b5f61889c82618873565b9050919050565b6188ac81618892565b81146188b6575f80fd5b50565b5f813590506188c7816188a3565b92915050565b5f80604083850312156188e3576188e2618841565b5b5f6188f08582860161885f565b9250506020618901858286016188b9565b9150509250929050565b5f602082840312156189205761891f618841565b5b5f61892d848285016188b9565b91505092915050565b5f6020828403121561894b5761894a618841565b5b5f6189588482850161885f565b91505092915050565b61896a81618892565b82525050565b5f6020820190506189835f830184618961565b92915050565b5f8115159050919050565b61899d81618989565b81146189a7575f80fd5b50565b5f813590506189b881618994565b92915050565b5f80604083850312156189d4576189d3618841565b5b5f6189e18582860161885f565b92505060206189f2858286016189aa565b9150509250929050565b618a0581618989565b82525050565b5f602082019050618a1e5f8301846189fc565b92915050565b5f60ff82169050919050565b618a3981618a24565b82525050565b5f602082019050618a525f830184618a30565b92915050565b5f80fd5b5f80fd5b5f601f19601f8301169050919050565b7f4e487b71000000000000000000000000000000000000000000000000000000005f52604160045260245ffd5b618aa682618a60565b810181811067ffffffffffffffff82111715618ac557618ac4618a70565b5b80604052505050565b5f618ad7618838565b9050618ae38282618a9d565b919050565b5f67ffffffffffffffff821115618b0257618b01618a70565b5b618b0b82618a60565b9050602081019050919050565b828183375f83830152505050565b5f618b38618b3384618ae8565b618ace565b905082815260208101848484011115618b5457618b53618a5c565b5b618b5f848285618b18565b509392505050565b5f82601f830112618b7b57618b7a618a58565b5b8135618b8b848260208601618b26565b91505092915050565b5f8060408385031215618baa57618ba9618841565b5b5f83013567ffffffffffffffff811115618bc757618bc6618845565b5b618bd385828601618b67565b925050602083013567ffffffffffffffff811115618bf457618bf3618845565b5b618c0085828601618b67565b9150509250929050565b5f81519050919050565b5f82825260208201905092915050565b8281835e5f83830152505050565b5f618c3c82618c0a565b618c468185618c14565b9350618c56818560208601618c24565b618c5f81618a60565b840191505092915050565b5f6020820190508181035f830152618c828184618c32565b905092915050565b5f805f60608486031215618ca157618ca0618841565b5b5f618cae8682870161885f565b9350506020618cbf868287016188b9565b9250506040618cd08682870161885f565b9150509250925092565b618ce381618807565b82525050565b604082015f820151618cfd5f850182618cda565b506020820151618d106020850182618cda565b50505050565b5f604082019050618d295f830184618ce9565b92915050565b5f67ffffffffffffffff82169050919050565b618d4b81618d2f565b82525050565b7f4e487b71000000000000000000000000000000000000000000000000000000005f52602160045260245ffd5b60028110618d8f57618d8e618d51565b5b50565b5f819050618d9f82618d7e565b919050565b5f618dae82618d92565b9050919050565b618dbe81618da4565b82525050565b60048110618dd557618dd4618d51565b5b50565b5f819050618de582618dc4565b919050565b5f618df482618dd8565b9050919050565b618e0481618dea565b82525050565b5f61014082019050618e1e5f83018d618d42565b618e2b602083018c618961565b618e38604083018b618961565b618e45606083018a618961565b618e5260808301896189fc565b618e5f60a0830188618db5565b618e6c60c0830187618810565b618e7960e0830186618810565b618e87610100830185618810565b618e95610120830184618dfb565b9b9a5050505050505050505050565b5f819050919050565b5f618ec7618ec2618ebd84618873565b618ea4565b618873565b9050919050565b5f618ed882618ead565b9050919050565b5f618ee982618ece565b9050919050565b618ef981618edf565b82525050565b5f602082019050618f125f830184618ef0565b92915050565b5f8060408385031215618f2e57618f2d618841565b5b5f618f3b8582860161885f565b9250506020618f4c8582860161885f565b9150509250929050565b5f62ffffff82169050919050565b618f6d81618f56565b8114618f77575f80fd5b50565b5f81359050618f8881618f64565b92915050565b5f8060408385031215618fa457618fa3618841565b5b5f618fb185828601618f7a565b9250506020618fc28582860161885f565b9150509250929050565b618fd581618a24565b8114618fdf575f80fd5b50565b5f81359050618ff081618fcc565b92915050565b5f6020828403121561900b5761900a618841565b5b5f61901884828501618fe2565b91505092915050565b5f80fd5b61902e81618d2f565b8114619038575f80fd5b50565b5f8135905061904981619025565b92915050565b6002811061905b575f80fd5b50565b5f8135905061906c8161904f565b92915050565b6004811061907e575f80fd5b50565b5f8135905061908f81619072565b92915050565b5f61014082840312156190ab576190aa619021565b5b6190b6610140618ace565b90505f6190c58482850161903b565b5f8301525060206190d8848285016188b9565b60208301525060406190ec848285016188b9565b6040830152506060619100848285016188b9565b6060830152506080619114848285016189aa565b60808301525060a06191288482850161905e565b60a08301525060c061913c8482850161885f565b60c08301525060e06191508482850161885f565b60e0830152506101006191658482850161885f565b6101008301525061012061917b84828501619081565b6101208301525092915050565b5f80610160838503121561919f5761919e618841565b5b5f6191ac8582860161885f565b92505060206191bd85828601619095565b9150509250929050565b5f6040820190506191da5f830185618810565b6191e76020830184618810565b9392505050565b5f819050919050565b619200816191ee565b811461920a575f80fd5b50565b5f8135905061921b816191f7565b92915050565b5f806040838503121561923757619236618841565b5b5f619244858286016188b9565b92505060206192558582860161920d565b9150509250929050565b5f67ffffffffffffffff82111561927957619278618a70565b5b602082029050602081019050919050565b5f80fd5b5f6192a061929b8461925f565b618ace565b905080838252602082019050602084028301858111156192c3576192c261928a565b5b835b818110156192ec57806192d888826188b9565b8452602084019350506020810190506192c5565b5050509392505050565b5f82601f83011261930a57619309618a58565b5b813561931a84826020860161928e565b91505092915050565b5f806040838503121561933957619338618841565b5b5f83013567ffffffffffffffff81111561935657619355618845565b5b619362858286016192f6565b925050602083013567ffffffffffffffff81111561938357619382618845565b5b61938f858286016192f6565b9150509250929050565b6193a2816191ee565b82525050565b5f6020820190506193bb5f830184619399565b92915050565b5f604082840312156193d6576193d5619021565b5b6193e06040618ace565b90505f6193ef8482850161885f565b5f8301525060206194028482850161885f565b60208301525092915050565b5f806060838503121561942457619423618841565b5b5f6194318582860161885f565b9250506020619442858286016193c1565b9150509250929050565b5f6020828403121561946157619460618841565b5b5f61946e8482850161920d565b91505092915050565b5f6020828403121561948c5761948b618841565b5b5f619499848285016189aa565b91505092915050565b5f67ffffffffffffffff8211156194bc576194bb618a70565b5b602082029050602081019050919050565b5f6194df6194da846194a2565b618ace565b905080838252602082019050602084028301858111156195025761950161928a565b5b835b8181101561952b5780619517888261885f565b845260208401935050602081019050619504565b5050509392505050565b5f82601f83011261954957619548618a58565b5b81356195598482602086016194cd565b91505092915050565b5f806040838503121561957857619577618841565b5b5f83013567ffffffffffffffff81111561959557619594618845565b5b6195a1858286016192f6565b925050602083013567ffffffffffffffff8111156195c2576195c1618845565b5b6195ce85828601619535565b9150509250929050565b6195e181618d2f565b82525050565b6195f081618892565b82525050565b6195ff81618989565b82525050565b61960e81618da4565b82525050565b61961d81618dea565b82525050565b61014082015f8201516196385f8501826195d8565b50602082015161964b60208501826195e7565b50604082015161965e60408501826195e7565b50606082015161967160608501826195e7565b50608082015161968460808501826195f6565b5060a082015161969760a0850182619605565b5060c08201516196aa60c0850182618cda565b5060e08201516196bd60e0850182618cda565b506101008201516196d2610100850182618cda565b506101208201516196e7610120850182619614565b50505050565b5f610140820190506197015f830184619623565b92915050565b5f805f805f805f805f6101208a8c03121561972557619724618841565b5b5f6197328c828d016188b9565b99505060206197438c828d016188b9565b98505060406197548c828d016188b9565b97505060606197658c828d016188b9565b96505060806197768c828d01618fe2565b95505060a06197878c828d016188b9565b94505060c06197988c828d016188b9565b93505060e06197a98c828d0161920d565b9250506101006197bb8c828d016189aa565b9150509295985092959850929598565b5f80604083850312156197e1576197e0618841565b5b5f6197ee858286016188b9565b92505060206197ff85828601618fe2565b9150509250929050565b5f805f606084860312156198205761981f618841565b5b5f61982d8682870161920d565b935050602084013567ffffffffffffffff81111561984e5761984d618845565b5b61985a868287016192f6565b925050604084013567ffffffffffffffff81111561987b5761987a618845565b5b61988786828701619535565b9150509250925092565b5f61989b82618ece565b9050919050565b6198ab81619891565b82525050565b5f6020820190506198c45f8301846198a2565b92915050565b5f6198d482618ece565b9050919050565b6198e4816198ca565b82525050565b5f6020820190506198fd5f8301846198db565b92915050565b5f61990d82618ece565b9050919050565b61991d81619903565b82525050565b5f6020820190506199365f830184619914565b92915050565b5f60408201905061994f5f8301856189fc565b61995c6020830184618961565b9392505050565b5f8151905061997181618849565b92915050565b5f8151905061998581618f64565b92915050565b5f80604083850312156199a1576199a0618841565b5b5f6199ae85828601619963565b92505060206199bf85828601619977565b9150509250929050565b7f4e487b71000000000000000000000000000000000000000000000000000000005f52601160045260245ffd5b5f619a0082618807565b9150619a0b83618807565b9250828201905080821115619a2357619a226199c9565b5b92915050565b7f43616c6c6572206973206e6f74206120666163746f727920636f6e74726163745f82015250565b5f619a5d602083618c14565b9150619a6882619a29565b602082019050919050565b5f6020820190508181035f830152619a8a81619a51565b9050919050565b60048110619a9d575f80fd5b50565b5f81519050619aae81619a91565b92915050565b5f60208284031215619ac957619ac8618841565b5b5f619ad684828501619aa0565b91505092915050565b5f81519050919050565b5f81905092915050565b5f619afd82619adf565b619b078185619ae9565b9350619b17818560208601618c24565b80840191505092915050565b5f619b2e8285619af3565b9150619b3a8284619af3565b91508190509392505050565b7f696e76616c696420746f6b656e206164647265737300000000000000000000005f82015250565b5f619b7a601583618c14565b9150619b8582619b46565b602082019050919050565b5f6020820190508181035f830152619ba781619b6e565b9050919050565b5f619bb882618f56565b9150619bc383618f56565b9250828201905062ffffff811115619bde57619bdd6199c9565b5b92915050565b5f619bee82618807565b9150619bf983618807565b9250828203905081811115619c1157619c106199c9565b5b92915050565b7f4e487b71000000000000000000000000000000000000000000000000000000005f52601260045260245ffd5b5f619c4e82618807565b9150619c5983618807565b925082619c6957619c68619c17565b5b828204905092915050565b7f596f752073686f756c642077616974206174206c6561737420313220686f75725f8201527f7320616674657220746865206c61746573742075706461746500000000000000602082015250565b5f619cce603983618c14565b9150619cd982619c74565b604082019050919050565b5f6020820190508181035f830152619cfb81619cc2565b9050919050565b7f546865206e65774665652073686f756c64206265206265747765656e203120615f8201527f6e64203130302028302e303125202d2031252900000000000000000000000000602082015250565b5f619d5c603383618c14565b9150619d6782619d02565b604082019050919050565b5f6020820190508181035f830152619d8981619d50565b9050919050565b7f696e76616c6964206973737565722061646472657373000000000000000000005f82015250565b5f619dc4601683618c14565b9150619dcf82619d90565b602082019050919050565b5f6020820190508181035f830152619df181619db8565b9050919050565b7f4172726179206c656e677468206d69736d6174636800000000000000000000005f82015250565b5f619e2c601583618c14565b9150619e3782619df8565b602082019050919050565b5f6020820190508181035f830152619e5981619e20565b9050919050565b7f4e487b71000000000000000000000000000000000000000000000000000000005f52603260045260245ffd5b7f4e487b71000000000000000000000000000000000000000000000000000000005f52602260045260245ffd5b5f6002820490506001821680619ed157607f821691505b602082108103619ee457619ee3619e8d565b5b50919050565b5f60208284031215619eff57619efe618841565b5b5f619f0c84828501619963565b91505092915050565b5f69ffffffffffffffffffff82169050919050565b619f3381619f15565b8114619f3d575f80fd5b50565b5f81519050619f4e81619f2a565b92915050565b5f819050919050565b619f6681619f54565b8114619f70575f80fd5b50565b5f81519050619f8181619f5d565b92915050565b5f805f805f60a08688031215619fa057619f9f618841565b5b5f619fad88828901619f40565b9550506020619fbe88828901619f73565b9450506040619fcf88828901619963565b9350506060619fe088828901619963565b9250506080619ff188828901619f40565b9150509295509295909350565b5f8151905061a00c81618fcc565b92915050565b5f6020828403121561a0275761a026618841565b5b5f61a03484828501619ffe565b91505092915050565b5f60408201905061a0505f830185618961565b61a05d6020830184618961565b9392505050565b5f8151905061a07281619025565b92915050565b5f6040828403121561a08d5761a08c619021565b5b61a0976040618ace565b90505f61a0a684828501619963565b5f83015250602061a0b98482850161a064565b60208301525092915050565b5f6040828403121561a0da5761a0d9618841565b5b5f61a0e78482850161a078565b91505092915050565b7f63616c6c6572206d75737420626520666163746f72792062616c616e636572005f82015250565b5f61a124601f83618c14565b915061a12f8261a0f0565b602082019050919050565b5f6020820190508181035f83015261a1518161a118565b9050919050565b5f819050815f5260205f209050919050565b5f6020601f8301049050919050565b5f82821b905092915050565b5f6008830261a1b47fffffffffffffffffffffffffffffffffffffffffffffffffffffffffffffffff8261a179565b61a1be868361a179565b95508019841693508086168417925050509392505050565b5f61a1f061a1eb61a1e684618807565b618ea4565b618807565b9050919050565b5f819050919050565b61a2098361a1d6565b61a21d61a2158261a1f7565b84845461a185565b825550505050565b5f90565b61a23161a225565b61a23c81848461a200565b505050565b5b8181101561a25f5761a2545f8261a229565b60018101905061a242565b5050565b601f82111561a2a45761a2758161a158565b61a27e8461a16a565b8101602085101561a28d578190505b61a2a161a2998561a16a565b83018261a241565b50505b505050565b5f82821c905092915050565b5f61a2c45f198460080261a2a9565b1980831691505092915050565b5f61a2dc838361a2b5565b9150826002028217905092915050565b61a2f582618c0a565b67ffffffffffffffff81111561a30e5761a30d618a70565b5b61a3188254619eba565b61a32382828561a263565b5f60209050601f83116001811461a354575f841561a342578287015190505b61a34c858261a2d1565b86555061a3b3565b601f19841661a3628661a158565b5f5b8281101561a3895784890151825560018201915060208501945060208101905061a364565b8683101561a3a6578489015161a3a2601f89168261a2b5565b8355505b6001600288020188555050505b505050505050565b7f696e76616c6964206f72646572206d616e6167657220616464726573730000005f82015250565b5f61a3ef601d83618c14565b915061a3fa8261a3bb565b602082019050919050565b5f6020820190508181035f83015261a41c8161a3e3565b9050919050565b5f61a42d82618807565b915061a43883618807565b925082820261a44681618807565b9150828204841483151761a45d5761a45c6199c9565b5b5092915050565b5f819050919050565b5f61a48761a48261a47d8461a464565b618ea4565b618d2f565b9050919050565b61a4978161a46d565b82525050565b5f60208201905061a4b05f83018461a48e565b92915050565b7f536f75726365206d75737420626520746865206f7261636c65206f66207468655f8201527f2072657175657374000000000000000000000000000000000000000000000000602082015250565b5f61a510602883618c14565b915061a51b8261a4b6565b604082019050919050565b5f6020820190508181035f83015261a53d8161a504565b9050919050565b5f60608201905061a5575f830186618810565b61a5646020830185618810565b61a5716040830184618810565b949350505050565b5f61a58382618a24565b915061a58e83618a24565b9250828203905060ff81111561a5a75761a5a66199c9565b5b92915050565b5f8160011c9050919050565b5f808291508390505b600185111561a6025780860481111561a5de5761a5dd6199c9565b5b600185161561a5ed5780820291505b808102905061a5fb8561a5ad565b945061a5c2565b94509492505050565b5f8261a61a576001905061a6d5565b8161a627575f905061a6d5565b816001811461a63d576002811461a6475761a676565b600191505061a6d5565b60ff84111561a6595761a6586199c9565b5b8360020a91508482111561a6705761a66f6199c9565b5b5061a6d5565b5060208310610133831016604e8410600b841016171561a6ab5782820a90508381111561a6a65761a6a56199c9565b5b61a6d5565b61a6b8848484600161a5b9565b9250905081840481111561a6cf5761a6ce6199c9565b5b81810290505b9392505050565b5f61a6e682618807565b915061a6f183618a24565b925061a71e7fffffffffffffffffffffffffffffffffffffffffffffffffffffffffffffffff848461a60b565b905092915050565b5f61a73082619f54565b915061a73b83619f54565b925082820261a74981619f54565b91507f800000000000000000000000000000000000000000000000000000000000000084145f8412161561a7805761a77f6199c9565b5b828205841483151761a7955761a7946199c9565b5b5092915050565b5f7fffffffff0000000000000000000000000000000000000000000000000000000082169050919050565b61a7d08161a79c565b82525050565b5f82825260208201905092915050565b5f61a7f082619adf565b61a7fa818561a7d6565b935061a80a818560208601618c24565b61a81381618a60565b840191505092915050565b5f6101008201905061a8325f83018b618961565b61a83f602083018a618810565b61a84c6040830189619399565b61a8596060830188618961565b61a866608083018761a7c7565b61a87360a0830186618810565b61a88060c0830185618810565b81810360e083015261a892818461a7e6565b90509998505050505050505050565b5f61a8ab82618ece565b9050919050565b5f8160601b9050919050565b5f61a8c88261a8b2565b9050919050565b5f61a8d98261a8be565b9050919050565b61a8f161a8ec8261a8a1565b61a8cf565b82525050565b5f819050919050565b61a91161a90c82618807565b61a8f7565b82525050565b5f61a922828561a8e0565b60148201915061a932828461a900565b6020820191508190509392505050565b5f60608201905061a9555f830186618961565b61a9626020830185618810565b818103604083015261a974818461a7e6565b9050949350505050565b5f8151905061a98c81618994565b92915050565b5f6020828403121561a9a75761a9a6618841565b5b5f61a9b48482850161a97e565b91505092915050565b7f756e61626c6520746f207472616e73666572416e6443616c6c20746f206f72615f8201527f636c650000000000000000000000000000000000000000000000000000000000602082015250565b5f61aa17602383618c14565b915061aa228261a9bd565b604082019050919050565b5f6020820190508181035f83015261aa448161aa0b565b9050919050565b5f61aa5582618807565b915061aa6083618807565b92508261aa705761aa6f619c17565b5b828206905092915050565b5f61aa8582618807565b915061aa9083618807565b925061aabd7fffffffffffffffffffffffffffffffffffffffffffffffffffffffffffffffff848461a60b565b90509291505056fe68747470733a2f2f6170702e6e65786c6162732e696f2f6170692f616c6c46756e64696e6752617465733f6d756c7469706c7946756e633d31382674696d65734e656746756e643d74727565266172726179733d74727565a264697066735822122033fdbdd587de7a63e95d23e40c724bf9992deb0cc608ad7a46ad0b057693b9ea64736f6c63430008190033","linkReferences":{}},"methodIdentifiers":{"actionInfoById(uint256)":"3c1f70ca","baseUrl()":"5bcabf04","burnedTokenAmountByNonce(uint256)":"ab7820b2","buyRequestPayedAmountById(uint256)":"8861d235","calculateBuyRequestFee(uint256)":"06995e3b","calculateIssuanceFee(uint256)":"e19eefbe","cancelIssuanceComplted(uint256)":"7bfa27f2","cancelIssuanceRequestId(uint256,address)":"02e80f71","cancelIssuanceUnfilledAmount(uint256,address)":"9edcf9f4","cancelRedemptionComplted(uint256)":"b46840f9","cancelRedemptionRequestId(uint256,address)":"8c221899","cancelRedemptionUnfilledAmount(uint256,address)":"632439fd","checkCancelIssuanceStatus(uint256)":"631c8385","checkCancelRedemptionStatus(uint256)":"b592662a","checkIssuanceOrdersStatus(uint256)":"2343acb4","checkRedemptionOrdersStatus(uint256)":"3fac0922","concatenation(string,string)":"0e329357","currentList(uint256)":"9932ba4c","externalJobId()":"a8b54bd4","factoryAddress()":"966dae0e","factoryBalancerAddress()":"cb4d4e09","factoryProcessorAddress()":"0acb8d40","feeRate()":"978bbdb9","feeReceiver()":"b3f00674","fulfillAssetsData(bytes32,address[],uint256[])":"f14bea20","getActionInfoById(uint256)":"147726ae","getAmountAfterFee(uint24,uint256)":"2e6b96e7","getIssuanceAmountOut(uint256)":"c8da3303","getOrderInstanceById(uint256)":"f1f31d66","getPendingRequest(bytes32)":"88b12d55","getPortfolioValue()":"bb0498de","getPrimaryOrder(bool)":"b12279aa","getRedemptionAmountOut(uint256)":"e2851bd6","getVaultDshareBalance(address)":"a08d7bd6","getVaultDshareValue(address)":"efdf5053","increaseIssuanceNonce()":"5501c6cf","increaseRedemptionNonce()":"7851b905","initialize(address,address,address,address,uint8,address,address,bytes32,bool)":"d57e0493","isIssuanceOrderActive(uint256)":"b0e12134","isMainnet()":"42faac05","isRedemptionOrderActive(uint256)":"0b1a4918","issuanceIndexTokenPrimaryTotalSupply(uint256)":"b1dd819e","issuanceInputAmount(uint256)":"cf9ee319","issuanceIsCompleted(uint256)":"a84ebc17","issuanceNonce()":"9dbb9c9e","issuanceRequestId(uint256,address)":"264fa8b9","issuanceRequesterByNonce(uint256)":"94674098","issuanceTokenPrimaryBalance(uint256,address)":"da65925a","issuer()":"1d143848","lastUpdateTime()":"c8f33c91","latestFeeUpdate()":"011ced5f","latestPriceDecimals()":"0b1fa733","mockFillAssetsList(address[],uint256[])":"addc70d1","oracleList(uint256)":"239aad0d","oraclePayment()":"0c02e130","orderInstanceById(uint256)":"15e666a2","orderManager()":"f9b6117f","owner()":"8da5cb5b","priceFeedByTokenAddress(address)":"08dc4b0c","priceInWei(address)":"6839a095","redemptionIndexTokenPrimaryTotalSupply(uint256)":"daf1c17d","redemptionInputAmount(uint256)":"9cf54521","redemptionIsCompleted(uint256)":"76529fdf","redemptionNonce()":"84d77bb1","redemptionRequestId(uint256,address)":"f513a718","redemptionRequesterByNonce(uint256)":"78032658","redemptionTokenPrimaryBalance(uint256,address)":"a363b9cb","renounceOwnership()":"715018a6","requestAssetsData()":"7ca58c55","sellRequestAssetAmountById(uint256)":"a87f98d2","setActionInfoById(uint256,(uint256,uint256))":"8182492a","setBurnedTokenAmountByNonce(uint256,uint256)":"6188199f","setBuyRequestPayedAmountById(uint256,uint256)":"d1e4a308","setCancelIssuanceComplted(uint256,bool)":"7cd375e2","setCancelIssuanceRequestId(uint256,address,uint256)":"7a6c4b7b","setCancelIssuanceUnfilledAmount(uint256,address,uint256)":"12b6d2e6","setCancelRedemptionComplted(uint256,bool)":"8e97d7e1","setCancelRedemptionRequestId(uint256,address,uint256)":"457e0e0f","setCancelRedemptionUnfilledAmount(uint256,address,uint256)":"6ea86556","setFactory(address)":"5bb47808","setFactoryBalancer(address)":"d5fbea63","setFactoryProcessor(address)":"0499a61d","setFeeRate(uint8)":"5177942a","setFeeReceiver(address)":"efdcd974","setIsMainnet(bool)":"991be68e","setIssuanceIndexTokenPrimaryTotalSupply(uint256,uint256)":"99f68da8","setIssuanceInputAmount(uint256,uint256)":"ea5142c8","setIssuanceIsCompleted(uint256,bool)":"d1c0cee6","setIssuanceRequestId(uint256,address,uint256)":"496304a4","setIssuanceRequesterByNonce(uint256,address)":"df1d5ea2","setIssuanceTokenPrimaryBalance(uint256,address,uint256)":"9b2d6e3b","setIssuer(address)":"55cc4e57","setLatestPriceDecimals(uint8)":"32502639","setOracleInfo(address,bytes32)":"43482fc8","setOrderInstanceById(uint256,(uint64,address,address,address,bool,uint8,uint256,uint256,uint256,uint8))":"35c51204","setOrderManager(address)":"c0da840d","setPriceFeedAddresses(address[],address[])":"57b61bc3","setRedemptionIndexTokenPrimaryTotalSupply(uint256,uint256)":"6ea495df","setRedemptionInputAmount(uint256,uint256)":"c7003d1b","setRedemptionIsCompleted(uint256,bool)":"0a1d4270","setRedemptionRequestId(uint256,address,uint256)":"1c7a2959","setRedemptionRequesterByNonce(uint256,address)":"d34ed2ab","setRedemptionTokenPrimaryBalance(uint256,address,uint256)":"21de914f","setSellRequestAssetAmountById(uint256,uint256)":"1e2ad86e","setTokenAddress(address)":"26a4e8d2","setUrl(string,string)":"a73e1cbf","setUsdcAddress(address,uint8)":"eab2a711","setWrappedDShareAddresses(address[],address[])":"b411dc41","token()":"fc0c546a","tokenCurrentListIndex(address)":"914f0cc6","tokenCurrentMarketShare(address)":"0be52713","tokenOracleListIndex(address)":"8c88c10c","tokenOracleMarketShare(address)":"4b3e0b80","totalCurrentList()":"53fd4332","totalOracleList()":"c8599ded","transferOwnership(address)":"f2fde38b","updateCurrentList()":"8baa6bf1","urlParams()":"e789598c","usdc()":"3e413bee","usdcDecimals()":"7bf42165","vault()":"fbfa77cf","wrappedDshareAddress(address)":"092755e0"},"id":24}