{"abi":[{"type":"function","name":"actionInfoById","inputs":[{"name":"","type":"uint256","internalType":"uint256"}],"outputs":[{"name":"actionType","type":"uint256","internalType":"uint256"},{"name":"nonce","type":"uint256","internalType":"uint256"}],"stateMutability":"view"},{"type":"function","name":"baseUrl","inputs":[],"outputs":[{"name":"","type":"string","internalType":"string"}],"stateMutability":"view"},{"type":"function","name":"burnedTokenAmountByNonce","inputs":[{"name":"","type":"uint256","internalType":"uint256"}],"outputs":[{"name":"","type":"uint256","internalType":"uint256"}],"stateMutability":"view"},{"type":"function","name":"buyRequestPayedAmountById","inputs":[{"name":"","type":"uint256","internalType":"uint256"}],"outputs":[{"name":"","type":"uint256","internalType":"uint256"}],"stateMutability":"view"},{"type":"function","name":"calculateBuyRequestFee","inputs":[{"name":"_amount","type":"uint256","internalType":"uint256"}],"outputs":[{"name":"","type":"uint256","internalType":"uint256"}],"stateMutability":"view"},{"type":"function","name":"calculateIssuanceFee","inputs":[{"name":"_inputAmount","type":"uint256","internalType":"uint256"}],"outputs":[{"name":"","type":"uint256","internalType":"uint256"}],"stateMutability":"view"},{"type":"function","name":"cancelIssuanceComplted","inputs":[{"name":"","type":"uint256","internalType":"uint256"}],"outputs":[{"name":"","type":"bool","internalType":"bool"}],"stateMutability":"view"},{"type":"function","name":"cancelIssuanceRequestId","inputs":[{"name":"","type":"uint256","internalType":"uint256"},{"name":"","type":"address","internalType":"address"}],"outputs":[{"name":"","type":"uint256","internalType":"uint256"}],"stateMutability":"view"},{"type":"function","name":"cancelIssuanceUnfilledAmount","inputs":[{"name":"","type":"uint256","internalType":"uint256"},{"name":"","type":"address","internalType":"address"}],"outputs":[{"name":"","type":"uint256","internalType":"uint256"}],"stateMutability":"view"},{"type":"function","name":"cancelRedemptionComplted","inputs":[{"name":"","type":"uint256","internalType":"uint256"}],"outputs":[{"name":"","type":"bool","internalType":"bool"}],"stateMutability":"view"},{"type":"function","name":"cancelRedemptionRequestId","inputs":[{"name":"","type":"uint256","internalType":"uint256"},{"name":"","type":"address","internalType":"address"}],"outputs":[{"name":"","type":"uint256","internalType":"uint256"}],"stateMutability":"view"},{"type":"function","name":"cancelRedemptionUnfilledAmount","inputs":[{"name":"","type":"uint256","internalType":"uint256"},{"name":"","type":"address","internalType":"address"}],"outputs":[{"name":"","type":"uint256","internalType":"uint256"}],"stateMutability":"view"},{"type":"function","name":"checkCancelIssuanceStatus","inputs":[{"name":"_issuanceNonce","type":"uint256","internalType":"uint256"}],"outputs":[{"name":"","type":"bool","internalType":"bool"}],"stateMutability":"view"},{"type":"function","name":"checkCancelRedemptionStatus","inputs":[{"name":"_redemptionNonce","type":"uint256","internalType":"uint256"}],"outputs":[{"name":"","type":"bool","internalType":"bool"}],"stateMutability":"view"},{"type":"function","name":"checkIssuanceOrdersStatus","inputs":[{"name":"_issuanceNonce","type":"uint256","internalType":"uint256"}],"outputs":[{"name":"","type":"bool","internalType":"bool"}],"stateMutability":"view"},{"type":"function","name":"checkRedemptionOrdersStatus","inputs":[{"name":"_redemptionNonce","type":"uint256","internalType":"uint256"}],"outputs":[{"name":"","type":"bool","internalType":"bool"}],"stateMutability":"view"},{"type":"function","name":"concatenation","inputs":[{"name":"a","type":"string","internalType":"string"},{"name":"b","type":"string","internalType":"string"}],"outputs":[{"name":"","type":"string","internalType":"string"}],"stateMutability":"pure"},{"type":"function","name":"currentList","inputs":[{"name":"","type":"uint256","internalType":"uint256"}],"outputs":[{"name":"","type":"address","internalType":"address"}],"stateMutability":"view"},{"type":"function","name":"externalJobId","inputs":[],"outputs":[{"name":"","type":"bytes32","internalType":"bytes32"}],"stateMutability":"view"},{"type":"function","name":"factoryAddress","inputs":[],"outputs":[{"name":"","type":"address","internalType":"address"}],"stateMutability":"view"},{"type":"function","name":"factoryBalancerAddress","inputs":[],"outputs":[{"name":"","type":"address","internalType":"address"}],"stateMutability":"view"},{"type":"function","name":"factoryProcessorAddress","inputs":[],"outputs":[{"name":"","type":"address","internalType":"address"}],"stateMutability":"view"},{"type":"function","name":"feeRate","inputs":[],"outputs":[{"name":"","type":"uint8","internalType":"uint8"}],"stateMutability":"view"},{"type":"function","name":"fulfillAssetsData","inputs":[{"name":"requestId","type":"bytes32","internalType":"bytes32"},{"name":"_tokens","type":"address[]","internalType":"address[]"},{"name":"_marketShares","type":"uint256[]","internalType":"uint256[]"}],"outputs":[],"stateMutability":"nonpayable"},{"type":"function","name":"getActionInfoById","inputs":[{"name":"_id","type":"uint256","internalType":"uint256"}],"outputs":[{"name":"","type":"tuple","internalType":"struct IndexFactoryStorage.ActionInfo","components":[{"name":"actionType","type":"uint256","internalType":"uint256"},{"name":"nonce","type":"uint256","internalType":"uint256"}]}],"stateMutability":"view"},{"type":"function","name":"getAmountAfterFee","inputs":[{"name":"percentageFeeRate","type":"uint24","internalType":"uint24"},{"name":"orderValue","type":"uint256","internalType":"uint256"}],"outputs":[{"name":"","type":"uint256","internalType":"uint256"}],"stateMutability":"pure"},{"type":"function","name":"getIssuanceAmountOut","inputs":[{"name":"_amount","type":"uint256","internalType":"uint256"}],"outputs":[{"name":"","type":"uint256","internalType":"uint256"}],"stateMutability":"view"},{"type":"function","name":"getOrderInstanceById","inputs":[{"name":"_id","type":"uint256","internalType":"uint256"}],"outputs":[{"name":"","type":"tuple","internalType":"struct IOrderProcessor.Order","components":[{"name":"requestTimestamp","type":"uint64","internalType":"uint64"},{"name":"recipient","type":"address","internalType":"address"},{"name":"assetToken","type":"address","internalType":"address"},{"name":"paymentToken","type":"address","internalType":"address"},{"name":"sell","type":"bool","internalType":"bool"},{"name":"orderType","type":"uint8","internalType":"enum IOrderProcessor.OrderType"},{"name":"assetTokenQuantity","type":"uint256","internalType":"uint256"},{"name":"paymentTokenQuantity","type":"uint256","internalType":"uint256"},{"name":"price","type":"uint256","internalType":"uint256"},{"name":"tif","type":"uint8","internalType":"enum IOrderProcessor.TIF"}]}],"stateMutability":"view"},{"type":"function","name":"getPortfolioValue","inputs":[],"outputs":[{"name":"","type":"uint256","internalType":"uint256"}],"stateMutability":"view"},{"type":"function","name":"getPrimaryOrder","inputs":[{"name":"sell","type":"bool","internalType":"bool"}],"outputs":[{"name":"","type":"tuple","internalType":"struct IOrderProcessor.Order","components":[{"name":"requestTimestamp","type":"uint64","internalType":"uint64"},{"name":"recipient","type":"address","internalType":"address"},{"name":"assetToken","type":"address","internalType":"address"},{"name":"paymentToken","type":"address","internalType":"address"},{"name":"sell","type":"bool","internalType":"bool"},{"name":"orderType","type":"uint8","internalType":"enum IOrderProcessor.OrderType"},{"name":"assetTokenQuantity","type":"uint256","internalType":"uint256"},{"name":"paymentTokenQuantity","type":"uint256","internalType":"uint256"},{"name":"price","type":"uint256","internalType":"uint256"},{"name":"tif","type":"uint8","internalType":"enum IOrderProcessor.TIF"}]}],"stateMutability":"view"},{"type":"function","name":"getRedemptionAmountOut","inputs":[{"name":"_amount","type":"uint256","internalType":"uint256"}],"outputs":[{"name":"","type":"uint256","internalType":"uint256"}],"stateMutability":"view"},{"type":"function","name":"getVaultDshareBalance","inputs":[{"name":"_token","type":"address","internalType":"address"}],"outputs":[{"name":"","type":"uint256","internalType":"uint256"}],"stateMutability":"view"},{"type":"function","name":"getVaultDshareValue","inputs":[{"name":"_token","type":"address","internalType":"address"}],"outputs":[{"name":"","type":"uint256","internalType":"uint256"}],"stateMutability":"view"},{"type":"function","name":"increaseIssuanceNonce","inputs":[],"outputs":[],"stateMutability":"nonpayable"},{"type":"function","name":"increaseRedemptionNonce","inputs":[],"outputs":[],"stateMutability":"nonpayable"},{"type":"function","name":"initialize","inputs":[{"name":"_issuer","type":"address","internalType":"address"},{"name":"_token","type":"address","internalType":"address"},{"name":"_vault","type":"address","internalType":"address"},{"name":"_usdc","type":"address","internalType":"address"},{"name":"_usdcDecimals","type":"uint8","internalType":"uint8"},{"name":"_chainlinkToken","type":"address","internalType":"address"},{"name":"_oracleAddress","type":"address","internalType":"address"},{"name":"_externalJobId","type":"bytes32","internalType":"bytes32"},{"name":"_isMainnet","type":"bool","internalType":"bool"}],"outputs":[],"stateMutability":"nonpayable"},{"type":"function","name":"isIssuanceOrderActive","inputs":[{"name":"_issuanceNonce","type":"uint256","internalType":"uint256"}],"outputs":[{"name":"","type":"bool","internalType":"bool"}],"stateMutability":"view"},{"type":"function","name":"isMainnet","inputs":[],"outputs":[{"name":"","type":"bool","internalType":"bool"}],"stateMutability":"view"},{"type":"function","name":"isRedemptionOrderActive","inputs":[{"name":"_redemptionNonce","type":"uint256","internalType":"uint256"}],"outputs":[{"name":"","type":"bool","internalType":"bool"}],"stateMutability":"view"},{"type":"function","name":"issuanceIndexTokenPrimaryTotalSupply","inputs":[{"name":"","type":"uint256","internalType":"uint256"}],"outputs":[{"name":"","type":"uint256","internalType":"uint256"}],"stateMutability":"view"},{"type":"function","name":"issuanceInputAmount","inputs":[{"name":"","type":"uint256","internalType":"uint256"}],"outputs":[{"name":"","type":"uint256","internalType":"uint256"}],"stateMutability":"view"},{"type":"function","name":"issuanceIsCompleted","inputs":[{"name":"","type":"uint256","internalType":"uint256"}],"outputs":[{"name":"","type":"bool","internalType":"bool"}],"stateMutability":"view"},{"type":"function","name":"issuanceNonce","inputs":[],"outputs":[{"name":"","type":"uint256","internalType":"uint256"}],"stateMutability":"view"},{"type":"function","name":"issuanceRequestId","inputs":[{"name":"","type":"uint256","internalType":"uint256"},{"name":"","type":"address","internalType":"address"}],"outputs":[{"name":"","type":"uint256","internalType":"uint256"}],"stateMutability":"view"},{"type":"function","name":"issuanceRequesterByNonce","inputs":[{"name":"","type":"uint256","internalType":"uint256"}],"outputs":[{"name":"","type":"address","internalType":"address"}],"stateMutability":"view"},{"type":"function","name":"issuanceTokenPrimaryBalance","inputs":[{"name":"","type":"uint256","internalType":"uint256"},{"name":"","type":"address","internalType":"address"}],"outputs":[{"name":"","type":"uint256","internalType":"uint256"}],"stateMutability":"view"},{"type":"function","name":"issuer","inputs":[],"outputs":[{"name":"","type":"address","internalType":"contract IOrderProcessor"}],"stateMutability":"view"},{"type":"function","name":"lastUpdateTime","inputs":[],"outputs":[{"name":"","type":"uint256","internalType":"uint256"}],"stateMutability":"view"},{"type":"function","name":"latestFeeUpdate","inputs":[],"outputs":[{"name":"","type":"uint256","internalType":"uint256"}],"stateMutability":"view"},{"type":"function","name":"latestPriceDecimals","inputs":[],"outputs":[{"name":"","type":"uint8","internalType":"uint8"}],"stateMutability":"view"},{"type":"function","name":"mockFillAssetsList","inputs":[{"name":"_tokens","type":"address[]","internalType":"address[]"},{"name":"_marketShares","type":"uint256[]","internalType":"uint256[]"}],"outputs":[],"stateMutability":"nonpayable"},{"type":"function","name":"oracleList","inputs":[{"name":"","type":"uint256","internalType":"uint256"}],"outputs":[{"name":"","type":"address","internalType":"address"}],"stateMutability":"view"},{"type":"function","name":"oraclePayment","inputs":[],"outputs":[{"name":"","type":"uint256","internalType":"uint256"}],"stateMutability":"view"},{"type":"function","name":"orderInstanceById","inputs":[{"name":"","type":"uint256","internalType":"uint256"}],"outputs":[{"name":"requestTimestamp","type":"uint64","internalType":"uint64"},{"name":"recipient","type":"address","internalType":"address"},{"name":"assetToken","type":"address","internalType":"address"},{"name":"paymentToken","type":"address","internalType":"address"},{"name":"sell","type":"bool","internalType":"bool"},{"name":"orderType","type":"uint8","internalType":"enum IOrderProcessor.OrderType"},{"name":"assetTokenQuantity","type":"uint256","internalType":"uint256"},{"name":"paymentTokenQuantity","type":"uint256","internalType":"uint256"},{"name":"price","type":"uint256","internalType":"uint256"},{"name":"tif","type":"uint8","internalType":"enum IOrderProcessor.TIF"}],"stateMutability":"view"},{"type":"function","name":"orderManager","inputs":[],"outputs":[{"name":"","type":"address","internalType":"contract OrderManager"}],"stateMutability":"view"},{"type":"function","name":"owner","inputs":[],"outputs":[{"name":"","type":"address","internalType":"address"}],"stateMutability":"view"},{"type":"function","name":"priceFeedByTokenAddress","inputs":[{"name":"","type":"address","internalType":"address"}],"outputs":[{"name":"","type":"address","internalType":"address"}],"stateMutability":"view"},{"type":"function","name":"priceInWei","inputs":[{"name":"_tokenAddress","type":"address","internalType":"address"}],"outputs":[{"name":"","type":"uint256","internalType":"uint256"}],"stateMutability":"view"},{"type":"function","name":"redemptionIndexTokenPrimaryTotalSupply","inputs":[{"name":"","type":"uint256","internalType":"uint256"}],"outputs":[{"name":"","type":"uint256","internalType":"uint256"}],"stateMutability":"view"},{"type":"function","name":"redemptionInputAmount","inputs":[{"name":"","type":"uint256","internalType":"uint256"}],"outputs":[{"name":"","type":"uint256","internalType":"uint256"}],"stateMutability":"view"},{"type":"function","name":"redemptionIsCompleted","inputs":[{"name":"","type":"uint256","internalType":"uint256"}],"outputs":[{"name":"","type":"bool","internalType":"bool"}],"stateMutability":"view"},{"type":"function","name":"redemptionNonce","inputs":[],"outputs":[{"name":"","type":"uint256","internalType":"uint256"}],"stateMutability":"view"},{"type":"function","name":"redemptionRequestId","inputs":[{"name":"","type":"uint256","internalType":"uint256"},{"name":"","type":"address","internalType":"address"}],"outputs":[{"name":"","type":"uint256","internalType":"uint256"}],"stateMutability":"view"},{"type":"function","name":"redemptionRequesterByNonce","inputs":[{"name":"","type":"uint256","internalType":"uint256"}],"outputs":[{"name":"","type":"address","internalType":"address"}],"stateMutability":"view"},{"type":"function","name":"redemptionTokenPrimaryBalance","inputs":[{"name":"","type":"uint256","internalType":"uint256"},{"name":"","type":"address","internalType":"address"}],"outputs":[{"name":"","type":"uint256","internalType":"uint256"}],"stateMutability":"view"},{"type":"function","name":"renounceOwnership","inputs":[],"outputs":[],"stateMutability":"nonpayable"},{"type":"function","name":"requestAssetsData","inputs":[],"outputs":[{"name":"","type":"bytes32","internalType":"bytes32"}],"stateMutability":"nonpayable"},{"type":"function","name":"sellRequestAssetAmountById","inputs":[{"name":"","type":"uint256","internalType":"uint256"}],"outputs":[{"name":"","type":"uint256","internalType":"uint256"}],"stateMutability":"view"},{"type":"function","name":"setActionInfoById","inputs":[{"name":"_requestId","type":"uint256","internalType":"uint256"},{"name":"_actionInfo","type":"tuple","internalType":"struct IndexFactoryStorage.ActionInfo","components":[{"name":"actionType","type":"uint256","internalType":"uint256"},{"name":"nonce","type":"uint256","internalType":"uint256"}]}],"outputs":[],"stateMutability":"nonpayable"},{"type":"function","name":"setBurnedTokenAmountByNonce","inputs":[{"name":"_redemptionNonce","type":"uint256","internalType":"uint256"},{"name":"_burnedAmount","type":"uint256","internalType":"uint256"}],"outputs":[],"stateMutability":"nonpayable"},{"type":"function","name":"setBuyRequestPayedAmountById","inputs":[{"name":"_requestId","type":"uint256","internalType":"uint256"},{"name":"_amount","type":"uint256","internalType":"uint256"}],"outputs":[],"stateMutability":"nonpayable"},{"type":"function","name":"setCancelIssuanceComplted","inputs":[{"name":"_issuanceNonce","type":"uint256","internalType":"uint256"},{"name":"_isCompleted","type":"bool","internalType":"bool"}],"outputs":[],"stateMutability":"nonpayable"},{"type":"function","name":"setCancelIssuanceRequestId","inputs":[{"name":"_issuanceNonce","type":"uint256","internalType":"uint256"},{"name":"_token","type":"address","internalType":"address"},{"name":"_requestId","type":"uint256","internalType":"uint256"}],"outputs":[],"stateMutability":"nonpayable"},{"type":"function","name":"setCancelIssuanceUnfilledAmount","inputs":[{"name":"_issuanceNonce","type":"uint256","internalType":"uint256"},{"name":"_token","type":"address","internalType":"address"},{"name":"_amount","type":"uint256","internalType":"uint256"}],"outputs":[],"stateMutability":"nonpayable"},{"type":"function","name":"setCancelRedemptionComplted","inputs":[{"name":"_redemptionNonce","type":"uint256","internalType":"uint256"},{"name":"_isCompleted","type":"bool","internalType":"bool"}],"outputs":[],"stateMutability":"nonpayable"},{"type":"function","name":"setCancelRedemptionRequestId","inputs":[{"name":"_redemptionNonce","type":"uint256","internalType":"uint256"},{"name":"_token","type":"address","internalType":"address"},{"name":"_requestId","type":"uint256","internalType":"uint256"}],"outputs":[],"stateMutability":"nonpayable"},{"type":"function","name":"setCancelRedemptionUnfilledAmount","inputs":[{"name":"_redemptionNonce","type":"uint256","internalType":"uint256"},{"name":"_token","type":"address","internalType":"address"},{"name":"_amount","type":"uint256","internalType":"uint256"}],"outputs":[],"stateMutability":"nonpayable"},{"type":"function","name":"setFactory","inputs":[{"name":"_factoryAddress","type":"address","internalType":"address"}],"outputs":[],"stateMutability":"nonpayable"},{"type":"function","name":"setFactoryBalancer","inputs":[{"name":"_factoryBalancerAddress","type":"address","internalType":"address"}],"outputs":[],"stateMutability":"nonpayable"},{"type":"function","name":"setFactoryProcessor","inputs":[{"name":"_factoryProcessorAddress","type":"address","internalType":"address"}],"outputs":[],"stateMutability":"nonpayable"},{"type":"function","name":"setFeeRate","inputs":[{"name":"_newFee","type":"uint8","internalType":"uint8"}],"outputs":[],"stateMutability":"nonpayable"},{"type":"function","name":"setIsMainnet","inputs":[{"name":"_isMainnet","type":"bool","internalType":"bool"}],"outputs":[],"stateMutability":"nonpayable"},{"type":"function","name":"setIssuanceIndexTokenPrimaryTotalSupply","inputs":[{"name":"_issuanceNonce","type":"uint256","internalType":"uint256"},{"name":"_amount","type":"uint256","internalType":"uint256"}],"outputs":[],"stateMutability":"nonpayable"},{"type":"function","name":"setIssuanceInputAmount","inputs":[{"name":"_issuanceNonce","type":"uint256","internalType":"uint256"},{"name":"_amount","type":"uint256","internalType":"uint256"}],"outputs":[],"stateMutability":"nonpayable"},{"type":"function","name":"setIssuanceIsCompleted","inputs":[{"name":"_issuanceNonce","type":"uint256","internalType":"uint256"},{"name":"_isCompleted","type":"bool","internalType":"bool"}],"outputs":[],"stateMutability":"nonpayable"},{"type":"function","name":"setIssuanceRequestId","inputs":[{"name":"_issuanceNonce","type":"uint256","internalType":"uint256"},{"name":"_token","type":"address","internalType":"address"},{"name":"_requestId","type":"uint256","internalType":"uint256"}],"outputs":[],"stateMutability":"nonpayable"},{"type":"function","name":"setIssuanceRequesterByNonce","inputs":[{"name":"_issuanceNonce","type":"uint256","internalType":"uint256"},{"name":"_requester","type":"address","internalType":"address"}],"outputs":[],"stateMutability":"nonpayable"},{"type":"function","name":"setIssuanceTokenPrimaryBalance","inputs":[{"name":"_issuanceNonce","type":"uint256","internalType":"uint256"},{"name":"_token","type":"address","internalType":"address"},{"name":"_amount","type":"uint256","internalType":"uint256"}],"outputs":[],"stateMutability":"nonpayable"},{"type":"function","name":"setIssuer","inputs":[{"name":"_issuer","type":"address","internalType":"address"}],"outputs":[{"name":"","type":"bool","internalType":"bool"}],"stateMutability":"nonpayable"},{"type":"function","name":"setLatestPriceDecimals","inputs":[{"name":"_decimals","type":"uint8","internalType":"uint8"}],"outputs":[],"stateMutability":"nonpayable"},{"type":"function","name":"setOracleInfo","inputs":[{"name":"_oracleAddress","type":"address","internalType":"address"},{"name":"_externalJobId","type":"bytes32","internalType":"bytes32"}],"outputs":[],"stateMutability":"nonpayable"},{"type":"function","name":"setOrderInstanceById","inputs":[{"name":"_requestId","type":"uint256","internalType":"uint256"},{"name":"_order","type":"tuple","internalType":"struct IOrderProcessor.Order","components":[{"name":"requestTimestamp","type":"uint64","internalType":"uint64"},{"name":"recipient","type":"address","internalType":"address"},{"name":"assetToken","type":"address","internalType":"address"},{"name":"paymentToken","type":"address","internalType":"address"},{"name":"sell","type":"bool","internalType":"bool"},{"name":"orderType","type":"uint8","internalType":"enum IOrderProcessor.OrderType"},{"name":"assetTokenQuantity","type":"uint256","internalType":"uint256"},{"name":"paymentTokenQuantity","type":"uint256","internalType":"uint256"},{"name":"price","type":"uint256","internalType":"uint256"},{"name":"tif","type":"uint8","internalType":"enum IOrderProcessor.TIF"}]}],"outputs":[],"stateMutability":"nonpayable"},{"type":"function","name":"setOrderManager","inputs":[{"name":"_orderManager","type":"address","internalType":"address"}],"outputs":[{"name":"","type":"bool","internalType":"bool"}],"stateMutability":"nonpayable"},{"type":"function","name":"setPriceFeedAddresses","inputs":[{"name":"_dShares","type":"address[]","internalType":"address[]"},{"name":"_priceFeedAddresses","type":"address[]","internalType":"address[]"}],"outputs":[],"stateMutability":"nonpayable"},{"type":"function","name":"setRedemptionIndexTokenPrimaryTotalSupply","inputs":[{"name":"_redemptionNonce","type":"uint256","internalType":"uint256"},{"name":"_amount","type":"uint256","internalType":"uint256"}],"outputs":[],"stateMutability":"nonpayable"},{"type":"function","name":"setRedemptionInputAmount","inputs":[{"name":"_redemptionNonce","type":"uint256","internalType":"uint256"},{"name":"_amount","type":"uint256","internalType":"uint256"}],"outputs":[],"stateMutability":"nonpayable"},{"type":"function","name":"setRedemptionIsCompleted","inputs":[{"name":"_redemptionNonce","type":"uint256","internalType":"uint256"},{"name":"_isCompleted","type":"bool","internalType":"bool"}],"outputs":[],"stateMutability":"nonpayable"},{"type":"function","name":"setRedemptionRequestId","inputs":[{"name":"_redemptionNonce","type":"uint256","internalType":"uint256"},{"name":"_token","type":"address","internalType":"address"},{"name":"_requestId","type":"uint256","internalType":"uint256"}],"outputs":[],"stateMutability":"nonpayable"},{"type":"function","name":"setRedemptionRequesterByNonce","inputs":[{"name":"_redemptionNonce","type":"uint256","internalType":"uint256"},{"name":"_requester","type":"address","internalType":"address"}],"outputs":[],"stateMutability":"nonpayable"},{"type":"function","name":"setRedemptionTokenPrimaryBalance","inputs":[{"name":"_redemptionNonce","type":"uint256","internalType":"uint256"},{"name":"_token","type":"address","internalType":"address"},{"name":"_amount","type":"uint256","internalType":"uint256"}],"outputs":[],"stateMutability":"nonpayable"},{"type":"function","name":"setSellRequestAssetAmountById","inputs":[{"name":"_requestId","type":"uint256","internalType":"uint256"},{"name":"_amount","type":"uint256","internalType":"uint256"}],"outputs":[],"stateMutability":"nonpayable"},{"type":"function","name":"setTokenAddress","inputs":[{"name":"_token","type":"address","internalType":"address"}],"outputs":[{"name":"","type":"bool","internalType":"bool"}],"stateMutability":"nonpayable"},{"type":"function","name":"setUrl","inputs":[{"name":"_beforeAddress","type":"string","internalType":"string"},{"name":"_afterAddress","type":"string","internalType":"string"}],"outputs":[],"stateMutability":"nonpayable"},{"type":"function","name":"setUsdcAddress","inputs":[{"name":"_usdc","type":"address","internalType":"address"},{"name":"_usdcDecimals","type":"uint8","internalType":"uint8"}],"outputs":[{"name":"","type":"bool","internalType":"bool"}],"stateMutability":"nonpayable"},{"type":"function","name":"setWrappedDShareAddresses","inputs":[{"name":"_dShares","type":"address[]","internalType":"address[]"},{"name":"_wrappedDShares","type":"address[]","internalType":"address[]"}],"outputs":[],"stateMutability":"nonpayable"},{"type":"function","name":"token","inputs":[],"outputs":[{"name":"","type":"address","internalType":"contract IndexToken"}],"stateMutability":"view"},{"type":"function","name":"tokenCurrentListIndex","inputs":[{"name":"","type":"address","internalType":"address"}],"outputs":[{"name":"","type":"uint256","internalType":"uint256"}],"stateMutability":"view"},{"type":"function","name":"tokenCurrentMarketShare","inputs":[{"name":"","type":"address","internalType":"address"}],"outputs":[{"name":"","type":"uint256","internalType":"uint256"}],"stateMutability":"view"},{"type":"function","name":"tokenOracleListIndex","inputs":[{"name":"","type":"address","internalType":"address"}],"outputs":[{"name":"","type":"uint256","internalType":"uint256"}],"stateMutability":"view"},{"type":"function","name":"tokenOracleMarketShare","inputs":[{"name":"","type":"address","internalType":"address"}],"outputs":[{"name":"","type":"uint256","internalType":"uint256"}],"stateMutability":"view"},{"type":"function","name":"totalCurrentList","inputs":[],"outputs":[{"name":"","type":"uint256","internalType":"uint256"}],"stateMutability":"view"},{"type":"function","name":"totalOracleList","inputs":[],"outputs":[{"name":"","type":"uint256","internalType":"uint256"}],"stateMutability":"view"},{"type":"function","name":"transferOwnership","inputs":[{"name":"newOwner","type":"address","internalType":"address"}],"outputs":[],"stateMutability":"nonpayable"},{"type":"function","name":"updateCurrentList","inputs":[],"outputs":[],"stateMutability":"nonpayable"},{"type":"function","name":"urlParams","inputs":[],"outputs":[{"name":"","type":"string","internalType":"string"}],"stateMutability":"view"},{"type":"function","name":"usdc","inputs":[],"outputs":[{"name":"","type":"address","internalType":"address"}],"stateMutability":"view"},{"type":"function","name":"usdcDecimals","inputs":[],"outputs":[{"name":"","type":"uint8","internalType":"uint8"}],"stateMutability":"view"},{"type":"function","name":"vault","inputs":[],"outputs":[{"name":"","type":"address","internalType":"contract NexVault"}],"stateMutability":"view"},{"type":"function","name":"wrappedDshareAddress","inputs":[{"name":"","type":"address","internalType":"address"}],"outputs":[{"name":"","type":"address","internalType":"address"}],"stateMutability":"view"},{"type":"event","name":"ChainlinkCancelled","inputs":[{"name":"id","type":"bytes32","indexed":true,"internalType":"bytes32"}],"anonymous":false},{"type":"event","name":"ChainlinkFulfilled","inputs":[{"name":"id","type":"bytes32","indexed":true,"internalType":"bytes32"}],"anonymous":false},{"type":"event","name":"ChainlinkRequested","inputs":[{"name":"id","type":"bytes32","indexed":true,"internalType":"bytes32"}],"anonymous":false},{"type":"event","name":"Initialized","inputs":[{"name":"version","type":"uint64","indexed":false,"internalType":"uint64"}],"anonymous":false},{"type":"event","name":"OwnershipTransferred","inputs":[{"name":"previousOwner","type":"address","indexed":true,"internalType":"address"},{"name":"newOwner","type":"address","indexed":true,"internalType":"address"}],"anonymous":false},{"type":"error","name":"InvalidInitialization","inputs":[]},{"type":"error","name":"NotInitializing","inputs":[]},{"type":"error","name":"OwnableInvalidOwner","inputs":[{"name":"owner","type":"address","internalType":"address"}]},{"type":"error","name":"OwnableUnauthorizedAccount","inputs":[{"name":"account","type":"address","internalType":"address"}]},{"type":"error","name":"PRBMath_MulDiv_Overflow","inputs":[{"name":"x","type":"uint256","internalType":"uint256"},{"name":"y","type":"uint256","internalType":"uint256"},{"name":"denominator","type":"uint256","internalType":"uint256"}]},{"type":"error","name":"PRBMath_MulDiv_Overflow","inputs":[{"name":"x","type":"uint256","internalType":"uint256"},{"name":"y","type":"uint256","internalType":"uint256"},{"name":"denominator","type":"uint256","internalType":"uint256"}]}],"bytecode":{"object":"0x6080604052348015600f57600080fd5b506159a28061001f6000396000f3fe608060405234801561001057600080fd5b506004361061072d5760003560e01c80638861d235116103b3578063b592662a116101f4578063daf1c17d1161011a578063efdf5053116100b8578063f513a71811610087578063f513a71814611293578063f9b6117f146112be578063fbfa77cf146112d1578063fc0c546a146112e457600080fd5b8063efdf505314611247578063f14bea201461125a578063f1f31d661461126d578063f2fde38b1461128057600080fd5b8063e2851bd6116100f4578063e2851bd614611206578063e789598c14611219578063ea5142c814611221578063eab2a7111461123457600080fd5b8063daf1c17d146111c0578063df1d5ea2146111e0578063e19eefbe146111f357600080fd5b8063cb4d4e0911610192578063d34ed2ab11610161578063d34ed2ab1461115c578063d57e04931461116f578063d5fbea6314611182578063da65925a1461119557600080fd5b8063cb4d4e0914611103578063cf9ee31914611116578063d1c0cee614611136578063d1e4a3081461114957600080fd5b8063c7003d1b116101ce578063c7003d1b146110cb578063c8599ded146110de578063c8da3303146110e7578063c8f33c91146110fa57600080fd5b8063b592662a1461109d578063bb0498de146110b0578063c0da840d146110b857600080fd5b80639dbb9c9e116102d9578063a8b54bd411610277578063b12279aa11610246578063b12279aa14611027578063b1dd819e14611047578063b411dc4114611067578063b46840f91461107a57600080fd5b8063a8b54bd414610fd8578063ab7820b214610fe1578063addc70d114611001578063b0e121341461101457600080fd5b8063a363b9cb116102b3578063a363b9cb14610f57578063a73e1cbf14610f82578063a84ebc1714610f95578063a87f98d214610fb857600080fd5b80639dbb9c9e14610f105780639edcf9f414610f19578063a08d7bd614610f4457600080fd5b806394674098116103515780639932ba4c116103205780639932ba4c14610ea157806399f68da814610eca5780639b2d6e3b14610edd5780639cf5452114610ef057600080fd5b80639467409814610e3e578063966dae0e14610e67578063978bbdb914610e7a578063991be68e14610e8e57600080fd5b80638c88c10c1161038d5780638c88c10c14610dbb5780638da5cb5b14610ddb5780638e97d7e114610e0b578063914f0cc614610e1e57600080fd5b80638861d23514610d685780638baa6bf114610d885780638c22189914610d9057600080fd5b80633fac09221161057d578063632439fd116104a35780637851b905116104415780637ca58c55116104105780637ca58c5514610d315780637cd375e214610d395780638182492a14610d4c57806384d77bb114610d5f57600080fd5b80637851b90514610cdf5780637a6c4b7b14610ce75780637bf4216514610cfa5780637bfa27f214610d0e57600080fd5b80636ea865561161047d5780636ea8655614610c78578063715018a614610c8b57806376529fdf14610c935780637803265814610cb657600080fd5b8063632439fd14610c275780636839a09514610c525780636ea495df14610c6557600080fd5b806353fd43321161051b5780635bb47808116104ea5780635bb4780814610be65780635bcabf0414610bf95780636188199f14610c01578063631c838514610c1457600080fd5b806353fd433214610baf5780635501c6cf14610bb857806355cc4e5714610bc057806357b61bc314610bd357600080fd5b8063457e0e0f11610557578063457e0e0f14610b56578063496304a414610b695780634b3e0b8014610b7c5780635177942a14610b9c57600080fd5b80633fac092214610b1c57806342faac0514610b2f57806343482fc814610b4357600080fd5b8063147726ae11610662578063239aad0d1161060057806332502639116105cf5780633250263914610aa757806335c5120414610aba5780633c1f70ca14610acd5780633e413bee14610b0957600080fd5b8063239aad0d14610a2d578063264fa8b914610a5657806326a4e8d214610a815780632e6b96e714610a9457600080fd5b80631d1438481161063c5780631d143848146109e15780631e2ad86e146109f457806321de914f14610a075780632343acb414610a1a57600080fd5b8063147726ae146108cf57806315e666a2146109365780631c7a2959146109ce57600080fd5b80630acb8d40116106cf5780630be52713116106a95780630be52713146108735780630c02e130146108935780630e3293571461089c57806312b6d2e6146108bc57600080fd5b80630acb8d401461081e5780630b1a4918146108315780630b1fa7331461085457600080fd5b806306995e3b1161070b57806306995e3b1461078e57806308dc4b0c146107a1578063092755e0146107e25780630a1d42701461080b57600080fd5b8063011ced5f1461073257806302e80f711461074e5780630499a61d14610779575b600080fd5b61073b601d5481565b6040519081526020015b60405180910390f35b61073b61075c366004614a7a565b602460209081526000928352604080842090915290825290205481565b61078c610787366004614aa6565b6112f7565b005b61073b61079c366004614ac1565b611321565b6107ca6107af366004614aa6565b6017602052600090815260409020546001600160a01b031681565b6040516001600160a01b039091168152602001610745565b6107ca6107f0366004614aa6565b6012602052600090815260409020546001600160a01b031681565b61078c610819366004614af3565b6113c1565b600a546107ca906001600160a01b031681565b61084461083f366004614ac1565b61143e565b6040519015158152602001610745565b6020546108619060ff1681565b60405160ff9091168152602001610745565b61073b610881366004614aa6565b60156020526000908152604090205481565b61073b600c5481565b6108af6108aa366004614c23565b61151f565b6040516107459190614cd6565b61078c6108ca366004614ce9565b61154c565b61091b6108dd366004614ac1565b604080518082019091526000808252602082015250600090815260356020908152604091829020825180840190935280548352600101549082015290565b60408051825181526020928301519281019290925201610745565b6109b8610944366004614ac1565b60326020526000908152604090208054600182015460028301546003840154600485015460058601546006909601546001600160401b038616966001600160a01b03600160401b9097048716969586169585169460ff600160a01b8204811695600160a81b9092048116949193919291168a565b6040516107459a99989796959493929190614d58565b61078c6109dc366004614ce9565b6115c6565b601a546107ca906001600160a01b031681565b61078c610a02366004614dcd565b611640565b61078c610a15366004614ce9565b6116a6565b610844610a28366004614ac1565b611720565b6107ca610a3b366004614ac1565b6010602052600090815260409020546001600160a01b031681565b61073b610a64366004614a7a565b602660209081526000928352604080842090915290825290205481565b610844610a8f366004614aa6565b611816565b61073b610aa2366004614e00565b611892565b61078c610ab5366004614e3b565b6118cb565b61078c610ac8366004614e9f565b6118e9565b610af4610adb366004614ac1565b6035602052600090815260409020805460019091015482565b60408051928352602083019190915201610745565b601b546107ca906001600160a01b031681565b610844610b2a366004614ac1565b611a5e565b601c5461084490600160a01b900460ff1681565b61078c610b51366004614f75565b611b3b565b61078c610b64366004614ce9565b611b52565b61078c610b77366004614ce9565b611bcc565b61073b610b8a366004614aa6565b60166020526000908152604090205481565b61078c610baa366004614e3b565b611c46565b61073b600f5481565b61078c611d91565b610844610bce366004614aa6565b611dff565b61078c610be136600461502a565b611e7d565b61078c610bf4366004614aa6565b611f53565b6108af611f7d565b61078c610c0f366004614dcd565b61200b565b610844610c22366004614ac1565b612071565b61073b610c35366004614a7a565b603760209081526000928352604080842090915290825290205481565b61073b610c60366004614aa6565b6123bf565b61078c610c73366004614dcd565b612566565b61078c610c86366004614ce9565b6125cc565b61078c612646565b610844610ca1366004614ac1565b60226020526000908152604090205460ff1681565b6107ca610cc4366004614ac1565b602f602052600090815260409020546001600160a01b031681565b61078c61265a565b61078c610cf5366004614ce9565b6126c1565b601b5461086190600160a01b900460ff1681565b610844610d1c366004614ac1565b60306020526000908152604090205460ff1681565b61073b61273b565b61078c610d47366004614af3565b61297b565b61078c610d5a366004615083565b6129ef565b61073b601f5481565b61073b610d76366004614ac1565b60286020526000908152604090205481565b61078c612a63565b61073b610d9e366004614a7a565b602560209081526000928352604080842090915290825290205481565b61073b610dc9366004614aa6565b60136020526000908152604090205481565b7f9016d09d72d40fdae2fd8ceac6b6234c7706214fd39c1cd1e609a0528c199300546001600160a01b03166107ca565b61078c610e19366004614af3565b612b2c565b61073b610e2c366004614aa6565b60146020526000908152604090205481565b6107ca610e4c366004614ac1565b602e602052600090815260409020546001600160a01b031681565b6008546107ca906001600160a01b031681565b601c5461086190600160a81b900460ff1681565b61078c610e9c3660046150d2565b612ba0565b6107ca610eaf366004614ac1565b6011602052600090815260409020546001600160a01b031681565b61078c610ed8366004614dcd565b612bc6565b61078c610eeb366004614ce9565b612c2c565b61073b610efe366004614ac1565b60346020526000908152604090205481565b61073b601e5481565b61073b610f27366004614a7a565b603660209081526000928352604080842090915290825290205481565b61073b610f52366004614aa6565b612ca6565b61073b610f65366004614a7a565b602b60209081526000928352604080842090915290825290205481565b61078c610f90366004614c23565b612d99565b610844610fa3366004614ac1565b60216020526000908152604090205460ff1681565b61073b610fc6366004614ac1565b60296020526000908152604090205481565b61073b600b5481565b61073b610fef366004614ac1565b60236020526000908152604090205481565b61078c61100f36600461514e565b612dba565b610844611022366004614ac1565b612dd0565b61103a6110353660046150d2565b612ea8565b60405161074591906151a7565b61073b611055366004614ac1565b602c6020526000908152604090205481565b61078c61107536600461502a565b612f5f565b610844611088366004614ac1565b60316020526000908152604090205460ff1681565b6108446110ab366004614ac1565b613030565b61073b613380565b6108446110c6366004614aa6565b6133c8565b61078c6110d9366004614dcd565b61344d565b61073b600e5481565b61073b6110f5366004614ac1565b6134b3565b61073b600d5481565b6009546107ca906001600160a01b031681565b61073b611124366004614ac1565b60336020526000908152604090205481565b61078c611144366004614af3565b613552565b61078c611157366004614dcd565b6135c6565b61078c61116a366004614a7a565b61362c565b61078c61117d36600461526c565b6136ae565b61078c611190366004614aa6565b613938565b61073b6111a3366004614a7a565b602a60209081526000928352604080842090915290825290205481565b61073b6111ce366004614ac1565b602d6020526000908152604090205481565b61078c6111ee366004614a7a565b613962565b61073b611201366004614ac1565b6139e4565b61073b611214366004614ac1565b613afb565b6108af613b90565b61078c61122f366004614dcd565b613b9d565b610844611242366004615313565b613c03565b61073b611255366004614aa6565b613c8c565b61078c61126836600461533f565b613cc4565b61103a61127b366004614ac1565b613d90565b61078c61128e366004614aa6565b613e96565b61073b6112a1366004614a7a565b602760209081526000928352604080842090915290825290205481565b601c546107ca906001600160a01b031681565b6019546107ca906001600160a01b031681565b6018546107ca906001600160a01b031681565b6112ff613ed1565b600a80546001600160a01b0319166001600160a01b0392909216919091179055565b601a54601b546040516308da5c3560e21b81526000600482018190526001600160a01b039283166024830152928392839291169063236970d4906044016040805180830381865afa15801561137a573d6000803e3d6000fd5b505050506040513d601f19601f8201168201806040525081019061139e91906153ab565b9150915060006113ae8286613f2c565b6113b890846153e6565b95945050505050565b6008546001600160a01b03163314806113e45750600a546001600160a01b031633145b806113f957506009546001600160a01b031633145b61141e5760405162461bcd60e51b8152600401611415906153f9565b60405180910390fd5b600091825260226020526040909120805460ff1916911515919091179055565b6000805b600f5481101561151657600081815260116020908152604080832054868452602783528184206001600160a01b0391821680865293529281902054601a5491516322fd455760e11b81526004810182905292939092600192909116906345fa8aae90602401602060405180830381865afa1580156114c4573d6000803e3d6000fd5b505050506040513d601f19601f820116820180604052508101906114e8919061542e565b60038111156114f9576114f9614d1e565b60ff160361150c57506001949350505050565b5050600101611442565b50600092915050565b6060828260405160200161153492919061544b565b60405160208183030381529060405290505b92915050565b6008546001600160a01b031633148061156f5750600a546001600160a01b031633145b8061158457506009546001600160a01b031633145b6115a05760405162461bcd60e51b8152600401611415906153f9565b60009283526036602090815260408085206001600160a01b039094168552929052912055565b6008546001600160a01b03163314806115e95750600a546001600160a01b031633145b806115fe57506009546001600160a01b031633145b61161a5760405162461bcd60e51b8152600401611415906153f9565b60009283526027602090815260408085206001600160a01b039094168552929052912055565b6008546001600160a01b03163314806116635750600a546001600160a01b031633145b8061167857506009546001600160a01b031633145b6116945760405162461bcd60e51b8152600401611415906153f9565b60009182526029602052604090912055565b6008546001600160a01b03163314806116c95750600a546001600160a01b031633145b806116de57506009546001600160a01b031633145b6116fa5760405162461bcd60e51b8152600401611415906153f9565b6000928352602b602090815260408085206001600160a01b039094168552929052912055565b60008060005b600f548110156117fd57600081815260116020908152604080832054878452602683528184206001600160a01b0391821680865293529281902054601a5491516322fd455760e11b81526004810182905292939092600292909116906345fa8aae90602401602060405180830381865afa1580156117a8573d6000803e3d6000fd5b505050506040513d601f19601f820116820180604052508101906117cc919061542e565b60038111156117dd576117dd614d1e565b60ff16036117f3576117f06001856153e6565b93505b5050600101611726565b50600f5481036115165750600192915050565b50919050565b6000611820613ed1565b6001600160a01b03821661186e5760405162461bcd60e51b8152602060048201526015602482015274696e76616c696420746f6b656e206164647265737360581b6044820152606401611415565b50601880546001600160a01b0319166001600160a01b03831617905560015b919050565b60008262ffffff166000036118a85760006118c4565b6118c482620f42406118ba868261547a565b62ffffff16613f51565b9392505050565b6118d3613ed1565b6020805460ff191660ff92909216919091179055565b6008546001600160a01b031633148061190c5750600a546001600160a01b031633145b8061192157506009546001600160a01b031633145b61193d5760405162461bcd60e51b8152600401611415906153f9565b60008281526032602090815260409182902083518154928501516001600160401b039091166001600160e01b031990931692909217600160401b6001600160a01b039384160217815591830151600180840180546001600160a01b0319169284169290921790915560608401516002840180546080870151929094166001600160a81b031990941693909317600160a01b911515919091021780835560a08501518594939092909160ff60a81b191690600160a81b908490811115611a0457611a04614d1e565b021790555060c0820151816003015560e0820151816004015561010082015181600501556101208201518160060160006101000a81548160ff02191690836003811115611a5357611a53614d1e565b021790555050505050565b60008060005b600f548110156117fd57600081815260116020908152604080832054878452602783528184206001600160a01b0391821680865293529281902054601a5491516322fd455760e11b81526004810182905292939092600292909116906345fa8aae90602401602060405180830381865afa158015611ae6573d6000803e3d6000fd5b505050506040513d601f19601f82011682018060405250810190611b0a919061542e565b6003811115611b1b57611b1b614d1e565b60ff1603611b3157611b2e6001856153e6565b93505b5050600101611a64565b611b43613ed1565b611b4c82614024565b600b5550565b6008546001600160a01b0316331480611b755750600a546001600160a01b031633145b80611b8a57506009546001600160a01b031633145b611ba65760405162461bcd60e51b8152600401611415906153f9565b60009283526025602090815260408085206001600160a01b039094168552929052912055565b6008546001600160a01b0316331480611bef5750600a546001600160a01b031633145b80611c0457506009546001600160a01b031633145b611c205760405162461bcd60e51b8152600401611415906153f9565b60009283526026602090815260408085206001600160a01b039094168552929052912055565b611c4e613ed1565b6000601d5442611c5e9190615496565b9050600c603c611c6e81846154bf565b611c7891906154bf565b11611ceb5760405162461bcd60e51b815260206004820152603960248201527f596f752073686f756c642077616974206174206c6561737420313220686f757260448201527f7320616674657220746865206c617465737420757064617465000000000000006064820152608401611415565b6127108260ff1611158015611d04575060018260ff1610155b611d6c5760405162461bcd60e51b815260206004820152603360248201527f546865206e65774665652073686f756c64206265206265747765656e203120616044820152726e64203130302028302e303125202d2031252960681b6064820152608401611415565b50601c805460ff909216600160a81b0260ff60a81b1990921691909117905542601d55565b6008546001600160a01b0316331480611db45750600a546001600160a01b031633145b80611dc957506009546001600160a01b031633145b611de55760405162461bcd60e51b8152600401611415906153f9565b6001601e6000828254611df891906153e6565b9091555050565b6000611e09613ed1565b6001600160a01b038216611e585760405162461bcd60e51b8152602060048201526016602482015275696e76616c696420697373756572206164647265737360501b6044820152606401611415565b50601a80546001600160a01b0383166001600160a01b03199091161790556001919050565b611e85613ed1565b8051825114611ece5760405162461bcd60e51b8152602060048201526015602482015274082e4e4c2f240d8cadccee8d040dad2e6dac2e8c6d605b1b6044820152606401611415565b60005b8251811015611f4e57818181518110611eec57611eec6154d3565b602002602001015160176000858481518110611f0a57611f0a6154d3565b6020908102919091018101516001600160a01b0390811683529082019290925260400160002080546001600160a01b03191692909116919091179055600101611ed1565b505050565b611f5b613ed1565b600880546001600160a01b0319166001600160a01b0392909216919091179055565b60068054611f8a906154e9565b80601f0160208091040260200160405190810160405280929190818152602001828054611fb6906154e9565b80156120035780601f10611fd857610100808354040283529160200191612003565b820191906000526020600020905b815481529060010190602001808311611fe657829003601f168201915b505050505081565b6008546001600160a01b031633148061202e5750600a546001600160a01b031633145b8061204357506009546001600160a01b031633145b61205f5760405162461bcd60e51b8152600401611415906153f9565b60009182526023602052604090912055565b60008060005b600f548110156117fd57600081815260116020908152604080832054878452602683528184206001600160a01b03918216808652935281842054601a54925163187b2ed160e21b815260048101829052939490939092909116906361ecbb4490602401602060405180830381865afa1580156120f7573d6000803e3d6000fd5b505050506040513d601f19601f8201168201806040525081019061211b919061551d565b601a546040516322fd455760e11b8152600481018590529192506003916001600160a01b03909116906345fa8aae90602401602060405180830381865afa15801561216a573d6000803e3d6000fd5b505050506040513d601f19601f8201168201806040525081019061218e919061542e565b600381111561219f5761219f614d1e565b60ff160361227957806000036121c1576121ba6001866153e6565b94506123b4565b60008781526024602081815260408084206001600160a01b03888116865292529283902054601a5493516322fd455760e11b81526004810182905290936002939216916345fa8aae9101602060405180830381865afa158015612228573d6000803e3d6000fd5b505050506040513d601f19601f8201168201806040525081019061224c919061542e565b600381111561225d5761225d614d1e565b60ff1603612273576122706001876153e6565b95505b506123b4565b601a546040516322fd455760e11b8152600481018490526002916001600160a01b0316906345fa8aae90602401602060405180830381865afa1580156122c3573d6000803e3d6000fd5b505050506040513d601f19601f820116820180604052508101906122e7919061542e565b60038111156122f8576122f8614d1e565b60ff16036123b45760008781526024602081815260408084206001600160a01b03888116865292529283902054601a5493516322fd455760e11b81526004810182905290936002939216916345fa8aae9101602060405180830381865afa158015612367573d6000803e3d6000fd5b505050506040513d601f19601f8201168201806040525081019061238b919061542e565b600381111561239c5761239c614d1e565b60ff16036123b2576123af6001876153e6565b95505b505b505050600101612077565b601c54600090600160a01b900460ff16156124c8576001600160a01b03808316600090815260176020526040808220548151633fabe5a360e21b81529151931692839163feaf968c9160048083019260a09291908290030181865afa15801561242c573d6000803e3d6000fd5b505050506040513d601f19601f820116820180604052508101906124509190615550565b5050509150506000826001600160a01b031663313ce5676040518163ffffffff1660e01b8152600401602060405180830381865afa158015612496573d6000803e3d6000fd5b505050506040513d601f19601f820116820180604052508101906124ba91906155a0565b90506113b882826012614046565b601a54601b5460405163a377cfbf60e01b81526001600160a01b0385811660048301529182166024820152600092919091169063a377cfbf906044016040805180830381865afa158015612520573d6000803e3d6000fd5b505050506040513d601f19601f8201168201806040525081019061254491906155bd565b805160205491925060009161255e919060ff166012614046565b949350505050565b6008546001600160a01b03163314806125895750600a546001600160a01b031633145b8061259e57506009546001600160a01b031633145b6125ba5760405162461bcd60e51b8152600401611415906153f9565b6000918252602d602052604090912055565b6008546001600160a01b03163314806125ef5750600a546001600160a01b031633145b8061260457506009546001600160a01b031633145b6126205760405162461bcd60e51b8152600401611415906153f9565b60009283526037602090815260408085206001600160a01b039094168552929052912055565b61264e613ed1565b6126586000614086565b565b6008546001600160a01b031633148061267d5750600a546001600160a01b031633145b8061269257506009546001600160a01b031633145b6126ae5760405162461bcd60e51b8152600401611415906153f9565b6001601f6000828254611df891906153e6565b6008546001600160a01b03163314806126e45750600a546001600160a01b031633145b806126f957506009546001600160a01b031633145b6127155760405162461bcd60e51b8152600401611415906153f9565b60009283526024602090815260408085206001600160a01b039094168552929052912055565b60008061285c6006805461274e906154e9565b80601f016020809104026020016040519081016040528092919081815260200182805461277a906154e9565b80156127c75780601f1061279c576101008083540402835291602001916127c7565b820191906000526020600020905b8154815290600101906020018083116127aa57829003601f168201915b5050505050600780546127d9906154e9565b80601f0160208091040260200160405190810160405280929190818152602001828054612805906154e9565b80156128525780601f1061282757610100808354040283529160200191612852565b820191906000526020600020905b81548152906001019060200180831161283557829003601f168201915b505050505061151f565b90506000612874600b543063f14bea2060e01b6140f7565b60408051808201909152600381526219d95d60ea1b602082015290915061289d90829084614113565b6128f860405180604001604052806005815260200164706174683160d81b81525060405180604001604052806011815260200170726573756c74732c61646472657373657360781b815250836141139092919063ffffffff16565b612956604051806040016040528060058152602001643830ba341960d91b81525060405180604001604052806014815260200173726573756c74732c6d61726b657453686172657360601b815250836141139092919063ffffffff16565b61297461296b6003546001600160a01b031690565b82600c54614131565b9250505090565b6008546001600160a01b031633148061299e5750600a546001600160a01b031633145b806129b357506009546001600160a01b031633145b6129cf5760405162461bcd60e51b8152600401611415906153f9565b600091825260306020526040909120805460ff1916911515919091179055565b6008546001600160a01b0316331480612a125750600a546001600160a01b031633145b80612a2757506009546001600160a01b031633145b612a435760405162461bcd60e51b8152600401611415906153f9565b600091825260356020908152604090922081518155910151600190910155565b6009546001600160a01b03163314612abd5760405162461bcd60e51b815260206004820152601f60248201527f63616c6c6572206d75737420626520666163746f72792062616c616e636572006044820152606401611415565b600e54600f5560005b600e54811015612b29576000818152601060209081526040808320546011835281842080546001600160a01b0319166001600160a01b03909216918217905583526016825280832054601583528184205560149091529020819055600101612ac6565b50565b6008546001600160a01b0316331480612b4f5750600a546001600160a01b031633145b80612b6457506009546001600160a01b031633145b612b805760405162461bcd60e51b8152600401611415906153f9565b600091825260316020526040909120805460ff1916911515919091179055565b612ba8613ed1565b601c8054911515600160a01b0260ff60a01b19909216919091179055565b6008546001600160a01b0316331480612be95750600a546001600160a01b031633145b80612bfe57506009546001600160a01b031633145b612c1a5760405162461bcd60e51b8152600401611415906153f9565b6000918252602c602052604090912055565b6008546001600160a01b0316331480612c4f5750600a546001600160a01b031633145b80612c6457506009546001600160a01b031633145b612c805760405162461bcd60e51b8152600401611415906153f9565b6000928352602a602090815260408085206001600160a01b039094168552929052912055565b6001600160a01b038181166000908152601260205260408082205460195491516370a0823160e01b8152918416600483015291929190911690829082906370a0823190602401602060405180830381865afa158015612d09573d6000803e3d6000fd5b505050506040513d601f19601f82011682018060405250810190612d2d919061551d565b60405163266d6a8360e11b8152600481018290529091506001600160a01b03831690634cdad50690602401602060405180830381865afa158015612d75573d6000803e3d6000fd5b505050506040513d601f19601f8201168201806040525081019061255e919061551d565b612da1613ed1565b6006612dad8382615645565b506007611f4e8282615645565b612dc2613ed1565b612dcc82826141c4565b5050565b6000805b600f5481101561151657600081815260116020908152604080832054868452602683528184206001600160a01b0391821680865293529281902054601a5491516322fd455760e11b81526004810182905292939092600192909116906345fa8aae90602401602060405180830381865afa158015612e56573d6000803e3d6000fd5b505050506040513d601f19601f82011682018060405250810190612e7a919061542e565b6003811115612e8b57612e8b614d1e565b60ff1603612e9e57506001949350505050565b5050600101612dd4565b612eb06149c5565b60408051610140810182526001600160401b03421681523060208201526018546001600160a01b0390811692820192909252601b549091166060820152821515608082015260a081016000815260200183612f0c576000612f17565b68056bc75e2d631000005b68ffffffffffffffffff16815260200183612f3b5768056bc75e2d63100000612f3e565b60005b68ffffffffffffffffff168152600060208201526040016001905292915050565b612f67613ed1565b8051825114612fb05760405162461bcd60e51b8152602060048201526015602482015274082e4e4c2f240d8cadccee8d040dad2e6dac2e8c6d605b1b6044820152606401611415565b60005b8251811015611f4e57818181518110612fce57612fce6154d3565b602002602001015160126000858481518110612fec57612fec6154d3565b6020908102919091018101516001600160a01b0390811683529082019290925260400160002080546001600160a01b03191692909116919091179055600101612fb3565b60008060005b600f548110156117fd57600081815260116020908152604080832054878452602783528184206001600160a01b03918216808652935281842054601a54925163187b2ed160e21b815260048101829052939490939092909116906361ecbb4490602401602060405180830381865afa1580156130b6573d6000803e3d6000fd5b505050506040513d601f19601f820116820180604052508101906130da919061551d565b601a546040516322fd455760e11b8152600481018590529192506003916001600160a01b03909116906345fa8aae90602401602060405180830381865afa158015613129573d6000803e3d6000fd5b505050506040513d601f19601f8201168201806040525081019061314d919061542e565b600381111561315e5761315e614d1e565b60ff16036132395780600003613180576131796001866153e6565b9450613375565b60008781526025602090815260408083206001600160a01b03878116855292529182902054601a5492516322fd455760e11b815260048101829052909260029216906345fa8aae90602401602060405180830381865afa1580156131e8573d6000803e3d6000fd5b505050506040513d601f19601f8201168201806040525081019061320c919061542e565b600381111561321d5761321d614d1e565b60ff1603613233576132306001876153e6565b95505b50613375565b601a546040516322fd455760e11b8152600481018490526002916001600160a01b0316906345fa8aae90602401602060405180830381865afa158015613283573d6000803e3d6000fd5b505050506040513d601f19601f820116820180604052508101906132a7919061542e565b60038111156132b8576132b8614d1e565b60ff16036133755760008781526025602090815260408083206001600160a01b03878116855292529182902054601a5492516322fd455760e11b815260048101829052909260029216906345fa8aae90602401602060405180830381865afa158015613328573d6000803e3d6000fd5b505050506040513d601f19601f8201168201806040525081019061334c919061542e565b600381111561335d5761335d614d1e565b60ff1603613373576133706001876153e6565b95505b505b505050600101613036565b60008060005b600f54811015611810576000818152601160205260408120546133b1906001600160a01b0316613c8c565b90506133bd81846153e6565b925050600101613386565b60006133d2613ed1565b6001600160a01b0382166134285760405162461bcd60e51b815260206004820152601d60248201527f696e76616c6964206f72646572206d616e6167657220616464726573730000006044820152606401611415565b50601c80546001600160a01b0383166001600160a01b03199091161790556001919050565b6008546001600160a01b03163314806134705750600a546001600160a01b031633145b8061348557506009546001600160a01b031633145b6134a15760405162461bcd60e51b8152600401611415906153f9565b60009182526034602052604090912055565b6000806134be613380565b90506000601860009054906101000a90046001600160a01b03166001600160a01b03166318160ddd6040518163ffffffff1660e01b8152600401602060405180830381865afa158015613515573d6000803e3d6000fd5b505050506040513d601f19601f82011682018060405250810190613539919061551d565b90506000826135488387615704565b6113b891906154bf565b6008546001600160a01b03163314806135755750600a546001600160a01b031633145b8061358a57506009546001600160a01b031633145b6135a65760405162461bcd60e51b8152600401611415906153f9565b600091825260216020526040909120805460ff1916911515919091179055565b6008546001600160a01b03163314806135e95750600a546001600160a01b031633145b806135fe57506009546001600160a01b031633145b61361a5760405162461bcd60e51b8152600401611415906153f9565b60009182526028602052604090912055565b6008546001600160a01b031633148061364f5750600a546001600160a01b031633145b8061366457506009546001600160a01b031633145b6136805760405162461bcd60e51b8152600401611415906153f9565b6000918252602f602052604090912080546001600160a01b0319166001600160a01b03909216919091179055565b7ff0c57e16840df040f15088dc2f81fe391c3923bec73e23a9662efc9c229c6a008054600160401b810460ff1615906001600160401b03166000811580156136f35750825b90506000826001600160401b0316600114801561370f5750303b155b90508115801561371d575080155b1561373b5760405163f92ee8a960e01b815260040160405180910390fd5b845467ffffffffffffffff19166001178555831561376557845460ff60401b1916600160401b1785555b8d601a60006101000a8154816001600160a01b0302191690836001600160a01b031602179055508c601860006101000a8154816001600160a01b0302191690836001600160a01b031602179055508b601960006101000a8154816001600160a01b0302191690836001600160a01b031602179055508a601b60006101000a8154816001600160a01b0302191690836001600160a01b0316021790555089601b60146101000a81548160ff021916908360ff160217905550613825336143e5565b600280546001600160a01b0319166001600160a01b038b1617905561384988614024565b600b879055600a613863670de0b6b3a76400006001615704565b61386d91906154bf565b600c556040805160608101909152602a80825261591560208301396006906138959082615645565b506040518060600160405280602e815260200161593f602e91396007906138bc9082615645565b50601c805461ffff60a01b1916600160a01b8815150260ff60a81b191617600560a91b179055831561392857845460ff60401b19168555604051600181527fc7f505b2f371ae2175ee4913f4499e1f2633a7b5936321eed1cdaeb6115181d29060200160405180910390a15b5050505050505050505050505050565b613940613ed1565b600980546001600160a01b0319166001600160a01b0392909216919091179055565b6008546001600160a01b03163314806139855750600a546001600160a01b031633145b8061399a57506009546001600160a01b031633145b6139b65760405162461bcd60e51b8152600401611415906153f9565b6000918252602e602052604090912080546001600160a01b0319166001600160a01b03909216919091179055565b60008060005b600f54811015613af4576000818152601160209081526040808320546001600160a01b0316808452601590925282205490919068056bc75e2d6310000090613a329088615704565b613a3c91906154bf565b601a54601b546040516308da5c3560e21b81526000600482018190526001600160a01b0392831660248301529394508392919091169063236970d4906044016040805180830381865afa158015613a97573d6000803e3d6000fd5b505050506040513d601f19601f82011682018060405250810190613abb91906153ab565b915091506000613acb8285613f2c565b613ad590846153e6565b9050613ae181886153e6565b965050600190940193506139ea92505050565b5092915050565b600080613b06613380565b90506000601860009054906101000a90046001600160a01b03166001600160a01b03166318160ddd6040518163ffffffff1660e01b8152600401602060405180830381865afa158015613b5d573d6000803e3d6000fd5b505050506040513d601f19601f82011682018060405250810190613b81919061551d565b90506000816135488487615704565b60078054611f8a906154e9565b6008546001600160a01b0316331480613bc05750600a546001600160a01b031633145b80613bd557506009546001600160a01b031633145b613bf15760405162461bcd60e51b8152600401611415906153f9565b60009182526033602052604090912055565b6000613c0d613ed1565b6001600160a01b038316613c5b5760405162461bcd60e51b8152602060048201526015602482015274696e76616c696420746f6b656e206164647265737360581b6044820152606401611415565b50601b805460ff8316600160a01b026001600160a81b03199091166001600160a01b03851617179055600192915050565b600080613c98836123bf565b90506000613ca584612ca6565b9050670de0b6b3a7640000613cba8383615704565b61255e91906154bf565b60008381526005602052604090205483906001600160a01b03163314613d3d5760405162461bcd60e51b815260206004820152602860248201527f536f75726365206d75737420626520746865206f7261636c65206f6620746865604482015267081c995c5d595cdd60c21b6064820152608401611415565b60008181526005602052604080822080546001600160a01b03191690555182917f7cc135e0cebb02c3480ae5d74d377283180a2601f8f644edf7987b009316c63a91a2613d8a83836141c4565b50505050565b613d986149c5565b60008281526032602090815260409182902082516101408101845281546001600160401b03811682526001600160a01b03600160401b9091048116938201939093526001808301548416948201949094526002820154928316606082015260ff600160a01b84048116151560808301529093919260a0850192600160a81b90910490911690811115613e2c57613e2c614d1e565b6001811115613e3d57613e3d614d1e565b815260038281015460208301526004830154604083015260058301546060830152600683015460809092019160ff1690811115613e7c57613e7c614d1e565b6003811115613e8d57613e8d614d1e565b90525092915050565b613e9e613ed1565b6001600160a01b038116613ec857604051631e4fbdf760e01b815260006004820152602401611415565b612b2981614086565b33613f037f9016d09d72d40fdae2fd8ceac6b6234c7706214fd39c1cd1e609a0528c199300546001600160a01b031690565b6001600160a01b0316146126585760405163118cdaa760e01b8152336004820152602401611415565b60008262ffffff16600003613f425760006118c4565b6118c48262ffffff8516620f42405b6000808060001985870985870292508281108382030391505080600003613f8b57838281613f8157613f816154a9565b04925050506118c4565b838110613fbc57604051630c740aef60e31b8152600481018790526024810186905260448101859052606401611415565b600084868809600260036001881981018916988990049182028318808302840302808302840302808302840302808302840302808302840302918202909203026000889003889004909101858311909403939093029303949094049190911702949350505050565b600380546001600160a01b0319166001600160a01b0392909216919091179055565b60008260ff168260ff16111561407c57614060838361571b565b61406b90600a615818565b6140759085615827565b90506118c4565b614060828461571b565b7f9016d09d72d40fdae2fd8ceac6b6234c7706214fd39c1cd1e609a0528c19930080546001600160a01b031981166001600160a01b03848116918217845560405192169182907f8be0079c531659141344cd1fd0a4f28419497f9722a3daafe3b4186f6b6457e090600090a3505050565b6140ff614a28565b614107614a28565b6113b8818686866143f6565b60808301516141229083614433565b6080830151611f4e9082614433565b6004546000906141428160016153e6565b600455835160408086015160808701515191516000936320214ca360e11b9361417a9386938493923092918a91600191602401615857565b60408051601f198184030181529190526020810180516001600160e01b03166001600160e01b03199093169290921790915290506141ba8683868461444a565b9695505050505050565b818160005b82518110156143c5578281815181106141e4576141e46154d3565b60200260200101516010600083815260200190815260200160002060006101000a8154816001600160a01b0302191690836001600160a01b03160217905550806013600085848151811061423a5761423a6154d3565b60200260200101516001600160a01b03166001600160a01b0316815260200190815260200160002081905550818181518110614278576142786154d3565b602002602001015160166000858481518110614296576142966154d3565b60200260200101516001600160a01b03166001600160a01b0316815260200190815260200160002081905550600f546000036143bd578281815181106142de576142de6154d3565b60200260200101516011600083815260200190815260200160002060006101000a8154816001600160a01b0302191690836001600160a01b0316021790555081818151811061432f5761432f6154d3565b60200260200101516015600085848151811061434d5761434d6154d3565b60200260200101516001600160a01b03166001600160a01b03168152602001908152602001600020819055508060146000858481518110614390576143906154d3565b60200260200101516001600160a01b03166001600160a01b03168152602001908152602001600020819055505b6001016141c9565b508151600e55600f546000036143db578151600f555b505042600d555050565b6143ed6145a8565b612b29816145f1565b6143fe614a28565b61440e85608001516101006145f9565b50509183526001600160a01b031660208301526001600160e01b031916604082015290565b614440826003835161465e565b611f4e8282614765565b6040516bffffffffffffffffffffffff193060601b1660208201526034810184905260009060540160408051808303601f1901815282825280516020918201206000818152600590925291812080546001600160a01b0319166001600160a01b038a1617905590925082917fb5e6e01e79f91267dc17b4e6314d5d4d03593d2ceee0fbb452b750bd70ea5af99190a2600254604051630200057560e51b81526001600160a01b0390911690634000aea09061450d908890879087906004016158b0565b6020604051808303816000875af115801561452c573d6000803e3d6000fd5b505050506040513d601f19601f8201168201806040525081019061455091906158d7565b61255e5760405162461bcd60e51b815260206004820152602360248201527f756e61626c6520746f207472616e73666572416e6443616c6c20746f206f7261604482015262636c6560e81b6064820152608401611415565b7ff0c57e16840df040f15088dc2f81fe391c3923bec73e23a9662efc9c229c6a0054600160401b900460ff1661265857604051631afcd79f60e31b815260040160405180910390fd5b613e9e6145a8565b6040805180820190915260608152600060208201526146196020836158f4565b15614641576146296020836158f4565b614634906020615496565b61463e90836153e6565b91505b506020828101829052604080518085526000815290920101905290565b6017816001600160401b03161161468257613d8a8360e0600585901b16831761478c565b60ff816001600160401b0316116146be576146a8836018611fe0600586901b161761478c565b50613d8a836001600160401b03831660016147b1565b61ffff816001600160401b0316116146fb576146e5836019611fe0600586901b161761478c565b50613d8a836001600160401b03831660026147b1565b63ffffffff816001600160401b03161161473a5761472483601a611fe0600586901b161761478c565b50613d8a836001600160401b03831660046147b1565b61474f83601b611fe0600586901b161761478c565b50613d8a836001600160401b03831660086147b1565b6040805180820190915260608152600060208201526118c4838460000151518485516147d7565b6040805180820190915260608152600060208201526118c483846000015151846148c1565b60408051808201909152606081526000602082015261255e84856000015151858561491c565b60408051808201909152606081526000602082015282518211156147fa57600080fd5b602085015161480983866153e6565b111561483c5761483c8561482c8760200151878661482791906153e6565b61499d565b614837906002615704565b6149ae565b60008086518051876020830101935080888701111561485b5787860182525b505050602084015b6020841061489b578051825261487a6020836153e6565b91506148876020826153e6565b9050614894602085615496565b9350614863565b51815160001960208690036101000a019081169019919091161790525083949350505050565b604080518082019091526060815260006020820152836020015183106148f6576148f684856020015160026148379190615704565b8351805160208583010184815350808503614912576001810182525b5093949350505050565b604080518082019091526060815260006020820152602085015161494085846153e6565b1115614954576149548561482c86856153e6565b6000600161496484610100615908565b61496e9190615496565b90508551838682010185831982511617815250805184870111156149925783860181525b509495945050505050565b600081831115611810575081611546565b81516149ba83836145f9565b50613d8a8382614765565b604080516101408101825260008082526020820181905291810182905260608101829052608081018290529060a0820190815260200160008152602001600081526020016000815260200160006003811115614a2357614a23614d1e565b905290565b6040805160a0810182526000808252602080830182905282840182905260608084018390528451808601909552845283015290608082015290565b80356001600160a01b038116811461188d57600080fd5b60008060408385031215614a8d57600080fd5b82359150614a9d60208401614a63565b90509250929050565b600060208284031215614ab857600080fd5b6118c482614a63565b600060208284031215614ad357600080fd5b5035919050565b8015158114612b2957600080fd5b803561188d81614ada565b60008060408385031215614b0657600080fd5b823591506020830135614b1881614ada565b809150509250929050565b634e487b7160e01b600052604160045260246000fd5b60405161014081016001600160401b0381118282101715614b5c57614b5c614b23565b60405290565b604080519081016001600160401b0381118282101715614b5c57614b5c614b23565b604051601f8201601f191681016001600160401b0381118282101715614bac57614bac614b23565b604052919050565b600082601f830112614bc557600080fd5b81356001600160401b03811115614bde57614bde614b23565b614bf1601f8201601f1916602001614b84565b818152846020838601011115614c0657600080fd5b816020850160208301376000918101602001919091529392505050565b60008060408385031215614c3657600080fd5b82356001600160401b0380821115614c4d57600080fd5b614c5986838701614bb4565b93506020850135915080821115614c6f57600080fd5b50614c7c85828601614bb4565b9150509250929050565b60005b83811015614ca1578181015183820152602001614c89565b50506000910152565b60008151808452614cc2816020860160208601614c86565b601f01601f19169290920160200192915050565b6020815260006118c46020830184614caa565b600080600060608486031215614cfe57600080fd5b83359250614d0e60208501614a63565b9150604084013590509250925092565b634e487b7160e01b600052602160045260246000fd5b60028110614d4457614d44614d1e565b9052565b60048110614d4457614d44614d1e565b6001600160401b038b1681526001600160a01b038a8116602083015289811660408301528816606082015286151560808201526101408101614d9d60a0830188614d34565b8560c08301528460e083015283610100830152614dbe610120830184614d48565b9b9a5050505050505050505050565b60008060408385031215614de057600080fd5b50508035926020909101359150565b62ffffff81168114612b2957600080fd5b60008060408385031215614e1357600080fd5b8235614e1e81614def565b946020939093013593505050565b60ff81168114612b2957600080fd5b600060208284031215614e4d57600080fd5b81356118c481614e2c565b6001600160401b0381168114612b2957600080fd5b803561188d81614e58565b80356002811061188d57600080fd5b60048110612b2957600080fd5b803561188d81614e87565b600080828403610160811215614eb457600080fd5b8335925061014080601f1983011215614ecc57600080fd5b614ed4614b39565b9150614ee260208601614e6d565b8252614ef060408601614a63565b6020830152614f0160608601614a63565b6040830152614f1260808601614a63565b6060830152614f2360a08601614ae8565b6080830152614f3460c08601614e78565b60a083015260e085013560c08301526101008086013560e08401526101208087013582850152614f65838801614e94565b9084015250929590945092505050565b60008060408385031215614f8857600080fd5b614e1e83614a63565b60006001600160401b03821115614faa57614faa614b23565b5060051b60200190565b600082601f830112614fc557600080fd5b81356020614fda614fd583614f91565b614b84565b8083825260208201915060208460051b870101935086841115614ffc57600080fd5b602086015b8481101561501f5761501281614a63565b8352918301918301615001565b509695505050505050565b6000806040838503121561503d57600080fd5b82356001600160401b038082111561505457600080fd5b61506086838701614fb4565b9350602085013591508082111561507657600080fd5b50614c7c85828601614fb4565b600080828403606081121561509757600080fd5b833592506040601f19820112156150ad57600080fd5b506150b6614b62565b6020840135815260408401356020820152809150509250929050565b6000602082840312156150e457600080fd5b81356118c481614ada565b600082601f83011261510057600080fd5b81356020615110614fd583614f91565b8083825260208201915060208460051b87010193508684111561513257600080fd5b602086015b8481101561501f5780358352918301918301615137565b6000806040838503121561516157600080fd5b82356001600160401b038082111561517857600080fd5b61518486838701614fb4565b9350602085013591508082111561519a57600080fd5b50614c7c858286016150ef565b81516001600160401b03168152610140810160208301516151d360208401826001600160a01b03169052565b5060408301516151ee60408401826001600160a01b03169052565b50606083015161520960608401826001600160a01b03169052565b50608083015161521d608084018215159052565b5060a083015161523060a0840182614d34565b5060c083015160c083015260e083015160e08301526101008084015181840152506101208084015161526482850182614d48565b505092915050565b60008060008060008060008060006101208a8c03121561528b57600080fd5b6152948a614a63565b98506152a260208b01614a63565b97506152b060408b01614a63565b96506152be60608b01614a63565b955060808a01356152ce81614e2c565b94506152dc60a08b01614a63565b93506152ea60c08b01614a63565b925060e08a013591506101008a013561530281614ada565b809150509295985092959850929598565b6000806040838503121561532657600080fd5b61532f83614a63565b91506020830135614b1881614e2c565b60008060006060848603121561535457600080fd5b8335925060208401356001600160401b038082111561537257600080fd5b61537e87838801614fb4565b9350604086013591508082111561539457600080fd5b506153a1868287016150ef565b9150509250925092565b600080604083850312156153be57600080fd5b825191506020830151614b1881614def565b634e487b7160e01b600052601160045260246000fd5b80820180821115611546576115466153d0565b6020808252818101527f43616c6c6572206973206e6f74206120666163746f727920636f6e7472616374604082015260600190565b60006020828403121561544057600080fd5b81516118c481614e87565b6000835161545d818460208801614c86565b835190830190615471818360208801614c86565b01949350505050565b62ffffff818116838216019080821115613af457613af46153d0565b81810381811115611546576115466153d0565b634e487b7160e01b600052601260045260246000fd5b6000826154ce576154ce6154a9565b500490565b634e487b7160e01b600052603260045260246000fd5b600181811c908216806154fd57607f821691505b60208210810361181057634e487b7160e01b600052602260045260246000fd5b60006020828403121561552f57600080fd5b5051919050565b805169ffffffffffffffffffff8116811461188d57600080fd5b600080600080600060a0868803121561556857600080fd5b61557186615536565b945060208601519350604086015192506060860151915061559460808701615536565b90509295509295909350565b6000602082840312156155b257600080fd5b81516118c481614e2c565b6000604082840312156155cf57600080fd5b6155d7614b62565b8251815260208301516155e981614e58565b60208201529392505050565b601f821115611f4e576000816000526020600020601f850160051c8101602086101561561e5750805b601f850160051c820191505b8181101561563d5782815560010161562a565b505050505050565b81516001600160401b0381111561565e5761565e614b23565b6156728161566c84546154e9565b846155f5565b602080601f8311600181146156a7576000841561568f5750858301515b600019600386901b1c1916600185901b17855561563d565b600085815260208120601f198616915b828110156156d6578886015182559484019460019091019084016156b7565b50858210156156f45787850151600019600388901b60f8161c191681555b5050505050600190811b01905550565b8082028115828204841417611546576115466153d0565b60ff8281168282160390811115611546576115466153d0565b600181815b8085111561576f578160001904821115615755576157556153d0565b8085161561576257918102915b93841c9390800290615739565b509250929050565b60008261578657506001611546565b8161579357506000611546565b81600181146157a957600281146157b3576157cf565b6001915050611546565b60ff8411156157c4576157c46153d0565b50506001821b611546565b5060208310610133831016604e8410600b84101617156157f2575081810a611546565b6157fc8383615734565b8060001904821115615810576158106153d0565b029392505050565b60006118c460ff841683615777565b80820260008212600160ff1b84141615615843576158436153d0565b8181058314821517611546576115466153d0565b6001600160a01b0389811682526020820189905260408201889052861660608201526001600160e01b03198516608082015260a0810184905260c0810183905261010060e08201819052600090614dbe83820185614caa565b60018060a01b03841681528260208201526060604082015260006113b86060830184614caa565b6000602082840312156158e957600080fd5b81516118c481614ada565b600082615903576159036154a9565b500690565b60006118c4838361577756fe68747470733a2f2f6170702e6e65786c6162732e696f2f6170692f616c6c46756e64696e6752617465733f6d756c7469706c7946756e633d31382674696d65734e656746756e643d74727565266172726179733d74727565a2646970667358221220aa61ca69e366bb06c7ff2de9d7f422dd873d601ee59ffe869b716bfac3f6725964736f6c63430008190033","linkReferences":{}},"methodIdentifiers":{"actionInfoById(uint256)":"3c1f70ca","baseUrl()":"5bcabf04","burnedTokenAmountByNonce(uint256)":"ab7820b2","buyRequestPayedAmountById(uint256)":"8861d235","calculateBuyRequestFee(uint256)":"06995e3b","calculateIssuanceFee(uint256)":"e19eefbe","cancelIssuanceComplted(uint256)":"7bfa27f2","cancelIssuanceRequestId(uint256,address)":"02e80f71","cancelIssuanceUnfilledAmount(uint256,address)":"9edcf9f4","cancelRedemptionComplted(uint256)":"b46840f9","cancelRedemptionRequestId(uint256,address)":"8c221899","cancelRedemptionUnfilledAmount(uint256,address)":"632439fd","checkCancelIssuanceStatus(uint256)":"631c8385","checkCancelRedemptionStatus(uint256)":"b592662a","checkIssuanceOrdersStatus(uint256)":"2343acb4","checkRedemptionOrdersStatus(uint256)":"3fac0922","concatenation(string,string)":"0e329357","currentList(uint256)":"9932ba4c","externalJobId()":"a8b54bd4","factoryAddress()":"966dae0e","factoryBalancerAddress()":"cb4d4e09","factoryProcessorAddress()":"0acb8d40","feeRate()":"978bbdb9","fulfillAssetsData(bytes32,address[],uint256[])":"f14bea20","getActionInfoById(uint256)":"147726ae","getAmountAfterFee(uint24,uint256)":"2e6b96e7","getIssuanceAmountOut(uint256)":"c8da3303","getOrderInstanceById(uint256)":"f1f31d66","getPortfolioValue()":"bb0498de","getPrimaryOrder(bool)":"b12279aa","getRedemptionAmountOut(uint256)":"e2851bd6","getVaultDshareBalance(address)":"a08d7bd6","getVaultDshareValue(address)":"efdf5053","increaseIssuanceNonce()":"5501c6cf","increaseRedemptionNonce()":"7851b905","initialize(address,address,address,address,uint8,address,address,bytes32,bool)":"d57e0493","isIssuanceOrderActive(uint256)":"b0e12134","isMainnet()":"42faac05","isRedemptionOrderActive(uint256)":"0b1a4918","issuanceIndexTokenPrimaryTotalSupply(uint256)":"b1dd819e","issuanceInputAmount(uint256)":"cf9ee319","issuanceIsCompleted(uint256)":"a84ebc17","issuanceNonce()":"9dbb9c9e","issuanceRequestId(uint256,address)":"264fa8b9","issuanceRequesterByNonce(uint256)":"94674098","issuanceTokenPrimaryBalance(uint256,address)":"da65925a","issuer()":"1d143848","lastUpdateTime()":"c8f33c91","latestFeeUpdate()":"011ced5f","latestPriceDecimals()":"0b1fa733","mockFillAssetsList(address[],uint256[])":"addc70d1","oracleList(uint256)":"239aad0d","oraclePayment()":"0c02e130","orderInstanceById(uint256)":"15e666a2","orderManager()":"f9b6117f","owner()":"8da5cb5b","priceFeedByTokenAddress(address)":"08dc4b0c","priceInWei(address)":"6839a095","redemptionIndexTokenPrimaryTotalSupply(uint256)":"daf1c17d","redemptionInputAmount(uint256)":"9cf54521","redemptionIsCompleted(uint256)":"76529fdf","redemptionNonce()":"84d77bb1","redemptionRequestId(uint256,address)":"f513a718","redemptionRequesterByNonce(uint256)":"78032658","redemptionTokenPrimaryBalance(uint256,address)":"a363b9cb","renounceOwnership()":"715018a6","requestAssetsData()":"7ca58c55","sellRequestAssetAmountById(uint256)":"a87f98d2","setActionInfoById(uint256,(uint256,uint256))":"8182492a","setBurnedTokenAmountByNonce(uint256,uint256)":"6188199f","setBuyRequestPayedAmountById(uint256,uint256)":"d1e4a308","setCancelIssuanceComplted(uint256,bool)":"7cd375e2","setCancelIssuanceRequestId(uint256,address,uint256)":"7a6c4b7b","setCancelIssuanceUnfilledAmount(uint256,address,uint256)":"12b6d2e6","setCancelRedemptionComplted(uint256,bool)":"8e97d7e1","setCancelRedemptionRequestId(uint256,address,uint256)":"457e0e0f","setCancelRedemptionUnfilledAmount(uint256,address,uint256)":"6ea86556","setFactory(address)":"5bb47808","setFactoryBalancer(address)":"d5fbea63","setFactoryProcessor(address)":"0499a61d","setFeeRate(uint8)":"5177942a","setIsMainnet(bool)":"991be68e","setIssuanceIndexTokenPrimaryTotalSupply(uint256,uint256)":"99f68da8","setIssuanceInputAmount(uint256,uint256)":"ea5142c8","setIssuanceIsCompleted(uint256,bool)":"d1c0cee6","setIssuanceRequestId(uint256,address,uint256)":"496304a4","setIssuanceRequesterByNonce(uint256,address)":"df1d5ea2","setIssuanceTokenPrimaryBalance(uint256,address,uint256)":"9b2d6e3b","setIssuer(address)":"55cc4e57","setLatestPriceDecimals(uint8)":"32502639","setOracleInfo(address,bytes32)":"43482fc8","setOrderInstanceById(uint256,(uint64,address,address,address,bool,uint8,uint256,uint256,uint256,uint8))":"35c51204","setOrderManager(address)":"c0da840d","setPriceFeedAddresses(address[],address[])":"57b61bc3","setRedemptionIndexTokenPrimaryTotalSupply(uint256,uint256)":"6ea495df","setRedemptionInputAmount(uint256,uint256)":"c7003d1b","setRedemptionIsCompleted(uint256,bool)":"0a1d4270","setRedemptionRequestId(uint256,address,uint256)":"1c7a2959","setRedemptionRequesterByNonce(uint256,address)":"d34ed2ab","setRedemptionTokenPrimaryBalance(uint256,address,uint256)":"21de914f","setSellRequestAssetAmountById(uint256,uint256)":"1e2ad86e","setTokenAddress(address)":"26a4e8d2","setUrl(string,string)":"a73e1cbf","setUsdcAddress(address,uint8)":"eab2a711","setWrappedDShareAddresses(address[],address[])":"b411dc41","token()":"fc0c546a","tokenCurrentListIndex(address)":"914f0cc6","tokenCurrentMarketShare(address)":"0be52713","tokenOracleListIndex(address)":"8c88c10c","tokenOracleMarketShare(address)":"4b3e0b80","totalCurrentList()":"53fd4332","totalOracleList()":"c8599ded","transferOwnership(address)":"f2fde38b","updateCurrentList()":"8baa6bf1","urlParams()":"e789598c","usdc()":"3e413bee","usdcDecimals()":"7bf42165","vault()":"fbfa77cf","wrappedDshareAddress(address)":"092755e0"},"id":19}