{"abi":[{"type":"function","name":"actionInfoById","inputs":[{"name":"","type":"uint256","internalType":"uint256"}],"outputs":[{"name":"actionType","type":"uint256","internalType":"uint256"},{"name":"nonce","type":"uint256","internalType":"uint256"}],"stateMutability":"view"},{"type":"function","name":"baseUrl","inputs":[],"outputs":[{"name":"","type":"string","internalType":"string"}],"stateMutability":"view"},{"type":"function","name":"burnedTokenAmountByNonce","inputs":[{"name":"","type":"uint256","internalType":"uint256"}],"outputs":[{"name":"","type":"uint256","internalType":"uint256"}],"stateMutability":"view"},{"type":"function","name":"buyRequestPayedAmountById","inputs":[{"name":"","type":"uint256","internalType":"uint256"}],"outputs":[{"name":"","type":"uint256","internalType":"uint256"}],"stateMutability":"view"},{"type":"function","name":"calculateBuyRequestFee","inputs":[{"name":"_amount","type":"uint256","internalType":"uint256"}],"outputs":[{"name":"","type":"uint256","internalType":"uint256"}],"stateMutability":"view"},{"type":"function","name":"calculateIssuanceFee","inputs":[{"name":"_inputAmount","type":"uint256","internalType":"uint256"}],"outputs":[{"name":"","type":"uint256","internalType":"uint256"}],"stateMutability":"view"},{"type":"function","name":"cancelIssuanceComplted","inputs":[{"name":"","type":"uint256","internalType":"uint256"}],"outputs":[{"name":"","type":"bool","internalType":"bool"}],"stateMutability":"view"},{"type":"function","name":"cancelIssuanceRequestId","inputs":[{"name":"","type":"uint256","internalType":"uint256"},{"name":"","type":"address","internalType":"address"}],"outputs":[{"name":"","type":"uint256","internalType":"uint256"}],"stateMutability":"view"},{"type":"function","name":"cancelIssuanceUnfilledAmount","inputs":[{"name":"","type":"uint256","internalType":"uint256"},{"name":"","type":"address","internalType":"address"}],"outputs":[{"name":"","type":"uint256","internalType":"uint256"}],"stateMutability":"view"},{"type":"function","name":"cancelRedemptionComplted","inputs":[{"name":"","type":"uint256","internalType":"uint256"}],"outputs":[{"name":"","type":"bool","internalType":"bool"}],"stateMutability":"view"},{"type":"function","name":"cancelRedemptionRequestId","inputs":[{"name":"","type":"uint256","internalType":"uint256"},{"name":"","type":"address","internalType":"address"}],"outputs":[{"name":"","type":"uint256","internalType":"uint256"}],"stateMutability":"view"},{"type":"function","name":"cancelRedemptionUnfilledAmount","inputs":[{"name":"","type":"uint256","internalType":"uint256"},{"name":"","type":"address","internalType":"address"}],"outputs":[{"name":"","type":"uint256","internalType":"uint256"}],"stateMutability":"view"},{"type":"function","name":"checkCancelIssuanceStatus","inputs":[{"name":"_issuanceNonce","type":"uint256","internalType":"uint256"}],"outputs":[{"name":"","type":"bool","internalType":"bool"}],"stateMutability":"view"},{"type":"function","name":"checkCancelRedemptionStatus","inputs":[{"name":"_redemptionNonce","type":"uint256","internalType":"uint256"}],"outputs":[{"name":"","type":"bool","internalType":"bool"}],"stateMutability":"view"},{"type":"function","name":"checkIssuanceOrdersStatus","inputs":[{"name":"_issuanceNonce","type":"uint256","internalType":"uint256"}],"outputs":[{"name":"","type":"bool","internalType":"bool"}],"stateMutability":"view"},{"type":"function","name":"checkRedemptionOrdersStatus","inputs":[{"name":"_redemptionNonce","type":"uint256","internalType":"uint256"}],"outputs":[{"name":"","type":"bool","internalType":"bool"}],"stateMutability":"view"},{"type":"function","name":"concatenation","inputs":[{"name":"a","type":"string","internalType":"string"},{"name":"b","type":"string","internalType":"string"}],"outputs":[{"name":"","type":"string","internalType":"string"}],"stateMutability":"pure"},{"type":"function","name":"currentList","inputs":[{"name":"","type":"uint256","internalType":"uint256"}],"outputs":[{"name":"","type":"address","internalType":"address"}],"stateMutability":"view"},{"type":"function","name":"externalJobId","inputs":[],"outputs":[{"name":"","type":"bytes32","internalType":"bytes32"}],"stateMutability":"view"},{"type":"function","name":"factoryAddress","inputs":[],"outputs":[{"name":"","type":"address","internalType":"address"}],"stateMutability":"view"},{"type":"function","name":"factoryBalancerAddress","inputs":[],"outputs":[{"name":"","type":"address","internalType":"address"}],"stateMutability":"view"},{"type":"function","name":"factoryProcessorAddress","inputs":[],"outputs":[{"name":"","type":"address","internalType":"address"}],"stateMutability":"view"},{"type":"function","name":"feeRate","inputs":[],"outputs":[{"name":"","type":"uint8","internalType":"uint8"}],"stateMutability":"view"},{"type":"function","name":"fulfillAssetsData","inputs":[{"name":"requestId","type":"bytes32","internalType":"bytes32"},{"name":"_tokens","type":"address[]","internalType":"address[]"},{"name":"_marketShares","type":"uint256[]","internalType":"uint256[]"}],"outputs":[],"stateMutability":"nonpayable"},{"type":"function","name":"getActionInfoById","inputs":[{"name":"_id","type":"uint256","internalType":"uint256"}],"outputs":[{"name":"","type":"tuple","internalType":"struct IndexFactoryStorage.ActionInfo","components":[{"name":"actionType","type":"uint256","internalType":"uint256"},{"name":"nonce","type":"uint256","internalType":"uint256"}]}],"stateMutability":"view"},{"type":"function","name":"getIssuanceAmountOut","inputs":[{"name":"_amount","type":"uint256","internalType":"uint256"}],"outputs":[{"name":"","type":"uint256","internalType":"uint256"}],"stateMutability":"view"},{"type":"function","name":"getOrderInstanceById","inputs":[{"name":"_id","type":"uint256","internalType":"uint256"}],"outputs":[{"name":"","type":"tuple","internalType":"struct IOrderProcessor.Order","components":[{"name":"requestTimestamp","type":"uint64","internalType":"uint64"},{"name":"recipient","type":"address","internalType":"address"},{"name":"assetToken","type":"address","internalType":"address"},{"name":"paymentToken","type":"address","internalType":"address"},{"name":"sell","type":"bool","internalType":"bool"},{"name":"orderType","type":"uint8","internalType":"enum IOrderProcessor.OrderType"},{"name":"assetTokenQuantity","type":"uint256","internalType":"uint256"},{"name":"paymentTokenQuantity","type":"uint256","internalType":"uint256"},{"name":"price","type":"uint256","internalType":"uint256"},{"name":"tif","type":"uint8","internalType":"enum IOrderProcessor.TIF"}]}],"stateMutability":"view"},{"type":"function","name":"getPortfolioValue","inputs":[],"outputs":[{"name":"","type":"uint256","internalType":"uint256"}],"stateMutability":"view"},{"type":"function","name":"getPrimaryOrder","inputs":[{"name":"sell","type":"bool","internalType":"bool"}],"outputs":[{"name":"","type":"tuple","internalType":"struct IOrderProcessor.Order","components":[{"name":"requestTimestamp","type":"uint64","internalType":"uint64"},{"name":"recipient","type":"address","internalType":"address"},{"name":"assetToken","type":"address","internalType":"address"},{"name":"paymentToken","type":"address","internalType":"address"},{"name":"sell","type":"bool","internalType":"bool"},{"name":"orderType","type":"uint8","internalType":"enum IOrderProcessor.OrderType"},{"name":"assetTokenQuantity","type":"uint256","internalType":"uint256"},{"name":"paymentTokenQuantity","type":"uint256","internalType":"uint256"},{"name":"price","type":"uint256","internalType":"uint256"},{"name":"tif","type":"uint8","internalType":"enum IOrderProcessor.TIF"}]}],"stateMutability":"view"},{"type":"function","name":"getRedemptionAmountOut","inputs":[{"name":"_amount","type":"uint256","internalType":"uint256"}],"outputs":[{"name":"","type":"uint256","internalType":"uint256"}],"stateMutability":"view"},{"type":"function","name":"getVaultDshareBalance","inputs":[{"name":"_token","type":"address","internalType":"address"}],"outputs":[{"name":"","type":"uint256","internalType":"uint256"}],"stateMutability":"view"},{"type":"function","name":"getVaultDshareValue","inputs":[{"name":"_token","type":"address","internalType":"address"}],"outputs":[{"name":"","type":"uint256","internalType":"uint256"}],"stateMutability":"view"},{"type":"function","name":"increaseIssuanceNonce","inputs":[],"outputs":[],"stateMutability":"nonpayable"},{"type":"function","name":"increaseRedemptionNonce","inputs":[],"outputs":[],"stateMutability":"nonpayable"},{"type":"function","name":"initialize","inputs":[{"name":"_issuer","type":"address","internalType":"address"},{"name":"_token","type":"address","internalType":"address"},{"name":"_vault","type":"address","internalType":"address"},{"name":"_usdc","type":"address","internalType":"address"},{"name":"_usdcDecimals","type":"uint8","internalType":"uint8"},{"name":"_chainlinkToken","type":"address","internalType":"address"},{"name":"_oracleAddress","type":"address","internalType":"address"},{"name":"_externalJobId","type":"bytes32","internalType":"bytes32"},{"name":"_isMainnet","type":"bool","internalType":"bool"}],"outputs":[],"stateMutability":"nonpayable"},{"type":"function","name":"isIssuanceOrderActive","inputs":[{"name":"_issuanceNonce","type":"uint256","internalType":"uint256"}],"outputs":[{"name":"","type":"bool","internalType":"bool"}],"stateMutability":"view"},{"type":"function","name":"isMainnet","inputs":[],"outputs":[{"name":"","type":"bool","internalType":"bool"}],"stateMutability":"view"},{"type":"function","name":"isRedemptionOrderActive","inputs":[{"name":"_redemptionNonce","type":"uint256","internalType":"uint256"}],"outputs":[{"name":"","type":"bool","internalType":"bool"}],"stateMutability":"view"},{"type":"function","name":"issuanceIndexTokenPrimaryTotalSupply","inputs":[{"name":"","type":"uint256","internalType":"uint256"}],"outputs":[{"name":"","type":"uint256","internalType":"uint256"}],"stateMutability":"view"},{"type":"function","name":"issuanceInputAmount","inputs":[{"name":"","type":"uint256","internalType":"uint256"}],"outputs":[{"name":"","type":"uint256","internalType":"uint256"}],"stateMutability":"view"},{"type":"function","name":"issuanceIsCompleted","inputs":[{"name":"","type":"uint256","internalType":"uint256"}],"outputs":[{"name":"","type":"bool","internalType":"bool"}],"stateMutability":"view"},{"type":"function","name":"issuanceNonce","inputs":[],"outputs":[{"name":"","type":"uint256","internalType":"uint256"}],"stateMutability":"view"},{"type":"function","name":"issuanceRequestId","inputs":[{"name":"","type":"uint256","internalType":"uint256"},{"name":"","type":"address","internalType":"address"}],"outputs":[{"name":"","type":"uint256","internalType":"uint256"}],"stateMutability":"view"},{"type":"function","name":"issuanceRequesterByNonce","inputs":[{"name":"","type":"uint256","internalType":"uint256"}],"outputs":[{"name":"","type":"address","internalType":"address"}],"stateMutability":"view"},{"type":"function","name":"issuanceTokenPrimaryBalance","inputs":[{"name":"","type":"uint256","internalType":"uint256"},{"name":"","type":"address","internalType":"address"}],"outputs":[{"name":"","type":"uint256","internalType":"uint256"}],"stateMutability":"view"},{"type":"function","name":"issuer","inputs":[],"outputs":[{"name":"","type":"address","internalType":"contract IOrderProcessor"}],"stateMutability":"view"},{"type":"function","name":"lastUpdateTime","inputs":[],"outputs":[{"name":"","type":"uint256","internalType":"uint256"}],"stateMutability":"view"},{"type":"function","name":"latestFeeUpdate","inputs":[],"outputs":[{"name":"","type":"uint256","internalType":"uint256"}],"stateMutability":"view"},{"type":"function","name":"latestPriceDecimals","inputs":[],"outputs":[{"name":"","type":"uint8","internalType":"uint8"}],"stateMutability":"view"},{"type":"function","name":"mockFillAssetsList","inputs":[{"name":"_tokens","type":"address[]","internalType":"address[]"},{"name":"_marketShares","type":"uint256[]","internalType":"uint256[]"}],"outputs":[],"stateMutability":"nonpayable"},{"type":"function","name":"oracleList","inputs":[{"name":"","type":"uint256","internalType":"uint256"}],"outputs":[{"name":"","type":"address","internalType":"address"}],"stateMutability":"view"},{"type":"function","name":"oraclePayment","inputs":[],"outputs":[{"name":"","type":"uint256","internalType":"uint256"}],"stateMutability":"view"},{"type":"function","name":"orderInstanceById","inputs":[{"name":"","type":"uint256","internalType":"uint256"}],"outputs":[{"name":"requestTimestamp","type":"uint64","internalType":"uint64"},{"name":"recipient","type":"address","internalType":"address"},{"name":"assetToken","type":"address","internalType":"address"},{"name":"paymentToken","type":"address","internalType":"address"},{"name":"sell","type":"bool","internalType":"bool"},{"name":"orderType","type":"uint8","internalType":"enum IOrderProcessor.OrderType"},{"name":"assetTokenQuantity","type":"uint256","internalType":"uint256"},{"name":"paymentTokenQuantity","type":"uint256","internalType":"uint256"},{"name":"price","type":"uint256","internalType":"uint256"},{"name":"tif","type":"uint8","internalType":"enum IOrderProcessor.TIF"}],"stateMutability":"view"},{"type":"function","name":"orderManager","inputs":[],"outputs":[{"name":"","type":"address","internalType":"contract OrderManager"}],"stateMutability":"view"},{"type":"function","name":"owner","inputs":[],"outputs":[{"name":"","type":"address","internalType":"address"}],"stateMutability":"view"},{"type":"function","name":"priceFeedByTokenAddress","inputs":[{"name":"","type":"address","internalType":"address"}],"outputs":[{"name":"","type":"address","internalType":"address"}],"stateMutability":"view"},{"type":"function","name":"priceInWei","inputs":[{"name":"_tokenAddress","type":"address","internalType":"address"}],"outputs":[{"name":"","type":"uint256","internalType":"uint256"}],"stateMutability":"view"},{"type":"function","name":"redemptionIndexTokenPrimaryTotalSupply","inputs":[{"name":"","type":"uint256","internalType":"uint256"}],"outputs":[{"name":"","type":"uint256","internalType":"uint256"}],"stateMutability":"view"},{"type":"function","name":"redemptionInputAmount","inputs":[{"name":"","type":"uint256","internalType":"uint256"}],"outputs":[{"name":"","type":"uint256","internalType":"uint256"}],"stateMutability":"view"},{"type":"function","name":"redemptionIsCompleted","inputs":[{"name":"","type":"uint256","internalType":"uint256"}],"outputs":[{"name":"","type":"bool","internalType":"bool"}],"stateMutability":"view"},{"type":"function","name":"redemptionNonce","inputs":[],"outputs":[{"name":"","type":"uint256","internalType":"uint256"}],"stateMutability":"view"},{"type":"function","name":"redemptionRequestId","inputs":[{"name":"","type":"uint256","internalType":"uint256"},{"name":"","type":"address","internalType":"address"}],"outputs":[{"name":"","type":"uint256","internalType":"uint256"}],"stateMutability":"view"},{"type":"function","name":"redemptionRequesterByNonce","inputs":[{"name":"","type":"uint256","internalType":"uint256"}],"outputs":[{"name":"","type":"address","internalType":"address"}],"stateMutability":"view"},{"type":"function","name":"redemptionTokenPrimaryBalance","inputs":[{"name":"","type":"uint256","internalType":"uint256"},{"name":"","type":"address","internalType":"address"}],"outputs":[{"name":"","type":"uint256","internalType":"uint256"}],"stateMutability":"view"},{"type":"function","name":"renounceOwnership","inputs":[],"outputs":[],"stateMutability":"nonpayable"},{"type":"function","name":"requestAssetsData","inputs":[],"outputs":[{"name":"","type":"bytes32","internalType":"bytes32"}],"stateMutability":"nonpayable"},{"type":"function","name":"sellRequestAssetAmountById","inputs":[{"name":"","type":"uint256","internalType":"uint256"}],"outputs":[{"name":"","type":"uint256","internalType":"uint256"}],"stateMutability":"view"},{"type":"function","name":"setActionInfoById","inputs":[{"name":"_requestId","type":"uint256","internalType":"uint256"},{"name":"_actionInfo","type":"tuple","internalType":"struct IndexFactoryStorage.ActionInfo","components":[{"name":"actionType","type":"uint256","internalType":"uint256"},{"name":"nonce","type":"uint256","internalType":"uint256"}]}],"outputs":[],"stateMutability":"nonpayable"},{"type":"function","name":"setBurnedTokenAmountByNonce","inputs":[{"name":"_redemptionNonce","type":"uint256","internalType":"uint256"},{"name":"_burnedAmount","type":"uint256","internalType":"uint256"}],"outputs":[],"stateMutability":"nonpayable"},{"type":"function","name":"setBuyRequestPayedAmountById","inputs":[{"name":"_requestId","type":"uint256","internalType":"uint256"},{"name":"_amount","type":"uint256","internalType":"uint256"}],"outputs":[],"stateMutability":"nonpayable"},{"type":"function","name":"setCancelIssuanceComplted","inputs":[{"name":"_issuanceNonce","type":"uint256","internalType":"uint256"},{"name":"_isCompleted","type":"bool","internalType":"bool"}],"outputs":[],"stateMutability":"nonpayable"},{"type":"function","name":"setCancelIssuanceRequestId","inputs":[{"name":"_issuanceNonce","type":"uint256","internalType":"uint256"},{"name":"_token","type":"address","internalType":"address"},{"name":"_requestId","type":"uint256","internalType":"uint256"}],"outputs":[],"stateMutability":"nonpayable"},{"type":"function","name":"setCancelIssuanceUnfilledAmount","inputs":[{"name":"_issuanceNonce","type":"uint256","internalType":"uint256"},{"name":"_token","type":"address","internalType":"address"},{"name":"_amount","type":"uint256","internalType":"uint256"}],"outputs":[],"stateMutability":"nonpayable"},{"type":"function","name":"setCancelRedemptionComplted","inputs":[{"name":"_redemptionNonce","type":"uint256","internalType":"uint256"},{"name":"_isCompleted","type":"bool","internalType":"bool"}],"outputs":[],"stateMutability":"nonpayable"},{"type":"function","name":"setCancelRedemptionRequestId","inputs":[{"name":"_redemptionNonce","type":"uint256","internalType":"uint256"},{"name":"_token","type":"address","internalType":"address"},{"name":"_requestId","type":"uint256","internalType":"uint256"}],"outputs":[],"stateMutability":"nonpayable"},{"type":"function","name":"setCancelRedemptionUnfilledAmount","inputs":[{"name":"_redemptionNonce","type":"uint256","internalType":"uint256"},{"name":"_token","type":"address","internalType":"address"},{"name":"_amount","type":"uint256","internalType":"uint256"}],"outputs":[],"stateMutability":"nonpayable"},{"type":"function","name":"setFactory","inputs":[{"name":"_factoryAddress","type":"address","internalType":"address"}],"outputs":[],"stateMutability":"nonpayable"},{"type":"function","name":"setFactoryBalancer","inputs":[{"name":"_factoryBalancerAddress","type":"address","internalType":"address"}],"outputs":[],"stateMutability":"nonpayable"},{"type":"function","name":"setFactoryProcessor","inputs":[{"name":"_factoryProcessorAddress","type":"address","internalType":"address"}],"outputs":[],"stateMutability":"nonpayable"},{"type":"function","name":"setFeeRate","inputs":[{"name":"_newFee","type":"uint8","internalType":"uint8"}],"outputs":[],"stateMutability":"nonpayable"},{"type":"function","name":"setIsMainnet","inputs":[{"name":"_isMainnet","type":"bool","internalType":"bool"}],"outputs":[],"stateMutability":"nonpayable"},{"type":"function","name":"setIssuanceIndexTokenPrimaryTotalSupply","inputs":[{"name":"_issuanceNonce","type":"uint256","internalType":"uint256"},{"name":"_amount","type":"uint256","internalType":"uint256"}],"outputs":[],"stateMutability":"nonpayable"},{"type":"function","name":"setIssuanceInputAmount","inputs":[{"name":"_issuanceNonce","type":"uint256","internalType":"uint256"},{"name":"_amount","type":"uint256","internalType":"uint256"}],"outputs":[],"stateMutability":"nonpayable"},{"type":"function","name":"setIssuanceIsCompleted","inputs":[{"name":"_issuanceNonce","type":"uint256","internalType":"uint256"},{"name":"_isCompleted","type":"bool","internalType":"bool"}],"outputs":[],"stateMutability":"nonpayable"},{"type":"function","name":"setIssuanceRequestId","inputs":[{"name":"_issuanceNonce","type":"uint256","internalType":"uint256"},{"name":"_token","type":"address","internalType":"address"},{"name":"_requestId","type":"uint256","internalType":"uint256"}],"outputs":[],"stateMutability":"nonpayable"},{"type":"function","name":"setIssuanceRequesterByNonce","inputs":[{"name":"_issuanceNonce","type":"uint256","internalType":"uint256"},{"name":"_requester","type":"address","internalType":"address"}],"outputs":[],"stateMutability":"nonpayable"},{"type":"function","name":"setIssuanceTokenPrimaryBalance","inputs":[{"name":"_issuanceNonce","type":"uint256","internalType":"uint256"},{"name":"_token","type":"address","internalType":"address"},{"name":"_amount","type":"uint256","internalType":"uint256"}],"outputs":[],"stateMutability":"nonpayable"},{"type":"function","name":"setIssuer","inputs":[{"name":"_issuer","type":"address","internalType":"address"}],"outputs":[{"name":"","type":"bool","internalType":"bool"}],"stateMutability":"nonpayable"},{"type":"function","name":"setLatestPriceDecimals","inputs":[{"name":"_decimals","type":"uint8","internalType":"uint8"}],"outputs":[],"stateMutability":"nonpayable"},{"type":"function","name":"setOracleInfo","inputs":[{"name":"_oracleAddress","type":"address","internalType":"address"},{"name":"_externalJobId","type":"bytes32","internalType":"bytes32"}],"outputs":[],"stateMutability":"nonpayable"},{"type":"function","name":"setOrderInstanceById","inputs":[{"name":"_requestId","type":"uint256","internalType":"uint256"},{"name":"_order","type":"tuple","internalType":"struct IOrderProcessor.Order","components":[{"name":"requestTimestamp","type":"uint64","internalType":"uint64"},{"name":"recipient","type":"address","internalType":"address"},{"name":"assetToken","type":"address","internalType":"address"},{"name":"paymentToken","type":"address","internalType":"address"},{"name":"sell","type":"bool","internalType":"bool"},{"name":"orderType","type":"uint8","internalType":"enum IOrderProcessor.OrderType"},{"name":"assetTokenQuantity","type":"uint256","internalType":"uint256"},{"name":"paymentTokenQuantity","type":"uint256","internalType":"uint256"},{"name":"price","type":"uint256","internalType":"uint256"},{"name":"tif","type":"uint8","internalType":"enum IOrderProcessor.TIF"}]}],"outputs":[],"stateMutability":"nonpayable"},{"type":"function","name":"setOrderManager","inputs":[{"name":"_orderManager","type":"address","internalType":"address"}],"outputs":[{"name":"","type":"bool","internalType":"bool"}],"stateMutability":"nonpayable"},{"type":"function","name":"setPriceFeedAddresses","inputs":[{"name":"_dShares","type":"address[]","internalType":"address[]"},{"name":"_priceFeedAddresses","type":"address[]","internalType":"address[]"}],"outputs":[],"stateMutability":"nonpayable"},{"type":"function","name":"setRedemptionIndexTokenPrimaryTotalSupply","inputs":[{"name":"_redemptionNonce","type":"uint256","internalType":"uint256"},{"name":"_amount","type":"uint256","internalType":"uint256"}],"outputs":[],"stateMutability":"nonpayable"},{"type":"function","name":"setRedemptionInputAmount","inputs":[{"name":"_redemptionNonce","type":"uint256","internalType":"uint256"},{"name":"_amount","type":"uint256","internalType":"uint256"}],"outputs":[],"stateMutability":"nonpayable"},{"type":"function","name":"setRedemptionIsCompleted","inputs":[{"name":"_redemptionNonce","type":"uint256","internalType":"uint256"},{"name":"_isCompleted","type":"bool","internalType":"bool"}],"outputs":[],"stateMutability":"nonpayable"},{"type":"function","name":"setRedemptionRequestId","inputs":[{"name":"_redemptionNonce","type":"uint256","internalType":"uint256"},{"name":"_token","type":"address","internalType":"address"},{"name":"_requestId","type":"uint256","internalType":"uint256"}],"outputs":[],"stateMutability":"nonpayable"},{"type":"function","name":"setRedemptionRequesterByNonce","inputs":[{"name":"_redemptionNonce","type":"uint256","internalType":"uint256"},{"name":"_requester","type":"address","internalType":"address"}],"outputs":[],"stateMutability":"nonpayable"},{"type":"function","name":"setRedemptionTokenPrimaryBalance","inputs":[{"name":"_redemptionNonce","type":"uint256","internalType":"uint256"},{"name":"_token","type":"address","internalType":"address"},{"name":"_amount","type":"uint256","internalType":"uint256"}],"outputs":[],"stateMutability":"nonpayable"},{"type":"function","name":"setSellRequestAssetAmountById","inputs":[{"name":"_requestId","type":"uint256","internalType":"uint256"},{"name":"_amount","type":"uint256","internalType":"uint256"}],"outputs":[],"stateMutability":"nonpayable"},{"type":"function","name":"setTokenAddress","inputs":[{"name":"_token","type":"address","internalType":"address"}],"outputs":[{"name":"","type":"bool","internalType":"bool"}],"stateMutability":"nonpayable"},{"type":"function","name":"setUrl","inputs":[{"name":"_beforeAddress","type":"string","internalType":"string"},{"name":"_afterAddress","type":"string","internalType":"string"}],"outputs":[],"stateMutability":"nonpayable"},{"type":"function","name":"setUsdcAddress","inputs":[{"name":"_usdc","type":"address","internalType":"address"},{"name":"_usdcDecimals","type":"uint8","internalType":"uint8"}],"outputs":[{"name":"","type":"bool","internalType":"bool"}],"stateMutability":"nonpayable"},{"type":"function","name":"setWrappedDShareAddresses","inputs":[{"name":"_dShares","type":"address[]","internalType":"address[]"},{"name":"_wrappedDShares","type":"address[]","internalType":"address[]"}],"outputs":[],"stateMutability":"nonpayable"},{"type":"function","name":"token","inputs":[],"outputs":[{"name":"","type":"address","internalType":"contract IndexToken"}],"stateMutability":"view"},{"type":"function","name":"tokenCurrentListIndex","inputs":[{"name":"","type":"address","internalType":"address"}],"outputs":[{"name":"","type":"uint256","internalType":"uint256"}],"stateMutability":"view"},{"type":"function","name":"tokenCurrentMarketShare","inputs":[{"name":"","type":"address","internalType":"address"}],"outputs":[{"name":"","type":"uint256","internalType":"uint256"}],"stateMutability":"view"},{"type":"function","name":"tokenOracleListIndex","inputs":[{"name":"","type":"address","internalType":"address"}],"outputs":[{"name":"","type":"uint256","internalType":"uint256"}],"stateMutability":"view"},{"type":"function","name":"tokenOracleMarketShare","inputs":[{"name":"","type":"address","internalType":"address"}],"outputs":[{"name":"","type":"uint256","internalType":"uint256"}],"stateMutability":"view"},{"type":"function","name":"totalCurrentList","inputs":[],"outputs":[{"name":"","type":"uint256","internalType":"uint256"}],"stateMutability":"view"},{"type":"function","name":"totalOracleList","inputs":[],"outputs":[{"name":"","type":"uint256","internalType":"uint256"}],"stateMutability":"view"},{"type":"function","name":"transferOwnership","inputs":[{"name":"newOwner","type":"address","internalType":"address"}],"outputs":[],"stateMutability":"nonpayable"},{"type":"function","name":"updateCurrentList","inputs":[],"outputs":[],"stateMutability":"nonpayable"},{"type":"function","name":"urlParams","inputs":[],"outputs":[{"name":"","type":"string","internalType":"string"}],"stateMutability":"view"},{"type":"function","name":"usdc","inputs":[],"outputs":[{"name":"","type":"address","internalType":"address"}],"stateMutability":"view"},{"type":"function","name":"usdcDecimals","inputs":[],"outputs":[{"name":"","type":"uint8","internalType":"uint8"}],"stateMutability":"view"},{"type":"function","name":"vault","inputs":[],"outputs":[{"name":"","type":"address","internalType":"contract NexVault"}],"stateMutability":"view"},{"type":"function","name":"wrappedDshareAddress","inputs":[{"name":"","type":"address","internalType":"address"}],"outputs":[{"name":"","type":"address","internalType":"address"}],"stateMutability":"view"},{"type":"event","name":"ChainlinkCancelled","inputs":[{"name":"id","type":"bytes32","indexed":true,"internalType":"bytes32"}],"anonymous":false},{"type":"event","name":"ChainlinkFulfilled","inputs":[{"name":"id","type":"bytes32","indexed":true,"internalType":"bytes32"}],"anonymous":false},{"type":"event","name":"ChainlinkRequested","inputs":[{"name":"id","type":"bytes32","indexed":true,"internalType":"bytes32"}],"anonymous":false},{"type":"event","name":"Initialized","inputs":[{"name":"version","type":"uint64","indexed":false,"internalType":"uint64"}],"anonymous":false},{"type":"event","name":"OwnershipTransferred","inputs":[{"name":"previousOwner","type":"address","indexed":true,"internalType":"address"},{"name":"newOwner","type":"address","indexed":true,"internalType":"address"}],"anonymous":false},{"type":"error","name":"InvalidInitialization","inputs":[]},{"type":"error","name":"NotInitializing","inputs":[]},{"type":"error","name":"OwnableInvalidOwner","inputs":[{"name":"owner","type":"address","internalType":"address"}]},{"type":"error","name":"OwnableUnauthorizedAccount","inputs":[{"name":"account","type":"address","internalType":"address"}]},{"type":"error","name":"PRBMath_MulDiv_Overflow","inputs":[{"name":"x","type":"uint256","internalType":"uint256"},{"name":"y","type":"uint256","internalType":"uint256"},{"name":"denominator","type":"uint256","internalType":"uint256"}]}],"bytecode":{"object":"0x6080604052348015600f57600080fd5b506157bf8061001f6000396000f3fe608060405234801561001057600080fd5b50600436106107225760003560e01c80638baa6bf1116103a8578063b592662a116101f4578063daf1c17d1161011a578063efdf5053116100b8578063f513a71811610087578063f513a71814611275578063f9b6117f146112a0578063fbfa77cf146112b3578063fc0c546a146112c657600080fd5b8063efdf505314611229578063f14bea201461123c578063f1f31d661461124f578063f2fde38b1461126257600080fd5b8063e2851bd6116100f4578063e2851bd6146111e8578063e789598c146111fb578063ea5142c814611203578063eab2a7111461121657600080fd5b8063daf1c17d146111a2578063df1d5ea2146111c2578063e19eefbe146111d557600080fd5b8063cb4d4e0911610192578063d34ed2ab11610161578063d34ed2ab1461113e578063d57e049314611151578063d5fbea6314611164578063da65925a1461117757600080fd5b8063cb4d4e09146110e5578063cf9ee319146110f8578063d1c0cee614611118578063d1e4a3081461112b57600080fd5b8063c7003d1b116101ce578063c7003d1b146110ad578063c8599ded146110c0578063c8da3303146110c9578063c8f33c91146110dc57600080fd5b8063b592662a1461107f578063bb0498de14611092578063c0da840d1461109a57600080fd5b80639dbb9c9e116102d9578063a8b54bd411610277578063b12279aa11610246578063b12279aa14611009578063b1dd819e14611029578063b411dc4114611049578063b46840f91461105c57600080fd5b8063a8b54bd414610fba578063ab7820b214610fc3578063addc70d114610fe3578063b0e1213414610ff657600080fd5b8063a363b9cb116102b3578063a363b9cb14610f39578063a73e1cbf14610f64578063a84ebc1714610f77578063a87f98d214610f9a57600080fd5b80639dbb9c9e14610ef25780639edcf9f414610efb578063a08d7bd614610f2657600080fd5b8063966dae0e116103465780639932ba4c116103205780639932ba4c14610e8357806399f68da814610eac5780639b2d6e3b14610ebf5780639cf5452114610ed257600080fd5b8063966dae0e14610e49578063978bbdb914610e5c578063991be68e14610e7057600080fd5b80638da5cb5b116103825780638da5cb5b14610dbd5780638e97d7e114610ded578063914f0cc614610e005780639467409814610e2057600080fd5b80638baa6bf114610d6a5780638c22189914610d725780638c88c10c14610d9d57600080fd5b806342faac05116105725780636839a095116104985780637a6c4b7b116104365780637cd375e2116104055780637cd375e214610d1b5780638182492a14610d2e57806384d77bb114610d415780638861d23514610d4a57600080fd5b80637a6c4b7b14610cc95780637bf4216514610cdc5780637bfa27f214610cf05780637ca58c5514610d1357600080fd5b8063715018a611610472578063715018a614610c6d57806376529fdf14610c755780637803265814610c985780637851b90514610cc157600080fd5b80636839a09514610c345780636ea495df14610c475780636ea8655614610c5a57600080fd5b80635501c6cf116105105780635bcabf04116104df5780635bcabf0414610bdb5780636188199f14610be3578063631c838514610bf6578063632439fd14610c0957600080fd5b80635501c6cf14610b9a57806355cc4e5714610ba257806357b61bc314610bb55780635bb4780814610bc857600080fd5b8063496304a41161054c578063496304a414610b4b5780634b3e0b8014610b5e5780635177942a14610b7e57806353fd433214610b9157600080fd5b806342faac0514610b1157806343482fc814610b25578063457e0e0f14610b3857600080fd5b8063147726ae11610657578063239aad0d116105f557806335c51204116105c457806335c5120414610a9c5780633c1f70ca14610aaf5780633e413bee14610aeb5780633fac092214610afe57600080fd5b8063239aad0d14610a22578063264fa8b914610a4b57806326a4e8d214610a765780633250263914610a8957600080fd5b80631d143848116106315780631d143848146109d65780631e2ad86e146109e957806321de914f146109fc5780632343acb414610a0f57600080fd5b8063147726ae146108c457806315e666a21461092b5780631c7a2959146109c357600080fd5b80630acb8d40116106c45780630be527131161069e5780630be52713146108685780630c02e130146108885780630e3293571461089157806312b6d2e6146108b157600080fd5b80630acb8d40146108135780630b1a4918146108265780630b1fa7331461084957600080fd5b806306995e3b1161070057806306995e3b1461078357806308dc4b0c14610796578063092755e0146107d75780630a1d42701461080057600080fd5b8063011ced5f1461072757806302e80f71146107435780630499a61d1461076e575b600080fd5b610730601d5481565b6040519081526020015b60405180910390f35b6107306107513660046148da565b602460209081526000928352604080842090915290825290205481565b61078161077c366004614906565b6112d9565b005b610730610791366004614921565b611303565b6107bf6107a4366004614906565b6017602052600090815260409020546001600160a01b031681565b6040516001600160a01b03909116815260200161073a565b6107bf6107e5366004614906565b6012602052600090815260409020546001600160a01b031681565b61078161080e366004614953565b6113a3565b600a546107bf906001600160a01b031681565b610839610834366004614921565b611420565b604051901515815260200161073a565b6020546108569060ff1681565b60405160ff909116815260200161073a565b610730610876366004614906565b60156020526000908152604090205481565b610730600c5481565b6108a461089f366004614a83565b611501565b60405161073a9190614b36565b6107816108bf366004614b49565b61152e565b6109106108d2366004614921565b604080518082019091526000808252602082015250600090815260356020908152604091829020825180840190935280548352600101549082015290565b6040805182518152602092830151928101929092520161073a565b6109ad610939366004614921565b60326020526000908152604090208054600182015460028301546003840154600485015460058601546006909601546001600160401b038616966001600160a01b03600160401b9097048716969586169585169460ff600160a01b8204811695600160a81b9092048116949193919291168a565b60405161073a9a99989796959493929190614bb8565b6107816109d1366004614b49565b6115a8565b601a546107bf906001600160a01b031681565b6107816109f7366004614c2d565b611622565b610781610a0a366004614b49565b611688565b610839610a1d366004614921565b611702565b6107bf610a30366004614921565b6010602052600090815260409020546001600160a01b031681565b610730610a593660046148da565b602660209081526000928352604080842090915290825290205481565b610839610a84366004614906565b6117f8565b610781610a97366004614c5e565b611874565b610781610aaa366004614cc2565b611892565b610ad6610abd366004614921565b6035602052600090815260409020805460019091015482565b6040805192835260208301919091520161073a565b601b546107bf906001600160a01b031681565b610839610b0c366004614921565b611a07565b601c5461083990600160a01b900460ff1681565b610781610b33366004614d98565b611ae4565b610781610b46366004614b49565b611afb565b610781610b59366004614b49565b611b75565b610730610b6c366004614906565b60166020526000908152604090205481565b610781610b8c366004614c5e565b611bef565b610730600f5481565b610781611d3a565b610839610bb0366004614906565b611da8565b610781610bc3366004614e5b565b611e26565b610781610bd6366004614906565b611efc565b6108a4611f26565b610781610bf1366004614c2d565b611fb4565b610839610c04366004614921565b61201a565b610730610c173660046148da565b603760209081526000928352604080842090915290825290205481565b610730610c42366004614906565b6122be565b610781610c55366004614c2d565b612465565b610781610c68366004614b49565b6124cb565b610781612545565b610839610c83366004614921565b60226020526000908152604090205460ff1681565b6107bf610ca6366004614921565b602f602052600090815260409020546001600160a01b031681565b610781612559565b610781610cd7366004614b49565b6125c0565b601b5461085690600160a01b900460ff1681565b610839610cfe366004614921565b60306020526000908152604090205460ff1681565b61073061263a565b610781610d29366004614953565b61287a565b610781610d3c366004614eb4565b6128ee565b610730601f5481565b610730610d58366004614921565b60286020526000908152604090205481565b610781612962565b610730610d803660046148da565b602560209081526000928352604080842090915290825290205481565b610730610dab366004614906565b60136020526000908152604090205481565b7f9016d09d72d40fdae2fd8ceac6b6234c7706214fd39c1cd1e609a0528c199300546001600160a01b03166107bf565b610781610dfb366004614953565b612a2b565b610730610e0e366004614906565b60146020526000908152604090205481565b6107bf610e2e366004614921565b602e602052600090815260409020546001600160a01b031681565b6008546107bf906001600160a01b031681565b601c5461085690600160a81b900460ff1681565b610781610e7e366004614f03565b612a9f565b6107bf610e91366004614921565b6011602052600090815260409020546001600160a01b031681565b610781610eba366004614c2d565b612ac5565b610781610ecd366004614b49565b612b2b565b610730610ee0366004614921565b60346020526000908152604090205481565b610730601e5481565b610730610f093660046148da565b603660209081526000928352604080842090915290825290205481565b610730610f34366004614906565b612ba5565b610730610f473660046148da565b602b60209081526000928352604080842090915290825290205481565b610781610f72366004614a83565b612c98565b610839610f85366004614921565b60216020526000908152604090205460ff1681565b610730610fa8366004614921565b60296020526000908152604090205481565b610730600b5481565b610730610fd1366004614921565b60236020526000908152604090205481565b610781610ff1366004614f7f565b612cb9565b610839611004366004614921565b612ccf565b61101c611017366004614f03565b612da7565b60405161073a9190614fd8565b610730611037366004614921565b602c6020526000908152604090205481565b610781611057366004614e5b565b612e5e565b61083961106a366004614921565b60316020526000908152604090205460ff1681565b61083961108d366004614921565b612f2f565b6107306131d4565b6108396110a8366004614906565b61321c565b6107816110bb366004614c2d565b6132a1565b610730600e5481565b6107306110d7366004614921565b613307565b610730600d5481565b6009546107bf906001600160a01b031681565b610730611106366004614921565b60336020526000908152604090205481565b610781611126366004614953565b6133a6565b610781611139366004614c2d565b61341a565b61078161114c3660046148da565b613480565b61078161115f36600461509d565b613502565b610781611172366004614906565b61378c565b6107306111853660046148da565b602a60209081526000928352604080842090915290825290205481565b6107306111b0366004614921565b602d6020526000908152604090205481565b6107816111d03660046148da565b6137b6565b6107306111e3366004614921565b613838565b6107306111f6366004614921565b61394f565b6108a46139e4565b610781611211366004614c2d565b6139f1565b610839611224366004615144565b613a57565b610730611237366004614906565b613ae0565b61078161124a366004615170565b613b18565b61101c61125d366004614921565b613be4565b610781611270366004614906565b613cea565b6107306112833660046148da565b602760209081526000928352604080842090915290825290205481565b601c546107bf906001600160a01b031681565b6019546107bf906001600160a01b031681565b6018546107bf906001600160a01b031681565b6112e1613d25565b600a80546001600160a01b0319166001600160a01b0392909216919091179055565b601a54601b546040516308da5c3560e21b81526000600482018190526001600160a01b039283166024830152928392839291169063236970d4906044016040805180830381865afa15801561135c573d6000803e3d6000fd5b505050506040513d601f19601f8201168201806040525081019061138091906151dc565b9150915060006113908286613d80565b61139a908461521f565b95945050505050565b6008546001600160a01b03163314806113c65750600a546001600160a01b031633145b806113db57506009546001600160a01b031633145b6114005760405162461bcd60e51b81526004016113f790615232565b60405180910390fd5b600091825260226020526040909120805460ff1916911515919091179055565b6000805b600f548110156114f857600081815260116020908152604080832054868452602783528184206001600160a01b0391821680865293529281902054601a5491516322fd455760e11b81526004810182905292939092600192909116906345fa8aae90602401602060405180830381865afa1580156114a6573d6000803e3d6000fd5b505050506040513d601f19601f820116820180604052508101906114ca9190615267565b60038111156114db576114db614b7e565b60ff16036114ee57506001949350505050565b5050600101611424565b50600092915050565b60608282604051602001611516929190615284565b60405160208183030381529060405290505b92915050565b6008546001600160a01b03163314806115515750600a546001600160a01b031633145b8061156657506009546001600160a01b031633145b6115825760405162461bcd60e51b81526004016113f790615232565b60009283526036602090815260408085206001600160a01b039094168552929052912055565b6008546001600160a01b03163314806115cb5750600a546001600160a01b031633145b806115e057506009546001600160a01b031633145b6115fc5760405162461bcd60e51b81526004016113f790615232565b60009283526027602090815260408085206001600160a01b039094168552929052912055565b6008546001600160a01b03163314806116455750600a546001600160a01b031633145b8061165a57506009546001600160a01b031633145b6116765760405162461bcd60e51b81526004016113f790615232565b60009182526029602052604090912055565b6008546001600160a01b03163314806116ab5750600a546001600160a01b031633145b806116c057506009546001600160a01b031633145b6116dc5760405162461bcd60e51b81526004016113f790615232565b6000928352602b602090815260408085206001600160a01b039094168552929052912055565b60008060005b600f548110156117df57600081815260116020908152604080832054878452602683528184206001600160a01b0391821680865293529281902054601a5491516322fd455760e11b81526004810182905292939092600292909116906345fa8aae90602401602060405180830381865afa15801561178a573d6000803e3d6000fd5b505050506040513d601f19601f820116820180604052508101906117ae9190615267565b60038111156117bf576117bf614b7e565b60ff16036117d5576117d260018561521f565b93505b5050600101611708565b50600f5481036114f85750600192915050565b50919050565b6000611802613d25565b6001600160a01b0382166118505760405162461bcd60e51b8152602060048201526015602482015274696e76616c696420746f6b656e206164647265737360581b60448201526064016113f7565b50601880546001600160a01b0319166001600160a01b03831617905560015b919050565b61187c613d25565b6020805460ff191660ff92909216919091179055565b6008546001600160a01b03163314806118b55750600a546001600160a01b031633145b806118ca57506009546001600160a01b031633145b6118e65760405162461bcd60e51b81526004016113f790615232565b60008281526032602090815260409182902083518154928501516001600160401b039091166001600160e01b031990931692909217600160401b6001600160a01b039384160217815591830151600180840180546001600160a01b0319169284169290921790915560608401516002840180546080870151929094166001600160a81b031990941693909317600160a01b911515919091021780835560a08501518594939092909160ff60a81b191690600160a81b9084908111156119ad576119ad614b7e565b021790555060c0820151816003015560e0820151816004015561010082015181600501556101208201518160060160006101000a81548160ff021916908360038111156119fc576119fc614b7e565b021790555050505050565b60008060005b600f548110156117df57600081815260116020908152604080832054878452602783528184206001600160a01b0391821680865293529281902054601a5491516322fd455760e11b81526004810182905292939092600292909116906345fa8aae90602401602060405180830381865afa158015611a8f573d6000803e3d6000fd5b505050506040513d601f19601f82011682018060405250810190611ab39190615267565b6003811115611ac457611ac4614b7e565b60ff1603611ada57611ad760018561521f565b93505b5050600101611a0d565b611aec613d25565b611af582613db0565b600b5550565b6008546001600160a01b0316331480611b1e5750600a546001600160a01b031633145b80611b3357506009546001600160a01b031633145b611b4f5760405162461bcd60e51b81526004016113f790615232565b60009283526025602090815260408085206001600160a01b039094168552929052912055565b6008546001600160a01b0316331480611b985750600a546001600160a01b031633145b80611bad57506009546001600160a01b031633145b611bc95760405162461bcd60e51b81526004016113f790615232565b60009283526026602090815260408085206001600160a01b039094168552929052912055565b611bf7613d25565b6000601d5442611c0791906152b3565b9050600c603c611c1781846152dc565b611c2191906152dc565b11611c945760405162461bcd60e51b815260206004820152603960248201527f596f752073686f756c642077616974206174206c6561737420313220686f757260448201527f7320616674657220746865206c6174657374207570646174650000000000000060648201526084016113f7565b6127108260ff1611158015611cad575060018260ff1610155b611d155760405162461bcd60e51b815260206004820152603360248201527f546865206e65774665652073686f756c64206265206265747765656e203120616044820152726e64203130302028302e303125202d2031252960681b60648201526084016113f7565b50601c805460ff909216600160a81b0260ff60a81b1990921691909117905542601d55565b6008546001600160a01b0316331480611d5d5750600a546001600160a01b031633145b80611d7257506009546001600160a01b031633145b611d8e5760405162461bcd60e51b81526004016113f790615232565b6001601e6000828254611da1919061521f565b9091555050565b6000611db2613d25565b6001600160a01b038216611e015760405162461bcd60e51b8152602060048201526016602482015275696e76616c696420697373756572206164647265737360501b60448201526064016113f7565b50601a80546001600160a01b0383166001600160a01b03199091161790556001919050565b611e2e613d25565b8051825114611e775760405162461bcd60e51b8152602060048201526015602482015274082e4e4c2f240d8cadccee8d040dad2e6dac2e8c6d605b1b60448201526064016113f7565b60005b8251811015611ef757818181518110611e9557611e956152f0565b602002602001015160176000858481518110611eb357611eb36152f0565b6020908102919091018101516001600160a01b0390811683529082019290925260400160002080546001600160a01b03191692909116919091179055600101611e7a565b505050565b611f04613d25565b600880546001600160a01b0319166001600160a01b0392909216919091179055565b60068054611f3390615306565b80601f0160208091040260200160405190810160405280929190818152602001828054611f5f90615306565b8015611fac5780601f10611f8157610100808354040283529160200191611fac565b820191906000526020600020905b815481529060010190602001808311611f8f57829003601f168201915b505050505081565b6008546001600160a01b0316331480611fd75750600a546001600160a01b031633145b80611fec57506009546001600160a01b031633145b6120085760405162461bcd60e51b81526004016113f790615232565b60009182526023602052604090912055565b60008060005b600f548110156117df57600081815260116020908152604080832054878452602683528184206001600160a01b03918216808652935281842054601a54925163187b2ed160e21b815260048101829052939490939092909116906361ecbb4490602401602060405180830381865afa1580156120a0573d6000803e3d6000fd5b505050506040513d601f19601f820116820180604052508101906120c4919061533a565b601a546040516322fd455760e11b8152600481018590529192506003916001600160a01b03909116906345fa8aae90602401602060405180830381865afa158015612113573d6000803e3d6000fd5b505050506040513d601f19601f820116820180604052508101906121379190615267565b600381111561214857612148614b7e565b60ff16148015612156575080155b1561216d5761216660018661521f565b94506122b3565b601a546040516322fd455760e11b8152600481018490526002916001600160a01b0316906345fa8aae90602401602060405180830381865afa1580156121b7573d6000803e3d6000fd5b505050506040513d601f19601f820116820180604052508101906121db9190615267565b60038111156121ec576121ec614b7e565b60ff161480156121fa575080155b156122b35760008781526024602081815260408084206001600160a01b03888116865292529283902054601a5493516322fd455760e11b81526004810182905290936002939216916345fa8aae9101602060405180830381865afa158015612266573d6000803e3d6000fd5b505050506040513d601f19601f8201168201806040525081019061228a9190615267565b600381111561229b5761229b614b7e565b60ff16036122b1576122ae60018761521f565b95505b505b505050600101612020565b601c54600090600160a01b900460ff16156123c7576001600160a01b03808316600090815260176020526040808220548151633fabe5a360e21b81529151931692839163feaf968c9160048083019260a09291908290030181865afa15801561232b573d6000803e3d6000fd5b505050506040513d601f19601f8201168201806040525081019061234f919061536d565b5050509150506000826001600160a01b031663313ce5676040518163ffffffff1660e01b8152600401602060405180830381865afa158015612395573d6000803e3d6000fd5b505050506040513d601f19601f820116820180604052508101906123b991906153bd565b905061139a82826012613dd2565b601a54601b5460405163a377cfbf60e01b81526001600160a01b0385811660048301529182166024820152600092919091169063a377cfbf906044016040805180830381865afa15801561241f573d6000803e3d6000fd5b505050506040513d601f19601f8201168201806040525081019061244391906153da565b805160205491925060009161245d919060ff166012613dd2565b949350505050565b6008546001600160a01b03163314806124885750600a546001600160a01b031633145b8061249d57506009546001600160a01b031633145b6124b95760405162461bcd60e51b81526004016113f790615232565b6000918252602d602052604090912055565b6008546001600160a01b03163314806124ee5750600a546001600160a01b031633145b8061250357506009546001600160a01b031633145b61251f5760405162461bcd60e51b81526004016113f790615232565b60009283526037602090815260408085206001600160a01b039094168552929052912055565b61254d613d25565b6125576000613e12565b565b6008546001600160a01b031633148061257c5750600a546001600160a01b031633145b8061259157506009546001600160a01b031633145b6125ad5760405162461bcd60e51b81526004016113f790615232565b6001601f6000828254611da1919061521f565b6008546001600160a01b03163314806125e35750600a546001600160a01b031633145b806125f857506009546001600160a01b031633145b6126145760405162461bcd60e51b81526004016113f790615232565b60009283526024602090815260408085206001600160a01b039094168552929052912055565b60008061275b6006805461264d90615306565b80601f016020809104026020016040519081016040528092919081815260200182805461267990615306565b80156126c65780601f1061269b576101008083540402835291602001916126c6565b820191906000526020600020905b8154815290600101906020018083116126a957829003601f168201915b5050505050600780546126d890615306565b80601f016020809104026020016040519081016040528092919081815260200182805461270490615306565b80156127515780601f1061272657610100808354040283529160200191612751565b820191906000526020600020905b81548152906001019060200180831161273457829003601f168201915b5050505050611501565b90506000612773600b543063f14bea2060e01b613e83565b60408051808201909152600381526219d95d60ea1b602082015290915061279c90829084613e9f565b6127f760405180604001604052806005815260200164706174683160d81b81525060405180604001604052806011815260200170726573756c74732c61646472657373657360781b81525083613e9f9092919063ffffffff16565b612855604051806040016040528060058152602001643830ba341960d91b81525060405180604001604052806014815260200173726573756c74732c6d61726b657453686172657360601b81525083613e9f9092919063ffffffff16565b61287361286a6003546001600160a01b031690565b82600c54613ebd565b9250505090565b6008546001600160a01b031633148061289d5750600a546001600160a01b031633145b806128b257506009546001600160a01b031633145b6128ce5760405162461bcd60e51b81526004016113f790615232565b600091825260306020526040909120805460ff1916911515919091179055565b6008546001600160a01b03163314806129115750600a546001600160a01b031633145b8061292657506009546001600160a01b031633145b6129425760405162461bcd60e51b81526004016113f790615232565b600091825260356020908152604090922081518155910151600190910155565b6009546001600160a01b031633146129bc5760405162461bcd60e51b815260206004820152601f60248201527f63616c6c6572206d75737420626520666163746f72792062616c616e6365720060448201526064016113f7565b600e54600f5560005b600e54811015612a28576000818152601060209081526040808320546011835281842080546001600160a01b0319166001600160a01b039092169182179055835260168252808320546015835281842055601490915290208190556001016129c5565b50565b6008546001600160a01b0316331480612a4e5750600a546001600160a01b031633145b80612a6357506009546001600160a01b031633145b612a7f5760405162461bcd60e51b81526004016113f790615232565b600091825260316020526040909120805460ff1916911515919091179055565b612aa7613d25565b601c8054911515600160a01b0260ff60a01b19909216919091179055565b6008546001600160a01b0316331480612ae85750600a546001600160a01b031633145b80612afd57506009546001600160a01b031633145b612b195760405162461bcd60e51b81526004016113f790615232565b6000918252602c602052604090912055565b6008546001600160a01b0316331480612b4e5750600a546001600160a01b031633145b80612b6357506009546001600160a01b031633145b612b7f5760405162461bcd60e51b81526004016113f790615232565b6000928352602a602090815260408085206001600160a01b039094168552929052912055565b6001600160a01b038181166000908152601260205260408082205460195491516370a0823160e01b8152918416600483015291929190911690829082906370a0823190602401602060405180830381865afa158015612c08573d6000803e3d6000fd5b505050506040513d601f19601f82011682018060405250810190612c2c919061533a565b60405163266d6a8360e11b8152600481018290529091506001600160a01b03831690634cdad50690602401602060405180830381865afa158015612c74573d6000803e3d6000fd5b505050506040513d601f19601f8201168201806040525081019061245d919061533a565b612ca0613d25565b6006612cac8382615462565b506007611ef78282615462565b612cc1613d25565b612ccb8282613f50565b5050565b6000805b600f548110156114f857600081815260116020908152604080832054868452602683528184206001600160a01b0391821680865293529281902054601a5491516322fd455760e11b81526004810182905292939092600192909116906345fa8aae90602401602060405180830381865afa158015612d55573d6000803e3d6000fd5b505050506040513d601f19601f82011682018060405250810190612d799190615267565b6003811115612d8a57612d8a614b7e565b60ff1603612d9d57506001949350505050565b5050600101612cd3565b612daf614825565b60408051610140810182526001600160401b03421681523060208201526018546001600160a01b0390811692820192909252601b549091166060820152821515608082015260a081016000815260200183612e0b576000612e16565b68056bc75e2d631000005b68ffffffffffffffffff16815260200183612e3a5768056bc75e2d63100000612e3d565b60005b68ffffffffffffffffff168152600060208201526040016001905292915050565b612e66613d25565b8051825114612eaf5760405162461bcd60e51b8152602060048201526015602482015274082e4e4c2f240d8cadccee8d040dad2e6dac2e8c6d605b1b60448201526064016113f7565b60005b8251811015611ef757818181518110612ecd57612ecd6152f0565b602002602001015160126000858481518110612eeb57612eeb6152f0565b6020908102919091018101516001600160a01b0390811683529082019290925260400160002080546001600160a01b03191692909116919091179055600101612eb2565b60008060005b600f548110156117df57600081815260116020908152604080832054878452602783528184206001600160a01b03918216808652935281842054601a54925163187b2ed160e21b815260048101829052939490939092909116906361ecbb4490602401602060405180830381865afa158015612fb5573d6000803e3d6000fd5b505050506040513d601f19601f82011682018060405250810190612fd9919061533a565b601a546040516322fd455760e11b8152600481018590529192506003916001600160a01b03909116906345fa8aae90602401602060405180830381865afa158015613028573d6000803e3d6000fd5b505050506040513d601f19601f8201168201806040525081019061304c9190615267565b600381111561305d5761305d614b7e565b60ff1614801561306b575080155b156130825761307b60018661521f565b94506131c9565b601a546040516322fd455760e11b8152600481018490526002916001600160a01b0316906345fa8aae90602401602060405180830381865afa1580156130cc573d6000803e3d6000fd5b505050506040513d601f19601f820116820180604052508101906130f09190615267565b600381111561310157613101614b7e565b60ff1614801561310f575080155b156131c95760008781526025602090815260408083206001600160a01b03878116855292529182902054601a5492516322fd455760e11b815260048101829052909260029216906345fa8aae90602401602060405180830381865afa15801561317c573d6000803e3d6000fd5b505050506040513d601f19601f820116820180604052508101906131a09190615267565b60038111156131b1576131b1614b7e565b60ff16036131c7576131c460018761521f565b95505b505b505050600101612f35565b60008060005b600f548110156117f257600081815260116020526040812054613205906001600160a01b0316613ae0565b9050613211818461521f565b9250506001016131da565b6000613226613d25565b6001600160a01b03821661327c5760405162461bcd60e51b815260206004820152601d60248201527f696e76616c6964206f72646572206d616e61676572206164647265737300000060448201526064016113f7565b50601c80546001600160a01b0383166001600160a01b03199091161790556001919050565b6008546001600160a01b03163314806132c45750600a546001600160a01b031633145b806132d957506009546001600160a01b031633145b6132f55760405162461bcd60e51b81526004016113f790615232565b60009182526034602052604090912055565b6000806133126131d4565b90506000601860009054906101000a90046001600160a01b03166001600160a01b03166318160ddd6040518163ffffffff1660e01b8152600401602060405180830381865afa158015613369573d6000803e3d6000fd5b505050506040513d601f19601f8201168201806040525081019061338d919061533a565b905060008261339c8387615521565b61139a91906152dc565b6008546001600160a01b03163314806133c95750600a546001600160a01b031633145b806133de57506009546001600160a01b031633145b6133fa5760405162461bcd60e51b81526004016113f790615232565b600091825260216020526040909120805460ff1916911515919091179055565b6008546001600160a01b031633148061343d5750600a546001600160a01b031633145b8061345257506009546001600160a01b031633145b61346e5760405162461bcd60e51b81526004016113f790615232565b60009182526028602052604090912055565b6008546001600160a01b03163314806134a35750600a546001600160a01b031633145b806134b857506009546001600160a01b031633145b6134d45760405162461bcd60e51b81526004016113f790615232565b6000918252602f602052604090912080546001600160a01b0319166001600160a01b03909216919091179055565b7ff0c57e16840df040f15088dc2f81fe391c3923bec73e23a9662efc9c229c6a008054600160401b810460ff1615906001600160401b03166000811580156135475750825b90506000826001600160401b031660011480156135635750303b155b905081158015613571575080155b1561358f5760405163f92ee8a960e01b815260040160405180910390fd5b845467ffffffffffffffff1916600117855583156135b957845460ff60401b1916600160401b1785555b8d601a60006101000a8154816001600160a01b0302191690836001600160a01b031602179055508c601860006101000a8154816001600160a01b0302191690836001600160a01b031602179055508b601960006101000a8154816001600160a01b0302191690836001600160a01b031602179055508a601b60006101000a8154816001600160a01b0302191690836001600160a01b0316021790555089601b60146101000a81548160ff021916908360ff16021790555061367933614171565b600280546001600160a01b0319166001600160a01b038b1617905561369d88613db0565b600b879055600a6136b7670de0b6b3a76400006001615521565b6136c191906152dc565b600c556040805160608101909152602a80825261573260208301396006906136e99082615462565b506040518060600160405280602e815260200161575c602e91396007906137109082615462565b50601c805461ffff60a01b1916600160a01b8815150260ff60a81b191617600560a91b179055831561377c57845460ff60401b19168555604051600181527fc7f505b2f371ae2175ee4913f4499e1f2633a7b5936321eed1cdaeb6115181d29060200160405180910390a15b5050505050505050505050505050565b613794613d25565b600980546001600160a01b0319166001600160a01b0392909216919091179055565b6008546001600160a01b03163314806137d95750600a546001600160a01b031633145b806137ee57506009546001600160a01b031633145b61380a5760405162461bcd60e51b81526004016113f790615232565b6000918252602e602052604090912080546001600160a01b0319166001600160a01b03909216919091179055565b60008060005b600f54811015613948576000818152601160209081526040808320546001600160a01b0316808452601590925282205490919068056bc75e2d63100000906138869088615521565b61389091906152dc565b601a54601b546040516308da5c3560e21b81526000600482018190526001600160a01b0392831660248301529394508392919091169063236970d4906044016040805180830381865afa1580156138eb573d6000803e3d6000fd5b505050506040513d601f19601f8201168201806040525081019061390f91906151dc565b91509150600061391f8285613d80565b613929908461521f565b9050613935818861521f565b9650506001909401935061383e92505050565b5092915050565b60008061395a6131d4565b90506000601860009054906101000a90046001600160a01b03166001600160a01b03166318160ddd6040518163ffffffff1660e01b8152600401602060405180830381865afa1580156139b1573d6000803e3d6000fd5b505050506040513d601f19601f820116820180604052508101906139d5919061533a565b905060008161339c8487615521565b60078054611f3390615306565b6008546001600160a01b0316331480613a145750600a546001600160a01b031633145b80613a2957506009546001600160a01b031633145b613a455760405162461bcd60e51b81526004016113f790615232565b60009182526033602052604090912055565b6000613a61613d25565b6001600160a01b038316613aaf5760405162461bcd60e51b8152602060048201526015602482015274696e76616c696420746f6b656e206164647265737360581b60448201526064016113f7565b50601b805460ff8316600160a01b026001600160a81b03199091166001600160a01b03851617179055600192915050565b600080613aec836122be565b90506000613af984612ba5565b9050670de0b6b3a7640000613b0e8383615521565b61245d91906152dc565b60008381526005602052604090205483906001600160a01b03163314613b915760405162461bcd60e51b815260206004820152602860248201527f536f75726365206d75737420626520746865206f7261636c65206f6620746865604482015267081c995c5d595cdd60c21b60648201526084016113f7565b60008181526005602052604080822080546001600160a01b03191690555182917f7cc135e0cebb02c3480ae5d74d377283180a2601f8f644edf7987b009316c63a91a2613bde8383613f50565b50505050565b613bec614825565b60008281526032602090815260409182902082516101408101845281546001600160401b03811682526001600160a01b03600160401b9091048116938201939093526001808301548416948201949094526002820154928316606082015260ff600160a01b84048116151560808301529093919260a0850192600160a81b90910490911690811115613c8057613c80614b7e565b6001811115613c9157613c91614b7e565b815260038281015460208301526004830154604083015260058301546060830152600683015460809092019160ff1690811115613cd057613cd0614b7e565b6003811115613ce157613ce1614b7e565b90525092915050565b613cf2613d25565b6001600160a01b038116613d1c57604051631e4fbdf760e01b8152600060048201526024016113f7565b612a2881613e12565b33613d577f9016d09d72d40fdae2fd8ceac6b6234c7706214fd39c1cd1e609a0528c199300546001600160a01b031690565b6001600160a01b0316146125575760405163118cdaa760e01b81523360048201526024016113f7565b60008262ffffff16600003613d96576000613da9565b613da98262ffffff8516620f4240614182565b9392505050565b600380546001600160a01b0319166001600160a01b0392909216919091179055565b60008260ff168260ff161115613e0857613dec8383615538565b613df790600a615635565b613e019085615644565b9050613da9565b613dec8284615538565b7f9016d09d72d40fdae2fd8ceac6b6234c7706214fd39c1cd1e609a0528c19930080546001600160a01b031981166001600160a01b03848116918217845560405192169182907f8be0079c531659141344cd1fd0a4f28419497f9722a3daafe3b4186f6b6457e090600090a3505050565b613e8b614888565b613e93614888565b61139a81868686614256565b6080830151613eae9083614293565b6080830151611ef79082614293565b600454600090613ece81600161521f565b600455835160408086015160808701515191516000936320214ca360e11b93613f069386938493923092918a91600191602401615674565b60408051601f198184030181529190526020810180516001600160e01b03166001600160e01b0319909316929092179091529050613f46868386846142aa565b9695505050505050565b818160005b825181101561415157828181518110613f7057613f706152f0565b60200260200101516010600083815260200190815260200160002060006101000a8154816001600160a01b0302191690836001600160a01b031602179055508060136000858481518110613fc657613fc66152f0565b60200260200101516001600160a01b03166001600160a01b0316815260200190815260200160002081905550818181518110614004576140046152f0565b602002602001015160166000858481518110614022576140226152f0565b60200260200101516001600160a01b03166001600160a01b0316815260200190815260200160002081905550600f546000036141495782818151811061406a5761406a6152f0565b60200260200101516011600083815260200190815260200160002060006101000a8154816001600160a01b0302191690836001600160a01b031602179055508181815181106140bb576140bb6152f0565b6020026020010151601560008584815181106140d9576140d96152f0565b60200260200101516001600160a01b03166001600160a01b0316815260200190815260200160002081905550806014600085848151811061411c5761411c6152f0565b60200260200101516001600160a01b03166001600160a01b03168152602001908152602001600020819055505b600101613f55565b508151600e55600f54600003614167578151600f555b505042600d555050565b614179614408565b612a2881614451565b60008080600019858709858702925082811083820303915050806000036141bc578382816141b2576141b26152c6565b0492505050613da9565b8381106141ed57604051630c740aef60e31b81526004810187905260248101869052604481018590526064016113f7565b60008486880960026001871981018816978890046003810283188082028403028082028403028082028403028082028403028082028403029081029092039091026000889003889004909101858311909403939093029303949094049190911702949350505050565b61425e614888565b61426e8560800151610100614459565b50509183526001600160a01b031660208301526001600160e01b031916604082015290565b6142a082600383516144be565b611ef782826145c5565b6040516bffffffffffffffffffffffff193060601b1660208201526034810184905260009060540160408051808303601f1901815282825280516020918201206000818152600590925291812080546001600160a01b0319166001600160a01b038a1617905590925082917fb5e6e01e79f91267dc17b4e6314d5d4d03593d2ceee0fbb452b750bd70ea5af99190a2600254604051630200057560e51b81526001600160a01b0390911690634000aea09061436d908890879087906004016156cd565b6020604051808303816000875af115801561438c573d6000803e3d6000fd5b505050506040513d601f19601f820116820180604052508101906143b091906156f4565b61245d5760405162461bcd60e51b815260206004820152602360248201527f756e61626c6520746f207472616e73666572416e6443616c6c20746f206f7261604482015262636c6560e81b60648201526084016113f7565b7ff0c57e16840df040f15088dc2f81fe391c3923bec73e23a9662efc9c229c6a0054600160401b900460ff1661255757604051631afcd79f60e31b815260040160405180910390fd5b613cf2614408565b604080518082019091526060815260006020820152614479602083615711565b156144a157614489602083615711565b6144949060206152b3565b61449e908361521f565b91505b506020828101829052604080518085526000815290920101905290565b6017816001600160401b0316116144e257613bde8360e0600585901b1683176145ec565b60ff816001600160401b03161161451e57614508836018611fe0600586901b16176145ec565b50613bde836001600160401b0383166001614611565b61ffff816001600160401b03161161455b57614545836019611fe0600586901b16176145ec565b50613bde836001600160401b0383166002614611565b63ffffffff816001600160401b03161161459a5761458483601a611fe0600586901b16176145ec565b50613bde836001600160401b0383166004614611565b6145af83601b611fe0600586901b16176145ec565b50613bde836001600160401b0383166008614611565b604080518082019091526060815260006020820152613da983846000015151848551614637565b604080518082019091526060815260006020820152613da98384600001515184614721565b60408051808201909152606081526000602082015261245d84856000015151858561477c565b604080518082019091526060815260006020820152825182111561465a57600080fd5b6020850151614669838661521f565b111561469c5761469c8561468c87602001518786614687919061521f565b6147fd565b614697906002615521565b61480e565b6000808651805187602083010193508088870111156146bb5787860182525b505050602084015b602084106146fb57805182526146da60208361521f565b91506146e760208261521f565b90506146f46020856152b3565b93506146c3565b51815160001960208690036101000a019081169019919091161790525083949350505050565b604080518082019091526060815260006020820152836020015183106147565761475684856020015160026146979190615521565b8351805160208583010184815350808503614772576001810182525b5093949350505050565b60408051808201909152606081526000602082015260208501516147a0858461521f565b11156147b4576147b48561468c868561521f565b600060016147c484610100615725565b6147ce91906152b3565b90508551838682010185831982511617815250805184870111156147f25783860181525b509495945050505050565b6000818311156117f2575081611528565b815161481a8383614459565b50613bde83826145c5565b604080516101408101825260008082526020820181905291810182905260608101829052608081018290529060a082019081526020016000815260200160008152602001600081526020016000600381111561488357614883614b7e565b905290565b6040805160a0810182526000808252602080830182905282840182905260608084018390528451808601909552845283015290608082015290565b80356001600160a01b038116811461186f57600080fd5b600080604083850312156148ed57600080fd5b823591506148fd602084016148c3565b90509250929050565b60006020828403121561491857600080fd5b613da9826148c3565b60006020828403121561493357600080fd5b5035919050565b8015158114612a2857600080fd5b803561186f8161493a565b6000806040838503121561496657600080fd5b8235915060208301356149788161493a565b809150509250929050565b634e487b7160e01b600052604160045260246000fd5b60405161014081016001600160401b03811182821017156149bc576149bc614983565b60405290565b604080519081016001600160401b03811182821017156149bc576149bc614983565b604051601f8201601f191681016001600160401b0381118282101715614a0c57614a0c614983565b604052919050565b600082601f830112614a2557600080fd5b81356001600160401b03811115614a3e57614a3e614983565b614a51601f8201601f19166020016149e4565b818152846020838601011115614a6657600080fd5b816020850160208301376000918101602001919091529392505050565b60008060408385031215614a9657600080fd5b82356001600160401b0380821115614aad57600080fd5b614ab986838701614a14565b93506020850135915080821115614acf57600080fd5b50614adc85828601614a14565b9150509250929050565b60005b83811015614b01578181015183820152602001614ae9565b50506000910152565b60008151808452614b22816020860160208601614ae6565b601f01601f19169290920160200192915050565b602081526000613da96020830184614b0a565b600080600060608486031215614b5e57600080fd5b83359250614b6e602085016148c3565b9150604084013590509250925092565b634e487b7160e01b600052602160045260246000fd5b60028110614ba457614ba4614b7e565b9052565b60048110614ba457614ba4614b7e565b6001600160401b038b1681526001600160a01b038a8116602083015289811660408301528816606082015286151560808201526101408101614bfd60a0830188614b94565b8560c08301528460e083015283610100830152614c1e610120830184614ba8565b9b9a5050505050505050505050565b60008060408385031215614c4057600080fd5b50508035926020909101359150565b60ff81168114612a2857600080fd5b600060208284031215614c7057600080fd5b8135613da981614c4f565b6001600160401b0381168114612a2857600080fd5b803561186f81614c7b565b80356002811061186f57600080fd5b60048110612a2857600080fd5b803561186f81614caa565b600080828403610160811215614cd757600080fd5b8335925061014080601f1983011215614cef57600080fd5b614cf7614999565b9150614d0560208601614c90565b8252614d13604086016148c3565b6020830152614d24606086016148c3565b6040830152614d35608086016148c3565b6060830152614d4660a08601614948565b6080830152614d5760c08601614c9b565b60a083015260e085013560c08301526101008086013560e08401526101208087013582850152614d88838801614cb7565b9084015250929590945092505050565b60008060408385031215614dab57600080fd5b614db4836148c3565b946020939093013593505050565b60006001600160401b03821115614ddb57614ddb614983565b5060051b60200190565b600082601f830112614df657600080fd5b81356020614e0b614e0683614dc2565b6149e4565b8083825260208201915060208460051b870101935086841115614e2d57600080fd5b602086015b84811015614e5057614e43816148c3565b8352918301918301614e32565b509695505050505050565b60008060408385031215614e6e57600080fd5b82356001600160401b0380821115614e8557600080fd5b614e9186838701614de5565b93506020850135915080821115614ea757600080fd5b50614adc85828601614de5565b6000808284036060811215614ec857600080fd5b833592506040601f1982011215614ede57600080fd5b50614ee76149c2565b6020840135815260408401356020820152809150509250929050565b600060208284031215614f1557600080fd5b8135613da98161493a565b600082601f830112614f3157600080fd5b81356020614f41614e0683614dc2565b8083825260208201915060208460051b870101935086841115614f6357600080fd5b602086015b84811015614e505780358352918301918301614f68565b60008060408385031215614f9257600080fd5b82356001600160401b0380821115614fa957600080fd5b614fb586838701614de5565b93506020850135915080821115614fcb57600080fd5b50614adc85828601614f20565b81516001600160401b031681526101408101602083015161500460208401826001600160a01b03169052565b50604083015161501f60408401826001600160a01b03169052565b50606083015161503a60608401826001600160a01b03169052565b50608083015161504e608084018215159052565b5060a083015161506160a0840182614b94565b5060c083015160c083015260e083015160e08301526101008084015181840152506101208084015161509582850182614ba8565b505092915050565b60008060008060008060008060006101208a8c0312156150bc57600080fd5b6150c58a6148c3565b98506150d360208b016148c3565b97506150e160408b016148c3565b96506150ef60608b016148c3565b955060808a01356150ff81614c4f565b945061510d60a08b016148c3565b935061511b60c08b016148c3565b925060e08a013591506101008a01356151338161493a565b809150509295985092959850929598565b6000806040838503121561515757600080fd5b615160836148c3565b9150602083013561497881614c4f565b60008060006060848603121561518557600080fd5b8335925060208401356001600160401b03808211156151a357600080fd5b6151af87838801614de5565b935060408601359150808211156151c557600080fd5b506151d286828701614f20565b9150509250925092565b600080604083850312156151ef57600080fd5b82519150602083015162ffffff8116811461497857600080fd5b634e487b7160e01b600052601160045260246000fd5b8082018082111561152857611528615209565b6020808252818101527f43616c6c6572206973206e6f74206120666163746f727920636f6e7472616374604082015260600190565b60006020828403121561527957600080fd5b8151613da981614caa565b60008351615296818460208801614ae6565b8351908301906152aa818360208801614ae6565b01949350505050565b8181038181111561152857611528615209565b634e487b7160e01b600052601260045260246000fd5b6000826152eb576152eb6152c6565b500490565b634e487b7160e01b600052603260045260246000fd5b600181811c9082168061531a57607f821691505b6020821081036117f257634e487b7160e01b600052602260045260246000fd5b60006020828403121561534c57600080fd5b5051919050565b805169ffffffffffffffffffff8116811461186f57600080fd5b600080600080600060a0868803121561538557600080fd5b61538e86615353565b94506020860151935060408601519250606086015191506153b160808701615353565b90509295509295909350565b6000602082840312156153cf57600080fd5b8151613da981614c4f565b6000604082840312156153ec57600080fd5b6153f46149c2565b82518152602083015161540681614c7b565b60208201529392505050565b601f821115611ef7576000816000526020600020601f850160051c8101602086101561543b5750805b601f850160051c820191505b8181101561545a57828155600101615447565b505050505050565b81516001600160401b0381111561547b5761547b614983565b61548f816154898454615306565b84615412565b602080601f8311600181146154c457600084156154ac5750858301515b600019600386901b1c1916600185901b17855561545a565b600085815260208120601f198616915b828110156154f3578886015182559484019460019091019084016154d4565b50858210156155115787850151600019600388901b60f8161c191681555b5050505050600190811b01905550565b808202811582820484141761152857611528615209565b60ff828116828216039081111561152857611528615209565b600181815b8085111561558c57816000190482111561557257615572615209565b8085161561557f57918102915b93841c9390800290615556565b509250929050565b6000826155a357506001611528565b816155b057506000611528565b81600181146155c657600281146155d0576155ec565b6001915050611528565b60ff8411156155e1576155e1615209565b50506001821b611528565b5060208310610133831016604e8410600b841016171561560f575081810a611528565b6156198383615551565b806000190482111561562d5761562d615209565b029392505050565b6000613da960ff841683615594565b80820260008212600160ff1b8414161561566057615660615209565b818105831482151761152857611528615209565b6001600160a01b0389811682526020820189905260408201889052861660608201526001600160e01b03198516608082015260a0810184905260c0810183905261010060e08201819052600090614c1e83820185614b0a565b60018060a01b038416815282602082015260606040820152600061139a6060830184614b0a565b60006020828403121561570657600080fd5b8151613da98161493a565b600082615720576157206152c6565b500690565b6000613da9838361559456fe68747470733a2f2f6170702e6e65786c6162732e696f2f6170692f616c6c46756e64696e6752617465733f6d756c7469706c7946756e633d31382674696d65734e656746756e643d74727565266172726179733d74727565a26469706673582212207f016f7633dcb7dd8a08b0bce8cc19b3d5132e369973e9198007bc4692d791af64736f6c63430008190033","linkReferences":{}},"methodIdentifiers":{"actionInfoById(uint256)":"3c1f70ca","baseUrl()":"5bcabf04","burnedTokenAmountByNonce(uint256)":"ab7820b2","buyRequestPayedAmountById(uint256)":"8861d235","calculateBuyRequestFee(uint256)":"06995e3b","calculateIssuanceFee(uint256)":"e19eefbe","cancelIssuanceComplted(uint256)":"7bfa27f2","cancelIssuanceRequestId(uint256,address)":"02e80f71","cancelIssuanceUnfilledAmount(uint256,address)":"9edcf9f4","cancelRedemptionComplted(uint256)":"b46840f9","cancelRedemptionRequestId(uint256,address)":"8c221899","cancelRedemptionUnfilledAmount(uint256,address)":"632439fd","checkCancelIssuanceStatus(uint256)":"631c8385","checkCancelRedemptionStatus(uint256)":"b592662a","checkIssuanceOrdersStatus(uint256)":"2343acb4","checkRedemptionOrdersStatus(uint256)":"3fac0922","concatenation(string,string)":"0e329357","currentList(uint256)":"9932ba4c","externalJobId()":"a8b54bd4","factoryAddress()":"966dae0e","factoryBalancerAddress()":"cb4d4e09","factoryProcessorAddress()":"0acb8d40","feeRate()":"978bbdb9","fulfillAssetsData(bytes32,address[],uint256[])":"f14bea20","getActionInfoById(uint256)":"147726ae","getIssuanceAmountOut(uint256)":"c8da3303","getOrderInstanceById(uint256)":"f1f31d66","getPortfolioValue()":"bb0498de","getPrimaryOrder(bool)":"b12279aa","getRedemptionAmountOut(uint256)":"e2851bd6","getVaultDshareBalance(address)":"a08d7bd6","getVaultDshareValue(address)":"efdf5053","increaseIssuanceNonce()":"5501c6cf","increaseRedemptionNonce()":"7851b905","initialize(address,address,address,address,uint8,address,address,bytes32,bool)":"d57e0493","isIssuanceOrderActive(uint256)":"b0e12134","isMainnet()":"42faac05","isRedemptionOrderActive(uint256)":"0b1a4918","issuanceIndexTokenPrimaryTotalSupply(uint256)":"b1dd819e","issuanceInputAmount(uint256)":"cf9ee319","issuanceIsCompleted(uint256)":"a84ebc17","issuanceNonce()":"9dbb9c9e","issuanceRequestId(uint256,address)":"264fa8b9","issuanceRequesterByNonce(uint256)":"94674098","issuanceTokenPrimaryBalance(uint256,address)":"da65925a","issuer()":"1d143848","lastUpdateTime()":"c8f33c91","latestFeeUpdate()":"011ced5f","latestPriceDecimals()":"0b1fa733","mockFillAssetsList(address[],uint256[])":"addc70d1","oracleList(uint256)":"239aad0d","oraclePayment()":"0c02e130","orderInstanceById(uint256)":"15e666a2","orderManager()":"f9b6117f","owner()":"8da5cb5b","priceFeedByTokenAddress(address)":"08dc4b0c","priceInWei(address)":"6839a095","redemptionIndexTokenPrimaryTotalSupply(uint256)":"daf1c17d","redemptionInputAmount(uint256)":"9cf54521","redemptionIsCompleted(uint256)":"76529fdf","redemptionNonce()":"84d77bb1","redemptionRequestId(uint256,address)":"f513a718","redemptionRequesterByNonce(uint256)":"78032658","redemptionTokenPrimaryBalance(uint256,address)":"a363b9cb","renounceOwnership()":"715018a6","requestAssetsData()":"7ca58c55","sellRequestAssetAmountById(uint256)":"a87f98d2","setActionInfoById(uint256,(uint256,uint256))":"8182492a","setBurnedTokenAmountByNonce(uint256,uint256)":"6188199f","setBuyRequestPayedAmountById(uint256,uint256)":"d1e4a308","setCancelIssuanceComplted(uint256,bool)":"7cd375e2","setCancelIssuanceRequestId(uint256,address,uint256)":"7a6c4b7b","setCancelIssuanceUnfilledAmount(uint256,address,uint256)":"12b6d2e6","setCancelRedemptionComplted(uint256,bool)":"8e97d7e1","setCancelRedemptionRequestId(uint256,address,uint256)":"457e0e0f","setCancelRedemptionUnfilledAmount(uint256,address,uint256)":"6ea86556","setFactory(address)":"5bb47808","setFactoryBalancer(address)":"d5fbea63","setFactoryProcessor(address)":"0499a61d","setFeeRate(uint8)":"5177942a","setIsMainnet(bool)":"991be68e","setIssuanceIndexTokenPrimaryTotalSupply(uint256,uint256)":"99f68da8","setIssuanceInputAmount(uint256,uint256)":"ea5142c8","setIssuanceIsCompleted(uint256,bool)":"d1c0cee6","setIssuanceRequestId(uint256,address,uint256)":"496304a4","setIssuanceRequesterByNonce(uint256,address)":"df1d5ea2","setIssuanceTokenPrimaryBalance(uint256,address,uint256)":"9b2d6e3b","setIssuer(address)":"55cc4e57","setLatestPriceDecimals(uint8)":"32502639","setOracleInfo(address,bytes32)":"43482fc8","setOrderInstanceById(uint256,(uint64,address,address,address,bool,uint8,uint256,uint256,uint256,uint8))":"35c51204","setOrderManager(address)":"c0da840d","setPriceFeedAddresses(address[],address[])":"57b61bc3","setRedemptionIndexTokenPrimaryTotalSupply(uint256,uint256)":"6ea495df","setRedemptionInputAmount(uint256,uint256)":"c7003d1b","setRedemptionIsCompleted(uint256,bool)":"0a1d4270","setRedemptionRequestId(uint256,address,uint256)":"1c7a2959","setRedemptionRequesterByNonce(uint256,address)":"d34ed2ab","setRedemptionTokenPrimaryBalance(uint256,address,uint256)":"21de914f","setSellRequestAssetAmountById(uint256,uint256)":"1e2ad86e","setTokenAddress(address)":"26a4e8d2","setUrl(string,string)":"a73e1cbf","setUsdcAddress(address,uint8)":"eab2a711","setWrappedDShareAddresses(address[],address[])":"b411dc41","token()":"fc0c546a","tokenCurrentListIndex(address)":"914f0cc6","tokenCurrentMarketShare(address)":"0be52713","tokenOracleListIndex(address)":"8c88c10c","tokenOracleMarketShare(address)":"4b3e0b80","totalCurrentList()":"53fd4332","totalOracleList()":"c8599ded","transferOwnership(address)":"f2fde38b","updateCurrentList()":"8baa6bf1","urlParams()":"e789598c","usdc()":"3e413bee","usdcDecimals()":"7bf42165","vault()":"fbfa77cf","wrappedDshareAddress(address)":"092755e0"},"id":19}