{"abi":[{"type":"constructor","inputs":[],"stateMutability":"nonpayable"},{"type":"function","name":"DOMAIN_SEPARATOR","inputs":[],"outputs":[{"name":"result","type":"bytes32","internalType":"bytes32"}],"stateMutability":"view"},{"type":"function","name":"allowance","inputs":[{"name":"owner","type":"address","internalType":"address"},{"name":"spender","type":"address","internalType":"address"}],"outputs":[{"name":"result","type":"uint256","internalType":"uint256"}],"stateMutability":"view"},{"type":"function","name":"approve","inputs":[{"name":"spender","type":"address","internalType":"address"},{"name":"amount","type":"uint256","internalType":"uint256"}],"outputs":[{"name":"","type":"bool","internalType":"bool"}],"stateMutability":"nonpayable"},{"type":"function","name":"asset","inputs":[],"outputs":[{"name":"","type":"address","internalType":"address"}],"stateMutability":"view"},{"type":"function","name":"balanceOf","inputs":[{"name":"owner","type":"address","internalType":"address"}],"outputs":[{"name":"result","type":"uint256","internalType":"uint256"}],"stateMutability":"view"},{"type":"function","name":"convertToAssets","inputs":[{"name":"shares","type":"uint256","internalType":"uint256"}],"outputs":[{"name":"assets","type":"uint256","internalType":"uint256"}],"stateMutability":"view"},{"type":"function","name":"convertToShares","inputs":[{"name":"assets","type":"uint256","internalType":"uint256"}],"outputs":[{"name":"shares","type":"uint256","internalType":"uint256"}],"stateMutability":"view"},{"type":"function","name":"decimals","inputs":[],"outputs":[{"name":"","type":"uint8","internalType":"uint8"}],"stateMutability":"view"},{"type":"function","name":"deposit","inputs":[{"name":"assets","type":"uint256","internalType":"uint256"},{"name":"to","type":"address","internalType":"address"}],"outputs":[{"name":"shares","type":"uint256","internalType":"uint256"}],"stateMutability":"nonpayable"},{"type":"function","name":"initialize","inputs":[{"name":"owner","type":"address","internalType":"address"},{"name":"dShare_","type":"address","internalType":"contract DShare"},{"name":"name_","type":"string","internalType":"string"},{"name":"symbol_","type":"string","internalType":"string"}],"outputs":[],"stateMutability":"nonpayable"},{"type":"function","name":"isBlacklisted","inputs":[{"name":"account","type":"address","internalType":"address"}],"outputs":[{"name":"","type":"bool","internalType":"bool"}],"stateMutability":"view"},{"type":"function","name":"maxDeposit","inputs":[{"name":"to","type":"address","internalType":"address"}],"outputs":[{"name":"maxAssets","type":"uint256","internalType":"uint256"}],"stateMutability":"view"},{"type":"function","name":"maxMint","inputs":[{"name":"to","type":"address","internalType":"address"}],"outputs":[{"name":"maxShares","type":"uint256","internalType":"uint256"}],"stateMutability":"view"},{"type":"function","name":"maxRedeem","inputs":[{"name":"owner","type":"address","internalType":"address"}],"outputs":[{"name":"maxShares","type":"uint256","internalType":"uint256"}],"stateMutability":"view"},{"type":"function","name":"maxWithdraw","inputs":[{"name":"owner","type":"address","internalType":"address"}],"outputs":[{"name":"maxAssets","type":"uint256","internalType":"uint256"}],"stateMutability":"view"},{"type":"function","name":"mint","inputs":[{"name":"shares","type":"uint256","internalType":"uint256"},{"name":"to","type":"address","internalType":"address"}],"outputs":[{"name":"assets","type":"uint256","internalType":"uint256"}],"stateMutability":"nonpayable"},{"type":"function","name":"name","inputs":[],"outputs":[{"name":"","type":"string","internalType":"string"}],"stateMutability":"view"},{"type":"function","name":"nonces","inputs":[{"name":"owner","type":"address","internalType":"address"}],"outputs":[{"name":"result","type":"uint256","internalType":"uint256"}],"stateMutability":"view"},{"type":"function","name":"owner","inputs":[],"outputs":[{"name":"","type":"address","internalType":"address"}],"stateMutability":"view"},{"type":"function","name":"permit","inputs":[{"name":"owner","type":"address","internalType":"address"},{"name":"spender","type":"address","internalType":"address"},{"name":"value","type":"uint256","internalType":"uint256"},{"name":"deadline","type":"uint256","internalType":"uint256"},{"name":"v","type":"uint8","internalType":"uint8"},{"name":"r","type":"bytes32","internalType":"bytes32"},{"name":"s","type":"bytes32","internalType":"bytes32"}],"outputs":[],"stateMutability":"nonpayable"},{"type":"function","name":"previewDeposit","inputs":[{"name":"assets","type":"uint256","internalType":"uint256"}],"outputs":[{"name":"shares","type":"uint256","internalType":"uint256"}],"stateMutability":"view"},{"type":"function","name":"previewMint","inputs":[{"name":"shares","type":"uint256","internalType":"uint256"}],"outputs":[{"name":"assets","type":"uint256","internalType":"uint256"}],"stateMutability":"view"},{"type":"function","name":"previewRedeem","inputs":[{"name":"shares","type":"uint256","internalType":"uint256"}],"outputs":[{"name":"assets","type":"uint256","internalType":"uint256"}],"stateMutability":"view"},{"type":"function","name":"previewWithdraw","inputs":[{"name":"assets","type":"uint256","internalType":"uint256"}],"outputs":[{"name":"shares","type":"uint256","internalType":"uint256"}],"stateMutability":"view"},{"type":"function","name":"redeem","inputs":[{"name":"shares","type":"uint256","internalType":"uint256"},{"name":"to","type":"address","internalType":"address"},{"name":"owner","type":"address","internalType":"address"}],"outputs":[{"name":"assets","type":"uint256","internalType":"uint256"}],"stateMutability":"nonpayable"},{"type":"function","name":"renounceOwnership","inputs":[],"outputs":[],"stateMutability":"nonpayable"},{"type":"function","name":"setName","inputs":[{"name":"name_","type":"string","internalType":"string"}],"outputs":[],"stateMutability":"nonpayable"},{"type":"function","name":"setSymbol","inputs":[{"name":"symbol_","type":"string","internalType":"string"}],"outputs":[],"stateMutability":"nonpayable"},{"type":"function","name":"symbol","inputs":[],"outputs":[{"name":"","type":"string","internalType":"string"}],"stateMutability":"view"},{"type":"function","name":"totalAssets","inputs":[],"outputs":[{"name":"assets","type":"uint256","internalType":"uint256"}],"stateMutability":"view"},{"type":"function","name":"totalSupply","inputs":[],"outputs":[{"name":"result","type":"uint256","internalType":"uint256"}],"stateMutability":"view"},{"type":"function","name":"transfer","inputs":[{"name":"to","type":"address","internalType":"address"},{"name":"amount","type":"uint256","internalType":"uint256"}],"outputs":[{"name":"","type":"bool","internalType":"bool"}],"stateMutability":"nonpayable"},{"type":"function","name":"transferFrom","inputs":[{"name":"from","type":"address","internalType":"address"},{"name":"to","type":"address","internalType":"address"},{"name":"amount","type":"uint256","internalType":"uint256"}],"outputs":[{"name":"","type":"bool","internalType":"bool"}],"stateMutability":"nonpayable"},{"type":"function","name":"transferOwnership","inputs":[{"name":"newOwner","type":"address","internalType":"address"}],"outputs":[],"stateMutability":"nonpayable"},{"type":"function","name":"withdraw","inputs":[{"name":"assets","type":"uint256","internalType":"uint256"},{"name":"to","type":"address","internalType":"address"},{"name":"owner","type":"address","internalType":"address"}],"outputs":[{"name":"shares","type":"uint256","internalType":"uint256"}],"stateMutability":"nonpayable"},{"type":"event","name":"Approval","inputs":[{"name":"owner","type":"address","indexed":true,"internalType":"address"},{"name":"spender","type":"address","indexed":true,"internalType":"address"},{"name":"amount","type":"uint256","indexed":false,"internalType":"uint256"}],"anonymous":false},{"type":"event","name":"Deposit","inputs":[{"name":"by","type":"address","indexed":true,"internalType":"address"},{"name":"owner","type":"address","indexed":true,"internalType":"address"},{"name":"assets","type":"uint256","indexed":false,"internalType":"uint256"},{"name":"shares","type":"uint256","indexed":false,"internalType":"uint256"}],"anonymous":false},{"type":"event","name":"Initialized","inputs":[{"name":"version","type":"uint64","indexed":false,"internalType":"uint64"}],"anonymous":false},{"type":"event","name":"NameSet","inputs":[{"name":"name","type":"string","indexed":false,"internalType":"string"}],"anonymous":false},{"type":"event","name":"OwnershipTransferred","inputs":[{"name":"previousOwner","type":"address","indexed":true,"internalType":"address"},{"name":"newOwner","type":"address","indexed":true,"internalType":"address"}],"anonymous":false},{"type":"event","name":"SymbolSet","inputs":[{"name":"symbol","type":"string","indexed":false,"internalType":"string"}],"anonymous":false},{"type":"event","name":"Transfer","inputs":[{"name":"from","type":"address","indexed":true,"internalType":"address"},{"name":"to","type":"address","indexed":true,"internalType":"address"},{"name":"amount","type":"uint256","indexed":false,"internalType":"uint256"}],"anonymous":false},{"type":"event","name":"Withdraw","inputs":[{"name":"by","type":"address","indexed":true,"internalType":"address"},{"name":"to","type":"address","indexed":true,"internalType":"address"},{"name":"owner","type":"address","indexed":true,"internalType":"address"},{"name":"assets","type":"uint256","indexed":false,"internalType":"uint256"},{"name":"shares","type":"uint256","indexed":false,"internalType":"uint256"}],"anonymous":false},{"type":"error","name":"AllowanceOverflow","inputs":[]},{"type":"error","name":"AllowanceUnderflow","inputs":[]},{"type":"error","name":"DepositMoreThanMax","inputs":[]},{"type":"error","name":"InsufficientAllowance","inputs":[]},{"type":"error","name":"InsufficientBalance","inputs":[]},{"type":"error","name":"InvalidInitialization","inputs":[]},{"type":"error","name":"InvalidPermit","inputs":[]},{"type":"error","name":"MintMoreThanMax","inputs":[]},{"type":"error","name":"NotInitializing","inputs":[]},{"type":"error","name":"OwnableInvalidOwner","inputs":[{"name":"owner","type":"address","internalType":"address"}]},{"type":"error","name":"OwnableUnauthorizedAccount","inputs":[{"name":"account","type":"address","internalType":"address"}]},{"type":"error","name":"PermitExpired","inputs":[]},{"type":"error","name":"RedeemMoreThanMax","inputs":[]},{"type":"error","name":"ReentrancyGuardReentrantCall","inputs":[]},{"type":"error","name":"TotalSupplyOverflow","inputs":[]},{"type":"error","name":"WithdrawMoreThanMax","inputs":[]}],"bytecode":{"object":"0x6080604052348015600f57600080fd5b506016601a565b60ca565b7ff0c57e16840df040f15088dc2f81fe391c3923bec73e23a9662efc9c229c6a00805468010000000000000000900460ff161560695760405163f92ee8a960e01b815260040160405180910390fd5b80546001600160401b039081161460c75780546001600160401b0319166001600160401b0390811782556040519081527fc7f505b2f371ae2175ee4913f4499e1f2633a7b5936321eed1cdaeb6115181d29060200160405180910390a15b50565b611b32806100d96000396000f3fe608060405234801561001057600080fd5b50600436106102115760003560e01c80638da5cb5b11610125578063c63d75b6116100ad578063d905777e1161007c578063d905777e14610466578063dd62ed3e14610479578063ef8b30f7146104a2578063f2fde38b146104b5578063fe575a87146104c857600080fd5b8063c63d75b614610309578063c6e6f5921461042d578063ce96cb7714610440578063d505accf1461045357600080fd5b8063b3d7f6b9116100f4578063b3d7f6b9146103ce578063b460af94146103e1578063b84c8246146103f4578063ba08765214610407578063c47f00271461041a57600080fd5b80638da5cb5b1461039857806394bf804d146103a057806395d89b41146103b3578063a9059cbb146103bb57600080fd5b8063313ce567116101a85780634cdad506116101775780634cdad5061461031e5780636e553f651461033157806370a0823114610344578063715018a61461036a5780637ecebe001461037257600080fd5b8063313ce567146102c75780633644e515146102e157806338d52e0f146102e9578063402d267d1461030957600080fd5b80630a28a477116101e45780630a28a4771461027c57806318160ddd1461028f5780632016a0d21461029f57806323b872dd146102b457600080fd5b806301e1d1141461021657806306fdde031461023157806307a2d13a14610246578063095ea7b314610259575b600080fd5b61021e6104db565b6040519081526020015b60405180910390f35b6102396104f3565b6040516102289190611534565b61021e610254366004611583565b6105b6565b61026c6102673660046115b1565b6105fc565b6040519015158152602001610228565b61021e61028a366004611583565b610650565b6805345cdf77eb68f44c5461021e565b6102b26102ad366004611680565b610689565b005b61026c6102c2366004611709565b610808565b6102cf6108bf565b60405160ff9091168152602001610228565b61021e6108cd565b6102f161094a565b6040516001600160a01b039091168152602001610228565b61021e61031736600461174a565b5060001990565b61021e61032c366004611583565b61096d565b61021e61033f366004611767565b610978565b61021e61035236600461174a565b6387a211a2600c908152600091909152602090205490565b6102b2610991565b61021e61038036600461174a565b6338377508600c908152600091909152602090205490565b6102f16109a5565b61021e6103ae366004611767565b6109ce565b6102396109e7565b61026c6103c93660046115b1565b610a26565b61021e6103dc366004611583565b610a9a565b61021e6103ef366004611797565b610ac8565b6102b26104023660046117d9565b610aff565b61021e610415366004611797565b610b7d565b6102b26104283660046117d9565b610bb4565b61021e61043b366004611583565b610c26565b61021e61044e36600461174a565b610c54565b6102b261046136600461180e565b610c72565b61021e61047436600461174a565b610dfb565b61021e610487366004611885565b602052637f5e9f20600c908152600091909152603490205490565b61021e6104b0366004611583565b610e15565b6102b26104c336600461174a565b610e20565b61026c6104d636600461174a565b610e63565b60006104ee6104e861094a565b30610f71565b905090565b7f152e99b50b5f6a0e49f31b9c18139e0eb82d89de09b8e6a3d245658cb93053018054606091600080516020611abd83398151915291610532906118b3565b80601f016020809104026020016040519081016040528092919081815260200182805461055e906118b3565b80156105ab5780601f10610580576101008083540402835291602001916105ab565b820191906000526020600020905b81548152906001019060200180831161058e57829003601f168201915b505050505091505090565b60006105c4565b9392505050565b60006105bd836105d26104db565b6105dd906001611903565b6105f76105f16805345cdf77eb68f44c5490565b60010190565b610f9d565b600082602052637f5e9f20600c5233600052816034600c205581600052602c5160601c337f8c5be1e5ebec7d5bd14f71427d1e84f3dd0314c0f7b2291e5b200ac8c7c3b92560206000a35060015b92915050565b600061065c565b61103d565b60006105bd836106736805345cdf77eb68f44c5490565b61067e906001611903565b6106576105f16104db565b7ff0c57e16840df040f15088dc2f81fe391c3923bec73e23a9662efc9c229c6a008054600160401b810460ff16159067ffffffffffffffff166000811580156106cf5750825b905060008267ffffffffffffffff1660011480156106ec5750303b155b9050811580156106fa575080155b156107185760405163f92ee8a960e01b815260040160405180910390fd5b845467ffffffffffffffff19166001178555831561074257845460ff60401b1916600160401b1785555b61074b8961106b565b610753611073565b600080516020611abd83398151915280546001600160a01b0319166001600160a01b038a161781557f152e99b50b5f6a0e49f31b9c18139e0eb82d89de09b8e6a3d245658cb93053016107a689826119a4565b50600281016107b588826119a4565b505083156107fd57845460ff60401b19168555604051600181527fc7f505b2f371ae2175ee4913f4499e1f2633a7b5936321eed1cdaeb6115181d29060200160405180910390a15b505050505050505050565b60006108158484846110a1565b8360601b33602052637f5e9f208117600c526034600c2080546001810115610853578085111561084d576313be252b6000526004601cfd5b84810382555b50506387a211a28117600c526020600c2080548085111561087c5763f4d678b86000526004601cfd5b84810382555050836000526020600c208381540181555082602052600c5160601c8160601c600080516020611add833981519152602080a3505060019392505050565b60006104ee60006012611a64565b6000806108d86104f3565b8051906020012090506040517f8b73c3c69bb8fe3d512ecc4cf759cc79239f7b179b0ffacaa9a75d522b39400f81528160208201527fc89efdaa54c0f20c7adf612882df0950f5a951637e0307cdcb4c672f298b8bc6604082015246606082015230608082015260a081209250505090565b600080600080516020611abd8339815191525b546001600160a01b031692915050565b600061064a826105b6565b600061098383610e15565b905061064a338385846111a1565b6109996111ff565b6109a36000611231565b565b6000807f9016d09d72d40fdae2fd8ceac6b6234c7706214fd39c1cd1e609a0528c19930061095d565b60006109d983610a9a565b905061064a338383866111a1565b7f152e99b50b5f6a0e49f31b9c18139e0eb82d89de09b8e6a3d245658cb93053028054606091600080516020611abd83398151915291610532906118b3565b6000610a333384846110a1565b6387a211a2600c52336000526020600c20805480841115610a5c5763f4d678b86000526004601cfd5b83810382555050826000526020600c208281540181555081602052600c5160601c33600080516020611add833981519152602080a350600192915050565b6000806105bd83610aa96104db565b610ab4906001611903565b6106576105f16805345cdf77eb68f44c5490565b6000610ad382610c54565b841115610ae757610ae763936941fc611197565b610af084610650565b90506105bd33848487856112a2565b610b076111ff565b600080516020611abd8339815191527f152e99b50b5f6a0e49f31b9c18139e0eb82d89de09b8e6a3d245658cb9305302610b4183826119a4565b507f3e46ff90086ee29856e77591e82c82ff8ed513379b0fd82e84fc5290dd633c9982604051610b719190611534565b60405180910390a15050565b6000610b8882610dfb565b841115610b9c57610b9c634656425a611197565b610ba58461096d565b90506105bd33848484886112a2565b610bbc6111ff565b600080516020611abd8339815191527f152e99b50b5f6a0e49f31b9c18139e0eb82d89de09b8e6a3d245658cb9305301610bf683826119a4565b507f13c98778b0c1a086bb98d7f1986e15788b5d3a1ad4c492e1d78f1c4cc51c20cf82604051610b719190611534565b6000806105bd83610c3e6805345cdf77eb68f44c5490565b610c49906001611903565b6105f76105f16104db565b6387a211a2600c908152600082815260209091205461064a906105b6565b6000610c7c6104f3565b80519060200120905084421115610c9b57631a15a3cc6000526004601cfd5b6040518860601b60601c98508760601b60601c975065383775081901600e52886000526020600c2080547f8b73c3c69bb8fe3d512ecc4cf759cc79239f7b179b0ffacaa9a75d522b39400f83528360208401527fc89efdaa54c0f20c7adf612882df0950f5a951637e0307cdcb4c672f298b8bc6604084015246606084015230608084015260a08320602e527f6e71edae12b1b97f4d1f60370fef10105fa2faae0126114a169c64845d6126c983528a60208401528960408401528860608401528060808401528760a084015260c08320604e526042602c206000528660ff1660205285604052846060526020806080600060015afa8b3d5114610da75763ddafbaef6000526004601cfd5b0190556303faf4f960a51b88176040526034602c2087905587897f8c5be1e5ebec7d5bd14f71427d1e84f3dd0314c0f7b2291e5b200ac8c7c3b925602060608501a360405250506000606052505050505050565b6387a211a2600c908152600082815260209091205461064a565b600061064a82610c26565b610e286111ff565b6001600160a01b038116610e5757604051631e4fbdf760e01b8152600060048201526024015b60405180910390fd5b610e6081611231565b50565b600080516020611abd833981519152805460408051636a7609bd60e11b815290516000939284926001600160a01b039091169163d4ec137a916004808201926020929091908290030181865afa158015610ec1573d6000803e3d6000fd5b505050506040513d601f19601f82011682018060405250810190610ee59190611a7d565b90506001600160a01b038116610eff575060009392505050565b60405163fe575a8760e01b81526001600160a01b03858116600483015282169063fe575a8790602401602060405180830381865afa158015610f45573d6000803e3d6000fd5b505050506040513d601f19601f82011682018060405250810190610f699190611a9a565b949350505050565b6000816014526370a0823160601b60005260208060246010865afa601f3d111660205102905092915050565b8282026000198385098181108201900380610fce5782610fc55763ae47f7026000526004601cfd5b508190046105bd565b808311610fe35763ae47f7026000526004601cfd5b82848609600084810385169485900494848311909303908390038390046001010292030417600260038302811880840282030280840282030280840282030280840282030280840282030280840290910302029392505050565b600061104a848484610f9d565b905081838509156105bd57600101806105bd5763ae47f7026000526004601cfd5b610e28611327565b61107b611327565b60017f9b779b17422d0df92223018b32b4d1fa46e071723d6817e2486d003becc55f0055565b600080516020611abd833981519152805460408051636a7609bd60e11b815290516000926001600160a01b03169163d4ec137a9160048083019260209291908290030181865afa1580156110f9573d6000803e3d6000fd5b505050506040513d601f19601f8201168201806040525081019061111d9190611a7d565b90506001600160a01b0381161561118b576040516329e019e160e11b81526001600160a01b03868116600483015285811660248301528216906353c033c29060440160006040518083038186803b15801561117757600080fd5b505afa1580156107fd573d6000803e3d6000fd5b5050505050565b505050565b806000526004601cfd5b6111b46111ac61094a565b853085611370565b6111be83826113c4565b816000528060205260001960601c8381168582167fdcbc1c05240f31ff3ad067ef1ee35ce4997762752e3a095284754544f4c709d760406000a35050505050565b336112086109a5565b6001600160a01b0316146109a35760405163118cdaa760e01b8152336004820152602401610e4e565b7f9016d09d72d40fdae2fd8ceac6b6234c7706214fd39c1cd1e609a0528c19930080546001600160a01b031981166001600160a01b03848116918217845560405192169182907f8be0079c531659141344cd1fd0a4f28419497f9722a3daafe3b4186f6b6457e090600090a3505050565b826001600160a01b0316856001600160a01b0316146112c6576112c683868361143d565b6112d0838261147d565b6112e26112db61094a565b85846114ee565b816000528060205260001960601c8381168582168783167ffbde797d201c681b91056529119e0b02407c7bb96a4a2c75c01fc9667232c8db60406000a4505050505050565b7ff0c57e16840df040f15088dc2f81fe391c3923bec73e23a9662efc9c229c6a0054600160401b900460ff166109a357604051631afcd79f60e31b815260040160405180910390fd5b60405181606052826040528360601b602c526323b872dd60601b600c52602060006064601c6000895af13d1560016000511417166113b657637939f4246000526004601cfd5b600060605260405250505050565b6113d0600083836110a1565b6805345cdf77eb68f44c54818101818110156113f45763e5cfe9576000526004601cfd5b806805345cdf77eb68f44c5550506387a211a2600c52816000526020600c208181540181555080602052600c5160601c6000600080516020611add833981519152602080a35050565b81602052637f5e9f20600c52826000526034600c208054600181011561118b5780831115611473576313be252b6000526004601cfd5b9190910390555050565b611489826000836110a1565b6387a211a2600c52816000526020600c208054808311156114b25763f4d678b86000526004601cfd5b82900390556805345cdf77eb68f44c8054829003905560008181526001600160a01b038316600080516020611add833981519152602083a35050565b816014528060345263a9059cbb60601b60005260206000604460106000875af13d15600160005114171661152a576390b8ec186000526004601cfd5b6000603452505050565b60006020808352835180602085015260005b8181101561156257858101830151858201604001528201611546565b506000604082860101526040601f19601f8301168501019250505092915050565b60006020828403121561159557600080fd5b5035919050565b6001600160a01b0381168114610e6057600080fd5b600080604083850312156115c457600080fd5b82356115cf8161159c565b946020939093013593505050565b634e487b7160e01b600052604160045260246000fd5b600082601f83011261160457600080fd5b813567ffffffffffffffff8082111561161f5761161f6115dd565b604051601f8301601f19908116603f01168101908282118183101715611647576116476115dd565b8160405283815286602085880101111561166057600080fd5b836020870160208301376000602085830101528094505050505092915050565b6000806000806080858703121561169657600080fd5b84356116a18161159c565b935060208501356116b18161159c565b9250604085013567ffffffffffffffff808211156116ce57600080fd5b6116da888389016115f3565b935060608701359150808211156116f057600080fd5b506116fd878288016115f3565b91505092959194509250565b60008060006060848603121561171e57600080fd5b83356117298161159c565b925060208401356117398161159c565b929592945050506040919091013590565b60006020828403121561175c57600080fd5b81356105bd8161159c565b6000806040838503121561177a57600080fd5b82359150602083013561178c8161159c565b809150509250929050565b6000806000606084860312156117ac57600080fd5b8335925060208401356117be8161159c565b915060408401356117ce8161159c565b809150509250925092565b6000602082840312156117eb57600080fd5b813567ffffffffffffffff81111561180257600080fd5b610f69848285016115f3565b600080600080600080600060e0888a03121561182957600080fd5b87356118348161159c565b965060208801356118448161159c565b95506040880135945060608801359350608088013560ff8116811461186857600080fd5b9699959850939692959460a0840135945060c09093013592915050565b6000806040838503121561189857600080fd5b82356118a38161159c565b9150602083013561178c8161159c565b600181811c908216806118c757607f821691505b6020821081036118e757634e487b7160e01b600052602260045260246000fd5b50919050565b634e487b7160e01b600052601160045260246000fd5b8082018082111561064a5761064a6118ed565b8085111561194c578160001904821115611932576119326118ed565b8085161561193f57918102915b93841c9390800290611916565b509250929050565b601f821115611192576000816000526020600020601f850160051c8101602086101561197d5750805b601f850160051c820191505b8181101561199c57828155600101611989565b505050505050565b815167ffffffffffffffff8111156119be576119be6115dd565b6119d2816119cc84546118b3565b84611954565b602080601f831160018114611a0757600084156119ef5750858301515b600019600386901b1c1916600185901b17855561199c565b600085815260208120601f198616915b82811015611a3657888601518255948401946001909101908401611a17565b5085821015611a545787850151600019600388901b60f8161c191681555b5050505050600190811b01905550565b60ff818116838216019081111561064a5761064a6118ed565b600060208284031215611a8f57600080fd5b81516105bd8161159c565b600060208284031215611aac57600080fd5b815180151581146105bd57600080fdfe152e99b50b5f6a0e49f31b9c18139e0eb82d89de09b8e6a3d245658cb9305300ddf252ad1be2c89b69c2b068fc378daa952ba7f163c4a11628f55a4df523b3efa26469706673582212202fda586749770f57eaf8c7a78564fb0609a42c5f1a663e4f27dc269b5bee7a2764736f6c63430008190033","linkReferences":{}},"methodIdentifiers":{"DOMAIN_SEPARATOR()":"3644e515","allowance(address,address)":"dd62ed3e","approve(address,uint256)":"095ea7b3","asset()":"38d52e0f","balanceOf(address)":"70a08231","convertToAssets(uint256)":"07a2d13a","convertToShares(uint256)":"c6e6f592","decimals()":"313ce567","deposit(uint256,address)":"6e553f65","initialize(address,address,string,string)":"2016a0d2","isBlacklisted(address)":"fe575a87","maxDeposit(address)":"402d267d","maxMint(address)":"c63d75b6","maxRedeem(address)":"d905777e","maxWithdraw(address)":"ce96cb77","mint(uint256,address)":"94bf804d","name()":"06fdde03","nonces(address)":"7ecebe00","owner()":"8da5cb5b","permit(address,address,uint256,uint256,uint8,bytes32,bytes32)":"d505accf","previewDeposit(uint256)":"ef8b30f7","previewMint(uint256)":"b3d7f6b9","previewRedeem(uint256)":"4cdad506","previewWithdraw(uint256)":"0a28a477","redeem(uint256,address,address)":"ba087652","renounceOwnership()":"715018a6","setName(string)":"c47f0027","setSymbol(string)":"b84c8246","symbol()":"95d89b41","totalAssets()":"01e1d114","totalSupply()":"18160ddd","transfer(address,uint256)":"a9059cbb","transferFrom(address,address,uint256)":"23b872dd","transferOwnership(address)":"f2fde38b","withdraw(uint256,address,address)":"b460af94"},"id":10}