{"abi":[{"type":"constructor","inputs":[],"stateMutability":"nonpayable"},{"type":"function","name":"DOMAIN_SEPARATOR","inputs":[],"outputs":[{"name":"result","type":"bytes32","internalType":"bytes32"}],"stateMutability":"view"},{"type":"function","name":"allowance","inputs":[{"name":"owner","type":"address","internalType":"address"},{"name":"spender","type":"address","internalType":"address"}],"outputs":[{"name":"result","type":"uint256","internalType":"uint256"}],"stateMutability":"view"},{"type":"function","name":"approve","inputs":[{"name":"spender","type":"address","internalType":"address"},{"name":"amount","type":"uint256","internalType":"uint256"}],"outputs":[{"name":"","type":"bool","internalType":"bool"}],"stateMutability":"nonpayable"},{"type":"function","name":"asset","inputs":[],"outputs":[{"name":"","type":"address","internalType":"address"}],"stateMutability":"view"},{"type":"function","name":"balanceOf","inputs":[{"name":"owner","type":"address","internalType":"address"}],"outputs":[{"name":"result","type":"uint256","internalType":"uint256"}],"stateMutability":"view"},{"type":"function","name":"convertToAssets","inputs":[{"name":"shares","type":"uint256","internalType":"uint256"}],"outputs":[{"name":"assets","type":"uint256","internalType":"uint256"}],"stateMutability":"view"},{"type":"function","name":"convertToShares","inputs":[{"name":"assets","type":"uint256","internalType":"uint256"}],"outputs":[{"name":"shares","type":"uint256","internalType":"uint256"}],"stateMutability":"view"},{"type":"function","name":"decimals","inputs":[],"outputs":[{"name":"","type":"uint8","internalType":"uint8"}],"stateMutability":"view"},{"type":"function","name":"deposit","inputs":[{"name":"assets","type":"uint256","internalType":"uint256"},{"name":"to","type":"address","internalType":"address"}],"outputs":[{"name":"shares","type":"uint256","internalType":"uint256"}],"stateMutability":"nonpayable"},{"type":"function","name":"initialize","inputs":[{"name":"owner","type":"address","internalType":"address"},{"name":"dShare_","type":"address","internalType":"contract DShare"},{"name":"name_","type":"string","internalType":"string"},{"name":"symbol_","type":"string","internalType":"string"}],"outputs":[],"stateMutability":"nonpayable"},{"type":"function","name":"isBlacklisted","inputs":[{"name":"account","type":"address","internalType":"address"}],"outputs":[{"name":"","type":"bool","internalType":"bool"}],"stateMutability":"view"},{"type":"function","name":"maxDeposit","inputs":[{"name":"to","type":"address","internalType":"address"}],"outputs":[{"name":"maxAssets","type":"uint256","internalType":"uint256"}],"stateMutability":"view"},{"type":"function","name":"maxMint","inputs":[{"name":"to","type":"address","internalType":"address"}],"outputs":[{"name":"maxShares","type":"uint256","internalType":"uint256"}],"stateMutability":"view"},{"type":"function","name":"maxRedeem","inputs":[{"name":"owner","type":"address","internalType":"address"}],"outputs":[{"name":"maxShares","type":"uint256","internalType":"uint256"}],"stateMutability":"view"},{"type":"function","name":"maxWithdraw","inputs":[{"name":"owner","type":"address","internalType":"address"}],"outputs":[{"name":"maxAssets","type":"uint256","internalType":"uint256"}],"stateMutability":"view"},{"type":"function","name":"mint","inputs":[{"name":"shares","type":"uint256","internalType":"uint256"},{"name":"to","type":"address","internalType":"address"}],"outputs":[{"name":"assets","type":"uint256","internalType":"uint256"}],"stateMutability":"nonpayable"},{"type":"function","name":"name","inputs":[],"outputs":[{"name":"","type":"string","internalType":"string"}],"stateMutability":"view"},{"type":"function","name":"nonces","inputs":[{"name":"owner","type":"address","internalType":"address"}],"outputs":[{"name":"result","type":"uint256","internalType":"uint256"}],"stateMutability":"view"},{"type":"function","name":"owner","inputs":[],"outputs":[{"name":"","type":"address","internalType":"address"}],"stateMutability":"view"},{"type":"function","name":"permit","inputs":[{"name":"owner","type":"address","internalType":"address"},{"name":"spender","type":"address","internalType":"address"},{"name":"value","type":"uint256","internalType":"uint256"},{"name":"deadline","type":"uint256","internalType":"uint256"},{"name":"v","type":"uint8","internalType":"uint8"},{"name":"r","type":"bytes32","internalType":"bytes32"},{"name":"s","type":"bytes32","internalType":"bytes32"}],"outputs":[],"stateMutability":"nonpayable"},{"type":"function","name":"previewDeposit","inputs":[{"name":"assets","type":"uint256","internalType":"uint256"}],"outputs":[{"name":"shares","type":"uint256","internalType":"uint256"}],"stateMutability":"view"},{"type":"function","name":"previewMint","inputs":[{"name":"shares","type":"uint256","internalType":"uint256"}],"outputs":[{"name":"assets","type":"uint256","internalType":"uint256"}],"stateMutability":"view"},{"type":"function","name":"previewRedeem","inputs":[{"name":"shares","type":"uint256","internalType":"uint256"}],"outputs":[{"name":"assets","type":"uint256","internalType":"uint256"}],"stateMutability":"view"},{"type":"function","name":"previewWithdraw","inputs":[{"name":"assets","type":"uint256","internalType":"uint256"}],"outputs":[{"name":"shares","type":"uint256","internalType":"uint256"}],"stateMutability":"view"},{"type":"function","name":"redeem","inputs":[{"name":"shares","type":"uint256","internalType":"uint256"},{"name":"to","type":"address","internalType":"address"},{"name":"owner","type":"address","internalType":"address"}],"outputs":[{"name":"assets","type":"uint256","internalType":"uint256"}],"stateMutability":"nonpayable"},{"type":"function","name":"renounceOwnership","inputs":[],"outputs":[],"stateMutability":"nonpayable"},{"type":"function","name":"setName","inputs":[{"name":"name_","type":"string","internalType":"string"}],"outputs":[],"stateMutability":"nonpayable"},{"type":"function","name":"setSymbol","inputs":[{"name":"symbol_","type":"string","internalType":"string"}],"outputs":[],"stateMutability":"nonpayable"},{"type":"function","name":"symbol","inputs":[],"outputs":[{"name":"","type":"string","internalType":"string"}],"stateMutability":"view"},{"type":"function","name":"totalAssets","inputs":[],"outputs":[{"name":"assets","type":"uint256","internalType":"uint256"}],"stateMutability":"view"},{"type":"function","name":"totalSupply","inputs":[],"outputs":[{"name":"result","type":"uint256","internalType":"uint256"}],"stateMutability":"view"},{"type":"function","name":"transfer","inputs":[{"name":"to","type":"address","internalType":"address"},{"name":"amount","type":"uint256","internalType":"uint256"}],"outputs":[{"name":"","type":"bool","internalType":"bool"}],"stateMutability":"nonpayable"},{"type":"function","name":"transferFrom","inputs":[{"name":"from","type":"address","internalType":"address"},{"name":"to","type":"address","internalType":"address"},{"name":"amount","type":"uint256","internalType":"uint256"}],"outputs":[{"name":"","type":"bool","internalType":"bool"}],"stateMutability":"nonpayable"},{"type":"function","name":"transferOwnership","inputs":[{"name":"newOwner","type":"address","internalType":"address"}],"outputs":[],"stateMutability":"nonpayable"},{"type":"function","name":"withdraw","inputs":[{"name":"assets","type":"uint256","internalType":"uint256"},{"name":"to","type":"address","internalType":"address"},{"name":"owner","type":"address","internalType":"address"}],"outputs":[{"name":"shares","type":"uint256","internalType":"uint256"}],"stateMutability":"nonpayable"},{"type":"event","name":"Approval","inputs":[{"name":"owner","type":"address","indexed":true,"internalType":"address"},{"name":"spender","type":"address","indexed":true,"internalType":"address"},{"name":"amount","type":"uint256","indexed":false,"internalType":"uint256"}],"anonymous":false},{"type":"event","name":"Deposit","inputs":[{"name":"by","type":"address","indexed":true,"internalType":"address"},{"name":"owner","type":"address","indexed":true,"internalType":"address"},{"name":"assets","type":"uint256","indexed":false,"internalType":"uint256"},{"name":"shares","type":"uint256","indexed":false,"internalType":"uint256"}],"anonymous":false},{"type":"event","name":"Initialized","inputs":[{"name":"version","type":"uint64","indexed":false,"internalType":"uint64"}],"anonymous":false},{"type":"event","name":"NameSet","inputs":[{"name":"name","type":"string","indexed":false,"internalType":"string"}],"anonymous":false},{"type":"event","name":"OwnershipTransferred","inputs":[{"name":"previousOwner","type":"address","indexed":true,"internalType":"address"},{"name":"newOwner","type":"address","indexed":true,"internalType":"address"}],"anonymous":false},{"type":"event","name":"SymbolSet","inputs":[{"name":"symbol","type":"string","indexed":false,"internalType":"string"}],"anonymous":false},{"type":"event","name":"Transfer","inputs":[{"name":"from","type":"address","indexed":true,"internalType":"address"},{"name":"to","type":"address","indexed":true,"internalType":"address"},{"name":"amount","type":"uint256","indexed":false,"internalType":"uint256"}],"anonymous":false},{"type":"event","name":"Withdraw","inputs":[{"name":"by","type":"address","indexed":true,"internalType":"address"},{"name":"to","type":"address","indexed":true,"internalType":"address"},{"name":"owner","type":"address","indexed":true,"internalType":"address"},{"name":"assets","type":"uint256","indexed":false,"internalType":"uint256"},{"name":"shares","type":"uint256","indexed":false,"internalType":"uint256"}],"anonymous":false},{"type":"error","name":"AllowanceOverflow","inputs":[]},{"type":"error","name":"AllowanceUnderflow","inputs":[]},{"type":"error","name":"DepositMoreThanMax","inputs":[]},{"type":"error","name":"InsufficientAllowance","inputs":[]},{"type":"error","name":"InsufficientBalance","inputs":[]},{"type":"error","name":"InvalidInitialization","inputs":[]},{"type":"error","name":"InvalidPermit","inputs":[]},{"type":"error","name":"MintMoreThanMax","inputs":[]},{"type":"error","name":"NotInitializing","inputs":[]},{"type":"error","name":"OwnableInvalidOwner","inputs":[{"name":"owner","type":"address","internalType":"address"}]},{"type":"error","name":"OwnableUnauthorizedAccount","inputs":[{"name":"account","type":"address","internalType":"address"}]},{"type":"error","name":"PermitExpired","inputs":[]},{"type":"error","name":"RedeemMoreThanMax","inputs":[]},{"type":"error","name":"ReentrancyGuardReentrantCall","inputs":[]},{"type":"error","name":"TotalSupplyOverflow","inputs":[]},{"type":"error","name":"WithdrawMoreThanMax","inputs":[]}],"bytecode":{"object":"0x608060405234801561001057600080fd5b5061001f61002460201b60201c565b61018e565b600061003461012860201b60201c565b90508060000160089054906101000a900460ff161561007f576040517ff92ee8a900000000000000000000000000000000000000000000000000000000815260040160405180910390fd5b67ffffffffffffffff80168160000160009054906101000a900467ffffffffffffffff1667ffffffffffffffff16146101255767ffffffffffffffff8160000160006101000a81548167ffffffffffffffff021916908367ffffffffffffffff1602179055507fc7f505b2f371ae2175ee4913f4499e1f2633a7b5936321eed1cdaeb6115181d267ffffffffffffffff60405161011c9190610173565b60405180910390a15b50565b60007ff0c57e16840df040f15088dc2f81fe391c3923bec73e23a9662efc9c229c6a00905090565b600067ffffffffffffffff82169050919050565b61016d81610150565b82525050565b60006020820190506101886000830184610164565b92915050565b612ed48061019d6000396000f3fe608060405234801561001057600080fd5b50600436106102115760003560e01c80638da5cb5b11610125578063c63d75b6116100ad578063d905777e1161007c578063d905777e146106b0578063dd62ed3e146106e0578063ef8b30f714610710578063f2fde38b14610740578063fe575a871461075c57610211565b8063c63d75b614610604578063c6e6f59214610634578063ce96cb7714610664578063d505accf1461069457610211565b8063b3d7f6b9116100f4578063b3d7f6b91461053c578063b460af941461056c578063b84c82461461059c578063ba087652146105b8578063c47f0027146105e857610211565b80638da5cb5b146104a057806394bf804d146104be57806395d89b41146104ee578063a9059cbb1461050c57610211565b8063313ce567116101a85780634cdad506116101775780634cdad506146103d65780636e553f651461040657806370a0823114610436578063715018a6146104665780637ecebe001461047057610211565b8063313ce5671461034c5780633644e5151461036a57806338d52e0f14610388578063402d267d146103a657610211565b80630a28a477116101e45780630a28a477146102b257806318160ddd146102e25780632016a0d21461030057806323b872dd1461031c57610211565b806301e1d1141461021657806306fdde031461023457806307a2d13a14610252578063095ea7b314610282575b600080fd5b61021e61078c565b60405161022b9190612108565b60405180910390f35b61023c6107a4565b60405161024991906121b3565b60405180910390f35b61026c60048036038101906102679190612215565b610845565b6040516102799190612108565b60405180910390f35b61029c600480360381019061029791906122a0565b610921565b6040516102a991906122fb565b60405180910390f35b6102cc60048036038101906102c79190612215565b610975565b6040516102d99190612108565b60405180910390f35b6102ea610a53565b6040516102f79190612108565b60405180910390f35b61031a60048036038101906103159190612489565b610a65565b005b61033660048036038101906103319190612528565b610c73565b60405161034391906122fb565b60405180910390f35b610354610d48565b6040516103619190612597565b60405180910390f35b610372610d85565b60405161037f91906125cb565b60405180910390f35b610390610e17565b60405161039d91906125f5565b60405180910390f35b6103c060048036038101906103bb9190612610565b610e4f565b6040516103cd9190612108565b60405180910390f35b6103f060048036038101906103eb9190612215565b610e79565b6040516103fd9190612108565b60405180910390f35b610420600480360381019061041b919061263d565b610e8b565b60405161042d9190612108565b60405180910390f35b610450600480360381019061044b9190612610565b610ec8565b60405161045d9190612108565b60405180910390f35b61046e610ee3565b005b61048a60048036038101906104859190612610565b610ef7565b6040516104979190612108565b60405180910390f35b6104a8610f12565b6040516104b591906125f5565b60405180910390f35b6104d860048036038101906104d3919061263d565b610f4a565b6040516104e59190612108565b60405180910390f35b6104f6610f87565b60405161050391906121b3565b60405180910390f35b610526600480360381019061052191906122a0565b611028565b60405161053391906122fb565b60405180910390f35b61055660048036038101906105519190612215565b6110ba565b6040516105639190612108565b60405180910390f35b6105866004803603810190610581919061267d565b611196565b6040516105939190612108565b60405180910390f35b6105b660048036038101906105b191906126d0565b6111d5565b005b6105d260048036038101906105cd919061267d565b611236565b6040516105df9190612108565b60405180910390f35b61060260048036038101906105fd91906126d0565b611275565b005b61061e60048036038101906106199190612610565b6112d6565b60405161062b9190612108565b60405180910390f35b61064e60048036038101906106499190612215565b611300565b60405161065b9190612108565b60405180910390f35b61067e60048036038101906106799190612610565b6113de565b60405161068b9190612108565b60405180910390f35b6106ae60048036038101906106a99190612771565b6113f8565b005b6106ca60048036038101906106c59190612610565b61159c565b6040516106d79190612108565b60405180910390f35b6106fa60048036038101906106f59190612813565b6115ae565b6040516107079190612108565b60405180910390f35b61072a60048036038101906107259190612215565b6115ce565b6040516107379190612108565b60405180910390f35b61075a60048036038101906107559190612610565b6115e0565b005b61077660048036038101906107719190612610565b611666565b60405161078391906122fb565b60405180910390f35b600061079f610799610e17565b306117cd565b905090565b606060006107b0611802565b90508060010180546107c190612882565b80601f01602080910402602001604051908101604052809291908181526020018280546107ed90612882565b801561083a5780601f1061080f5761010080835404028352916020019161083a565b820191906000526020600020905b81548152906001019060200180831161081d57829003601f168201915b505050505091505090565b600061084f61182a565b61089057600061085d610a53565b90506000811461087e576108798361087361078c565b83611833565b610888565b610887836118fc565b5b91505061091c565b600061089a611906565b60ff169050600081036108dc576108d48360016108b561078c565b6108bf91906128e2565b6108cf6108ca610a53565b61190b565b611833565b91505061091c565b6109188360016108ea61078c565b6108f491906128e2565b83600a6109019190612a49565b610909610a53565b61091391906128e2565b611833565b9150505b919050565b600082602052637f5e9f20600c5233600052816034600c205581600052602c5160601c337f8c5be1e5ebec7d5bd14f71427d1e84f3dd0314c0f7b2291e5b200ac8c7c3b92560206000a36001905092915050565b600061097f61182a565b6109c657600061098d610a53565b90506109998382611918565b6109b4576109af83826109aa61078c565b611927565b6109be565b6109bd83611960565b5b915050610a4e565b60006109d0611906565b60ff16905060008103610a1257610a0a8360016109eb610a53565b6109f591906128e2565b610a05610a0061078c565b61190b565b611927565b915050610a4e565b610a4a8382600a610a239190612a49565b610a2b610a53565b610a3591906128e2565b610a45610a4061078c565b61190b565b611927565b9150505b919050565b60006805345cdf77eb68f44c54905090565b6000610a6f61196a565b905060008160000160089054906101000a900460ff1615905060008260000160009054906101000a900467ffffffffffffffff1690506000808267ffffffffffffffff16148015610abd5750825b9050600060018367ffffffffffffffff16148015610af2575060003073ffffffffffffffffffffffffffffffffffffffff163b145b905081158015610b00575080155b15610b37576040517ff92ee8a900000000000000000000000000000000000000000000000000000000815260040160405180910390fd5b60018560000160006101000a81548167ffffffffffffffff021916908367ffffffffffffffff1602179055508315610b875760018560000160086101000a81548160ff0219169083151502179055505b610b9089611992565b610b98611a18565b6000610ba2611802565b9050888160000160006101000a81548173ffffffffffffffffffffffffffffffffffffffff021916908373ffffffffffffffffffffffffffffffffffffffff16021790555087816001019081610bf89190612c40565b5086816002019081610c0a9190612c40565b50508315610c685760008560000160086101000a81548160ff0219169083151502179055507fc7f505b2f371ae2175ee4913f4499e1f2633a7b5936321eed1cdaeb6115181d26001604051610c5f9190612d61565b60405180910390a15b505050505050505050565b6000610c80848484611a39565b8360601b33602052637f5e9f208117600c526034600c2080546001810115610cbe5780851115610cb8576313be252b6000526004601cfd5b84810382555b6387a211a28317600c526020600c20805480871115610ce55763f4d678b86000526004601cfd5b8681038255876000526020600c2087815401815587602052600c5160601c8660601c7fddf252ad1be2c89b69c2b068fc378daa952ba7f163c4a11628f55a4df523b3ef602080a3505050505050610d3d848484611b83565b600190509392505050565b6000610d5261182a565b610d6557610d5e611b88565b9050610d82565b610d6d611906565b610d75611b88565b610d7f9190612d7c565b90505b90565b600080610d90611b91565b90506000801b8103610dae57610da46107a4565b8051906020012090505b6040517f8b73c3c69bb8fe3d512ecc4cf759cc79239f7b179b0ffacaa9a75d522b39400f81528160208201527fc89efdaa54c0f20c7adf612882df0950f5a951637e0307cdcb4c672f298b8bc6604082015246606082015230608082015260a081209250505090565b600080610e22611802565b90508060000160009054906101000a900473ffffffffffffffffffffffffffffffffffffffff1691505090565b60007fffffffffffffffffffffffffffffffffffffffffffffffffffffffffffffffff9050919050565b6000610e8482610845565b9050919050565b6000610e9682610e4f565b831115610eab57610eaa63b3c61a83611b96565b5b610eb4836115ce565b9050610ec233838584611ba0565b92915050565b60006387a211a2600c52816000526020600c20549050919050565b610eeb611c08565b610ef56000611c8f565b565b60006338377508600c52816000526020600c20549050919050565b600080610f1d611d66565b90508060000160009054906101000a900473ffffffffffffffffffffffffffffffffffffffff1691505090565b6000610f55826112d6565b831115610f6a57610f69636a695959611b96565b5b610f73836110ba565b9050610f8133838386611ba0565b92915050565b60606000610f93611802565b9050806002018054610fa490612882565b80601f0160208091040260200160405190810160405280929190818152602001828054610fd090612882565b801561101d5780601f10610ff25761010080835404028352916020019161101d565b820191906000526020600020905b81548152906001019060200180831161100057829003601f168201915b505050505091505090565b6000611035338484611a39565b6387a211a2600c52336000526020600c2080548084111561105e5763f4d678b86000526004601cfd5b8381038255846000526020600c2084815401815584602052600c5160601c337fddf252ad1be2c89b69c2b068fc378daa952ba7f163c4a11628f55a4df523b3ef602080a35050506110b0338484611b83565b6001905092915050565b60006110c461182a565b6111055760006110d2610a53565b9050600081146110f3576110ee836110e861078c565b83611927565b6110fd565b6110fc836118fc565b5b915050611191565b600061110f611906565b60ff169050600081036111515761114983600161112a61078c565b61113491906128e2565b61114461113f610a53565b61190b565b611927565b915050611191565b61118d83600161115f61078c565b61116991906128e2565b83600a6111769190612a49565b61117e610a53565b61118891906128e2565b611927565b9150505b919050565b60006111a1826113de565b8411156111b6576111b563936941fc611b96565b5b6111bf84610975565b90506111ce3384848785611d8e565b9392505050565b6111dd611c08565b60006111e7611802565b9050818160020190816111fa9190612c40565b507f3e46ff90086ee29856e77591e82c82ff8ed513379b0fd82e84fc5290dd633c998260405161122a91906121b3565b60405180910390a15050565b60006112418261159c565b84111561125657611255634656425a611b96565b5b61125f84610e79565b905061126e3384848488611d8e565b9392505050565b61127d611c08565b6000611287611802565b90508181600101908161129a9190612c40565b507f13c98778b0c1a086bb98d7f1986e15788b5d3a1ad4c492e1d78f1c4cc51c20cf826040516112ca91906121b3565b60405180910390a15050565b60007fffffffffffffffffffffffffffffffffffffffffffffffffffffffffffffffff9050919050565b600061130a61182a565b611351576000611318610a53565b90506113248382611918565b61133f5761133a838261133561078c565b611833565b611349565b61134883611960565b5b9150506113d9565b600061135b611906565b60ff1690506000810361139d57611395836001611376610a53565b61138091906128e2565b61139061138b61078c565b61190b565b611833565b9150506113d9565b6113d58382600a6113ae9190612a49565b6113b6610a53565b6113c091906128e2565b6113d06113cb61078c565b61190b565b611833565b9150505b919050565b60006113f16113ec83610ec8565b610845565b9050919050565b6000611402611b91565b90506000801b8103611420576114166107a4565b8051906020012090505b8442111561143657631a15a3cc6000526004601cfd5b6040518860601b60601c98508760601b60601c975065383775081901600e52886000526020600c2080547f8b73c3c69bb8fe3d512ecc4cf759cc79239f7b179b0ffacaa9a75d522b39400f83528360208401527fc89efdaa54c0f20c7adf612882df0950f5a951637e0307cdcb4c672f298b8bc6604084015246606084015230608084015260a08320602e527f6e71edae12b1b97f4d1f60370fef10105fa2faae0126114a169c64845d6126c983528a60208401528960408401528860608401528060808401528760a084015260c08320604e526042602c206000528660ff1660205285604052846060526020806080600060015afa8b3d51146115425763ddafbaef6000526004601cfd5b80820183558a637f5e9f2060a01b17604052896034602c20558a8c7f8c5be1e5ebec7d5bd14f71427d1e84f3dd0314c0f7b2291e5b200ac8c7c3b925602060608801a3836040526000606052505050505050505050505050565b60006115a782610ec8565b9050919050565b600081602052637f5e9f20600c52826000526034600c2054905092915050565b60006115d982611300565b9050919050565b6115e8611c08565b600073ffffffffffffffffffffffffffffffffffffffff168173ffffffffffffffffffffffffffffffffffffffff160361165a5760006040517f1e4fbdf700000000000000000000000000000000000000000000000000000000815260040161165191906125f5565b60405180910390fd5b61166381611c8f565b50565b600080611671611802565b905060008160000160009054906101000a900473ffffffffffffffffffffffffffffffffffffffff1673ffffffffffffffffffffffffffffffffffffffff1663d4ec137a6040518163ffffffff1660e01b8152600401602060405180830381865afa1580156116e4573d6000803e3d6000fd5b505050506040513d601f19601f820116820180604052508101906117089190612def565b9050600073ffffffffffffffffffffffffffffffffffffffff168173ffffffffffffffffffffffffffffffffffffffff1603611749576000925050506117c8565b8073ffffffffffffffffffffffffffffffffffffffff1663fe575a87856040518263ffffffff1660e01b815260040161178291906125f5565b602060405180830381865afa15801561179f573d6000803e3d6000fd5b505050506040513d601f19601f820116820180604052508101906117c39190612e48565b925050505b919050565b6000816014526f70a0823100000000000000000000000060005260208060246010865afa601f3d111660205102905092915050565b60007f152e99b50b5f6a0e49f31b9c18139e0eb82d89de09b8e6a3d245658cb9305300905090565b60006001905090565b60006001156118f5578284029050600019838509818110820181038061187257836118665763ae47f7026000526004601cfd5b838304925050506118f5565b8084116118875763ae47f7026000526004601cfd5b838587098460000385168086049550856003026002188087026002038102905080870260020381029050808702600203810290508087026002038102905080870260020381029050808702600203810282848803046001848560000304018886118703021702955050505050505b9392505050565b6000819050919050565b600090565b6000600182019050919050565b60008115831517905092915050565b6000611934848484611833565b9050818385091561195957600181019050806119585763ae47f7026000526004601cfd5b5b9392505050565b6000819050919050565b60007ff0c57e16840df040f15088dc2f81fe391c3923bec73e23a9662efc9c229c6a00905090565b61199a611e38565b600073ffffffffffffffffffffffffffffffffffffffff168173ffffffffffffffffffffffffffffffffffffffff1603611a0c5760006040517f1e4fbdf7000000000000000000000000000000000000000000000000000000008152600401611a0391906125f5565b60405180910390fd5b611a1581611c8f565b50565b611a20611e38565b6000611a2a611e78565b90506001816000018190555050565b6000611a43611802565b905060008160000160009054906101000a900473ffffffffffffffffffffffffffffffffffffffff1673ffffffffffffffffffffffffffffffffffffffff1663d4ec137a6040518163ffffffff1660e01b8152600401602060405180830381865afa158015611ab6573d6000803e3d6000fd5b505050506040513d601f19601f82011682018060405250810190611ada9190612def565b9050600073ffffffffffffffffffffffffffffffffffffffff168173ffffffffffffffffffffffffffffffffffffffff1614611b7c578073ffffffffffffffffffffffffffffffffffffffff166353c033c286866040518363ffffffff1660e01b8152600401611b4b929190612e75565b60006040518083038186803b158015611b6357600080fd5b505afa158015611b77573d6000803e3d6000fd5b505050505b5050505050565b505050565b60006012905090565b600090565b806000526004601cfd5b611bb3611bab610e17565b853085611ea0565b611bbd8382611eff565b816000528060205260001960601c8381168582167fdcbc1c05240f31ff3ad067ef1ee35ce4997762752e3a095284754544f4c709d760406000a350611c028282611f96565b50505050565b611c10611f9a565b73ffffffffffffffffffffffffffffffffffffffff16611c2e610f12565b73ffffffffffffffffffffffffffffffffffffffff1614611c8d57611c51611f9a565b6040517f118cdaa7000000000000000000000000000000000000000000000000000000008152600401611c8491906125f5565b60405180910390fd5b565b6000611c99611d66565b905060008160000160009054906101000a900473ffffffffffffffffffffffffffffffffffffffff169050828260000160006101000a81548173ffffffffffffffffffffffffffffffffffffffff021916908373ffffffffffffffffffffffffffffffffffffffff1602179055508273ffffffffffffffffffffffffffffffffffffffff168173ffffffffffffffffffffffffffffffffffffffff167f8be0079c531659141344cd1fd0a4f28419497f9722a3daafe3b4186f6b6457e060405160405180910390a3505050565b60007f9016d09d72d40fdae2fd8ceac6b6234c7706214fd39c1cd1e609a0528c199300905090565b8273ffffffffffffffffffffffffffffffffffffffff168573ffffffffffffffffffffffffffffffffffffffff1614611dcd57611dcc838683611fa2565b5b611dd78282611fe5565b611de18382611fe9565b611df3611dec610e17565b8584612080565b816000528060205260001960601c8381168582168783167ffbde797d201c681b91056529119e0b02407c7bb96a4a2c75c01fc9667232c8db60406000a4505050505050565b611e406120cf565b611e76576040517fd7e6bcf800000000000000000000000000000000000000000000000000000000815260040160405180910390fd5b565b60007f9b779b17422d0df92223018b32b4d1fa46e071723d6817e2486d003becc55f00905090565b60405181606052826040528360601b602c526f23b872dd000000000000000000000000600c52602060006064601c6000895af13d156001600051141716611eef57637939f4246000526004601cfd5b6000606052806040525050505050565b611f0b60008383611a39565b6805345cdf77eb68f44c5481810181811015611f2f5763e5cfe9576000526004601cfd5b806805345cdf77eb68f44c556387a211a2600c52836000526020600c2083815401815583602052600c5160601c60007fddf252ad1be2c89b69c2b068fc378daa952ba7f163c4a11628f55a4df523b3ef602080a3505050611f9260008383611b83565b5050565b5050565b600033905090565b81602052637f5e9f20600c52826000526034600c2080546001810115611fde5780831115611fd8576313be252b6000526004601cfd5b82810382555b5050505050565b5050565b611ff582600083611a39565b6387a211a2600c52816000526020600c2080548083111561201e5763f4d678b86000526004601cfd5b8281038255826805345cdf77eb68f44c54036805345cdf77eb68f44c558260005260008460601b60601c7fddf252ad1be2c89b69c2b068fc378daa952ba7f163c4a11628f55a4df523b3ef60206000a3505061207c82600083611b83565b5050565b81601452806034526fa9059cbb00000000000000000000000060005260206000604460106000875af13d1560016000511417166120c5576390b8ec186000526004601cfd5b6000603452505050565b60006120d961196a565b60000160089054906101000a900460ff16905090565b6000819050919050565b612102816120ef565b82525050565b600060208201905061211d60008301846120f9565b92915050565b600081519050919050565b600082825260208201905092915050565b60005b8381101561215d578082015181840152602081019050612142565b60008484015250505050565b6000601f19601f8301169050919050565b600061218582612123565b61218f818561212e565b935061219f81856020860161213f565b6121a881612169565b840191505092915050565b600060208201905081810360008301526121cd818461217a565b905092915050565b6000604051905090565b600080fd5b600080fd5b6121f2816120ef565b81146121fd57600080fd5b50565b60008135905061220f816121e9565b92915050565b60006020828403121561222b5761222a6121df565b5b600061223984828501612200565b91505092915050565b600073ffffffffffffffffffffffffffffffffffffffff82169050919050565b600061226d82612242565b9050919050565b61227d81612262565b811461228857600080fd5b50565b60008135905061229a81612274565b92915050565b600080604083850312156122b7576122b66121df565b5b60006122c58582860161228b565b92505060206122d685828601612200565b9150509250929050565b60008115159050919050565b6122f5816122e0565b82525050565b600060208201905061231060008301846122ec565b92915050565b600061232182612262565b9050919050565b61233181612316565b811461233c57600080fd5b50565b60008135905061234e81612328565b92915050565b600080fd5b600080fd5b7f4e487b7100000000000000000000000000000000000000000000000000000000600052604160045260246000fd5b61239682612169565b810181811067ffffffffffffffff821117156123b5576123b461235e565b5b80604052505050565b60006123c86121d5565b90506123d4828261238d565b919050565b600067ffffffffffffffff8211156123f4576123f361235e565b5b6123fd82612169565b9050602081019050919050565b82818337600083830152505050565b600061242c612427846123d9565b6123be565b90508281526020810184848401111561244857612447612359565b5b61245384828561240a565b509392505050565b600082601f8301126124705761246f612354565b5b8135612480848260208601612419565b91505092915050565b600080600080608085870312156124a3576124a26121df565b5b60006124b18782880161228b565b94505060206124c28782880161233f565b935050604085013567ffffffffffffffff8111156124e3576124e26121e4565b5b6124ef8782880161245b565b925050606085013567ffffffffffffffff8111156125105761250f6121e4565b5b61251c8782880161245b565b91505092959194509250565b600080600060608486031215612541576125406121df565b5b600061254f8682870161228b565b93505060206125608682870161228b565b925050604061257186828701612200565b9150509250925092565b600060ff82169050919050565b6125918161257b565b82525050565b60006020820190506125ac6000830184612588565b92915050565b6000819050919050565b6125c5816125b2565b82525050565b60006020820190506125e060008301846125bc565b92915050565b6125ef81612262565b82525050565b600060208201905061260a60008301846125e6565b92915050565b600060208284031215612626576126256121df565b5b60006126348482850161228b565b91505092915050565b60008060408385031215612654576126536121df565b5b600061266285828601612200565b92505060206126738582860161228b565b9150509250929050565b600080600060608486031215612696576126956121df565b5b60006126a486828701612200565b93505060206126b58682870161228b565b92505060406126c68682870161228b565b9150509250925092565b6000602082840312156126e6576126e56121df565b5b600082013567ffffffffffffffff811115612704576127036121e4565b5b6127108482850161245b565b91505092915050565b6127228161257b565b811461272d57600080fd5b50565b60008135905061273f81612719565b92915050565b61274e816125b2565b811461275957600080fd5b50565b60008135905061276b81612745565b92915050565b600080600080600080600060e0888a0312156127905761278f6121df565b5b600061279e8a828b0161228b565b97505060206127af8a828b0161228b565b96505060406127c08a828b01612200565b95505060606127d18a828b01612200565b94505060806127e28a828b01612730565b93505060a06127f38a828b0161275c565b92505060c06128048a828b0161275c565b91505092959891949750929550565b6000806040838503121561282a576128296121df565b5b60006128388582860161228b565b92505060206128498582860161228b565b9150509250929050565b7f4e487b7100000000000000000000000000000000000000000000000000000000600052602260045260246000fd5b6000600282049050600182168061289a57607f821691505b6020821081036128ad576128ac612853565b5b50919050565b7f4e487b7100000000000000000000000000000000000000000000000000000000600052601160045260246000fd5b60006128ed826120ef565b91506128f8836120ef565b92508282019050808211156129105761290f6128b3565b5b92915050565b60008160011c9050919050565b6000808291508390505b600185111561296d57808604811115612949576129486128b3565b5b60018516156129585780820291505b808102905061296685612916565b945061292d565b94509492505050565b6000826129865760019050612a42565b816129945760009050612a42565b81600181146129aa57600281146129b4576129e3565b6001915050612a42565b60ff8411156129c6576129c56128b3565b5b8360020a9150848211156129dd576129dc6128b3565b5b50612a42565b5060208310610133831016604e8410600b8410161715612a185782820a905083811115612a1357612a126128b3565b5b612a42565b612a258484846001612923565b92509050818404811115612a3c57612a3b6128b3565b5b81810290505b9392505050565b6000612a54826120ef565b9150612a5f836120ef565b9250612a8c7fffffffffffffffffffffffffffffffffffffffffffffffffffffffffffffffff8484612976565b905092915050565b60008190508160005260206000209050919050565b60006020601f8301049050919050565b600082821b905092915050565b600060088302612af67fffffffffffffffffffffffffffffffffffffffffffffffffffffffffffffffff82612ab9565b612b008683612ab9565b95508019841693508086168417925050509392505050565b6000819050919050565b6000612b3d612b38612b33846120ef565b612b18565b6120ef565b9050919050565b6000819050919050565b612b5783612b22565b612b6b612b6382612b44565b848454612ac6565b825550505050565b600090565b612b80612b73565b612b8b818484612b4e565b505050565b5b81811015612baf57612ba4600082612b78565b600181019050612b91565b5050565b601f821115612bf457612bc581612a94565b612bce84612aa9565b81016020851015612bdd578190505b612bf1612be985612aa9565b830182612b90565b50505b505050565b600082821c905092915050565b6000612c1760001984600802612bf9565b1980831691505092915050565b6000612c308383612c06565b9150826002028217905092915050565b612c4982612123565b67ffffffffffffffff811115612c6257612c6161235e565b5b612c6c8254612882565b612c77828285612bb3565b600060209050601f831160018114612caa5760008415612c98578287015190505b612ca28582612c24565b865550612d0a565b601f198416612cb886612a94565b60005b82811015612ce057848901518255600182019150602085019450602081019050612cbb565b86831015612cfd5784890151612cf9601f891682612c06565b8355505b6001600288020188555050505b505050505050565b6000819050919050565b600067ffffffffffffffff82169050919050565b6000612d4b612d46612d4184612d12565b612b18565b612d1c565b9050919050565b612d5b81612d30565b82525050565b6000602082019050612d766000830184612d52565b92915050565b6000612d878261257b565b9150612d928361257b565b9250828201905060ff811115612dab57612daa6128b3565b5b92915050565b6000612dbc82612262565b9050919050565b612dcc81612db1565b8114612dd757600080fd5b50565b600081519050612de981612dc3565b92915050565b600060208284031215612e0557612e046121df565b5b6000612e1384828501612dda565b91505092915050565b612e25816122e0565b8114612e3057600080fd5b50565b600081519050612e4281612e1c565b92915050565b600060208284031215612e5e57612e5d6121df565b5b6000612e6c84828501612e33565b91505092915050565b6000604082019050612e8a60008301856125e6565b612e9760208301846125e6565b939250505056fea2646970667358221220c63ed101825f8ef91159d816b7d91fc0cd25872333600adc0e315edc04152f3f64736f6c63430008190033","linkReferences":{}},"methodIdentifiers":{"DOMAIN_SEPARATOR()":"3644e515","allowance(address,address)":"dd62ed3e","approve(address,uint256)":"095ea7b3","asset()":"38d52e0f","balanceOf(address)":"70a08231","convertToAssets(uint256)":"07a2d13a","convertToShares(uint256)":"c6e6f592","decimals()":"313ce567","deposit(uint256,address)":"6e553f65","initialize(address,address,string,string)":"2016a0d2","isBlacklisted(address)":"fe575a87","maxDeposit(address)":"402d267d","maxMint(address)":"c63d75b6","maxRedeem(address)":"d905777e","maxWithdraw(address)":"ce96cb77","mint(uint256,address)":"94bf804d","name()":"06fdde03","nonces(address)":"7ecebe00","owner()":"8da5cb5b","permit(address,address,uint256,uint256,uint8,bytes32,bytes32)":"d505accf","previewDeposit(uint256)":"ef8b30f7","previewMint(uint256)":"b3d7f6b9","previewRedeem(uint256)":"4cdad506","previewWithdraw(uint256)":"0a28a477","redeem(uint256,address,address)":"ba087652","renounceOwnership()":"715018a6","setName(string)":"c47f0027","setSymbol(string)":"b84c8246","symbol()":"95d89b41","totalAssets()":"01e1d114","totalSupply()":"18160ddd","transfer(address,uint256)":"a9059cbb","transferFrom(address,address,uint256)":"23b872dd","transferOwnership(address)":"f2fde38b","withdraw(uint256,address,address)":"b460af94"},"id":9}