{"abi":[{"type":"constructor","inputs":[],"stateMutability":"nonpayable"},{"type":"function","name":"UPGRADE_INTERFACE_VERSION","inputs":[],"outputs":[{"name":"","type":"string","internalType":"string"}],"stateMutability":"view"},{"type":"function","name":"announceExistingDShare","inputs":[{"name":"dShare","type":"address","internalType":"address"},{"name":"wrappedDShare","type":"address","internalType":"address"}],"outputs":[],"stateMutability":"nonpayable"},{"type":"function","name":"createDShare","inputs":[{"name":"owner","type":"address","internalType":"address"},{"name":"name","type":"string","internalType":"string"},{"name":"symbol","type":"string","internalType":"string"},{"name":"wrappedName","type":"string","internalType":"string"},{"name":"wrappedSymbol","type":"string","internalType":"string"}],"outputs":[{"name":"dShare","type":"address","internalType":"address"},{"name":"wrappedDShare","type":"address","internalType":"address"}],"stateMutability":"nonpayable"},{"type":"function","name":"getDShareBeacon","inputs":[],"outputs":[{"name":"","type":"address","internalType":"address"}],"stateMutability":"view"},{"type":"function","name":"getDShares","inputs":[],"outputs":[{"name":"","type":"address[]","internalType":"address[]"},{"name":"","type":"address[]","internalType":"address[]"}],"stateMutability":"view"},{"type":"function","name":"getTransferRestrictor","inputs":[],"outputs":[{"name":"","type":"address","internalType":"address"}],"stateMutability":"view"},{"type":"function","name":"getWrappedDShareBeacon","inputs":[],"outputs":[{"name":"","type":"address","internalType":"address"}],"stateMutability":"view"},{"type":"function","name":"initialize","inputs":[{"name":"_owner","type":"address","internalType":"address"},{"name":"_dShareBeacon","type":"address","internalType":"address"},{"name":"_wrappedDShareBeacon","type":"address","internalType":"address"},{"name":"_transferRestrictor","type":"address","internalType":"address"}],"outputs":[],"stateMutability":"nonpayable"},{"type":"function","name":"initializeV2","inputs":[],"outputs":[],"stateMutability":"nonpayable"},{"type":"function","name":"isTokenDShare","inputs":[{"name":"token","type":"address","internalType":"address"}],"outputs":[{"name":"","type":"bool","internalType":"bool"}],"stateMutability":"view"},{"type":"function","name":"isTokenWrappedDShare","inputs":[{"name":"token","type":"address","internalType":"address"}],"outputs":[{"name":"","type":"bool","internalType":"bool"}],"stateMutability":"view"},{"type":"function","name":"owner","inputs":[],"outputs":[{"name":"","type":"address","internalType":"address"}],"stateMutability":"view"},{"type":"function","name":"proxiableUUID","inputs":[],"outputs":[{"name":"","type":"bytes32","internalType":"bytes32"}],"stateMutability":"view"},{"type":"function","name":"renounceOwnership","inputs":[],"outputs":[],"stateMutability":"nonpayable"},{"type":"function","name":"setNewTransferRestrictor","inputs":[{"name":"_transferRestrictor","type":"address","internalType":"address"}],"outputs":[],"stateMutability":"nonpayable"},{"type":"function","name":"transferOwnership","inputs":[{"name":"newOwner","type":"address","internalType":"address"}],"outputs":[],"stateMutability":"nonpayable"},{"type":"function","name":"upgradeToAndCall","inputs":[{"name":"newImplementation","type":"address","internalType":"address"},{"name":"data","type":"bytes","internalType":"bytes"}],"outputs":[],"stateMutability":"payable"},{"type":"event","name":"DShareAdded","inputs":[{"name":"dShare","type":"address","indexed":true,"internalType":"address"},{"name":"wrappedDShare","type":"address","indexed":true,"internalType":"address"},{"name":"symbol","type":"string","indexed":true,"internalType":"string"},{"name":"name","type":"string","indexed":false,"internalType":"string"}],"anonymous":false},{"type":"event","name":"Initialized","inputs":[{"name":"version","type":"uint64","indexed":false,"internalType":"uint64"}],"anonymous":false},{"type":"event","name":"NewTransferRestrictorSet","inputs":[{"name":"transferRestrictor","type":"address","indexed":true,"internalType":"address"}],"anonymous":false},{"type":"event","name":"OwnershipTransferred","inputs":[{"name":"previousOwner","type":"address","indexed":true,"internalType":"address"},{"name":"newOwner","type":"address","indexed":true,"internalType":"address"}],"anonymous":false},{"type":"event","name":"Upgraded","inputs":[{"name":"implementation","type":"address","indexed":true,"internalType":"address"}],"anonymous":false},{"type":"error","name":"AddressEmptyCode","inputs":[{"name":"target","type":"address","internalType":"address"}]},{"type":"error","name":"ERC1967InvalidImplementation","inputs":[{"name":"implementation","type":"address","internalType":"address"}]},{"type":"error","name":"ERC1967NonPayable","inputs":[]},{"type":"error","name":"FailedInnerCall","inputs":[]},{"type":"error","name":"InvalidInitialization","inputs":[]},{"type":"error","name":"Mismatch","inputs":[]},{"type":"error","name":"NotInitializing","inputs":[]},{"type":"error","name":"OwnableInvalidOwner","inputs":[{"name":"owner","type":"address","internalType":"address"}]},{"type":"error","name":"OwnableUnauthorizedAccount","inputs":[{"name":"account","type":"address","internalType":"address"}]},{"type":"error","name":"PreviouslyAnnounced","inputs":[]},{"type":"error","name":"UUPSUnauthorizedCallContext","inputs":[]},{"type":"error","name":"UUPSUnsupportedProxiableUUID","inputs":[{"name":"slot","type":"bytes32","internalType":"bytes32"}]},{"type":"error","name":"ZeroAddress","inputs":[]}],"bytecode":{"object":"0x60a06040523060805234801561001457600080fd5b5061001d610022565b6100d4565b7ff0c57e16840df040f15088dc2f81fe391c3923bec73e23a9662efc9c229c6a00805468010000000000000000900460ff16156100725760405163f92ee8a960e01b815260040160405180910390fd5b80546001600160401b03908116146100d15780546001600160401b0319166001600160401b0390811782556040519081527fc7f505b2f371ae2175ee4913f4499e1f2633a7b5936321eed1cdaeb6115181d29060200160405180910390a15b50565b608051611feb6100fd60003960008181610f1701528181610f4001526110860152611feb6000f3fe6080604052600436106100fe5760003560e01c8063748357a011610095578063ad3cb1cc11610064578063ad3cb1cc146102c0578063b59cae0c146102fe578063be6c84af1461031e578063f2fde38b14610341578063f8c8765e1461036157600080fd5b8063748357a01461022e578063858ef0a61461026b5780638da5cb5b1461028b578063972c72df146102a057600080fd5b806352d1902d116100d157806352d1902d146101cc5780635389be4b146101ef5780635cd8a76b14610204578063715018a61461021957600080fd5b80630b7ae05c1461010357806325f28f161461014757806330d32672146101775780634f1ef286146101b7575b600080fd5b34801561010f57600080fd5b50600080516020611f56833981519152546001600160a01b03165b6040516001600160a01b0390911681526020015b60405180910390f35b34801561015357600080fd5b5061016761016236600461147c565b610381565b604051901515815260200161013e565b34801561018357600080fd5b50610197610192366004611566565b6103c3565b604080516001600160a01b0393841681529290911660208301520161013e565b6101ca6101c5366004611626565b6105a2565b005b3480156101d857600080fd5b506101e16105c1565b60405190815260200161013e565b3480156101fb57600080fd5b5061012a6105de565b34801561021057600080fd5b506101ca610601565b34801561022557600080fd5b506101ca6107b9565b34801561023a57600080fd5b507f624c7938caaf85453d1e344eb5510e0efc5d0cf6f1e8d4a400187ed89d63af01546001600160a01b031661012a565b34801561027757600080fd5b5061016761028636600461147c565b6107cd565b34801561029757600080fd5b5061012a610808565b3480156102ac57600080fd5b506101ca6102bb36600461168a565b610831565b3480156102cc57600080fd5b506102f1604051806040016040528060058152602001640352e302e360dc1b81525081565b60405161013e9190611713565b34801561030a57600080fd5b506101ca61031936600461147c565b610aa1565b34801561032a57600080fd5b50610333610b31565b60405161013e92919061176b565b34801561034d57600080fd5b506101ca61035c36600461147c565b610c7b565b34801561036d57600080fd5b506101ca61037c366004611790565b610cbe565b6000600080516020611f968339815191526103bc7f624c7938caaf85453d1e344eb5510e0efc5d0cf6f1e8d4a400187ed89d63af0584610e94565b9392505050565b6000806103ce610ebb565b600080516020611f968339815191528054600080516020611f56833981519152546040516001600160a01b0392831692610412928c928c928c9216906024016117ec565b60408051601f198184030181529181526020820180516001600160e01b031663613d25bb60e01b179052516104469061145a565b610451929190611835565b604051809103906000f08015801561046d573d6000803e3d6000fd5b5060018201546040519194506001600160a01b031690610497908a90869089908990602401611861565b60408051601f198184030181529181526020820180516001600160e01b031663100b506960e11b179052516104cb9061145a565b6104d6929190611835565b604051809103906000f0801580156104f2573d6000803e3d6000fd5b5091506105026005820184610eed565b506105106003820183610eed565b5061051d81600301610f02565b61052982600501610f02565b14610536576105366118aa565b8560405161054491906118c0565b6040518091039020826001600160a01b0316846001600160a01b03167ffc5890ef646a4c681cf9479ed23b38d3d92fe3b32166aee1e9ebd394a45a08248a60405161058f9190611713565b60405180910390a4509550959350505050565b6105aa610f0c565b6105b382610fb1565b6105bd8282610fb9565b5050565b60006105cb61107b565b50600080516020611f7683398151915290565b600080600080516020611f968339815191525b546001600160a01b031692915050565b610609610ebb565b7ff0c57e16840df040f15088dc2f81fe391c3923bec73e23a9662efc9c229c6a00805460029190600160401b900460ff16806106535750805467ffffffffffffffff808416911610155b156106715760405163f92ee8a960e01b815260040160405180910390fd5b805468ffffffffffffffffff191667ffffffffffffffff831617600160401b17815560006106aa600080516020611f9683398151915290565b905060005b6106bb82600301610f02565b8110156107465761073d6106d260038401836110c4565b6001600160a01b03166338d52e0f6040518163ffffffff1660e01b8152600401602060405180830381865afa15801561070f573d6000803e3d6000fd5b505050506040513d601f19601f8201168201806040525081019061073391906118dc565b6005840190610eed565b506001016106af565b5061075381600301610f02565b61075f82600501610f02565b1461076c5761076c6118aa565b50805460ff60401b1916815560405167ffffffffffffffff831681527fc7f505b2f371ae2175ee4913f4499e1f2633a7b5936321eed1cdaeb6115181d29060200160405180910390a15050565b6107c1610ebb565b6107cb60006110d0565b565b6000600080516020611f968339815191526103bc7f624c7938caaf85453d1e344eb5510e0efc5d0cf6f1e8d4a400187ed89d63af0384610e94565b6000807f9016d09d72d40fdae2fd8ceac6b6234c7706214fd39c1cd1e609a0528c1993006105f1565b610839610ebb565b816001600160a01b0316816001600160a01b03166338d52e0f6040518163ffffffff1660e01b8152600401602060405180830381865afa158015610881573d6000803e3d6000fd5b505050506040513d601f19601f820116820180604052508101906108a591906118dc565b6001600160a01b0316146108cc576040516377a93d8d60e01b815260040160405180910390fd5b600080516020611f968339815191526109057f624c7938caaf85453d1e344eb5510e0efc5d0cf6f1e8d4a400187ed89d63af0584610eed565b610922576040516309ae8af560e31b815260040160405180910390fd5b61092f6003820183610eed565b61094c576040516309ae8af560e31b815260040160405180910390fd5b61095881600301610f02565b61096482600501610f02565b14610971576109716118aa565b826001600160a01b03166395d89b416040518163ffffffff1660e01b8152600401600060405180830381865afa1580156109af573d6000803e3d6000fd5b505050506040513d6000823e601f3d908101601f191682016040526109d791908101906118f9565b6040516109e491906118c0565b6040518091039020826001600160a01b0316846001600160a01b03167ffc5890ef646a4c681cf9479ed23b38d3d92fe3b32166aee1e9ebd394a45a0824866001600160a01b03166306fdde036040518163ffffffff1660e01b8152600401600060405180830381865afa158015610a5f573d6000803e3d6000fd5b505050506040513d6000823e601f3d908101601f19168201604052610a8791908101906118f9565b604051610a949190611713565b60405180910390a4505050565b6001600160a01b038116610ac85760405163d92e233d60e01b815260040160405180910390fd5b600080516020611f5683398151915280546001600160a01b0319166001600160a01b038316908117909155604051600080516020611f9683398151915291907f6ce96b6ff164da5d96a7aa655d12acdecc63ff7e35a8cfc31cd5604ed11f15c390600090a25050565b606080600080516020611f968339815191526000610b6e7f624c7938caaf85453d1e344eb5510e0efc5d0cf6f1e8d4a400187ed89d63af03611141565b90506000815167ffffffffffffffff811115610b8c57610b8c611499565b604051908082528060200260200182016040528015610bb5578160200160208202803683370190505b50905060005b8251811015610c7157828181518110610bd657610bd6611967565b60200260200101516001600160a01b03166338d52e0f6040518163ffffffff1660e01b8152600401602060405180830381865afa158015610c1b573d6000803e3d6000fd5b505050506040513d601f19601f82011682018060405250810190610c3f91906118dc565b828281518110610c5157610c51611967565b6001600160a01b0390921660209283029190910190910152600101610bbb565b5094909350915050565b610c83610ebb565b6001600160a01b038116610cb257604051631e4fbdf760e01b8152600060048201526024015b60405180910390fd5b610cbb816110d0565b50565b7ff0c57e16840df040f15088dc2f81fe391c3923bec73e23a9662efc9c229c6a008054600160401b810460ff16159067ffffffffffffffff16600081158015610d045750825b905060008267ffffffffffffffff166001148015610d215750303b155b905081158015610d2f575080155b15610d4d5760405163f92ee8a960e01b815260040160405180910390fd5b845467ffffffffffffffff191660011785558315610d7757845460ff60401b1916600160401b1785555b6001600160a01b0388161580610d9457506001600160a01b038716155b80610da657506001600160a01b038616155b15610dc45760405163d92e233d60e01b815260040160405180910390fd5b610dcd8961114e565b600080516020611f9683398151915280546001600160a01b038a81166001600160a01b0319928316179092557f624c7938caaf85453d1e344eb5510e0efc5d0cf6f1e8d4a400187ed89d63af0180548a8416908316179055600080516020611f568339815191528054928916929091169190911790558315610e8957845460ff60401b19168555604051600181527fc7f505b2f371ae2175ee4913f4499e1f2633a7b5936321eed1cdaeb6115181d29060200160405180910390a15b505050505050505050565b6001600160a01b038116600090815260018301602052604081205415155b90505b92915050565b33610ec4610808565b6001600160a01b0316146107cb5760405163118cdaa760e01b8152336004820152602401610ca9565b6000610eb2836001600160a01b03841661115f565b6000610eb5825490565b306001600160a01b037f0000000000000000000000000000000000000000000000000000000000000000161480610f9357507f00000000000000000000000000000000000000000000000000000000000000006001600160a01b0316610f87600080516020611f76833981519152546001600160a01b031690565b6001600160a01b031614155b156107cb5760405163703e46dd60e11b815260040160405180910390fd5b610cbb610ebb565b816001600160a01b03166352d1902d6040518163ffffffff1660e01b8152600401602060405180830381865afa925050508015611013575060408051601f3d908101601f191682019092526110109181019061197d565b60015b61103b57604051634c9c8ce360e01b81526001600160a01b0383166004820152602401610ca9565b600080516020611f76833981519152811461106c57604051632a87526960e21b815260048101829052602401610ca9565b61107683836111ae565b505050565b306001600160a01b037f000000000000000000000000000000000000000000000000000000000000000016146107cb5760405163703e46dd60e11b815260040160405180910390fd5b6000610eb28383611204565b7f9016d09d72d40fdae2fd8ceac6b6234c7706214fd39c1cd1e609a0528c19930080546001600160a01b031981166001600160a01b03848116918217845560405192169182907f8be0079c531659141344cd1fd0a4f28419497f9722a3daafe3b4186f6b6457e090600090a3505050565b606060006103bc8361122e565b61115661128a565b610cbb816112d3565b60008181526001830160205260408120546111a657508154600181810184556000848152602080822090930184905584548482528286019093526040902091909155610eb5565b506000610eb5565b6111b7826112db565b6040516001600160a01b038316907fbc7cd75a20ee27fd9adebab32041f755214dbc6bffa90cc0225b39da2e5c2d3b90600090a28051156111fc576110768282611340565b6105bd6113b6565b600082600001828154811061121b5761121b611967565b9060005260206000200154905092915050565b60608160000180548060200260200160405190810160405280929190818152602001828054801561127e57602002820191906000526020600020905b81548152602001906001019080831161126a575b50505050509050919050565b7ff0c57e16840df040f15088dc2f81fe391c3923bec73e23a9662efc9c229c6a0054600160401b900460ff166107cb57604051631afcd79f60e31b815260040160405180910390fd5b610c8361128a565b806001600160a01b03163b60000361131157604051634c9c8ce360e01b81526001600160a01b0382166004820152602401610ca9565b600080516020611f7683398151915280546001600160a01b0319166001600160a01b0392909216919091179055565b6060600080846001600160a01b03168460405161135d91906118c0565b600060405180830381855af49150503d8060008114611398576040519150601f19603f3d011682016040523d82523d6000602084013e61139d565b606091505b50915091506113ad8583836113d5565b95945050505050565b34156107cb5760405163b398979f60e01b815260040160405180910390fd5b6060826113ea576113e582611431565b6103bc565b815115801561140157506001600160a01b0384163b155b1561142a57604051639996b31560e01b81526001600160a01b0385166004820152602401610ca9565b5092915050565b8051156114415780518082602001fd5b604051630a12f52160e11b815260040160405180910390fd5b6105bf8061199783390190565b6001600160a01b0381168114610cbb57600080fd5b60006020828403121561148e57600080fd5b81356103bc81611467565b634e487b7160e01b600052604160045260246000fd5b604051601f8201601f1916810167ffffffffffffffff811182821017156114d8576114d8611499565b604052919050565b600067ffffffffffffffff8211156114fa576114fa611499565b50601f01601f191660200190565b600061151b611516846114e0565b6114af565b905082815283838301111561152f57600080fd5b828260208301376000602084830101529392505050565b600082601f83011261155757600080fd5b610eb283833560208501611508565b600080600080600060a0868803121561157e57600080fd5b853561158981611467565b9450602086013567ffffffffffffffff808211156115a657600080fd5b6115b289838a01611546565b955060408801359150808211156115c857600080fd5b6115d489838a01611546565b945060608801359150808211156115ea57600080fd5b6115f689838a01611546565b9350608088013591508082111561160c57600080fd5b5061161988828901611546565b9150509295509295909350565b6000806040838503121561163957600080fd5b823561164481611467565b9150602083013567ffffffffffffffff81111561166057600080fd5b8301601f8101851361167157600080fd5b61168085823560208401611508565b9150509250929050565b6000806040838503121561169d57600080fd5b82356116a881611467565b915060208301356116b881611467565b809150509250929050565b60005b838110156116de5781810151838201526020016116c6565b50506000910152565b600081518084526116ff8160208601602086016116c3565b601f01601f19169290920160200192915050565b602081526000610eb260208301846116e7565b60008151808452602080850194506020840160005b838110156117605781516001600160a01b03168752958201959082019060010161173b565b509495945050505050565b60408152600061177e6040830185611726565b82810360208401526113ad8185611726565b600080600080608085870312156117a657600080fd5b84356117b181611467565b935060208501356117c181611467565b925060408501356117d181611467565b915060608501356117e181611467565b939692955090935050565b600060018060a01b0380871683526080602084015261180e60808401876116e7565b838103604085015261182081876116e7565b92505080841660608401525095945050505050565b6001600160a01b0383168152604060208201819052600090611859908301846116e7565b949350505050565b6001600160a01b0385811682528416602082015260806040820181905260009061188d908301856116e7565b828103606084015261189f81856116e7565b979650505050505050565b634e487b7160e01b600052600160045260246000fd5b600082516118d28184602087016116c3565b9190910192915050565b6000602082840312156118ee57600080fd5b81516103bc81611467565b60006020828403121561190b57600080fd5b815167ffffffffffffffff81111561192257600080fd5b8201601f8101841361193357600080fd5b8051611941611516826114e0565b81815285602083850101111561195657600080fd5b6113ad8260208301602086016116c3565b634e487b7160e01b600052603260045260246000fd5b60006020828403121561198f57600080fd5b505191905056fe60a06040526040516105bf3803806105bf83398101604081905261002291610387565b61002c828261003e565b506001600160a01b031660805261047e565b610047826100fe565b6040516001600160a01b038316907f1cf3b03a6cf19fa2baba4df148e9dcabedea7f8a5c07840e207e5c089be95d3e90600090a28051156100f2576100ed826001600160a01b0316635c60da1b6040518163ffffffff1660e01b8152600401602060405180830381865afa1580156100c3573d6000803e3d6000fd5b505050506040513d601f19601f820116820180604052508101906100e79190610447565b82610211565b505050565b6100fa610288565b5050565b806001600160a01b03163b60000361013957604051631933b43b60e21b81526001600160a01b03821660048201526024015b60405180910390fd5b807fa3f0ad74e5423aebfd80d3ef4346578335a9a72aeaee59ff6cb3582b35133d5080546001600160a01b0319166001600160a01b0392831617905560408051635c60da1b60e01b81529051600092841691635c60da1b9160048083019260209291908290030181865afa1580156101b5573d6000803e3d6000fd5b505050506040513d601f19601f820116820180604052508101906101d99190610447565b9050806001600160a01b03163b6000036100fa57604051634c9c8ce360e01b81526001600160a01b0382166004820152602401610130565b6060600080846001600160a01b03168460405161022e9190610462565b600060405180830381855af49150503d8060008114610269576040519150601f19603f3d011682016040523d82523d6000602084013e61026e565b606091505b50909250905061027f8583836102a9565b95945050505050565b34156102a75760405163b398979f60e01b815260040160405180910390fd5b565b6060826102be576102b982610308565b610301565b81511580156102d557506001600160a01b0384163b155b156102fe57604051639996b31560e01b81526001600160a01b0385166004820152602401610130565b50805b9392505050565b8051156103185780518082602001fd5b604051630a12f52160e11b815260040160405180910390fd5b80516001600160a01b038116811461034857600080fd5b919050565b634e487b7160e01b600052604160045260246000fd5b60005b8381101561037e578181015183820152602001610366565b50506000910152565b6000806040838503121561039a57600080fd5b6103a383610331565b60208401519092506001600160401b03808211156103c057600080fd5b818501915085601f8301126103d457600080fd5b8151818111156103e6576103e661034d565b604051601f8201601f19908116603f0116810190838211818310171561040e5761040e61034d565b8160405282815288602084870101111561042757600080fd5b610438836020830160208801610363565b80955050505050509250929050565b60006020828403121561045957600080fd5b61030182610331565b60008251610474818460208701610363565b9190910192915050565b6080516101276104986000396000601e01526101276000f3fe6080604052600a600c565b005b60186014601a565b60a0565b565b60007f00000000000000000000000000000000000000000000000000000000000000006001600160a01b0316635c60da1b6040518163ffffffff1660e01b8152600401602060405180830381865afa1580156079573d6000803e3d6000fd5b505050506040513d601f19601f82011682018060405250810190609b919060c3565b905090565b3660008037600080366000845af43d6000803e80801560be573d6000f35b3d6000fd5b60006020828403121560d457600080fd5b81516001600160a01b038116811460ea57600080fd5b939250505056fea2646970667358221220f09f317b2db88012214b7acdc5148fb3ad38b89d4b51cba82f1de2f026e4fc9664736f6c63430008190033624c7938caaf85453d1e344eb5510e0efc5d0cf6f1e8d4a400187ed89d63af02360894a13ba1a3210667c828492db98dca3e2076cc3735a920a3ca505d382bbc624c7938caaf85453d1e344eb5510e0efc5d0cf6f1e8d4a400187ed89d63af00a2646970667358221220197f16c3d87b9c2ef117a9fcf35de843b58a8b6544968733a9a131ba6c61b39e64736f6c63430008190033","linkReferences":{}},"methodIdentifiers":{"UPGRADE_INTERFACE_VERSION()":"ad3cb1cc","announceExistingDShare(address,address)":"972c72df","createDShare(address,string,string,string,string)":"30d32672","getDShareBeacon()":"5389be4b","getDShares()":"be6c84af","getTransferRestrictor()":"0b7ae05c","getWrappedDShareBeacon()":"748357a0","initialize(address,address,address,address)":"f8c8765e","initializeV2()":"5cd8a76b","isTokenDShare(address)":"25f28f16","isTokenWrappedDShare(address)":"858ef0a6","owner()":"8da5cb5b","proxiableUUID()":"52d1902d","renounceOwnership()":"715018a6","setNewTransferRestrictor(address)":"b59cae0c","transferOwnership(address)":"f2fde38b","upgradeToAndCall(address,bytes)":"4f1ef286"},"id":1}