{"abi":[{"type":"constructor","inputs":[],"stateMutability":"nonpayable"},{"type":"function","name":"UPGRADE_INTERFACE_VERSION","inputs":[],"outputs":[{"name":"","type":"string","internalType":"string"}],"stateMutability":"view"},{"type":"function","name":"announceExistingDShare","inputs":[{"name":"dShare","type":"address","internalType":"address"},{"name":"wrappedDShare","type":"address","internalType":"address"}],"outputs":[],"stateMutability":"nonpayable"},{"type":"function","name":"createDShare","inputs":[{"name":"owner","type":"address","internalType":"address"},{"name":"name","type":"string","internalType":"string"},{"name":"symbol","type":"string","internalType":"string"},{"name":"wrappedName","type":"string","internalType":"string"},{"name":"wrappedSymbol","type":"string","internalType":"string"}],"outputs":[{"name":"dShare","type":"address","internalType":"address"},{"name":"wrappedDShare","type":"address","internalType":"address"}],"stateMutability":"nonpayable"},{"type":"function","name":"getDShareBeacon","inputs":[],"outputs":[{"name":"","type":"address","internalType":"address"}],"stateMutability":"view"},{"type":"function","name":"getDShares","inputs":[],"outputs":[{"name":"","type":"address[]","internalType":"address[]"},{"name":"","type":"address[]","internalType":"address[]"}],"stateMutability":"view"},{"type":"function","name":"getTransferRestrictor","inputs":[],"outputs":[{"name":"","type":"address","internalType":"address"}],"stateMutability":"view"},{"type":"function","name":"getWrappedDShareBeacon","inputs":[],"outputs":[{"name":"","type":"address","internalType":"address"}],"stateMutability":"view"},{"type":"function","name":"initialize","inputs":[{"name":"_owner","type":"address","internalType":"address"},{"name":"_dShareBeacon","type":"address","internalType":"address"},{"name":"_wrappedDShareBeacon","type":"address","internalType":"address"},{"name":"_transferRestrictor","type":"address","internalType":"address"}],"outputs":[],"stateMutability":"nonpayable"},{"type":"function","name":"initializeV2","inputs":[],"outputs":[],"stateMutability":"nonpayable"},{"type":"function","name":"isTokenDShare","inputs":[{"name":"token","type":"address","internalType":"address"}],"outputs":[{"name":"","type":"bool","internalType":"bool"}],"stateMutability":"view"},{"type":"function","name":"isTokenWrappedDShare","inputs":[{"name":"token","type":"address","internalType":"address"}],"outputs":[{"name":"","type":"bool","internalType":"bool"}],"stateMutability":"view"},{"type":"function","name":"owner","inputs":[],"outputs":[{"name":"","type":"address","internalType":"address"}],"stateMutability":"view"},{"type":"function","name":"proxiableUUID","inputs":[],"outputs":[{"name":"","type":"bytes32","internalType":"bytes32"}],"stateMutability":"view"},{"type":"function","name":"renounceOwnership","inputs":[],"outputs":[],"stateMutability":"nonpayable"},{"type":"function","name":"setNewTransferRestrictor","inputs":[{"name":"_transferRestrictor","type":"address","internalType":"address"}],"outputs":[],"stateMutability":"nonpayable"},{"type":"function","name":"transferOwnership","inputs":[{"name":"newOwner","type":"address","internalType":"address"}],"outputs":[],"stateMutability":"nonpayable"},{"type":"function","name":"upgradeToAndCall","inputs":[{"name":"newImplementation","type":"address","internalType":"address"},{"name":"data","type":"bytes","internalType":"bytes"}],"outputs":[],"stateMutability":"payable"},{"type":"event","name":"DShareAdded","inputs":[{"name":"dShare","type":"address","indexed":true,"internalType":"address"},{"name":"wrappedDShare","type":"address","indexed":true,"internalType":"address"},{"name":"symbol","type":"string","indexed":true,"internalType":"string"},{"name":"name","type":"string","indexed":false,"internalType":"string"}],"anonymous":false},{"type":"event","name":"Initialized","inputs":[{"name":"version","type":"uint64","indexed":false,"internalType":"uint64"}],"anonymous":false},{"type":"event","name":"NewTransferRestrictorSet","inputs":[{"name":"transferRestrictor","type":"address","indexed":true,"internalType":"address"}],"anonymous":false},{"type":"event","name":"OwnershipTransferred","inputs":[{"name":"previousOwner","type":"address","indexed":true,"internalType":"address"},{"name":"newOwner","type":"address","indexed":true,"internalType":"address"}],"anonymous":false},{"type":"event","name":"Upgraded","inputs":[{"name":"implementation","type":"address","indexed":true,"internalType":"address"}],"anonymous":false},{"type":"error","name":"AddressEmptyCode","inputs":[{"name":"target","type":"address","internalType":"address"}]},{"type":"error","name":"ERC1967InvalidImplementation","inputs":[{"name":"implementation","type":"address","internalType":"address"}]},{"type":"error","name":"ERC1967NonPayable","inputs":[]},{"type":"error","name":"FailedInnerCall","inputs":[]},{"type":"error","name":"InvalidInitialization","inputs":[]},{"type":"error","name":"Mismatch","inputs":[]},{"type":"error","name":"NotInitializing","inputs":[]},{"type":"error","name":"OwnableInvalidOwner","inputs":[{"name":"owner","type":"address","internalType":"address"}]},{"type":"error","name":"OwnableUnauthorizedAccount","inputs":[{"name":"account","type":"address","internalType":"address"}]},{"type":"error","name":"PreviouslyAnnounced","inputs":[]},{"type":"error","name":"UUPSUnauthorizedCallContext","inputs":[]},{"type":"error","name":"UUPSUnsupportedProxiableUUID","inputs":[{"name":"slot","type":"bytes32","internalType":"bytes32"}]},{"type":"error","name":"ZeroAddress","inputs":[]}],"bytecode":{"object":"0x60a06040523073ffffffffffffffffffffffffffffffffffffffff1660809073ffffffffffffffffffffffffffffffffffffffff16815250348015610042575f80fd5b5061005161005660201b60201c565b6101b6565b5f61006561015460201b60201c565b9050805f0160089054906101000a900460ff16156100af576040517ff92ee8a900000000000000000000000000000000000000000000000000000000815260040160405180910390fd5b67ffffffffffffffff8016815f015f9054906101000a900467ffffffffffffffff1667ffffffffffffffff16146101515767ffffffffffffffff815f015f6101000a81548167ffffffffffffffff021916908367ffffffffffffffff1602179055507fc7f505b2f371ae2175ee4913f4499e1f2633a7b5936321eed1cdaeb6115181d267ffffffffffffffff604051610148919061019d565b60405180910390a15b50565b5f7ff0c57e16840df040f15088dc2f81fe391c3923bec73e23a9662efc9c229c6a00905090565b5f67ffffffffffffffff82169050919050565b6101978161017b565b82525050565b5f6020820190506101b05f83018461018e565b92915050565b6080516131846101dc5f395f818161144101528181611496015261165001526131845ff3fe6080604052600436106100fd575f3560e01c8063748357a011610094578063ad3cb1cc11610063578063ad3cb1cc146102f8578063b59cae0c14610322578063be6c84af1461034a578063f2fde38b14610375578063f8c8765e1461039d576100fd565b8063748357a014610240578063858ef0a61461026a5780638da5cb5b146102a6578063972c72df146102d0576100fd565b806352d1902d116100d057806352d1902d146101c05780635389be4b146101ea5780635cd8a76b14610214578063715018a61461022a576100fd565b80630b7ae05c1461010157806325f28f161461012b57806330d32672146101675780634f1ef286146101a4575b5f80fd5b34801561010c575f80fd5b506101156103c5565b6040516101229190611dad565b60405180910390f35b348015610136575f80fd5b50610151600480360381019061014c9190611e01565b6103fb565b60405161015e9190611e46565b60405180910390f35b348015610172575f80fd5b5061018d60048036038101906101889190611f9b565b610425565b60405161019b929190612082565b60405180910390f35b6101be60048036038101906101b99190612147565b61069c565b005b3480156101cb575f80fd5b506101d46106bb565b6040516101e191906121b9565b60405180910390f35b3480156101f5575f80fd5b506101fe6106ec565b60405161020b9190611dad565b60405180910390f35b34801561021f575f80fd5b50610228610721565b005b348015610235575f80fd5b5061023e61093b565b005b34801561024b575f80fd5b5061025461094e565b6040516102619190611dad565b60405180910390f35b348015610275575f80fd5b50610290600480360381019061028b9190611e01565b610984565b60405161029d9190611e46565b60405180910390f35b3480156102b1575f80fd5b506102ba6109ae565b6040516102c79190611dad565b60405180910390f35b3480156102db575f80fd5b506102f660048036038101906102f191906121d2565b6109e3565b005b348015610303575f80fd5b5061030c610ce3565b6040516103199190612270565b60405180910390f35b34801561032d575f80fd5b5061034860048036038101906103439190611e01565b610d1c565b005b348015610355575f80fd5b5061035e610e15565b60405161036c929190612347565b60405180910390f35b348015610380575f80fd5b5061039b60048036038101906103969190611e01565b610f79565b005b3480156103a8575f80fd5b506103c360048036038101906103be919061237c565b610ffd565b005b5f806103cf611324565b9050806002015f9054906101000a900473ffffffffffffffffffffffffffffffffffffffff1691505090565b5f80610405611324565b905061041d838260050161134b90919063ffffffff16565b915050919050565b5f8061042f611378565b5f610438611324565b9050805f015f9054906101000a900473ffffffffffffffffffffffffffffffffffffffff16888888846002015f9054906101000a900473ffffffffffffffffffffffffffffffffffffffff16604051602401610497949392919061243b565b60405160208183030381529060405263613d25bb60e01b6020820180517bffffffffffffffffffffffffffffffffffffffffffffffffffffffff83818316178352505050506040516104e890611d61565b6104f39291906124de565b604051809103905ff08015801561050c573d5f803e3d5ffd5b509250806001015f9054906101000a900473ffffffffffffffffffffffffffffffffffffffff168884878760405160240161054a949392919061252c565b604051602081830303815290604052632016a0d260e01b6020820180517bffffffffffffffffffffffffffffffffffffffffffffffffffffffff838183161783525050505060405161059b90611d61565b6105a69291906124de565b604051809103905ff0801580156105bf573d5f803e3d5ffd5b5091506105d883826005016113ff90919063ffffffff16565b506105ef82826003016113ff90919063ffffffff16565b506105fc8160030161142c565b6106088260050161142c565b146106165761061561257d565b5b8560405161062491906125e4565b60405180910390208273ffffffffffffffffffffffffffffffffffffffff168473ffffffffffffffffffffffffffffffffffffffff167ffc5890ef646a4c681cf9479ed23b38d3d92fe3b32166aee1e9ebd394a45a08248a6040516106899190612270565b60405180910390a4509550959350505050565b6106a461143f565b6106ad82611525565b6106b78282611530565b5050565b5f6106c461164e565b7f360894a13ba1a3210667c828492db98dca3e2076cc3735a920a3ca505d382bbc5f1b905090565b5f806106f6611324565b9050805f015f9054906101000a900473ffffffffffffffffffffffffffffffffffffffff1691505090565b610729611378565b60025f6107346116d5565b9050805f0160089054906101000a900460ff168061077c57508167ffffffffffffffff16815f015f9054906101000a900467ffffffffffffffff1667ffffffffffffffff1610155b156107b3576040517ff92ee8a900000000000000000000000000000000000000000000000000000000815260040160405180910390fd5b81815f015f6101000a81548167ffffffffffffffff021916908367ffffffffffffffff1602179055506001815f0160086101000a81548160ff0219169083151502179055505f610801611324565b90505f5b6108118260030161142c565b8110156108bd576108af61083182846003016116fc90919063ffffffff16565b73ffffffffffffffffffffffffffffffffffffffff166338d52e0f6040518163ffffffff1660e01b8152600401602060405180830381865afa158015610879573d5f803e3d5ffd5b505050506040513d601f19601f8201168201806040525081019061089d919061260e565b836005016113ff90919063ffffffff16565b508080600101915050610805565b506108ca8160030161142c565b6108d68260050161142c565b146108e4576108e361257d565b5b505f815f0160086101000a81548160ff0219169083151502179055507fc7f505b2f371ae2175ee4913f4499e1f2633a7b5936321eed1cdaeb6115181d28260405161092f919061265b565b60405180910390a15050565b610943611378565b61094c5f611713565b565b5f80610958611324565b9050806001015f9054906101000a900473ffffffffffffffffffffffffffffffffffffffff1691505090565b5f8061098e611324565b90506109a6838260030161134b90919063ffffffff16565b915050919050565b5f806109b86117e4565b9050805f015f9054906101000a900473ffffffffffffffffffffffffffffffffffffffff1691505090565b6109eb611378565b8173ffffffffffffffffffffffffffffffffffffffff168173ffffffffffffffffffffffffffffffffffffffff166338d52e0f6040518163ffffffff1660e01b8152600401602060405180830381865afa158015610a4b573d5f803e3d5ffd5b505050506040513d601f19601f82011682018060405250810190610a6f919061260e565b73ffffffffffffffffffffffffffffffffffffffff1614610abc576040517f77a93d8d00000000000000000000000000000000000000000000000000000000815260040160405180910390fd5b5f610ac5611324565b9050610add83826005016113ff90919063ffffffff16565b610b13576040517f4d7457a800000000000000000000000000000000000000000000000000000000815260040160405180910390fd5b610b2982826003016113ff90919063ffffffff16565b610b5f576040517f4d7457a800000000000000000000000000000000000000000000000000000000815260040160405180910390fd5b610b6b8160030161142c565b610b778260050161142c565b14610b8557610b8461257d565b5b8273ffffffffffffffffffffffffffffffffffffffff166395d89b416040518163ffffffff1660e01b81526004015f60405180830381865afa158015610bcd573d5f803e3d5ffd5b505050506040513d5f823e3d601f19601f82011682018060405250810190610bf591906126e2565b604051610c0291906125e4565b60405180910390208273ffffffffffffffffffffffffffffffffffffffff168473ffffffffffffffffffffffffffffffffffffffff167ffc5890ef646a4c681cf9479ed23b38d3d92fe3b32166aee1e9ebd394a45a08248673ffffffffffffffffffffffffffffffffffffffff166306fdde036040518163ffffffff1660e01b81526004015f60405180830381865afa158015610ca1573d5f803e3d5ffd5b505050506040513d5f823e3d601f19601f82011682018060405250810190610cc991906126e2565b604051610cd69190612270565b60405180910390a4505050565b6040518060400160405280600581526020017f352e302e3000000000000000000000000000000000000000000000000000000081525081565b5f73ffffffffffffffffffffffffffffffffffffffff168173ffffffffffffffffffffffffffffffffffffffff1603610d81576040517fd92e233d00000000000000000000000000000000000000000000000000000000815260040160405180910390fd5b5f610d8a611324565b905081816002015f6101000a81548173ffffffffffffffffffffffffffffffffffffffff021916908373ffffffffffffffffffffffffffffffffffffffff1602179055508173ffffffffffffffffffffffffffffffffffffffff167f6ce96b6ff164da5d96a7aa655d12acdecc63ff7e35a8cfc31cd5604ed11f15c360405160405180910390a25050565b6060805f610e21611324565b90505f610e308260030161180b565b90505f815167ffffffffffffffff811115610e4e57610e4d611e77565b5b604051908082528060200260200182016040528015610e7c5781602001602082028036833780820191505090505b5090505f5b8251811015610f6b57828181518110610e9d57610e9c612729565b5b602002602001015173ffffffffffffffffffffffffffffffffffffffff166338d52e0f6040518163ffffffff1660e01b8152600401602060405180830381865afa158015610eed573d5f803e3d5ffd5b505050506040513d601f19601f82011682018060405250810190610f11919061260e565b828281518110610f2457610f23612729565b5b602002602001019073ffffffffffffffffffffffffffffffffffffffff16908173ffffffffffffffffffffffffffffffffffffffff16815250508080600101915050610e81565b508082945094505050509091565b610f81611378565b5f73ffffffffffffffffffffffffffffffffffffffff168173ffffffffffffffffffffffffffffffffffffffff1603610ff1575f6040517f1e4fbdf7000000000000000000000000000000000000000000000000000000008152600401610fe89190611dad565b60405180910390fd5b610ffa81611713565b50565b5f6110066116d5565b90505f815f0160089054906101000a900460ff161590505f825f015f9054906101000a900467ffffffffffffffff1690505f808267ffffffffffffffff1614801561104e5750825b90505f60018367ffffffffffffffff1614801561108157505f3073ffffffffffffffffffffffffffffffffffffffff163b145b90508115801561108f575080155b156110c6576040517ff92ee8a900000000000000000000000000000000000000000000000000000000815260040160405180910390fd5b6001855f015f6101000a81548167ffffffffffffffff021916908367ffffffffffffffff1602179055508315611113576001855f0160086101000a81548160ff0219169083151502179055505b5f73ffffffffffffffffffffffffffffffffffffffff168873ffffffffffffffffffffffffffffffffffffffff16148061117857505f73ffffffffffffffffffffffffffffffffffffffff168773ffffffffffffffffffffffffffffffffffffffff16145b806111ae57505f73ffffffffffffffffffffffffffffffffffffffff168673ffffffffffffffffffffffffffffffffffffffff16145b156111e5576040517fd92e233d00000000000000000000000000000000000000000000000000000000815260040160405180910390fd5b6111ee8961182a565b5f6111f7611324565b905088815f015f6101000a81548173ffffffffffffffffffffffffffffffffffffffff021916908373ffffffffffffffffffffffffffffffffffffffff16021790555087816001015f6101000a81548173ffffffffffffffffffffffffffffffffffffffff021916908373ffffffffffffffffffffffffffffffffffffffff16021790555086816002015f6101000a81548173ffffffffffffffffffffffffffffffffffffffff021916908373ffffffffffffffffffffffffffffffffffffffff160217905550508315611319575f855f0160086101000a81548160ff0219169083151502179055507fc7f505b2f371ae2175ee4913f4499e1f2633a7b5936321eed1cdaeb6115181d26001604051611310919061278f565b60405180910390a15b505050505050505050565b5f7f624c7938caaf85453d1e344eb5510e0efc5d0cf6f1e8d4a400187ed89d63af00905090565b5f611370835f018373ffffffffffffffffffffffffffffffffffffffff165f1b61183e565b905092915050565b61138061185e565b73ffffffffffffffffffffffffffffffffffffffff1661139e6109ae565b73ffffffffffffffffffffffffffffffffffffffff16146113fd576113c161185e565b6040517f118cdaa70000000000000000000000000000000000000000000000000000000081526004016113f49190611dad565b60405180910390fd5b565b5f611424835f018373ffffffffffffffffffffffffffffffffffffffff165f1b611865565b905092915050565b5f611438825f016118cc565b9050919050565b7f000000000000000000000000000000000000000000000000000000000000000073ffffffffffffffffffffffffffffffffffffffff163073ffffffffffffffffffffffffffffffffffffffff1614806114ec57507f000000000000000000000000000000000000000000000000000000000000000073ffffffffffffffffffffffffffffffffffffffff166114d36118db565b73ffffffffffffffffffffffffffffffffffffffff1614155b15611523576040517fe07c8dba00000000000000000000000000000000000000000000000000000000815260040160405180910390fd5b565b61152d611378565b50565b8173ffffffffffffffffffffffffffffffffffffffff166352d1902d6040518163ffffffff1660e01b8152600401602060405180830381865afa92505050801561159857506040513d601f19601f8201168201806040525081019061159591906127d2565b60015b6115d957816040517f4c9c8ce30000000000000000000000000000000000000000000000000000000081526004016115d09190611dad565b60405180910390fd5b7f360894a13ba1a3210667c828492db98dca3e2076cc3735a920a3ca505d382bbc5f1b811461163f57806040517faa1d49a400000000000000000000000000000000000000000000000000000000815260040161163691906121b9565b60405180910390fd5b611649838361192e565b505050565b7f000000000000000000000000000000000000000000000000000000000000000073ffffffffffffffffffffffffffffffffffffffff163073ffffffffffffffffffffffffffffffffffffffff16146116d3576040517fe07c8dba00000000000000000000000000000000000000000000000000000000815260040160405180910390fd5b565b5f7ff0c57e16840df040f15088dc2f81fe391c3923bec73e23a9662efc9c229c6a00905090565b5f611709835f01836119a0565b5f1c905092915050565b5f61171c6117e4565b90505f815f015f9054906101000a900473ffffffffffffffffffffffffffffffffffffffff16905082825f015f6101000a81548173ffffffffffffffffffffffffffffffffffffffff021916908373ffffffffffffffffffffffffffffffffffffffff1602179055508273ffffffffffffffffffffffffffffffffffffffff168173ffffffffffffffffffffffffffffffffffffffff167f8be0079c531659141344cd1fd0a4f28419497f9722a3daafe3b4186f6b6457e060405160405180910390a3505050565b5f7f9016d09d72d40fdae2fd8ceac6b6234c7706214fd39c1cd1e609a0528c199300905090565b60605f611819835f016119c7565b905060608190508092505050919050565b611832611a20565b61183b81611a60565b50565b5f80836001015f8481526020019081526020015f20541415905092915050565b5f33905090565b5f611870838361183e565b6118c257825f0182908060018154018082558091505060019003905f5260205f20015f9091909190915055825f0180549050836001015f8481526020019081526020015f2081905550600190506118c6565b5f90505b92915050565b5f815f01805490509050919050565b5f6119077f360894a13ba1a3210667c828492db98dca3e2076cc3735a920a3ca505d382bbc5f1b611ae4565b5f015f9054906101000a900473ffffffffffffffffffffffffffffffffffffffff16905090565b61193782611aed565b8173ffffffffffffffffffffffffffffffffffffffff167fbc7cd75a20ee27fd9adebab32041f755214dbc6bffa90cc0225b39da2e5c2d3b60405160405180910390a25f815111156119935761198d8282611bb6565b5061199c565b61199b611c36565b5b5050565b5f825f0182815481106119b6576119b5612729565b5b905f5260205f200154905092915050565b6060815f01805480602002602001604051908101604052809291908181526020018280548015611a1457602002820191905f5260205f20905b815481526020019060010190808311611a00575b50505050509050919050565b611a28611c72565b611a5e576040517fd7e6bcf800000000000000000000000000000000000000000000000000000000815260040160405180910390fd5b565b611a68611a20565b5f73ffffffffffffffffffffffffffffffffffffffff168173ffffffffffffffffffffffffffffffffffffffff1603611ad8575f6040517f1e4fbdf7000000000000000000000000000000000000000000000000000000008152600401611acf9190611dad565b60405180910390fd5b611ae181611713565b50565b5f819050919050565b5f8173ffffffffffffffffffffffffffffffffffffffff163b03611b4857806040517f4c9c8ce3000000000000000000000000000000000000000000000000000000008152600401611b3f9190611dad565b60405180910390fd5b80611b747f360894a13ba1a3210667c828492db98dca3e2076cc3735a920a3ca505d382bbc5f1b611ae4565b5f015f6101000a81548173ffffffffffffffffffffffffffffffffffffffff021916908373ffffffffffffffffffffffffffffffffffffffff16021790555050565b60605f808473ffffffffffffffffffffffffffffffffffffffff1684604051611bdf9190612837565b5f60405180830381855af49150503d805f8114611c17576040519150601f19603f3d011682016040523d82523d5f602084013e611c1c565b606091505b5091509150611c2c858383611c90565b9250505092915050565b5f341115611c70576040517fb398979f00000000000000000000000000000000000000000000000000000000815260040160405180910390fd5b565b5f611c7b6116d5565b5f0160089054906101000a900460ff16905090565b606082611ca557611ca082611d1d565b611d15565b5f8251148015611ccb57505f8473ffffffffffffffffffffffffffffffffffffffff163b145b15611d0d57836040517f9996b315000000000000000000000000000000000000000000000000000000008152600401611d049190611dad565b60405180910390fd5b819050611d16565b5b9392505050565b5f81511115611d2f5780518082602001fd5b6040517f1425ea4200000000000000000000000000000000000000000000000000000000815260040160405180910390fd5b6109018061284e83390190565b5f73ffffffffffffffffffffffffffffffffffffffff82169050919050565b5f611d9782611d6e565b9050919050565b611da781611d8d565b82525050565b5f602082019050611dc05f830184611d9e565b92915050565b5f604051905090565b5f80fd5b5f80fd5b611de081611d8d565b8114611dea575f80fd5b50565b5f81359050611dfb81611dd7565b92915050565b5f60208284031215611e1657611e15611dcf565b5b5f611e2384828501611ded565b91505092915050565b5f8115159050919050565b611e4081611e2c565b82525050565b5f602082019050611e595f830184611e37565b92915050565b5f80fd5b5f80fd5b5f601f19601f8301169050919050565b7f4e487b71000000000000000000000000000000000000000000000000000000005f52604160045260245ffd5b611ead82611e67565b810181811067ffffffffffffffff82111715611ecc57611ecb611e77565b5b80604052505050565b5f611ede611dc6565b9050611eea8282611ea4565b919050565b5f67ffffffffffffffff821115611f0957611f08611e77565b5b611f1282611e67565b9050602081019050919050565b828183375f83830152505050565b5f611f3f611f3a84611eef565b611ed5565b905082815260208101848484011115611f5b57611f5a611e63565b5b611f66848285611f1f565b509392505050565b5f82601f830112611f8257611f81611e5f565b5b8135611f92848260208601611f2d565b91505092915050565b5f805f805f60a08688031215611fb457611fb3611dcf565b5b5f611fc188828901611ded565b955050602086013567ffffffffffffffff811115611fe257611fe1611dd3565b5b611fee88828901611f6e565b945050604086013567ffffffffffffffff81111561200f5761200e611dd3565b5b61201b88828901611f6e565b935050606086013567ffffffffffffffff81111561203c5761203b611dd3565b5b61204888828901611f6e565b925050608086013567ffffffffffffffff81111561206957612068611dd3565b5b61207588828901611f6e565b9150509295509295909350565b5f6040820190506120955f830185611d9e565b6120a26020830184611d9e565b9392505050565b5f67ffffffffffffffff8211156120c3576120c2611e77565b5b6120cc82611e67565b9050602081019050919050565b5f6120eb6120e6846120a9565b611ed5565b90508281526020810184848401111561210757612106611e63565b5b612112848285611f1f565b509392505050565b5f82601f83011261212e5761212d611e5f565b5b813561213e8482602086016120d9565b91505092915050565b5f806040838503121561215d5761215c611dcf565b5b5f61216a85828601611ded565b925050602083013567ffffffffffffffff81111561218b5761218a611dd3565b5b6121978582860161211a565b9150509250929050565b5f819050919050565b6121b3816121a1565b82525050565b5f6020820190506121cc5f8301846121aa565b92915050565b5f80604083850312156121e8576121e7611dcf565b5b5f6121f585828601611ded565b925050602061220685828601611ded565b9150509250929050565b5f81519050919050565b5f82825260208201905092915050565b8281835e5f83830152505050565b5f61224282612210565b61224c818561221a565b935061225c81856020860161222a565b61226581611e67565b840191505092915050565b5f6020820190508181035f8301526122888184612238565b905092915050565b5f81519050919050565b5f82825260208201905092915050565b5f819050602082019050919050565b6122c281611d8d565b82525050565b5f6122d383836122b9565b60208301905092915050565b5f602082019050919050565b5f6122f582612290565b6122ff818561229a565b935061230a836122aa565b805f5b8381101561233a57815161232188826122c8565b975061232c836122df565b92505060018101905061230d565b5085935050505092915050565b5f6040820190508181035f83015261235f81856122eb565b9050818103602083015261237381846122eb565b90509392505050565b5f805f806080858703121561239457612393611dcf565b5b5f6123a187828801611ded565b94505060206123b287828801611ded565b93505060406123c387828801611ded565b92505060606123d487828801611ded565b91505092959194509250565b5f819050919050565b5f6124036123fe6123f984611d6e565b6123e0565b611d6e565b9050919050565b5f612414826123e9565b9050919050565b5f6124258261240a565b9050919050565b6124358161241b565b82525050565b5f60808201905061244e5f830187611d9e565b81810360208301526124608186612238565b905081810360408301526124748185612238565b9050612483606083018461242c565b95945050505050565b5f81519050919050565b5f82825260208201905092915050565b5f6124b08261248c565b6124ba8185612496565b93506124ca81856020860161222a565b6124d381611e67565b840191505092915050565b5f6040820190506124f15f830185611d9e565b818103602083015261250381846124a6565b90509392505050565b5f6125168261240a565b9050919050565b6125268161250c565b82525050565b5f60808201905061253f5f830187611d9e565b61254c602083018661251d565b818103604083015261255e8185612238565b905081810360608301526125728184612238565b905095945050505050565b7f4e487b71000000000000000000000000000000000000000000000000000000005f52600160045260245ffd5b5f81905092915050565b5f6125be82612210565b6125c881856125aa565b93506125d881856020860161222a565b80840191505092915050565b5f6125ef82846125b4565b915081905092915050565b5f8151905061260881611dd7565b92915050565b5f6020828403121561262357612622611dcf565b5b5f612630848285016125fa565b91505092915050565b5f67ffffffffffffffff82169050919050565b61265581612639565b82525050565b5f60208201905061266e5f83018461264c565b92915050565b5f61268661268184611eef565b611ed5565b9050828152602081018484840111156126a2576126a1611e63565b5b6126ad84828561222a565b509392505050565b5f82601f8301126126c9576126c8611e5f565b5b81516126d9848260208601612674565b91505092915050565b5f602082840312156126f7576126f6611dcf565b5b5f82015167ffffffffffffffff81111561271457612713611dd3565b5b612720848285016126b5565b91505092915050565b7f4e487b71000000000000000000000000000000000000000000000000000000005f52603260045260245ffd5b5f819050919050565b5f61277961277461276f84612756565b6123e0565b612639565b9050919050565b6127898161275f565b82525050565b5f6020820190506127a25f830184612780565b92915050565b6127b1816121a1565b81146127bb575f80fd5b50565b5f815190506127cc816127a8565b92915050565b5f602082840312156127e7576127e6611dcf565b5b5f6127f4848285016127be565b91505092915050565b5f81905092915050565b5f6128118261248c565b61281b81856127fd565b935061282b81856020860161222a565b80840191505092915050565b5f6128428284612807565b91508190509291505056fe60a060405260405161090138038061090183398181016040528101906100259190610644565b610035828261007060201b60201c565b8173ffffffffffffffffffffffffffffffffffffffff1660808173ffffffffffffffffffffffffffffffffffffffff1681525050505061074b565b61007f8261016060201b60201c565b8173ffffffffffffffffffffffffffffffffffffffff167f1cf3b03a6cf19fa2baba4df148e9dcabedea7f8a5c07840e207e5c089be95d3e60405160405180910390a25f8151111561014d576101478273ffffffffffffffffffffffffffffffffffffffff16635c60da1b6040518163ffffffff1660e01b8152600401602060405180830381865afa158015610117573d5f803e3d5ffd5b505050506040513d601f19601f8201168201806040525081019061013b919061069e565b826102fb60201b60201c565b5061015c565b61015b61038160201b60201c565b5b5050565b5f8173ffffffffffffffffffffffffffffffffffffffff163b036101bb57806040517f64ced0ec0000000000000000000000000000000000000000000000000000000081526004016101b291906106d8565b60405180910390fd5b806101ed7fa3f0ad74e5423aebfd80d3ef4346578335a9a72aeaee59ff6cb3582b35133d505f1b6103bd60201b60201c565b5f015f6101000a81548173ffffffffffffffffffffffffffffffffffffffff021916908373ffffffffffffffffffffffffffffffffffffffff1602179055505f8173ffffffffffffffffffffffffffffffffffffffff16635c60da1b6040518163ffffffff1660e01b8152600401602060405180830381865afa158015610276573d5f803e3d5ffd5b505050506040513d601f19601f8201168201806040525081019061029a919061069e565b90505f8173ffffffffffffffffffffffffffffffffffffffff163b036102f757806040517f4c9c8ce30000000000000000000000000000000000000000000000000000000081526004016102ee91906106d8565b60405180910390fd5b5050565b60605f808473ffffffffffffffffffffffffffffffffffffffff16846040516103249190610735565b5f60405180830381855af49150503d805f811461035c576040519150601f19603f3d011682016040523d82523d5f602084013e610361565b606091505b50915091506103778583836103c660201b60201c565b9250505092915050565b5f3411156103bb576040517fb398979f00000000000000000000000000000000000000000000000000000000815260040160405180910390fd5b565b5f819050919050565b6060826103e1576103dc8261045960201b60201c565b610451565b5f825114801561040757505f8473ffffffffffffffffffffffffffffffffffffffff163b145b1561044957836040517f9996b31500000000000000000000000000000000000000000000000000000000815260040161044091906106d8565b60405180910390fd5b819050610452565b5b9392505050565b5f8151111561046b5780518082602001fd5b6040517f1425ea4200000000000000000000000000000000000000000000000000000000815260040160405180910390fd5b5f604051905090565b5f80fd5b5f80fd5b5f73ffffffffffffffffffffffffffffffffffffffff82169050919050565b5f6104d7826104ae565b9050919050565b6104e7816104cd565b81146104f1575f80fd5b50565b5f81519050610502816104de565b92915050565b5f80fd5b5f80fd5b5f601f19601f8301169050919050565b7f4e487b71000000000000000000000000000000000000000000000000000000005f52604160045260245ffd5b61055682610510565b810181811067ffffffffffffffff8211171561057557610574610520565b5b80604052505050565b5f61058761049d565b9050610593828261054d565b919050565b5f67ffffffffffffffff8211156105b2576105b1610520565b5b6105bb82610510565b9050602081019050919050565b8281835e5f83830152505050565b5f6105e86105e384610598565b61057e565b9050828152602081018484840111156106045761060361050c565b5b61060f8482856105c8565b509392505050565b5f82601f83011261062b5761062a610508565b5b815161063b8482602086016105d6565b91505092915050565b5f806040838503121561065a576106596104a6565b5b5f610667858286016104f4565b925050602083015167ffffffffffffffff811115610688576106876104aa565b5b61069485828601610617565b9150509250929050565b5f602082840312156106b3576106b26104a6565b5b5f6106c0848285016104f4565b91505092915050565b6106d2816104cd565b82525050565b5f6020820190506106eb5f8301846106c9565b92915050565b5f81519050919050565b5f81905092915050565b5f61070f826106f1565b61071981856106fb565b93506107298185602086016105c8565b80840191505092915050565b5f6107408284610705565b915081905092915050565b60805161019f6107625f395f60bc015261019f5ff3fe608060405261000c61000e565b005b61001e610019610020565b61009a565b565b5f6100296100b9565b73ffffffffffffffffffffffffffffffffffffffff16635c60da1b6040518163ffffffff1660e01b8152600401602060405180830381865afa158015610071573d5f803e3d5ffd5b505050506040513d601f19601f82011682018060405250810190610095919061013e565b905090565b365f80375f80365f845af43d5f803e805f81146100b5573d5ff35b3d5ffd5b5f7f0000000000000000000000000000000000000000000000000000000000000000905090565b5f80fd5b5f73ffffffffffffffffffffffffffffffffffffffff82169050919050565b5f61010d826100e4565b9050919050565b61011d81610103565b8114610127575f80fd5b50565b5f8151905061013881610114565b92915050565b5f60208284031215610153576101526100e0565b5b5f6101608482850161012a565b9150509291505056fea2646970667358221220616b4a639d23c154b27ee8bc2dfcf9af0d119573ec9300db9113832144754a8464736f6c63430008190033a264697066735822122043833cae61e0256f04fca377dab070411db93d019e5f471b3ab4ce32c2476d6464736f6c63430008190033","linkReferences":{}},"methodIdentifiers":{"UPGRADE_INTERFACE_VERSION()":"ad3cb1cc","announceExistingDShare(address,address)":"972c72df","createDShare(address,string,string,string,string)":"30d32672","getDShareBeacon()":"5389be4b","getDShares()":"be6c84af","getTransferRestrictor()":"0b7ae05c","getWrappedDShareBeacon()":"748357a0","initialize(address,address,address,address)":"f8c8765e","initializeV2()":"5cd8a76b","isTokenDShare(address)":"25f28f16","isTokenWrappedDShare(address)":"858ef0a6","owner()":"8da5cb5b","proxiableUUID()":"52d1902d","renounceOwnership()":"715018a6","setNewTransferRestrictor(address)":"b59cae0c","transferOwnership(address)":"f2fde38b","upgradeToAndCall(address,bytes)":"4f1ef286"},"id":3}