{"abi":[{"type":"constructor","inputs":[],"stateMutability":"nonpayable"},{"type":"function","name":"DOMAIN_SEPARATOR","inputs":[],"outputs":[{"name":"","type":"bytes32","internalType":"bytes32"}],"stateMutability":"view"},{"type":"function","name":"UPGRADE_INTERFACE_VERSION","inputs":[],"outputs":[{"name":"","type":"string","internalType":"string"}],"stateMutability":"view"},{"type":"function","name":"acceptOwnership","inputs":[],"outputs":[],"stateMutability":"nonpayable"},{"type":"function","name":"cancelOrder","inputs":[{"name":"order","type":"tuple","internalType":"struct IOrderProcessor.Order","components":[{"name":"requestTimestamp","type":"uint64","internalType":"uint64"},{"name":"recipient","type":"address","internalType":"address"},{"name":"assetToken","type":"address","internalType":"address"},{"name":"paymentToken","type":"address","internalType":"address"},{"name":"sell","type":"bool","internalType":"bool"},{"name":"orderType","type":"uint8","internalType":"enum IOrderProcessor.OrderType"},{"name":"assetTokenQuantity","type":"uint256","internalType":"uint256"},{"name":"paymentTokenQuantity","type":"uint256","internalType":"uint256"},{"name":"price","type":"uint256","internalType":"uint256"},{"name":"tif","type":"uint8","internalType":"enum IOrderProcessor.TIF"}]},{"name":"reason","type":"string","internalType":"string"}],"outputs":[],"stateMutability":"nonpayable"},{"type":"function","name":"createOrder","inputs":[{"name":"order","type":"tuple","internalType":"struct IOrderProcessor.Order","components":[{"name":"requestTimestamp","type":"uint64","internalType":"uint64"},{"name":"recipient","type":"address","internalType":"address"},{"name":"assetToken","type":"address","internalType":"address"},{"name":"paymentToken","type":"address","internalType":"address"},{"name":"sell","type":"bool","internalType":"bool"},{"name":"orderType","type":"uint8","internalType":"enum IOrderProcessor.OrderType"},{"name":"assetTokenQuantity","type":"uint256","internalType":"uint256"},{"name":"paymentTokenQuantity","type":"uint256","internalType":"uint256"},{"name":"price","type":"uint256","internalType":"uint256"},{"name":"tif","type":"uint8","internalType":"enum IOrderProcessor.TIF"}]},{"name":"feeQuote","type":"tuple","internalType":"struct IOrderProcessor.FeeQuote","components":[{"name":"orderId","type":"uint256","internalType":"uint256"},{"name":"requester","type":"address","internalType":"address"},{"name":"fee","type":"uint256","internalType":"uint256"},{"name":"timestamp","type":"uint64","internalType":"uint64"},{"name":"deadline","type":"uint64","internalType":"uint64"}]},{"name":"feeQuoteSignature","type":"bytes","internalType":"bytes"}],"outputs":[{"name":"id","type":"uint256","internalType":"uint256"}],"stateMutability":"nonpayable"},{"type":"function","name":"createOrderStandardFees","inputs":[{"name":"order","type":"tuple","internalType":"struct IOrderProcessor.Order","components":[{"name":"requestTimestamp","type":"uint64","internalType":"uint64"},{"name":"recipient","type":"address","internalType":"address"},{"name":"assetToken","type":"address","internalType":"address"},{"name":"paymentToken","type":"address","internalType":"address"},{"name":"sell","type":"bool","internalType":"bool"},{"name":"orderType","type":"uint8","internalType":"enum IOrderProcessor.OrderType"},{"name":"assetTokenQuantity","type":"uint256","internalType":"uint256"},{"name":"paymentTokenQuantity","type":"uint256","internalType":"uint256"},{"name":"price","type":"uint256","internalType":"uint256"},{"name":"tif","type":"uint8","internalType":"enum IOrderProcessor.TIF"}]}],"outputs":[{"name":"id","type":"uint256","internalType":"uint256"}],"stateMutability":"nonpayable"},{"type":"function","name":"createOrderWithSignature","inputs":[{"name":"order","type":"tuple","internalType":"struct IOrderProcessor.Order","components":[{"name":"requestTimestamp","type":"uint64","internalType":"uint64"},{"name":"recipient","type":"address","internalType":"address"},{"name":"assetToken","type":"address","internalType":"address"},{"name":"paymentToken","type":"address","internalType":"address"},{"name":"sell","type":"bool","internalType":"bool"},{"name":"orderType","type":"uint8","internalType":"enum IOrderProcessor.OrderType"},{"name":"assetTokenQuantity","type":"uint256","internalType":"uint256"},{"name":"paymentTokenQuantity","type":"uint256","internalType":"uint256"},{"name":"price","type":"uint256","internalType":"uint256"},{"name":"tif","type":"uint8","internalType":"enum IOrderProcessor.TIF"}]},{"name":"orderSignature","type":"tuple","internalType":"struct IOrderProcessor.Signature","components":[{"name":"deadline","type":"uint64","internalType":"uint64"},{"name":"signature","type":"bytes","internalType":"bytes"}]},{"name":"feeQuote","type":"tuple","internalType":"struct IOrderProcessor.FeeQuote","components":[{"name":"orderId","type":"uint256","internalType":"uint256"},{"name":"requester","type":"address","internalType":"address"},{"name":"fee","type":"uint256","internalType":"uint256"},{"name":"timestamp","type":"uint64","internalType":"uint64"},{"name":"deadline","type":"uint64","internalType":"uint64"}]},{"name":"feeQuoteSignature","type":"bytes","internalType":"bytes"}],"outputs":[{"name":"id","type":"uint256","internalType":"uint256"}],"stateMutability":"nonpayable"},{"type":"function","name":"dShareFactory","inputs":[],"outputs":[{"name":"","type":"address","internalType":"contract IDShareFactory"}],"stateMutability":"view"},{"type":"function","name":"eip712Domain","inputs":[],"outputs":[{"name":"fields","type":"bytes1","internalType":"bytes1"},{"name":"name","type":"string","internalType":"string"},{"name":"version","type":"string","internalType":"string"},{"name":"chainId","type":"uint256","internalType":"uint256"},{"name":"verifyingContract","type":"address","internalType":"address"},{"name":"salt","type":"bytes32","internalType":"bytes32"},{"name":"extensions","type":"uint256[]","internalType":"uint256[]"}],"stateMutability":"view"},{"type":"function","name":"fillOrder","inputs":[{"name":"order","type":"tuple","internalType":"struct IOrderProcessor.Order","components":[{"name":"requestTimestamp","type":"uint64","internalType":"uint64"},{"name":"recipient","type":"address","internalType":"address"},{"name":"assetToken","type":"address","internalType":"address"},{"name":"paymentToken","type":"address","internalType":"address"},{"name":"sell","type":"bool","internalType":"bool"},{"name":"orderType","type":"uint8","internalType":"enum IOrderProcessor.OrderType"},{"name":"assetTokenQuantity","type":"uint256","internalType":"uint256"},{"name":"paymentTokenQuantity","type":"uint256","internalType":"uint256"},{"name":"price","type":"uint256","internalType":"uint256"},{"name":"tif","type":"uint8","internalType":"enum IOrderProcessor.TIF"}]},{"name":"fillAmount","type":"uint256","internalType":"uint256"},{"name":"receivedAmount","type":"uint256","internalType":"uint256"},{"name":"fees","type":"uint256","internalType":"uint256"}],"outputs":[],"stateMutability":"nonpayable"},{"type":"function","name":"getFeesEscrowed","inputs":[{"name":"id","type":"uint256","internalType":"uint256"}],"outputs":[{"name":"","type":"uint256","internalType":"uint256"}],"stateMutability":"view"},{"type":"function","name":"getFeesTaken","inputs":[{"name":"id","type":"uint256","internalType":"uint256"}],"outputs":[{"name":"","type":"uint256","internalType":"uint256"}],"stateMutability":"view"},{"type":"function","name":"getOrderStatus","inputs":[{"name":"id","type":"uint256","internalType":"uint256"}],"outputs":[{"name":"","type":"uint8","internalType":"enum IOrderProcessor.OrderStatus"}],"stateMutability":"view"},{"type":"function","name":"getPaymentTokenConfig","inputs":[{"name":"paymentToken","type":"address","internalType":"address"}],"outputs":[{"name":"","type":"tuple","internalType":"struct OrderProcessor.PaymentTokenConfig","components":[{"name":"enabled","type":"bool","internalType":"bool"},{"name":"decimals","type":"uint8","internalType":"uint8"},{"name":"blacklistCallSelector","type":"bytes4","internalType":"bytes4"},{"name":"perOrderFeeBuy","type":"uint64","internalType":"uint64"},{"name":"percentageFeeRateBuy","type":"uint24","internalType":"uint24"},{"name":"perOrderFeeSell","type":"uint64","internalType":"uint64"},{"name":"percentageFeeRateSell","type":"uint24","internalType":"uint24"}]}],"stateMutability":"view"},{"type":"function","name":"getReceivedAmount","inputs":[{"name":"id","type":"uint256","internalType":"uint256"}],"outputs":[{"name":"","type":"uint256","internalType":"uint256"}],"stateMutability":"view"},{"type":"function","name":"getStandardFees","inputs":[{"name":"sell","type":"bool","internalType":"bool"},{"name":"paymentToken","type":"address","internalType":"address"}],"outputs":[{"name":"","type":"uint256","internalType":"uint256"},{"name":"","type":"uint24","internalType":"uint24"}],"stateMutability":"view"},{"type":"function","name":"getUnfilledAmount","inputs":[{"name":"id","type":"uint256","internalType":"uint256"}],"outputs":[{"name":"","type":"uint256","internalType":"uint256"}],"stateMutability":"view"},{"type":"function","name":"hashFeeQuote","inputs":[{"name":"feeQuote","type":"tuple","internalType":"struct IOrderProcessor.FeeQuote","components":[{"name":"orderId","type":"uint256","internalType":"uint256"},{"name":"requester","type":"address","internalType":"address"},{"name":"fee","type":"uint256","internalType":"uint256"},{"name":"timestamp","type":"uint64","internalType":"uint64"},{"name":"deadline","type":"uint64","internalType":"uint64"}]}],"outputs":[{"name":"","type":"bytes32","internalType":"bytes32"}],"stateMutability":"pure"},{"type":"function","name":"hashOrder","inputs":[{"name":"order","type":"tuple","internalType":"struct IOrderProcessor.Order","components":[{"name":"requestTimestamp","type":"uint64","internalType":"uint64"},{"name":"recipient","type":"address","internalType":"address"},{"name":"assetToken","type":"address","internalType":"address"},{"name":"paymentToken","type":"address","internalType":"address"},{"name":"sell","type":"bool","internalType":"bool"},{"name":"orderType","type":"uint8","internalType":"enum IOrderProcessor.OrderType"},{"name":"assetTokenQuantity","type":"uint256","internalType":"uint256"},{"name":"paymentTokenQuantity","type":"uint256","internalType":"uint256"},{"name":"price","type":"uint256","internalType":"uint256"},{"name":"tif","type":"uint8","internalType":"enum IOrderProcessor.TIF"}]}],"outputs":[{"name":"","type":"uint256","internalType":"uint256"}],"stateMutability":"pure"},{"type":"function","name":"hashOrderRequest","inputs":[{"name":"order","type":"tuple","internalType":"struct IOrderProcessor.Order","components":[{"name":"requestTimestamp","type":"uint64","internalType":"uint64"},{"name":"recipient","type":"address","internalType":"address"},{"name":"assetToken","type":"address","internalType":"address"},{"name":"paymentToken","type":"address","internalType":"address"},{"name":"sell","type":"bool","internalType":"bool"},{"name":"orderType","type":"uint8","internalType":"enum IOrderProcessor.OrderType"},{"name":"assetTokenQuantity","type":"uint256","internalType":"uint256"},{"name":"paymentTokenQuantity","type":"uint256","internalType":"uint256"},{"name":"price","type":"uint256","internalType":"uint256"},{"name":"tif","type":"uint8","internalType":"enum IOrderProcessor.TIF"}]},{"name":"deadline","type":"uint64","internalType":"uint64"}],"outputs":[{"name":"","type":"bytes32","internalType":"bytes32"}],"stateMutability":"pure"},{"type":"function","name":"initialize","inputs":[{"name":"_owner","type":"address","internalType":"address"},{"name":"_treasury","type":"address","internalType":"address"},{"name":"_vault","type":"address","internalType":"address"},{"name":"_dShareFactory","type":"address","internalType":"contract IDShareFactory"}],"outputs":[],"stateMutability":"nonpayable"},{"type":"function","name":"isOperator","inputs":[{"name":"account","type":"address","internalType":"address"}],"outputs":[{"name":"","type":"bool","internalType":"bool"}],"stateMutability":"view"},{"type":"function","name":"isTransferLocked","inputs":[{"name":"token","type":"address","internalType":"address"},{"name":"account","type":"address","internalType":"address"}],"outputs":[{"name":"","type":"bool","internalType":"bool"}],"stateMutability":"view"},{"type":"function","name":"latestFillPrice","inputs":[{"name":"assetToken","type":"address","internalType":"address"},{"name":"paymentToken","type":"address","internalType":"address"}],"outputs":[{"name":"","type":"tuple","internalType":"struct IOrderProcessor.PricePoint","components":[{"name":"price","type":"uint256","internalType":"uint256"},{"name":"blocktime","type":"uint64","internalType":"uint64"}]}],"stateMutability":"view"},{"type":"function","name":"multicall","inputs":[{"name":"data","type":"bytes[]","internalType":"bytes[]"}],"outputs":[{"name":"results","type":"bytes[]","internalType":"bytes[]"}],"stateMutability":"nonpayable"},{"type":"function","name":"orderDecimalReduction","inputs":[{"name":"token","type":"address","internalType":"address"}],"outputs":[{"name":"","type":"uint8","internalType":"uint8"}],"stateMutability":"view"},{"type":"function","name":"ordersPaused","inputs":[],"outputs":[{"name":"","type":"bool","internalType":"bool"}],"stateMutability":"view"},{"type":"function","name":"owner","inputs":[],"outputs":[{"name":"","type":"address","internalType":"address"}],"stateMutability":"view"},{"type":"function","name":"pendingOwner","inputs":[],"outputs":[{"name":"","type":"address","internalType":"address"}],"stateMutability":"view"},{"type":"function","name":"proxiableUUID","inputs":[],"outputs":[{"name":"","type":"bytes32","internalType":"bytes32"}],"stateMutability":"view"},{"type":"function","name":"removePaymentToken","inputs":[{"name":"paymentToken","type":"address","internalType":"address"}],"outputs":[],"stateMutability":"nonpayable"},{"type":"function","name":"renounceOwnership","inputs":[],"outputs":[],"stateMutability":"nonpayable"},{"type":"function","name":"requestCancel","inputs":[{"name":"id","type":"uint256","internalType":"uint256"}],"outputs":[],"stateMutability":"nonpayable"},{"type":"function","name":"selfPermit","inputs":[{"name":"token","type":"address","internalType":"address"},{"name":"owner","type":"address","internalType":"address"},{"name":"value","type":"uint256","internalType":"uint256"},{"name":"deadline","type":"uint256","internalType":"uint256"},{"name":"v","type":"uint8","internalType":"uint8"},{"name":"r","type":"bytes32","internalType":"bytes32"},{"name":"s","type":"bytes32","internalType":"bytes32"}],"outputs":[],"stateMutability":"nonpayable"},{"type":"function","name":"setOperator","inputs":[{"name":"account","type":"address","internalType":"address"},{"name":"status","type":"bool","internalType":"bool"}],"outputs":[],"stateMutability":"nonpayable"},{"type":"function","name":"setOrderDecimalReduction","inputs":[{"name":"token","type":"address","internalType":"address"},{"name":"decimalReduction","type":"uint8","internalType":"uint8"}],"outputs":[],"stateMutability":"nonpayable"},{"type":"function","name":"setOrdersPaused","inputs":[{"name":"pause","type":"bool","internalType":"bool"}],"outputs":[],"stateMutability":"nonpayable"},{"type":"function","name":"setPaymentToken","inputs":[{"name":"paymentToken","type":"address","internalType":"address"},{"name":"blacklistCallSelector","type":"bytes4","internalType":"bytes4"},{"name":"perOrderFeeBuy","type":"uint64","internalType":"uint64"},{"name":"percentageFeeRateBuy","type":"uint24","internalType":"uint24"},{"name":"perOrderFeeSell","type":"uint64","internalType":"uint64"},{"name":"percentageFeeRateSell","type":"uint24","internalType":"uint24"}],"outputs":[],"stateMutability":"nonpayable"},{"type":"function","name":"setTreasury","inputs":[{"name":"account","type":"address","internalType":"address"}],"outputs":[],"stateMutability":"nonpayable"},{"type":"function","name":"setVault","inputs":[{"name":"account","type":"address","internalType":"address"}],"outputs":[],"stateMutability":"nonpayable"},{"type":"function","name":"totalStandardFee","inputs":[{"name":"sell","type":"bool","internalType":"bool"},{"name":"paymentToken","type":"address","internalType":"address"},{"name":"paymentTokenQuantity","type":"uint256","internalType":"uint256"}],"outputs":[{"name":"","type":"uint256","internalType":"uint256"}],"stateMutability":"view"},{"type":"function","name":"transferOwnership","inputs":[{"name":"newOwner","type":"address","internalType":"address"}],"outputs":[],"stateMutability":"nonpayable"},{"type":"function","name":"treasury","inputs":[],"outputs":[{"name":"","type":"address","internalType":"address"}],"stateMutability":"view"},{"type":"function","name":"upgradeToAndCall","inputs":[{"name":"newImplementation","type":"address","internalType":"address"},{"name":"data","type":"bytes","internalType":"bytes"}],"outputs":[],"stateMutability":"payable"},{"type":"function","name":"vault","inputs":[],"outputs":[{"name":"","type":"address","internalType":"address"}],"stateMutability":"view"},{"type":"event","name":"CancelRequested","inputs":[{"name":"id","type":"uint256","indexed":true,"internalType":"uint256"},{"name":"requester","type":"address","indexed":true,"internalType":"address"}],"anonymous":false},{"type":"event","name":"EIP712DomainChanged","inputs":[],"anonymous":false},{"type":"event","name":"Initialized","inputs":[{"name":"version","type":"uint64","indexed":false,"internalType":"uint64"}],"anonymous":false},{"type":"event","name":"OperatorSet","inputs":[{"name":"account","type":"address","indexed":true,"internalType":"address"},{"name":"status","type":"bool","indexed":false,"internalType":"bool"}],"anonymous":false},{"type":"event","name":"OrderCancelled","inputs":[{"name":"id","type":"uint256","indexed":true,"internalType":"uint256"},{"name":"requester","type":"address","indexed":true,"internalType":"address"},{"name":"reason","type":"string","indexed":false,"internalType":"string"}],"anonymous":false},{"type":"event","name":"OrderCreated","inputs":[{"name":"id","type":"uint256","indexed":true,"internalType":"uint256"},{"name":"requester","type":"address","indexed":true,"internalType":"address"},{"name":"order","type":"tuple","indexed":false,"internalType":"struct IOrderProcessor.Order","components":[{"name":"requestTimestamp","type":"uint64","internalType":"uint64"},{"name":"recipient","type":"address","internalType":"address"},{"name":"assetToken","type":"address","internalType":"address"},{"name":"paymentToken","type":"address","internalType":"address"},{"name":"sell","type":"bool","internalType":"bool"},{"name":"orderType","type":"uint8","internalType":"enum IOrderProcessor.OrderType"},{"name":"assetTokenQuantity","type":"uint256","internalType":"uint256"},{"name":"paymentTokenQuantity","type":"uint256","internalType":"uint256"},{"name":"price","type":"uint256","internalType":"uint256"},{"name":"tif","type":"uint8","internalType":"enum IOrderProcessor.TIF"}]},{"name":"feesEscrowed","type":"uint256","indexed":false,"internalType":"uint256"}],"anonymous":false},{"type":"event","name":"OrderDecimalReductionSet","inputs":[{"name":"assetToken","type":"address","indexed":true,"internalType":"address"},{"name":"decimalReduction","type":"uint8","indexed":false,"internalType":"uint8"}],"anonymous":false},{"type":"event","name":"OrderFill","inputs":[{"name":"id","type":"uint256","indexed":true,"internalType":"uint256"},{"name":"paymentToken","type":"address","indexed":true,"internalType":"address"},{"name":"assetToken","type":"address","indexed":true,"internalType":"address"},{"name":"requester","type":"address","indexed":false,"internalType":"address"},{"name":"assetAmount","type":"uint256","indexed":false,"internalType":"uint256"},{"name":"paymentAmount","type":"uint256","indexed":false,"internalType":"uint256"},{"name":"feesTaken","type":"uint256","indexed":false,"internalType":"uint256"},{"name":"sell","type":"bool","indexed":false,"internalType":"bool"}],"anonymous":false},{"type":"event","name":"OrderFulfilled","inputs":[{"name":"id","type":"uint256","indexed":true,"internalType":"uint256"},{"name":"requester","type":"address","indexed":true,"internalType":"address"}],"anonymous":false},{"type":"event","name":"OrdersPaused","inputs":[{"name":"paused","type":"bool","indexed":false,"internalType":"bool"}],"anonymous":false},{"type":"event","name":"OwnershipTransferStarted","inputs":[{"name":"previousOwner","type":"address","indexed":true,"internalType":"address"},{"name":"newOwner","type":"address","indexed":true,"internalType":"address"}],"anonymous":false},{"type":"event","name":"OwnershipTransferred","inputs":[{"name":"previousOwner","type":"address","indexed":true,"internalType":"address"},{"name":"newOwner","type":"address","indexed":true,"internalType":"address"}],"anonymous":false},{"type":"event","name":"PaymentTokenRemoved","inputs":[{"name":"paymentToken","type":"address","indexed":true,"internalType":"address"}],"anonymous":false},{"type":"event","name":"PaymentTokenSet","inputs":[{"name":"paymentToken","type":"address","indexed":true,"internalType":"address"},{"name":"blacklistCallSelector","type":"bytes4","indexed":false,"internalType":"bytes4"},{"name":"perOrderFeeBuy","type":"uint64","indexed":false,"internalType":"uint64"},{"name":"percentageFeeRateBuy","type":"uint24","indexed":false,"internalType":"uint24"},{"name":"perOrderFeeSell","type":"uint64","indexed":false,"internalType":"uint64"},{"name":"percentageFeeRateSell","type":"uint24","indexed":false,"internalType":"uint24"}],"anonymous":false},{"type":"event","name":"TreasurySet","inputs":[{"name":"treasury","type":"address","indexed":true,"internalType":"address"}],"anonymous":false},{"type":"event","name":"Upgraded","inputs":[{"name":"implementation","type":"address","indexed":true,"internalType":"address"}],"anonymous":false},{"type":"event","name":"VaultSet","inputs":[{"name":"vault","type":"address","indexed":true,"internalType":"address"}],"anonymous":false},{"type":"error","name":"AddressEmptyCode","inputs":[{"name":"target","type":"address","internalType":"address"}]},{"type":"error","name":"AddressInsufficientBalance","inputs":[{"name":"account","type":"address","internalType":"address"}]},{"type":"error","name":"AmountTooLarge","inputs":[]},{"type":"error","name":"Blacklist","inputs":[]},{"type":"error","name":"DecimalsTooLarge","inputs":[]},{"type":"error","name":"ECDSAInvalidSignature","inputs":[]},{"type":"error","name":"ECDSAInvalidSignatureLength","inputs":[{"name":"length","type":"uint256","internalType":"uint256"}]},{"type":"error","name":"ECDSAInvalidSignatureS","inputs":[{"name":"s","type":"bytes32","internalType":"bytes32"}]},{"type":"error","name":"ERC1967InvalidImplementation","inputs":[{"name":"implementation","type":"address","internalType":"address"}]},{"type":"error","name":"ERC1967NonPayable","inputs":[]},{"type":"error","name":"ExistingOrder","inputs":[]},{"type":"error","name":"ExpiredSignature","inputs":[]},{"type":"error","name":"FailedInnerCall","inputs":[]},{"type":"error","name":"FeeTooLarge","inputs":[]},{"type":"error","name":"InvalidInitialization","inputs":[]},{"type":"error","name":"InvalidPrecision","inputs":[]},{"type":"error","name":"LimitPriceNotSet","inputs":[]},{"type":"error","name":"NotInitializing","inputs":[]},{"type":"error","name":"NotOperator","inputs":[]},{"type":"error","name":"NotRequester","inputs":[]},{"type":"error","name":"OrderFillAboveLimitPrice","inputs":[]},{"type":"error","name":"OrderFillBelowLimitPrice","inputs":[]},{"type":"error","name":"OrderNotActive","inputs":[]},{"type":"error","name":"OwnableInvalidOwner","inputs":[{"name":"owner","type":"address","internalType":"address"}]},{"type":"error","name":"OwnableUnauthorizedAccount","inputs":[{"name":"account","type":"address","internalType":"address"}]},{"type":"error","name":"PRBMath_MulDiv18_Overflow","inputs":[{"name":"x","type":"uint256","internalType":"uint256"},{"name":"y","type":"uint256","internalType":"uint256"}]},{"type":"error","name":"PRBMath_MulDiv_Overflow","inputs":[{"name":"x","type":"uint256","internalType":"uint256"},{"name":"y","type":"uint256","internalType":"uint256"},{"name":"denominator","type":"uint256","internalType":"uint256"}]},{"type":"error","name":"Paused","inputs":[]},{"type":"error","name":"SafeERC20FailedOperation","inputs":[{"name":"token","type":"address","internalType":"address"}]},{"type":"error","name":"UUPSUnauthorizedCallContext","inputs":[]},{"type":"error","name":"UUPSUnsupportedProxiableUUID","inputs":[{"name":"slot","type":"bytes32","internalType":"bytes32"}]},{"type":"error","name":"UnsupportedToken","inputs":[{"name":"token","type":"address","internalType":"address"}]},{"type":"error","name":"ZeroAddress","inputs":[]},{"type":"error","name":"ZeroValue","inputs":[]}],"bytecode":{"object":"0x60a060405230608052348015610013575f80fd5b5061001c610021565b6100d3565b7ff0c57e16840df040f15088dc2f81fe391c3923bec73e23a9662efc9c229c6a00805468010000000000000000900460ff16156100715760405163f92ee8a960e01b815260040160405180910390fd5b80546001600160401b03908116146100d05780546001600160401b0319166001600160401b0390811782556040519081527fc7f505b2f371ae2175ee4913f4499e1f2633a7b5936321eed1cdaeb6115181d29060200160405180910390a15b50565b608051614adf6100f95f395f8181612c9901528181612cc20152612e010152614adf5ff3fe60806040526004361061026a575f3560e01c8063813854801161014a578063ad3cb1cc116100be578063f0f4426011610078578063f0f44260146107f4578063f2fde38b14610813578063f64f67de14610832578063f8c8765e14610851578063fbfa77cf14610870578063fc75f9ed14610884575f80fd5b8063ad3cb1cc14610732578063b0eb27f81461076f578063d386e1661461078e578063d87f8ee1146107ad578063e30c3978146107c1578063e683a2d4146107d5575f80fd5b8063904adece1161010f578063904adece14610652578063a377cfbf14610671578063a5125421146106b4578063a70c5633146106d3578063aa2165f1146106e7578063ac9650d814610706575f80fd5b806381385480146105ba57806381fed708146105d957806384b0196e146105f85780638da5cb5b1461061f578063901b7e4314610633575f80fd5b806352d1902d116101e157806368bad2cf116101a657806368bad2cf1461050657806369352a90146105255780636d70f7ae146105445780636ecebc3614610573578063715018a61461059257806379ba5097146105a6575f80fd5b806352d1902d14610469578063558a72971461047d57806361d027b31461049c57806361ecbb44146104c85780636817031b146104e7575f80fd5b8063394a4c5c11610232578063394a4c5c146103ae57806345fa8aae146103cd578063464bbe26146103f95780634b5e6890146104185780634bf79b4c146104375780634f1ef28614610456575f80fd5b806301a7cdb31461026e57806315984f111461028f578063236970d41461033557806323a3c10d1461036d5780633644e5151461039a575b5f80fd5b348015610279575f80fd5b5061028d610288366004613ce1565b6108b5565b005b34801561029a575f80fd5b506102ae6102a9366004613d61565b610b68565b60405161032c91905f60e08201905082511515825260ff602084015116602083015263ffffffff60e01b604084015116604083015260608301516001600160401b0380821660608501526080850151915062ffffff80831660808601528160a08701511660a08601528060c08701511660c086015250505092915050565b60405180910390f35b348015610340575f80fd5b5061035461034f366004613d94565b610c51565b6040805192835262ffffff90911660208301520161032c565b348015610378575f80fd5b5061038c610387366004613dcb565b610d7c565b60405190815260200161032c565b3480156103a5575f80fd5b5061038c610dae565b3480156103b9575f80fd5b5061028d6103c8366004613e57565b610dbc565b3480156103d8575f80fd5b506103ec6103e7366004613ea8565b610fae565b60405161032c9190613ee3565b348015610404575f80fd5b5061038c610413366004613f06565b610fcf565b348015610423575f80fd5b5061028d610432366004613f67565b611049565b348015610442575f80fd5b5061028d610451366004613f82565b6110b8565b61028d610464366004613fd1565b61121a565b348015610474575f80fd5b5061038c611239565b348015610488575f80fd5b5061028d61049736600461408e565b611254565b3480156104a7575f80fd5b506104b06112d1565b6040516001600160a01b03909116815260200161032c565b3480156104d3575f80fd5b5061038c6104e2366004613ea8565b6112eb565b3480156104f2575f80fd5b5061028d610501366004613d61565b61130c565b348015610511575f80fd5b5061028d6105203660046140c8565b611394565b348015610530575f80fd5b5061038c61053f366004613ea8565b611404565b34801561054f575f80fd5b5061056361055e366004613d61565b611425565b604051901515815260200161032c565b34801561057e575f80fd5b5061038c61058d3660046140f4565b611453565b34801561059d575f80fd5b5061028d6114bf565b3480156105b1575f80fd5b5061028d6114d2565b3480156105c5575f80fd5b506105636105d4366004614128565b61151a565b3480156105e4575f80fd5b5061038c6105f3366004613ea8565b61157b565b348015610603575f80fd5b5061060c61159c565b60405161032c9796959493929190614172565b34801561062a575f80fd5b506104b0611645565b34801561063e575f80fd5b5061038c61064d366004614209565b61166d565b34801561065d575f80fd5b5061038c61066c366004613ea8565b611786565b34801561067c575f80fd5b5061069061068b366004614128565b6117a7565b60408051825181526020928301516001600160401b0316928101929092520161032c565b3480156106bf575f80fd5b5061028d6106ce366004613d61565b61180e565b3480156106de575f80fd5b506104b0611875565b3480156106f2575f80fd5b5061038c61070136600461429c565b611892565b348015610711575f80fd5b506107256107203660046142b7565b611936565b60405161032c9190614325565b34801561073d575f80fd5b50610762604051806040016040528060058152602001640352e302e360dc1b81525081565b60405161032c9190614387565b34801561077a575f80fd5b5061038c610789366004614399565b611a1b565b348015610799575f80fd5b5061038c6107a836600461429c565b611ad1565b3480156107b8575f80fd5b50610563611baa565b3480156107cc575f80fd5b506104b0611bc8565b3480156107e0575f80fd5b5061028d6107ef366004613ea8565b611bf0565b3480156107ff575f80fd5b5061028d61080e366004613d61565b611cb2565b34801561081e575f80fd5b5061028d61082d366004613d61565b611d35565b34801561083d575f80fd5b5061028d61084c3660046143b3565b611dba565b34801561085c575f80fd5b5061028d61086b36600461441f565b611e44565b34801561087b575f80fd5b506104b0612061565b34801561088f575f80fd5b506108a361089e366004613d61565b61207e565b60405160ff909116815260200161032c565b6108bd6120ac565b6108c6836120de565b6108cf816120de565b6001600160e01b03198516156108ec576108ea863087612106565b505b5f6108f5612180565b90506040518060e00160405280600115158152602001886001600160a01b031663313ce5676040518163ffffffff1660e01b8152600401602060405180830381865afa158015610947573d5f803e3d5ffd5b505050506040513d601f19601f8201168201806040525081019061096b9190614478565b60ff168152602001876001600160e01b0319168152602001866001600160401b031681526020018562ffffff168152602001846001600160401b031681526020018362ffffff16815250816007015f896001600160a01b03166001600160a01b031681526020019081526020015f205f820151815f015f6101000a81548160ff0219169083151502179055506020820151815f0160016101000a81548160ff021916908360ff1602179055506040820151815f0160026101000a81548163ffffffff021916908360e01c02179055506060820151815f0160066101000a8154816001600160401b0302191690836001600160401b031602179055506080820151815f01600e6101000a81548162ffffff021916908362ffffff16021790555060a0820151815f0160116101000a8154816001600160401b0302191690836001600160401b0316021790555060c0820151815f0160196101000a81548162ffffff021916908362ffffff160217905550905050866001600160a01b03167f62bb97b737d55d6883ce8202a25917b7276ca6b55b762971d4f78d80f7a63e658787878787604051610b579594939291906001600160e01b03199590951685526001600160401b03938416602086015262ffffff92831660408601529216606084015216608082015260a00190565b60405180910390a250505050505050565b6040805160e0810182525f80825260208201819052918101829052606081018290526080810182905260a0810182905260c0810182905290610ba8612180565b6001600160a01b039093165f90815260079093016020908152604093849020845160e08082018752915460ff80821615158352610100820416938201939093526001600160e01b031962010000840490921b91909116948101949094526001600160401b03600160301b82048116606086015262ffffff600160701b830481166080870152600160881b830490911660a0860152600160c81b9091041660c08401525090919050565b5f805f610c5c612180565b6001600160a01b0385165f908152600782016020908152604091829020825160e08082018552915460ff808216151580845261010083049091169483019490945262010000810490921b6001600160e01b03191693810193909352600160301b81046001600160401b039081166060850152600160701b820462ffffff9081166080860152600160881b830490911660a0850152600160c81b9091041660c083015291925090610d2f57604051635f8b555b60e11b81526001600160a01b03861660048201526024015b60405180910390fd5b8515610d5757610d4781602001518260a001516121a4565b8160c00151935093505050610d75565b610d69816020015182606001516121a4565b81608001519350935050505b9250929050565b5f805f610d898686610c51565b9150915081610d988286612267565b610da291906144a7565b925050505b9392505050565b5f610db761228d565b905090565b610dc533612296565b5f610dcf84611ad1565b90505f610dda612180565b905060015f83815260048301602052604090205460ff166003811115610e0257610e02613ebf565b14610e2057604051631d4ecc5b60e01b815260040160405180910390fd5b5f828152600582016020526040812090610e4060a0880160808901613f67565b610e4e578160020154610e50565b5f5b60018301545f6002850181905586815260048601602052604090819020805460ff191660031790558454905192935090916001600160a01b0390911690819087907ff2820c9274d611a15d979823ac23bb965c1972a808eebd952297d9bd3a60f4b890610ec0908c908c906144ba565b60405180910390a3610ed860a08a0160808b01613f67565b15610f5157610eed60608a0160408b01613d61565b6040516340c10f1960e01b81526001600160a01b0383811660048301526024820185905291909116906340c10f19906044015f604051808303815f87803b158015610f36575f80fd5b505af1158015610f48573d5f803e3d5ffd5b50505050610fa3565b610f78338284610f6760808e0160608f01613d61565b6001600160a01b03169291906122dc565b8215610fa357610fa38184610f9360808d0160608e01613d61565b6001600160a01b03169190612349565b505050505050505050565b5f80610fb8612180565b5f9384526004016020525050604090205460ff1690565b5f80610fd9612180565b6002810154909150600160a01b900460ff1615611009576040516313d0ff5960e31b815260040160405180910390fd5b6110153386868661237f565b61103f863361102a60a0830160808401613f67565b611038578760400135612456565b5f5b612456565b9695505050505050565b6110516120ac565b5f61105a612180565b600281018054841515600160a01b0260ff60a01b199091161790556040519091507feded67f5310120daa4cd7610cb05cee3ce8d5e6237b28455089b814371ef4c3c906110ac90841515815260200190565b60405180910390a15050565b6110c133612296565b825f036110e157604051637c946ed760e01b815260040160405180910390fd5b5f6110eb85611ad1565b90505f6110f6612180565b5f838152600582016020908152604091829020825160a08101845281546001600160a01b031681526001808301549382019390935260028201549381019390935260038101546060840152600401546080830152919250905f84815260048401602052604090205460ff16600381111561117257611172613ebf565b1461119057604051631d4ecc5b60e01b815260040160405180910390fd5b80602001518611156111b557604051630625040160e01b815260040160405180910390fd5b6111c560a0880160808901613f67565b156111dd576111d8838883898989612a0c565b6111eb565b6111eb838883888a89612af4565b8315611211578154611211906001600160a01b031685610f9360808b0160608c01613d61565b50505050505050565b611222612c8e565b61122b82612d32565b6112358282612d3a565b5050565b5f611242612df6565b505f80516020614a8a83398151915290565b61125c6120ac565b5f611265612180565b6001600160a01b0384165f81815260038301602052604090819020805486151560ff1990911617905551919250907f1a594081ae893ab78e67d9b9e843547318164322d32c65369d78a96172d9dc8f906112c490851515815260200190565b60405180910390a2505050565b5f806112db612180565b546001600160a01b031692915050565b5f806112f5612180565b5f9384526005016020525050604090206004015490565b6113146120ac565b6001600160a01b03811661133b5760405163d92e233d60e01b815260040160405180910390fd5b5f611344612180565b6001810180546001600160a01b0319166001600160a01b038516908117909155604051919250907fe7ae49f883c825b05681b3e00e8be6fdea9ed2a8a45e4c6ecb9390fc44cce615905f90a25050565b61139c6120ac565b5f6113a5612180565b6001600160a01b0384165f818152600683016020908152604091829020805460ff191660ff8816908117909155915191825292935090917f0b59c2c3c368212b3f37e17950d77dde61df255a50fdd2409f82380b624b17ad91016112c4565b5f8061140e612180565b5f9384526005016020525050604090206003015490565b5f8061142f612180565b6001600160a01b039093165f90815260039093016020525050604090205460ff1690565b5f7f4b79adf172c306ef56a5e224d04f05168355f07629283d177f52ee5e1317023561147e84611ad1565b6040805160208101939093528201526001600160401b03831660608201526080015b6040516020818303038152906040528051906020012090505b92915050565b6114c76120ac565b6114d05f612e3f565b565b33806114dc611bc8565b6001600160a01b03161461150e5760405163118cdaa760e01b81526001600160a01b0382166004820152602401610d26565b61151781612e3f565b50565b5f80611524612180565b6001600160a01b0385165f9081526007820160205260408120549192506201000090910460e01b906001600160e01b031982169003611567575f925050506114b9565b611572858583612106565b95945050505050565b5f80611585612180565b5f9384526005016020525050604090206001015490565b5f60608082808083815f80516020614a6a83398151915280549091501580156115c757506001810154155b61160b5760405162461bcd60e51b81526020600482015260156024820152741152540dcc4c8e88155b9a5b9a5d1a585b1a5e9959605a1b6044820152606401610d26565b611613612e77565b61161b612f37565b604080515f80825260208201909252600f60f81b9c939b5091995046985030975095509350915050565b5f807f9016d09d72d40fdae2fd8ceac6b6234c7706214fd39c1cd1e609a0528c1993006112db565b5f80611677612180565b6002810154909150600160a01b900460ff16156116a7576040516313d0ff5960e31b815260040160405180910390fd5b6116b033612296565b426116be60208801886144e8565b6001600160401b031610156116e65760405163df4cc36d60e01b815260040160405180910390fd5b5f6117496117036116fe8a61058d60208c018c6144e8565b612f75565b61171060208a018a614501565b8080601f0160208091040260200160405190810160405280939291908181526020018383808284375f92019190915250612fa192505050565b90506117578187878761237f565b61177a888261176c60a0830160808401613f67565b611038578860400135612456565b98975050505050505050565b5f80611790612180565b5f9384526005016020525050604090206002015490565b604080518082019091525f80825260208201525f6117c3612180565b9050806008015f6117d48686612fc9565b815260208082019290925260409081015f20815180830190925280548252600101546001600160401b031691810191909152949350505050565b6118166120ac565b5f61181f612180565b6001600160a01b0383165f81815260078301602052604080822080546001600160e01b03191690555192935090917f85a3e72f8dd6db3794f93109c3c5f5b79d6112f6979431c45f98b26134b42af29190a25050565b5f8061187f612180565b600201546001600160a01b031692915050565b5f8061189c612180565b6002810154909150600160a01b900460ff16156118cc576040516313d0ff5960e31b815260040160405180910390fd5b6118dc60a0840160808501613f67565b156118f3576118ec83335f612456565b9150611930565b5f806119098161034f6080880160608901613d61565b9150915061192b853384611921858a60e00135612267565b61103a91906144a7565b935050505b50919050565b604080515f815260208101909152606090826001600160401b0381111561195f5761195f613fbd565b60405190808252806020026020018201604052801561199257816020015b606081526020019060019003908161197d5790505b5091505f5b83811015611a13576119ee308686848181106119b5576119b5614556565b90506020028101906119c79190614501565b856040516020016119da93929190614581565b604051602081830303815290604052612ff9565b838281518110611a0057611a00614556565b6020908102919091010152600101611997565b505092915050565b5f7f5cb303aa1e0a5388b90fbf38a2c8f60e46b84bf97e0a3209ae27a1555341a8698235611a4f6040850160208601613d61565b6040850135611a6460808701606088016144e8565b611a7460a08801608089016144e8565b6040805160208101979097528601949094526001600160a01b03909216606085015260808401526001600160401b0390811660a08401521660c082015260e001604051602081830303815290604052805190602001209050919050565b5f7fcebe4c6160e5334d8d68179839cfa50d23572dd2fde58930219caf484368e045611b0060208401846144e8565b611b106040850160208601613d61565b611b206060860160408701613d61565b611b306080870160608801613d61565b611b4060a0880160808901613f67565b611b5060c0890160a08a016145a4565b60c089013560e08a01356101008b0135611b726101408d016101208e016145cb565b604051602001611b8c9b9a99989796959493929190614601565b60408051601f19818403018152919052805160209091012092915050565b5f80611bb4612180565b60020154600160a01b900460ff1692915050565b5f807f237e158222e3e6968b72b9db0d8043aacf074ad9f650f0d1606b4d82ee432c006112db565b5f611bf9612180565b905060015f83815260048301602052604090205460ff166003811115611c2157611c21613ebf565b14611c3f57604051631d4ecc5b60e01b815260040160405180910390fd5b5f8281526005820160205260409020546001600160a01b0316338114611c78576040516371ced2cf60e11b815260040160405180910390fd5b6040516001600160a01b0382169084907f4f45a3bbce2de4ee8d69d6bf7dd2455dc927f1d1a50725b7292e0bf5aa06d8ab905f90a3505050565b611cba6120ac565b6001600160a01b038116611ce15760405163d92e233d60e01b815260040160405180910390fd5b5f611cea612180565b80546001600160a01b0319166001600160a01b0384169081178255604051919250907f3c864541ef71378c6229510ed90f376565ee42d9c5e0904a984a9e863e6db44f905f90a25050565b611d3d6120ac565b7f237e158222e3e6968b72b9db0d8043aacf074ad9f650f0d1606b4d82ee432c0080546001600160a01b0319166001600160a01b0383169081178255611d81611645565b6001600160a01b03167f38d16b8cac22d99fc7c124b9cd0de2d3fa1faef420bfe791d8c362d765e2270060405160405180910390a35050565b60405163d505accf60e01b81526001600160a01b038781166004830152306024830152604482018790526064820186905260ff8516608483015260a4820184905260c4820183905288169063d505accf9060e4015f604051808303815f87803b158015611e25575f80fd5b505af1158015611e37573d5f803e3d5ffd5b5050505050505050505050565b7ff0c57e16840df040f15088dc2f81fe391c3923bec73e23a9662efc9c229c6a008054600160401b810460ff1615906001600160401b03165f81158015611e885750825b90505f826001600160401b03166001148015611ea35750303b155b905081158015611eb1575080155b15611ecf5760405163f92ee8a960e01b815260040160405180910390fd5b845467ffffffffffffffff191660011785558315611ef957845460ff60401b1916600160401b1785555b611f0289613062565b611f4b6040518060400160405280600e81526020016d27b93232b9283937b1b2b9b9b7b960911b815250604051806040016040528060018152602001603160f81b815250613073565b611f53613085565b6001600160a01b038816611f7a5760405163d92e233d60e01b815260040160405180910390fd5b6001600160a01b038716611fa15760405163d92e233d60e01b815260040160405180910390fd5b6001600160a01b038616611fc85760405163d92e233d60e01b815260040160405180910390fd5b5f611fd1612180565b80546001600160a01b03808c166001600160a01b03199283161783556001830180548c831690841617905560029092018054928a1692909116919091179055508315610fa357845460ff60401b19168555604051600181527fc7f505b2f371ae2175ee4913f4499e1f2633a7b5936321eed1cdaeb6115181d29060200160405180910390a1505050505050505050565b5f8061206b612180565b600101546001600160a01b031692915050565b5f80612088612180565b6001600160a01b039093165f90815260069093016020525050604090205460ff1690565b336120b5611645565b6001600160a01b0316146114d05760405163118cdaa760e01b8152336004820152602401610d26565b620f424062ffffff82161061151757604051637e2df70960e11b815260040160405180910390fd5b6040516001600160a01b03831660248201525f9061216590839060440160408051601f198184030181529190526020810180516001600160e01b03166001600160e01b0319909316929092179091526001600160a01b0386169061308d565b8060200190518101906121789190614680565b949350505050565b7f8036d9ca2814a3bcd78d3e8aba96b71e7697006bd322a98e7f5f0f41b09a8b0090565b5f60128360ff1611156121ca57604051633c9c1e2d60e01b815260040160405180910390fd5b816001600160401b03165f036121e157505f6114b9565b600860ff84161115612220576121fb600860ff851661469b565b61220690600a6147a2565b612219906001600160401b0384166147b6565b90506114b9565b600860ff841610156122585761223a60ff8416600861469b565b61224590600a6147a2565b612219906001600160401b0384166147e1565b506001600160401b0316919050565b5f8262ffffff165f0361227a575f610da7565b610da78262ffffff8516620f42406130e1565b5f610db76131b0565b5f61229f612180565b6001600160a01b0383165f90815260038201602052604090205490915060ff1661123557604051631f0853c160e21b815260040160405180910390fd5b6040516001600160a01b0384811660248301528381166044830152606482018390526123439186918216906323b872dd906084015b604051602081830303815290604052915060e01b6020820180516001600160e01b038381831617835250505050613223565b50505050565b6040516001600160a01b0383811660248301526044820183905261237a91859182169063a9059cbb90606401612311565b505050565b6001600160a01b0384166123996040850160208601613d61565b6001600160a01b0316146123c0576040516371ced2cf60e11b815260040160405180910390fd5b426123d160a08501608086016144e8565b6001600160401b031610156123f95760405163df4cc36d60e01b815260040160405180910390fd5b5f6124446124096116fe86611a1b565b84848080601f0160208091040260200160405190810160405280939291908181526020018383808284375f92019190915250612fa192505050565b905061244f81612296565b5050505050565b5f806124686040860160208701613d61565b6001600160a01b03160361248f5760405163d92e233d60e01b815260040160405180910390fd5b5f6124a060a0860160808701613f67565b6124ae578460e001356124b4565b8460c001355b9050805f036124d657604051637c946ed760e01b815260040160405180910390fd5b60016124e860c0870160a088016145a4565b60018111156124f9576124f9613ebf565b1480156125095750610100850135155b1561252757604051630d7eec7360e21b815260040160405180910390fd5b5f612530612180565b905061253b86611ad1565b92505f8084815260048301602052604090205460ff16600381111561256257612562613ebf565b1461258057604051633046a0f560e11b815260040160405180910390fd5b60028101546001600160a01b03166325f28f166125a36060890160408a01613d61565b6040516001600160e01b031960e084901b1681526001600160a01b039091166004820152602401602060405180830381865afa1580156125e5573d5f803e3d5ffd5b505050506040513d601f19601f820116820180604052508101906126099190614680565b6126425761261d6060870160408801613d61565b604051635f8b555b60e11b81526001600160a01b039091166004820152602401610d26565b5f600782018161265860808a0160608b01613d61565b6001600160a01b0316815260208082019290925260409081015f20815160e08082018452915460ff808216151580845261010083049091169583019590955262010000810490921b6001600160e01b03191692810192909252600160301b81046001600160401b039081166060840152600160701b820462ffffff9081166080850152600160881b830490911660a0840152600160c81b9091041660c0820152915061270e5761261d6080880160608901613d61565b61271e60a0880160808901613f67565b806127495750600161273660c0890160a08a016145a4565b600181111561274757612747613ebf565b145b156127d3575f600683018161276460608b0160408c01613d61565b6001600160a01b0316815260208101919091526040015f205460ff16905080158015906127b357506127976001826147f4565b6127a290600a61480d565b6127b09060c08a013561481b565b15155b156127d15760405163aa8828e760e01b815260040160405180910390fd5b505b6128016127e66060890160408a01613d61565b6127f660808a0160608b01613d61565b836040015189613284565b6001600160a01b03861661281b6040890160208a01613d61565b6001600160a01b0316146128675761286761283c6060890160408a01613d61565b61284c60808a0160608b01613d61565b60408085015190612862908c0160208d01613d61565b613284565b6040805160a0810182526001600160a01b03888116825260208083018781528385018a81525f60608601818152608087018281528c835260058b018652888320975188546001600160a01b03191697169690961787559251600180880191909155915160028701559151600386015592516004948501559286019052919020805460ff191682800217905550856001600160a01b0316847f3b7ebb563e299d7dc7724ac9ed06c49e897512c20fcf670581d2cbc9a0510171898860405161292f92919061482e565b60405180910390a361294760a0880160808901613f67565b156129c35761295c6060880160408901613d61565b60405163079cc67960e41b81526001600160a01b03888116600483015260c08a0135602483015291909116906379cc6790906044015f604051808303815f87803b1580156129a8575f80fd5b505af11580156129ba573d5f803e3d5ffd5b50505050612a02565b60018201546129ec9087906001600160a01b031660e08a0135610f6760808c0160608d01613d61565b612a02863087610f6760808c0160608d01613d61565b5050509392505050565b81811115612a2d57604051630625040160e01b815260040160405180910390fd5b6001612a3f60c0870160a088016145a4565b6001811115612a5057612a50613ebf565b148015612a6a5750612a678386610100013561332f565b82105b15612a8857604051637d18445b60e01b815260040160405180910390fd5b612a9986855f0151878686866133e1565b612aa6868585858561358d565b50612abd333084610f6760808a0160608b01613d61565b5f612ac88284614543565b9050801561121157611211612ae36040880160208901613d61565b82610f9360808a0160608b01613d61565b5f612afd612180565b90508460400151821115612b2457604051630625040160e01b815260040160405180910390fd5b6001612b3660c0880160a089016145a4565b6001811115612b4757612b47613ebf565b148015612b6a5750612b6783670de0b6b3a76400008861010001356130e1565b84105b15612b8857604051630650e54560e41b815260040160405180910390fd5b612b9987865f0151888787876133e1565b5f612ba7888786888761358d565b90505f838760400151612bba9190614543565b90508115612be4578015612bdf578651612bdf9082610f9360808c0160608d01613d61565b612bfa565b5f89815260058401602052604090206002018190555b612c0a6060890160408a01613d61565b6001600160a01b03166340c10f19612c2860408b0160208c01613d61565b6040516001600160e01b031960e084901b1681526001600160a01b039091166004820152602481018990526044015f604051808303815f87803b158015612c6d575f80fd5b505af1158015612c7f573d5f803e3d5ffd5b50505050505050505050505050565b306001600160a01b037f0000000000000000000000000000000000000000000000000000000000000000161480612d1457507f00000000000000000000000000000000000000000000000000000000000000006001600160a01b0316612d085f80516020614a8a833981519152546001600160a01b031690565b6001600160a01b031614155b156114d05760405163703e46dd60e11b815260040160405180910390fd5b6115176120ac565b816001600160a01b03166352d1902d6040518163ffffffff1660e01b8152600401602060405180830381865afa925050508015612d94575060408051601f3d908101601f19168201909252612d9191810190614912565b60015b612dbc57604051634c9c8ce360e01b81526001600160a01b0383166004820152602401610d26565b5f80516020614a8a8339815191528114612dec57604051632a87526960e21b815260048101829052602401610d26565b61237a8383613684565b306001600160a01b037f000000000000000000000000000000000000000000000000000000000000000016146114d05760405163703e46dd60e11b815260040160405180910390fd5b7f237e158222e3e6968b72b9db0d8043aacf074ad9f650f0d1606b4d82ee432c0080546001600160a01b0319168155611235826136d9565b7fa16a46d94261c7517cc8ff89f61c0ce93598e3c849801011dee649a6a557d10280546060915f80516020614a6a83398151915291612eb590614929565b80601f0160208091040260200160405190810160405280929190818152602001828054612ee190614929565b8015612f2c5780601f10612f0357610100808354040283529160200191612f2c565b820191905f5260205f20905b815481529060010190602001808311612f0f57829003601f168201915b505050505091505090565b7fa16a46d94261c7517cc8ff89f61c0ce93598e3c849801011dee649a6a557d10380546060915f80516020614a6a83398151915291612eb590614929565b5f6114b9612f8161228d565b8360405161190160f01b8152600281019290925260228201526042902090565b5f805f80612faf8686613749565b925092509250612fbf8282613792565b5090949350505050565b6040516bffffffffffffffffffffffff19606084811b8216602084015283901b1660348201525f906048016114a0565b60605f80846001600160a01b031684604051613015919061495b565b5f60405180830381855af49150503d805f811461304d576040519150601f19603f3d011682016040523d82523d5f602084013e613052565b606091505b509150915061157285838361384a565b61306a6138a6565b611517816138ef565b61307b6138a6565b6112358282613920565b6114d06138a6565b60605f80846001600160a01b0316846040516130a9919061495b565b5f60405180830381855afa9150503d805f811461304d576040519150601f19603f3d011682016040523d82523d5f602084013e613052565b5f80805f19858709858702925082811083820303915050805f036131185783828161310e5761310e6147cd565b0492505050610da7565b83811061314957604051630c740aef60e31b8152600481018790526024810186905260448101859052606401610d26565b5f8486880960026001871981018816978890046003810283188082028403028082028403028082028403028082028403028082028403029081029092039091025f889003889004909101858311909403939093029303949094049190911702949350505050565b5f7f8b73c3c69bb8fe3d512ecc4cf759cc79239f7b179b0ffacaa9a75d522b39400f6131da61397f565b6131e26139e7565b60408051602081019490945283019190915260608201524660808201523060a082015260c00160405160208183030381529060405280519060200120905090565b5f6132376001600160a01b03841683613a29565b905080515f1415801561325b5750808060200190518101906132599190614680565b155b1561237a57604051635274afe760e01b81526001600160a01b0384166004820152602401610d26565b60405163fe575a8760e01b81526001600160a01b03828116600483015285169063fe575a8790602401602060405180830381865afa1580156132c8573d5f803e3d5ffd5b505050506040513d601f19601f820116820180604052508101906132ec9190614680565b8061331157506001600160e01b03198216158015906133115750613311838284612106565b156123435760405163c95b482560e01b815260040160405180910390fd5b5f80805f19848609848602925082811083820303915050805f036133605750670de0b6b3a7640000900490506114b9565b670de0b6b3a7640000811061339257604051635173648d60e01b81526004810186905260248101859052604401610d26565b5f670de0b6b3a764000085870962040000818503049310909103600160ee1b02919091177faccb18165bd6fe31ae1cf318dc5b51eee0e1ba569b88cd74c1773b91fac106690291505092915050565b5f6133ea612180565b90505f6134156134006060880160408901613d61565b6134106080890160608a01613d61565b612fc9565b6040805180820190915290915080600161343560c08a0160a08b016145a4565b600181111561344657613446613ebf565b146134905761348b8787600787015f61346560808e0160608f01613d61565b6001600160a01b0316815260208101919091526040015f2054610100900460ff16613a36565b613497565b8761010001355b8152426001600160401b039081166020928301525f8481526008860183526040908190208451815593909201516001909301805467ffffffffffffffff191693909116929092179091556134f19060608801908801613d61565b6001600160a01b031661350a6080880160608901613d61565b6001600160a01b0316897f7e3461df4807dfaae05cd79c65566b5582129e82ad7183be9e6040e2146dc6038a8989898d608001602081019061354c9190613f67565b604080516001600160a01b03909616865260208601949094529284019190915260608301521515608082015260a00160405180910390a45050505050505050565b5f80613597612180565b90505f8587602001516135aa9190614543565b5f898152600584016020526040902060010181905560808801519091506135d29086906144a7565b5f89815260058401602052604090206004015560608701516135f59085906144a7565b5f898152600584016020526040902060030155801592508215613679575f8881526005830160209081526040808320600290810184905560048601909252808320805460ff1916909217909155885190516001600160a01b03909116918a917fe5f48e2a4a303d196ad814389aa54cf34e7b1e404e740599d005907a2ca0cd6c9190a35b505095945050505050565b61368d82613a74565b6040516001600160a01b038316907fbc7cd75a20ee27fd9adebab32041f755214dbc6bffa90cc0225b39da2e5c2d3b905f90a28051156136d15761237a8282612ff9565b611235613ad7565b7f9016d09d72d40fdae2fd8ceac6b6234c7706214fd39c1cd1e609a0528c19930080546001600160a01b031981166001600160a01b03848116918217845560405192169182907f8be0079c531659141344cd1fd0a4f28419497f9722a3daafe3b4186f6b6457e0905f90a3505050565b5f805f8351604103613780576020840151604085015160608601515f1a61377288828585613af6565b95509550955050505061378b565b505081515f91506002905b9250925092565b5f8260038111156137a5576137a5613ebf565b036137ae575050565b60018260038111156137c2576137c2613ebf565b036137e05760405163f645eedf60e01b815260040160405180910390fd5b60028260038111156137f4576137f4613ebf565b036138155760405163fce698f760e01b815260048101829052602401610d26565b600382600381111561382957613829613ebf565b03611235576040516335e2f38360e21b815260048101829052602401610d26565b60608261385f5761385a82613bbe565b610da7565b815115801561387657506001600160a01b0384163b155b1561389f57604051639996b31560e01b81526001600160a01b0385166004820152602401610d26565b5080610da7565b7ff0c57e16840df040f15088dc2f81fe391c3923bec73e23a9662efc9c229c6a0054600160401b900460ff166114d057604051631afcd79f60e31b815260040160405180910390fd5b6138f76138a6565b6001600160a01b03811661150e57604051631e4fbdf760e01b81525f6004820152602401610d26565b6139286138a6565b5f80516020614a6a8339815191527fa16a46d94261c7517cc8ff89f61c0ce93598e3c849801011dee649a6a557d10261396184826149aa565b506003810161397083826149aa565b505f8082556001909101555050565b5f5f80516020614a6a83398151915281613997612e77565b8051909150156139af57805160209091012092915050565b815480156139be579392505050565b7fc5d2460186f7233c927e7db2dcc703c0e500b653ca82273b7bfad8045d85a470935050505090565b5f5f80516020614a6a833981519152816139ff612f37565b805190915015613a1757805160209091012092915050565b600182015480156139be579392505050565b6060610da783835f613be7565b5f80613a438360126147f4565b613a4e90600a61480d565b9050613a5b848287613c76565b15613a69575f915050610da7565b6115728482876130e1565b806001600160a01b03163b5f03613aa957604051634c9c8ce360e01b81526001600160a01b0382166004820152602401610d26565b5f80516020614a8a83398151915280546001600160a01b0319166001600160a01b0392909216919091179055565b34156114d05760405163b398979f60e01b815260040160405180910390fd5b5f80807f7fffffffffffffffffffffffffffffff5d576e7357a4501ddfe92f46681b20a0841115613b2f57505f91506003905082613bb4565b604080515f808252602082018084528a905260ff891692820192909252606081018790526080810186905260019060a0016020604051602081039080840390855afa158015613b80573d5f803e3d5ffd5b5050604051601f1901519150506001600160a01b038116613bab57505f925060019150829050613bb4565b92505f91508190505b9450945094915050565b805115613bce5780518082602001fd5b604051630a12f52160e11b815260040160405180910390fd5b606081471015613c0c5760405163cd78605960e01b8152306004820152602401610d26565b5f80856001600160a01b03168486604051613c27919061495b565b5f6040518083038185875af1925050503d805f8114613c61576040519150601f19603f3d011682016040523d82523d5f602084013e613c66565b606091505b5091509150610da286838361384a565b5f80805f19858709868602808210910303841115925050509392505050565b6001600160a01b0381168114611517575f80fd5b8035613cb481613c95565b919050565b80356001600160401b0381168114613cb4575f80fd5b803562ffffff81168114613cb4575f80fd5b5f805f805f8060c08789031215613cf6575f80fd5b8635613d0181613c95565b955060208701356001600160e01b031981168114613d1d575f80fd5b9450613d2b60408801613cb9565b9350613d3960608801613ccf565b9250613d4760808801613cb9565b9150613d5560a08801613ccf565b90509295509295509295565b5f60208284031215613d71575f80fd5b8135610da781613c95565b8015158114611517575f80fd5b8035613cb481613d7c565b5f8060408385031215613da5575f80fd5b8235613db081613d7c565b91506020830135613dc081613c95565b809150509250929050565b5f805f60608486031215613ddd575f80fd5b8335613de881613d7c565b92506020840135613df881613c95565b929592945050506040919091013590565b5f6101408284031215611930575f80fd5b5f8083601f840112613e2a575f80fd5b5081356001600160401b03811115613e40575f80fd5b602083019150836020828501011115610d75575f80fd5b5f805f6101608486031215613e6a575f80fd5b613e748585613e09565b92506101408401356001600160401b03811115613e8f575f80fd5b613e9b86828701613e1a565b9497909650939450505050565b5f60208284031215613eb8575f80fd5b5035919050565b634e487b7160e01b5f52602160045260245ffd5b6004811061151757611517613ebf565b60208101613ef083613ed3565b91905290565b5f60a08284031215611930575f80fd5b5f805f806102008587031215613f1a575f80fd5b613f248686613e09565b9350613f34866101408701613ef6565b92506101e08501356001600160401b03811115613f4f575f80fd5b613f5b87828801613e1a565b95989497509550505050565b5f60208284031215613f77575f80fd5b8135610da781613d7c565b5f805f806101a08587031215613f96575f80fd5b613fa08686613e09565b966101408601359650610160860135956101800135945092505050565b634e487b7160e01b5f52604160045260245ffd5b5f8060408385031215613fe2575f80fd5b8235613fed81613c95565b915060208301356001600160401b0380821115614008575f80fd5b818501915085601f83011261401b575f80fd5b81358181111561402d5761402d613fbd565b604051601f8201601f19908116603f0116810190838211818310171561405557614055613fbd565b8160405282815288602084870101111561406d575f80fd5b826020860160208301375f6020848301015280955050505050509250929050565b5f806040838503121561409f575f80fd5b82356140aa81613c95565b91506020830135613dc081613d7c565b60ff81168114611517575f80fd5b5f80604083850312156140d9575f80fd5b82356140e481613c95565b91506020830135613dc0816140ba565b5f806101608385031215614106575f80fd5b6141108484613e09565b915061411f6101408401613cb9565b90509250929050565b5f8060408385031215614139575f80fd5b8235613db081613c95565b5f81518084528060208401602086015e5f602082860101526020601f19601f83011685010191505092915050565b60ff60f81b881681525f602060e0602084015261419260e084018a614144565b83810360408501526141a4818a614144565b606085018990526001600160a01b038816608086015260a0850187905284810360c0860152855180825260208088019350909101905f5b818110156141f7578351835292840192918401916001016141db565b50909c9b505050505050505050505050565b5f805f805f610220868803121561421e575f80fd5b6142288787613e09565b94506101408601356001600160401b0380821115614244575f80fd5b908701906040828a031215614257575f80fd5b819550614268896101608a01613ef6565b945061020088013591508082111561427e575f80fd5b5061428b88828901613e1a565b969995985093965092949392505050565b5f61014082840312156142ad575f80fd5b610da78383613e09565b5f80602083850312156142c8575f80fd5b82356001600160401b03808211156142de575f80fd5b818501915085601f8301126142f1575f80fd5b8135818111156142ff575f80fd5b8660208260051b8501011115614313575f80fd5b60209290920196919550909350505050565b5f60208083016020845280855180835260408601915060408160051b8701019250602087015f5b8281101561437a57603f19888603018452614368858351614144565b9450928501929085019060010161434c565b5092979650505050505050565b602081525f610da76020830184614144565b5f60a082840312156143a9575f80fd5b610da78383613ef6565b5f805f805f805f60e0888a0312156143c9575f80fd5b87356143d481613c95565b965060208801356143e481613c95565b955060408801359450606088013593506080880135614402816140ba565b9699959850939692959460a0840135945060c09093013592915050565b5f805f8060808587031215614432575f80fd5b843561443d81613c95565b9350602085013561444d81613c95565b9250604085013561445d81613c95565b9150606085013561446d81613c95565b939692955090935050565b5f60208284031215614488575f80fd5b8151610da7816140ba565b634e487b7160e01b5f52601160045260245ffd5b808201808211156114b9576114b9614493565b60208152816020820152818360408301375f818301604090810191909152601f909201601f19160101919050565b5f602082840312156144f8575f80fd5b610da782613cb9565b5f808335601e19843603018112614516575f80fd5b8301803591506001600160401b0382111561452f575f80fd5b602001915036819003821315610d75575f80fd5b818103818111156114b9576114b9614493565b634e487b7160e01b5f52603260045260245ffd5b5f81518060208401855e5f93019283525090919050565b828482375f8382015f815261103f818561456a565b803560028110613cb4575f80fd5b5f602082840312156145b4575f80fd5b610da782614596565b803560048110613cb4575f80fd5b5f602082840312156145db575f80fd5b610da7826145bd565b600281106145f4576145f4613ebf565b9052565b6145f481613ed3565b8b81526001600160401b038b1660208201526001600160a01b038a8116604083015289811660608301528816608082015286151560a0820152610160810161464c60c08301886145e4565b8560e0830152846101008301528361012083015261466983613ed3565b826101408301529c9b505050505050505050505050565b5f60208284031215614690575f80fd5b8151610da781613d7c565b6001600160401b038281168282160390808211156146bb576146bb614493565b5092915050565b600181815b808511156146fc57815f19048211156146e2576146e2614493565b808516156146ef57918102915b93841c93908002906146c7565b509250929050565b5f82614712575060016114b9565b8161471e57505f6114b9565b8160018114614734576002811461473e5761475a565b60019150506114b9565b60ff84111561474f5761474f614493565b50506001821b6114b9565b5060208310610133831016604e8410600b841016171561477d575081810a6114b9565b61478783836146c2565b805f190482111561479a5761479a614493565b029392505050565b5f610da76001600160401b03841683614704565b80820281158282048414176114b9576114b9614493565b634e487b7160e01b5f52601260045260245ffd5b5f826147ef576147ef6147cd565b500490565b60ff82811682821603908111156114b9576114b9614493565b5f610da760ff841683614704565b5f82614829576148296147cd565b500690565b610160810161484d8261484086613cb9565b6001600160401b03169052565b61485960208501613ca9565b6001600160a01b0316602083015261487360408501613ca9565b6001600160a01b0316604083015261488d60608501613ca9565b6001600160a01b031660608301526148a760808501613d89565b151560808301526148ba60a08501614596565b6148c760a08401826145e4565b5060c084013560c083015260e084013560e08301526101008085013581840152506101206148f68186016145bd565b614902828501826145f8565b5050826101408301529392505050565b5f60208284031215614922575f80fd5b5051919050565b600181811c9082168061493d57607f821691505b60208210810361193057634e487b7160e01b5f52602260045260245ffd5b5f610da7828461456a565b601f82111561237a57805f5260205f20601f840160051c8101602085101561498b5750805b601f840160051c820191505b8181101561244f575f8155600101614997565b81516001600160401b038111156149c3576149c3613fbd565b6149d7816149d18454614929565b84614966565b602080601f831160018114614a0a575f84156149f35750858301515b5f19600386901b1c1916600185901b178555614a61565b5f85815260208120601f198616915b82811015614a3857888601518255948401946001909101908401614a19565b5085821015614a5557878501515f19600388901b60f8161c191681555b505060018460011b0185555b50505050505056fea16a46d94261c7517cc8ff89f61c0ce93598e3c849801011dee649a6a557d100360894a13ba1a3210667c828492db98dca3e2076cc3735a920a3ca505d382bbca26469706673582212200d70489bdcfe3213c5c19a27f716332fa9b4bfa0d36b6a791e745700a628c24d64736f6c63430008190033","linkReferences":{}},"methodIdentifiers":{"DOMAIN_SEPARATOR()":"3644e515","UPGRADE_INTERFACE_VERSION()":"ad3cb1cc","acceptOwnership()":"79ba5097","cancelOrder((uint64,address,address,address,bool,uint8,uint256,uint256,uint256,uint8),string)":"394a4c5c","createOrder((uint64,address,address,address,bool,uint8,uint256,uint256,uint256,uint8),(uint256,address,uint256,uint64,uint64),bytes)":"464bbe26","createOrderStandardFees((uint64,address,address,address,bool,uint8,uint256,uint256,uint256,uint8))":"aa2165f1","createOrderWithSignature((uint64,address,address,address,bool,uint8,uint256,uint256,uint256,uint8),(uint64,bytes),(uint256,address,uint256,uint64,uint64),bytes)":"901b7e43","dShareFactory()":"a70c5633","eip712Domain()":"84b0196e","fillOrder((uint64,address,address,address,bool,uint8,uint256,uint256,uint256,uint8),uint256,uint256,uint256)":"4bf79b4c","getFeesEscrowed(uint256)":"904adece","getFeesTaken(uint256)":"69352a90","getOrderStatus(uint256)":"45fa8aae","getPaymentTokenConfig(address)":"15984f11","getReceivedAmount(uint256)":"61ecbb44","getStandardFees(bool,address)":"236970d4","getUnfilledAmount(uint256)":"81fed708","hashFeeQuote((uint256,address,uint256,uint64,uint64))":"b0eb27f8","hashOrder((uint64,address,address,address,bool,uint8,uint256,uint256,uint256,uint8))":"d386e166","hashOrderRequest((uint64,address,address,address,bool,uint8,uint256,uint256,uint256,uint8),uint64)":"6ecebc36","initialize(address,address,address,address)":"f8c8765e","isOperator(address)":"6d70f7ae","isTransferLocked(address,address)":"81385480","latestFillPrice(address,address)":"a377cfbf","multicall(bytes[])":"ac9650d8","orderDecimalReduction(address)":"fc75f9ed","ordersPaused()":"d87f8ee1","owner()":"8da5cb5b","pendingOwner()":"e30c3978","proxiableUUID()":"52d1902d","removePaymentToken(address)":"a5125421","renounceOwnership()":"715018a6","requestCancel(uint256)":"e683a2d4","selfPermit(address,address,uint256,uint256,uint8,bytes32,bytes32)":"f64f67de","setOperator(address,bool)":"558a7297","setOrderDecimalReduction(address,uint8)":"68bad2cf","setOrdersPaused(bool)":"4b5e6890","setPaymentToken(address,bytes4,uint64,uint24,uint64,uint24)":"01a7cdb3","setTreasury(address)":"f0f44260","setVault(address)":"6817031b","totalStandardFee(bool,address,uint256)":"23a3c10d","transferOwnership(address)":"f2fde38b","treasury()":"61d027b3","upgradeToAndCall(address,bytes)":"4f1ef286","vault()":"fbfa77cf"},"id":21}