{
  "abi": [
    {
      "inputs": [],
      "stateMutability": "nonpayable",
      "type": "constructor"
    },
    {
      "inputs": [
        {
          "internalType": "address",
          "name": "target",
          "type": "address"
        }
      ],
      "name": "AddressEmptyCode",
      "type": "error"
    },
    {
      "inputs": [
        {
          "internalType": "address",
          "name": "account",
          "type": "address"
        }
      ],
      "name": "AddressInsufficientBalance",
      "type": "error"
    },
    {
      "inputs": [],
      "name": "AmountTooLarge",
      "type": "error"
    },
    {
      "inputs": [],
      "name": "Blacklist",
      "type": "error"
    },
    {
      "inputs": [],
      "name": "DecimalsTooLarge",
      "type": "error"
    },
    {
      "inputs": [],
      "name": "ECDSAInvalidSignature",
      "type": "error"
    },
    {
      "inputs": [
        {
          "internalType": "uint256",
          "name": "length",
          "type": "uint256"
        }
      ],
      "name": "ECDSAInvalidSignatureLength",
      "type": "error"
    },
    {
      "inputs": [
        {
          "internalType": "bytes32",
          "name": "s",
          "type": "bytes32"
        }
      ],
      "name": "ECDSAInvalidSignatureS",
      "type": "error"
    },
    {
      "inputs": [
        {
          "internalType": "address",
          "name": "implementation",
          "type": "address"
        }
      ],
      "name": "ERC1967InvalidImplementation",
      "type": "error"
    },
    {
      "inputs": [],
      "name": "ERC1967NonPayable",
      "type": "error"
    },
    {
      "inputs": [],
      "name": "ExistingOrder",
      "type": "error"
    },
    {
      "inputs": [],
      "name": "ExpiredSignature",
      "type": "error"
    },
    {
      "inputs": [],
      "name": "FailedInnerCall",
      "type": "error"
    },
    {
      "inputs": [],
      "name": "FeeTooLarge",
      "type": "error"
    },
    {
      "inputs": [],
      "name": "InvalidInitialization",
      "type": "error"
    },
    {
      "inputs": [],
      "name": "InvalidPrecision",
      "type": "error"
    },
    {
      "inputs": [],
      "name": "LimitPriceNotSet",
      "type": "error"
    },
    {
      "inputs": [],
      "name": "NotInitializing",
      "type": "error"
    },
    {
      "inputs": [],
      "name": "NotOperator",
      "type": "error"
    },
    {
      "inputs": [],
      "name": "NotRequester",
      "type": "error"
    },
    {
      "inputs": [],
      "name": "OrderFillAboveLimitPrice",
      "type": "error"
    },
    {
      "inputs": [],
      "name": "OrderFillBelowLimitPrice",
      "type": "error"
    },
    {
      "inputs": [],
      "name": "OrderNotFound",
      "type": "error"
    },
    {
      "inputs": [
        {
          "internalType": "address",
          "name": "owner",
          "type": "address"
        }
      ],
      "name": "OwnableInvalidOwner",
      "type": "error"
    },
    {
      "inputs": [
        {
          "internalType": "address",
          "name": "account",
          "type": "address"
        }
      ],
      "name": "OwnableUnauthorizedAccount",
      "type": "error"
    },
    {
      "inputs": [
        {
          "internalType": "uint256",
          "name": "x",
          "type": "uint256"
        },
        {
          "internalType": "uint256",
          "name": "y",
          "type": "uint256"
        }
      ],
      "name": "PRBMath_MulDiv18_Overflow",
      "type": "error"
    },
    {
      "inputs": [
        {
          "internalType": "uint256",
          "name": "x",
          "type": "uint256"
        },
        {
          "internalType": "uint256",
          "name": "y",
          "type": "uint256"
        },
        {
          "internalType": "uint256",
          "name": "denominator",
          "type": "uint256"
        }
      ],
      "name": "PRBMath_MulDiv_Overflow",
      "type": "error"
    },
    {
      "inputs": [],
      "name": "Paused",
      "type": "error"
    },
    {
      "inputs": [
        {
          "internalType": "address",
          "name": "token",
          "type": "address"
        }
      ],
      "name": "SafeERC20FailedOperation",
      "type": "error"
    },
    {
      "inputs": [],
      "name": "UUPSUnauthorizedCallContext",
      "type": "error"
    },
    {
      "inputs": [
        {
          "internalType": "bytes32",
          "name": "slot",
          "type": "bytes32"
        }
      ],
      "name": "UUPSUnsupportedProxiableUUID",
      "type": "error"
    },
    {
      "inputs": [
        {
          "internalType": "address",
          "name": "token",
          "type": "address"
        }
      ],
      "name": "UnsupportedToken",
      "type": "error"
    },
    {
      "inputs": [],
      "name": "ZeroAddress",
      "type": "error"
    },
    {
      "inputs": [],
      "name": "ZeroValue",
      "type": "error"
    },
    {
      "anonymous": false,
      "inputs": [
        {
          "indexed": true,
          "internalType": "uint256",
          "name": "id",
          "type": "uint256"
        },
        {
          "indexed": true,
          "internalType": "address",
          "name": "requester",
          "type": "address"
        }
      ],
      "name": "CancelRequested",
      "type": "event"
    },
    {
      "anonymous": false,
      "inputs": [],
      "name": "EIP712DomainChanged",
      "type": "event"
    },
    {
      "anonymous": false,
      "inputs": [
        {
          "indexed": false,
          "internalType": "uint64",
          "name": "version",
          "type": "uint64"
        }
      ],
      "name": "Initialized",
      "type": "event"
    },
    {
      "anonymous": false,
      "inputs": [
        {
          "indexed": true,
          "internalType": "address",
          "name": "account",
          "type": "address"
        },
        {
          "indexed": false,
          "internalType": "bool",
          "name": "status",
          "type": "bool"
        }
      ],
      "name": "OperatorSet",
      "type": "event"
    },
    {
      "anonymous": false,
      "inputs": [
        {
          "indexed": true,
          "internalType": "uint256",
          "name": "id",
          "type": "uint256"
        },
        {
          "indexed": true,
          "internalType": "address",
          "name": "requester",
          "type": "address"
        },
        {
          "indexed": false,
          "internalType": "string",
          "name": "reason",
          "type": "string"
        }
      ],
      "name": "OrderCancelled",
      "type": "event"
    },
    {
      "anonymous": false,
      "inputs": [
        {
          "indexed": true,
          "internalType": "uint256",
          "name": "id",
          "type": "uint256"
        },
        {
          "indexed": true,
          "internalType": "address",
          "name": "requester",
          "type": "address"
        },
        {
          "components": [
            {
              "internalType": "uint64",
              "name": "requestTimestamp",
              "type": "uint64"
            },
            {
              "internalType": "address",
              "name": "recipient",
              "type": "address"
            },
            {
              "internalType": "address",
              "name": "assetToken",
              "type": "address"
            },
            {
              "internalType": "address",
              "name": "paymentToken",
              "type": "address"
            },
            {
              "internalType": "bool",
              "name": "sell",
              "type": "bool"
            },
            {
              "internalType": "enum IOrderProcessor.OrderType",
              "name": "orderType",
              "type": "uint8"
            },
            {
              "internalType": "uint256",
              "name": "assetTokenQuantity",
              "type": "uint256"
            },
            {
              "internalType": "uint256",
              "name": "paymentTokenQuantity",
              "type": "uint256"
            },
            {
              "internalType": "uint256",
              "name": "price",
              "type": "uint256"
            },
            {
              "internalType": "enum IOrderProcessor.TIF",
              "name": "tif",
              "type": "uint8"
            }
          ],
          "indexed": false,
          "internalType": "struct IOrderProcessor.Order",
          "name": "order",
          "type": "tuple"
        },
        {
          "indexed": false,
          "internalType": "uint256",
          "name": "feesEscrowed",
          "type": "uint256"
        }
      ],
      "name": "OrderCreated",
      "type": "event"
    },
    {
      "anonymous": false,
      "inputs": [
        {
          "indexed": true,
          "internalType": "address",
          "name": "assetToken",
          "type": "address"
        },
        {
          "indexed": false,
          "internalType": "uint8",
          "name": "decimalReduction",
          "type": "uint8"
        }
      ],
      "name": "OrderDecimalReductionSet",
      "type": "event"
    },
    {
      "anonymous": false,
      "inputs": [
        {
          "indexed": true,
          "internalType": "uint256",
          "name": "id",
          "type": "uint256"
        },
        {
          "indexed": true,
          "internalType": "address",
          "name": "paymentToken",
          "type": "address"
        },
        {
          "indexed": true,
          "internalType": "address",
          "name": "assetToken",
          "type": "address"
        },
        {
          "indexed": false,
          "internalType": "address",
          "name": "requester",
          "type": "address"
        },
        {
          "indexed": false,
          "internalType": "uint256",
          "name": "assetAmount",
          "type": "uint256"
        },
        {
          "indexed": false,
          "internalType": "uint256",
          "name": "paymentAmount",
          "type": "uint256"
        },
        {
          "indexed": false,
          "internalType": "uint256",
          "name": "feesTaken",
          "type": "uint256"
        },
        {
          "indexed": false,
          "internalType": "bool",
          "name": "sell",
          "type": "bool"
        }
      ],
      "name": "OrderFill",
      "type": "event"
    },
    {
      "anonymous": false,
      "inputs": [
        {
          "indexed": true,
          "internalType": "uint256",
          "name": "id",
          "type": "uint256"
        },
        {
          "indexed": true,
          "internalType": "address",
          "name": "requester",
          "type": "address"
        }
      ],
      "name": "OrderFulfilled",
      "type": "event"
    },
    {
      "anonymous": false,
      "inputs": [
        {
          "indexed": false,
          "internalType": "bool",
          "name": "paused",
          "type": "bool"
        }
      ],
      "name": "OrdersPaused",
      "type": "event"
    },
    {
      "anonymous": false,
      "inputs": [
        {
          "indexed": true,
          "internalType": "address",
          "name": "previousOwner",
          "type": "address"
        },
        {
          "indexed": true,
          "internalType": "address",
          "name": "newOwner",
          "type": "address"
        }
      ],
      "name": "OwnershipTransferStarted",
      "type": "event"
    },
    {
      "anonymous": false,
      "inputs": [
        {
          "indexed": true,
          "internalType": "address",
          "name": "previousOwner",
          "type": "address"
        },
        {
          "indexed": true,
          "internalType": "address",
          "name": "newOwner",
          "type": "address"
        }
      ],
      "name": "OwnershipTransferred",
      "type": "event"
    },
    {
      "anonymous": false,
      "inputs": [
        {
          "indexed": true,
          "internalType": "address",
          "name": "paymentToken",
          "type": "address"
        }
      ],
      "name": "PaymentTokenRemoved",
      "type": "event"
    },
    {
      "anonymous": false,
      "inputs": [
        {
          "indexed": true,
          "internalType": "address",
          "name": "paymentToken",
          "type": "address"
        },
        {
          "indexed": false,
          "internalType": "bytes4",
          "name": "blacklistCallSelector",
          "type": "bytes4"
        },
        {
          "indexed": false,
          "internalType": "uint64",
          "name": "perOrderFeeBuy",
          "type": "uint64"
        },
        {
          "indexed": false,
          "internalType": "uint24",
          "name": "percentageFeeRateBuy",
          "type": "uint24"
        },
        {
          "indexed": false,
          "internalType": "uint64",
          "name": "perOrderFeeSell",
          "type": "uint64"
        },
        {
          "indexed": false,
          "internalType": "uint24",
          "name": "percentageFeeRateSell",
          "type": "uint24"
        }
      ],
      "name": "PaymentTokenSet",
      "type": "event"
    },
    {
      "anonymous": false,
      "inputs": [
        {
          "indexed": true,
          "internalType": "address",
          "name": "treasury",
          "type": "address"
        }
      ],
      "name": "TreasurySet",
      "type": "event"
    },
    {
      "anonymous": false,
      "inputs": [
        {
          "indexed": true,
          "internalType": "address",
          "name": "implementation",
          "type": "address"
        }
      ],
      "name": "Upgraded",
      "type": "event"
    },
    {
      "anonymous": false,
      "inputs": [
        {
          "indexed": true,
          "internalType": "address",
          "name": "vault",
          "type": "address"
        }
      ],
      "name": "VaultSet",
      "type": "event"
    },
    {
      "inputs": [],
      "name": "DOMAIN_SEPARATOR",
      "outputs": [
        {
          "internalType": "bytes32",
          "name": "",
          "type": "bytes32"
        }
      ],
      "stateMutability": "view",
      "type": "function"
    },
    {
      "inputs": [],
      "name": "UPGRADE_INTERFACE_VERSION",
      "outputs": [
        {
          "internalType": "string",
          "name": "",
          "type": "string"
        }
      ],
      "stateMutability": "view",
      "type": "function"
    },
    {
      "inputs": [],
      "name": "acceptOwnership",
      "outputs": [],
      "stateMutability": "nonpayable",
      "type": "function"
    },
    {
      "inputs": [
        {
          "components": [
            {
              "internalType": "uint64",
              "name": "requestTimestamp",
              "type": "uint64"
            },
            {
              "internalType": "address",
              "name": "recipient",
              "type": "address"
            },
            {
              "internalType": "address",
              "name": "assetToken",
              "type": "address"
            },
            {
              "internalType": "address",
              "name": "paymentToken",
              "type": "address"
            },
            {
              "internalType": "bool",
              "name": "sell",
              "type": "bool"
            },
            {
              "internalType": "enum IOrderProcessor.OrderType",
              "name": "orderType",
              "type": "uint8"
            },
            {
              "internalType": "uint256",
              "name": "assetTokenQuantity",
              "type": "uint256"
            },
            {
              "internalType": "uint256",
              "name": "paymentTokenQuantity",
              "type": "uint256"
            },
            {
              "internalType": "uint256",
              "name": "price",
              "type": "uint256"
            },
            {
              "internalType": "enum IOrderProcessor.TIF",
              "name": "tif",
              "type": "uint8"
            }
          ],
          "internalType": "struct IOrderProcessor.Order",
          "name": "order",
          "type": "tuple"
        },
        {
          "internalType": "string",
          "name": "reason",
          "type": "string"
        }
      ],
      "name": "cancelOrder",
      "outputs": [],
      "stateMutability": "nonpayable",
      "type": "function"
    },
    {
      "inputs": [
        {
          "components": [
            {
              "internalType": "uint64",
              "name": "requestTimestamp",
              "type": "uint64"
            },
            {
              "internalType": "address",
              "name": "recipient",
              "type": "address"
            },
            {
              "internalType": "address",
              "name": "assetToken",
              "type": "address"
            },
            {
              "internalType": "address",
              "name": "paymentToken",
              "type": "address"
            },
            {
              "internalType": "bool",
              "name": "sell",
              "type": "bool"
            },
            {
              "internalType": "enum IOrderProcessor.OrderType",
              "name": "orderType",
              "type": "uint8"
            },
            {
              "internalType": "uint256",
              "name": "assetTokenQuantity",
              "type": "uint256"
            },
            {
              "internalType": "uint256",
              "name": "paymentTokenQuantity",
              "type": "uint256"
            },
            {
              "internalType": "uint256",
              "name": "price",
              "type": "uint256"
            },
            {
              "internalType": "enum IOrderProcessor.TIF",
              "name": "tif",
              "type": "uint8"
            }
          ],
          "internalType": "struct IOrderProcessor.Order",
          "name": "order",
          "type": "tuple"
        },
        {
          "components": [
            {
              "internalType": "uint256",
              "name": "orderId",
              "type": "uint256"
            },
            {
              "internalType": "address",
              "name": "requester",
              "type": "address"
            },
            {
              "internalType": "uint256",
              "name": "fee",
              "type": "uint256"
            },
            {
              "internalType": "uint64",
              "name": "timestamp",
              "type": "uint64"
            },
            {
              "internalType": "uint64",
              "name": "deadline",
              "type": "uint64"
            }
          ],
          "internalType": "struct IOrderProcessor.FeeQuote",
          "name": "feeQuote",
          "type": "tuple"
        },
        {
          "internalType": "bytes",
          "name": "feeQuoteSignature",
          "type": "bytes"
        }
      ],
      "name": "createOrder",
      "outputs": [
        {
          "internalType": "uint256",
          "name": "id",
          "type": "uint256"
        }
      ],
      "stateMutability": "nonpayable",
      "type": "function"
    },
    {
      "inputs": [
        {
          "components": [
            {
              "internalType": "uint64",
              "name": "requestTimestamp",
              "type": "uint64"
            },
            {
              "internalType": "address",
              "name": "recipient",
              "type": "address"
            },
            {
              "internalType": "address",
              "name": "assetToken",
              "type": "address"
            },
            {
              "internalType": "address",
              "name": "paymentToken",
              "type": "address"
            },
            {
              "internalType": "bool",
              "name": "sell",
              "type": "bool"
            },
            {
              "internalType": "enum IOrderProcessor.OrderType",
              "name": "orderType",
              "type": "uint8"
            },
            {
              "internalType": "uint256",
              "name": "assetTokenQuantity",
              "type": "uint256"
            },
            {
              "internalType": "uint256",
              "name": "paymentTokenQuantity",
              "type": "uint256"
            },
            {
              "internalType": "uint256",
              "name": "price",
              "type": "uint256"
            },
            {
              "internalType": "enum IOrderProcessor.TIF",
              "name": "tif",
              "type": "uint8"
            }
          ],
          "internalType": "struct IOrderProcessor.Order",
          "name": "order",
          "type": "tuple"
        }
      ],
      "name": "createOrderStandardFees",
      "outputs": [
        {
          "internalType": "uint256",
          "name": "id",
          "type": "uint256"
        }
      ],
      "stateMutability": "nonpayable",
      "type": "function"
    },
    {
      "inputs": [
        {
          "components": [
            {
              "internalType": "uint64",
              "name": "requestTimestamp",
              "type": "uint64"
            },
            {
              "internalType": "address",
              "name": "recipient",
              "type": "address"
            },
            {
              "internalType": "address",
              "name": "assetToken",
              "type": "address"
            },
            {
              "internalType": "address",
              "name": "paymentToken",
              "type": "address"
            },
            {
              "internalType": "bool",
              "name": "sell",
              "type": "bool"
            },
            {
              "internalType": "enum IOrderProcessor.OrderType",
              "name": "orderType",
              "type": "uint8"
            },
            {
              "internalType": "uint256",
              "name": "assetTokenQuantity",
              "type": "uint256"
            },
            {
              "internalType": "uint256",
              "name": "paymentTokenQuantity",
              "type": "uint256"
            },
            {
              "internalType": "uint256",
              "name": "price",
              "type": "uint256"
            },
            {
              "internalType": "enum IOrderProcessor.TIF",
              "name": "tif",
              "type": "uint8"
            }
          ],
          "internalType": "struct IOrderProcessor.Order",
          "name": "order",
          "type": "tuple"
        },
        {
          "components": [
            {
              "internalType": "uint64",
              "name": "deadline",
              "type": "uint64"
            },
            {
              "internalType": "bytes",
              "name": "signature",
              "type": "bytes"
            }
          ],
          "internalType": "struct IOrderProcessor.Signature",
          "name": "orderSignature",
          "type": "tuple"
        },
        {
          "components": [
            {
              "internalType": "uint256",
              "name": "orderId",
              "type": "uint256"
            },
            {
              "internalType": "address",
              "name": "requester",
              "type": "address"
            },
            {
              "internalType": "uint256",
              "name": "fee",
              "type": "uint256"
            },
            {
              "internalType": "uint64",
              "name": "timestamp",
              "type": "uint64"
            },
            {
              "internalType": "uint64",
              "name": "deadline",
              "type": "uint64"
            }
          ],
          "internalType": "struct IOrderProcessor.FeeQuote",
          "name": "feeQuote",
          "type": "tuple"
        },
        {
          "internalType": "bytes",
          "name": "feeQuoteSignature",
          "type": "bytes"
        }
      ],
      "name": "createOrderWithSignature",
      "outputs": [
        {
          "internalType": "uint256",
          "name": "id",
          "type": "uint256"
        }
      ],
      "stateMutability": "nonpayable",
      "type": "function"
    },
    {
      "inputs": [],
      "name": "dShareFactory",
      "outputs": [
        {
          "internalType": "contract IDShareFactory",
          "name": "",
          "type": "address"
        }
      ],
      "stateMutability": "view",
      "type": "function"
    },
    {
      "inputs": [],
      "name": "eip712Domain",
      "outputs": [
        {
          "internalType": "bytes1",
          "name": "fields",
          "type": "bytes1"
        },
        {
          "internalType": "string",
          "name": "name",
          "type": "string"
        },
        {
          "internalType": "string",
          "name": "version",
          "type": "string"
        },
        {
          "internalType": "uint256",
          "name": "chainId",
          "type": "uint256"
        },
        {
          "internalType": "address",
          "name": "verifyingContract",
          "type": "address"
        },
        {
          "internalType": "bytes32",
          "name": "salt",
          "type": "bytes32"
        },
        {
          "internalType": "uint256[]",
          "name": "extensions",
          "type": "uint256[]"
        }
      ],
      "stateMutability": "view",
      "type": "function"
    },
    {
      "inputs": [
        {
          "components": [
            {
              "internalType": "uint64",
              "name": "requestTimestamp",
              "type": "uint64"
            },
            {
              "internalType": "address",
              "name": "recipient",
              "type": "address"
            },
            {
              "internalType": "address",
              "name": "assetToken",
              "type": "address"
            },
            {
              "internalType": "address",
              "name": "paymentToken",
              "type": "address"
            },
            {
              "internalType": "bool",
              "name": "sell",
              "type": "bool"
            },
            {
              "internalType": "enum IOrderProcessor.OrderType",
              "name": "orderType",
              "type": "uint8"
            },
            {
              "internalType": "uint256",
              "name": "assetTokenQuantity",
              "type": "uint256"
            },
            {
              "internalType": "uint256",
              "name": "paymentTokenQuantity",
              "type": "uint256"
            },
            {
              "internalType": "uint256",
              "name": "price",
              "type": "uint256"
            },
            {
              "internalType": "enum IOrderProcessor.TIF",
              "name": "tif",
              "type": "uint8"
            }
          ],
          "internalType": "struct IOrderProcessor.Order",
          "name": "order",
          "type": "tuple"
        },
        {
          "internalType": "uint256",
          "name": "fillAmount",
          "type": "uint256"
        },
        {
          "internalType": "uint256",
          "name": "receivedAmount",
          "type": "uint256"
        },
        {
          "internalType": "uint256",
          "name": "fees",
          "type": "uint256"
        }
      ],
      "name": "fillOrder",
      "outputs": [],
      "stateMutability": "nonpayable",
      "type": "function"
    },
    {
      "inputs": [
        {
          "internalType": "uint256",
          "name": "id",
          "type": "uint256"
        }
      ],
      "name": "getFeesEscrowed",
      "outputs": [
        {
          "internalType": "uint256",
          "name": "",
          "type": "uint256"
        }
      ],
      "stateMutability": "view",
      "type": "function"
    },
    {
      "inputs": [
        {
          "internalType": "uint256",
          "name": "id",
          "type": "uint256"
        }
      ],
      "name": "getFeesTaken",
      "outputs": [
        {
          "internalType": "uint256",
          "name": "",
          "type": "uint256"
        }
      ],
      "stateMutability": "view",
      "type": "function"
    },
    {
      "inputs": [
        {
          "internalType": "uint256",
          "name": "id",
          "type": "uint256"
        }
      ],
      "name": "getOrderStatus",
      "outputs": [
        {
          "internalType": "enum IOrderProcessor.OrderStatus",
          "name": "",
          "type": "uint8"
        }
      ],
      "stateMutability": "view",
      "type": "function"
    },
    {
      "inputs": [
        {
          "internalType": "address",
          "name": "paymentToken",
          "type": "address"
        }
      ],
      "name": "getPaymentTokenConfig",
      "outputs": [
        {
          "components": [
            {
              "internalType": "bool",
              "name": "enabled",
              "type": "bool"
            },
            {
              "internalType": "uint8",
              "name": "decimals",
              "type": "uint8"
            },
            {
              "internalType": "bytes4",
              "name": "blacklistCallSelector",
              "type": "bytes4"
            },
            {
              "internalType": "uint64",
              "name": "perOrderFeeBuy",
              "type": "uint64"
            },
            {
              "internalType": "uint24",
              "name": "percentageFeeRateBuy",
              "type": "uint24"
            },
            {
              "internalType": "uint64",
              "name": "perOrderFeeSell",
              "type": "uint64"
            },
            {
              "internalType": "uint24",
              "name": "percentageFeeRateSell",
              "type": "uint24"
            }
          ],
          "internalType": "struct OrderProcessor.PaymentTokenConfig",
          "name": "",
          "type": "tuple"
        }
      ],
      "stateMutability": "view",
      "type": "function"
    },
    {
      "inputs": [
        {
          "internalType": "bool",
          "name": "sell",
          "type": "bool"
        },
        {
          "internalType": "address",
          "name": "paymentToken",
          "type": "address"
        }
      ],
      "name": "getStandardFees",
      "outputs": [
        {
          "internalType": "uint256",
          "name": "",
          "type": "uint256"
        },
        {
          "internalType": "uint24",
          "name": "",
          "type": "uint24"
        }
      ],
      "stateMutability": "view",
      "type": "function"
    },
    {
      "inputs": [
        {
          "internalType": "uint256",
          "name": "id",
          "type": "uint256"
        }
      ],
      "name": "getUnfilledAmount",
      "outputs": [
        {
          "internalType": "uint256",
          "name": "",
          "type": "uint256"
        }
      ],
      "stateMutability": "view",
      "type": "function"
    },
    {
      "inputs": [
        {
          "components": [
            {
              "internalType": "uint256",
              "name": "orderId",
              "type": "uint256"
            },
            {
              "internalType": "address",
              "name": "requester",
              "type": "address"
            },
            {
              "internalType": "uint256",
              "name": "fee",
              "type": "uint256"
            },
            {
              "internalType": "uint64",
              "name": "timestamp",
              "type": "uint64"
            },
            {
              "internalType": "uint64",
              "name": "deadline",
              "type": "uint64"
            }
          ],
          "internalType": "struct IOrderProcessor.FeeQuote",
          "name": "feeQuote",
          "type": "tuple"
        }
      ],
      "name": "hashFeeQuote",
      "outputs": [
        {
          "internalType": "bytes32",
          "name": "",
          "type": "bytes32"
        }
      ],
      "stateMutability": "pure",
      "type": "function"
    },
    {
      "inputs": [
        {
          "components": [
            {
              "internalType": "uint64",
              "name": "requestTimestamp",
              "type": "uint64"
            },
            {
              "internalType": "address",
              "name": "recipient",
              "type": "address"
            },
            {
              "internalType": "address",
              "name": "assetToken",
              "type": "address"
            },
            {
              "internalType": "address",
              "name": "paymentToken",
              "type": "address"
            },
            {
              "internalType": "bool",
              "name": "sell",
              "type": "bool"
            },
            {
              "internalType": "enum IOrderProcessor.OrderType",
              "name": "orderType",
              "type": "uint8"
            },
            {
              "internalType": "uint256",
              "name": "assetTokenQuantity",
              "type": "uint256"
            },
            {
              "internalType": "uint256",
              "name": "paymentTokenQuantity",
              "type": "uint256"
            },
            {
              "internalType": "uint256",
              "name": "price",
              "type": "uint256"
            },
            {
              "internalType": "enum IOrderProcessor.TIF",
              "name": "tif",
              "type": "uint8"
            }
          ],
          "internalType": "struct IOrderProcessor.Order",
          "name": "order",
          "type": "tuple"
        }
      ],
      "name": "hashOrder",
      "outputs": [
        {
          "internalType": "uint256",
          "name": "",
          "type": "uint256"
        }
      ],
      "stateMutability": "pure",
      "type": "function"
    },
    {
      "inputs": [
        {
          "components": [
            {
              "internalType": "uint64",
              "name": "requestTimestamp",
              "type": "uint64"
            },
            {
              "internalType": "address",
              "name": "recipient",
              "type": "address"
            },
            {
              "internalType": "address",
              "name": "assetToken",
              "type": "address"
            },
            {
              "internalType": "address",
              "name": "paymentToken",
              "type": "address"
            },
            {
              "internalType": "bool",
              "name": "sell",
              "type": "bool"
            },
            {
              "internalType": "enum IOrderProcessor.OrderType",
              "name": "orderType",
              "type": "uint8"
            },
            {
              "internalType": "uint256",
              "name": "assetTokenQuantity",
              "type": "uint256"
            },
            {
              "internalType": "uint256",
              "name": "paymentTokenQuantity",
              "type": "uint256"
            },
            {
              "internalType": "uint256",
              "name": "price",
              "type": "uint256"
            },
            {
              "internalType": "enum IOrderProcessor.TIF",
              "name": "tif",
              "type": "uint8"
            }
          ],
          "internalType": "struct IOrderProcessor.Order",
          "name": "order",
          "type": "tuple"
        },
        {
          "internalType": "uint64",
          "name": "deadline",
          "type": "uint64"
        }
      ],
      "name": "hashOrderRequest",
      "outputs": [
        {
          "internalType": "bytes32",
          "name": "",
          "type": "bytes32"
        }
      ],
      "stateMutability": "pure",
      "type": "function"
    },
    {
      "inputs": [
        {
          "internalType": "address",
          "name": "_owner",
          "type": "address"
        },
        {
          "internalType": "address",
          "name": "_treasury",
          "type": "address"
        },
        {
          "internalType": "address",
          "name": "_vault",
          "type": "address"
        },
        {
          "internalType": "contract IDShareFactory",
          "name": "_dShareFactory",
          "type": "address"
        }
      ],
      "name": "initialize",
      "outputs": [],
      "stateMutability": "nonpayable",
      "type": "function"
    },
    {
      "inputs": [
        {
          "internalType": "address",
          "name": "account",
          "type": "address"
        }
      ],
      "name": "isOperator",
      "outputs": [
        {
          "internalType": "bool",
          "name": "",
          "type": "bool"
        }
      ],
      "stateMutability": "view",
      "type": "function"
    },
    {
      "inputs": [
        {
          "internalType": "address",
          "name": "token",
          "type": "address"
        },
        {
          "internalType": "address",
          "name": "account",
          "type": "address"
        }
      ],
      "name": "isTransferLocked",
      "outputs": [
        {
          "internalType": "bool",
          "name": "",
          "type": "bool"
        }
      ],
      "stateMutability": "view",
      "type": "function"
    },
    {
      "inputs": [
        {
          "internalType": "address",
          "name": "assetToken",
          "type": "address"
        },
        {
          "internalType": "address",
          "name": "paymentToken",
          "type": "address"
        }
      ],
      "name": "latestFillPrice",
      "outputs": [
        {
          "components": [
            {
              "internalType": "uint256",
              "name": "price",
              "type": "uint256"
            },
            {
              "internalType": "uint64",
              "name": "blocktime",
              "type": "uint64"
            }
          ],
          "internalType": "struct IOrderProcessor.PricePoint",
          "name": "",
          "type": "tuple"
        }
      ],
      "stateMutability": "view",
      "type": "function"
    },
    {
      "inputs": [
        {
          "internalType": "bytes[]",
          "name": "data",
          "type": "bytes[]"
        }
      ],
      "name": "multicall",
      "outputs": [
        {
          "internalType": "bytes[]",
          "name": "results",
          "type": "bytes[]"
        }
      ],
      "stateMutability": "nonpayable",
      "type": "function"
    },
    {
      "inputs": [
        {
          "internalType": "address",
          "name": "token",
          "type": "address"
        }
      ],
      "name": "orderDecimalReduction",
      "outputs": [
        {
          "internalType": "uint8",
          "name": "",
          "type": "uint8"
        }
      ],
      "stateMutability": "view",
      "type": "function"
    },
    {
      "inputs": [],
      "name": "ordersPaused",
      "outputs": [
        {
          "internalType": "bool",
          "name": "",
          "type": "bool"
        }
      ],
      "stateMutability": "view",
      "type": "function"
    },
    {
      "inputs": [],
      "name": "owner",
      "outputs": [
        {
          "internalType": "address",
          "name": "",
          "type": "address"
        }
      ],
      "stateMutability": "view",
      "type": "function"
    },
    {
      "inputs": [],
      "name": "pendingOwner",
      "outputs": [
        {
          "internalType": "address",
          "name": "",
          "type": "address"
        }
      ],
      "stateMutability": "view",
      "type": "function"
    },
    {
      "inputs": [],
      "name": "proxiableUUID",
      "outputs": [
        {
          "internalType": "bytes32",
          "name": "",
          "type": "bytes32"
        }
      ],
      "stateMutability": "view",
      "type": "function"
    },
    {
      "inputs": [
        {
          "internalType": "address",
          "name": "paymentToken",
          "type": "address"
        }
      ],
      "name": "removePaymentToken",
      "outputs": [],
      "stateMutability": "nonpayable",
      "type": "function"
    },
    {
      "inputs": [],
      "name": "renounceOwnership",
      "outputs": [],
      "stateMutability": "nonpayable",
      "type": "function"
    },
    {
      "inputs": [
        {
          "internalType": "uint256",
          "name": "id",
          "type": "uint256"
        }
      ],
      "name": "requestCancel",
      "outputs": [],
      "stateMutability": "nonpayable",
      "type": "function"
    },
    {
      "inputs": [
        {
          "internalType": "address",
          "name": "token",
          "type": "address"
        },
        {
          "internalType": "address",
          "name": "owner",
          "type": "address"
        },
        {
          "internalType": "uint256",
          "name": "value",
          "type": "uint256"
        },
        {
          "internalType": "uint256",
          "name": "deadline",
          "type": "uint256"
        },
        {
          "internalType": "uint8",
          "name": "v",
          "type": "uint8"
        },
        {
          "internalType": "bytes32",
          "name": "r",
          "type": "bytes32"
        },
        {
          "internalType": "bytes32",
          "name": "s",
          "type": "bytes32"
        }
      ],
      "name": "selfPermit",
      "outputs": [],
      "stateMutability": "nonpayable",
      "type": "function"
    },
    {
      "inputs": [
        {
          "internalType": "address",
          "name": "account",
          "type": "address"
        },
        {
          "internalType": "bool",
          "name": "status",
          "type": "bool"
        }
      ],
      "name": "setOperator",
      "outputs": [],
      "stateMutability": "nonpayable",
      "type": "function"
    },
    {
      "inputs": [
        {
          "internalType": "address",
          "name": "token",
          "type": "address"
        },
        {
          "internalType": "uint8",
          "name": "decimalReduction",
          "type": "uint8"
        }
      ],
      "name": "setOrderDecimalReduction",
      "outputs": [],
      "stateMutability": "nonpayable",
      "type": "function"
    },
    {
      "inputs": [
        {
          "internalType": "bool",
          "name": "pause",
          "type": "bool"
        }
      ],
      "name": "setOrdersPaused",
      "outputs": [],
      "stateMutability": "nonpayable",
      "type": "function"
    },
    {
      "inputs": [
        {
          "internalType": "address",
          "name": "paymentToken",
          "type": "address"
        },
        {
          "internalType": "bytes4",
          "name": "blacklistCallSelector",
          "type": "bytes4"
        },
        {
          "internalType": "uint64",
          "name": "perOrderFeeBuy",
          "type": "uint64"
        },
        {
          "internalType": "uint24",
          "name": "percentageFeeRateBuy",
          "type": "uint24"
        },
        {
          "internalType": "uint64",
          "name": "perOrderFeeSell",
          "type": "uint64"
        },
        {
          "internalType": "uint24",
          "name": "percentageFeeRateSell",
          "type": "uint24"
        }
      ],
      "name": "setPaymentToken",
      "outputs": [],
      "stateMutability": "nonpayable",
      "type": "function"
    },
    {
      "inputs": [
        {
          "internalType": "address",
          "name": "account",
          "type": "address"
        }
      ],
      "name": "setTreasury",
      "outputs": [],
      "stateMutability": "nonpayable",
      "type": "function"
    },
    {
      "inputs": [
        {
          "internalType": "address",
          "name": "account",
          "type": "address"
        }
      ],
      "name": "setVault",
      "outputs": [],
      "stateMutability": "nonpayable",
      "type": "function"
    },
    {
      "inputs": [
        {
          "internalType": "bool",
          "name": "sell",
          "type": "bool"
        },
        {
          "internalType": "address",
          "name": "paymentToken",
          "type": "address"
        },
        {
          "internalType": "uint256",
          "name": "paymentTokenQuantity",
          "type": "uint256"
        }
      ],
      "name": "totalStandardFee",
      "outputs": [
        {
          "internalType": "uint256",
          "name": "",
          "type": "uint256"
        }
      ],
      "stateMutability": "view",
      "type": "function"
    },
    {
      "inputs": [
        {
          "internalType": "address",
          "name": "newOwner",
          "type": "address"
        }
      ],
      "name": "transferOwnership",
      "outputs": [],
      "stateMutability": "nonpayable",
      "type": "function"
    },
    {
      "inputs": [],
      "name": "treasury",
      "outputs": [
        {
          "internalType": "address",
          "name": "",
          "type": "address"
        }
      ],
      "stateMutability": "view",
      "type": "function"
    },
    {
      "inputs": [
        {
          "internalType": "address",
          "name": "newImplementation",
          "type": "address"
        },
        {
          "internalType": "bytes",
          "name": "data",
          "type": "bytes"
        }
      ],
      "name": "upgradeToAndCall",
      "outputs": [],
      "stateMutability": "payable",
      "type": "function"
    },
    {
      "inputs": [],
      "name": "vault",
      "outputs": [
        {
          "internalType": "address",
          "name": "",
          "type": "address"
        }
      ],
      "stateMutability": "view",
      "type": "function"
    }
  ],
  "bytecode": {
    "object": "0x60a06040523060805234801561001457600080fd5b5061001d610022565b6100d4565b7ff0c57e16840df040f15088dc2f81fe391c3923bec73e23a9662efc9c229c6a00805468010000000000000000900460ff16156100725760405163f92ee8a960e01b815260040160405180910390fd5b80546001600160401b03908116146100d15780546001600160401b0319166001600160401b0390811782556040519081527fc7f505b2f371ae2175ee4913f4499e1f2633a7b5936321eed1cdaeb6115181d29060200160405180910390a15b50565b608051614c056100fd60003960008181612cc301528181612cec0152612e2d0152614c056000f3fe6080604052600436106102675760003560e01c806381fed70811610144578063b0eb27f8116100b6578063f0f442601161007a578063f0f44260146107f9578063f2fde38b14610819578063f64f67de14610839578063f8c8765e14610859578063fbfa77cf14610879578063fc75f9ed1461088e57600080fd5b8063b0eb27f81461076f578063d386e1661461078f578063d87f8ee1146107af578063e30c3978146107c4578063e683a2d4146107d957600080fd5b8063a377cfbf11610108578063a377cfbf1461066b578063a5125421146106af578063a70c5633146106cf578063aa2165f1146106e4578063ac9650d814610704578063ad3cb1cc1461073157600080fd5b806381fed708146105ce57806384b0196e146105ee5780638da5cb5b14610616578063901b7e431461062b578063904adece1461064b57600080fd5b806352d1902d116101dd57806369352a90116101a157806369352a90146105145780636d70f7ae146105345780636ecebc3614610564578063715018a61461058457806379ba50971461059957806381385480146105ae57600080fd5b806352d1902d14610472578063558a72971461048757806361d027b3146104a75780636817031b146104d457806368bad2cf146104f457600080fd5b8063394a4c5c1161022f578063394a4c5c146103b257806345fa8aae146103d2578063464bbe26146103ff5780634b5e68901461041f5780634bf79b4c1461043f5780634f1ef2861461045f57600080fd5b806301a7cdb31461026c57806315984f111461028e578063236970d41461033657806323a3c10d1461036f5780633644e5151461039d575b600080fd5b34801561027857600080fd5b5061028c610287366004613d55565b6108c0565b005b34801561029a57600080fd5b506102ae6102a9366004613dda565b610b81565b60405161032d9190600060e08201905082511515825260ff602084015116602083015263ffffffff60e01b604084015116604083015260608301516001600160401b0380821660608501526080850151915062ffffff80831660808601528160a08701511660a08601528060c08701511660c086015250505092915050565b60405180910390f35b34801561034257600080fd5b50610356610351366004613e10565b610c6c565b6040805192835262ffffff90911660208301520161032d565b34801561037b57600080fd5b5061038f61038a366004613e49565b610d9a565b60405190815260200161032d565b3480156103a957600080fd5b5061038f610dce565b3480156103be57600080fd5b5061028c6103cd366004613ede565b610ddd565b3480156103de57600080fd5b506103f26103ed366004613f33565b610fe1565b60405161032d9190613f72565b34801561040b57600080fd5b5061038f61041a366004613f97565b611004565b34801561042b57600080fd5b5061028c61043a366004613ffc565b611080565b34801561044b57600080fd5b5061028c61045a366004614019565b6110f0565b61028c61046d36600461406d565b611227565b34801561047e57600080fd5b5061038f611246565b34801561049357600080fd5b5061028c6104a2366004614130565b611263565b3480156104b357600080fd5b506104bc6112e2565b6040516001600160a01b03909116815260200161032d565b3480156104e057600080fd5b5061028c6104ef366004613dda565b6112fd565b34801561050057600080fd5b5061028c61050f36600461416d565b611387565b34801561052057600080fd5b5061038f61052f366004613f33565b6113f9565b34801561054057600080fd5b5061055461054f366004613dda565b61141c565b604051901515815260200161032d565b34801561057057600080fd5b5061038f61057f36600461419b565b61144c565b34801561059057600080fd5b5061028c6114b9565b3480156105a557600080fd5b5061028c6114cd565b3480156105ba57600080fd5b506105546105c93660046141d1565b611515565b3480156105da57600080fd5b5061038f6105e9366004613f33565b611579565b3480156105fa57600080fd5b5061060361159c565b60405161032d979695949392919061423f565b34801561062257600080fd5b506104bc611648565b34801561063757600080fd5b5061038f6106463660046142d8565b611671565b34801561065757600080fd5b5061038f610666366004613f33565b61178d565b34801561067757600080fd5b5061068b6106863660046141d1565b6117b0565b60408051825181526020928301516001600160401b0316928101929092520161032d565b3480156106bb57600080fd5b5061028c6106ca366004613dda565b61181b565b3480156106db57600080fd5b506104bc611884565b3480156106f057600080fd5b5061038f6106ff366004614372565b6118a2565b34801561071057600080fd5b5061072461071f36600461438f565b611949565b60405161032d9190614403565b34801561073d57600080fd5b50610762604051806040016040528060058152602001640352e302e360dc1b81525081565b60405161032d9190614467565b34801561077b57600080fd5b5061038f61078a36600461447a565b611a30565b34801561079b57600080fd5b5061038f6107aa366004614372565b611ae7565b3480156107bb57600080fd5b50610554611bc1565b3480156107d057600080fd5b506104bc611be0565b3480156107e557600080fd5b5061028c6107f4366004613f33565b611c09565b34801561080557600080fd5b5061028c610814366004613dda565b611cb2565b34801561082557600080fd5b5061028c610834366004613dda565b611d37565b34801561084557600080fd5b5061028c610854366004614496565b611dbc565b34801561086557600080fd5b5061028c610874366004614507565b611e4b565b34801561088557600080fd5b506104bc61206b565b34801561089a57600080fd5b506108ae6108a9366004613dda565b612089565b60405160ff909116815260200161032d565b6108c86120b9565b6108d1836120eb565b6108da816120eb565b6001600160e01b03198516156108f7576108f5863087612113565b505b600061090161218e565b90506040518060e00160405280600115158152602001886001600160a01b031663313ce5676040518163ffffffff1660e01b8152600401602060405180830381865afa158015610955573d6000803e3d6000fd5b505050506040513d601f19601f820116820180604052508101906109799190614563565b60ff168152602001876001600160e01b0319168152602001866001600160401b031681526020018562ffffff168152602001846001600160401b031681526020018362ffffff16815250816007016000896001600160a01b03166001600160a01b0316815260200190815260200160002060008201518160000160006101000a81548160ff02191690831515021790555060208201518160000160016101000a81548160ff021916908360ff16021790555060408201518160000160026101000a81548163ffffffff021916908360e01c021790555060608201518160000160066101000a8154816001600160401b0302191690836001600160401b03160217905550608082015181600001600e6101000a81548162ffffff021916908362ffffff16021790555060a08201518160000160116101000a8154816001600160401b0302191690836001600160401b0316021790555060c08201518160000160196101000a81548162ffffff021916908362ffffff160217905550905050866001600160a01b03167f62bb97b737d55d6883ce8202a25917b7276ca6b55b762971d4f78d80f7a63e658787878787604051610b709594939291906001600160e01b03199590951685526001600160401b03938416602086015262ffffff92831660408601529216606084015216608082015260a00190565b60405180910390a250505050505050565b6040805160e081018252600080825260208201819052918101829052606081018290526080810182905260a0810182905260c0810182905290610bc261218e565b6001600160a01b03909316600090815260079093016020908152604093849020845160e08082018752915460ff80821615158352610100820416938201939093526001600160e01b031962010000840490921b91909116948101949094526001600160401b03600160301b82048116606086015262ffffff600160701b830481166080870152600160881b830490911660a0860152600160c81b9091041660c08401525090919050565b6000806000610c7961218e565b6001600160a01b0385166000908152600782016020908152604091829020825160e08082018552915460ff808216151580845261010083049091169483019490945262010000810490921b6001600160e01b03191693810193909352600160301b81046001600160401b039081166060850152600160701b820462ffffff9081166080860152600160881b830490911660a0850152600160c81b9091041660c083015291925090610d4d57604051635f8b555b60e11b81526001600160a01b03861660048201526024015b60405180910390fd5b8515610d7557610d6581602001518260a001516121b2565b8160c00151935093505050610d93565b610d87816020015182606001516121b2565b81608001519350935050505b9250929050565b6000806000610da98686610c6c565b9150915081610db88286612278565b610dc29190614596565b925050505b9392505050565b6000610dd86122a1565b905090565b610de6336122ab565b6000610df184611ae7565b90506000610dfd61218e565b600083815260058201602052604090208054919250906001600160a01b031680610e3a5760405163d36d896560e01b815260040160405180910390fd5b6000610e4c60a0890160808a01613ffc565b610e5a578260020154610e5d565b60005b60018481015460008881526004880160209081526040808320805460ff1916600390811790915560058b0190925280832080546001600160a01b0319168155948501839055600285018390559301559051919250906001600160a01b0384169087907ff2820c9274d611a15d979823ac23bb965c1972a808eebd952297d9bd3a60f4b890610eee908c908c906145a9565b60405180910390a3610f0660a08a0160808b01613ffc565b15610f8457610f1b60608a0160408b01613dda565b6040516340c10f1960e01b81526001600160a01b0385811660048301526024820184905291909116906340c10f1990604401600060405180830381600087803b158015610f6757600080fd5b505af1158015610f7b573d6000803e3d6000fd5b50505050610fd6565b610fab338483610f9a60808e0160608f01613dda565b6001600160a01b03169291906122f3565b8115610fd657610fd68383610fc660808d0160608e01613dda565b6001600160a01b03169190612360565b505050505050505050565b600080610fec61218e565b60009384526004016020525050604090205460ff1690565b60008061100f61218e565b6002810154909150600160a01b900460ff161561103f576040516313d0ff5960e31b815260040160405180910390fd5b61104b33868686612396565b611076863361106060a0830160808401613ffc565b61106e57876040013561246f565b60005b61246f565b9695505050505050565b6110886120b9565b600061109261218e565b600281018054841515600160a01b0260ff60a01b199091161790556040519091507feded67f5310120daa4cd7610cb05cee3ce8d5e6237b28455089b814371ef4c3c906110e490841515815260200190565b60405180910390a15050565b6110f9336122ab565b8260000361111a57604051637c946ed760e01b815260040160405180910390fd5b600061112585611ae7565b9050600061113161218e565b6000838152600582016020908152604091829020825160808101845281546001600160a01b03168082526001830154938201939093526002820154938101939093526003015460608301529192509061119d5760405163d36d896560e01b815260040160405180910390fd5b80602001518611156111c257604051630625040160e01b815260040160405180910390fd5b6111d260a0880160808901613ffc565b156111ea576111e5838883898989612a2c565b6111f8565b6111f8838883888a89612b15565b831561121e57815461121e906001600160a01b031685610fc660808b0160608c01613dda565b50505050505050565b61122f612cb8565b61123882612d5d565b6112428282612d65565b5050565b6000611250612e22565b50600080516020614bb083398151915290565b61126b6120b9565b600061127561218e565b6001600160a01b038416600081815260038301602052604090819020805486151560ff1990911617905551919250907f1a594081ae893ab78e67d9b9e843547318164322d32c65369d78a96172d9dc8f906112d590851515815260200190565b60405180910390a2505050565b6000806112ed61218e565b546001600160a01b031692915050565b6113056120b9565b6001600160a01b03811661132c5760405163d92e233d60e01b815260040160405180910390fd5b600061133661218e565b6001810180546001600160a01b0319166001600160a01b038516908117909155604051919250907fe7ae49f883c825b05681b3e00e8be6fdea9ed2a8a45e4c6ecb9390fc44cce61590600090a25050565b61138f6120b9565b600061139961218e565b6001600160a01b0384166000818152600683016020908152604091829020805460ff191660ff8816908117909155915191825292935090917f0b59c2c3c368212b3f37e17950d77dde61df255a50fdd2409f82380b624b17ad91016112d5565b60008061140461218e565b60009384526005016020525050604090206003015490565b60008061142761218e565b6001600160a01b03909316600090815260039093016020525050604090205460ff1690565b60007f4b79adf172c306ef56a5e224d04f05168355f07629283d177f52ee5e1317023561147884611ae7565b6040805160208101939093528201526001600160401b03831660608201526080015b6040516020818303038152906040528051906020012090505b92915050565b6114c16120b9565b6114cb6000612e6b565b565b33806114d7611be0565b6001600160a01b0316146115095760405163118cdaa760e01b81526001600160a01b0382166004820152602401610d44565b61151281612e6b565b50565b60008061152061218e565b6001600160a01b03851660009081526007820160205260408120549192506201000090910460e01b906001600160e01b031982169003611565576000925050506114b3565b611570858583612113565b95945050505050565b60008061158461218e565b60009384526005016020525050604090206001015490565b60006060808280808381600080516020614b9083398151915280549091501580156115c957506001810154155b61160d5760405162461bcd60e51b81526020600482015260156024820152741152540dcc4c8e88155b9a5b9a5d1a585b1a5e9959605a1b6044820152606401610d44565b611615612ea3565b61161d612f66565b60408051600080825260208201909252600f60f81b9c939b5091995046985030975095509350915050565b6000807f9016d09d72d40fdae2fd8ceac6b6234c7706214fd39c1cd1e609a0528c1993006112ed565b60008061167c61218e565b6002810154909150600160a01b900460ff16156116ac576040516313d0ff5960e31b815260040160405180910390fd5b6116b5336122ab565b426116c360208801886145d8565b6001600160401b031610156116eb5760405163df4cc36d60e01b815260040160405180910390fd5b60006117506117096117048a61057f60208c018c6145d8565b612fa5565b61171660208a018a6145f3565b8080601f016020809104026020016040519081016040528093929190818152602001838380828437600092019190915250612fd292505050565b905061175e81878787612396565b611781888261177360a0830160808401613ffc565b61106e57886040013561246f565b98975050505050505050565b60008061179861218e565b60009384526005016020525050604090206002015490565b604080518082019091526000808252602082015260006117ce61218e565b90508060080160006117e08686612ffc565b81526020808201929092526040908101600020815180830190925280548252600101546001600160401b031691810191909152949350505050565b6118236120b9565b600061182d61218e565b6001600160a01b038316600081815260078301602052604080822080546001600160e01b03191690555192935090917f85a3e72f8dd6db3794f93109c3c5f5b79d6112f6979431c45f98b26134b42af29190a25050565b60008061188f61218e565b600201546001600160a01b031692915050565b6000806118ad61218e565b6002810154909150600160a01b900460ff16156118dd576040516313d0ff5960e31b815260040160405180910390fd5b6118ed60a0840160808501613ffc565b15611905576118fe8333600061246f565b9150611943565b60008061191c816103516080880160608901613dda565b9150915061193e853384611934858a60e00135612278565b6110719190614596565b935050505b50919050565b604080516000815260208101909152606090826001600160401b0381111561197357611973614057565b6040519080825280602002602001820160405280156119a657816020015b60608152602001906001900390816119915790505b50915060005b83811015611a2857611a03308686848181106119ca576119ca61464c565b90506020028101906119dc91906145f3565b856040516020016119ef93929190614662565b60405160208183030381529060405261302d565b838281518110611a1557611a1561464c565b60209081029190910101526001016119ac565b505092915050565b60007f5cb303aa1e0a5388b90fbf38a2c8f60e46b84bf97e0a3209ae27a1555341a8698235611a656040850160208601613dda565b6040850135611a7a60808701606088016145d8565b611a8a60a08801608089016145d8565b6040805160208101979097528601949094526001600160a01b03909216606085015260808401526001600160401b0390811660a08401521660c082015260e001604051602081830303815290604052805190602001209050919050565b60007fcebe4c6160e5334d8d68179839cfa50d23572dd2fde58930219caf484368e045611b1760208401846145d8565b611b276040850160208601613dda565b611b376060860160408701613dda565b611b476080870160608801613dda565b611b5760a0880160808901613ffc565b611b6760c0890160a08a01614698565b60c089013560e08a01356101008b0135611b896101408d016101208e016146c2565b604051602001611ba39b9a999897969594939291906146fa565b60408051601f19818403018152919052805160209091012092915050565b600080611bcc61218e565b60020154600160a01b900460ff1692915050565b6000807f237e158222e3e6968b72b9db0d8043aacf074ad9f650f0d1606b4d82ee432c006112ed565b6000611c1361218e565b60008381526005820160205260409020549091506001600160a01b031680611c4e5760405163d36d896560e01b815260040160405180910390fd5b6001600160a01b0381163314611c77576040516371ced2cf60e11b815260040160405180910390fd5b6040516001600160a01b0382169084907f4f45a3bbce2de4ee8d69d6bf7dd2455dc927f1d1a50725b7292e0bf5aa06d8ab90600090a3505050565b611cba6120b9565b6001600160a01b038116611ce15760405163d92e233d60e01b815260040160405180910390fd5b6000611ceb61218e565b80546001600160a01b0319166001600160a01b0384169081178255604051919250907f3c864541ef71378c6229510ed90f376565ee42d9c5e0904a984a9e863e6db44f90600090a25050565b611d3f6120b9565b7f237e158222e3e6968b72b9db0d8043aacf074ad9f650f0d1606b4d82ee432c0080546001600160a01b0319166001600160a01b0383169081178255611d83611648565b6001600160a01b03167f38d16b8cac22d99fc7c124b9cd0de2d3fa1faef420bfe791d8c362d765e2270060405160405180910390a35050565b60405163d505accf60e01b81526001600160a01b038781166004830152306024830152604482018790526064820186905260ff8516608483015260a4820184905260c4820183905288169063d505accf9060e401600060405180830381600087803b158015611e2a57600080fd5b505af1158015611e3e573d6000803e3d6000fd5b5050505050505050505050565b7ff0c57e16840df040f15088dc2f81fe391c3923bec73e23a9662efc9c229c6a008054600160401b810460ff1615906001600160401b0316600081158015611e905750825b90506000826001600160401b03166001148015611eac5750303b155b905081158015611eba575080155b15611ed85760405163f92ee8a960e01b815260040160405180910390fd5b845467ffffffffffffffff191660011785558315611f0257845460ff60401b1916600160401b1785555b611f0b8961309a565b611f546040518060400160405280600e81526020016d27b93232b9283937b1b2b9b9b7b960911b815250604051806040016040528060018152602001603160f81b8152506130ab565b611f5c6130bd565b6001600160a01b038816611f835760405163d92e233d60e01b815260040160405180910390fd5b6001600160a01b038716611faa5760405163d92e233d60e01b815260040160405180910390fd5b6001600160a01b038616611fd15760405163d92e233d60e01b815260040160405180910390fd5b6000611fdb61218e565b80546001600160a01b03808c166001600160a01b03199283161783556001830180548c831690841617905560029092018054928a1692909116919091179055508315610fd657845460ff60401b19168555604051600181527fc7f505b2f371ae2175ee4913f4499e1f2633a7b5936321eed1cdaeb6115181d29060200160405180910390a1505050505050505050565b60008061207661218e565b600101546001600160a01b031692915050565b60008061209461218e565b6001600160a01b03909316600090815260069093016020525050604090205460ff1690565b336120c2611648565b6001600160a01b0316146114cb5760405163118cdaa760e01b8152336004820152602401610d44565b620f424062ffffff82161061151257604051637e2df70960e11b815260040160405180910390fd5b6040516001600160a01b038316602482015260009061217390839060440160408051601f198184030181529190526020810180516001600160e01b03166001600160e01b0319909316929092179091526001600160a01b038616906130c5565b8060200190518101906121869190614779565b949350505050565b7f8036d9ca2814a3bcd78d3e8aba96b71e7697006bd322a98e7f5f0f41b09a8b0090565b600060128360ff1611156121d957604051633c9c1e2d60e01b815260040160405180910390fd5b816001600160401b03166000036121f2575060006114b3565b600860ff841611156122315761220c600860ff8516614796565b61221790600a6148a1565b61222a906001600160401b0384166148b6565b90506114b3565b600860ff841610156122695761224b60ff84166008614796565b61225690600a6148a1565b61222a906001600160401b0384166148e3565b506001600160401b0316919050565b60008262ffffff1660000361228e576000610dc7565b610dc78262ffffff8516620f424061311d565b6000610dd86131f1565b60006122b561218e565b6001600160a01b038316600090815260038201602052604090205490915060ff1661124257604051631f0853c160e21b815260040160405180910390fd5b6040516001600160a01b03848116602483015283811660448301526064820183905261235a9186918216906323b872dd906084015b604051602081830303815290604052915060e01b6020820180516001600160e01b038381831617835250505050613265565b50505050565b6040516001600160a01b0383811660248301526044820183905261239191859182169063a9059cbb90606401612328565b505050565b6001600160a01b0384166123b06040850160208601613dda565b6001600160a01b0316146123d7576040516371ced2cf60e11b815260040160405180910390fd5b426123e860a08501608086016145d8565b6001600160401b031610156124105760405163df4cc36d60e01b815260040160405180910390fd5b600061245d61242161170486611a30565b84848080601f016020809104026020016040519081016040528093929190818152602001838380828437600092019190915250612fd292505050565b9050612468816122ab565b5050505050565b6000806124826040860160208701613dda565b6001600160a01b0316036124a95760405163d92e233d60e01b815260040160405180910390fd5b60006124bb60a0860160808701613ffc565b6124c9578460e001356124cf565b8460c001355b9050806000036124f257604051637c946ed760e01b815260040160405180910390fd5b600161250460c0870160a08801614698565b600181111561251557612515613f4c565b1480156125255750610100850135155b1561254357604051630d7eec7360e21b815260040160405180910390fd5b600061254d61218e565b905061255886611ae7565b925060008084815260048301602052604090205460ff16600381111561258057612580613f4c565b1461259e57604051633046a0f560e11b815260040160405180910390fd5b60028101546001600160a01b03166325f28f166125c16060890160408a01613dda565b6040516001600160e01b031960e084901b1681526001600160a01b039091166004820152602401602060405180830381865afa158015612605573d6000803e3d6000fd5b505050506040513d601f19601f820116820180604052508101906126299190614779565b6126625761263d6060870160408801613dda565b604051635f8b555b60e11b81526001600160a01b039091166004820152602401610d44565b6000600782018161267960808a0160608b01613dda565b6001600160a01b031681526020808201929092526040908101600020815160e08082018452915460ff808216151580845261010083049091169583019590955262010000810490921b6001600160e01b03191692810192909252600160301b81046001600160401b039081166060840152600160701b820462ffffff9081166080850152600160881b830490911660a0840152600160c81b9091041660c082015291506127305761263d6080880160608901613dda565b61274060a0880160808901613ffc565b8061276b5750600161275860c0890160a08a01614698565b600181111561276957612769613f4c565b145b156127f7576000600683018161278760608b0160408c01613dda565b6001600160a01b0316815260208101919091526040016000205460ff16905080158015906127d757506127bb6001826148f7565b6127c690600a614910565b6127d49060c08a013561491f565b15155b156127f55760405163aa8828e760e01b815260040160405180910390fd5b505b61282561280a6060890160408a01613dda565b61281a60808a0160608b01613dda565b8360400151896132c8565b6001600160a01b03861661283f6040890160208a01613dda565b6001600160a01b03161461288b5761288b6128606060890160408a01613dda565b61287060808a0160608b01613dda565b60408085015190612886908c0160208d01613dda565b6132c8565b604080516080810182526001600160a01b03888116825260208083018781528385018a81526000606086018181528b825260058a018552878220965187546001600160a01b03191696169590951786559151600180870191909155905160028601559251600390940193909355600486019052919020805460ff191682800217905550856001600160a01b0316847f3b7ebb563e299d7dc7724ac9ed06c49e897512c20fcf670581d2cbc9a0510171898860405161294a929190614933565b60405180910390a361296260a0880160808901613ffc565b156129e3576129776060880160408901613dda565b60405163079cc67960e41b81526001600160a01b03888116600483015260c08a0135602483015291909116906379cc679090604401600060405180830381600087803b1580156129c657600080fd5b505af11580156129da573d6000803e3d6000fd5b50505050612a22565b6001820154612a0c9087906001600160a01b031660e08a0135610f9a60808c0160608d01613dda565b612a22863087610f9a60808c0160608d01613dda565b5050509392505050565b81811115612a4d57604051630625040160e01b815260040160405180910390fd5b6001612a5f60c0870160a08801614698565b6001811115612a7057612a70613f4c565b148015612a8a5750612a8783866101000135613375565b82105b15612aa857604051637d18445b60e01b815260040160405180910390fd5b612aba8685600001518786868661342b565b612ac6868585846135dc565b50612add333084610f9a60808a0160608b01613dda565b6000612ae98284614639565b9050801561121e5761121e612b046040880160208901613dda565b82610fc660808a0160608b01613dda565b6000612b1f61218e565b90508460400151821115612b4657604051630625040160e01b815260040160405180910390fd5b6001612b5860c0880160a08901614698565b6001811115612b6957612b69613f4c565b148015612b8c5750612b8983670de0b6b3a764000088610100013561311d565b84105b15612baa57604051630650e54560e41b815260040160405180910390fd5b612bbc8786600001518887878761342b565b6000612bca888786866135dc565b90506000838760400151612bde9190614639565b90508115612c08578015612c03578651612c039082610fc660808c0160608d01613dda565b612c1f565b600089815260058401602052604090206002018190555b612c2f6060890160408a01613dda565b6001600160a01b03166340c10f19612c4d60408b0160208c01613dda565b6040516001600160e01b031960e084901b1681526001600160a01b03909116600482015260248101899052604401600060405180830381600087803b158015612c9557600080fd5b505af1158015612ca9573d6000803e3d6000fd5b50505050505050505050505050565b306001600160a01b037f0000000000000000000000000000000000000000000000000000000000000000161480612d3f57507f00000000000000000000000000000000000000000000000000000000000000006001600160a01b0316612d33600080516020614bb0833981519152546001600160a01b031690565b6001600160a01b031614155b156114cb5760405163703e46dd60e11b815260040160405180910390fd5b6115126120b9565b816001600160a01b03166352d1902d6040518163ffffffff1660e01b8152600401602060405180830381865afa925050508015612dbf575060408051601f3d908101601f19168201909252612dbc91810190614a17565b60015b612de757604051634c9c8ce360e01b81526001600160a01b0383166004820152602401610d44565b600080516020614bb08339815191528114612e1857604051632a87526960e21b815260048101829052602401610d44565b61239183836136d5565b306001600160a01b037f000000000000000000000000000000000000000000000000000000000000000016146114cb5760405163703e46dd60e11b815260040160405180910390fd5b7f237e158222e3e6968b72b9db0d8043aacf074ad9f650f0d1606b4d82ee432c0080546001600160a01b03191681556112428261372b565b7fa16a46d94261c7517cc8ff89f61c0ce93598e3c849801011dee649a6a557d1028054606091600080516020614b9083398151915291612ee290614a30565b80601f0160208091040260200160405190810160405280929190818152602001828054612f0e90614a30565b8015612f5b5780601f10612f3057610100808354040283529160200191612f5b565b820191906000526020600020905b815481529060010190602001808311612f3e57829003601f168201915b505050505091505090565b7fa16a46d94261c7517cc8ff89f61c0ce93598e3c849801011dee649a6a557d1038054606091600080516020614b9083398151915291612ee290614a30565b60006114b3612fb26122a1565b8360405161190160f01b8152600281019290925260228201526042902090565b600080600080612fe2868661379c565b925092509250612ff282826137e9565b5090949350505050565b6040516bffffffffffffffffffffffff19606084811b8216602084015283901b16603482015260009060480161149a565b6060600080846001600160a01b03168460405161304a9190614a64565b600060405180830381855af49150503d8060008114613085576040519150601f19603f3d011682016040523d82523d6000602084013e61308a565b606091505b50915091506115708583836138a2565b6130a26138fe565b61151281613947565b6130b36138fe565b6112428282613979565b6114cb6138fe565b6060600080846001600160a01b0316846040516130e29190614a64565b600060405180830381855afa9150503d8060008114613085576040519150601f19603f3d011682016040523d82523d6000602084013e61308a565b60008080600019858709858702925082811083820303915050806000036131575783828161314d5761314d6148cd565b0492505050610dc7565b83811061318857604051630c740aef60e31b8152600481018790526024810186905260448101859052606401610d44565b60008486880960026001871981018816978890046003810283188082028403028082028403028082028403028082028403028082028403029081029092039091026000889003889004909101858311909403939093029303949094049190911702949350505050565b60007f8b73c3c69bb8fe3d512ecc4cf759cc79239f7b179b0ffacaa9a75d522b39400f61321c6139da565b613224613a44565b60408051602081019490945283019190915260608201524660808201523060a082015260c00160405160208183030381529060405280519060200120905090565b600061327a6001600160a01b03841683613a88565b9050805160001415801561329f57508080602001905181019061329d9190614779565b155b1561239157604051635274afe760e01b81526001600160a01b0384166004820152602401610d44565b60405163fe575a8760e01b81526001600160a01b03828116600483015285169063fe575a8790602401602060405180830381865afa15801561330e573d6000803e3d6000fd5b505050506040513d601f19601f820116820180604052508101906133329190614779565b8061335757506001600160e01b03198216158015906133575750613357838284612113565b1561235a5760405163c95b482560e01b815260040160405180910390fd5b60008080600019848609848602925082811083820303915050806000036133a95750670de0b6b3a7640000900490506114b3565b670de0b6b3a764000081106133db57604051635173648d60e01b81526004810186905260248101859052604401610d44565b6000670de0b6b3a764000085870962040000818503049310909103600160ee1b02919091177faccb18165bd6fe31ae1cf318dc5b51eee0e1ba569b88cd74c1773b91fac106690291505092915050565b600061343561218e565b9050600061346161344c6060880160408901613dda565b61345c6080890160608a01613dda565b612ffc565b6040805180820190915290915080600161348160c08a0160a08b01614698565b600181111561349257613492613f4c565b146134de576134d987876007870160006134b260808e0160608f01613dda565b6001600160a01b03168152602081019190915260400160002054610100900460ff16613a96565b6134e5565b8761010001355b8152426001600160401b0390811660209283015260008481526008860183526040908190208451815593909201516001909301805467ffffffffffffffff191693909116929092179091556135409060608801908801613dda565b6001600160a01b03166135596080880160608901613dda565b6001600160a01b0316897f7e3461df4807dfaae05cd79c65566b5582129e82ad7183be9e6040e2146dc6038a8989898d608001602081019061359b9190613ffc565b604080516001600160a01b03909616865260208601949094529284019190915260608301521515608082015260a00160405180910390a45050505050505050565b6000806135e761218e565b905060008486602001516135fb9190614639565b80159350905082156136905760008781526004830160209081526040808320805460ff191660029081179091556005860190925280832080546001600160a01b0319168155600181018490559182018390556003909101829055875190516001600160a01b039091169189917fe5f48e2a4a303d196ad814389aa54cf34e7b1e404e740599d005907a2ca0cd6c9190a36136cb565b6000878152600583016020526040902060010181905560608601516136b6908590614596565b60008881526005840160205260409020600301555b5050949350505050565b6136de82613ad6565b6040516001600160a01b038316907fbc7cd75a20ee27fd9adebab32041f755214dbc6bffa90cc0225b39da2e5c2d3b90600090a280511561372357612391828261302d565b611242613b3b565b7f9016d09d72d40fdae2fd8ceac6b6234c7706214fd39c1cd1e609a0528c19930080546001600160a01b031981166001600160a01b03848116918217845560405192169182907f8be0079c531659141344cd1fd0a4f28419497f9722a3daafe3b4186f6b6457e090600090a3505050565b600080600083516041036137d65760208401516040850151606086015160001a6137c888828585613b5a565b9550955095505050506137e2565b50508151600091506002905b9250925092565b60008260038111156137fd576137fd613f4c565b03613806575050565b600182600381111561381a5761381a613f4c565b036138385760405163f645eedf60e01b815260040160405180910390fd5b600282600381111561384c5761384c613f4c565b0361386d5760405163fce698f760e01b815260048101829052602401610d44565b600382600381111561388157613881613f4c565b03611242576040516335e2f38360e21b815260048101829052602401610d44565b6060826138b7576138b282613c29565b610dc7565b81511580156138ce57506001600160a01b0384163b155b156138f757604051639996b31560e01b81526001600160a01b0385166004820152602401610d44565b5080610dc7565b7ff0c57e16840df040f15088dc2f81fe391c3923bec73e23a9662efc9c229c6a0054600160401b900460ff166114cb57604051631afcd79f60e31b815260040160405180910390fd5b61394f6138fe565b6001600160a01b03811661150957604051631e4fbdf760e01b815260006004820152602401610d44565b6139816138fe565b600080516020614b908339815191527fa16a46d94261c7517cc8ff89f61c0ce93598e3c849801011dee649a6a557d1026139bb8482614ad0565b50600381016139ca8382614ad0565b5060008082556001909101555050565b6000600080516020614b90833981519152816139f4612ea3565b805190915015613a0c57805160209091012092915050565b81548015613a1b579392505050565b7fc5d2460186f7233c927e7db2dcc703c0e500b653ca82273b7bfad8045d85a470935050505090565b6000600080516020614b9083398151915281613a5e612f66565b805190915015613a7657805160209091012092915050565b60018201548015613a1b579392505050565b6060610dc783836000613c52565b600080613aa48360126148f7565b613aaf90600a614910565b9050613abc848287613ce5565b15613acb576000915050610dc7565b61157084828761311d565b806001600160a01b03163b600003613b0c57604051634c9c8ce360e01b81526001600160a01b0382166004820152602401610d44565b600080516020614bb083398151915280546001600160a01b0319166001600160a01b0392909216919091179055565b34156114cb5760405163b398979f60e01b815260040160405180910390fd5b600080807f7fffffffffffffffffffffffffffffff5d576e7357a4501ddfe92f46681b20a0841115613b955750600091506003905082613c1f565b604080516000808252602082018084528a905260ff891692820192909252606081018790526080810186905260019060a0016020604051602081039080840390855afa158015613be9573d6000803e3d6000fd5b5050604051601f1901519150506001600160a01b038116613c1557506000925060019150829050613c1f565b9250600091508190505b9450945094915050565b805115613c395780518082602001fd5b604051630a12f52160e11b815260040160405180910390fd5b606081471015613c775760405163cd78605960e01b8152306004820152602401610d44565b600080856001600160a01b03168486604051613c939190614a64565b60006040518083038185875af1925050503d8060008114613cd0576040519150601f19603f3d011682016040523d82523d6000602084013e613cd5565b606091505b5091509150610dc28683836138a2565b60008080600019858709868602808210910303841115925050509392505050565b6001600160a01b038116811461151257600080fd5b8035613d2681613d06565b919050565b80356001600160401b0381168114613d2657600080fd5b803562ffffff81168114613d2657600080fd5b60008060008060008060c08789031215613d6e57600080fd5b8635613d7981613d06565b955060208701356001600160e01b031981168114613d9657600080fd5b9450613da460408801613d2b565b9350613db260608801613d42565b9250613dc060808801613d2b565b9150613dce60a08801613d42565b90509295509295509295565b600060208284031215613dec57600080fd5b8135610dc781613d06565b801515811461151257600080fd5b8035613d2681613df7565b60008060408385031215613e2357600080fd5b8235613e2e81613df7565b91506020830135613e3e81613d06565b809150509250929050565b600080600060608486031215613e5e57600080fd5b8335613e6981613df7565b92506020840135613e7981613d06565b929592945050506040919091013590565b6000610140828403121561194357600080fd5b60008083601f840112613eaf57600080fd5b5081356001600160401b03811115613ec657600080fd5b602083019150836020828501011115610d9357600080fd5b60008060006101608486031215613ef457600080fd5b613efe8585613e8a565b92506101408401356001600160401b03811115613f1a57600080fd5b613f2686828701613e9d565b9497909650939450505050565b600060208284031215613f4557600080fd5b5035919050565b634e487b7160e01b600052602160045260246000fd5b6004811061151257611512613f4c565b60208101613f7f83613f62565b91905290565b600060a0828403121561194357600080fd5b6000806000806102008587031215613fae57600080fd5b613fb88686613e8a565b9350613fc8866101408701613f85565b92506101e08501356001600160401b03811115613fe457600080fd5b613ff087828801613e9d565b95989497509550505050565b60006020828403121561400e57600080fd5b8135610dc781613df7565b6000806000806101a0858703121561403057600080fd5b61403a8686613e8a565b966101408601359650610160860135956101800135945092505050565b634e487b7160e01b600052604160045260246000fd5b6000806040838503121561408057600080fd5b823561408b81613d06565b915060208301356001600160401b03808211156140a757600080fd5b818501915085601f8301126140bb57600080fd5b8135818111156140cd576140cd614057565b604051601f8201601f19908116603f011681019083821181831017156140f5576140f5614057565b8160405282815288602084870101111561410e57600080fd5b8260208601602083013760006020848301015280955050505050509250929050565b6000806040838503121561414357600080fd5b823561414e81613d06565b91506020830135613e3e81613df7565b60ff8116811461151257600080fd5b6000806040838503121561418057600080fd5b823561418b81613d06565b91506020830135613e3e8161415e565b60008061016083850312156141af57600080fd5b6141b98484613e8a565b91506141c86101408401613d2b565b90509250929050565b600080604083850312156141e457600080fd5b8235613e2e81613d06565b60005b8381101561420a5781810151838201526020016141f2565b50506000910152565b6000815180845261422b8160208601602086016141ef565b601f01601f19169290920160200192915050565b60ff60f81b881681526000602060e0602084015261426060e084018a614213565b8381036040850152614272818a614213565b606085018990526001600160a01b038816608086015260a0850187905284810360c08601528551808252602080880193509091019060005b818110156142c6578351835292840192918401916001016142aa565b50909c9b505050505050505050505050565b600080600080600061022086880312156142f157600080fd5b6142fb8787613e8a565b94506101408601356001600160401b038082111561431857600080fd5b908701906040828a03121561432c57600080fd5b81955061433d896101608a01613f85565b945061020088013591508082111561435457600080fd5b5061436188828901613e9d565b969995985093965092949392505050565b6000610140828403121561438557600080fd5b610dc78383613e8a565b600080602083850312156143a257600080fd5b82356001600160401b03808211156143b957600080fd5b818501915085601f8301126143cd57600080fd5b8135818111156143dc57600080fd5b8660208260051b85010111156143f157600080fd5b60209290920196919550909350505050565b600060208083016020845280855180835260408601915060408160051b87010192506020870160005b8281101561445a57603f19888603018452614448858351614213565b9450928501929085019060010161442c565b5092979650505050505050565b602081526000610dc76020830184614213565b600060a0828403121561448c57600080fd5b610dc78383613f85565b600080600080600080600060e0888a0312156144b157600080fd5b87356144bc81613d06565b965060208801356144cc81613d06565b9550604088013594506060880135935060808801356144ea8161415e565b9699959850939692959460a0840135945060c09093013592915050565b6000806000806080858703121561451d57600080fd5b843561452881613d06565b9350602085013561453881613d06565b9250604085013561454881613d06565b9150606085013561455881613d06565b939692955090935050565b60006020828403121561457557600080fd5b8151610dc78161415e565b634e487b7160e01b600052601160045260246000fd5b808201808211156114b3576114b3614580565b60208152816020820152818360408301376000818301604090810191909152601f909201601f19160101919050565b6000602082840312156145ea57600080fd5b610dc782613d2b565b6000808335601e1984360301811261460a57600080fd5b8301803591506001600160401b0382111561462457600080fd5b602001915036819003821315610d9357600080fd5b818103818111156114b3576114b3614580565b634e487b7160e01b600052603260045260246000fd5b82848237600083820160008152835161467f8183602088016141ef565b0195945050505050565b803560028110613d2657600080fd5b6000602082840312156146aa57600080fd5b610dc782614689565b803560048110613d2657600080fd5b6000602082840312156146d457600080fd5b610dc7826146b3565b600281106146ed576146ed613f4c565b9052565b6146ed81613f62565b8b81526001600160401b038b1660208201526001600160a01b038a8116604083015289811660608301528816608082015286151560a0820152610160810161474560c08301886146dd565b8560e0830152846101008301528361012083015261476283613f62565b826101408301529c9b505050505050505050505050565b60006020828403121561478b57600080fd5b8151610dc781613df7565b6001600160401b038281168282160390808211156147b6576147b6614580565b5092915050565b600181815b808511156147f85781600019048211156147de576147de614580565b808516156147eb57918102915b93841c93908002906147c2565b509250929050565b60008261480f575060016114b3565b8161481c575060006114b3565b8160018114614832576002811461483c57614858565b60019150506114b3565b60ff84111561484d5761484d614580565b50506001821b6114b3565b5060208310610133831016604e8410600b841016171561487b575081810a6114b3565b61488583836147bd565b806000190482111561489957614899614580565b029392505050565b6000610dc76001600160401b03841683614800565b80820281158282048414176114b3576114b3614580565b634e487b7160e01b600052601260045260246000fd5b6000826148f2576148f26148cd565b500490565b60ff82811682821603908111156114b3576114b3614580565b6000610dc760ff841683614800565b60008261492e5761492e6148cd565b500690565b61016081016149528261494586613d2b565b6001600160401b03169052565b61495e60208501613d1b565b6001600160a01b0316602083015261497860408501613d1b565b6001600160a01b0316604083015261499260608501613d1b565b6001600160a01b031660608301526149ac60808501613e05565b151560808301526149bf60a08501614689565b6149cc60a08401826146dd565b5060c084013560c083015260e084013560e08301526101008085013581840152506101206149fb8186016146b3565b614a07828501826146f1565b5050826101408301529392505050565b600060208284031215614a2957600080fd5b5051919050565b600181811c90821680614a4457607f821691505b60208210810361194357634e487b7160e01b600052602260045260246000fd5b60008251614a768184602087016141ef565b9190910192915050565b601f821115612391576000816000526020600020601f850160051c81016020861015614aa95750805b601f850160051c820191505b81811015614ac857828155600101614ab5565b505050505050565b81516001600160401b03811115614ae957614ae9614057565b614afd81614af78454614a30565b84614a80565b602080601f831160018114614b325760008415614b1a5750858301515b600019600386901b1c1916600185901b178555614ac8565b600085815260208120601f198616915b82811015614b6157888601518255948401946001909101908401614b42565b5085821015614b7f5787850151600019600388901b60f8161c191681555b5050505050600190811b0190555056fea16a46d94261c7517cc8ff89f61c0ce93598e3c849801011dee649a6a557d100360894a13ba1a3210667c828492db98dca3e2076cc3735a920a3ca505d382bbca26469706673582212206ee39c6afa42b0d32f4b773ed9655ce2d3ca0b44a80fc88e08f47142d696a58964736f6c63430008190033",
    "linkReferences": {}
  },
  "methodIdentifiers": {
    "DOMAIN_SEPARATOR()": "3644e515",
    "UPGRADE_INTERFACE_VERSION()": "ad3cb1cc",
    "acceptOwnership()": "79ba5097",
    "cancelOrder((uint64,address,address,address,bool,uint8,uint256,uint256,uint256,uint8),string)": "394a4c5c",
    "createOrder((uint64,address,address,address,bool,uint8,uint256,uint256,uint256,uint8),(uint256,address,uint256,uint64,uint64),bytes)": "464bbe26",
    "createOrderStandardFees((uint64,address,address,address,bool,uint8,uint256,uint256,uint256,uint8))": "aa2165f1",
    "createOrderWithSignature((uint64,address,address,address,bool,uint8,uint256,uint256,uint256,uint8),(uint64,bytes),(uint256,address,uint256,uint64,uint64),bytes)": "901b7e43",
    "dShareFactory()": "a70c5633",
    "eip712Domain()": "84b0196e",
    "fillOrder((uint64,address,address,address,bool,uint8,uint256,uint256,uint256,uint8),uint256,uint256,uint256)": "4bf79b4c",
    "getFeesEscrowed(uint256)": "904adece",
    "getFeesTaken(uint256)": "69352a90",
    "getOrderStatus(uint256)": "45fa8aae",
    "getPaymentTokenConfig(address)": "15984f11",
    "getStandardFees(bool,address)": "236970d4",
    "getUnfilledAmount(uint256)": "81fed708",
    "hashFeeQuote((uint256,address,uint256,uint64,uint64))": "b0eb27f8",
    "hashOrder((uint64,address,address,address,bool,uint8,uint256,uint256,uint256,uint8))": "d386e166",
    "hashOrderRequest((uint64,address,address,address,bool,uint8,uint256,uint256,uint256,uint8),uint64)": "6ecebc36",
    "initialize(address,address,address,address)": "f8c8765e",
    "isOperator(address)": "6d70f7ae",
    "isTransferLocked(address,address)": "81385480",
    "latestFillPrice(address,address)": "a377cfbf",
    "multicall(bytes[])": "ac9650d8",
    "orderDecimalReduction(address)": "fc75f9ed",
    "ordersPaused()": "d87f8ee1",
    "owner()": "8da5cb5b",
    "pendingOwner()": "e30c3978",
    "proxiableUUID()": "52d1902d",
    "removePaymentToken(address)": "a5125421",
    "renounceOwnership()": "715018a6",
    "requestCancel(uint256)": "e683a2d4",
    "selfPermit(address,address,uint256,uint256,uint8,bytes32,bytes32)": "f64f67de",
    "setOperator(address,bool)": "558a7297",
    "setOrderDecimalReduction(address,uint8)": "68bad2cf",
    "setOrdersPaused(bool)": "4b5e6890",
    "setPaymentToken(address,bytes4,uint64,uint24,uint64,uint24)": "01a7cdb3",
    "setTreasury(address)": "f0f44260",
    "setVault(address)": "6817031b",
    "totalStandardFee(bool,address,uint256)": "23a3c10d",
    "transferOwnership(address)": "f2fde38b",
    "treasury()": "61d027b3",
    "upgradeToAndCall(address,bytes)": "4f1ef286",
    "vault()": "fbfa77cf"
  },
  "id": 18
}