{"abi":[{"type":"constructor","inputs":[],"stateMutability":"nonpayable"},{"type":"function","name":"DOMAIN_SEPARATOR","inputs":[],"outputs":[{"name":"","type":"bytes32","internalType":"bytes32"}],"stateMutability":"view"},{"type":"function","name":"UPGRADE_INTERFACE_VERSION","inputs":[],"outputs":[{"name":"","type":"string","internalType":"string"}],"stateMutability":"view"},{"type":"function","name":"acceptOwnership","inputs":[],"outputs":[],"stateMutability":"nonpayable"},{"type":"function","name":"cancelOrder","inputs":[{"name":"order","type":"tuple","internalType":"struct IOrderProcessor.Order","components":[{"name":"requestTimestamp","type":"uint64","internalType":"uint64"},{"name":"recipient","type":"address","internalType":"address"},{"name":"assetToken","type":"address","internalType":"address"},{"name":"paymentToken","type":"address","internalType":"address"},{"name":"sell","type":"bool","internalType":"bool"},{"name":"orderType","type":"uint8","internalType":"enum IOrderProcessor.OrderType"},{"name":"assetTokenQuantity","type":"uint256","internalType":"uint256"},{"name":"paymentTokenQuantity","type":"uint256","internalType":"uint256"},{"name":"price","type":"uint256","internalType":"uint256"},{"name":"tif","type":"uint8","internalType":"enum IOrderProcessor.TIF"}]},{"name":"reason","type":"string","internalType":"string"}],"outputs":[],"stateMutability":"nonpayable"},{"type":"function","name":"createOrder","inputs":[{"name":"order","type":"tuple","internalType":"struct IOrderProcessor.Order","components":[{"name":"requestTimestamp","type":"uint64","internalType":"uint64"},{"name":"recipient","type":"address","internalType":"address"},{"name":"assetToken","type":"address","internalType":"address"},{"name":"paymentToken","type":"address","internalType":"address"},{"name":"sell","type":"bool","internalType":"bool"},{"name":"orderType","type":"uint8","internalType":"enum IOrderProcessor.OrderType"},{"name":"assetTokenQuantity","type":"uint256","internalType":"uint256"},{"name":"paymentTokenQuantity","type":"uint256","internalType":"uint256"},{"name":"price","type":"uint256","internalType":"uint256"},{"name":"tif","type":"uint8","internalType":"enum IOrderProcessor.TIF"}]},{"name":"feeQuote","type":"tuple","internalType":"struct IOrderProcessor.FeeQuote","components":[{"name":"orderId","type":"uint256","internalType":"uint256"},{"name":"requester","type":"address","internalType":"address"},{"name":"fee","type":"uint256","internalType":"uint256"},{"name":"timestamp","type":"uint64","internalType":"uint64"},{"name":"deadline","type":"uint64","internalType":"uint64"}]},{"name":"feeQuoteSignature","type":"bytes","internalType":"bytes"}],"outputs":[{"name":"id","type":"uint256","internalType":"uint256"}],"stateMutability":"nonpayable"},{"type":"function","name":"createOrderStandardFees","inputs":[{"name":"order","type":"tuple","internalType":"struct IOrderProcessor.Order","components":[{"name":"requestTimestamp","type":"uint64","internalType":"uint64"},{"name":"recipient","type":"address","internalType":"address"},{"name":"assetToken","type":"address","internalType":"address"},{"name":"paymentToken","type":"address","internalType":"address"},{"name":"sell","type":"bool","internalType":"bool"},{"name":"orderType","type":"uint8","internalType":"enum IOrderProcessor.OrderType"},{"name":"assetTokenQuantity","type":"uint256","internalType":"uint256"},{"name":"paymentTokenQuantity","type":"uint256","internalType":"uint256"},{"name":"price","type":"uint256","internalType":"uint256"},{"name":"tif","type":"uint8","internalType":"enum IOrderProcessor.TIF"}]}],"outputs":[{"name":"id","type":"uint256","internalType":"uint256"}],"stateMutability":"nonpayable"},{"type":"function","name":"createOrderWithSignature","inputs":[{"name":"order","type":"tuple","internalType":"struct IOrderProcessor.Order","components":[{"name":"requestTimestamp","type":"uint64","internalType":"uint64"},{"name":"recipient","type":"address","internalType":"address"},{"name":"assetToken","type":"address","internalType":"address"},{"name":"paymentToken","type":"address","internalType":"address"},{"name":"sell","type":"bool","internalType":"bool"},{"name":"orderType","type":"uint8","internalType":"enum IOrderProcessor.OrderType"},{"name":"assetTokenQuantity","type":"uint256","internalType":"uint256"},{"name":"paymentTokenQuantity","type":"uint256","internalType":"uint256"},{"name":"price","type":"uint256","internalType":"uint256"},{"name":"tif","type":"uint8","internalType":"enum IOrderProcessor.TIF"}]},{"name":"orderSignature","type":"tuple","internalType":"struct IOrderProcessor.Signature","components":[{"name":"deadline","type":"uint64","internalType":"uint64"},{"name":"signature","type":"bytes","internalType":"bytes"}]},{"name":"feeQuote","type":"tuple","internalType":"struct IOrderProcessor.FeeQuote","components":[{"name":"orderId","type":"uint256","internalType":"uint256"},{"name":"requester","type":"address","internalType":"address"},{"name":"fee","type":"uint256","internalType":"uint256"},{"name":"timestamp","type":"uint64","internalType":"uint64"},{"name":"deadline","type":"uint64","internalType":"uint64"}]},{"name":"feeQuoteSignature","type":"bytes","internalType":"bytes"}],"outputs":[{"name":"id","type":"uint256","internalType":"uint256"}],"stateMutability":"nonpayable"},{"type":"function","name":"dShareFactory","inputs":[],"outputs":[{"name":"","type":"address","internalType":"contract IDShareFactory"}],"stateMutability":"view"},{"type":"function","name":"eip712Domain","inputs":[],"outputs":[{"name":"fields","type":"bytes1","internalType":"bytes1"},{"name":"name","type":"string","internalType":"string"},{"name":"version","type":"string","internalType":"string"},{"name":"chainId","type":"uint256","internalType":"uint256"},{"name":"verifyingContract","type":"address","internalType":"address"},{"name":"salt","type":"bytes32","internalType":"bytes32"},{"name":"extensions","type":"uint256[]","internalType":"uint256[]"}],"stateMutability":"view"},{"type":"function","name":"fillOrder","inputs":[{"name":"order","type":"tuple","internalType":"struct IOrderProcessor.Order","components":[{"name":"requestTimestamp","type":"uint64","internalType":"uint64"},{"name":"recipient","type":"address","internalType":"address"},{"name":"assetToken","type":"address","internalType":"address"},{"name":"paymentToken","type":"address","internalType":"address"},{"name":"sell","type":"bool","internalType":"bool"},{"name":"orderType","type":"uint8","internalType":"enum IOrderProcessor.OrderType"},{"name":"assetTokenQuantity","type":"uint256","internalType":"uint256"},{"name":"paymentTokenQuantity","type":"uint256","internalType":"uint256"},{"name":"price","type":"uint256","internalType":"uint256"},{"name":"tif","type":"uint8","internalType":"enum IOrderProcessor.TIF"}]},{"name":"fillAmount","type":"uint256","internalType":"uint256"},{"name":"receivedAmount","type":"uint256","internalType":"uint256"},{"name":"fees","type":"uint256","internalType":"uint256"}],"outputs":[],"stateMutability":"nonpayable"},{"type":"function","name":"getFeesEscrowed","inputs":[{"name":"id","type":"uint256","internalType":"uint256"}],"outputs":[{"name":"","type":"uint256","internalType":"uint256"}],"stateMutability":"view"},{"type":"function","name":"getFeesTaken","inputs":[{"name":"id","type":"uint256","internalType":"uint256"}],"outputs":[{"name":"","type":"uint256","internalType":"uint256"}],"stateMutability":"view"},{"type":"function","name":"getOrderStatus","inputs":[{"name":"id","type":"uint256","internalType":"uint256"}],"outputs":[{"name":"","type":"uint8","internalType":"enum IOrderProcessor.OrderStatus"}],"stateMutability":"view"},{"type":"function","name":"getPaymentTokenConfig","inputs":[{"name":"paymentToken","type":"address","internalType":"address"}],"outputs":[{"name":"","type":"tuple","internalType":"struct OrderProcessor.PaymentTokenConfig","components":[{"name":"enabled","type":"bool","internalType":"bool"},{"name":"decimals","type":"uint8","internalType":"uint8"},{"name":"blacklistCallSelector","type":"bytes4","internalType":"bytes4"},{"name":"perOrderFeeBuy","type":"uint64","internalType":"uint64"},{"name":"percentageFeeRateBuy","type":"uint24","internalType":"uint24"},{"name":"perOrderFeeSell","type":"uint64","internalType":"uint64"},{"name":"percentageFeeRateSell","type":"uint24","internalType":"uint24"}]}],"stateMutability":"view"},{"type":"function","name":"getReceivedAmount","inputs":[{"name":"id","type":"uint256","internalType":"uint256"}],"outputs":[{"name":"","type":"uint256","internalType":"uint256"}],"stateMutability":"view"},{"type":"function","name":"getStandardFees","inputs":[{"name":"sell","type":"bool","internalType":"bool"},{"name":"paymentToken","type":"address","internalType":"address"}],"outputs":[{"name":"","type":"uint256","internalType":"uint256"},{"name":"","type":"uint24","internalType":"uint24"}],"stateMutability":"view"},{"type":"function","name":"getUnfilledAmount","inputs":[{"name":"id","type":"uint256","internalType":"uint256"}],"outputs":[{"name":"","type":"uint256","internalType":"uint256"}],"stateMutability":"view"},{"type":"function","name":"hashFeeQuote","inputs":[{"name":"feeQuote","type":"tuple","internalType":"struct IOrderProcessor.FeeQuote","components":[{"name":"orderId","type":"uint256","internalType":"uint256"},{"name":"requester","type":"address","internalType":"address"},{"name":"fee","type":"uint256","internalType":"uint256"},{"name":"timestamp","type":"uint64","internalType":"uint64"},{"name":"deadline","type":"uint64","internalType":"uint64"}]}],"outputs":[{"name":"","type":"bytes32","internalType":"bytes32"}],"stateMutability":"pure"},{"type":"function","name":"hashOrder","inputs":[{"name":"order","type":"tuple","internalType":"struct IOrderProcessor.Order","components":[{"name":"requestTimestamp","type":"uint64","internalType":"uint64"},{"name":"recipient","type":"address","internalType":"address"},{"name":"assetToken","type":"address","internalType":"address"},{"name":"paymentToken","type":"address","internalType":"address"},{"name":"sell","type":"bool","internalType":"bool"},{"name":"orderType","type":"uint8","internalType":"enum IOrderProcessor.OrderType"},{"name":"assetTokenQuantity","type":"uint256","internalType":"uint256"},{"name":"paymentTokenQuantity","type":"uint256","internalType":"uint256"},{"name":"price","type":"uint256","internalType":"uint256"},{"name":"tif","type":"uint8","internalType":"enum IOrderProcessor.TIF"}]}],"outputs":[{"name":"","type":"uint256","internalType":"uint256"}],"stateMutability":"pure"},{"type":"function","name":"hashOrderRequest","inputs":[{"name":"order","type":"tuple","internalType":"struct IOrderProcessor.Order","components":[{"name":"requestTimestamp","type":"uint64","internalType":"uint64"},{"name":"recipient","type":"address","internalType":"address"},{"name":"assetToken","type":"address","internalType":"address"},{"name":"paymentToken","type":"address","internalType":"address"},{"name":"sell","type":"bool","internalType":"bool"},{"name":"orderType","type":"uint8","internalType":"enum IOrderProcessor.OrderType"},{"name":"assetTokenQuantity","type":"uint256","internalType":"uint256"},{"name":"paymentTokenQuantity","type":"uint256","internalType":"uint256"},{"name":"price","type":"uint256","internalType":"uint256"},{"name":"tif","type":"uint8","internalType":"enum IOrderProcessor.TIF"}]},{"name":"deadline","type":"uint64","internalType":"uint64"}],"outputs":[{"name":"","type":"bytes32","internalType":"bytes32"}],"stateMutability":"pure"},{"type":"function","name":"initialize","inputs":[{"name":"_owner","type":"address","internalType":"address"},{"name":"_treasury","type":"address","internalType":"address"},{"name":"_vault","type":"address","internalType":"address"},{"name":"_dShareFactory","type":"address","internalType":"contract IDShareFactory"}],"outputs":[],"stateMutability":"nonpayable"},{"type":"function","name":"isOperator","inputs":[{"name":"account","type":"address","internalType":"address"}],"outputs":[{"name":"","type":"bool","internalType":"bool"}],"stateMutability":"view"},{"type":"function","name":"isTransferLocked","inputs":[{"name":"token","type":"address","internalType":"address"},{"name":"account","type":"address","internalType":"address"}],"outputs":[{"name":"","type":"bool","internalType":"bool"}],"stateMutability":"view"},{"type":"function","name":"latestFillPrice","inputs":[{"name":"assetToken","type":"address","internalType":"address"},{"name":"paymentToken","type":"address","internalType":"address"}],"outputs":[{"name":"","type":"tuple","internalType":"struct IOrderProcessor.PricePoint","components":[{"name":"price","type":"uint256","internalType":"uint256"},{"name":"blocktime","type":"uint64","internalType":"uint64"}]}],"stateMutability":"view"},{"type":"function","name":"multicall","inputs":[{"name":"data","type":"bytes[]","internalType":"bytes[]"}],"outputs":[{"name":"results","type":"bytes[]","internalType":"bytes[]"}],"stateMutability":"nonpayable"},{"type":"function","name":"orderDecimalReduction","inputs":[{"name":"token","type":"address","internalType":"address"}],"outputs":[{"name":"","type":"uint8","internalType":"uint8"}],"stateMutability":"view"},{"type":"function","name":"ordersPaused","inputs":[],"outputs":[{"name":"","type":"bool","internalType":"bool"}],"stateMutability":"view"},{"type":"function","name":"owner","inputs":[],"outputs":[{"name":"","type":"address","internalType":"address"}],"stateMutability":"view"},{"type":"function","name":"pendingOwner","inputs":[],"outputs":[{"name":"","type":"address","internalType":"address"}],"stateMutability":"view"},{"type":"function","name":"proxiableUUID","inputs":[],"outputs":[{"name":"","type":"bytes32","internalType":"bytes32"}],"stateMutability":"view"},{"type":"function","name":"removePaymentToken","inputs":[{"name":"paymentToken","type":"address","internalType":"address"}],"outputs":[],"stateMutability":"nonpayable"},{"type":"function","name":"renounceOwnership","inputs":[],"outputs":[],"stateMutability":"nonpayable"},{"type":"function","name":"requestCancel","inputs":[{"name":"id","type":"uint256","internalType":"uint256"}],"outputs":[],"stateMutability":"nonpayable"},{"type":"function","name":"selfPermit","inputs":[{"name":"token","type":"address","internalType":"address"},{"name":"owner","type":"address","internalType":"address"},{"name":"value","type":"uint256","internalType":"uint256"},{"name":"deadline","type":"uint256","internalType":"uint256"},{"name":"v","type":"uint8","internalType":"uint8"},{"name":"r","type":"bytes32","internalType":"bytes32"},{"name":"s","type":"bytes32","internalType":"bytes32"}],"outputs":[],"stateMutability":"nonpayable"},{"type":"function","name":"setOperator","inputs":[{"name":"account","type":"address","internalType":"address"},{"name":"status","type":"bool","internalType":"bool"}],"outputs":[],"stateMutability":"nonpayable"},{"type":"function","name":"setOrderDecimalReduction","inputs":[{"name":"token","type":"address","internalType":"address"},{"name":"decimalReduction","type":"uint8","internalType":"uint8"}],"outputs":[],"stateMutability":"nonpayable"},{"type":"function","name":"setOrdersPaused","inputs":[{"name":"pause","type":"bool","internalType":"bool"}],"outputs":[],"stateMutability":"nonpayable"},{"type":"function","name":"setPaymentToken","inputs":[{"name":"paymentToken","type":"address","internalType":"address"},{"name":"blacklistCallSelector","type":"bytes4","internalType":"bytes4"},{"name":"perOrderFeeBuy","type":"uint64","internalType":"uint64"},{"name":"percentageFeeRateBuy","type":"uint24","internalType":"uint24"},{"name":"perOrderFeeSell","type":"uint64","internalType":"uint64"},{"name":"percentageFeeRateSell","type":"uint24","internalType":"uint24"}],"outputs":[],"stateMutability":"nonpayable"},{"type":"function","name":"setTreasury","inputs":[{"name":"account","type":"address","internalType":"address"}],"outputs":[],"stateMutability":"nonpayable"},{"type":"function","name":"setVault","inputs":[{"name":"account","type":"address","internalType":"address"}],"outputs":[],"stateMutability":"nonpayable"},{"type":"function","name":"totalStandardFee","inputs":[{"name":"sell","type":"bool","internalType":"bool"},{"name":"paymentToken","type":"address","internalType":"address"},{"name":"paymentTokenQuantity","type":"uint256","internalType":"uint256"}],"outputs":[{"name":"","type":"uint256","internalType":"uint256"}],"stateMutability":"view"},{"type":"function","name":"transferOwnership","inputs":[{"name":"newOwner","type":"address","internalType":"address"}],"outputs":[],"stateMutability":"nonpayable"},{"type":"function","name":"treasury","inputs":[],"outputs":[{"name":"","type":"address","internalType":"address"}],"stateMutability":"view"},{"type":"function","name":"upgradeToAndCall","inputs":[{"name":"newImplementation","type":"address","internalType":"address"},{"name":"data","type":"bytes","internalType":"bytes"}],"outputs":[],"stateMutability":"payable"},{"type":"function","name":"vault","inputs":[],"outputs":[{"name":"","type":"address","internalType":"address"}],"stateMutability":"view"},{"type":"event","name":"CancelRequested","inputs":[{"name":"id","type":"uint256","indexed":true,"internalType":"uint256"},{"name":"requester","type":"address","indexed":true,"internalType":"address"}],"anonymous":false},{"type":"event","name":"EIP712DomainChanged","inputs":[],"anonymous":false},{"type":"event","name":"Initialized","inputs":[{"name":"version","type":"uint64","indexed":false,"internalType":"uint64"}],"anonymous":false},{"type":"event","name":"OperatorSet","inputs":[{"name":"account","type":"address","indexed":true,"internalType":"address"},{"name":"status","type":"bool","indexed":false,"internalType":"bool"}],"anonymous":false},{"type":"event","name":"OrderCancelled","inputs":[{"name":"id","type":"uint256","indexed":true,"internalType":"uint256"},{"name":"requester","type":"address","indexed":true,"internalType":"address"},{"name":"reason","type":"string","indexed":false,"internalType":"string"}],"anonymous":false},{"type":"event","name":"OrderCreated","inputs":[{"name":"id","type":"uint256","indexed":true,"internalType":"uint256"},{"name":"requester","type":"address","indexed":true,"internalType":"address"},{"name":"order","type":"tuple","indexed":false,"internalType":"struct IOrderProcessor.Order","components":[{"name":"requestTimestamp","type":"uint64","internalType":"uint64"},{"name":"recipient","type":"address","internalType":"address"},{"name":"assetToken","type":"address","internalType":"address"},{"name":"paymentToken","type":"address","internalType":"address"},{"name":"sell","type":"bool","internalType":"bool"},{"name":"orderType","type":"uint8","internalType":"enum IOrderProcessor.OrderType"},{"name":"assetTokenQuantity","type":"uint256","internalType":"uint256"},{"name":"paymentTokenQuantity","type":"uint256","internalType":"uint256"},{"name":"price","type":"uint256","internalType":"uint256"},{"name":"tif","type":"uint8","internalType":"enum IOrderProcessor.TIF"}]},{"name":"feesEscrowed","type":"uint256","indexed":false,"internalType":"uint256"}],"anonymous":false},{"type":"event","name":"OrderDecimalReductionSet","inputs":[{"name":"assetToken","type":"address","indexed":true,"internalType":"address"},{"name":"decimalReduction","type":"uint8","indexed":false,"internalType":"uint8"}],"anonymous":false},{"type":"event","name":"OrderFill","inputs":[{"name":"id","type":"uint256","indexed":true,"internalType":"uint256"},{"name":"paymentToken","type":"address","indexed":true,"internalType":"address"},{"name":"assetToken","type":"address","indexed":true,"internalType":"address"},{"name":"requester","type":"address","indexed":false,"internalType":"address"},{"name":"assetAmount","type":"uint256","indexed":false,"internalType":"uint256"},{"name":"paymentAmount","type":"uint256","indexed":false,"internalType":"uint256"},{"name":"feesTaken","type":"uint256","indexed":false,"internalType":"uint256"},{"name":"sell","type":"bool","indexed":false,"internalType":"bool"}],"anonymous":false},{"type":"event","name":"OrderFulfilled","inputs":[{"name":"id","type":"uint256","indexed":true,"internalType":"uint256"},{"name":"requester","type":"address","indexed":true,"internalType":"address"}],"anonymous":false},{"type":"event","name":"OrdersPaused","inputs":[{"name":"paused","type":"bool","indexed":false,"internalType":"bool"}],"anonymous":false},{"type":"event","name":"OwnershipTransferStarted","inputs":[{"name":"previousOwner","type":"address","indexed":true,"internalType":"address"},{"name":"newOwner","type":"address","indexed":true,"internalType":"address"}],"anonymous":false},{"type":"event","name":"OwnershipTransferred","inputs":[{"name":"previousOwner","type":"address","indexed":true,"internalType":"address"},{"name":"newOwner","type":"address","indexed":true,"internalType":"address"}],"anonymous":false},{"type":"event","name":"PaymentTokenRemoved","inputs":[{"name":"paymentToken","type":"address","indexed":true,"internalType":"address"}],"anonymous":false},{"type":"event","name":"PaymentTokenSet","inputs":[{"name":"paymentToken","type":"address","indexed":true,"internalType":"address"},{"name":"blacklistCallSelector","type":"bytes4","indexed":false,"internalType":"bytes4"},{"name":"perOrderFeeBuy","type":"uint64","indexed":false,"internalType":"uint64"},{"name":"percentageFeeRateBuy","type":"uint24","indexed":false,"internalType":"uint24"},{"name":"perOrderFeeSell","type":"uint64","indexed":false,"internalType":"uint64"},{"name":"percentageFeeRateSell","type":"uint24","indexed":false,"internalType":"uint24"}],"anonymous":false},{"type":"event","name":"TreasurySet","inputs":[{"name":"treasury","type":"address","indexed":true,"internalType":"address"}],"anonymous":false},{"type":"event","name":"Upgraded","inputs":[{"name":"implementation","type":"address","indexed":true,"internalType":"address"}],"anonymous":false},{"type":"event","name":"VaultSet","inputs":[{"name":"vault","type":"address","indexed":true,"internalType":"address"}],"anonymous":false},{"type":"error","name":"AddressEmptyCode","inputs":[{"name":"target","type":"address","internalType":"address"}]},{"type":"error","name":"AddressInsufficientBalance","inputs":[{"name":"account","type":"address","internalType":"address"}]},{"type":"error","name":"AmountTooLarge","inputs":[]},{"type":"error","name":"Blacklist","inputs":[]},{"type":"error","name":"DecimalsTooLarge","inputs":[]},{"type":"error","name":"ECDSAInvalidSignature","inputs":[]},{"type":"error","name":"ECDSAInvalidSignatureLength","inputs":[{"name":"length","type":"uint256","internalType":"uint256"}]},{"type":"error","name":"ECDSAInvalidSignatureS","inputs":[{"name":"s","type":"bytes32","internalType":"bytes32"}]},{"type":"error","name":"ERC1967InvalidImplementation","inputs":[{"name":"implementation","type":"address","internalType":"address"}]},{"type":"error","name":"ERC1967NonPayable","inputs":[]},{"type":"error","name":"ExistingOrder","inputs":[]},{"type":"error","name":"ExpiredSignature","inputs":[]},{"type":"error","name":"FailedInnerCall","inputs":[]},{"type":"error","name":"FeeTooLarge","inputs":[]},{"type":"error","name":"InvalidInitialization","inputs":[]},{"type":"error","name":"InvalidPrecision","inputs":[]},{"type":"error","name":"LimitPriceNotSet","inputs":[]},{"type":"error","name":"NotInitializing","inputs":[]},{"type":"error","name":"NotOperator","inputs":[]},{"type":"error","name":"NotRequester","inputs":[]},{"type":"error","name":"OrderFillAboveLimitPrice","inputs":[]},{"type":"error","name":"OrderFillBelowLimitPrice","inputs":[]},{"type":"error","name":"OrderNotActive","inputs":[]},{"type":"error","name":"OwnableInvalidOwner","inputs":[{"name":"owner","type":"address","internalType":"address"}]},{"type":"error","name":"OwnableUnauthorizedAccount","inputs":[{"name":"account","type":"address","internalType":"address"}]},{"type":"error","name":"PRBMath_MulDiv18_Overflow","inputs":[{"name":"x","type":"uint256","internalType":"uint256"},{"name":"y","type":"uint256","internalType":"uint256"}]},{"type":"error","name":"PRBMath_MulDiv_Overflow","inputs":[{"name":"x","type":"uint256","internalType":"uint256"},{"name":"y","type":"uint256","internalType":"uint256"},{"name":"denominator","type":"uint256","internalType":"uint256"}]},{"type":"error","name":"Paused","inputs":[]},{"type":"error","name":"SafeERC20FailedOperation","inputs":[{"name":"token","type":"address","internalType":"address"}]},{"type":"error","name":"UUPSUnauthorizedCallContext","inputs":[]},{"type":"error","name":"UUPSUnsupportedProxiableUUID","inputs":[{"name":"slot","type":"bytes32","internalType":"bytes32"}]},{"type":"error","name":"UnsupportedToken","inputs":[{"name":"token","type":"address","internalType":"address"}]},{"type":"error","name":"ZeroAddress","inputs":[]},{"type":"error","name":"ZeroValue","inputs":[]}],"bytecode":{"object":"0x60a06040523073ffffffffffffffffffffffffffffffffffffffff1660809073ffffffffffffffffffffffffffffffffffffffff16815250348015610042575f80fd5b5061005161005660201b60201c565b6101b6565b5f61006561015460201b60201c565b9050805f0160089054906101000a900460ff16156100af576040517ff92ee8a900000000000000000000000000000000000000000000000000000000815260040160405180910390fd5b67ffffffffffffffff8016815f015f9054906101000a900467ffffffffffffffff1667ffffffffffffffff16146101515767ffffffffffffffff815f015f6101000a81548167ffffffffffffffff021916908367ffffffffffffffff1602179055507fc7f505b2f371ae2175ee4913f4499e1f2633a7b5936321eed1cdaeb6115181d267ffffffffffffffff604051610148919061019d565b60405180910390a15b50565b5f7ff0c57e16840df040f15088dc2f81fe391c3923bec73e23a9662efc9c229c6a00905090565b5f67ffffffffffffffff82169050919050565b6101978161017b565b82525050565b5f6020820190506101b05f83018461018e565b92915050565b608051617cd66101dc5f395f81816142180152818161426d01526144270152617cd65ff3fe608060405260043610610271575f3560e01c8063813854801161014e578063ad3cb1cc116100c0578063f0f4426011610079578063f0f44260146109de578063f2fde38b14610a06578063f64f67de14610a2e578063f8c8765e14610a56578063fbfa77cf14610a7e578063fc75f9ed14610aa857610271565b8063ad3cb1cc146108c0578063b0eb27f8146108ea578063d386e16614610926578063d87f8ee114610962578063e30c39781461098c578063e683a2d4146109b657610271565b8063904adece11610112578063904adece1461077e578063a377cfbf146107ba578063a5125421146107f6578063a70c56331461081e578063aa2165f114610848578063ac9650d81461088457610271565b8063813854801461067057806381fed708146106ac57806384b0196e146106e85780638da5cb5b14610718578063901b7e431461074257610271565b806352d1902d116101e757806368bad2cf116101ab57806368bad2cf1461056857806369352a90146105905780636d70f7ae146105cc5780636ecebc3614610608578063715018a61461064457806379ba50971461065a57610271565b806352d1902d14610488578063558a7297146104b257806361d027b3146104da57806361ecbb44146105045780636817031b1461054057610271565b8063394a4c5c11610239578063394a4c5c1461037c57806345fa8aae146103a4578063464bbe26146103e05780634b5e68901461041c5780634bf79b4c146104445780634f1ef2861461046c57610271565b806301a7cdb31461027557806315984f111461029d578063236970d4146102d957806323a3c10d146103165780633644e51514610352575b5f80fd5b348015610280575f80fd5b5061029b60048036038101906102969190615b35565b610ae4565b005b3480156102a8575f80fd5b506102c360048036038101906102be9190615bbe565b610dc6565b6040516102d09190615cd7565b60405180910390f35b3480156102e4575f80fd5b506102ff60048036038101906102fa9190615d1a565b610f5a565b60405161030d929190615d7f565b60405180910390f35b348015610321575f80fd5b5061033c60048036038101906103379190615dd0565b611175565b6040516103499190615e20565b60405180910390f35b34801561035d575f80fd5b506103666111a6565b6040516103739190615e51565b60405180910390f35b348015610387575f80fd5b506103a2600480360381019061039d9190615eee565b6111b4565b005b3480156103af575f80fd5b506103ca60048036038101906103c59190615f4d565b611478565b6040516103d79190615feb565b60405180910390f35b3480156103eb575f80fd5b5061040660048036038101906104019190616077565b6114ac565b6040516104139190615e20565b60405180910390f35b348015610427575f80fd5b50610442600480360381019061043d91906160eb565b611545565b005b34801561044f575f80fd5b5061046a60048036038101906104659190616116565b6115af565b005b610486600480360381019061048191906162b6565b61180b565b005b348015610493575f80fd5b5061049c61182a565b6040516104a99190615e51565b60405180910390f35b3480156104bd575f80fd5b506104d860048036038101906104d39190616310565b61185b565b005b3480156104e5575f80fd5b506104ee611917565b6040516104fb919061635d565b60405180910390f35b34801561050f575f80fd5b5061052a60048036038101906105259190615f4d565b61194c565b6040516105379190615e20565b60405180910390f35b34801561054b575f80fd5b5061056660048036038101906105619190615bbe565b611977565b005b348015610573575f80fd5b5061058e600480360381019061058991906163a0565b611a78565b005b34801561059b575f80fd5b506105b660048036038101906105b19190615f4d565b611b35565b6040516105c39190615e20565b60405180910390f35b3480156105d7575f80fd5b506105f260048036038101906105ed9190615bbe565b611b60565b6040516105ff91906163ed565b60405180910390f35b348015610613575f80fd5b5061062e60048036038101906106299190616406565b611bc0565b60405161063b9190615e51565b60405180910390f35b34801561064f575f80fd5b50610658611c1c565b005b348015610665575f80fd5b5061066e611c2f565b005b34801561067b575f80fd5b5061069660048036038101906106919190616446565b611cbd565b6040516106a391906163ed565b60405180910390f35b3480156106b7575f80fd5b506106d260048036038101906106cd9190615f4d565b611d64565b6040516106df9190615e20565b60405180910390f35b3480156106f3575f80fd5b506106fc611d8f565b60405161070f97969594939291906165d5565b60405180910390f35b348015610723575f80fd5b5061072c611e98565b604051610739919061635d565b60405180910390f35b34801561074d575f80fd5b5061076860048036038101906107639190616675565b611ecd565b6040516107759190615e20565b60405180910390f35b348015610789575f80fd5b506107a4600480360381019061079f9190615f4d565b612046565b6040516107b19190615e20565b60405180910390f35b3480156107c5575f80fd5b506107e060048036038101906107db9190616446565b612071565b6040516107ed9190616746565b60405180910390f35b348015610801575f80fd5b5061081c60048036038101906108179190615bbe565b6120ee565b005b348015610829575f80fd5b50610832612223565b60405161083f91906167ba565b60405180910390f35b348015610853575f80fd5b5061086e600480360381019061086991906167d3565b612259565b60405161087b9190615e20565b60405180910390f35b34801561088f575f80fd5b506108aa60048036038101906108a59190616854565b612328565b6040516108b791906169ac565b60405180910390f35b3480156108cb575f80fd5b506108d4612506565b6040516108e191906169cc565b60405180910390f35b3480156108f5575f80fd5b50610910600480360381019061090b91906169ec565b61253f565b60405161091d9190615e51565b60405180910390f35b348015610931575f80fd5b5061094c600480360381019061094791906167d3565b6125d5565b6040516109599190615e20565b60405180910390f35b34801561096d575f80fd5b506109766126c5565b60405161098391906163ed565b60405180910390f35b348015610997575f80fd5b506109a06126e9565b6040516109ad919061635d565b60405180910390f35b3480156109c1575f80fd5b506109dc60048036038101906109d79190615f4d565b61271e565b005b3480156109e9575f80fd5b50610a0460048036038101906109ff9190615bbe565b61288c565b005b348015610a11575f80fd5b50610a2c6004803603810190610a279190615bbe565b61298c565b005b348015610a39575f80fd5b50610a546004803603810190610a4f9190616a41565b612a45565b005b348015610a61575f80fd5b50610a7c6004803603810190610a779190616b19565b612ac0565b005b348015610a89575f80fd5b50610a92612ec0565b604051610a9f919061635d565b60405180910390f35b348015610ab3575f80fd5b50610ace6004803603810190610ac99190615bbe565b612ef6565b604051610adb9190616b8c565b60405180910390f35b610aec612f56565b610af583612fdd565b610afe81612fdd565b5f60e01b857bffffffffffffffffffffffffffffffffffffffffffffffffffffffff191614610b3457610b32863087613026565b505b5f610b3d6130da565b90506040518060e001604052806001151581526020018873ffffffffffffffffffffffffffffffffffffffff1663313ce5676040518163ffffffff1660e01b8152600401602060405180830381865afa158015610b9c573d5f803e3d5ffd5b505050506040513d601f19601f82011682018060405250810190610bc09190616bb9565b60ff168152602001877bffffffffffffffffffffffffffffffffffffffffffffffffffffffff191681526020018667ffffffffffffffff1681526020018562ffffff1681526020018467ffffffffffffffff1681526020018362ffffff16815250816007015f8973ffffffffffffffffffffffffffffffffffffffff1673ffffffffffffffffffffffffffffffffffffffff1681526020019081526020015f205f820151815f015f6101000a81548160ff0219169083151502179055506020820151815f0160016101000a81548160ff021916908360ff1602179055506040820151815f0160026101000a81548163ffffffff021916908360e01c02179055506060820151815f0160066101000a81548167ffffffffffffffff021916908367ffffffffffffffff1602179055506080820151815f01600e6101000a81548162ffffff021916908362ffffff16021790555060a0820151815f0160116101000a81548167ffffffffffffffff021916908367ffffffffffffffff16021790555060c0820151815f0160196101000a81548162ffffff021916908362ffffff1602179055509050508673ffffffffffffffffffffffffffffffffffffffff167f62bb97b737d55d6883ce8202a25917b7276ca6b55b762971d4f78d80f7a63e658787878787604051610db5959493929190616c02565b60405180910390a250505050505050565b610dce615966565b5f610dd76130da565b9050806007015f8473ffffffffffffffffffffffffffffffffffffffff1673ffffffffffffffffffffffffffffffffffffffff1681526020019081526020015f206040518060e00160405290815f82015f9054906101000a900460ff161515151581526020015f820160019054906101000a900460ff1660ff1660ff1681526020015f820160029054906101000a900460e01b7bffffffffffffffffffffffffffffffffffffffffffffffffffffffff19167bffffffffffffffffffffffffffffffffffffffffffffffffffffffff191681526020015f820160069054906101000a900467ffffffffffffffff1667ffffffffffffffff1667ffffffffffffffff1681526020015f8201600e9054906101000a900462ffffff1662ffffff1662ffffff1681526020015f820160119054906101000a900467ffffffffffffffff1667ffffffffffffffff1667ffffffffffffffff1681526020015f820160199054906101000a900462ffffff1662ffffff1662ffffff1681525050915050919050565b5f805f610f656130da565b90505f816007015f8673ffffffffffffffffffffffffffffffffffffffff1673ffffffffffffffffffffffffffffffffffffffff1681526020019081526020015f206040518060e00160405290815f82015f9054906101000a900460ff161515151581526020015f820160019054906101000a900460ff1660ff1660ff1681526020015f820160029054906101000a900460e01b7bffffffffffffffffffffffffffffffffffffffffffffffffffffffff19167bffffffffffffffffffffffffffffffffffffffffffffffffffffffff191681526020015f820160069054906101000a900467ffffffffffffffff1667ffffffffffffffff1667ffffffffffffffff1681526020015f8201600e9054906101000a900462ffffff1662ffffff1662ffffff1681526020015f820160119054906101000a900467ffffffffffffffff1667ffffffffffffffff1667ffffffffffffffff1681526020015f820160199054906101000a900462ffffff1662ffffff1662ffffff16815250509050805f015161112857846040517fbf16aab600000000000000000000000000000000000000000000000000000000815260040161111f919061635d565b60405180910390fd5b85156111505761114081602001518260a00151613101565b8160c0015193509350505061116e565b61116281602001518260600151613101565b81608001519350935050505b9250929050565b5f805f6111828686610f5a565b9150915081611191828661320b565b61119b9190616c80565b925050509392505050565b5f6111af61323f565b905090565b6111bd3361324d565b5f6111c7846125d5565b90505f6111d26130da565b9050600160038111156111e8576111e7615f78565b5b816004015f8481526020019081526020015f205f9054906101000a900460ff16600381111561121a57611219615f78565b5b14611251576040517f1d4ecc5b00000000000000000000000000000000000000000000000000000000815260040160405180910390fd5b5f816005015f8481526020019081526020015f2090505f86608001602081019061127b91906160eb565b61128957816002015461128b565b5f5b90505f826001015490505f83600201819055506003846004015f8781526020019081526020015f205f6101000a81548160ff021916908360038111156112d4576112d3615f78565b5b02179055505f835f015f9054906101000a900473ffffffffffffffffffffffffffffffffffffffff1690508073ffffffffffffffffffffffffffffffffffffffff16867ff2820c9274d611a15d979823ac23bb965c1972a808eebd952297d9bd3a60f4b88a8a604051611348929190616cdf565b60405180910390a388608001602081019061136391906160eb565b156113e75788604001602081019061137b9190615bbe565b73ffffffffffffffffffffffffffffffffffffffff166340c10f1982846040518363ffffffff1660e01b81526004016113b5929190616d01565b5f604051808303815f87803b1580156113cc575f80fd5b505af11580156113de573d5f803e3d5ffd5b5050505061146d565b6114263382848c60600160208101906114009190615bbe565b73ffffffffffffffffffffffffffffffffffffffff166132de909392919063ffffffff16565b5f83111561146c5761146b81848b60600160208101906114469190615bbe565b73ffffffffffffffffffffffffffffffffffffffff166133609092919063ffffffff16565b5b5b505050505050505050565b5f806114826130da565b9050806004015f8481526020019081526020015f205f9054906101000a900460ff16915050919050565b5f806114b66130da565b90508060020160149054906101000a900460ff1615611501576040517f9e87fac800000000000000000000000000000000000000000000000000000000815260040160405180910390fd5b61150d338686866133df565b61153a863388608001602081019061152591906160eb565b611533578760400135611535565b5f5b61351c565b915050949350505050565b61154d612f56565b5f6115566130da565b9050818160020160146101000a81548160ff0219169083151502179055507feded67f5310120daa4cd7610cb05cee3ce8d5e6237b28455089b814371ef4c3c826040516115a391906163ed565b60405180910390a15050565b6115b83361324d565b5f83036115f1576040517f7c946ed700000000000000000000000000000000000000000000000000000000815260040160405180910390fd5b5f6115fb856125d5565b90505f6116066130da565b90505f816005015f8481526020019081526020015f206040518060a00160405290815f82015f9054906101000a900473ffffffffffffffffffffffffffffffffffffffff1673ffffffffffffffffffffffffffffffffffffffff1673ffffffffffffffffffffffffffffffffffffffff1681526020016001820154815260200160028201548152602001600382015481526020016004820154815250509050600160038111156116b9576116b8615f78565b5b826004015f8581526020019081526020015f205f9054906101000a900460ff1660038111156116eb576116ea615f78565b5b14611722576040517f1d4ecc5b00000000000000000000000000000000000000000000000000000000815260040160405180910390fd5b8060200151861115611760576040517f0625040100000000000000000000000000000000000000000000000000000000815260040160405180910390fd5b86608001602081019061177391906160eb565b1561178b57611786838883898989613e6f565b61179a565b611799838883888a89614000565b5b5f84111561180257611801825f015f9054906101000a900473ffffffffffffffffffffffffffffffffffffffff16858960600160208101906117dc9190615bbe565b73ffffffffffffffffffffffffffffffffffffffff166133609092919063ffffffff16565b5b50505050505050565b611813614216565b61181c826142fc565b6118268282614307565b5050565b5f611833614425565b7f360894a13ba1a3210667c828492db98dca3e2076cc3735a920a3ca505d382bbc5f1b905090565b611863612f56565b5f61186c6130da565b905081816003015f8573ffffffffffffffffffffffffffffffffffffffff1673ffffffffffffffffffffffffffffffffffffffff1681526020019081526020015f205f6101000a81548160ff0219169083151502179055508273ffffffffffffffffffffffffffffffffffffffff167f1a594081ae893ab78e67d9b9e843547318164322d32c65369d78a96172d9dc8f8360405161190a91906163ed565b60405180910390a2505050565b5f806119216130da565b9050805f015f9054906101000a900473ffffffffffffffffffffffffffffffffffffffff1691505090565b5f806119566130da565b9050806005015f8481526020019081526020015f2060040154915050919050565b61197f612f56565b5f73ffffffffffffffffffffffffffffffffffffffff168173ffffffffffffffffffffffffffffffffffffffff16036119e4576040517fd92e233d00000000000000000000000000000000000000000000000000000000815260040160405180910390fd5b5f6119ed6130da565b905081816001015f6101000a81548173ffffffffffffffffffffffffffffffffffffffff021916908373ffffffffffffffffffffffffffffffffffffffff1602179055508173ffffffffffffffffffffffffffffffffffffffff167fe7ae49f883c825b05681b3e00e8be6fdea9ed2a8a45e4c6ecb9390fc44cce61560405160405180910390a25050565b611a80612f56565b5f611a896130da565b905081816006015f8573ffffffffffffffffffffffffffffffffffffffff1673ffffffffffffffffffffffffffffffffffffffff1681526020019081526020015f205f6101000a81548160ff021916908360ff1602179055508273ffffffffffffffffffffffffffffffffffffffff167f0b59c2c3c368212b3f37e17950d77dde61df255a50fdd2409f82380b624b17ad83604051611b289190616b8c565b60405180910390a2505050565b5f80611b3f6130da565b9050806005015f8481526020019081526020015f2060030154915050919050565b5f80611b6a6130da565b9050806003015f8473ffffffffffffffffffffffffffffffffffffffff1673ffffffffffffffffffffffffffffffffffffffff1681526020019081526020015f205f9054906101000a900460ff16915050919050565b5f7f4b79adf172c306ef56a5e224d04f05168355f07629283d177f52ee5e13170235611beb846125d5565b83604051602001611bfe93929190616d28565b60405160208183030381529060405280519060200120905092915050565b611c24612f56565b611c2d5f6144ac565b565b5f611c386144e9565b90508073ffffffffffffffffffffffffffffffffffffffff16611c596126e9565b73ffffffffffffffffffffffffffffffffffffffff1614611cb157806040517f118cdaa7000000000000000000000000000000000000000000000000000000008152600401611ca8919061635d565b60405180910390fd5b611cba816144ac565b50565b5f80611cc76130da565b90505f816007015f8673ffffffffffffffffffffffffffffffffffffffff1673ffffffffffffffffffffffffffffffffffffffff1681526020019081526020015f205f0160029054906101000a900460e01b90505f60e01b817bffffffffffffffffffffffffffffffffffffffffffffffffffffffff191603611d4e575f92505050611d5e565b611d59858583613026565b925050505b92915050565b5f80611d6e6130da565b9050806005015f8481526020019081526020015f2060010154915050919050565b5f6060805f805f60605f611da16144f0565b90505f801b815f0154148015611dbc57505f801b8160010154145b611dfb576040517f08c379a0000000000000000000000000000000000000000000000000000000008152600401611df290616da7565b60405180910390fd5b611e03614517565b611e0b6145b5565b46305f801b5f67ffffffffffffffff811115611e2a57611e29616192565b5b604051908082528060200260200182016040528015611e585781602001602082028036833780820191505090505b507f0f0000000000000000000000000000000000000000000000000000000000000095949392919097509750975097509750975097505090919293949596565b5f80611ea2614653565b9050805f015f9054906101000a900473ffffffffffffffffffffffffffffffffffffffff1691505090565b5f80611ed76130da565b90508060020160149054906101000a900460ff1615611f22576040517f9e87fac800000000000000000000000000000000000000000000000000000000815260040160405180910390fd5b611f2b3361324d565b42865f016020810190611f3e9190616dc5565b67ffffffffffffffff161015611f80576040517fdf4cc36d00000000000000000000000000000000000000000000000000000000815260040160405180910390fd5b5f611ffe611fa7611fa28a8a5f016020810190611f9d9190616dc5565b611bc0565b61467a565b888060200190611fb79190616dfc565b8080601f0160208091040260200160405190810160405280939291908181526020018383808284375f81840152601f19601f82011690508083019250505050505050614693565b905061200c818787876133df565b61203988828a608001602081019061202491906160eb565b612032578860400135612034565b5f5b61351c565b9250505095945050505050565b5f806120506130da565b9050806005015f8481526020019081526020015f2060020154915050919050565b6120796159de565b5f6120826130da565b9050806008015f61209386866146bd565b81526020019081526020015f206040518060400160405290815f8201548152602001600182015f9054906101000a900467ffffffffffffffff1667ffffffffffffffff1667ffffffffffffffff168152505091505092915050565b6120f6612f56565b5f6120ff6130da565b9050806007015f8373ffffffffffffffffffffffffffffffffffffffff1673ffffffffffffffffffffffffffffffffffffffff1681526020019081526020015f205f8082015f6101000a81549060ff02191690555f820160016101000a81549060ff02191690555f820160026101000a81549063ffffffff02191690555f820160066101000a81549067ffffffffffffffff02191690555f8201600e6101000a81549062ffffff02191690555f820160116101000a81549067ffffffffffffffff02191690555f820160196101000a81549062ffffff021916905550508173ffffffffffffffffffffffffffffffffffffffff167f85a3e72f8dd6db3794f93109c3c5f5b79d6112f6979431c45f98b26134b42af260405160405180910390a25050565b5f8061222d6130da565b9050806002015f9054906101000a900473ffffffffffffffffffffffffffffffffffffffff1691505090565b5f806122636130da565b90508060020160149054906101000a900460ff16156122ae576040517f9e87fac800000000000000000000000000000000000000000000000000000000815260040160405180910390fd5b8260800160208101906122c191906160eb565b156122d8576122d183335f61351c565b9150612322565b5f806122f65f8660600160208101906122f19190615bbe565b610f5a565b9150915061231d85338461230e858a60e0013561320b565b6123189190616c80565b61351c565b935050505b50919050565b60605f6123336144e9565b73ffffffffffffffffffffffffffffffffffffffff163373ffffffffffffffffffffffffffffffffffffffff16146123d3575f3661236f6146ef565b5f36905061237d9190616e5e565b90809261238c93929190616e99565b8080601f0160208091040260200160405190810160405280939291908181526020018383808284375f81840152601f19601f82011690508083019250505050505050612421565b5f67ffffffffffffffff8111156123ed576123ec616192565b5b6040519080825280601f01601f19166020018201604052801561241f5781602001600182028036833780820191505090505b505b90508383905067ffffffffffffffff8111156124405761243f616192565b5b60405190808252806020026020018201604052801561247357816020015b606081526020019060019003908161245e5790505b5091505f5b848490508110156124fe576124d33086868481811061249a57612499616ed3565b5b90506020028101906124ac9190616dfc565b856040516020016124bf93929190616f5e565b6040516020818303038152906040526146f3565b8382815181106124e6576124e5616ed3565b5b60200260200101819052508080600101915050612478565b505092915050565b6040518060400160405280600581526020017f352e302e3000000000000000000000000000000000000000000000000000000081525081565b5f7f5cb303aa1e0a5388b90fbf38a2c8f60e46b84bf97e0a3209ae27a1555341a869825f01358360200160208101906125789190615bbe565b84604001358560600160208101906125909190616dc5565b8660800160208101906125a39190616dc5565b6040516020016125b896959493929190616f83565b604051602081830303815290604052805190602001209050919050565b5f7fcebe4c6160e5334d8d68179839cfa50d23572dd2fde58930219caf484368e045825f0160208101906126099190616dc5565b83602001602081019061261c9190615bbe565b84604001602081019061262f9190615bbe565b8560600160208101906126429190615bbe565b86608001602081019061265591906160eb565b8760a00160208101906126689190617005565b8860c001358960e001358a61010001358b61012001602081019061268c9190617053565b6040516020016126a69b9a9998979695949392919061710a565b604051602081830303815290604052805190602001205f1c9050919050565b5f806126cf6130da565b90508060020160149054906101000a900460ff1691505090565b5f806126f3614773565b9050805f015f9054906101000a900473ffffffffffffffffffffffffffffffffffffffff1691505090565b5f6127276130da565b90506001600381111561273d5761273c615f78565b5b816004015f8481526020019081526020015f205f9054906101000a900460ff16600381111561276f5761276e615f78565b5b146127a6576040517f1d4ecc5b00000000000000000000000000000000000000000000000000000000815260040160405180910390fd5b5f816005015f8481526020019081526020015f205f015f9054906101000a900473ffffffffffffffffffffffffffffffffffffffff1690503373ffffffffffffffffffffffffffffffffffffffff168173ffffffffffffffffffffffffffffffffffffffff1614612843576040517fe39da59e00000000000000000000000000000000000000000000000000000000815260040160405180910390fd5b8073ffffffffffffffffffffffffffffffffffffffff16837f4f45a3bbce2de4ee8d69d6bf7dd2455dc927f1d1a50725b7292e0bf5aa06d8ab60405160405180910390a3505050565b612894612f56565b5f73ffffffffffffffffffffffffffffffffffffffff168173ffffffffffffffffffffffffffffffffffffffff16036128f9576040517fd92e233d00000000000000000000000000000000000000000000000000000000815260040160405180910390fd5b5f6129026130da565b905081815f015f6101000a81548173ffffffffffffffffffffffffffffffffffffffff021916908373ffffffffffffffffffffffffffffffffffffffff1602179055508173ffffffffffffffffffffffffffffffffffffffff167f3c864541ef71378c6229510ed90f376565ee42d9c5e0904a984a9e863e6db44f60405160405180910390a25050565b612994612f56565b5f61299d614773565b905081815f015f6101000a81548173ffffffffffffffffffffffffffffffffffffffff021916908373ffffffffffffffffffffffffffffffffffffffff1602179055508173ffffffffffffffffffffffffffffffffffffffff166129ff611e98565b73ffffffffffffffffffffffffffffffffffffffff167f38d16b8cac22d99fc7c124b9cd0de2d3fa1faef420bfe791d8c362d765e2270060405160405180910390a35050565b8673ffffffffffffffffffffffffffffffffffffffff1663d505accf873088888888886040518863ffffffff1660e01b8152600401612a8a97969594939291906171b3565b5f604051808303815f87803b158015612aa1575f80fd5b505af1158015612ab3573d5f803e3d5ffd5b5050505050505050505050565b5f612ac961479a565b90505f815f0160089054906101000a900460ff161590505f825f015f9054906101000a900467ffffffffffffffff1690505f808267ffffffffffffffff16148015612b115750825b90505f60018367ffffffffffffffff16148015612b4457505f3073ffffffffffffffffffffffffffffffffffffffff163b145b905081158015612b52575080155b15612b89576040517ff92ee8a900000000000000000000000000000000000000000000000000000000815260040160405180910390fd5b6001855f015f6101000a81548167ffffffffffffffff021916908367ffffffffffffffff1602179055508315612bd6576001855f0160086101000a81548160ff0219169083151502179055505b612bdf896147c1565b612c536040518060400160405280600e81526020017f4f7264657250726f636573736f720000000000000000000000000000000000008152506040518060400160405280600181526020017f31000000000000000000000000000000000000000000000000000000000000008152506147d5565b612c5b6147eb565b5f73ffffffffffffffffffffffffffffffffffffffff168873ffffffffffffffffffffffffffffffffffffffff1603612cc0576040517fd92e233d00000000000000000000000000000000000000000000000000000000815260040160405180910390fd5b5f73ffffffffffffffffffffffffffffffffffffffff168773ffffffffffffffffffffffffffffffffffffffff1603612d25576040517fd92e233d00000000000000000000000000000000000000000000000000000000815260040160405180910390fd5b5f73ffffffffffffffffffffffffffffffffffffffff168673ffffffffffffffffffffffffffffffffffffffff1603612d8a576040517fd92e233d00000000000000000000000000000000000000000000000000000000815260040160405180910390fd5b5f612d936130da565b905088815f015f6101000a81548173ffffffffffffffffffffffffffffffffffffffff021916908373ffffffffffffffffffffffffffffffffffffffff16021790555087816001015f6101000a81548173ffffffffffffffffffffffffffffffffffffffff021916908373ffffffffffffffffffffffffffffffffffffffff16021790555086816002015f6101000a81548173ffffffffffffffffffffffffffffffffffffffff021916908373ffffffffffffffffffffffffffffffffffffffff160217905550508315612eb5575f855f0160086101000a81548160ff0219169083151502179055507fc7f505b2f371ae2175ee4913f4499e1f2633a7b5936321eed1cdaeb6115181d26001604051612eac9190617259565b60405180910390a15b505050505050505050565b5f80612eca6130da565b9050806001015f9054906101000a900473ffffffffffffffffffffffffffffffffffffffff1691505090565b5f80612f006130da565b9050806006015f8473ffffffffffffffffffffffffffffffffffffffff1673ffffffffffffffffffffffffffffffffffffffff1681526020019081526020015f205f9054906101000a900460ff16915050919050565b612f5e6144e9565b73ffffffffffffffffffffffffffffffffffffffff16612f7c611e98565b73ffffffffffffffffffffffffffffffffffffffff1614612fdb57612f9f6144e9565b6040517f118cdaa7000000000000000000000000000000000000000000000000000000008152600401612fd2919061635d565b60405180910390fd5b565b620f424062ffffff168162ffffff1610613023576040517ffc5bee1200000000000000000000000000000000000000000000000000000000815260040160405180910390fd5b50565b5f6130be828460405160240161303c919061635d565b604051602081830303815290604052907bffffffffffffffffffffffffffffffffffffffffffffffffffffffff19166020820180517bffffffffffffffffffffffffffffffffffffffffffffffffffffffff83818316178352505050508573ffffffffffffffffffffffffffffffffffffffff166147f590919063ffffffff16565b8060200190518101906130d19190617286565b90509392505050565b5f7f8036d9ca2814a3bcd78d3e8aba96b71e7697006bd322a98e7f5f0f41b09a8b00905090565b5f60128360ff161115613140576040517f3c9c1e2d00000000000000000000000000000000000000000000000000000000815260040160405180910390fd5b5f8267ffffffffffffffff1603613159575f9050613205565b600867ffffffffffffffff168360ff1611156131a75760088360ff1661317f91906172b1565b600a61318b919061741b565b8267ffffffffffffffff166131a09190617465565b9050613204565b600867ffffffffffffffff168360ff1610156131f5578260ff1660086131cd91906172b1565b600a6131d9919061741b565b8267ffffffffffffffff166131ee91906174d3565b9050613203565b8167ffffffffffffffff1690505b5b5b92915050565b5f808362ffffff160361321e575f613237565b613236828462ffffff16620f424062ffffff16614875565b5b905092915050565b5f613248614987565b905090565b5f6132566130da565b9050806003015f8373ffffffffffffffffffffffffffffffffffffffff1673ffffffffffffffffffffffffffffffffffffffff1681526020019081526020015f205f9054906101000a900460ff166132da576040517f7c214f0400000000000000000000000000000000000000000000000000000000815260040160405180910390fd5b5050565b61335a848573ffffffffffffffffffffffffffffffffffffffff166323b872dd86868660405160240161331393929190617503565b604051602081830303815290604052915060e01b6020820180517bffffffffffffffffffffffffffffffffffffffffffffffffffffffff83818316178352505050506149ea565b50505050565b6133da838473ffffffffffffffffffffffffffffffffffffffff1663a9059cbb8585604051602401613393929190616d01565b604051602081830303815290604052915060e01b6020820180517bffffffffffffffffffffffffffffffffffffffffffffffffffffffff83818316178352505050506149ea565b505050565b8373ffffffffffffffffffffffffffffffffffffffff168360200160208101906134099190615bbe565b73ffffffffffffffffffffffffffffffffffffffff1614613456576040517fe39da59e00000000000000000000000000000000000000000000000000000000815260040160405180910390fd5b4283608001602081019061346a9190616dc5565b67ffffffffffffffff1610156134ac576040517fdf4cc36d00000000000000000000000000000000000000000000000000000000815260040160405180910390fd5b5f61350a6134c16134bc8661253f565b61467a565b84848080601f0160208091040260200160405190810160405280939291908181526020018383808284375f81840152601f19601f82011690508083019250505050505050614693565b90506135158161324d565b5050505050565b5f8073ffffffffffffffffffffffffffffffffffffffff168460200160208101906135479190615bbe565b73ffffffffffffffffffffffffffffffffffffffff1603613594576040517fd92e233d00000000000000000000000000000000000000000000000000000000815260040160405180910390fd5b5f8460800160208101906135a891906160eb565b6135b6578460e001356135bc565b8460c001355b90505f81036135f7576040517f7c946ed700000000000000000000000000000000000000000000000000000000815260040160405180910390fd5b60018081111561360a57613609615f78565b5b8560a001602081019061361d9190617005565b600181111561362f5761362e615f78565b5b14801561364057505f856101000135145b15613677576040517f35fbb1cc00000000000000000000000000000000000000000000000000000000815260040160405180910390fd5b5f6136806130da565b905061368b866125d5565b92505f60038111156136a05761369f615f78565b5b816004015f8581526020019081526020015f205f9054906101000a900460ff1660038111156136d2576136d1615f78565b5b14613709576040517f608d41ea00000000000000000000000000000000000000000000000000000000815260040160405180910390fd5b806002015f9054906101000a900473ffffffffffffffffffffffffffffffffffffffff1673ffffffffffffffffffffffffffffffffffffffff166325f28f1687604001602081019061375b9190615bbe565b6040518263ffffffff1660e01b8152600401613777919061635d565b602060405180830381865afa158015613792573d5f803e3d5ffd5b505050506040513d601f19601f820116820180604052508101906137b69190617286565b613809578560400160208101906137cd9190615bbe565b6040517fbf16aab6000000000000000000000000000000000000000000000000000000008152600401613800919061635d565b60405180910390fd5b5f816007015f8860600160208101906138229190615bbe565b73ffffffffffffffffffffffffffffffffffffffff1673ffffffffffffffffffffffffffffffffffffffff1681526020019081526020015f206040518060e00160405290815f82015f9054906101000a900460ff161515151581526020015f820160019054906101000a900460ff1660ff1660ff1681526020015f820160029054906101000a900460e01b7bffffffffffffffffffffffffffffffffffffffffffffffffffffffff19167bffffffffffffffffffffffffffffffffffffffffffffffffffffffff191681526020015f820160069054906101000a900467ffffffffffffffff1667ffffffffffffffff1667ffffffffffffffff1681526020015f8201600e9054906101000a900462ffffff1662ffffff1662ffffff1681526020015f820160119054906101000a900467ffffffffffffffff1667ffffffffffffffff1667ffffffffffffffff1681526020015f820160199054906101000a900462ffffff1662ffffff1662ffffff16815250509050805f01516139ee578660600160208101906139b29190615bbe565b6040517fbf16aab60000000000000000000000000000000000000000000000000000000081526004016139e5919061635d565b60405180910390fd5b866080016020810190613a0191906160eb565b80613a415750600180811115613a1a57613a19615f78565b5b8760a0016020810190613a2d9190617005565b6001811115613a3f57613a3e615f78565b5b145b15613b19575f826006015f896040016020810190613a5f9190615bbe565b73ffffffffffffffffffffffffffffffffffffffff1673ffffffffffffffffffffffffffffffffffffffff1681526020019081526020015f205f9054906101000a900460ff1690505f8160ff16118015613ae057505f600182613ac29190617538565b600a613ace919061756c565b8960c00135613add91906175b6565b14155b15613b17576040517faa8828e700000000000000000000000000000000000000000000000000000000815260040160405180910390fd5b505b613b4d876040016020810190613b2f9190615bbe565b886060016020810190613b429190615bbe565b836040015189614a7f565b8573ffffffffffffffffffffffffffffffffffffffff16876020016020810190613b779190615bbe565b73ffffffffffffffffffffffffffffffffffffffff1614613bd957613bd8876040016020810190613ba89190615bbe565b886060016020810190613bbb9190615bbe565b83604001518a6020016020810190613bd39190615bbe565b614a7f565b5b6040518060a001604052808773ffffffffffffffffffffffffffffffffffffffff1681526020018481526020018681526020015f81526020015f815250826005015f8681526020019081526020015f205f820151815f015f6101000a81548173ffffffffffffffffffffffffffffffffffffffff021916908373ffffffffffffffffffffffffffffffffffffffff160217905550602082015181600101556040820151816002015560608201518160030155608082015181600401559050506001826004015f8681526020019081526020015f205f6101000a81548160ff02191690836003811115613cce57613ccd615f78565b5b02179055508573ffffffffffffffffffffffffffffffffffffffff16847f3b7ebb563e299d7dc7724ac9ed06c49e897512c20fcf670581d2cbc9a05101718988604051613d1c9291906177b1565b60405180910390a3866080016020810190613d3791906160eb565b15613dbf57866040016020810190613d4f9190615bbe565b73ffffffffffffffffffffffffffffffffffffffff166379cc6790878960c001356040518363ffffffff1660e01b8152600401613d8d929190616d01565b5f604051808303815f87803b158015613da4575f80fd5b505af1158015613db6573d5f803e3d5ffd5b50505050613e65565b613e2586836001015f9054906101000a900473ffffffffffffffffffffffffffffffffffffffff168960e001358a6060016020810190613dff9190615bbe565b73ffffffffffffffffffffffffffffffffffffffff166132de909392919063ffffffff16565b613e648630878a6060016020810190613e3e9190615bbe565b73ffffffffffffffffffffffffffffffffffffffff166132de909392919063ffffffff16565b5b5050509392505050565b81811115613ea9576040517f0625040100000000000000000000000000000000000000000000000000000000815260040160405180910390fd5b600180811115613ebc57613ebb615f78565b5b8560a0016020810190613ecf9190617005565b6001811115613ee157613ee0615f78565b5b148015613efb5750613ef883866101000135614b74565b82105b15613f32576040517f7d18445b00000000000000000000000000000000000000000000000000000000815260040160405180910390fd5b613f4386855f015187868686614c59565b613f508685858585614e61565b50613f90333084886060016020810190613f6a9190615bbe565b73ffffffffffffffffffffffffffffffffffffffff166132de909392919063ffffffff16565b5f8183613f9d9190616e5e565b90505f811115613ff757613ff6866020016020810190613fbd9190615bbe565b82886060016020810190613fd19190615bbe565b73ffffffffffffffffffffffffffffffffffffffff166133609092919063ffffffff16565b5b50505050505050565b5f6140096130da565b90508460400151821115614049576040517f0625040100000000000000000000000000000000000000000000000000000000815260040160405180910390fd5b60018081111561405c5761405b615f78565b5b8660a001602081019061406f9190617005565b600181111561408157614080615f78565b5b1480156140a457506140a183670de0b6b3a7640000886101000135614875565b84105b156140db576040517f650e545000000000000000000000000000000000000000000000000000000000815260040160405180910390fd5b6140ec87865f015188878787614c59565b5f6140fa8887868887614e61565b90505f83876040015161410d9190616e5e565b90508115614163575f81111561415e5761415d875f0151828a60600160208101906141389190615bbe565b73ffffffffffffffffffffffffffffffffffffffff166133609092919063ffffffff16565b5b61417f565b80836005015f8b81526020019081526020015f20600201819055505b8760400160208101906141929190615bbe565b73ffffffffffffffffffffffffffffffffffffffff166340c10f198960200160208101906141c09190615bbe565b886040518363ffffffff1660e01b81526004016141de929190616d01565b5f604051808303815f87803b1580156141f5575f80fd5b505af1158015614207573d5f803e3d5ffd5b50505050505050505050505050565b7f000000000000000000000000000000000000000000000000000000000000000073ffffffffffffffffffffffffffffffffffffffff163073ffffffffffffffffffffffffffffffffffffffff1614806142c357507f000000000000000000000000000000000000000000000000000000000000000073ffffffffffffffffffffffffffffffffffffffff166142aa614fa3565b73ffffffffffffffffffffffffffffffffffffffff1614155b156142fa576040517fe07c8dba00000000000000000000000000000000000000000000000000000000815260040160405180910390fd5b565b614304612f56565b50565b8173ffffffffffffffffffffffffffffffffffffffff166352d1902d6040518163ffffffff1660e01b8152600401602060405180830381865afa92505050801561436f57506040513d601f19601f8201168201806040525081019061436c91906177ee565b60015b6143b057816040517f4c9c8ce30000000000000000000000000000000000000000000000000000000081526004016143a7919061635d565b60405180910390fd5b7f360894a13ba1a3210667c828492db98dca3e2076cc3735a920a3ca505d382bbc5f1b811461441657806040517faa1d49a400000000000000000000000000000000000000000000000000000000815260040161440d9190615e51565b60405180910390fd5b6144208383614ff6565b505050565b7f000000000000000000000000000000000000000000000000000000000000000073ffffffffffffffffffffffffffffffffffffffff163073ffffffffffffffffffffffffffffffffffffffff16146144aa576040517fe07c8dba00000000000000000000000000000000000000000000000000000000815260040160405180910390fd5b565b5f6144b5614773565b9050805f015f6101000a81549073ffffffffffffffffffffffffffffffffffffffff02191690556144e582615068565b5050565b5f33905090565b5f7fa16a46d94261c7517cc8ff89f61c0ce93598e3c849801011dee649a6a557d100905090565b60605f6145226144f0565b905080600201805461453390617846565b80601f016020809104026020016040519081016040528092919081815260200182805461455f90617846565b80156145aa5780601f10614581576101008083540402835291602001916145aa565b820191905f5260205f20905b81548152906001019060200180831161458d57829003601f168201915b505050505091505090565b60605f6145c06144f0565b90508060030180546145d190617846565b80601f01602080910402602001604051908101604052809291908181526020018280546145fd90617846565b80156146485780601f1061461f57610100808354040283529160200191614648565b820191905f5260205f20905b81548152906001019060200180831161462b57829003601f168201915b505050505091505090565b5f7f9016d09d72d40fdae2fd8ceac6b6234c7706214fd39c1cd1e609a0528c199300905090565b5f61468c61468661323f565b83615139565b9050919050565b5f805f806146a18686615179565b9250925092506146b182826151ce565b82935050505092915050565b5f82826040516020016146d19291906178bb565b60405160208183030381529060405280519060200120905092915050565b5f90565b60605f808473ffffffffffffffffffffffffffffffffffffffff168460405161471c91906178e6565b5f60405180830381855af49150503d805f8114614754576040519150601f19603f3d011682016040523d82523d5f602084013e614759565b606091505b5091509150614769858383615330565b9250505092915050565b5f7f237e158222e3e6968b72b9db0d8043aacf074ad9f650f0d1606b4d82ee432c00905090565b5f7ff0c57e16840df040f15088dc2f81fe391c3923bec73e23a9662efc9c229c6a00905090565b6147c96153bd565b6147d2816153fd565b50565b6147dd6153bd565b6147e78282615481565b5050565b6147f36153bd565b565b60605f808473ffffffffffffffffffffffffffffffffffffffff168460405161481e91906178e6565b5f60405180830381855afa9150503d805f8114614856576040519150601f19603f3d011682016040523d82523d5f602084013e61485b565b606091505b509150915061486b858383615330565b9250505092915050565b5f805f80198587098587029250828110838203039150505f81036148ad578382816148a3576148a26174a6565b5b0492505050614980565b8381106148f5578585856040517f63a057780000000000000000000000000000000000000000000000000000000081526004016148ec939291906178fc565b60405180910390fd5b5f8486880990508281118203915080830392505f6001861901861690505f81870496508185049450600182835f0304019050808402851794505f60028860030218905080880260020381029050808802600203810290508088026002038102905080880260020381029050808802600203810290508088026002038102905080860296505050505050505b9392505050565b5f7f8b73c3c69bb8fe3d512ecc4cf759cc79239f7b179b0ffacaa9a75d522b39400f6149b16154d2565b6149b9615548565b46306040516020016149cf959493929190617931565b60405160208183030381529060405280519060200120905090565b5f614a14828473ffffffffffffffffffffffffffffffffffffffff166155bf90919063ffffffff16565b90505f815114158015614a38575080806020019051810190614a369190617286565b155b15614a7a57826040517f5274afe7000000000000000000000000000000000000000000000000000000008152600401614a71919061635d565b60405180910390fd5b505050565b8373ffffffffffffffffffffffffffffffffffffffff1663fe575a87826040518263ffffffff1660e01b8152600401614ab8919061635d565b602060405180830381865afa158015614ad3573d5f803e3d5ffd5b505050506040513d601f19601f82011682018060405250810190614af79190617286565b80614b3757505f60e01b827bffffffffffffffffffffffffffffffffffffffffffffffffffffffff191614158015614b365750614b35838284613026565b5b5b15614b6e576040517fc95b482500000000000000000000000000000000000000000000000000000000815260040160405180910390fd5b50505050565b5f805f80198486098486029250828110838203039150505f8103614bb457670de0b6b3a76400008281614baa57614ba96174a6565b5b0492505050614c53565b670de0b6b3a76400008110614c025784846040517f5173648d000000000000000000000000000000000000000000000000000000008152600401614bf9929190617982565b60405180910390fd5b5f670de0b6b3a764000085870990507faccb18165bd6fe31ae1cf318dc5b51eee0e1ba569b88cd74c1773b91fac10669600162040000805f0304018483118403026204000083860304170293505050505b92915050565b5f614c626130da565b90505f614c93866040016020810190614c7b9190615bbe565b876060016020810190614c8e9190615bbe565b6146bd565b90506040518060400160405280600180811115614cb357614cb2615f78565b5b8860a0016020810190614cc69190617005565b6001811115614cd857614cd7615f78565b5b14614d4d57614d488787866007015f8c6060016020810190614cfa9190615bbe565b73ffffffffffffffffffffffffffffffffffffffff1673ffffffffffffffffffffffffffffffffffffffff1681526020019081526020015f205f0160019054906101000a900460ff166155d4565b614d54565b8761010001355b81526020014267ffffffffffffffff16815250826008015f8381526020019081526020015f205f820151815f01556020820151816001015f6101000a81548167ffffffffffffffff021916908367ffffffffffffffff160217905550905050856040016020810190614dc69190615bbe565b73ffffffffffffffffffffffffffffffffffffffff16866060016020810190614def9190615bbe565b73ffffffffffffffffffffffffffffffffffffffff16897f7e3461df4807dfaae05cd79c65566b5582129e82ad7183be9e6040e2146dc6038a8989898d6080016020810190614e3e91906160eb565b604051614e4f9594939291906179a9565b60405180910390a45050505050505050565b5f80614e6b6130da565b90505f858760200151614e7e9190616e5e565b905080826005015f8a81526020019081526020015f2060010181905550848760800151614eab9190616c80565b826005015f8a81526020019081526020015f2060040181905550838760600151614ed59190616c80565b826005015f8a81526020019081526020015f20600301819055505f811492508215614f98575f826005015f8a81526020019081526020015f20600201819055506002826004015f8a81526020019081526020015f205f6101000a81548160ff02191690836003811115614f4b57614f4a615f78565b5b0217905550865f015173ffffffffffffffffffffffffffffffffffffffff16887fe5f48e2a4a303d196ad814389aa54cf34e7b1e404e740599d005907a2ca0cd6c60405160405180910390a35b505095945050505050565b5f614fcf7f360894a13ba1a3210667c828492db98dca3e2076cc3735a920a3ca505d382bbc5f1b615620565b5f015f9054906101000a900473ffffffffffffffffffffffffffffffffffffffff16905090565b614fff82615629565b8173ffffffffffffffffffffffffffffffffffffffff167fbc7cd75a20ee27fd9adebab32041f755214dbc6bffa90cc0225b39da2e5c2d3b60405160405180910390a25f8151111561505b5761505582826146f3565b50615064565b6150636156f2565b5b5050565b5f615071614653565b90505f815f015f9054906101000a900473ffffffffffffffffffffffffffffffffffffffff16905082825f015f6101000a81548173ffffffffffffffffffffffffffffffffffffffff021916908373ffffffffffffffffffffffffffffffffffffffff1602179055508273ffffffffffffffffffffffffffffffffffffffff168173ffffffffffffffffffffffffffffffffffffffff167f8be0079c531659141344cd1fd0a4f28419497f9722a3daafe3b4186f6b6457e060405160405180910390a3505050565b5f6040517f190100000000000000000000000000000000000000000000000000000000000081528360028201528260228201526042812091505092915050565b5f805f60418451036151b9575f805f602087015192506040870151915060608701515f1a90506151ab8882858561572e565b9550955095505050506151c7565b5f600285515f1b9250925092505b9250925092565b5f60038111156151e1576151e0615f78565b5b8260038111156151f4576151f3615f78565b5b031561532c576001600381111561520e5761520d615f78565b5b82600381111561522157615220615f78565b5b03615258576040517ff645eedf00000000000000000000000000000000000000000000000000000000815260040160405180910390fd5b6002600381111561526c5761526b615f78565b5b82600381111561527f5761527e615f78565b5b036152c357805f1c6040517ffce698f70000000000000000000000000000000000000000000000000000000081526004016152ba9190615e20565b60405180910390fd5b6003808111156152d6576152d5615f78565b5b8260038111156152e9576152e8615f78565b5b0361532b57806040517fd78bce0c0000000000000000000000000000000000000000000000000000000081526004016153229190615e51565b60405180910390fd5b5b5050565b6060826153455761534082615815565b6153b5565b5f825114801561536b57505f8473ffffffffffffffffffffffffffffffffffffffff163b145b156153ad57836040517f9996b3150000000000000000000000000000000000000000000000000000000081526004016153a4919061635d565b60405180910390fd5b8190506153b6565b5b9392505050565b6153c5615859565b6153fb576040517fd7e6bcf800000000000000000000000000000000000000000000000000000000815260040160405180910390fd5b565b6154056153bd565b5f73ffffffffffffffffffffffffffffffffffffffff168173ffffffffffffffffffffffffffffffffffffffff1603615475575f6040517f1e4fbdf700000000000000000000000000000000000000000000000000000000815260040161546c919061635d565b60405180910390fd5b61547e816144ac565b50565b6154896153bd565b5f6154926144f0565b9050828160020190816154a59190617b8e565b50818160030190816154b79190617b8e565b505f801b815f01819055505f801b8160010181905550505050565b5f806154dc6144f0565b90505f6154e7614517565b90505f8151111561550357808051906020012092505050615545565b5f825f015490505f801b811461551e57809350505050615545565b7fc5d2460186f7233c927e7db2dcc703c0e500b653ca82273b7bfad8045d85a47093505050505b90565b5f806155526144f0565b90505f61555d6145b5565b90505f81511115615579578080519060200120925050506155bc565b5f826001015490505f801b8114615595578093505050506155bc565b7fc5d2460186f7233c927e7db2dcc703c0e500b653ca82273b7bfad8045d85a47093505050505b90565b60606155cc83835f615877565b905092915050565b5f808260126155e39190617538565b600a6155ef919061756c565b90506155fc848287615940565b1561560a575f915050615619565b615615848287614875565b9150505b9392505050565b5f819050919050565b5f8173ffffffffffffffffffffffffffffffffffffffff163b0361568457806040517f4c9c8ce300000000000000000000000000000000000000000000000000000000815260040161567b919061635d565b60405180910390fd5b806156b07f360894a13ba1a3210667c828492db98dca3e2076cc3735a920a3ca505d382bbc5f1b615620565b5f015f6101000a81548173ffffffffffffffffffffffffffffffffffffffff021916908373ffffffffffffffffffffffffffffffffffffffff16021790555050565b5f34111561572c576040517fb398979f00000000000000000000000000000000000000000000000000000000815260040160405180910390fd5b565b5f805f7f7fffffffffffffffffffffffffffffff5d576e7357a4501ddfe92f46681b20a0845f1c111561576a575f60038592509250925061580b565b5f6001888888886040515f815260200160405260405161578d9493929190617c5d565b6020604051602081039080840390855afa1580156157ad573d5f803e3d5ffd5b5050506020604051035190505f73ffffffffffffffffffffffffffffffffffffffff168173ffffffffffffffffffffffffffffffffffffffff16036157fe575f60015f801b9350935093505061580b565b805f805f1b935093509350505b9450945094915050565b5f815111156158275780518082602001fd5b6040517f1425ea4200000000000000000000000000000000000000000000000000000000815260040160405180910390fd5b5f61586261479a565b5f0160089054906101000a900460ff16905090565b6060814710156158be57306040517fcd7860590000000000000000000000000000000000000000000000000000000081526004016158b5919061635d565b60405180910390fd5b5f808573ffffffffffffffffffffffffffffffffffffffff1684866040516158e691906178e6565b5f6040518083038185875af1925050503d805f8114615920576040519150601f19603f3d011682016040523d82523d5f602084013e615925565b606091505b5091509150615935868383615330565b925050509392505050565b5f805f801985870985870292508281108382030391505083811015925050509392505050565b6040518060e001604052805f151581526020015f60ff1681526020015f7bffffffffffffffffffffffffffffffffffffffffffffffffffffffff191681526020015f67ffffffffffffffff1681526020015f62ffffff1681526020015f67ffffffffffffffff1681526020015f62ffffff1681525090565b60405180604001604052805f81526020015f67ffffffffffffffff1681525090565b5f604051905090565b5f80fd5b5f80fd5b5f73ffffffffffffffffffffffffffffffffffffffff82169050919050565b5f615a3a82615a11565b9050919050565b615a4a81615a30565b8114615a54575f80fd5b50565b5f81359050615a6581615a41565b92915050565b5f7fffffffff0000000000000000000000000000000000000000000000000000000082169050919050565b615a9f81615a6b565b8114615aa9575f80fd5b50565b5f81359050615aba81615a96565b92915050565b5f67ffffffffffffffff82169050919050565b615adc81615ac0565b8114615ae6575f80fd5b50565b5f81359050615af781615ad3565b92915050565b5f62ffffff82169050919050565b615b1481615afd565b8114615b1e575f80fd5b50565b5f81359050615b2f81615b0b565b92915050565b5f805f805f8060c08789031215615b4f57615b4e615a09565b5b5f615b5c89828a01615a57565b9650506020615b6d89828a01615aac565b9550506040615b7e89828a01615ae9565b9450506060615b8f89828a01615b21565b9350506080615ba089828a01615ae9565b92505060a0615bb189828a01615b21565b9150509295509295509295565b5f60208284031215615bd357615bd2615a09565b5b5f615be084828501615a57565b91505092915050565b5f8115159050919050565b615bfd81615be9565b82525050565b5f60ff82169050919050565b615c1881615c03565b82525050565b615c2781615a6b565b82525050565b615c3681615ac0565b82525050565b615c4581615afd565b82525050565b60e082015f820151615c5f5f850182615bf4565b506020820151615c726020850182615c0f565b506040820151615c856040850182615c1e565b506060820151615c986060850182615c2d565b506080820151615cab6080850182615c3c565b5060a0820151615cbe60a0850182615c2d565b5060c0820151615cd160c0850182615c3c565b50505050565b5f60e082019050615cea5f830184615c4b565b92915050565b615cf981615be9565b8114615d03575f80fd5b50565b5f81359050615d1481615cf0565b92915050565b5f8060408385031215615d3057615d2f615a09565b5b5f615d3d85828601615d06565b9250506020615d4e85828601615a57565b9150509250929050565b5f819050919050565b615d6a81615d58565b82525050565b615d7981615afd565b82525050565b5f604082019050615d925f830185615d61565b615d9f6020830184615d70565b9392505050565b615daf81615d58565b8114615db9575f80fd5b50565b5f81359050615dca81615da6565b92915050565b5f805f60608486031215615de757615de6615a09565b5b5f615df486828701615d06565b9350506020615e0586828701615a57565b9250506040615e1686828701615dbc565b9150509250925092565b5f602082019050615e335f830184615d61565b92915050565b5f819050919050565b615e4b81615e39565b82525050565b5f602082019050615e645f830184615e42565b92915050565b5f80fd5b5f6101408284031215615e8457615e83615e6a565b5b81905092915050565b5f80fd5b5f80fd5b5f80fd5b5f8083601f840112615eae57615ead615e8d565b5b8235905067ffffffffffffffff811115615ecb57615eca615e91565b5b602083019150836001820283011115615ee757615ee6615e95565b5b9250929050565b5f805f6101608486031215615f0657615f05615a09565b5b5f615f1386828701615e6e565b93505061014084013567ffffffffffffffff811115615f3557615f34615a0d565b5b615f4186828701615e99565b92509250509250925092565b5f60208284031215615f6257615f61615a09565b5b5f615f6f84828501615dbc565b91505092915050565b7f4e487b71000000000000000000000000000000000000000000000000000000005f52602160045260245ffd5b60048110615fb657615fb5615f78565b5b50565b5f819050615fc682615fa5565b919050565b5f615fd582615fb9565b9050919050565b615fe581615fcb565b82525050565b5f602082019050615ffe5f830184615fdc565b92915050565b5f60a0828403121561601957616018615e6a565b5b81905092915050565b5f8083601f84011261603757616036615e8d565b5b8235905067ffffffffffffffff81111561605457616053615e91565b5b6020830191508360018202830111156160705761606f615e95565b5b9250929050565b5f805f8061020085870312156160905761608f615a09565b5b5f61609d87828801615e6e565b9450506101406160af87828801616004565b9350506101e085013567ffffffffffffffff8111156160d1576160d0615a0d565b5b6160dd87828801616022565b925092505092959194509250565b5f60208284031215616100576160ff615a09565b5b5f61610d84828501615d06565b91505092915050565b5f805f806101a0858703121561612f5761612e615a09565b5b5f61613c87828801615e6e565b94505061014061614e87828801615dbc565b93505061016061616087828801615dbc565b92505061018061617287828801615dbc565b91505092959194509250565b5f80fd5b5f601f19601f8301169050919050565b7f4e487b71000000000000000000000000000000000000000000000000000000005f52604160045260245ffd5b6161c882616182565b810181811067ffffffffffffffff821117156161e7576161e6616192565b5b80604052505050565b5f6161f9615a00565b905061620582826161bf565b919050565b5f67ffffffffffffffff82111561622457616223616192565b5b61622d82616182565b9050602081019050919050565b828183375f83830152505050565b5f61625a6162558461620a565b6161f0565b9050828152602081018484840111156162765761627561617e565b5b61628184828561623a565b509392505050565b5f82601f83011261629d5761629c615e8d565b5b81356162ad848260208601616248565b91505092915050565b5f80604083850312156162cc576162cb615a09565b5b5f6162d985828601615a57565b925050602083013567ffffffffffffffff8111156162fa576162f9615a0d565b5b61630685828601616289565b9150509250929050565b5f806040838503121561632657616325615a09565b5b5f61633385828601615a57565b925050602061634485828601615d06565b9150509250929050565b61635781615a30565b82525050565b5f6020820190506163705f83018461634e565b92915050565b61637f81615c03565b8114616389575f80fd5b50565b5f8135905061639a81616376565b92915050565b5f80604083850312156163b6576163b5615a09565b5b5f6163c385828601615a57565b92505060206163d48582860161638c565b9150509250929050565b6163e781615be9565b82525050565b5f6020820190506164005f8301846163de565b92915050565b5f80610160838503121561641d5761641c615a09565b5b5f61642a85828601615e6e565b92505061014061643c85828601615ae9565b9150509250929050565b5f806040838503121561645c5761645b615a09565b5b5f61646985828601615a57565b925050602061647a85828601615a57565b9150509250929050565b5f7fff0000000000000000000000000000000000000000000000000000000000000082169050919050565b6164b881616484565b82525050565b5f81519050919050565b5f82825260208201905092915050565b8281835e5f83830152505050565b5f6164f0826164be565b6164fa81856164c8565b935061650a8185602086016164d8565b61651381616182565b840191505092915050565b5f81519050919050565b5f82825260208201905092915050565b5f819050602082019050919050565b61655081615d58565b82525050565b5f6165618383616547565b60208301905092915050565b5f602082019050919050565b5f6165838261651e565b61658d8185616528565b935061659883616538565b805f5b838110156165c85781516165af8882616556565b97506165ba8361656d565b92505060018101905061659b565b5085935050505092915050565b5f60e0820190506165e85f83018a6164af565b81810360208301526165fa81896164e6565b9050818103604083015261660e81886164e6565b905061661d6060830187615d61565b61662a608083018661634e565b61663760a0830185615e42565b81810360c08301526166498184616579565b905098975050505050505050565b5f6040828403121561666c5761666b615e6a565b5b81905092915050565b5f805f805f610220868803121561668f5761668e615a09565b5b5f61669c88828901615e6e565b95505061014086013567ffffffffffffffff8111156166be576166bd615a0d565b5b6166ca88828901616657565b9450506101606166dc88828901616004565b93505061020086013567ffffffffffffffff8111156166fe576166fd615a0d565b5b61670a88828901616022565b92509250509295509295909350565b604082015f82015161672d5f850182616547565b5060208201516167406020850182615c2d565b50505050565b5f6040820190506167595f830184616719565b92915050565b5f819050919050565b5f61678261677d61677884615a11565b61675f565b615a11565b9050919050565b5f61679382616768565b9050919050565b5f6167a482616789565b9050919050565b6167b48161679a565b82525050565b5f6020820190506167cd5f8301846167ab565b92915050565b5f61014082840312156167e9576167e8615a09565b5b5f6167f684828501615e6e565b91505092915050565b5f8083601f84011261681457616813615e8d565b5b8235905067ffffffffffffffff81111561683157616830615e91565b5b60208301915083602082028301111561684d5761684c615e95565b5b9250929050565b5f806020838503121561686a57616869615a09565b5b5f83013567ffffffffffffffff81111561688757616886615a0d565b5b616893858286016167ff565b92509250509250929050565b5f81519050919050565b5f82825260208201905092915050565b5f819050602082019050919050565b5f81519050919050565b5f82825260208201905092915050565b5f6168ec826168c8565b6168f681856168d2565b93506169068185602086016164d8565b61690f81616182565b840191505092915050565b5f61692583836168e2565b905092915050565b5f602082019050919050565b5f6169438261689f565b61694d81856168a9565b93508360208202850161695f856168b9565b805f5b8581101561699a578484038952815161697b858261691a565b94506169868361692d565b925060208a01995050600181019050616962565b50829750879550505050505092915050565b5f6020820190508181035f8301526169c48184616939565b905092915050565b5f6020820190508181035f8301526169e481846164e6565b905092915050565b5f60a08284031215616a0157616a00615a09565b5b5f616a0e84828501616004565b91505092915050565b616a2081615e39565b8114616a2a575f80fd5b50565b5f81359050616a3b81616a17565b92915050565b5f805f805f805f60e0888a031215616a5c57616a5b615a09565b5b5f616a698a828b01615a57565b9750506020616a7a8a828b01615a57565b9650506040616a8b8a828b01615dbc565b9550506060616a9c8a828b01615dbc565b9450506080616aad8a828b0161638c565b93505060a0616abe8a828b01616a2d565b92505060c0616acf8a828b01616a2d565b91505092959891949750929550565b5f616ae882615a30565b9050919050565b616af881616ade565b8114616b02575f80fd5b50565b5f81359050616b1381616aef565b92915050565b5f805f8060808587031215616b3157616b30615a09565b5b5f616b3e87828801615a57565b9450506020616b4f87828801615a57565b9350506040616b6087828801615a57565b9250506060616b7187828801616b05565b91505092959194509250565b616b8681615c03565b82525050565b5f602082019050616b9f5f830184616b7d565b92915050565b5f81519050616bb381616376565b92915050565b5f60208284031215616bce57616bcd615a09565b5b5f616bdb84828501616ba5565b91505092915050565b616bed81615a6b565b82525050565b616bfc81615ac0565b82525050565b5f60a082019050616c155f830188616be4565b616c226020830187616bf3565b616c2f6040830186615d70565b616c3c6060830185616bf3565b616c496080830184615d70565b9695505050505050565b7f4e487b71000000000000000000000000000000000000000000000000000000005f52601160045260245ffd5b5f616c8a82615d58565b9150616c9583615d58565b9250828201905080821115616cad57616cac616c53565b5b92915050565b5f616cbe83856164c8565b9350616ccb83858461623a565b616cd483616182565b840190509392505050565b5f6020820190508181035f830152616cf8818486616cb3565b90509392505050565b5f604082019050616d145f83018561634e565b616d216020830184615d61565b9392505050565b5f606082019050616d3b5f830186615e42565b616d486020830185615d61565b616d556040830184616bf3565b949350505050565b7f4549503731323a20556e696e697469616c697a656400000000000000000000005f82015250565b5f616d916015836164c8565b9150616d9c82616d5d565b602082019050919050565b5f6020820190508181035f830152616dbe81616d85565b9050919050565b5f60208284031215616dda57616dd9615a09565b5b5f616de784828501615ae9565b91505092915050565b5f80fd5b5f80fd5b5f80fd5b5f8083356001602003843603038112616e1857616e17616df0565b5b80840192508235915067ffffffffffffffff821115616e3a57616e39616df4565b5b602083019250600182023603831315616e5657616e55616df8565b5b509250929050565b5f616e6882615d58565b9150616e7383615d58565b9250828203905081811115616e8b57616e8a616c53565b5b92915050565b5f80fd5b5f80fd5b5f8085851115616eac57616eab616e91565b5b83861115616ebd57616ebc616e95565b5b6001850283019150848603905094509492505050565b7f4e487b71000000000000000000000000000000000000000000000000000000005f52603260045260245ffd5b5f81905092915050565b5f616f158385616f00565b9350616f2283858461623a565b82840190509392505050565b5f616f38826168c8565b616f428185616f00565b9350616f528185602086016164d8565b80840191505092915050565b5f616f6a828587616f0a565b9150616f768284616f2e565b9150819050949350505050565b5f60c082019050616f965f830189615e42565b616fa36020830188615d61565b616fb0604083018761634e565b616fbd6060830186615d61565b616fca6080830185616bf3565b616fd760a0830184616bf3565b979650505050505050565b60028110616fee575f80fd5b50565b5f81359050616fff81616fe2565b92915050565b5f6020828403121561701a57617019615a09565b5b5f61702784828501616ff1565b91505092915050565b6004811061703c575f80fd5b50565b5f8135905061704d81617030565b92915050565b5f6020828403121561706857617067615a09565b5b5f6170758482850161703f565b91505092915050565b6002811061708f5761708e615f78565b5b50565b5f81905061709f8261707e565b919050565b5f6170ae82617092565b9050919050565b6170be816170a4565b82525050565b600481106170d5576170d4615f78565b5b50565b5f8190506170e5826170c4565b919050565b5f6170f4826170d8565b9050919050565b617104816170ea565b82525050565b5f6101608201905061711e5f83018e615e42565b61712b602083018d616bf3565b617138604083018c61634e565b617145606083018b61634e565b617152608083018a61634e565b61715f60a08301896163de565b61716c60c08301886170b5565b61717960e0830187615d61565b617187610100830186615d61565b617195610120830185615d61565b6171a36101408301846170fb565b9c9b505050505050505050505050565b5f60e0820190506171c65f83018a61634e565b6171d3602083018961634e565b6171e06040830188615d61565b6171ed6060830187615d61565b6171fa6080830186616b7d565b61720760a0830185615e42565b61721460c0830184615e42565b98975050505050505050565b5f819050919050565b5f61724361723e61723984617220565b61675f565b615ac0565b9050919050565b61725381617229565b82525050565b5f60208201905061726c5f83018461724a565b92915050565b5f8151905061728081615cf0565b92915050565b5f6020828403121561729b5761729a615a09565b5b5f6172a884828501617272565b91505092915050565b5f6172bb82615ac0565b91506172c683615ac0565b9250828203905067ffffffffffffffff8111156172e6576172e5616c53565b5b92915050565b5f8160011c9050919050565b5f808291508390505b60018511156173415780860481111561731d5761731c616c53565b5b600185161561732c5780820291505b808102905061733a856172ec565b9450617301565b94509492505050565b5f826173595760019050617414565b81617366575f9050617414565b816001811461737c5760028114617386576173b5565b6001915050617414565b60ff84111561739857617397616c53565b5b8360020a9150848211156173af576173ae616c53565b5b50617414565b5060208310610133831016604e8410600b84101617156173ea5782820a9050838111156173e5576173e4616c53565b5b617414565b6173f784848460016172f8565b9250905081840481111561740e5761740d616c53565b5b81810290505b9392505050565b5f61742582615d58565b915061743083615ac0565b925061745d7fffffffffffffffffffffffffffffffffffffffffffffffffffffffffffffffff848461734a565b905092915050565b5f61746f82615d58565b915061747a83615d58565b925082820261748881615d58565b9150828204841483151761749f5761749e616c53565b5b5092915050565b7f4e487b71000000000000000000000000000000000000000000000000000000005f52601260045260245ffd5b5f6174dd82615d58565b91506174e883615d58565b9250826174f8576174f76174a6565b5b828204905092915050565b5f6060820190506175165f83018661634e565b617523602083018561634e565b6175306040830184615d61565b949350505050565b5f61754282615c03565b915061754d83615c03565b9250828203905060ff81111561756657617565616c53565b5b92915050565b5f61757682615d58565b915061758183615c03565b92506175ae7fffffffffffffffffffffffffffffffffffffffffffffffffffffffffffffffff848461734a565b905092915050565b5f6175c082615d58565b91506175cb83615d58565b9250826175db576175da6174a6565b5b828206905092915050565b5f6175f46020840184615ae9565b905092915050565b5f61760a6020840184615a57565b905092915050565b61761b81615a30565b82525050565b5f61762f6020840184615d06565b905092915050565b5f6176456020840184616ff1565b905092915050565b617656816170a4565b82525050565b5f61766a6020840184615dbc565b905092915050565b5f617680602084018461703f565b905092915050565b617691816170ea565b82525050565b61014082016176a85f8301836175e6565b6176b45f850182615c2d565b506176c260208301836175fc565b6176cf6020850182617612565b506176dd60408301836175fc565b6176ea6040850182617612565b506176f860608301836175fc565b6177056060850182617612565b506177136080830183617621565b6177206080850182615bf4565b5061772e60a0830183617637565b61773b60a085018261764d565b5061774960c083018361765c565b61775660c0850182616547565b5061776460e083018361765c565b61777160e0850182616547565b5061778061010083018361765c565b61778e610100850182616547565b5061779d610120830183617672565b6177ab610120850182617688565b50505050565b5f610160820190506177c55f830185617697565b6177d3610140830184615d61565b9392505050565b5f815190506177e881616a17565b92915050565b5f6020828403121561780357617802615a09565b5b5f617810848285016177da565b91505092915050565b7f4e487b71000000000000000000000000000000000000000000000000000000005f52602260045260245ffd5b5f600282049050600182168061785d57607f821691505b6020821081036178705761786f617819565b5b50919050565b5f8160601b9050919050565b5f61788c82617876565b9050919050565b5f61789d82617882565b9050919050565b6178b56178b082615a30565b617893565b82525050565b5f6178c682856178a4565b6014820191506178d682846178a4565b6014820191508190509392505050565b5f6178f18284616f2e565b915081905092915050565b5f60608201905061790f5f830186615d61565b61791c6020830185615d61565b6179296040830184615d61565b949350505050565b5f60a0820190506179445f830188615e42565b6179516020830187615e42565b61795e6040830186615e42565b61796b6060830185615d61565b617978608083018461634e565b9695505050505050565b5f6040820190506179955f830185615d61565b6179a26020830184615d61565b9392505050565b5f60a0820190506179bc5f83018861634e565b6179c96020830187615d61565b6179d66040830186615d61565b6179e36060830185615d61565b6179f060808301846163de565b9695505050505050565b5f819050815f5260205f209050919050565b5f6020601f8301049050919050565b5f82821b905092915050565b5f60088302617a567fffffffffffffffffffffffffffffffffffffffffffffffffffffffffffffffff82617a1b565b617a608683617a1b565b95508019841693508086168417925050509392505050565b5f617a92617a8d617a8884615d58565b61675f565b615d58565b9050919050565b5f819050919050565b617aab83617a78565b617abf617ab782617a99565b848454617a27565b825550505050565b5f90565b617ad3617ac7565b617ade818484617aa2565b505050565b5b81811015617b0157617af65f82617acb565b600181019050617ae4565b5050565b601f821115617b4657617b17816179fa565b617b2084617a0c565b81016020851015617b2f578190505b617b43617b3b85617a0c565b830182617ae3565b50505b505050565b5f82821c905092915050565b5f617b665f1984600802617b4b565b1980831691505092915050565b5f617b7e8383617b57565b9150826002028217905092915050565b617b97826164be565b67ffffffffffffffff811115617bb057617baf616192565b5b617bba8254617846565b617bc5828285617b05565b5f60209050601f831160018114617bf6575f8415617be4578287015190505b617bee8582617b73565b865550617c55565b601f198416617c04866179fa565b5f5b82811015617c2b57848901518255600182019150602085019450602081019050617c06565b86831015617c485784890151617c44601f891682617b57565b8355505b6001600288020188555050505b505050505050565b5f608082019050617c705f830187615e42565b617c7d6020830186616b7d565b617c8a6040830185615e42565b617c976060830184615e42565b9594505050505056fea26469706673582212208759d9be5248cac1d0135cb4a9bac5d1952141800ac55757f917994f124d080c64736f6c63430008190033","linkReferences":{}},"methodIdentifiers":{"DOMAIN_SEPARATOR()":"3644e515","UPGRADE_INTERFACE_VERSION()":"ad3cb1cc","acceptOwnership()":"79ba5097","cancelOrder((uint64,address,address,address,bool,uint8,uint256,uint256,uint256,uint8),string)":"394a4c5c","createOrder((uint64,address,address,address,bool,uint8,uint256,uint256,uint256,uint8),(uint256,address,uint256,uint64,uint64),bytes)":"464bbe26","createOrderStandardFees((uint64,address,address,address,bool,uint8,uint256,uint256,uint256,uint8))":"aa2165f1","createOrderWithSignature((uint64,address,address,address,bool,uint8,uint256,uint256,uint256,uint8),(uint64,bytes),(uint256,address,uint256,uint64,uint64),bytes)":"901b7e43","dShareFactory()":"a70c5633","eip712Domain()":"84b0196e","fillOrder((uint64,address,address,address,bool,uint8,uint256,uint256,uint256,uint8),uint256,uint256,uint256)":"4bf79b4c","getFeesEscrowed(uint256)":"904adece","getFeesTaken(uint256)":"69352a90","getOrderStatus(uint256)":"45fa8aae","getPaymentTokenConfig(address)":"15984f11","getReceivedAmount(uint256)":"61ecbb44","getStandardFees(bool,address)":"236970d4","getUnfilledAmount(uint256)":"81fed708","hashFeeQuote((uint256,address,uint256,uint64,uint64))":"b0eb27f8","hashOrder((uint64,address,address,address,bool,uint8,uint256,uint256,uint256,uint8))":"d386e166","hashOrderRequest((uint64,address,address,address,bool,uint8,uint256,uint256,uint256,uint8),uint64)":"6ecebc36","initialize(address,address,address,address)":"f8c8765e","isOperator(address)":"6d70f7ae","isTransferLocked(address,address)":"81385480","latestFillPrice(address,address)":"a377cfbf","multicall(bytes[])":"ac9650d8","orderDecimalReduction(address)":"fc75f9ed","ordersPaused()":"d87f8ee1","owner()":"8da5cb5b","pendingOwner()":"e30c3978","proxiableUUID()":"52d1902d","removePaymentToken(address)":"a5125421","renounceOwnership()":"715018a6","requestCancel(uint256)":"e683a2d4","selfPermit(address,address,uint256,uint256,uint8,bytes32,bytes32)":"f64f67de","setOperator(address,bool)":"558a7297","setOrderDecimalReduction(address,uint8)":"68bad2cf","setOrdersPaused(bool)":"4b5e6890","setPaymentToken(address,bytes4,uint64,uint24,uint64,uint24)":"01a7cdb3","setTreasury(address)":"f0f44260","setVault(address)":"6817031b","totalStandardFee(bool,address,uint256)":"23a3c10d","transferOwnership(address)":"f2fde38b","treasury()":"61d027b3","upgradeToAndCall(address,bytes)":"4f1ef286","vault()":"fbfa77cf"},"id":19}