{"abi":[{"type":"function","name":"burnRequestNonce","inputs":[{"name":"","type":"bytes32","internalType":"bytes32"}],"outputs":[{"name":"","type":"uint256","internalType":"uint256"}],"stateMutability":"view"},{"type":"function","name":"burnRequests","inputs":[{"name":"","type":"uint256","internalType":"uint256"}],"outputs":[{"name":"requester","type":"address","internalType":"address"},{"name":"amount","type":"uint256","internalType":"uint256"},{"name":"nonce","type":"uint256","internalType":"uint256"},{"name":"timestamp","type":"uint256","internalType":"uint256"},{"name":"status","type":"uint8","internalType":"enum IndexFactory.RequestStatus"}],"stateMutability":"view"},{"type":"function","name":"custodianWallet","inputs":[],"outputs":[{"name":"","type":"address","internalType":"address"}],"stateMutability":"view"},{"type":"function","name":"getAllBurnRequests","inputs":[],"outputs":[{"name":"","type":"tuple[]","internalType":"struct IndexFactory.Request[]","components":[{"name":"requester","type":"address","internalType":"address"},{"name":"amount","type":"uint256","internalType":"uint256"},{"name":"depositAddresses","type":"address[]","internalType":"address[]"},{"name":"nonce","type":"uint256","internalType":"uint256"},{"name":"timestamp","type":"uint256","internalType":"uint256"},{"name":"status","type":"uint8","internalType":"enum IndexFactory.RequestStatus"}]}],"stateMutability":"view"},{"type":"function","name":"getAllMintRequests","inputs":[],"outputs":[{"name":"","type":"tuple[]","internalType":"struct IndexFactory.Request[]","components":[{"name":"requester","type":"address","internalType":"address"},{"name":"amount","type":"uint256","internalType":"uint256"},{"name":"depositAddresses","type":"address[]","internalType":"address[]"},{"name":"nonce","type":"uint256","internalType":"uint256"},{"name":"timestamp","type":"uint256","internalType":"uint256"},{"name":"status","type":"uint8","internalType":"enum IndexFactory.RequestStatus"}]}],"stateMutability":"view"},{"type":"function","name":"initialize","inputs":[{"name":"_usdc","type":"address","internalType":"address"},{"name":"_usdcDecimals","type":"uint8","internalType":"uint8"}],"outputs":[],"stateMutability":"nonpayable"},{"type":"function","name":"issuer","inputs":[],"outputs":[{"name":"","type":"address","internalType":"address"}],"stateMutability":"view"},{"type":"function","name":"mintRequestNonce","inputs":[{"name":"","type":"bytes32","internalType":"bytes32"}],"outputs":[{"name":"","type":"uint256","internalType":"uint256"}],"stateMutability":"view"},{"type":"function","name":"mintRequests","inputs":[{"name":"","type":"uint256","internalType":"uint256"}],"outputs":[{"name":"requester","type":"address","internalType":"address"},{"name":"amount","type":"uint256","internalType":"uint256"},{"name":"nonce","type":"uint256","internalType":"uint256"},{"name":"timestamp","type":"uint256","internalType":"uint256"},{"name":"status","type":"uint8","internalType":"enum IndexFactory.RequestStatus"}],"stateMutability":"view"},{"type":"function","name":"owner","inputs":[],"outputs":[{"name":"","type":"address","internalType":"address"}],"stateMutability":"view"},{"type":"function","name":"pause","inputs":[],"outputs":[],"stateMutability":"nonpayable"},{"type":"function","name":"paused","inputs":[],"outputs":[{"name":"","type":"bool","internalType":"bool"}],"stateMutability":"view"},{"type":"function","name":"renounceOwnership","inputs":[],"outputs":[],"stateMutability":"nonpayable"},{"type":"function","name":"setUsdcAddress","inputs":[{"name":"_usdc","type":"address","internalType":"address"},{"name":"_usdcDecimals","type":"uint8","internalType":"uint8"}],"outputs":[{"name":"","type":"bool","internalType":"bool"}],"stateMutability":"nonpayable"},{"type":"function","name":"transferOwnership","inputs":[{"name":"newOwner","type":"address","internalType":"address"}],"outputs":[],"stateMutability":"nonpayable"},{"type":"function","name":"unpause","inputs":[],"outputs":[],"stateMutability":"nonpayable"},{"type":"function","name":"usdc","inputs":[],"outputs":[{"name":"","type":"address","internalType":"address"}],"stateMutability":"view"},{"type":"function","name":"usdcDecimals","inputs":[],"outputs":[{"name":"","type":"uint8","internalType":"uint8"}],"stateMutability":"view"},{"type":"event","name":"Initialized","inputs":[{"name":"version","type":"uint64","indexed":false,"internalType":"uint64"}],"anonymous":false},{"type":"event","name":"OwnershipTransferred","inputs":[{"name":"previousOwner","type":"address","indexed":true,"internalType":"address"},{"name":"newOwner","type":"address","indexed":true,"internalType":"address"}],"anonymous":false},{"type":"event","name":"Paused","inputs":[{"name":"account","type":"address","indexed":false,"internalType":"address"}],"anonymous":false},{"type":"event","name":"Unpaused","inputs":[{"name":"account","type":"address","indexed":false,"internalType":"address"}],"anonymous":false},{"type":"error","name":"EnforcedPause","inputs":[]},{"type":"error","name":"ExpectedPause","inputs":[]},{"type":"error","name":"InvalidInitialization","inputs":[]},{"type":"error","name":"NotInitializing","inputs":[]},{"type":"error","name":"OwnableInvalidOwner","inputs":[{"name":"owner","type":"address","internalType":"address"}]},{"type":"error","name":"OwnableUnauthorizedAccount","inputs":[{"name":"account","type":"address","internalType":"address"}]}],"bytecode":{"object":"0x6080604052348015600f57600080fd5b50610c5a8061001f6000396000f3fe608060405234801561001057600080fd5b50600436106101165760003560e01c8063715018a6116100a2578063943b24b211610071578063943b24b2146102595780639ad4b86b1461026c578063c72551be1461029a578063eab2a711146102ba578063f2fde38b146102cd57600080fd5b8063715018a6146101f35780637bf42165146101fb5780638456cb59146102215780638da5cb5b1461022957600080fd5b80633f4ba83a116100e95780633f4ba83a14610186578063424e6575146101905780635c975abb146101b45780636406c10c146101d857806364c70d45146101eb57600080fd5b80631d1438481461011b5780631e106e991461014b5780631e7aa9f41461015e5780633e413bee14610173575b600080fd5b60015461012e906001600160a01b031681565b6040516001600160a01b0390911681526020015b60405180910390f35b60005461012e906001600160a01b031681565b6101666102e0565b6040516101429190610a4f565b60025461012e906001600160a01b031681565b61018e6103fc565b005b6101a361019e366004610b34565b61040e565b604051610142959493929190610b4d565b600080516020610c058339815191525460ff165b6040519015158152602001610142565b6101a36101e6366004610b34565b61045c565b61016661046c565b61018e61057f565b60025461020f90600160a01b900460ff1681565b60405160ff9091168152602001610142565b61018e610591565b7f9016d09d72d40fdae2fd8ceac6b6234c7706214fd39c1cd1e609a0528c199300546001600160a01b031661012e565b61018e610267366004610ba5565b6105a1565b61028c61027a366004610b34565b60036020526000908152604090205481565b604051908152602001610142565b61028c6102a8366004610b34565b60046020526000908152604090205481565b6101c86102c8366004610ba5565b6106e2565b61018e6102db366004610be2565b610770565b60606006805480602002602001604051908101604052809291908181526020016000905b828210156103f35760008481526020908190206040805160c0810182526006860290920180546001600160a01b03168352600181015483850152600281018054835181870281018701855281815294959294938601939283018282801561039457602002820191906000526020600020905b81546001600160a01b03168152600190910190602001808311610376575b5050509183525050600382015460208201526004808301546040830152600583015460609092019160ff16908111156103cf576103cf610a17565b60048111156103e0576103e0610a17565b8152505081526020019060010190610304565b50505050905090565b6104046107ae565b61040c610809565b565b6005818154811061041e57600080fd5b6000918252602090912060069091020180546001820154600383015460048401546005909401546001600160a01b0390931694509092909160ff1685565b6006818154811061041e57600080fd5b60606005805480602002602001604051908101604052809291908181526020016000905b828210156103f35760008481526020908190206040805160c0810182526006860290920180546001600160a01b03168352600181015483850152600281018054835181870281018701855281815294959294938601939283018282801561052057602002820191906000526020600020905b81546001600160a01b03168152600190910190602001808311610502575b5050509183525050600382015460208201526004808301546040830152600583015460609092019160ff169081111561055b5761055b610a17565b600481111561056c5761056c610a17565b8152505081526020019060010190610490565b6105876107ae565b61040c6000610869565b6105996107ae565b61040c6108da565b7ff0c57e16840df040f15088dc2f81fe391c3923bec73e23a9662efc9c229c6a008054600160401b810460ff16159067ffffffffffffffff166000811580156105e75750825b905060008267ffffffffffffffff1660011480156106045750303b155b905081158015610612575080155b156106305760405163f92ee8a960e01b815260040160405180910390fd5b845467ffffffffffffffff19166001178555831561065a57845460ff60401b1916600160401b1785555b6002805460ff8816600160a01b026001600160a81b03199091166001600160a01b038a161717905561068b33610923565b610693610934565b83156106d957845460ff60401b19168555604051600181527fc7f505b2f371ae2175ee4913f4499e1f2633a7b5936321eed1cdaeb6115181d29060200160405180910390a15b50505050505050565b60006106ec6107ae565b6001600160a01b03831661073f5760405162461bcd60e51b8152602060048201526015602482015274696e76616c696420746f6b656e206164647265737360581b60448201526064015b60405180910390fd5b506002805460ff8316600160a01b026001600160a81b03199091166001600160a01b03851617179055600192915050565b6107786107ae565b6001600160a01b0381166107a257604051631e4fbdf760e01b815260006004820152602401610736565b6107ab81610869565b50565b336107e07f9016d09d72d40fdae2fd8ceac6b6234c7706214fd39c1cd1e609a0528c199300546001600160a01b031690565b6001600160a01b03161461040c5760405163118cdaa760e01b8152336004820152602401610736565b610811610944565b600080516020610c05833981519152805460ff191681557f5db9ee0a495bf2e6ff9c91a7834c1ba4fdd244a5e8aa4e537bd38aeae4b073aa335b6040516001600160a01b03909116815260200160405180910390a150565b7f9016d09d72d40fdae2fd8ceac6b6234c7706214fd39c1cd1e609a0528c19930080546001600160a01b031981166001600160a01b03848116918217845560405192169182907f8be0079c531659141344cd1fd0a4f28419497f9722a3daafe3b4186f6b6457e090600090a3505050565b6108e2610974565b600080516020610c05833981519152805460ff191660011781557f62e78cea01bee320cd4e420270b5ea74000d11b0c9f74754ebdbfc544b05a2583361084b565b61092b6109a5565b6107ab816109ee565b61093c6109a5565b61040c6109f6565b600080516020610c058339815191525460ff1661040c57604051638dfc202b60e01b815260040160405180910390fd5b600080516020610c058339815191525460ff161561040c5760405163d93c066560e01b815260040160405180910390fd5b7ff0c57e16840df040f15088dc2f81fe391c3923bec73e23a9662efc9c229c6a0054600160401b900460ff1661040c57604051631afcd79f60e31b815260040160405180910390fd5b6107786109a5565b6109fe6109a5565b600080516020610c05833981519152805460ff19169055565b634e487b7160e01b600052602160045260246000fd5b60058110610a4b57634e487b7160e01b600052602160045260246000fd5b9052565b600060208083018184528085518083526040925060408601915060408160051b8701018488016000805b84811015610b2557898403603f19018652825180516001600160a01b039081168652898201518a8701528882015160c08a8801819052815190880181905260e0880192918c01919086905b80821015610ae657835183168552938d0193928d019260019190910190610ac4565b50505050606082810151908701526080808301519087015260a09182015191610b1181880184610a2d565b509689019694505091870191600101610a79565b50919998505050505050505050565b600060208284031215610b4657600080fd5b5035919050565b6001600160a01b038616815260208101859052604081018490526060810183905260a08101610b7f6080830184610a2d565b9695505050505050565b80356001600160a01b0381168114610ba057600080fd5b919050565b60008060408385031215610bb857600080fd5b610bc183610b89565b9150602083013560ff81168114610bd757600080fd5b809150509250929050565b600060208284031215610bf457600080fd5b610bfd82610b89565b939250505056fecd5ed15c6e187e77e9aee88184c21f4f2182ab5827cb3b7e07fbedcd63f03300a2646970667358221220ed48624f7dc2f174a40bf68b4d311ac09c57cc9b5dd4b8929b713d1a809b435e64736f6c63430008190033","linkReferences":{}},"methodIdentifiers":{"burnRequestNonce(bytes32)":"c72551be","burnRequests(uint256)":"6406c10c","custodianWallet()":"1e106e99","getAllBurnRequests()":"1e7aa9f4","getAllMintRequests()":"64c70d45","initialize(address,uint8)":"943b24b2","issuer()":"1d143848","mintRequestNonce(bytes32)":"9ad4b86b","mintRequests(uint256)":"424e6575","owner()":"8da5cb5b","pause()":"8456cb59","paused()":"5c975abb","renounceOwnership()":"715018a6","setUsdcAddress(address,uint8)":"eab2a711","transferOwnership(address)":"f2fde38b","unpause()":"3f4ba83a","usdc()":"3e413bee","usdcDecimals()":"7bf42165"},"id":0}