{"abi":[{"type":"function","name":"burnRequestNonce","inputs":[{"name":"","type":"bytes32","internalType":"bytes32"}],"outputs":[{"name":"","type":"uint256","internalType":"uint256"}],"stateMutability":"view"},{"type":"function","name":"burnRequests","inputs":[{"name":"","type":"uint256","internalType":"uint256"}],"outputs":[{"name":"requester","type":"address","internalType":"address"},{"name":"amount","type":"uint256","internalType":"uint256"},{"name":"nonce","type":"uint256","internalType":"uint256"},{"name":"timestamp","type":"uint256","internalType":"uint256"},{"name":"status","type":"uint8","internalType":"enum IndexFactory.RequestStatus"}],"stateMutability":"view"},{"type":"function","name":"custodianWallet","inputs":[],"outputs":[{"name":"","type":"address","internalType":"address"}],"stateMutability":"view"},{"type":"function","name":"getAllBurnRequests","inputs":[],"outputs":[{"name":"","type":"tuple[]","internalType":"struct IndexFactory.Request[]","components":[{"name":"requester","type":"address","internalType":"address"},{"name":"amount","type":"uint256","internalType":"uint256"},{"name":"depositAddresses","type":"address[]","internalType":"address[]"},{"name":"nonce","type":"uint256","internalType":"uint256"},{"name":"timestamp","type":"uint256","internalType":"uint256"},{"name":"status","type":"uint8","internalType":"enum IndexFactory.RequestStatus"}]}],"stateMutability":"view"},{"type":"function","name":"getAllMintRequests","inputs":[],"outputs":[{"name":"","type":"tuple[]","internalType":"struct IndexFactory.Request[]","components":[{"name":"requester","type":"address","internalType":"address"},{"name":"amount","type":"uint256","internalType":"uint256"},{"name":"depositAddresses","type":"address[]","internalType":"address[]"},{"name":"nonce","type":"uint256","internalType":"uint256"},{"name":"timestamp","type":"uint256","internalType":"uint256"},{"name":"status","type":"uint8","internalType":"enum IndexFactory.RequestStatus"}]}],"stateMutability":"view"},{"type":"function","name":"initialize","inputs":[{"name":"_usdc","type":"address","internalType":"address"},{"name":"_usdcDecimals","type":"uint8","internalType":"uint8"},{"name":"_issuer","type":"address","internalType":"address"}],"outputs":[],"stateMutability":"nonpayable"},{"type":"function","name":"issuer","inputs":[],"outputs":[{"name":"","type":"address","internalType":"contract IOrderProcessor"}],"stateMutability":"view"},{"type":"function","name":"mintRequestNonce","inputs":[{"name":"","type":"bytes32","internalType":"bytes32"}],"outputs":[{"name":"","type":"uint256","internalType":"uint256"}],"stateMutability":"view"},{"type":"function","name":"mintRequests","inputs":[{"name":"","type":"uint256","internalType":"uint256"}],"outputs":[{"name":"requester","type":"address","internalType":"address"},{"name":"amount","type":"uint256","internalType":"uint256"},{"name":"nonce","type":"uint256","internalType":"uint256"},{"name":"timestamp","type":"uint256","internalType":"uint256"},{"name":"status","type":"uint8","internalType":"enum IndexFactory.RequestStatus"}],"stateMutability":"view"},{"type":"function","name":"owner","inputs":[],"outputs":[{"name":"","type":"address","internalType":"address"}],"stateMutability":"view"},{"type":"function","name":"pause","inputs":[],"outputs":[],"stateMutability":"nonpayable"},{"type":"function","name":"paused","inputs":[],"outputs":[{"name":"","type":"bool","internalType":"bool"}],"stateMutability":"view"},{"type":"function","name":"renounceOwnership","inputs":[],"outputs":[],"stateMutability":"nonpayable"},{"type":"function","name":"requestBuyOrder","inputs":[{"name":"recipient","type":"address","internalType":"address"},{"name":"orderAmount","type":"uint256","internalType":"uint256"}],"outputs":[{"name":"","type":"uint256","internalType":"uint256"}],"stateMutability":"nonpayable"},{"type":"function","name":"requestSellOrder","inputs":[{"name":"orderAmount","type":"uint256","internalType":"uint256"}],"outputs":[{"name":"","type":"uint256","internalType":"uint256"}],"stateMutability":"nonpayable"},{"type":"function","name":"setUsdcAddress","inputs":[{"name":"_usdc","type":"address","internalType":"address"},{"name":"_usdcDecimals","type":"uint8","internalType":"uint8"}],"outputs":[{"name":"","type":"bool","internalType":"bool"}],"stateMutability":"nonpayable"},{"type":"function","name":"token","inputs":[],"outputs":[{"name":"","type":"address","internalType":"address"}],"stateMutability":"view"},{"type":"function","name":"transferOwnership","inputs":[{"name":"newOwner","type":"address","internalType":"address"}],"outputs":[],"stateMutability":"nonpayable"},{"type":"function","name":"unpause","inputs":[],"outputs":[],"stateMutability":"nonpayable"},{"type":"function","name":"usdc","inputs":[],"outputs":[{"name":"","type":"address","internalType":"address"}],"stateMutability":"view"},{"type":"function","name":"usdcDecimals","inputs":[],"outputs":[{"name":"","type":"uint8","internalType":"uint8"}],"stateMutability":"view"},{"type":"event","name":"Initialized","inputs":[{"name":"version","type":"uint64","indexed":false,"internalType":"uint64"}],"anonymous":false},{"type":"event","name":"OwnershipTransferred","inputs":[{"name":"previousOwner","type":"address","indexed":true,"internalType":"address"},{"name":"newOwner","type":"address","indexed":true,"internalType":"address"}],"anonymous":false},{"type":"event","name":"Paused","inputs":[{"name":"account","type":"address","indexed":false,"internalType":"address"}],"anonymous":false},{"type":"event","name":"Unpaused","inputs":[{"name":"account","type":"address","indexed":false,"internalType":"address"}],"anonymous":false},{"type":"error","name":"EnforcedPause","inputs":[]},{"type":"error","name":"ExpectedPause","inputs":[]},{"type":"error","name":"InvalidInitialization","inputs":[]},{"type":"error","name":"NotInitializing","inputs":[]},{"type":"error","name":"OwnableInvalidOwner","inputs":[{"name":"owner","type":"address","internalType":"address"}]},{"type":"error","name":"OwnableUnauthorizedAccount","inputs":[{"name":"account","type":"address","internalType":"address"}]},{"type":"error","name":"PRBMath_MulDiv_Overflow","inputs":[{"name":"x","type":"uint256","internalType":"uint256"},{"name":"y","type":"uint256","internalType":"uint256"},{"name":"denominator","type":"uint256","internalType":"uint256"}]}],"bytecode":{"object":"0x6080604052348015600f57600080fd5b506113a98061001f6000396000f3fe608060405234801561001057600080fd5b50600436106101375760003560e01c80637bf42165116100b8578063c72551be1161007c578063c72551be146102bb578063d5151fbd146102db578063eab2a711146102ee578063f2fde38b14610301578063f35f9e4514610314578063fc0c546a1461032757600080fd5b80637bf421651461021c5780638456cb59146102425780638da5cb5b1461024a5780639ad4b86b1461027a578063b9f7fb81146102a857600080fd5b8063424e6575116100ff578063424e6575146101b15780635c975abb146101d55780636406c10c146101f957806364c70d451461020c578063715018a61461021457600080fd5b80631d1438481461013c5780631e106e991461016c5780631e7aa9f41461017f5780633e413bee146101945780633f4ba83a146101a7575b600080fd5b60015461014f906001600160a01b031681565b6040516001600160a01b0390911681526020015b60405180910390f35b60005461014f906001600160a01b031681565b61018761033a565b6040516101639190610fa1565b60025461014f906001600160a01b031681565b6101af610456565b005b6101c46101bf366004611086565b610468565b60405161016395949392919061109f565b6000805160206113548339815191525460ff165b6040519015158152602001610163565b6101c4610207366004611086565b6104b6565b6101876104c6565b6101af6105d9565b60025461023090600160a01b900460ff1681565b60405160ff9091168152602001610163565b6101af6105eb565b7f9016d09d72d40fdae2fd8ceac6b6234c7706214fd39c1cd1e609a0528c199300546001600160a01b031661014f565b61029a610288366004611086565b60046020526000908152604090205481565b604051908152602001610163565b61029a6102b6366004611086565b6105fb565b61029a6102c9366004611086565b60056020526000908152604090205481565b61029a6102e93660046110f7565b610707565b6101e96102fc366004611132565b6108c6565b6101af61030f366004611165565b610954565b6101af610322366004611180565b610992565b60035461014f906001600160a01b031681565b60606007805480602002602001604051908101604052809291908181526020016000905b8282101561044d5760008481526020908190206040805160c0810182526006860290920180546001600160a01b0316835260018101548385015260028101805483518187028101870185528181529495929493860193928301828280156103ee57602002820191906000526020600020905b81546001600160a01b031681526001909101906020018083116103d0575b5050509183525050600382015460208201526004808301546040830152600583015460609092019160ff169081111561042957610429610f77565b600481111561043a5761043a610f77565b815250508152602001906001019061035e565b50505050905090565b61045e610af0565b610466610b4b565b565b6006818154811061047857600080fd5b6000918252602090912060069091020180546001820154600383015460048401546005909401546001600160a01b0390931694509092909160ff1685565b6007818154811061047857600080fd5b60606006805480602002602001604051908101604052809291908181526020016000905b8282101561044d5760008481526020908190206040805160c0810182526006860290920180546001600160a01b03168352600181015483850152600281018054835181870281018701855281815294959294938601939283018282801561057a57602002820191906000526020600020905b81546001600160a01b0316815260019091019060200180831161055c575b5050509183525050600382015460208201526004808301546040830152600583015460609092019160ff16908111156105b5576105b5610f77565b60048111156105c6576105c6610f77565b81525050815260200190600101906104ea565b6105e1610af0565b6104666000610bab565b6105f3610af0565b610466610c1c565b6000806106086001610c65565b60c0810184905260035460015460405163095ea7b360e01b81526001600160a01b03918216600482015260248101879052929350169063095ea7b3906044016020604051808303816000875af1158015610666573d6000803e3d6000fd5b505050506040513d601f19601f8201168201806040525081019061068a91906111c3565b5060015460405163aa2165f160e01b81526000916001600160a01b03169063aa2165f1906106bc908590600401611205565b6020604051808303816000875af11580156106db573d6000803e3d6000fd5b505050506040513d601f19601f820116820180604052508101906106ff91906112cb565b949350505050565b6001546002546040516308da5c3560e21b81526000600482018190526001600160a01b039283166024830152928392839291169063236970d4906044016040805180830381865afa158015610760573d6000803e3d6000fd5b505050506040513d601f19601f8201168201806040525081019061078491906112e4565b9150915060006107948286610d1d565b61079e908461131c565b905060006107ac6000610c65565b30602082015260e08101879052905060006107c7838861131c565b60025460015460405163095ea7b360e01b81526001600160a01b03918216600482015260248101849052929350169063095ea7b3906044016020604051808303816000875af115801561081e573d6000803e3d6000fd5b505050506040513d601f19601f8201168201806040525081019061084291906111c3565b5060015460405163aa2165f160e01b81526000916001600160a01b03169063aa2165f190610874908690600401611205565b6020604051808303816000875af1158015610893573d6000803e3d6000fd5b505050506040513d601f19601f820116820180604052508101906108b791906112cb565b96505050505050505b92915050565b60006108d0610af0565b6001600160a01b0383166109235760405162461bcd60e51b8152602060048201526015602482015274696e76616c696420746f6b656e206164647265737360581b60448201526064015b60405180910390fd5b506002805460ff8316600160a01b026001600160a81b03199091166001600160a01b03851617179055600192915050565b61095c610af0565b6001600160a01b03811661098657604051631e4fbdf760e01b81526000600482015260240161091a565b61098f81610bab565b50565b7ff0c57e16840df040f15088dc2f81fe391c3923bec73e23a9662efc9c229c6a008054600160401b810460ff16159067ffffffffffffffff166000811580156109d85750825b905060008267ffffffffffffffff1660011480156109f55750303b155b905081158015610a03575080155b15610a215760405163f92ee8a960e01b815260040160405180910390fd5b845467ffffffffffffffff191660011785558315610a4b57845460ff60401b1916600160401b1785555b600280546001600160a01b038a81166001600160a81b031990921691909117600160a01b60ff8b160217909155600180546001600160a01b031916918816919091179055610a9833610d4d565b610aa0610d5e565b8315610ae657845460ff60401b19168555604051600181527fc7f505b2f371ae2175ee4913f4499e1f2633a7b5936321eed1cdaeb6115181d29060200160405180910390a15b5050505050505050565b33610b227f9016d09d72d40fdae2fd8ceac6b6234c7706214fd39c1cd1e609a0528c199300546001600160a01b031690565b6001600160a01b0316146104665760405163118cdaa760e01b815233600482015260240161091a565b610b53610d6e565b600080516020611354833981519152805460ff191681557f5db9ee0a495bf2e6ff9c91a7834c1ba4fdd244a5e8aa4e537bd38aeae4b073aa335b6040516001600160a01b03909116815260200160405180910390a150565b7f9016d09d72d40fdae2fd8ceac6b6234c7706214fd39c1cd1e609a0528c19930080546001600160a01b031981166001600160a01b03848116918217845560405192169182907f8be0079c531659141344cd1fd0a4f28419497f9722a3daafe3b4186f6b6457e090600090a3505050565b610c24610d9e565b600080516020611354833981519152805460ff191660011781557f62e78cea01bee320cd4e420270b5ea74000d11b0c9f74754ebdbfc544b05a25833610b8d565b610c6d610f14565b604080516101408101825267ffffffffffffffff421681523060208201526003546001600160a01b03908116928201929092526002549091166060820152821515608082015260a081016000815260200183610cca576000610cd5565b68056bc75e2d631000005b68ffffffffffffffffff16815260200183610cf95768056bc75e2d63100000610cfc565b60005b68ffffffffffffffffff168152600060208201526040016001905292915050565b60008262ffffff16600003610d33576000610d46565b610d468262ffffff8516620f4240610dcf565b9392505050565b610d55610ea2565b61098f81610eeb565b610d66610ea2565b610466610ef3565b6000805160206113548339815191525460ff1661046657604051638dfc202b60e01b815260040160405180910390fd5b6000805160206113548339815191525460ff16156104665760405163d93c066560e01b815260040160405180910390fd5b6000808060001985870985870292508281108382030391505080600003610e0957838281610dff57610dff61133d565b0492505050610d46565b838110610e3a57604051630c740aef60e31b815260048101879052602481018690526044810185905260640161091a565b600084868809600260036001881981018916988990049182028318808302840302808302840302808302840302808302840302808302840302918202909203026000889003889004909101858311909403939093029303949094049190911702949350505050565b7ff0c57e16840df040f15088dc2f81fe391c3923bec73e23a9662efc9c229c6a0054600160401b900460ff1661046657604051631afcd79f60e31b815260040160405180910390fd5b61095c610ea2565b610efb610ea2565b600080516020611354833981519152805460ff19169055565b604080516101408101825260008082526020820181905291810182905260608101829052608081018290529060a0820190815260200160008152602001600081526020016000815260200160006003811115610f7257610f72610f77565b905290565b634e487b7160e01b600052602160045260246000fd5b60058110610f9d57610f9d610f77565b9052565b600060208083018184528085518083526040925060408601915060408160051b8701018488016000805b8481101561107757898403603f19018652825180516001600160a01b039081168652898201518a8701528882015160c08a8801819052815190880181905260e0880192918c01919086905b8082101561103857835183168552938d0193928d019260019190910190611016565b50505050606082810151908701526080808301519087015260a0918201519161106381880184610f8d565b509689019694505091870191600101610fcb565b50919998505050505050505050565b60006020828403121561109857600080fd5b5035919050565b6001600160a01b038616815260208101859052604081018490526060810183905260a081016110d16080830184610f8d565b9695505050505050565b80356001600160a01b03811681146110f257600080fd5b919050565b6000806040838503121561110a57600080fd5b611113836110db565b946020939093013593505050565b803560ff811681146110f257600080fd5b6000806040838503121561114557600080fd5b61114e836110db565b915061115c60208401611121565b90509250929050565b60006020828403121561117757600080fd5b610d46826110db565b60008060006060848603121561119557600080fd5b61119e846110db565b92506111ac60208501611121565b91506111ba604085016110db565b90509250925092565b6000602082840312156111d557600080fd5b81518015158114610d4657600080fd5b60028110610f9d57610f9d610f77565b60048110610f9d57610f9d610f77565b815167ffffffffffffffff1681526101408101602083015161123260208401826001600160a01b03169052565b50604083015161124d60408401826001600160a01b03169052565b50606083015161126860608401826001600160a01b03169052565b50608083015161127c608084018215159052565b5060a083015161128f60a08401826111e5565b5060c083015160c083015260e083015160e0830152610100808401518184015250610120808401516112c3828501826111f5565b505092915050565b6000602082840312156112dd57600080fd5b5051919050565b600080604083850312156112f757600080fd5b82519150602083015162ffffff8116811461131157600080fd5b809150509250929050565b808201808211156108c057634e487b7160e01b600052601160045260246000fd5b634e487b7160e01b600052601260045260246000fdfecd5ed15c6e187e77e9aee88184c21f4f2182ab5827cb3b7e07fbedcd63f03300a2646970667358221220df8477261e7d7c5fe20e067d8e62e6dcf3a20a43a8881f9184c6480cefcc6bc964736f6c63430008190033","linkReferences":{}},"methodIdentifiers":{"burnRequestNonce(bytes32)":"c72551be","burnRequests(uint256)":"6406c10c","custodianWallet()":"1e106e99","getAllBurnRequests()":"1e7aa9f4","getAllMintRequests()":"64c70d45","initialize(address,uint8,address)":"f35f9e45","issuer()":"1d143848","mintRequestNonce(bytes32)":"9ad4b86b","mintRequests(uint256)":"424e6575","owner()":"8da5cb5b","pause()":"8456cb59","paused()":"5c975abb","renounceOwnership()":"715018a6","requestBuyOrder(address,uint256)":"d5151fbd","requestSellOrder(uint256)":"b9f7fb81","setUsdcAddress(address,uint8)":"eab2a711","token()":"fc0c546a","transferOwnership(address)":"f2fde38b","unpause()":"3f4ba83a","usdc()":"3e413bee","usdcDecimals()":"7bf42165"},"id":22}