{"abi":[{"type":"function","name":"burnRequestNonce","inputs":[{"name":"","type":"bytes32","internalType":"bytes32"}],"outputs":[{"name":"","type":"uint256","internalType":"uint256"}],"stateMutability":"view"},{"type":"function","name":"burnRequests","inputs":[{"name":"","type":"uint256","internalType":"uint256"}],"outputs":[{"name":"requester","type":"address","internalType":"address"},{"name":"amount","type":"uint256","internalType":"uint256"},{"name":"nonce","type":"uint256","internalType":"uint256"},{"name":"timestamp","type":"uint256","internalType":"uint256"},{"name":"status","type":"uint8","internalType":"enum OrderManager.RequestStatus"}],"stateMutability":"view"},{"type":"function","name":"calculateFees","inputs":[{"name":"orderAmount","type":"uint256","internalType":"uint256"}],"outputs":[{"name":"","type":"uint256","internalType":"uint256"}],"stateMutability":"view"},{"type":"function","name":"custodianWallet","inputs":[],"outputs":[{"name":"","type":"address","internalType":"address"}],"stateMutability":"view"},{"type":"function","name":"getAllBurnRequests","inputs":[],"outputs":[{"name":"","type":"tuple[]","internalType":"struct OrderManager.Request[]","components":[{"name":"requester","type":"address","internalType":"address"},{"name":"amount","type":"uint256","internalType":"uint256"},{"name":"depositAddresses","type":"address[]","internalType":"address[]"},{"name":"nonce","type":"uint256","internalType":"uint256"},{"name":"timestamp","type":"uint256","internalType":"uint256"},{"name":"status","type":"uint8","internalType":"enum OrderManager.RequestStatus"}]}],"stateMutability":"view"},{"type":"function","name":"getAllMintRequests","inputs":[],"outputs":[{"name":"","type":"tuple[]","internalType":"struct OrderManager.Request[]","components":[{"name":"requester","type":"address","internalType":"address"},{"name":"amount","type":"uint256","internalType":"uint256"},{"name":"depositAddresses","type":"address[]","internalType":"address[]"},{"name":"nonce","type":"uint256","internalType":"uint256"},{"name":"timestamp","type":"uint256","internalType":"uint256"},{"name":"status","type":"uint8","internalType":"enum OrderManager.RequestStatus"}]}],"stateMutability":"view"},{"type":"function","name":"initialize","inputs":[{"name":"_usdc","type":"address","internalType":"address"},{"name":"_usdcDecimals","type":"uint8","internalType":"uint8"},{"name":"_token","type":"address","internalType":"address"},{"name":"_issuer","type":"address","internalType":"address"}],"outputs":[],"stateMutability":"nonpayable"},{"type":"function","name":"issuer","inputs":[],"outputs":[{"name":"","type":"address","internalType":"contract IOrderProcessor"}],"stateMutability":"view"},{"type":"function","name":"mintRequestNonce","inputs":[{"name":"","type":"bytes32","internalType":"bytes32"}],"outputs":[{"name":"","type":"uint256","internalType":"uint256"}],"stateMutability":"view"},{"type":"function","name":"mintRequests","inputs":[{"name":"","type":"uint256","internalType":"uint256"}],"outputs":[{"name":"requester","type":"address","internalType":"address"},{"name":"amount","type":"uint256","internalType":"uint256"},{"name":"nonce","type":"uint256","internalType":"uint256"},{"name":"timestamp","type":"uint256","internalType":"uint256"},{"name":"status","type":"uint8","internalType":"enum OrderManager.RequestStatus"}],"stateMutability":"view"},{"type":"function","name":"owner","inputs":[],"outputs":[{"name":"","type":"address","internalType":"address"}],"stateMutability":"view"},{"type":"function","name":"pause","inputs":[],"outputs":[],"stateMutability":"nonpayable"},{"type":"function","name":"paused","inputs":[],"outputs":[{"name":"","type":"bool","internalType":"bool"}],"stateMutability":"view"},{"type":"function","name":"renounceOwnership","inputs":[],"outputs":[],"stateMutability":"nonpayable"},{"type":"function","name":"requestBuyOrder","inputs":[{"name":"_token","type":"address","internalType":"address"},{"name":"orderAmount","type":"uint256","internalType":"uint256"}],"outputs":[{"name":"","type":"uint256","internalType":"uint256"}],"stateMutability":"nonpayable"},{"type":"function","name":"requestSellOrder","inputs":[{"name":"_token","type":"address","internalType":"address"},{"name":"_orderAmount","type":"uint256","internalType":"uint256"}],"outputs":[{"name":"","type":"uint256","internalType":"uint256"}],"stateMutability":"nonpayable"},{"type":"function","name":"setUsdcAddress","inputs":[{"name":"_usdc","type":"address","internalType":"address"},{"name":"_usdcDecimals","type":"uint8","internalType":"uint8"}],"outputs":[{"name":"","type":"bool","internalType":"bool"}],"stateMutability":"nonpayable"},{"type":"function","name":"token","inputs":[],"outputs":[{"name":"","type":"address","internalType":"address"}],"stateMutability":"view"},{"type":"function","name":"transferOwnership","inputs":[{"name":"newOwner","type":"address","internalType":"address"}],"outputs":[],"stateMutability":"nonpayable"},{"type":"function","name":"unpause","inputs":[],"outputs":[],"stateMutability":"nonpayable"},{"type":"function","name":"usdc","inputs":[],"outputs":[{"name":"","type":"address","internalType":"address"}],"stateMutability":"view"},{"type":"function","name":"usdcDecimals","inputs":[],"outputs":[{"name":"","type":"uint8","internalType":"uint8"}],"stateMutability":"view"},{"type":"event","name":"Initialized","inputs":[{"name":"version","type":"uint64","indexed":false,"internalType":"uint64"}],"anonymous":false},{"type":"event","name":"OwnershipTransferred","inputs":[{"name":"previousOwner","type":"address","indexed":true,"internalType":"address"},{"name":"newOwner","type":"address","indexed":true,"internalType":"address"}],"anonymous":false},{"type":"event","name":"Paused","inputs":[{"name":"account","type":"address","indexed":false,"internalType":"address"}],"anonymous":false},{"type":"event","name":"Unpaused","inputs":[{"name":"account","type":"address","indexed":false,"internalType":"address"}],"anonymous":false},{"type":"error","name":"EnforcedPause","inputs":[]},{"type":"error","name":"ExpectedPause","inputs":[]},{"type":"error","name":"InvalidInitialization","inputs":[]},{"type":"error","name":"NotInitializing","inputs":[]},{"type":"error","name":"OwnableInvalidOwner","inputs":[{"name":"owner","type":"address","internalType":"address"}]},{"type":"error","name":"OwnableUnauthorizedAccount","inputs":[{"name":"account","type":"address","internalType":"address"}]},{"type":"error","name":"PRBMath_MulDiv_Overflow","inputs":[{"name":"x","type":"uint256","internalType":"uint256"},{"name":"y","type":"uint256","internalType":"uint256"},{"name":"denominator","type":"uint256","internalType":"uint256"}]}],"bytecode":{"object":"0x6080604052348015600f57600080fd5b5061159a8061001f6000396000f3fe608060405234801561001057600080fd5b50600436106101425760003560e01c8063715018a6116100b85780639c2c58f81161007c5780639c2c58f8146102d9578063c72551be146102ec578063d5151fbd1461030c578063eab2a7111461031f578063f2fde38b14610332578063fc0c546a1461034557600080fd5b8063715018a6146102535780637bf421651461025b5780638456cb59146102815780638da5cb5b146102895780639ad4b86b146102b957600080fd5b80633f4ba83a1161010a5780633f4ba83a146101d3578063424e6575146101dd57806352238fdd146102015780635c975abb146102145780636406c10c1461023857806364c70d451461024b57600080fd5b8063169ca4cc146101475780631d1438481461016d5780631e106e99146101985780631e7aa9f4146101ab5780633e413bee146101c0575b600080fd5b61015a610155366004611173565b610358565b6040519081526020015b60405180910390f35b600154610180906001600160a01b031681565b6040516001600160a01b039091168152602001610164565b600054610180906001600160a01b031681565b6101b36104ed565b60405161016491906111c7565b600254610180906001600160a01b031681565b6101db610609565b005b6101f06101eb3660046112ac565b61061b565b6040516101649594939291906112c5565b61015a61020f3660046112ac565b610669565b6000805160206115458339815191525460ff165b6040519015158152602001610164565b6101f06102463660046112ac565b610709565b6101b3610719565b6101db61082c565b60025461026f90600160a01b900460ff1681565b60405160ff9091168152602001610164565b6101db61083e565b7f9016d09d72d40fdae2fd8ceac6b6234c7706214fd39c1cd1e609a0528c199300546001600160a01b0316610180565b61015a6102c73660046112ac565b60046020526000908152604090205481565b6101db6102e7366004611312565b61084e565b61015a6102fa3660046112ac565b60056020526000908152604090205481565b61015a61031a366004611173565b6109bd565b61022861032d366004611366565b610c04565b6101db610340366004611399565b610c92565b600354610180906001600160a01b031681565b6000806103656001610cd0565b6001600160a01b0385811660408381019190915260c0830186905260035490516323b872dd60e01b81523360048201523060248201526044810187905292935016906323b872dd906064016020604051808303816000875af11580156103cf573d6000803e3d6000fd5b505050506040513d601f19601f820116820180604052508101906103f391906113b4565b5060035460015460405163095ea7b360e01b81526001600160a01b0391821660048201526024810186905291169063095ea7b3906044016020604051808303816000875af1158015610449573d6000803e3d6000fd5b505050506040513d601f19601f8201168201806040525081019061046d91906113b4565b5060015460405163aa2165f160e01b81526000916001600160a01b03169063aa2165f19061049f9085906004016113f6565b6020604051808303816000875af11580156104be573d6000803e3d6000fd5b505050506040513d601f19601f820116820180604052508101906104e291906114bc565b925050505b92915050565b60606007805480602002602001604051908101604052809291908181526020016000905b828210156106005760008481526020908190206040805160c0810182526006860290920180546001600160a01b0316835260018101548385015260028101805483518187028101870185528181529495929493860193928301828280156105a157602002820191906000526020600020905b81546001600160a01b03168152600190910190602001808311610583575b5050509183525050600382015460208201526004808301546040830152600583015460609092019160ff16908111156105dc576105dc61119d565b60048111156105ed576105ed61119d565b8152505081526020019060010190610511565b50505050905090565b610611610d88565b610619610de3565b565b6006818154811061062b57600080fd5b6000918252602090912060069091020180546001820154600383015460048401546005909401546001600160a01b0390931694509092909160ff1685565b6001546002546040516308da5c3560e21b81526000600482018190526001600160a01b039283166024830152928392839291169063236970d4906044016040805180830381865afa1580156106c2573d6000803e3d6000fd5b505050506040513d601f19601f820116820180604052508101906106e691906114d5565b9150915060006106f68286610e43565b610700908461150d565b95945050505050565b6007818154811061062b57600080fd5b60606006805480602002602001604051908101604052809291908181526020016000905b828210156106005760008481526020908190206040805160c0810182526006860290920180546001600160a01b0316835260018101548385015260028101805483518187028101870185528181529495929493860193928301828280156107cd57602002820191906000526020600020905b81546001600160a01b031681526001909101906020018083116107af575b5050509183525050600382015460208201526004808301546040830152600583015460609092019160ff16908111156108085761080861119d565b60048111156108195761081961119d565b815250508152602001906001019061073d565b610834610d88565b6106196000610e73565b610846610d88565b610619610ee4565b7ff0c57e16840df040f15088dc2f81fe391c3923bec73e23a9662efc9c229c6a008054600160401b810460ff16159067ffffffffffffffff166000811580156108945750825b905060008267ffffffffffffffff1660011480156108b15750303b155b9050811580156108bf575080155b156108dd5760405163f92ee8a960e01b815260040160405180910390fd5b845467ffffffffffffffff19166001178555831561090757845460ff60401b1916600160401b1785555b600280546001600160a01b038b81166001600160a81b031990921691909117600160a01b60ff8c160217909155600180546001600160a01b0319908116898416179091556003805490911691891691909117905561096433610f2d565b61096c610f3e565b83156109b257845460ff60401b19168555604051600181527fc7f505b2f371ae2175ee4913f4499e1f2633a7b5936321eed1cdaeb6115181d29060200160405180910390a15b505050505050505050565b6001546002546040516308da5c3560e21b81526000600482018190526001600160a01b039283166024830152928392839291169063236970d4906044016040805180830381865afa158015610a16573d6000803e3d6000fd5b505050506040513d601f19601f82011682018060405250810190610a3a91906114d5565b915091506000610a4a8286610e43565b610a54908461150d565b90506000610a626000610cd0565b3060208201526001600160a01b038816604082015260e0810187905290506000610a8c838861150d565b6002546040516323b872dd60e01b8152336004820152306024820152604481018390529192506001600160a01b0316906323b872dd906064016020604051808303816000875af1158015610ae4573d6000803e3d6000fd5b505050506040513d601f19601f82011682018060405250810190610b0891906113b4565b5060025460015460405163095ea7b360e01b81526001600160a01b0391821660048201526024810184905291169063095ea7b3906044016020604051808303816000875af1158015610b5e573d6000803e3d6000fd5b505050506040513d601f19601f82011682018060405250810190610b8291906113b4565b5060015460405163aa2165f160e01b81526000916001600160a01b03169063aa2165f190610bb49086906004016113f6565b6020604051808303816000875af1158015610bd3573d6000803e3d6000fd5b505050506040513d601f19601f82011682018060405250810190610bf791906114bc565b9998505050505050505050565b6000610c0e610d88565b6001600160a01b038316610c615760405162461bcd60e51b8152602060048201526015602482015274696e76616c696420746f6b656e206164647265737360581b60448201526064015b60405180910390fd5b506002805460ff8316600160a01b026001600160a81b03199091166001600160a01b03851617179055600192915050565b610c9a610d88565b6001600160a01b038116610cc457604051631e4fbdf760e01b815260006004820152602401610c58565b610ccd81610e73565b50565b610cd86110f4565b604080516101408101825267ffffffffffffffff421681523060208201526003546001600160a01b03908116928201929092526002549091166060820152821515608082015260a081016000815260200183610d35576000610d40565b68056bc75e2d631000005b68ffffffffffffffffff16815260200183610d645768056bc75e2d63100000610d67565b60005b68ffffffffffffffffff168152600060208201526040016001905292915050565b33610dba7f9016d09d72d40fdae2fd8ceac6b6234c7706214fd39c1cd1e609a0528c199300546001600160a01b031690565b6001600160a01b0316146106195760405163118cdaa760e01b8152336004820152602401610c58565b610deb610f4e565b600080516020611545833981519152805460ff191681557f5db9ee0a495bf2e6ff9c91a7834c1ba4fdd244a5e8aa4e537bd38aeae4b073aa335b6040516001600160a01b03909116815260200160405180910390a150565b60008262ffffff16600003610e59576000610e6c565b610e6c8262ffffff8516620f4240610f7e565b9392505050565b7f9016d09d72d40fdae2fd8ceac6b6234c7706214fd39c1cd1e609a0528c19930080546001600160a01b031981166001600160a01b03848116918217845560405192169182907f8be0079c531659141344cd1fd0a4f28419497f9722a3daafe3b4186f6b6457e090600090a3505050565b610eec611051565b600080516020611545833981519152805460ff191660011781557f62e78cea01bee320cd4e420270b5ea74000d11b0c9f74754ebdbfc544b05a25833610e25565b610f35611082565b610ccd816110cb565b610f46611082565b6106196110d3565b6000805160206115458339815191525460ff1661061957604051638dfc202b60e01b815260040160405180910390fd5b6000808060001985870985870292508281108382030391505080600003610fb857838281610fae57610fae61152e565b0492505050610e6c565b838110610fe957604051630c740aef60e31b8152600481018790526024810186905260448101859052606401610c58565b600084868809600260036001881981018916988990049182028318808302840302808302840302808302840302808302840302808302840302918202909203026000889003889004909101858311909403939093029303949094049190911702949350505050565b6000805160206115458339815191525460ff16156106195760405163d93c066560e01b815260040160405180910390fd5b7ff0c57e16840df040f15088dc2f81fe391c3923bec73e23a9662efc9c229c6a0054600160401b900460ff1661061957604051631afcd79f60e31b815260040160405180910390fd5b610c9a611082565b6110db611082565b600080516020611545833981519152805460ff19169055565b604080516101408101825260008082526020820181905291810182905260608101829052608081018290529060a08201908152602001600081526020016000815260200160008152602001600060038111156111525761115261119d565b905290565b80356001600160a01b038116811461116e57600080fd5b919050565b6000806040838503121561118657600080fd5b61118f83611157565b946020939093013593505050565b634e487b7160e01b600052602160045260246000fd5b600581106111c3576111c361119d565b9052565b600060208083018184528085518083526040925060408601915060408160051b8701018488016000805b8481101561129d57898403603f19018652825180516001600160a01b039081168652898201518a8701528882015160c08a8801819052815190880181905260e0880192918c01919086905b8082101561125e57835183168552938d0193928d01926001919091019061123c565b50505050606082810151908701526080808301519087015260a09182015191611289818801846111b3565b5096890196945050918701916001016111f1565b50919998505050505050505050565b6000602082840312156112be57600080fd5b5035919050565b6001600160a01b038616815260208101859052604081018490526060810183905260a081016112f760808301846111b3565b9695505050505050565b803560ff8116811461116e57600080fd5b6000806000806080858703121561132857600080fd5b61133185611157565b935061133f60208601611301565b925061134d60408601611157565b915061135b60608601611157565b905092959194509250565b6000806040838503121561137957600080fd5b61138283611157565b915061139060208401611301565b90509250929050565b6000602082840312156113ab57600080fd5b610e6c82611157565b6000602082840312156113c657600080fd5b81518015158114610e6c57600080fd5b600281106111c3576111c361119d565b600481106111c3576111c361119d565b815167ffffffffffffffff1681526101408101602083015161142360208401826001600160a01b03169052565b50604083015161143e60408401826001600160a01b03169052565b50606083015161145960608401826001600160a01b03169052565b50608083015161146d608084018215159052565b5060a083015161148060a08401826113d6565b5060c083015160c083015260e083015160e0830152610100808401518184015250610120808401516114b4828501826113e6565b505092915050565b6000602082840312156114ce57600080fd5b5051919050565b600080604083850312156114e857600080fd5b82519150602083015162ffffff8116811461150257600080fd5b809150509250929050565b808201808211156104e757634e487b7160e01b600052601160045260246000fd5b634e487b7160e01b600052601260045260246000fdfecd5ed15c6e187e77e9aee88184c21f4f2182ab5827cb3b7e07fbedcd63f03300a264697066735822122011ff6610e45e87b8a3cfec04aa52525fba7bc92873a662fe28f48433254a9b9964736f6c63430008190033","linkReferences":{}},"methodIdentifiers":{"burnRequestNonce(bytes32)":"c72551be","burnRequests(uint256)":"6406c10c","calculateFees(uint256)":"52238fdd","custodianWallet()":"1e106e99","getAllBurnRequests()":"1e7aa9f4","getAllMintRequests()":"64c70d45","initialize(address,uint8,address,address)":"9c2c58f8","issuer()":"1d143848","mintRequestNonce(bytes32)":"9ad4b86b","mintRequests(uint256)":"424e6575","owner()":"8da5cb5b","pause()":"8456cb59","paused()":"5c975abb","renounceOwnership()":"715018a6","requestBuyOrder(address,uint256)":"d5151fbd","requestSellOrder(address,uint256)":"169ca4cc","setUsdcAddress(address,uint8)":"eab2a711","token()":"fc0c546a","transferOwnership(address)":"f2fde38b","unpause()":"3f4ba83a","usdc()":"3e413bee","usdcDecimals()":"7bf42165"},"id":17}