{
  "abi": [
    {
      "inputs": [],
      "name": "EnforcedPause",
      "type": "error"
    },
    {
      "inputs": [],
      "name": "ExpectedPause",
      "type": "error"
    },
    {
      "inputs": [],
      "name": "InvalidInitialization",
      "type": "error"
    },
    {
      "inputs": [],
      "name": "NotInitializing",
      "type": "error"
    },
    {
      "inputs": [
        {
          "internalType": "address",
          "name": "owner",
          "type": "address"
        }
      ],
      "name": "OwnableInvalidOwner",
      "type": "error"
    },
    {
      "inputs": [
        {
          "internalType": "address",
          "name": "account",
          "type": "address"
        }
      ],
      "name": "OwnableUnauthorizedAccount",
      "type": "error"
    },
    {
      "inputs": [
        {
          "internalType": "uint256",
          "name": "x",
          "type": "uint256"
        },
        {
          "internalType": "uint256",
          "name": "y",
          "type": "uint256"
        },
        {
          "internalType": "uint256",
          "name": "denominator",
          "type": "uint256"
        }
      ],
      "name": "PRBMath_MulDiv_Overflow",
      "type": "error"
    },
    {
      "anonymous": false,
      "inputs": [
        {
          "indexed": false,
          "internalType": "uint64",
          "name": "version",
          "type": "uint64"
        }
      ],
      "name": "Initialized",
      "type": "event"
    },
    {
      "anonymous": false,
      "inputs": [
        {
          "indexed": true,
          "internalType": "address",
          "name": "previousOwner",
          "type": "address"
        },
        {
          "indexed": true,
          "internalType": "address",
          "name": "newOwner",
          "type": "address"
        }
      ],
      "name": "OwnershipTransferred",
      "type": "event"
    },
    {
      "anonymous": false,
      "inputs": [
        {
          "indexed": false,
          "internalType": "address",
          "name": "account",
          "type": "address"
        }
      ],
      "name": "Paused",
      "type": "event"
    },
    {
      "anonymous": false,
      "inputs": [
        {
          "indexed": false,
          "internalType": "address",
          "name": "account",
          "type": "address"
        }
      ],
      "name": "Unpaused",
      "type": "event"
    },
    {
      "inputs": [
        {
          "internalType": "bytes32",
          "name": "",
          "type": "bytes32"
        }
      ],
      "name": "burnRequestNonce",
      "outputs": [
        {
          "internalType": "uint256",
          "name": "",
          "type": "uint256"
        }
      ],
      "stateMutability": "view",
      "type": "function"
    },
    {
      "inputs": [
        {
          "internalType": "uint256",
          "name": "",
          "type": "uint256"
        }
      ],
      "name": "burnRequests",
      "outputs": [
        {
          "internalType": "address",
          "name": "requester",
          "type": "address"
        },
        {
          "internalType": "uint256",
          "name": "amount",
          "type": "uint256"
        },
        {
          "internalType": "uint256",
          "name": "nonce",
          "type": "uint256"
        },
        {
          "internalType": "uint256",
          "name": "timestamp",
          "type": "uint256"
        },
        {
          "internalType": "enum OrderManager.RequestStatus",
          "name": "status",
          "type": "uint8"
        }
      ],
      "stateMutability": "view",
      "type": "function"
    },
    {
      "inputs": [],
      "name": "custodianWallet",
      "outputs": [
        {
          "internalType": "address",
          "name": "",
          "type": "address"
        }
      ],
      "stateMutability": "view",
      "type": "function"
    },
    {
      "inputs": [],
      "name": "getAllBurnRequests",
      "outputs": [
        {
          "components": [
            {
              "internalType": "address",
              "name": "requester",
              "type": "address"
            },
            {
              "internalType": "uint256",
              "name": "amount",
              "type": "uint256"
            },
            {
              "internalType": "address[]",
              "name": "depositAddresses",
              "type": "address[]"
            },
            {
              "internalType": "uint256",
              "name": "nonce",
              "type": "uint256"
            },
            {
              "internalType": "uint256",
              "name": "timestamp",
              "type": "uint256"
            },
            {
              "internalType": "enum OrderManager.RequestStatus",
              "name": "status",
              "type": "uint8"
            }
          ],
          "internalType": "struct OrderManager.Request[]",
          "name": "",
          "type": "tuple[]"
        }
      ],
      "stateMutability": "view",
      "type": "function"
    },
    {
      "inputs": [],
      "name": "getAllMintRequests",
      "outputs": [
        {
          "components": [
            {
              "internalType": "address",
              "name": "requester",
              "type": "address"
            },
            {
              "internalType": "uint256",
              "name": "amount",
              "type": "uint256"
            },
            {
              "internalType": "address[]",
              "name": "depositAddresses",
              "type": "address[]"
            },
            {
              "internalType": "uint256",
              "name": "nonce",
              "type": "uint256"
            },
            {
              "internalType": "uint256",
              "name": "timestamp",
              "type": "uint256"
            },
            {
              "internalType": "enum OrderManager.RequestStatus",
              "name": "status",
              "type": "uint8"
            }
          ],
          "internalType": "struct OrderManager.Request[]",
          "name": "",
          "type": "tuple[]"
        }
      ],
      "stateMutability": "view",
      "type": "function"
    },
    {
      "inputs": [
        {
          "internalType": "address",
          "name": "_usdc",
          "type": "address"
        },
        {
          "internalType": "uint8",
          "name": "_usdcDecimals",
          "type": "uint8"
        },
        {
          "internalType": "address",
          "name": "_token",
          "type": "address"
        },
        {
          "internalType": "address",
          "name": "_issuer",
          "type": "address"
        }
      ],
      "name": "initialize",
      "outputs": [],
      "stateMutability": "nonpayable",
      "type": "function"
    },
    {
      "inputs": [],
      "name": "issuer",
      "outputs": [
        {
          "internalType": "contract IOrderProcessor",
          "name": "",
          "type": "address"
        }
      ],
      "stateMutability": "view",
      "type": "function"
    },
    {
      "inputs": [
        {
          "internalType": "bytes32",
          "name": "",
          "type": "bytes32"
        }
      ],
      "name": "mintRequestNonce",
      "outputs": [
        {
          "internalType": "uint256",
          "name": "",
          "type": "uint256"
        }
      ],
      "stateMutability": "view",
      "type": "function"
    },
    {
      "inputs": [
        {
          "internalType": "uint256",
          "name": "",
          "type": "uint256"
        }
      ],
      "name": "mintRequests",
      "outputs": [
        {
          "internalType": "address",
          "name": "requester",
          "type": "address"
        },
        {
          "internalType": "uint256",
          "name": "amount",
          "type": "uint256"
        },
        {
          "internalType": "uint256",
          "name": "nonce",
          "type": "uint256"
        },
        {
          "internalType": "uint256",
          "name": "timestamp",
          "type": "uint256"
        },
        {
          "internalType": "enum OrderManager.RequestStatus",
          "name": "status",
          "type": "uint8"
        }
      ],
      "stateMutability": "view",
      "type": "function"
    },
    {
      "inputs": [],
      "name": "owner",
      "outputs": [
        {
          "internalType": "address",
          "name": "",
          "type": "address"
        }
      ],
      "stateMutability": "view",
      "type": "function"
    },
    {
      "inputs": [],
      "name": "pause",
      "outputs": [],
      "stateMutability": "nonpayable",
      "type": "function"
    },
    {
      "inputs": [],
      "name": "paused",
      "outputs": [
        {
          "internalType": "bool",
          "name": "",
          "type": "bool"
        }
      ],
      "stateMutability": "view",
      "type": "function"
    },
    {
      "inputs": [],
      "name": "renounceOwnership",
      "outputs": [],
      "stateMutability": "nonpayable",
      "type": "function"
    },
    {
      "inputs": [
        {
          "internalType": "address",
          "name": "_token",
          "type": "address"
        },
        {
          "internalType": "uint256",
          "name": "orderAmount",
          "type": "uint256"
        }
      ],
      "name": "requestBuyOrder",
      "outputs": [
        {
          "internalType": "uint256",
          "name": "",
          "type": "uint256"
        }
      ],
      "stateMutability": "nonpayable",
      "type": "function"
    },
    {
      "inputs": [
        {
          "internalType": "address",
          "name": "_token",
          "type": "address"
        },
        {
          "internalType": "uint256",
          "name": "_orderAmount",
          "type": "uint256"
        }
      ],
      "name": "requestSellOrder",
      "outputs": [
        {
          "internalType": "uint256",
          "name": "",
          "type": "uint256"
        }
      ],
      "stateMutability": "nonpayable",
      "type": "function"
    },
    {
      "inputs": [
        {
          "internalType": "address",
          "name": "_usdc",
          "type": "address"
        },
        {
          "internalType": "uint8",
          "name": "_usdcDecimals",
          "type": "uint8"
        }
      ],
      "name": "setUsdcAddress",
      "outputs": [
        {
          "internalType": "bool",
          "name": "",
          "type": "bool"
        }
      ],
      "stateMutability": "nonpayable",
      "type": "function"
    },
    {
      "inputs": [],
      "name": "token",
      "outputs": [
        {
          "internalType": "address",
          "name": "",
          "type": "address"
        }
      ],
      "stateMutability": "view",
      "type": "function"
    },
    {
      "inputs": [
        {
          "internalType": "address",
          "name": "newOwner",
          "type": "address"
        }
      ],
      "name": "transferOwnership",
      "outputs": [],
      "stateMutability": "nonpayable",
      "type": "function"
    },
    {
      "inputs": [],
      "name": "unpause",
      "outputs": [],
      "stateMutability": "nonpayable",
      "type": "function"
    },
    {
      "inputs": [],
      "name": "usdc",
      "outputs": [
        {
          "internalType": "address",
          "name": "",
          "type": "address"
        }
      ],
      "stateMutability": "view",
      "type": "function"
    },
    {
      "inputs": [],
      "name": "usdcDecimals",
      "outputs": [
        {
          "internalType": "uint8",
          "name": "",
          "type": "uint8"
        }
      ],
      "stateMutability": "view",
      "type": "function"
    }
  ],
  "bytecode": {
    "object": "0x6080604052348015600f57600080fd5b506114dc8061001f6000396000f3fe608060405234801561001057600080fd5b50600436106101375760003560e01c8063715018a6116100b85780639c2c58f81161007c5780639c2c58f8146102bb578063c72551be146102ce578063d5151fbd146102ee578063eab2a71114610301578063f2fde38b14610314578063fc0c546a1461032757600080fd5b8063715018a6146102355780637bf421651461023d5780638456cb59146102635780638da5cb5b1461026b5780639ad4b86b1461029b57600080fd5b80633f4ba83a116100ff5780633f4ba83a146101c8578063424e6575146101d25780635c975abb146101f65780636406c10c1461021a57806364c70d451461022d57600080fd5b8063169ca4cc1461013c5780631d143848146101625780631e106e991461018d5780631e7aa9f4146101a05780633e413bee146101b5575b600080fd5b61014f61014a3660046110b5565b61033a565b6040519081526020015b60405180910390f35b600154610175906001600160a01b031681565b6040516001600160a01b039091168152602001610159565b600054610175906001600160a01b031681565b6101a86104cf565b6040516101599190611109565b600254610175906001600160a01b031681565b6101d06105eb565b005b6101e56101e03660046111ee565b6105fd565b604051610159959493929190611207565b6000805160206114878339815191525460ff165b6040519015158152602001610159565b6101e56102283660046111ee565b61064b565b6101a861065b565b6101d061076e565b60025461025190600160a01b900460ff1681565b60405160ff9091168152602001610159565b6101d0610780565b7f9016d09d72d40fdae2fd8ceac6b6234c7706214fd39c1cd1e609a0528c199300546001600160a01b0316610175565b61014f6102a93660046111ee565b60046020526000908152604090205481565b6101d06102c9366004611254565b610790565b61014f6102dc3660046111ee565b60056020526000908152604090205481565b61014f6102fc3660046110b5565b6108ff565b61020a61030f3660046112a8565b610b46565b6101d06103223660046112db565b610bd4565b600354610175906001600160a01b031681565b6000806103476001610c12565b6001600160a01b0385811660408381019190915260c0830186905260035490516323b872dd60e01b81523360048201523060248201526044810187905292935016906323b872dd906064016020604051808303816000875af11580156103b1573d6000803e3d6000fd5b505050506040513d601f19601f820116820180604052508101906103d591906112f6565b5060035460015460405163095ea7b360e01b81526001600160a01b0391821660048201526024810186905291169063095ea7b3906044016020604051808303816000875af115801561042b573d6000803e3d6000fd5b505050506040513d601f19601f8201168201806040525081019061044f91906112f6565b5060015460405163aa2165f160e01b81526000916001600160a01b03169063aa2165f190610481908590600401611338565b6020604051808303816000875af11580156104a0573d6000803e3d6000fd5b505050506040513d601f19601f820116820180604052508101906104c491906113fe565b925050505b92915050565b60606007805480602002602001604051908101604052809291908181526020016000905b828210156105e25760008481526020908190206040805160c0810182526006860290920180546001600160a01b03168352600181015483850152600281018054835181870281018701855281815294959294938601939283018282801561058357602002820191906000526020600020905b81546001600160a01b03168152600190910190602001808311610565575b5050509183525050600382015460208201526004808301546040830152600583015460609092019160ff16908111156105be576105be6110df565b60048111156105cf576105cf6110df565b81525050815260200190600101906104f3565b50505050905090565b6105f3610cca565b6105fb610d25565b565b6006818154811061060d57600080fd5b6000918252602090912060069091020180546001820154600383015460048401546005909401546001600160a01b0390931694509092909160ff1685565b6007818154811061060d57600080fd5b60606006805480602002602001604051908101604052809291908181526020016000905b828210156105e25760008481526020908190206040805160c0810182526006860290920180546001600160a01b03168352600181015483850152600281018054835181870281018701855281815294959294938601939283018282801561070f57602002820191906000526020600020905b81546001600160a01b031681526001909101906020018083116106f1575b5050509183525050600382015460208201526004808301546040830152600583015460609092019160ff169081111561074a5761074a6110df565b600481111561075b5761075b6110df565b815250508152602001906001019061067f565b610776610cca565b6105fb6000610d85565b610788610cca565b6105fb610df6565b7ff0c57e16840df040f15088dc2f81fe391c3923bec73e23a9662efc9c229c6a008054600160401b810460ff16159067ffffffffffffffff166000811580156107d65750825b905060008267ffffffffffffffff1660011480156107f35750303b155b905081158015610801575080155b1561081f5760405163f92ee8a960e01b815260040160405180910390fd5b845467ffffffffffffffff19166001178555831561084957845460ff60401b1916600160401b1785555b600280546001600160a01b038b81166001600160a81b031990921691909117600160a01b60ff8c160217909155600180546001600160a01b031990811689841617909155600380549091169189169190911790556108a633610e3f565b6108ae610e50565b83156108f457845460ff60401b19168555604051600181527fc7f505b2f371ae2175ee4913f4499e1f2633a7b5936321eed1cdaeb6115181d29060200160405180910390a15b505050505050505050565b6001546002546040516308da5c3560e21b81526000600482018190526001600160a01b039283166024830152928392839291169063236970d4906044016040805180830381865afa158015610958573d6000803e3d6000fd5b505050506040513d601f19601f8201168201806040525081019061097c9190611417565b91509150600061098c8286610e60565b610996908461144f565b905060006109a46000610c12565b3060208201526001600160a01b038816604082015260e08101879052905060006109ce838861144f565b6002546040516323b872dd60e01b8152336004820152306024820152604481018390529192506001600160a01b0316906323b872dd906064016020604051808303816000875af1158015610a26573d6000803e3d6000fd5b505050506040513d601f19601f82011682018060405250810190610a4a91906112f6565b5060025460015460405163095ea7b360e01b81526001600160a01b0391821660048201526024810184905291169063095ea7b3906044016020604051808303816000875af1158015610aa0573d6000803e3d6000fd5b505050506040513d601f19601f82011682018060405250810190610ac491906112f6565b5060015460405163aa2165f160e01b81526000916001600160a01b03169063aa2165f190610af6908690600401611338565b6020604051808303816000875af1158015610b15573d6000803e3d6000fd5b505050506040513d601f19601f82011682018060405250810190610b3991906113fe565b9998505050505050505050565b6000610b50610cca565b6001600160a01b038316610ba35760405162461bcd60e51b8152602060048201526015602482015274696e76616c696420746f6b656e206164647265737360581b60448201526064015b60405180910390fd5b506002805460ff8316600160a01b026001600160a81b03199091166001600160a01b03851617179055600192915050565b610bdc610cca565b6001600160a01b038116610c0657604051631e4fbdf760e01b815260006004820152602401610b9a565b610c0f81610d85565b50565b610c1a611036565b604080516101408101825267ffffffffffffffff421681523060208201526003546001600160a01b03908116928201929092526002549091166060820152821515608082015260a081016000815260200183610c77576000610c82565b68056bc75e2d631000005b68ffffffffffffffffff16815260200183610ca65768056bc75e2d63100000610ca9565b60005b68ffffffffffffffffff168152600060208201526040016001905292915050565b33610cfc7f9016d09d72d40fdae2fd8ceac6b6234c7706214fd39c1cd1e609a0528c199300546001600160a01b031690565b6001600160a01b0316146105fb5760405163118cdaa760e01b8152336004820152602401610b9a565b610d2d610e90565b600080516020611487833981519152805460ff191681557f5db9ee0a495bf2e6ff9c91a7834c1ba4fdd244a5e8aa4e537bd38aeae4b073aa335b6040516001600160a01b03909116815260200160405180910390a150565b7f9016d09d72d40fdae2fd8ceac6b6234c7706214fd39c1cd1e609a0528c19930080546001600160a01b031981166001600160a01b03848116918217845560405192169182907f8be0079c531659141344cd1fd0a4f28419497f9722a3daafe3b4186f6b6457e090600090a3505050565b610dfe610ec0565b600080516020611487833981519152805460ff191660011781557f62e78cea01bee320cd4e420270b5ea74000d11b0c9f74754ebdbfc544b05a25833610d67565b610e47610ef1565b610c0f81610f3a565b610e58610ef1565b6105fb610f42565b60008262ffffff16600003610e76576000610e89565b610e898262ffffff8516620f4240610f63565b9392505050565b6000805160206114878339815191525460ff166105fb57604051638dfc202b60e01b815260040160405180910390fd5b6000805160206114878339815191525460ff16156105fb5760405163d93c066560e01b815260040160405180910390fd5b7ff0c57e16840df040f15088dc2f81fe391c3923bec73e23a9662efc9c229c6a0054600160401b900460ff166105fb57604051631afcd79f60e31b815260040160405180910390fd5b610bdc610ef1565b610f4a610ef1565b600080516020611487833981519152805460ff19169055565b6000808060001985870985870292508281108382030391505080600003610f9d57838281610f9357610f93611470565b0492505050610e89565b838110610fce57604051630c740aef60e31b8152600481018790526024810186905260448101859052606401610b9a565b600084868809600260036001881981018916988990049182028318808302840302808302840302808302840302808302840302808302840302918202909203026000889003889004909101858311909403939093029303949094049190911702949350505050565b604080516101408101825260008082526020820181905291810182905260608101829052608081018290529060a0820190815260200160008152602001600081526020016000815260200160006003811115611094576110946110df565b905290565b80356001600160a01b03811681146110b057600080fd5b919050565b600080604083850312156110c857600080fd5b6110d183611099565b946020939093013593505050565b634e487b7160e01b600052602160045260246000fd5b60058110611105576111056110df565b9052565b600060208083018184528085518083526040925060408601915060408160051b8701018488016000805b848110156111df57898403603f19018652825180516001600160a01b039081168652898201518a8701528882015160c08a8801819052815190880181905260e0880192918c01919086905b808210156111a057835183168552938d0193928d01926001919091019061117e565b50505050606082810151908701526080808301519087015260a091820151916111cb818801846110f5565b509689019694505091870191600101611133565b50919998505050505050505050565b60006020828403121561120057600080fd5b5035919050565b6001600160a01b038616815260208101859052604081018490526060810183905260a0810161123960808301846110f5565b9695505050505050565b803560ff811681146110b057600080fd5b6000806000806080858703121561126a57600080fd5b61127385611099565b935061128160208601611243565b925061128f60408601611099565b915061129d60608601611099565b905092959194509250565b600080604083850312156112bb57600080fd5b6112c483611099565b91506112d260208401611243565b90509250929050565b6000602082840312156112ed57600080fd5b610e8982611099565b60006020828403121561130857600080fd5b81518015158114610e8957600080fd5b60028110611105576111056110df565b60048110611105576111056110df565b815167ffffffffffffffff1681526101408101602083015161136560208401826001600160a01b03169052565b50604083015161138060408401826001600160a01b03169052565b50606083015161139b60608401826001600160a01b03169052565b5060808301516113af608084018215159052565b5060a08301516113c260a0840182611318565b5060c083015160c083015260e083015160e0830152610100808401518184015250610120808401516113f682850182611328565b505092915050565b60006020828403121561141057600080fd5b5051919050565b6000806040838503121561142a57600080fd5b82519150602083015162ffffff8116811461144457600080fd5b809150509250929050565b808201808211156104c957634e487b7160e01b600052601160045260246000fd5b634e487b7160e01b600052601260045260246000fdfecd5ed15c6e187e77e9aee88184c21f4f2182ab5827cb3b7e07fbedcd63f03300a264697066735822122029c84c8a021d33a7306c21be53690557db4d1fc99ce49e92ad3f601f615f496964736f6c63430008190033",
    "linkReferences": {}
  },
  "methodIdentifiers": {
    "burnRequestNonce(bytes32)": "c72551be",
    "burnRequests(uint256)": "6406c10c",
    "custodianWallet()": "1e106e99",
    "getAllBurnRequests()": "1e7aa9f4",
    "getAllMintRequests()": "64c70d45",
    "initialize(address,uint8,address,address)": "9c2c58f8",
    "issuer()": "1d143848",
    "mintRequestNonce(bytes32)": "9ad4b86b",
    "mintRequests(uint256)": "424e6575",
    "owner()": "8da5cb5b",
    "pause()": "8456cb59",
    "paused()": "5c975abb",
    "renounceOwnership()": "715018a6",
    "requestBuyOrder(address,uint256)": "d5151fbd",
    "requestSellOrder(address,uint256)": "169ca4cc",
    "setUsdcAddress(address,uint8)": "eab2a711",
    "token()": "fc0c546a",
    "transferOwnership(address)": "f2fde38b",
    "unpause()": "3f4ba83a",
    "usdc()": "3e413bee",
    "usdcDecimals()": "7bf42165"
  },
  "id": 21
}