{"abi":[{"type":"function","name":"calculateFees","inputs":[{"name":"orderAmount","type":"uint256","internalType":"uint256"}],"outputs":[{"name":"","type":"uint256","internalType":"uint256"}],"stateMutability":"view"},{"type":"function","name":"initialize","inputs":[{"name":"_usdc","type":"address","internalType":"address"},{"name":"_usdcDecimals","type":"uint8","internalType":"uint8"},{"name":"_issuer","type":"address","internalType":"address"}],"outputs":[],"stateMutability":"nonpayable"},{"type":"function","name":"isOperator","inputs":[{"name":"","type":"address","internalType":"address"}],"outputs":[{"name":"","type":"bool","internalType":"bool"}],"stateMutability":"view"},{"type":"function","name":"issuer","inputs":[],"outputs":[{"name":"","type":"address","internalType":"contract IOrderProcessor"}],"stateMutability":"view"},{"type":"function","name":"owner","inputs":[],"outputs":[{"name":"","type":"address","internalType":"address"}],"stateMutability":"view"},{"type":"function","name":"paused","inputs":[],"outputs":[{"name":"","type":"bool","internalType":"bool"}],"stateMutability":"view"},{"type":"function","name":"renounceOwnership","inputs":[],"outputs":[],"stateMutability":"nonpayable"},{"type":"function","name":"requestBuyOrder","inputs":[{"name":"_token","type":"address","internalType":"address"},{"name":"_orderAmount","type":"uint256","internalType":"uint256"},{"name":"_receiver","type":"address","internalType":"address"}],"outputs":[{"name":"","type":"uint256","internalType":"uint256"}],"stateMutability":"nonpayable"},{"type":"function","name":"requestSellOrder","inputs":[{"name":"_token","type":"address","internalType":"address"},{"name":"_amount","type":"uint256","internalType":"uint256"},{"name":"_receiver","type":"address","internalType":"address"}],"outputs":[{"name":"","type":"uint256","internalType":"uint256"}],"stateMutability":"nonpayable"},{"type":"function","name":"setOperator","inputs":[{"name":"_operator","type":"address","internalType":"address"},{"name":"_status","type":"bool","internalType":"bool"}],"outputs":[],"stateMutability":"nonpayable"},{"type":"function","name":"setUsdcAddress","inputs":[{"name":"_usdc","type":"address","internalType":"address"},{"name":"_usdcDecimals","type":"uint8","internalType":"uint8"}],"outputs":[{"name":"","type":"bool","internalType":"bool"}],"stateMutability":"nonpayable"},{"type":"function","name":"transferOwnership","inputs":[{"name":"newOwner","type":"address","internalType":"address"}],"outputs":[],"stateMutability":"nonpayable"},{"type":"function","name":"usdc","inputs":[],"outputs":[{"name":"","type":"address","internalType":"address"}],"stateMutability":"view"},{"type":"function","name":"usdcDecimals","inputs":[],"outputs":[{"name":"","type":"uint8","internalType":"uint8"}],"stateMutability":"view"},{"type":"event","name":"BuyRequest","inputs":[{"name":"id","type":"uint256","indexed":true,"internalType":"uint256"},{"name":"time","type":"uint256","indexed":false,"internalType":"uint256"},{"name":"inutAmount","type":"uint256","indexed":false,"internalType":"uint256"}],"anonymous":false},{"type":"event","name":"Initialized","inputs":[{"name":"version","type":"uint64","indexed":false,"internalType":"uint64"}],"anonymous":false},{"type":"event","name":"OwnershipTransferred","inputs":[{"name":"previousOwner","type":"address","indexed":true,"internalType":"address"},{"name":"newOwner","type":"address","indexed":true,"internalType":"address"}],"anonymous":false},{"type":"event","name":"Paused","inputs":[{"name":"account","type":"address","indexed":false,"internalType":"address"}],"anonymous":false},{"type":"event","name":"SellRequest","inputs":[{"name":"id","type":"uint256","indexed":true,"internalType":"uint256"},{"name":"time","type":"uint256","indexed":false,"internalType":"uint256"},{"name":"inutAmount","type":"uint256","indexed":false,"internalType":"uint256"}],"anonymous":false},{"type":"event","name":"Unpaused","inputs":[{"name":"account","type":"address","indexed":false,"internalType":"address"}],"anonymous":false},{"type":"error","name":"EnforcedPause","inputs":[]},{"type":"error","name":"ExpectedPause","inputs":[]},{"type":"error","name":"InvalidInitialization","inputs":[]},{"type":"error","name":"NotInitializing","inputs":[]},{"type":"error","name":"OwnableInvalidOwner","inputs":[{"name":"owner","type":"address","internalType":"address"}]},{"type":"error","name":"OwnableUnauthorizedAccount","inputs":[{"name":"account","type":"address","internalType":"address"}]},{"type":"error","name":"PRBMath_MulDiv_Overflow","inputs":[{"name":"x","type":"uint256","internalType":"uint256"},{"name":"y","type":"uint256","internalType":"uint256"},{"name":"denominator","type":"uint256","internalType":"uint256"}]}],"bytecode":{"object":"0x6080604052348015600f57600080fd5b506111128061001f6000396000f3fe608060405234801561001057600080fd5b50600436106100ea5760003560e01c80636d70f7ae1161008c5780638da5cb5b116100665780638da5cb5b14610215578063eab2a7111461021d578063f2fde38b14610230578063f35f9e451461024357600080fd5b80636d70f7ae146101c4578063715018a6146101e75780637bf42165146101ef57600080fd5b806352238fdd116100c857806352238fdd14610153578063558a7297146101665780635c975abb1461017b5780635d411205146101b157600080fd5b80631d143848146100ef5780633c0fd9ae1461011f5780633e413bee14610140575b600080fd5b600054610102906001600160a01b031681565b6040516001600160a01b0390911681526020015b60405180910390f35b61013261012d366004610dc9565b610256565b604051908152602001610116565b600154610102906001600160a01b031681565b610132610161366004610e05565b610538565b610179610174366004610e2c565b6105d5565b005b7fcd5ed15c6e187e77e9aee88184c21f4f2182ab5827cb3b7e07fbedcd63f033005460ff165b6040519015158152602001610116565b6101326101bf366004610dc9565b610608565b6101a16101d2366004610e63565b60026020526000908152604090205460ff1681565b6101796107ee565b60015461020390600160a01b900460ff1681565b60405160ff9091168152602001610116565b610102610802565b6101a161022b366004610e8f565b610830565b61017961023e366004610e63565b6108b8565b610179610251366004610ec2565b6108f6565b3360009081526002602052604081205460ff168061028c5750610277610802565b6001600160a01b0316336001600160a01b0316145b6102b15760405162461bcd60e51b81526004016102a890610efc565b60405180910390fd5b600080546001546040516308da5c3560e21b8152600481018490526001600160a01b0391821660248201528392919091169063236970d4906044016040805180830381865afa158015610308573d6000803e3d6000fd5b505050506040513d601f19601f8201168201806040525081019061032c9190610f42565b91509150600061033c8287610a54565b6103469084610f6f565b905060006103546000610a7d565b6001600160a01b0380881660208301528916604082015260e08101889052905060006103808389610f6f565b6001546040516323b872dd60e01b8152336004820152306024820152604481018390529192506001600160a01b0316906323b872dd906064016020604051808303816000875af11580156103d8573d6000803e3d6000fd5b505050506040513d601f19601f820116820180604052508101906103fc9190610f90565b5060015460005460405163095ea7b360e01b81526001600160a01b0391821660048201526024810184905291169063095ea7b3906044016020604051808303816000875af1158015610452573d6000803e3d6000fd5b505050506040513d601f19601f820116820180604052508101906104769190610f90565b506000805460405163aa2165f160e01b81526001600160a01b039091169063aa2165f1906104a8908690600401610fe7565b6020604051808303816000875af11580156104c7573d6000803e3d6000fd5b505050506040513d601f19601f820116820180604052508101906104eb91906110ad565b60408051428152602081018c905291925082917f1d8ad3e078ad28971eb289b1318fd587e61a92e0564135bebe715430fdb67327910160405180910390a2955050505050505b9392505050565b600080546001546040516308da5c3560e21b8152600481018490526001600160a01b03918216602482015283928392169063236970d4906044016040805180830381865afa15801561058e573d6000803e3d6000fd5b505050506040513d601f19601f820116820180604052508101906105b29190610f42565b9150915060006105c28286610a54565b6105cc9084610f6f565b95945050505050565b6105dd610b2e565b6001600160a01b03919091166000908152600260205260409020805460ff1916911515919091179055565b3360009081526002602052604081205460ff168061063e5750610629610802565b6001600160a01b0316336001600160a01b0316145b61065a5760405162461bcd60e51b81526004016102a890610efc565b60006106666001610a7d565b6001600160a01b03868116604083810182905260c08401889052918616602084015290516323b872dd60e01b815233600482015230602482015260448101879052919250906323b872dd906064016020604051808303816000875af11580156106d3573d6000803e3d6000fd5b505050506040513d601f19601f820116820180604052508101906106f79190610f90565b5060005460405163095ea7b360e01b81526001600160a01b039182166004820152602481018690529086169063095ea7b3906044016020604051808303816000875af115801561074b573d6000803e3d6000fd5b505050506040513d601f19601f8201168201806040525081019061076f9190610f90565b506000805460405163aa2165f160e01b81526001600160a01b039091169063aa2165f1906107a1908590600401610fe7565b6020604051808303816000875af11580156107c0573d6000803e3d6000fd5b505050506040513d601f19601f820116820180604052508101906107e491906110ad565b9695505050505050565b6107f6610b2e565b6108006000610b60565b565b7f9016d09d72d40fdae2fd8ceac6b6234c7706214fd39c1cd1e609a0528c199300546001600160a01b031690565b600061083a610b2e565b6001600160a01b0383166108885760405162461bcd60e51b8152602060048201526015602482015274696e76616c696420746f6b656e206164647265737360581b60448201526064016102a8565b506001805460ff8316600160a01b026001600160a81b03199091166001600160a01b038516171781555b92915050565b6108c0610b2e565b6001600160a01b0381166108ea57604051631e4fbdf760e01b8152600060048201526024016102a8565b6108f381610b60565b50565b7ff0c57e16840df040f15088dc2f81fe391c3923bec73e23a9662efc9c229c6a008054600160401b810460ff16159067ffffffffffffffff1660008115801561093c5750825b905060008267ffffffffffffffff1660011480156109595750303b155b905081158015610967575080155b156109855760405163f92ee8a960e01b815260040160405180910390fd5b845467ffffffffffffffff1916600117855583156109af57845460ff60401b1916600160401b1785555b600180546001600160a01b038a81166001600160a81b031990921691909117600160a01b60ff8b160217909155600080546001600160a01b0319169188169190911790556109fc33610bd1565b610a04610be2565b8315610a4a57845460ff60401b19168555604051600181527fc7f505b2f371ae2175ee4913f4499e1f2633a7b5936321eed1cdaeb6115181d29060200160405180910390a15b5050505050505050565b60008262ffffff16600003610a6a576000610531565b6105318262ffffff8516620f4240610bf2565b610a85610d4a565b604080516101408101825267ffffffffffffffff4216815230602082015260009181018290526001546001600160a01b0316606082015283151560808201529060a0820190815260200183610adb576000610ae6565b68056bc75e2d631000005b68ffffffffffffffffff16815260200183610b0a5768056bc75e2d63100000610b0d565b60005b68ffffffffffffffffff168152600060208201526040016001905292915050565b33610b37610802565b6001600160a01b0316146108005760405163118cdaa760e01b81523360048201526024016102a8565b7f9016d09d72d40fdae2fd8ceac6b6234c7706214fd39c1cd1e609a0528c19930080546001600160a01b031981166001600160a01b03848116918217845560405192169182907f8be0079c531659141344cd1fd0a4f28419497f9722a3daafe3b4186f6b6457e090600090a3505050565b610bd9610cc6565b6108f381610d0f565b610bea610cc6565b610800610d17565b6000808060001985870985870292508281108382030391505080600003610c2c57838281610c2257610c226110c6565b0492505050610531565b838110610c5d57604051630c740aef60e31b81526004810187905260248101869052604481018590526064016102a8565b60008486880960026001871981018816978890046003810283188082028403028082028403028082028403028082028403028082028403029081029092039091026000889003889004909101858311909403939093029303949094049190911702949350505050565b7ff0c57e16840df040f15088dc2f81fe391c3923bec73e23a9662efc9c229c6a0054600160401b900460ff1661080057604051631afcd79f60e31b815260040160405180910390fd5b6108c0610cc6565b610d1f610cc6565b7fcd5ed15c6e187e77e9aee88184c21f4f2182ab5827cb3b7e07fbedcd63f03300805460ff19169055565b604080516101408101825260008082526020820181905291810182905260608101829052608081018290529060a0820190815260200160008152602001600081526020016000815260200160006003811115610da857610da8610fad565b905290565b80356001600160a01b0381168114610dc457600080fd5b919050565b600080600060608486031215610dde57600080fd5b610de784610dad565b925060208401359150610dfc60408501610dad565b90509250925092565b600060208284031215610e1757600080fd5b5035919050565b80151581146108f357600080fd5b60008060408385031215610e3f57600080fd5b610e4883610dad565b91506020830135610e5881610e1e565b809150509250929050565b600060208284031215610e7557600080fd5b61053182610dad565b803560ff81168114610dc457600080fd5b60008060408385031215610ea257600080fd5b610eab83610dad565b9150610eb960208401610e7e565b90509250929050565b600080600060608486031215610ed757600080fd5b610ee084610dad565b9250610eee60208501610e7e565b9150610dfc60408501610dad565b60208082526026908201527f4e6f7420617574686f72697a65642053656e64657220466f722042757920416e604082015265190814d95b1b60d21b606082015260800190565b60008060408385031215610f5557600080fd5b82519150602083015162ffffff81168114610e5857600080fd5b808201808211156108b257634e487b7160e01b600052601160045260246000fd5b600060208284031215610fa257600080fd5b815161053181610e1e565b634e487b7160e01b600052602160045260246000fd5b60028110610fd357610fd3610fad565b9052565b60048110610fd357610fd3610fad565b815167ffffffffffffffff1681526101408101602083015161101460208401826001600160a01b03169052565b50604083015161102f60408401826001600160a01b03169052565b50606083015161104a60608401826001600160a01b03169052565b50608083015161105e608084018215159052565b5060a083015161107160a0840182610fc3565b5060c083015160c083015260e083015160e0830152610100808401518184015250610120808401516110a582850182610fd7565b505092915050565b6000602082840312156110bf57600080fd5b5051919050565b634e487b7160e01b600052601260045260246000fdfea26469706673582212200ba6b9027f2021a643cc1a28ab5466d7f15187b97bf4edb205ab196e164e7aaa64736f6c63430008190033","linkReferences":{}},"methodIdentifiers":{"calculateFees(uint256)":"52238fdd","initialize(address,uint8,address)":"f35f9e45","isOperator(address)":"6d70f7ae","issuer()":"1d143848","owner()":"8da5cb5b","paused()":"5c975abb","renounceOwnership()":"715018a6","requestBuyOrder(address,uint256,address)":"3c0fd9ae","requestSellOrder(address,uint256,address)":"5d411205","setOperator(address,bool)":"558a7297","setUsdcAddress(address,uint8)":"eab2a711","transferOwnership(address)":"f2fde38b","usdc()":"3e413bee","usdcDecimals()":"7bf42165"},"id":19}