{"abi":[{"type":"function","name":"calculateFees","inputs":[{"name":"orderAmount","type":"uint256","internalType":"uint256"}],"outputs":[{"name":"","type":"uint256","internalType":"uint256"}],"stateMutability":"view"},{"type":"function","name":"cancelOrder","inputs":[{"name":"_requestId","type":"uint256","internalType":"uint256"}],"outputs":[],"stateMutability":"nonpayable"},{"type":"function","name":"initialize","inputs":[{"name":"_usdc","type":"address","internalType":"address"},{"name":"_usdcDecimals","type":"uint8","internalType":"uint8"},{"name":"_issuer","type":"address","internalType":"address"}],"outputs":[],"stateMutability":"nonpayable"},{"type":"function","name":"isOperator","inputs":[{"name":"","type":"address","internalType":"address"}],"outputs":[{"name":"","type":"bool","internalType":"bool"}],"stateMutability":"view"},{"type":"function","name":"issuer","inputs":[],"outputs":[{"name":"","type":"address","internalType":"contract IOrderProcessor"}],"stateMutability":"view"},{"type":"function","name":"owner","inputs":[],"outputs":[{"name":"","type":"address","internalType":"address"}],"stateMutability":"view"},{"type":"function","name":"paused","inputs":[],"outputs":[{"name":"","type":"bool","internalType":"bool"}],"stateMutability":"view"},{"type":"function","name":"renounceOwnership","inputs":[],"outputs":[],"stateMutability":"nonpayable"},{"type":"function","name":"requestBuyOrder","inputs":[{"name":"_token","type":"address","internalType":"address"},{"name":"_orderAmount","type":"uint256","internalType":"uint256"},{"name":"_receiver","type":"address","internalType":"address"}],"outputs":[{"name":"","type":"uint256","internalType":"uint256"}],"stateMutability":"nonpayable"},{"type":"function","name":"requestBuyOrderFromCurrentBalance","inputs":[{"name":"_token","type":"address","internalType":"address"},{"name":"_orderAmount","type":"uint256","internalType":"uint256"},{"name":"_receiver","type":"address","internalType":"address"}],"outputs":[{"name":"","type":"uint256","internalType":"uint256"}],"stateMutability":"nonpayable"},{"type":"function","name":"requestSellOrder","inputs":[{"name":"_token","type":"address","internalType":"address"},{"name":"_amount","type":"uint256","internalType":"uint256"},{"name":"_receiver","type":"address","internalType":"address"}],"outputs":[{"name":"","type":"uint256","internalType":"uint256"}],"stateMutability":"nonpayable"},{"type":"function","name":"requestSellOrderFromCurrentBalance","inputs":[{"name":"_token","type":"address","internalType":"address"},{"name":"_amount","type":"uint256","internalType":"uint256"},{"name":"_receiver","type":"address","internalType":"address"}],"outputs":[{"name":"","type":"uint256","internalType":"uint256"}],"stateMutability":"nonpayable"},{"type":"function","name":"setOperator","inputs":[{"name":"_operator","type":"address","internalType":"address"},{"name":"_status","type":"bool","internalType":"bool"}],"outputs":[],"stateMutability":"nonpayable"},{"type":"function","name":"setUsdcAddress","inputs":[{"name":"_usdc","type":"address","internalType":"address"},{"name":"_usdcDecimals","type":"uint8","internalType":"uint8"}],"outputs":[{"name":"","type":"bool","internalType":"bool"}],"stateMutability":"nonpayable"},{"type":"function","name":"transferOwnership","inputs":[{"name":"newOwner","type":"address","internalType":"address"}],"outputs":[],"stateMutability":"nonpayable"},{"type":"function","name":"usdc","inputs":[],"outputs":[{"name":"","type":"address","internalType":"address"}],"stateMutability":"view"},{"type":"function","name":"usdcDecimals","inputs":[],"outputs":[{"name":"","type":"uint8","internalType":"uint8"}],"stateMutability":"view"},{"type":"function","name":"withdrawFunds","inputs":[{"name":"_token","type":"address","internalType":"address"},{"name":"_to","type":"address","internalType":"address"},{"name":"_amount","type":"uint256","internalType":"uint256"}],"outputs":[],"stateMutability":"nonpayable"},{"type":"event","name":"BuyRequest","inputs":[{"name":"id","type":"uint256","indexed":true,"internalType":"uint256"},{"name":"time","type":"uint256","indexed":false,"internalType":"uint256"},{"name":"inutAmount","type":"uint256","indexed":false,"internalType":"uint256"}],"anonymous":false},{"type":"event","name":"FundsWithdrawn","inputs":[{"name":"token","type":"address","indexed":false,"internalType":"address"},{"name":"to","type":"address","indexed":false,"internalType":"address"},{"name":"amount","type":"uint256","indexed":false,"internalType":"uint256"}],"anonymous":false},{"type":"event","name":"Initialized","inputs":[{"name":"version","type":"uint64","indexed":false,"internalType":"uint64"}],"anonymous":false},{"type":"event","name":"OwnershipTransferred","inputs":[{"name":"previousOwner","type":"address","indexed":true,"internalType":"address"},{"name":"newOwner","type":"address","indexed":true,"internalType":"address"}],"anonymous":false},{"type":"event","name":"Paused","inputs":[{"name":"account","type":"address","indexed":false,"internalType":"address"}],"anonymous":false},{"type":"event","name":"SellRequest","inputs":[{"name":"id","type":"uint256","indexed":true,"internalType":"uint256"},{"name":"time","type":"uint256","indexed":false,"internalType":"uint256"},{"name":"inutAmount","type":"uint256","indexed":false,"internalType":"uint256"}],"anonymous":false},{"type":"event","name":"Unpaused","inputs":[{"name":"account","type":"address","indexed":false,"internalType":"address"}],"anonymous":false},{"type":"error","name":"EnforcedPause","inputs":[]},{"type":"error","name":"ExpectedPause","inputs":[]},{"type":"error","name":"InvalidInitialization","inputs":[]},{"type":"error","name":"NotInitializing","inputs":[]},{"type":"error","name":"OwnableInvalidOwner","inputs":[{"name":"owner","type":"address","internalType":"address"}]},{"type":"error","name":"OwnableUnauthorizedAccount","inputs":[{"name":"account","type":"address","internalType":"address"}]},{"type":"error","name":"PRBMath_MulDiv_Overflow","inputs":[{"name":"x","type":"uint256","internalType":"uint256"},{"name":"y","type":"uint256","internalType":"uint256"},{"name":"denominator","type":"uint256","internalType":"uint256"}]}],"bytecode":{"object":"0x6080604052348015600f57600080fd5b506135488061001f6000396000f3fe608060405234801561001057600080fd5b50600436106101165760003560e01c80635d411205116100a25780637bf42165116100715780637bf42165146102f35780638da5cb5b14610311578063eab2a7111461032f578063f2fde38b1461035f578063f35f9e451461037b57610116565b80635d4112051461025957806366ca1344146102895780636d70f7ae146102b9578063715018a6146102e957610116565b80633e413bee116100e95780633e413bee146101b5578063514fcac7146101d357806352238fdd146101ef578063558a72971461021f5780635c975abb1461023b57610116565b806312544d1b1461011b5780631c20fadd1461014b5780631d143848146101675780633c0fd9ae14610185575b600080fd5b6101356004803603810190610130919061294e565b610397565b60405161014291906129b0565b60405180910390f35b610165600480360381019061016091906129cb565b6108a8565b005b61016f610b8f565b60405161017c9190612a7d565b60405180910390f35b61019f600480360381019061019a919061294e565b610bb3565b6040516101ac91906129b0565b60405180910390f35b6101bd6111a5565b6040516101ca9190612aa7565b60405180910390f35b6101ed60048036038101906101e89190612ac2565b6111cb565b005b61020960048036038101906102049190612ac2565b611365565b60405161021691906129b0565b60405180910390f35b61023960048036038101906102349190612b27565b611451565b005b6102436114b4565b6040516102509190612b76565b60405180910390f35b610273600480360381019061026e919061294e565b6114d9565b60405161028091906129b0565b60405180910390f35b6102a3600480360381019061029e919061294e565b611957565b6040516102b091906129b0565b60405180910390f35b6102d360048036038101906102ce9190612b91565b611d16565b6040516102e09190612b76565b60405180910390f35b6102f1611d36565b005b6102fb611d4a565b6040516103089190612bda565b60405180910390f35b610319611d5d565b6040516103269190612aa7565b60405180910390f35b61034960048036038101906103449190612c21565b611d95565b6040516103569190612b76565b60405180910390f35b61037960048036038101906103749190612b91565b611e74565b005b61039560048036038101906103909190612c61565b611efa565b005b60008073ffffffffffffffffffffffffffffffffffffffff168473ffffffffffffffffffffffffffffffffffffffff1603610407576040517f08c379a00000000000000000000000000000000000000000000000000000000081526004016103fe90612d11565b60405180910390fd5b600073ffffffffffffffffffffffffffffffffffffffff168273ffffffffffffffffffffffffffffffffffffffff1603610476576040517f08c379a000000000000000000000000000000000000000000000000000000000815260040161046d90612d7d565b60405180910390fd5b600083116104b9576040517f08c379a00000000000000000000000000000000000000000000000000000000081526004016104b090612de9565b60405180910390fd5b600260003373ffffffffffffffffffffffffffffffffffffffff1673ffffffffffffffffffffffffffffffffffffffff16815260200190815260200160002060009054906101000a900460ff16806105435750610514611d5d565b73ffffffffffffffffffffffffffffffffffffffff163373ffffffffffffffffffffffffffffffffffffffff16145b610582576040517f08c379a000000000000000000000000000000000000000000000000000000000815260040161057990612e7b565b60405180910390fd5b60008060008054906101000a900473ffffffffffffffffffffffffffffffffffffffff1673ffffffffffffffffffffffffffffffffffffffff1663236970d46000600160009054906101000a900473ffffffffffffffffffffffffffffffffffffffff166040518363ffffffff1660e01b8152600401610603929190612e9b565b6040805180830381865afa15801561061f573d6000803e3d6000fd5b505050506040513d601f19601f820116820180604052508101906106439190612f14565b9150915060006106538287612253565b8361065e9190612f83565b9050600061066c6000612289565b905085816020019073ffffffffffffffffffffffffffffffffffffffff16908173ffffffffffffffffffffffffffffffffffffffff168152505087816040019073ffffffffffffffffffffffffffffffffffffffff16908173ffffffffffffffffffffffffffffffffffffffff1681525050868160e00181815250506000828260e001516106fa9190612f83565b9050600160009054906101000a900473ffffffffffffffffffffffffffffffffffffffff1673ffffffffffffffffffffffffffffffffffffffff1663095ea7b360008054906101000a900473ffffffffffffffffffffffffffffffffffffffff16836040518363ffffffff1660e01b8152600401610779929190612fb7565b6020604051808303816000875af1158015610798573d6000803e3d6000fd5b505050506040513d601f19601f820116820180604052508101906107bc9190612ff5565b5060008060009054906101000a900473ffffffffffffffffffffffffffffffffffffffff1673ffffffffffffffffffffffffffffffffffffffff1663aa2165f1846040518263ffffffff1660e01b815260040161081991906131fd565b6020604051808303816000875af1158015610838573d6000803e3d6000fd5b505050506040513d601f19601f8201168201806040525081019061085c9190613219565b9050807f1d8ad3e078ad28971eb289b1318fd587e61a92e0564135bebe715430fdb67327428b604051610890929190613246565b60405180910390a28096505050505050509392505050565b600073ffffffffffffffffffffffffffffffffffffffff168373ffffffffffffffffffffffffffffffffffffffff1603610917576040517f08c379a000000000000000000000000000000000000000000000000000000000815260040161090e90612d11565b60405180910390fd5b600073ffffffffffffffffffffffffffffffffffffffff168273ffffffffffffffffffffffffffffffffffffffff1603610986576040517f08c379a000000000000000000000000000000000000000000000000000000000815260040161097d90612d7d565b60405180910390fd5b600081116109c9576040517f08c379a00000000000000000000000000000000000000000000000000000000081526004016109c090612de9565b60405180910390fd5b600260003373ffffffffffffffffffffffffffffffffffffffff1673ffffffffffffffffffffffffffffffffffffffff16815260200190815260200160002060009054906101000a900460ff1680610a535750610a24611d5d565b73ffffffffffffffffffffffffffffffffffffffff163373ffffffffffffffffffffffffffffffffffffffff16145b610a92576040517f08c379a0000000000000000000000000000000000000000000000000000000008152600401610a8990612e7b565b60405180910390fd5b7fa92ff919b850e4909ab2261d907ef955f11bc1716733a6cbece38d163a69af8a838383604051610ac59392919061326f565b60405180910390a18273ffffffffffffffffffffffffffffffffffffffff1663a9059cbb83836040518363ffffffff1660e01b8152600401610b08929190612fb7565b6020604051808303816000875af1158015610b27573d6000803e3d6000fd5b505050506040513d601f19601f82011682018060405250810190610b4b9190612ff5565b610b8a576040517f08c379a0000000000000000000000000000000000000000000000000000000008152600401610b81906132f2565b60405180910390fd5b505050565b60008054906101000a900473ffffffffffffffffffffffffffffffffffffffff1681565b60008073ffffffffffffffffffffffffffffffffffffffff168473ffffffffffffffffffffffffffffffffffffffff1603610c23576040517f08c379a0000000000000000000000000000000000000000000000000000000008152600401610c1a90612d11565b60405180910390fd5b600073ffffffffffffffffffffffffffffffffffffffff168273ffffffffffffffffffffffffffffffffffffffff1603610c92576040517f08c379a0000000000000000000000000000000000000000000000000000000008152600401610c8990612d7d565b60405180910390fd5b60008311610cd5576040517f08c379a0000000000000000000000000000000000000000000000000000000008152600401610ccc90612de9565b60405180910390fd5b600260003373ffffffffffffffffffffffffffffffffffffffff1673ffffffffffffffffffffffffffffffffffffffff16815260200190815260200160002060009054906101000a900460ff1680610d5f5750610d30611d5d565b73ffffffffffffffffffffffffffffffffffffffff163373ffffffffffffffffffffffffffffffffffffffff16145b610d9e576040517f08c379a0000000000000000000000000000000000000000000000000000000008152600401610d9590612e7b565b60405180910390fd5b60008060008054906101000a900473ffffffffffffffffffffffffffffffffffffffff1673ffffffffffffffffffffffffffffffffffffffff1663236970d46000600160009054906101000a900473ffffffffffffffffffffffffffffffffffffffff166040518363ffffffff1660e01b8152600401610e1f929190612e9b565b6040805180830381865afa158015610e3b573d6000803e3d6000fd5b505050506040513d601f19601f82011682018060405250810190610e5f9190612f14565b915091506000610e6f8287612253565b83610e7a9190612f83565b90506000610e886000612289565b905085816020019073ffffffffffffffffffffffffffffffffffffffff16908173ffffffffffffffffffffffffffffffffffffffff168152505087816040019073ffffffffffffffffffffffffffffffffffffffff16908173ffffffffffffffffffffffffffffffffffffffff1681525050868160e00181815250506000828260e00151610f169190612f83565b9050600160009054906101000a900473ffffffffffffffffffffffffffffffffffffffff1673ffffffffffffffffffffffffffffffffffffffff166323b872dd3330846040518463ffffffff1660e01b8152600401610f779392919061326f565b6020604051808303816000875af1158015610f96573d6000803e3d6000fd5b505050506040513d601f19601f82011682018060405250810190610fba9190612ff5565b610ff9576040517f08c379a0000000000000000000000000000000000000000000000000000000008152600401610ff0906132f2565b60405180910390fd5b600160009054906101000a900473ffffffffffffffffffffffffffffffffffffffff1673ffffffffffffffffffffffffffffffffffffffff1663095ea7b360008054906101000a900473ffffffffffffffffffffffffffffffffffffffff16836040518363ffffffff1660e01b8152600401611076929190612fb7565b6020604051808303816000875af1158015611095573d6000803e3d6000fd5b505050506040513d601f19601f820116820180604052508101906110b99190612ff5565b5060008060009054906101000a900473ffffffffffffffffffffffffffffffffffffffff1673ffffffffffffffffffffffffffffffffffffffff1663aa2165f1846040518263ffffffff1660e01b815260040161111691906131fd565b6020604051808303816000875af1158015611135573d6000803e3d6000fd5b505050506040513d601f19601f820116820180604052508101906111599190613219565b9050807f1d8ad3e078ad28971eb289b1318fd587e61a92e0564135bebe715430fdb67327428b60405161118d929190613246565b60405180910390a28096505050505050509392505050565b600160009054906101000a900473ffffffffffffffffffffffffffffffffffffffff1681565b6000811161120e576040517f08c379a00000000000000000000000000000000000000000000000000000000081526004016112059061335e565b60405180910390fd5b600260003373ffffffffffffffffffffffffffffffffffffffff1673ffffffffffffffffffffffffffffffffffffffff16815260200190815260200160002060009054906101000a900460ff16806112985750611269611d5d565b73ffffffffffffffffffffffffffffffffffffffff163373ffffffffffffffffffffffffffffffffffffffff16145b6112d7576040517f08c379a00000000000000000000000000000000000000000000000000000000081526004016112ce90612e7b565b60405180910390fd5b60008054906101000a900473ffffffffffffffffffffffffffffffffffffffff1673ffffffffffffffffffffffffffffffffffffffff1663e683a2d4826040518263ffffffff1660e01b815260040161133091906129b0565b600060405180830381600087803b15801561134a57600080fd5b505af115801561135e573d6000803e3d6000fd5b5050505050565b60008060008060009054906101000a900473ffffffffffffffffffffffffffffffffffffffff1673ffffffffffffffffffffffffffffffffffffffff1663236970d46000600160009054906101000a900473ffffffffffffffffffffffffffffffffffffffff166040518363ffffffff1660e01b81526004016113e9929190612e9b565b6040805180830381865afa158015611405573d6000803e3d6000fd5b505050506040513d601f19601f820116820180604052508101906114299190612f14565b9150915060006114398286612253565b836114449190612f83565b9050809350505050919050565b6114596123b8565b80600260008473ffffffffffffffffffffffffffffffffffffffff1673ffffffffffffffffffffffffffffffffffffffff16815260200190815260200160002060006101000a81548160ff0219169083151502179055505050565b6000806114bf61243f565b90508060000160009054906101000a900460ff1691505090565b60008073ffffffffffffffffffffffffffffffffffffffff168473ffffffffffffffffffffffffffffffffffffffff1603611549576040517f08c379a000000000000000000000000000000000000000000000000000000000815260040161154090612d11565b60405180910390fd5b600073ffffffffffffffffffffffffffffffffffffffff168273ffffffffffffffffffffffffffffffffffffffff16036115b8576040517f08c379a00000000000000000000000000000000000000000000000000000000081526004016115af90612d7d565b60405180910390fd5b600083116115fb576040517f08c379a00000000000000000000000000000000000000000000000000000000081526004016115f290612de9565b60405180910390fd5b600260003373ffffffffffffffffffffffffffffffffffffffff1673ffffffffffffffffffffffffffffffffffffffff16815260200190815260200160002060009054906101000a900460ff16806116855750611656611d5d565b73ffffffffffffffffffffffffffffffffffffffff163373ffffffffffffffffffffffffffffffffffffffff16145b6116c4576040517f08c379a00000000000000000000000000000000000000000000000000000000081526004016116bb90612e7b565b60405180910390fd5b60006116d06001612289565b905084816040019073ffffffffffffffffffffffffffffffffffffffff16908173ffffffffffffffffffffffffffffffffffffffff1681525050838160c001818152505082816020019073ffffffffffffffffffffffffffffffffffffffff16908173ffffffffffffffffffffffffffffffffffffffff16815250508473ffffffffffffffffffffffffffffffffffffffff166323b872dd3330876040518463ffffffff1660e01b81526004016117899392919061326f565b6020604051808303816000875af11580156117a8573d6000803e3d6000fd5b505050506040513d601f19601f820116820180604052508101906117cc9190612ff5565b61180b576040517f08c379a0000000000000000000000000000000000000000000000000000000008152600401611802906132f2565b60405180910390fd5b8473ffffffffffffffffffffffffffffffffffffffff1663095ea7b360008054906101000a900473ffffffffffffffffffffffffffffffffffffffff16866040518363ffffffff1660e01b8152600401611866929190612fb7565b6020604051808303816000875af1158015611885573d6000803e3d6000fd5b505050506040513d601f19601f820116820180604052508101906118a99190612ff5565b5060008060009054906101000a900473ffffffffffffffffffffffffffffffffffffffff1673ffffffffffffffffffffffffffffffffffffffff1663aa2165f1836040518263ffffffff1660e01b815260040161190691906131fd565b6020604051808303816000875af1158015611925573d6000803e3d6000fd5b505050506040513d601f19601f820116820180604052508101906119499190613219565b905080925050509392505050565b60008073ffffffffffffffffffffffffffffffffffffffff168473ffffffffffffffffffffffffffffffffffffffff16036119c7576040517f08c379a00000000000000000000000000000000000000000000000000000000081526004016119be90612d11565b60405180910390fd5b600073ffffffffffffffffffffffffffffffffffffffff168273ffffffffffffffffffffffffffffffffffffffff1603611a36576040517f08c379a0000000000000000000000000000000000000000000000000000000008152600401611a2d90612d7d565b60405180910390fd5b60008311611a79576040517f08c379a0000000000000000000000000000000000000000000000000000000008152600401611a7090612de9565b60405180910390fd5b600260003373ffffffffffffffffffffffffffffffffffffffff1673ffffffffffffffffffffffffffffffffffffffff16815260200190815260200160002060009054906101000a900460ff1680611b035750611ad4611d5d565b73ffffffffffffffffffffffffffffffffffffffff163373ffffffffffffffffffffffffffffffffffffffff16145b611b42576040517f08c379a0000000000000000000000000000000000000000000000000000000008152600401611b3990612e7b565b60405180910390fd5b6000611b4e6001612289565b905084816040019073ffffffffffffffffffffffffffffffffffffffff16908173ffffffffffffffffffffffffffffffffffffffff1681525050838160c001818152505082816020019073ffffffffffffffffffffffffffffffffffffffff16908173ffffffffffffffffffffffffffffffffffffffff16815250508473ffffffffffffffffffffffffffffffffffffffff1663095ea7b360008054906101000a900473ffffffffffffffffffffffffffffffffffffffff16866040518363ffffffff1660e01b8152600401611c25929190612fb7565b6020604051808303816000875af1158015611c44573d6000803e3d6000fd5b505050506040513d601f19601f82011682018060405250810190611c689190612ff5565b5060008060009054906101000a900473ffffffffffffffffffffffffffffffffffffffff1673ffffffffffffffffffffffffffffffffffffffff1663aa2165f1836040518263ffffffff1660e01b8152600401611cc591906131fd565b6020604051808303816000875af1158015611ce4573d6000803e3d6000fd5b505050506040513d601f19601f82011682018060405250810190611d089190613219565b905080925050509392505050565b60026020528060005260406000206000915054906101000a900460ff1681565b611d3e6123b8565b611d486000612467565b565b600160149054906101000a900460ff1681565b600080611d6861253e565b90508060000160009054906101000a900473ffffffffffffffffffffffffffffffffffffffff1691505090565b6000611d9f6123b8565b600073ffffffffffffffffffffffffffffffffffffffff168373ffffffffffffffffffffffffffffffffffffffff1603611e0e576040517f08c379a0000000000000000000000000000000000000000000000000000000008152600401611e0590612d11565b60405180910390fd5b82600160006101000a81548173ffffffffffffffffffffffffffffffffffffffff021916908373ffffffffffffffffffffffffffffffffffffffff16021790555081600160146101000a81548160ff021916908360ff1602179055506001905092915050565b611e7c6123b8565b600073ffffffffffffffffffffffffffffffffffffffff168173ffffffffffffffffffffffffffffffffffffffff1603611eee5760006040517f1e4fbdf7000000000000000000000000000000000000000000000000000000008152600401611ee59190612aa7565b60405180910390fd5b611ef781612467565b50565b6000611f04612566565b905060008160000160089054906101000a900460ff1615905060008260000160009054906101000a900467ffffffffffffffff1690506000808267ffffffffffffffff16148015611f525750825b9050600060018367ffffffffffffffff16148015611f87575060003073ffffffffffffffffffffffffffffffffffffffff163b145b905081158015611f95575080155b15611fcc576040517ff92ee8a900000000000000000000000000000000000000000000000000000000815260040160405180910390fd5b60018560000160006101000a81548167ffffffffffffffff021916908367ffffffffffffffff160217905550831561201c5760018560000160086101000a81548160ff0219169083151502179055505b600073ffffffffffffffffffffffffffffffffffffffff168873ffffffffffffffffffffffffffffffffffffffff160361208b576040517f08c379a000000000000000000000000000000000000000000000000000000000815260040161208290612d11565b60405180910390fd5b600073ffffffffffffffffffffffffffffffffffffffff168673ffffffffffffffffffffffffffffffffffffffff16036120fa576040517f08c379a00000000000000000000000000000000000000000000000000000000081526004016120f1906133ca565b60405180910390fd5b60008760ff1611612140576040517f08c379a000000000000000000000000000000000000000000000000000000000815260040161213790613436565b60405180910390fd5b87600160006101000a81548173ffffffffffffffffffffffffffffffffffffffff021916908373ffffffffffffffffffffffffffffffffffffffff16021790555086600160146101000a81548160ff021916908360ff160217905550856000806101000a81548173ffffffffffffffffffffffffffffffffffffffff021916908373ffffffffffffffffffffffffffffffffffffffff1602179055506121e53361258e565b6121ed6125a2565b83156122495760008560000160086101000a81548160ff0219169083151502179055507fc7f505b2f371ae2175ee4913f4499e1f2633a7b5936321eed1cdaeb6115181d260016040516122409190613491565b60405180910390a15b5050505050505050565b6000808362ffffff1603612268576000612281565b612280828462ffffff16620f424062ffffff166125b4565b5b905092915050565b6122916127f0565b6040518061014001604052804267ffffffffffffffff1681526020013073ffffffffffffffffffffffffffffffffffffffff168152602001600073ffffffffffffffffffffffffffffffffffffffff168152602001600160009054906101000a900473ffffffffffffffffffffffffffffffffffffffff1673ffffffffffffffffffffffffffffffffffffffff1681526020018315158152602001600060018111156123405761233f613063565b5b81526020018361235157600061235c565b68056bc75e2d631000005b68ffffffffffffffffff168152602001836123805768056bc75e2d63100000612383565b60005b68ffffffffffffffffff16815260200160008152602001600160038111156123ae576123ad613063565b5b8152509050919050565b6123c06126ce565b73ffffffffffffffffffffffffffffffffffffffff166123de611d5d565b73ffffffffffffffffffffffffffffffffffffffff161461243d576124016126ce565b6040517f118cdaa70000000000000000000000000000000000000000000000000000000081526004016124349190612aa7565b60405180910390fd5b565b60007fcd5ed15c6e187e77e9aee88184c21f4f2182ab5827cb3b7e07fbedcd63f03300905090565b600061247161253e565b905060008160000160009054906101000a900473ffffffffffffffffffffffffffffffffffffffff169050828260000160006101000a81548173ffffffffffffffffffffffffffffffffffffffff021916908373ffffffffffffffffffffffffffffffffffffffff1602179055508273ffffffffffffffffffffffffffffffffffffffff168173ffffffffffffffffffffffffffffffffffffffff167f8be0079c531659141344cd1fd0a4f28419497f9722a3daafe3b4186f6b6457e060405160405180910390a3505050565b60007f9016d09d72d40fdae2fd8ceac6b6234c7706214fd39c1cd1e609a0528c199300905090565b60007ff0c57e16840df040f15088dc2f81fe391c3923bec73e23a9662efc9c229c6a00905090565b6125966126d6565b61259f81612716565b50565b6125aa6126d6565b6125b261279c565b565b60008060008019858709858702925082811083820303915050600081036125ef578382816125e5576125e46134ac565b5b04925050506126c7565b838110612637578585856040517f63a0577800000000000000000000000000000000000000000000000000000000815260040161262e939291906134db565b60405180910390fd5b60008486880990508281118203915080830392506000600186190186169050600081870496508185049450600182836000030401905080840285179450600060028860030218905080880260020381029050808802600203810290508088026002038102905080880260020381029050808802600203810290508088026002038102905080860296505050505050505b9392505050565b600033905090565b6126de6127d0565b612714576040517fd7e6bcf800000000000000000000000000000000000000000000000000000000815260040160405180910390fd5b565b61271e6126d6565b600073ffffffffffffffffffffffffffffffffffffffff168173ffffffffffffffffffffffffffffffffffffffff16036127905760006040517f1e4fbdf70000000000000000000000000000000000000000000000000000000081526004016127879190612aa7565b60405180910390fd5b61279981612467565b50565b6127a46126d6565b60006127ae61243f565b905060008160000160006101000a81548160ff02191690831515021790555050565b60006127da612566565b60000160089054906101000a900460ff16905090565b604051806101400160405280600067ffffffffffffffff168152602001600073ffffffffffffffffffffffffffffffffffffffff168152602001600073ffffffffffffffffffffffffffffffffffffffff168152602001600073ffffffffffffffffffffffffffffffffffffffff1681526020016000151581526020016000600181111561288157612880613063565b5b8152602001600081526020016000815260200160008152602001600060038111156128af576128ae613063565b5b81525090565b600080fd5b600073ffffffffffffffffffffffffffffffffffffffff82169050919050565b60006128e5826128ba565b9050919050565b6128f5816128da565b811461290057600080fd5b50565b600081359050612912816128ec565b92915050565b6000819050919050565b61292b81612918565b811461293657600080fd5b50565b60008135905061294881612922565b92915050565b600080600060608486031215612967576129666128b5565b5b600061297586828701612903565b935050602061298686828701612939565b925050604061299786828701612903565b9150509250925092565b6129aa81612918565b82525050565b60006020820190506129c560008301846129a1565b92915050565b6000806000606084860312156129e4576129e36128b5565b5b60006129f286828701612903565b9350506020612a0386828701612903565b9250506040612a1486828701612939565b9150509250925092565b6000819050919050565b6000612a43612a3e612a39846128ba565b612a1e565b6128ba565b9050919050565b6000612a5582612a28565b9050919050565b6000612a6782612a4a565b9050919050565b612a7781612a5c565b82525050565b6000602082019050612a926000830184612a6e565b92915050565b612aa1816128da565b82525050565b6000602082019050612abc6000830184612a98565b92915050565b600060208284031215612ad857612ad76128b5565b5b6000612ae684828501612939565b91505092915050565b60008115159050919050565b612b0481612aef565b8114612b0f57600080fd5b50565b600081359050612b2181612afb565b92915050565b60008060408385031215612b3e57612b3d6128b5565b5b6000612b4c85828601612903565b9250506020612b5d85828601612b12565b9150509250929050565b612b7081612aef565b82525050565b6000602082019050612b8b6000830184612b67565b92915050565b600060208284031215612ba757612ba66128b5565b5b6000612bb584828501612903565b91505092915050565b600060ff82169050919050565b612bd481612bbe565b82525050565b6000602082019050612bef6000830184612bcb565b92915050565b612bfe81612bbe565b8114612c0957600080fd5b50565b600081359050612c1b81612bf5565b92915050565b60008060408385031215612c3857612c376128b5565b5b6000612c4685828601612903565b9250506020612c5785828601612c0c565b9150509250929050565b600080600060608486031215612c7a57612c796128b5565b5b6000612c8886828701612903565b9350506020612c9986828701612c0c565b9250506040612caa86828701612903565b9150509250925092565b600082825260208201905092915050565b7f696e76616c696420746f6b656e20616464726573730000000000000000000000600082015250565b6000612cfb601583612cb4565b9150612d0682612cc5565b602082019050919050565b60006020820190508181036000830152612d2a81612cee565b9050919050565b7f696e76616c696420616464726573730000000000000000000000000000000000600082015250565b6000612d67600f83612cb4565b9150612d7282612d31565b602082019050919050565b60006020820190508181036000830152612d9681612d5a565b9050919050565b7f616d6f756e74206d7573742062652067726561746572207468616e2030000000600082015250565b6000612dd3601d83612cb4565b9150612dde82612d9d565b602082019050919050565b60006020820190508181036000830152612e0281612dc6565b9050919050565b7f4e6f7420617574686f72697a65642053656e64657220466f722042757920416e60008201527f642053656c6c0000000000000000000000000000000000000000000000000000602082015250565b6000612e65602683612cb4565b9150612e7082612e09565b604082019050919050565b60006020820190508181036000830152612e9481612e58565b9050919050565b6000604082019050612eb06000830185612b67565b612ebd6020830184612a98565b9392505050565b600081519050612ed381612922565b92915050565b600062ffffff82169050919050565b612ef181612ed9565b8114612efc57600080fd5b50565b600081519050612f0e81612ee8565b92915050565b60008060408385031215612f2b57612f2a6128b5565b5b6000612f3985828601612ec4565b9250506020612f4a85828601612eff565b9150509250929050565b7f4e487b7100000000000000000000000000000000000000000000000000000000600052601160045260246000fd5b6000612f8e82612918565b9150612f9983612918565b9250828201905080821115612fb157612fb0612f54565b5b92915050565b6000604082019050612fcc6000830185612a98565b612fd960208301846129a1565b9392505050565b600081519050612fef81612afb565b92915050565b60006020828403121561300b5761300a6128b5565b5b600061301984828501612fe0565b91505092915050565b600067ffffffffffffffff82169050919050565b61303f81613022565b82525050565b61304e816128da565b82525050565b61305d81612aef565b82525050565b7f4e487b7100000000000000000000000000000000000000000000000000000000600052602160045260246000fd5b600281106130a3576130a2613063565b5b50565b60008190506130b482613092565b919050565b60006130c4826130a6565b9050919050565b6130d4816130b9565b82525050565b6130e381612918565b82525050565b600481106130fa576130f9613063565b5b50565b600081905061310b826130e9565b919050565b600061311b826130fd565b9050919050565b61312b81613110565b82525050565b610140820160008201516131486000850182613036565b50602082015161315b6020850182613045565b50604082015161316e6040850182613045565b5060608201516131816060850182613045565b5060808201516131946080850182613054565b5060a08201516131a760a08501826130cb565b5060c08201516131ba60c08501826130da565b5060e08201516131cd60e08501826130da565b506101008201516131e26101008501826130da565b506101208201516131f7610120850182613122565b50505050565b6000610140820190506132136000830184613131565b92915050565b60006020828403121561322f5761322e6128b5565b5b600061323d84828501612ec4565b91505092915050565b600060408201905061325b60008301856129a1565b61326860208301846129a1565b9392505050565b60006060820190506132846000830186612a98565b6132916020830185612a98565b61329e60408301846129a1565b949350505050565b7f5472616e73666572206661696c65640000000000000000000000000000000000600082015250565b60006132dc600f83612cb4565b91506132e7826132a6565b602082019050919050565b6000602082019050818103600083015261330b816132cf565b9050919050565b7f496e76616c696420526571756573742049640000000000000000000000000000600082015250565b6000613348601283612cb4565b915061335382613312565b602082019050919050565b600060208201905081810360008301526133778161333b565b9050919050565b7f696e76616c696420697373756572206164647265737300000000000000000000600082015250565b60006133b4601683612cb4565b91506133bf8261337e565b602082019050919050565b600060208201905081810360008301526133e3816133a7565b9050919050565b7f696e76616c696420646563696d616c7300000000000000000000000000000000600082015250565b6000613420601083612cb4565b915061342b826133ea565b602082019050919050565b6000602082019050818103600083015261344f81613413565b9050919050565b6000819050919050565b600061347b61347661347184613456565b612a1e565b613022565b9050919050565b61348b81613460565b82525050565b60006020820190506134a66000830184613482565b92915050565b7f4e487b7100000000000000000000000000000000000000000000000000000000600052601260045260246000fd5b60006060820190506134f060008301866129a1565b6134fd60208301856129a1565b61350a60408301846129a1565b94935050505056fea2646970667358221220361fcb96f3d746180cac32b8b979bd70082610ff661b4f93bce805030b42174f64736f6c63430008190033","linkReferences":{}},"methodIdentifiers":{"calculateFees(uint256)":"52238fdd","cancelOrder(uint256)":"514fcac7","initialize(address,uint8,address)":"f35f9e45","isOperator(address)":"6d70f7ae","issuer()":"1d143848","owner()":"8da5cb5b","paused()":"5c975abb","renounceOwnership()":"715018a6","requestBuyOrder(address,uint256,address)":"3c0fd9ae","requestBuyOrderFromCurrentBalance(address,uint256,address)":"12544d1b","requestSellOrder(address,uint256,address)":"5d411205","requestSellOrderFromCurrentBalance(address,uint256,address)":"66ca1344","setOperator(address,bool)":"558a7297","setUsdcAddress(address,uint8)":"eab2a711","transferOwnership(address)":"f2fde38b","usdc()":"3e413bee","usdcDecimals()":"7bf42165","withdrawFunds(address,address,uint256)":"1c20fadd"},"id":25}