{"abi":[{"type":"function","name":"calculateFees","inputs":[{"name":"orderAmount","type":"uint256","internalType":"uint256"}],"outputs":[{"name":"","type":"uint256","internalType":"uint256"}],"stateMutability":"view"},{"type":"function","name":"cancelOrder","inputs":[{"name":"_requestId","type":"uint256","internalType":"uint256"}],"outputs":[],"stateMutability":"nonpayable"},{"type":"function","name":"initialize","inputs":[{"name":"_usdc","type":"address","internalType":"address"},{"name":"_usdcDecimals","type":"uint8","internalType":"uint8"},{"name":"_issuer","type":"address","internalType":"address"}],"outputs":[],"stateMutability":"nonpayable"},{"type":"function","name":"isOperator","inputs":[{"name":"","type":"address","internalType":"address"}],"outputs":[{"name":"","type":"bool","internalType":"bool"}],"stateMutability":"view"},{"type":"function","name":"issuer","inputs":[],"outputs":[{"name":"","type":"address","internalType":"contract IOrderProcessor"}],"stateMutability":"view"},{"type":"function","name":"owner","inputs":[],"outputs":[{"name":"","type":"address","internalType":"address"}],"stateMutability":"view"},{"type":"function","name":"paused","inputs":[],"outputs":[{"name":"","type":"bool","internalType":"bool"}],"stateMutability":"view"},{"type":"function","name":"renounceOwnership","inputs":[],"outputs":[],"stateMutability":"nonpayable"},{"type":"function","name":"requestBuyOrder","inputs":[{"name":"_token","type":"address","internalType":"address"},{"name":"_orderAmount","type":"uint256","internalType":"uint256"},{"name":"_receiver","type":"address","internalType":"address"}],"outputs":[{"name":"","type":"uint256","internalType":"uint256"}],"stateMutability":"nonpayable"},{"type":"function","name":"requestBuyOrderFromCurrentBalance","inputs":[{"name":"_token","type":"address","internalType":"address"},{"name":"_orderAmount","type":"uint256","internalType":"uint256"},{"name":"_receiver","type":"address","internalType":"address"}],"outputs":[{"name":"","type":"uint256","internalType":"uint256"}],"stateMutability":"nonpayable"},{"type":"function","name":"requestSellOrder","inputs":[{"name":"_token","type":"address","internalType":"address"},{"name":"_amount","type":"uint256","internalType":"uint256"},{"name":"_receiver","type":"address","internalType":"address"}],"outputs":[{"name":"","type":"uint256","internalType":"uint256"}],"stateMutability":"nonpayable"},{"type":"function","name":"requestSellOrderFromCurrentBalance","inputs":[{"name":"_token","type":"address","internalType":"address"},{"name":"_amount","type":"uint256","internalType":"uint256"},{"name":"_receiver","type":"address","internalType":"address"}],"outputs":[{"name":"","type":"uint256","internalType":"uint256"}],"stateMutability":"nonpayable"},{"type":"function","name":"setOperator","inputs":[{"name":"_operator","type":"address","internalType":"address"},{"name":"_status","type":"bool","internalType":"bool"}],"outputs":[],"stateMutability":"nonpayable"},{"type":"function","name":"setUsdcAddress","inputs":[{"name":"_usdc","type":"address","internalType":"address"},{"name":"_usdcDecimals","type":"uint8","internalType":"uint8"}],"outputs":[{"name":"","type":"bool","internalType":"bool"}],"stateMutability":"nonpayable"},{"type":"function","name":"transferOwnership","inputs":[{"name":"newOwner","type":"address","internalType":"address"}],"outputs":[],"stateMutability":"nonpayable"},{"type":"function","name":"usdc","inputs":[],"outputs":[{"name":"","type":"address","internalType":"address"}],"stateMutability":"view"},{"type":"function","name":"usdcDecimals","inputs":[],"outputs":[{"name":"","type":"uint8","internalType":"uint8"}],"stateMutability":"view"},{"type":"function","name":"withdrawFunds","inputs":[{"name":"_token","type":"address","internalType":"address"},{"name":"_to","type":"address","internalType":"address"},{"name":"_amount","type":"uint256","internalType":"uint256"}],"outputs":[],"stateMutability":"nonpayable"},{"type":"event","name":"BuyRequest","inputs":[{"name":"id","type":"uint256","indexed":true,"internalType":"uint256"},{"name":"time","type":"uint256","indexed":false,"internalType":"uint256"},{"name":"inutAmount","type":"uint256","indexed":false,"internalType":"uint256"}],"anonymous":false},{"type":"event","name":"FundsWithdrawn","inputs":[{"name":"token","type":"address","indexed":false,"internalType":"address"},{"name":"to","type":"address","indexed":false,"internalType":"address"},{"name":"amount","type":"uint256","indexed":false,"internalType":"uint256"}],"anonymous":false},{"type":"event","name":"Initialized","inputs":[{"name":"version","type":"uint64","indexed":false,"internalType":"uint64"}],"anonymous":false},{"type":"event","name":"OwnershipTransferred","inputs":[{"name":"previousOwner","type":"address","indexed":true,"internalType":"address"},{"name":"newOwner","type":"address","indexed":true,"internalType":"address"}],"anonymous":false},{"type":"event","name":"Paused","inputs":[{"name":"account","type":"address","indexed":false,"internalType":"address"}],"anonymous":false},{"type":"event","name":"SellRequest","inputs":[{"name":"id","type":"uint256","indexed":true,"internalType":"uint256"},{"name":"time","type":"uint256","indexed":false,"internalType":"uint256"},{"name":"inutAmount","type":"uint256","indexed":false,"internalType":"uint256"}],"anonymous":false},{"type":"event","name":"Unpaused","inputs":[{"name":"account","type":"address","indexed":false,"internalType":"address"}],"anonymous":false},{"type":"error","name":"EnforcedPause","inputs":[]},{"type":"error","name":"ExpectedPause","inputs":[]},{"type":"error","name":"InvalidInitialization","inputs":[]},{"type":"error","name":"NotInitializing","inputs":[]},{"type":"error","name":"OwnableInvalidOwner","inputs":[{"name":"owner","type":"address","internalType":"address"}]},{"type":"error","name":"OwnableUnauthorizedAccount","inputs":[{"name":"account","type":"address","internalType":"address"}]},{"type":"error","name":"PRBMath_MulDiv_Overflow","inputs":[{"name":"x","type":"uint256","internalType":"uint256"},{"name":"y","type":"uint256","internalType":"uint256"},{"name":"denominator","type":"uint256","internalType":"uint256"}]}],"bytecode":{"object":"0x6080604052348015600f57600080fd5b5061159d8061001f6000396000f3fe608060405234801561001057600080fd5b50600436106101165760003560e01c80635d411205116100a25780637bf42165116100715780637bf42165146102675780638da5cb5b1461028d578063eab2a71114610295578063f2fde38b146102a8578063f35f9e45146102bb57600080fd5b80635d4112051461021657806366ca1344146102295780636d70f7ae1461023c578063715018a61461025f57600080fd5b80633e413bee116100e95780633e413bee14610194578063514fcac7146101a757806352238fdd146101ba578063558a7297146101cd5780635c975abb146101e057600080fd5b806312544d1b1461011b5780631c20fadd146101415780631d143848146101565780633c0fd9ae14610181575b600080fd5b61012e610129366004611218565b6102ce565b6040519081526020015b60405180910390f35b61015461014f366004611254565b610536565b005b600054610169906001600160a01b031681565b6040516001600160a01b039091168152602001610138565b61012e61018f366004611218565b61064c565b600154610169906001600160a01b031681565b6101546101b5366004611290565b610825565b61012e6101c8366004611290565b6108d8565b6101546101db3660046112b7565b610975565b7fcd5ed15c6e187e77e9aee88184c21f4f2182ab5827cb3b7e07fbedcd63f033005460ff165b6040519015158152602001610138565b61012e610224366004611218565b6109a8565b61012e610237366004611218565b610b8f565b61020661024a3660046112ee565b60026020526000908152604090205460ff1681565b610154610c3d565b60015461027b90600160a01b900460ff1681565b60405160ff9091168152602001610138565b610169610c51565b6102066102a336600461131a565b610c7f565b6101546102b63660046112ee565b610d07565b6101546102c936600461134d565b610d45565b3360009081526002602052604081205460ff168061030457506102ef610c51565b6001600160a01b0316336001600160a01b0316145b6103295760405162461bcd60e51b815260040161032090611387565b60405180910390fd5b600080546001546040516308da5c3560e21b8152600481018490526001600160a01b0391821660248201528392919091169063236970d4906044016040805180830381865afa158015610380573d6000803e3d6000fd5b505050506040513d601f19601f820116820180604052508101906103a491906113cd565b9150915060006103b48287610ea3565b6103be90846113fa565b905060006103cc6000610ecc565b6001600160a01b0380881660208301528916604082015260e08101889052905060006103f883896113fa565b60015460005460405163095ea7b360e01b81526001600160a01b03918216600482015260248101849052929350169063095ea7b3906044015b6020604051808303816000875af1158015610450573d6000803e3d6000fd5b505050506040513d601f19601f82011682018060405250810190610474919061141b565b506000805460405163aa2165f160e01b81526001600160a01b039091169063aa2165f1906104a6908690600401611472565b6020604051808303816000875af11580156104c5573d6000803e3d6000fd5b505050506040513d601f19601f820116820180604052508101906104e99190611538565b60408051428152602081018c905291925082917f1d8ad3e078ad28971eb289b1318fd587e61a92e0564135bebe715430fdb67327910160405180910390a2955050505050505b9392505050565b3360009081526002602052604090205460ff168061056c5750610557610c51565b6001600160a01b0316336001600160a01b0316145b6105885760405162461bcd60e51b815260040161032090611387565b604080516001600160a01b038086168252841660208201529081018290527fa92ff919b850e4909ab2261d907ef955f11bc1716733a6cbece38d163a69af8a9060600160405180910390a160405163a9059cbb60e01b81526001600160a01b0383811660048301526024820183905284169063a9059cbb906044016020604051808303816000875af1158015610622573d6000803e3d6000fd5b505050506040513d601f19601f82011682018060405250810190610646919061141b565b50505050565b3360009081526002602052604081205460ff1680610682575061066d610c51565b6001600160a01b0316336001600160a01b0316145b61069e5760405162461bcd60e51b815260040161032090611387565b600080546001546040516308da5c3560e21b8152600481018490526001600160a01b0391821660248201528392919091169063236970d4906044016040805180830381865afa1580156106f5573d6000803e3d6000fd5b505050506040513d601f19601f8201168201806040525081019061071991906113cd565b9150915060006107298287610ea3565b61073390846113fa565b905060006107416000610ecc565b6001600160a01b0380881660208301528916604082015260e081018890529050600061076d83896113fa565b6001546040516323b872dd60e01b8152336004820152306024820152604481018390529192506001600160a01b0316906323b872dd906064016020604051808303816000875af11580156107c5573d6000803e3d6000fd5b505050506040513d601f19601f820116820180604052508101906107e9919061141b565b5060015460005460405163095ea7b360e01b81526001600160a01b0391821660048201526024810184905291169063095ea7b390604401610431565b3360009081526002602052604090205460ff168061085b5750610846610c51565b6001600160a01b0316336001600160a01b0316145b6108775760405162461bcd60e51b815260040161032090611387565b6000546040516339a0e8b560e21b8152600481018390526001600160a01b039091169063e683a2d490602401600060405180830381600087803b1580156108bd57600080fd5b505af11580156108d1573d6000803e3d6000fd5b5050505050565b600080546001546040516308da5c3560e21b8152600481018490526001600160a01b03918216602482015283928392169063236970d4906044016040805180830381865afa15801561092e573d6000803e3d6000fd5b505050506040513d601f19601f8201168201806040525081019061095291906113cd565b9150915060006109628286610ea3565b61096c90846113fa565b95945050505050565b61097d610f7d565b6001600160a01b03919091166000908152600260205260409020805460ff1916911515919091179055565b3360009081526002602052604081205460ff16806109de57506109c9610c51565b6001600160a01b0316336001600160a01b0316145b6109fa5760405162461bcd60e51b815260040161032090611387565b6000610a066001610ecc565b6001600160a01b03868116604083810182905260c08401889052918616602084015290516323b872dd60e01b815233600482015230602482015260448101879052919250906323b872dd906064016020604051808303816000875af1158015610a73573d6000803e3d6000fd5b505050506040513d601f19601f82011682018060405250810190610a97919061141b565b5060005460405163095ea7b360e01b81526001600160a01b039182166004820152602481018690529086169063095ea7b3906044015b6020604051808303816000875af1158015610aec573d6000803e3d6000fd5b505050506040513d601f19601f82011682018060405250810190610b10919061141b565b506000805460405163aa2165f160e01b81526001600160a01b039091169063aa2165f190610b42908590600401611472565b6020604051808303816000875af1158015610b61573d6000803e3d6000fd5b505050506040513d601f19601f82011682018060405250810190610b859190611538565b9695505050505050565b3360009081526002602052604081205460ff1680610bc55750610bb0610c51565b6001600160a01b0316336001600160a01b0316145b610be15760405162461bcd60e51b815260040161032090611387565b6000610bed6001610ecc565b6001600160a01b03868116604083810182905260c084018890528683166020850152600054905163095ea7b360e01b8152921660048301526024820187905291925063095ea7b390604401610acd565b610c45610f7d565b610c4f6000610faf565b565b7f9016d09d72d40fdae2fd8ceac6b6234c7706214fd39c1cd1e609a0528c199300546001600160a01b031690565b6000610c89610f7d565b6001600160a01b038316610cd75760405162461bcd60e51b8152602060048201526015602482015274696e76616c696420746f6b656e206164647265737360581b6044820152606401610320565b506001805460ff8316600160a01b026001600160a81b03199091166001600160a01b038516171781555b92915050565b610d0f610f7d565b6001600160a01b038116610d3957604051631e4fbdf760e01b815260006004820152602401610320565b610d4281610faf565b50565b7ff0c57e16840df040f15088dc2f81fe391c3923bec73e23a9662efc9c229c6a008054600160401b810460ff16159067ffffffffffffffff16600081158015610d8b5750825b905060008267ffffffffffffffff166001148015610da85750303b155b905081158015610db6575080155b15610dd45760405163f92ee8a960e01b815260040160405180910390fd5b845467ffffffffffffffff191660011785558315610dfe57845460ff60401b1916600160401b1785555b600180546001600160a01b038a81166001600160a81b031990921691909117600160a01b60ff8b160217909155600080546001600160a01b031916918816919091179055610e4b33611020565b610e53611031565b8315610e9957845460ff60401b19168555604051600181527fc7f505b2f371ae2175ee4913f4499e1f2633a7b5936321eed1cdaeb6115181d29060200160405180910390a15b5050505050505050565b60008262ffffff16600003610eb957600061052f565b61052f8262ffffff8516620f4240611041565b610ed4611199565b604080516101408101825267ffffffffffffffff4216815230602082015260009181018290526001546001600160a01b0316606082015283151560808201529060a0820190815260200183610f2a576000610f35565b68056bc75e2d631000005b68ffffffffffffffffff16815260200183610f595768056bc75e2d63100000610f5c565b60005b68ffffffffffffffffff168152600060208201526040016001905292915050565b33610f86610c51565b6001600160a01b031614610c4f5760405163118cdaa760e01b8152336004820152602401610320565b7f9016d09d72d40fdae2fd8ceac6b6234c7706214fd39c1cd1e609a0528c19930080546001600160a01b031981166001600160a01b03848116918217845560405192169182907f8be0079c531659141344cd1fd0a4f28419497f9722a3daafe3b4186f6b6457e090600090a3505050565b611028611115565b610d428161115e565b611039611115565b610c4f611166565b600080806000198587098587029250828110838203039150508060000361107b5783828161107157611071611551565b049250505061052f565b8381106110ac57604051630c740aef60e31b8152600481018790526024810186905260448101859052606401610320565b60008486880960026001871981018816978890046003810283188082028403028082028403028082028403028082028403028082028403029081029092039091026000889003889004909101858311909403939093029303949094049190911702949350505050565b7ff0c57e16840df040f15088dc2f81fe391c3923bec73e23a9662efc9c229c6a0054600160401b900460ff16610c4f57604051631afcd79f60e31b815260040160405180910390fd5b610d0f611115565b61116e611115565b7fcd5ed15c6e187e77e9aee88184c21f4f2182ab5827cb3b7e07fbedcd63f03300805460ff19169055565b604080516101408101825260008082526020820181905291810182905260608101829052608081018290529060a08201908152602001600081526020016000815260200160008152602001600060038111156111f7576111f7611438565b905290565b80356001600160a01b038116811461121357600080fd5b919050565b60008060006060848603121561122d57600080fd5b611236846111fc565b92506020840135915061124b604085016111fc565b90509250925092565b60008060006060848603121561126957600080fd5b611272846111fc565b9250611280602085016111fc565b9150604084013590509250925092565b6000602082840312156112a257600080fd5b5035919050565b8015158114610d4257600080fd5b600080604083850312156112ca57600080fd5b6112d3836111fc565b915060208301356112e3816112a9565b809150509250929050565b60006020828403121561130057600080fd5b61052f826111fc565b803560ff8116811461121357600080fd5b6000806040838503121561132d57600080fd5b611336836111fc565b915061134460208401611309565b90509250929050565b60008060006060848603121561136257600080fd5b61136b846111fc565b925061137960208501611309565b915061124b604085016111fc565b60208082526026908201527f4e6f7420617574686f72697a65642053656e64657220466f722042757920416e604082015265190814d95b1b60d21b606082015260800190565b600080604083850312156113e057600080fd5b82519150602083015162ffffff811681146112e357600080fd5b80820180821115610d0157634e487b7160e01b600052601160045260246000fd5b60006020828403121561142d57600080fd5b815161052f816112a9565b634e487b7160e01b600052602160045260246000fd5b6002811061145e5761145e611438565b9052565b6004811061145e5761145e611438565b815167ffffffffffffffff1681526101408101602083015161149f60208401826001600160a01b03169052565b5060408301516114ba60408401826001600160a01b03169052565b5060608301516114d560608401826001600160a01b03169052565b5060808301516114e9608084018215159052565b5060a08301516114fc60a084018261144e565b5060c083015160c083015260e083015160e08301526101008084015181840152506101208084015161153082850182611462565b505092915050565b60006020828403121561154a57600080fd5b5051919050565b634e487b7160e01b600052601260045260246000fdfea264697066735822122035faf3ecacecc84d05e31e8a99dd341d9c6a6b586b9410fe3d14b54089b6902764736f6c63430008190033","linkReferences":{}},"methodIdentifiers":{"calculateFees(uint256)":"52238fdd","cancelOrder(uint256)":"514fcac7","initialize(address,uint8,address)":"f35f9e45","isOperator(address)":"6d70f7ae","issuer()":"1d143848","owner()":"8da5cb5b","paused()":"5c975abb","renounceOwnership()":"715018a6","requestBuyOrder(address,uint256,address)":"3c0fd9ae","requestBuyOrderFromCurrentBalance(address,uint256,address)":"12544d1b","requestSellOrder(address,uint256,address)":"5d411205","requestSellOrderFromCurrentBalance(address,uint256,address)":"66ca1344","setOperator(address,bool)":"558a7297","setUsdcAddress(address,uint8)":"eab2a711","transferOwnership(address)":"f2fde38b","usdc()":"3e413bee","usdcDecimals()":"7bf42165","withdrawFunds(address,address,uint256)":"1c20fadd"},"id":25}