{"abi":[{"type":"function","name":"burnRequestNonce","inputs":[{"name":"","type":"bytes32","internalType":"bytes32"}],"outputs":[{"name":"","type":"uint256","internalType":"uint256"}],"stateMutability":"view"},{"type":"function","name":"burnRequests","inputs":[{"name":"","type":"uint256","internalType":"uint256"}],"outputs":[{"name":"requester","type":"address","internalType":"address"},{"name":"amount","type":"uint256","internalType":"uint256"},{"name":"nonce","type":"uint256","internalType":"uint256"},{"name":"timestamp","type":"uint256","internalType":"uint256"},{"name":"status","type":"uint8","internalType":"enum TestOrderManager.RequestStatus"}],"stateMutability":"view"},{"type":"function","name":"calculateFees","inputs":[{"name":"orderAmount","type":"uint256","internalType":"uint256"}],"outputs":[{"name":"","type":"uint256","internalType":"uint256"}],"stateMutability":"view"},{"type":"function","name":"custodianWallet","inputs":[],"outputs":[{"name":"","type":"address","internalType":"address"}],"stateMutability":"view"},{"type":"function","name":"getAllBurnRequests","inputs":[],"outputs":[{"name":"","type":"tuple[]","internalType":"struct TestOrderManager.Request[]","components":[{"name":"requester","type":"address","internalType":"address"},{"name":"amount","type":"uint256","internalType":"uint256"},{"name":"depositAddresses","type":"address[]","internalType":"address[]"},{"name":"nonce","type":"uint256","internalType":"uint256"},{"name":"timestamp","type":"uint256","internalType":"uint256"},{"name":"status","type":"uint8","internalType":"enum TestOrderManager.RequestStatus"}]}],"stateMutability":"view"},{"type":"function","name":"getAllMintRequests","inputs":[],"outputs":[{"name":"","type":"tuple[]","internalType":"struct TestOrderManager.Request[]","components":[{"name":"requester","type":"address","internalType":"address"},{"name":"amount","type":"uint256","internalType":"uint256"},{"name":"depositAddresses","type":"address[]","internalType":"address[]"},{"name":"nonce","type":"uint256","internalType":"uint256"},{"name":"timestamp","type":"uint256","internalType":"uint256"},{"name":"status","type":"uint8","internalType":"enum TestOrderManager.RequestStatus"}]}],"stateMutability":"view"},{"type":"function","name":"initialize","inputs":[{"name":"_usdc","type":"address","internalType":"address"},{"name":"_usdcDecimals","type":"uint8","internalType":"uint8"},{"name":"_token","type":"address","internalType":"address"},{"name":"_issuer","type":"address","internalType":"address"}],"outputs":[],"stateMutability":"nonpayable"},{"type":"function","name":"issuer","inputs":[],"outputs":[{"name":"","type":"address","internalType":"contract IOrderProcessor"}],"stateMutability":"view"},{"type":"function","name":"mintRequestNonce","inputs":[{"name":"","type":"bytes32","internalType":"bytes32"}],"outputs":[{"name":"","type":"uint256","internalType":"uint256"}],"stateMutability":"view"},{"type":"function","name":"mintRequests","inputs":[{"name":"","type":"uint256","internalType":"uint256"}],"outputs":[{"name":"requester","type":"address","internalType":"address"},{"name":"amount","type":"uint256","internalType":"uint256"},{"name":"nonce","type":"uint256","internalType":"uint256"},{"name":"timestamp","type":"uint256","internalType":"uint256"},{"name":"status","type":"uint8","internalType":"enum TestOrderManager.RequestStatus"}],"stateMutability":"view"},{"type":"function","name":"owner","inputs":[],"outputs":[{"name":"","type":"address","internalType":"address"}],"stateMutability":"view"},{"type":"function","name":"pause","inputs":[],"outputs":[],"stateMutability":"nonpayable"},{"type":"function","name":"paused","inputs":[],"outputs":[{"name":"","type":"bool","internalType":"bool"}],"stateMutability":"view"},{"type":"function","name":"renounceOwnership","inputs":[],"outputs":[],"stateMutability":"nonpayable"},{"type":"function","name":"requestBuyOrder","inputs":[{"name":"_token","type":"address","internalType":"address"},{"name":"orderAmount","type":"uint256","internalType":"uint256"}],"outputs":[{"name":"","type":"uint256","internalType":"uint256"}],"stateMutability":"nonpayable"},{"type":"function","name":"requestSellOrder","inputs":[{"name":"_token","type":"address","internalType":"address"},{"name":"_orderAmount","type":"uint256","internalType":"uint256"}],"outputs":[{"name":"","type":"uint256","internalType":"uint256"}],"stateMutability":"nonpayable"},{"type":"function","name":"setUsdcAddress","inputs":[{"name":"_usdc","type":"address","internalType":"address"},{"name":"_usdcDecimals","type":"uint8","internalType":"uint8"}],"outputs":[{"name":"","type":"bool","internalType":"bool"}],"stateMutability":"nonpayable"},{"type":"function","name":"token","inputs":[],"outputs":[{"name":"","type":"address","internalType":"address"}],"stateMutability":"view"},{"type":"function","name":"transferOwnership","inputs":[{"name":"newOwner","type":"address","internalType":"address"}],"outputs":[],"stateMutability":"nonpayable"},{"type":"function","name":"unpause","inputs":[],"outputs":[],"stateMutability":"nonpayable"},{"type":"function","name":"usdc","inputs":[],"outputs":[{"name":"","type":"address","internalType":"address"}],"stateMutability":"view"},{"type":"function","name":"usdcDecimals","inputs":[],"outputs":[{"name":"","type":"uint8","internalType":"uint8"}],"stateMutability":"view"},{"type":"event","name":"BuyRequest","inputs":[{"name":"id","type":"uint256","indexed":true,"internalType":"uint256"},{"name":"time","type":"uint256","indexed":false,"internalType":"uint256"},{"name":"inutAmount","type":"uint256","indexed":false,"internalType":"uint256"}],"anonymous":false},{"type":"event","name":"Initialized","inputs":[{"name":"version","type":"uint64","indexed":false,"internalType":"uint64"}],"anonymous":false},{"type":"event","name":"OwnershipTransferred","inputs":[{"name":"previousOwner","type":"address","indexed":true,"internalType":"address"},{"name":"newOwner","type":"address","indexed":true,"internalType":"address"}],"anonymous":false},{"type":"event","name":"Paused","inputs":[{"name":"account","type":"address","indexed":false,"internalType":"address"}],"anonymous":false},{"type":"event","name":"SellRequest","inputs":[{"name":"id","type":"uint256","indexed":true,"internalType":"uint256"},{"name":"time","type":"uint256","indexed":false,"internalType":"uint256"},{"name":"inutAmount","type":"uint256","indexed":false,"internalType":"uint256"}],"anonymous":false},{"type":"event","name":"Unpaused","inputs":[{"name":"account","type":"address","indexed":false,"internalType":"address"}],"anonymous":false},{"type":"error","name":"EnforcedPause","inputs":[]},{"type":"error","name":"ExpectedPause","inputs":[]},{"type":"error","name":"InvalidInitialization","inputs":[]},{"type":"error","name":"NotInitializing","inputs":[]},{"type":"error","name":"OwnableInvalidOwner","inputs":[{"name":"owner","type":"address","internalType":"address"}]},{"type":"error","name":"OwnableUnauthorizedAccount","inputs":[{"name":"account","type":"address","internalType":"address"}]},{"type":"error","name":"PRBMath_MulDiv_Overflow","inputs":[{"name":"x","type":"uint256","internalType":"uint256"},{"name":"y","type":"uint256","internalType":"uint256"},{"name":"denominator","type":"uint256","internalType":"uint256"}]}],"bytecode":{"object":"0x6080604052348015600f57600080fd5b506116148061001f6000396000f3fe608060405234801561001057600080fd5b50600436106101425760003560e01c8063715018a6116100b85780639c2c58f81161007c5780639c2c58f8146102d9578063c72551be146102ec578063d5151fbd1461030c578063eab2a7111461031f578063f2fde38b14610332578063fc0c546a1461034557600080fd5b8063715018a6146102535780637bf421651461025b5780638456cb59146102815780638da5cb5b146102895780639ad4b86b146102b957600080fd5b80633f4ba83a1161010a5780633f4ba83a146101d3578063424e6575146101dd57806352238fdd146102015780635c975abb146102145780636406c10c1461023857806364c70d451461024b57600080fd5b8063169ca4cc146101475780631d1438481461016d5780631e106e99146101985780631e7aa9f4146101ab5780633e413bee146101c0575b600080fd5b61015a6101553660046111ed565b610358565b6040519081526020015b60405180910390f35b600154610180906001600160a01b031681565b6040516001600160a01b039091168152602001610164565b600054610180906001600160a01b031681565b6101b361052a565b6040516101649190611241565b600254610180906001600160a01b031681565b6101db610646565b005b6101f06101eb366004611326565b610658565b60405161016495949392919061133f565b61015a61020f366004611326565b6106a6565b6000805160206115bf8339815191525460ff165b6040519015158152602001610164565b6101f0610246366004611326565b610746565b6101b3610756565b6101db610869565b60025461026f90600160a01b900460ff1681565b60405160ff9091168152602001610164565b6101db61087b565b7f9016d09d72d40fdae2fd8ceac6b6234c7706214fd39c1cd1e609a0528c199300546001600160a01b0316610180565b61015a6102c7366004611326565b60046020526000908152604090205481565b6101db6102e736600461138c565b61088b565b61015a6102fa366004611326565b60056020526000908152604090205481565b61015a61031a3660046111ed565b6109fa565b61022861032d3660046113e0565b610c7e565b6101db610340366004611413565b610d0c565b600354610180906001600160a01b031681565b6000806103656001610d4a565b6001600160a01b0385811660408381019190915260c0830186905260035490516323b872dd60e01b81523360048201523060248201526044810187905292935016906323b872dd906064016020604051808303816000875af11580156103cf573d6000803e3d6000fd5b505050506040513d601f19601f820116820180604052508101906103f3919061142e565b5060035460015460405163095ea7b360e01b81526001600160a01b0391821660048201526024810186905291169063095ea7b3906044016020604051808303816000875af1158015610449573d6000803e3d6000fd5b505050506040513d601f19601f8201168201806040525081019061046d919061142e565b5060015460405163aa2165f160e01b81526000916001600160a01b03169063aa2165f19061049f908590600401611470565b6020604051808303816000875af11580156104be573d6000803e3d6000fd5b505050506040513d601f19601f820116820180604052508101906104e29190611536565b604080514281526020810187905291925082917f99928feaf88633718c0d8b4bab178bc550a4fb5c2b46c9078131583d2a5af7a4910160405180910390a29150505b92915050565b60606007805480602002602001604051908101604052809291908181526020016000905b8282101561063d5760008481526020908190206040805160c0810182526006860290920180546001600160a01b0316835260018101548385015260028101805483518187028101870185528181529495929493860193928301828280156105de57602002820191906000526020600020905b81546001600160a01b031681526001909101906020018083116105c0575b5050509183525050600382015460208201526004808301546040830152600583015460609092019160ff169081111561061957610619611217565b600481111561062a5761062a611217565b815250508152602001906001019061054e565b50505050905090565b61064e610e02565b610656610e5d565b565b6006818154811061066857600080fd5b6000918252602090912060069091020180546001820154600383015460048401546005909401546001600160a01b0390931694509092909160ff1685565b6001546002546040516308da5c3560e21b81526000600482018190526001600160a01b039283166024830152928392839291169063236970d4906044016040805180830381865afa1580156106ff573d6000803e3d6000fd5b505050506040513d601f19601f82011682018060405250810190610723919061154f565b9150915060006107338286610ebd565b61073d9084611587565b95945050505050565b6007818154811061066857600080fd5b60606006805480602002602001604051908101604052809291908181526020016000905b8282101561063d5760008481526020908190206040805160c0810182526006860290920180546001600160a01b03168352600181015483850152600281018054835181870281018701855281815294959294938601939283018282801561080a57602002820191906000526020600020905b81546001600160a01b031681526001909101906020018083116107ec575b5050509183525050600382015460208201526004808301546040830152600583015460609092019160ff169081111561084557610845611217565b600481111561085657610856611217565b815250508152602001906001019061077a565b610871610e02565b6106566000610eed565b610883610e02565b610656610f5e565b7ff0c57e16840df040f15088dc2f81fe391c3923bec73e23a9662efc9c229c6a008054600160401b810460ff16159067ffffffffffffffff166000811580156108d15750825b905060008267ffffffffffffffff1660011480156108ee5750303b155b9050811580156108fc575080155b1561091a5760405163f92ee8a960e01b815260040160405180910390fd5b845467ffffffffffffffff19166001178555831561094457845460ff60401b1916600160401b1785555b600280546001600160a01b038b81166001600160a81b031990921691909117600160a01b60ff8c160217909155600180546001600160a01b031990811689841617909155600380549091169189169190911790556109a133610fa7565b6109a9610fb8565b83156109ef57845460ff60401b19168555604051600181527fc7f505b2f371ae2175ee4913f4499e1f2633a7b5936321eed1cdaeb6115181d29060200160405180910390a15b505050505050505050565b6001546002546040516308da5c3560e21b81526000600482018190526001600160a01b039283166024830152928392839291169063236970d4906044016040805180830381865afa158015610a53573d6000803e3d6000fd5b505050506040513d601f19601f82011682018060405250810190610a77919061154f565b915091506000610a878286610ebd565b610a919084611587565b90506000610a9f6000610d4a565b3060208201526001600160a01b038816604082015260e0810187905290506000610ac98388611587565b6002546040516323b872dd60e01b8152336004820152306024820152604481018390529192506001600160a01b0316906323b872dd906064016020604051808303816000875af1158015610b21573d6000803e3d6000fd5b505050506040513d601f19601f82011682018060405250810190610b45919061142e565b5060025460015460405163095ea7b360e01b81526001600160a01b0391821660048201526024810184905291169063095ea7b3906044016020604051808303816000875af1158015610b9b573d6000803e3d6000fd5b505050506040513d601f19601f82011682018060405250810190610bbf919061142e565b5060015460405163aa2165f160e01b81526000916001600160a01b03169063aa2165f190610bf1908690600401611470565b6020604051808303816000875af1158015610c10573d6000803e3d6000fd5b505050506040513d601f19601f82011682018060405250810190610c349190611536565b604080514281526020810185905291925082917f1d8ad3e078ad28971eb289b1318fd587e61a92e0564135bebe715430fdb67327910160405180910390a298975050505050505050565b6000610c88610e02565b6001600160a01b038316610cdb5760405162461bcd60e51b8152602060048201526015602482015274696e76616c696420746f6b656e206164647265737360581b60448201526064015b60405180910390fd5b506002805460ff8316600160a01b026001600160a81b03199091166001600160a01b03851617179055600192915050565b610d14610e02565b6001600160a01b038116610d3e57604051631e4fbdf760e01b815260006004820152602401610cd2565b610d4781610eed565b50565b610d5261116e565b604080516101408101825267ffffffffffffffff421681523060208201526003546001600160a01b03908116928201929092526002549091166060820152821515608082015260a081016000815260200183610daf576000610dba565b68056bc75e2d631000005b68ffffffffffffffffff16815260200183610dde5768056bc75e2d63100000610de1565b60005b68ffffffffffffffffff168152600060208201526040016001905292915050565b33610e347f9016d09d72d40fdae2fd8ceac6b6234c7706214fd39c1cd1e609a0528c199300546001600160a01b031690565b6001600160a01b0316146106565760405163118cdaa760e01b8152336004820152602401610cd2565b610e65610fc8565b6000805160206115bf833981519152805460ff191681557f5db9ee0a495bf2e6ff9c91a7834c1ba4fdd244a5e8aa4e537bd38aeae4b073aa335b6040516001600160a01b03909116815260200160405180910390a150565b60008262ffffff16600003610ed3576000610ee6565b610ee68262ffffff8516620f4240610ff8565b9392505050565b7f9016d09d72d40fdae2fd8ceac6b6234c7706214fd39c1cd1e609a0528c19930080546001600160a01b031981166001600160a01b03848116918217845560405192169182907f8be0079c531659141344cd1fd0a4f28419497f9722a3daafe3b4186f6b6457e090600090a3505050565b610f666110cb565b6000805160206115bf833981519152805460ff191660011781557f62e78cea01bee320cd4e420270b5ea74000d11b0c9f74754ebdbfc544b05a25833610e9f565b610faf6110fc565b610d4781611145565b610fc06110fc565b61065661114d565b6000805160206115bf8339815191525460ff1661065657604051638dfc202b60e01b815260040160405180910390fd5b600080806000198587098587029250828110838203039150508060000361103257838281611028576110286115a8565b0492505050610ee6565b83811061106357604051630c740aef60e31b8152600481018790526024810186905260448101859052606401610cd2565b600084868809600260036001881981018916988990049182028318808302840302808302840302808302840302808302840302808302840302918202909203026000889003889004909101858311909403939093029303949094049190911702949350505050565b6000805160206115bf8339815191525460ff16156106565760405163d93c066560e01b815260040160405180910390fd5b7ff0c57e16840df040f15088dc2f81fe391c3923bec73e23a9662efc9c229c6a0054600160401b900460ff1661065657604051631afcd79f60e31b815260040160405180910390fd5b610d146110fc565b6111556110fc565b6000805160206115bf833981519152805460ff19169055565b604080516101408101825260008082526020820181905291810182905260608101829052608081018290529060a08201908152602001600081526020016000815260200160008152602001600060038111156111cc576111cc611217565b905290565b80356001600160a01b03811681146111e857600080fd5b919050565b6000806040838503121561120057600080fd5b611209836111d1565b946020939093013593505050565b634e487b7160e01b600052602160045260246000fd5b6005811061123d5761123d611217565b9052565b600060208083018184528085518083526040925060408601915060408160051b8701018488016000805b8481101561131757898403603f19018652825180516001600160a01b039081168652898201518a8701528882015160c08a8801819052815190880181905260e0880192918c01919086905b808210156112d857835183168552938d0193928d0192600191909101906112b6565b50505050606082810151908701526080808301519087015260a091820151916113038188018461122d565b50968901969450509187019160010161126b565b50919998505050505050505050565b60006020828403121561133857600080fd5b5035919050565b6001600160a01b038616815260208101859052604081018490526060810183905260a08101611371608083018461122d565b9695505050505050565b803560ff811681146111e857600080fd5b600080600080608085870312156113a257600080fd5b6113ab856111d1565b93506113b96020860161137b565b92506113c7604086016111d1565b91506113d5606086016111d1565b905092959194509250565b600080604083850312156113f357600080fd5b6113fc836111d1565b915061140a6020840161137b565b90509250929050565b60006020828403121561142557600080fd5b610ee6826111d1565b60006020828403121561144057600080fd5b81518015158114610ee657600080fd5b6002811061123d5761123d611217565b6004811061123d5761123d611217565b815167ffffffffffffffff1681526101408101602083015161149d60208401826001600160a01b03169052565b5060408301516114b860408401826001600160a01b03169052565b5060608301516114d360608401826001600160a01b03169052565b5060808301516114e7608084018215159052565b5060a08301516114fa60a0840182611450565b5060c083015160c083015260e083015160e08301526101008084015181840152506101208084015161152e82850182611460565b505092915050565b60006020828403121561154857600080fd5b5051919050565b6000806040838503121561156257600080fd5b82519150602083015162ffffff8116811461157c57600080fd5b809150509250929050565b8082018082111561052457634e487b7160e01b600052601160045260246000fd5b634e487b7160e01b600052601260045260246000fdfecd5ed15c6e187e77e9aee88184c21f4f2182ab5827cb3b7e07fbedcd63f03300a264697066735822122061b5f294a849b4d23063c284845eb862b3506fede4dced48ebae821f09fca62164736f6c63430008190033","linkReferences":{}},"methodIdentifiers":{"burnRequestNonce(bytes32)":"c72551be","burnRequests(uint256)":"6406c10c","calculateFees(uint256)":"52238fdd","custodianWallet()":"1e106e99","getAllBurnRequests()":"1e7aa9f4","getAllMintRequests()":"64c70d45","initialize(address,uint8,address,address)":"9c2c58f8","issuer()":"1d143848","mintRequestNonce(bytes32)":"9ad4b86b","mintRequests(uint256)":"424e6575","owner()":"8da5cb5b","pause()":"8456cb59","paused()":"5c975abb","renounceOwnership()":"715018a6","requestBuyOrder(address,uint256)":"d5151fbd","requestSellOrder(address,uint256)":"169ca4cc","setUsdcAddress(address,uint8)":"eab2a711","token()":"fc0c546a","transferOwnership(address)":"f2fde38b","unpause()":"3f4ba83a","usdc()":"3e413bee","usdcDecimals()":"7bf42165"},"id":19}