{"abi":[{"type":"constructor","inputs":[{"name":"name_","type":"string","internalType":"string"},{"name":"symbol_","type":"string","internalType":"string"}],"stateMutability":"nonpayable"},{"type":"function","name":"DEFAULT_ADMIN_ROLE","inputs":[],"outputs":[{"name":"","type":"bytes32","internalType":"bytes32"}],"stateMutability":"view"},{"type":"function","name":"DOMAIN_SEPARATOR","inputs":[],"outputs":[{"name":"","type":"bytes32","internalType":"bytes32"}],"stateMutability":"view"},{"type":"function","name":"MINTER_ROLE","inputs":[],"outputs":[{"name":"","type":"bytes32","internalType":"bytes32"}],"stateMutability":"view"},{"type":"function","name":"allowance","inputs":[{"name":"owner","type":"address","internalType":"address"},{"name":"spender","type":"address","internalType":"address"}],"outputs":[{"name":"","type":"uint256","internalType":"uint256"}],"stateMutability":"view"},{"type":"function","name":"approve","inputs":[{"name":"spender","type":"address","internalType":"address"},{"name":"value","type":"uint256","internalType":"uint256"}],"outputs":[{"name":"","type":"bool","internalType":"bool"}],"stateMutability":"nonpayable"},{"type":"function","name":"balanceOf","inputs":[{"name":"account","type":"address","internalType":"address"}],"outputs":[{"name":"","type":"uint256","internalType":"uint256"}],"stateMutability":"view"},{"type":"function","name":"blacklist","inputs":[{"name":"account","type":"address","internalType":"address"}],"outputs":[],"stateMutability":"nonpayable"},{"type":"function","name":"decimals","inputs":[],"outputs":[{"name":"","type":"uint8","internalType":"uint8"}],"stateMutability":"pure"},{"type":"function","name":"eip712Domain","inputs":[],"outputs":[{"name":"fields","type":"bytes1","internalType":"bytes1"},{"name":"name","type":"string","internalType":"string"},{"name":"version","type":"string","internalType":"string"},{"name":"chainId","type":"uint256","internalType":"uint256"},{"name":"verifyingContract","type":"address","internalType":"address"},{"name":"salt","type":"bytes32","internalType":"bytes32"},{"name":"extensions","type":"uint256[]","internalType":"uint256[]"}],"stateMutability":"view"},{"type":"function","name":"getRoleAdmin","inputs":[{"name":"role","type":"bytes32","internalType":"bytes32"}],"outputs":[{"name":"","type":"bytes32","internalType":"bytes32"}],"stateMutability":"view"},{"type":"function","name":"grantRole","inputs":[{"name":"role","type":"bytes32","internalType":"bytes32"},{"name":"account","type":"address","internalType":"address"}],"outputs":[],"stateMutability":"nonpayable"},{"type":"function","name":"hasRole","inputs":[{"name":"role","type":"bytes32","internalType":"bytes32"},{"name":"account","type":"address","internalType":"address"}],"outputs":[{"name":"","type":"bool","internalType":"bool"}],"stateMutability":"view"},{"type":"function","name":"isBlackListed","inputs":[{"name":"","type":"address","internalType":"address"}],"outputs":[{"name":"","type":"bool","internalType":"bool"}],"stateMutability":"view"},{"type":"function","name":"isBlacklisted","inputs":[{"name":"","type":"address","internalType":"address"}],"outputs":[{"name":"","type":"bool","internalType":"bool"}],"stateMutability":"view"},{"type":"function","name":"isBlocked","inputs":[{"name":"","type":"address","internalType":"address"}],"outputs":[{"name":"","type":"bool","internalType":"bool"}],"stateMutability":"view"},{"type":"function","name":"mint","inputs":[{"name":"account","type":"address","internalType":"address"},{"name":"amount","type":"uint256","internalType":"uint256"}],"outputs":[],"stateMutability":"nonpayable"},{"type":"function","name":"name","inputs":[],"outputs":[{"name":"","type":"string","internalType":"string"}],"stateMutability":"view"},{"type":"function","name":"nonces","inputs":[{"name":"owner","type":"address","internalType":"address"}],"outputs":[{"name":"","type":"uint256","internalType":"uint256"}],"stateMutability":"view"},{"type":"function","name":"permit","inputs":[{"name":"owner","type":"address","internalType":"address"},{"name":"spender","type":"address","internalType":"address"},{"name":"value","type":"uint256","internalType":"uint256"},{"name":"deadline","type":"uint256","internalType":"uint256"},{"name":"v","type":"uint8","internalType":"uint8"},{"name":"r","type":"bytes32","internalType":"bytes32"},{"name":"s","type":"bytes32","internalType":"bytes32"}],"outputs":[],"stateMutability":"nonpayable"},{"type":"function","name":"renounceRole","inputs":[{"name":"role","type":"bytes32","internalType":"bytes32"},{"name":"callerConfirmation","type":"address","internalType":"address"}],"outputs":[],"stateMutability":"nonpayable"},{"type":"function","name":"revokeRole","inputs":[{"name":"role","type":"bytes32","internalType":"bytes32"},{"name":"account","type":"address","internalType":"address"}],"outputs":[],"stateMutability":"nonpayable"},{"type":"function","name":"supportsInterface","inputs":[{"name":"interfaceId","type":"bytes4","internalType":"bytes4"}],"outputs":[{"name":"","type":"bool","internalType":"bool"}],"stateMutability":"view"},{"type":"function","name":"symbol","inputs":[],"outputs":[{"name":"","type":"string","internalType":"string"}],"stateMutability":"view"},{"type":"function","name":"totalSupply","inputs":[],"outputs":[{"name":"","type":"uint256","internalType":"uint256"}],"stateMutability":"view"},{"type":"function","name":"transfer","inputs":[{"name":"to","type":"address","internalType":"address"},{"name":"value","type":"uint256","internalType":"uint256"}],"outputs":[{"name":"","type":"bool","internalType":"bool"}],"stateMutability":"nonpayable"},{"type":"function","name":"transferFrom","inputs":[{"name":"from","type":"address","internalType":"address"},{"name":"to","type":"address","internalType":"address"},{"name":"value","type":"uint256","internalType":"uint256"}],"outputs":[{"name":"","type":"bool","internalType":"bool"}],"stateMutability":"nonpayable"},{"type":"function","name":"version","inputs":[],"outputs":[{"name":"","type":"string","internalType":"string"}],"stateMutability":"view"},{"type":"event","name":"Approval","inputs":[{"name":"owner","type":"address","indexed":true,"internalType":"address"},{"name":"spender","type":"address","indexed":true,"internalType":"address"},{"name":"value","type":"uint256","indexed":false,"internalType":"uint256"}],"anonymous":false},{"type":"event","name":"EIP712DomainChanged","inputs":[],"anonymous":false},{"type":"event","name":"RoleAdminChanged","inputs":[{"name":"role","type":"bytes32","indexed":true,"internalType":"bytes32"},{"name":"previousAdminRole","type":"bytes32","indexed":true,"internalType":"bytes32"},{"name":"newAdminRole","type":"bytes32","indexed":true,"internalType":"bytes32"}],"anonymous":false},{"type":"event","name":"RoleGranted","inputs":[{"name":"role","type":"bytes32","indexed":true,"internalType":"bytes32"},{"name":"account","type":"address","indexed":true,"internalType":"address"},{"name":"sender","type":"address","indexed":true,"internalType":"address"}],"anonymous":false},{"type":"event","name":"RoleRevoked","inputs":[{"name":"role","type":"bytes32","indexed":true,"internalType":"bytes32"},{"name":"account","type":"address","indexed":true,"internalType":"address"},{"name":"sender","type":"address","indexed":true,"internalType":"address"}],"anonymous":false},{"type":"event","name":"Transfer","inputs":[{"name":"from","type":"address","indexed":true,"internalType":"address"},{"name":"to","type":"address","indexed":true,"internalType":"address"},{"name":"value","type":"uint256","indexed":false,"internalType":"uint256"}],"anonymous":false},{"type":"error","name":"AccessControlBadConfirmation","inputs":[]},{"type":"error","name":"AccessControlUnauthorizedAccount","inputs":[{"name":"account","type":"address","internalType":"address"},{"name":"neededRole","type":"bytes32","internalType":"bytes32"}]},{"type":"error","name":"ECDSAInvalidSignature","inputs":[]},{"type":"error","name":"ECDSAInvalidSignatureLength","inputs":[{"name":"length","type":"uint256","internalType":"uint256"}]},{"type":"error","name":"ECDSAInvalidSignatureS","inputs":[{"name":"s","type":"bytes32","internalType":"bytes32"}]},{"type":"error","name":"ERC20InsufficientAllowance","inputs":[{"name":"spender","type":"address","internalType":"address"},{"name":"allowance","type":"uint256","internalType":"uint256"},{"name":"needed","type":"uint256","internalType":"uint256"}]},{"type":"error","name":"ERC20InsufficientBalance","inputs":[{"name":"sender","type":"address","internalType":"address"},{"name":"balance","type":"uint256","internalType":"uint256"},{"name":"needed","type":"uint256","internalType":"uint256"}]},{"type":"error","name":"ERC20InvalidApprover","inputs":[{"name":"approver","type":"address","internalType":"address"}]},{"type":"error","name":"ERC20InvalidReceiver","inputs":[{"name":"receiver","type":"address","internalType":"address"}]},{"type":"error","name":"ERC20InvalidSender","inputs":[{"name":"sender","type":"address","internalType":"address"}]},{"type":"error","name":"ERC20InvalidSpender","inputs":[{"name":"spender","type":"address","internalType":"address"}]},{"type":"error","name":"ERC2612ExpiredSignature","inputs":[{"name":"deadline","type":"uint256","internalType":"uint256"}]},{"type":"error","name":"ERC2612InvalidSigner","inputs":[{"name":"signer","type":"address","internalType":"address"},{"name":"owner","type":"address","internalType":"address"}]},{"type":"error","name":"InvalidAccountNonce","inputs":[{"name":"account","type":"address","internalType":"address"},{"name":"currentNonce","type":"uint256","internalType":"uint256"}]},{"type":"error","name":"InvalidShortString","inputs":[]},{"type":"error","name":"StringTooLong","inputs":[{"name":"str","type":"string","internalType":"string"}]}],"bytecode":{"object":"0x610160604052348015610010575f80fd5b50604051611b42380380611b4283398101604081905261002f916104e3565b8161007b60fa4244604051602001610051929190918252602082015260400190565b604051602081830303815290604052805190602001205f1c6100739190610542565b60ff166101b4565b81818585600361008b83826105e5565b50600461009882826105e5565b506100a891508390506005610243565b610120526100b7816006610243565b61014052815160208084019190912060e052815190820120610100524660a05261014360e05161010051604080517f8b73c3c69bb8fe3d512ecc4cf759cc79239f7b179b0ffacaa9a75d522b39400f60208201529081019290925260608201524660808201523060a08201525f9060c00160405160208183030381529060405280519060200120905090565b60805250503060c052600861015882826105e5565b50600a9150610169905083826105e5565b50600b61017682826105e5565b506101815f33610275565b506101ac7f9f2df0fed2c77648de5860a4cc508cd0818c85b8b8a1ab4ceeef8d981c8956a633610275565b5050506106fc565b60605f6101c083610320565b60010190505f816001600160401b038111156101de576101de610447565b6040519080825280601f01601f191660200182016040528015610208576020820181803683370190505b5090508181016020015b5f19016f181899199a1a9b1b9c1cb0b131b232b360811b600a86061a8153600a850494508461021257509392505050565b5f60208351101561025e5761025783610401565b905061026f565b8161026984826105e5565b5060ff90505b92915050565b5f8281526009602090815260408083206001600160a01b038516845290915281205460ff16610319575f8381526009602090815260408083206001600160a01b03861684529091529020805460ff191660011790556102d13390565b6001600160a01b0316826001600160a01b0316847f2f8788117e7eff1d82e926ec794901d17c78024a50270940304540a733656f0d60405160405180910390a450600161026f565b505f61026f565b5f807a184f03e93ff9f4daa797ed6e38ed64bf6a1f0100000000000000008310610368577a184f03e93ff9f4daa797ed6e38ed64bf6a1f010000000000000000830492506040015b6d04ee2d6d415b85acef81000000008310610394576d04ee2d6d415b85acef8100000000830492506020015b662386f26fc1000083106103b257662386f26fc10000830492506010015b6305f5e10083106103ca576305f5e100830492506008015b61271083106103de57612710830492506004015b606483106103f0576064830492506002015b600a831061026f5760010192915050565b5f80829050601f81511115610434578260405163305a27a960e01b815260040161042b91906106a4565b60405180910390fd5b805161043f826106d9565b179392505050565b634e487b7160e01b5f52604160045260245ffd5b5f82601f83011261046a575f80fd5b81516001600160401b038082111561048457610484610447565b604051601f8301601f19908116603f011681019082821181831017156104ac576104ac610447565b816040528381528660208588010111156104c4575f80fd5b8360208701602083015e5f602085830101528094505050505092915050565b5f80604083850312156104f4575f80fd5b82516001600160401b038082111561050a575f80fd5b6105168683870161045b565b9350602085015191508082111561052b575f80fd5b506105388582860161045b565b9150509250929050565b5f8261055c57634e487b7160e01b5f52601260045260245ffd5b500690565b600181811c9082168061057557607f821691505b60208210810361059357634e487b7160e01b5f52602260045260245ffd5b50919050565b601f8211156105e057805f5260205f20601f840160051c810160208510156105be5750805b601f840160051c820191505b818110156105dd575f81556001016105ca565b50505b505050565b81516001600160401b038111156105fe576105fe610447565b6106128161060c8454610561565b84610599565b602080601f831160018114610645575f841561062e5750858301515b5f19600386901b1c1916600185901b17855561069c565b5f85815260208120601f198616915b8281101561067357888601518255948401946001909101908401610654565b508582101561069057878501515f19600388901b60f8161c191681555b505060018460011b0185555b505050505050565b602081525f82518060208401528060208501604085015e5f604082850101526040601f19601f83011684010191505092915050565b80516020808301519190811015610593575f1960209190910360031b1b16919050565b60805160a05160c05160e0516101005161012051610140516113f561074d5f395f610ba801525f610b7b01525f610a8101525f610a5901525f6109b401525f6109de01525f610a0801526113f55ff3fe608060405234801561000f575f80fd5b50600436106101a1575f3560e01c80637ecebe00116100f3578063d539139311610093578063e47d60601161006e578063e47d6060146103a6578063f9f92be4146103c8578063fbac3951146103db578063fe575a87146103fd575f80fd5b8063d539139314610334578063d547741f1461035b578063dd62ed3e1461036e575f80fd5b806395d89b41116100ce57806395d89b41146102ff578063a217fddf14610307578063a9059cbb1461030e578063d505accf14610321575f80fd5b80637ecebe00146102be57806384b0196e146102d157806391d14854146102ec575f80fd5b80632f2ff15d1161015e57806336568abe1161013957806336568abe1461026857806340c10f191461027b57806354fd4d501461028e57806370a0823114610296575f80fd5b80632f2ff15d1461023c578063313ce567146102515780633644e51514610260575f80fd5b806301ffc9a7146101a557806306fdde03146101cd578063095ea7b3146101e257806318160ddd146101f557806323b872dd14610207578063248a9ca31461021a575b5f80fd5b6101b86101b33660046110e4565b61041f565b60405190151581526020015b60405180910390f35b6101d5610455565b6040516101c49190611140565b6101b86101f036600461116d565b6104e5565b6002545b6040519081526020016101c4565b6101b8610215366004611195565b6104fc565b6101f96102283660046111ce565b5f9081526009602052604090206001015490565b61024f61024a3660046111e5565b61051f565b005b604051600681526020016101c4565b6101f9610549565b61024f6102763660046111e5565b610557565b61024f61028936600461116d565b61058f565b6101d56105c3565b6101f96102a436600461120f565b6001600160a01b03165f9081526020819052604090205490565b6101f96102cc36600461120f565b6105d2565b6102d96105ef565b6040516101c49796959493929190611228565b6101b86102fa3660046111e5565b610631565b6101d561065b565b6101f95f81565b6101b861031c36600461116d565b61066a565b61024f61032f3660046112bf565b610677565b6101f97f9f2df0fed2c77648de5860a4cc508cd0818c85b8b8a1ab4ceeef8d981c8956a681565b61024f6103693660046111e5565b6107b2565b6101f961037c36600461132c565b6001600160a01b039182165f90815260016020908152604080832093909416825291909152205490565b6101b86103b436600461120f565b600d6020525f908152604090205460ff1681565b61024f6103d636600461120f565b6107d6565b6101b86103e936600461120f565b600e6020525f908152604090205460ff1681565b6101b861040b36600461120f565b600c6020525f908152604090205460ff1681565b5f6001600160e01b03198216637965db0b60e01b148061044f57506301ffc9a760e01b6001600160e01b03198316145b92915050565b6060600a805461046490611354565b80601f016020809104026020016040519081016040528092919081815260200182805461049090611354565b80156104db5780601f106104b2576101008083540402835291602001916104db565b820191905f5260205f20905b8154815290600101906020018083116104be57829003601f168201915b5050505050905090565b5f336104f281858561082b565b5060019392505050565b5f33610509858285610838565b6105148585856108ad565b506001949350505050565b5f828152600960205260409020600101546105398161090a565b6105438383610917565b50505050565b5f6105526109a8565b905090565b6001600160a01b03811633146105805760405163334bd91960e11b815260040160405180910390fd5b61058a8282610ad1565b505050565b7f9f2df0fed2c77648de5860a4cc508cd0818c85b8b8a1ab4ceeef8d981c8956a66105b98161090a565b61058a8383610b3c565b60606008805461046490611354565b6001600160a01b0381165f9081526007602052604081205461044f565b5f6060805f805f6060610600610b74565b610608610ba1565b604080515f80825260208201909252600f60f81b9b939a50919850469750309650945092509050565b5f9182526009602090815260408084206001600160a01b0393909316845291905290205460ff1690565b6060600b805461046490611354565b5f336104f28185856108ad565b834211156106a05760405163313c898160e11b8152600481018590526024015b60405180910390fd5b5f7f6e71edae12b1b97f4d1f60370fef10105fa2faae0126114a169c64845d6126c98888886106eb8c6001600160a01b03165f90815260076020526040902080546001810190915590565b6040805160208101969096526001600160a01b0394851690860152929091166060840152608083015260a082015260c0810186905260e0016040516020818303038152906040528051906020012090505f61074582610bce565b90505f61075482878787610bfa565b9050896001600160a01b0316816001600160a01b03161461079b576040516325c0072360e11b81526001600160a01b0380831660048301528b166024820152604401610697565b6107a68a8a8a61082b565b50505050505050505050565b5f828152600960205260409020600101546107cc8161090a565b6105438383610ad1565b5f6107e08161090a565b506001600160a01b03165f908152600c602090815260408083208054600160ff199182168117909255600d84528285208054821683179055600e909352922080549091169091179055565b61058a8383836001610c26565b6001600160a01b038381165f908152600160209081526040808320938616835292905220545f198114610543578181101561089f57604051637dc7a0d960e11b81526001600160a01b03841660048201526024810182905260448101839052606401610697565b61054384848484035f610c26565b6001600160a01b0383166108d657604051634b637e8f60e11b81525f6004820152602401610697565b6001600160a01b0382166108ff5760405163ec442f0560e01b81525f6004820152602401610697565b61058a838383610cf8565b6109148133610e1e565b50565b5f6109228383610631565b6109a1575f8381526009602090815260408083206001600160a01b03861684529091529020805460ff191660011790556109593390565b6001600160a01b0316826001600160a01b0316847f2f8788117e7eff1d82e926ec794901d17c78024a50270940304540a733656f0d60405160405180910390a450600161044f565b505f61044f565b5f306001600160a01b037f000000000000000000000000000000000000000000000000000000000000000016148015610a0057507f000000000000000000000000000000000000000000000000000000000000000046145b15610a2a57507f000000000000000000000000000000000000000000000000000000000000000090565b610552604080517f8b73c3c69bb8fe3d512ecc4cf759cc79239f7b179b0ffacaa9a75d522b39400f60208201527f0000000000000000000000000000000000000000000000000000000000000000918101919091527f000000000000000000000000000000000000000000000000000000000000000060608201524660808201523060a08201525f9060c00160405160208183030381529060405280519060200120905090565b5f610adc8383610631565b156109a1575f8381526009602090815260408083206001600160a01b0386168085529252808320805460ff1916905551339286917ff6391f5c32d9c69d2a47ea670b442974b53935d1edc7fd64eb21e047a839171b9190a450600161044f565b6001600160a01b038216610b655760405163ec442f0560e01b81525f6004820152602401610697565b610b705f8383610cf8565b5050565b60606105527f00000000000000000000000000000000000000000000000000000000000000006005610e57565b60606105527f00000000000000000000000000000000000000000000000000000000000000006006610e57565b5f61044f610bda6109a8565b8360405161190160f01b8152600281019290925260228201526042902090565b5f805f80610c0a88888888610f00565b925092509250610c1a8282610fc8565b50909695505050505050565b6001600160a01b038416610c4f5760405163e602df0560e01b81525f6004820152602401610697565b6001600160a01b038316610c7857604051634a1406b160e11b81525f6004820152602401610697565b6001600160a01b038085165f908152600160209081526040808320938716835292905220829055801561054357826001600160a01b0316846001600160a01b03167f8c5be1e5ebec7d5bd14f71427d1e84f3dd0314c0f7b2291e5b200ac8c7c3b92584604051610cea91815260200190565b60405180910390a350505050565b6001600160a01b038316610d22578060025f828254610d17919061138c565b90915550610d929050565b6001600160a01b0383165f9081526020819052604090205481811015610d745760405163391434e360e21b81526001600160a01b03851660048201526024810182905260448101839052606401610697565b6001600160a01b0384165f9081526020819052604090209082900390555b6001600160a01b038216610dae57600280548290039055610dcc565b6001600160a01b0382165f9081526020819052604090208054820190555b816001600160a01b0316836001600160a01b03167fddf252ad1be2c89b69c2b068fc378daa952ba7f163c4a11628f55a4df523b3ef83604051610e1191815260200190565b60405180910390a3505050565b610e288282610631565b610b705760405163e2517d3f60e01b81526001600160a01b038216600482015260248101839052604401610697565b606060ff8314610e7157610e6a83611080565b905061044f565b818054610e7d90611354565b80601f0160208091040260200160405190810160405280929190818152602001828054610ea990611354565b8015610ef45780601f10610ecb57610100808354040283529160200191610ef4565b820191905f5260205f20905b815481529060010190602001808311610ed757829003601f168201915b5050505050905061044f565b5f80807f7fffffffffffffffffffffffffffffff5d576e7357a4501ddfe92f46681b20a0841115610f3957505f91506003905082610fbe565b604080515f808252602082018084528a905260ff891692820192909252606081018790526080810186905260019060a0016020604051602081039080840390855afa158015610f8a573d5f803e3d5ffd5b5050604051601f1901519150506001600160a01b038116610fb557505f925060019150829050610fbe565b92505f91508190505b9450945094915050565b5f826003811115610fdb57610fdb6113ab565b03610fe4575050565b6001826003811115610ff857610ff86113ab565b036110165760405163f645eedf60e01b815260040160405180910390fd5b600282600381111561102a5761102a6113ab565b0361104b5760405163fce698f760e01b815260048101829052602401610697565b600382600381111561105f5761105f6113ab565b03610b70576040516335e2f38360e21b815260048101829052602401610697565b60605f61108c836110bd565b6040805160208082528183019092529192505f91906020820181803683375050509182525060208101929092525090565b5f60ff8216601f81111561044f57604051632cd44ac360e21b815260040160405180910390fd5b5f602082840312156110f4575f80fd5b81356001600160e01b03198116811461110b575f80fd5b9392505050565b5f81518084528060208401602086015e5f602082860101526020601f19601f83011685010191505092915050565b602081525f61110b6020830184611112565b80356001600160a01b0381168114611168575f80fd5b919050565b5f806040838503121561117e575f80fd5b61118783611152565b946020939093013593505050565b5f805f606084860312156111a7575f80fd5b6111b084611152565b92506111be60208501611152565b9150604084013590509250925092565b5f602082840312156111de575f80fd5b5035919050565b5f80604083850312156111f6575f80fd5b8235915061120660208401611152565b90509250929050565b5f6020828403121561121f575f80fd5b61110b82611152565b60ff60f81b881681525f602060e0602084015261124860e084018a611112565b838103604085015261125a818a611112565b606085018990526001600160a01b038816608086015260a0850187905284810360c0860152855180825260208088019350909101905f5b818110156112ad57835183529284019291840191600101611291565b50909c9b505050505050505050505050565b5f805f805f805f60e0888a0312156112d5575f80fd5b6112de88611152565b96506112ec60208901611152565b95506040880135945060608801359350608088013560ff8116811461130f575f80fd5b9699959850939692959460a0840135945060c09093013592915050565b5f806040838503121561133d575f80fd5b61134683611152565b915061120660208401611152565b600181811c9082168061136857607f821691505b60208210810361138657634e487b7160e01b5f52602260045260245ffd5b50919050565b8082018082111561044f57634e487b7160e01b5f52601160045260245ffd5b634e487b7160e01b5f52602160045260245ffdfea26469706673582212202595c93010f46fd34c2120e83eeb64abfdc0af1baa61723abf78f0856ad4045864736f6c63430008190033","linkReferences":{}},"methodIdentifiers":{"DEFAULT_ADMIN_ROLE()":"a217fddf","DOMAIN_SEPARATOR()":"3644e515","MINTER_ROLE()":"d5391393","allowance(address,address)":"dd62ed3e","approve(address,uint256)":"095ea7b3","balanceOf(address)":"70a08231","blacklist(address)":"f9f92be4","decimals()":"313ce567","eip712Domain()":"84b0196e","getRoleAdmin(bytes32)":"248a9ca3","grantRole(bytes32,address)":"2f2ff15d","hasRole(bytes32,address)":"91d14854","isBlackListed(address)":"e47d6060","isBlacklisted(address)":"fe575a87","isBlocked(address)":"fbac3951","mint(address,uint256)":"40c10f19","name()":"06fdde03","nonces(address)":"7ecebe00","permit(address,address,uint256,uint256,uint8,bytes32,bytes32)":"d505accf","renounceRole(bytes32,address)":"36568abe","revokeRole(bytes32,address)":"d547741f","supportsInterface(bytes4)":"01ffc9a7","symbol()":"95d89b41","totalSupply()":"18160ddd","transfer(address,uint256)":"a9059cbb","transferFrom(address,address,uint256)":"23b872dd","version()":"54fd4d50"},"id":162}