{"abi":[{"type":"constructor","inputs":[{"name":"name_","type":"string","internalType":"string"},{"name":"symbol_","type":"string","internalType":"string"}],"stateMutability":"nonpayable"},{"type":"function","name":"DEFAULT_ADMIN_ROLE","inputs":[],"outputs":[{"name":"","type":"bytes32","internalType":"bytes32"}],"stateMutability":"view"},{"type":"function","name":"DOMAIN_SEPARATOR","inputs":[],"outputs":[{"name":"","type":"bytes32","internalType":"bytes32"}],"stateMutability":"view"},{"type":"function","name":"MINTER_ROLE","inputs":[],"outputs":[{"name":"","type":"bytes32","internalType":"bytes32"}],"stateMutability":"view"},{"type":"function","name":"allowance","inputs":[{"name":"owner","type":"address","internalType":"address"},{"name":"spender","type":"address","internalType":"address"}],"outputs":[{"name":"","type":"uint256","internalType":"uint256"}],"stateMutability":"view"},{"type":"function","name":"approve","inputs":[{"name":"spender","type":"address","internalType":"address"},{"name":"value","type":"uint256","internalType":"uint256"}],"outputs":[{"name":"","type":"bool","internalType":"bool"}],"stateMutability":"nonpayable"},{"type":"function","name":"balanceOf","inputs":[{"name":"account","type":"address","internalType":"address"}],"outputs":[{"name":"","type":"uint256","internalType":"uint256"}],"stateMutability":"view"},{"type":"function","name":"blacklist","inputs":[{"name":"account","type":"address","internalType":"address"}],"outputs":[],"stateMutability":"nonpayable"},{"type":"function","name":"decimals","inputs":[],"outputs":[{"name":"","type":"uint8","internalType":"uint8"}],"stateMutability":"pure"},{"type":"function","name":"eip712Domain","inputs":[],"outputs":[{"name":"fields","type":"bytes1","internalType":"bytes1"},{"name":"name","type":"string","internalType":"string"},{"name":"version","type":"string","internalType":"string"},{"name":"chainId","type":"uint256","internalType":"uint256"},{"name":"verifyingContract","type":"address","internalType":"address"},{"name":"salt","type":"bytes32","internalType":"bytes32"},{"name":"extensions","type":"uint256[]","internalType":"uint256[]"}],"stateMutability":"view"},{"type":"function","name":"getRoleAdmin","inputs":[{"name":"role","type":"bytes32","internalType":"bytes32"}],"outputs":[{"name":"","type":"bytes32","internalType":"bytes32"}],"stateMutability":"view"},{"type":"function","name":"grantRole","inputs":[{"name":"role","type":"bytes32","internalType":"bytes32"},{"name":"account","type":"address","internalType":"address"}],"outputs":[],"stateMutability":"nonpayable"},{"type":"function","name":"hasRole","inputs":[{"name":"role","type":"bytes32","internalType":"bytes32"},{"name":"account","type":"address","internalType":"address"}],"outputs":[{"name":"","type":"bool","internalType":"bool"}],"stateMutability":"view"},{"type":"function","name":"isBlackListed","inputs":[{"name":"","type":"address","internalType":"address"}],"outputs":[{"name":"","type":"bool","internalType":"bool"}],"stateMutability":"view"},{"type":"function","name":"isBlacklisted","inputs":[{"name":"","type":"address","internalType":"address"}],"outputs":[{"name":"","type":"bool","internalType":"bool"}],"stateMutability":"view"},{"type":"function","name":"isBlocked","inputs":[{"name":"","type":"address","internalType":"address"}],"outputs":[{"name":"","type":"bool","internalType":"bool"}],"stateMutability":"view"},{"type":"function","name":"mint","inputs":[{"name":"account","type":"address","internalType":"address"},{"name":"amount","type":"uint256","internalType":"uint256"}],"outputs":[],"stateMutability":"nonpayable"},{"type":"function","name":"name","inputs":[],"outputs":[{"name":"","type":"string","internalType":"string"}],"stateMutability":"view"},{"type":"function","name":"nonces","inputs":[{"name":"owner","type":"address","internalType":"address"}],"outputs":[{"name":"","type":"uint256","internalType":"uint256"}],"stateMutability":"view"},{"type":"function","name":"permit","inputs":[{"name":"owner","type":"address","internalType":"address"},{"name":"spender","type":"address","internalType":"address"},{"name":"value","type":"uint256","internalType":"uint256"},{"name":"deadline","type":"uint256","internalType":"uint256"},{"name":"v","type":"uint8","internalType":"uint8"},{"name":"r","type":"bytes32","internalType":"bytes32"},{"name":"s","type":"bytes32","internalType":"bytes32"}],"outputs":[],"stateMutability":"nonpayable"},{"type":"function","name":"renounceRole","inputs":[{"name":"role","type":"bytes32","internalType":"bytes32"},{"name":"callerConfirmation","type":"address","internalType":"address"}],"outputs":[],"stateMutability":"nonpayable"},{"type":"function","name":"revokeRole","inputs":[{"name":"role","type":"bytes32","internalType":"bytes32"},{"name":"account","type":"address","internalType":"address"}],"outputs":[],"stateMutability":"nonpayable"},{"type":"function","name":"supportsInterface","inputs":[{"name":"interfaceId","type":"bytes4","internalType":"bytes4"}],"outputs":[{"name":"","type":"bool","internalType":"bool"}],"stateMutability":"view"},{"type":"function","name":"symbol","inputs":[],"outputs":[{"name":"","type":"string","internalType":"string"}],"stateMutability":"view"},{"type":"function","name":"totalSupply","inputs":[],"outputs":[{"name":"","type":"uint256","internalType":"uint256"}],"stateMutability":"view"},{"type":"function","name":"transfer","inputs":[{"name":"to","type":"address","internalType":"address"},{"name":"value","type":"uint256","internalType":"uint256"}],"outputs":[{"name":"","type":"bool","internalType":"bool"}],"stateMutability":"nonpayable"},{"type":"function","name":"transferFrom","inputs":[{"name":"from","type":"address","internalType":"address"},{"name":"to","type":"address","internalType":"address"},{"name":"value","type":"uint256","internalType":"uint256"}],"outputs":[{"name":"","type":"bool","internalType":"bool"}],"stateMutability":"nonpayable"},{"type":"function","name":"version","inputs":[],"outputs":[{"name":"","type":"string","internalType":"string"}],"stateMutability":"view"},{"type":"event","name":"Approval","inputs":[{"name":"owner","type":"address","indexed":true,"internalType":"address"},{"name":"spender","type":"address","indexed":true,"internalType":"address"},{"name":"value","type":"uint256","indexed":false,"internalType":"uint256"}],"anonymous":false},{"type":"event","name":"EIP712DomainChanged","inputs":[],"anonymous":false},{"type":"event","name":"RoleAdminChanged","inputs":[{"name":"role","type":"bytes32","indexed":true,"internalType":"bytes32"},{"name":"previousAdminRole","type":"bytes32","indexed":true,"internalType":"bytes32"},{"name":"newAdminRole","type":"bytes32","indexed":true,"internalType":"bytes32"}],"anonymous":false},{"type":"event","name":"RoleGranted","inputs":[{"name":"role","type":"bytes32","indexed":true,"internalType":"bytes32"},{"name":"account","type":"address","indexed":true,"internalType":"address"},{"name":"sender","type":"address","indexed":true,"internalType":"address"}],"anonymous":false},{"type":"event","name":"RoleRevoked","inputs":[{"name":"role","type":"bytes32","indexed":true,"internalType":"bytes32"},{"name":"account","type":"address","indexed":true,"internalType":"address"},{"name":"sender","type":"address","indexed":true,"internalType":"address"}],"anonymous":false},{"type":"event","name":"Transfer","inputs":[{"name":"from","type":"address","indexed":true,"internalType":"address"},{"name":"to","type":"address","indexed":true,"internalType":"address"},{"name":"value","type":"uint256","indexed":false,"internalType":"uint256"}],"anonymous":false},{"type":"error","name":"AccessControlBadConfirmation","inputs":[]},{"type":"error","name":"AccessControlUnauthorizedAccount","inputs":[{"name":"account","type":"address","internalType":"address"},{"name":"neededRole","type":"bytes32","internalType":"bytes32"}]},{"type":"error","name":"ECDSAInvalidSignature","inputs":[]},{"type":"error","name":"ECDSAInvalidSignatureLength","inputs":[{"name":"length","type":"uint256","internalType":"uint256"}]},{"type":"error","name":"ECDSAInvalidSignatureS","inputs":[{"name":"s","type":"bytes32","internalType":"bytes32"}]},{"type":"error","name":"ERC20InsufficientAllowance","inputs":[{"name":"spender","type":"address","internalType":"address"},{"name":"allowance","type":"uint256","internalType":"uint256"},{"name":"needed","type":"uint256","internalType":"uint256"}]},{"type":"error","name":"ERC20InsufficientBalance","inputs":[{"name":"sender","type":"address","internalType":"address"},{"name":"balance","type":"uint256","internalType":"uint256"},{"name":"needed","type":"uint256","internalType":"uint256"}]},{"type":"error","name":"ERC20InvalidApprover","inputs":[{"name":"approver","type":"address","internalType":"address"}]},{"type":"error","name":"ERC20InvalidReceiver","inputs":[{"name":"receiver","type":"address","internalType":"address"}]},{"type":"error","name":"ERC20InvalidSender","inputs":[{"name":"sender","type":"address","internalType":"address"}]},{"type":"error","name":"ERC20InvalidSpender","inputs":[{"name":"spender","type":"address","internalType":"address"}]},{"type":"error","name":"ERC2612ExpiredSignature","inputs":[{"name":"deadline","type":"uint256","internalType":"uint256"}]},{"type":"error","name":"ERC2612InvalidSigner","inputs":[{"name":"signer","type":"address","internalType":"address"},{"name":"owner","type":"address","internalType":"address"}]},{"type":"error","name":"InvalidAccountNonce","inputs":[{"name":"account","type":"address","internalType":"address"},{"name":"currentNonce","type":"uint256","internalType":"uint256"}]},{"type":"error","name":"InvalidShortString","inputs":[]},{"type":"error","name":"StringTooLong","inputs":[{"name":"str","type":"string","internalType":"string"}]}],"bytecode":{"object":"0x61016060405234801561001157600080fd5b506040516135a13803806135a1833981810160405281019061003391906107f5565b8161007d60fa424460405160200161004c929190610898565b6040516020818303038152906040528051906020012060001c61006f91906108f3565b60ff166101cb60201b60201c565b8181858581600390816100909190610b3b565b5080600490816100a09190610b3b565b5050506100b760058361029f60201b90919060201c565b61012081815250506100d360068261029f60201b90919060201c565b6101408181525050818051906020012060e08181525050808051906020012061010081815250504660a081815250506101106102ef60201b60201c565b608081815250503073ffffffffffffffffffffffffffffffffffffffff1660c08173ffffffffffffffffffffffffffffffffffffffff16815250505050806008908161015c9190610b3b565b50505081600a908161016e9190610b3b565b5080600b908161017e9190610b3b565b506101926000801b3361034a60201b60201c565b506101c37f9f2df0fed2c77648de5860a4cc508cd0818c85b8b8a1ab4ceeef8d981c8956a63361034a60201b60201c565b505050610dcc565b6060600060016101e08461044860201b60201c565b01905060008167ffffffffffffffff8111156101ff576101fe6106af565b5b6040519080825280601f01601f1916602001820160405280156102315781602001600182028036833780820191505090505b509050600082602001820190505b600115610294578080600190039150507f3031323334353637383961626364656600000000000000000000000000000000600a86061a8153600a8581610288576102876108c4565b5b0494506000850361023f575b819350505050919050565b60006020835110156102c1576102ba8361059b60201b60201c565b90506102e9565b826102d18361060360201b60201c565b60000190816102e09190610b3b565b5060ff60001b90505b92915050565b60007f8b73c3c69bb8fe3d512ecc4cf759cc79239f7b179b0ffacaa9a75d522b39400f60e05161010051463060405160200161032f959493929190610c76565b60405160208183030381529060405280519060200120905090565b600061035c838361060d60201b60201c565b61043d5760016009600085815260200190815260200160002060000160008473ffffffffffffffffffffffffffffffffffffffff1673ffffffffffffffffffffffffffffffffffffffff16815260200190815260200160002060006101000a81548160ff0219169083151502179055506103da61067860201b60201c565b73ffffffffffffffffffffffffffffffffffffffff168273ffffffffffffffffffffffffffffffffffffffff16847f2f8788117e7eff1d82e926ec794901d17c78024a50270940304540a733656f0d60405160405180910390a460019050610442565b600090505b92915050565b600080600090507a184f03e93ff9f4daa797ed6e38ed64bf6a1f01000000000000000083106104a6577a184f03e93ff9f4daa797ed6e38ed64bf6a1f010000000000000000838161049c5761049b6108c4565b5b0492506040810190505b6d04ee2d6d415b85acef810000000083106104e3576d04ee2d6d415b85acef810000000083816104d9576104d86108c4565b5b0492506020810190505b662386f26fc10000831061051257662386f26fc100008381610508576105076108c4565b5b0492506010810190505b6305f5e100831061053b576305f5e1008381610531576105306108c4565b5b0492506008810190505b6127108310610560576127108381610556576105556108c4565b5b0492506004810190505b606483106105835760648381610579576105786108c4565b5b0492506002810190505b600a8310610592576001810190505b80915050919050565b600080829050601f815111156105e857826040517f305a27a90000000000000000000000000000000000000000000000000000000081526004016105df9190610d13565b60405180910390fd5b8051816105f490610d65565b60001c1760001b915050919050565b6000819050919050565b60006009600084815260200190815260200160002060000160008373ffffffffffffffffffffffffffffffffffffffff1673ffffffffffffffffffffffffffffffffffffffff16815260200190815260200160002060009054906101000a900460ff16905092915050565b600033905090565b6000604051905090565b600080fd5b600080fd5b600080fd5b600080fd5b6000601f19601f8301169050919050565b7f4e487b7100000000000000000000000000000000000000000000000000000000600052604160045260246000fd5b6106e78261069e565b810181811067ffffffffffffffff82111715610706576107056106af565b5b80604052505050565b6000610719610680565b905061072582826106de565b919050565b600067ffffffffffffffff821115610745576107446106af565b5b61074e8261069e565b9050602081019050919050565b60005b8381101561077957808201518184015260208101905061075e565b60008484015250505050565b60006107986107938461072a565b61070f565b9050828152602081018484840111156107b4576107b3610699565b5b6107bf84828561075b565b509392505050565b600082601f8301126107dc576107db610694565b5b81516107ec848260208601610785565b91505092915050565b6000806040838503121561080c5761080b61068a565b5b600083015167ffffffffffffffff81111561082a5761082961068f565b5b610836858286016107c7565b925050602083015167ffffffffffffffff8111156108575761085661068f565b5b610863858286016107c7565b9150509250929050565b6000819050919050565b6000819050919050565b61089261088d8261086d565b610877565b82525050565b60006108a48285610881565b6020820191506108b48284610881565b6020820191508190509392505050565b7f4e487b7100000000000000000000000000000000000000000000000000000000600052601260045260246000fd5b60006108fe8261086d565b91506109098361086d565b925082610919576109186108c4565b5b828206905092915050565b600081519050919050565b7f4e487b7100000000000000000000000000000000000000000000000000000000600052602260045260246000fd5b6000600282049050600182168061097657607f821691505b6020821081036109895761098861092f565b5b50919050565b60008190508160005260206000209050919050565b60006020601f8301049050919050565b600082821b905092915050565b6000600883026109f17fffffffffffffffffffffffffffffffffffffffffffffffffffffffffffffffff826109b4565b6109fb86836109b4565b95508019841693508086168417925050509392505050565b6000819050919050565b6000610a38610a33610a2e8461086d565b610a13565b61086d565b9050919050565b6000819050919050565b610a5283610a1d565b610a66610a5e82610a3f565b8484546109c1565b825550505050565b600090565b610a7b610a6e565b610a86818484610a49565b505050565b5b81811015610aaa57610a9f600082610a73565b600181019050610a8c565b5050565b601f821115610aef57610ac08161098f565b610ac9846109a4565b81016020851015610ad8578190505b610aec610ae4856109a4565b830182610a8b565b50505b505050565b600082821c905092915050565b6000610b1260001984600802610af4565b1980831691505092915050565b6000610b2b8383610b01565b9150826002028217905092915050565b610b4482610924565b67ffffffffffffffff811115610b5d57610b5c6106af565b5b610b67825461095e565b610b72828285610aae565b600060209050601f831160018114610ba55760008415610b93578287015190505b610b9d8582610b1f565b865550610c05565b601f198416610bb38661098f565b60005b82811015610bdb57848901518255600182019150602085019450602081019050610bb6565b86831015610bf85784890151610bf4601f891682610b01565b8355505b6001600288020188555050505b505050505050565b6000819050919050565b610c2081610c0d565b82525050565b610c2f8161086d565b82525050565b600073ffffffffffffffffffffffffffffffffffffffff82169050919050565b6000610c6082610c35565b9050919050565b610c7081610c55565b82525050565b600060a082019050610c8b6000830188610c17565b610c986020830187610c17565b610ca56040830186610c17565b610cb26060830185610c26565b610cbf6080830184610c67565b9695505050505050565b600082825260208201905092915050565b6000610ce582610924565b610cef8185610cc9565b9350610cff81856020860161075b565b610d088161069e565b840191505092915050565b60006020820190508181036000830152610d2d8184610cda565b905092915050565b600081519050919050565b6000819050602082019050919050565b6000610d5c8251610c0d565b80915050919050565b6000610d7082610d35565b82610d7a84610d40565b9050610d8581610d50565b92506020821015610dc557610dc07fffffffffffffffffffffffffffffffffffffffffffffffffffffffffffffffff836020036008026109b4565b831692505b5050919050565b60805160a05160c05160e05161010051610120516101405161277b610e266000396000611436015260006113fb0152600061199c0152600061197b01526000611181015260006111d701526000611200015261277b6000f3fe608060405234801561001057600080fd5b50600436106101a95760003560e01c80637ecebe00116100f9578063d539139311610097578063e47d606011610071578063e47d6060146104fe578063f9f92be41461052e578063fbac39511461054a578063fe575a871461057a576101a9565b8063d539139314610494578063d547741f146104b2578063dd62ed3e146104ce576101a9565b806395d89b41116100d357806395d89b411461040c578063a217fddf1461042a578063a9059cbb14610448578063d505accf14610478576101a9565b80637ecebe001461038857806384b0196e146103b857806391d14854146103dc576101a9565b80632f2ff15d1161016657806336568abe1161014057806336568abe1461030257806340c10f191461031e57806354fd4d501461033a57806370a0823114610358576101a9565b80632f2ff15d146102aa578063313ce567146102c65780633644e515146102e4576101a9565b806301ffc9a7146101ae57806306fdde03146101de578063095ea7b3146101fc57806318160ddd1461022c57806323b872dd1461024a578063248a9ca31461027a575b600080fd5b6101c860048036038101906101c39190611e56565b6105aa565b6040516101d59190611e9e565b60405180910390f35b6101e6610624565b6040516101f39190611f49565b60405180910390f35b61021660048036038101906102119190611fff565b6106b6565b6040516102239190611e9e565b60405180910390f35b6102346106d9565b604051610241919061204e565b60405180910390f35b610264600480360381019061025f9190612069565b6106e3565b6040516102719190611e9e565b60405180910390f35b610294600480360381019061028f91906120f2565b610712565b6040516102a1919061212e565b60405180910390f35b6102c460048036038101906102bf9190612149565b610732565b005b6102ce610754565b6040516102db91906121a5565b60405180910390f35b6102ec61075d565b6040516102f9919061212e565b60405180910390f35b61031c60048036038101906103179190612149565b61076c565b005b61033860048036038101906103339190611fff565b6107e7565b005b610342610820565b60405161034f9190611f49565b60405180910390f35b610372600480360381019061036d91906121c0565b6108b2565b60405161037f919061204e565b60405180910390f35b6103a2600480360381019061039d91906121c0565b6108fa565b6040516103af919061204e565b60405180910390f35b6103c061090c565b6040516103d397969594939291906122f5565b60405180910390f35b6103f660048036038101906103f19190612149565b6109b6565b6040516104039190611e9e565b60405180910390f35b610414610a21565b6040516104219190611f49565b60405180910390f35b610432610ab3565b60405161043f919061212e565b60405180910390f35b610462600480360381019061045d9190611fff565b610aba565b60405161046f9190611e9e565b60405180910390f35b610492600480360381019061048d91906123a5565b610add565b005b61049c610c25565b6040516104a9919061212e565b60405180910390f35b6104cc60048036038101906104c79190612149565b610c49565b005b6104e860048036038101906104e39190612447565b610c6b565b6040516104f5919061204e565b60405180910390f35b610518600480360381019061051391906121c0565b610cf2565b6040516105259190611e9e565b60405180910390f35b610548600480360381019061054391906121c0565b610d12565b005b610564600480360381019061055f91906121c0565b610e2b565b6040516105719190611e9e565b60405180910390f35b610594600480360381019061058f91906121c0565b610e4b565b6040516105a19190611e9e565b60405180910390f35b60007f7965db0b000000000000000000000000000000000000000000000000000000007bffffffffffffffffffffffffffffffffffffffffffffffffffffffff1916827bffffffffffffffffffffffffffffffffffffffffffffffffffffffff1916148061061d575061061c82610e6b565b5b9050919050565b6060600a8054610633906124b6565b80601f016020809104026020016040519081016040528092919081815260200182805461065f906124b6565b80156106ac5780601f10610681576101008083540402835291602001916106ac565b820191906000526020600020905b81548152906001019060200180831161068f57829003601f168201915b5050505050905090565b6000806106c1610ed5565b90506106ce818585610edd565b600191505092915050565b6000600254905090565b6000806106ee610ed5565b90506106fb858285610eef565b610706858585610f83565b60019150509392505050565b600060096000838152602001908152602001600020600101549050919050565b61073b82610712565b61074481611077565b61074e838361108b565b50505050565b60006006905090565b600061076761117d565b905090565b610774610ed5565b73ffffffffffffffffffffffffffffffffffffffff168173ffffffffffffffffffffffffffffffffffffffff16146107d8576040517f6697b23200000000000000000000000000000000000000000000000000000000815260040160405180910390fd5b6107e28282611234565b505050565b7f9f2df0fed2c77648de5860a4cc508cd0818c85b8b8a1ab4ceeef8d981c8956a661081181611077565b61081b8383611327565b505050565b60606008805461082f906124b6565b80601f016020809104026020016040519081016040528092919081815260200182805461085b906124b6565b80156108a85780601f1061087d576101008083540402835291602001916108a8565b820191906000526020600020905b81548152906001019060200180831161088b57829003601f168201915b5050505050905090565b60008060008373ffffffffffffffffffffffffffffffffffffffff1673ffffffffffffffffffffffffffffffffffffffff168152602001908152602001600020549050919050565b6000610905826113a9565b9050919050565b6000606080600080600060606109206113f2565b61092861142d565b46306000801b600067ffffffffffffffff811115610949576109486124e7565b5b6040519080825280602002602001820160405280156109775781602001602082028036833780820191505090505b507f0f00000000000000000000000000000000000000000000000000000000000000959493929190965096509650965096509650965090919293949596565b60006009600084815260200190815260200160002060000160008373ffffffffffffffffffffffffffffffffffffffff1673ffffffffffffffffffffffffffffffffffffffff16815260200190815260200160002060009054906101000a900460ff16905092915050565b6060600b8054610a30906124b6565b80601f0160208091040260200160405190810160405280929190818152602001828054610a5c906124b6565b8015610aa95780601f10610a7e57610100808354040283529160200191610aa9565b820191906000526020600020905b815481529060010190602001808311610a8c57829003601f168201915b5050505050905090565b6000801b81565b600080610ac5610ed5565b9050610ad2818585610f83565b600191505092915050565b83421115610b2257836040517f62791302000000000000000000000000000000000000000000000000000000008152600401610b19919061204e565b60405180910390fd5b60007f6e71edae12b1b97f4d1f60370fef10105fa2faae0126114a169c64845d6126c9888888610b518c611468565b89604051602001610b6796959493929190612516565b6040516020818303038152906040528051906020012090506000610b8a826114bf565b90506000610b9a828787876114d9565b90508973ffffffffffffffffffffffffffffffffffffffff168173ffffffffffffffffffffffffffffffffffffffff1614610c0e57808a6040517f4b800e46000000000000000000000000000000000000000000000000000000008152600401610c05929190612577565b60405180910390fd5b610c198a8a8a610edd565b50505050505050505050565b7f9f2df0fed2c77648de5860a4cc508cd0818c85b8b8a1ab4ceeef8d981c8956a681565b610c5282610712565b610c5b81611077565b610c658383611234565b50505050565b6000600160008473ffffffffffffffffffffffffffffffffffffffff1673ffffffffffffffffffffffffffffffffffffffff16815260200190815260200160002060008373ffffffffffffffffffffffffffffffffffffffff1673ffffffffffffffffffffffffffffffffffffffff16815260200190815260200160002054905092915050565b600d6020528060005260406000206000915054906101000a900460ff1681565b6000801b610d1f81611077565b6001600c60008473ffffffffffffffffffffffffffffffffffffffff1673ffffffffffffffffffffffffffffffffffffffff16815260200190815260200160002060006101000a81548160ff0219169083151502179055506001600d60008473ffffffffffffffffffffffffffffffffffffffff1673ffffffffffffffffffffffffffffffffffffffff16815260200190815260200160002060006101000a81548160ff0219169083151502179055506001600e60008473ffffffffffffffffffffffffffffffffffffffff1673ffffffffffffffffffffffffffffffffffffffff16815260200190815260200160002060006101000a81548160ff0219169083151502179055505050565b600e6020528060005260406000206000915054906101000a900460ff1681565b600c6020528060005260406000206000915054906101000a900460ff1681565b60007f01ffc9a7000000000000000000000000000000000000000000000000000000007bffffffffffffffffffffffffffffffffffffffffffffffffffffffff1916827bffffffffffffffffffffffffffffffffffffffffffffffffffffffff1916149050919050565b600033905090565b610eea8383836001611509565b505050565b6000610efb8484610c6b565b90507fffffffffffffffffffffffffffffffffffffffffffffffffffffffffffffffff8114610f7d5781811015610f6d578281836040517ffb8f41b2000000000000000000000000000000000000000000000000000000008152600401610f64939291906125a0565b60405180910390fd5b610f7c84848484036000611509565b5b50505050565b600073ffffffffffffffffffffffffffffffffffffffff168373ffffffffffffffffffffffffffffffffffffffff1603610ff55760006040517f96c6fd1e000000000000000000000000000000000000000000000000000000008152600401610fec91906125d7565b60405180910390fd5b600073ffffffffffffffffffffffffffffffffffffffff168273ffffffffffffffffffffffffffffffffffffffff16036110675760006040517fec442f0500000000000000000000000000000000000000000000000000000000815260040161105e91906125d7565b60405180910390fd5b6110728383836116e0565b505050565b61108881611083610ed5565b611905565b50565b600061109783836109b6565b6111725760016009600085815260200190815260200160002060000160008473ffffffffffffffffffffffffffffffffffffffff1673ffffffffffffffffffffffffffffffffffffffff16815260200190815260200160002060006101000a81548160ff02191690831515021790555061110f610ed5565b73ffffffffffffffffffffffffffffffffffffffff168273ffffffffffffffffffffffffffffffffffffffff16847f2f8788117e7eff1d82e926ec794901d17c78024a50270940304540a733656f0d60405160405180910390a460019050611177565b600090505b92915050565b60007f000000000000000000000000000000000000000000000000000000000000000073ffffffffffffffffffffffffffffffffffffffff163073ffffffffffffffffffffffffffffffffffffffff161480156111f957507f000000000000000000000000000000000000000000000000000000000000000046145b15611226577f00000000000000000000000000000000000000000000000000000000000000009050611231565b61122e611956565b90505b90565b600061124083836109b6565b1561131c5760006009600085815260200190815260200160002060000160008473ffffffffffffffffffffffffffffffffffffffff1673ffffffffffffffffffffffffffffffffffffffff16815260200190815260200160002060006101000a81548160ff0219169083151502179055506112b9610ed5565b73ffffffffffffffffffffffffffffffffffffffff168273ffffffffffffffffffffffffffffffffffffffff16847ff6391f5c32d9c69d2a47ea670b442974b53935d1edc7fd64eb21e047a839171b60405160405180910390a460019050611321565b600090505b92915050565b600073ffffffffffffffffffffffffffffffffffffffff168273ffffffffffffffffffffffffffffffffffffffff16036113995760006040517fec442f0500000000000000000000000000000000000000000000000000000000815260040161139091906125d7565b60405180910390fd5b6113a5600083836116e0565b5050565b6000600760008373ffffffffffffffffffffffffffffffffffffffff1673ffffffffffffffffffffffffffffffffffffffff168152602001908152602001600020549050919050565b606061142860057f00000000000000000000000000000000000000000000000000000000000000006119ec90919063ffffffff16565b905090565b606061146360067f00000000000000000000000000000000000000000000000000000000000000006119ec90919063ffffffff16565b905090565b6000600760008373ffffffffffffffffffffffffffffffffffffffff1673ffffffffffffffffffffffffffffffffffffffff1681526020019081526020016000206000815480929190600101919050559050919050565b60006114d26114cc61117d565b83611a9c565b9050919050565b6000806000806114eb88888888611add565b9250925092506114fb8282611bd1565b829350505050949350505050565b600073ffffffffffffffffffffffffffffffffffffffff168473ffffffffffffffffffffffffffffffffffffffff160361157b5760006040517fe602df0500000000000000000000000000000000000000000000000000000000815260040161157291906125d7565b60405180910390fd5b600073ffffffffffffffffffffffffffffffffffffffff168373ffffffffffffffffffffffffffffffffffffffff16036115ed5760006040517f94280d620000000000000000000000000000000000000000000000000000000081526004016115e491906125d7565b60405180910390fd5b81600160008673ffffffffffffffffffffffffffffffffffffffff1673ffffffffffffffffffffffffffffffffffffffff16815260200190815260200160002060008573ffffffffffffffffffffffffffffffffffffffff1673ffffffffffffffffffffffffffffffffffffffff1681526020019081526020016000208190555080156116da578273ffffffffffffffffffffffffffffffffffffffff168473ffffffffffffffffffffffffffffffffffffffff167f8c5be1e5ebec7d5bd14f71427d1e84f3dd0314c0f7b2291e5b200ac8c7c3b925846040516116d1919061204e565b60405180910390a35b50505050565b600073ffffffffffffffffffffffffffffffffffffffff168373ffffffffffffffffffffffffffffffffffffffff16036117325780600260008282546117269190612621565b92505081905550611805565b60008060008573ffffffffffffffffffffffffffffffffffffffff1673ffffffffffffffffffffffffffffffffffffffff168152602001908152602001600020549050818110156117be578381836040517fe450d38c0000000000000000000000000000000000000000000000000000000081526004016117b5939291906125a0565b60405180910390fd5b8181036000808673ffffffffffffffffffffffffffffffffffffffff1673ffffffffffffffffffffffffffffffffffffffff16815260200190815260200160002081905550505b600073ffffffffffffffffffffffffffffffffffffffff168273ffffffffffffffffffffffffffffffffffffffff160361184e578060026000828254039250508190555061189b565b806000808473ffffffffffffffffffffffffffffffffffffffff1673ffffffffffffffffffffffffffffffffffffffff168152602001908152602001600020600082825401925050819055505b8173ffffffffffffffffffffffffffffffffffffffff168373ffffffffffffffffffffffffffffffffffffffff167fddf252ad1be2c89b69c2b068fc378daa952ba7f163c4a11628f55a4df523b3ef836040516118f8919061204e565b60405180910390a3505050565b61190f82826109b6565b6119525780826040517fe2517d3f000000000000000000000000000000000000000000000000000000008152600401611949929190612655565b60405180910390fd5b5050565b60007f8b73c3c69bb8fe3d512ecc4cf759cc79239f7b179b0ffacaa9a75d522b39400f7f00000000000000000000000000000000000000000000000000000000000000007f000000000000000000000000000000000000000000000000000000000000000046306040516020016119d195949392919061267e565b60405160208183030381529060405280519060200120905090565b606060ff60001b8314611a0957611a0283611d35565b9050611a96565b818054611a15906124b6565b80601f0160208091040260200160405190810160405280929190818152602001828054611a41906124b6565b8015611a8e5780601f10611a6357610100808354040283529160200191611a8e565b820191906000526020600020905b815481529060010190602001808311611a7157829003601f168201915b505050505090505b92915050565b60006040517f190100000000000000000000000000000000000000000000000000000000000081528360028201528260228201526042812091505092915050565b60008060007f7fffffffffffffffffffffffffffffff5d576e7357a4501ddfe92f46681b20a08460001c1115611b1d576000600385925092509250611bc7565b600060018888888860405160008152602001604052604051611b4294939291906126d1565b6020604051602081039080840390855afa158015611b64573d6000803e3d6000fd5b505050602060405103519050600073ffffffffffffffffffffffffffffffffffffffff168173ffffffffffffffffffffffffffffffffffffffff1603611bb857600060016000801b93509350935050611bc7565b8060008060001b935093509350505b9450945094915050565b60006003811115611be557611be4612716565b5b826003811115611bf857611bf7612716565b5b0315611d315760016003811115611c1257611c11612716565b5b826003811115611c2557611c24612716565b5b03611c5c576040517ff645eedf00000000000000000000000000000000000000000000000000000000815260040160405180910390fd5b60026003811115611c7057611c6f612716565b5b826003811115611c8357611c82612716565b5b03611cc8578060001c6040517ffce698f7000000000000000000000000000000000000000000000000000000008152600401611cbf919061204e565b60405180910390fd5b600380811115611cdb57611cda612716565b5b826003811115611cee57611ced612716565b5b03611d3057806040517fd78bce0c000000000000000000000000000000000000000000000000000000008152600401611d27919061212e565b60405180910390fd5b5b5050565b60606000611d4283611da9565b90506000602067ffffffffffffffff811115611d6157611d606124e7565b5b6040519080825280601f01601f191660200182016040528015611d935781602001600182028036833780820191505090505b5090508181528360208201528092505050919050565b60008060ff8360001c169050601f811115611df0576040517fb3512b0c00000000000000000000000000000000000000000000000000000000815260040160405180910390fd5b80915050919050565b600080fd5b60007fffffffff0000000000000000000000000000000000000000000000000000000082169050919050565b611e3381611dfe565b8114611e3e57600080fd5b50565b600081359050611e5081611e2a565b92915050565b600060208284031215611e6c57611e6b611df9565b5b6000611e7a84828501611e41565b91505092915050565b60008115159050919050565b611e9881611e83565b82525050565b6000602082019050611eb36000830184611e8f565b92915050565b600081519050919050565b600082825260208201905092915050565b60005b83811015611ef3578082015181840152602081019050611ed8565b60008484015250505050565b6000601f19601f8301169050919050565b6000611f1b82611eb9565b611f258185611ec4565b9350611f35818560208601611ed5565b611f3e81611eff565b840191505092915050565b60006020820190508181036000830152611f638184611f10565b905092915050565b600073ffffffffffffffffffffffffffffffffffffffff82169050919050565b6000611f9682611f6b565b9050919050565b611fa681611f8b565b8114611fb157600080fd5b50565b600081359050611fc381611f9d565b92915050565b6000819050919050565b611fdc81611fc9565b8114611fe757600080fd5b50565b600081359050611ff981611fd3565b92915050565b6000806040838503121561201657612015611df9565b5b600061202485828601611fb4565b925050602061203585828601611fea565b9150509250929050565b61204881611fc9565b82525050565b6000602082019050612063600083018461203f565b92915050565b60008060006060848603121561208257612081611df9565b5b600061209086828701611fb4565b93505060206120a186828701611fb4565b92505060406120b286828701611fea565b9150509250925092565b6000819050919050565b6120cf816120bc565b81146120da57600080fd5b50565b6000813590506120ec816120c6565b92915050565b60006020828403121561210857612107611df9565b5b6000612116848285016120dd565b91505092915050565b612128816120bc565b82525050565b6000602082019050612143600083018461211f565b92915050565b600080604083850312156121605761215f611df9565b5b600061216e858286016120dd565b925050602061217f85828601611fb4565b9150509250929050565b600060ff82169050919050565b61219f81612189565b82525050565b60006020820190506121ba6000830184612196565b92915050565b6000602082840312156121d6576121d5611df9565b5b60006121e484828501611fb4565b91505092915050565b60007fff0000000000000000000000000000000000000000000000000000000000000082169050919050565b612222816121ed565b82525050565b61223181611f8b565b82525050565b600081519050919050565b600082825260208201905092915050565b6000819050602082019050919050565b61226c81611fc9565b82525050565b600061227e8383612263565b60208301905092915050565b6000602082019050919050565b60006122a282612237565b6122ac8185612242565b93506122b783612253565b8060005b838110156122e85781516122cf8882612272565b97506122da8361228a565b9250506001810190506122bb565b5085935050505092915050565b600060e08201905061230a600083018a612219565b818103602083015261231c8189611f10565b905081810360408301526123308188611f10565b905061233f606083018761203f565b61234c6080830186612228565b61235960a083018561211f565b81810360c083015261236b8184612297565b905098975050505050505050565b61238281612189565b811461238d57600080fd5b50565b60008135905061239f81612379565b92915050565b600080600080600080600060e0888a0312156123c4576123c3611df9565b5b60006123d28a828b01611fb4565b97505060206123e38a828b01611fb4565b96505060406123f48a828b01611fea565b95505060606124058a828b01611fea565b94505060806124168a828b01612390565b93505060a06124278a828b016120dd565b92505060c06124388a828b016120dd565b91505092959891949750929550565b6000806040838503121561245e5761245d611df9565b5b600061246c85828601611fb4565b925050602061247d85828601611fb4565b9150509250929050565b7f4e487b7100000000000000000000000000000000000000000000000000000000600052602260045260246000fd5b600060028204905060018216806124ce57607f821691505b6020821081036124e1576124e0612487565b5b50919050565b7f4e487b7100000000000000000000000000000000000000000000000000000000600052604160045260246000fd5b600060c08201905061252b600083018961211f565b6125386020830188612228565b6125456040830187612228565b612552606083018661203f565b61255f608083018561203f565b61256c60a083018461203f565b979650505050505050565b600060408201905061258c6000830185612228565b6125996020830184612228565b9392505050565b60006060820190506125b56000830186612228565b6125c2602083018561203f565b6125cf604083018461203f565b949350505050565b60006020820190506125ec6000830184612228565b92915050565b7f4e487b7100000000000000000000000000000000000000000000000000000000600052601160045260246000fd5b600061262c82611fc9565b915061263783611fc9565b925082820190508082111561264f5761264e6125f2565b5b92915050565b600060408201905061266a6000830185612228565b612677602083018461211f565b9392505050565b600060a082019050612693600083018861211f565b6126a0602083018761211f565b6126ad604083018661211f565b6126ba606083018561203f565b6126c76080830184612228565b9695505050505050565b60006080820190506126e6600083018761211f565b6126f36020830186612196565b612700604083018561211f565b61270d606083018461211f565b95945050505050565b7f4e487b7100000000000000000000000000000000000000000000000000000000600052602160045260246000fdfea2646970667358221220ce4f1a2b1899419266dde7cd31c1f6bee62d1de87a1a230496df64d80d0109b064736f6c63430008190033","linkReferences":{}},"methodIdentifiers":{"DEFAULT_ADMIN_ROLE()":"a217fddf","DOMAIN_SEPARATOR()":"3644e515","MINTER_ROLE()":"d5391393","allowance(address,address)":"dd62ed3e","approve(address,uint256)":"095ea7b3","balanceOf(address)":"70a08231","blacklist(address)":"f9f92be4","decimals()":"313ce567","eip712Domain()":"84b0196e","getRoleAdmin(bytes32)":"248a9ca3","grantRole(bytes32,address)":"2f2ff15d","hasRole(bytes32,address)":"91d14854","isBlackListed(address)":"e47d6060","isBlacklisted(address)":"fe575a87","isBlocked(address)":"fbac3951","mint(address,uint256)":"40c10f19","name()":"06fdde03","nonces(address)":"7ecebe00","permit(address,address,uint256,uint256,uint8,bytes32,bytes32)":"d505accf","renounceRole(bytes32,address)":"36568abe","revokeRole(bytes32,address)":"d547741f","supportsInterface(bytes4)":"01ffc9a7","symbol()":"95d89b41","totalSupply()":"18160ddd","transfer(address,uint256)":"a9059cbb","transferFrom(address,address,uint256)":"23b872dd","version()":"54fd4d50"},"id":139}