{"abi":[{"type":"constructor","inputs":[],"stateMutability":"nonpayable"},{"type":"function","name":"BURNER_ROLE","inputs":[],"outputs":[{"name":"","type":"bytes32","internalType":"bytes32"}],"stateMutability":"view"},{"type":"function","name":"DEFAULT_ADMIN_ROLE","inputs":[],"outputs":[{"name":"","type":"bytes32","internalType":"bytes32"}],"stateMutability":"view"},{"type":"function","name":"DOMAIN_SEPARATOR","inputs":[],"outputs":[{"name":"result","type":"bytes32","internalType":"bytes32"}],"stateMutability":"view"},{"type":"function","name":"MINTER_ROLE","inputs":[],"outputs":[{"name":"","type":"bytes32","internalType":"bytes32"}],"stateMutability":"view"},{"type":"function","name":"acceptDefaultAdminTransfer","inputs":[],"outputs":[],"stateMutability":"nonpayable"},{"type":"function","name":"allowance","inputs":[{"name":"owner","type":"address","internalType":"address"},{"name":"spender","type":"address","internalType":"address"}],"outputs":[{"name":"result","type":"uint256","internalType":"uint256"}],"stateMutability":"view"},{"type":"function","name":"approve","inputs":[{"name":"spender","type":"address","internalType":"address"},{"name":"amount","type":"uint256","internalType":"uint256"}],"outputs":[{"name":"","type":"bool","internalType":"bool"}],"stateMutability":"nonpayable"},{"type":"function","name":"balanceOf","inputs":[{"name":"account","type":"address","internalType":"address"}],"outputs":[{"name":"","type":"uint256","internalType":"uint256"}],"stateMutability":"view"},{"type":"function","name":"balancePerShare","inputs":[],"outputs":[{"name":"","type":"uint128","internalType":"uint128"}],"stateMutability":"view"},{"type":"function","name":"balanceToShares","inputs":[{"name":"balance","type":"uint256","internalType":"uint256"}],"outputs":[{"name":"","type":"uint256","internalType":"uint256"}],"stateMutability":"view"},{"type":"function","name":"beginDefaultAdminTransfer","inputs":[{"name":"newAdmin","type":"address","internalType":"address"}],"outputs":[],"stateMutability":"nonpayable"},{"type":"function","name":"burn","inputs":[{"name":"value","type":"uint256","internalType":"uint256"}],"outputs":[],"stateMutability":"nonpayable"},{"type":"function","name":"burnFrom","inputs":[{"name":"account","type":"address","internalType":"address"},{"name":"value","type":"uint256","internalType":"uint256"}],"outputs":[],"stateMutability":"nonpayable"},{"type":"function","name":"cancelDefaultAdminTransfer","inputs":[],"outputs":[],"stateMutability":"nonpayable"},{"type":"function","name":"changeDefaultAdminDelay","inputs":[{"name":"newDelay","type":"uint48","internalType":"uint48"}],"outputs":[],"stateMutability":"nonpayable"},{"type":"function","name":"decimals","inputs":[],"outputs":[{"name":"","type":"uint8","internalType":"uint8"}],"stateMutability":"view"},{"type":"function","name":"defaultAdmin","inputs":[],"outputs":[{"name":"","type":"address","internalType":"address"}],"stateMutability":"view"},{"type":"function","name":"defaultAdminDelay","inputs":[],"outputs":[{"name":"","type":"uint48","internalType":"uint48"}],"stateMutability":"view"},{"type":"function","name":"defaultAdminDelayIncreaseWait","inputs":[],"outputs":[{"name":"","type":"uint48","internalType":"uint48"}],"stateMutability":"view"},{"type":"function","name":"getRoleAdmin","inputs":[{"name":"role","type":"bytes32","internalType":"bytes32"}],"outputs":[{"name":"","type":"bytes32","internalType":"bytes32"}],"stateMutability":"view"},{"type":"function","name":"grantRole","inputs":[{"name":"role","type":"bytes32","internalType":"bytes32"},{"name":"account","type":"address","internalType":"address"}],"outputs":[],"stateMutability":"nonpayable"},{"type":"function","name":"hasRole","inputs":[{"name":"role","type":"bytes32","internalType":"bytes32"},{"name":"account","type":"address","internalType":"address"}],"outputs":[{"name":"","type":"bool","internalType":"bool"}],"stateMutability":"view"},{"type":"function","name":"initialize","inputs":[{"name":"owner","type":"address","internalType":"address"},{"name":"_name","type":"string","internalType":"string"},{"name":"_symbol","type":"string","internalType":"string"},{"name":"_transferRestrictor","type":"address","internalType":"contract ITransferRestrictor"}],"outputs":[],"stateMutability":"nonpayable"},{"type":"function","name":"isBlacklisted","inputs":[{"name":"account","type":"address","internalType":"address"}],"outputs":[{"name":"","type":"bool","internalType":"bool"}],"stateMutability":"view"},{"type":"function","name":"maxSupply","inputs":[],"outputs":[{"name":"","type":"uint256","internalType":"uint256"}],"stateMutability":"view"},{"type":"function","name":"mint","inputs":[{"name":"to","type":"address","internalType":"address"},{"name":"value","type":"uint256","internalType":"uint256"}],"outputs":[],"stateMutability":"nonpayable"},{"type":"function","name":"name","inputs":[],"outputs":[{"name":"","type":"string","internalType":"string"}],"stateMutability":"view"},{"type":"function","name":"nonces","inputs":[{"name":"owner","type":"address","internalType":"address"}],"outputs":[{"name":"result","type":"uint256","internalType":"uint256"}],"stateMutability":"view"},{"type":"function","name":"owner","inputs":[],"outputs":[{"name":"","type":"address","internalType":"address"}],"stateMutability":"view"},{"type":"function","name":"pendingDefaultAdmin","inputs":[],"outputs":[{"name":"newAdmin","type":"address","internalType":"address"},{"name":"schedule","type":"uint48","internalType":"uint48"}],"stateMutability":"view"},{"type":"function","name":"pendingDefaultAdminDelay","inputs":[],"outputs":[{"name":"newDelay","type":"uint48","internalType":"uint48"},{"name":"schedule","type":"uint48","internalType":"uint48"}],"stateMutability":"view"},{"type":"function","name":"permit","inputs":[{"name":"owner","type":"address","internalType":"address"},{"name":"spender","type":"address","internalType":"address"},{"name":"value","type":"uint256","internalType":"uint256"},{"name":"deadline","type":"uint256","internalType":"uint256"},{"name":"v","type":"uint8","internalType":"uint8"},{"name":"r","type":"bytes32","internalType":"bytes32"},{"name":"s","type":"bytes32","internalType":"bytes32"}],"outputs":[],"stateMutability":"nonpayable"},{"type":"function","name":"renounceRole","inputs":[{"name":"role","type":"bytes32","internalType":"bytes32"},{"name":"account","type":"address","internalType":"address"}],"outputs":[],"stateMutability":"nonpayable"},{"type":"function","name":"revokeRole","inputs":[{"name":"role","type":"bytes32","internalType":"bytes32"},{"name":"account","type":"address","internalType":"address"}],"outputs":[],"stateMutability":"nonpayable"},{"type":"function","name":"rollbackDefaultAdminDelay","inputs":[],"outputs":[],"stateMutability":"nonpayable"},{"type":"function","name":"setBalancePerShare","inputs":[{"name":"balancePerShare_","type":"uint128","internalType":"uint128"}],"outputs":[],"stateMutability":"nonpayable"},{"type":"function","name":"setName","inputs":[{"name":"newName","type":"string","internalType":"string"}],"outputs":[],"stateMutability":"nonpayable"},{"type":"function","name":"setSymbol","inputs":[{"name":"newSymbol","type":"string","internalType":"string"}],"outputs":[],"stateMutability":"nonpayable"},{"type":"function","name":"setTransferRestrictor","inputs":[{"name":"newRestrictor","type":"address","internalType":"contract ITransferRestrictor"}],"outputs":[],"stateMutability":"nonpayable"},{"type":"function","name":"sharesOf","inputs":[{"name":"account","type":"address","internalType":"address"}],"outputs":[{"name":"","type":"uint256","internalType":"uint256"}],"stateMutability":"view"},{"type":"function","name":"sharesToBalance","inputs":[{"name":"shares","type":"uint256","internalType":"uint256"}],"outputs":[{"name":"","type":"uint256","internalType":"uint256"}],"stateMutability":"view"},{"type":"function","name":"supportsInterface","inputs":[{"name":"interfaceId","type":"bytes4","internalType":"bytes4"}],"outputs":[{"name":"","type":"bool","internalType":"bool"}],"stateMutability":"view"},{"type":"function","name":"symbol","inputs":[],"outputs":[{"name":"","type":"string","internalType":"string"}],"stateMutability":"view"},{"type":"function","name":"totalSupply","inputs":[],"outputs":[{"name":"","type":"uint256","internalType":"uint256"}],"stateMutability":"view"},{"type":"function","name":"transfer","inputs":[{"name":"to","type":"address","internalType":"address"},{"name":"amount","type":"uint256","internalType":"uint256"}],"outputs":[{"name":"","type":"bool","internalType":"bool"}],"stateMutability":"nonpayable"},{"type":"function","name":"transferFrom","inputs":[{"name":"from","type":"address","internalType":"address"},{"name":"to","type":"address","internalType":"address"},{"name":"amount","type":"uint256","internalType":"uint256"}],"outputs":[{"name":"","type":"bool","internalType":"bool"}],"stateMutability":"nonpayable"},{"type":"function","name":"transferRestrictor","inputs":[],"outputs":[{"name":"","type":"address","internalType":"contract ITransferRestrictor"}],"stateMutability":"view"},{"type":"event","name":"Approval","inputs":[{"name":"owner","type":"address","indexed":true,"internalType":"address"},{"name":"spender","type":"address","indexed":true,"internalType":"address"},{"name":"amount","type":"uint256","indexed":false,"internalType":"uint256"}],"anonymous":false},{"type":"event","name":"BalancePerShareSet","inputs":[{"name":"balancePerShare","type":"uint256","indexed":false,"internalType":"uint256"}],"anonymous":false},{"type":"event","name":"DefaultAdminDelayChangeCanceled","inputs":[],"anonymous":false},{"type":"event","name":"DefaultAdminDelayChangeScheduled","inputs":[{"name":"newDelay","type":"uint48","indexed":false,"internalType":"uint48"},{"name":"effectSchedule","type":"uint48","indexed":false,"internalType":"uint48"}],"anonymous":false},{"type":"event","name":"DefaultAdminTransferCanceled","inputs":[],"anonymous":false},{"type":"event","name":"DefaultAdminTransferScheduled","inputs":[{"name":"newAdmin","type":"address","indexed":true,"internalType":"address"},{"name":"acceptSchedule","type":"uint48","indexed":false,"internalType":"uint48"}],"anonymous":false},{"type":"event","name":"Initialized","inputs":[{"name":"version","type":"uint64","indexed":false,"internalType":"uint64"}],"anonymous":false},{"type":"event","name":"NameSet","inputs":[{"name":"name","type":"string","indexed":false,"internalType":"string"}],"anonymous":false},{"type":"event","name":"RoleAdminChanged","inputs":[{"name":"role","type":"bytes32","indexed":true,"internalType":"bytes32"},{"name":"previousAdminRole","type":"bytes32","indexed":true,"internalType":"bytes32"},{"name":"newAdminRole","type":"bytes32","indexed":true,"internalType":"bytes32"}],"anonymous":false},{"type":"event","name":"RoleGranted","inputs":[{"name":"role","type":"bytes32","indexed":true,"internalType":"bytes32"},{"name":"account","type":"address","indexed":true,"internalType":"address"},{"name":"sender","type":"address","indexed":true,"internalType":"address"}],"anonymous":false},{"type":"event","name":"RoleRevoked","inputs":[{"name":"role","type":"bytes32","indexed":true,"internalType":"bytes32"},{"name":"account","type":"address","indexed":true,"internalType":"address"},{"name":"sender","type":"address","indexed":true,"internalType":"address"}],"anonymous":false},{"type":"event","name":"SymbolSet","inputs":[{"name":"symbol","type":"string","indexed":false,"internalType":"string"}],"anonymous":false},{"type":"event","name":"Transfer","inputs":[{"name":"from","type":"address","indexed":true,"internalType":"address"},{"name":"to","type":"address","indexed":true,"internalType":"address"},{"name":"amount","type":"uint256","indexed":false,"internalType":"uint256"}],"anonymous":false},{"type":"event","name":"TransferRestrictorSet","inputs":[{"name":"transferRestrictor","type":"address","indexed":true,"internalType":"contract ITransferRestrictor"}],"anonymous":false},{"type":"error","name":"AccessControlBadConfirmation","inputs":[]},{"type":"error","name":"AccessControlEnforcedDefaultAdminDelay","inputs":[{"name":"schedule","type":"uint48","internalType":"uint48"}]},{"type":"error","name":"AccessControlEnforcedDefaultAdminRules","inputs":[]},{"type":"error","name":"AccessControlInvalidDefaultAdmin","inputs":[{"name":"defaultAdmin","type":"address","internalType":"address"}]},{"type":"error","name":"AccessControlUnauthorizedAccount","inputs":[{"name":"account","type":"address","internalType":"address"},{"name":"neededRole","type":"bytes32","internalType":"bytes32"}]},{"type":"error","name":"AllowanceOverflow","inputs":[]},{"type":"error","name":"AllowanceUnderflow","inputs":[]},{"type":"error","name":"InsufficientAllowance","inputs":[]},{"type":"error","name":"InsufficientBalance","inputs":[]},{"type":"error","name":"InvalidInitialization","inputs":[]},{"type":"error","name":"InvalidPermit","inputs":[]},{"type":"error","name":"NotInitializing","inputs":[]},{"type":"error","name":"PRBMath_MulDiv18_Overflow","inputs":[{"name":"x","type":"uint256","internalType":"uint256"},{"name":"y","type":"uint256","internalType":"uint256"}]},{"type":"error","name":"PRBMath_MulDiv_Overflow","inputs":[{"name":"x","type":"uint256","internalType":"uint256"},{"name":"y","type":"uint256","internalType":"uint256"},{"name":"denominator","type":"uint256","internalType":"uint256"}]},{"type":"error","name":"PermitExpired","inputs":[]},{"type":"error","name":"SafeCastOverflowedUintDowncast","inputs":[{"name":"bits","type":"uint8","internalType":"uint8"},{"name":"value","type":"uint256","internalType":"uint256"}]},{"type":"error","name":"TotalSupplyOverflow","inputs":[]},{"type":"error","name":"Unauthorized","inputs":[]},{"type":"error","name":"ZeroValue","inputs":[]}],"bytecode":{"object":"0x608060405234801561001057600080fd5b5061001f61002460201b60201c565b61018e565b600061003461012860201b60201c565b90508060000160089054906101000a900460ff161561007f576040517ff92ee8a900000000000000000000000000000000000000000000000000000000815260040160405180910390fd5b67ffffffffffffffff80168160000160009054906101000a900467ffffffffffffffff1667ffffffffffffffff16146101255767ffffffffffffffff8160000160006101000a81548167ffffffffffffffff021916908367ffffffffffffffff1602179055507fc7f505b2f371ae2175ee4913f4499e1f2633a7b5936321eed1cdaeb6115181d267ffffffffffffffff60405161011c9190610173565b60405180910390a15b50565b60007ff0c57e16840df040f15088dc2f81fe391c3923bec73e23a9662efc9c229c6a00905090565b600067ffffffffffffffff82169050919050565b61016d81610150565b82525050565b60006020820190506101886000830184610164565b92915050565b613f1b8061019d6000396000f3fe608060405234801561001057600080fd5b50600436106102955760003560e01c806384ef8ffc11610167578063cefc1429116100ce578063d5abeb0111610087578063d5abeb01146107c8578063d602b9fd146107e6578063d8ddf18f146107f0578063dd62ed3e14610820578063f5eb42dc14610850578063fe575a871461088057610295565b8063cefc14291461072b578063cf6eefb714610735578063d4ec137a14610754578063d505accf14610772578063d53913931461078e578063d547741f146107ac57610295565b8063a781a3fd11610120578063a781a3fd1461066b578063a850e02414610689578063a9059cbb146106a5578063b84c8246146106d5578063c47f0027146106f1578063cc8463c81461070d57610295565b806384ef8ffc146105a45780638da5cb5b146105c257806391d14854146105e057806395d89b4114610610578063a1eda53c1461062e578063a217fddf1461064d57610295565b80633644e5151161020b578063613d25bb116101c4578063613d25bb146104d4578063634e93da146104f0578063649a5ec71461050c57806370a082311461052857806379cc6790146105585780637ecebe001461057457610295565b80633644e5151461041657806336568abe1461043457806340c10f191461045057806342966c681461046c5780634904ac8f1461048857806353735f37146104a457610295565b806318160ddd1161025d57806318160ddd1461034057806323b872dd1461035e578063248a9ca31461038e578063282c51f3146103be5780632f2ff15d146103dc578063313ce567146103f857610295565b806301ffc9a71461029a578063022d63fb146102ca57806306fdde03146102e8578063095ea7b3146103065780630aa6220b14610336575b600080fd5b6102b460048036038101906102af9190612e06565b6108b0565b6040516102c19190612e4e565b60405180910390f35b6102d261092a565b6040516102df9190612e8a565b60405180910390f35b6102f0610935565b6040516102fd9190612f35565b60405180910390f35b610320600480360381019061031b9190612feb565b6109d6565b60405161032d9190612e4e565b60405180910390f35b61033e610a2a565b005b610348610a42565b604051610355919061303a565b60405180910390f35b61037860048036038101906103739190613055565b610a59565b6040516103859190612e4e565b60405180910390f35b6103a860048036038101906103a391906130de565b610a7c565b6040516103b5919061311a565b60405180910390f35b6103c6610aaa565b6040516103d3919061311a565b60405180910390f35b6103f660048036038101906103f19190613135565b610ace565b005b610400610b18565b60405161040d9190613191565b60405180910390f35b61041e610b21565b60405161042b919061311a565b60405180910390f35b61044e60048036038101906104499190613135565b610bb3565b005b61046a60048036038101906104659190612feb565b610cd7565b005b610486600480360381019061048191906131ac565b610d10565b005b6104a2600480360381019061049d9190613217565b610d48565b005b6104be60048036038101906104b991906131ac565b610dec565b6040516104cb919061303a565b60405180910390f35b6104ee60048036038101906104e99190613379565b610e18565b005b61050a60048036038101906105059190613418565b611063565b005b61052660048036038101906105219190613471565b61107d565b005b610542600480360381019061053d9190613418565b611097565b60405161054f919061303a565b60405180910390f35b610572600480360381019061056d9190612feb565b6110b1565b005b61058e60048036038101906105899190613418565b6110f5565b60405161059b919061303a565b60405180910390f35b6105ac611110565b6040516105b991906134ad565b60405180910390f35b6105ca611148565b6040516105d791906134ad565b60405180910390f35b6105fa60048036038101906105f59190613135565b611157565b6040516106079190612e4e565b60405180910390f35b6106186111d0565b6040516106259190612f35565b60405180910390f35b610636611271565b6040516106449291906134c8565b60405180910390f35b6106556112e2565b604051610662919061311a565b60405180910390f35b6106736112e9565b604051610680919061351c565b60405180910390f35b6106a3600480360381019061069e9190613563565b611350565b005b6106bf60048036038101906106ba9190612feb565b61142c565b6040516106cc9190612e4e565b60405180910390f35b6106ef60048036038101906106ea91906135f0565b611443565b005b61070b600480360381019061070691906135f0565b6114af565b005b61071561151b565b6040516107229190612e8a565b60405180910390f35b61073361159c565b005b61073d611632565b60405161074b92919061363d565b60405180910390f35b61075c611686565b60405161076991906136c5565b60405180910390f35b61078c6004803603810190610787919061370c565b6116be565b005b610796611862565b6040516107a3919061311a565b60405180910390f35b6107c660048036038101906107c19190613135565b611886565b005b6107d06118d0565b6040516107dd919061303a565b60405180910390f35b6107ee611a10565b005b61080a600480360381019061080591906131ac565b611a28565b604051610817919061303a565b60405180910390f35b61083a600480360381019061083591906137ae565b611a6f565b604051610847919061303a565b60405180910390f35b61086a60048036038101906108659190613418565b611a8f565b604051610877919061303a565b60405180910390f35b61089a60048036038101906108959190613418565b611aa1565b6040516108a79190612e4e565b60405180910390f35b60007f31498786000000000000000000000000000000000000000000000000000000007bffffffffffffffffffffffffffffffffffffffffffffffffffffffff1916827bffffffffffffffffffffffffffffffffffffffffffffffffffffffff19161480610923575061092282611b9a565b5b9050919050565b600062069780905090565b60606000610941611c14565b90508060000180546109529061381d565b80601f016020809104026020016040519081016040528092919081815260200182805461097e9061381d565b80156109cb5780601f106109a0576101008083540402835291602001916109cb565b820191906000526020600020905b8154815290600101906020018083116109ae57829003601f168201915b505050505091505090565b600082602052637f5e9f20600c5233600052816034600c205581600052602c5160601c337f8c5be1e5ebec7d5bd14f71427d1e84f3dd0314c0f7b2291e5b200ac8c7c3b92560206000a36001905092915050565b6000801b610a3781611c3c565b610a3f611c50565b50565b6000610a54610a4f611c5d565b610dec565b905090565b6000610a66843384611c6f565b610a71848484611cb2565b600190509392505050565b600080610a87611d51565b905080600001600084815260200190815260200160002060010154915050919050565b7f3c11d16cbaffd01df69ce1c404f6340ee057498f5f00246190ea54220576a84881565b6000801b8203610b0a576040517f3fc3c27a00000000000000000000000000000000000000000000000000000000815260040160405180910390fd5b610b148282611d79565b5050565b60006012905090565b600080610b2c611d9b565b90506000801b8103610b4a57610b40610935565b8051906020012090505b6040517f8b73c3c69bb8fe3d512ecc4cf759cc79239f7b179b0ffacaa9a75d522b39400f81528160208201527fc89efdaa54c0f20c7adf612882df0950f5a951637e0307cdcb4c672f298b8bc6604082015246606082015230608082015260a081209250505090565b6000610bbd611da0565b90506000801b83148015610c035750610bd4611110565b73ffffffffffffffffffffffffffffffffffffffff168273ffffffffffffffffffffffffffffffffffffffff16145b15610cc857600080610c13611632565b91509150600073ffffffffffffffffffffffffffffffffffffffff168273ffffffffffffffffffffffffffffffffffffffff16141580610c595750610c5781611dc8565b155b80610c6a5750610c6881611ddd565b155b15610cac57806040517f19ca5ebb000000000000000000000000000000000000000000000000000000008152600401610ca39190612e8a565b60405180910390fd5b8260000160146101000a81549065ffffffffffff021916905550505b610cd28383611df1565b505050565b7f9f2df0fed2c77648de5860a4cc508cd0818c85b8b8a1ab4ceeef8d981c8956a6610d0181611c3c565b610d0b8383611e6c565b505050565b7f3c11d16cbaffd01df69ce1c404f6340ee057498f5f00246190ea54220576a848610d3a81611c3c565b610d443383611fc5565b5050565b6000801b610d5581611c3c565b6000610d5f611c14565b9050828160020160006101000a81548173ffffffffffffffffffffffffffffffffffffffff021916908373ffffffffffffffffffffffffffffffffffffffff1602179055508273ffffffffffffffffffffffffffffffffffffffff167fc2315c0e6785ae744f588d76c3aa8b08329e38dc33e849116b425556ef076ea460405160405180910390a2505050565b6000610e1182610dfa6112e9565b6fffffffffffffffffffffffffffffffff1661206a565b9050919050565b6000610e22612154565b905060008160000160089054906101000a900460ff1615905060008260000160009054906101000a900467ffffffffffffffff1690506000808267ffffffffffffffff16148015610e705750825b9050600060018367ffffffffffffffff16148015610ea5575060003073ffffffffffffffffffffffffffffffffffffffff163b145b905081158015610eb3575080155b15610eea576040517ff92ee8a900000000000000000000000000000000000000000000000000000000815260040160405180910390fd5b60018560000160006101000a81548167ffffffffffffffff021916908367ffffffffffffffff1602179055508315610f3a5760018560000160086101000a81548160ff0219169083151502179055505b610f4560008a61217c565b6000610f4f611c14565b905088816000019081610f6291906139f0565b5087816001019081610f7491906139f0565b50868160020160006101000a81548173ffffffffffffffffffffffffffffffffffffffff021916908373ffffffffffffffffffffffffffffffffffffffff160217905550670de0b6b3a76400008160030160006101000a8154816fffffffffffffffffffffffffffffffff02191690836fffffffffffffffffffffffffffffffff1602179055505083156110585760008560000160086101000a81548160ff0219169083151502179055507fc7f505b2f371ae2175ee4913f4499e1f2633a7b5936321eed1cdaeb6115181d2600160405161104f9190613b11565b60405180910390a15b505050505050505050565b6000801b61107081611c3c565b6110798261223c565b5050565b6000801b61108a81611c3c565b611093826122b7565b5050565b60006110aa6110a58361231e565b610dec565b9050919050565b7f3c11d16cbaffd01df69ce1c404f6340ee057498f5f00246190ea54220576a8486110db81611c3c565b6110e6833384611c6f565b6110f08383611fc5565b505050565b60006338377508600c52816000526020600c20549050919050565b60008061111b611da0565b90508060010160009054906101000a900473ffffffffffffffffffffffffffffffffffffffff1691505090565b6000611152611110565b905090565b600080611162611d51565b905080600001600085815260200190815260200160002060000160008473ffffffffffffffffffffffffffffffffffffffff1673ffffffffffffffffffffffffffffffffffffffff16815260200190815260200160002060009054906101000a900460ff1691505092915050565b606060006111dc611c14565b90508060010180546111ed9061381d565b80601f01602080910402602001604051908101604052809291908181526020018280546112199061381d565b80156112665780601f1061123b57610100808354040283529160200191611266565b820191906000526020600020905b81548152906001019060200180831161124957829003601f168201915b505050505091505090565b600080600061127e611da0565b905080600101601a9054906101000a900465ffffffffffff1691506112a282611dc8565b80156112b457506112b282611ddd565b155b6112c0576000806112d9565b8060010160149054906101000a900465ffffffffffff16825b92509250509091565b6000801b81565b6000806112f4611c14565b905060008160030160009054906101000a90046fffffffffffffffffffffffffffffffff1690506000816fffffffffffffffffffffffffffffffff160361134757670de0b6b3a76400009250505061134d565b80925050505b90565b6000801b61135d81611c3c565b6000826fffffffffffffffffffffffffffffffff16036113a9576040517f7c946ed700000000000000000000000000000000000000000000000000000000815260040160405180910390fd5b60006113b3611c14565b9050828160030160006101000a8154816fffffffffffffffffffffffffffffffff02191690836fffffffffffffffffffffffffffffffff1602179055507f7d1fa2fe734d16276290c7f8713b6aac4d03f2ef2a604f4ef62525ccead2cf138360405161141f9190613b5d565b60405180910390a1505050565b6000611439338484611cb2565b6001905092915050565b6000801b61145081611c3c565b600061145a611c14565b9050838382600101918261146f929190613b83565b507f3e46ff90086ee29856e77591e82c82ff8ed513379b0fd82e84fc5290dd633c9984846040516114a1929190613c80565b60405180910390a150505050565b6000801b6114bc81611c3c565b60006114c6611c14565b905083838260000191826114db929190613b83565b507f13c98778b0c1a086bb98d7f1986e15788b5d3a1ad4c492e1d78f1c4cc51c20cf848460405161150d929190613c80565b60405180910390a150505050565b600080611526611da0565b9050600081600101601a9054906101000a900465ffffffffffff16905061154c81611dc8565b801561155d575061155c81611ddd565b5b61157d5781600001601a9054906101000a900465ffffffffffff16611595565b8160010160149054906101000a900465ffffffffffff165b9250505090565b60006115a6611632565b5090508073ffffffffffffffffffffffffffffffffffffffff166115c8612339565b73ffffffffffffffffffffffffffffffffffffffff1614611627576115eb612339565b6040517fc22c802200000000000000000000000000000000000000000000000000000000815260040161161e91906134ad565b60405180910390fd5b61162f612341565b50565b600080600061163f611da0565b90508060000160009054906101000a900473ffffffffffffffffffffffffffffffffffffffff168160000160149054906101000a900465ffffffffffff1692509250509091565b600080611691611c14565b90508060020160009054906101000a900473ffffffffffffffffffffffffffffffffffffffff1691505090565b60006116c8611d9b565b90506000801b81036116e6576116dc610935565b8051906020012090505b844211156116fc57631a15a3cc6000526004601cfd5b6040518860601b60601c98508760601b60601c975065383775081901600e52886000526020600c2080547f8b73c3c69bb8fe3d512ecc4cf759cc79239f7b179b0ffacaa9a75d522b39400f83528360208401527fc89efdaa54c0f20c7adf612882df0950f5a951637e0307cdcb4c672f298b8bc6604084015246606084015230608084015260a08320602e527f6e71edae12b1b97f4d1f60370fef10105fa2faae0126114a169c64845d6126c983528a60208401528960408401528860608401528060808401528760a084015260c08320604e526042602c206000528660ff1660205285604052846060526020806080600060015afa8b3d51146118085763ddafbaef6000526004601cfd5b80820183558a637f5e9f2060a01b17604052896034602c20558a8c7f8c5be1e5ebec7d5bd14f71427d1e84f3dd0314c0f7b2291e5b200ac8c7c3b925602060608801a3836040526000606052505050505050505050505050565b7f9f2df0fed2c77648de5860a4cc508cd0818c85b8b8a1ab4ceeef8d981c8956a681565b6000801b82036118c2576040517f3fc3c27a00000000000000000000000000000000000000000000000000000000815260040160405180910390fd5b6118cc8282612421565b5050565b6000806118db6112e9565b9050670de0b6b3a76400006fffffffffffffffffffffffffffffffff16816fffffffffffffffffffffffffffffffff1610156119555761194d7fffffffffffffffffffffffffffffffffffffffffffffffffffffffffffffffff826fffffffffffffffffffffffffffffffff1661206a565b915050611a0d565b670de0b6b3a76400006fffffffffffffffffffffffffffffffff16816fffffffffffffffffffffffffffffffff1611156119e8576119e07fffffffffffffffffffffffffffffffffffffffffffffffffffffffffffffffff670de0b6b3a76400006fffffffffffffffffffffffffffffffff16836fffffffffffffffffffffffffffffffff16612443565b915050611a0d565b7fffffffffffffffffffffffffffffffffffffffffffffffffffffffffffffffff9150505b90565b6000801b611a1d81611c3c565b611a2561255d565b50565b6000611a6882670de0b6b3a76400006fffffffffffffffffffffffffffffffff16611a516112e9565b6fffffffffffffffffffffffffffffffff16612443565b9050919050565b600081602052637f5e9f20600c52826000526034600c2054905092915050565b6000611a9a8261231e565b9050919050565b600080611aac611c14565b905060008160020160009054906101000a900473ffffffffffffffffffffffffffffffffffffffff169050600073ffffffffffffffffffffffffffffffffffffffff168173ffffffffffffffffffffffffffffffffffffffff1603611b1657600092505050611b95565b8073ffffffffffffffffffffffffffffffffffffffff1663fe575a87856040518263ffffffff1660e01b8152600401611b4f91906134ad565b602060405180830381865afa158015611b6c573d6000803e3d6000fd5b505050506040513d601f19601f82011682018060405250810190611b909190613cd0565b925050505b919050565b60007f7965db0b000000000000000000000000000000000000000000000000000000007bffffffffffffffffffffffffffffffffffffffffffffffffffffffff1916827bffffffffffffffffffffffffffffffffffffffffffffffffffffffff19161480611c0d5750611c0c8261256a565b5b9050919050565b60007f7315beb2381679795e06870021c0fca5deb85616e29e098c2e7b7e488f185800905090565b611c4d81611c48612339565b6125d4565b50565b611c5b600080612625565b565b60006805345cdf77eb68f44c54905090565b81602052637f5e9f20600c52826000526034600c2080546001810115611cab5780831115611ca5576313be252b6000526004601cfd5b82810382555b5050505050565b611cbd83838361272c565b6000611cc882611a28565b90508360601b6387a211a28117600c526020600c20805480841115611cf55763f4d678b86000526004601cfd5b8381038255856000526020600c2084815401815585602052600c5160601c8460601c7fddf252ad1be2c89b69c2b068fc378daa952ba7f163c4a11628f55a4df523b3ef602080a350505050611d4b848484612808565b50505050565b60007f02dd7bc7dec4dceedda775e58dd541e08a116c6c53815c0bd028192f7b626800905090565b611d8282610a7c565b611d8b81611c3c565b611d95838361280d565b50505050565b600090565b60007feef3dac4538c82c8ace4063ab0acd2d15cdb5883aa1dff7c2673abb3d8698400905090565b6000808265ffffffffffff1614159050919050565b6000428265ffffffffffff16109050919050565b611df9612339565b73ffffffffffffffffffffffffffffffffffffffff168173ffffffffffffffffffffffffffffffffffffffff1614611e5d576040517f6697b23200000000000000000000000000000000000000000000000000000000815260040160405180910390fd5b611e6782826128e8565b505050565b611e786000838361272c565b6000611e82611c5d565b90506000611e8f82610dec565b90506000838201905081811015611ed2576040517fe5cfe95700000000000000000000000000000000000000000000000000000000815260040160405180910390fd5b611f1081670de0b6b3a76400006fffffffffffffffffffffffffffffffff16611ef96112e9565b6fffffffffffffffffffffffffffffffff16612979565b15611f47576040517fe5cfe95700000000000000000000000000000000000000000000000000000000815260040160405180910390fd5b6000611f5285611a28565b905060008185019050806805345cdf77eb68f44c556387a211a2600c52866000526020600c2082815401815586602052600c5160601c60007fddf252ad1be2c89b69c2b068fc378daa952ba7f163c4a11628f55a4df523b3ef602080a350611fbc60008888612808565b50505050505050565b611fd18260008361272c565b6000611fdc82611a28565b90506387a211a2600c52826000526020600c208054808311156120075763f4d678b86000526004601cfd5b8281038255826805345cdf77eb68f44c54036805345cdf77eb68f44c558360005260008560601b60601c7fddf252ad1be2c89b69c2b068fc378daa952ba7f163c4a11628f55a4df523b3ef60206000a3505061206583600084612808565b505050565b60008060008019848609848602925082811083820303915050600081036120ad57670de0b6b3a764000082816120a3576120a2613cfd565b5b049250505061214e565b670de0b6b3a764000081106120fb5784846040517f5173648d0000000000000000000000000000000000000000000000000000000081526004016120f2929190613d2c565b60405180910390fd5b6000670de0b6b3a764000085870990507faccb18165bd6fe31ae1cf318dc5b51eee0e1ba569b88cd74c1773b91fac106696001620400008060000304018483118403026204000083860304170293505050505b92915050565b60007ff0c57e16840df040f15088dc2f81fe391c3923bec73e23a9662efc9c229c6a00905090565b6121846129a1565b600061218e611da0565b9050600073ffffffffffffffffffffffffffffffffffffffff168273ffffffffffffffffffffffffffffffffffffffff16036122025760006040517fc22c80220000000000000000000000000000000000000000000000000000000081526004016121f991906134ad565b60405180910390fd5b8281600001601a6101000a81548165ffffffffffff021916908365ffffffffffff1602179055506122366000801b8361280d565b50505050565b600061224661151b565b61224f426129e1565b6122599190613d84565b90506122658282612a3b565b8173ffffffffffffffffffffffffffffffffffffffff167f3377dc44241e779dd06afab5b788a35ca5f3b778836e2990bdb26a2a4b2e5ed6826040516122ab9190612e8a565b60405180910390a25050565b60006122c282612aff565b6122cb426129e1565b6122d59190613d84565b90506122e18282612625565b7ff1038c18cf84a56e432fdbfaf746924b7ea511dfe03a6506a0ceba4888788d9b82826040516123129291906134c8565b60405180910390a15050565b60006387a211a2600c52816000526020600c20549050919050565b600033905090565b600061234b611da0565b9050600080612358611632565b9150915061236581611dc8565b1580612377575061237581611ddd565b155b156123b957806040517f19ca5ebb0000000000000000000000000000000000000000000000000000000081526004016123b09190612e8a565b60405180910390fd5b6123cd6000801b6123c8611110565b6128e8565b506123db6000801b8361280d565b508260000160006101000a81549073ffffffffffffffffffffffffffffffffffffffff02191690558260000160146101000a81549065ffffffffffff0219169055505050565b61242a82610a7c565b61243381611c3c565b61243d83836128e8565b50505050565b600080600080198587098587029250828110838203039150506000810361247e5783828161247457612473613cfd565b5b0492505050612556565b8381106124c6578585856040517f63a057780000000000000000000000000000000000000000000000000000000081526004016124bd93929190613dbe565b60405180910390fd5b60008486880990508281118203915080830392506000600186190186169050600081870496508185049450600182836000030401905080840285179450600060028860030218905080880260020381029050808802600203810290508088026002038102905080880260020381029050808802600203810290508088026002038102905080860296505050505050505b9392505050565b612568600080612a3b565b565b60007f01ffc9a7000000000000000000000000000000000000000000000000000000007bffffffffffffffffffffffffffffffffffffffffffffffffffffffff1916827bffffffffffffffffffffffffffffffffffffffffffffffffffffffff1916149050919050565b6125de8282611157565b6126215780826040517fe2517d3f000000000000000000000000000000000000000000000000000000008152600401612618929190613df5565b60405180910390fd5b5050565b600061262f611da0565b9050600081600101601a9054906101000a900465ffffffffffff16905061265581611dc8565b156126d85761266381611ddd565b156126aa578160010160149054906101000a900465ffffffffffff1682600001601a6101000a81548165ffffffffffff021916908365ffffffffffff1602179055506126d7565b7f2b1fa2edafe6f7b9e97c1a9e0c3660e645beb2dcaa2d45bdbf9beaf5472e1ec560405160405180910390a15b5b838260010160146101000a81548165ffffffffffff021916908365ffffffffffff1602179055508282600101601a6101000a81548165ffffffffffff021916908365ffffffffffff16021790555050505050565b6000612736611c14565b905060008160020160009054906101000a900473ffffffffffffffffffffffffffffffffffffffff169050600073ffffffffffffffffffffffffffffffffffffffff168173ffffffffffffffffffffffffffffffffffffffff1614612801578073ffffffffffffffffffffffffffffffffffffffff166353c033c286866040518363ffffffff1660e01b81526004016127d0929190613e1e565b60006040518083038186803b1580156127e857600080fd5b505afa1580156127fc573d6000803e3d6000fd5b505050505b5050505050565b505050565b600080612818611da0565b90506000801b84036128d557600073ffffffffffffffffffffffffffffffffffffffff16612844611110565b73ffffffffffffffffffffffffffffffffffffffff1614612891576040517f3fc3c27a00000000000000000000000000000000000000000000000000000000815260040160405180910390fd5b828160010160006101000a81548173ffffffffffffffffffffffffffffffffffffffff021916908373ffffffffffffffffffffffffffffffffffffffff1602179055505b6128df8484612b5e565b91505092915050565b6000806128f3611da0565b90506000801b84148015612939575061290a611110565b73ffffffffffffffffffffffffffffffffffffffff168373ffffffffffffffffffffffffffffffffffffffff16145b15612966578060010160006101000a81549073ffffffffffffffffffffffffffffffffffffffff02191690555b6129708484612c5f565b91505092915050565b6000806000801985870985870292508281108382030391505083811015925050509392505050565b6129a9612d61565b6129df576040517fd7e6bcf800000000000000000000000000000000000000000000000000000000815260040160405180910390fd5b565b600065ffffffffffff8016821115612a33576030826040517f6dfcc650000000000000000000000000000000000000000000000000000000008152600401612a2a929190613e82565b60405180910390fd5b819050919050565b6000612a45611da0565b90506000612a51611632565b915050838260000160006101000a81548173ffffffffffffffffffffffffffffffffffffffff021916908373ffffffffffffffffffffffffffffffffffffffff160217905550828260000160146101000a81548165ffffffffffff021916908365ffffffffffff160217905550612ac781611dc8565b15612af9577f8886ebfc4259abdbc16601dd8fb5678e54878f47b3c34836cfc51154a960510960405160405180910390a15b50505050565b600080612b0a61151b565b90508065ffffffffffff168365ffffffffffff1611612b34578281612b2f9190613eab565b612b56565b612b558365ffffffffffff16612b4861092a565b65ffffffffffff16612d81565b5b915050919050565b600080612b69611d51565b9050612b758484611157565b612c5357600181600001600086815260200190815260200160002060000160008573ffffffffffffffffffffffffffffffffffffffff1673ffffffffffffffffffffffffffffffffffffffff16815260200190815260200160002060006101000a81548160ff021916908315150217905550612bef612339565b73ffffffffffffffffffffffffffffffffffffffff168373ffffffffffffffffffffffffffffffffffffffff16857f2f8788117e7eff1d82e926ec794901d17c78024a50270940304540a733656f0d60405160405180910390a46001915050612c59565b60009150505b92915050565b600080612c6a611d51565b9050612c768484611157565b15612d5557600081600001600086815260200190815260200160002060000160008573ffffffffffffffffffffffffffffffffffffffff1673ffffffffffffffffffffffffffffffffffffffff16815260200190815260200160002060006101000a81548160ff021916908315150217905550612cf1612339565b73ffffffffffffffffffffffffffffffffffffffff168373ffffffffffffffffffffffffffffffffffffffff16857ff6391f5c32d9c69d2a47ea670b442974b53935d1edc7fd64eb21e047a839171b60405160405180910390a46001915050612d5b565b60009150505b92915050565b6000612d6b612154565b60000160089054906101000a900460ff16905090565b6000818310612d905781612d92565b825b905092915050565b6000604051905090565b600080fd5b600080fd5b60007fffffffff0000000000000000000000000000000000000000000000000000000082169050919050565b612de381612dae565b8114612dee57600080fd5b50565b600081359050612e0081612dda565b92915050565b600060208284031215612e1c57612e1b612da4565b5b6000612e2a84828501612df1565b91505092915050565b60008115159050919050565b612e4881612e33565b82525050565b6000602082019050612e636000830184612e3f565b92915050565b600065ffffffffffff82169050919050565b612e8481612e69565b82525050565b6000602082019050612e9f6000830184612e7b565b92915050565b600081519050919050565b600082825260208201905092915050565b60005b83811015612edf578082015181840152602081019050612ec4565b60008484015250505050565b6000601f19601f8301169050919050565b6000612f0782612ea5565b612f118185612eb0565b9350612f21818560208601612ec1565b612f2a81612eeb565b840191505092915050565b60006020820190508181036000830152612f4f8184612efc565b905092915050565b600073ffffffffffffffffffffffffffffffffffffffff82169050919050565b6000612f8282612f57565b9050919050565b612f9281612f77565b8114612f9d57600080fd5b50565b600081359050612faf81612f89565b92915050565b6000819050919050565b612fc881612fb5565b8114612fd357600080fd5b50565b600081359050612fe581612fbf565b92915050565b6000806040838503121561300257613001612da4565b5b600061301085828601612fa0565b925050602061302185828601612fd6565b9150509250929050565b61303481612fb5565b82525050565b600060208201905061304f600083018461302b565b92915050565b60008060006060848603121561306e5761306d612da4565b5b600061307c86828701612fa0565b935050602061308d86828701612fa0565b925050604061309e86828701612fd6565b9150509250925092565b6000819050919050565b6130bb816130a8565b81146130c657600080fd5b50565b6000813590506130d8816130b2565b92915050565b6000602082840312156130f4576130f3612da4565b5b6000613102848285016130c9565b91505092915050565b613114816130a8565b82525050565b600060208201905061312f600083018461310b565b92915050565b6000806040838503121561314c5761314b612da4565b5b600061315a858286016130c9565b925050602061316b85828601612fa0565b9150509250929050565b600060ff82169050919050565b61318b81613175565b82525050565b60006020820190506131a66000830184613182565b92915050565b6000602082840312156131c2576131c1612da4565b5b60006131d084828501612fd6565b91505092915050565b60006131e482612f77565b9050919050565b6131f4816131d9565b81146131ff57600080fd5b50565b600081359050613211816131eb565b92915050565b60006020828403121561322d5761322c612da4565b5b600061323b84828501613202565b91505092915050565b600080fd5b600080fd5b7f4e487b7100000000000000000000000000000000000000000000000000000000600052604160045260246000fd5b61328682612eeb565b810181811067ffffffffffffffff821117156132a5576132a461324e565b5b80604052505050565b60006132b8612d9a565b90506132c4828261327d565b919050565b600067ffffffffffffffff8211156132e4576132e361324e565b5b6132ed82612eeb565b9050602081019050919050565b82818337600083830152505050565b600061331c613317846132c9565b6132ae565b90508281526020810184848401111561333857613337613249565b5b6133438482856132fa565b509392505050565b600082601f8301126133605761335f613244565b5b8135613370848260208601613309565b91505092915050565b6000806000806080858703121561339357613392612da4565b5b60006133a187828801612fa0565b945050602085013567ffffffffffffffff8111156133c2576133c1612da9565b5b6133ce8782880161334b565b935050604085013567ffffffffffffffff8111156133ef576133ee612da9565b5b6133fb8782880161334b565b925050606061340c87828801613202565b91505092959194509250565b60006020828403121561342e5761342d612da4565b5b600061343c84828501612fa0565b91505092915050565b61344e81612e69565b811461345957600080fd5b50565b60008135905061346b81613445565b92915050565b60006020828403121561348757613486612da4565b5b60006134958482850161345c565b91505092915050565b6134a781612f77565b82525050565b60006020820190506134c2600083018461349e565b92915050565b60006040820190506134dd6000830185612e7b565b6134ea6020830184612e7b565b9392505050565b60006fffffffffffffffffffffffffffffffff82169050919050565b613516816134f1565b82525050565b6000602082019050613531600083018461350d565b92915050565b613540816134f1565b811461354b57600080fd5b50565b60008135905061355d81613537565b92915050565b60006020828403121561357957613578612da4565b5b60006135878482850161354e565b91505092915050565b600080fd5b600080fd5b60008083601f8401126135b0576135af613244565b5b8235905067ffffffffffffffff8111156135cd576135cc613590565b5b6020830191508360018202830111156135e9576135e8613595565b5b9250929050565b6000806020838503121561360757613606612da4565b5b600083013567ffffffffffffffff81111561362557613624612da9565b5b6136318582860161359a565b92509250509250929050565b6000604082019050613652600083018561349e565b61365f6020830184612e7b565b9392505050565b6000819050919050565b600061368b61368661368184612f57565b613666565b612f57565b9050919050565b600061369d82613670565b9050919050565b60006136af82613692565b9050919050565b6136bf816136a4565b82525050565b60006020820190506136da60008301846136b6565b92915050565b6136e981613175565b81146136f457600080fd5b50565b600081359050613706816136e0565b92915050565b600080600080600080600060e0888a03121561372b5761372a612da4565b5b60006137398a828b01612fa0565b975050602061374a8a828b01612fa0565b965050604061375b8a828b01612fd6565b955050606061376c8a828b01612fd6565b945050608061377d8a828b016136f7565b93505060a061378e8a828b016130c9565b92505060c061379f8a828b016130c9565b91505092959891949750929550565b600080604083850312156137c5576137c4612da4565b5b60006137d385828601612fa0565b92505060206137e485828601612fa0565b9150509250929050565b7f4e487b7100000000000000000000000000000000000000000000000000000000600052602260045260246000fd5b6000600282049050600182168061383557607f821691505b602082108103613848576138476137ee565b5b50919050565b60008190508160005260206000209050919050565b60006020601f8301049050919050565b600082821b905092915050565b6000600883026138b07fffffffffffffffffffffffffffffffffffffffffffffffffffffffffffffffff82613873565b6138ba8683613873565b95508019841693508086168417925050509392505050565b60006138ed6138e86138e384612fb5565b613666565b612fb5565b9050919050565b6000819050919050565b613907836138d2565b61391b613913826138f4565b848454613880565b825550505050565b600090565b613930613923565b61393b8184846138fe565b505050565b5b8181101561395f57613954600082613928565b600181019050613941565b5050565b601f8211156139a4576139758161384e565b61397e84613863565b8101602085101561398d578190505b6139a161399985613863565b830182613940565b50505b505050565b600082821c905092915050565b60006139c7600019846008026139a9565b1980831691505092915050565b60006139e083836139b6565b9150826002028217905092915050565b6139f982612ea5565b67ffffffffffffffff811115613a1257613a1161324e565b5b613a1c825461381d565b613a27828285613963565b600060209050601f831160018114613a5a5760008415613a48578287015190505b613a5285826139d4565b865550613aba565b601f198416613a688661384e565b60005b82811015613a9057848901518255600182019150602085019450602081019050613a6b565b86831015613aad5784890151613aa9601f8916826139b6565b8355505b6001600288020188555050505b505050505050565b6000819050919050565b600067ffffffffffffffff82169050919050565b6000613afb613af6613af184613ac2565b613666565b613acc565b9050919050565b613b0b81613ae0565b82525050565b6000602082019050613b266000830184613b02565b92915050565b6000613b47613b42613b3d846134f1565b613666565b612fb5565b9050919050565b613b5781613b2c565b82525050565b6000602082019050613b726000830184613b4e565b92915050565b600082905092915050565b613b8d8383613b78565b67ffffffffffffffff811115613ba657613ba561324e565b5b613bb0825461381d565b613bbb828285613963565b6000601f831160018114613bea5760008415613bd8578287013590505b613be285826139d4565b865550613c4a565b601f198416613bf88661384e565b60005b82811015613c2057848901358255600182019150602085019450602081019050613bfb565b86831015613c3d5784890135613c39601f8916826139b6565b8355505b6001600288020188555050505b50505050505050565b6000613c5f8385612eb0565b9350613c6c8385846132fa565b613c7583612eeb565b840190509392505050565b60006020820190508181036000830152613c9b818486613c53565b90509392505050565b613cad81612e33565b8114613cb857600080fd5b50565b600081519050613cca81613ca4565b92915050565b600060208284031215613ce657613ce5612da4565b5b6000613cf484828501613cbb565b91505092915050565b7f4e487b7100000000000000000000000000000000000000000000000000000000600052601260045260246000fd5b6000604082019050613d41600083018561302b565b613d4e602083018461302b565b9392505050565b7f4e487b7100000000000000000000000000000000000000000000000000000000600052601160045260246000fd5b6000613d8f82612e69565b9150613d9a83612e69565b9250828201905065ffffffffffff811115613db857613db7613d55565b5b92915050565b6000606082019050613dd3600083018661302b565b613de0602083018561302b565b613ded604083018461302b565b949350505050565b6000604082019050613e0a600083018561349e565b613e17602083018461310b565b9392505050565b6000604082019050613e33600083018561349e565b613e40602083018461349e565b9392505050565b6000819050919050565b6000613e6c613e67613e6284613e47565b613666565b613175565b9050919050565b613e7c81613e51565b82525050565b6000604082019050613e976000830185613e73565b613ea4602083018461302b565b9392505050565b6000613eb682612e69565b9150613ec183612e69565b9250828203905065ffffffffffff811115613edf57613ede613d55565b5b9291505056fea26469706673582212206bd9181e9abff7e52b46eeb727a8aa72a3d64dbed2f281808e270fd96433b12864736f6c63430008190033","linkReferences":{}},"methodIdentifiers":{"BURNER_ROLE()":"282c51f3","DEFAULT_ADMIN_ROLE()":"a217fddf","DOMAIN_SEPARATOR()":"3644e515","MINTER_ROLE()":"d5391393","acceptDefaultAdminTransfer()":"cefc1429","allowance(address,address)":"dd62ed3e","approve(address,uint256)":"095ea7b3","balanceOf(address)":"70a08231","balancePerShare()":"a781a3fd","balanceToShares(uint256)":"d8ddf18f","beginDefaultAdminTransfer(address)":"634e93da","burn(uint256)":"42966c68","burnFrom(address,uint256)":"79cc6790","cancelDefaultAdminTransfer()":"d602b9fd","changeDefaultAdminDelay(uint48)":"649a5ec7","decimals()":"313ce567","defaultAdmin()":"84ef8ffc","defaultAdminDelay()":"cc8463c8","defaultAdminDelayIncreaseWait()":"022d63fb","getRoleAdmin(bytes32)":"248a9ca3","grantRole(bytes32,address)":"2f2ff15d","hasRole(bytes32,address)":"91d14854","initialize(address,string,string,address)":"613d25bb","isBlacklisted(address)":"fe575a87","maxSupply()":"d5abeb01","mint(address,uint256)":"40c10f19","name()":"06fdde03","nonces(address)":"7ecebe00","owner()":"8da5cb5b","pendingDefaultAdmin()":"cf6eefb7","pendingDefaultAdminDelay()":"a1eda53c","permit(address,address,uint256,uint256,uint8,bytes32,bytes32)":"d505accf","renounceRole(bytes32,address)":"36568abe","revokeRole(bytes32,address)":"d547741f","rollbackDefaultAdminDelay()":"0aa6220b","setBalancePerShare(uint128)":"a850e024","setName(string)":"c47f0027","setSymbol(string)":"b84c8246","setTransferRestrictor(address)":"4904ac8f","sharesOf(address)":"f5eb42dc","sharesToBalance(uint256)":"53735f37","supportsInterface(bytes4)":"01ffc9a7","symbol()":"95d89b41","totalSupply()":"18160ddd","transfer(address,uint256)":"a9059cbb","transferFrom(address,address,uint256)":"23b872dd","transferRestrictor()":"d4ec137a"},"id":2}