{"abi":[{"type":"constructor","inputs":[],"stateMutability":"nonpayable"},{"type":"function","name":"BURNER_ROLE","inputs":[],"outputs":[{"name":"","type":"bytes32","internalType":"bytes32"}],"stateMutability":"view"},{"type":"function","name":"DEFAULT_ADMIN_ROLE","inputs":[],"outputs":[{"name":"","type":"bytes32","internalType":"bytes32"}],"stateMutability":"view"},{"type":"function","name":"DOMAIN_SEPARATOR","inputs":[],"outputs":[{"name":"result","type":"bytes32","internalType":"bytes32"}],"stateMutability":"view"},{"type":"function","name":"MINTER_ROLE","inputs":[],"outputs":[{"name":"","type":"bytes32","internalType":"bytes32"}],"stateMutability":"view"},{"type":"function","name":"acceptDefaultAdminTransfer","inputs":[],"outputs":[],"stateMutability":"nonpayable"},{"type":"function","name":"allowance","inputs":[{"name":"owner","type":"address","internalType":"address"},{"name":"spender","type":"address","internalType":"address"}],"outputs":[{"name":"result","type":"uint256","internalType":"uint256"}],"stateMutability":"view"},{"type":"function","name":"approve","inputs":[{"name":"spender","type":"address","internalType":"address"},{"name":"amount","type":"uint256","internalType":"uint256"}],"outputs":[{"name":"","type":"bool","internalType":"bool"}],"stateMutability":"nonpayable"},{"type":"function","name":"balanceOf","inputs":[{"name":"account","type":"address","internalType":"address"}],"outputs":[{"name":"","type":"uint256","internalType":"uint256"}],"stateMutability":"view"},{"type":"function","name":"balancePerShare","inputs":[],"outputs":[{"name":"","type":"uint128","internalType":"uint128"}],"stateMutability":"view"},{"type":"function","name":"balanceToShares","inputs":[{"name":"balance","type":"uint256","internalType":"uint256"}],"outputs":[{"name":"","type":"uint256","internalType":"uint256"}],"stateMutability":"view"},{"type":"function","name":"beginDefaultAdminTransfer","inputs":[{"name":"newAdmin","type":"address","internalType":"address"}],"outputs":[],"stateMutability":"nonpayable"},{"type":"function","name":"burn","inputs":[{"name":"value","type":"uint256","internalType":"uint256"}],"outputs":[],"stateMutability":"nonpayable"},{"type":"function","name":"burnFrom","inputs":[{"name":"account","type":"address","internalType":"address"},{"name":"value","type":"uint256","internalType":"uint256"}],"outputs":[],"stateMutability":"nonpayable"},{"type":"function","name":"cancelDefaultAdminTransfer","inputs":[],"outputs":[],"stateMutability":"nonpayable"},{"type":"function","name":"changeDefaultAdminDelay","inputs":[{"name":"newDelay","type":"uint48","internalType":"uint48"}],"outputs":[],"stateMutability":"nonpayable"},{"type":"function","name":"decimals","inputs":[],"outputs":[{"name":"","type":"uint8","internalType":"uint8"}],"stateMutability":"view"},{"type":"function","name":"defaultAdmin","inputs":[],"outputs":[{"name":"","type":"address","internalType":"address"}],"stateMutability":"view"},{"type":"function","name":"defaultAdminDelay","inputs":[],"outputs":[{"name":"","type":"uint48","internalType":"uint48"}],"stateMutability":"view"},{"type":"function","name":"defaultAdminDelayIncreaseWait","inputs":[],"outputs":[{"name":"","type":"uint48","internalType":"uint48"}],"stateMutability":"view"},{"type":"function","name":"getRoleAdmin","inputs":[{"name":"role","type":"bytes32","internalType":"bytes32"}],"outputs":[{"name":"","type":"bytes32","internalType":"bytes32"}],"stateMutability":"view"},{"type":"function","name":"grantRole","inputs":[{"name":"role","type":"bytes32","internalType":"bytes32"},{"name":"account","type":"address","internalType":"address"}],"outputs":[],"stateMutability":"nonpayable"},{"type":"function","name":"hasRole","inputs":[{"name":"role","type":"bytes32","internalType":"bytes32"},{"name":"account","type":"address","internalType":"address"}],"outputs":[{"name":"","type":"bool","internalType":"bool"}],"stateMutability":"view"},{"type":"function","name":"initialize","inputs":[{"name":"owner","type":"address","internalType":"address"},{"name":"_name","type":"string","internalType":"string"},{"name":"_symbol","type":"string","internalType":"string"},{"name":"_transferRestrictor","type":"address","internalType":"contract ITransferRestrictor"}],"outputs":[],"stateMutability":"nonpayable"},{"type":"function","name":"isBlacklisted","inputs":[{"name":"account","type":"address","internalType":"address"}],"outputs":[{"name":"","type":"bool","internalType":"bool"}],"stateMutability":"view"},{"type":"function","name":"maxSupply","inputs":[],"outputs":[{"name":"","type":"uint256","internalType":"uint256"}],"stateMutability":"view"},{"type":"function","name":"mint","inputs":[{"name":"to","type":"address","internalType":"address"},{"name":"value","type":"uint256","internalType":"uint256"}],"outputs":[],"stateMutability":"nonpayable"},{"type":"function","name":"name","inputs":[],"outputs":[{"name":"","type":"string","internalType":"string"}],"stateMutability":"view"},{"type":"function","name":"nonces","inputs":[{"name":"owner","type":"address","internalType":"address"}],"outputs":[{"name":"result","type":"uint256","internalType":"uint256"}],"stateMutability":"view"},{"type":"function","name":"owner","inputs":[],"outputs":[{"name":"","type":"address","internalType":"address"}],"stateMutability":"view"},{"type":"function","name":"pendingDefaultAdmin","inputs":[],"outputs":[{"name":"newAdmin","type":"address","internalType":"address"},{"name":"schedule","type":"uint48","internalType":"uint48"}],"stateMutability":"view"},{"type":"function","name":"pendingDefaultAdminDelay","inputs":[],"outputs":[{"name":"newDelay","type":"uint48","internalType":"uint48"},{"name":"schedule","type":"uint48","internalType":"uint48"}],"stateMutability":"view"},{"type":"function","name":"permit","inputs":[{"name":"owner","type":"address","internalType":"address"},{"name":"spender","type":"address","internalType":"address"},{"name":"value","type":"uint256","internalType":"uint256"},{"name":"deadline","type":"uint256","internalType":"uint256"},{"name":"v","type":"uint8","internalType":"uint8"},{"name":"r","type":"bytes32","internalType":"bytes32"},{"name":"s","type":"bytes32","internalType":"bytes32"}],"outputs":[],"stateMutability":"nonpayable"},{"type":"function","name":"renounceRole","inputs":[{"name":"role","type":"bytes32","internalType":"bytes32"},{"name":"account","type":"address","internalType":"address"}],"outputs":[],"stateMutability":"nonpayable"},{"type":"function","name":"revokeRole","inputs":[{"name":"role","type":"bytes32","internalType":"bytes32"},{"name":"account","type":"address","internalType":"address"}],"outputs":[],"stateMutability":"nonpayable"},{"type":"function","name":"rollbackDefaultAdminDelay","inputs":[],"outputs":[],"stateMutability":"nonpayable"},{"type":"function","name":"setBalancePerShare","inputs":[{"name":"balancePerShare_","type":"uint128","internalType":"uint128"}],"outputs":[],"stateMutability":"nonpayable"},{"type":"function","name":"setName","inputs":[{"name":"newName","type":"string","internalType":"string"}],"outputs":[],"stateMutability":"nonpayable"},{"type":"function","name":"setSymbol","inputs":[{"name":"newSymbol","type":"string","internalType":"string"}],"outputs":[],"stateMutability":"nonpayable"},{"type":"function","name":"setTransferRestrictor","inputs":[{"name":"newRestrictor","type":"address","internalType":"contract ITransferRestrictor"}],"outputs":[],"stateMutability":"nonpayable"},{"type":"function","name":"sharesOf","inputs":[{"name":"account","type":"address","internalType":"address"}],"outputs":[{"name":"","type":"uint256","internalType":"uint256"}],"stateMutability":"view"},{"type":"function","name":"sharesToBalance","inputs":[{"name":"shares","type":"uint256","internalType":"uint256"}],"outputs":[{"name":"","type":"uint256","internalType":"uint256"}],"stateMutability":"view"},{"type":"function","name":"supportsInterface","inputs":[{"name":"interfaceId","type":"bytes4","internalType":"bytes4"}],"outputs":[{"name":"","type":"bool","internalType":"bool"}],"stateMutability":"view"},{"type":"function","name":"symbol","inputs":[],"outputs":[{"name":"","type":"string","internalType":"string"}],"stateMutability":"view"},{"type":"function","name":"totalSupply","inputs":[],"outputs":[{"name":"","type":"uint256","internalType":"uint256"}],"stateMutability":"view"},{"type":"function","name":"transfer","inputs":[{"name":"to","type":"address","internalType":"address"},{"name":"amount","type":"uint256","internalType":"uint256"}],"outputs":[{"name":"","type":"bool","internalType":"bool"}],"stateMutability":"nonpayable"},{"type":"function","name":"transferFrom","inputs":[{"name":"from","type":"address","internalType":"address"},{"name":"to","type":"address","internalType":"address"},{"name":"amount","type":"uint256","internalType":"uint256"}],"outputs":[{"name":"","type":"bool","internalType":"bool"}],"stateMutability":"nonpayable"},{"type":"function","name":"transferRestrictor","inputs":[],"outputs":[{"name":"","type":"address","internalType":"contract ITransferRestrictor"}],"stateMutability":"view"},{"type":"event","name":"Approval","inputs":[{"name":"owner","type":"address","indexed":true,"internalType":"address"},{"name":"spender","type":"address","indexed":true,"internalType":"address"},{"name":"amount","type":"uint256","indexed":false,"internalType":"uint256"}],"anonymous":false},{"type":"event","name":"BalancePerShareSet","inputs":[{"name":"balancePerShare","type":"uint256","indexed":false,"internalType":"uint256"}],"anonymous":false},{"type":"event","name":"DefaultAdminDelayChangeCanceled","inputs":[],"anonymous":false},{"type":"event","name":"DefaultAdminDelayChangeScheduled","inputs":[{"name":"newDelay","type":"uint48","indexed":false,"internalType":"uint48"},{"name":"effectSchedule","type":"uint48","indexed":false,"internalType":"uint48"}],"anonymous":false},{"type":"event","name":"DefaultAdminTransferCanceled","inputs":[],"anonymous":false},{"type":"event","name":"DefaultAdminTransferScheduled","inputs":[{"name":"newAdmin","type":"address","indexed":true,"internalType":"address"},{"name":"acceptSchedule","type":"uint48","indexed":false,"internalType":"uint48"}],"anonymous":false},{"type":"event","name":"Initialized","inputs":[{"name":"version","type":"uint64","indexed":false,"internalType":"uint64"}],"anonymous":false},{"type":"event","name":"NameSet","inputs":[{"name":"name","type":"string","indexed":false,"internalType":"string"}],"anonymous":false},{"type":"event","name":"RoleAdminChanged","inputs":[{"name":"role","type":"bytes32","indexed":true,"internalType":"bytes32"},{"name":"previousAdminRole","type":"bytes32","indexed":true,"internalType":"bytes32"},{"name":"newAdminRole","type":"bytes32","indexed":true,"internalType":"bytes32"}],"anonymous":false},{"type":"event","name":"RoleGranted","inputs":[{"name":"role","type":"bytes32","indexed":true,"internalType":"bytes32"},{"name":"account","type":"address","indexed":true,"internalType":"address"},{"name":"sender","type":"address","indexed":true,"internalType":"address"}],"anonymous":false},{"type":"event","name":"RoleRevoked","inputs":[{"name":"role","type":"bytes32","indexed":true,"internalType":"bytes32"},{"name":"account","type":"address","indexed":true,"internalType":"address"},{"name":"sender","type":"address","indexed":true,"internalType":"address"}],"anonymous":false},{"type":"event","name":"SymbolSet","inputs":[{"name":"symbol","type":"string","indexed":false,"internalType":"string"}],"anonymous":false},{"type":"event","name":"Transfer","inputs":[{"name":"from","type":"address","indexed":true,"internalType":"address"},{"name":"to","type":"address","indexed":true,"internalType":"address"},{"name":"amount","type":"uint256","indexed":false,"internalType":"uint256"}],"anonymous":false},{"type":"event","name":"TransferRestrictorSet","inputs":[{"name":"transferRestrictor","type":"address","indexed":true,"internalType":"contract ITransferRestrictor"}],"anonymous":false},{"type":"error","name":"AccessControlBadConfirmation","inputs":[]},{"type":"error","name":"AccessControlEnforcedDefaultAdminDelay","inputs":[{"name":"schedule","type":"uint48","internalType":"uint48"}]},{"type":"error","name":"AccessControlEnforcedDefaultAdminRules","inputs":[]},{"type":"error","name":"AccessControlInvalidDefaultAdmin","inputs":[{"name":"defaultAdmin","type":"address","internalType":"address"}]},{"type":"error","name":"AccessControlUnauthorizedAccount","inputs":[{"name":"account","type":"address","internalType":"address"},{"name":"neededRole","type":"bytes32","internalType":"bytes32"}]},{"type":"error","name":"AllowanceOverflow","inputs":[]},{"type":"error","name":"AllowanceUnderflow","inputs":[]},{"type":"error","name":"InsufficientAllowance","inputs":[]},{"type":"error","name":"InsufficientBalance","inputs":[]},{"type":"error","name":"InvalidInitialization","inputs":[]},{"type":"error","name":"InvalidPermit","inputs":[]},{"type":"error","name":"NotInitializing","inputs":[]},{"type":"error","name":"PRBMath_MulDiv18_Overflow","inputs":[{"name":"x","type":"uint256","internalType":"uint256"},{"name":"y","type":"uint256","internalType":"uint256"}]},{"type":"error","name":"PRBMath_MulDiv_Overflow","inputs":[{"name":"x","type":"uint256","internalType":"uint256"},{"name":"y","type":"uint256","internalType":"uint256"},{"name":"denominator","type":"uint256","internalType":"uint256"}]},{"type":"error","name":"PermitExpired","inputs":[]},{"type":"error","name":"SafeCastOverflowedUintDowncast","inputs":[{"name":"bits","type":"uint8","internalType":"uint8"},{"name":"value","type":"uint256","internalType":"uint256"}]},{"type":"error","name":"TotalSupplyOverflow","inputs":[]},{"type":"error","name":"Unauthorized","inputs":[]},{"type":"error","name":"ZeroValue","inputs":[]}],"bytecode":{"object":"0x608060405234801561000f575f80fd5b5061001e61002360201b60201c565b610183565b5f61003261012160201b60201c565b9050805f0160089054906101000a900460ff161561007c576040517ff92ee8a900000000000000000000000000000000000000000000000000000000815260040160405180910390fd5b67ffffffffffffffff8016815f015f9054906101000a900467ffffffffffffffff1667ffffffffffffffff161461011e5767ffffffffffffffff815f015f6101000a81548167ffffffffffffffff021916908367ffffffffffffffff1602179055507fc7f505b2f371ae2175ee4913f4499e1f2633a7b5936321eed1cdaeb6115181d267ffffffffffffffff604051610115919061016a565b60405180910390a15b50565b5f7ff0c57e16840df040f15088dc2f81fe391c3923bec73e23a9662efc9c229c6a00905090565b5f67ffffffffffffffff82169050919050565b61016481610148565b82525050565b5f60208201905061017d5f83018461015b565b92915050565b613d73806101905f395ff3fe608060405234801561000f575f80fd5b5060043610610293575f3560e01c806384ef8ffc11610165578063cefc1429116100cc578063d5abeb0111610085578063d5abeb01146107c5578063d602b9fd146107e3578063d8ddf18f146107ed578063dd62ed3e1461081d578063f5eb42dc1461084d578063fe575a871461087d57610293565b8063cefc142914610728578063cf6eefb714610732578063d4ec137a14610751578063d505accf1461076f578063d53913931461078b578063d547741f146107a957610293565b8063a781a3fd1161011e578063a781a3fd14610668578063a850e02414610686578063a9059cbb146106a2578063b84c8246146106d2578063c47f0027146106ee578063cc8463c81461070a57610293565b806384ef8ffc146105a15780638da5cb5b146105bf57806391d14854146105dd57806395d89b411461060d578063a1eda53c1461062b578063a217fddf1461064a57610293565b80633644e51511610209578063613d25bb116101c2578063613d25bb146104d1578063634e93da146104ed578063649a5ec71461050957806370a082311461052557806379cc6790146105555780637ecebe001461057157610293565b80633644e5151461041357806336568abe1461043157806340c10f191461044d57806342966c68146104695780634904ac8f1461048557806353735f37146104a157610293565b806318160ddd1161025b57806318160ddd1461033d57806323b872dd1461035b578063248a9ca31461038b578063282c51f3146103bb5780632f2ff15d146103d9578063313ce567146103f557610293565b806301ffc9a714610297578063022d63fb146102c757806306fdde03146102e5578063095ea7b3146103035780630aa6220b14610333575b5f80fd5b6102b160048036038101906102ac9190612d15565b6108ad565b6040516102be9190612d5a565b60405180910390f35b6102cf610926565b6040516102dc9190612d93565b60405180910390f35b6102ed610930565b6040516102fa9190612e1c565b60405180910390f35b61031d60048036038101906103189190612ec9565b6109cd565b60405161032a9190612d5a565b60405180910390f35b61033b610a1d565b005b610345610a34565b6040516103529190612f16565b60405180910390f35b61037560048036038101906103709190612f2f565b610a4a565b6040516103829190612d5a565b60405180910390f35b6103a560048036038101906103a09190612fb2565b610a6c565b6040516103b29190612fec565b60405180910390f35b6103c3610a96565b6040516103d09190612fec565b60405180910390f35b6103f360048036038101906103ee9190613005565b610aba565b005b6103fd610b03565b60405161040a919061305e565b60405180910390f35b61041b610b0b565b6040516104289190612fec565b60405180910390f35b61044b60048036038101906104469190613005565b610b9b565b005b61046760048036038101906104629190612ec9565b610cba565b005b610483600480360381019061047e9190613077565b610cf3565b005b61049f600480360381019061049a91906130dd565b610d2b565b005b6104bb60048036038101906104b69190613077565b610dcc565b6040516104c89190612f16565b60405180910390f35b6104eb60048036038101906104e69190613234565b610df7565b005b610507600480360381019061050291906132d0565b61102f565b005b610523600480360381019061051e9190613325565b611048565b005b61053f600480360381019061053a91906132d0565b611061565b60405161054c9190612f16565b60405180910390f35b61056f600480360381019061056a9190612ec9565b61107a565b005b61058b600480360381019061058691906132d0565b6110be565b6040516105989190612f16565b60405180910390f35b6105a96110d7565b6040516105b6919061335f565b60405180910390f35b6105c761110d565b6040516105d4919061335f565b60405180910390f35b6105f760048036038101906105f29190613005565b61111b565b6040516106049190612d5a565b60405180910390f35b61061561118c565b6040516106229190612e1c565b60405180910390f35b61063361122a565b604051610641929190613378565b60405180910390f35b610652611298565b60405161065f9190612fec565b60405180910390f35b61067061129e565b60405161067d91906133c9565b60405180910390f35b6106a0600480360381019061069b919061340c565b611301565b005b6106bc60048036038101906106b79190612ec9565b6113d9565b6040516106c99190612d5a565b60405180910390f35b6106ec60048036038101906106e79190613494565b6113ef565b005b61070860048036038101906107039190613494565b611459565b005b6107126114c2565b60405161071f9190612d93565b60405180910390f35b610730611540565b005b61073a6115d5565b6040516107489291906134df565b60405180910390f35b610759611624565b6040516107669190613561565b60405180910390f35b610789600480360381019061078491906135a4565b61165a565b005b6107936117f6565b6040516107a09190612fec565b60405180910390f35b6107c360048036038101906107be9190613005565b61181a565b005b6107cd611863565b6040516107da9190612f16565b60405180910390f35b6107eb6119a2565b005b61080760048036038101906108029190613077565b6119b9565b6040516108149190612f16565b60405180910390f35b61083760048036038101906108329190613641565b6119ff565b6040516108449190612f16565b60405180910390f35b610867600480360381019061086291906132d0565b611a1d565b6040516108749190612f16565b60405180910390f35b610897600480360381019061089291906132d0565b611a2e565b6040516108a49190612d5a565b60405180910390f35b5f7f31498786000000000000000000000000000000000000000000000000000000007bffffffffffffffffffffffffffffffffffffffffffffffffffffffff1916827bffffffffffffffffffffffffffffffffffffffffffffffffffffffff1916148061091f575061091e82611b20565b5b9050919050565b5f62069780905090565b60605f61093b611b99565b9050805f01805461094b906136ac565b80601f0160208091040260200160405190810160405280929190818152602001828054610977906136ac565b80156109c25780601f10610999576101008083540402835291602001916109c2565b820191905f5260205f20905b8154815290600101906020018083116109a557829003601f168201915b505050505091505090565b5f82602052637f5e9f20600c52335f52816034600c2055815f52602c5160601c337f8c5be1e5ebec7d5bd14f71427d1e84f3dd0314c0f7b2291e5b200ac8c7c3b92560205fa36001905092915050565b5f801b610a2981611bc0565b610a31611bd4565b50565b5f610a45610a40611be0565b610dcc565b905090565b5f610a56843384611bf1565b610a61848484611c32565b600190509392505050565b5f80610a76611cce565b9050805f015f8481526020019081526020015f2060010154915050919050565b7f3c11d16cbaffd01df69ce1c404f6340ee057498f5f00246190ea54220576a84881565b5f801b8203610af5576040517f3fc3c27a00000000000000000000000000000000000000000000000000000000815260040160405180910390fd5b610aff8282611cf5565b5050565b5f6012905090565b5f80610b15611d17565b90505f801b8103610b3257610b28610930565b8051906020012090505b6040517f8b73c3c69bb8fe3d512ecc4cf759cc79239f7b179b0ffacaa9a75d522b39400f81528160208201527fc89efdaa54c0f20c7adf612882df0950f5a951637e0307cdcb4c672f298b8bc6604082015246606082015230608082015260a081209250505090565b5f610ba4611d1b565b90505f801b83148015610be95750610bba6110d7565b73ffffffffffffffffffffffffffffffffffffffff168273ffffffffffffffffffffffffffffffffffffffff16145b15610cab575f80610bf86115d5565b915091505f73ffffffffffffffffffffffffffffffffffffffff168273ffffffffffffffffffffffffffffffffffffffff16141580610c3d5750610c3b81611d42565b155b80610c4e5750610c4c81611d56565b155b15610c9057806040517f19ca5ebb000000000000000000000000000000000000000000000000000000008152600401610c879190612d93565b60405180910390fd5b825f0160146101000a81549065ffffffffffff021916905550505b610cb58383611d69565b505050565b7f9f2df0fed2c77648de5860a4cc508cd0818c85b8b8a1ab4ceeef8d981c8956a6610ce481611bc0565b610cee8383611de4565b505050565b7f3c11d16cbaffd01df69ce1c404f6340ee057498f5f00246190ea54220576a848610d1d81611bc0565b610d273383611f34565b5050565b5f801b610d3781611bc0565b5f610d40611b99565b905082816002015f6101000a81548173ffffffffffffffffffffffffffffffffffffffff021916908373ffffffffffffffffffffffffffffffffffffffff1602179055508273ffffffffffffffffffffffffffffffffffffffff167fc2315c0e6785ae744f588d76c3aa8b08329e38dc33e849116b425556ef076ea460405160405180910390a2505050565b5f610df082610dd961129e565b6fffffffffffffffffffffffffffffffff16611fd1565b9050919050565b5f610e006120b6565b90505f815f0160089054906101000a900460ff161590505f825f015f9054906101000a900467ffffffffffffffff1690505f808267ffffffffffffffff16148015610e485750825b90505f60018367ffffffffffffffff16148015610e7b57505f3073ffffffffffffffffffffffffffffffffffffffff163b145b905081158015610e89575080155b15610ec0576040517ff92ee8a900000000000000000000000000000000000000000000000000000000815260040160405180910390fd5b6001855f015f6101000a81548167ffffffffffffffff021916908367ffffffffffffffff1602179055508315610f0d576001855f0160086101000a81548160ff0219169083151502179055505b610f175f8a6120dd565b5f610f20611b99565b905088815f019081610f329190613870565b5087816001019081610f449190613870565b5086816002015f6101000a81548173ffffffffffffffffffffffffffffffffffffffff021916908373ffffffffffffffffffffffffffffffffffffffff160217905550670de0b6b3a7640000816003015f6101000a8154816fffffffffffffffffffffffffffffffff02191690836fffffffffffffffffffffffffffffffff160217905550508315611024575f855f0160086101000a81548160ff0219169083151502179055507fc7f505b2f371ae2175ee4913f4499e1f2633a7b5936321eed1cdaeb6115181d2600160405161101b919061398b565b60405180910390a15b505050505050505050565b5f801b61103b81611bc0565b61104482612198565b5050565b5f801b61105481611bc0565b61105d82612212565b5050565b5f61107361106e83612278565b610dcc565b9050919050565b7f3c11d16cbaffd01df69ce1c404f6340ee057498f5f00246190ea54220576a8486110a481611bc0565b6110af833384611bf1565b6110b98383611f34565b505050565b5f6338377508600c52815f526020600c20549050919050565b5f806110e1611d1b565b9050806001015f9054906101000a900473ffffffffffffffffffffffffffffffffffffffff1691505090565b5f6111166110d7565b905090565b5f80611125611cce565b9050805f015f8581526020019081526020015f205f015f8473ffffffffffffffffffffffffffffffffffffffff1673ffffffffffffffffffffffffffffffffffffffff1681526020019081526020015f205f9054906101000a900460ff1691505092915050565b60605f611197611b99565b90508060010180546111a8906136ac565b80601f01602080910402602001604051908101604052809291908181526020018280546111d4906136ac565b801561121f5780601f106111f65761010080835404028352916020019161121f565b820191905f5260205f20905b81548152906001019060200180831161120257829003601f168201915b505050505091505090565b5f805f611235611d1b565b905080600101601a9054906101000a900465ffffffffffff16915061125982611d42565b801561126b575061126982611d56565b155b611276575f8061128f565b8060010160149054906101000a900465ffffffffffff16825b92509250509091565b5f801b81565b5f806112a8611b99565b90505f816003015f9054906101000a90046fffffffffffffffffffffffffffffffff1690505f816fffffffffffffffffffffffffffffffff16036112f857670de0b6b3a7640000925050506112fe565b80925050505b90565b5f801b61130d81611bc0565b5f826fffffffffffffffffffffffffffffffff1603611358576040517f7c946ed700000000000000000000000000000000000000000000000000000000815260040160405180910390fd5b5f611361611b99565b905082816003015f6101000a8154816fffffffffffffffffffffffffffffffff02191690836fffffffffffffffffffffffffffffffff1602179055507f7d1fa2fe734d16276290c7f8713b6aac4d03f2ef2a604f4ef62525ccead2cf13836040516113cc91906139d4565b60405180910390a1505050565b5f6113e5338484611c32565b6001905092915050565b5f801b6113fb81611bc0565b5f611404611b99565b905083838260010191826114199291906139f7565b507f3e46ff90086ee29856e77591e82c82ff8ed513379b0fd82e84fc5290dd633c99848460405161144b929190613af0565b60405180910390a150505050565b5f801b61146581611bc0565b5f61146e611b99565b90508383825f0191826114829291906139f7565b507f13c98778b0c1a086bb98d7f1986e15788b5d3a1ad4c492e1d78f1c4cc51c20cf84846040516114b4929190613af0565b60405180910390a150505050565b5f806114cc611d1b565b90505f81600101601a9054906101000a900465ffffffffffff1690506114f181611d42565b8015611502575061150181611d56565b5b61152157815f01601a9054906101000a900465ffffffffffff16611539565b8160010160149054906101000a900465ffffffffffff165b9250505090565b5f6115496115d5565b5090508073ffffffffffffffffffffffffffffffffffffffff1661156b612291565b73ffffffffffffffffffffffffffffffffffffffff16146115ca5761158e612291565b6040517fc22c80220000000000000000000000000000000000000000000000000000000081526004016115c1919061335f565b60405180910390fd5b6115d2612298565b50565b5f805f6115e0611d1b565b9050805f015f9054906101000a900473ffffffffffffffffffffffffffffffffffffffff16815f0160149054906101000a900465ffffffffffff1692509250509091565b5f8061162e611b99565b9050806002015f9054906101000a900473ffffffffffffffffffffffffffffffffffffffff1691505090565b5f611663611d17565b90505f801b810361168057611676610930565b8051906020012090505b8442111561169557631a15a3cc5f526004601cfd5b6040518860601b60601c98508760601b60601c975065383775081901600e52885f526020600c2080547f8b73c3c69bb8fe3d512ecc4cf759cc79239f7b179b0ffacaa9a75d522b39400f83528360208401527fc89efdaa54c0f20c7adf612882df0950f5a951637e0307cdcb4c672f298b8bc6604084015246606084015230608084015260a08320602e527f6e71edae12b1b97f4d1f60370fef10105fa2faae0126114a169c64845d6126c983528a60208401528960408401528860608401528060808401528760a084015260c08320604e526042602c205f528660ff16602052856040528460605260208060805f60015afa8b3d511461179d5763ddafbaef5f526004601cfd5b80820183558a637f5e9f2060a01b17604052896034602c20558a8c7f8c5be1e5ebec7d5bd14f71427d1e84f3dd0314c0f7b2291e5b200ac8c7c3b925602060608801a3836040525f606052505050505050505050505050565b7f9f2df0fed2c77648de5860a4cc508cd0818c85b8b8a1ab4ceeef8d981c8956a681565b5f801b8203611855576040517f3fc3c27a00000000000000000000000000000000000000000000000000000000815260040160405180910390fd5b61185f8282612371565b5050565b5f8061186d61129e565b9050670de0b6b3a76400006fffffffffffffffffffffffffffffffff16816fffffffffffffffffffffffffffffffff1610156118e7576118df7fffffffffffffffffffffffffffffffffffffffffffffffffffffffffffffffff826fffffffffffffffffffffffffffffffff16611fd1565b91505061199f565b670de0b6b3a76400006fffffffffffffffffffffffffffffffff16816fffffffffffffffffffffffffffffffff16111561197a576119727fffffffffffffffffffffffffffffffffffffffffffffffffffffffffffffffff670de0b6b3a76400006fffffffffffffffffffffffffffffffff16836fffffffffffffffffffffffffffffffff16612393565b91505061199f565b7fffffffffffffffffffffffffffffffffffffffffffffffffffffffffffffffff9150505b90565b5f801b6119ae81611bc0565b6119b66124a5565b50565b5f6119f882670de0b6b3a76400006fffffffffffffffffffffffffffffffff166119e161129e565b6fffffffffffffffffffffffffffffffff16612393565b9050919050565b5f81602052637f5e9f20600c52825f526034600c2054905092915050565b5f611a2782612278565b9050919050565b5f80611a38611b99565b90505f816002015f9054906101000a900473ffffffffffffffffffffffffffffffffffffffff1690505f73ffffffffffffffffffffffffffffffffffffffff168173ffffffffffffffffffffffffffffffffffffffff1603611a9e575f92505050611b1b565b8073ffffffffffffffffffffffffffffffffffffffff1663fe575a87856040518263ffffffff1660e01b8152600401611ad7919061335f565b602060405180830381865afa158015611af2573d5f803e3d5ffd5b505050506040513d601f19601f82011682018060405250810190611b169190613b3c565b925050505b919050565b5f7f7965db0b000000000000000000000000000000000000000000000000000000007bffffffffffffffffffffffffffffffffffffffffffffffffffffffff1916827bffffffffffffffffffffffffffffffffffffffffffffffffffffffff19161480611b925750611b91826124b1565b5b9050919050565b5f7f7315beb2381679795e06870021c0fca5deb85616e29e098c2e7b7e488f185800905090565b611bd181611bcc612291565b61251a565b50565b611bde5f8061256b565b565b5f6805345cdf77eb68f44c54905090565b81602052637f5e9f20600c52825f526034600c2080546001810115611c2b5780831115611c25576313be252b5f526004601cfd5b82810382555b5050505050565b611c3d83838361266f565b5f611c47826119b9565b90508360601b6387a211a28117600c526020600c20805480841115611c735763f4d678b85f526004601cfd5b8381038255855f526020600c2084815401815585602052600c5160601c8460601c7fddf252ad1be2c89b69c2b068fc378daa952ba7f163c4a11628f55a4df523b3ef602080a350505050611cc8848484612743565b50505050565b5f7f02dd7bc7dec4dceedda775e58dd541e08a116c6c53815c0bd028192f7b626800905090565b611cfe82610a6c565b611d0781611bc0565b611d118383612748565b50505050565b5f90565b5f7feef3dac4538c82c8ace4063ab0acd2d15cdb5883aa1dff7c2673abb3d8698400905090565b5f808265ffffffffffff1614159050919050565b5f428265ffffffffffff16109050919050565b611d71612291565b73ffffffffffffffffffffffffffffffffffffffff168173ffffffffffffffffffffffffffffffffffffffff1614611dd5576040517f6697b23200000000000000000000000000000000000000000000000000000000815260040160405180910390fd5b611ddf828261281f565b505050565b611def5f838361266f565b5f611df8611be0565b90505f611e0482610dcc565b90505f838201905081811015611e46576040517fe5cfe95700000000000000000000000000000000000000000000000000000000815260040160405180910390fd5b611e8481670de0b6b3a76400006fffffffffffffffffffffffffffffffff16611e6d61129e565b6fffffffffffffffffffffffffffffffff166128ad565b15611ebb576040517fe5cfe95700000000000000000000000000000000000000000000000000000000815260040160405180910390fd5b5f611ec5856119b9565b90505f8185019050806805345cdf77eb68f44c556387a211a2600c52865f526020600c2082815401815586602052600c5160601c5f7fddf252ad1be2c89b69c2b068fc378daa952ba7f163c4a11628f55a4df523b3ef602080a350611f2b5f8888612743565b50505050505050565b611f3f825f8361266f565b5f611f49826119b9565b90506387a211a2600c52825f526020600c20805480831115611f725763f4d678b85f526004601cfd5b8281038255826805345cdf77eb68f44c54036805345cdf77eb68f44c55835f525f8560601b60601c7fddf252ad1be2c89b69c2b068fc378daa952ba7f163c4a11628f55a4df523b3ef60205fa35050611fcc835f84612743565b505050565b5f805f80198486098486029250828110838203039150505f810361201157670de0b6b3a7640000828161200757612006613b67565b5b04925050506120b0565b670de0b6b3a7640000811061205f5784846040517f5173648d000000000000000000000000000000000000000000000000000000008152600401612056929190613b94565b60405180910390fd5b5f670de0b6b3a764000085870990507faccb18165bd6fe31ae1cf318dc5b51eee0e1ba569b88cd74c1773b91fac10669600162040000805f0304018483118403026204000083860304170293505050505b92915050565b5f7ff0c57e16840df040f15088dc2f81fe391c3923bec73e23a9662efc9c229c6a00905090565b6120e56128d3565b5f6120ee611d1b565b90505f73ffffffffffffffffffffffffffffffffffffffff168273ffffffffffffffffffffffffffffffffffffffff1603612160575f6040517fc22c8022000000000000000000000000000000000000000000000000000000008152600401612157919061335f565b60405180910390fd5b82815f01601a6101000a81548165ffffffffffff021916908365ffffffffffff1602179055506121925f801b83612748565b50505050565b5f6121a16114c2565b6121aa42612913565b6121b49190613be8565b90506121c0828261296c565b8173ffffffffffffffffffffffffffffffffffffffff167f3377dc44241e779dd06afab5b788a35ca5f3b778836e2990bdb26a2a4b2e5ed6826040516122069190612d93565b60405180910390a25050565b5f61221c82612a2b565b61222542612913565b61222f9190613be8565b905061223b828261256b565b7ff1038c18cf84a56e432fdbfaf746924b7ea511dfe03a6506a0ceba4888788d9b828260405161226c929190613378565b60405180910390a15050565b5f6387a211a2600c52815f526020600c20549050919050565b5f33905090565b5f6122a1611d1b565b90505f806122ad6115d5565b915091506122ba81611d42565b15806122cc57506122ca81611d56565b155b1561230e57806040517f19ca5ebb0000000000000000000000000000000000000000000000000000000081526004016123059190612d93565b60405180910390fd5b6123215f801b61231c6110d7565b61281f565b5061232e5f801b83612748565b50825f015f6101000a81549073ffffffffffffffffffffffffffffffffffffffff0219169055825f0160146101000a81549065ffffffffffff0219169055505050565b61237a82610a6c565b61238381611bc0565b61238d838361281f565b50505050565b5f805f80198587098587029250828110838203039150505f81036123cb578382816123c1576123c0613b67565b5b049250505061249e565b838110612413578585856040517f63a0577800000000000000000000000000000000000000000000000000000000815260040161240a93929190613c21565b60405180910390fd5b5f8486880990508281118203915080830392505f6001861901861690505f81870496508185049450600182835f0304019050808402851794505f60028860030218905080880260020381029050808802600203810290508088026002038102905080880260020381029050808802600203810290508088026002038102905080860296505050505050505b9392505050565b6124af5f8061296c565b565b5f7f01ffc9a7000000000000000000000000000000000000000000000000000000007bffffffffffffffffffffffffffffffffffffffffffffffffffffffff1916827bffffffffffffffffffffffffffffffffffffffffffffffffffffffff1916149050919050565b612524828261111b565b6125675780826040517fe2517d3f00000000000000000000000000000000000000000000000000000000815260040161255e929190613c56565b60405180910390fd5b5050565b5f612574611d1b565b90505f81600101601a9054906101000a900465ffffffffffff16905061259981611d42565b1561261b576125a781611d56565b156125ed578160010160149054906101000a900465ffffffffffff16825f01601a6101000a81548165ffffffffffff021916908365ffffffffffff16021790555061261a565b7f2b1fa2edafe6f7b9e97c1a9e0c3660e645beb2dcaa2d45bdbf9beaf5472e1ec560405160405180910390a15b5b838260010160146101000a81548165ffffffffffff021916908365ffffffffffff1602179055508282600101601a6101000a81548165ffffffffffff021916908365ffffffffffff16021790555050505050565b5f612678611b99565b90505f816002015f9054906101000a900473ffffffffffffffffffffffffffffffffffffffff1690505f73ffffffffffffffffffffffffffffffffffffffff168173ffffffffffffffffffffffffffffffffffffffff161461273c578073ffffffffffffffffffffffffffffffffffffffff166353c033c286866040518363ffffffff1660e01b815260040161270f929190613c7d565b5f6040518083038186803b158015612725575f80fd5b505afa158015612737573d5f803e3d5ffd5b505050505b5050505050565b505050565b5f80612752611d1b565b90505f801b840361280c575f73ffffffffffffffffffffffffffffffffffffffff1661277c6110d7565b73ffffffffffffffffffffffffffffffffffffffff16146127c9576040517f3fc3c27a00000000000000000000000000000000000000000000000000000000815260040160405180910390fd5b82816001015f6101000a81548173ffffffffffffffffffffffffffffffffffffffff021916908373ffffffffffffffffffffffffffffffffffffffff1602179055505b6128168484612a89565b91505092915050565b5f80612829611d1b565b90505f801b8414801561286e575061283f6110d7565b73ffffffffffffffffffffffffffffffffffffffff168373ffffffffffffffffffffffffffffffffffffffff16145b1561289a57806001015f6101000a81549073ffffffffffffffffffffffffffffffffffffffff02191690555b6128a48484612b81565b91505092915050565b5f805f801985870985870292508281108382030391505083811015925050509392505050565b6128db612c79565b612911576040517fd7e6bcf800000000000000000000000000000000000000000000000000000000815260040160405180910390fd5b565b5f65ffffffffffff8016821115612964576030826040517f6dfcc65000000000000000000000000000000000000000000000000000000000815260040161295b929190613cdd565b60405180910390fd5b819050919050565b5f612975611d1b565b90505f6129806115d5565b91505083825f015f6101000a81548173ffffffffffffffffffffffffffffffffffffffff021916908373ffffffffffffffffffffffffffffffffffffffff16021790555082825f0160146101000a81548165ffffffffffff021916908365ffffffffffff1602179055506129f381611d42565b15612a25577f8886ebfc4259abdbc16601dd8fb5678e54878f47b3c34836cfc51154a960510960405160405180910390a15b50505050565b5f80612a356114c2565b90508065ffffffffffff168365ffffffffffff1611612a5f578281612a5a9190613d04565b612a81565b612a808365ffffffffffff16612a73610926565b65ffffffffffff16612c97565b5b915050919050565b5f80612a93611cce565b9050612a9f848461111b565b612b76576001815f015f8681526020019081526020015f205f015f8573ffffffffffffffffffffffffffffffffffffffff1673ffffffffffffffffffffffffffffffffffffffff1681526020019081526020015f205f6101000a81548160ff021916908315150217905550612b12612291565b73ffffffffffffffffffffffffffffffffffffffff168373ffffffffffffffffffffffffffffffffffffffff16857f2f8788117e7eff1d82e926ec794901d17c78024a50270940304540a733656f0d60405160405180910390a46001915050612b7b565b5f9150505b92915050565b5f80612b8b611cce565b9050612b97848461111b565b15612c6e575f815f015f8681526020019081526020015f205f015f8573ffffffffffffffffffffffffffffffffffffffff1673ffffffffffffffffffffffffffffffffffffffff1681526020019081526020015f205f6101000a81548160ff021916908315150217905550612c0a612291565b73ffffffffffffffffffffffffffffffffffffffff168373ffffffffffffffffffffffffffffffffffffffff16857ff6391f5c32d9c69d2a47ea670b442974b53935d1edc7fd64eb21e047a839171b60405160405180910390a46001915050612c73565b5f9150505b92915050565b5f612c826120b6565b5f0160089054906101000a900460ff16905090565b5f818310612ca55781612ca7565b825b905092915050565b5f604051905090565b5f80fd5b5f80fd5b5f7fffffffff0000000000000000000000000000000000000000000000000000000082169050919050565b612cf481612cc0565b8114612cfe575f80fd5b50565b5f81359050612d0f81612ceb565b92915050565b5f60208284031215612d2a57612d29612cb8565b5b5f612d3784828501612d01565b91505092915050565b5f8115159050919050565b612d5481612d40565b82525050565b5f602082019050612d6d5f830184612d4b565b92915050565b5f65ffffffffffff82169050919050565b612d8d81612d73565b82525050565b5f602082019050612da65f830184612d84565b92915050565b5f81519050919050565b5f82825260208201905092915050565b8281835e5f83830152505050565b5f601f19601f8301169050919050565b5f612dee82612dac565b612df88185612db6565b9350612e08818560208601612dc6565b612e1181612dd4565b840191505092915050565b5f6020820190508181035f830152612e348184612de4565b905092915050565b5f73ffffffffffffffffffffffffffffffffffffffff82169050919050565b5f612e6582612e3c565b9050919050565b612e7581612e5b565b8114612e7f575f80fd5b50565b5f81359050612e9081612e6c565b92915050565b5f819050919050565b612ea881612e96565b8114612eb2575f80fd5b50565b5f81359050612ec381612e9f565b92915050565b5f8060408385031215612edf57612ede612cb8565b5b5f612eec85828601612e82565b9250506020612efd85828601612eb5565b9150509250929050565b612f1081612e96565b82525050565b5f602082019050612f295f830184612f07565b92915050565b5f805f60608486031215612f4657612f45612cb8565b5b5f612f5386828701612e82565b9350506020612f6486828701612e82565b9250506040612f7586828701612eb5565b9150509250925092565b5f819050919050565b612f9181612f7f565b8114612f9b575f80fd5b50565b5f81359050612fac81612f88565b92915050565b5f60208284031215612fc757612fc6612cb8565b5b5f612fd484828501612f9e565b91505092915050565b612fe681612f7f565b82525050565b5f602082019050612fff5f830184612fdd565b92915050565b5f806040838503121561301b5761301a612cb8565b5b5f61302885828601612f9e565b925050602061303985828601612e82565b9150509250929050565b5f60ff82169050919050565b61305881613043565b82525050565b5f6020820190506130715f83018461304f565b92915050565b5f6020828403121561308c5761308b612cb8565b5b5f61309984828501612eb5565b91505092915050565b5f6130ac82612e5b565b9050919050565b6130bc816130a2565b81146130c6575f80fd5b50565b5f813590506130d7816130b3565b92915050565b5f602082840312156130f2576130f1612cb8565b5b5f6130ff848285016130c9565b91505092915050565b5f80fd5b5f80fd5b7f4e487b71000000000000000000000000000000000000000000000000000000005f52604160045260245ffd5b61314682612dd4565b810181811067ffffffffffffffff8211171561316557613164613110565b5b80604052505050565b5f613177612caf565b9050613183828261313d565b919050565b5f67ffffffffffffffff8211156131a2576131a1613110565b5b6131ab82612dd4565b9050602081019050919050565b828183375f83830152505050565b5f6131d86131d384613188565b61316e565b9050828152602081018484840111156131f4576131f361310c565b5b6131ff8482856131b8565b509392505050565b5f82601f83011261321b5761321a613108565b5b813561322b8482602086016131c6565b91505092915050565b5f805f806080858703121561324c5761324b612cb8565b5b5f61325987828801612e82565b945050602085013567ffffffffffffffff81111561327a57613279612cbc565b5b61328687828801613207565b935050604085013567ffffffffffffffff8111156132a7576132a6612cbc565b5b6132b387828801613207565b92505060606132c4878288016130c9565b91505092959194509250565b5f602082840312156132e5576132e4612cb8565b5b5f6132f284828501612e82565b91505092915050565b61330481612d73565b811461330e575f80fd5b50565b5f8135905061331f816132fb565b92915050565b5f6020828403121561333a57613339612cb8565b5b5f61334784828501613311565b91505092915050565b61335981612e5b565b82525050565b5f6020820190506133725f830184613350565b92915050565b5f60408201905061338b5f830185612d84565b6133986020830184612d84565b9392505050565b5f6fffffffffffffffffffffffffffffffff82169050919050565b6133c38161339f565b82525050565b5f6020820190506133dc5f8301846133ba565b92915050565b6133eb8161339f565b81146133f5575f80fd5b50565b5f81359050613406816133e2565b92915050565b5f6020828403121561342157613420612cb8565b5b5f61342e848285016133f8565b91505092915050565b5f80fd5b5f80fd5b5f8083601f84011261345457613453613108565b5b8235905067ffffffffffffffff81111561347157613470613437565b5b60208301915083600182028301111561348d5761348c61343b565b5b9250929050565b5f80602083850312156134aa576134a9612cb8565b5b5f83013567ffffffffffffffff8111156134c7576134c6612cbc565b5b6134d38582860161343f565b92509250509250929050565b5f6040820190506134f25f830185613350565b6134ff6020830184612d84565b9392505050565b5f819050919050565b5f61352961352461351f84612e3c565b613506565b612e3c565b9050919050565b5f61353a8261350f565b9050919050565b5f61354b82613530565b9050919050565b61355b81613541565b82525050565b5f6020820190506135745f830184613552565b92915050565b61358381613043565b811461358d575f80fd5b50565b5f8135905061359e8161357a565b92915050565b5f805f805f805f60e0888a0312156135bf576135be612cb8565b5b5f6135cc8a828b01612e82565b97505060206135dd8a828b01612e82565b96505060406135ee8a828b01612eb5565b95505060606135ff8a828b01612eb5565b94505060806136108a828b01613590565b93505060a06136218a828b01612f9e565b92505060c06136328a828b01612f9e565b91505092959891949750929550565b5f806040838503121561365757613656612cb8565b5b5f61366485828601612e82565b925050602061367585828601612e82565b9150509250929050565b7f4e487b71000000000000000000000000000000000000000000000000000000005f52602260045260245ffd5b5f60028204905060018216806136c357607f821691505b6020821081036136d6576136d561367f565b5b50919050565b5f819050815f5260205f209050919050565b5f6020601f8301049050919050565b5f82821b905092915050565b5f600883026137387fffffffffffffffffffffffffffffffffffffffffffffffffffffffffffffffff826136fd565b61374286836136fd565b95508019841693508086168417925050509392505050565b5f61377461376f61376a84612e96565b613506565b612e96565b9050919050565b5f819050919050565b61378d8361375a565b6137a16137998261377b565b848454613709565b825550505050565b5f90565b6137b56137a9565b6137c0818484613784565b505050565b5b818110156137e3576137d85f826137ad565b6001810190506137c6565b5050565b601f821115613828576137f9816136dc565b613802846136ee565b81016020851015613811578190505b61382561381d856136ee565b8301826137c5565b50505b505050565b5f82821c905092915050565b5f6138485f198460080261382d565b1980831691505092915050565b5f6138608383613839565b9150826002028217905092915050565b61387982612dac565b67ffffffffffffffff81111561389257613891613110565b5b61389c82546136ac565b6138a78282856137e7565b5f60209050601f8311600181146138d8575f84156138c6578287015190505b6138d08582613855565b865550613937565b601f1984166138e6866136dc565b5f5b8281101561390d578489015182556001820191506020850194506020810190506138e8565b8683101561392a5784890151613926601f891682613839565b8355505b6001600288020188555050505b505050505050565b5f819050919050565b5f67ffffffffffffffff82169050919050565b5f61397561397061396b8461393f565b613506565b613948565b9050919050565b6139858161395b565b82525050565b5f60208201905061399e5f83018461397c565b92915050565b5f6139be6139b96139b48461339f565b613506565b612e96565b9050919050565b6139ce816139a4565b82525050565b5f6020820190506139e75f8301846139c5565b92915050565b5f82905092915050565b613a0183836139ed565b67ffffffffffffffff811115613a1a57613a19613110565b5b613a2482546136ac565b613a2f8282856137e7565b5f601f831160018114613a5c575f8415613a4a578287013590505b613a548582613855565b865550613abb565b601f198416613a6a866136dc565b5f5b82811015613a9157848901358255600182019150602085019450602081019050613a6c565b86831015613aae5784890135613aaa601f891682613839565b8355505b6001600288020188555050505b50505050505050565b5f613acf8385612db6565b9350613adc8385846131b8565b613ae583612dd4565b840190509392505050565b5f6020820190508181035f830152613b09818486613ac4565b90509392505050565b613b1b81612d40565b8114613b25575f80fd5b50565b5f81519050613b3681613b12565b92915050565b5f60208284031215613b5157613b50612cb8565b5b5f613b5e84828501613b28565b91505092915050565b7f4e487b71000000000000000000000000000000000000000000000000000000005f52601260045260245ffd5b5f604082019050613ba75f830185612f07565b613bb46020830184612f07565b9392505050565b7f4e487b71000000000000000000000000000000000000000000000000000000005f52601160045260245ffd5b5f613bf282612d73565b9150613bfd83612d73565b9250828201905065ffffffffffff811115613c1b57613c1a613bbb565b5b92915050565b5f606082019050613c345f830186612f07565b613c416020830185612f07565b613c4e6040830184612f07565b949350505050565b5f604082019050613c695f830185613350565b613c766020830184612fdd565b9392505050565b5f604082019050613c905f830185613350565b613c9d6020830184613350565b9392505050565b5f819050919050565b5f613cc7613cc2613cbd84613ca4565b613506565b613043565b9050919050565b613cd781613cad565b82525050565b5f604082019050613cf05f830185613cce565b613cfd6020830184612f07565b9392505050565b5f613d0e82612d73565b9150613d1983612d73565b9250828203905065ffffffffffff811115613d3757613d36613bbb565b5b9291505056fea26469706673582212202303122112d077b0182d8f790b2d933cee5949928fa383c3bdccfd0562bbebc764736f6c63430008190033","linkReferences":{}},"methodIdentifiers":{"BURNER_ROLE()":"282c51f3","DEFAULT_ADMIN_ROLE()":"a217fddf","DOMAIN_SEPARATOR()":"3644e515","MINTER_ROLE()":"d5391393","acceptDefaultAdminTransfer()":"cefc1429","allowance(address,address)":"dd62ed3e","approve(address,uint256)":"095ea7b3","balanceOf(address)":"70a08231","balancePerShare()":"a781a3fd","balanceToShares(uint256)":"d8ddf18f","beginDefaultAdminTransfer(address)":"634e93da","burn(uint256)":"42966c68","burnFrom(address,uint256)":"79cc6790","cancelDefaultAdminTransfer()":"d602b9fd","changeDefaultAdminDelay(uint48)":"649a5ec7","decimals()":"313ce567","defaultAdmin()":"84ef8ffc","defaultAdminDelay()":"cc8463c8","defaultAdminDelayIncreaseWait()":"022d63fb","getRoleAdmin(bytes32)":"248a9ca3","grantRole(bytes32,address)":"2f2ff15d","hasRole(bytes32,address)":"91d14854","initialize(address,string,string,address)":"613d25bb","isBlacklisted(address)":"fe575a87","maxSupply()":"d5abeb01","mint(address,uint256)":"40c10f19","name()":"06fdde03","nonces(address)":"7ecebe00","owner()":"8da5cb5b","pendingDefaultAdmin()":"cf6eefb7","pendingDefaultAdminDelay()":"a1eda53c","permit(address,address,uint256,uint256,uint8,bytes32,bytes32)":"d505accf","renounceRole(bytes32,address)":"36568abe","revokeRole(bytes32,address)":"d547741f","rollbackDefaultAdminDelay()":"0aa6220b","setBalancePerShare(uint128)":"a850e024","setName(string)":"c47f0027","setSymbol(string)":"b84c8246","setTransferRestrictor(address)":"4904ac8f","sharesOf(address)":"f5eb42dc","sharesToBalance(uint256)":"53735f37","supportsInterface(bytes4)":"01ffc9a7","symbol()":"95d89b41","totalSupply()":"18160ddd","transfer(address,uint256)":"a9059cbb","transferFrom(address,address,uint256)":"23b872dd","transferRestrictor()":"d4ec137a"},"id":4}