{"abi":[{"type":"constructor","inputs":[{"name":"owner","type":"address","internalType":"address"}],"stateMutability":"nonpayable"},{"type":"function","name":"DEFAULT_ADMIN_ROLE","inputs":[],"outputs":[{"name":"","type":"bytes32","internalType":"bytes32"}],"stateMutability":"view"},{"type":"function","name":"DISTRIBUTOR_ROLE","inputs":[],"outputs":[{"name":"","type":"bytes32","internalType":"bytes32"}],"stateMutability":"view"},{"type":"function","name":"acceptDefaultAdminTransfer","inputs":[],"outputs":[],"stateMutability":"nonpayable"},{"type":"function","name":"beginDefaultAdminTransfer","inputs":[{"name":"newAdmin","type":"address","internalType":"address"}],"outputs":[],"stateMutability":"nonpayable"},{"type":"function","name":"cancelDefaultAdminTransfer","inputs":[],"outputs":[],"stateMutability":"nonpayable"},{"type":"function","name":"changeDefaultAdminDelay","inputs":[{"name":"newDelay","type":"uint48","internalType":"uint48"}],"outputs":[],"stateMutability":"nonpayable"},{"type":"function","name":"createDistribution","inputs":[{"name":"token","type":"address","internalType":"address"},{"name":"totalDistribution","type":"uint256","internalType":"uint256"},{"name":"endTime","type":"uint256","internalType":"uint256"}],"outputs":[{"name":"distributionId","type":"uint256","internalType":"uint256"}],"stateMutability":"nonpayable"},{"type":"function","name":"defaultAdmin","inputs":[],"outputs":[{"name":"","type":"address","internalType":"address"}],"stateMutability":"view"},{"type":"function","name":"defaultAdminDelay","inputs":[],"outputs":[{"name":"","type":"uint48","internalType":"uint48"}],"stateMutability":"view"},{"type":"function","name":"defaultAdminDelayIncreaseWait","inputs":[],"outputs":[{"name":"","type":"uint48","internalType":"uint48"}],"stateMutability":"view"},{"type":"function","name":"distribute","inputs":[{"name":"_distributionId","type":"uint256","internalType":"uint256"},{"name":"_recipient","type":"address","internalType":"address"},{"name":"_amount","type":"uint256","internalType":"uint256"}],"outputs":[],"stateMutability":"nonpayable"},{"type":"function","name":"distributions","inputs":[{"name":"","type":"uint256","internalType":"uint256"}],"outputs":[{"name":"token","type":"address","internalType":"address"},{"name":"remainingDistribution","type":"uint256","internalType":"uint256"},{"name":"endTime","type":"uint256","internalType":"uint256"}],"stateMutability":"view"},{"type":"function","name":"getRoleAdmin","inputs":[{"name":"role","type":"bytes32","internalType":"bytes32"}],"outputs":[{"name":"","type":"bytes32","internalType":"bytes32"}],"stateMutability":"view"},{"type":"function","name":"grantRole","inputs":[{"name":"role","type":"bytes32","internalType":"bytes32"},{"name":"account","type":"address","internalType":"address"}],"outputs":[],"stateMutability":"nonpayable"},{"type":"function","name":"hasRole","inputs":[{"name":"role","type":"bytes32","internalType":"bytes32"},{"name":"account","type":"address","internalType":"address"}],"outputs":[{"name":"","type":"bool","internalType":"bool"}],"stateMutability":"view"},{"type":"function","name":"minDistributionTime","inputs":[],"outputs":[{"name":"","type":"uint64","internalType":"uint64"}],"stateMutability":"view"},{"type":"function","name":"nextDistributionId","inputs":[],"outputs":[{"name":"","type":"uint256","internalType":"uint256"}],"stateMutability":"view"},{"type":"function","name":"owner","inputs":[],"outputs":[{"name":"","type":"address","internalType":"address"}],"stateMutability":"view"},{"type":"function","name":"pendingDefaultAdmin","inputs":[],"outputs":[{"name":"newAdmin","type":"address","internalType":"address"},{"name":"schedule","type":"uint48","internalType":"uint48"}],"stateMutability":"view"},{"type":"function","name":"pendingDefaultAdminDelay","inputs":[],"outputs":[{"name":"newDelay","type":"uint48","internalType":"uint48"},{"name":"schedule","type":"uint48","internalType":"uint48"}],"stateMutability":"view"},{"type":"function","name":"reclaimDistribution","inputs":[{"name":"_distributionId","type":"uint256","internalType":"uint256"}],"outputs":[],"stateMutability":"nonpayable"},{"type":"function","name":"renounceRole","inputs":[{"name":"role","type":"bytes32","internalType":"bytes32"},{"name":"account","type":"address","internalType":"address"}],"outputs":[],"stateMutability":"nonpayable"},{"type":"function","name":"revokeRole","inputs":[{"name":"role","type":"bytes32","internalType":"bytes32"},{"name":"account","type":"address","internalType":"address"}],"outputs":[],"stateMutability":"nonpayable"},{"type":"function","name":"rollbackDefaultAdminDelay","inputs":[],"outputs":[],"stateMutability":"nonpayable"},{"type":"function","name":"setMinDistributionTime","inputs":[{"name":"_minDistributionTime","type":"uint64","internalType":"uint64"}],"outputs":[],"stateMutability":"nonpayable"},{"type":"function","name":"supportsInterface","inputs":[{"name":"interfaceId","type":"bytes4","internalType":"bytes4"}],"outputs":[{"name":"","type":"bool","internalType":"bool"}],"stateMutability":"view"},{"type":"event","name":"DefaultAdminDelayChangeCanceled","inputs":[],"anonymous":false},{"type":"event","name":"DefaultAdminDelayChangeScheduled","inputs":[{"name":"newDelay","type":"uint48","indexed":false,"internalType":"uint48"},{"name":"effectSchedule","type":"uint48","indexed":false,"internalType":"uint48"}],"anonymous":false},{"type":"event","name":"DefaultAdminTransferCanceled","inputs":[],"anonymous":false},{"type":"event","name":"DefaultAdminTransferScheduled","inputs":[{"name":"newAdmin","type":"address","indexed":true,"internalType":"address"},{"name":"acceptSchedule","type":"uint48","indexed":false,"internalType":"uint48"}],"anonymous":false},{"type":"event","name":"Distributed","inputs":[{"name":"distributionId","type":"uint256","indexed":true,"internalType":"uint256"},{"name":"account","type":"address","indexed":true,"internalType":"address"},{"name":"amount","type":"uint256","indexed":false,"internalType":"uint256"}],"anonymous":false},{"type":"event","name":"DistributionReclaimed","inputs":[{"name":"distributionId","type":"uint256","indexed":true,"internalType":"uint256"},{"name":"totalReclaimed","type":"uint256","indexed":false,"internalType":"uint256"}],"anonymous":false},{"type":"event","name":"MinDistributionTimeSet","inputs":[{"name":"minDistributionTime","type":"uint64","indexed":false,"internalType":"uint64"}],"anonymous":false},{"type":"event","name":"NewDistributionCreated","inputs":[{"name":"distributionId","type":"uint256","indexed":true,"internalType":"uint256"},{"name":"totalDistribution","type":"uint256","indexed":false,"internalType":"uint256"},{"name":"startDate","type":"uint256","indexed":false,"internalType":"uint256"},{"name":"endDate","type":"uint256","indexed":false,"internalType":"uint256"}],"anonymous":false},{"type":"event","name":"RoleAdminChanged","inputs":[{"name":"role","type":"bytes32","indexed":true,"internalType":"bytes32"},{"name":"previousAdminRole","type":"bytes32","indexed":true,"internalType":"bytes32"},{"name":"newAdminRole","type":"bytes32","indexed":true,"internalType":"bytes32"}],"anonymous":false},{"type":"event","name":"RoleGranted","inputs":[{"name":"role","type":"bytes32","indexed":true,"internalType":"bytes32"},{"name":"account","type":"address","indexed":true,"internalType":"address"},{"name":"sender","type":"address","indexed":true,"internalType":"address"}],"anonymous":false},{"type":"event","name":"RoleRevoked","inputs":[{"name":"role","type":"bytes32","indexed":true,"internalType":"bytes32"},{"name":"account","type":"address","indexed":true,"internalType":"address"},{"name":"sender","type":"address","indexed":true,"internalType":"address"}],"anonymous":false},{"type":"error","name":"AccessControlBadConfirmation","inputs":[]},{"type":"error","name":"AccessControlEnforcedDefaultAdminDelay","inputs":[{"name":"schedule","type":"uint48","internalType":"uint48"}]},{"type":"error","name":"AccessControlEnforcedDefaultAdminRules","inputs":[]},{"type":"error","name":"AccessControlInvalidDefaultAdmin","inputs":[{"name":"defaultAdmin","type":"address","internalType":"address"}]},{"type":"error","name":"AccessControlUnauthorizedAccount","inputs":[{"name":"account","type":"address","internalType":"address"},{"name":"neededRole","type":"bytes32","internalType":"bytes32"}]},{"type":"error","name":"AddressEmptyCode","inputs":[{"name":"target","type":"address","internalType":"address"}]},{"type":"error","name":"AddressInsufficientBalance","inputs":[{"name":"account","type":"address","internalType":"address"}]},{"type":"error","name":"DistributionEnded","inputs":[]},{"type":"error","name":"DistributionRunning","inputs":[]},{"type":"error","name":"EndTimeBeforeMin","inputs":[]},{"type":"error","name":"FailedInnerCall","inputs":[]},{"type":"error","name":"NotReclaimable","inputs":[]},{"type":"error","name":"SafeCastOverflowedUintDowncast","inputs":[{"name":"bits","type":"uint8","internalType":"uint8"},{"name":"value","type":"uint256","internalType":"uint256"}]},{"type":"error","name":"SafeERC20FailedOperation","inputs":[{"name":"token","type":"address","internalType":"address"}]}],"bytecode":{"object":"0x608060405262015180600560006101000a81548167ffffffffffffffff021916908367ffffffffffffffff16021790555034801561003c57600080fd5b506040516129aa3803806129aa833981810160405281019061005e91906103e9565b600081600073ffffffffffffffffffffffffffffffffffffffff168173ffffffffffffffffffffffffffffffffffffffff16036100d35760006040517fc22c80220000000000000000000000000000000000000000000000000000000081526004016100ca9190610425565b60405180910390fd5b816001601a6101000a81548165ffffffffffff021916908365ffffffffffff16021790555061010b6000801b8261011460201b60201c565b50505050610440565b60008060001b83036101d557600073ffffffffffffffffffffffffffffffffffffffff166101466101ed60201b60201c565b73ffffffffffffffffffffffffffffffffffffffff1614610193576040517f3fc3c27a00000000000000000000000000000000000000000000000000000000815260040160405180910390fd5b81600260006101000a81548173ffffffffffffffffffffffffffffffffffffffff021916908373ffffffffffffffffffffffffffffffffffffffff1602179055505b6101e5838361021760201b60201c565b905092915050565b6000600260009054906101000a900473ffffffffffffffffffffffffffffffffffffffff16905090565b6000610229838361031460201b60201c565b61030957600160008085815260200190815260200160002060000160008473ffffffffffffffffffffffffffffffffffffffff1673ffffffffffffffffffffffffffffffffffffffff16815260200190815260200160002060006101000a81548160ff0219169083151502179055506102a661037e60201b60201c565b73ffffffffffffffffffffffffffffffffffffffff168273ffffffffffffffffffffffffffffffffffffffff16847f2f8788117e7eff1d82e926ec794901d17c78024a50270940304540a733656f0d60405160405180910390a46001905061030e565b600090505b92915050565b600080600084815260200190815260200160002060000160008373ffffffffffffffffffffffffffffffffffffffff1673ffffffffffffffffffffffffffffffffffffffff16815260200190815260200160002060009054906101000a900460ff16905092915050565b600033905090565b600080fd5b600073ffffffffffffffffffffffffffffffffffffffff82169050919050565b60006103b68261038b565b9050919050565b6103c6816103ab565b81146103d157600080fd5b50565b6000815190506103e3816103bd565b92915050565b6000602082840312156103ff576103fe610386565b5b600061040d848285016103d4565b91505092915050565b61041f816103ab565b82525050565b600060208201905061043a6000830184610416565b92915050565b61255b8061044f6000396000f3fe608060405234801561001057600080fd5b506004361061018e5760003560e01c8063795be4b9116100de578063a217fddf11610097578063cf6eefb711610071578063cf6eefb71461044e578063d547741f1461046d578063d602b9fd14610489578063f0bd87cc146104935761018e565b8063a217fddf14610408578063cc8463c814610426578063cefc1429146104445761018e565b8063795be4b91461034357806384ef8ffc1461036157806389217e6f1461037f5780638da5cb5b1461039b57806391d14854146103b9578063a1eda53c146103e95761018e565b806335f86a361161014b578063477f655511610125578063477f6555146102d3578063634e93da146102ef578063649a5ec71461030b578063775520a4146103275761018e565b806335f86a361461025557806336568abe146102855780634487d3df146102a15761018e565b806301ffc9a714610193578063022d63fb146101c35780630aa6220b146101e15780631d367032146101eb578063248a9ca3146102095780632f2ff15d14610239575b600080fd5b6101ad60048036038101906101a89190611ce9565b6104b1565b6040516101ba9190611d31565b60405180910390f35b6101cb61052b565b6040516101d89190611d6d565b60405180910390f35b6101e9610536565b005b6101f361054e565b6040516102009190611dab565b60405180910390f35b610223600480360381019061021e9190611dfc565b610568565b6040516102309190611e38565b60405180910390f35b610253600480360381019061024e9190611eb1565b610587565b005b61026f600480360381019061026a9190611f27565b6105d1565b60405161027c9190611f89565b60405180910390f35b61029f600480360381019061029a9190611eb1565b61078d565b005b6102bb60048036038101906102b69190611fa4565b6108a2565b6040516102ca93929190611fe0565b60405180910390f35b6102ed60048036038101906102e89190612043565b6108ec565b005b61030960048036038101906103049190612070565b61095d565b005b610325600480360381019061032091906120c9565b610977565b005b610341600480360381019061033c91906120f6565b610991565b005b61034b610aee565b6040516103589190611f89565b60405180910390f35b610369610af4565b6040516103769190612149565b60405180910390f35b61039960048036038101906103949190611fa4565b610b1e565b005b6103a3610ce4565b6040516103b09190612149565b60405180910390f35b6103d360048036038101906103ce9190611eb1565b610cf3565b6040516103e09190611d31565b60405180910390f35b6103f1610d5d565b6040516103ff929190612164565b60405180910390f35b610410610dbd565b60405161041d9190611e38565b60405180910390f35b61042e610dc4565b60405161043b9190611d6d565b60405180910390f35b61044c610e32565b005b610456610ec8565b60405161046492919061218d565b60405180910390f35b61048760048036038101906104829190611eb1565b610f0b565b005b610491610f55565b005b61049b610f6d565b6040516104a89190611e38565b60405180910390f35b60007f31498786000000000000000000000000000000000000000000000000000000007bffffffffffffffffffffffffffffffffffffffffffffffffffffffff1916827bffffffffffffffffffffffffffffffffffffffffffffffffffffffff19161480610524575061052382610f91565b5b9050919050565b600062069780905090565b6000801b6105438161100b565b61054b61101f565b50565b600560009054906101000a900467ffffffffffffffff1681565b6000806000838152602001908152602001600020600101549050919050565b6000801b82036105c3576040517f3fc3c27a00000000000000000000000000000000000000000000000000000000815260040160405180910390fd5b6105cd828261102c565b5050565b60007ffbd454f36a7e1a388bd6fc3ab10d434aa4578f811acbbcf33afb1c697486313c6105fd8161100b565b600560009054906101000a900467ffffffffffffffff1667ffffffffffffffff164261062991906121e5565b8311610661576040517fb5cc6e0c00000000000000000000000000000000000000000000000000000000815260040160405180910390fd5b6004600081548092919061067490612219565b91905055915060405180606001604052808673ffffffffffffffffffffffffffffffffffffffff168152602001858152602001848152506003600084815260200190815260200160002060008201518160000160006101000a81548173ffffffffffffffffffffffffffffffffffffffff021916908373ffffffffffffffffffffffffffffffffffffffff1602179055506020820151816001015560408201518160020155905050817f10496c360af0bb8491b9e0540332d53535a9ffd302449e93f0f749385b4261bb85428660405161075093929190612261565b60405180910390a26107853330868873ffffffffffffffffffffffffffffffffffffffff1661104e909392919063ffffffff16565b509392505050565b6000801b821480156107d157506107a2610af4565b73ffffffffffffffffffffffffffffffffffffffff168173ffffffffffffffffffffffffffffffffffffffff16145b15610894576000806107e1610ec8565b91509150600073ffffffffffffffffffffffffffffffffffffffff168273ffffffffffffffffffffffffffffffffffffffff161415806108275750610825816110d0565b155b806108385750610836816110e5565b155b1561087a57806040517f19ca5ebb0000000000000000000000000000000000000000000000000000000081526004016108719190611d6d565b60405180910390fd5b600160146101000a81549065ffffffffffff021916905550505b61089e82826110f9565b5050565b60036020528060005260406000206000915090508060000160009054906101000a900473ffffffffffffffffffffffffffffffffffffffff16908060010154908060020154905083565b6000801b6108f98161100b565b81600560006101000a81548167ffffffffffffffff021916908367ffffffffffffffff1602179055507f414d7f9dac21592ba21279947bff9d47cd9e9f09a573dd27a09f47e51aca6036826040516109519190611dab565b60405180910390a15050565b6000801b61096a8161100b565b61097382611174565b5050565b6000801b6109848161100b565b61098d826111ef565b5050565b7ffbd454f36a7e1a388bd6fc3ab10d434aa4578f811acbbcf33afb1c697486313c6109bb8161100b565b6003600085815260200190815260200160002060020154421115610a0b576040517f9856227d00000000000000000000000000000000000000000000000000000000815260040160405180910390fd5b81600360008681526020019081526020016000206001016000828254610a319190612298565b925050819055508273ffffffffffffffffffffffffffffffffffffffff16847fa7932e9c92f31e1ed56b29d00bbe669a97484dc24de28dd9c8c0429df7f3584784604051610a7f9190611f89565b60405180910390a3610ae883836003600088815260200190815260200160002060000160009054906101000a900473ffffffffffffffffffffffffffffffffffffffff1673ffffffffffffffffffffffffffffffffffffffff166112569092919063ffffffff16565b50505050565b60045481565b6000600260009054906101000a900473ffffffffffffffffffffffffffffffffffffffff16905090565b7ffbd454f36a7e1a388bd6fc3ab10d434aa4578f811acbbcf33afb1c697486313c610b488161100b565b60006003600084815260200190815260200160002060020154905060008103610b9d576040517f2209347900000000000000000000000000000000000000000000000000000000815260040160405180910390fd5b80421015610bd7576040517f885ed36300000000000000000000000000000000000000000000000000000000815260040160405180910390fd5b60006003600085815260200190815260200160002060010154905060006003600086815260200190815260200160002060000160009054906101000a900473ffffffffffffffffffffffffffffffffffffffff16905060036000868152602001908152602001600020600080820160006101000a81549073ffffffffffffffffffffffffffffffffffffffff0219169055600182016000905560028201600090555050847ff6acdc7488f8ea3bb0494d61a518623d0044b132a007383e0bff5d175596cd4483604051610caa9190611f89565b60405180910390a2610cdd33838373ffffffffffffffffffffffffffffffffffffffff166112569092919063ffffffff16565b5050505050565b6000610cee610af4565b905090565b600080600084815260200190815260200160002060000160008373ffffffffffffffffffffffffffffffffffffffff1673ffffffffffffffffffffffffffffffffffffffff16815260200190815260200160002060009054906101000a900460ff16905092915050565b6000806002601a9054906101000a900465ffffffffffff169050610d80816110d0565b8015610d925750610d90816110e5565b155b610d9e57600080610db5565b600260149054906101000a900465ffffffffffff16815b915091509091565b6000801b81565b6000806002601a9054906101000a900465ffffffffffff169050610de7816110d0565b8015610df85750610df7816110e5565b5b610e16576001601a9054906101000a900465ffffffffffff16610e2c565b600260149054906101000a900465ffffffffffff165b91505090565b6000610e3c610ec8565b5090508073ffffffffffffffffffffffffffffffffffffffff16610e5e6112d5565b73ffffffffffffffffffffffffffffffffffffffff1614610ebd57610e816112d5565b6040517fc22c8022000000000000000000000000000000000000000000000000000000008152600401610eb49190612149565b60405180910390fd5b610ec56112dd565b50565b600080600160009054906101000a900473ffffffffffffffffffffffffffffffffffffffff16600160149054906101000a900465ffffffffffff16915091509091565b6000801b8203610f47576040517f3fc3c27a00000000000000000000000000000000000000000000000000000000815260040160405180910390fd5b610f5182826113ac565b5050565b6000801b610f628161100b565b610f6a6113ce565b50565b7ffbd454f36a7e1a388bd6fc3ab10d434aa4578f811acbbcf33afb1c697486313c81565b60007f7965db0b000000000000000000000000000000000000000000000000000000007bffffffffffffffffffffffffffffffffffffffffffffffffffffffff1916827bffffffffffffffffffffffffffffffffffffffffffffffffffffffff191614806110045750611003826113db565b5b9050919050565b61101c816110176112d5565b611445565b50565b61102a600080611496565b565b61103582610568565b61103e8161100b565b6110488383611586565b50505050565b6110ca848573ffffffffffffffffffffffffffffffffffffffff166323b872dd868686604051602401611083939291906122cc565b604051602081830303815290604052915060e01b6020820180517bffffffffffffffffffffffffffffffffffffffffffffffffffffffff8381831617835250505050611653565b50505050565b6000808265ffffffffffff1614159050919050565b6000428265ffffffffffff16109050919050565b6111016112d5565b73ffffffffffffffffffffffffffffffffffffffff168173ffffffffffffffffffffffffffffffffffffffff1614611165576040517f6697b23200000000000000000000000000000000000000000000000000000000815260040160405180910390fd5b61116f82826116ea565b505050565b600061117e610dc4565b6111874261176d565b6111919190612303565b905061119d82826117c7565b8173ffffffffffffffffffffffffffffffffffffffff167f3377dc44241e779dd06afab5b788a35ca5f3b778836e2990bdb26a2a4b2e5ed6826040516111e39190611d6d565b60405180910390a25050565b60006111fa8261187a565b6112034261176d565b61120d9190612303565b90506112198282611496565b7ff1038c18cf84a56e432fdbfaf746924b7ea511dfe03a6506a0ceba4888788d9b828260405161124a929190612164565b60405180910390a15050565b6112d0838473ffffffffffffffffffffffffffffffffffffffff1663a9059cbb858560405160240161128992919061233d565b604051602081830303815290604052915060e01b6020820180517bffffffffffffffffffffffffffffffffffffffffffffffffffffffff8381831617835250505050611653565b505050565b600033905090565b6000806112e8610ec8565b915091506112f5816110d0565b15806113075750611305816110e5565b155b1561134957806040517f19ca5ebb0000000000000000000000000000000000000000000000000000000081526004016113409190611d6d565b60405180910390fd5b61135d6000801b611358610af4565b6116ea565b5061136b6000801b83611586565b50600160006101000a81549073ffffffffffffffffffffffffffffffffffffffff0219169055600160146101000a81549065ffffffffffff02191690555050565b6113b582610568565b6113be8161100b565b6113c883836116ea565b50505050565b6113d96000806117c7565b565b60007f01ffc9a7000000000000000000000000000000000000000000000000000000007bffffffffffffffffffffffffffffffffffffffffffffffffffffffff1916827bffffffffffffffffffffffffffffffffffffffffffffffffffffffff1916149050919050565b61144f8282610cf3565b6114925780826040517fe2517d3f000000000000000000000000000000000000000000000000000000008152600401611489929190612366565b60405180910390fd5b5050565b60006002601a9054906101000a900465ffffffffffff1690506114b8816110d0565b15611537576114c6816110e5565b1561150957600260149054906101000a900465ffffffffffff166001601a6101000a81548165ffffffffffff021916908365ffffffffffff160217905550611536565b7f2b1fa2edafe6f7b9e97c1a9e0c3660e645beb2dcaa2d45bdbf9beaf5472e1ec560405160405180910390a15b5b82600260146101000a81548165ffffffffffff021916908365ffffffffffff160217905550816002601a6101000a81548165ffffffffffff021916908365ffffffffffff160217905550505050565b60008060001b830361164157600073ffffffffffffffffffffffffffffffffffffffff166115b2610af4565b73ffffffffffffffffffffffffffffffffffffffff16146115ff576040517f3fc3c27a00000000000000000000000000000000000000000000000000000000815260040160405180910390fd5b81600260006101000a81548173ffffffffffffffffffffffffffffffffffffffff021916908373ffffffffffffffffffffffffffffffffffffffff1602179055505b61164b83836118d9565b905092915050565b600061167e828473ffffffffffffffffffffffffffffffffffffffff166119ca90919063ffffffff16565b905060008151141580156116a35750808060200190518101906116a191906123bb565b155b156116e557826040517f5274afe70000000000000000000000000000000000000000000000000000000081526004016116dc9190612149565b60405180910390fd5b505050565b60008060001b831480156117305750611701610af4565b73ffffffffffffffffffffffffffffffffffffffff168273ffffffffffffffffffffffffffffffffffffffff16145b1561175b57600260006101000a81549073ffffffffffffffffffffffffffffffffffffffff02191690555b61176583836119e0565b905092915050565b600065ffffffffffff80168211156117bf576030826040517f6dfcc6500000000000000000000000000000000000000000000000000000000081526004016117b692919061243a565b60405180910390fd5b819050919050565b60006117d1610ec8565b91505082600160006101000a81548173ffffffffffffffffffffffffffffffffffffffff021916908373ffffffffffffffffffffffffffffffffffffffff16021790555081600160146101000a81548165ffffffffffff021916908365ffffffffffff160217905550611843816110d0565b15611875577f8886ebfc4259abdbc16601dd8fb5678e54878f47b3c34836cfc51154a960510960405160405180910390a15b505050565b600080611885610dc4565b90508065ffffffffffff168365ffffffffffff16116118af5782816118aa9190612463565b6118d1565b6118d08365ffffffffffff166118c361052b565b65ffffffffffff16611ad2565b5b915050919050565b60006118e58383610cf3565b6119bf57600160008085815260200190815260200160002060000160008473ffffffffffffffffffffffffffffffffffffffff1673ffffffffffffffffffffffffffffffffffffffff16815260200190815260200160002060006101000a81548160ff02191690831515021790555061195c6112d5565b73ffffffffffffffffffffffffffffffffffffffff168273ffffffffffffffffffffffffffffffffffffffff16847f2f8788117e7eff1d82e926ec794901d17c78024a50270940304540a733656f0d60405160405180910390a4600190506119c4565b600090505b92915050565b60606119d883836000611aeb565b905092915050565b60006119ec8383610cf3565b15611ac757600080600085815260200190815260200160002060000160008473ffffffffffffffffffffffffffffffffffffffff1673ffffffffffffffffffffffffffffffffffffffff16815260200190815260200160002060006101000a81548160ff021916908315150217905550611a646112d5565b73ffffffffffffffffffffffffffffffffffffffff168273ffffffffffffffffffffffffffffffffffffffff16847ff6391f5c32d9c69d2a47ea670b442974b53935d1edc7fd64eb21e047a839171b60405160405180910390a460019050611acc565b600090505b92915050565b6000818310611ae15781611ae3565b825b905092915050565b606081471015611b3257306040517fcd786059000000000000000000000000000000000000000000000000000000008152600401611b299190612149565b60405180910390fd5b6000808573ffffffffffffffffffffffffffffffffffffffff168486604051611b5b919061250e565b60006040518083038185875af1925050503d8060008114611b98576040519150601f19603f3d011682016040523d82523d6000602084013e611b9d565b606091505b5091509150611bad868383611bb8565b925050509392505050565b606082611bcd57611bc882611c47565b611c3f565b60008251148015611bf5575060008473ffffffffffffffffffffffffffffffffffffffff163b145b15611c3757836040517f9996b315000000000000000000000000000000000000000000000000000000008152600401611c2e9190612149565b60405180910390fd5b819050611c40565b5b9392505050565b600081511115611c5a5780518082602001fd5b6040517f1425ea4200000000000000000000000000000000000000000000000000000000815260040160405180910390fd5b600080fd5b60007fffffffff0000000000000000000000000000000000000000000000000000000082169050919050565b611cc681611c91565b8114611cd157600080fd5b50565b600081359050611ce381611cbd565b92915050565b600060208284031215611cff57611cfe611c8c565b5b6000611d0d84828501611cd4565b91505092915050565b60008115159050919050565b611d2b81611d16565b82525050565b6000602082019050611d466000830184611d22565b92915050565b600065ffffffffffff82169050919050565b611d6781611d4c565b82525050565b6000602082019050611d826000830184611d5e565b92915050565b600067ffffffffffffffff82169050919050565b611da581611d88565b82525050565b6000602082019050611dc06000830184611d9c565b92915050565b6000819050919050565b611dd981611dc6565b8114611de457600080fd5b50565b600081359050611df681611dd0565b92915050565b600060208284031215611e1257611e11611c8c565b5b6000611e2084828501611de7565b91505092915050565b611e3281611dc6565b82525050565b6000602082019050611e4d6000830184611e29565b92915050565b600073ffffffffffffffffffffffffffffffffffffffff82169050919050565b6000611e7e82611e53565b9050919050565b611e8e81611e73565b8114611e9957600080fd5b50565b600081359050611eab81611e85565b92915050565b60008060408385031215611ec857611ec7611c8c565b5b6000611ed685828601611de7565b9250506020611ee785828601611e9c565b9150509250929050565b6000819050919050565b611f0481611ef1565b8114611f0f57600080fd5b50565b600081359050611f2181611efb565b92915050565b600080600060608486031215611f4057611f3f611c8c565b5b6000611f4e86828701611e9c565b9350506020611f5f86828701611f12565b9250506040611f7086828701611f12565b9150509250925092565b611f8381611ef1565b82525050565b6000602082019050611f9e6000830184611f7a565b92915050565b600060208284031215611fba57611fb9611c8c565b5b6000611fc884828501611f12565b91505092915050565b611fda81611e73565b82525050565b6000606082019050611ff56000830186611fd1565b6120026020830185611f7a565b61200f6040830184611f7a565b949350505050565b61202081611d88565b811461202b57600080fd5b50565b60008135905061203d81612017565b92915050565b60006020828403121561205957612058611c8c565b5b60006120678482850161202e565b91505092915050565b60006020828403121561208657612085611c8c565b5b600061209484828501611e9c565b91505092915050565b6120a681611d4c565b81146120b157600080fd5b50565b6000813590506120c38161209d565b92915050565b6000602082840312156120df576120de611c8c565b5b60006120ed848285016120b4565b91505092915050565b60008060006060848603121561210f5761210e611c8c565b5b600061211d86828701611f12565b935050602061212e86828701611e9c565b925050604061213f86828701611f12565b9150509250925092565b600060208201905061215e6000830184611fd1565b92915050565b60006040820190506121796000830185611d5e565b6121866020830184611d5e565b9392505050565b60006040820190506121a26000830185611fd1565b6121af6020830184611d5e565b9392505050565b7f4e487b7100000000000000000000000000000000000000000000000000000000600052601160045260246000fd5b60006121f082611ef1565b91506121fb83611ef1565b9250828201905080821115612213576122126121b6565b5b92915050565b600061222482611ef1565b91507fffffffffffffffffffffffffffffffffffffffffffffffffffffffffffffffff8203612256576122556121b6565b5b600182019050919050565b60006060820190506122766000830186611f7a565b6122836020830185611f7a565b6122906040830184611f7a565b949350505050565b60006122a382611ef1565b91506122ae83611ef1565b92508282039050818111156122c6576122c56121b6565b5b92915050565b60006060820190506122e16000830186611fd1565b6122ee6020830185611fd1565b6122fb6040830184611f7a565b949350505050565b600061230e82611d4c565b915061231983611d4c565b9250828201905065ffffffffffff811115612337576123366121b6565b5b92915050565b60006040820190506123526000830185611fd1565b61235f6020830184611f7a565b9392505050565b600060408201905061237b6000830185611fd1565b6123886020830184611e29565b9392505050565b61239881611d16565b81146123a357600080fd5b50565b6000815190506123b58161238f565b92915050565b6000602082840312156123d1576123d0611c8c565b5b60006123df848285016123a6565b91505092915050565b6000819050919050565b600060ff82169050919050565b6000819050919050565b600061242461241f61241a846123e8565b6123ff565b6123f2565b9050919050565b61243481612409565b82525050565b600060408201905061244f600083018561242b565b61245c6020830184611f7a565b9392505050565b600061246e82611d4c565b915061247983611d4c565b9250828203905065ffffffffffff811115612497576124966121b6565b5b92915050565b600081519050919050565b600081905092915050565b60005b838110156124d15780820151818401526020810190506124b6565b60008484015250505050565b60006124e88261249d565b6124f281856124a8565b93506125028185602086016124b3565b80840191505092915050565b600061251a82846124dd565b91508190509291505056fea26469706673582212209c5c77b61399bd01efa7b857b07e07f7d7c03421f93fa2e053ae89a70512a7fe64736f6c63430008190033","linkReferences":{}},"methodIdentifiers":{"DEFAULT_ADMIN_ROLE()":"a217fddf","DISTRIBUTOR_ROLE()":"f0bd87cc","acceptDefaultAdminTransfer()":"cefc1429","beginDefaultAdminTransfer(address)":"634e93da","cancelDefaultAdminTransfer()":"d602b9fd","changeDefaultAdminDelay(uint48)":"649a5ec7","createDistribution(address,uint256,uint256)":"35f86a36","defaultAdmin()":"84ef8ffc","defaultAdminDelay()":"cc8463c8","defaultAdminDelayIncreaseWait()":"022d63fb","distribute(uint256,address,uint256)":"775520a4","distributions(uint256)":"4487d3df","getRoleAdmin(bytes32)":"248a9ca3","grantRole(bytes32,address)":"2f2ff15d","hasRole(bytes32,address)":"91d14854","minDistributionTime()":"1d367032","nextDistributionId()":"795be4b9","owner()":"8da5cb5b","pendingDefaultAdmin()":"cf6eefb7","pendingDefaultAdminDelay()":"a1eda53c","reclaimDistribution(uint256)":"89217e6f","renounceRole(bytes32,address)":"36568abe","revokeRole(bytes32,address)":"d547741f","rollbackDefaultAdminDelay()":"0aa6220b","setMinDistributionTime(uint64)":"477f6555","supportsInterface(bytes4)":"01ffc9a7"},"id":14}