{"abi":[{"type":"constructor","inputs":[{"name":"owner","type":"address","internalType":"address"}],"stateMutability":"nonpayable"},{"type":"function","name":"DEFAULT_ADMIN_ROLE","inputs":[],"outputs":[{"name":"","type":"bytes32","internalType":"bytes32"}],"stateMutability":"view"},{"type":"function","name":"DISTRIBUTOR_ROLE","inputs":[],"outputs":[{"name":"","type":"bytes32","internalType":"bytes32"}],"stateMutability":"view"},{"type":"function","name":"acceptDefaultAdminTransfer","inputs":[],"outputs":[],"stateMutability":"nonpayable"},{"type":"function","name":"beginDefaultAdminTransfer","inputs":[{"name":"newAdmin","type":"address","internalType":"address"}],"outputs":[],"stateMutability":"nonpayable"},{"type":"function","name":"cancelDefaultAdminTransfer","inputs":[],"outputs":[],"stateMutability":"nonpayable"},{"type":"function","name":"changeDefaultAdminDelay","inputs":[{"name":"newDelay","type":"uint48","internalType":"uint48"}],"outputs":[],"stateMutability":"nonpayable"},{"type":"function","name":"createDistribution","inputs":[{"name":"token","type":"address","internalType":"address"},{"name":"totalDistribution","type":"uint256","internalType":"uint256"},{"name":"endTime","type":"uint256","internalType":"uint256"}],"outputs":[{"name":"distributionId","type":"uint256","internalType":"uint256"}],"stateMutability":"nonpayable"},{"type":"function","name":"defaultAdmin","inputs":[],"outputs":[{"name":"","type":"address","internalType":"address"}],"stateMutability":"view"},{"type":"function","name":"defaultAdminDelay","inputs":[],"outputs":[{"name":"","type":"uint48","internalType":"uint48"}],"stateMutability":"view"},{"type":"function","name":"defaultAdminDelayIncreaseWait","inputs":[],"outputs":[{"name":"","type":"uint48","internalType":"uint48"}],"stateMutability":"view"},{"type":"function","name":"distribute","inputs":[{"name":"_distributionId","type":"uint256","internalType":"uint256"},{"name":"_recipient","type":"address","internalType":"address"},{"name":"_amount","type":"uint256","internalType":"uint256"}],"outputs":[],"stateMutability":"nonpayable"},{"type":"function","name":"distributions","inputs":[{"name":"","type":"uint256","internalType":"uint256"}],"outputs":[{"name":"token","type":"address","internalType":"address"},{"name":"remainingDistribution","type":"uint256","internalType":"uint256"},{"name":"endTime","type":"uint256","internalType":"uint256"}],"stateMutability":"view"},{"type":"function","name":"getRoleAdmin","inputs":[{"name":"role","type":"bytes32","internalType":"bytes32"}],"outputs":[{"name":"","type":"bytes32","internalType":"bytes32"}],"stateMutability":"view"},{"type":"function","name":"grantRole","inputs":[{"name":"role","type":"bytes32","internalType":"bytes32"},{"name":"account","type":"address","internalType":"address"}],"outputs":[],"stateMutability":"nonpayable"},{"type":"function","name":"hasRole","inputs":[{"name":"role","type":"bytes32","internalType":"bytes32"},{"name":"account","type":"address","internalType":"address"}],"outputs":[{"name":"","type":"bool","internalType":"bool"}],"stateMutability":"view"},{"type":"function","name":"minDistributionTime","inputs":[],"outputs":[{"name":"","type":"uint64","internalType":"uint64"}],"stateMutability":"view"},{"type":"function","name":"nextDistributionId","inputs":[],"outputs":[{"name":"","type":"uint256","internalType":"uint256"}],"stateMutability":"view"},{"type":"function","name":"owner","inputs":[],"outputs":[{"name":"","type":"address","internalType":"address"}],"stateMutability":"view"},{"type":"function","name":"pendingDefaultAdmin","inputs":[],"outputs":[{"name":"newAdmin","type":"address","internalType":"address"},{"name":"schedule","type":"uint48","internalType":"uint48"}],"stateMutability":"view"},{"type":"function","name":"pendingDefaultAdminDelay","inputs":[],"outputs":[{"name":"newDelay","type":"uint48","internalType":"uint48"},{"name":"schedule","type":"uint48","internalType":"uint48"}],"stateMutability":"view"},{"type":"function","name":"reclaimDistribution","inputs":[{"name":"_distributionId","type":"uint256","internalType":"uint256"}],"outputs":[],"stateMutability":"nonpayable"},{"type":"function","name":"renounceRole","inputs":[{"name":"role","type":"bytes32","internalType":"bytes32"},{"name":"account","type":"address","internalType":"address"}],"outputs":[],"stateMutability":"nonpayable"},{"type":"function","name":"revokeRole","inputs":[{"name":"role","type":"bytes32","internalType":"bytes32"},{"name":"account","type":"address","internalType":"address"}],"outputs":[],"stateMutability":"nonpayable"},{"type":"function","name":"rollbackDefaultAdminDelay","inputs":[],"outputs":[],"stateMutability":"nonpayable"},{"type":"function","name":"setMinDistributionTime","inputs":[{"name":"_minDistributionTime","type":"uint64","internalType":"uint64"}],"outputs":[],"stateMutability":"nonpayable"},{"type":"function","name":"supportsInterface","inputs":[{"name":"interfaceId","type":"bytes4","internalType":"bytes4"}],"outputs":[{"name":"","type":"bool","internalType":"bool"}],"stateMutability":"view"},{"type":"event","name":"DefaultAdminDelayChangeCanceled","inputs":[],"anonymous":false},{"type":"event","name":"DefaultAdminDelayChangeScheduled","inputs":[{"name":"newDelay","type":"uint48","indexed":false,"internalType":"uint48"},{"name":"effectSchedule","type":"uint48","indexed":false,"internalType":"uint48"}],"anonymous":false},{"type":"event","name":"DefaultAdminTransferCanceled","inputs":[],"anonymous":false},{"type":"event","name":"DefaultAdminTransferScheduled","inputs":[{"name":"newAdmin","type":"address","indexed":true,"internalType":"address"},{"name":"acceptSchedule","type":"uint48","indexed":false,"internalType":"uint48"}],"anonymous":false},{"type":"event","name":"Distributed","inputs":[{"name":"distributionId","type":"uint256","indexed":true,"internalType":"uint256"},{"name":"account","type":"address","indexed":true,"internalType":"address"},{"name":"amount","type":"uint256","indexed":false,"internalType":"uint256"}],"anonymous":false},{"type":"event","name":"DistributionReclaimed","inputs":[{"name":"distributionId","type":"uint256","indexed":true,"internalType":"uint256"},{"name":"totalReclaimed","type":"uint256","indexed":false,"internalType":"uint256"}],"anonymous":false},{"type":"event","name":"MinDistributionTimeSet","inputs":[{"name":"minDistributionTime","type":"uint64","indexed":false,"internalType":"uint64"}],"anonymous":false},{"type":"event","name":"NewDistributionCreated","inputs":[{"name":"distributionId","type":"uint256","indexed":true,"internalType":"uint256"},{"name":"totalDistribution","type":"uint256","indexed":false,"internalType":"uint256"},{"name":"startDate","type":"uint256","indexed":false,"internalType":"uint256"},{"name":"endDate","type":"uint256","indexed":false,"internalType":"uint256"}],"anonymous":false},{"type":"event","name":"RoleAdminChanged","inputs":[{"name":"role","type":"bytes32","indexed":true,"internalType":"bytes32"},{"name":"previousAdminRole","type":"bytes32","indexed":true,"internalType":"bytes32"},{"name":"newAdminRole","type":"bytes32","indexed":true,"internalType":"bytes32"}],"anonymous":false},{"type":"event","name":"RoleGranted","inputs":[{"name":"role","type":"bytes32","indexed":true,"internalType":"bytes32"},{"name":"account","type":"address","indexed":true,"internalType":"address"},{"name":"sender","type":"address","indexed":true,"internalType":"address"}],"anonymous":false},{"type":"event","name":"RoleRevoked","inputs":[{"name":"role","type":"bytes32","indexed":true,"internalType":"bytes32"},{"name":"account","type":"address","indexed":true,"internalType":"address"},{"name":"sender","type":"address","indexed":true,"internalType":"address"}],"anonymous":false},{"type":"error","name":"AccessControlBadConfirmation","inputs":[]},{"type":"error","name":"AccessControlEnforcedDefaultAdminDelay","inputs":[{"name":"schedule","type":"uint48","internalType":"uint48"}]},{"type":"error","name":"AccessControlEnforcedDefaultAdminRules","inputs":[]},{"type":"error","name":"AccessControlInvalidDefaultAdmin","inputs":[{"name":"defaultAdmin","type":"address","internalType":"address"}]},{"type":"error","name":"AccessControlUnauthorizedAccount","inputs":[{"name":"account","type":"address","internalType":"address"},{"name":"neededRole","type":"bytes32","internalType":"bytes32"}]},{"type":"error","name":"AddressEmptyCode","inputs":[{"name":"target","type":"address","internalType":"address"}]},{"type":"error","name":"AddressInsufficientBalance","inputs":[{"name":"account","type":"address","internalType":"address"}]},{"type":"error","name":"DistributionEnded","inputs":[]},{"type":"error","name":"DistributionRunning","inputs":[]},{"type":"error","name":"EndTimeBeforeMin","inputs":[]},{"type":"error","name":"FailedInnerCall","inputs":[]},{"type":"error","name":"NotReclaimable","inputs":[]},{"type":"error","name":"SafeCastOverflowedUintDowncast","inputs":[{"name":"bits","type":"uint8","internalType":"uint8"},{"name":"value","type":"uint256","internalType":"uint256"}]},{"type":"error","name":"SafeERC20FailedOperation","inputs":[{"name":"token","type":"address","internalType":"address"}]}],"bytecode":{"object":"0x6080604052600580546001600160401b0319166201518017905534801561002557600080fd5b5060405161170b38038061170b833981016040819052610044916101c3565b6000816001600160a01b03811661007557604051636116401160e11b81526000600482015260240160405180910390fd5b600180546001600160d01b0316600160d01b65ffffffffffff85160217905561009f6000826100a8565b505050506101f3565b6000826101065760006100c36002546001600160a01b031690565b6001600160a01b0316146100ea57604051631fe1e13d60e11b815260040160405180910390fd5b600280546001600160a01b0319166001600160a01b0384161790555b6101108383610119565b90505b92915050565b6000828152602081815260408083206001600160a01b038516845290915281205460ff166101bb576000838152602081815260408083206001600160a01b03861684529091529020805460ff191660011790556101733390565b6001600160a01b0316826001600160a01b0316847f2f8788117e7eff1d82e926ec794901d17c78024a50270940304540a733656f0d60405160405180910390a4506001610113565b506000610113565b6000602082840312156101d557600080fd5b81516001600160a01b03811681146101ec57600080fd5b9392505050565b611509806102026000396000f3fe608060405234801561001057600080fd5b506004361061018e5760003560e01c8063795be4b9116100de578063a217fddf11610097578063cf6eefb711610071578063cf6eefb7146103bd578063d547741f146103eb578063d602b9fd146103fe578063f0bd87cc1461040657600080fd5b8063a217fddf146103a5578063cc8463c8146103ad578063cefc1429146103b557600080fd5b8063795be4b91461032257806384ef8ffc1461032b57806389217e6f146103505780638da5cb5b1461036357806391d148541461036b578063a1eda53c1461037e57600080fd5b806335f86a361161014b578063477f655511610125578063477f6555146102d6578063634e93da146102e9578063649a5ec7146102fc578063775520a41461030f57600080fd5b806335f86a361461025257806336568abe146102655780634487d3df1461027857600080fd5b806301ffc9a714610193578063022d63fb146101bb5780630aa6220b146101d75780631d367032146101e1578063248a9ca31461020e5780632f2ff15d1461023f575b600080fd5b6101a66101a1366004611268565b61041b565b60405190151581526020015b60405180910390f35b620697805b60405165ffffffffffff90911681526020016101b2565b6101df610446565b005b6005546101f59067ffffffffffffffff1681565b60405167ffffffffffffffff90911681526020016101b2565b61023161021c366004611292565b60009081526020819052604090206001015490565b6040519081526020016101b2565b6101df61024d3660046112c7565b61045c565b6102316102603660046112f3565b610488565b6101df6102733660046112c7565b6105a5565b6102b1610286366004611292565b6003602052600090815260409020805460018201546002909201546001600160a01b03909116919083565b604080516001600160a01b0390941684526020840192909252908201526060016101b2565b6101df6102e4366004611326565b610651565b6101df6102f7366004611350565b6106b4565b6101df61030a36600461136b565b6106c8565b6101df61031d366004611393565b6106dc565b61023160045481565b6002546001600160a01b03165b6040516001600160a01b0390911681526020016101b2565b6101df61035e366004611292565b6107b5565b6103386108ad565b6101a66103793660046112c7565b6108c6565b6103866108ef565b6040805165ffffffffffff9384168152929091166020830152016101b2565b610231600081565b6101c0610943565b6101df6109a2565b6103c56109e2565b604080516001600160a01b03909316835265ffffffffffff9091166020830152016101b2565b6101df6103f93660046112c7565b610a03565b6101df610a2b565b6102316000805160206114b483398151915281565b60006001600160e01b031982166318a4c3c360e11b1480610440575061044082610a3e565b92915050565b600061045181610a73565b610459610a7d565b50565b8161047a57604051631fe1e13d60e11b815260040160405180910390fd5b6104848282610a8a565b5050565b60006000805160206114b48339815191526104a281610a73565b6005546104b99067ffffffffffffffff16426113de565b83116104d857604051632d731b8360e21b815260040160405180910390fd5b600480549060006104e8836113f1565b9091555060408051606080820183526001600160a01b03898116835260208084018a81528486018a8152600088815260038452879020955186546001600160a01b031916941693909317855551600185015590516002909301929092558251888152429281019290925291810186905291935083917f10496c360af0bb8491b9e0540332d53535a9ffd302449e93f0f749385b4261bb910160405180910390a261059d6001600160a01b038616333087610aaf565b509392505050565b811580156105c057506002546001600160a01b038281169116145b15610647576000806105d06109e2565b90925090506001600160a01b0382161515806105f2575065ffffffffffff8116155b8061060557504265ffffffffffff821610155b15610632576040516319ca5ebb60e01b815265ffffffffffff821660048201526024015b60405180910390fd5b50506001805465ffffffffffff60a01b191690555b6104848282610b16565b600061065c81610a73565b6005805467ffffffffffffffff191667ffffffffffffffff84169081179091556040519081527f414d7f9dac21592ba21279947bff9d47cd9e9f09a573dd27a09f47e51aca6036906020015b60405180910390a15050565b60006106bf81610a73565b61048482610b4e565b60006106d381610a73565b61048482610bc1565b6000805160206114b48339815191526106f481610a73565b60008481526003602052604090206002015442111561072657604051639856227d60e01b815260040160405180910390fd5b6000848152600360205260408120600101805484929061074790849061140a565b90915550506040518281526001600160a01b0384169085907fa7932e9c92f31e1ed56b29d00bbe669a97484dc24de28dd9c8c0429df7f358479060200160405180910390a36000848152600360205260409020546107af906001600160a01b03168484610c2a565b50505050565b6000805160206114b48339815191526107cd81610a73565b6000828152600360205260408120600201549081900361080057604051632209347960e01b815260040160405180910390fd5b804210156108215760405163885ed36360e01b815260040160405180910390fd5b600083815260036020908152604080832060018101805482546001600160a01b03198116845591869055600290920194909455905181815290926001600160a01b03169186917ff6acdc7488f8ea3bb0494d61a518623d0044b132a007383e0bff5d175596cd44910160405180910390a26108a66001600160a01b0382163384610c2a565b5050505050565b60006108c16002546001600160a01b031690565b905090565b6000918252602082815260408084206001600160a01b0393909316845291905290205460ff1690565b600254600090600160d01b900465ffffffffffff16801515801561091b57504265ffffffffffff821610155b6109275760008061093b565b600254600160a01b900465ffffffffffff16815b915091509091565b600254600090600160d01b900465ffffffffffff16801515801561096e57504265ffffffffffff8216105b61098957600154600160d01b900465ffffffffffff1661099c565b600254600160a01b900465ffffffffffff165b91505090565b60006109ac6109e2565b509050336001600160a01b038216146109da57604051636116401160e11b8152336004820152602401610629565b610459610c5b565b6001546001600160a01b03811691600160a01b90910465ffffffffffff1690565b81610a2157604051631fe1e13d60e11b815260040160405180910390fd5b6104848282610cf4565b6000610a3681610a73565b610459610d19565b60006001600160e01b03198216637965db0b60e01b148061044057506301ffc9a760e01b6001600160e01b0319831614610440565b6104598133610d24565b610a88600080610d5d565b565b600082815260208190526040902060010154610aa581610a73565b6107af8383610e1d565b6040516001600160a01b0384811660248301528381166044830152606482018390526107af9186918216906323b872dd906084015b604051602081830303815290604052915060e01b6020820180516001600160e01b038381831617835250505050610e8c565b6001600160a01b0381163314610b3f5760405163334bd91960e11b815260040160405180910390fd5b610b498282610eef565b505050565b6000610b58610943565b610b6142610f2c565b610b6b919061141d565b9050610b778282610f63565b60405165ffffffffffff821681526001600160a01b038316907f3377dc44241e779dd06afab5b788a35ca5f3b778836e2990bdb26a2a4b2e5ed69060200160405180910390a25050565b6000610bcc82610fe2565b610bd542610f2c565b610bdf919061141d565b9050610beb8282610d5d565b6040805165ffffffffffff8085168252831660208201527ff1038c18cf84a56e432fdbfaf746924b7ea511dfe03a6506a0ceba4888788d9b91016106a8565b6040516001600160a01b03838116602483015260448201839052610b4991859182169063a9059cbb90606401610ae4565b600080610c666109e2565b91509150610c7b8165ffffffffffff16151590565b1580610c8f57504265ffffffffffff821610155b15610cb7576040516319ca5ebb60e01b815265ffffffffffff82166004820152602401610629565b610cd36000610cce6002546001600160a01b031690565b610eef565b50610cdf600083610e1d565b5050600180546001600160d01b031916905550565b600082815260208190526040902060010154610d0f81610a73565b6107af8383610eef565b610a88600080610f63565b610d2e82826108c6565b6104845760405163e2517d3f60e01b81526001600160a01b038216600482015260248101839052604401610629565b600254600160d01b900465ffffffffffff168015610de0574265ffffffffffff82161015610db657600254600180546001600160d01b0316600160a01b90920465ffffffffffff16600160d01b02919091179055610de0565b6040517f2b1fa2edafe6f7b9e97c1a9e0c3660e645beb2dcaa2d45bdbf9beaf5472e1ec590600090a15b50600280546001600160a01b0316600160a01b65ffffffffffff948516026001600160d01b031617600160d01b9290931691909102919091179055565b600082610e7b576000610e386002546001600160a01b031690565b6001600160a01b031614610e5f57604051631fe1e13d60e11b815260040160405180910390fd5b600280546001600160a01b0319166001600160a01b0384161790555b610e85838361102a565b9392505050565b6000610ea16001600160a01b038416836110bc565b90508051600014158015610ec6575080806020019051810190610ec49190611443565b155b15610b4957604051635274afe760e01b81526001600160a01b0384166004820152602401610629565b600082158015610f0c57506002546001600160a01b038381169116145b15610f2257600280546001600160a01b03191690555b610e8583836110ca565b600065ffffffffffff821115610f5f576040516306dfcc6560e41b81526030600482015260248101839052604401610629565b5090565b6000610f6d6109e2565b6001805465ffffffffffff8616600160a01b026001600160d01b03199091166001600160a01b038816171790559150610faf90508165ffffffffffff16151590565b15610b49576040517f8886ebfc4259abdbc16601dd8fb5678e54878f47b3c34836cfc51154a960510990600090a1505050565b600080610fed610943565b90508065ffffffffffff168365ffffffffffff1611611015576110108382611465565b610e85565b610e8565ffffffffffff841662069780611135565b600061103683836108c6565b6110b4576000838152602081815260408083206001600160a01b03861684529091529020805460ff1916600117905561106c3390565b6001600160a01b0316826001600160a01b0316847f2f8788117e7eff1d82e926ec794901d17c78024a50270940304540a733656f0d60405160405180910390a4506001610440565b506000610440565b6060610e858383600061114b565b60006110d683836108c6565b156110b4576000838152602081815260408083206001600160a01b0386168085529252808320805460ff1916905551339286917ff6391f5c32d9c69d2a47ea670b442974b53935d1edc7fd64eb21e047a839171b9190a4506001610440565b60008183106111445781610e85565b5090919050565b6060814710156111705760405163cd78605960e01b8152306004820152602401610629565b600080856001600160a01b0316848660405161118c9190611484565b60006040518083038185875af1925050503d80600081146111c9576040519150601f19603f3d011682016040523d82523d6000602084013e6111ce565b606091505b50915091506111de8683836111e8565b9695505050505050565b6060826111f8576110108261123f565b815115801561120f57506001600160a01b0384163b155b1561123857604051639996b31560e01b81526001600160a01b0385166004820152602401610629565b5080610e85565b80511561124f5780518082602001fd5b604051630a12f52160e11b815260040160405180910390fd5b60006020828403121561127a57600080fd5b81356001600160e01b031981168114610e8557600080fd5b6000602082840312156112a457600080fd5b5035919050565b80356001600160a01b03811681146112c257600080fd5b919050565b600080604083850312156112da57600080fd5b823591506112ea602084016112ab565b90509250929050565b60008060006060848603121561130857600080fd5b611311846112ab565b95602085013595506040909401359392505050565b60006020828403121561133857600080fd5b813567ffffffffffffffff81168114610e8557600080fd5b60006020828403121561136257600080fd5b610e85826112ab565b60006020828403121561137d57600080fd5b813565ffffffffffff81168114610e8557600080fd5b6000806000606084860312156113a857600080fd5b833592506113b8602085016112ab565b9150604084013590509250925092565b634e487b7160e01b600052601160045260246000fd5b80820180821115610440576104406113c8565b600060018201611403576114036113c8565b5060010190565b81810381811115610440576104406113c8565b65ffffffffffff81811683821601908082111561143c5761143c6113c8565b5092915050565b60006020828403121561145557600080fd5b81518015158114610e8557600080fd5b65ffffffffffff82811682821603908082111561143c5761143c6113c8565b6000825160005b818110156114a5576020818601810151858301520161148b565b50600092019182525091905056fefbd454f36a7e1a388bd6fc3ab10d434aa4578f811acbbcf33afb1c697486313ca2646970667358221220cdd0e9d0b69a115f33e2fa901a9f29ac0db592dcc8d5aa65f154771d3f4a7cad64736f6c63430008190033","linkReferences":{}},"methodIdentifiers":{"DEFAULT_ADMIN_ROLE()":"a217fddf","DISTRIBUTOR_ROLE()":"f0bd87cc","acceptDefaultAdminTransfer()":"cefc1429","beginDefaultAdminTransfer(address)":"634e93da","cancelDefaultAdminTransfer()":"d602b9fd","changeDefaultAdminDelay(uint48)":"649a5ec7","createDistribution(address,uint256,uint256)":"35f86a36","defaultAdmin()":"84ef8ffc","defaultAdminDelay()":"cc8463c8","defaultAdminDelayIncreaseWait()":"022d63fb","distribute(uint256,address,uint256)":"775520a4","distributions(uint256)":"4487d3df","getRoleAdmin(bytes32)":"248a9ca3","grantRole(bytes32,address)":"2f2ff15d","hasRole(bytes32,address)":"91d14854","minDistributionTime()":"1d367032","nextDistributionId()":"795be4b9","owner()":"8da5cb5b","pendingDefaultAdmin()":"cf6eefb7","pendingDefaultAdminDelay()":"a1eda53c","reclaimDistribution(uint256)":"89217e6f","renounceRole(bytes32,address)":"36568abe","revokeRole(bytes32,address)":"d547741f","rollbackDefaultAdminDelay()":"0aa6220b","setMinDistributionTime(uint64)":"477f6555","supportsInterface(bytes4)":"01ffc9a7"},"id":14}