{"abi":[{"type":"constructor","inputs":[{"name":"_orderProcessor","type":"address","internalType":"contract OrderProcessor"}],"stateMutability":"nonpayable"},{"type":"function","name":"getOrderFeeQuoteToSign","inputs":[{"name":"feeQuote","type":"tuple","internalType":"struct IOrderProcessor.FeeQuote","components":[{"name":"orderId","type":"uint256","internalType":"uint256"},{"name":"requester","type":"address","internalType":"address"},{"name":"fee","type":"uint256","internalType":"uint256"},{"name":"timestamp","type":"uint64","internalType":"uint64"},{"name":"deadline","type":"uint64","internalType":"uint64"}]}],"outputs":[{"name":"","type":"bytes32","internalType":"bytes32"}],"stateMutability":"view"},{"type":"function","name":"getOrderRequestHashToSign","inputs":[{"name":"order","type":"tuple","internalType":"struct IOrderProcessor.Order","components":[{"name":"requestTimestamp","type":"uint64","internalType":"uint64"},{"name":"recipient","type":"address","internalType":"address"},{"name":"assetToken","type":"address","internalType":"address"},{"name":"paymentToken","type":"address","internalType":"address"},{"name":"sell","type":"bool","internalType":"bool"},{"name":"orderType","type":"uint8","internalType":"enum IOrderProcessor.OrderType"},{"name":"assetTokenQuantity","type":"uint256","internalType":"uint256"},{"name":"paymentTokenQuantity","type":"uint256","internalType":"uint256"},{"name":"price","type":"uint256","internalType":"uint256"},{"name":"tif","type":"uint8","internalType":"enum IOrderProcessor.TIF"}]},{"name":"deadline","type":"uint64","internalType":"uint64"}],"outputs":[{"name":"","type":"bytes32","internalType":"bytes32"}],"stateMutability":"view"}],"bytecode":{"object":"0x60a0604052348015600e575f80fd5b50604051610619380380610619833981016040819052602b91603b565b6001600160a01b03166080526066565b5f60208284031215604a575f80fd5b81516001600160a01b0381168114605f575f80fd5b9392505050565b6080516105876100925f395f8181607301528181610108015281816101bd015261025201526105875ff3fe608060405234801561000f575f80fd5b5060043610610034575f3560e01c80634a4e00de146100385780635d8bd19d1461005d575b5f80fd5b61004b61004636600461031d565b610070565b60405190815260200160405180910390f35b61004b61006b366004610358565b6101ba565b5f7f00000000000000000000000000000000000000000000000000000000000000006001600160a01b0316633644e5156040518163ffffffff1660e01b8152600401602060405180830381865afa1580156100cd573d5f803e3d5ffd5b505050506040513d601f19601f820116820180604052508101906100f1919061036e565b6040516337675e1b60e11b81526001600160a01b037f00000000000000000000000000000000000000000000000000000000000000001690636ecebc369061013f90879087906004016103fe565b602060405180830381865afa15801561015a573d5f803e3d5ffd5b505050506040513d601f19601f8201168201806040525081019061017e919061036e565b60405161190160f01b60208201526022810192909252604282015260620160405160208183030381529060405280519060200120905092915050565b5f7f00000000000000000000000000000000000000000000000000000000000000006001600160a01b0316633644e5156040518163ffffffff1660e01b8152600401602060405180830381865afa158015610217573d5f803e3d5ffd5b505050506040513d601f19601f8201168201806040525081019061023b919061036e565b60405163161d64ff60e31b81526001600160a01b037f0000000000000000000000000000000000000000000000000000000000000000169063b0eb27f8906102879086906004016104ed565b602060405180830381865afa1580156102a2573d5f803e3d5ffd5b505050506040513d601f19601f820116820180604052508101906102c6919061036e565b60405161190160f01b602082015260228101929092526042820152606201604051602081830303815290604052805190602001209050919050565b803567ffffffffffffffff81168114610318575f80fd5b919050565b5f80828403610160811215610330575f80fd5b6101408082121561033f575f80fd5b84935061034d818601610301565b925050509250929050565b5f60a08284031215610368575f80fd5b50919050565b5f6020828403121561037e575f80fd5b5051919050565b80356001600160a01b0381168114610318575f80fd5b80358015158114610318575f80fd5b803560028110610318575f80fd5b634e487b7160e01b5f52602160045260245ffd5b600281106103dc576103dc6103b8565b9052565b803560048110610318575f80fd5b600481106103dc576103dc6103b8565b610160810161041e8261041086610301565b67ffffffffffffffff169052565b61042a60208501610385565b6001600160a01b0316602083015261044460408501610385565b6001600160a01b0316604083015261045e60608501610385565b6001600160a01b031660608301526104786080850161039b565b1515608083015261048b60a085016103aa565b61049860a08401826103cc565b5060c084013560c083015260e084013560e08301526101008085013581840152506101206104c78186016103e0565b6104d3828501826103ee565b505067ffffffffffffffff83166101408301529392505050565b8135815260a081016001600160a01b0361050960208501610385565b1660208301526040830135604083015261052560608401610301565b67ffffffffffffffff80821660608501528061054360808701610301565b16608085015250509291505056fea264697066735822122085b5471e31ed19d79b80611956ffc70553cf85374c3459e0125454f421a77c8264736f6c63430008190033","linkReferences":{}},"methodIdentifiers":{"getOrderFeeQuoteToSign((uint256,address,uint256,uint64,uint64))":"5d8bd19d","getOrderRequestHashToSign((uint64,address,address,address,bool,uint8,uint256,uint256,uint256,uint8),uint64)":"4a4e00de"},"id":157}