{"abi":[{"type":"constructor","inputs":[{"name":"_orderProcessor","type":"address","internalType":"contract OrderProcessor"}],"stateMutability":"nonpayable"},{"type":"function","name":"getOrderFeeQuoteToSign","inputs":[{"name":"feeQuote","type":"tuple","internalType":"struct IOrderProcessor.FeeQuote","components":[{"name":"orderId","type":"uint256","internalType":"uint256"},{"name":"requester","type":"address","internalType":"address"},{"name":"fee","type":"uint256","internalType":"uint256"},{"name":"timestamp","type":"uint64","internalType":"uint64"},{"name":"deadline","type":"uint64","internalType":"uint64"}]}],"outputs":[{"name":"","type":"bytes32","internalType":"bytes32"}],"stateMutability":"view"},{"type":"function","name":"getOrderRequestHashToSign","inputs":[{"name":"order","type":"tuple","internalType":"struct IOrderProcessor.Order","components":[{"name":"requestTimestamp","type":"uint64","internalType":"uint64"},{"name":"recipient","type":"address","internalType":"address"},{"name":"assetToken","type":"address","internalType":"address"},{"name":"paymentToken","type":"address","internalType":"address"},{"name":"sell","type":"bool","internalType":"bool"},{"name":"orderType","type":"uint8","internalType":"enum IOrderProcessor.OrderType"},{"name":"assetTokenQuantity","type":"uint256","internalType":"uint256"},{"name":"paymentTokenQuantity","type":"uint256","internalType":"uint256"},{"name":"price","type":"uint256","internalType":"uint256"},{"name":"tif","type":"uint8","internalType":"enum IOrderProcessor.TIF"}]},{"name":"deadline","type":"uint64","internalType":"uint64"}],"outputs":[{"name":"","type":"bytes32","internalType":"bytes32"}],"stateMutability":"view"}],"bytecode":{"object":"0x60a060405234801561001057600080fd5b50604051610b93380380610b93833981810160405281019061003291906100e1565b8073ffffffffffffffffffffffffffffffffffffffff1660808173ffffffffffffffffffffffffffffffffffffffff16815250505061010e565b600080fd5b600073ffffffffffffffffffffffffffffffffffffffff82169050919050565b600061009c82610071565b9050919050565b60006100ae82610091565b9050919050565b6100be816100a3565b81146100c957600080fd5b50565b6000815190506100db816100b5565b92915050565b6000602082840312156100f7576100f661006c565b5b6000610105848285016100cc565b91505092915050565b608051610a5661013d60003960008181609f0152818161012e015281816101fb015261028a0152610a566000f3fe608060405234801561001057600080fd5b50600436106100365760003560e01c80634a4e00de1461003b5780635d8bd19d1461006b575b600080fd5b610055600480360381019061005091906103ba565b61009b565b6040516100629190610415565b60405180910390f35b6100856004803603810190610080919061044f565b6101f7565b6040516100929190610415565b60405180910390f35b60007f000000000000000000000000000000000000000000000000000000000000000073ffffffffffffffffffffffffffffffffffffffff16633644e5156040518163ffffffff1660e01b8152600401602060405180830381865afa158015610108573d6000803e3d6000fd5b505050506040513d601f19601f8201168201806040525081019061012c91906104a8565b7f000000000000000000000000000000000000000000000000000000000000000073ffffffffffffffffffffffffffffffffffffffff16636ecebc3685856040518363ffffffff1660e01b815260040161018792919061089b565b602060405180830381865afa1580156101a4573d6000803e3d6000fd5b505050506040513d601f19601f820116820180604052508101906101c891906104a8565b6040516020016101d992919061093e565b60405160208183030381529060405280519060200120905092915050565b60007f000000000000000000000000000000000000000000000000000000000000000073ffffffffffffffffffffffffffffffffffffffff16633644e5156040518163ffffffff1660e01b8152600401602060405180830381865afa158015610264573d6000803e3d6000fd5b505050506040513d601f19601f8201168201806040525081019061028891906104a8565b7f000000000000000000000000000000000000000000000000000000000000000073ffffffffffffffffffffffffffffffffffffffff1663b0eb27f8846040518263ffffffff1660e01b81526004016102e19190610a05565b602060405180830381865afa1580156102fe573d6000803e3d6000fd5b505050506040513d601f19601f8201168201806040525081019061032291906104a8565b60405160200161033392919061093e565b604051602081830303815290604052805190602001209050919050565b600080fd5b600080fd5b6000610140828403121561037157610370610355565b5b81905092915050565b600067ffffffffffffffff82169050919050565b6103978161037a565b81146103a257600080fd5b50565b6000813590506103b48161038e565b92915050565b60008061016083850312156103d2576103d1610350565b5b60006103e08582860161035a565b9250506101406103f2858286016103a5565b9150509250929050565b6000819050919050565b61040f816103fc565b82525050565b600060208201905061042a6000830184610406565b92915050565b600060a0828403121561044657610445610355565b5b81905092915050565b600060a0828403121561046557610464610350565b5b600061047384828501610430565b91505092915050565b610485816103fc565b811461049057600080fd5b50565b6000815190506104a28161047c565b92915050565b6000602082840312156104be576104bd610350565b5b60006104cc84828501610493565b91505092915050565b60006104e460208401846103a5565b905092915050565b6104f58161037a565b82525050565b600073ffffffffffffffffffffffffffffffffffffffff82169050919050565b6000610526826104fb565b9050919050565b6105368161051b565b811461054157600080fd5b50565b6000813590506105538161052d565b92915050565b60006105686020840184610544565b905092915050565b6105798161051b565b82525050565b60008115159050919050565b6105948161057f565b811461059f57600080fd5b50565b6000813590506105b18161058b565b92915050565b60006105c660208401846105a2565b905092915050565b6105d78161057f565b82525050565b600281106105ea57600080fd5b50565b6000813590506105fc816105dd565b92915050565b600061061160208401846105ed565b905092915050565b7f4e487b7100000000000000000000000000000000000000000000000000000000600052602160045260246000fd5b6002811061065957610658610619565b5b50565b600081905061066a82610648565b919050565b600061067a8261065c565b9050919050565b61068a8161066f565b82525050565b6000819050919050565b6106a381610690565b81146106ae57600080fd5b50565b6000813590506106c08161069a565b92915050565b60006106d560208401846106b1565b905092915050565b6106e681610690565b82525050565b600481106106f957600080fd5b50565b60008135905061070b816106ec565b92915050565b600061072060208401846106fc565b905092915050565b6004811061073957610738610619565b5b50565b600081905061074a82610728565b919050565b600061075a8261073c565b9050919050565b61076a8161074f565b82525050565b610140820161078260008301836104d5565b61078f60008501826104ec565b5061079d6020830183610559565b6107aa6020850182610570565b506107b86040830183610559565b6107c56040850182610570565b506107d36060830183610559565b6107e06060850182610570565b506107ee60808301836105b7565b6107fb60808501826105ce565b5061080960a0830183610602565b61081660a0850182610681565b5061082460c08301836106c6565b61083160c08501826106dd565b5061083f60e08301836106c6565b61084c60e08501826106dd565b5061085b6101008301836106c6565b6108696101008501826106dd565b50610878610120830183610711565b610886610120850182610761565b50505050565b6108958161037a565b82525050565b6000610160820190506108b16000830185610770565b6108bf61014083018461088c565b9392505050565b600081905092915050565b7f1901000000000000000000000000000000000000000000000000000000000000600082015250565b60006109076002836108c6565b9150610912826108d1565b600282019050919050565b6000819050919050565b610938610933826103fc565b61091d565b82525050565b6000610949826108fa565b91506109558285610927565b6020820191506109658284610927565b6020820191508190509392505050565b60a0820161098660008301836106c6565b61099360008501826106dd565b506109a16020830183610559565b6109ae6020850182610570565b506109bc60408301836106c6565b6109c960408501826106dd565b506109d760608301836104d5565b6109e460608501826104ec565b506109f260808301836104d5565b6109ff60808501826104ec565b50505050565b600060a082019050610a1a6000830184610975565b9291505056fea264697066735822122053c76fac02f50f905193228d23b3cf1e226789eeb75f44be1f0b43f29585e62c64736f6c63430008190033","linkReferences":{}},"methodIdentifiers":{"getOrderFeeQuoteToSign((uint256,address,uint256,uint64,uint64))":"5d8bd19d","getOrderRequestHashToSign((uint64,address,address,address,bool,uint8,uint256,uint256,uint256,uint8),uint64)":"4a4e00de"},"id":133}