{
  "abi": [
    {
      "inputs": [
        {
          "internalType": "address",
          "name": "owner",
          "type": "address"
        }
      ],
      "stateMutability": "nonpayable",
      "type": "constructor"
    },
    {
      "inputs": [],
      "name": "AccessControlBadConfirmation",
      "type": "error"
    },
    {
      "inputs": [
        {
          "internalType": "uint48",
          "name": "schedule",
          "type": "uint48"
        }
      ],
      "name": "AccessControlEnforcedDefaultAdminDelay",
      "type": "error"
    },
    {
      "inputs": [],
      "name": "AccessControlEnforcedDefaultAdminRules",
      "type": "error"
    },
    {
      "inputs": [
        {
          "internalType": "address",
          "name": "defaultAdmin",
          "type": "address"
        }
      ],
      "name": "AccessControlInvalidDefaultAdmin",
      "type": "error"
    },
    {
      "inputs": [
        {
          "internalType": "address",
          "name": "account",
          "type": "address"
        },
        {
          "internalType": "bytes32",
          "name": "neededRole",
          "type": "bytes32"
        }
      ],
      "name": "AccessControlUnauthorizedAccount",
      "type": "error"
    },
    {
      "inputs": [],
      "name": "AccountRestricted",
      "type": "error"
    },
    {
      "inputs": [
        {
          "internalType": "uint8",
          "name": "bits",
          "type": "uint8"
        },
        {
          "internalType": "uint256",
          "name": "value",
          "type": "uint256"
        }
      ],
      "name": "SafeCastOverflowedUintDowncast",
      "type": "error"
    },
    {
      "anonymous": false,
      "inputs": [],
      "name": "DefaultAdminDelayChangeCanceled",
      "type": "event"
    },
    {
      "anonymous": false,
      "inputs": [
        {
          "indexed": false,
          "internalType": "uint48",
          "name": "newDelay",
          "type": "uint48"
        },
        {
          "indexed": false,
          "internalType": "uint48",
          "name": "effectSchedule",
          "type": "uint48"
        }
      ],
      "name": "DefaultAdminDelayChangeScheduled",
      "type": "event"
    },
    {
      "anonymous": false,
      "inputs": [],
      "name": "DefaultAdminTransferCanceled",
      "type": "event"
    },
    {
      "anonymous": false,
      "inputs": [
        {
          "indexed": true,
          "internalType": "address",
          "name": "newAdmin",
          "type": "address"
        },
        {
          "indexed": false,
          "internalType": "uint48",
          "name": "acceptSchedule",
          "type": "uint48"
        }
      ],
      "name": "DefaultAdminTransferScheduled",
      "type": "event"
    },
    {
      "anonymous": false,
      "inputs": [
        {
          "indexed": true,
          "internalType": "address",
          "name": "account",
          "type": "address"
        }
      ],
      "name": "Restricted",
      "type": "event"
    },
    {
      "anonymous": false,
      "inputs": [
        {
          "indexed": true,
          "internalType": "bytes32",
          "name": "role",
          "type": "bytes32"
        },
        {
          "indexed": true,
          "internalType": "bytes32",
          "name": "previousAdminRole",
          "type": "bytes32"
        },
        {
          "indexed": true,
          "internalType": "bytes32",
          "name": "newAdminRole",
          "type": "bytes32"
        }
      ],
      "name": "RoleAdminChanged",
      "type": "event"
    },
    {
      "anonymous": false,
      "inputs": [
        {
          "indexed": true,
          "internalType": "bytes32",
          "name": "role",
          "type": "bytes32"
        },
        {
          "indexed": true,
          "internalType": "address",
          "name": "account",
          "type": "address"
        },
        {
          "indexed": true,
          "internalType": "address",
          "name": "sender",
          "type": "address"
        }
      ],
      "name": "RoleGranted",
      "type": "event"
    },
    {
      "anonymous": false,
      "inputs": [
        {
          "indexed": true,
          "internalType": "bytes32",
          "name": "role",
          "type": "bytes32"
        },
        {
          "indexed": true,
          "internalType": "address",
          "name": "account",
          "type": "address"
        },
        {
          "indexed": true,
          "internalType": "address",
          "name": "sender",
          "type": "address"
        }
      ],
      "name": "RoleRevoked",
      "type": "event"
    },
    {
      "anonymous": false,
      "inputs": [
        {
          "indexed": true,
          "internalType": "address",
          "name": "account",
          "type": "address"
        }
      ],
      "name": "Unrestricted",
      "type": "event"
    },
    {
      "inputs": [],
      "name": "DEFAULT_ADMIN_ROLE",
      "outputs": [
        {
          "internalType": "bytes32",
          "name": "",
          "type": "bytes32"
        }
      ],
      "stateMutability": "view",
      "type": "function"
    },
    {
      "inputs": [],
      "name": "RESTRICTOR_ROLE",
      "outputs": [
        {
          "internalType": "bytes32",
          "name": "",
          "type": "bytes32"
        }
      ],
      "stateMutability": "view",
      "type": "function"
    },
    {
      "inputs": [],
      "name": "acceptDefaultAdminTransfer",
      "outputs": [],
      "stateMutability": "nonpayable",
      "type": "function"
    },
    {
      "inputs": [
        {
          "internalType": "address",
          "name": "newAdmin",
          "type": "address"
        }
      ],
      "name": "beginDefaultAdminTransfer",
      "outputs": [],
      "stateMutability": "nonpayable",
      "type": "function"
    },
    {
      "inputs": [],
      "name": "cancelDefaultAdminTransfer",
      "outputs": [],
      "stateMutability": "nonpayable",
      "type": "function"
    },
    {
      "inputs": [
        {
          "internalType": "uint48",
          "name": "newDelay",
          "type": "uint48"
        }
      ],
      "name": "changeDefaultAdminDelay",
      "outputs": [],
      "stateMutability": "nonpayable",
      "type": "function"
    },
    {
      "inputs": [],
      "name": "defaultAdmin",
      "outputs": [
        {
          "internalType": "address",
          "name": "",
          "type": "address"
        }
      ],
      "stateMutability": "view",
      "type": "function"
    },
    {
      "inputs": [],
      "name": "defaultAdminDelay",
      "outputs": [
        {
          "internalType": "uint48",
          "name": "",
          "type": "uint48"
        }
      ],
      "stateMutability": "view",
      "type": "function"
    },
    {
      "inputs": [],
      "name": "defaultAdminDelayIncreaseWait",
      "outputs": [
        {
          "internalType": "uint48",
          "name": "",
          "type": "uint48"
        }
      ],
      "stateMutability": "view",
      "type": "function"
    },
    {
      "inputs": [
        {
          "internalType": "bytes32",
          "name": "role",
          "type": "bytes32"
        }
      ],
      "name": "getRoleAdmin",
      "outputs": [
        {
          "internalType": "bytes32",
          "name": "",
          "type": "bytes32"
        }
      ],
      "stateMutability": "view",
      "type": "function"
    },
    {
      "inputs": [
        {
          "internalType": "bytes32",
          "name": "role",
          "type": "bytes32"
        },
        {
          "internalType": "address",
          "name": "account",
          "type": "address"
        }
      ],
      "name": "grantRole",
      "outputs": [],
      "stateMutability": "nonpayable",
      "type": "function"
    },
    {
      "inputs": [
        {
          "internalType": "bytes32",
          "name": "role",
          "type": "bytes32"
        },
        {
          "internalType": "address",
          "name": "account",
          "type": "address"
        }
      ],
      "name": "hasRole",
      "outputs": [
        {
          "internalType": "bool",
          "name": "",
          "type": "bool"
        }
      ],
      "stateMutability": "view",
      "type": "function"
    },
    {
      "inputs": [
        {
          "internalType": "address",
          "name": "",
          "type": "address"
        }
      ],
      "name": "isBlacklisted",
      "outputs": [
        {
          "internalType": "bool",
          "name": "",
          "type": "bool"
        }
      ],
      "stateMutability": "view",
      "type": "function"
    },
    {
      "inputs": [],
      "name": "owner",
      "outputs": [
        {
          "internalType": "address",
          "name": "",
          "type": "address"
        }
      ],
      "stateMutability": "view",
      "type": "function"
    },
    {
      "inputs": [],
      "name": "pendingDefaultAdmin",
      "outputs": [
        {
          "internalType": "address",
          "name": "newAdmin",
          "type": "address"
        },
        {
          "internalType": "uint48",
          "name": "schedule",
          "type": "uint48"
        }
      ],
      "stateMutability": "view",
      "type": "function"
    },
    {
      "inputs": [],
      "name": "pendingDefaultAdminDelay",
      "outputs": [
        {
          "internalType": "uint48",
          "name": "newDelay",
          "type": "uint48"
        },
        {
          "internalType": "uint48",
          "name": "schedule",
          "type": "uint48"
        }
      ],
      "stateMutability": "view",
      "type": "function"
    },
    {
      "inputs": [
        {
          "internalType": "bytes32",
          "name": "role",
          "type": "bytes32"
        },
        {
          "internalType": "address",
          "name": "account",
          "type": "address"
        }
      ],
      "name": "renounceRole",
      "outputs": [],
      "stateMutability": "nonpayable",
      "type": "function"
    },
    {
      "inputs": [
        {
          "internalType": "address",
          "name": "from",
          "type": "address"
        },
        {
          "internalType": "address",
          "name": "to",
          "type": "address"
        }
      ],
      "name": "requireNotRestricted",
      "outputs": [],
      "stateMutability": "view",
      "type": "function"
    },
    {
      "inputs": [
        {
          "internalType": "address",
          "name": "account",
          "type": "address"
        }
      ],
      "name": "restrict",
      "outputs": [],
      "stateMutability": "nonpayable",
      "type": "function"
    },
    {
      "inputs": [
        {
          "internalType": "bytes32",
          "name": "role",
          "type": "bytes32"
        },
        {
          "internalType": "address",
          "name": "account",
          "type": "address"
        }
      ],
      "name": "revokeRole",
      "outputs": [],
      "stateMutability": "nonpayable",
      "type": "function"
    },
    {
      "inputs": [],
      "name": "rollbackDefaultAdminDelay",
      "outputs": [],
      "stateMutability": "nonpayable",
      "type": "function"
    },
    {
      "inputs": [
        {
          "internalType": "bytes4",
          "name": "interfaceId",
          "type": "bytes4"
        }
      ],
      "name": "supportsInterface",
      "outputs": [
        {
          "internalType": "bool",
          "name": "",
          "type": "bool"
        }
      ],
      "stateMutability": "view",
      "type": "function"
    },
    {
      "inputs": [
        {
          "internalType": "address",
          "name": "account",
          "type": "address"
        }
      ],
      "name": "unrestrict",
      "outputs": [],
      "stateMutability": "nonpayable",
      "type": "function"
    }
  ],
  "bytecode": {
    "object": "0x608060405234801561001057600080fd5b5060405161110938038061110983398101604081905261002f916101ae565b6000816001600160a01b03811661006057604051636116401160e11b81526000600482015260240160405180910390fd5b600180546001600160d01b0316600160d01b65ffffffffffff85160217905561008a600082610093565b505050506101de565b6000826100f15760006100ae6002546001600160a01b031690565b6001600160a01b0316146100d557604051631fe1e13d60e11b815260040160405180910390fd5b600280546001600160a01b0319166001600160a01b0384161790555b6100fb8383610104565b90505b92915050565b6000828152602081815260408083206001600160a01b038516845290915281205460ff166101a6576000838152602081815260408083206001600160a01b03861684529091529020805460ff1916600117905561015e3390565b6001600160a01b0316826001600160a01b0316847f2f8788117e7eff1d82e926ec794901d17c78024a50270940304540a733656f0d60405160405180910390a45060016100fe565b5060006100fe565b6000602082840312156101c057600080fd5b81516001600160a01b03811681146101d757600080fd5b9392505050565b610f1c806101ed6000396000f3fe608060405234801561001057600080fd5b506004361061014d5760003560e01c806368281708116100c3578063cc8463c81161007c578063cc8463c8146102ec578063cefc1429146102f4578063cf6eefb7146102fc578063d547741f1461032a578063d602b9fd1461033d578063fe575a871461034557600080fd5b8063682817081461026a57806384ef8ffc1461027d5780638da5cb5b146102a257806391d14854146102aa578063a1eda53c146102bd578063a217fddf146102e457600080fd5b80632f2ff15d116101155780632f2ff15d146101e457806336568abe146101f757806351bcee271461020a57806353c033c214610231578063634e93da14610244578063649a5ec71461025757600080fd5b806301ffc9a714610152578063022d63fb1461017a5780630aa6220b1461019657806315ad1be3146101a0578063248a9ca3146101b3575b600080fd5b610165610160366004610d93565b610368565b60405190151581526020015b60405180910390f35b620697805b60405165ffffffffffff9091168152602001610171565b61019e610393565b005b61019e6101ae366004610dd9565b6103a9565b6101d66101c1366004610df4565b60009081526020819052604090206001015490565b604051908152602001610171565b61019e6101f2366004610e0d565b61041d565b61019e610205366004610e0d565b610449565b6101d67f23ab0e580195340a5a67800cafa0615701edfa22f79534a52851336e3cf8376a81565b61019e61023f366004610e39565b6104f5565b61019e610252366004610dd9565b610552565b61019e610265366004610e63565b610566565b61019e610278366004610dd9565b61057a565b6002546001600160a01b03165b6040516001600160a01b039091168152602001610171565b61028a6105f1565b6101656102b8366004610e0d565b61060a565b6102c5610633565b6040805165ffffffffffff938416815292909116602083015201610171565b6101d6600081565b61017f610687565b61019e6106e6565b610304610726565b604080516001600160a01b03909316835265ffffffffffff909116602083015201610171565b61019e610338366004610e0d565b610747565b61019e61076f565b610165610353366004610dd9565b60036020526000908152604090205460ff1681565b60006001600160e01b031982166318a4c3c360e11b148061038d575061038d82610782565b92915050565b600061039e816107b7565b6103a66107c1565b50565b7f23ab0e580195340a5a67800cafa0615701edfa22f79534a52851336e3cf8376a6103d3816107b7565b6001600160a01b038216600081815260036020526040808220805460ff19169055517f36b7513f59a802418208b27a8077fff6e5c8aa9e695b14b6d382b986d9cc5c289190a25050565b8161043b57604051631fe1e13d60e11b815260040160405180910390fd5b61044582826107ce565b5050565b8115801561046457506002546001600160a01b038281169116145b156104eb57600080610474610726565b90925090506001600160a01b038216151580610496575065ffffffffffff8116155b806104a957504265ffffffffffff821610155b156104d6576040516319ca5ebb60e01b815265ffffffffffff821660048201526024015b60405180910390fd5b50506001805465ffffffffffff60a01b191690555b61044582826107f9565b6001600160a01b03821660009081526003602052604090205460ff168061053457506001600160a01b03811660009081526003602052604090205460ff165b1561044557604051631d8c273560e01b815260040160405180910390fd5b600061055d816107b7565b61044582610831565b6000610571816107b7565b610445826108a4565b7f23ab0e580195340a5a67800cafa0615701edfa22f79534a52851336e3cf8376a6105a4816107b7565b6001600160a01b038216600081815260036020526040808220805460ff19166001179055517fbccb2c991f97423e28f07f65396b9a7957c18d3f47cdb19343bff10ea19e5c799190a25050565b60006106056002546001600160a01b031690565b905090565b6000918252602082815260408084206001600160a01b0393909316845291905290205460ff1690565b600254600090600160d01b900465ffffffffffff16801515801561065f57504265ffffffffffff821610155b61066b5760008061067f565b600254600160a01b900465ffffffffffff16815b915091509091565b600254600090600160d01b900465ffffffffffff1680151580156106b257504265ffffffffffff8216105b6106cd57600154600160d01b900465ffffffffffff166106e0565b600254600160a01b900465ffffffffffff165b91505090565b60006106f0610726565b509050336001600160a01b0382161461071e57604051636116401160e11b81523360048201526024016104cd565b6103a6610914565b6001546001600160a01b03811691600160a01b90910465ffffffffffff1690565b8161076557604051631fe1e13d60e11b815260040160405180910390fd5b61044582826109ad565b600061077a816107b7565b6103a66109d2565b60006001600160e01b03198216637965db0b60e01b148061038d57506301ffc9a760e01b6001600160e01b031983161461038d565b6103a681336109dd565b6107cc600080610a16565b565b6000828152602081905260409020600101546107e9816107b7565b6107f38383610ad6565b50505050565b6001600160a01b03811633146108225760405163334bd91960e11b815260040160405180910390fd5b61082c8282610b45565b505050565b600061083b610687565b61084442610b82565b61084e9190610ea1565b905061085a8282610bb9565b60405165ffffffffffff821681526001600160a01b038316907f3377dc44241e779dd06afab5b788a35ca5f3b778836e2990bdb26a2a4b2e5ed69060200160405180910390a25050565b60006108af82610c38565b6108b842610b82565b6108c29190610ea1565b90506108ce8282610a16565b6040805165ffffffffffff8085168252831660208201527ff1038c18cf84a56e432fdbfaf746924b7ea511dfe03a6506a0ceba4888788d9b910160405180910390a15050565b60008061091f610726565b915091506109348165ffffffffffff16151590565b158061094857504265ffffffffffff821610155b15610970576040516319ca5ebb60e01b815265ffffffffffff821660048201526024016104cd565b61098c60006109876002546001600160a01b031690565b610b45565b50610998600083610ad6565b5050600180546001600160d01b031916905550565b6000828152602081905260409020600101546109c8816107b7565b6107f38383610b45565b6107cc600080610bb9565b6109e7828261060a565b6104455760405163e2517d3f60e01b81526001600160a01b0382166004820152602481018390526044016104cd565b600254600160d01b900465ffffffffffff168015610a99574265ffffffffffff82161015610a6f57600254600180546001600160d01b0316600160a01b90920465ffffffffffff16600160d01b02919091179055610a99565b6040517f2b1fa2edafe6f7b9e97c1a9e0c3660e645beb2dcaa2d45bdbf9beaf5472e1ec590600090a15b50600280546001600160a01b0316600160a01b65ffffffffffff948516026001600160d01b031617600160d01b9290931691909102919091179055565b600082610b34576000610af16002546001600160a01b031690565b6001600160a01b031614610b1857604051631fe1e13d60e11b815260040160405180910390fd5b600280546001600160a01b0319166001600160a01b0384161790555b610b3e8383610c80565b9392505050565b600082158015610b6257506002546001600160a01b038381169116145b15610b7857600280546001600160a01b03191690555b610b3e8383610d12565b600065ffffffffffff821115610bb5576040516306dfcc6560e41b815260306004820152602481018390526044016104cd565b5090565b6000610bc3610726565b6001805465ffffffffffff8616600160a01b026001600160d01b03199091166001600160a01b038816171790559150610c0590508165ffffffffffff16151590565b1561082c576040517f8886ebfc4259abdbc16601dd8fb5678e54878f47b3c34836cfc51154a960510990600090a1505050565b600080610c43610687565b90508065ffffffffffff168365ffffffffffff1611610c6b57610c668382610ec7565b610b3e565b610b3e65ffffffffffff841662069780610d7d565b6000610c8c838361060a565b610d0a576000838152602081815260408083206001600160a01b03861684529091529020805460ff19166001179055610cc23390565b6001600160a01b0316826001600160a01b0316847f2f8788117e7eff1d82e926ec794901d17c78024a50270940304540a733656f0d60405160405180910390a450600161038d565b50600061038d565b6000610d1e838361060a565b15610d0a576000838152602081815260408083206001600160a01b0386168085529252808320805460ff1916905551339286917ff6391f5c32d9c69d2a47ea670b442974b53935d1edc7fd64eb21e047a839171b9190a450600161038d565b6000818310610d8c5781610b3e565b5090919050565b600060208284031215610da557600080fd5b81356001600160e01b031981168114610b3e57600080fd5b80356001600160a01b0381168114610dd457600080fd5b919050565b600060208284031215610deb57600080fd5b610b3e82610dbd565b600060208284031215610e0657600080fd5b5035919050565b60008060408385031215610e2057600080fd5b82359150610e3060208401610dbd565b90509250929050565b60008060408385031215610e4c57600080fd5b610e5583610dbd565b9150610e3060208401610dbd565b600060208284031215610e7557600080fd5b813565ffffffffffff81168114610b3e57600080fd5b634e487b7160e01b600052601160045260246000fd5b65ffffffffffff818116838216019080821115610ec057610ec0610e8b565b5092915050565b65ffffffffffff828116828216039080821115610ec057610ec0610e8b56fea26469706673582212209d94793900ebb18370668bb1968ec1c5d46a3d4f38a015e5d8d6032bb86b8d5164736f6c63430008190033",
    "linkReferences": {}
  },
  "methodIdentifiers": {
    "DEFAULT_ADMIN_ROLE()": "a217fddf",
    "RESTRICTOR_ROLE()": "51bcee27",
    "acceptDefaultAdminTransfer()": "cefc1429",
    "beginDefaultAdminTransfer(address)": "634e93da",
    "cancelDefaultAdminTransfer()": "d602b9fd",
    "changeDefaultAdminDelay(uint48)": "649a5ec7",
    "defaultAdmin()": "84ef8ffc",
    "defaultAdminDelay()": "cc8463c8",
    "defaultAdminDelayIncreaseWait()": "022d63fb",
    "getRoleAdmin(bytes32)": "248a9ca3",
    "grantRole(bytes32,address)": "2f2ff15d",
    "hasRole(bytes32,address)": "91d14854",
    "isBlacklisted(address)": "fe575a87",
    "owner()": "8da5cb5b",
    "pendingDefaultAdmin()": "cf6eefb7",
    "pendingDefaultAdminDelay()": "a1eda53c",
    "renounceRole(bytes32,address)": "36568abe",
    "requireNotRestricted(address,address)": "53c033c2",
    "restrict(address)": "68281708",
    "revokeRole(bytes32,address)": "d547741f",
    "rollbackDefaultAdminDelay()": "0aa6220b",
    "supportsInterface(bytes4)": "01ffc9a7",
    "unrestrict(address)": "15ad1be3"
  },
  "id": 7
}