{"abi":[{"type":"constructor","inputs":[{"name":"owner","type":"address","internalType":"address"}],"stateMutability":"nonpayable"},{"type":"function","name":"DEFAULT_ADMIN_ROLE","inputs":[],"outputs":[{"name":"","type":"bytes32","internalType":"bytes32"}],"stateMutability":"view"},{"type":"function","name":"RESTRICTOR_ROLE","inputs":[],"outputs":[{"name":"","type":"bytes32","internalType":"bytes32"}],"stateMutability":"view"},{"type":"function","name":"acceptDefaultAdminTransfer","inputs":[],"outputs":[],"stateMutability":"nonpayable"},{"type":"function","name":"beginDefaultAdminTransfer","inputs":[{"name":"newAdmin","type":"address","internalType":"address"}],"outputs":[],"stateMutability":"nonpayable"},{"type":"function","name":"cancelDefaultAdminTransfer","inputs":[],"outputs":[],"stateMutability":"nonpayable"},{"type":"function","name":"changeDefaultAdminDelay","inputs":[{"name":"newDelay","type":"uint48","internalType":"uint48"}],"outputs":[],"stateMutability":"nonpayable"},{"type":"function","name":"defaultAdmin","inputs":[],"outputs":[{"name":"","type":"address","internalType":"address"}],"stateMutability":"view"},{"type":"function","name":"defaultAdminDelay","inputs":[],"outputs":[{"name":"","type":"uint48","internalType":"uint48"}],"stateMutability":"view"},{"type":"function","name":"defaultAdminDelayIncreaseWait","inputs":[],"outputs":[{"name":"","type":"uint48","internalType":"uint48"}],"stateMutability":"view"},{"type":"function","name":"getRoleAdmin","inputs":[{"name":"role","type":"bytes32","internalType":"bytes32"}],"outputs":[{"name":"","type":"bytes32","internalType":"bytes32"}],"stateMutability":"view"},{"type":"function","name":"grantRole","inputs":[{"name":"role","type":"bytes32","internalType":"bytes32"},{"name":"account","type":"address","internalType":"address"}],"outputs":[],"stateMutability":"nonpayable"},{"type":"function","name":"hasRole","inputs":[{"name":"role","type":"bytes32","internalType":"bytes32"},{"name":"account","type":"address","internalType":"address"}],"outputs":[{"name":"","type":"bool","internalType":"bool"}],"stateMutability":"view"},{"type":"function","name":"isBlacklisted","inputs":[{"name":"","type":"address","internalType":"address"}],"outputs":[{"name":"","type":"bool","internalType":"bool"}],"stateMutability":"view"},{"type":"function","name":"owner","inputs":[],"outputs":[{"name":"","type":"address","internalType":"address"}],"stateMutability":"view"},{"type":"function","name":"pendingDefaultAdmin","inputs":[],"outputs":[{"name":"newAdmin","type":"address","internalType":"address"},{"name":"schedule","type":"uint48","internalType":"uint48"}],"stateMutability":"view"},{"type":"function","name":"pendingDefaultAdminDelay","inputs":[],"outputs":[{"name":"newDelay","type":"uint48","internalType":"uint48"},{"name":"schedule","type":"uint48","internalType":"uint48"}],"stateMutability":"view"},{"type":"function","name":"renounceRole","inputs":[{"name":"role","type":"bytes32","internalType":"bytes32"},{"name":"account","type":"address","internalType":"address"}],"outputs":[],"stateMutability":"nonpayable"},{"type":"function","name":"requireNotRestricted","inputs":[{"name":"from","type":"address","internalType":"address"},{"name":"to","type":"address","internalType":"address"}],"outputs":[],"stateMutability":"view"},{"type":"function","name":"restrict","inputs":[{"name":"account","type":"address","internalType":"address"}],"outputs":[],"stateMutability":"nonpayable"},{"type":"function","name":"revokeRole","inputs":[{"name":"role","type":"bytes32","internalType":"bytes32"},{"name":"account","type":"address","internalType":"address"}],"outputs":[],"stateMutability":"nonpayable"},{"type":"function","name":"rollbackDefaultAdminDelay","inputs":[],"outputs":[],"stateMutability":"nonpayable"},{"type":"function","name":"supportsInterface","inputs":[{"name":"interfaceId","type":"bytes4","internalType":"bytes4"}],"outputs":[{"name":"","type":"bool","internalType":"bool"}],"stateMutability":"view"},{"type":"function","name":"unrestrict","inputs":[{"name":"account","type":"address","internalType":"address"}],"outputs":[],"stateMutability":"nonpayable"},{"type":"event","name":"DefaultAdminDelayChangeCanceled","inputs":[],"anonymous":false},{"type":"event","name":"DefaultAdminDelayChangeScheduled","inputs":[{"name":"newDelay","type":"uint48","indexed":false,"internalType":"uint48"},{"name":"effectSchedule","type":"uint48","indexed":false,"internalType":"uint48"}],"anonymous":false},{"type":"event","name":"DefaultAdminTransferCanceled","inputs":[],"anonymous":false},{"type":"event","name":"DefaultAdminTransferScheduled","inputs":[{"name":"newAdmin","type":"address","indexed":true,"internalType":"address"},{"name":"acceptSchedule","type":"uint48","indexed":false,"internalType":"uint48"}],"anonymous":false},{"type":"event","name":"Restricted","inputs":[{"name":"account","type":"address","indexed":true,"internalType":"address"}],"anonymous":false},{"type":"event","name":"RoleAdminChanged","inputs":[{"name":"role","type":"bytes32","indexed":true,"internalType":"bytes32"},{"name":"previousAdminRole","type":"bytes32","indexed":true,"internalType":"bytes32"},{"name":"newAdminRole","type":"bytes32","indexed":true,"internalType":"bytes32"}],"anonymous":false},{"type":"event","name":"RoleGranted","inputs":[{"name":"role","type":"bytes32","indexed":true,"internalType":"bytes32"},{"name":"account","type":"address","indexed":true,"internalType":"address"},{"name":"sender","type":"address","indexed":true,"internalType":"address"}],"anonymous":false},{"type":"event","name":"RoleRevoked","inputs":[{"name":"role","type":"bytes32","indexed":true,"internalType":"bytes32"},{"name":"account","type":"address","indexed":true,"internalType":"address"},{"name":"sender","type":"address","indexed":true,"internalType":"address"}],"anonymous":false},{"type":"event","name":"Unrestricted","inputs":[{"name":"account","type":"address","indexed":true,"internalType":"address"}],"anonymous":false},{"type":"error","name":"AccessControlBadConfirmation","inputs":[]},{"type":"error","name":"AccessControlEnforcedDefaultAdminDelay","inputs":[{"name":"schedule","type":"uint48","internalType":"uint48"}]},{"type":"error","name":"AccessControlEnforcedDefaultAdminRules","inputs":[]},{"type":"error","name":"AccessControlInvalidDefaultAdmin","inputs":[{"name":"defaultAdmin","type":"address","internalType":"address"}]},{"type":"error","name":"AccessControlUnauthorizedAccount","inputs":[{"name":"account","type":"address","internalType":"address"},{"name":"neededRole","type":"bytes32","internalType":"bytes32"}]},{"type":"error","name":"AccountRestricted","inputs":[]},{"type":"error","name":"SafeCastOverflowedUintDowncast","inputs":[{"name":"bits","type":"uint8","internalType":"uint8"},{"name":"value","type":"uint256","internalType":"uint256"}]}],"bytecode":{"object":"0x608060405234801561000f575f80fd5b50604051611dcd380380611dcd8339818101604052810190610031919061039d565b5f815f73ffffffffffffffffffffffffffffffffffffffff168173ffffffffffffffffffffffffffffffffffffffff16036100a3575f6040517fc22c802200000000000000000000000000000000000000000000000000000000815260040161009a91906103d7565b60405180910390fd5b816001601a6101000a81548165ffffffffffff021916908365ffffffffffff1602179055506100da5f801b826100e360201b60201c565b505050506103f0565b5f805f1b83036101a0575f73ffffffffffffffffffffffffffffffffffffffff166101126101b860201b60201c565b73ffffffffffffffffffffffffffffffffffffffff161461015f576040517f3fc3c27a00000000000000000000000000000000000000000000000000000000815260040160405180910390fd5b8160025f6101000a81548173ffffffffffffffffffffffffffffffffffffffff021916908373ffffffffffffffffffffffffffffffffffffffff1602179055505b6101b083836101e060201b60201c565b905092915050565b5f60025f9054906101000a900473ffffffffffffffffffffffffffffffffffffffff16905090565b5f6101f183836102d560201b60201c565b6102cb5760015f808581526020019081526020015f205f015f8473ffffffffffffffffffffffffffffffffffffffff1673ffffffffffffffffffffffffffffffffffffffff1681526020019081526020015f205f6101000a81548160ff02191690831515021790555061026861033860201b60201c565b73ffffffffffffffffffffffffffffffffffffffff168273ffffffffffffffffffffffffffffffffffffffff16847f2f8788117e7eff1d82e926ec794901d17c78024a50270940304540a733656f0d60405160405180910390a4600190506102cf565b5f90505b92915050565b5f805f8481526020019081526020015f205f015f8373ffffffffffffffffffffffffffffffffffffffff1673ffffffffffffffffffffffffffffffffffffffff1681526020019081526020015f205f9054906101000a900460ff16905092915050565b5f33905090565b5f80fd5b5f73ffffffffffffffffffffffffffffffffffffffff82169050919050565b5f61036c82610343565b9050919050565b61037c81610362565b8114610386575f80fd5b50565b5f8151905061039781610373565b92915050565b5f602082840312156103b2576103b161033f565b5b5f6103bf84828501610389565b91505092915050565b6103d181610362565b82525050565b5f6020820190506103ea5f8301846103c8565b92915050565b6119d0806103fd5f395ff3fe608060405234801561000f575f80fd5b506004361061014b575f3560e01c806368281708116100c1578063cc8463c81161007a578063cc8463c814610362578063cefc142914610380578063cf6eefb71461038a578063d547741f146103a9578063d602b9fd146103c5578063fe575a87146103cf5761014b565b8063682817081461029d57806384ef8ffc146102b95780638da5cb5b146102d757806391d14854146102f5578063a1eda53c14610325578063a217fddf146103445761014b565b80632f2ff15d116101135780632f2ff15d146101f357806336568abe1461020f57806351bcee271461022b57806353c033c214610249578063634e93da14610265578063649a5ec7146102815761014b565b806301ffc9a71461014f578063022d63fb1461017f5780630aa6220b1461019d57806315ad1be3146101a7578063248a9ca3146101c3575b5f80fd5b6101696004803603810190610164919061155e565b6103ff565b60405161017691906115a3565b60405180910390f35b610187610478565b60405161019491906115dc565b60405180910390f35b6101a5610482565b005b6101c160048036038101906101bc919061164f565b610499565b005b6101dd60048036038101906101d891906116ad565b61055e565b6040516101ea91906116e7565b60405180910390f35b61020d60048036038101906102089190611700565b61057a565b005b61022960048036038101906102249190611700565b6105c3565b005b6102336106d5565b60405161024091906116e7565b60405180910390f35b610263600480360381019061025e919061173e565b6106f9565b005b61027f600480360381019061027a919061164f565b6107cf565b005b61029b600480360381019061029691906117a6565b6107e8565b005b6102b760048036038101906102b2919061164f565b610801565b005b6102c16108c7565b6040516102ce91906117e0565b60405180910390f35b6102df6108ef565b6040516102ec91906117e0565b60405180910390f35b61030f600480360381019061030a9190611700565b6108fd565b60405161031c91906115a3565b60405180910390f35b61032d610960565b60405161033b9291906117f9565b60405180910390f35b61034c6109be565b60405161035991906116e7565b60405180910390f35b61036a6109c4565b60405161037791906115dc565b60405180910390f35b610388610a31565b005b610392610ac6565b6040516103a0929190611820565b60405180910390f35b6103c360048036038101906103be9190611700565b610b07565b005b6103cd610b50565b005b6103e960048036038101906103e4919061164f565b610b67565b6040516103f691906115a3565b60405180910390f35b5f7f31498786000000000000000000000000000000000000000000000000000000007bffffffffffffffffffffffffffffffffffffffffffffffffffffffff1916827bffffffffffffffffffffffffffffffffffffffffffffffffffffffff19161480610471575061047082610b84565b5b9050919050565b5f62069780905090565b5f801b61048e81610bfd565b610496610c11565b50565b7f23ab0e580195340a5a67800cafa0615701edfa22f79534a52851336e3cf8376a6104c381610bfd565b5f60035f8473ffffffffffffffffffffffffffffffffffffffff1673ffffffffffffffffffffffffffffffffffffffff1681526020019081526020015f205f6101000a81548160ff0219169083151502179055508173ffffffffffffffffffffffffffffffffffffffff167f36b7513f59a802418208b27a8077fff6e5c8aa9e695b14b6d382b986d9cc5c2860405160405180910390a25050565b5f805f8381526020019081526020015f20600101549050919050565b5f801b82036105b5576040517f3fc3c27a00000000000000000000000000000000000000000000000000000000815260040160405180910390fd5b6105bf8282610c1d565b5050565b5f801b8214801561060657506105d76108c7565b73ffffffffffffffffffffffffffffffffffffffff168173ffffffffffffffffffffffffffffffffffffffff16145b156106c7575f80610615610ac6565b915091505f73ffffffffffffffffffffffffffffffffffffffff168273ffffffffffffffffffffffffffffffffffffffff1614158061065a575061065881610c3f565b155b8061066b575061066981610c53565b155b156106ad57806040517f19ca5ebb0000000000000000000000000000000000000000000000000000000081526004016106a491906115dc565b60405180910390fd5b600160146101000a81549065ffffffffffff021916905550505b6106d18282610c66565b5050565b7f23ab0e580195340a5a67800cafa0615701edfa22f79534a52851336e3cf8376a81565b60035f8373ffffffffffffffffffffffffffffffffffffffff1673ffffffffffffffffffffffffffffffffffffffff1681526020019081526020015f205f9054906101000a900460ff1680610794575060035f8273ffffffffffffffffffffffffffffffffffffffff1673ffffffffffffffffffffffffffffffffffffffff1681526020019081526020015f205f9054906101000a900460ff165b156107cb576040517f1d8c273500000000000000000000000000000000000000000000000000000000815260040160405180910390fd5b5050565b5f801b6107db81610bfd565b6107e482610ce1565b5050565b5f801b6107f481610bfd565b6107fd82610d5b565b5050565b7f23ab0e580195340a5a67800cafa0615701edfa22f79534a52851336e3cf8376a61082b81610bfd565b600160035f8473ffffffffffffffffffffffffffffffffffffffff1673ffffffffffffffffffffffffffffffffffffffff1681526020019081526020015f205f6101000a81548160ff0219169083151502179055508173ffffffffffffffffffffffffffffffffffffffff167fbccb2c991f97423e28f07f65396b9a7957c18d3f47cdb19343bff10ea19e5c7960405160405180910390a25050565b5f60025f9054906101000a900473ffffffffffffffffffffffffffffffffffffffff16905090565b5f6108f86108c7565b905090565b5f805f8481526020019081526020015f205f015f8373ffffffffffffffffffffffffffffffffffffffff1673ffffffffffffffffffffffffffffffffffffffff1681526020019081526020015f205f9054906101000a900460ff16905092915050565b5f806002601a9054906101000a900465ffffffffffff16905061098281610c3f565b8015610994575061099281610c53565b155b61099f575f806109b6565b600260149054906101000a900465ffffffffffff16815b915091509091565b5f801b81565b5f806002601a9054906101000a900465ffffffffffff1690506109e681610c3f565b80156109f757506109f681610c53565b5b610a15576001601a9054906101000a900465ffffffffffff16610a2b565b600260149054906101000a900465ffffffffffff165b91505090565b5f610a3a610ac6565b5090508073ffffffffffffffffffffffffffffffffffffffff16610a5c610dc1565b73ffffffffffffffffffffffffffffffffffffffff1614610abb57610a7f610dc1565b6040517fc22c8022000000000000000000000000000000000000000000000000000000008152600401610ab291906117e0565b60405180910390fd5b610ac3610dc8565b50565b5f8060015f9054906101000a900473ffffffffffffffffffffffffffffffffffffffff16600160149054906101000a900465ffffffffffff16915091509091565b5f801b8203610b42576040517f3fc3c27a00000000000000000000000000000000000000000000000000000000815260040160405180910390fd5b610b4c8282610e93565b5050565b5f801b610b5c81610bfd565b610b64610eb5565b50565b6003602052805f5260405f205f915054906101000a900460ff1681565b5f7f7965db0b000000000000000000000000000000000000000000000000000000007bffffffffffffffffffffffffffffffffffffffffffffffffffffffff1916827bffffffffffffffffffffffffffffffffffffffffffffffffffffffff19161480610bf65750610bf582610ec1565b5b9050919050565b610c0e81610c09610dc1565b610f2a565b50565b610c1b5f80610f7b565b565b610c268261055e565b610c2f81610bfd565b610c39838361106a565b50505050565b5f808265ffffffffffff1614159050919050565b5f428265ffffffffffff16109050919050565b610c6e610dc1565b73ffffffffffffffffffffffffffffffffffffffff168173ffffffffffffffffffffffffffffffffffffffff1614610cd2576040517f6697b23200000000000000000000000000000000000000000000000000000000815260040160405180910390fd5b610cdc8282611133565b505050565b5f610cea6109c4565b610cf3426111b3565b610cfd9190611874565b9050610d09828261120c565b8173ffffffffffffffffffffffffffffffffffffffff167f3377dc44241e779dd06afab5b788a35ca5f3b778836e2990bdb26a2a4b2e5ed682604051610d4f91906115dc565b60405180910390a25050565b5f610d65826112bd565b610d6e426111b3565b610d789190611874565b9050610d848282610f7b565b7ff1038c18cf84a56e432fdbfaf746924b7ea511dfe03a6506a0ceba4888788d9b8282604051610db59291906117f9565b60405180910390a15050565b5f33905090565b5f80610dd2610ac6565b91509150610ddf81610c3f565b1580610df15750610def81610c53565b155b15610e3357806040517f19ca5ebb000000000000000000000000000000000000000000000000000000008152600401610e2a91906115dc565b60405180910390fd5b610e465f801b610e416108c7565b611133565b50610e535f801b8361106a565b5060015f6101000a81549073ffffffffffffffffffffffffffffffffffffffff0219169055600160146101000a81549065ffffffffffff02191690555050565b610e9c8261055e565b610ea581610bfd565b610eaf8383611133565b50505050565b610ebf5f8061120c565b565b5f7f01ffc9a7000000000000000000000000000000000000000000000000000000007bffffffffffffffffffffffffffffffffffffffffffffffffffffffff1916827bffffffffffffffffffffffffffffffffffffffffffffffffffffffff1916149050919050565b610f3482826108fd565b610f775780826040517fe2517d3f000000000000000000000000000000000000000000000000000000008152600401610f6e9291906118ad565b60405180910390fd5b5050565b5f6002601a9054906101000a900465ffffffffffff169050610f9c81610c3f565b1561101b57610faa81610c53565b15610fed57600260149054906101000a900465ffffffffffff166001601a6101000a81548165ffffffffffff021916908365ffffffffffff16021790555061101a565b7f2b1fa2edafe6f7b9e97c1a9e0c3660e645beb2dcaa2d45bdbf9beaf5472e1ec560405160405180910390a15b5b82600260146101000a81548165ffffffffffff021916908365ffffffffffff160217905550816002601a6101000a81548165ffffffffffff021916908365ffffffffffff160217905550505050565b5f805f1b8303611121575f73ffffffffffffffffffffffffffffffffffffffff166110936108c7565b73ffffffffffffffffffffffffffffffffffffffff16146110e0576040517f3fc3c27a00000000000000000000000000000000000000000000000000000000815260040160405180910390fd5b8160025f6101000a81548173ffffffffffffffffffffffffffffffffffffffff021916908373ffffffffffffffffffffffffffffffffffffffff1602179055505b61112b838361131b565b905092915050565b5f805f1b8314801561117757506111486108c7565b73ffffffffffffffffffffffffffffffffffffffff168273ffffffffffffffffffffffffffffffffffffffff16145b156111a15760025f6101000a81549073ffffffffffffffffffffffffffffffffffffffff02191690555b6111ab8383611404565b905092915050565b5f65ffffffffffff8016821115611204576030826040517f6dfcc6500000000000000000000000000000000000000000000000000000000081526004016111fb92919061193a565b60405180910390fd5b819050919050565b5f611215610ac6565b9150508260015f6101000a81548173ffffffffffffffffffffffffffffffffffffffff021916908373ffffffffffffffffffffffffffffffffffffffff16021790555081600160146101000a81548165ffffffffffff021916908365ffffffffffff16021790555061128681610c3f565b156112b8577f8886ebfc4259abdbc16601dd8fb5678e54878f47b3c34836cfc51154a960510960405160405180910390a15b505050565b5f806112c76109c4565b90508065ffffffffffff168365ffffffffffff16116112f15782816112ec9190611961565b611313565b6113128365ffffffffffff16611305610478565b65ffffffffffff166114ed565b5b915050919050565b5f61132683836108fd565b6113fa5760015f808581526020019081526020015f205f015f8473ffffffffffffffffffffffffffffffffffffffff1673ffffffffffffffffffffffffffffffffffffffff1681526020019081526020015f205f6101000a81548160ff021916908315150217905550611397610dc1565b73ffffffffffffffffffffffffffffffffffffffff168273ffffffffffffffffffffffffffffffffffffffff16847f2f8788117e7eff1d82e926ec794901d17c78024a50270940304540a733656f0d60405160405180910390a4600190506113fe565b5f90505b92915050565b5f61140f83836108fd565b156114e3575f805f8581526020019081526020015f205f015f8473ffffffffffffffffffffffffffffffffffffffff1673ffffffffffffffffffffffffffffffffffffffff1681526020019081526020015f205f6101000a81548160ff021916908315150217905550611480610dc1565b73ffffffffffffffffffffffffffffffffffffffff168273ffffffffffffffffffffffffffffffffffffffff16847ff6391f5c32d9c69d2a47ea670b442974b53935d1edc7fd64eb21e047a839171b60405160405180910390a4600190506114e7565b5f90505b92915050565b5f8183106114fb57816114fd565b825b905092915050565b5f80fd5b5f7fffffffff0000000000000000000000000000000000000000000000000000000082169050919050565b61153d81611509565b8114611547575f80fd5b50565b5f8135905061155881611534565b92915050565b5f6020828403121561157357611572611505565b5b5f6115808482850161154a565b91505092915050565b5f8115159050919050565b61159d81611589565b82525050565b5f6020820190506115b65f830184611594565b92915050565b5f65ffffffffffff82169050919050565b6115d6816115bc565b82525050565b5f6020820190506115ef5f8301846115cd565b92915050565b5f73ffffffffffffffffffffffffffffffffffffffff82169050919050565b5f61161e826115f5565b9050919050565b61162e81611614565b8114611638575f80fd5b50565b5f8135905061164981611625565b92915050565b5f6020828403121561166457611663611505565b5b5f6116718482850161163b565b91505092915050565b5f819050919050565b61168c8161167a565b8114611696575f80fd5b50565b5f813590506116a781611683565b92915050565b5f602082840312156116c2576116c1611505565b5b5f6116cf84828501611699565b91505092915050565b6116e18161167a565b82525050565b5f6020820190506116fa5f8301846116d8565b92915050565b5f806040838503121561171657611715611505565b5b5f61172385828601611699565b92505060206117348582860161163b565b9150509250929050565b5f806040838503121561175457611753611505565b5b5f6117618582860161163b565b92505060206117728582860161163b565b9150509250929050565b611785816115bc565b811461178f575f80fd5b50565b5f813590506117a08161177c565b92915050565b5f602082840312156117bb576117ba611505565b5b5f6117c884828501611792565b91505092915050565b6117da81611614565b82525050565b5f6020820190506117f35f8301846117d1565b92915050565b5f60408201905061180c5f8301856115cd565b61181960208301846115cd565b9392505050565b5f6040820190506118335f8301856117d1565b61184060208301846115cd565b9392505050565b7f4e487b71000000000000000000000000000000000000000000000000000000005f52601160045260245ffd5b5f61187e826115bc565b9150611889836115bc565b9250828201905065ffffffffffff8111156118a7576118a6611847565b5b92915050565b5f6040820190506118c05f8301856117d1565b6118cd60208301846116d8565b9392505050565b5f819050919050565b5f60ff82169050919050565b5f819050919050565b5f61190c611907611902846118d4565b6118e9565b6118dd565b9050919050565b61191c816118f2565b82525050565b5f819050919050565b61193481611922565b82525050565b5f60408201905061194d5f830185611913565b61195a602083018461192b565b9392505050565b5f61196b826115bc565b9150611976836115bc565b9250828203905065ffffffffffff81111561199457611993611847565b5b9291505056fea26469706673582212205db9be7fdf04344f6295aedbc2e383ea132f5432e328e48c428d5d494b2ca0a064736f6c63430008190033","linkReferences":{}},"methodIdentifiers":{"DEFAULT_ADMIN_ROLE()":"a217fddf","RESTRICTOR_ROLE()":"51bcee27","acceptDefaultAdminTransfer()":"cefc1429","beginDefaultAdminTransfer(address)":"634e93da","cancelDefaultAdminTransfer()":"d602b9fd","changeDefaultAdminDelay(uint48)":"649a5ec7","defaultAdmin()":"84ef8ffc","defaultAdminDelay()":"cc8463c8","defaultAdminDelayIncreaseWait()":"022d63fb","getRoleAdmin(bytes32)":"248a9ca3","grantRole(bytes32,address)":"2f2ff15d","hasRole(bytes32,address)":"91d14854","isBlacklisted(address)":"fe575a87","owner()":"8da5cb5b","pendingDefaultAdmin()":"cf6eefb7","pendingDefaultAdminDelay()":"a1eda53c","renounceRole(bytes32,address)":"36568abe","requireNotRestricted(address,address)":"53c033c2","restrict(address)":"68281708","revokeRole(bytes32,address)":"d547741f","rollbackDefaultAdminDelay()":"0aa6220b","supportsInterface(bytes4)":"01ffc9a7","unrestrict(address)":"15ad1be3"},"id":8}