{"abi":[{"type":"constructor","inputs":[{"name":"_owner","type":"address","internalType":"address"}],"stateMutability":"nonpayable"},{"type":"function","name":"owner","inputs":[],"outputs":[{"name":"","type":"address","internalType":"address"}],"stateMutability":"view"},{"type":"function","name":"sendToken","inputs":[{"name":"token","type":"address","internalType":"address"},{"name":"to","type":"address","internalType":"address"},{"name":"value","type":"uint256","internalType":"uint256"}],"outputs":[],"stateMutability":"nonpayable"},{"type":"function","name":"setOwner","inputs":[{"name":"newOwner","type":"address","internalType":"address"}],"outputs":[],"stateMutability":"nonpayable"}],"bytecode":{"object":"0x6080604052348015600e575f80fd5b50604051610355380380610355833981016040819052602b91604e565b5f80546001600160a01b0319166001600160a01b03929092169190911790556079565b5f60208284031215605d575f80fd5b81516001600160a01b03811681146072575f80fd5b9392505050565b6102cf806100865f395ff3fe608060405234801561000f575f80fd5b506004361061003f575f3560e01c806313af4035146100435780632fdcfbd2146100585780638da5cb5b1461006b575b5f80fd5b610056610051366004610221565b610099565b005b610056610066366004610241565b610109565b5f5461007d906001600160a01b031681565b6040516001600160a01b03909116815260200160405180910390f35b5f546001600160a01b031633146100e85760405162461bcd60e51b815260206004820152600e60248201526d139bdd08185d5d1a1bdc9a5e995960921b60448201526064015b60405180910390fd5b5f80546001600160a01b0319166001600160a01b0392909216919091179055565b5f546001600160a01b031633146101535760405162461bcd60e51b815260206004820152600e60248201526d139bdd08185d5d1a1bdc9a5e995960921b60448201526064016100df565b60405163a9059cbb60e01b81526001600160a01b0383811660048301526024820183905284169063a9059cbb906044016020604051808303815f875af115801561019f573d5f803e3d5ffd5b505050506040513d601f19601f820116820180604052508101906101c3919061027a565b6102015760405162461bcd60e51b815260206004820152600f60248201526e151c985b9cd9995c8819985a5b1959608a1b60448201526064016100df565b505050565b80356001600160a01b038116811461021c575f80fd5b919050565b5f60208284031215610231575f80fd5b61023a82610206565b9392505050565b5f805f60608486031215610253575f80fd5b61025c84610206565b925061026a60208501610206565b9150604084013590509250925092565b5f6020828403121561028a575f80fd5b8151801515811461023a575f80fdfea2646970667358221220a84870f6efa93cab977cec31bb4ddcc624a69e989151a173faebcbd52362b67c64736f6c63430008190033","linkReferences":{}},"methodIdentifiers":{"owner()":"8da5cb5b","sendToken(address,address,uint256)":"2fdcfbd2","setOwner(address)":"13af4035"},"id":3}