{"abi":[{"type":"constructor","inputs":[{"name":"_owner","type":"address","internalType":"address"}],"stateMutability":"nonpayable"},{"type":"function","name":"owner","inputs":[],"outputs":[{"name":"","type":"address","internalType":"address"}],"stateMutability":"view"},{"type":"function","name":"sendToken","inputs":[{"name":"token","type":"address","internalType":"address"},{"name":"to","type":"address","internalType":"address"},{"name":"value","type":"uint256","internalType":"uint256"}],"outputs":[],"stateMutability":"nonpayable"},{"type":"function","name":"setOwner","inputs":[{"name":"newOwner","type":"address","internalType":"address"}],"outputs":[],"stateMutability":"nonpayable"}],"bytecode":{"object":"0x608060405234801561000f575f80fd5b506040516106c33803806106c3833981810160405281019061003191906100d4565b805f806101000a81548173ffffffffffffffffffffffffffffffffffffffff021916908373ffffffffffffffffffffffffffffffffffffffff160217905550506100ff565b5f80fd5b5f73ffffffffffffffffffffffffffffffffffffffff82169050919050565b5f6100a38261007a565b9050919050565b6100b381610099565b81146100bd575f80fd5b50565b5f815190506100ce816100aa565b92915050565b5f602082840312156100e9576100e8610076565b5b5f6100f6848285016100c0565b91505092915050565b6105b78061010c5f395ff3fe608060405234801561000f575f80fd5b506004361061003f575f3560e01c806313af4035146100435780632fdcfbd21461005f5780638da5cb5b1461007b575b5f80fd5b61005d60048036038101906100589190610335565b610099565b005b61007960048036038101906100749190610393565b610168565b005b6100836102b4565b60405161009091906103f2565b60405180910390f35b5f8054906101000a900473ffffffffffffffffffffffffffffffffffffffff1673ffffffffffffffffffffffffffffffffffffffff163373ffffffffffffffffffffffffffffffffffffffff1614610126576040517f08c379a000000000000000000000000000000000000000000000000000000000815260040161011d90610465565b60405180910390fd5b805f806101000a81548173ffffffffffffffffffffffffffffffffffffffff021916908373ffffffffffffffffffffffffffffffffffffffff16021790555050565b5f8054906101000a900473ffffffffffffffffffffffffffffffffffffffff1673ffffffffffffffffffffffffffffffffffffffff163373ffffffffffffffffffffffffffffffffffffffff16146101f5576040517f08c379a00000000000000000000000000000000000000000000000000000000081526004016101ec90610465565b60405180910390fd5b8273ffffffffffffffffffffffffffffffffffffffff1663a9059cbb83836040518363ffffffff1660e01b8152600401610230929190610492565b6020604051808303815f875af115801561024c573d5f803e3d5ffd5b505050506040513d601f19601f8201168201806040525081019061027091906104ee565b6102af576040517f08c379a00000000000000000000000000000000000000000000000000000000081526004016102a690610563565b60405180910390fd5b505050565b5f8054906101000a900473ffffffffffffffffffffffffffffffffffffffff1681565b5f80fd5b5f73ffffffffffffffffffffffffffffffffffffffff82169050919050565b5f610304826102db565b9050919050565b610314816102fa565b811461031e575f80fd5b50565b5f8135905061032f8161030b565b92915050565b5f6020828403121561034a576103496102d7565b5b5f61035784828501610321565b91505092915050565b5f819050919050565b61037281610360565b811461037c575f80fd5b50565b5f8135905061038d81610369565b92915050565b5f805f606084860312156103aa576103a96102d7565b5b5f6103b786828701610321565b93505060206103c886828701610321565b92505060406103d98682870161037f565b9150509250925092565b6103ec816102fa565b82525050565b5f6020820190506104055f8301846103e3565b92915050565b5f82825260208201905092915050565b7f4e6f7420617574686f72697a65640000000000000000000000000000000000005f82015250565b5f61044f600e8361040b565b915061045a8261041b565b602082019050919050565b5f6020820190508181035f83015261047c81610443565b9050919050565b61048c81610360565b82525050565b5f6040820190506104a55f8301856103e3565b6104b26020830184610483565b9392505050565b5f8115159050919050565b6104cd816104b9565b81146104d7575f80fd5b50565b5f815190506104e8816104c4565b92915050565b5f60208284031215610503576105026102d7565b5b5f610510848285016104da565b91505092915050565b7f5472616e73666572206661696c656400000000000000000000000000000000005f82015250565b5f61054d600f8361040b565b915061055882610519565b602082019050919050565b5f6020820190508181035f83015261057a81610541565b905091905056fea26469706673582212209488a8fc2f0380e76f67dd54955a0e74acaa2a27e8f54c7a3246469d13a46ada64736f6c63430008190033","linkReferences":{}},"methodIdentifiers":{"owner()":"8da5cb5b","sendToken(address,address,uint256)":"2fdcfbd2","setOwner(address)":"13af4035"},"id":3}