{"abi":[{"type":"constructor","inputs":[],"stateMutability":"nonpayable"},{"type":"function","name":"allowance","inputs":[{"name":"owner","type":"address","internalType":"address"},{"name":"spender","type":"address","internalType":"address"}],"outputs":[{"name":"","type":"uint256","internalType":"uint256"}],"stateMutability":"view"},{"type":"function","name":"approve","inputs":[{"name":"spender","type":"address","internalType":"address"},{"name":"value","type":"uint256","internalType":"uint256"}],"outputs":[{"name":"","type":"bool","internalType":"bool"}],"stateMutability":"nonpayable"},{"type":"function","name":"balanceOf","inputs":[{"name":"account","type":"address","internalType":"address"}],"outputs":[{"name":"","type":"uint256","internalType":"uint256"}],"stateMutability":"view"},{"type":"function","name":"decimals","inputs":[],"outputs":[{"name":"","type":"uint8","internalType":"uint8"}],"stateMutability":"view"},{"type":"function","name":"name","inputs":[],"outputs":[{"name":"","type":"string","internalType":"string"}],"stateMutability":"view"},{"type":"function","name":"symbol","inputs":[],"outputs":[{"name":"","type":"string","internalType":"string"}],"stateMutability":"view"},{"type":"function","name":"totalSupply","inputs":[],"outputs":[{"name":"","type":"uint256","internalType":"uint256"}],"stateMutability":"view"},{"type":"function","name":"transfer","inputs":[{"name":"to","type":"address","internalType":"address"},{"name":"value","type":"uint256","internalType":"uint256"}],"outputs":[{"name":"","type":"bool","internalType":"bool"}],"stateMutability":"nonpayable"},{"type":"function","name":"transferAndCall","inputs":[{"name":"_to","type":"address","internalType":"address"},{"name":"_value","type":"uint256","internalType":"uint256"},{"name":"_data","type":"bytes","internalType":"bytes"}],"outputs":[{"name":"success","type":"bool","internalType":"bool"}],"stateMutability":"nonpayable"},{"type":"function","name":"transferFrom","inputs":[{"name":"from","type":"address","internalType":"address"},{"name":"to","type":"address","internalType":"address"},{"name":"value","type":"uint256","internalType":"uint256"}],"outputs":[{"name":"","type":"bool","internalType":"bool"}],"stateMutability":"nonpayable"},{"type":"event","name":"Approval","inputs":[{"name":"owner","type":"address","indexed":true,"internalType":"address"},{"name":"spender","type":"address","indexed":true,"internalType":"address"},{"name":"value","type":"uint256","indexed":false,"internalType":"uint256"}],"anonymous":false},{"type":"event","name":"Transfer","inputs":[{"name":"from","type":"address","indexed":true,"internalType":"address"},{"name":"to","type":"address","indexed":true,"internalType":"address"},{"name":"value","type":"uint256","indexed":false,"internalType":"uint256"},{"name":"data","type":"bytes","indexed":false,"internalType":"bytes"}],"anonymous":false},{"type":"event","name":"Transfer","inputs":[{"name":"from","type":"address","indexed":true,"internalType":"address"},{"name":"to","type":"address","indexed":true,"internalType":"address"},{"name":"value","type":"uint256","indexed":false,"internalType":"uint256"}],"anonymous":false},{"type":"error","name":"ERC20InsufficientAllowance","inputs":[{"name":"spender","type":"address","internalType":"address"},{"name":"allowance","type":"uint256","internalType":"uint256"},{"name":"needed","type":"uint256","internalType":"uint256"}]},{"type":"error","name":"ERC20InsufficientBalance","inputs":[{"name":"sender","type":"address","internalType":"address"},{"name":"balance","type":"uint256","internalType":"uint256"},{"name":"needed","type":"uint256","internalType":"uint256"}]},{"type":"error","name":"ERC20InvalidApprover","inputs":[{"name":"approver","type":"address","internalType":"address"}]},{"type":"error","name":"ERC20InvalidReceiver","inputs":[{"name":"receiver","type":"address","internalType":"address"}]},{"type":"error","name":"ERC20InvalidSender","inputs":[{"name":"sender","type":"address","internalType":"address"}]},{"type":"error","name":"ERC20InvalidSpender","inputs":[{"name":"spender","type":"address","internalType":"address"}]}],"bytecode":{"object":"0x608060405234801561001057600080fd5b506040518060400160405280600f81526020017f436861696e4c696e6b20546f6b656e00000000000000000000000000000000008152506040518060400160405280600481526020017f4c494e4b00000000000000000000000000000000000000000000000000000000815250816003908161008c91906105cd565b50806004908161009c91906105cd565b5050506100ad6100b260201b60201c565b6107bf565b6100ce336b033b2e3c9fd0803ce80000006100d060201b60201c565b565b600073ffffffffffffffffffffffffffffffffffffffff168273ffffffffffffffffffffffffffffffffffffffff16036101425760006040517fec442f0500000000000000000000000000000000000000000000000000000000815260040161013991906106e0565b60405180910390fd5b6101546000838361015860201b60201c565b5050565b600073ffffffffffffffffffffffffffffffffffffffff168373ffffffffffffffffffffffffffffffffffffffff16036101aa57806002600082825461019e919061072a565b9250508190555061027d565b60008060008573ffffffffffffffffffffffffffffffffffffffff1673ffffffffffffffffffffffffffffffffffffffff16815260200190815260200160002054905081811015610236578381836040517fe450d38c00000000000000000000000000000000000000000000000000000000815260040161022d9392919061076d565b60405180910390fd5b8181036000808673ffffffffffffffffffffffffffffffffffffffff1673ffffffffffffffffffffffffffffffffffffffff16815260200190815260200160002081905550505b600073ffffffffffffffffffffffffffffffffffffffff168273ffffffffffffffffffffffffffffffffffffffff16036102c65780600260008282540392505081905550610313565b806000808473ffffffffffffffffffffffffffffffffffffffff1673ffffffffffffffffffffffffffffffffffffffff168152602001908152602001600020600082825401925050819055505b8173ffffffffffffffffffffffffffffffffffffffff168373ffffffffffffffffffffffffffffffffffffffff167fddf252ad1be2c89b69c2b068fc378daa952ba7f163c4a11628f55a4df523b3ef8360405161037091906107a4565b60405180910390a3505050565b600081519050919050565b7f4e487b7100000000000000000000000000000000000000000000000000000000600052604160045260246000fd5b7f4e487b7100000000000000000000000000000000000000000000000000000000600052602260045260246000fd5b600060028204905060018216806103fe57607f821691505b602082108103610411576104106103b7565b5b50919050565b60008190508160005260206000209050919050565b60006020601f8301049050919050565b600082821b905092915050565b6000600883026104797fffffffffffffffffffffffffffffffffffffffffffffffffffffffffffffffff8261043c565b610483868361043c565b95508019841693508086168417925050509392505050565b6000819050919050565b6000819050919050565b60006104ca6104c56104c08461049b565b6104a5565b61049b565b9050919050565b6000819050919050565b6104e4836104af565b6104f86104f0826104d1565b848454610449565b825550505050565b600090565b61050d610500565b6105188184846104db565b505050565b5b8181101561053c57610531600082610505565b60018101905061051e565b5050565b601f8211156105815761055281610417565b61055b8461042c565b8101602085101561056a578190505b61057e6105768561042c565b83018261051d565b50505b505050565b600082821c905092915050565b60006105a460001984600802610586565b1980831691505092915050565b60006105bd8383610593565b9150826002028217905092915050565b6105d68261037d565b67ffffffffffffffff8111156105ef576105ee610388565b5b6105f982546103e6565b610604828285610540565b600060209050601f8311600181146106375760008415610625578287015190505b61062f85826105b1565b865550610697565b601f19841661064586610417565b60005b8281101561066d57848901518255600182019150602085019450602081019050610648565b8683101561068a5784890151610686601f891682610593565b8355505b6001600288020188555050505b505050505050565b600073ffffffffffffffffffffffffffffffffffffffff82169050919050565b60006106ca8261069f565b9050919050565b6106da816106bf565b82525050565b60006020820190506106f560008301846106d1565b92915050565b7f4e487b7100000000000000000000000000000000000000000000000000000000600052601160045260246000fd5b60006107358261049b565b91506107408361049b565b9250828201905080821115610758576107576106fb565b5b92915050565b6107678161049b565b82525050565b600060608201905061078260008301866106d1565b61078f602083018561075e565b61079c604083018461075e565b949350505050565b60006020820190506107b9600083018461075e565b92915050565b61122c806107ce6000396000f3fe608060405234801561001057600080fd5b506004361061009e5760003560e01c80634000aea0116100665780634000aea01461015d57806370a082311461018d57806395d89b41146101bd578063a9059cbb146101db578063dd62ed3e1461020b5761009e565b806306fdde03146100a3578063095ea7b3146100c157806318160ddd146100f157806323b872dd1461010f578063313ce5671461013f575b600080fd5b6100ab61023b565b6040516100b89190610c0a565b60405180910390f35b6100db60048036038101906100d69190610cd4565b6102cd565b6040516100e89190610d2f565b60405180910390f35b6100f96102f0565b6040516101069190610d59565b60405180910390f35b61012960048036038101906101249190610d74565b6102fa565b6040516101369190610d2f565b60405180910390f35b610147610329565b6040516101549190610de3565b60405180910390f35b61017760048036038101906101729190610f33565b610332565b6040516101849190610d2f565b60405180910390f35b6101a760048036038101906101a29190610fa2565b6103cb565b6040516101b49190610d59565b60405180910390f35b6101c5610413565b6040516101d29190610c0a565b60405180910390f35b6101f560048036038101906101f09190610cd4565b6104a5565b6040516102029190610d2f565b60405180910390f35b61022560048036038101906102209190610fcf565b6104c8565b6040516102329190610d59565b60405180910390f35b60606003805461024a9061103e565b80601f01602080910402602001604051908101604052809291908181526020018280546102769061103e565b80156102c35780601f10610298576101008083540402835291602001916102c3565b820191906000526020600020905b8154815290600101906020018083116102a657829003601f168201915b5050505050905090565b6000806102d861054f565b90506102e5818585610557565b600191505092915050565b6000600254905090565b60008061030561054f565b9050610312858285610569565b61031d8585856105fd565b60019150509392505050565b60006012905090565b600061033e84846104a5565b508373ffffffffffffffffffffffffffffffffffffffff163373ffffffffffffffffffffffffffffffffffffffff167fe19260aff97b920c7df27010903aeb9c8d2be5d310a2c67824cf3f15396e4c16858560405161039e9291906110c4565b60405180910390a36103af846106f1565b156103c0576103bf848484610704565b5b600190509392505050565b60008060008373ffffffffffffffffffffffffffffffffffffffff1673ffffffffffffffffffffffffffffffffffffffff168152602001908152602001600020549050919050565b6060600480546104229061103e565b80601f016020809104026020016040519081016040528092919081815260200182805461044e9061103e565b801561049b5780601f106104705761010080835404028352916020019161049b565b820191906000526020600020905b81548152906001019060200180831161047e57829003601f168201915b5050505050905090565b6000806104b061054f565b90506104bd8185856105fd565b600191505092915050565b6000600160008473ffffffffffffffffffffffffffffffffffffffff1673ffffffffffffffffffffffffffffffffffffffff16815260200190815260200160002060008373ffffffffffffffffffffffffffffffffffffffff1673ffffffffffffffffffffffffffffffffffffffff16815260200190815260200160002054905092915050565b600033905090565b610564838383600161077e565b505050565b600061057584846104c8565b90507fffffffffffffffffffffffffffffffffffffffffffffffffffffffffffffffff81146105f757818110156105e7578281836040517ffb8f41b20000000000000000000000000000000000000000000000000000000081526004016105de93929190611103565b60405180910390fd5b6105f68484848403600061077e565b5b50505050565b600073ffffffffffffffffffffffffffffffffffffffff168373ffffffffffffffffffffffffffffffffffffffff160361066f5760006040517f96c6fd1e000000000000000000000000000000000000000000000000000000008152600401610666919061113a565b60405180910390fd5b600073ffffffffffffffffffffffffffffffffffffffff168273ffffffffffffffffffffffffffffffffffffffff16036106e15760006040517fec442f050000000000000000000000000000000000000000000000000000000081526004016106d8919061113a565b60405180910390fd5b6106ec838383610955565b505050565b600080823b905060008111915050919050565b60008390508073ffffffffffffffffffffffffffffffffffffffff1663a4c0ed363385856040518463ffffffff1660e01b815260040161074693929190611155565b600060405180830381600087803b15801561076057600080fd5b505af1158015610774573d6000803e3d6000fd5b5050505050505050565b600073ffffffffffffffffffffffffffffffffffffffff168473ffffffffffffffffffffffffffffffffffffffff16036107f05760006040517fe602df050000000000000000000000000000000000000000000000000000000081526004016107e7919061113a565b60405180910390fd5b600073ffffffffffffffffffffffffffffffffffffffff168373ffffffffffffffffffffffffffffffffffffffff16036108625760006040517f94280d62000000000000000000000000000000000000000000000000000000008152600401610859919061113a565b60405180910390fd5b81600160008673ffffffffffffffffffffffffffffffffffffffff1673ffffffffffffffffffffffffffffffffffffffff16815260200190815260200160002060008573ffffffffffffffffffffffffffffffffffffffff1673ffffffffffffffffffffffffffffffffffffffff16815260200190815260200160002081905550801561094f578273ffffffffffffffffffffffffffffffffffffffff168473ffffffffffffffffffffffffffffffffffffffff167f8c5be1e5ebec7d5bd14f71427d1e84f3dd0314c0f7b2291e5b200ac8c7c3b925846040516109469190610d59565b60405180910390a35b50505050565b600073ffffffffffffffffffffffffffffffffffffffff168373ffffffffffffffffffffffffffffffffffffffff16036109a757806002600082825461099b91906111c2565b92505081905550610a7a565b60008060008573ffffffffffffffffffffffffffffffffffffffff1673ffffffffffffffffffffffffffffffffffffffff16815260200190815260200160002054905081811015610a33578381836040517fe450d38c000000000000000000000000000000000000000000000000000000008152600401610a2a93929190611103565b60405180910390fd5b8181036000808673ffffffffffffffffffffffffffffffffffffffff1673ffffffffffffffffffffffffffffffffffffffff16815260200190815260200160002081905550505b600073ffffffffffffffffffffffffffffffffffffffff168273ffffffffffffffffffffffffffffffffffffffff1603610ac35780600260008282540392505081905550610b10565b806000808473ffffffffffffffffffffffffffffffffffffffff1673ffffffffffffffffffffffffffffffffffffffff168152602001908152602001600020600082825401925050819055505b8173ffffffffffffffffffffffffffffffffffffffff168373ffffffffffffffffffffffffffffffffffffffff167fddf252ad1be2c89b69c2b068fc378daa952ba7f163c4a11628f55a4df523b3ef83604051610b6d9190610d59565b60405180910390a3505050565b600081519050919050565b600082825260208201905092915050565b60005b83811015610bb4578082015181840152602081019050610b99565b60008484015250505050565b6000601f19601f8301169050919050565b6000610bdc82610b7a565b610be68185610b85565b9350610bf6818560208601610b96565b610bff81610bc0565b840191505092915050565b60006020820190508181036000830152610c248184610bd1565b905092915050565b6000604051905090565b600080fd5b600080fd5b600073ffffffffffffffffffffffffffffffffffffffff82169050919050565b6000610c6b82610c40565b9050919050565b610c7b81610c60565b8114610c8657600080fd5b50565b600081359050610c9881610c72565b92915050565b6000819050919050565b610cb181610c9e565b8114610cbc57600080fd5b50565b600081359050610cce81610ca8565b92915050565b60008060408385031215610ceb57610cea610c36565b5b6000610cf985828601610c89565b9250506020610d0a85828601610cbf565b9150509250929050565b60008115159050919050565b610d2981610d14565b82525050565b6000602082019050610d446000830184610d20565b92915050565b610d5381610c9e565b82525050565b6000602082019050610d6e6000830184610d4a565b92915050565b600080600060608486031215610d8d57610d8c610c36565b5b6000610d9b86828701610c89565b9350506020610dac86828701610c89565b9250506040610dbd86828701610cbf565b9150509250925092565b600060ff82169050919050565b610ddd81610dc7565b82525050565b6000602082019050610df86000830184610dd4565b92915050565b600080fd5b600080fd5b7f4e487b7100000000000000000000000000000000000000000000000000000000600052604160045260246000fd5b610e4082610bc0565b810181811067ffffffffffffffff82111715610e5f57610e5e610e08565b5b80604052505050565b6000610e72610c2c565b9050610e7e8282610e37565b919050565b600067ffffffffffffffff821115610e9e57610e9d610e08565b5b610ea782610bc0565b9050602081019050919050565b82818337600083830152505050565b6000610ed6610ed184610e83565b610e68565b905082815260208101848484011115610ef257610ef1610e03565b5b610efd848285610eb4565b509392505050565b600082601f830112610f1a57610f19610dfe565b5b8135610f2a848260208601610ec3565b91505092915050565b600080600060608486031215610f4c57610f4b610c36565b5b6000610f5a86828701610c89565b9350506020610f6b86828701610cbf565b925050604084013567ffffffffffffffff811115610f8c57610f8b610c3b565b5b610f9886828701610f05565b9150509250925092565b600060208284031215610fb857610fb7610c36565b5b6000610fc684828501610c89565b91505092915050565b60008060408385031215610fe657610fe5610c36565b5b6000610ff485828601610c89565b925050602061100585828601610c89565b9150509250929050565b7f4e487b7100000000000000000000000000000000000000000000000000000000600052602260045260246000fd5b6000600282049050600182168061105657607f821691505b6020821081036110695761106861100f565b5b50919050565b600081519050919050565b600082825260208201905092915050565b60006110968261106f565b6110a0818561107a565b93506110b0818560208601610b96565b6110b981610bc0565b840191505092915050565b60006040820190506110d96000830185610d4a565b81810360208301526110eb818461108b565b90509392505050565b6110fd81610c60565b82525050565b600060608201905061111860008301866110f4565b6111256020830185610d4a565b6111326040830184610d4a565b949350505050565b600060208201905061114f60008301846110f4565b92915050565b600060608201905061116a60008301866110f4565b6111776020830185610d4a565b8181036040830152611189818461108b565b9050949350505050565b7f4e487b7100000000000000000000000000000000000000000000000000000000600052601160045260246000fd5b60006111cd82610c9e565b91506111d883610c9e565b92508282019050808211156111f0576111ef611193565b5b9291505056fea26469706673582212204a016f1cc3064fb1b6b60fd07e511c9d1f3ad33c7017a728ca03101c36f8c3a664736f6c63430008190033","linkReferences":{}},"methodIdentifiers":{"allowance(address,address)":"dd62ed3e","approve(address,uint256)":"095ea7b3","balanceOf(address)":"70a08231","decimals()":"313ce567","name()":"06fdde03","symbol()":"95d89b41","totalSupply()":"18160ddd","transfer(address,uint256)":"a9059cbb","transferAndCall(address,uint256,bytes)":"4000aea0","transferFrom(address,address,uint256)":"23b872dd"},"id":30}