{"abi":[{"type":"constructor","inputs":[],"stateMutability":"nonpayable"},{"type":"function","name":"allowance","inputs":[{"name":"owner","type":"address","internalType":"address"},{"name":"spender","type":"address","internalType":"address"}],"outputs":[{"name":"","type":"uint256","internalType":"uint256"}],"stateMutability":"view"},{"type":"function","name":"approve","inputs":[{"name":"spender","type":"address","internalType":"address"},{"name":"value","type":"uint256","internalType":"uint256"}],"outputs":[{"name":"","type":"bool","internalType":"bool"}],"stateMutability":"nonpayable"},{"type":"function","name":"balanceOf","inputs":[{"name":"account","type":"address","internalType":"address"}],"outputs":[{"name":"","type":"uint256","internalType":"uint256"}],"stateMutability":"view"},{"type":"function","name":"decimals","inputs":[],"outputs":[{"name":"","type":"uint8","internalType":"uint8"}],"stateMutability":"view"},{"type":"function","name":"name","inputs":[],"outputs":[{"name":"","type":"string","internalType":"string"}],"stateMutability":"view"},{"type":"function","name":"symbol","inputs":[],"outputs":[{"name":"","type":"string","internalType":"string"}],"stateMutability":"view"},{"type":"function","name":"totalSupply","inputs":[],"outputs":[{"name":"","type":"uint256","internalType":"uint256"}],"stateMutability":"view"},{"type":"function","name":"transfer","inputs":[{"name":"to","type":"address","internalType":"address"},{"name":"value","type":"uint256","internalType":"uint256"}],"outputs":[{"name":"","type":"bool","internalType":"bool"}],"stateMutability":"nonpayable"},{"type":"function","name":"transferAndCall","inputs":[{"name":"_to","type":"address","internalType":"address"},{"name":"_value","type":"uint256","internalType":"uint256"},{"name":"_data","type":"bytes","internalType":"bytes"}],"outputs":[{"name":"success","type":"bool","internalType":"bool"}],"stateMutability":"nonpayable"},{"type":"function","name":"transferFrom","inputs":[{"name":"from","type":"address","internalType":"address"},{"name":"to","type":"address","internalType":"address"},{"name":"value","type":"uint256","internalType":"uint256"}],"outputs":[{"name":"","type":"bool","internalType":"bool"}],"stateMutability":"nonpayable"},{"type":"event","name":"Approval","inputs":[{"name":"owner","type":"address","indexed":true,"internalType":"address"},{"name":"spender","type":"address","indexed":true,"internalType":"address"},{"name":"value","type":"uint256","indexed":false,"internalType":"uint256"}],"anonymous":false},{"type":"event","name":"Transfer","inputs":[{"name":"from","type":"address","indexed":true,"internalType":"address"},{"name":"to","type":"address","indexed":true,"internalType":"address"},{"name":"value","type":"uint256","indexed":false,"internalType":"uint256"},{"name":"data","type":"bytes","indexed":false,"internalType":"bytes"}],"anonymous":false},{"type":"event","name":"Transfer","inputs":[{"name":"from","type":"address","indexed":true,"internalType":"address"},{"name":"to","type":"address","indexed":true,"internalType":"address"},{"name":"value","type":"uint256","indexed":false,"internalType":"uint256"}],"anonymous":false},{"type":"error","name":"ERC20InsufficientAllowance","inputs":[{"name":"spender","type":"address","internalType":"address"},{"name":"allowance","type":"uint256","internalType":"uint256"},{"name":"needed","type":"uint256","internalType":"uint256"}]},{"type":"error","name":"ERC20InsufficientBalance","inputs":[{"name":"sender","type":"address","internalType":"address"},{"name":"balance","type":"uint256","internalType":"uint256"},{"name":"needed","type":"uint256","internalType":"uint256"}]},{"type":"error","name":"ERC20InvalidApprover","inputs":[{"name":"approver","type":"address","internalType":"address"}]},{"type":"error","name":"ERC20InvalidReceiver","inputs":[{"name":"receiver","type":"address","internalType":"address"}]},{"type":"error","name":"ERC20InvalidSender","inputs":[{"name":"sender","type":"address","internalType":"address"}]},{"type":"error","name":"ERC20InvalidSpender","inputs":[{"name":"spender","type":"address","internalType":"address"}]}],"bytecode":{"object":"0x608060405234801561001057600080fd5b506040518060400160405280600f81526020016e21b430b4b72634b735902a37b5b2b760891b815250604051806040016040528060048152602001634c494e4b60e01b815250816003908161006591906102a5565b50600461007282826102a5565b5061007e915050610083565b61038b565b610099336b033b2e3c9fd0803ce800000061009b565b565b6001600160a01b0382166100ca5760405163ec442f0560e01b8152600060048201526024015b60405180910390fd5b6100d6600083836100da565b5050565b6001600160a01b0383166101055780600260008282546100fa9190610364565b909155506101779050565b6001600160a01b038316600090815260208190526040902054818110156101585760405163391434e360e21b81526001600160a01b038516600482015260248101829052604481018390526064016100c1565b6001600160a01b03841660009081526020819052604090209082900390555b6001600160a01b038216610193576002805482900390556101b2565b6001600160a01b03821660009081526020819052604090208054820190555b816001600160a01b0316836001600160a01b03167fddf252ad1be2c89b69c2b068fc378daa952ba7f163c4a11628f55a4df523b3ef836040516101f791815260200190565b60405180910390a3505050565b634e487b7160e01b600052604160045260246000fd5b600181811c9082168061022e57607f821691505b60208210810361024e57634e487b7160e01b600052602260045260246000fd5b50919050565b601f8211156102a0576000816000526020600020601f850160051c8101602086101561027d5750805b601f850160051c820191505b8181101561029c57828155600101610289565b5050505b505050565b81516001600160401b038111156102be576102be610204565b6102d2816102cc845461021a565b84610254565b602080601f83116001811461030757600084156102ef5750858301515b600019600386901b1c1916600185901b17855561029c565b600085815260208120601f198616915b8281101561033657888601518255948401946001909101908401610317565b50858210156103545787850151600019600388901b60f8161c191681555b5050505050600190811b01905550565b8082018082111561038557634e487b7160e01b600052601160045260246000fd5b92915050565b61095b8061039a6000396000f3fe608060405234801561001057600080fd5b506004361061009e5760003560e01c80634000aea0116100665780634000aea01461011857806370a082311461012b57806395d89b4114610154578063a9059cbb1461015c578063dd62ed3e1461016f57600080fd5b806306fdde03146100a3578063095ea7b3146100c157806318160ddd146100e457806323b872dd146100f6578063313ce56714610109575b600080fd5b6100ab6101a8565b6040516100b891906106ae565b60405180910390f35b6100d46100cf3660046106e4565b61023a565b60405190151581526020016100b8565b6002545b6040519081526020016100b8565b6100d461010436600461070e565b610254565b604051601281526020016100b8565b6100d4610126366004610760565b610278565b6100e861013936600461082b565b6001600160a01b031660009081526020819052604090205490565b6100ab6102ee565b6100d461016a3660046106e4565b6102fd565b6100e861017d366004610846565b6001600160a01b03918216600090815260016020908152604080832093909416825291909152205490565b6060600380546101b790610879565b80601f01602080910402602001604051908101604052809291908181526020018280546101e390610879565b80156102305780601f1061020557610100808354040283529160200191610230565b820191906000526020600020905b81548152906001019060200180831161021357829003601f168201915b5050505050905090565b60003361024881858561030b565b60019150505b92915050565b60003361026285828561031d565b61026d8585856103a0565b506001949350505050565b600061028484846102fd565b50836001600160a01b0316336001600160a01b03167fe19260aff97b920c7df27010903aeb9c8d2be5d310a2c67824cf3f15396e4c1685856040516102ca9291906108b3565b60405180910390a3833b156102e4576102e48484846103ff565b5060019392505050565b6060600480546101b790610879565b6000336102488185856103a0565b6103188383836001610469565b505050565b6001600160a01b03838116600090815260016020908152604080832093861683529290522054600019811461039a578181101561038b57604051637dc7a0d960e11b81526001600160a01b038416600482015260248101829052604481018390526064015b60405180910390fd5b61039a84848484036000610469565b50505050565b6001600160a01b0383166103ca57604051634b637e8f60e11b815260006004820152602401610382565b6001600160a01b0382166103f45760405163ec442f0560e01b815260006004820152602401610382565b61031883838361053e565b604051635260769b60e11b815283906001600160a01b0382169063a4c0ed3690610431903390879087906004016108d4565b600060405180830381600087803b15801561044b57600080fd5b505af115801561045f573d6000803e3d6000fd5b5050505050505050565b6001600160a01b0384166104935760405163e602df0560e01b815260006004820152602401610382565b6001600160a01b0383166104bd57604051634a1406b160e11b815260006004820152602401610382565b6001600160a01b038085166000908152600160209081526040808320938716835292905220829055801561039a57826001600160a01b0316846001600160a01b03167f8c5be1e5ebec7d5bd14f71427d1e84f3dd0314c0f7b2291e5b200ac8c7c3b9258460405161053091815260200190565b60405180910390a350505050565b6001600160a01b03831661056957806002600082825461055e9190610904565b909155506105db9050565b6001600160a01b038316600090815260208190526040902054818110156105bc5760405163391434e360e21b81526001600160a01b03851660048201526024810182905260448101839052606401610382565b6001600160a01b03841660009081526020819052604090209082900390555b6001600160a01b0382166105f757600280548290039055610616565b6001600160a01b03821660009081526020819052604090208054820190555b816001600160a01b0316836001600160a01b03167fddf252ad1be2c89b69c2b068fc378daa952ba7f163c4a11628f55a4df523b3ef8360405161065b91815260200190565b60405180910390a3505050565b6000815180845260005b8181101561068e57602081850181015186830182015201610672565b506000602082860101526020601f19601f83011685010191505092915050565b6020815260006106c16020830184610668565b9392505050565b80356001600160a01b03811681146106df57600080fd5b919050565b600080604083850312156106f757600080fd5b610700836106c8565b946020939093013593505050565b60008060006060848603121561072357600080fd5b61072c846106c8565b925061073a602085016106c8565b9150604084013590509250925092565b634e487b7160e01b600052604160045260246000fd5b60008060006060848603121561077557600080fd5b61077e846106c8565b925060208401359150604084013567ffffffffffffffff808211156107a257600080fd5b818601915086601f8301126107b657600080fd5b8135818111156107c8576107c861074a565b604051601f8201601f19908116603f011681019083821181831017156107f0576107f061074a565b8160405282815289602084870101111561080957600080fd5b8260208601602083013760006020848301015280955050505050509250925092565b60006020828403121561083d57600080fd5b6106c1826106c8565b6000806040838503121561085957600080fd5b610862836106c8565b9150610870602084016106c8565b90509250929050565b600181811c9082168061088d57607f821691505b6020821081036108ad57634e487b7160e01b600052602260045260246000fd5b50919050565b8281526040602082015260006108cc6040830184610668565b949350505050565b60018060a01b03841681528260208201526060604082015260006108fb6060830184610668565b95945050505050565b8082018082111561024e57634e487b7160e01b600052601160045260246000fdfea2646970667358221220cadbb921acf6b5fd594d92ad032c3289cddd7d15f79b670c4b1efaab0d97585364736f6c63430008190033","linkReferences":{}},"methodIdentifiers":{"allowance(address,address)":"dd62ed3e","approve(address,uint256)":"095ea7b3","balanceOf(address)":"70a08231","decimals()":"313ce567","name()":"06fdde03","symbol()":"95d89b41","totalSupply()":"18160ddd","transfer(address,uint256)":"a9059cbb","transferAndCall(address,uint256,bytes)":"4000aea0","transferFrom(address,address,uint256)":"23b872dd"},"id":18}